{
  "_format": "hh-sol-artifact-1",
  "contractName": "Authorizable",
  "sourceName": "contracts/Authorizable.sol",
  "abi": [
    {
      "anonymous": false,
      "inputs": [
        {
          "indexed": true,
          "internalType": "address",
          "name": "previousOperator",
          "type": "address"
        },
        {
          "indexed": true,
          "internalType": "address",
          "name": "newOperator",
          "type": "address"
        }
      ],
      "name": "OperatorTransferred",
      "type": "event"
    },
    {
      "anonymous": false,
      "inputs": [
        {
          "indexed": true,
          "internalType": "address",
          "name": "previousOwner",
          "type": "address"
        },
        {
          "indexed": true,
          "internalType": "address",
          "name": "newOwner",
          "type": "address"
        }
      ],
      "name": "OwnershipTransferred",
      "type": "event"
    },
    {
      "inputs": [
        {
          "internalType": "address",
          "name": "_toAdd",
          "type": "address"
        }
      ],
      "name": "addAuthorized",
      "outputs": [],
      "stateMutability": "nonpayable",
      "type": "function"
    },
    {
      "inputs": [
        {
          "internalType": "address",
          "name": "",
          "type": "address"
        }
      ],
      "name": "authorized",
      "outputs": [
        {
          "internalType": "bool",
          "name": "",
          "type": "bool"
        }
      ],
      "stateMutability": "view",
      "type": "function"
    },
    {
      "inputs": [],
      "name": "isOperator",
      "outputs": [
        {
          "internalType": "bool",
          "name": "",
          "type": "bool"
        }
      ],
      "stateMutability": "view",
      "type": "function"
    },
    {
      "inputs": [],
      "name": "operator",
      "outputs": [
        {
          "internalType": "address",
          "name": "",
          "type": "address"
        }
      ],
      "stateMutability": "view",
      "type": "function"
    },
    {
      "inputs": [],
      "name": "owner",
      "outputs": [
        {
          "internalType": "address",
          "name": "",
          "type": "address"
        }
      ],
      "stateMutability": "view",
      "type": "function"
    },
    {
      "inputs": [
        {
          "internalType": "address",
          "name": "_toRemove",
          "type": "address"
        }
      ],
      "name": "removeAuthorized",
      "outputs": [],
      "stateMutability": "nonpayable",
      "type": "function"
    },
    {
      "inputs": [],
      "name": "renounceOwnership",
      "outputs": [],
      "stateMutability": "nonpayable",
      "type": "function"
    },
    {
      "inputs": [
        {
          "internalType": "address",
          "name": "newOperator_",
          "type": "address"
        }
      ],
      "name": "transferOperator",
      "outputs": [],
      "stateMutability": "nonpayable",
      "type": "function"
    },
    {
      "inputs": [
        {
          "internalType": "address",
          "name": "newOwner",
          "type": "address"
        }
      ],
      "name": "transferOwnership",
      "outputs": [],
      "stateMutability": "nonpayable",
      "type": "function"
    }
  ],
  "bytecode": "0x608060405234801561001057600080fd5b50600061001b6100be565b600080546001600160a01b0319166001600160a01b0383169081178255604051929350917f8be0079c531659141344cd1fd0a4f28419497f9722a3daafe3b4186f6b6457e0908290a35061006d6100be565b600180546001600160a01b0319166001600160a01b0392831617908190556040519116906000907f74da04524d50c64947f5dd5381ef1a4dca5cba8ed1d816243f9e48aa0b5617ed908290a36100c2565b3390565b610691806100d16000396000f3fe608060405234801561001057600080fd5b50600436106100935760003560e01c8063715018a611610066578063715018a6146101265780638da5cb5b1461012e578063b918161114610136578063cf1c316a1461015c578063f2fde38b1461018257610093565b806329605e77146100985780634456eda2146100c0578063485d7d94146100dc578063570ca73514610102575b600080fd5b6100be600480360360208110156100ae57600080fd5b50356001600160a01b03166101a8565b005b6100c86101fd565b604080519115158252519081900360200190f35b6100be600480360360208110156100f257600080fd5b50356001600160a01b0316610223565b61010a6102bc565b604080516001600160a01b039092168252519081900360200190f35b6100be6102cb565b61010a610377565b6100c86004803603602081101561014c57600080fd5b50356001600160a01b0316610386565b6100be6004803603602081101561017257600080fd5b50356001600160a01b031661039b565b6100be6004803603602081101561019857600080fd5b50356001600160a01b0316610421565b6001546001600160a01b031633146101f15760405162461bcd60e51b81526004018080602001828103825260248152602001806106386024913960400191505060405180910390fd5b6101fa81610523565b50565b6001546000906001600160a01b03166102146105c0565b6001600160a01b031614905090565b61022b6105c0565b6001600160a01b031661023c610377565b6001600160a01b031614610285576040805162461bcd60e51b81526020600482018190526024820152600080516020610618833981519152604482015290519081900360640190fd5b6001600160a01b03811633141561029b57600080fd5b6001600160a01b03166000908152600260205260409020805460ff19169055565b6001546001600160a01b031690565b6102d36105c0565b6001600160a01b03166102e4610377565b6001600160a01b03161461032d576040805162461bcd60e51b81526020600482018190526024820152600080516020610618833981519152604482015290519081900360640190fd5b600080546040516001600160a01b03909116907f8be0079c531659141344cd1fd0a4f28419497f9722a3daafe3b4186f6b6457e0908390a3600080546001600160a01b0319169055565b6000546001600160a01b031690565b60026020526000908152604090205460ff1681565b6103a36105c0565b6001600160a01b03166103b4610377565b6001600160a01b0316146103fd576040805162461bcd60e51b81526020600482018190526024820152600080516020610618833981519152604482015290519081900360640190fd5b6001600160a01b03166000908152600260205260409020805460ff19166001179055565b6104296105c0565b6001600160a01b031661043a610377565b6001600160a01b031614610483576040805162461bcd60e51b81526020600482018190526024820152600080516020610618833981519152604482015290519081900360640190fd5b6001600160a01b0381166104c85760405162461bcd60e51b81526004018080602001828103825260268152602001806105c56026913960400191505060405180910390fd5b600080546040516001600160a01b03808516939216917f8be0079c531659141344cd1fd0a4f28419497f9722a3daafe3b4186f6b6457e091a3600080546001600160a01b0319166001600160a01b0392909216919091179055565b6001600160a01b0381166105685760405162461bcd60e51b815260040180806020018281038252602d8152602001806105eb602d913960400191505060405180910390fd5b6040516001600160a01b038216906000907f74da04524d50c64947f5dd5381ef1a4dca5cba8ed1d816243f9e48aa0b5617ed908290a3600180546001600160a01b0319166001600160a01b0392909216919091179055565b339056fe4f776e61626c653a206e6577206f776e657220697320746865207a65726f20616464726573736f70657261746f723a207a65726f206164647265737320676976656e20666f72206e6577206f70657261746f724f776e61626c653a2063616c6c6572206973206e6f7420746865206f776e65726f70657261746f723a2063616c6c6572206973206e6f7420746865206f70657261746f72a2646970667358221220c5c8e86bca4582d0a934bcb589fdf58ed0f77717a73e8c1ef0c82e9c87f38c7064736f6c634300060c0033",
  "linkReferences": {},
  "deployedLinkReferences": {}
}