{
  "_format": "hh-sol-artifact-1",
  "contractName": "ShareWrapper",
  "sourceName": "contracts/Theoretics.sol",
  "abi": [
    {
      "inputs": [
        {
          "internalType": "address",
          "name": "account",
          "type": "address"
        }
      ],
      "name": "balanceOf",
      "outputs": [
        {
          "internalType": "uint256",
          "name": "",
          "type": "uint256"
        }
      ],
      "stateMutability": "view",
      "type": "function"
    },
    {
      "inputs": [],
      "name": "share",
      "outputs": [
        {
          "internalType": "contract IERC20Lockable",
          "name": "",
          "type": "address"
        }
      ],
      "stateMutability": "view",
      "type": "function"
    },
    {
      "inputs": [
        {
          "internalType": "uint256",
          "name": "amount",
          "type": "uint256"
        }
      ],
      "name": "stake",
      "outputs": [],
      "stateMutability": "nonpayable",
      "type": "function"
    },
    {
      "inputs": [],
      "name": "totalSupply",
      "outputs": [
        {
          "internalType": "uint256",
          "name": "",
          "type": "uint256"
        }
      ],
      "stateMutability": "view",
      "type": "function"
    }
  ],
  "bytecode": "0x608060405234801561001057600080fd5b50610577806100206000396000f3fe608060405234801561001057600080fd5b506004361061004c5760003560e01c806318160ddd1461005157806370a082311461006b578063a694fc3a14610091578063a8d5fd65146100b0575b600080fd5b6100596100d4565b60408051918252519081900360200190f35b6100596004803603602081101561008157600080fd5b50356001600160a01b03166100da565b6100ae600480360360208110156100a757600080fd5b50356100f5565b005b6100b861014e565b604080516001600160a01b039092168252519081900360200190f35b60015490565b6001600160a01b031660009081526002602052604090205490565b600154610102908261015d565b6001553360009081526002602052604090205461011f908261015d565b33600081815260026020526040812092909255905461014b916001600160a01b039091169030846101be565b50565b6000546001600160a01b031681565b6000828201838110156101b7576040805162461bcd60e51b815260206004820152601b60248201527f536166654d6174683a206164646974696f6e206f766572666c6f770000000000604482015290519081900360640190fd5b9392505050565b604080516001600160a01b0380861660248301528416604482015260648082018490528251808303909101815260849091019091526020810180516001600160e01b03166323b872dd60e01b17905261021890859061021e565b50505050565b6060610273826040518060400160405280602081526020017f5361666545524332303a206c6f772d6c6576656c2063616c6c206661696c6564815250856001600160a01b03166102d49092919063ffffffff16565b8051909150156102cf5780806020019051602081101561029257600080fd5b50516102cf5760405162461bcd60e51b815260040180806020018281038252602a815260200180610518602a913960400191505060405180910390fd5b505050565b60606102e384846000856102eb565b949350505050565b60608247101561032c5760405162461bcd60e51b81526004018080602001828103825260268152602001806104f26026913960400191505060405180910390fd5b61033585610447565b610386576040805162461bcd60e51b815260206004820152601d60248201527f416464726573733a2063616c6c20746f206e6f6e2d636f6e7472616374000000604482015290519081900360640190fd5b60006060866001600160a01b031685876040518082805190602001908083835b602083106103c55780518252601f1990920191602091820191016103a6565b6001836020036101000a03801982511681845116808217855250505050505090500191505060006040518083038185875af1925050503d8060008114610427576040519150601f19603f3d011682016040523d82523d6000602084013e61042c565b606091505b509150915061043c82828661044d565b979650505050505050565b3b151590565b6060831561045c5750816101b7565b82511561046c5782518084602001fd5b8160405162461bcd60e51b81526004018080602001828103825283818151815260200191508051906020019080838360005b838110156104b657818101518382015260200161049e565b50505050905090810190601f1680156104e35780820380516001836020036101000a031916815260200191505b509250505060405180910390fdfe416464726573733a20696e73756666696369656e742062616c616e636520666f722063616c6c5361666545524332303a204552433230206f7065726174696f6e20646964206e6f742073756363656564a2646970667358221220bf5447bee1b5ab562df41829086554a7a485e7d2e5d87b4d6e3f0a1157c4392d64736f6c634300060c0033",
  "linkReferences": {},
  "deployedLinkReferences": {}
}