{
  "_format": "hh-sol-artifact-1",
  "contractName": "Theoretics",
  "sourceName": "contracts/Theoretics.sol",
  "abi": [
    {
      "anonymous": false,
      "inputs": [
        {
          "indexed": true,
          "internalType": "address",
          "name": "executor",
          "type": "address"
        },
        {
          "indexed": false,
          "internalType": "uint256",
          "name": "at",
          "type": "uint256"
        }
      ],
      "name": "Initialized",
      "type": "event"
    },
    {
      "anonymous": false,
      "inputs": [
        {
          "indexed": true,
          "internalType": "address",
          "name": "previousOperator",
          "type": "address"
        },
        {
          "indexed": true,
          "internalType": "address",
          "name": "newOperator",
          "type": "address"
        }
      ],
      "name": "OperatorTransferred",
      "type": "event"
    },
    {
      "anonymous": false,
      "inputs": [
        {
          "indexed": true,
          "internalType": "address",
          "name": "previousOwner",
          "type": "address"
        },
        {
          "indexed": true,
          "internalType": "address",
          "name": "newOwner",
          "type": "address"
        }
      ],
      "name": "OwnershipTransferred",
      "type": "event"
    },
    {
      "anonymous": false,
      "inputs": [
        {
          "indexed": true,
          "internalType": "address",
          "name": "user",
          "type": "address"
        },
        {
          "indexed": false,
          "internalType": "uint256",
          "name": "reward",
          "type": "uint256"
        }
      ],
      "name": "RewardAdded",
      "type": "event"
    },
    {
      "anonymous": false,
      "inputs": [
        {
          "indexed": true,
          "internalType": "address",
          "name": "user",
          "type": "address"
        },
        {
          "indexed": false,
          "internalType": "uint256",
          "name": "reward",
          "type": "uint256"
        },
        {
          "indexed": false,
          "internalType": "uint256",
          "name": "lockAmount",
          "type": "uint256"
        }
      ],
      "name": "RewardPaid",
      "type": "event"
    },
    {
      "anonymous": false,
      "inputs": [
        {
          "indexed": true,
          "internalType": "address",
          "name": "user",
          "type": "address"
        },
        {
          "indexed": false,
          "internalType": "uint256",
          "name": "amount",
          "type": "uint256"
        }
      ],
      "name": "Staked",
      "type": "event"
    },
    {
      "anonymous": false,
      "inputs": [
        {
          "indexed": true,
          "internalType": "address",
          "name": "user",
          "type": "address"
        },
        {
          "indexed": false,
          "internalType": "uint256",
          "name": "amount",
          "type": "uint256"
        }
      ],
      "name": "Withdrawn",
      "type": "event"
    },
    {
      "inputs": [
        {
          "internalType": "address",
          "name": "_toAdd",
          "type": "address"
        }
      ],
      "name": "addAuthorized",
      "outputs": [],
      "stateMutability": "nonpayable",
      "type": "function"
    },
    {
      "inputs": [
        {
          "internalType": "uint256",
          "name": "amount",
          "type": "uint256"
        }
      ],
      "name": "allocateSeigniorage",
      "outputs": [],
      "stateMutability": "nonpayable",
      "type": "function"
    },
    {
      "inputs": [
        {
          "internalType": "address",
          "name": "",
          "type": "address"
        }
      ],
      "name": "authorized",
      "outputs": [
        {
          "internalType": "bool",
          "name": "",
          "type": "bool"
        }
      ],
      "stateMutability": "view",
      "type": "function"
    },
    {
      "inputs": [
        {
          "internalType": "address",
          "name": "account",
          "type": "address"
        }
      ],
      "name": "balanceOf",
      "outputs": [
        {
          "internalType": "uint256",
          "name": "",
          "type": "uint256"
        }
      ],
      "stateMutability": "view",
      "type": "function"
    },
    {
      "inputs": [
        {
          "internalType": "address",
          "name": "theorist",
          "type": "address"
        }
      ],
      "name": "canClaimReward",
      "outputs": [
        {
          "internalType": "bool",
          "name": "",
          "type": "bool"
        }
      ],
      "stateMutability": "view",
      "type": "function"
    },
    {
      "inputs": [
        {
          "internalType": "address",
          "name": "theorist",
          "type": "address"
        }
      ],
      "name": "canWithdraw",
      "outputs": [
        {
          "internalType": "bool",
          "name": "",
          "type": "bool"
        }
      ],
      "stateMutability": "view",
      "type": "function"
    },
    {
      "inputs": [],
      "name": "claimReward",
      "outputs": [],
      "stateMutability": "nonpayable",
      "type": "function"
    },
    {
      "inputs": [
        {
          "internalType": "address",
          "name": "theorist",
          "type": "address"
        }
      ],
      "name": "earned",
      "outputs": [
        {
          "internalType": "uint256",
          "name": "",
          "type": "uint256"
        }
      ],
      "stateMutability": "view",
      "type": "function"
    },
    {
      "inputs": [],
      "name": "epoch",
      "outputs": [
        {
          "internalType": "uint256",
          "name": "",
          "type": "uint256"
        }
      ],
      "stateMutability": "view",
      "type": "function"
    },
    {
      "inputs": [],
      "name": "exit",
      "outputs": [],
      "stateMutability": "nonpayable",
      "type": "function"
    },
    {
      "inputs": [],
      "name": "farm",
      "outputs": [
        {
          "internalType": "contract IFarm",
          "name": "",
          "type": "address"
        }
      ],
      "stateMutability": "view",
      "type": "function"
    },
    {
      "inputs": [
        {
          "internalType": "uint256",
          "name": "",
          "type": "uint256"
        }
      ],
      "name": "feeStagePercentage",
      "outputs": [
        {
          "internalType": "uint256",
          "name": "",
          "type": "uint256"
        }
      ],
      "stateMutability": "view",
      "type": "function"
    },
    {
      "inputs": [
        {
          "internalType": "uint256",
          "name": "",
          "type": "uint256"
        }
      ],
      "name": "feeStageTime",
      "outputs": [
        {
          "internalType": "uint256",
          "name": "",
          "type": "uint256"
        }
      ],
      "stateMutability": "view",
      "type": "function"
    },
    {
      "inputs": [],
      "name": "game",
      "outputs": [
        {
          "internalType": "contract IERC20Lockable",
          "name": "",
          "type": "address"
        }
      ],
      "stateMutability": "view",
      "type": "function"
    },
    {
      "inputs": [],
      "name": "getCurrentClaimEpochs",
      "outputs": [
        {
          "internalType": "uint256",
          "name": "",
          "type": "uint256"
        }
      ],
      "stateMutability": "view",
      "type": "function"
    },
    {
      "inputs": [],
      "name": "getCurrentWithdrawEpochs",
      "outputs": [
        {
          "internalType": "uint256",
          "name": "",
          "type": "uint256"
        }
      ],
      "stateMutability": "view",
      "type": "function"
    },
    {
      "inputs": [],
      "name": "getGamePrice",
      "outputs": [
        {
          "internalType": "uint256",
          "name": "",
          "type": "uint256"
        }
      ],
      "stateMutability": "view",
      "type": "function"
    },
    {
      "inputs": [
        {
          "internalType": "address",
          "name": "theorist",
          "type": "address"
        }
      ],
      "name": "getLastSnapshotIndexOf",
      "outputs": [
        {
          "internalType": "uint256",
          "name": "",
          "type": "uint256"
        }
      ],
      "stateMutability": "view",
      "type": "function"
    },
    {
      "inputs": [],
      "name": "getLockPercentage",
      "outputs": [
        {
          "internalType": "uint256",
          "name": "",
          "type": "uint256"
        }
      ],
      "stateMutability": "view",
      "type": "function"
    },
    {
      "inputs": [
        {
          "internalType": "address",
          "name": "_user",
          "type": "address"
        }
      ],
      "name": "getWithdrawFeeOf",
      "outputs": [
        {
          "internalType": "uint256",
          "name": "",
          "type": "uint256"
        }
      ],
      "stateMutability": "view",
      "type": "function"
    },
    {
      "inputs": [
        {
          "internalType": "contract IERC20",
          "name": "_token",
          "type": "address"
        },
        {
          "internalType": "uint256",
          "name": "_amount",
          "type": "uint256"
        },
        {
          "internalType": "address",
          "name": "_to",
          "type": "address"
        }
      ],
      "name": "governanceRecoverUnsupported",
      "outputs": [],
      "stateMutability": "nonpayable",
      "type": "function"
    },
    {
      "inputs": [
        {
          "internalType": "contract IERC20Lockable",
          "name": "_game",
          "type": "address"
        },
        {
          "internalType": "contract IERC20Lockable",
          "name": "_share",
          "type": "address"
        },
        {
          "internalType": "contract ITreasury",
          "name": "_treasury",
          "type": "address"
        },
        {
          "internalType": "contract IFarm",
          "name": "_farm",
          "type": "address"
        }
      ],
      "name": "initialize",
      "outputs": [],
      "stateMutability": "nonpayable",
      "type": "function"
    },
    {
      "inputs": [],
      "name": "initialized",
      "outputs": [
        {
          "internalType": "bool",
          "name": "",
          "type": "bool"
        }
      ],
      "stateMutability": "view",
      "type": "function"
    },
    {
      "inputs": [],
      "name": "isOperator",
      "outputs": [
        {
          "internalType": "bool",
          "name": "",
          "type": "bool"
        }
      ],
      "stateMutability": "view",
      "type": "function"
    },
    {
      "inputs": [],
      "name": "latestSnapshotIndex",
      "outputs": [
        {
          "internalType": "uint256",
          "name": "",
          "type": "uint256"
        }
      ],
      "stateMutability": "view",
      "type": "function"
    },
    {
      "inputs": [],
      "name": "nextEpochPoint",
      "outputs": [
        {
          "internalType": "uint256",
          "name": "",
          "type": "uint256"
        }
      ],
      "stateMutability": "view",
      "type": "function"
    },
    {
      "inputs": [],
      "name": "operator",
      "outputs": [
        {
          "internalType": "address",
          "name": "",
          "type": "address"
        }
      ],
      "stateMutability": "view",
      "type": "function"
    },
    {
      "inputs": [],
      "name": "owner",
      "outputs": [
        {
          "internalType": "address",
          "name": "",
          "type": "address"
        }
      ],
      "stateMutability": "view",
      "type": "function"
    },
    {
      "inputs": [],
      "name": "pegMaxUnlock",
      "outputs": [
        {
          "internalType": "uint256",
          "name": "",
          "type": "uint256"
        }
      ],
      "stateMutability": "view",
      "type": "function"
    },
    {
      "inputs": [
        {
          "internalType": "address",
          "name": "_toRemove",
          "type": "address"
        }
      ],
      "name": "removeAuthorized",
      "outputs": [],
      "stateMutability": "nonpayable",
      "type": "function"
    },
    {
      "inputs": [],
      "name": "renounceOwnership",
      "outputs": [],
      "stateMutability": "nonpayable",
      "type": "function"
    },
    {
      "inputs": [
        {
          "internalType": "address",
          "name": "_user",
          "type": "address"
        },
        {
          "internalType": "uint256",
          "name": "_time",
          "type": "uint256"
        }
      ],
      "name": "reviseDeposit",
      "outputs": [],
      "stateMutability": "nonpayable",
      "type": "function"
    },
    {
      "inputs": [
        {
          "internalType": "address",
          "name": "_user",
          "type": "address"
        },
        {
          "internalType": "uint256",
          "name": "_time",
          "type": "uint256"
        }
      ],
      "name": "reviseWithdraw",
      "outputs": [],
      "stateMutability": "nonpayable",
      "type": "function"
    },
    {
      "inputs": [],
      "name": "rewardLockupEpochs",
      "outputs": [
        {
          "internalType": "uint256",
          "name": "",
          "type": "uint256"
        }
      ],
      "stateMutability": "view",
      "type": "function"
    },
    {
      "inputs": [],
      "name": "rewardPerShare",
      "outputs": [
        {
          "internalType": "uint256",
          "name": "",
          "type": "uint256"
        }
      ],
      "stateMutability": "view",
      "type": "function"
    },
    {
      "inputs": [],
      "name": "sameBlockFee",
      "outputs": [
        {
          "internalType": "uint256",
          "name": "",
          "type": "uint256"
        }
      ],
      "stateMutability": "view",
      "type": "function"
    },
    {
      "inputs": [
        {
          "internalType": "uint256[]",
          "name": "_feeStageTime",
          "type": "uint256[]"
        },
        {
          "internalType": "uint256[]",
          "name": "_feeStagePercentage",
          "type": "uint256[]"
        }
      ],
      "name": "setFeeStages",
      "outputs": [],
      "stateMutability": "nonpayable",
      "type": "function"
    },
    {
      "inputs": [
        {
          "internalType": "uint256",
          "name": "_withdrawLockupEpochs",
          "type": "uint256"
        },
        {
          "internalType": "uint256",
          "name": "_rewardLockupEpochs",
          "type": "uint256"
        },
        {
          "internalType": "uint256",
          "name": "_pegMaxUnlock",
          "type": "uint256"
        }
      ],
      "name": "setLockUp",
      "outputs": [],
      "stateMutability": "nonpayable",
      "type": "function"
    },
    {
      "inputs": [
        {
          "internalType": "uint256",
          "name": "_fee",
          "type": "uint256"
        }
      ],
      "name": "setSameBlockFee",
      "outputs": [],
      "stateMutability": "nonpayable",
      "type": "function"
    },
    {
      "inputs": [],
      "name": "share",
      "outputs": [
        {
          "internalType": "contract IERC20Lockable",
          "name": "",
          "type": "address"
        }
      ],
      "stateMutability": "view",
      "type": "function"
    },
    {
      "inputs": [
        {
          "internalType": "uint256",
          "name": "amount",
          "type": "uint256"
        }
      ],
      "name": "stake",
      "outputs": [],
      "stateMutability": "nonpayable",
      "type": "function"
    },
    {
      "inputs": [
        {
          "internalType": "uint256",
          "name": "",
          "type": "uint256"
        }
      ],
      "name": "theoreticsHistory",
      "outputs": [
        {
          "internalType": "uint256",
          "name": "time",
          "type": "uint256"
        },
        {
          "internalType": "uint256",
          "name": "rewardReceived",
          "type": "uint256"
        },
        {
          "internalType": "uint256",
          "name": "rewardPerShare",
          "type": "uint256"
        }
      ],
      "stateMutability": "view",
      "type": "function"
    },
    {
      "inputs": [
        {
          "internalType": "address",
          "name": "",
          "type": "address"
        }
      ],
      "name": "theorists",
      "outputs": [
        {
          "internalType": "uint256",
          "name": "lastSnapshotIndex",
          "type": "uint256"
        },
        {
          "internalType": "uint256",
          "name": "rewardEarned",
          "type": "uint256"
        },
        {
          "internalType": "uint256",
          "name": "epochTimerStart",
          "type": "uint256"
        },
        {
          "internalType": "uint256",
          "name": "lastDepositBlock",
          "type": "uint256"
        },
        {
          "internalType": "uint256",
          "name": "lastWithdrawTime",
          "type": "uint256"
        },
        {
          "internalType": "uint256",
          "name": "firstDepositTime",
          "type": "uint256"
        }
      ],
      "stateMutability": "view",
      "type": "function"
    },
    {
      "inputs": [],
      "name": "totalSupply",
      "outputs": [
        {
          "internalType": "uint256",
          "name": "",
          "type": "uint256"
        }
      ],
      "stateMutability": "view",
      "type": "function"
    },
    {
      "inputs": [
        {
          "internalType": "address",
          "name": "newOperator_",
          "type": "address"
        }
      ],
      "name": "transferOperator",
      "outputs": [],
      "stateMutability": "nonpayable",
      "type": "function"
    },
    {
      "inputs": [
        {
          "internalType": "address",
          "name": "newOwner",
          "type": "address"
        }
      ],
      "name": "transferOwnership",
      "outputs": [],
      "stateMutability": "nonpayable",
      "type": "function"
    },
    {
      "inputs": [],
      "name": "treasury",
      "outputs": [
        {
          "internalType": "contract ITreasury",
          "name": "",
          "type": "address"
        }
      ],
      "stateMutability": "view",
      "type": "function"
    },
    {
      "inputs": [
        {
          "internalType": "uint256",
          "name": "amount",
          "type": "uint256"
        }
      ],
      "name": "withdraw",
      "outputs": [],
      "stateMutability": "nonpayable",
      "type": "function"
    },
    {
      "inputs": [],
      "name": "withdrawLockupEpochs",
      "outputs": [
        {
          "internalType": "uint256",
          "name": "",
          "type": "uint256"
        }
      ],
      "stateMutability": "view",
      "type": "function"
    }
  ],
  "bytecode": "0x60806040526007805460ff191690553480156200001b57600080fd5b50600062000028620000d2565b600380546001600160a01b0319166001600160a01b038316908117909155604051919250906000907f8be0079c531659141344cd1fd0a4f28419497f9722a3daafe3b4186f6b6457e0908290a35062000080620000d2565b600480546001600160a01b0319166001600160a01b0392831617908190556040519116906000907f74da04524d50c64947f5dd5381ef1a4dca5cba8ed1d816243f9e48aa0b5617ed908290a3620000d6565b3390565b613c4780620000e66000396000f3fe608060405234801561001057600080fd5b50600436106102ba5760003560e01c806361d027b311610182578063a8d5fd65116100e9578063c5967c26116100a2578063e9fad8ee1161007c578063e9fad8ee1461083a578063ede87d6114610842578063f2fde38b1461085f578063f8c8765e14610885576102ba565b8063c5967c26146107e3578063ceccf59a146107eb578063cf1c316a14610814576102ba565b8063a8d5fd6514610753578063b55a08451461075b578063b88a802f14610787578063b91816111461078f578063bc067972146107b5578063c3fe3e28146107db576102ba565b80638278b53b1161013b5780638278b53b146106a85780638da5cb5b146106b0578063900cf0cf146106b857806397ffe1d7146106c0578063a4ed0bee146106dd578063a694fc3a14610736576102ba565b806361d027b31461062757806369d86b591461062f57806370a0823114610637578063714b46581461065d578063715018a614610683578063719bf9f81461068b576102ba565b80632b21775311610226578063446a2ec8116101df578063446a2ec8146105ab57806346348384146105b3578063485d7d94146105bb57806354575af4146105e15780635603534e14610617578063570ca7351461061f576102ba565b80632b217753146105265780632e1a7d4d14610552578063335d00ff1461056f57806336e9332d146105775780633f9e3f041461059b5780634456eda2146105a3576102ba565b8063158ef93e11610278578063158ef93e146104a557806318160ddd146104ad57806319262d30146104b55780631e85cd65146104db57806323cf6d3e146104e357806329605e7714610500576102ba565b80628cc262146102bf578063022ba18d146102f7578063046335d0146102ff578063085ed71814610339578063085f070c1461046257806313f24daf1461049d575b600080fd5b6102e5600480360360208110156102d557600080fd5b50356001600160a01b03166108c3565b60408051918252519081900360200190f35b6102e5610946565b6103256004803603602081101561031557600080fd5b50356001600160a01b031661094c565b604080519115158252519081900360200190f35b6104606004803603604081101561034f57600080fd5b81019060208101813564010000000081111561036a57600080fd5b82018360208201111561037c57600080fd5b8035906020019184602083028401116401000000008311171561039e57600080fd5b91908080602002602001604051908101604052809392919081815260200183836020028082843760009201919091525092959493602081019350359150506401000000008111156103ee57600080fd5b82018360208201111561040057600080fd5b8035906020019184602083028401116401000000008311171561042257600080fd5b919080806020026020016040519081016040528093929190818152602001838360200280828437600092019190915250929550610af1945050505050565b005b61047f6004803603602081101561047857600080fd5b5035610c95565b60408051938452602084019290925282820152519081900360600190f35b6102e5610cc5565b610325610d53565b6102e5610d5c565b610325600480360360208110156104cb57600080fd5b50356001600160a01b0316610d62565b6102e5610e60565b6102e5600480360360208110156104f957600080fd5b5035610e66565b6104606004803603602081101561051657600080fd5b50356001600160a01b0316610e84565b6104606004803603604081101561053c57600080fd5b506001600160a01b038135169060200135610ed9565b6104606004803603602081101561056857600080fd5b5035610f7e565b6102e5611465565b61057f6114eb565b604080516001600160a01b039092168252519081900360200190f35b6102e56114fa565b610325611510565b6102e5611536565b6102e5611549565b610460600480360360208110156105d157600080fd5b50356001600160a01b03166115bf565b610460600480360360608110156105f757600080fd5b506001600160a01b03813581169160208101359160409091013516611658565b6102e5611756565b61057f61175c565b61057f61176b565b6102e561177a565b6102e56004803603602081101561064d57600080fd5b50356001600160a01b0316611780565b6102e56004803603602081101561067357600080fd5b50356001600160a01b031661179b565b6104606117b6565b610460600480360360208110156106a157600080fd5b5035611862565b6102e5611944565b61057f611aa9565b6102e5611ab8565b610460600480360360208110156106d657600080fd5b5035611afd565b610703600480360360208110156106f357600080fd5b50356001600160a01b0316611de6565b604080519687526020870195909552858501939093526060850191909152608084015260a0830152519081900360c00190f35b6104606004803603602081101561074c57600080fd5b5035611e1b565b61057f6120ea565b6104606004803603604081101561077157600080fd5b506001600160a01b0381351690602001356120f9565b61046061219e565b610325600480360360208110156107a557600080fd5b50356001600160a01b0316612675565b6102e5600480360360208110156107cb57600080fd5b50356001600160a01b031661268a565b61057f612769565b6102e561277d565b6104606004803603606081101561080157600080fd5b50803590602081013590604001356127c2565b6104606004803603602081101561082a57600080fd5b50356001600160a01b0316612ac4565b610460612b4a565b6102e56004803603602081101561085857600080fd5b5035612b5d565b6104606004803603602081101561087557600080fd5b50356001600160a01b0316612b6a565b6104606004803603608081101561089b57600080fd5b506001600160a01b038135811691602081013582169160408201358116916060013516612c6d565b6000806108ce612fab565b60400151905060006108df84613003565b6040908101516001600160a01b0386166000908152600a602052919091206001015490915061093c90610936670de0b6b3a7640000610930610921878761305e565b61092a8a611780565b906130c0565b90613119565b90613180565b925050505b919050565b600d5481565b600954600090606490429083906109f0906001600160a01b031663f930e770846109765784610981565b61098185600161305e565b856040518363ffffffff1660e01b8152600401808381526020018281526020019250505060206040518083038186803b1580156109bd57600080fd5b505afa1580156109d1573d6000803e3d6000fd5b505050506040513d60208110156109e757600080fd5b5051849061305e565b90506064811115610a325760405162461bcd60e51b815260040180806020018281038252602f815260200180613ac8602f913960400191505060405180910390fd5b600860009054906101000a90046001600160a01b03166001600160a01b031663900cf0cf6040518163ffffffff1660e01b815260040160206040518083038186803b158015610a8057600080fd5b505afa158015610a94573d6000803e3d6000fd5b505050506040513d6020811015610aaa57600080fd5b5051600d54610ae690610ac49060649061093090866130c0565b6001600160a01b0388166000908152600a602052604090206002015490613180565b111595945050505050565b3360009081526005602052604090205460ff1680610b1e575033610b13611aa9565b6001600160a01b0316145b80610b38575033610b2d61175c565b6001600160a01b0316145b610b77576040805162461bcd60e51b81526020600482015260186024820152600080516020613a84833981519152604482015290519081900360640190fd5b60008251118015610b9c575081600081518110610b9057fe5b60200260200101516000145b8015610ba9575081518151145b610be45760405162461bcd60e51b815260040180806020018281038252604d815260200180613944604d913960600191505060405180910390fd5b8151610bf79060119060208501906137ac565b5080516000905b80821015610c7b57610320838381518110610c1557fe5b60200260200101511115610c70576040805162461bcd60e51b815260206004820152601c60248201527f4665652063616e277420626520686967686572207468616e2038252e00000000604482015290519081900360640190fd5b600182019150610bfe565b8251610c8e9060109060208601906137ac565b5050505050565b600b8181548110610ca257fe5b600091825260209091206003909102018054600182015460029092015490925083565b60095460009060649042908390610cef906001600160a01b031663f930e770846109765784610981565b90506064811115610d315760405162461bcd60e51b815260040180806020018281038252602f815260200180613ac8602f913960400191505060405180910390fd5b610d4b606461093083600c546130c090919063ffffffff16565b935050505090565b60075460ff1681565b60015490565b60095460009060649042908390610d8c906001600160a01b031663f930e770846109765784610981565b90506064811115610dce5760405162461bcd60e51b815260040180806020018281038252602f815260200180613ac8602f913960400191505060405180910390fd5b600860009054906101000a90046001600160a01b03166001600160a01b031663900cf0cf6040518163ffffffff1660e01b815260040160206040518083038186803b158015610e1c57600080fd5b505afa158015610e30573d6000803e3d6000fd5b505050506040513d6020811015610e4657600080fd5b5051600c54610ae690610ac49060649061093090866130c0565b600c5481565b60118181548110610e7357fe5b600091825260209091200154905081565b6004546001600160a01b03163314610ecd5760405162461bcd60e51b8152600401808060200182810382526024815260200180613aa46024913960400191505060405180910390fd5b610ed6816131da565b50565b3360009081526005602052604090205460ff1680610f06575033610efb611aa9565b6001600160a01b0316145b80610f20575033610f1561175c565b6001600160a01b0316145b610f5f576040805162461bcd60e51b81526020600482015260186024820152600080516020613a84833981519152604482015290519081900360640190fd5b6001600160a01b039091166000908152600a6020526040902060050155565b610f86613277565b15610fc25760405162461bcd60e51b8152600401808060200182810382526026815260200180613ba16026913960400191505060405180910390fd5b610fca613298565b156110065760405162461bcd60e51b8152600401808060200182810382526026815260200180613ba16026913960400191505060405180910390fd5b600061101133611780565b1161104d5760405162461bcd60e51b8152600401808060200182810382526027815260200180613beb6027913960400191505060405180910390fd5b3380156111275761105c6137f7565b506001600160a01b0381166000908152600a6020908152604091829020825160c08101845281548152600182015492810192909252600281015492820192909252600382015460608201526004820154608082015260059091015460a08201526110c5826108c3565b60208201526110d26114fa565b81526001600160a01b0382166000908152600a602090815260409182902083518155908301516001820155908201516002820155606082015160038201556080820151600482015560a0909101516005909101555b6000821161117c576040805162461bcd60e51b815260206004820152601d60248201527f5468656f7265746963733a2043616e6e6f742077697468647261772030000000604482015290519081900360640190fd5b60095460649042906000906111a4906001600160a01b031663f930e770846109765784610981565b905060648111156111e65760405162461bcd60e51b815260040180806020018281038252602f815260200180613ac8602f913960400191505060405180910390fd5b336000908152600a6020908152604091829020600854835163900cf0cf60e01b8152935191936001600160a01b039091169263900cf0cf92600480840193829003018186803b15801561123857600080fd5b505afa15801561124c573d6000803e3d6000fd5b505050506040513d602081101561126257600080fd5b5051600c546112879061127c9060649061093090876130c0565b600284015490613180565b11156112c45760405162461bcd60e51b8152600401808060200182810382526024815260200180613bc76024913960400191505060405180910390fd5b6112cc61219e565b600f546003820154431461135e576000808360040154116112f357826005015442036112fb565b826004015442035b6011549091508060005b8115611359576001820390506011818154811061131e57fe5b9060005260206000200154841061134e576010818154811061133c57fe5b90600052602060002001549450611359565b600182039150611305565b505050505b4282600401819055506113eb8782600860009054906101000a90046001600160a01b03166001600160a01b0316638d934f746040518163ffffffff1660e01b815260040160206040518083038186803b1580156113ba57600080fd5b505afa1580156113ce573d6000803e3d6000fd5b505050506040513d60208110156113e457600080fd5b50516132b9565b60408051888152905133917f7084f5476618d8e60b11ef0d7d3f06914655adb8793e28ff7f018d4c76d505d5919081900360200190a250504360009081526006602090815260408083203284529091528082208054600160ff19918216811790925533845291909220805490911690911790555050505050565b6009546000906064904290839061148f906001600160a01b031663f930e770846109765784610981565b905060648111156114d15760405162461bcd60e51b815260040180806020018281038252602f815260200180613ac8602f913960400191505060405180910390fd5b610d4b606461093083600d546130c090919063ffffffff16565b6009546001600160a01b031681565b600b5460009061150b90600161305e565b905090565b6004546000906001600160a01b0316611527613391565b6001600160a01b031614905090565b6000611540612fab565b60400151905090565b6008546040805163118d20e160e21b815290516000926001600160a01b0316916346348384916004808301926020929190829003018186803b15801561158e57600080fd5b505afa1580156115a2573d6000803e3d6000fd5b505050506040513d60208110156115b857600080fd5b5051905090565b6115c7613391565b6001600160a01b03166115d8611aa9565b6001600160a01b031614611621576040805162461bcd60e51b81526020600482018190526024820152600080516020613a64833981519152604482015290519081900360640190fd5b6001600160a01b03811633141561163757600080fd5b6001600160a01b03166000908152600560205260409020805460ff19169055565b6004546001600160a01b031633146116a15760405162461bcd60e51b8152600401808060200182810382526024815260200180613aa46024913960400191505060405180910390fd5b6007546001600160a01b038481166101009092041614156116f2576040805162461bcd60e51b8152602060048083019190915260248201526367616d6560e01b604482015290519081900360640190fd5b6000546001600160a01b038481169116141561173d576040805162461bcd60e51b8152602060048201526005602482015264736861726560d81b604482015290519081900360640190fd5b6117516001600160a01b0384168284613395565b505050565b600f5481565b6004546001600160a01b031690565b6008546001600160a01b031681565b600e5481565b6001600160a01b031660009081526002602052604090205490565b6001600160a01b03166000908152600a602052604090205490565b6117be613391565b6001600160a01b03166117cf611aa9565b6001600160a01b031614611818576040805162461bcd60e51b81526020600482018190526024820152600080516020613a64833981519152604482015290519081900360640190fd5b6003546040516000916001600160a01b0316907f8be0079c531659141344cd1fd0a4f28419497f9722a3daafe3b4186f6b6457e0908390a3600380546001600160a01b0319169055565b3360009081526005602052604090205460ff168061188f575033611884611aa9565b6001600160a01b0316145b806118a957503361189e61175c565b6001600160a01b0316145b6118e8576040805162461bcd60e51b81526020600482015260186024820152600080516020613a84833981519152604482015290519081900360640190fd5b6109c481111561193f576040805162461bcd60e51b815260206004820152601d60248201527f4665652063616e277420626520686967686572207468616e203235252e000000604482015290519081900360640190fd5b600f55565b600080600860009054906101000a90046001600160a01b03166001600160a01b031663463483846040518163ffffffff1660e01b815260040160206040518083038186803b15801561199557600080fd5b505afa1580156119a9573d6000803e3d6000fd5b505050506040513d60208110156119bf57600080fd5b505160085460408051631551c15760e21b81529051929350605f92600092611a5392611a4c926001600160a01b0390921691635547055c91600480820192602092909190829003018186803b158015611a1757600080fd5b505afa158015611a2b573d6000803e3d6000fd5b505050506040513d6020811015611a4157600080fd5b5051600e54866133e7565b839061305e565b90506064811115611a955760405162461bcd60e51b815260040180806020018281038252602d815260200180613b4a602d913960400191505060405180910390fd5b605f811115611aa25750605f5b9250505090565b6003546001600160a01b031690565b6008546040805163900cf0cf60e01b815290516000926001600160a01b03169163900cf0cf916004808301926020929190829003018186803b15801561158e57600080fd5b611b05613277565b15611b415760405162461bcd60e51b8152600401808060200182810382526026815260200180613ba16026913960400191505060405180910390fd5b611b49613298565b15611b855760405162461bcd60e51b8152600401808060200182810382526026815260200180613ba16026913960400191505060405180910390fd5b6004546001600160a01b03163314611bce5760405162461bcd60e51b8152600401808060200182810382526024815260200180613aa46024913960400191505060405180910390fd5b60008111611c23576040805162461bcd60e51b815260206004820152601d60248201527f5468656f7265746963733a2043616e6e6f7420616c6c6f636174652030000000604482015290519081900360640190fd5b6000611c2d610d5c565b11611c695760405162461bcd60e51b8152600401808060200182810382526031815260200180613b196031913960400191505060405180910390fd5b6000611c73612fab565b6040015190506000611ca2611c9b611c89610d5c565b61093086670de0b6b3a76400006130c0565b8390613180565b9050611cac61382d565b506040805160608101825243815260208101858152918101838152600b805460018101825560009190915282517f0175b7a638427703f0dbe7bb9bbf987a2551717b34e79f33b5b1008d1fa01db960039092029182015592517f0175b7a638427703f0dbe7bb9bbf987a2551717b34e79f33b5b1008d1fa01dba840155517f0175b7a638427703f0dbe7bb9bbf987a2551717b34e79f33b5b1008d1fa01dbb90920191909155600754611d6f9061010090046001600160a01b0316333087613475565b60408051858152905133917fac24935fd910bc682b5ccb1a07b718cadf8cf2f6d1404c4f3ddc3662dae40e29919081900360200190a250504360009081526006602090815260408083203284529091528082208054600160ff19918216811790925533845291909220805490911690911790555050565b600a60205260009081526040902080546001820154600283015460038401546004850154600590950154939492939192909186565b611e23613277565b15611e5f5760405162461bcd60e51b8152600401808060200182810382526026815260200180613ba16026913960400191505060405180910390fd5b611e67613298565b15611ea35760405162461bcd60e51b8152600401808060200182810382526026815260200180613ba16026913960400191505060405180910390fd5b338015611f7d57611eb26137f7565b506001600160a01b0381166000908152600a6020908152604091829020825160c08101845281548152600182015492810192909252600281015492820192909252600382015460608201526004820154608082015260059091015460a0820152611f1b826108c3565b6020820152611f286114fa565b81526001600160a01b0382166000908152600a602090815260409182902083518155908301516001820155908201516002820155606082015160038201556080820151600482015560a0909101516005909101555b60008211611fd2576040805162461bcd60e51b815260206004820152601a60248201527f5468656f7265746963733a2043616e6e6f74207374616b652030000000000000604482015290519081900360640190fd5b611fdb826134d5565b336000908152600a6020908152604091829020600854835163900cf0cf60e01b8152935191936001600160a01b039091169263900cf0cf92600480840193829003018186803b15801561202d57600080fd5b505afa158015612041573d6000803e3d6000fd5b505050506040513d602081101561205757600080fd5b505160028201554360038201556005810154612074574260058201555b60408051848152905133917f9e71bc8eea02a63969f509818f2dafb9254532904319f9dbda79b67bd34a5f3d919081900360200190a250504360009081526006602090815260408083203284529091528082208054600160ff199182168117909255338452919092208054909116909117905550565b6000546001600160a01b031681565b3360009081526005602052604090205460ff168061212657503361211b611aa9565b6001600160a01b0316145b8061214057503361213561175c565b6001600160a01b0316145b61217f576040805162461bcd60e51b81526020600482015260186024820152600080516020613a84833981519152604482015290519081900360640190fd5b6001600160a01b039091166000908152600a6020526040902060040155565b6121a6613277565b156121e25760405162461bcd60e51b8152600401808060200182810382526026815260200180613ba16026913960400191505060405180910390fd5b6121ea613298565b156122265760405162461bcd60e51b8152600401808060200182810382526026815260200180613ba16026913960400191505060405180910390fd5b338015612300576122356137f7565b506001600160a01b0381166000908152600a6020908152604091829020825160c08101845281548152600182015492810192909252600281015492820192909252600382015460608201526004820154608082015260059091015460a082015261229e826108c3565b60208201526122ab6114fa565b81526001600160a01b0382166000908152600a602090815260409182902083518155908301516001820155908201516002820155606082015160038201556080820151600482015560a0909101516005909101555b336000908152600a60205260409020600101548015612636576009546064904290600090612341906001600160a01b031663f930e770846109765784610981565b905060648111156123835760405162461bcd60e51b815260040180806020018281038252602f815260200180613ac8602f913960400191505060405180910390fd5b600860009054906101000a90046001600160a01b03166001600160a01b031663900cf0cf6040518163ffffffff1660e01b815260040160206040518083038186803b1580156123d157600080fd5b505afa1580156123e5573d6000803e3d6000fd5b505050506040513d60208110156123fb57600080fd5b5051600d5461242e906124159060649061093090866130c0565b336000908152600a602052604090206002015490613180565b111561246b5760405162461bcd60e51b8152600401808060200182810382526022815260200180613af76022913960400191505060405180910390fd5b600860009054906101000a90046001600160a01b03166001600160a01b031663900cf0cf6040518163ffffffff1660e01b815260040160206040518083038186803b1580156124b957600080fd5b505afa1580156124cd573d6000803e3d6000fd5b505050506040513d60208110156124e357600080fd5b5051336000818152600a602052604081206002810193909355600190920191909155600754612522916101009091046001600160a01b03169086613395565b60008061252d611944565b9050606481111561256f5760405162461bcd60e51b815260040180806020018281038252602d815260200180613b4a602d913960400191505060405180910390fd5b61257e606461093088846130c0565b915081156125f6576007546040805163282d3fdf60e01b81523360048201526024810185905290516101009092046001600160a01b03169163282d3fdf9160448082019260009290919082900301818387803b1580156125dd57600080fd5b505af11580156125f1573d6000803e3d6000fd5b505050505b6040805187815260208101849052815133927fd6f2c8500df5b44f11e9e48b91ff9f1b9d81bc496d55570c2b1b75bf65243f51928290030190a250505050505b50504360009081526006602090815260408083203284529091528082208054600160ff1991821681179092553384529190922080549091169091179055565b60056020526000908152604090205460ff1681565b6001600160a01b0381166000908152600a60205260408120600f54600382015443146127625760008260050154116126de5760106000815481106126ca57fe5b906000526020600020015492505050610941565b6000808360040154116126f757826005015442036126ff565b826004015442035b6011549091508060005b811561275d576001820390506011818154811061272257fe5b90600052602060002001548410612752576010818154811061274057fe5b9060005260206000200154945061275d565b600182039150612709565b505050505b9392505050565b60075461010090046001600160a01b031681565b600854604080516362cb3e1360e11b815290516000926001600160a01b03169163c5967c26916004808301926020929190829003018186803b15801561158e57600080fd5b3360009081526005602052604090205460ff16806127ef5750336127e4611aa9565b6001600160a01b0316145b806128095750336127fe61175c565b6001600160a01b0316145b612848576040805162461bcd60e51b81526020600482015260186024820152600080516020613a84833981519152604482015290519081900360640190fd5b612850613277565b1561288c5760405162461bcd60e51b8152600401808060200182810382526026815260200180613ba16026913960400191505060405180910390fd5b612894613298565b156128d05760405162461bcd60e51b8152600401808060200182810382526026815260200180613ba16026913960400191505060405180910390fd5b8183101580156128e1575060068311155b80156128ee575060038211155b61293f576040805162461bcd60e51b815260206004820152601a60248201527f6c6f636b75702065706f636873206f7574206f662072616e6765000000000000604482015290519081900360640190fd5b600860009054906101000a90046001600160a01b03166001600160a01b0316635547055c6040518163ffffffff1660e01b815260040160206040518083038186803b15801561298d57600080fd5b505afa1580156129a1573d6000803e3d6000fd5b505050506040513d60208110156129b757600080fd5b505181118015612a40575060085460408051636b82cf8160e01b81529051612a3c926004926001600160a01b0390911691636b82cf81918085019160209181900386018186803b158015612a0a57600080fd5b505afa158015612a1e573d6000803e3d6000fd5b505050506040513d6020811015612a3457600080fd5b5051906130c0565b8111155b612a7b5760405162461bcd60e51b81526004018080602001828103825260628152602001806139e16062913960800191505060405180910390fd5b600c92909255600d55600e554360009081526006602090815260408083203284529091528082208054600160ff1991821681179092553384529190922080549091169091179055565b612acc613391565b6001600160a01b0316612add611aa9565b6001600160a01b031614612b26576040805162461bcd60e51b81526020600482018190526024820152600080516020613a64833981519152604482015290519081900360640190fd5b6001600160a01b03166000908152600560205260409020805460ff19166001179055565b612b5b612b5633611780565b610f7e565b565b60108181548110610e7357fe5b612b72613391565b6001600160a01b0316612b83611aa9565b6001600160a01b031614612bcc576040805162461bcd60e51b81526020600482018190526024820152600080516020613a64833981519152604482015290519081900360640190fd5b6001600160a01b038116612c115760405162461bcd60e51b81526004018080602001828103825260268152602001806138e76026913960400191505060405180910390fd5b6003546040516001600160a01b038084169216907f8be0079c531659141344cd1fd0a4f28419497f9722a3daafe3b4186f6b6457e090600090a3600380546001600160a01b0319166001600160a01b0392909216919091179055565b60075460ff1615612cc5576040805162461bcd60e51b815260206004820152601f60248201527f5468656f7265746963733a20616c726561647920696e697469616c697a656400604482015290519081900360640190fd5b816001600160a01b031663158ef93e6040518163ffffffff1660e01b815260040160206040518083038186803b158015612cfe57600080fd5b505afa158015612d12573d6000803e3d6000fd5b505050506040513d6020811015612d2857600080fd5b5051612d655760405162461bcd60e51b81526004018080602001828103825260238152602001806139916023913960400191505060405180910390fd5b60078054600160ff1990911617610100600160a81b0319166101006001600160a01b038781169190910291909117909155600080546001600160a01b03199081168684161790915560088054821685841617905560098054909116918316919091179055612dd161382d565b506040805160608101825243815260006020808301828152838501838152600b80546001810182559452845160039485027f0175b7a638427703f0dbe7bb9bbf987a2551717b34e79f33b5b1008d1fa01db981019190915591517f0175b7a638427703f0dbe7bb9bbf987a2551717b34e79f33b5b1008d1fa01dba830155517f0175b7a638427703f0dbe7bb9bbf987a2551717b34e79f33b5b1008d1fa01dbb909101556006600c55600d919091556008548351636b82cf8160e01b815293519293612ec6936004936001600160a01b0390931692636b82cf8192808601929081900386018186803b158015612a0a57600080fd5b600e556109c4600f556040805160e08101825260008152610e10602082015262015180918101919091526203f48060608201526206978060808201526212750060a08201526224ea0060c0820152612f2290601190600761384e565b506040805160e0810182526103208152610190602082015260c8918101919091526064606082015260326080820152601960a0820152600160c0820152612f6d906010906007613890565b5060408051438152905133917f25ff68dd81b34665b5ba7e553ee5511bf6812e12adb4a7e2c0d9e26b3099ce79919081900360200190a25050505050565b612fb361382d565b600b612fbd6114fa565b81548110612fc757fe5b90600052602060002090600302016040518060600160405290816000820154815260200160018201548152602001600282015481525050905090565b61300b61382d565b600b6130168361179b565b8154811061302057fe5b906000526020600020906003020160405180606001604052908160008201548152602001600182015481526020016002820154815250509050919050565b6000828211156130b5576040805162461bcd60e51b815260206004820152601e60248201527f536166654d6174683a207375627472616374696f6e206f766572666c6f770000604482015290519081900360640190fd5b508082035b92915050565b6000826130cf575060006130ba565b828202828482816130dc57fe5b04146127625760405162461bcd60e51b8152600401808060200182810382526021815260200180613a436021913960400191505060405180910390fd5b600080821161316f576040805162461bcd60e51b815260206004820152601a60248201527f536166654d6174683a206469766973696f6e206279207a65726f000000000000604482015290519081900360640190fd5b81838161317857fe5b049392505050565b600082820183811015612762576040805162461bcd60e51b815260206004820152601b60248201527f536166654d6174683a206164646974696f6e206f766572666c6f770000000000604482015290519081900360640190fd5b6001600160a01b03811661321f5760405162461bcd60e51b815260040180806020018281038252602d8152602001806139b4602d913960400191505060405180910390fd5b6040516001600160a01b038216906000907f74da04524d50c64947f5dd5381ef1a4dca5cba8ed1d816243f9e48aa0b5617ed908290a3600480546001600160a01b0319166001600160a01b0392909216919091179055565b43600090815260066020908152604080832032845290915290205460ff1690565b43600090815260066020908152604080832033845290915290205460ff1690565b33600090815260026020526040902054838110156133085760405162461bcd60e51b815260040180806020018281038252603781526020018061390d6037913960400191505060405180910390fd5b600154613315908561305e565b600155613322818561305e565b3360009081526002602052604081209190915561334561271061093087876130c0565b90506000613353868361305e565b9050811561337257600054613372906001600160a01b03168584613395565b600054613389906001600160a01b03163383613395565b505050505050565b3390565b604080516001600160a01b038416602482015260448082018490528251808303909101815260649091019091526020810180516001600160e01b031663a9059cbb60e01b17905261175190849061352b565b6000838311613433576040805162461bcd60e51b815260206004820152601360248201527224b73b30b634b2103830b930b6b2ba32b9399760691b604482015290519081900360640190fd5b83821161344257506000612762565b8282106134515750605f612762565b61346d61345e848661305e565b610930605f61092a868961305e565b949350505050565b604080516001600160a01b0380861660248301528416604482015260648082018490528251808303909101815260849091019091526020810180516001600160e01b03166323b872dd60e01b1790526134cf90859061352b565b50505050565b6001546134e29082613180565b600155336000908152600260205260409020546134ff9082613180565b336000818152600260205260408120929092559054610ed6916001600160a01b03909116903084613475565b6060613580826040518060400160405280602081526020017f5361666545524332303a206c6f772d6c6576656c2063616c6c206661696c6564815250856001600160a01b03166135dc9092919063ffffffff16565b8051909150156117515780806020019051602081101561359f57600080fd5b50516117515760405162461bcd60e51b815260040180806020018281038252602a815260200180613b77602a913960400191505060405180910390fd5b606061346d8484600085856135f085613702565b613641576040805162461bcd60e51b815260206004820152601d60248201527f416464726573733a2063616c6c20746f206e6f6e2d636f6e7472616374000000604482015290519081900360640190fd5b60006060866001600160a01b031685876040518082805190602001908083835b602083106136805780518252601f199092019160209182019101613661565b6001836020036101000a03801982511681845116808217855250505050505090500191505060006040518083038185875af1925050503d80600081146136e2576040519150601f19603f3d011682016040523d82523d6000602084013e6136e7565b606091505b50915091506136f7828286613708565b979650505050505050565b3b151590565b60608315613717575081612762565b8251156137275782518084602001fd5b8160405162461bcd60e51b81526004018080602001828103825283818151815260200191508051906020019080838360005b83811015613771578181015183820152602001613759565b50505050905090810190601f16801561379e5780820380516001836020036101000a031916815260200191505b509250505060405180910390fd5b8280548282559060005260206000209081019282156137e7579160200282015b828111156137e75782518255916020019190600101906137cc565b506137f39291506138d1565b5090565b6040518060c001604052806000815260200160008152602001600081526020016000815260200160008152602001600081525090565b60405180606001604052806000815260200160008152602001600081525090565b8280548282559060005260206000209081019282156137e7579160200282015b828111156137e7578251829062ffffff1690559160200191906001019061386e565b8280548282559060005260206000209081019282156137e7579160200282015b828111156137e7578251829061ffff169055916020019190600101906138b0565b5b808211156137f357600081556001016138d256fe4f776e61626c653a206e6577206f776e657220697320746865207a65726f20616464726573735468656f7265746963733a20776974686472617720726571756573742067726561746572207468616e207374616b656420616d6f756e7446656520737461676520617272617973206d75737420626520657175616c20696e206e6f6e2d7a65726f206c656e67746820616e642074696d652073686f756c6420737461727420617420302e5472656173757279206d75737420626520696e697469616c697a65642066697273742e6f70657261746f723a207a65726f206164647265737320676976656e20666f72206e6577206f70657261746f724d61782070656720756e6c6f636b206d7573742062652067726561746572207468616e207468652047414d45206365696c696e6720616e64206c6f776572207468616e20746865207072696365206f66206f6e652047414d452074696d657320342e536166654d6174683a206d756c7469706c69636174696f6e206f766572666c6f774f776e61626c653a2063616c6c6572206973206e6f7420746865206f776e657263616c6c6572206973206e6f7420617574686f72697a656400000000000000006f70657261746f723a2063616c6c6572206973206e6f7420746865206f70657261746f72496e76616c696420756e6c6f636b2070657263656e746167652c20636865636b206661726d20636f6e74726163742e5468656f7265746963733a207374696c6c20696e20726577617264206c6f636b75705468656f7265746963733a2043616e6e6f7420616c6c6f63617465207768656e20746f74616c537570706c792069732030496e76616c6964206c6f636b2070657263656e746167652c20636865636b207468697320636f6e74726163742e5361666545524332303a204552433230206f7065726174696f6e20646964206e6f742073756363656564436f6e747261637447756172643a206f6e6520626c6f636b2c206f6e652066756e6374696f6e5468656f7265746963733a207374696c6c20696e207769746864726177206c6f636b75705468656f7265746963733a20546865207468656f7269737420646f6573206e6f74206578697374a2646970667358221220a1559fc5a63eb7468f15cb5c75f7af323fd12f6d1cdea29c6fcc3b721454c43064736f6c634300060c0033",
  "linkReferences": {},
  "deployedLinkReferences": {}
}