{
	"data": {
		"bytecode": {
			"linkReferences": {},
			"object": "608060405260006008556601aac03668ef00600b556301e13380600c553480156200002957600080fd5b5060405162003dfd38038062003dfd833981810160405260c08110156200004f57600080fd5b81516020830151604080850151606086015160808701805193519597949692959194919392820192846401000000008211156200008b57600080fd5b908301906020820185811115620000a157600080fd5b8251866020820283011164010000000082111715620000bf57600080fd5b82525081516020918201928201910280838360005b83811015620000ee578181015183820152602001620000d4565b50505050905001604052602001805160405193929190846401000000008211156200011857600080fd5b9083019060208201858111156200012e57600080fd5b82518660208202830111640100000000821117156200014c57600080fd5b82525081516020918201928201910280838360005b838110156200017b57818101518382015260200162000161565b5050505090500160405250505060006200019a6200048660201b60201c565b600080546001600160a01b0319166001600160a01b0383169081178255604051929350917f8be0079c531659141344cd1fd0a4f28419497f9722a3daafe3b4186f6b6457e0908290a350620001ee62000486565b600180546001600160a01b0319166001600160a01b0392831617908190556040519116906000907f74da04524d50c64947f5dd5381ef1a4dca5cba8ed1d816243f9e48aa0b5617ed908290a383421062000278576040805162461bcd60e51b815260206004808301919091526024820152636c61746560e01b604482015290519081900360640190fd5b6001600160a01b03861615620002a457600480546001600160a01b0319166001600160a01b0388161790555b600580546001600160a01b0319166001600160a01b0387161790556009849055600c548401600a556109c4600d556040805160e08101825260008152610e10602082015262015180918101919091526203f48060608201526206978060808201526212750060a08201526224ea0060c08201526200032790600f9060076200054c565b506040805160e0810182526103208152610190602082015260c8918101919091526064606082015260326080820152601960a0820152600160c08201526200037490600e906007620005a3565b5081516200038a906010906020850190620005e7565b508051620003a0906013906020840190620005e7565b5060005b6010546000190181101562000425576000620003f36001620003df600954620003df866001018a6200048a60201b62002d0c1790919060201c565b620004f160201b62002d6c1790919060201c565b601180546001818101835560009290925260008051602062003dbc8339815191520191909155919091019050620003a4565b506200044f600954620003df600160108054905003866200048a60201b62002d0c1790919060201c565b60125550506011805460018101825560009190915260001960008051602062003dbc83398151915290910155506200063c92505050565b3390565b6000826200049b57506000620004eb565b82820282848281620004a957fe5b0414620004e85760405162461bcd60e51b815260040180806020018281038252602181526020018062003ddc6021913960400191505060405180910390fd5b90505b92915050565b600082820183811015620004e8576040805162461bcd60e51b815260206004820152601b60248201527f536166654d6174683a206164646974696f6e206f766572666c6f770000000000604482015290519081900360640190fd5b82805482825590600052602060002090810192821562000591579160200282015b8281111562000591578251829062ffffff169055916020019190600101906200056d565b506200059f92915062000625565b5090565b82805482825590600052602060002090810192821562000591579160200282015b8281111562000591578251829061ffff16905591602001919060010190620005c4565b82805482825590600052602060002090810192821562000591579160200282015b828111156200059157825182559160200191906001019062000608565b5b808211156200059f576000815560010162000626565b613770806200064c6000396000f3fe608060405234801561001057600080fd5b50600436106102f05760003560e01c80635ad961531161019d578063943f013d116100e9578063cf1c316a116100a2578063e5554e071161007c578063e5554e0714610b2b578063ede87d6114610b48578063f2fde38b14610b65578063f930e77014610b8b576102f0565b8063cf1c316a14610ab6578063cf4b55cb14610adc578063e2bbb15814610b08576102f0565b8063943f013d146109fd57806396805e5414610a05578063a82859c514610a3f578063ac60574e14610a5c578063b918161114610a64578063cbd5654714610a8a576102f0565b8063719bf9f81161015657806382386d581161013057806382386d58146109415780638da5cb5b146109735780638dbb1e3a1461097b57806393f1a40b1461099e576102f0565b8063719bf9f8146108db57806375d323fe146108f85780637d3de84014610915576102f0565b80635ad96153146108815780635f96dc11146108895780636066debd1461089157806361d027b3146108c35780636e271dd5146108cb578063715018a6146108d3576102f0565b8063354affb71161025c578063485d7d94116102155780635312ea8e116101ef5780635312ea8e1461081e57806354575af41461083b5780635603534e14610871578063570ca73514610879576102f0565b8063485d7d94146107d35780634abbbd28146107f95780634c7bc85414610801576102f0565b8063354affb7146106115780633c32a450146106b25780633cf6259d146106d6578063441a3e70146106f35780634456eda2146107165780634666406414610732576102f0565b8063231f0c6a116102ae578063231f0c6a146104d057806323cf6d3e146104f3578063245b211d1461051057806327e689281461052d57806329605e77146105ce5780632fda7735146105f4576102f0565b8062269cb6146102f5578063085ed718146102ff5780631526fe271461042257806315f74a4d1461047657806317caf6f1146104935780631ab06ee5146104ad575b600080fd5b6102fd610bae565b005b6102fd6004803603604081101561031557600080fd5b810190602081018135600160201b81111561032f57600080fd5b82018360208201111561034157600080fd5b803590602001918460208302840111600160201b8311171561036257600080fd5b9190808060200260200160405190810160405280939291908181526020018383602002808284376000920191909152509295949360208101935035915050600160201b8111156103b157600080fd5b8201836020820111156103c357600080fd5b803590602001918460208302840111600160201b831117156103e457600080fd5b919080806020026020016040519081016040528093929190818152602001838360200280828437600092019190915250929550610c3e945050505050565b61043f6004803603602081101561043857600080fd5b5035610de1565b604080516001600160a01b039096168652602086019490945284840192909252606084015215156080830152519081900360a00190f35b6102fd6004803603602081101561048c57600080fd5b5035610e2c565b61049b610f5b565b60408051918252519081900360200190f35b6102fd600480360360408110156104c357600080fd5b5080359060200135610f61565b61049b600480360360408110156104e657600080fd5b508035906020013561100f565b61049b6004803603602081101561050957600080fd5b50356110b8565b6102fd6004803603602081101561052657600080fd5b50356110d6565b6102fd6004803603602081101561054357600080fd5b810190602081018135600160201b81111561055d57600080fd5b82018360208201111561056f57600080fd5b803590602001918460208302840111600160201b8311171561059057600080fd5b919080806020026020016040519081016040528093929190818152602001838360200280828437600092019190915250929550611161945050505050565b6102fd600480360360208110156105e457600080fd5b50356001600160a01b03166111fe565b61049b6004803603602081101561060a57600080fd5b5035611253565b6102fd6004803603602081101561062757600080fd5b810190602081018135600160201b81111561064157600080fd5b82018360208201111561065357600080fd5b803590602001918460208302840111600160201b8311171561067457600080fd5b919080806020026020016040519081016040528093929190818152602001838360200280828437600092019190915250929550611260945050505050565b6106ba6112f9565b604080516001600160a01b039092168252519081900360200190f35b6102fd600480360360208110156106ec57600080fd5b5035611308565b6102fd6004803603604081101561070957600080fd5b5080359060200135611397565b61071e61182d565b604080519115158252519081900360200190f35b6102fd6004803603602081101561074857600080fd5b810190602081018135600160201b81111561076257600080fd5b82018360208201111561077457600080fd5b803590602001918460208302840111600160201b8311171561079557600080fd5b919080806020026020016040519081016040528093929190818152602001838360200280828437600092019190915250929550611853945050505050565b6102fd600480360360208110156107e957600080fd5b50356001600160a01b03166118ec565b61049b611985565b61049b6004803603602081101561081757600080fd5b503561198b565b6102fd6004803603602081101561083457600080fd5b50356119d6565b6102fd6004803603606081101561085157600080fd5b506001600160a01b03813581169160208101359160409091013516611be1565b61049b611d66565b6106ba611d6c565b61049b611d7b565b61049b611d81565b6102fd600480360360608110156108a757600080fd5b508035906001600160a01b036020820135169060400135611d87565b6106ba611e36565b61049b611e45565b6102fd611e4b565b6102fd600480360360208110156108f157600080fd5b5035611ef7565b6102fd6004803603602081101561090e57600080fd5b5035611fd8565b61049b6004803603604081101561092b57600080fd5b50803590602001356001600160a01b03166120fb565b6102fd6004803603606081101561095757600080fd5b508035906001600160a01b036020820135169060400135612155565b6106ba612204565b61049b6004803603604081101561099157600080fd5b5080359060200135612213565b6109ca600480360360408110156109b457600080fd5b50803590602001356001600160a01b031661230d565b604080519687526020870195909552858501939093526060850191909152608084015260a0830152519081900360c00190f35b61049b61234d565b6102fd60048036036080811015610a1b57600080fd5b508035906001600160a01b0360208201351690604081013515159060600135612353565b61049b60048036036020811015610a5557600080fd5b503561254f565b61049b61255c565b61071e60048036036020811015610a7a57600080fd5b50356001600160a01b0316612573565b61049b60048036036040811015610aa057600080fd5b50803590602001356001600160a01b0316612588565b6102fd60048036036020811015610acc57600080fd5b50356001600160a01b0316612643565b61049b60048036036040811015610af257600080fd5b50803590602001356001600160a01b03166126c9565b6102fd60048036036040811015610b1e57600080fd5b5080359060200135612827565b61049b60048036036020811015610b4157600080fd5b5035612b3a565b61049b60048036036020811015610b5e57600080fd5b5035612b47565b6102fd60048036036020811015610b7b57600080fd5b50356001600160a01b0316612b54565b61049b60048036036040811015610ba157600080fd5b5080359060200135612c56565b3360009081526002602052604090205460ff1680610bdb575033610bd0612204565b6001600160a01b0316145b80610bf5575033610bea611d6c565b6001600160a01b0316145b610c34576040805162461bcd60e51b815260206004820152601860248201526000805160206136a7833981519152604482015290519081900360640190fd5b610c3c612dc6565b565b3360009081526002602052604090205460ff1680610c6b575033610c60612204565b6001600160a01b0316145b80610c85575033610c7a611d6c565b6001600160a01b0316145b610cc4576040805162461bcd60e51b815260206004820152601860248201526000805160206136a7833981519152604482015290519081900360640190fd5b60008251118015610ce9575081600081518110610cdd57fe5b60200260200101516000145b8015610cf6575081518151145b610d315760405162461bcd60e51b815260040180806020018281038252604d8152602001806135ec604d913960600191505060405180910390fd5b8151610d4490600f906020850190613565565b5080516000905b80821015610dc757610320838381518110610d6257fe5b602002602001015110610dbc576040805162461bcd60e51b815260206004820152601c60248201527f4665652063616e277420626520686967686572207468616e2038252e00000000604482015290519081900360640190fd5b600182019150610d4b565b8251610dda90600e906020860190613565565b5050505050565b60068181548110610dee57fe5b6000918252602090912060059091020180546001820154600283015460038401546004909401546001600160a01b0390931694509092909160ff1685565b3360009081526002602052604090205460ff1680610e59575033610e4e612204565b6001600160a01b0316145b80610e73575033610e68611d6c565b6001600160a01b0316145b610eb2576040805162461bcd60e51b815260206004820152601860248201526000805160206136a7833981519152604482015290519081900360640190fd5b6009544210610efb576040805162461bcd60e51b815260206004820152601060248201526f20b63932b0b23c9039ba30b93a32b21760811b604482015290519081900360640190fd5b8060095410610f4c576040805162461bcd60e51b81526020600482015260186024820152772a34b6b29034b7383aba1034b9903a37b79032b0b9363c9760411b604482015290519081900360640190fd5b600a8190556009549003600c55565b60085481565b6001546001600160a01b03163314610faa5760405162461bcd60e51b81526004018080602001828103825260248152602001806136c76024913960400191505060405180910390fd5b610fb2612dc6565b600060068381548110610fc157fe5b60009182526020909120600590910201600481015490915060ff16156110085761100482610ffe8360010154600854612de590919063ffffffff16565b90612d6c565b6008555b6001015550565b6000818310611020575060006110b2565b600a54821061107657600a54831061103a575060006110b2565b60095483116110645761105d600b54611057600954600a54612213565b90612d0c565b90506110b2565b61105d600b5461105785600a54612213565b6009548211611087575060006110b2565b60095483116110a25761105d600b5461105760095485612213565b61105d600b546110578585612213565b92915050565b600f81815481106110c557fe5b600091825260209091200154905081565b3360009081526002602052604090205460ff16806111035750336110f8612204565b6001600160a01b0316145b8061111d575033611112611d6c565b6001600160a01b0316145b61115c576040805162461bcd60e51b815260206004820152601860248201526000805160206136a7833981519152604482015290519081900360640190fd5b601255565b3360009081526002602052604090205460ff168061118e575033611183612204565b6001600160a01b0316145b806111a857503361119d611d6c565b6001600160a01b0316145b6111e7576040805162461bcd60e51b815260206004820152601860248201526000805160206136a7833981519152604482015290519081900360640190fd5b80516111fa906013906020840190613565565b5050565b6001546001600160a01b031633146112475760405162461bcd60e51b81526004018080602001828103825260248152602001806136c76024913960400191505060405180910390fd5b61125081612e42565b50565b601081815481106110c557fe5b3360009081526002602052604090205460ff168061128d575033611282612204565b6001600160a01b0316145b806112a757503361129c611d6c565b6001600160a01b0316145b6112e6576040805162461bcd60e51b815260206004820152601860248201526000805160206136a7833981519152604482015290519081900360640190fd5b80516111fa906011906020840190613565565b6004546001600160a01b031681565b3360009081526002602052604090205460ff168061133557503361132a612204565b6001600160a01b0316145b8061134f575033611344611d6c565b6001600160a01b0316145b61138e576040805162461bcd60e51b815260206004820152601860248201526000805160206136a7833981519152604482015290519081900360640190fd5b61125081612edf565b61139f61303c565b156113db5760405162461bcd60e51b81526004018080602001828103825260268152602001806137156026913960400191505060405180910390fd5b6113e361305d565b1561141f5760405162461bcd60e51b81526004018080602001828103825260268152602001806137156026913960400191505060405180910390fd5b600033905060006006848154811061143357fe5b600091825260208083208784526007825260408085206001600160a01b038816865290925292208054600590920290920192508411156114af576040805162461bcd60e51b81526020600482015260126024820152711dda5d1a191c985dce881b9bdd0819dbdbd960721b604482015290519081900360640190fd5b6114b885612edf565b60006114f582600101546114ef670de0b6b3a76400006114e987600301548760000154612d0c90919063ffffffff16565b9061307e565b90612de5565b905080156116175761150784826130e5565b60125460028301546000914291116115ca57600061153d6000831161152c5782611537565b611537836001612de5565b83612c56565b905061154e60646114e98684612d0c565b925082156115c857600480546040805163282d3fdf60e01b81526001600160a01b038b811694820194909452602481018790529051929091169163282d3fdf9160448082019260009290919082900301818387803b1580156115af57600080fd5b505af11580156115c3573d6000803e3d6000fd5b505050505b505b60028401819055604080518481526020810184905281516001600160a01b038916927fd6f2c8500df5b44f11e9e48b91ff9f1b9d81bc496d55570c2b1b75bf65243f51928290030190a250505b84156117875781546116299086612de5565b8255600d54600383015443146116bd57600080846004015411611652578360050154420361165a565b836004015442035b600f549091508060005b81156116b857600182039050600f818154811061167d57fe5b906000526020600020015484106116ad57600e818154811061169b57fe5b906000526020600020015494506116b8565b600182039150611664565b505050505b42600484015560006116d56127106114e98985612d0c565b905060006116e38883612de5565b9050811561176d5760055460408051623ce03d60e21b8152905161176d926001600160a01b03169162f380f4916004808301926020929190829003018186803b15801561172f57600080fd5b505afa158015611743573d6000803e3d6000fd5b505050506040513d602081101561175957600080fd5b505187546001600160a01b0316908461319f565b8554611783906001600160a01b0316888361319f565b5050505b600383015482546117a591670de0b6b3a7640000916114e991612d0c565b600183015560408051868152905187916001600160a01b038716917ff279e6a1f5e320cca91135676d9cb6e44ca8a08c0b88342bcdb1144f6511b5689181900360200190a350504360009081526003602090815260408083203284529091528082208054600160ff199182168117909255338452919092208054909116909117905550505050565b6001546000906001600160a01b03166118446131f1565b6001600160a01b031614905090565b3360009081526002602052604090205460ff1680611880575033611875612204565b6001600160a01b0316145b8061189a57503361188f611d6c565b6001600160a01b0316145b6118d9576040805162461bcd60e51b815260206004820152601860248201526000805160206136a7833981519152604482015290519081900360640190fd5b80516111fa906010906020840190613565565b6118f46131f1565b6001600160a01b0316611905612204565b6001600160a01b03161461194e576040805162461bcd60e51b81526020600482018190526024820152600080516020613687833981519152604482015290519081900360640190fd5b6001600160a01b03811633141561196457600080fd5b6001600160a01b03166000908152600260205260409020805460ff19169055565b60125481565b6000806006838154811061199b57fe5b9060005260206000209060050201905060006119ce6008546114e98460010154611057600b546110576001420342612213565b949350505050565b6119de61303c565b15611a1a5760405162461bcd60e51b81526004018080602001828103825260268152602001806137156026913960400191505060405180910390fd5b611a2261305d565b15611a5e5760405162461bcd60e51b81526004018080602001828103825260268152602001806137156026913960400191505060405180910390fd5b600060068281548110611a6d57fe5b60009182526020808320858452600782526040808520338652909252908320600d54815460059094029092019450929091611ab090612710906114e99085612d0c565b8354909150600090611ac29083612de5565b600080865560018601558554909150611ae5906001600160a01b0316338361319f565b60055460408051623ce03d60e21b81529051611b67926001600160a01b03169162f380f4916004808301926020929190829003018186803b158015611b2957600080fd5b505afa158015611b3d573d6000803e3d6000fd5b505050506040513d6020811015611b5357600080fd5b505186546001600160a01b0316908461319f565b604080518281529051879133917fbb757047c2b5f3974fe26b7c10f732e7bce710b0952a71082702781e62ae05959181900360200190a350504360009081526003602090815260408083203284529091528082208054600160ff199182168117909255338452919092208054909116909117905550505050565b3360009081526002602052604090205460ff1680611c0e575033611c03612204565b6001600160a01b0316145b80611c28575033611c1d611d6c565b6001600160a01b0316145b611c67576040805162461bcd60e51b815260206004820152601860248201526000805160206136a7833981519152604482015290519081900360640190fd5b600a546276a70001421015611d4d576004546001600160a01b0384811691161415611cc2576040805162461bcd60e51b81526020600482015260066024820152657468656f727960d01b604482015290519081900360640190fd5b60065460005b81811015611d4a57600060068281548110611cdf57fe5b6000918252602090912060059091020180549091506001600160a01b0387811691161415611d41576040805162461bcd60e51b815260206004820152600a6024820152693837b7b6173a37b5b2b760b11b604482015290519081900360640190fd5b50600101611cc8565b50505b611d616001600160a01b038416828461319f565b505050565b600d5481565b6001546001600160a01b031690565b600b5481565b60095481565b3360009081526002602052604090205460ff1680611db4575033611da9612204565b6001600160a01b0316145b80611dce575033611dc3611d6c565b6001600160a01b0316145b611e0d576040805162461bcd60e51b815260206004820152601860248201526000805160206136a7833981519152604482015290519081900360640190fd5b60009283526007602090815260408085206001600160a01b039094168552929052912060040155565b6005546001600160a01b031681565b600a5481565b611e536131f1565b6001600160a01b0316611e64612204565b6001600160a01b031614611ead576040805162461bcd60e51b81526020600482018190526024820152600080516020613687833981519152604482015290519081900360640190fd5b600080546040516001600160a01b03909116907f8be0079c531659141344cd1fd0a4f28419497f9722a3daafe3b4186f6b6457e0908390a3600080546001600160a01b0319169055565b3360009081526002602052604090205460ff1680611f24575033611f19612204565b6001600160a01b0316145b80611f3e575033611f33611d6c565b6001600160a01b0316145b611f7d576040805162461bcd60e51b815260206004820152601860248201526000805160206136a7833981519152604482015290519081900360640190fd5b6109c48110611fd3576040805162461bcd60e51b815260206004820152601d60248201527f4665652063616e277420626520686967686572207468616e203235252e000000604482015290519081900360640190fd5b600d55565b3360009081526002602052604090205460ff1680612005575033611ffa612204565b6001600160a01b0316145b8061201f575033612014611d6c565b6001600160a01b0316145b61205e576040805162461bcd60e51b815260206004820152601860248201526000805160206136a7833981519152604482015290519081900360640190fd5b60095442106120a7576040805162461bcd60e51b815260206004820152601060248201526f20b63932b0b23c9039ba30b93a32b21760811b604482015290519081900360640190fd5b8042106120f6576040805162461bcd60e51b81526020600482015260186024820152772a34b6b29034b7383aba1034b9903a37b79032b0b9363c9760411b604482015290519081900360640190fd5b600955565b60008281526007602090815260408083206001600160a01b03851684529091528120601254600282015442911061214a57600061213f6000831161152c5782611537565b93506110b292505050565b506000949350505050565b3360009081526002602052604090205460ff1680612182575033612177612204565b6001600160a01b0316145b8061219c575033612191611d6c565b6001600160a01b0316145b6121db576040805162461bcd60e51b815260206004820152601860248201526000805160206136a7833981519152604482015290519081900360640190fd5b60009283526007602090815260408085206001600160a01b039094168552929052912060050155565b6000546001600160a01b031690565b600954600090819084101561222c5760009150506110b2565b60005b6011548110156123055760006011828154811061224857fe5b9060005260206000200154905060016010805490500382111561227157600093505050506110b2565b8085116122b75760006122a06010848154811061228a57fe5b600091825260209091200154611057888a612de5565b90506122ac8482612d6c565b9450505050506110b2565b808610156122fc5760006122e7601084815481106122d157fe5b600091825260209091200154611057848a612de5565b919650869190506122f88482612d6c565b9350505b5060010161222f565b509392505050565b6007602090815260009283526040808420909152908252902080546001820154600283015460038401546004850154600590950154939492939192909186565b600c5481565b6001546001600160a01b0316331461239c5760405162461bcd60e51b81526004018080602001828103825260248152602001806136c76024913960400191505060405180910390fd5b6123a5836131f5565b81156123b3576123b3612dc6565b6009544210156123df57806123cb57506009546123da565b6009548110156123da57506009545b6123f3565b8015806123eb57504281105b156123f35750425b6000600954821115806124065750428211155b6040805160a0810182526001600160a01b03878116825260208201898152928201868152600060608401818152861580156080870190815260068054600181018255945295517ff652222313e28459528d920b65115c16c04f3efc82aaedc97be59f3f377c0d3f600590940293840180546001600160a01b031916919096161790945594517ff652222313e28459528d920b65115c16c04f3efc82aaedc97be59f3f377c0d4082015590517ff652222313e28459528d920b65115c16c04f3efc82aaedc97be59f3f377c0d4182015592517ff652222313e28459528d920b65115c16c04f3efc82aaedc97be59f3f377c0d4284015590517ff652222313e28459528d920b65115c16c04f3efc82aaedc97be59f3f377c0d43909201805460ff191692151592909217909155909150610dda576008546125459086612d6c565b6008555050505050565b601381815481106110c557fe5b60008061256d600954600a5461100f565b91505090565b60026020526000908152604090205460ff1681565b60008281526007602090815260408083206001600160a01b03851684529091528120600d54600382015443146119ce576000808360040154116125d157826005015442036125d9565b826004015442035b600f549091508060005b811561263757600182039050600f81815481106125fc57fe5b9060005260206000200154841061262c57600e818154811061261a57fe5b90600052602060002001549450612637565b6001820391506125e3565b50505050949350505050565b61264b6131f1565b6001600160a01b031661265c612204565b6001600160a01b0316146126a5576040805162461bcd60e51b81526020600482018190526024820152600080516020613687833981519152604482015290519081900360640190fd5b6001600160a01b03166000908152600260205260409020805460ff19166001179055565b600080600684815481106126d957fe5b600091825260208083208784526007825260408085206001600160a01b0389811687529084528186206005959095029092016003810154815483516370a0823160e01b815230600482015293519298509596909590949316926370a082319260248082019391829003018186803b15801561275357600080fd5b505afa158015612767573d6000803e3d6000fd5b505050506040513d602081101561277d57600080fd5b505160028501549091504211801561279457508015155b156127f15760006127a985600201544261100f565b905060006127ca6008546114e9886001015485612d0c90919063ffffffff16565b90506127ec6127e5846114e984670de0b6b3a7640000612d0c565b8590612d6c565b935050505b61281c83600101546114ef670de0b6b3a76400006114e9868860000154612d0c90919063ffffffff16565b979650505050505050565b61282f61303c565b1561286b5760405162461bcd60e51b81526004018080602001828103825260268152602001806137156026913960400191505060405180910390fd5b61287361305d565b156128af5760405162461bcd60e51b81526004018080602001828103825260268152602001806137156026913960400191505060405180910390fd5b60003390506000600684815481106128c357fe5b600091825260208083208784526007825260408085206001600160a01b03881686529092529220600590910290910191506128fd85612edf565b805415612a4c57600061293582600101546114ef670de0b6b3a76400006114e987600301548760000154612d0c90919063ffffffff16565b90508015612a465761294784826130e5565b60125460028301546000914291116129f957600061296c6000831161152c5782611537565b905061297d60646114e98684612d0c565b925082156129f757600480546040805163282d3fdf60e01b81526001600160a01b038b811694820194909452602481018790529051929091169163282d3fdf9160448082019260009290919082900301818387803b1580156129de57600080fd5b505af11580156129f2573d6000803e3d6000fd5b505050505b505b60028401819055604080518481526020810184905281516001600160a01b038916927fd6f2c8500df5b44f11e9e48b91ff9f1b9d81bc496d55570c2b1b75bf65243f51928290030190a250505b50612a53565b4260028201555b4360038201556005810154612a69574260058201555b8315612a95578154612a86906001600160a01b031684308761328f565b8054612a929085612d6c565b81555b60038201548154612ab391670de0b6b3a7640000916114e991612d0c565b600182015560408051858152905186916001600160a01b038616917f90890809c654f11d6e72a28fa60149770a0d11ec6c92319d6ceb2bb0a4ea1a159181900360200190a350504360009081526003602090815260408083203284529091528082208054600160ff1991821681179092553384529190922080549091169091179055505050565b601181815481106110c557fe5b600e81815481106110c557fe5b612b5c6131f1565b6001600160a01b0316612b6d612204565b6001600160a01b031614612bb6576040805162461bcd60e51b81526020600482018190526024820152600080516020613687833981519152604482015290519081900360640190fd5b6001600160a01b038116612bfb5760405162461bcd60e51b81526004018080602001828103825260268152602001806135c66026913960400191505060405180910390fd5b600080546040516001600160a01b03808516939216917f8be0079c531659141344cd1fd0a4f28419497f9722a3daafe3b4186f6b6457e091a3600080546001600160a01b0319166001600160a01b0392909216919091179055565b6009546000908190841015612c6f5760649150506110b2565b600a548310612c825760009150506110b2565b6012548310612c955760009150506110b2565b60005b60115481101561230557600060118281548110612cb157fe5b90600052602060002001549050600160138054905003821115612cda57600093505050506110b2565b808511612d035760138281548110612cee57fe5b906000526020600020015493505050506110b2565b50600101612c98565b600082612d1b575060006110b2565b82820282848281612d2857fe5b0414612d655760405162461bcd60e51b81526004018080602001828103825260218152602001806136666021913960400191505060405180910390fd5b9392505050565b600082820183811015612d65576040805162461bcd60e51b815260206004820152601b60248201527f536166654d6174683a206164646974696f6e206f766572666c6f770000000000604482015290519081900360640190fd5b60065460005b818110156111fa57612ddd81612edf565b600101612dcc565b600082821115612e3c576040805162461bcd60e51b815260206004820152601e60248201527f536166654d6174683a207375627472616374696f6e206f766572666c6f770000604482015290519081900360640190fd5b50900390565b6001600160a01b038116612e875760405162461bcd60e51b815260040180806020018281038252602d815260200180613639602d913960400191505060405180910390fd5b6040516001600160a01b038216906000907f74da04524d50c64947f5dd5381ef1a4dca5cba8ed1d816243f9e48aa0b5617ed908290a3600180546001600160a01b0319166001600160a01b0392909216919091179055565b600060068281548110612eee57fe5b9060005260206000209060050201905080600201544211612f0f5750611250565b8054604080516370a0823160e01b815230600482015290516000926001600160a01b0316916370a08231916024808301926020929190829003018186803b158015612f5957600080fd5b505afa158015612f6d573d6000803e3d6000fd5b505050506040513d6020811015612f8357600080fd5b5051905080612f99575042600290910155611250565b600482015460ff16612fca5760048201805460ff19166001908117909155820154600854612fc691612d6c565b6008555b60085415613031576000612fe283600201544261100f565b905060006130036008546114e9866001015485612d0c90919063ffffffff16565b905061302961301e846114e984670de0b6b3a7640000612d0c565b600386015490612d6c565b600385015550505b504260029091015550565b43600090815260036020908152604080832032845290915290205460ff1690565b43600090815260036020908152604080832033845290915290205460ff1690565b60008082116130d4576040805162461bcd60e51b815260206004820152601a60248201527f536166654d6174683a206469766973696f6e206279207a65726f000000000000604482015290519081900360640190fd5b8183816130dd57fe5b049392505050565b60048054604080516370a0823160e01b81523093810193909352516000926001600160a01b03909216916370a08231916024808301926020929190829003018186803b15801561313457600080fd5b505afa158015613148573d6000803e3d6000fd5b505050506040513d602081101561315e57600080fd5b505190508015611d61578082111561318c57600454613187906001600160a01b0316848361319f565b611d61565b600454611d61906001600160a01b031684845b604080516001600160a01b038416602482015260448082018490528251808303909101815260649091019091526020810180516001600160e01b031663a9059cbb60e01b179052611d619084906132ef565b3390565b60065460005b81811015611d6157826001600160a01b03166006828154811061321a57fe5b60009182526020909120600590910201546001600160a01b03161415613287576040805162461bcd60e51b815260206004820181905260248201527f5468656f7279526577617264506f6f6c3a206578697374696e6720706f6f6c3f604482015290519081900360640190fd5b6001016131fb565b604080516001600160a01b0380861660248301528416604482015260648082018490528251808303909101815260849091019091526020810180516001600160e01b03166323b872dd60e01b1790526132e99085906132ef565b50505050565b6060613344826040518060400160405280602081526020017f5361666545524332303a206c6f772d6c6576656c2063616c6c206661696c6564815250856001600160a01b03166133a09092919063ffffffff16565b805190915015611d615780806020019051602081101561336357600080fd5b5051611d615760405162461bcd60e51b815260040180806020018281038252602a8152602001806136eb602a913960400191505060405180910390fd5b60606119ce8484600085856133b4856134bb565b613405576040805162461bcd60e51b815260206004820152601d60248201527f416464726573733a2063616c6c20746f206e6f6e2d636f6e7472616374000000604482015290519081900360640190fd5b60006060866001600160a01b031685876040518082805190602001908083835b602083106134445780518252601f199092019160209182019101613425565b6001836020036101000a03801982511681845116808217855250505050505090500191505060006040518083038185875af1925050503d80600081146134a6576040519150601f19603f3d011682016040523d82523d6000602084013e6134ab565b606091505b509150915061281c8282866134c1565b3b151590565b606083156134d0575081612d65565b8251156134e05782518084602001fd5b8160405162461bcd60e51b81526004018080602001828103825283818151815260200191508051906020019080838360005b8381101561352a578181015183820152602001613512565b50505050905090810190601f1680156135575780820380516001836020036101000a031916815260200191505b509250505060405180910390fd5b8280548282559060005260206000209081019282156135a0579160200282015b828111156135a0578251825591602001919060010190613585565b506135ac9291506135b0565b5090565b5b808211156135ac57600081556001016135b156fe4f776e61626c653a206e6577206f776e657220697320746865207a65726f206164647265737346656520737461676520617272617973206d75737420626520657175616c20696e206e6f6e2d7a65726f206c656e67746820616e642074696d652073686f756c6420737461727420617420302e6f70657261746f723a207a65726f206164647265737320676976656e20666f72206e6577206f70657261746f72536166654d6174683a206d756c7469706c69636174696f6e206f766572666c6f774f776e61626c653a2063616c6c6572206973206e6f7420746865206f776e657263616c6c6572206973206e6f7420617574686f72697a656400000000000000006f70657261746f723a2063616c6c6572206973206e6f7420746865206f70657261746f725361666545524332303a204552433230206f7065726174696f6e20646964206e6f742073756363656564436f6e747261637447756172643a206f6e6520626c6f636b2c206f6e652066756e6374696f6ea264697066735822122079859400c5dad826199d525a3ead40176ee11cd8ae9244f54cfa6039eded3fcd64736f6c634300060c003331ecc21a745e3968a04e9570e4425bc18fa8019c68028196b546d1669c200c68536166654d6174683a206d756c7469706c69636174696f6e206f766572666c6f77",
			"opcodes": "PUSH1 0x80 PUSH1 0x40 MSTORE PUSH1 0x0 PUSH1 0x8 SSTORE PUSH7 0x1AAC03668EF00 PUSH1 0xB SSTORE PUSH4 0x1E13380 PUSH1 0xC SSTORE CALLVALUE DUP1 ISZERO PUSH3 0x29 JUMPI PUSH1 0x0 DUP1 REVERT JUMPDEST POP PUSH1 0x40 MLOAD PUSH3 0x3DFD CODESIZE SUB DUP1 PUSH3 0x3DFD DUP4 CODECOPY DUP2 DUP2 ADD PUSH1 0x40 MSTORE PUSH1 0xC0 DUP2 LT ISZERO PUSH3 0x4F JUMPI PUSH1 0x0 DUP1 REVERT JUMPDEST DUP2 MLOAD PUSH1 0x20 DUP4 ADD MLOAD PUSH1 0x40 DUP1 DUP6 ADD MLOAD PUSH1 0x60 DUP7 ADD MLOAD PUSH1 0x80 DUP8 ADD DUP1 MLOAD SWAP4 MLOAD SWAP6 SWAP8 SWAP5 SWAP7 SWAP3 SWAP6 SWAP2 SWAP5 SWAP2 SWAP4 SWAP3 DUP3 ADD SWAP3 DUP5 PUSH5 0x100000000 DUP3 GT ISZERO PUSH3 0x8B JUMPI PUSH1 0x0 DUP1 REVERT JUMPDEST SWAP1 DUP4 ADD SWAP1 PUSH1 0x20 DUP3 ADD DUP6 DUP2 GT ISZERO PUSH3 0xA1 JUMPI PUSH1 0x0 DUP1 REVERT JUMPDEST DUP3 MLOAD DUP7 PUSH1 0x20 DUP3 MUL DUP4 ADD GT PUSH5 0x100000000 DUP3 GT OR ISZERO PUSH3 0xBF JUMPI PUSH1 0x0 DUP1 REVERT JUMPDEST DUP3 MSTORE POP DUP2 MLOAD PUSH1 0x20 SWAP2 DUP3 ADD SWAP3 DUP3 ADD SWAP2 MUL DUP1 DUP4 DUP4 PUSH1 0x0 JUMPDEST DUP4 DUP2 LT ISZERO PUSH3 0xEE JUMPI DUP2 DUP2 ADD MLOAD DUP4 DUP3 ADD MSTORE PUSH1 0x20 ADD PUSH3 0xD4 JUMP JUMPDEST POP POP POP POP SWAP1 POP ADD PUSH1 0x40 MSTORE PUSH1 0x20 ADD DUP1 MLOAD PUSH1 0x40 MLOAD SWAP4 SWAP3 SWAP2 SWAP1 DUP5 PUSH5 0x100000000 DUP3 GT ISZERO PUSH3 0x118 JUMPI PUSH1 0x0 DUP1 REVERT JUMPDEST SWAP1 DUP4 ADD SWAP1 PUSH1 0x20 DUP3 ADD DUP6 DUP2 GT ISZERO PUSH3 0x12E JUMPI PUSH1 0x0 DUP1 REVERT JUMPDEST DUP3 MLOAD DUP7 PUSH1 0x20 DUP3 MUL DUP4 ADD GT PUSH5 0x100000000 DUP3 GT OR ISZERO PUSH3 0x14C JUMPI PUSH1 0x0 DUP1 REVERT JUMPDEST DUP3 MSTORE POP DUP2 MLOAD PUSH1 0x20 SWAP2 DUP3 ADD SWAP3 DUP3 ADD SWAP2 MUL DUP1 DUP4 DUP4 PUSH1 0x0 JUMPDEST DUP4 DUP2 LT ISZERO PUSH3 0x17B JUMPI DUP2 DUP2 ADD MLOAD DUP4 DUP3 ADD MSTORE PUSH1 0x20 ADD PUSH3 0x161 JUMP JUMPDEST POP POP POP POP SWAP1 POP ADD PUSH1 0x40 MSTORE POP POP POP PUSH1 0x0 PUSH3 0x19A PUSH3 0x486 PUSH1 0x20 SHL PUSH1 0x20 SHR JUMP JUMPDEST PUSH1 0x0 DUP1 SLOAD PUSH1 0x1 PUSH1 0x1 PUSH1 0xA0 SHL SUB NOT AND PUSH1 0x1 PUSH1 0x1 PUSH1 0xA0 SHL SUB DUP4 AND SWAP1 DUP2 OR DUP3 SSTORE PUSH1 0x40 MLOAD SWAP3 SWAP4 POP SWAP2 PUSH32 0x8BE0079C531659141344CD1FD0A4F28419497F9722A3DAAFE3B4186F6B6457E0 SWAP1 DUP3 SWAP1 LOG3 POP PUSH3 0x1EE PUSH3 0x486 JUMP JUMPDEST PUSH1 0x1 DUP1 SLOAD PUSH1 0x1 PUSH1 0x1 PUSH1 0xA0 SHL SUB NOT AND PUSH1 0x1 PUSH1 0x1 PUSH1 0xA0 SHL SUB SWAP3 DUP4 AND OR SWAP1 DUP2 SWAP1 SSTORE PUSH1 0x40 MLOAD SWAP2 AND SWAP1 PUSH1 0x0 SWAP1 PUSH32 0x74DA04524D50C64947F5DD5381EF1A4DCA5CBA8ED1D816243F9E48AA0B5617ED SWAP1 DUP3 SWAP1 LOG3 DUP4 TIMESTAMP LT PUSH3 0x278 JUMPI PUSH1 0x40 DUP1 MLOAD PUSH3 0x461BCD PUSH1 0xE5 SHL DUP2 MSTORE PUSH1 0x20 PUSH1 0x4 DUP1 DUP4 ADD SWAP2 SWAP1 SWAP2 MSTORE PUSH1 0x24 DUP3 ADD MSTORE PUSH4 0x6C617465 PUSH1 0xE0 SHL PUSH1 0x44 DUP3 ADD MSTORE SWAP1 MLOAD SWAP1 DUP2 SWAP1 SUB PUSH1 0x64 ADD SWAP1 REVERT JUMPDEST PUSH1 0x1 PUSH1 0x1 PUSH1 0xA0 SHL SUB DUP7 AND ISZERO PUSH3 0x2A4 JUMPI PUSH1 0x4 DUP1 SLOAD PUSH1 0x1 PUSH1 0x1 PUSH1 0xA0 SHL SUB NOT AND PUSH1 0x1 PUSH1 0x1 PUSH1 0xA0 SHL SUB DUP9 AND OR SWAP1 SSTORE JUMPDEST PUSH1 0x5 DUP1 SLOAD PUSH1 0x1 PUSH1 0x1 PUSH1 0xA0 SHL SUB NOT AND PUSH1 0x1 PUSH1 0x1 PUSH1 0xA0 SHL SUB DUP8 AND OR SWAP1 SSTORE PUSH1 0x9 DUP5 SWAP1 SSTORE PUSH1 0xC SLOAD DUP5 ADD PUSH1 0xA SSTORE PUSH2 0x9C4 PUSH1 0xD SSTORE PUSH1 0x40 DUP1 MLOAD PUSH1 0xE0 DUP2 ADD DUP3 MSTORE PUSH1 0x0 DUP2 MSTORE PUSH2 0xE10 PUSH1 0x20 DUP3 ADD MSTORE PUSH3 0x15180 SWAP2 DUP2 ADD SWAP2 SWAP1 SWAP2 MSTORE PUSH3 0x3F480 PUSH1 0x60 DUP3 ADD MSTORE PUSH3 0x69780 PUSH1 0x80 DUP3 ADD MSTORE PUSH3 0x127500 PUSH1 0xA0 DUP3 ADD MSTORE PUSH3 0x24EA00 PUSH1 0xC0 DUP3 ADD MSTORE PUSH3 0x327 SWAP1 PUSH1 0xF SWAP1 PUSH1 0x7 PUSH3 0x54C JUMP JUMPDEST POP PUSH1 0x40 DUP1 MLOAD PUSH1 0xE0 DUP2 ADD DUP3 MSTORE PUSH2 0x320 DUP2 MSTORE PUSH2 0x190 PUSH1 0x20 DUP3 ADD MSTORE PUSH1 0xC8 SWAP2 DUP2 ADD SWAP2 SWAP1 SWAP2 MSTORE PUSH1 0x64 PUSH1 0x60 DUP3 ADD MSTORE PUSH1 0x32 PUSH1 0x80 DUP3 ADD MSTORE PUSH1 0x19 PUSH1 0xA0 DUP3 ADD MSTORE PUSH1 0x1 PUSH1 0xC0 DUP3 ADD MSTORE PUSH3 0x374 SWAP1 PUSH1 0xE SWAP1 PUSH1 0x7 PUSH3 0x5A3 JUMP JUMPDEST POP DUP2 MLOAD PUSH3 0x38A SWAP1 PUSH1 0x10 SWAP1 PUSH1 0x20 DUP6 ADD SWAP1 PUSH3 0x5E7 JUMP JUMPDEST POP DUP1 MLOAD PUSH3 0x3A0 SWAP1 PUSH1 0x13 SWAP1 PUSH1 0x20 DUP5 ADD SWAP1 PUSH3 0x5E7 JUMP JUMPDEST POP PUSH1 0x0 JUMPDEST PUSH1 0x10 SLOAD PUSH1 0x0 NOT ADD DUP2 LT ISZERO PUSH3 0x425 JUMPI PUSH1 0x0 PUSH3 0x3F3 PUSH1 0x1 PUSH3 0x3DF PUSH1 0x9 SLOAD PUSH3 0x3DF DUP7 PUSH1 0x1 ADD DUP11 PUSH3 0x48A PUSH1 0x20 SHL PUSH3 0x2D0C OR SWAP1 SWAP2 SWAP1 PUSH1 0x20 SHR JUMP JUMPDEST PUSH3 0x4F1 PUSH1 0x20 SHL PUSH3 0x2D6C OR SWAP1 SWAP2 SWAP1 PUSH1 0x20 SHR JUMP JUMPDEST PUSH1 0x11 DUP1 SLOAD PUSH1 0x1 DUP2 DUP2 ADD DUP4 SSTORE PUSH1 0x0 SWAP3 SWAP1 SWAP3 MSTORE PUSH1 0x0 DUP1 MLOAD PUSH1 0x20 PUSH3 0x3DBC DUP4 CODECOPY DUP2 MLOAD SWAP2 MSTORE ADD SWAP2 SWAP1 SWAP2 SSTORE SWAP2 SWAP1 SWAP2 ADD SWAP1 POP PUSH3 0x3A4 JUMP JUMPDEST POP PUSH3 0x44F PUSH1 0x9 SLOAD PUSH3 0x3DF PUSH1 0x1 PUSH1 0x10 DUP1 SLOAD SWAP1 POP SUB DUP7 PUSH3 0x48A PUSH1 0x20 SHL PUSH3 0x2D0C OR SWAP1 SWAP2 SWAP1 PUSH1 0x20 SHR JUMP JUMPDEST PUSH1 0x12 SSTORE POP POP PUSH1 0x11 DUP1 SLOAD PUSH1 0x1 DUP2 ADD DUP3 SSTORE PUSH1 0x0 SWAP2 SWAP1 SWAP2 MSTORE PUSH1 0x0 NOT PUSH1 0x0 DUP1 MLOAD PUSH1 0x20 PUSH3 0x3DBC DUP4 CODECOPY DUP2 MLOAD SWAP2 MSTORE SWAP1 SWAP2 ADD SSTORE POP PUSH3 0x63C SWAP3 POP POP POP JUMP JUMPDEST CALLER SWAP1 JUMP JUMPDEST PUSH1 0x0 DUP3 PUSH3 0x49B JUMPI POP PUSH1 0x0 PUSH3 0x4EB JUMP JUMPDEST DUP3 DUP3 MUL DUP3 DUP5 DUP3 DUP2 PUSH3 0x4A9 JUMPI INVALID JUMPDEST DIV EQ PUSH3 0x4E8 JUMPI PUSH1 0x40 MLOAD PUSH3 0x461BCD PUSH1 0xE5 SHL DUP2 MSTORE PUSH1 0x4 ADD DUP1 DUP1 PUSH1 0x20 ADD DUP3 DUP2 SUB DUP3 MSTORE PUSH1 0x21 DUP2 MSTORE PUSH1 0x20 ADD DUP1 PUSH3 0x3DDC PUSH1 0x21 SWAP2 CODECOPY PUSH1 0x40 ADD SWAP2 POP POP PUSH1 0x40 MLOAD DUP1 SWAP2 SUB SWAP1 REVERT JUMPDEST SWAP1 POP JUMPDEST SWAP3 SWAP2 POP POP JUMP JUMPDEST PUSH1 0x0 DUP3 DUP3 ADD DUP4 DUP2 LT ISZERO PUSH3 0x4E8 JUMPI PUSH1 0x40 DUP1 MLOAD PUSH3 0x461BCD PUSH1 0xE5 SHL DUP2 MSTORE PUSH1 0x20 PUSH1 0x4 DUP3 ADD MSTORE PUSH1 0x1B PUSH1 0x24 DUP3 ADD MSTORE PUSH32 0x536166654D6174683A206164646974696F6E206F766572666C6F770000000000 PUSH1 0x44 DUP3 ADD MSTORE SWAP1 MLOAD SWAP1 DUP2 SWAP1 SUB PUSH1 0x64 ADD SWAP1 REVERT JUMPDEST DUP3 DUP1 SLOAD DUP3 DUP3 SSTORE SWAP1 PUSH1 0x0 MSTORE PUSH1 0x20 PUSH1 0x0 KECCAK256 SWAP1 DUP2 ADD SWAP3 DUP3 ISZERO PUSH3 0x591 JUMPI SWAP2 PUSH1 0x20 MUL DUP3 ADD JUMPDEST DUP3 DUP2 GT ISZERO PUSH3 0x591 JUMPI DUP3 MLOAD DUP3 SWAP1 PUSH3 0xFFFFFF AND SWAP1 SSTORE SWAP2 PUSH1 0x20 ADD SWAP2 SWAP1 PUSH1 0x1 ADD SWAP1 PUSH3 0x56D JUMP JUMPDEST POP PUSH3 0x59F SWAP3 SWAP2 POP PUSH3 0x625 JUMP JUMPDEST POP SWAP1 JUMP JUMPDEST DUP3 DUP1 SLOAD DUP3 DUP3 SSTORE SWAP1 PUSH1 0x0 MSTORE PUSH1 0x20 PUSH1 0x0 KECCAK256 SWAP1 DUP2 ADD SWAP3 DUP3 ISZERO PUSH3 0x591 JUMPI SWAP2 PUSH1 0x20 MUL DUP3 ADD JUMPDEST DUP3 DUP2 GT ISZERO PUSH3 0x591 JUMPI DUP3 MLOAD DUP3 SWAP1 PUSH2 0xFFFF AND SWAP1 SSTORE SWAP2 PUSH1 0x20 ADD SWAP2 SWAP1 PUSH1 0x1 ADD SWAP1 PUSH3 0x5C4 JUMP JUMPDEST DUP3 DUP1 SLOAD DUP3 DUP3 SSTORE SWAP1 PUSH1 0x0 MSTORE PUSH1 0x20 PUSH1 0x0 KECCAK256 SWAP1 DUP2 ADD SWAP3 DUP3 ISZERO PUSH3 0x591 JUMPI SWAP2 PUSH1 0x20 MUL DUP3 ADD JUMPDEST DUP3 DUP2 GT ISZERO PUSH3 0x591 JUMPI DUP3 MLOAD DUP3 SSTORE SWAP2 PUSH1 0x20 ADD SWAP2 SWAP1 PUSH1 0x1 ADD SWAP1 PUSH3 0x608 JUMP JUMPDEST JUMPDEST DUP1 DUP3 GT ISZERO PUSH3 0x59F JUMPI PUSH1 0x0 DUP2 SSTORE PUSH1 0x1 ADD PUSH3 0x626 JUMP JUMPDEST PUSH2 0x3770 DUP1 PUSH3 0x64C PUSH1 0x0 CODECOPY PUSH1 0x0 RETURN INVALID PUSH1 0x80 PUSH1 0x40 MSTORE CALLVALUE DUP1 ISZERO PUSH2 0x10 JUMPI PUSH1 0x0 DUP1 REVERT JUMPDEST POP PUSH1 0x4 CALLDATASIZE LT PUSH2 0x2F0 JUMPI PUSH1 0x0 CALLDATALOAD PUSH1 0xE0 SHR DUP1 PUSH4 0x5AD96153 GT PUSH2 0x19D JUMPI DUP1 PUSH4 0x943F013D GT PUSH2 0xE9 JUMPI DUP1 PUSH4 0xCF1C316A GT PUSH2 0xA2 JUMPI DUP1 PUSH4 0xE5554E07 GT PUSH2 0x7C JUMPI DUP1 PUSH4 0xE5554E07 EQ PUSH2 0xB2B JUMPI DUP1 PUSH4 0xEDE87D61 EQ PUSH2 0xB48 JUMPI DUP1 PUSH4 0xF2FDE38B EQ PUSH2 0xB65 JUMPI DUP1 PUSH4 0xF930E770 EQ PUSH2 0xB8B JUMPI PUSH2 0x2F0 JUMP JUMPDEST DUP1 PUSH4 0xCF1C316A EQ PUSH2 0xAB6 JUMPI DUP1 PUSH4 0xCF4B55CB EQ PUSH2 0xADC JUMPI DUP1 PUSH4 0xE2BBB158 EQ PUSH2 0xB08 JUMPI PUSH2 0x2F0 JUMP JUMPDEST DUP1 PUSH4 0x943F013D EQ PUSH2 0x9FD JUMPI DUP1 PUSH4 0x96805E54 EQ PUSH2 0xA05 JUMPI DUP1 PUSH4 0xA82859C5 EQ PUSH2 0xA3F JUMPI DUP1 PUSH4 0xAC60574E EQ PUSH2 0xA5C JUMPI DUP1 PUSH4 0xB9181611 EQ PUSH2 0xA64 JUMPI DUP1 PUSH4 0xCBD56547 EQ PUSH2 0xA8A JUMPI PUSH2 0x2F0 JUMP JUMPDEST DUP1 PUSH4 0x719BF9F8 GT PUSH2 0x156 JUMPI DUP1 PUSH4 0x82386D58 GT PUSH2 0x130 JUMPI DUP1 PUSH4 0x82386D58 EQ PUSH2 0x941 JUMPI DUP1 PUSH4 0x8DA5CB5B EQ PUSH2 0x973 JUMPI DUP1 PUSH4 0x8DBB1E3A EQ PUSH2 0x97B JUMPI DUP1 PUSH4 0x93F1A40B EQ PUSH2 0x99E JUMPI PUSH2 0x2F0 JUMP JUMPDEST DUP1 PUSH4 0x719BF9F8 EQ PUSH2 0x8DB JUMPI DUP1 PUSH4 0x75D323FE EQ PUSH2 0x8F8 JUMPI DUP1 PUSH4 0x7D3DE840 EQ PUSH2 0x915 JUMPI PUSH2 0x2F0 JUMP JUMPDEST DUP1 PUSH4 0x5AD96153 EQ PUSH2 0x881 JUMPI DUP1 PUSH4 0x5F96DC11 EQ PUSH2 0x889 JUMPI DUP1 PUSH4 0x6066DEBD EQ PUSH2 0x891 JUMPI DUP1 PUSH4 0x61D027B3 EQ PUSH2 0x8C3 JUMPI DUP1 PUSH4 0x6E271DD5 EQ PUSH2 0x8CB JUMPI DUP1 PUSH4 0x715018A6 EQ PUSH2 0x8D3 JUMPI PUSH2 0x2F0 JUMP JUMPDEST DUP1 PUSH4 0x354AFFB7 GT PUSH2 0x25C JUMPI DUP1 PUSH4 0x485D7D94 GT PUSH2 0x215 JUMPI DUP1 PUSH4 0x5312EA8E GT PUSH2 0x1EF JUMPI DUP1 PUSH4 0x5312EA8E EQ PUSH2 0x81E JUMPI DUP1 PUSH4 0x54575AF4 EQ PUSH2 0x83B JUMPI DUP1 PUSH4 0x5603534E EQ PUSH2 0x871 JUMPI DUP1 PUSH4 0x570CA735 EQ PUSH2 0x879 JUMPI PUSH2 0x2F0 JUMP JUMPDEST DUP1 PUSH4 0x485D7D94 EQ PUSH2 0x7D3 JUMPI DUP1 PUSH4 0x4ABBBD28 EQ PUSH2 0x7F9 JUMPI DUP1 PUSH4 0x4C7BC854 EQ PUSH2 0x801 JUMPI PUSH2 0x2F0 JUMP JUMPDEST DUP1 PUSH4 0x354AFFB7 EQ PUSH2 0x611 JUMPI DUP1 PUSH4 0x3C32A450 EQ PUSH2 0x6B2 JUMPI DUP1 PUSH4 0x3CF6259D EQ PUSH2 0x6D6 JUMPI DUP1 PUSH4 0x441A3E70 EQ PUSH2 0x6F3 JUMPI DUP1 PUSH4 0x4456EDA2 EQ PUSH2 0x716 JUMPI DUP1 PUSH4 0x46664064 EQ PUSH2 0x732 JUMPI PUSH2 0x2F0 JUMP JUMPDEST DUP1 PUSH4 0x231F0C6A GT PUSH2 0x2AE JUMPI DUP1 PUSH4 0x231F0C6A EQ PUSH2 0x4D0 JUMPI DUP1 PUSH4 0x23CF6D3E EQ PUSH2 0x4F3 JUMPI DUP1 PUSH4 0x245B211D EQ PUSH2 0x510 JUMPI DUP1 PUSH4 0x27E68928 EQ PUSH2 0x52D JUMPI DUP1 PUSH4 0x29605E77 EQ PUSH2 0x5CE JUMPI DUP1 PUSH4 0x2FDA7735 EQ PUSH2 0x5F4 JUMPI PUSH2 0x2F0 JUMP JUMPDEST DUP1 PUSH3 0x269CB6 EQ PUSH2 0x2F5 JUMPI DUP1 PUSH4 0x85ED718 EQ PUSH2 0x2FF JUMPI DUP1 PUSH4 0x1526FE27 EQ PUSH2 0x422 JUMPI DUP1 PUSH4 0x15F74A4D EQ PUSH2 0x476 JUMPI DUP1 PUSH4 0x17CAF6F1 EQ PUSH2 0x493 JUMPI DUP1 PUSH4 0x1AB06EE5 EQ PUSH2 0x4AD JUMPI JUMPDEST PUSH1 0x0 DUP1 REVERT JUMPDEST PUSH2 0x2FD PUSH2 0xBAE JUMP JUMPDEST STOP JUMPDEST PUSH2 0x2FD PUSH1 0x4 DUP1 CALLDATASIZE SUB PUSH1 0x40 DUP2 LT ISZERO PUSH2 0x315 JUMPI PUSH1 0x0 DUP1 REVERT JUMPDEST DUP2 ADD SWAP1 PUSH1 0x20 DUP2 ADD DUP2 CALLDATALOAD PUSH1 0x1 PUSH1 0x20 SHL DUP2 GT ISZERO PUSH2 0x32F JUMPI PUSH1 0x0 DUP1 REVERT JUMPDEST DUP3 ADD DUP4 PUSH1 0x20 DUP3 ADD GT ISZERO PUSH2 0x341 JUMPI PUSH1 0x0 DUP1 REVERT JUMPDEST DUP1 CALLDATALOAD SWAP1 PUSH1 0x20 ADD SWAP2 DUP5 PUSH1 0x20 DUP4 MUL DUP5 ADD GT PUSH1 0x1 PUSH1 0x20 SHL DUP4 GT OR ISZERO PUSH2 0x362 JUMPI PUSH1 0x0 DUP1 REVERT JUMPDEST SWAP2 SWAP1 DUP1 DUP1 PUSH1 0x20 MUL PUSH1 0x20 ADD PUSH1 0x40 MLOAD SWAP1 DUP2 ADD PUSH1 0x40 MSTORE DUP1 SWAP4 SWAP3 SWAP2 SWAP1 DUP2 DUP2 MSTORE PUSH1 0x20 ADD DUP4 DUP4 PUSH1 0x20 MUL DUP1 DUP3 DUP5 CALLDATACOPY PUSH1 0x0 SWAP3 ADD SWAP2 SWAP1 SWAP2 MSTORE POP SWAP3 SWAP6 SWAP5 SWAP4 PUSH1 0x20 DUP2 ADD SWAP4 POP CALLDATALOAD SWAP2 POP POP PUSH1 0x1 PUSH1 0x20 SHL DUP2 GT ISZERO PUSH2 0x3B1 JUMPI PUSH1 0x0 DUP1 REVERT JUMPDEST DUP3 ADD DUP4 PUSH1 0x20 DUP3 ADD GT ISZERO PUSH2 0x3C3 JUMPI PUSH1 0x0 DUP1 REVERT JUMPDEST DUP1 CALLDATALOAD SWAP1 PUSH1 0x20 ADD SWAP2 DUP5 PUSH1 0x20 DUP4 MUL DUP5 ADD GT PUSH1 0x1 PUSH1 0x20 SHL DUP4 GT OR ISZERO PUSH2 0x3E4 JUMPI PUSH1 0x0 DUP1 REVERT JUMPDEST SWAP2 SWAP1 DUP1 DUP1 PUSH1 0x20 MUL PUSH1 0x20 ADD PUSH1 0x40 MLOAD SWAP1 DUP2 ADD PUSH1 0x40 MSTORE DUP1 SWAP4 SWAP3 SWAP2 SWAP1 DUP2 DUP2 MSTORE PUSH1 0x20 ADD DUP4 DUP4 PUSH1 0x20 MUL DUP1 DUP3 DUP5 CALLDATACOPY PUSH1 0x0 SWAP3 ADD SWAP2 SWAP1 SWAP2 MSTORE POP SWAP3 SWAP6 POP PUSH2 0xC3E SWAP5 POP POP POP POP POP JUMP JUMPDEST PUSH2 0x43F PUSH1 0x4 DUP1 CALLDATASIZE SUB PUSH1 0x20 DUP2 LT ISZERO PUSH2 0x438 JUMPI PUSH1 0x0 DUP1 REVERT JUMPDEST POP CALLDATALOAD PUSH2 0xDE1 JUMP JUMPDEST PUSH1 0x40 DUP1 MLOAD PUSH1 0x1 PUSH1 0x1 PUSH1 0xA0 SHL SUB SWAP1 SWAP7 AND DUP7 MSTORE PUSH1 0x20 DUP7 ADD SWAP5 SWAP1 SWAP5 MSTORE DUP5 DUP5 ADD SWAP3 SWAP1 SWAP3 MSTORE PUSH1 0x60 DUP5 ADD MSTORE ISZERO ISZERO PUSH1 0x80 DUP4 ADD MSTORE MLOAD SWAP1 DUP2 SWAP1 SUB PUSH1 0xA0 ADD SWAP1 RETURN JUMPDEST PUSH2 0x2FD PUSH1 0x4 DUP1 CALLDATASIZE SUB PUSH1 0x20 DUP2 LT ISZERO PUSH2 0x48C JUMPI PUSH1 0x0 DUP1 REVERT JUMPDEST POP CALLDATALOAD PUSH2 0xE2C JUMP JUMPDEST PUSH2 0x49B PUSH2 0xF5B JUMP JUMPDEST PUSH1 0x40 DUP1 MLOAD SWAP2 DUP3 MSTORE MLOAD SWAP1 DUP2 SWAP1 SUB PUSH1 0x20 ADD SWAP1 RETURN JUMPDEST PUSH2 0x2FD PUSH1 0x4 DUP1 CALLDATASIZE SUB PUSH1 0x40 DUP2 LT ISZERO PUSH2 0x4C3 JUMPI PUSH1 0x0 DUP1 REVERT JUMPDEST POP DUP1 CALLDATALOAD SWAP1 PUSH1 0x20 ADD CALLDATALOAD PUSH2 0xF61 JUMP JUMPDEST PUSH2 0x49B PUSH1 0x4 DUP1 CALLDATASIZE SUB PUSH1 0x40 DUP2 LT ISZERO PUSH2 0x4E6 JUMPI PUSH1 0x0 DUP1 REVERT JUMPDEST POP DUP1 CALLDATALOAD SWAP1 PUSH1 0x20 ADD CALLDATALOAD PUSH2 0x100F JUMP JUMPDEST PUSH2 0x49B PUSH1 0x4 DUP1 CALLDATASIZE SUB PUSH1 0x20 DUP2 LT ISZERO PUSH2 0x509 JUMPI PUSH1 0x0 DUP1 REVERT JUMPDEST POP CALLDATALOAD PUSH2 0x10B8 JUMP JUMPDEST PUSH2 0x2FD PUSH1 0x4 DUP1 CALLDATASIZE SUB PUSH1 0x20 DUP2 LT ISZERO PUSH2 0x526 JUMPI PUSH1 0x0 DUP1 REVERT JUMPDEST POP CALLDATALOAD PUSH2 0x10D6 JUMP JUMPDEST PUSH2 0x2FD PUSH1 0x4 DUP1 CALLDATASIZE SUB PUSH1 0x20 DUP2 LT ISZERO PUSH2 0x543 JUMPI PUSH1 0x0 DUP1 REVERT JUMPDEST DUP2 ADD SWAP1 PUSH1 0x20 DUP2 ADD DUP2 CALLDATALOAD PUSH1 0x1 PUSH1 0x20 SHL DUP2 GT ISZERO PUSH2 0x55D JUMPI PUSH1 0x0 DUP1 REVERT JUMPDEST DUP3 ADD DUP4 PUSH1 0x20 DUP3 ADD GT ISZERO PUSH2 0x56F JUMPI PUSH1 0x0 DUP1 REVERT JUMPDEST DUP1 CALLDATALOAD SWAP1 PUSH1 0x20 ADD SWAP2 DUP5 PUSH1 0x20 DUP4 MUL DUP5 ADD GT PUSH1 0x1 PUSH1 0x20 SHL DUP4 GT OR ISZERO PUSH2 0x590 JUMPI PUSH1 0x0 DUP1 REVERT JUMPDEST SWAP2 SWAP1 DUP1 DUP1 PUSH1 0x20 MUL PUSH1 0x20 ADD PUSH1 0x40 MLOAD SWAP1 DUP2 ADD PUSH1 0x40 MSTORE DUP1 SWAP4 SWAP3 SWAP2 SWAP1 DUP2 DUP2 MSTORE PUSH1 0x20 ADD DUP4 DUP4 PUSH1 0x20 MUL DUP1 DUP3 DUP5 CALLDATACOPY PUSH1 0x0 SWAP3 ADD SWAP2 SWAP1 SWAP2 MSTORE POP SWAP3 SWAP6 POP PUSH2 0x1161 SWAP5 POP POP POP POP POP JUMP JUMPDEST PUSH2 0x2FD PUSH1 0x4 DUP1 CALLDATASIZE SUB PUSH1 0x20 DUP2 LT ISZERO PUSH2 0x5E4 JUMPI PUSH1 0x0 DUP1 REVERT JUMPDEST POP CALLDATALOAD PUSH1 0x1 PUSH1 0x1 PUSH1 0xA0 SHL SUB AND PUSH2 0x11FE JUMP JUMPDEST PUSH2 0x49B PUSH1 0x4 DUP1 CALLDATASIZE SUB PUSH1 0x20 DUP2 LT ISZERO PUSH2 0x60A JUMPI PUSH1 0x0 DUP1 REVERT JUMPDEST POP CALLDATALOAD PUSH2 0x1253 JUMP JUMPDEST PUSH2 0x2FD PUSH1 0x4 DUP1 CALLDATASIZE SUB PUSH1 0x20 DUP2 LT ISZERO PUSH2 0x627 JUMPI PUSH1 0x0 DUP1 REVERT JUMPDEST DUP2 ADD SWAP1 PUSH1 0x20 DUP2 ADD DUP2 CALLDATALOAD PUSH1 0x1 PUSH1 0x20 SHL DUP2 GT ISZERO PUSH2 0x641 JUMPI PUSH1 0x0 DUP1 REVERT JUMPDEST DUP3 ADD DUP4 PUSH1 0x20 DUP3 ADD GT ISZERO PUSH2 0x653 JUMPI PUSH1 0x0 DUP1 REVERT JUMPDEST DUP1 CALLDATALOAD SWAP1 PUSH1 0x20 ADD SWAP2 DUP5 PUSH1 0x20 DUP4 MUL DUP5 ADD GT PUSH1 0x1 PUSH1 0x20 SHL DUP4 GT OR ISZERO PUSH2 0x674 JUMPI PUSH1 0x0 DUP1 REVERT JUMPDEST SWAP2 SWAP1 DUP1 DUP1 PUSH1 0x20 MUL PUSH1 0x20 ADD PUSH1 0x40 MLOAD SWAP1 DUP2 ADD PUSH1 0x40 MSTORE DUP1 SWAP4 SWAP3 SWAP2 SWAP1 DUP2 DUP2 MSTORE PUSH1 0x20 ADD DUP4 DUP4 PUSH1 0x20 MUL DUP1 DUP3 DUP5 CALLDATACOPY PUSH1 0x0 SWAP3 ADD SWAP2 SWAP1 SWAP2 MSTORE POP SWAP3 SWAP6 POP PUSH2 0x1260 SWAP5 POP POP POP POP POP JUMP JUMPDEST PUSH2 0x6BA PUSH2 0x12F9 JUMP JUMPDEST PUSH1 0x40 DUP1 MLOAD PUSH1 0x1 PUSH1 0x1 PUSH1 0xA0 SHL SUB SWAP1 SWAP3 AND DUP3 MSTORE MLOAD SWAP1 DUP2 SWAP1 SUB PUSH1 0x20 ADD SWAP1 RETURN JUMPDEST PUSH2 0x2FD PUSH1 0x4 DUP1 CALLDATASIZE SUB PUSH1 0x20 DUP2 LT ISZERO PUSH2 0x6EC JUMPI PUSH1 0x0 DUP1 REVERT JUMPDEST POP CALLDATALOAD PUSH2 0x1308 JUMP JUMPDEST PUSH2 0x2FD PUSH1 0x4 DUP1 CALLDATASIZE SUB PUSH1 0x40 DUP2 LT ISZERO PUSH2 0x709 JUMPI PUSH1 0x0 DUP1 REVERT JUMPDEST POP DUP1 CALLDATALOAD SWAP1 PUSH1 0x20 ADD CALLDATALOAD PUSH2 0x1397 JUMP JUMPDEST PUSH2 0x71E PUSH2 0x182D JUMP JUMPDEST PUSH1 0x40 DUP1 MLOAD SWAP2 ISZERO ISZERO DUP3 MSTORE MLOAD SWAP1 DUP2 SWAP1 SUB PUSH1 0x20 ADD SWAP1 RETURN JUMPDEST PUSH2 0x2FD PUSH1 0x4 DUP1 CALLDATASIZE SUB PUSH1 0x20 DUP2 LT ISZERO PUSH2 0x748 JUMPI PUSH1 0x0 DUP1 REVERT JUMPDEST DUP2 ADD SWAP1 PUSH1 0x20 DUP2 ADD DUP2 CALLDATALOAD PUSH1 0x1 PUSH1 0x20 SHL DUP2 GT ISZERO PUSH2 0x762 JUMPI PUSH1 0x0 DUP1 REVERT JUMPDEST DUP3 ADD DUP4 PUSH1 0x20 DUP3 ADD GT ISZERO PUSH2 0x774 JUMPI PUSH1 0x0 DUP1 REVERT JUMPDEST DUP1 CALLDATALOAD SWAP1 PUSH1 0x20 ADD SWAP2 DUP5 PUSH1 0x20 DUP4 MUL DUP5 ADD GT PUSH1 0x1 PUSH1 0x20 SHL DUP4 GT OR ISZERO PUSH2 0x795 JUMPI PUSH1 0x0 DUP1 REVERT JUMPDEST SWAP2 SWAP1 DUP1 DUP1 PUSH1 0x20 MUL PUSH1 0x20 ADD PUSH1 0x40 MLOAD SWAP1 DUP2 ADD PUSH1 0x40 MSTORE DUP1 SWAP4 SWAP3 SWAP2 SWAP1 DUP2 DUP2 MSTORE PUSH1 0x20 ADD DUP4 DUP4 PUSH1 0x20 MUL DUP1 DUP3 DUP5 CALLDATACOPY PUSH1 0x0 SWAP3 ADD SWAP2 SWAP1 SWAP2 MSTORE POP SWAP3 SWAP6 POP PUSH2 0x1853 SWAP5 POP POP POP POP POP JUMP JUMPDEST PUSH2 0x2FD PUSH1 0x4 DUP1 CALLDATASIZE SUB PUSH1 0x20 DUP2 LT ISZERO PUSH2 0x7E9 JUMPI PUSH1 0x0 DUP1 REVERT JUMPDEST POP CALLDATALOAD PUSH1 0x1 PUSH1 0x1 PUSH1 0xA0 SHL SUB AND PUSH2 0x18EC JUMP JUMPDEST PUSH2 0x49B PUSH2 0x1985 JUMP JUMPDEST PUSH2 0x49B PUSH1 0x4 DUP1 CALLDATASIZE SUB PUSH1 0x20 DUP2 LT ISZERO PUSH2 0x817 JUMPI PUSH1 0x0 DUP1 REVERT JUMPDEST POP CALLDATALOAD PUSH2 0x198B JUMP JUMPDEST PUSH2 0x2FD PUSH1 0x4 DUP1 CALLDATASIZE SUB PUSH1 0x20 DUP2 LT ISZERO PUSH2 0x834 JUMPI PUSH1 0x0 DUP1 REVERT JUMPDEST POP CALLDATALOAD PUSH2 0x19D6 JUMP JUMPDEST PUSH2 0x2FD PUSH1 0x4 DUP1 CALLDATASIZE SUB PUSH1 0x60 DUP2 LT ISZERO PUSH2 0x851 JUMPI PUSH1 0x0 DUP1 REVERT JUMPDEST POP PUSH1 0x1 PUSH1 0x1 PUSH1 0xA0 SHL SUB DUP2 CALLDATALOAD DUP2 AND SWAP2 PUSH1 0x20 DUP2 ADD CALLDATALOAD SWAP2 PUSH1 0x40 SWAP1 SWAP2 ADD CALLDATALOAD AND PUSH2 0x1BE1 JUMP JUMPDEST PUSH2 0x49B PUSH2 0x1D66 JUMP JUMPDEST PUSH2 0x6BA PUSH2 0x1D6C JUMP JUMPDEST PUSH2 0x49B PUSH2 0x1D7B JUMP JUMPDEST PUSH2 0x49B PUSH2 0x1D81 JUMP JUMPDEST PUSH2 0x2FD PUSH1 0x4 DUP1 CALLDATASIZE SUB PUSH1 0x60 DUP2 LT ISZERO PUSH2 0x8A7 JUMPI PUSH1 0x0 DUP1 REVERT JUMPDEST POP DUP1 CALLDATALOAD SWAP1 PUSH1 0x1 PUSH1 0x1 PUSH1 0xA0 SHL SUB PUSH1 0x20 DUP3 ADD CALLDATALOAD AND SWAP1 PUSH1 0x40 ADD CALLDATALOAD PUSH2 0x1D87 JUMP JUMPDEST PUSH2 0x6BA PUSH2 0x1E36 JUMP JUMPDEST PUSH2 0x49B PUSH2 0x1E45 JUMP JUMPDEST PUSH2 0x2FD PUSH2 0x1E4B JUMP JUMPDEST PUSH2 0x2FD PUSH1 0x4 DUP1 CALLDATASIZE SUB PUSH1 0x20 DUP2 LT ISZERO PUSH2 0x8F1 JUMPI PUSH1 0x0 DUP1 REVERT JUMPDEST POP CALLDATALOAD PUSH2 0x1EF7 JUMP JUMPDEST PUSH2 0x2FD PUSH1 0x4 DUP1 CALLDATASIZE SUB PUSH1 0x20 DUP2 LT ISZERO PUSH2 0x90E JUMPI PUSH1 0x0 DUP1 REVERT JUMPDEST POP CALLDATALOAD PUSH2 0x1FD8 JUMP JUMPDEST PUSH2 0x49B PUSH1 0x4 DUP1 CALLDATASIZE SUB PUSH1 0x40 DUP2 LT ISZERO PUSH2 0x92B JUMPI PUSH1 0x0 DUP1 REVERT JUMPDEST POP DUP1 CALLDATALOAD SWAP1 PUSH1 0x20 ADD CALLDATALOAD PUSH1 0x1 PUSH1 0x1 PUSH1 0xA0 SHL SUB AND PUSH2 0x20FB JUMP JUMPDEST PUSH2 0x2FD PUSH1 0x4 DUP1 CALLDATASIZE SUB PUSH1 0x60 DUP2 LT ISZERO PUSH2 0x957 JUMPI PUSH1 0x0 DUP1 REVERT JUMPDEST POP DUP1 CALLDATALOAD SWAP1 PUSH1 0x1 PUSH1 0x1 PUSH1 0xA0 SHL SUB PUSH1 0x20 DUP3 ADD CALLDATALOAD AND SWAP1 PUSH1 0x40 ADD CALLDATALOAD PUSH2 0x2155 JUMP JUMPDEST PUSH2 0x6BA PUSH2 0x2204 JUMP JUMPDEST PUSH2 0x49B PUSH1 0x4 DUP1 CALLDATASIZE SUB PUSH1 0x40 DUP2 LT ISZERO PUSH2 0x991 JUMPI PUSH1 0x0 DUP1 REVERT JUMPDEST POP DUP1 CALLDATALOAD SWAP1 PUSH1 0x20 ADD CALLDATALOAD PUSH2 0x2213 JUMP JUMPDEST PUSH2 0x9CA PUSH1 0x4 DUP1 CALLDATASIZE SUB PUSH1 0x40 DUP2 LT ISZERO PUSH2 0x9B4 JUMPI PUSH1 0x0 DUP1 REVERT JUMPDEST POP DUP1 CALLDATALOAD SWAP1 PUSH1 0x20 ADD CALLDATALOAD PUSH1 0x1 PUSH1 0x1 PUSH1 0xA0 SHL SUB AND PUSH2 0x230D JUMP JUMPDEST PUSH1 0x40 DUP1 MLOAD SWAP7 DUP8 MSTORE PUSH1 0x20 DUP8 ADD SWAP6 SWAP1 SWAP6 MSTORE DUP6 DUP6 ADD SWAP4 SWAP1 SWAP4 MSTORE PUSH1 0x60 DUP6 ADD SWAP2 SWAP1 SWAP2 MSTORE PUSH1 0x80 DUP5 ADD MSTORE PUSH1 0xA0 DUP4 ADD MSTORE MLOAD SWAP1 DUP2 SWAP1 SUB PUSH1 0xC0 ADD SWAP1 RETURN JUMPDEST PUSH2 0x49B PUSH2 0x234D JUMP JUMPDEST PUSH2 0x2FD PUSH1 0x4 DUP1 CALLDATASIZE SUB PUSH1 0x80 DUP2 LT ISZERO PUSH2 0xA1B JUMPI PUSH1 0x0 DUP1 REVERT JUMPDEST POP DUP1 CALLDATALOAD SWAP1 PUSH1 0x1 PUSH1 0x1 PUSH1 0xA0 SHL SUB PUSH1 0x20 DUP3 ADD CALLDATALOAD AND SWAP1 PUSH1 0x40 DUP2 ADD CALLDATALOAD ISZERO ISZERO SWAP1 PUSH1 0x60 ADD CALLDATALOAD PUSH2 0x2353 JUMP JUMPDEST PUSH2 0x49B PUSH1 0x4 DUP1 CALLDATASIZE SUB PUSH1 0x20 DUP2 LT ISZERO PUSH2 0xA55 JUMPI PUSH1 0x0 DUP1 REVERT JUMPDEST POP CALLDATALOAD PUSH2 0x254F JUMP JUMPDEST PUSH2 0x49B PUSH2 0x255C JUMP JUMPDEST PUSH2 0x71E PUSH1 0x4 DUP1 CALLDATASIZE SUB PUSH1 0x20 DUP2 LT ISZERO PUSH2 0xA7A JUMPI PUSH1 0x0 DUP1 REVERT JUMPDEST POP CALLDATALOAD PUSH1 0x1 PUSH1 0x1 PUSH1 0xA0 SHL SUB AND PUSH2 0x2573 JUMP JUMPDEST PUSH2 0x49B PUSH1 0x4 DUP1 CALLDATASIZE SUB PUSH1 0x40 DUP2 LT ISZERO PUSH2 0xAA0 JUMPI PUSH1 0x0 DUP1 REVERT JUMPDEST POP DUP1 CALLDATALOAD SWAP1 PUSH1 0x20 ADD CALLDATALOAD PUSH1 0x1 PUSH1 0x1 PUSH1 0xA0 SHL SUB AND PUSH2 0x2588 JUMP JUMPDEST PUSH2 0x2FD PUSH1 0x4 DUP1 CALLDATASIZE SUB PUSH1 0x20 DUP2 LT ISZERO PUSH2 0xACC JUMPI PUSH1 0x0 DUP1 REVERT JUMPDEST POP CALLDATALOAD PUSH1 0x1 PUSH1 0x1 PUSH1 0xA0 SHL SUB AND PUSH2 0x2643 JUMP JUMPDEST PUSH2 0x49B PUSH1 0x4 DUP1 CALLDATASIZE SUB PUSH1 0x40 DUP2 LT ISZERO PUSH2 0xAF2 JUMPI PUSH1 0x0 DUP1 REVERT JUMPDEST POP DUP1 CALLDATALOAD SWAP1 PUSH1 0x20 ADD CALLDATALOAD PUSH1 0x1 PUSH1 0x1 PUSH1 0xA0 SHL SUB AND PUSH2 0x26C9 JUMP JUMPDEST PUSH2 0x2FD PUSH1 0x4 DUP1 CALLDATASIZE SUB PUSH1 0x40 DUP2 LT ISZERO PUSH2 0xB1E JUMPI PUSH1 0x0 DUP1 REVERT JUMPDEST POP DUP1 CALLDATALOAD SWAP1 PUSH1 0x20 ADD CALLDATALOAD PUSH2 0x2827 JUMP JUMPDEST PUSH2 0x49B PUSH1 0x4 DUP1 CALLDATASIZE SUB PUSH1 0x20 DUP2 LT ISZERO PUSH2 0xB41 JUMPI PUSH1 0x0 DUP1 REVERT JUMPDEST POP CALLDATALOAD PUSH2 0x2B3A JUMP JUMPDEST PUSH2 0x49B PUSH1 0x4 DUP1 CALLDATASIZE SUB PUSH1 0x20 DUP2 LT ISZERO PUSH2 0xB5E JUMPI PUSH1 0x0 DUP1 REVERT JUMPDEST POP CALLDATALOAD PUSH2 0x2B47 JUMP JUMPDEST PUSH2 0x2FD PUSH1 0x4 DUP1 CALLDATASIZE SUB PUSH1 0x20 DUP2 LT ISZERO PUSH2 0xB7B JUMPI PUSH1 0x0 DUP1 REVERT JUMPDEST POP CALLDATALOAD PUSH1 0x1 PUSH1 0x1 PUSH1 0xA0 SHL SUB AND PUSH2 0x2B54 JUMP JUMPDEST PUSH2 0x49B PUSH1 0x4 DUP1 CALLDATASIZE SUB PUSH1 0x40 DUP2 LT ISZERO PUSH2 0xBA1 JUMPI PUSH1 0x0 DUP1 REVERT JUMPDEST POP DUP1 CALLDATALOAD SWAP1 PUSH1 0x20 ADD CALLDATALOAD PUSH2 0x2C56 JUMP JUMPDEST CALLER PUSH1 0x0 SWAP1 DUP2 MSTORE PUSH1 0x2 PUSH1 0x20 MSTORE PUSH1 0x40 SWAP1 KECCAK256 SLOAD PUSH1 0xFF AND DUP1 PUSH2 0xBDB JUMPI POP CALLER PUSH2 0xBD0 PUSH2 0x2204 JUMP JUMPDEST PUSH1 0x1 PUSH1 0x1 PUSH1 0xA0 SHL SUB AND EQ JUMPDEST DUP1 PUSH2 0xBF5 JUMPI POP CALLER PUSH2 0xBEA PUSH2 0x1D6C JUMP JUMPDEST PUSH1 0x1 PUSH1 0x1 PUSH1 0xA0 SHL SUB AND EQ JUMPDEST PUSH2 0xC34 JUMPI PUSH1 0x40 DUP1 MLOAD PUSH3 0x461BCD PUSH1 0xE5 SHL DUP2 MSTORE PUSH1 0x20 PUSH1 0x4 DUP3 ADD MSTORE PUSH1 0x18 PUSH1 0x24 DUP3 ADD MSTORE PUSH1 0x0 DUP1 MLOAD PUSH1 0x20 PUSH2 0x36A7 DUP4 CODECOPY DUP2 MLOAD SWAP2 MSTORE PUSH1 0x44 DUP3 ADD MSTORE SWAP1 MLOAD SWAP1 DUP2 SWAP1 SUB PUSH1 0x64 ADD SWAP1 REVERT JUMPDEST PUSH2 0xC3C PUSH2 0x2DC6 JUMP JUMPDEST JUMP JUMPDEST CALLER PUSH1 0x0 SWAP1 DUP2 MSTORE PUSH1 0x2 PUSH1 0x20 MSTORE PUSH1 0x40 SWAP1 KECCAK256 SLOAD PUSH1 0xFF AND DUP1 PUSH2 0xC6B JUMPI POP CALLER PUSH2 0xC60 PUSH2 0x2204 JUMP JUMPDEST PUSH1 0x1 PUSH1 0x1 PUSH1 0xA0 SHL SUB AND EQ JUMPDEST DUP1 PUSH2 0xC85 JUMPI POP CALLER PUSH2 0xC7A PUSH2 0x1D6C JUMP JUMPDEST PUSH1 0x1 PUSH1 0x1 PUSH1 0xA0 SHL SUB AND EQ JUMPDEST PUSH2 0xCC4 JUMPI PUSH1 0x40 DUP1 MLOAD PUSH3 0x461BCD PUSH1 0xE5 SHL DUP2 MSTORE PUSH1 0x20 PUSH1 0x4 DUP3 ADD MSTORE PUSH1 0x18 PUSH1 0x24 DUP3 ADD MSTORE PUSH1 0x0 DUP1 MLOAD PUSH1 0x20 PUSH2 0x36A7 DUP4 CODECOPY DUP2 MLOAD SWAP2 MSTORE PUSH1 0x44 DUP3 ADD MSTORE SWAP1 MLOAD SWAP1 DUP2 SWAP1 SUB PUSH1 0x64 ADD SWAP1 REVERT JUMPDEST PUSH1 0x0 DUP3 MLOAD GT DUP1 ISZERO PUSH2 0xCE9 JUMPI POP DUP2 PUSH1 0x0 DUP2 MLOAD DUP2 LT PUSH2 0xCDD JUMPI INVALID JUMPDEST PUSH1 0x20 MUL PUSH1 0x20 ADD ADD MLOAD PUSH1 0x0 EQ JUMPDEST DUP1 ISZERO PUSH2 0xCF6 JUMPI POP DUP2 MLOAD DUP2 MLOAD EQ JUMPDEST PUSH2 0xD31 JUMPI PUSH1 0x40 MLOAD PUSH3 0x461BCD PUSH1 0xE5 SHL DUP2 MSTORE PUSH1 0x4 ADD DUP1 DUP1 PUSH1 0x20 ADD DUP3 DUP2 SUB DUP3 MSTORE PUSH1 0x4D DUP2 MSTORE PUSH1 0x20 ADD DUP1 PUSH2 0x35EC PUSH1 0x4D SWAP2 CODECOPY PUSH1 0x60 ADD SWAP2 POP POP PUSH1 0x40 MLOAD DUP1 SWAP2 SUB SWAP1 REVERT JUMPDEST DUP2 MLOAD PUSH2 0xD44 SWAP1 PUSH1 0xF SWAP1 PUSH1 0x20 DUP6 ADD SWAP1 PUSH2 0x3565 JUMP JUMPDEST POP DUP1 MLOAD PUSH1 0x0 SWAP1 JUMPDEST DUP1 DUP3 LT ISZERO PUSH2 0xDC7 JUMPI PUSH2 0x320 DUP4 DUP4 DUP2 MLOAD DUP2 LT PUSH2 0xD62 JUMPI INVALID JUMPDEST PUSH1 0x20 MUL PUSH1 0x20 ADD ADD MLOAD LT PUSH2 0xDBC JUMPI PUSH1 0x40 DUP1 MLOAD PUSH3 0x461BCD PUSH1 0xE5 SHL DUP2 MSTORE PUSH1 0x20 PUSH1 0x4 DUP3 ADD MSTORE PUSH1 0x1C PUSH1 0x24 DUP3 ADD MSTORE PUSH32 0x4665652063616E277420626520686967686572207468616E2038252E00000000 PUSH1 0x44 DUP3 ADD MSTORE SWAP1 MLOAD SWAP1 DUP2 SWAP1 SUB PUSH1 0x64 ADD SWAP1 REVERT JUMPDEST PUSH1 0x1 DUP3 ADD SWAP2 POP PUSH2 0xD4B JUMP JUMPDEST DUP3 MLOAD PUSH2 0xDDA SWAP1 PUSH1 0xE SWAP1 PUSH1 0x20 DUP7 ADD SWAP1 PUSH2 0x3565 JUMP JUMPDEST POP POP POP POP POP JUMP JUMPDEST PUSH1 0x6 DUP2 DUP2 SLOAD DUP2 LT PUSH2 0xDEE JUMPI INVALID JUMPDEST PUSH1 0x0 SWAP2 DUP3 MSTORE PUSH1 0x20 SWAP1 SWAP2 KECCAK256 PUSH1 0x5 SWAP1 SWAP2 MUL ADD DUP1 SLOAD PUSH1 0x1 DUP3 ADD SLOAD PUSH1 0x2 DUP4 ADD SLOAD PUSH1 0x3 DUP5 ADD SLOAD PUSH1 0x4 SWAP1 SWAP5 ADD SLOAD PUSH1 0x1 PUSH1 0x1 PUSH1 0xA0 SHL SUB SWAP1 SWAP4 AND SWAP5 POP SWAP1 SWAP3 SWAP1 SWAP2 PUSH1 0xFF AND DUP6 JUMP JUMPDEST CALLER PUSH1 0x0 SWAP1 DUP2 MSTORE PUSH1 0x2 PUSH1 0x20 MSTORE PUSH1 0x40 SWAP1 KECCAK256 SLOAD PUSH1 0xFF AND DUP1 PUSH2 0xE59 JUMPI POP CALLER PUSH2 0xE4E PUSH2 0x2204 JUMP JUMPDEST PUSH1 0x1 PUSH1 0x1 PUSH1 0xA0 SHL SUB AND EQ JUMPDEST DUP1 PUSH2 0xE73 JUMPI POP CALLER PUSH2 0xE68 PUSH2 0x1D6C JUMP JUMPDEST PUSH1 0x1 PUSH1 0x1 PUSH1 0xA0 SHL SUB AND EQ JUMPDEST PUSH2 0xEB2 JUMPI PUSH1 0x40 DUP1 MLOAD PUSH3 0x461BCD PUSH1 0xE5 SHL DUP2 MSTORE PUSH1 0x20 PUSH1 0x4 DUP3 ADD MSTORE PUSH1 0x18 PUSH1 0x24 DUP3 ADD MSTORE PUSH1 0x0 DUP1 MLOAD PUSH1 0x20 PUSH2 0x36A7 DUP4 CODECOPY DUP2 MLOAD SWAP2 MSTORE PUSH1 0x44 DUP3 ADD MSTORE SWAP1 MLOAD SWAP1 DUP2 SWAP1 SUB PUSH1 0x64 ADD SWAP1 REVERT JUMPDEST PUSH1 0x9 SLOAD TIMESTAMP LT PUSH2 0xEFB JUMPI PUSH1 0x40 DUP1 MLOAD PUSH3 0x461BCD PUSH1 0xE5 SHL DUP2 MSTORE PUSH1 0x20 PUSH1 0x4 DUP3 ADD MSTORE PUSH1 0x10 PUSH1 0x24 DUP3 ADD MSTORE PUSH16 0x20B63932B0B23C9039BA30B93A32B217 PUSH1 0x81 SHL PUSH1 0x44 DUP3 ADD MSTORE SWAP1 MLOAD SWAP1 DUP2 SWAP1 SUB PUSH1 0x64 ADD SWAP1 REVERT JUMPDEST DUP1 PUSH1 0x9 SLOAD LT PUSH2 0xF4C JUMPI PUSH1 0x40 DUP1 MLOAD PUSH3 0x461BCD PUSH1 0xE5 SHL DUP2 MSTORE PUSH1 0x20 PUSH1 0x4 DUP3 ADD MSTORE PUSH1 0x18 PUSH1 0x24 DUP3 ADD MSTORE PUSH24 0x2A34B6B29034B7383ABA1034B9903A37B79032B0B9363C97 PUSH1 0x41 SHL PUSH1 0x44 DUP3 ADD MSTORE SWAP1 MLOAD SWAP1 DUP2 SWAP1 SUB PUSH1 0x64 ADD SWAP1 REVERT JUMPDEST PUSH1 0xA DUP2 SWAP1 SSTORE PUSH1 0x9 SLOAD SWAP1 SUB PUSH1 0xC SSTORE JUMP JUMPDEST PUSH1 0x8 SLOAD DUP2 JUMP JUMPDEST PUSH1 0x1 SLOAD PUSH1 0x1 PUSH1 0x1 PUSH1 0xA0 SHL SUB AND CALLER EQ PUSH2 0xFAA JUMPI PUSH1 0x40 MLOAD PUSH3 0x461BCD PUSH1 0xE5 SHL DUP2 MSTORE PUSH1 0x4 ADD DUP1 DUP1 PUSH1 0x20 ADD DUP3 DUP2 SUB DUP3 MSTORE PUSH1 0x24 DUP2 MSTORE PUSH1 0x20 ADD DUP1 PUSH2 0x36C7 PUSH1 0x24 SWAP2 CODECOPY PUSH1 0x40 ADD SWAP2 POP POP PUSH1 0x40 MLOAD DUP1 SWAP2 SUB SWAP1 REVERT JUMPDEST PUSH2 0xFB2 PUSH2 0x2DC6 JUMP JUMPDEST PUSH1 0x0 PUSH1 0x6 DUP4 DUP2 SLOAD DUP2 LT PUSH2 0xFC1 JUMPI INVALID JUMPDEST PUSH1 0x0 SWAP2 DUP3 MSTORE PUSH1 0x20 SWAP1 SWAP2 KECCAK256 PUSH1 0x5 SWAP1 SWAP2 MUL ADD PUSH1 0x4 DUP2 ADD SLOAD SWAP1 SWAP2 POP PUSH1 0xFF AND ISZERO PUSH2 0x1008 JUMPI PUSH2 0x1004 DUP3 PUSH2 0xFFE DUP4 PUSH1 0x1 ADD SLOAD PUSH1 0x8 SLOAD PUSH2 0x2DE5 SWAP1 SWAP2 SWAP1 PUSH4 0xFFFFFFFF AND JUMP JUMPDEST SWAP1 PUSH2 0x2D6C JUMP JUMPDEST PUSH1 0x8 SSTORE JUMPDEST PUSH1 0x1 ADD SSTORE POP JUMP JUMPDEST PUSH1 0x0 DUP2 DUP4 LT PUSH2 0x1020 JUMPI POP PUSH1 0x0 PUSH2 0x10B2 JUMP JUMPDEST PUSH1 0xA SLOAD DUP3 LT PUSH2 0x1076 JUMPI PUSH1 0xA SLOAD DUP4 LT PUSH2 0x103A JUMPI POP PUSH1 0x0 PUSH2 0x10B2 JUMP JUMPDEST PUSH1 0x9 SLOAD DUP4 GT PUSH2 0x1064 JUMPI PUSH2 0x105D PUSH1 0xB SLOAD PUSH2 0x1057 PUSH1 0x9 SLOAD PUSH1 0xA SLOAD PUSH2 0x2213 JUMP JUMPDEST SWAP1 PUSH2 0x2D0C JUMP JUMPDEST SWAP1 POP PUSH2 0x10B2 JUMP JUMPDEST PUSH2 0x105D PUSH1 0xB SLOAD PUSH2 0x1057 DUP6 PUSH1 0xA SLOAD PUSH2 0x2213 JUMP JUMPDEST PUSH1 0x9 SLOAD DUP3 GT PUSH2 0x1087 JUMPI POP PUSH1 0x0 PUSH2 0x10B2 JUMP JUMPDEST PUSH1 0x9 SLOAD DUP4 GT PUSH2 0x10A2 JUMPI PUSH2 0x105D PUSH1 0xB SLOAD PUSH2 0x1057 PUSH1 0x9 SLOAD DUP6 PUSH2 0x2213 JUMP JUMPDEST PUSH2 0x105D PUSH1 0xB SLOAD PUSH2 0x1057 DUP6 DUP6 PUSH2 0x2213 JUMP JUMPDEST SWAP3 SWAP2 POP POP JUMP JUMPDEST PUSH1 0xF DUP2 DUP2 SLOAD DUP2 LT PUSH2 0x10C5 JUMPI INVALID JUMPDEST PUSH1 0x0 SWAP2 DUP3 MSTORE PUSH1 0x20 SWAP1 SWAP2 KECCAK256 ADD SLOAD SWAP1 POP DUP2 JUMP JUMPDEST CALLER PUSH1 0x0 SWAP1 DUP2 MSTORE PUSH1 0x2 PUSH1 0x20 MSTORE PUSH1 0x40 SWAP1 KECCAK256 SLOAD PUSH1 0xFF AND DUP1 PUSH2 0x1103 JUMPI POP CALLER PUSH2 0x10F8 PUSH2 0x2204 JUMP JUMPDEST PUSH1 0x1 PUSH1 0x1 PUSH1 0xA0 SHL SUB AND EQ JUMPDEST DUP1 PUSH2 0x111D JUMPI POP CALLER PUSH2 0x1112 PUSH2 0x1D6C JUMP JUMPDEST PUSH1 0x1 PUSH1 0x1 PUSH1 0xA0 SHL SUB AND EQ JUMPDEST PUSH2 0x115C JUMPI PUSH1 0x40 DUP1 MLOAD PUSH3 0x461BCD PUSH1 0xE5 SHL DUP2 MSTORE PUSH1 0x20 PUSH1 0x4 DUP3 ADD MSTORE PUSH1 0x18 PUSH1 0x24 DUP3 ADD MSTORE PUSH1 0x0 DUP1 MLOAD PUSH1 0x20 PUSH2 0x36A7 DUP4 CODECOPY DUP2 MLOAD SWAP2 MSTORE PUSH1 0x44 DUP3 ADD MSTORE SWAP1 MLOAD SWAP1 DUP2 SWAP1 SUB PUSH1 0x64 ADD SWAP1 REVERT JUMPDEST PUSH1 0x12 SSTORE JUMP JUMPDEST CALLER PUSH1 0x0 SWAP1 DUP2 MSTORE PUSH1 0x2 PUSH1 0x20 MSTORE PUSH1 0x40 SWAP1 KECCAK256 SLOAD PUSH1 0xFF AND DUP1 PUSH2 0x118E JUMPI POP CALLER PUSH2 0x1183 PUSH2 0x2204 JUMP JUMPDEST PUSH1 0x1 PUSH1 0x1 PUSH1 0xA0 SHL SUB AND EQ JUMPDEST DUP1 PUSH2 0x11A8 JUMPI POP CALLER PUSH2 0x119D PUSH2 0x1D6C JUMP JUMPDEST PUSH1 0x1 PUSH1 0x1 PUSH1 0xA0 SHL SUB AND EQ JUMPDEST PUSH2 0x11E7 JUMPI PUSH1 0x40 DUP1 MLOAD PUSH3 0x461BCD PUSH1 0xE5 SHL DUP2 MSTORE PUSH1 0x20 PUSH1 0x4 DUP3 ADD MSTORE PUSH1 0x18 PUSH1 0x24 DUP3 ADD MSTORE PUSH1 0x0 DUP1 MLOAD PUSH1 0x20 PUSH2 0x36A7 DUP4 CODECOPY DUP2 MLOAD SWAP2 MSTORE PUSH1 0x44 DUP3 ADD MSTORE SWAP1 MLOAD SWAP1 DUP2 SWAP1 SUB PUSH1 0x64 ADD SWAP1 REVERT JUMPDEST DUP1 MLOAD PUSH2 0x11FA SWAP1 PUSH1 0x13 SWAP1 PUSH1 0x20 DUP5 ADD SWAP1 PUSH2 0x3565 JUMP JUMPDEST POP POP JUMP JUMPDEST PUSH1 0x1 SLOAD PUSH1 0x1 PUSH1 0x1 PUSH1 0xA0 SHL SUB AND CALLER EQ PUSH2 0x1247 JUMPI PUSH1 0x40 MLOAD PUSH3 0x461BCD PUSH1 0xE5 SHL DUP2 MSTORE PUSH1 0x4 ADD DUP1 DUP1 PUSH1 0x20 ADD DUP3 DUP2 SUB DUP3 MSTORE PUSH1 0x24 DUP2 MSTORE PUSH1 0x20 ADD DUP1 PUSH2 0x36C7 PUSH1 0x24 SWAP2 CODECOPY PUSH1 0x40 ADD SWAP2 POP POP PUSH1 0x40 MLOAD DUP1 SWAP2 SUB SWAP1 REVERT JUMPDEST PUSH2 0x1250 DUP2 PUSH2 0x2E42 JUMP JUMPDEST POP JUMP JUMPDEST PUSH1 0x10 DUP2 DUP2 SLOAD DUP2 LT PUSH2 0x10C5 JUMPI INVALID JUMPDEST CALLER PUSH1 0x0 SWAP1 DUP2 MSTORE PUSH1 0x2 PUSH1 0x20 MSTORE PUSH1 0x40 SWAP1 KECCAK256 SLOAD PUSH1 0xFF AND DUP1 PUSH2 0x128D JUMPI POP CALLER PUSH2 0x1282 PUSH2 0x2204 JUMP JUMPDEST PUSH1 0x1 PUSH1 0x1 PUSH1 0xA0 SHL SUB AND EQ JUMPDEST DUP1 PUSH2 0x12A7 JUMPI POP CALLER PUSH2 0x129C PUSH2 0x1D6C JUMP JUMPDEST PUSH1 0x1 PUSH1 0x1 PUSH1 0xA0 SHL SUB AND EQ JUMPDEST PUSH2 0x12E6 JUMPI PUSH1 0x40 DUP1 MLOAD PUSH3 0x461BCD PUSH1 0xE5 SHL DUP2 MSTORE PUSH1 0x20 PUSH1 0x4 DUP3 ADD MSTORE PUSH1 0x18 PUSH1 0x24 DUP3 ADD MSTORE PUSH1 0x0 DUP1 MLOAD PUSH1 0x20 PUSH2 0x36A7 DUP4 CODECOPY DUP2 MLOAD SWAP2 MSTORE PUSH1 0x44 DUP3 ADD MSTORE SWAP1 MLOAD SWAP1 DUP2 SWAP1 SUB PUSH1 0x64 ADD SWAP1 REVERT JUMPDEST DUP1 MLOAD PUSH2 0x11FA SWAP1 PUSH1 0x11 SWAP1 PUSH1 0x20 DUP5 ADD SWAP1 PUSH2 0x3565 JUMP JUMPDEST PUSH1 0x4 SLOAD PUSH1 0x1 PUSH1 0x1 PUSH1 0xA0 SHL SUB AND DUP2 JUMP JUMPDEST CALLER PUSH1 0x0 SWAP1 DUP2 MSTORE PUSH1 0x2 PUSH1 0x20 MSTORE PUSH1 0x40 SWAP1 KECCAK256 SLOAD PUSH1 0xFF AND DUP1 PUSH2 0x1335 JUMPI POP CALLER PUSH2 0x132A PUSH2 0x2204 JUMP JUMPDEST PUSH1 0x1 PUSH1 0x1 PUSH1 0xA0 SHL SUB AND EQ JUMPDEST DUP1 PUSH2 0x134F JUMPI POP CALLER PUSH2 0x1344 PUSH2 0x1D6C JUMP JUMPDEST PUSH1 0x1 PUSH1 0x1 PUSH1 0xA0 SHL SUB AND EQ JUMPDEST PUSH2 0x138E JUMPI PUSH1 0x40 DUP1 MLOAD PUSH3 0x461BCD PUSH1 0xE5 SHL DUP2 MSTORE PUSH1 0x20 PUSH1 0x4 DUP3 ADD MSTORE PUSH1 0x18 PUSH1 0x24 DUP3 ADD MSTORE PUSH1 0x0 DUP1 MLOAD PUSH1 0x20 PUSH2 0x36A7 DUP4 CODECOPY DUP2 MLOAD SWAP2 MSTORE PUSH1 0x44 DUP3 ADD MSTORE SWAP1 MLOAD SWAP1 DUP2 SWAP1 SUB PUSH1 0x64 ADD SWAP1 REVERT JUMPDEST PUSH2 0x1250 DUP2 PUSH2 0x2EDF JUMP JUMPDEST PUSH2 0x139F PUSH2 0x303C JUMP JUMPDEST ISZERO PUSH2 0x13DB JUMPI PUSH1 0x40 MLOAD PUSH3 0x461BCD PUSH1 0xE5 SHL DUP2 MSTORE PUSH1 0x4 ADD DUP1 DUP1 PUSH1 0x20 ADD DUP3 DUP2 SUB DUP3 MSTORE PUSH1 0x26 DUP2 MSTORE PUSH1 0x20 ADD DUP1 PUSH2 0x3715 PUSH1 0x26 SWAP2 CODECOPY PUSH1 0x40 ADD SWAP2 POP POP PUSH1 0x40 MLOAD DUP1 SWAP2 SUB SWAP1 REVERT JUMPDEST PUSH2 0x13E3 PUSH2 0x305D JUMP JUMPDEST ISZERO PUSH2 0x141F JUMPI PUSH1 0x40 MLOAD PUSH3 0x461BCD PUSH1 0xE5 SHL DUP2 MSTORE PUSH1 0x4 ADD DUP1 DUP1 PUSH1 0x20 ADD DUP3 DUP2 SUB DUP3 MSTORE PUSH1 0x26 DUP2 MSTORE PUSH1 0x20 ADD DUP1 PUSH2 0x3715 PUSH1 0x26 SWAP2 CODECOPY PUSH1 0x40 ADD SWAP2 POP POP PUSH1 0x40 MLOAD DUP1 SWAP2 SUB SWAP1 REVERT JUMPDEST PUSH1 0x0 CALLER SWAP1 POP PUSH1 0x0 PUSH1 0x6 DUP5 DUP2 SLOAD DUP2 LT PUSH2 0x1433 JUMPI INVALID JUMPDEST PUSH1 0x0 SWAP2 DUP3 MSTORE PUSH1 0x20 DUP1 DUP4 KECCAK256 DUP8 DUP5 MSTORE PUSH1 0x7 DUP3 MSTORE PUSH1 0x40 DUP1 DUP6 KECCAK256 PUSH1 0x1 PUSH1 0x1 PUSH1 0xA0 SHL SUB DUP9 AND DUP7 MSTORE SWAP1 SWAP3 MSTORE SWAP3 KECCAK256 DUP1 SLOAD PUSH1 0x5 SWAP1 SWAP3 MUL SWAP1 SWAP3 ADD SWAP3 POP DUP5 GT ISZERO PUSH2 0x14AF JUMPI PUSH1 0x40 DUP1 MLOAD PUSH3 0x461BCD PUSH1 0xE5 SHL DUP2 MSTORE PUSH1 0x20 PUSH1 0x4 DUP3 ADD MSTORE PUSH1 0x12 PUSH1 0x24 DUP3 ADD MSTORE PUSH18 0x1DDA5D1A191C985DCE881B9BDD0819DBDBD9 PUSH1 0x72 SHL PUSH1 0x44 DUP3 ADD MSTORE SWAP1 MLOAD SWAP1 DUP2 SWAP1 SUB PUSH1 0x64 ADD SWAP1 REVERT JUMPDEST PUSH2 0x14B8 DUP6 PUSH2 0x2EDF JUMP JUMPDEST PUSH1 0x0 PUSH2 0x14F5 DUP3 PUSH1 0x1 ADD SLOAD PUSH2 0x14EF PUSH8 0xDE0B6B3A7640000 PUSH2 0x14E9 DUP8 PUSH1 0x3 ADD SLOAD DUP8 PUSH1 0x0 ADD SLOAD PUSH2 0x2D0C SWAP1 SWAP2 SWAP1 PUSH4 0xFFFFFFFF AND JUMP JUMPDEST SWAP1 PUSH2 0x307E JUMP JUMPDEST SWAP1 PUSH2 0x2DE5 JUMP JUMPDEST SWAP1 POP DUP1 ISZERO PUSH2 0x1617 JUMPI PUSH2 0x1507 DUP5 DUP3 PUSH2 0x30E5 JUMP JUMPDEST PUSH1 0x12 SLOAD PUSH1 0x2 DUP4 ADD SLOAD PUSH1 0x0 SWAP2 TIMESTAMP SWAP2 GT PUSH2 0x15CA JUMPI PUSH1 0x0 PUSH2 0x153D PUSH1 0x0 DUP4 GT PUSH2 0x152C JUMPI DUP3 PUSH2 0x1537 JUMP JUMPDEST PUSH2 0x1537 DUP4 PUSH1 0x1 PUSH2 0x2DE5 JUMP JUMPDEST DUP4 PUSH2 0x2C56 JUMP JUMPDEST SWAP1 POP PUSH2 0x154E PUSH1 0x64 PUSH2 0x14E9 DUP7 DUP5 PUSH2 0x2D0C JUMP JUMPDEST SWAP3 POP DUP3 ISZERO PUSH2 0x15C8 JUMPI PUSH1 0x4 DUP1 SLOAD PUSH1 0x40 DUP1 MLOAD PUSH4 0x282D3FDF PUSH1 0xE0 SHL DUP2 MSTORE PUSH1 0x1 PUSH1 0x1 PUSH1 0xA0 SHL SUB DUP12 DUP2 AND SWAP5 DUP3 ADD SWAP5 SWAP1 SWAP5 MSTORE PUSH1 0x24 DUP2 ADD DUP8 SWAP1 MSTORE SWAP1 MLOAD SWAP3 SWAP1 SWAP2 AND SWAP2 PUSH4 0x282D3FDF SWAP2 PUSH1 0x44 DUP1 DUP3 ADD SWAP3 PUSH1 0x0 SWAP3 SWAP1 SWAP2 SWAP1 DUP3 SWAP1 SUB ADD DUP2 DUP4 DUP8 DUP1 EXTCODESIZE ISZERO DUP1 ISZERO PUSH2 0x15AF JUMPI PUSH1 0x0 DUP1 REVERT JUMPDEST POP GAS CALL ISZERO DUP1 ISZERO PUSH2 0x15C3 JUMPI RETURNDATASIZE PUSH1 0x0 DUP1 RETURNDATACOPY RETURNDATASIZE PUSH1 0x0 REVERT JUMPDEST POP POP POP POP JUMPDEST POP JUMPDEST PUSH1 0x2 DUP5 ADD DUP2 SWAP1 SSTORE PUSH1 0x40 DUP1 MLOAD DUP5 DUP2 MSTORE PUSH1 0x20 DUP2 ADD DUP5 SWAP1 MSTORE DUP2 MLOAD PUSH1 0x1 PUSH1 0x1 PUSH1 0xA0 SHL SUB DUP10 AND SWAP3 PUSH32 0xD6F2C8500DF5B44F11E9E48B91FF9F1B9D81BC496D55570C2B1B75BF65243F51 SWAP3 DUP3 SWAP1 SUB ADD SWAP1 LOG2 POP POP JUMPDEST DUP5 ISZERO PUSH2 0x1787 JUMPI DUP2 SLOAD PUSH2 0x1629 SWAP1 DUP7 PUSH2 0x2DE5 JUMP JUMPDEST DUP3 SSTORE PUSH1 0xD SLOAD PUSH1 0x3 DUP4 ADD SLOAD NUMBER EQ PUSH2 0x16BD JUMPI PUSH1 0x0 DUP1 DUP5 PUSH1 0x4 ADD SLOAD GT PUSH2 0x1652 JUMPI DUP4 PUSH1 0x5 ADD SLOAD TIMESTAMP SUB PUSH2 0x165A JUMP JUMPDEST DUP4 PUSH1 0x4 ADD SLOAD TIMESTAMP SUB JUMPDEST PUSH1 0xF SLOAD SWAP1 SWAP2 POP DUP1 PUSH1 0x0 JUMPDEST DUP2 ISZERO PUSH2 0x16B8 JUMPI PUSH1 0x1 DUP3 SUB SWAP1 POP PUSH1 0xF DUP2 DUP2 SLOAD DUP2 LT PUSH2 0x167D JUMPI INVALID JUMPDEST SWAP1 PUSH1 0x0 MSTORE PUSH1 0x20 PUSH1 0x0 KECCAK256 ADD SLOAD DUP5 LT PUSH2 0x16AD JUMPI PUSH1 0xE DUP2 DUP2 SLOAD DUP2 LT PUSH2 0x169B JUMPI INVALID JUMPDEST SWAP1 PUSH1 0x0 MSTORE PUSH1 0x20 PUSH1 0x0 KECCAK256 ADD SLOAD SWAP5 POP PUSH2 0x16B8 JUMP JUMPDEST PUSH1 0x1 DUP3 SUB SWAP2 POP PUSH2 0x1664 JUMP JUMPDEST POP POP POP POP JUMPDEST TIMESTAMP PUSH1 0x4 DUP5 ADD SSTORE PUSH1 0x0 PUSH2 0x16D5 PUSH2 0x2710 PUSH2 0x14E9 DUP10 DUP6 PUSH2 0x2D0C JUMP JUMPDEST SWAP1 POP PUSH1 0x0 PUSH2 0x16E3 DUP9 DUP4 PUSH2 0x2DE5 JUMP JUMPDEST SWAP1 POP DUP2 ISZERO PUSH2 0x176D JUMPI PUSH1 0x5 SLOAD PUSH1 0x40 DUP1 MLOAD PUSH3 0x3CE03D PUSH1 0xE2 SHL DUP2 MSTORE SWAP1 MLOAD PUSH2 0x176D SWAP3 PUSH1 0x1 PUSH1 0x1 PUSH1 0xA0 SHL SUB AND SWAP2 PUSH3 0xF380F4 SWAP2 PUSH1 0x4 DUP1 DUP4 ADD SWAP3 PUSH1 0x20 SWAP3 SWAP2 SWAP1 DUP3 SWAP1 SUB ADD DUP2 DUP7 DUP1 EXTCODESIZE ISZERO DUP1 ISZERO PUSH2 0x172F JUMPI PUSH1 0x0 DUP1 REVERT JUMPDEST POP GAS STATICCALL ISZERO DUP1 ISZERO PUSH2 0x1743 JUMPI RETURNDATASIZE PUSH1 0x0 DUP1 RETURNDATACOPY RETURNDATASIZE PUSH1 0x0 REVERT JUMPDEST POP POP POP POP PUSH1 0x40 MLOAD RETURNDATASIZE PUSH1 0x20 DUP2 LT ISZERO PUSH2 0x1759 JUMPI PUSH1 0x0 DUP1 REVERT JUMPDEST POP MLOAD DUP8 SLOAD PUSH1 0x1 PUSH1 0x1 PUSH1 0xA0 SHL SUB AND SWAP1 DUP5 PUSH2 0x319F JUMP JUMPDEST DUP6 SLOAD PUSH2 0x1783 SWAP1 PUSH1 0x1 PUSH1 0x1 PUSH1 0xA0 SHL SUB AND DUP9 DUP4 PUSH2 0x319F JUMP JUMPDEST POP POP POP JUMPDEST PUSH1 0x3 DUP4 ADD SLOAD DUP3 SLOAD PUSH2 0x17A5 SWAP2 PUSH8 0xDE0B6B3A7640000 SWAP2 PUSH2 0x14E9 SWAP2 PUSH2 0x2D0C JUMP JUMPDEST PUSH1 0x1 DUP4 ADD SSTORE PUSH1 0x40 DUP1 MLOAD DUP7 DUP2 MSTORE SWAP1 MLOAD DUP8 SWAP2 PUSH1 0x1 PUSH1 0x1 PUSH1 0xA0 SHL SUB DUP8 AND SWAP2 PUSH32 0xF279E6A1F5E320CCA91135676D9CB6E44CA8A08C0B88342BCDB1144F6511B568 SWAP2 DUP2 SWAP1 SUB PUSH1 0x20 ADD SWAP1 LOG3 POP POP NUMBER PUSH1 0x0 SWAP1 DUP2 MSTORE PUSH1 0x3 PUSH1 0x20 SWAP1 DUP2 MSTORE PUSH1 0x40 DUP1 DUP4 KECCAK256 ORIGIN DUP5 MSTORE SWAP1 SWAP2 MSTORE DUP1 DUP3 KECCAK256 DUP1 SLOAD PUSH1 0x1 PUSH1 0xFF NOT SWAP2 DUP3 AND DUP2 OR SWAP1 SWAP3 SSTORE CALLER DUP5 MSTORE SWAP2 SWAP1 SWAP3 KECCAK256 DUP1 SLOAD SWAP1 SWAP2 AND SWAP1 SWAP2 OR SWAP1 SSTORE POP POP POP POP JUMP JUMPDEST PUSH1 0x1 SLOAD PUSH1 0x0 SWAP1 PUSH1 0x1 PUSH1 0x1 PUSH1 0xA0 SHL SUB AND PUSH2 0x1844 PUSH2 0x31F1 JUMP JUMPDEST PUSH1 0x1 PUSH1 0x1 PUSH1 0xA0 SHL SUB AND EQ SWAP1 POP SWAP1 JUMP JUMPDEST CALLER PUSH1 0x0 SWAP1 DUP2 MSTORE PUSH1 0x2 PUSH1 0x20 MSTORE PUSH1 0x40 SWAP1 KECCAK256 SLOAD PUSH1 0xFF AND DUP1 PUSH2 0x1880 JUMPI POP CALLER PUSH2 0x1875 PUSH2 0x2204 JUMP JUMPDEST PUSH1 0x1 PUSH1 0x1 PUSH1 0xA0 SHL SUB AND EQ JUMPDEST DUP1 PUSH2 0x189A JUMPI POP CALLER PUSH2 0x188F PUSH2 0x1D6C JUMP JUMPDEST PUSH1 0x1 PUSH1 0x1 PUSH1 0xA0 SHL SUB AND EQ JUMPDEST PUSH2 0x18D9 JUMPI PUSH1 0x40 DUP1 MLOAD PUSH3 0x461BCD PUSH1 0xE5 SHL DUP2 MSTORE PUSH1 0x20 PUSH1 0x4 DUP3 ADD MSTORE PUSH1 0x18 PUSH1 0x24 DUP3 ADD MSTORE PUSH1 0x0 DUP1 MLOAD PUSH1 0x20 PUSH2 0x36A7 DUP4 CODECOPY DUP2 MLOAD SWAP2 MSTORE PUSH1 0x44 DUP3 ADD MSTORE SWAP1 MLOAD SWAP1 DUP2 SWAP1 SUB PUSH1 0x64 ADD SWAP1 REVERT JUMPDEST DUP1 MLOAD PUSH2 0x11FA SWAP1 PUSH1 0x10 SWAP1 PUSH1 0x20 DUP5 ADD SWAP1 PUSH2 0x3565 JUMP JUMPDEST PUSH2 0x18F4 PUSH2 0x31F1 JUMP JUMPDEST PUSH1 0x1 PUSH1 0x1 PUSH1 0xA0 SHL SUB AND PUSH2 0x1905 PUSH2 0x2204 JUMP JUMPDEST PUSH1 0x1 PUSH1 0x1 PUSH1 0xA0 SHL SUB AND EQ PUSH2 0x194E JUMPI PUSH1 0x40 DUP1 MLOAD PUSH3 0x461BCD PUSH1 0xE5 SHL DUP2 MSTORE PUSH1 0x20 PUSH1 0x4 DUP3 ADD DUP2 SWAP1 MSTORE PUSH1 0x24 DUP3 ADD MSTORE PUSH1 0x0 DUP1 MLOAD PUSH1 0x20 PUSH2 0x3687 DUP4 CODECOPY DUP2 MLOAD SWAP2 MSTORE PUSH1 0x44 DUP3 ADD MSTORE SWAP1 MLOAD SWAP1 DUP2 SWAP1 SUB PUSH1 0x64 ADD SWAP1 REVERT JUMPDEST PUSH1 0x1 PUSH1 0x1 PUSH1 0xA0 SHL SUB DUP2 AND CALLER EQ ISZERO PUSH2 0x1964 JUMPI PUSH1 0x0 DUP1 REVERT JUMPDEST PUSH1 0x1 PUSH1 0x1 PUSH1 0xA0 SHL SUB AND PUSH1 0x0 SWAP1 DUP2 MSTORE PUSH1 0x2 PUSH1 0x20 MSTORE PUSH1 0x40 SWAP1 KECCAK256 DUP1 SLOAD PUSH1 0xFF NOT AND SWAP1 SSTORE JUMP JUMPDEST PUSH1 0x12 SLOAD DUP2 JUMP JUMPDEST PUSH1 0x0 DUP1 PUSH1 0x6 DUP4 DUP2 SLOAD DUP2 LT PUSH2 0x199B JUMPI INVALID JUMPDEST SWAP1 PUSH1 0x0 MSTORE PUSH1 0x20 PUSH1 0x0 KECCAK256 SWAP1 PUSH1 0x5 MUL ADD SWAP1 POP PUSH1 0x0 PUSH2 0x19CE PUSH1 0x8 SLOAD PUSH2 0x14E9 DUP5 PUSH1 0x1 ADD SLOAD PUSH2 0x1057 PUSH1 0xB SLOAD PUSH2 0x1057 PUSH1 0x1 TIMESTAMP SUB TIMESTAMP PUSH2 0x2213 JUMP JUMPDEST SWAP5 SWAP4 POP POP POP POP JUMP JUMPDEST PUSH2 0x19DE PUSH2 0x303C JUMP JUMPDEST ISZERO PUSH2 0x1A1A JUMPI PUSH1 0x40 MLOAD PUSH3 0x461BCD PUSH1 0xE5 SHL DUP2 MSTORE PUSH1 0x4 ADD DUP1 DUP1 PUSH1 0x20 ADD DUP3 DUP2 SUB DUP3 MSTORE PUSH1 0x26 DUP2 MSTORE PUSH1 0x20 ADD DUP1 PUSH2 0x3715 PUSH1 0x26 SWAP2 CODECOPY PUSH1 0x40 ADD SWAP2 POP POP PUSH1 0x40 MLOAD DUP1 SWAP2 SUB SWAP1 REVERT JUMPDEST PUSH2 0x1A22 PUSH2 0x305D JUMP JUMPDEST ISZERO PUSH2 0x1A5E JUMPI PUSH1 0x40 MLOAD PUSH3 0x461BCD PUSH1 0xE5 SHL DUP2 MSTORE PUSH1 0x4 ADD DUP1 DUP1 PUSH1 0x20 ADD DUP3 DUP2 SUB DUP3 MSTORE PUSH1 0x26 DUP2 MSTORE PUSH1 0x20 ADD DUP1 PUSH2 0x3715 PUSH1 0x26 SWAP2 CODECOPY PUSH1 0x40 ADD SWAP2 POP POP PUSH1 0x40 MLOAD DUP1 SWAP2 SUB SWAP1 REVERT JUMPDEST PUSH1 0x0 PUSH1 0x6 DUP3 DUP2 SLOAD DUP2 LT PUSH2 0x1A6D JUMPI INVALID JUMPDEST PUSH1 0x0 SWAP2 DUP3 MSTORE PUSH1 0x20 DUP1 DUP4 KECCAK256 DUP6 DUP5 MSTORE PUSH1 0x7 DUP3 MSTORE PUSH1 0x40 DUP1 DUP6 KECCAK256 CALLER DUP7 MSTORE SWAP1 SWAP3 MSTORE SWAP1 DUP4 KECCAK256 PUSH1 0xD SLOAD DUP2 SLOAD PUSH1 0x5 SWAP1 SWAP5 MUL SWAP1 SWAP3 ADD SWAP5 POP SWAP3 SWAP1 SWAP2 PUSH2 0x1AB0 SWAP1 PUSH2 0x2710 SWAP1 PUSH2 0x14E9 SWAP1 DUP6 PUSH2 0x2D0C JUMP JUMPDEST DUP4 SLOAD SWAP1 SWAP2 POP PUSH1 0x0 SWAP1 PUSH2 0x1AC2 SWAP1 DUP4 PUSH2 0x2DE5 JUMP JUMPDEST PUSH1 0x0 DUP1 DUP7 SSTORE PUSH1 0x1 DUP7 ADD SSTORE DUP6 SLOAD SWAP1 SWAP2 POP PUSH2 0x1AE5 SWAP1 PUSH1 0x1 PUSH1 0x1 PUSH1 0xA0 SHL SUB AND CALLER DUP4 PUSH2 0x319F JUMP JUMPDEST PUSH1 0x5 SLOAD PUSH1 0x40 DUP1 MLOAD PUSH3 0x3CE03D PUSH1 0xE2 SHL DUP2 MSTORE SWAP1 MLOAD PUSH2 0x1B67 SWAP3 PUSH1 0x1 PUSH1 0x1 PUSH1 0xA0 SHL SUB AND SWAP2 PUSH3 0xF380F4 SWAP2 PUSH1 0x4 DUP1 DUP4 ADD SWAP3 PUSH1 0x20 SWAP3 SWAP2 SWAP1 DUP3 SWAP1 SUB ADD DUP2 DUP7 DUP1 EXTCODESIZE ISZERO DUP1 ISZERO PUSH2 0x1B29 JUMPI PUSH1 0x0 DUP1 REVERT JUMPDEST POP GAS STATICCALL ISZERO DUP1 ISZERO PUSH2 0x1B3D JUMPI RETURNDATASIZE PUSH1 0x0 DUP1 RETURNDATACOPY RETURNDATASIZE PUSH1 0x0 REVERT JUMPDEST POP POP POP POP PUSH1 0x40 MLOAD RETURNDATASIZE PUSH1 0x20 DUP2 LT ISZERO PUSH2 0x1B53 JUMPI PUSH1 0x0 DUP1 REVERT JUMPDEST POP MLOAD DUP7 SLOAD PUSH1 0x1 PUSH1 0x1 PUSH1 0xA0 SHL SUB AND SWAP1 DUP5 PUSH2 0x319F JUMP JUMPDEST PUSH1 0x40 DUP1 MLOAD DUP3 DUP2 MSTORE SWAP1 MLOAD DUP8 SWAP2 CALLER SWAP2 PUSH32 0xBB757047C2B5F3974FE26B7C10F732E7BCE710B0952A71082702781E62AE0595 SWAP2 DUP2 SWAP1 SUB PUSH1 0x20 ADD SWAP1 LOG3 POP POP NUMBER PUSH1 0x0 SWAP1 DUP2 MSTORE PUSH1 0x3 PUSH1 0x20 SWAP1 DUP2 MSTORE PUSH1 0x40 DUP1 DUP4 KECCAK256 ORIGIN DUP5 MSTORE SWAP1 SWAP2 MSTORE DUP1 DUP3 KECCAK256 DUP1 SLOAD PUSH1 0x1 PUSH1 0xFF NOT SWAP2 DUP3 AND DUP2 OR SWAP1 SWAP3 SSTORE CALLER DUP5 MSTORE SWAP2 SWAP1 SWAP3 KECCAK256 DUP1 SLOAD SWAP1 SWAP2 AND SWAP1 SWAP2 OR SWAP1 SSTORE POP POP POP POP JUMP JUMPDEST CALLER PUSH1 0x0 SWAP1 DUP2 MSTORE PUSH1 0x2 PUSH1 0x20 MSTORE PUSH1 0x40 SWAP1 KECCAK256 SLOAD PUSH1 0xFF AND DUP1 PUSH2 0x1C0E JUMPI POP CALLER PUSH2 0x1C03 PUSH2 0x2204 JUMP JUMPDEST PUSH1 0x1 PUSH1 0x1 PUSH1 0xA0 SHL SUB AND EQ JUMPDEST DUP1 PUSH2 0x1C28 JUMPI POP CALLER PUSH2 0x1C1D PUSH2 0x1D6C JUMP JUMPDEST PUSH1 0x1 PUSH1 0x1 PUSH1 0xA0 SHL SUB AND EQ JUMPDEST PUSH2 0x1C67 JUMPI PUSH1 0x40 DUP1 MLOAD PUSH3 0x461BCD PUSH1 0xE5 SHL DUP2 MSTORE PUSH1 0x20 PUSH1 0x4 DUP3 ADD MSTORE PUSH1 0x18 PUSH1 0x24 DUP3 ADD MSTORE PUSH1 0x0 DUP1 MLOAD PUSH1 0x20 PUSH2 0x36A7 DUP4 CODECOPY DUP2 MLOAD SWAP2 MSTORE PUSH1 0x44 DUP3 ADD MSTORE SWAP1 MLOAD SWAP1 DUP2 SWAP1 SUB PUSH1 0x64 ADD SWAP1 REVERT JUMPDEST PUSH1 0xA SLOAD PUSH3 0x76A700 ADD TIMESTAMP LT ISZERO PUSH2 0x1D4D JUMPI PUSH1 0x4 SLOAD PUSH1 0x1 PUSH1 0x1 PUSH1 0xA0 SHL SUB DUP5 DUP2 AND SWAP2 AND EQ ISZERO PUSH2 0x1CC2 JUMPI PUSH1 0x40 DUP1 MLOAD PUSH3 0x461BCD PUSH1 0xE5 SHL DUP2 MSTORE PUSH1 0x20 PUSH1 0x4 DUP3 ADD MSTORE PUSH1 0x6 PUSH1 0x24 DUP3 ADD MSTORE PUSH6 0x7468656F7279 PUSH1 0xD0 SHL PUSH1 0x44 DUP3 ADD MSTORE SWAP1 MLOAD SWAP1 DUP2 SWAP1 SUB PUSH1 0x64 ADD SWAP1 REVERT JUMPDEST PUSH1 0x6 SLOAD PUSH1 0x0 JUMPDEST DUP2 DUP2 LT ISZERO PUSH2 0x1D4A JUMPI PUSH1 0x0 PUSH1 0x6 DUP3 DUP2 SLOAD DUP2 LT PUSH2 0x1CDF JUMPI INVALID JUMPDEST PUSH1 0x0 SWAP2 DUP3 MSTORE PUSH1 0x20 SWAP1 SWAP2 KECCAK256 PUSH1 0x5 SWAP1 SWAP2 MUL ADD DUP1 SLOAD SWAP1 SWAP2 POP PUSH1 0x1 PUSH1 0x1 PUSH1 0xA0 SHL SUB DUP8 DUP2 AND SWAP2 AND EQ ISZERO PUSH2 0x1D41 JUMPI PUSH1 0x40 DUP1 MLOAD PUSH3 0x461BCD PUSH1 0xE5 SHL DUP2 MSTORE PUSH1 0x20 PUSH1 0x4 DUP3 ADD MSTORE PUSH1 0xA PUSH1 0x24 DUP3 ADD MSTORE PUSH10 0x3837B7B6173A37B5B2B7 PUSH1 0xB1 SHL PUSH1 0x44 DUP3 ADD MSTORE SWAP1 MLOAD SWAP1 DUP2 SWAP1 SUB PUSH1 0x64 ADD SWAP1 REVERT JUMPDEST POP PUSH1 0x1 ADD PUSH2 0x1CC8 JUMP JUMPDEST POP POP JUMPDEST PUSH2 0x1D61 PUSH1 0x1 PUSH1 0x1 PUSH1 0xA0 SHL SUB DUP5 AND DUP3 DUP5 PUSH2 0x319F JUMP JUMPDEST POP POP POP JUMP JUMPDEST PUSH1 0xD SLOAD DUP2 JUMP JUMPDEST PUSH1 0x1 SLOAD PUSH1 0x1 PUSH1 0x1 PUSH1 0xA0 SHL SUB AND SWAP1 JUMP JUMPDEST PUSH1 0xB SLOAD DUP2 JUMP JUMPDEST PUSH1 0x9 SLOAD DUP2 JUMP JUMPDEST CALLER PUSH1 0x0 SWAP1 DUP2 MSTORE PUSH1 0x2 PUSH1 0x20 MSTORE PUSH1 0x40 SWAP1 KECCAK256 SLOAD PUSH1 0xFF AND DUP1 PUSH2 0x1DB4 JUMPI POP CALLER PUSH2 0x1DA9 PUSH2 0x2204 JUMP JUMPDEST PUSH1 0x1 PUSH1 0x1 PUSH1 0xA0 SHL SUB AND EQ JUMPDEST DUP1 PUSH2 0x1DCE JUMPI POP CALLER PUSH2 0x1DC3 PUSH2 0x1D6C JUMP JUMPDEST PUSH1 0x1 PUSH1 0x1 PUSH1 0xA0 SHL SUB AND EQ JUMPDEST PUSH2 0x1E0D JUMPI PUSH1 0x40 DUP1 MLOAD PUSH3 0x461BCD PUSH1 0xE5 SHL DUP2 MSTORE PUSH1 0x20 PUSH1 0x4 DUP3 ADD MSTORE PUSH1 0x18 PUSH1 0x24 DUP3 ADD MSTORE PUSH1 0x0 DUP1 MLOAD PUSH1 0x20 PUSH2 0x36A7 DUP4 CODECOPY DUP2 MLOAD SWAP2 MSTORE PUSH1 0x44 DUP3 ADD MSTORE SWAP1 MLOAD SWAP1 DUP2 SWAP1 SUB PUSH1 0x64 ADD SWAP1 REVERT JUMPDEST PUSH1 0x0 SWAP3 DUP4 MSTORE PUSH1 0x7 PUSH1 0x20 SWAP1 DUP2 MSTORE PUSH1 0x40 DUP1 DUP6 KECCAK256 PUSH1 0x1 PUSH1 0x1 PUSH1 0xA0 SHL SUB SWAP1 SWAP5 AND DUP6 MSTORE SWAP3 SWAP1 MSTORE SWAP2 KECCAK256 PUSH1 0x4 ADD SSTORE JUMP JUMPDEST PUSH1 0x5 SLOAD PUSH1 0x1 PUSH1 0x1 PUSH1 0xA0 SHL SUB AND DUP2 JUMP JUMPDEST PUSH1 0xA SLOAD DUP2 JUMP JUMPDEST PUSH2 0x1E53 PUSH2 0x31F1 JUMP JUMPDEST PUSH1 0x1 PUSH1 0x1 PUSH1 0xA0 SHL SUB AND PUSH2 0x1E64 PUSH2 0x2204 JUMP JUMPDEST PUSH1 0x1 PUSH1 0x1 PUSH1 0xA0 SHL SUB AND EQ PUSH2 0x1EAD JUMPI PUSH1 0x40 DUP1 MLOAD PUSH3 0x461BCD PUSH1 0xE5 SHL DUP2 MSTORE PUSH1 0x20 PUSH1 0x4 DUP3 ADD DUP2 SWAP1 MSTORE PUSH1 0x24 DUP3 ADD MSTORE PUSH1 0x0 DUP1 MLOAD PUSH1 0x20 PUSH2 0x3687 DUP4 CODECOPY DUP2 MLOAD SWAP2 MSTORE PUSH1 0x44 DUP3 ADD MSTORE SWAP1 MLOAD SWAP1 DUP2 SWAP1 SUB PUSH1 0x64 ADD SWAP1 REVERT JUMPDEST PUSH1 0x0 DUP1 SLOAD PUSH1 0x40 MLOAD PUSH1 0x1 PUSH1 0x1 PUSH1 0xA0 SHL SUB SWAP1 SWAP2 AND SWAP1 PUSH32 0x8BE0079C531659141344CD1FD0A4F28419497F9722A3DAAFE3B4186F6B6457E0 SWAP1 DUP4 SWAP1 LOG3 PUSH1 0x0 DUP1 SLOAD PUSH1 0x1 PUSH1 0x1 PUSH1 0xA0 SHL SUB NOT AND SWAP1 SSTORE JUMP JUMPDEST CALLER PUSH1 0x0 SWAP1 DUP2 MSTORE PUSH1 0x2 PUSH1 0x20 MSTORE PUSH1 0x40 SWAP1 KECCAK256 SLOAD PUSH1 0xFF AND DUP1 PUSH2 0x1F24 JUMPI POP CALLER PUSH2 0x1F19 PUSH2 0x2204 JUMP JUMPDEST PUSH1 0x1 PUSH1 0x1 PUSH1 0xA0 SHL SUB AND EQ JUMPDEST DUP1 PUSH2 0x1F3E JUMPI POP CALLER PUSH2 0x1F33 PUSH2 0x1D6C JUMP JUMPDEST PUSH1 0x1 PUSH1 0x1 PUSH1 0xA0 SHL SUB AND EQ JUMPDEST PUSH2 0x1F7D JUMPI PUSH1 0x40 DUP1 MLOAD PUSH3 0x461BCD PUSH1 0xE5 SHL DUP2 MSTORE PUSH1 0x20 PUSH1 0x4 DUP3 ADD MSTORE PUSH1 0x18 PUSH1 0x24 DUP3 ADD MSTORE PUSH1 0x0 DUP1 MLOAD PUSH1 0x20 PUSH2 0x36A7 DUP4 CODECOPY DUP2 MLOAD SWAP2 MSTORE PUSH1 0x44 DUP3 ADD MSTORE SWAP1 MLOAD SWAP1 DUP2 SWAP1 SUB PUSH1 0x64 ADD SWAP1 REVERT JUMPDEST PUSH2 0x9C4 DUP2 LT PUSH2 0x1FD3 JUMPI PUSH1 0x40 DUP1 MLOAD PUSH3 0x461BCD PUSH1 0xE5 SHL DUP2 MSTORE PUSH1 0x20 PUSH1 0x4 DUP3 ADD MSTORE PUSH1 0x1D PUSH1 0x24 DUP3 ADD MSTORE PUSH32 0x4665652063616E277420626520686967686572207468616E203235252E000000 PUSH1 0x44 DUP3 ADD MSTORE SWAP1 MLOAD SWAP1 DUP2 SWAP1 SUB PUSH1 0x64 ADD SWAP1 REVERT JUMPDEST PUSH1 0xD SSTORE JUMP JUMPDEST CALLER PUSH1 0x0 SWAP1 DUP2 MSTORE PUSH1 0x2 PUSH1 0x20 MSTORE PUSH1 0x40 SWAP1 KECCAK256 SLOAD PUSH1 0xFF AND DUP1 PUSH2 0x2005 JUMPI POP CALLER PUSH2 0x1FFA PUSH2 0x2204 JUMP JUMPDEST PUSH1 0x1 PUSH1 0x1 PUSH1 0xA0 SHL SUB AND EQ JUMPDEST DUP1 PUSH2 0x201F JUMPI POP CALLER PUSH2 0x2014 PUSH2 0x1D6C JUMP JUMPDEST PUSH1 0x1 PUSH1 0x1 PUSH1 0xA0 SHL SUB AND EQ JUMPDEST PUSH2 0x205E JUMPI PUSH1 0x40 DUP1 MLOAD PUSH3 0x461BCD PUSH1 0xE5 SHL DUP2 MSTORE PUSH1 0x20 PUSH1 0x4 DUP3 ADD MSTORE PUSH1 0x18 PUSH1 0x24 DUP3 ADD MSTORE PUSH1 0x0 DUP1 MLOAD PUSH1 0x20 PUSH2 0x36A7 DUP4 CODECOPY DUP2 MLOAD SWAP2 MSTORE PUSH1 0x44 DUP3 ADD MSTORE SWAP1 MLOAD SWAP1 DUP2 SWAP1 SUB PUSH1 0x64 ADD SWAP1 REVERT JUMPDEST PUSH1 0x9 SLOAD TIMESTAMP LT PUSH2 0x20A7 JUMPI PUSH1 0x40 DUP1 MLOAD PUSH3 0x461BCD PUSH1 0xE5 SHL DUP2 MSTORE PUSH1 0x20 PUSH1 0x4 DUP3 ADD MSTORE PUSH1 0x10 PUSH1 0x24 DUP3 ADD MSTORE PUSH16 0x20B63932B0B23C9039BA30B93A32B217 PUSH1 0x81 SHL PUSH1 0x44 DUP3 ADD MSTORE SWAP1 MLOAD SWAP1 DUP2 SWAP1 SUB PUSH1 0x64 ADD SWAP1 REVERT JUMPDEST DUP1 TIMESTAMP LT PUSH2 0x20F6 JUMPI PUSH1 0x40 DUP1 MLOAD PUSH3 0x461BCD PUSH1 0xE5 SHL DUP2 MSTORE PUSH1 0x20 PUSH1 0x4 DUP3 ADD MSTORE PUSH1 0x18 PUSH1 0x24 DUP3 ADD MSTORE PUSH24 0x2A34B6B29034B7383ABA1034B9903A37B79032B0B9363C97 PUSH1 0x41 SHL PUSH1 0x44 DUP3 ADD MSTORE SWAP1 MLOAD SWAP1 DUP2 SWAP1 SUB PUSH1 0x64 ADD SWAP1 REVERT JUMPDEST PUSH1 0x9 SSTORE JUMP JUMPDEST PUSH1 0x0 DUP3 DUP2 MSTORE PUSH1 0x7 PUSH1 0x20 SWAP1 DUP2 MSTORE PUSH1 0x40 DUP1 DUP4 KECCAK256 PUSH1 0x1 PUSH1 0x1 PUSH1 0xA0 SHL SUB DUP6 AND DUP5 MSTORE SWAP1 SWAP2 MSTORE DUP2 KECCAK256 PUSH1 0x12 SLOAD PUSH1 0x2 DUP3 ADD SLOAD TIMESTAMP SWAP2 LT PUSH2 0x214A JUMPI PUSH1 0x0 PUSH2 0x213F PUSH1 0x0 DUP4 GT PUSH2 0x152C JUMPI DUP3 PUSH2 0x1537 JUMP JUMPDEST SWAP4 POP PUSH2 0x10B2 SWAP3 POP POP POP JUMP JUMPDEST POP PUSH1 0x0 SWAP5 SWAP4 POP POP POP POP JUMP JUMPDEST CALLER PUSH1 0x0 SWAP1 DUP2 MSTORE PUSH1 0x2 PUSH1 0x20 MSTORE PUSH1 0x40 SWAP1 KECCAK256 SLOAD PUSH1 0xFF AND DUP1 PUSH2 0x2182 JUMPI POP CALLER PUSH2 0x2177 PUSH2 0x2204 JUMP JUMPDEST PUSH1 0x1 PUSH1 0x1 PUSH1 0xA0 SHL SUB AND EQ JUMPDEST DUP1 PUSH2 0x219C JUMPI POP CALLER PUSH2 0x2191 PUSH2 0x1D6C JUMP JUMPDEST PUSH1 0x1 PUSH1 0x1 PUSH1 0xA0 SHL SUB AND EQ JUMPDEST PUSH2 0x21DB JUMPI PUSH1 0x40 DUP1 MLOAD PUSH3 0x461BCD PUSH1 0xE5 SHL DUP2 MSTORE PUSH1 0x20 PUSH1 0x4 DUP3 ADD MSTORE PUSH1 0x18 PUSH1 0x24 DUP3 ADD MSTORE PUSH1 0x0 DUP1 MLOAD PUSH1 0x20 PUSH2 0x36A7 DUP4 CODECOPY DUP2 MLOAD SWAP2 MSTORE PUSH1 0x44 DUP3 ADD MSTORE SWAP1 MLOAD SWAP1 DUP2 SWAP1 SUB PUSH1 0x64 ADD SWAP1 REVERT JUMPDEST PUSH1 0x0 SWAP3 DUP4 MSTORE PUSH1 0x7 PUSH1 0x20 SWAP1 DUP2 MSTORE PUSH1 0x40 DUP1 DUP6 KECCAK256 PUSH1 0x1 PUSH1 0x1 PUSH1 0xA0 SHL SUB SWAP1 SWAP5 AND DUP6 MSTORE SWAP3 SWAP1 MSTORE SWAP2 KECCAK256 PUSH1 0x5 ADD SSTORE JUMP JUMPDEST PUSH1 0x0 SLOAD PUSH1 0x1 PUSH1 0x1 PUSH1 0xA0 SHL SUB AND SWAP1 JUMP JUMPDEST PUSH1 0x9 SLOAD PUSH1 0x0 SWAP1 DUP2 SWAP1 DUP5 LT ISZERO PUSH2 0x222C JUMPI PUSH1 0x0 SWAP2 POP POP PUSH2 0x10B2 JUMP JUMPDEST PUSH1 0x0 JUMPDEST PUSH1 0x11 SLOAD DUP2 LT ISZERO PUSH2 0x2305 JUMPI PUSH1 0x0 PUSH1 0x11 DUP3 DUP2 SLOAD DUP2 LT PUSH2 0x2248 JUMPI INVALID JUMPDEST SWAP1 PUSH1 0x0 MSTORE PUSH1 0x20 PUSH1 0x0 KECCAK256 ADD SLOAD SWAP1 POP PUSH1 0x1 PUSH1 0x10 DUP1 SLOAD SWAP1 POP SUB DUP3 GT ISZERO PUSH2 0x2271 JUMPI PUSH1 0x0 SWAP4 POP POP POP POP PUSH2 0x10B2 JUMP JUMPDEST DUP1 DUP6 GT PUSH2 0x22B7 JUMPI PUSH1 0x0 PUSH2 0x22A0 PUSH1 0x10 DUP5 DUP2 SLOAD DUP2 LT PUSH2 0x228A JUMPI INVALID JUMPDEST PUSH1 0x0 SWAP2 DUP3 MSTORE PUSH1 0x20 SWAP1 SWAP2 KECCAK256 ADD SLOAD PUSH2 0x1057 DUP9 DUP11 PUSH2 0x2DE5 JUMP JUMPDEST SWAP1 POP PUSH2 0x22AC DUP5 DUP3 PUSH2 0x2D6C JUMP JUMPDEST SWAP5 POP POP POP POP POP PUSH2 0x10B2 JUMP JUMPDEST DUP1 DUP7 LT ISZERO PUSH2 0x22FC JUMPI PUSH1 0x0 PUSH2 0x22E7 PUSH1 0x10 DUP5 DUP2 SLOAD DUP2 LT PUSH2 0x22D1 JUMPI INVALID JUMPDEST PUSH1 0x0 SWAP2 DUP3 MSTORE PUSH1 0x20 SWAP1 SWAP2 KECCAK256 ADD SLOAD PUSH2 0x1057 DUP5 DUP11 PUSH2 0x2DE5 JUMP JUMPDEST SWAP2 SWAP7 POP DUP7 SWAP2 SWAP1 POP PUSH2 0x22F8 DUP5 DUP3 PUSH2 0x2D6C JUMP JUMPDEST SWAP4 POP POP JUMPDEST POP PUSH1 0x1 ADD PUSH2 0x222F JUMP JUMPDEST POP SWAP4 SWAP3 POP POP POP JUMP JUMPDEST PUSH1 0x7 PUSH1 0x20 SWAP1 DUP2 MSTORE PUSH1 0x0 SWAP3 DUP4 MSTORE PUSH1 0x40 DUP1 DUP5 KECCAK256 SWAP1 SWAP2 MSTORE SWAP1 DUP3 MSTORE SWAP1 KECCAK256 DUP1 SLOAD PUSH1 0x1 DUP3 ADD SLOAD PUSH1 0x2 DUP4 ADD SLOAD PUSH1 0x3 DUP5 ADD SLOAD PUSH1 0x4 DUP6 ADD SLOAD PUSH1 0x5 SWAP1 SWAP6 ADD SLOAD SWAP4 SWAP5 SWAP3 SWAP4 SWAP2 SWAP3 SWAP1 SWAP2 DUP7 JUMP JUMPDEST PUSH1 0xC SLOAD DUP2 JUMP JUMPDEST PUSH1 0x1 SLOAD PUSH1 0x1 PUSH1 0x1 PUSH1 0xA0 SHL SUB AND CALLER EQ PUSH2 0x239C JUMPI PUSH1 0x40 MLOAD PUSH3 0x461BCD PUSH1 0xE5 SHL DUP2 MSTORE PUSH1 0x4 ADD DUP1 DUP1 PUSH1 0x20 ADD DUP3 DUP2 SUB DUP3 MSTORE PUSH1 0x24 DUP2 MSTORE PUSH1 0x20 ADD DUP1 PUSH2 0x36C7 PUSH1 0x24 SWAP2 CODECOPY PUSH1 0x40 ADD SWAP2 POP POP PUSH1 0x40 MLOAD DUP1 SWAP2 SUB SWAP1 REVERT JUMPDEST PUSH2 0x23A5 DUP4 PUSH2 0x31F5 JUMP JUMPDEST DUP2 ISZERO PUSH2 0x23B3 JUMPI PUSH2 0x23B3 PUSH2 0x2DC6 JUMP JUMPDEST PUSH1 0x9 SLOAD TIMESTAMP LT ISZERO PUSH2 0x23DF JUMPI DUP1 PUSH2 0x23CB JUMPI POP PUSH1 0x9 SLOAD PUSH2 0x23DA JUMP JUMPDEST PUSH1 0x9 SLOAD DUP2 LT ISZERO PUSH2 0x23DA JUMPI POP PUSH1 0x9 SLOAD JUMPDEST PUSH2 0x23F3 JUMP JUMPDEST DUP1 ISZERO DUP1 PUSH2 0x23EB JUMPI POP TIMESTAMP DUP2 LT JUMPDEST ISZERO PUSH2 0x23F3 JUMPI POP TIMESTAMP JUMPDEST PUSH1 0x0 PUSH1 0x9 SLOAD DUP3 GT ISZERO DUP1 PUSH2 0x2406 JUMPI POP TIMESTAMP DUP3 GT ISZERO JUMPDEST PUSH1 0x40 DUP1 MLOAD PUSH1 0xA0 DUP2 ADD DUP3 MSTORE PUSH1 0x1 PUSH1 0x1 PUSH1 0xA0 SHL SUB DUP8 DUP2 AND DUP3 MSTORE PUSH1 0x20 DUP3 ADD DUP10 DUP2 MSTORE SWAP3 DUP3 ADD DUP7 DUP2 MSTORE PUSH1 0x0 PUSH1 0x60 DUP5 ADD DUP2 DUP2 MSTORE DUP7 ISZERO DUP1 ISZERO PUSH1 0x80 DUP8 ADD SWAP1 DUP2 MSTORE PUSH1 0x6 DUP1 SLOAD PUSH1 0x1 DUP2 ADD DUP3 SSTORE SWAP5 MSTORE SWAP6 MLOAD PUSH32 0xF652222313E28459528D920B65115C16C04F3EFC82AAEDC97BE59F3F377C0D3F PUSH1 0x5 SWAP1 SWAP5 MUL SWAP4 DUP5 ADD DUP1 SLOAD PUSH1 0x1 PUSH1 0x1 PUSH1 0xA0 SHL SUB NOT AND SWAP2 SWAP1 SWAP7 AND OR SWAP1 SWAP5 SSTORE SWAP5 MLOAD PUSH32 0xF652222313E28459528D920B65115C16C04F3EFC82AAEDC97BE59F3F377C0D40 DUP3 ADD SSTORE SWAP1 MLOAD PUSH32 0xF652222313E28459528D920B65115C16C04F3EFC82AAEDC97BE59F3F377C0D41 DUP3 ADD SSTORE SWAP3 MLOAD PUSH32 0xF652222313E28459528D920B65115C16C04F3EFC82AAEDC97BE59F3F377C0D42 DUP5 ADD SSTORE SWAP1 MLOAD PUSH32 0xF652222313E28459528D920B65115C16C04F3EFC82AAEDC97BE59F3F377C0D43 SWAP1 SWAP3 ADD DUP1 SLOAD PUSH1 0xFF NOT AND SWAP3 ISZERO ISZERO SWAP3 SWAP1 SWAP3 OR SWAP1 SWAP2 SSTORE SWAP1 SWAP2 POP PUSH2 0xDDA JUMPI PUSH1 0x8 SLOAD PUSH2 0x2545 SWAP1 DUP7 PUSH2 0x2D6C JUMP JUMPDEST PUSH1 0x8 SSTORE POP POP POP POP POP JUMP JUMPDEST PUSH1 0x13 DUP2 DUP2 SLOAD DUP2 LT PUSH2 0x10C5 JUMPI INVALID JUMPDEST PUSH1 0x0 DUP1 PUSH2 0x256D PUSH1 0x9 SLOAD PUSH1 0xA SLOAD PUSH2 0x100F JUMP JUMPDEST SWAP2 POP POP SWAP1 JUMP JUMPDEST PUSH1 0x2 PUSH1 0x20 MSTORE PUSH1 0x0 SWAP1 DUP2 MSTORE PUSH1 0x40 SWAP1 KECCAK256 SLOAD PUSH1 0xFF AND DUP2 JUMP JUMPDEST PUSH1 0x0 DUP3 DUP2 MSTORE PUSH1 0x7 PUSH1 0x20 SWAP1 DUP2 MSTORE PUSH1 0x40 DUP1 DUP4 KECCAK256 PUSH1 0x1 PUSH1 0x1 PUSH1 0xA0 SHL SUB DUP6 AND DUP5 MSTORE SWAP1 SWAP2 MSTORE DUP2 KECCAK256 PUSH1 0xD SLOAD PUSH1 0x3 DUP3 ADD SLOAD NUMBER EQ PUSH2 0x19CE JUMPI PUSH1 0x0 DUP1 DUP4 PUSH1 0x4 ADD SLOAD GT PUSH2 0x25D1 JUMPI DUP3 PUSH1 0x5 ADD SLOAD TIMESTAMP SUB PUSH2 0x25D9 JUMP JUMPDEST DUP3 PUSH1 0x4 ADD SLOAD TIMESTAMP SUB JUMPDEST PUSH1 0xF SLOAD SWAP1 SWAP2 POP DUP1 PUSH1 0x0 JUMPDEST DUP2 ISZERO PUSH2 0x2637 JUMPI PUSH1 0x1 DUP3 SUB SWAP1 POP PUSH1 0xF DUP2 DUP2 SLOAD DUP2 LT PUSH2 0x25FC JUMPI INVALID JUMPDEST SWAP1 PUSH1 0x0 MSTORE PUSH1 0x20 PUSH1 0x0 KECCAK256 ADD SLOAD DUP5 LT PUSH2 0x262C JUMPI PUSH1 0xE DUP2 DUP2 SLOAD DUP2 LT PUSH2 0x261A JUMPI INVALID JUMPDEST SWAP1 PUSH1 0x0 MSTORE PUSH1 0x20 PUSH1 0x0 KECCAK256 ADD SLOAD SWAP5 POP PUSH2 0x2637 JUMP JUMPDEST PUSH1 0x1 DUP3 SUB SWAP2 POP PUSH2 0x25E3 JUMP JUMPDEST POP POP POP POP SWAP5 SWAP4 POP POP POP POP JUMP JUMPDEST PUSH2 0x264B PUSH2 0x31F1 JUMP JUMPDEST PUSH1 0x1 PUSH1 0x1 PUSH1 0xA0 SHL SUB AND PUSH2 0x265C PUSH2 0x2204 JUMP JUMPDEST PUSH1 0x1 PUSH1 0x1 PUSH1 0xA0 SHL SUB AND EQ PUSH2 0x26A5 JUMPI PUSH1 0x40 DUP1 MLOAD PUSH3 0x461BCD PUSH1 0xE5 SHL DUP2 MSTORE PUSH1 0x20 PUSH1 0x4 DUP3 ADD DUP2 SWAP1 MSTORE PUSH1 0x24 DUP3 ADD MSTORE PUSH1 0x0 DUP1 MLOAD PUSH1 0x20 PUSH2 0x3687 DUP4 CODECOPY DUP2 MLOAD SWAP2 MSTORE PUSH1 0x44 DUP3 ADD MSTORE SWAP1 MLOAD SWAP1 DUP2 SWAP1 SUB PUSH1 0x64 ADD SWAP1 REVERT JUMPDEST PUSH1 0x1 PUSH1 0x1 PUSH1 0xA0 SHL SUB AND PUSH1 0x0 SWAP1 DUP2 MSTORE PUSH1 0x2 PUSH1 0x20 MSTORE PUSH1 0x40 SWAP1 KECCAK256 DUP1 SLOAD PUSH1 0xFF NOT AND PUSH1 0x1 OR SWAP1 SSTORE JUMP JUMPDEST PUSH1 0x0 DUP1 PUSH1 0x6 DUP5 DUP2 SLOAD DUP2 LT PUSH2 0x26D9 JUMPI INVALID JUMPDEST PUSH1 0x0 SWAP2 DUP3 MSTORE PUSH1 0x20 DUP1 DUP4 KECCAK256 DUP8 DUP5 MSTORE PUSH1 0x7 DUP3 MSTORE PUSH1 0x40 DUP1 DUP6 KECCAK256 PUSH1 0x1 PUSH1 0x1 PUSH1 0xA0 SHL SUB DUP10 DUP2 AND DUP8 MSTORE SWAP1 DUP5 MSTORE DUP2 DUP7 KECCAK256 PUSH1 0x5 SWAP6 SWAP1 SWAP6 MUL SWAP1 SWAP3 ADD PUSH1 0x3 DUP2 ADD SLOAD DUP2 SLOAD DUP4 MLOAD PUSH4 0x70A08231 PUSH1 0xE0 SHL DUP2 MSTORE ADDRESS PUSH1 0x4 DUP3 ADD MSTORE SWAP4 MLOAD SWAP3 SWAP9 POP SWAP6 SWAP7 SWAP1 SWAP6 SWAP1 SWAP5 SWAP4 AND SWAP3 PUSH4 0x70A08231 SWAP3 PUSH1 0x24 DUP1 DUP3 ADD SWAP4 SWAP2 DUP3 SWAP1 SUB ADD DUP2 DUP7 DUP1 EXTCODESIZE ISZERO DUP1 ISZERO PUSH2 0x2753 JUMPI PUSH1 0x0 DUP1 REVERT JUMPDEST POP GAS STATICCALL ISZERO DUP1 ISZERO PUSH2 0x2767 JUMPI RETURNDATASIZE PUSH1 0x0 DUP1 RETURNDATACOPY RETURNDATASIZE PUSH1 0x0 REVERT JUMPDEST POP POP POP POP PUSH1 0x40 MLOAD RETURNDATASIZE PUSH1 0x20 DUP2 LT ISZERO PUSH2 0x277D JUMPI PUSH1 0x0 DUP1 REVERT JUMPDEST POP MLOAD PUSH1 0x2 DUP6 ADD SLOAD SWAP1 SWAP2 POP TIMESTAMP GT DUP1 ISZERO PUSH2 0x2794 JUMPI POP DUP1 ISZERO ISZERO JUMPDEST ISZERO PUSH2 0x27F1 JUMPI PUSH1 0x0 PUSH2 0x27A9 DUP6 PUSH1 0x2 ADD SLOAD TIMESTAMP PUSH2 0x100F JUMP JUMPDEST SWAP1 POP PUSH1 0x0 PUSH2 0x27CA PUSH1 0x8 SLOAD PUSH2 0x14E9 DUP9 PUSH1 0x1 ADD SLOAD DUP6 PUSH2 0x2D0C SWAP1 SWAP2 SWAP1 PUSH4 0xFFFFFFFF AND JUMP JUMPDEST SWAP1 POP PUSH2 0x27EC PUSH2 0x27E5 DUP5 PUSH2 0x14E9 DUP5 PUSH8 0xDE0B6B3A7640000 PUSH2 0x2D0C JUMP JUMPDEST DUP6 SWAP1 PUSH2 0x2D6C JUMP JUMPDEST SWAP4 POP POP POP JUMPDEST PUSH2 0x281C DUP4 PUSH1 0x1 ADD SLOAD PUSH2 0x14EF PUSH8 0xDE0B6B3A7640000 PUSH2 0x14E9 DUP7 DUP9 PUSH1 0x0 ADD SLOAD PUSH2 0x2D0C SWAP1 SWAP2 SWAP1 PUSH4 0xFFFFFFFF AND JUMP JUMPDEST SWAP8 SWAP7 POP POP POP POP POP POP POP JUMP JUMPDEST PUSH2 0x282F PUSH2 0x303C JUMP JUMPDEST ISZERO PUSH2 0x286B JUMPI PUSH1 0x40 MLOAD PUSH3 0x461BCD PUSH1 0xE5 SHL DUP2 MSTORE PUSH1 0x4 ADD DUP1 DUP1 PUSH1 0x20 ADD DUP3 DUP2 SUB DUP3 MSTORE PUSH1 0x26 DUP2 MSTORE PUSH1 0x20 ADD DUP1 PUSH2 0x3715 PUSH1 0x26 SWAP2 CODECOPY PUSH1 0x40 ADD SWAP2 POP POP PUSH1 0x40 MLOAD DUP1 SWAP2 SUB SWAP1 REVERT JUMPDEST PUSH2 0x2873 PUSH2 0x305D JUMP JUMPDEST ISZERO PUSH2 0x28AF JUMPI PUSH1 0x40 MLOAD PUSH3 0x461BCD PUSH1 0xE5 SHL DUP2 MSTORE PUSH1 0x4 ADD DUP1 DUP1 PUSH1 0x20 ADD DUP3 DUP2 SUB DUP3 MSTORE PUSH1 0x26 DUP2 MSTORE PUSH1 0x20 ADD DUP1 PUSH2 0x3715 PUSH1 0x26 SWAP2 CODECOPY PUSH1 0x40 ADD SWAP2 POP POP PUSH1 0x40 MLOAD DUP1 SWAP2 SUB SWAP1 REVERT JUMPDEST PUSH1 0x0 CALLER SWAP1 POP PUSH1 0x0 PUSH1 0x6 DUP5 DUP2 SLOAD DUP2 LT PUSH2 0x28C3 JUMPI INVALID JUMPDEST PUSH1 0x0 SWAP2 DUP3 MSTORE PUSH1 0x20 DUP1 DUP4 KECCAK256 DUP8 DUP5 MSTORE PUSH1 0x7 DUP3 MSTORE PUSH1 0x40 DUP1 DUP6 KECCAK256 PUSH1 0x1 PUSH1 0x1 PUSH1 0xA0 SHL SUB DUP9 AND DUP7 MSTORE SWAP1 SWAP3 MSTORE SWAP3 KECCAK256 PUSH1 0x5 SWAP1 SWAP2 MUL SWAP1 SWAP2 ADD SWAP2 POP PUSH2 0x28FD DUP6 PUSH2 0x2EDF JUMP JUMPDEST DUP1 SLOAD ISZERO PUSH2 0x2A4C JUMPI PUSH1 0x0 PUSH2 0x2935 DUP3 PUSH1 0x1 ADD SLOAD PUSH2 0x14EF PUSH8 0xDE0B6B3A7640000 PUSH2 0x14E9 DUP8 PUSH1 0x3 ADD SLOAD DUP8 PUSH1 0x0 ADD SLOAD PUSH2 0x2D0C SWAP1 SWAP2 SWAP1 PUSH4 0xFFFFFFFF AND JUMP JUMPDEST SWAP1 POP DUP1 ISZERO PUSH2 0x2A46 JUMPI PUSH2 0x2947 DUP5 DUP3 PUSH2 0x30E5 JUMP JUMPDEST PUSH1 0x12 SLOAD PUSH1 0x2 DUP4 ADD SLOAD PUSH1 0x0 SWAP2 TIMESTAMP SWAP2 GT PUSH2 0x29F9 JUMPI PUSH1 0x0 PUSH2 0x296C PUSH1 0x0 DUP4 GT PUSH2 0x152C JUMPI DUP3 PUSH2 0x1537 JUMP JUMPDEST SWAP1 POP PUSH2 0x297D PUSH1 0x64 PUSH2 0x14E9 DUP7 DUP5 PUSH2 0x2D0C JUMP JUMPDEST SWAP3 POP DUP3 ISZERO PUSH2 0x29F7 JUMPI PUSH1 0x4 DUP1 SLOAD PUSH1 0x40 DUP1 MLOAD PUSH4 0x282D3FDF PUSH1 0xE0 SHL DUP2 MSTORE PUSH1 0x1 PUSH1 0x1 PUSH1 0xA0 SHL SUB DUP12 DUP2 AND SWAP5 DUP3 ADD SWAP5 SWAP1 SWAP5 MSTORE PUSH1 0x24 DUP2 ADD DUP8 SWAP1 MSTORE SWAP1 MLOAD SWAP3 SWAP1 SWAP2 AND SWAP2 PUSH4 0x282D3FDF SWAP2 PUSH1 0x44 DUP1 DUP3 ADD SWAP3 PUSH1 0x0 SWAP3 SWAP1 SWAP2 SWAP1 DUP3 SWAP1 SUB ADD DUP2 DUP4 DUP8 DUP1 EXTCODESIZE ISZERO DUP1 ISZERO PUSH2 0x29DE JUMPI PUSH1 0x0 DUP1 REVERT JUMPDEST POP GAS CALL ISZERO DUP1 ISZERO PUSH2 0x29F2 JUMPI RETURNDATASIZE PUSH1 0x0 DUP1 RETURNDATACOPY RETURNDATASIZE PUSH1 0x0 REVERT JUMPDEST POP POP POP POP JUMPDEST POP JUMPDEST PUSH1 0x2 DUP5 ADD DUP2 SWAP1 SSTORE PUSH1 0x40 DUP1 MLOAD DUP5 DUP2 MSTORE PUSH1 0x20 DUP2 ADD DUP5 SWAP1 MSTORE DUP2 MLOAD PUSH1 0x1 PUSH1 0x1 PUSH1 0xA0 SHL SUB DUP10 AND SWAP3 PUSH32 0xD6F2C8500DF5B44F11E9E48B91FF9F1B9D81BC496D55570C2B1B75BF65243F51 SWAP3 DUP3 SWAP1 SUB ADD SWAP1 LOG2 POP POP JUMPDEST POP PUSH2 0x2A53 JUMP JUMPDEST TIMESTAMP PUSH1 0x2 DUP3 ADD SSTORE JUMPDEST NUMBER PUSH1 0x3 DUP3 ADD SSTORE PUSH1 0x5 DUP2 ADD SLOAD PUSH2 0x2A69 JUMPI TIMESTAMP PUSH1 0x5 DUP3 ADD SSTORE JUMPDEST DUP4 ISZERO PUSH2 0x2A95 JUMPI DUP2 SLOAD PUSH2 0x2A86 SWAP1 PUSH1 0x1 PUSH1 0x1 PUSH1 0xA0 SHL SUB AND DUP5 ADDRESS DUP8 PUSH2 0x328F JUMP JUMPDEST DUP1 SLOAD PUSH2 0x2A92 SWAP1 DUP6 PUSH2 0x2D6C JUMP JUMPDEST DUP2 SSTORE JUMPDEST PUSH1 0x3 DUP3 ADD SLOAD DUP2 SLOAD PUSH2 0x2AB3 SWAP2 PUSH8 0xDE0B6B3A7640000 SWAP2 PUSH2 0x14E9 SWAP2 PUSH2 0x2D0C JUMP JUMPDEST PUSH1 0x1 DUP3 ADD SSTORE PUSH1 0x40 DUP1 MLOAD DUP6 DUP2 MSTORE SWAP1 MLOAD DUP7 SWAP2 PUSH1 0x1 PUSH1 0x1 PUSH1 0xA0 SHL SUB DUP7 AND SWAP2 PUSH32 0x90890809C654F11D6E72A28FA60149770A0D11EC6C92319D6CEB2BB0A4EA1A15 SWAP2 DUP2 SWAP1 SUB PUSH1 0x20 ADD SWAP1 LOG3 POP POP NUMBER PUSH1 0x0 SWAP1 DUP2 MSTORE PUSH1 0x3 PUSH1 0x20 SWAP1 DUP2 MSTORE PUSH1 0x40 DUP1 DUP4 KECCAK256 ORIGIN DUP5 MSTORE SWAP1 SWAP2 MSTORE DUP1 DUP3 KECCAK256 DUP1 SLOAD PUSH1 0x1 PUSH1 0xFF NOT SWAP2 DUP3 AND DUP2 OR SWAP1 SWAP3 SSTORE CALLER DUP5 MSTORE SWAP2 SWAP1 SWAP3 KECCAK256 DUP1 SLOAD SWAP1 SWAP2 AND SWAP1 SWAP2 OR SWAP1 SSTORE POP POP POP JUMP JUMPDEST PUSH1 0x11 DUP2 DUP2 SLOAD DUP2 LT PUSH2 0x10C5 JUMPI INVALID JUMPDEST PUSH1 0xE DUP2 DUP2 SLOAD DUP2 LT PUSH2 0x10C5 JUMPI INVALID JUMPDEST PUSH2 0x2B5C PUSH2 0x31F1 JUMP JUMPDEST PUSH1 0x1 PUSH1 0x1 PUSH1 0xA0 SHL SUB AND PUSH2 0x2B6D PUSH2 0x2204 JUMP JUMPDEST PUSH1 0x1 PUSH1 0x1 PUSH1 0xA0 SHL SUB AND EQ PUSH2 0x2BB6 JUMPI PUSH1 0x40 DUP1 MLOAD PUSH3 0x461BCD PUSH1 0xE5 SHL DUP2 MSTORE PUSH1 0x20 PUSH1 0x4 DUP3 ADD DUP2 SWAP1 MSTORE PUSH1 0x24 DUP3 ADD MSTORE PUSH1 0x0 DUP1 MLOAD PUSH1 0x20 PUSH2 0x3687 DUP4 CODECOPY DUP2 MLOAD SWAP2 MSTORE PUSH1 0x44 DUP3 ADD MSTORE SWAP1 MLOAD SWAP1 DUP2 SWAP1 SUB PUSH1 0x64 ADD SWAP1 REVERT JUMPDEST PUSH1 0x1 PUSH1 0x1 PUSH1 0xA0 SHL SUB DUP2 AND PUSH2 0x2BFB JUMPI PUSH1 0x40 MLOAD PUSH3 0x461BCD PUSH1 0xE5 SHL DUP2 MSTORE PUSH1 0x4 ADD DUP1 DUP1 PUSH1 0x20 ADD DUP3 DUP2 SUB DUP3 MSTORE PUSH1 0x26 DUP2 MSTORE PUSH1 0x20 ADD DUP1 PUSH2 0x35C6 PUSH1 0x26 SWAP2 CODECOPY PUSH1 0x40 ADD SWAP2 POP POP PUSH1 0x40 MLOAD DUP1 SWAP2 SUB SWAP1 REVERT JUMPDEST PUSH1 0x0 DUP1 SLOAD PUSH1 0x40 MLOAD PUSH1 0x1 PUSH1 0x1 PUSH1 0xA0 SHL SUB DUP1 DUP6 AND SWAP4 SWAP3 AND SWAP2 PUSH32 0x8BE0079C531659141344CD1FD0A4F28419497F9722A3DAAFE3B4186F6B6457E0 SWAP2 LOG3 PUSH1 0x0 DUP1 SLOAD PUSH1 0x1 PUSH1 0x1 PUSH1 0xA0 SHL SUB NOT AND PUSH1 0x1 PUSH1 0x1 PUSH1 0xA0 SHL SUB SWAP3 SWAP1 SWAP3 AND SWAP2 SWAP1 SWAP2 OR SWAP1 SSTORE JUMP JUMPDEST PUSH1 0x9 SLOAD PUSH1 0x0 SWAP1 DUP2 SWAP1 DUP5 LT ISZERO PUSH2 0x2C6F JUMPI PUSH1 0x64 SWAP2 POP POP PUSH2 0x10B2 JUMP JUMPDEST PUSH1 0xA SLOAD DUP4 LT PUSH2 0x2C82 JUMPI PUSH1 0x0 SWAP2 POP POP PUSH2 0x10B2 JUMP JUMPDEST PUSH1 0x12 SLOAD DUP4 LT PUSH2 0x2C95 JUMPI PUSH1 0x0 SWAP2 POP POP PUSH2 0x10B2 JUMP JUMPDEST PUSH1 0x0 JUMPDEST PUSH1 0x11 SLOAD DUP2 LT ISZERO PUSH2 0x2305 JUMPI PUSH1 0x0 PUSH1 0x11 DUP3 DUP2 SLOAD DUP2 LT PUSH2 0x2CB1 JUMPI INVALID JUMPDEST SWAP1 PUSH1 0x0 MSTORE PUSH1 0x20 PUSH1 0x0 KECCAK256 ADD SLOAD SWAP1 POP PUSH1 0x1 PUSH1 0x13 DUP1 SLOAD SWAP1 POP SUB DUP3 GT ISZERO PUSH2 0x2CDA JUMPI PUSH1 0x0 SWAP4 POP POP POP POP PUSH2 0x10B2 JUMP JUMPDEST DUP1 DUP6 GT PUSH2 0x2D03 JUMPI PUSH1 0x13 DUP3 DUP2 SLOAD DUP2 LT PUSH2 0x2CEE JUMPI INVALID JUMPDEST SWAP1 PUSH1 0x0 MSTORE PUSH1 0x20 PUSH1 0x0 KECCAK256 ADD SLOAD SWAP4 POP POP POP POP PUSH2 0x10B2 JUMP JUMPDEST POP PUSH1 0x1 ADD PUSH2 0x2C98 JUMP JUMPDEST PUSH1 0x0 DUP3 PUSH2 0x2D1B JUMPI POP PUSH1 0x0 PUSH2 0x10B2 JUMP JUMPDEST DUP3 DUP3 MUL DUP3 DUP5 DUP3 DUP2 PUSH2 0x2D28 JUMPI INVALID JUMPDEST DIV EQ PUSH2 0x2D65 JUMPI PUSH1 0x40 MLOAD PUSH3 0x461BCD PUSH1 0xE5 SHL DUP2 MSTORE PUSH1 0x4 ADD DUP1 DUP1 PUSH1 0x20 ADD DUP3 DUP2 SUB DUP3 MSTORE PUSH1 0x21 DUP2 MSTORE PUSH1 0x20 ADD DUP1 PUSH2 0x3666 PUSH1 0x21 SWAP2 CODECOPY PUSH1 0x40 ADD SWAP2 POP POP PUSH1 0x40 MLOAD DUP1 SWAP2 SUB SWAP1 REVERT JUMPDEST SWAP4 SWAP3 POP POP POP JUMP JUMPDEST PUSH1 0x0 DUP3 DUP3 ADD DUP4 DUP2 LT ISZERO PUSH2 0x2D65 JUMPI PUSH1 0x40 DUP1 MLOAD PUSH3 0x461BCD PUSH1 0xE5 SHL DUP2 MSTORE PUSH1 0x20 PUSH1 0x4 DUP3 ADD MSTORE PUSH1 0x1B PUSH1 0x24 DUP3 ADD MSTORE PUSH32 0x536166654D6174683A206164646974696F6E206F766572666C6F770000000000 PUSH1 0x44 DUP3 ADD MSTORE SWAP1 MLOAD SWAP1 DUP2 SWAP1 SUB PUSH1 0x64 ADD SWAP1 REVERT JUMPDEST PUSH1 0x6 SLOAD PUSH1 0x0 JUMPDEST DUP2 DUP2 LT ISZERO PUSH2 0x11FA JUMPI PUSH2 0x2DDD DUP2 PUSH2 0x2EDF JUMP JUMPDEST PUSH1 0x1 ADD PUSH2 0x2DCC JUMP JUMPDEST PUSH1 0x0 DUP3 DUP3 GT ISZERO PUSH2 0x2E3C JUMPI PUSH1 0x40 DUP1 MLOAD PUSH3 0x461BCD PUSH1 0xE5 SHL DUP2 MSTORE PUSH1 0x20 PUSH1 0x4 DUP3 ADD MSTORE PUSH1 0x1E PUSH1 0x24 DUP3 ADD MSTORE PUSH32 0x536166654D6174683A207375627472616374696F6E206F766572666C6F770000 PUSH1 0x44 DUP3 ADD MSTORE SWAP1 MLOAD SWAP1 DUP2 SWAP1 SUB PUSH1 0x64 ADD SWAP1 REVERT JUMPDEST POP SWAP1 SUB SWAP1 JUMP JUMPDEST PUSH1 0x1 PUSH1 0x1 PUSH1 0xA0 SHL SUB DUP2 AND PUSH2 0x2E87 JUMPI PUSH1 0x40 MLOAD PUSH3 0x461BCD PUSH1 0xE5 SHL DUP2 MSTORE PUSH1 0x4 ADD DUP1 DUP1 PUSH1 0x20 ADD DUP3 DUP2 SUB DUP3 MSTORE PUSH1 0x2D DUP2 MSTORE PUSH1 0x20 ADD DUP1 PUSH2 0x3639 PUSH1 0x2D SWAP2 CODECOPY PUSH1 0x40 ADD SWAP2 POP POP PUSH1 0x40 MLOAD DUP1 SWAP2 SUB SWAP1 REVERT JUMPDEST PUSH1 0x40 MLOAD PUSH1 0x1 PUSH1 0x1 PUSH1 0xA0 SHL SUB DUP3 AND SWAP1 PUSH1 0x0 SWAP1 PUSH32 0x74DA04524D50C64947F5DD5381EF1A4DCA5CBA8ED1D816243F9E48AA0B5617ED SWAP1 DUP3 SWAP1 LOG3 PUSH1 0x1 DUP1 SLOAD PUSH1 0x1 PUSH1 0x1 PUSH1 0xA0 SHL SUB NOT AND PUSH1 0x1 PUSH1 0x1 PUSH1 0xA0 SHL SUB SWAP3 SWAP1 SWAP3 AND SWAP2 SWAP1 SWAP2 OR SWAP1 SSTORE JUMP JUMPDEST PUSH1 0x0 PUSH1 0x6 DUP3 DUP2 SLOAD DUP2 LT PUSH2 0x2EEE JUMPI INVALID JUMPDEST SWAP1 PUSH1 0x0 MSTORE PUSH1 0x20 PUSH1 0x0 KECCAK256 SWAP1 PUSH1 0x5 MUL ADD SWAP1 POP DUP1 PUSH1 0x2 ADD SLOAD TIMESTAMP GT PUSH2 0x2F0F JUMPI POP PUSH2 0x1250 JUMP JUMPDEST DUP1 SLOAD PUSH1 0x40 DUP1 MLOAD PUSH4 0x70A08231 PUSH1 0xE0 SHL DUP2 MSTORE ADDRESS PUSH1 0x4 DUP3 ADD MSTORE SWAP1 MLOAD PUSH1 0x0 SWAP3 PUSH1 0x1 PUSH1 0x1 PUSH1 0xA0 SHL SUB AND SWAP2 PUSH4 0x70A08231 SWAP2 PUSH1 0x24 DUP1 DUP4 ADD SWAP3 PUSH1 0x20 SWAP3 SWAP2 SWAP1 DUP3 SWAP1 SUB ADD DUP2 DUP7 DUP1 EXTCODESIZE ISZERO DUP1 ISZERO PUSH2 0x2F59 JUMPI PUSH1 0x0 DUP1 REVERT JUMPDEST POP GAS STATICCALL ISZERO DUP1 ISZERO PUSH2 0x2F6D JUMPI RETURNDATASIZE PUSH1 0x0 DUP1 RETURNDATACOPY RETURNDATASIZE PUSH1 0x0 REVERT JUMPDEST POP POP POP POP PUSH1 0x40 MLOAD RETURNDATASIZE PUSH1 0x20 DUP2 LT ISZERO PUSH2 0x2F83 JUMPI PUSH1 0x0 DUP1 REVERT JUMPDEST POP MLOAD SWAP1 POP DUP1 PUSH2 0x2F99 JUMPI POP TIMESTAMP PUSH1 0x2 SWAP1 SWAP2 ADD SSTORE PUSH2 0x1250 JUMP JUMPDEST PUSH1 0x4 DUP3 ADD SLOAD PUSH1 0xFF AND PUSH2 0x2FCA JUMPI PUSH1 0x4 DUP3 ADD DUP1 SLOAD PUSH1 0xFF NOT AND PUSH1 0x1 SWAP1 DUP2 OR SWAP1 SWAP2 SSTORE DUP3 ADD SLOAD PUSH1 0x8 SLOAD PUSH2 0x2FC6 SWAP2 PUSH2 0x2D6C JUMP JUMPDEST PUSH1 0x8 SSTORE JUMPDEST PUSH1 0x8 SLOAD ISZERO PUSH2 0x3031 JUMPI PUSH1 0x0 PUSH2 0x2FE2 DUP4 PUSH1 0x2 ADD SLOAD TIMESTAMP PUSH2 0x100F JUMP JUMPDEST SWAP1 POP PUSH1 0x0 PUSH2 0x3003 PUSH1 0x8 SLOAD PUSH2 0x14E9 DUP7 PUSH1 0x1 ADD SLOAD DUP6 PUSH2 0x2D0C SWAP1 SWAP2 SWAP1 PUSH4 0xFFFFFFFF AND JUMP JUMPDEST SWAP1 POP PUSH2 0x3029 PUSH2 0x301E DUP5 PUSH2 0x14E9 DUP5 PUSH8 0xDE0B6B3A7640000 PUSH2 0x2D0C JUMP JUMPDEST PUSH1 0x3 DUP7 ADD SLOAD SWAP1 PUSH2 0x2D6C JUMP JUMPDEST PUSH1 0x3 DUP6 ADD SSTORE POP POP JUMPDEST POP TIMESTAMP PUSH1 0x2 SWAP1 SWAP2 ADD SSTORE POP JUMP JUMPDEST NUMBER PUSH1 0x0 SWAP1 DUP2 MSTORE PUSH1 0x3 PUSH1 0x20 SWAP1 DUP2 MSTORE PUSH1 0x40 DUP1 DUP4 KECCAK256 ORIGIN DUP5 MSTORE SWAP1 SWAP2 MSTORE SWAP1 KECCAK256 SLOAD PUSH1 0xFF AND SWAP1 JUMP JUMPDEST NUMBER PUSH1 0x0 SWAP1 DUP2 MSTORE PUSH1 0x3 PUSH1 0x20 SWAP1 DUP2 MSTORE PUSH1 0x40 DUP1 DUP4 KECCAK256 CALLER DUP5 MSTORE SWAP1 SWAP2 MSTORE SWAP1 KECCAK256 SLOAD PUSH1 0xFF AND SWAP1 JUMP JUMPDEST PUSH1 0x0 DUP1 DUP3 GT PUSH2 0x30D4 JUMPI PUSH1 0x40 DUP1 MLOAD PUSH3 0x461BCD PUSH1 0xE5 SHL DUP2 MSTORE PUSH1 0x20 PUSH1 0x4 DUP3 ADD MSTORE PUSH1 0x1A PUSH1 0x24 DUP3 ADD MSTORE PUSH32 0x536166654D6174683A206469766973696F6E206279207A65726F000000000000 PUSH1 0x44 DUP3 ADD MSTORE SWAP1 MLOAD SWAP1 DUP2 SWAP1 SUB PUSH1 0x64 ADD SWAP1 REVERT JUMPDEST DUP2 DUP4 DUP2 PUSH2 0x30DD JUMPI INVALID JUMPDEST DIV SWAP4 SWAP3 POP POP POP JUMP JUMPDEST PUSH1 0x4 DUP1 SLOAD PUSH1 0x40 DUP1 MLOAD PUSH4 0x70A08231 PUSH1 0xE0 SHL DUP2 MSTORE ADDRESS SWAP4 DUP2 ADD SWAP4 SWAP1 SWAP4 MSTORE MLOAD PUSH1 0x0 SWAP3 PUSH1 0x1 PUSH1 0x1 PUSH1 0xA0 SHL SUB SWAP1 SWAP3 AND SWAP2 PUSH4 0x70A08231 SWAP2 PUSH1 0x24 DUP1 DUP4 ADD SWAP3 PUSH1 0x20 SWAP3 SWAP2 SWAP1 DUP3 SWAP1 SUB ADD DUP2 DUP7 DUP1 EXTCODESIZE ISZERO DUP1 ISZERO PUSH2 0x3134 JUMPI PUSH1 0x0 DUP1 REVERT JUMPDEST POP GAS STATICCALL ISZERO DUP1 ISZERO PUSH2 0x3148 JUMPI RETURNDATASIZE PUSH1 0x0 DUP1 RETURNDATACOPY RETURNDATASIZE PUSH1 0x0 REVERT JUMPDEST POP POP POP POP PUSH1 0x40 MLOAD RETURNDATASIZE PUSH1 0x20 DUP2 LT ISZERO PUSH2 0x315E JUMPI PUSH1 0x0 DUP1 REVERT JUMPDEST POP MLOAD SWAP1 POP DUP1 ISZERO PUSH2 0x1D61 JUMPI DUP1 DUP3 GT ISZERO PUSH2 0x318C JUMPI PUSH1 0x4 SLOAD PUSH2 0x3187 SWAP1 PUSH1 0x1 PUSH1 0x1 PUSH1 0xA0 SHL SUB AND DUP5 DUP4 PUSH2 0x319F JUMP JUMPDEST PUSH2 0x1D61 JUMP JUMPDEST PUSH1 0x4 SLOAD PUSH2 0x1D61 SWAP1 PUSH1 0x1 PUSH1 0x1 PUSH1 0xA0 SHL SUB AND DUP5 DUP5 JUMPDEST PUSH1 0x40 DUP1 MLOAD PUSH1 0x1 PUSH1 0x1 PUSH1 0xA0 SHL SUB DUP5 AND PUSH1 0x24 DUP3 ADD MSTORE PUSH1 0x44 DUP1 DUP3 ADD DUP5 SWAP1 MSTORE DUP3 MLOAD DUP1 DUP4 SUB SWAP1 SWAP2 ADD DUP2 MSTORE PUSH1 0x64 SWAP1 SWAP2 ADD SWAP1 SWAP2 MSTORE PUSH1 0x20 DUP2 ADD DUP1 MLOAD PUSH1 0x1 PUSH1 0x1 PUSH1 0xE0 SHL SUB AND PUSH4 0xA9059CBB PUSH1 0xE0 SHL OR SWAP1 MSTORE PUSH2 0x1D61 SWAP1 DUP5 SWAP1 PUSH2 0x32EF JUMP JUMPDEST CALLER SWAP1 JUMP JUMPDEST PUSH1 0x6 SLOAD PUSH1 0x0 JUMPDEST DUP2 DUP2 LT ISZERO PUSH2 0x1D61 JUMPI DUP3 PUSH1 0x1 PUSH1 0x1 PUSH1 0xA0 SHL SUB AND PUSH1 0x6 DUP3 DUP2 SLOAD DUP2 LT PUSH2 0x321A JUMPI INVALID JUMPDEST PUSH1 0x0 SWAP2 DUP3 MSTORE PUSH1 0x20 SWAP1 SWAP2 KECCAK256 PUSH1 0x5 SWAP1 SWAP2 MUL ADD SLOAD PUSH1 0x1 PUSH1 0x1 PUSH1 0xA0 SHL SUB AND EQ ISZERO PUSH2 0x3287 JUMPI PUSH1 0x40 DUP1 MLOAD PUSH3 0x461BCD PUSH1 0xE5 SHL DUP2 MSTORE PUSH1 0x20 PUSH1 0x4 DUP3 ADD DUP2 SWAP1 MSTORE PUSH1 0x24 DUP3 ADD MSTORE PUSH32 0x5468656F7279526577617264506F6F6C3A206578697374696E6720706F6F6C3F PUSH1 0x44 DUP3 ADD MSTORE SWAP1 MLOAD SWAP1 DUP2 SWAP1 SUB PUSH1 0x64 ADD SWAP1 REVERT JUMPDEST PUSH1 0x1 ADD PUSH2 0x31FB JUMP JUMPDEST PUSH1 0x40 DUP1 MLOAD PUSH1 0x1 PUSH1 0x1 PUSH1 0xA0 SHL SUB DUP1 DUP7 AND PUSH1 0x24 DUP4 ADD MSTORE DUP5 AND PUSH1 0x44 DUP3 ADD MSTORE PUSH1 0x64 DUP1 DUP3 ADD DUP5 SWAP1 MSTORE DUP3 MLOAD DUP1 DUP4 SUB SWAP1 SWAP2 ADD DUP2 MSTORE PUSH1 0x84 SWAP1 SWAP2 ADD SWAP1 SWAP2 MSTORE PUSH1 0x20 DUP2 ADD DUP1 MLOAD PUSH1 0x1 PUSH1 0x1 PUSH1 0xE0 SHL SUB AND PUSH4 0x23B872DD PUSH1 0xE0 SHL OR SWAP1 MSTORE PUSH2 0x32E9 SWAP1 DUP6 SWAP1 PUSH2 0x32EF JUMP JUMPDEST POP POP POP POP JUMP JUMPDEST PUSH1 0x60 PUSH2 0x3344 DUP3 PUSH1 0x40 MLOAD DUP1 PUSH1 0x40 ADD PUSH1 0x40 MSTORE DUP1 PUSH1 0x20 DUP2 MSTORE PUSH1 0x20 ADD PUSH32 0x5361666545524332303A206C6F772D6C6576656C2063616C6C206661696C6564 DUP2 MSTORE POP DUP6 PUSH1 0x1 PUSH1 0x1 PUSH1 0xA0 SHL SUB AND PUSH2 0x33A0 SWAP1 SWAP3 SWAP2 SWAP1 PUSH4 0xFFFFFFFF AND JUMP JUMPDEST DUP1 MLOAD SWAP1 SWAP2 POP ISZERO PUSH2 0x1D61 JUMPI DUP1 DUP1 PUSH1 0x20 ADD SWAP1 MLOAD PUSH1 0x20 DUP2 LT ISZERO PUSH2 0x3363 JUMPI PUSH1 0x0 DUP1 REVERT JUMPDEST POP MLOAD PUSH2 0x1D61 JUMPI PUSH1 0x40 MLOAD PUSH3 0x461BCD PUSH1 0xE5 SHL DUP2 MSTORE PUSH1 0x4 ADD DUP1 DUP1 PUSH1 0x20 ADD DUP3 DUP2 SUB DUP3 MSTORE PUSH1 0x2A DUP2 MSTORE PUSH1 0x20 ADD DUP1 PUSH2 0x36EB PUSH1 0x2A SWAP2 CODECOPY PUSH1 0x40 ADD SWAP2 POP POP PUSH1 0x40 MLOAD DUP1 SWAP2 SUB SWAP1 REVERT JUMPDEST PUSH1 0x60 PUSH2 0x19CE DUP5 DUP5 PUSH1 0x0 DUP6 DUP6 PUSH2 0x33B4 DUP6 PUSH2 0x34BB JUMP JUMPDEST PUSH2 0x3405 JUMPI PUSH1 0x40 DUP1 MLOAD PUSH3 0x461BCD PUSH1 0xE5 SHL DUP2 MSTORE PUSH1 0x20 PUSH1 0x4 DUP3 ADD MSTORE PUSH1 0x1D PUSH1 0x24 DUP3 ADD MSTORE PUSH32 0x416464726573733A2063616C6C20746F206E6F6E2D636F6E7472616374000000 PUSH1 0x44 DUP3 ADD MSTORE SWAP1 MLOAD SWAP1 DUP2 SWAP1 SUB PUSH1 0x64 ADD SWAP1 REVERT JUMPDEST PUSH1 0x0 PUSH1 0x60 DUP7 PUSH1 0x1 PUSH1 0x1 PUSH1 0xA0 SHL SUB AND DUP6 DUP8 PUSH1 0x40 MLOAD DUP1 DUP3 DUP1 MLOAD SWAP1 PUSH1 0x20 ADD SWAP1 DUP1 DUP4 DUP4 JUMPDEST PUSH1 0x20 DUP4 LT PUSH2 0x3444 JUMPI DUP1 MLOAD DUP3 MSTORE PUSH1 0x1F NOT SWAP1 SWAP3 ADD SWAP2 PUSH1 0x20 SWAP2 DUP3 ADD SWAP2 ADD PUSH2 0x3425 JUMP JUMPDEST PUSH1 0x1 DUP4 PUSH1 0x20 SUB PUSH2 0x100 EXP SUB DUP1 NOT DUP3 MLOAD AND DUP2 DUP5 MLOAD AND DUP1 DUP3 OR DUP6 MSTORE POP POP POP POP POP POP SWAP1 POP ADD SWAP2 POP POP PUSH1 0x0 PUSH1 0x40 MLOAD DUP1 DUP4 SUB DUP2 DUP6 DUP8 GAS CALL SWAP3 POP POP POP RETURNDATASIZE DUP1 PUSH1 0x0 DUP2 EQ PUSH2 0x34A6 JUMPI PUSH1 0x40 MLOAD SWAP2 POP PUSH1 0x1F NOT PUSH1 0x3F RETURNDATASIZE ADD AND DUP3 ADD PUSH1 0x40 MSTORE RETURNDATASIZE DUP3 MSTORE RETURNDATASIZE PUSH1 0x0 PUSH1 0x20 DUP5 ADD RETURNDATACOPY PUSH2 0x34AB JUMP JUMPDEST PUSH1 0x60 SWAP2 POP JUMPDEST POP SWAP2 POP SWAP2 POP PUSH2 0x281C DUP3 DUP3 DUP7 PUSH2 0x34C1 JUMP JUMPDEST EXTCODESIZE ISZERO ISZERO SWAP1 JUMP JUMPDEST PUSH1 0x60 DUP4 ISZERO PUSH2 0x34D0 JUMPI POP DUP2 PUSH2 0x2D65 JUMP JUMPDEST DUP3 MLOAD ISZERO PUSH2 0x34E0 JUMPI DUP3 MLOAD DUP1 DUP5 PUSH1 0x20 ADD REVERT JUMPDEST DUP2 PUSH1 0x40 MLOAD PUSH3 0x461BCD PUSH1 0xE5 SHL DUP2 MSTORE PUSH1 0x4 ADD DUP1 DUP1 PUSH1 0x20 ADD DUP3 DUP2 SUB DUP3 MSTORE DUP4 DUP2 DUP2 MLOAD DUP2 MSTORE PUSH1 0x20 ADD SWAP2 POP DUP1 MLOAD SWAP1 PUSH1 0x20 ADD SWAP1 DUP1 DUP4 DUP4 PUSH1 0x0 JUMPDEST DUP4 DUP2 LT ISZERO PUSH2 0x352A JUMPI DUP2 DUP2 ADD MLOAD DUP4 DUP3 ADD MSTORE PUSH1 0x20 ADD PUSH2 0x3512 JUMP JUMPDEST POP POP POP POP SWAP1 POP SWAP1 DUP2 ADD SWAP1 PUSH1 0x1F AND DUP1 ISZERO PUSH2 0x3557 JUMPI DUP1 DUP3 SUB DUP1 MLOAD PUSH1 0x1 DUP4 PUSH1 0x20 SUB PUSH2 0x100 EXP SUB NOT AND DUP2 MSTORE PUSH1 0x20 ADD SWAP2 POP JUMPDEST POP SWAP3 POP POP POP PUSH1 0x40 MLOAD DUP1 SWAP2 SUB SWAP1 REVERT JUMPDEST DUP3 DUP1 SLOAD DUP3 DUP3 SSTORE SWAP1 PUSH1 0x0 MSTORE PUSH1 0x20 PUSH1 0x0 KECCAK256 SWAP1 DUP2 ADD SWAP3 DUP3 ISZERO PUSH2 0x35A0 JUMPI SWAP2 PUSH1 0x20 MUL DUP3 ADD JUMPDEST DUP3 DUP2 GT ISZERO PUSH2 0x35A0 JUMPI DUP3 MLOAD DUP3 SSTORE SWAP2 PUSH1 0x20 ADD SWAP2 SWAP1 PUSH1 0x1 ADD SWAP1 PUSH2 0x3585 JUMP JUMPDEST POP PUSH2 0x35AC SWAP3 SWAP2 POP PUSH2 0x35B0 JUMP JUMPDEST POP SWAP1 JUMP JUMPDEST JUMPDEST DUP1 DUP3 GT ISZERO PUSH2 0x35AC JUMPI PUSH1 0x0 DUP2 SSTORE PUSH1 0x1 ADD PUSH2 0x35B1 JUMP INVALID 0x4F PUSH24 0x6E61626C653A206E6577206F776E65722069732074686520 PUSH27 0x65726F206164647265737346656520737461676520617272617973 KECCAK256 PUSH14 0x75737420626520657175616C2069 PUSH15 0x206E6F6E2D7A65726F206C656E6774 PUSH9 0x20616E642074696D65 KECCAK256 PUSH20 0x686F756C6420737461727420617420302E6F7065 PUSH19 0x61746F723A207A65726F206164647265737320 PUSH8 0x6976656E20666F72 KECCAK256 PUSH15 0x6577206F70657261746F7253616665 0x4D PUSH2 0x7468 GASPRICE KECCAK256 PUSH14 0x756C7469706C69636174696F6E20 PUSH16 0x766572666C6F774F776E61626C653A20 PUSH4 0x616C6C65 PUSH19 0x206973206E6F7420746865206F776E65726361 PUSH13 0x6C6572206973206E6F74206175 PUSH21 0x686F72697A656400000000000000006F7065726174 PUSH16 0x723A2063616C6C6572206973206E6F74 KECCAK256 PUSH21 0x6865206F70657261746F725361666545524332303A KECCAK256 GASLIMIT MSTORE NUMBER ORIGIN ADDRESS KECCAK256 PUSH16 0x7065726174696F6E20646964206E6F74 KECCAK256 PUSH20 0x756363656564436F6E747261637447756172643A KECCAK256 PUSH16 0x6E6520626C6F636B2C206F6E65206675 PUSH15 0x6374696F6EA2646970667358221220 PUSH26 0x859400C5DAD826199D525A3EAD40176EE11CD8AE9244F54CFA60 CODECOPY 0xED 0xED EXTCODEHASH 0xCD PUSH5 0x736F6C6343 STOP MOD 0xC STOP CALLER BALANCE 0xEC 0xC2 BYTE PUSH21 0x5E3968A04E9570E4425BC18FA8019C68028196B546 0xD1 PUSH7 0x9C200C68536166 PUSH6 0x4D6174683A20 PUSH14 0x756C7469706C69636174696F6E20 PUSH16 0x766572666C6F77000000000000000000 "
		},
		"gasEstimates": {
			"creation": {
				"codeDepositCost": "2838400",
				"executionCost": "infinite",
				"totalCost": "infinite"
			},
			"external": {
				"FINISH_BONUS_AT_TIME()": "1088",
				"HALVING_AT_TIME(uint256)": "1997",
				"PERCENT_LOCK_BONUS_REWARD(uint256)": "2020",
				"REWARD_MULTIPLIER(uint256)": "2087",
				"add(uint256,address,bool,uint256)": "infinite",
				"addAuthorized(address)": "infinite",
				"authorized(address)": "1269",
				"baseTheoryPerSecond()": "1044",
				"bonusFinishUpdate(uint256)": "infinite",
				"deposit(uint256,uint256)": "infinite",
				"emergencyWithdraw(uint256)": "infinite",
				"feeStagePercentage(uint256)": "2019",
				"feeStageTime(uint256)": "1999",
				"forceMassUpdatePools()": "infinite",
				"forceUpdatePool(uint256)": "infinite",
				"getCurrentLockPercentage(uint256,address)": "infinite",
				"getGeneratedReward(uint256,uint256)": "infinite",
				"getLockPercentage(uint256,uint256)": "infinite",
				"getMultiplier(uint256,uint256)": "infinite",
				"getRequiredAllocation()": "infinite",
				"getTheoryPerSecondInPool(uint256)": "infinite",
				"getWithdrawFeeOf(uint256,address)": "infinite",
				"governanceRecoverUnsupported(address,uint256,address)": "infinite",
				"halvingUpdate(uint256[])": "infinite",
				"isOperator()": "1217",
				"lockUpdate(uint256[])": "infinite",
				"operator()": "1170",
				"owner()": "1126",
				"pendingShare(uint256,address)": "infinite",
				"poolEndTime()": "1132",
				"poolInfo(uint256)": "5425",
				"poolStartTime()": "1066",
				"removeAuthorized(address)": "infinite",
				"renounceOwnership()": "infinite",
				"reviseDeposit(uint256,address,uint256)": "infinite",
				"reviseWithdraw(uint256,address,uint256)": "infinite",
				"rewardMulUpdate(uint256[])": "infinite",
				"runningTime()": "1043",
				"sameBlockFee()": "1109",
				"set(uint256,uint256)": "infinite",
				"setFeeStages(uint256[],uint256[])": "infinite",
				"setPoolEndTime(uint256)": "infinite",
				"setPoolStartTime(uint256)": "infinite",
				"setSameBlockFee(uint256)": "infinite",
				"theory()": "1105",
				"totalAllocPoint()": "1133",
				"transferOperator(address)": "infinite",
				"transferOwnership(address)": "infinite",
				"treasury()": "1149",
				"userInfo(uint256,address)": "5521",
				"withdraw(uint256,uint256)": "infinite"
			},
			"internal": {
				"checkPoolDuplicate(contract IERC20)": "infinite",
				"massUpdatePools()": "infinite",
				"safeTheoryTransfer(address,uint256)": "infinite",
				"updatePool(uint256)": "infinite"
			}
		},
		"methodIdentifiers": {
			"FINISH_BONUS_AT_TIME()": "4abbbd28",
			"HALVING_AT_TIME(uint256)": "e5554e07",
			"PERCENT_LOCK_BONUS_REWARD(uint256)": "a82859c5",
			"REWARD_MULTIPLIER(uint256)": "2fda7735",
			"add(uint256,address,bool,uint256)": "96805e54",
			"addAuthorized(address)": "cf1c316a",
			"authorized(address)": "b9181611",
			"baseTheoryPerSecond()": "5ad96153",
			"bonusFinishUpdate(uint256)": "245b211d",
			"deposit(uint256,uint256)": "e2bbb158",
			"emergencyWithdraw(uint256)": "5312ea8e",
			"feeStagePercentage(uint256)": "ede87d61",
			"feeStageTime(uint256)": "23cf6d3e",
			"forceMassUpdatePools()": "00269cb6",
			"forceUpdatePool(uint256)": "3cf6259d",
			"getCurrentLockPercentage(uint256,address)": "7d3de840",
			"getGeneratedReward(uint256,uint256)": "231f0c6a",
			"getLockPercentage(uint256,uint256)": "f930e770",
			"getMultiplier(uint256,uint256)": "8dbb1e3a",
			"getRequiredAllocation()": "ac60574e",
			"getTheoryPerSecondInPool(uint256)": "4c7bc854",
			"getWithdrawFeeOf(uint256,address)": "cbd56547",
			"governanceRecoverUnsupported(address,uint256,address)": "54575af4",
			"halvingUpdate(uint256[])": "354affb7",
			"isOperator()": "4456eda2",
			"lockUpdate(uint256[])": "27e68928",
			"operator()": "570ca735",
			"owner()": "8da5cb5b",
			"pendingShare(uint256,address)": "cf4b55cb",
			"poolEndTime()": "6e271dd5",
			"poolInfo(uint256)": "1526fe27",
			"poolStartTime()": "5f96dc11",
			"removeAuthorized(address)": "485d7d94",
			"renounceOwnership()": "715018a6",
			"reviseDeposit(uint256,address,uint256)": "82386d58",
			"reviseWithdraw(uint256,address,uint256)": "6066debd",
			"rewardMulUpdate(uint256[])": "46664064",
			"runningTime()": "943f013d",
			"sameBlockFee()": "5603534e",
			"set(uint256,uint256)": "1ab06ee5",
			"setFeeStages(uint256[],uint256[])": "085ed718",
			"setPoolEndTime(uint256)": "15f74a4d",
			"setPoolStartTime(uint256)": "75d323fe",
			"setSameBlockFee(uint256)": "719bf9f8",
			"theory()": "3c32a450",
			"totalAllocPoint()": "17caf6f1",
			"transferOperator(address)": "29605e77",
			"transferOwnership(address)": "f2fde38b",
			"treasury()": "61d027b3",
			"userInfo(uint256,address)": "93f1a40b",
			"withdraw(uint256,uint256)": "441a3e70"
		}
	},
	"abi": [
		{
			"inputs": [
				{
					"internalType": "address",
					"name": "_theory",
					"type": "address"
				},
				{
					"internalType": "contract ITreasury",
					"name": "_treasury",
					"type": "address"
				},
				{
					"internalType": "uint256",
					"name": "_poolStartTime",
					"type": "uint256"
				},
				{
					"internalType": "uint256",
					"name": "_halvingAfterTime",
					"type": "uint256"
				},
				{
					"internalType": "uint256[]",
					"name": "_rewardMultiplier",
					"type": "uint256[]"
				},
				{
					"internalType": "uint256[]",
					"name": "_percentLockBonusRewards",
					"type": "uint256[]"
				}
			],
			"stateMutability": "nonpayable",
			"type": "constructor"
		},
		{
			"anonymous": false,
			"inputs": [
				{
					"indexed": true,
					"internalType": "address",
					"name": "user",
					"type": "address"
				},
				{
					"indexed": true,
					"internalType": "uint256",
					"name": "pid",
					"type": "uint256"
				},
				{
					"indexed": false,
					"internalType": "uint256",
					"name": "amount",
					"type": "uint256"
				}
			],
			"name": "Deposit",
			"type": "event"
		},
		{
			"anonymous": false,
			"inputs": [
				{
					"indexed": true,
					"internalType": "address",
					"name": "user",
					"type": "address"
				},
				{
					"indexed": true,
					"internalType": "uint256",
					"name": "pid",
					"type": "uint256"
				},
				{
					"indexed": false,
					"internalType": "uint256",
					"name": "amount",
					"type": "uint256"
				}
			],
			"name": "EmergencyWithdraw",
			"type": "event"
		},
		{
			"anonymous": false,
			"inputs": [
				{
					"indexed": true,
					"internalType": "address",
					"name": "previousOperator",
					"type": "address"
				},
				{
					"indexed": true,
					"internalType": "address",
					"name": "newOperator",
					"type": "address"
				}
			],
			"name": "OperatorTransferred",
			"type": "event"
		},
		{
			"anonymous": false,
			"inputs": [
				{
					"indexed": true,
					"internalType": "address",
					"name": "previousOwner",
					"type": "address"
				},
				{
					"indexed": true,
					"internalType": "address",
					"name": "newOwner",
					"type": "address"
				}
			],
			"name": "OwnershipTransferred",
			"type": "event"
		},
		{
			"anonymous": false,
			"inputs": [
				{
					"indexed": true,
					"internalType": "address",
					"name": "user",
					"type": "address"
				},
				{
					"indexed": false,
					"internalType": "uint256",
					"name": "amount",
					"type": "uint256"
				},
				{
					"indexed": false,
					"internalType": "uint256",
					"name": "lockAmount",
					"type": "uint256"
				}
			],
			"name": "RewardPaid",
			"type": "event"
		},
		{
			"anonymous": false,
			"inputs": [
				{
					"indexed": true,
					"internalType": "address",
					"name": "user",
					"type": "address"
				},
				{
					"indexed": true,
					"internalType": "uint256",
					"name": "pid",
					"type": "uint256"
				},
				{
					"indexed": false,
					"internalType": "uint256",
					"name": "amount",
					"type": "uint256"
				}
			],
			"name": "Withdraw",
			"type": "event"
		},
		{
			"inputs": [],
			"name": "FINISH_BONUS_AT_TIME",
			"outputs": [
				{
					"internalType": "uint256",
					"name": "",
					"type": "uint256"
				}
			],
			"stateMutability": "view",
			"type": "function"
		},
		{
			"inputs": [
				{
					"internalType": "uint256",
					"name": "",
					"type": "uint256"
				}
			],
			"name": "HALVING_AT_TIME",
			"outputs": [
				{
					"internalType": "uint256",
					"name": "",
					"type": "uint256"
				}
			],
			"stateMutability": "view",
			"type": "function"
		},
		{
			"inputs": [
				{
					"internalType": "uint256",
					"name": "",
					"type": "uint256"
				}
			],
			"name": "PERCENT_LOCK_BONUS_REWARD",
			"outputs": [
				{
					"internalType": "uint256",
					"name": "",
					"type": "uint256"
				}
			],
			"stateMutability": "view",
			"type": "function"
		},
		{
			"inputs": [
				{
					"internalType": "uint256",
					"name": "",
					"type": "uint256"
				}
			],
			"name": "REWARD_MULTIPLIER",
			"outputs": [
				{
					"internalType": "uint256",
					"name": "",
					"type": "uint256"
				}
			],
			"stateMutability": "view",
			"type": "function"
		},
		{
			"inputs": [
				{
					"internalType": "uint256",
					"name": "_allocPoint",
					"type": "uint256"
				},
				{
					"internalType": "contract IERC20",
					"name": "_token",
					"type": "address"
				},
				{
					"internalType": "bool",
					"name": "_withUpdate",
					"type": "bool"
				},
				{
					"internalType": "uint256",
					"name": "_lastRewardTime",
					"type": "uint256"
				}
			],
			"name": "add",
			"outputs": [],
			"stateMutability": "nonpayable",
			"type": "function"
		},
		{
			"inputs": [
				{
					"internalType": "address",
					"name": "_toAdd",
					"type": "address"
				}
			],
			"name": "addAuthorized",
			"outputs": [],
			"stateMutability": "nonpayable",
			"type": "function"
		},
		{
			"inputs": [
				{
					"internalType": "address",
					"name": "",
					"type": "address"
				}
			],
			"name": "authorized",
			"outputs": [
				{
					"internalType": "bool",
					"name": "",
					"type": "bool"
				}
			],
			"stateMutability": "view",
			"type": "function"
		},
		{
			"inputs": [],
			"name": "baseTheoryPerSecond",
			"outputs": [
				{
					"internalType": "uint256",
					"name": "",
					"type": "uint256"
				}
			],
			"stateMutability": "view",
			"type": "function"
		},
		{
			"inputs": [
				{
					"internalType": "uint256",
					"name": "_newFinish",
					"type": "uint256"
				}
			],
			"name": "bonusFinishUpdate",
			"outputs": [],
			"stateMutability": "nonpayable",
			"type": "function"
		},
		{
			"inputs": [
				{
					"internalType": "uint256",
					"name": "_pid",
					"type": "uint256"
				},
				{
					"internalType": "uint256",
					"name": "_amount",
					"type": "uint256"
				}
			],
			"name": "deposit",
			"outputs": [],
			"stateMutability": "nonpayable",
			"type": "function"
		},
		{
			"inputs": [
				{
					"internalType": "uint256",
					"name": "_pid",
					"type": "uint256"
				}
			],
			"name": "emergencyWithdraw",
			"outputs": [],
			"stateMutability": "nonpayable",
			"type": "function"
		},
		{
			"inputs": [
				{
					"internalType": "uint256",
					"name": "",
					"type": "uint256"
				}
			],
			"name": "feeStagePercentage",
			"outputs": [
				{
					"internalType": "uint256",
					"name": "",
					"type": "uint256"
				}
			],
			"stateMutability": "view",
			"type": "function"
		},
		{
			"inputs": [
				{
					"internalType": "uint256",
					"name": "",
					"type": "uint256"
				}
			],
			"name": "feeStageTime",
			"outputs": [
				{
					"internalType": "uint256",
					"name": "",
					"type": "uint256"
				}
			],
			"stateMutability": "view",
			"type": "function"
		},
		{
			"inputs": [],
			"name": "forceMassUpdatePools",
			"outputs": [],
			"stateMutability": "nonpayable",
			"type": "function"
		},
		{
			"inputs": [
				{
					"internalType": "uint256",
					"name": "_pid",
					"type": "uint256"
				}
			],
			"name": "forceUpdatePool",
			"outputs": [],
			"stateMutability": "nonpayable",
			"type": "function"
		},
		{
			"inputs": [
				{
					"internalType": "uint256",
					"name": "_pid",
					"type": "uint256"
				},
				{
					"internalType": "address",
					"name": "_user",
					"type": "address"
				}
			],
			"name": "getCurrentLockPercentage",
			"outputs": [
				{
					"internalType": "uint256",
					"name": "",
					"type": "uint256"
				}
			],
			"stateMutability": "view",
			"type": "function"
		},
		{
			"inputs": [
				{
					"internalType": "uint256",
					"name": "_fromTime",
					"type": "uint256"
				},
				{
					"internalType": "uint256",
					"name": "_toTime",
					"type": "uint256"
				}
			],
			"name": "getGeneratedReward",
			"outputs": [
				{
					"internalType": "uint256",
					"name": "",
					"type": "uint256"
				}
			],
			"stateMutability": "view",
			"type": "function"
		},
		{
			"inputs": [
				{
					"internalType": "uint256",
					"name": "_from",
					"type": "uint256"
				},
				{
					"internalType": "uint256",
					"name": "_to",
					"type": "uint256"
				}
			],
			"name": "getLockPercentage",
			"outputs": [
				{
					"internalType": "uint256",
					"name": "",
					"type": "uint256"
				}
			],
			"stateMutability": "view",
			"type": "function"
		},
		{
			"inputs": [
				{
					"internalType": "uint256",
					"name": "_from",
					"type": "uint256"
				},
				{
					"internalType": "uint256",
					"name": "_to",
					"type": "uint256"
				}
			],
			"name": "getMultiplier",
			"outputs": [
				{
					"internalType": "uint256",
					"name": "",
					"type": "uint256"
				}
			],
			"stateMutability": "view",
			"type": "function"
		},
		{
			"inputs": [],
			"name": "getRequiredAllocation",
			"outputs": [
				{
					"internalType": "uint256",
					"name": "",
					"type": "uint256"
				}
			],
			"stateMutability": "view",
			"type": "function"
		},
		{
			"inputs": [
				{
					"internalType": "uint256",
					"name": "_pid",
					"type": "uint256"
				}
			],
			"name": "getTheoryPerSecondInPool",
			"outputs": [
				{
					"internalType": "uint256",
					"name": "",
					"type": "uint256"
				}
			],
			"stateMutability": "view",
			"type": "function"
		},
		{
			"inputs": [
				{
					"internalType": "uint256",
					"name": "_pid",
					"type": "uint256"
				},
				{
					"internalType": "address",
					"name": "_user",
					"type": "address"
				}
			],
			"name": "getWithdrawFeeOf",
			"outputs": [
				{
					"internalType": "uint256",
					"name": "",
					"type": "uint256"
				}
			],
			"stateMutability": "view",
			"type": "function"
		},
		{
			"inputs": [
				{
					"internalType": "contract IERC20",
					"name": "_token",
					"type": "address"
				},
				{
					"internalType": "uint256",
					"name": "amount",
					"type": "uint256"
				},
				{
					"internalType": "address",
					"name": "to",
					"type": "address"
				}
			],
			"name": "governanceRecoverUnsupported",
			"outputs": [],
			"stateMutability": "nonpayable",
			"type": "function"
		},
		{
			"inputs": [
				{
					"internalType": "uint256[]",
					"name": "_newHalving",
					"type": "uint256[]"
				}
			],
			"name": "halvingUpdate",
			"outputs": [],
			"stateMutability": "nonpayable",
			"type": "function"
		},
		{
			"inputs": [],
			"name": "isOperator",
			"outputs": [
				{
					"internalType": "bool",
					"name": "",
					"type": "bool"
				}
			],
			"stateMutability": "view",
			"type": "function"
		},
		{
			"inputs": [
				{
					"internalType": "uint256[]",
					"name": "_newLock",
					"type": "uint256[]"
				}
			],
			"name": "lockUpdate",
			"outputs": [],
			"stateMutability": "nonpayable",
			"type": "function"
		},
		{
			"inputs": [],
			"name": "operator",
			"outputs": [
				{
					"internalType": "address",
					"name": "",
					"type": "address"
				}
			],
			"stateMutability": "view",
			"type": "function"
		},
		{
			"inputs": [],
			"name": "owner",
			"outputs": [
				{
					"internalType": "address",
					"name": "",
					"type": "address"
				}
			],
			"stateMutability": "view",
			"type": "function"
		},
		{
			"inputs": [
				{
					"internalType": "uint256",
					"name": "_pid",
					"type": "uint256"
				},
				{
					"internalType": "address",
					"name": "_user",
					"type": "address"
				}
			],
			"name": "pendingShare",
			"outputs": [
				{
					"internalType": "uint256",
					"name": "",
					"type": "uint256"
				}
			],
			"stateMutability": "view",
			"type": "function"
		},
		{
			"inputs": [],
			"name": "poolEndTime",
			"outputs": [
				{
					"internalType": "uint256",
					"name": "",
					"type": "uint256"
				}
			],
			"stateMutability": "view",
			"type": "function"
		},
		{
			"inputs": [
				{
					"internalType": "uint256",
					"name": "",
					"type": "uint256"
				}
			],
			"name": "poolInfo",
			"outputs": [
				{
					"internalType": "contract IERC20",
					"name": "token",
					"type": "address"
				},
				{
					"internalType": "uint256",
					"name": "allocPoint",
					"type": "uint256"
				},
				{
					"internalType": "uint256",
					"name": "lastRewardTime",
					"type": "uint256"
				},
				{
					"internalType": "uint256",
					"name": "accTheoryPerShare",
					"type": "uint256"
				},
				{
					"internalType": "bool",
					"name": "isStarted",
					"type": "bool"
				}
			],
			"stateMutability": "view",
			"type": "function"
		},
		{
			"inputs": [],
			"name": "poolStartTime",
			"outputs": [
				{
					"internalType": "uint256",
					"name": "",
					"type": "uint256"
				}
			],
			"stateMutability": "view",
			"type": "function"
		},
		{
			"inputs": [
				{
					"internalType": "address",
					"name": "_toRemove",
					"type": "address"
				}
			],
			"name": "removeAuthorized",
			"outputs": [],
			"stateMutability": "nonpayable",
			"type": "function"
		},
		{
			"inputs": [],
			"name": "renounceOwnership",
			"outputs": [],
			"stateMutability": "nonpayable",
			"type": "function"
		},
		{
			"inputs": [
				{
					"internalType": "uint256",
					"name": "_pid",
					"type": "uint256"
				},
				{
					"internalType": "address",
					"name": "_user",
					"type": "address"
				},
				{
					"internalType": "uint256",
					"name": "_time",
					"type": "uint256"
				}
			],
			"name": "reviseDeposit",
			"outputs": [],
			"stateMutability": "nonpayable",
			"type": "function"
		},
		{
			"inputs": [
				{
					"internalType": "uint256",
					"name": "_pid",
					"type": "uint256"
				},
				{
					"internalType": "address",
					"name": "_user",
					"type": "address"
				},
				{
					"internalType": "uint256",
					"name": "_time",
					"type": "uint256"
				}
			],
			"name": "reviseWithdraw",
			"outputs": [],
			"stateMutability": "nonpayable",
			"type": "function"
		},
		{
			"inputs": [
				{
					"internalType": "uint256[]",
					"name": "_newMulReward",
					"type": "uint256[]"
				}
			],
			"name": "rewardMulUpdate",
			"outputs": [],
			"stateMutability": "nonpayable",
			"type": "function"
		},
		{
			"inputs": [],
			"name": "runningTime",
			"outputs": [
				{
					"internalType": "uint256",
					"name": "",
					"type": "uint256"
				}
			],
			"stateMutability": "view",
			"type": "function"
		},
		{
			"inputs": [],
			"name": "sameBlockFee",
			"outputs": [
				{
					"internalType": "uint256",
					"name": "",
					"type": "uint256"
				}
			],
			"stateMutability": "view",
			"type": "function"
		},
		{
			"inputs": [
				{
					"internalType": "uint256",
					"name": "_pid",
					"type": "uint256"
				},
				{
					"internalType": "uint256",
					"name": "_allocPoint",
					"type": "uint256"
				}
			],
			"name": "set",
			"outputs": [],
			"stateMutability": "nonpayable",
			"type": "function"
		},
		{
			"inputs": [
				{
					"internalType": "uint256[]",
					"name": "_feeStageTime",
					"type": "uint256[]"
				},
				{
					"internalType": "uint256[]",
					"name": "_feeStagePercentage",
					"type": "uint256[]"
				}
			],
			"name": "setFeeStages",
			"outputs": [],
			"stateMutability": "nonpayable",
			"type": "function"
		},
		{
			"inputs": [
				{
					"internalType": "uint256",
					"name": "_time",
					"type": "uint256"
				}
			],
			"name": "setPoolEndTime",
			"outputs": [],
			"stateMutability": "nonpayable",
			"type": "function"
		},
		{
			"inputs": [
				{
					"internalType": "uint256",
					"name": "_time",
					"type": "uint256"
				}
			],
			"name": "setPoolStartTime",
			"outputs": [],
			"stateMutability": "nonpayable",
			"type": "function"
		},
		{
			"inputs": [
				{
					"internalType": "uint256",
					"name": "_fee",
					"type": "uint256"
				}
			],
			"name": "setSameBlockFee",
			"outputs": [],
			"stateMutability": "nonpayable",
			"type": "function"
		},
		{
			"inputs": [],
			"name": "theory",
			"outputs": [
				{
					"internalType": "contract IERC20Lockable",
					"name": "",
					"type": "address"
				}
			],
			"stateMutability": "view",
			"type": "function"
		},
		{
			"inputs": [],
			"name": "totalAllocPoint",
			"outputs": [
				{
					"internalType": "uint256",
					"name": "",
					"type": "uint256"
				}
			],
			"stateMutability": "view",
			"type": "function"
		},
		{
			"inputs": [
				{
					"internalType": "address",
					"name": "newOperator_",
					"type": "address"
				}
			],
			"name": "transferOperator",
			"outputs": [],
			"stateMutability": "nonpayable",
			"type": "function"
		},
		{
			"inputs": [
				{
					"internalType": "address",
					"name": "newOwner",
					"type": "address"
				}
			],
			"name": "transferOwnership",
			"outputs": [],
			"stateMutability": "nonpayable",
			"type": "function"
		},
		{
			"inputs": [],
			"name": "treasury",
			"outputs": [
				{
					"internalType": "contract ITreasury",
					"name": "",
					"type": "address"
				}
			],
			"stateMutability": "view",
			"type": "function"
		},
		{
			"inputs": [
				{
					"internalType": "uint256",
					"name": "",
					"type": "uint256"
				},
				{
					"internalType": "address",
					"name": "",
					"type": "address"
				}
			],
			"name": "userInfo",
			"outputs": [
				{
					"internalType": "uint256",
					"name": "amount",
					"type": "uint256"
				},
				{
					"internalType": "uint256",
					"name": "rewardDebt",
					"type": "uint256"
				},
				{
					"internalType": "uint256",
					"name": "rewardDebtAtTime",
					"type": "uint256"
				},
				{
					"internalType": "uint256",
					"name": "lastDepositBlock",
					"type": "uint256"
				},
				{
					"internalType": "uint256",
					"name": "lastWithdrawTime",
					"type": "uint256"
				},
				{
					"internalType": "uint256",
					"name": "firstDepositTime",
					"type": "uint256"
				}
			],
			"stateMutability": "view",
			"type": "function"
		},
		{
			"inputs": [
				{
					"internalType": "uint256",
					"name": "_pid",
					"type": "uint256"
				},
				{
					"internalType": "uint256",
					"name": "_amount",
					"type": "uint256"
				}
			],
			"name": "withdraw",
			"outputs": [],
			"stateMutability": "nonpayable",
			"type": "function"
		}
	]
}