{
  "_format": "hh-sol-artifact-1",
  "contractName": "TheoryRewardPool",
  "sourceName": "contracts/distribution/TheoryRewardPool.sol",
  "abi": [
    {
      "inputs": [
        {
          "internalType": "address",
          "name": "_theory",
          "type": "address"
        },
        {
          "internalType": "contract ITreasury",
          "name": "_treasury",
          "type": "address"
        },
        {
          "internalType": "uint256",
          "name": "_poolStartTime",
          "type": "uint256"
        },
        {
          "internalType": "uint256",
          "name": "_halvingAfterTime",
          "type": "uint256"
        },
        {
          "internalType": "uint256[]",
          "name": "_rewardMultiplier",
          "type": "uint256[]"
        },
        {
          "internalType": "uint256[]",
          "name": "_percentLockBonusRewards",
          "type": "uint256[]"
        }
      ],
      "stateMutability": "nonpayable",
      "type": "constructor"
    },
    {
      "anonymous": false,
      "inputs": [
        {
          "indexed": true,
          "internalType": "address",
          "name": "user",
          "type": "address"
        },
        {
          "indexed": true,
          "internalType": "uint256",
          "name": "pid",
          "type": "uint256"
        },
        {
          "indexed": false,
          "internalType": "uint256",
          "name": "amount",
          "type": "uint256"
        }
      ],
      "name": "Deposit",
      "type": "event"
    },
    {
      "anonymous": false,
      "inputs": [
        {
          "indexed": true,
          "internalType": "address",
          "name": "user",
          "type": "address"
        },
        {
          "indexed": true,
          "internalType": "uint256",
          "name": "pid",
          "type": "uint256"
        },
        {
          "indexed": false,
          "internalType": "uint256",
          "name": "amount",
          "type": "uint256"
        }
      ],
      "name": "EmergencyWithdraw",
      "type": "event"
    },
    {
      "anonymous": false,
      "inputs": [
        {
          "indexed": true,
          "internalType": "address",
          "name": "previousOperator",
          "type": "address"
        },
        {
          "indexed": true,
          "internalType": "address",
          "name": "newOperator",
          "type": "address"
        }
      ],
      "name": "OperatorTransferred",
      "type": "event"
    },
    {
      "anonymous": false,
      "inputs": [
        {
          "indexed": true,
          "internalType": "address",
          "name": "previousOwner",
          "type": "address"
        },
        {
          "indexed": true,
          "internalType": "address",
          "name": "newOwner",
          "type": "address"
        }
      ],
      "name": "OwnershipTransferred",
      "type": "event"
    },
    {
      "anonymous": false,
      "inputs": [
        {
          "indexed": true,
          "internalType": "address",
          "name": "user",
          "type": "address"
        },
        {
          "indexed": false,
          "internalType": "uint256",
          "name": "amount",
          "type": "uint256"
        },
        {
          "indexed": false,
          "internalType": "uint256",
          "name": "lockAmount",
          "type": "uint256"
        }
      ],
      "name": "RewardPaid",
      "type": "event"
    },
    {
      "anonymous": false,
      "inputs": [
        {
          "indexed": true,
          "internalType": "address",
          "name": "user",
          "type": "address"
        },
        {
          "indexed": true,
          "internalType": "uint256",
          "name": "pid",
          "type": "uint256"
        },
        {
          "indexed": false,
          "internalType": "uint256",
          "name": "amount",
          "type": "uint256"
        }
      ],
      "name": "Withdraw",
      "type": "event"
    },
    {
      "inputs": [],
      "name": "FINISH_BONUS_AT_TIME",
      "outputs": [
        {
          "internalType": "uint256",
          "name": "",
          "type": "uint256"
        }
      ],
      "stateMutability": "view",
      "type": "function"
    },
    {
      "inputs": [
        {
          "internalType": "uint256",
          "name": "",
          "type": "uint256"
        }
      ],
      "name": "HALVING_AT_TIME",
      "outputs": [
        {
          "internalType": "uint256",
          "name": "",
          "type": "uint256"
        }
      ],
      "stateMutability": "view",
      "type": "function"
    },
    {
      "inputs": [
        {
          "internalType": "uint256",
          "name": "",
          "type": "uint256"
        }
      ],
      "name": "PERCENT_LOCK_BONUS_REWARD",
      "outputs": [
        {
          "internalType": "uint256",
          "name": "",
          "type": "uint256"
        }
      ],
      "stateMutability": "view",
      "type": "function"
    },
    {
      "inputs": [
        {
          "internalType": "uint256",
          "name": "",
          "type": "uint256"
        }
      ],
      "name": "REWARD_MULTIPLIER",
      "outputs": [
        {
          "internalType": "uint256",
          "name": "",
          "type": "uint256"
        }
      ],
      "stateMutability": "view",
      "type": "function"
    },
    {
      "inputs": [
        {
          "internalType": "uint256",
          "name": "_allocPoint",
          "type": "uint256"
        },
        {
          "internalType": "contract IERC20",
          "name": "_token",
          "type": "address"
        },
        {
          "internalType": "bool",
          "name": "_withUpdate",
          "type": "bool"
        },
        {
          "internalType": "uint256",
          "name": "_lastRewardTime",
          "type": "uint256"
        }
      ],
      "name": "add",
      "outputs": [],
      "stateMutability": "nonpayable",
      "type": "function"
    },
    {
      "inputs": [
        {
          "internalType": "address",
          "name": "_toAdd",
          "type": "address"
        }
      ],
      "name": "addAuthorized",
      "outputs": [],
      "stateMutability": "nonpayable",
      "type": "function"
    },
    {
      "inputs": [
        {
          "internalType": "address",
          "name": "",
          "type": "address"
        }
      ],
      "name": "authorized",
      "outputs": [
        {
          "internalType": "bool",
          "name": "",
          "type": "bool"
        }
      ],
      "stateMutability": "view",
      "type": "function"
    },
    {
      "inputs": [],
      "name": "baseTheoryPerSecond",
      "outputs": [
        {
          "internalType": "uint256",
          "name": "",
          "type": "uint256"
        }
      ],
      "stateMutability": "view",
      "type": "function"
    },
    {
      "inputs": [
        {
          "internalType": "uint256",
          "name": "_newFinish",
          "type": "uint256"
        }
      ],
      "name": "bonusFinishUpdate",
      "outputs": [],
      "stateMutability": "nonpayable",
      "type": "function"
    },
    {
      "inputs": [
        {
          "internalType": "uint256",
          "name": "_pid",
          "type": "uint256"
        },
        {
          "internalType": "uint256",
          "name": "_amount",
          "type": "uint256"
        }
      ],
      "name": "deposit",
      "outputs": [],
      "stateMutability": "nonpayable",
      "type": "function"
    },
    {
      "inputs": [
        {
          "internalType": "uint256",
          "name": "_pid",
          "type": "uint256"
        }
      ],
      "name": "emergencyWithdraw",
      "outputs": [],
      "stateMutability": "nonpayable",
      "type": "function"
    },
    {
      "inputs": [
        {
          "internalType": "uint256",
          "name": "",
          "type": "uint256"
        }
      ],
      "name": "feeStagePercentage",
      "outputs": [
        {
          "internalType": "uint256",
          "name": "",
          "type": "uint256"
        }
      ],
      "stateMutability": "view",
      "type": "function"
    },
    {
      "inputs": [
        {
          "internalType": "uint256",
          "name": "",
          "type": "uint256"
        }
      ],
      "name": "feeStageTime",
      "outputs": [
        {
          "internalType": "uint256",
          "name": "",
          "type": "uint256"
        }
      ],
      "stateMutability": "view",
      "type": "function"
    },
    {
      "inputs": [],
      "name": "forceMassUpdatePools",
      "outputs": [],
      "stateMutability": "nonpayable",
      "type": "function"
    },
    {
      "inputs": [
        {
          "internalType": "uint256",
          "name": "_pid",
          "type": "uint256"
        }
      ],
      "name": "forceUpdatePool",
      "outputs": [],
      "stateMutability": "nonpayable",
      "type": "function"
    },
    {
      "inputs": [
        {
          "internalType": "uint256",
          "name": "_pid",
          "type": "uint256"
        },
        {
          "internalType": "address",
          "name": "_user",
          "type": "address"
        }
      ],
      "name": "getCurrentLockPercentage",
      "outputs": [
        {
          "internalType": "uint256",
          "name": "",
          "type": "uint256"
        }
      ],
      "stateMutability": "view",
      "type": "function"
    },
    {
      "inputs": [
        {
          "internalType": "uint256",
          "name": "_fromTime",
          "type": "uint256"
        },
        {
          "internalType": "uint256",
          "name": "_toTime",
          "type": "uint256"
        }
      ],
      "name": "getGeneratedReward",
      "outputs": [
        {
          "internalType": "uint256",
          "name": "",
          "type": "uint256"
        }
      ],
      "stateMutability": "view",
      "type": "function"
    },
    {
      "inputs": [
        {
          "internalType": "uint256",
          "name": "_from",
          "type": "uint256"
        },
        {
          "internalType": "uint256",
          "name": "_to",
          "type": "uint256"
        }
      ],
      "name": "getLockPercentage",
      "outputs": [
        {
          "internalType": "uint256",
          "name": "",
          "type": "uint256"
        }
      ],
      "stateMutability": "view",
      "type": "function"
    },
    {
      "inputs": [
        {
          "internalType": "uint256",
          "name": "_from",
          "type": "uint256"
        },
        {
          "internalType": "uint256",
          "name": "_to",
          "type": "uint256"
        }
      ],
      "name": "getMultiplier",
      "outputs": [
        {
          "internalType": "uint256",
          "name": "",
          "type": "uint256"
        }
      ],
      "stateMutability": "view",
      "type": "function"
    },
    {
      "inputs": [],
      "name": "getRequiredAllocation",
      "outputs": [
        {
          "internalType": "uint256",
          "name": "",
          "type": "uint256"
        }
      ],
      "stateMutability": "view",
      "type": "function"
    },
    {
      "inputs": [
        {
          "internalType": "uint256",
          "name": "_pid",
          "type": "uint256"
        }
      ],
      "name": "getTheoryPerSecondInPool",
      "outputs": [
        {
          "internalType": "uint256",
          "name": "",
          "type": "uint256"
        }
      ],
      "stateMutability": "view",
      "type": "function"
    },
    {
      "inputs": [
        {
          "internalType": "uint256",
          "name": "_pid",
          "type": "uint256"
        },
        {
          "internalType": "address",
          "name": "_user",
          "type": "address"
        }
      ],
      "name": "getWithdrawFeeOf",
      "outputs": [
        {
          "internalType": "uint256",
          "name": "",
          "type": "uint256"
        }
      ],
      "stateMutability": "view",
      "type": "function"
    },
    {
      "inputs": [
        {
          "internalType": "contract IERC20",
          "name": "_token",
          "type": "address"
        },
        {
          "internalType": "uint256",
          "name": "amount",
          "type": "uint256"
        },
        {
          "internalType": "address",
          "name": "to",
          "type": "address"
        }
      ],
      "name": "governanceRecoverUnsupported",
      "outputs": [],
      "stateMutability": "nonpayable",
      "type": "function"
    },
    {
      "inputs": [
        {
          "internalType": "uint256[]",
          "name": "_newHalving",
          "type": "uint256[]"
        }
      ],
      "name": "halvingUpdate",
      "outputs": [],
      "stateMutability": "nonpayable",
      "type": "function"
    },
    {
      "inputs": [],
      "name": "isOperator",
      "outputs": [
        {
          "internalType": "bool",
          "name": "",
          "type": "bool"
        }
      ],
      "stateMutability": "view",
      "type": "function"
    },
    {
      "inputs": [
        {
          "internalType": "uint256[]",
          "name": "_newLock",
          "type": "uint256[]"
        }
      ],
      "name": "lockUpdate",
      "outputs": [],
      "stateMutability": "nonpayable",
      "type": "function"
    },
    {
      "inputs": [],
      "name": "operator",
      "outputs": [
        {
          "internalType": "address",
          "name": "",
          "type": "address"
        }
      ],
      "stateMutability": "view",
      "type": "function"
    },
    {
      "inputs": [],
      "name": "owner",
      "outputs": [
        {
          "internalType": "address",
          "name": "",
          "type": "address"
        }
      ],
      "stateMutability": "view",
      "type": "function"
    },
    {
      "inputs": [
        {
          "internalType": "uint256",
          "name": "_pid",
          "type": "uint256"
        },
        {
          "internalType": "address",
          "name": "_user",
          "type": "address"
        }
      ],
      "name": "pendingShare",
      "outputs": [
        {
          "internalType": "uint256",
          "name": "",
          "type": "uint256"
        }
      ],
      "stateMutability": "view",
      "type": "function"
    },
    {
      "inputs": [],
      "name": "poolEndTime",
      "outputs": [
        {
          "internalType": "uint256",
          "name": "",
          "type": "uint256"
        }
      ],
      "stateMutability": "view",
      "type": "function"
    },
    {
      "inputs": [
        {
          "internalType": "uint256",
          "name": "",
          "type": "uint256"
        }
      ],
      "name": "poolInfo",
      "outputs": [
        {
          "internalType": "contract IERC20",
          "name": "token",
          "type": "address"
        },
        {
          "internalType": "uint256",
          "name": "allocPoint",
          "type": "uint256"
        },
        {
          "internalType": "uint256",
          "name": "lastRewardTime",
          "type": "uint256"
        },
        {
          "internalType": "uint256",
          "name": "accTheoryPerShare",
          "type": "uint256"
        },
        {
          "internalType": "bool",
          "name": "isStarted",
          "type": "bool"
        }
      ],
      "stateMutability": "view",
      "type": "function"
    },
    {
      "inputs": [],
      "name": "poolStartTime",
      "outputs": [
        {
          "internalType": "uint256",
          "name": "",
          "type": "uint256"
        }
      ],
      "stateMutability": "view",
      "type": "function"
    },
    {
      "inputs": [
        {
          "internalType": "address",
          "name": "_toRemove",
          "type": "address"
        }
      ],
      "name": "removeAuthorized",
      "outputs": [],
      "stateMutability": "nonpayable",
      "type": "function"
    },
    {
      "inputs": [],
      "name": "renounceOwnership",
      "outputs": [],
      "stateMutability": "nonpayable",
      "type": "function"
    },
    {
      "inputs": [
        {
          "internalType": "uint256",
          "name": "_pid",
          "type": "uint256"
        },
        {
          "internalType": "address",
          "name": "_user",
          "type": "address"
        },
        {
          "internalType": "uint256",
          "name": "_time",
          "type": "uint256"
        }
      ],
      "name": "reviseDeposit",
      "outputs": [],
      "stateMutability": "nonpayable",
      "type": "function"
    },
    {
      "inputs": [
        {
          "internalType": "uint256",
          "name": "_pid",
          "type": "uint256"
        },
        {
          "internalType": "address",
          "name": "_user",
          "type": "address"
        },
        {
          "internalType": "uint256",
          "name": "_time",
          "type": "uint256"
        }
      ],
      "name": "reviseWithdraw",
      "outputs": [],
      "stateMutability": "nonpayable",
      "type": "function"
    },
    {
      "inputs": [
        {
          "internalType": "uint256[]",
          "name": "_newMulReward",
          "type": "uint256[]"
        }
      ],
      "name": "rewardMulUpdate",
      "outputs": [],
      "stateMutability": "nonpayable",
      "type": "function"
    },
    {
      "inputs": [],
      "name": "runningTime",
      "outputs": [
        {
          "internalType": "uint256",
          "name": "",
          "type": "uint256"
        }
      ],
      "stateMutability": "view",
      "type": "function"
    },
    {
      "inputs": [],
      "name": "sameBlockFee",
      "outputs": [
        {
          "internalType": "uint256",
          "name": "",
          "type": "uint256"
        }
      ],
      "stateMutability": "view",
      "type": "function"
    },
    {
      "inputs": [
        {
          "internalType": "uint256",
          "name": "_pid",
          "type": "uint256"
        },
        {
          "internalType": "uint256",
          "name": "_allocPoint",
          "type": "uint256"
        }
      ],
      "name": "set",
      "outputs": [],
      "stateMutability": "nonpayable",
      "type": "function"
    },
    {
      "inputs": [
        {
          "internalType": "uint256[]",
          "name": "_feeStageTime",
          "type": "uint256[]"
        },
        {
          "internalType": "uint256[]",
          "name": "_feeStagePercentage",
          "type": "uint256[]"
        }
      ],
      "name": "setFeeStages",
      "outputs": [],
      "stateMutability": "nonpayable",
      "type": "function"
    },
    {
      "inputs": [
        {
          "internalType": "uint256",
          "name": "_time",
          "type": "uint256"
        }
      ],
      "name": "setPoolEndTime",
      "outputs": [],
      "stateMutability": "nonpayable",
      "type": "function"
    },
    {
      "inputs": [
        {
          "internalType": "uint256",
          "name": "_time",
          "type": "uint256"
        }
      ],
      "name": "setPoolStartTime",
      "outputs": [],
      "stateMutability": "nonpayable",
      "type": "function"
    },
    {
      "inputs": [
        {
          "internalType": "uint256",
          "name": "_fee",
          "type": "uint256"
        }
      ],
      "name": "setSameBlockFee",
      "outputs": [],
      "stateMutability": "nonpayable",
      "type": "function"
    },
    {
      "inputs": [],
      "name": "theory",
      "outputs": [
        {
          "internalType": "contract IERC20Lockable",
          "name": "",
          "type": "address"
        }
      ],
      "stateMutability": "view",
      "type": "function"
    },
    {
      "inputs": [],
      "name": "totalAllocPoint",
      "outputs": [
        {
          "internalType": "uint256",
          "name": "",
          "type": "uint256"
        }
      ],
      "stateMutability": "view",
      "type": "function"
    },
    {
      "inputs": [
        {
          "internalType": "address",
          "name": "newOperator_",
          "type": "address"
        }
      ],
      "name": "transferOperator",
      "outputs": [],
      "stateMutability": "nonpayable",
      "type": "function"
    },
    {
      "inputs": [
        {
          "internalType": "address",
          "name": "newOwner",
          "type": "address"
        }
      ],
      "name": "transferOwnership",
      "outputs": [],
      "stateMutability": "nonpayable",
      "type": "function"
    },
    {
      "inputs": [],
      "name": "treasury",
      "outputs": [
        {
          "internalType": "contract ITreasury",
          "name": "",
          "type": "address"
        }
      ],
      "stateMutability": "view",
      "type": "function"
    },
    {
      "inputs": [
        {
          "internalType": "uint256",
          "name": "",
          "type": "uint256"
        },
        {
          "internalType": "address",
          "name": "",
          "type": "address"
        }
      ],
      "name": "userInfo",
      "outputs": [
        {
          "internalType": "uint256",
          "name": "amount",
          "type": "uint256"
        },
        {
          "internalType": "uint256",
          "name": "rewardDebt",
          "type": "uint256"
        },
        {
          "internalType": "uint256",
          "name": "rewardDebtAtTime",
          "type": "uint256"
        },
        {
          "internalType": "uint256",
          "name": "lastDepositBlock",
          "type": "uint256"
        },
        {
          "internalType": "uint256",
          "name": "lastWithdrawTime",
          "type": "uint256"
        },
        {
          "internalType": "uint256",
          "name": "firstDepositTime",
          "type": "uint256"
        }
      ],
      "stateMutability": "view",
      "type": "function"
    },
    {
      "inputs": [
        {
          "internalType": "uint256",
          "name": "_pid",
          "type": "uint256"
        },
        {
          "internalType": "uint256",
          "name": "_amount",
          "type": "uint256"
        }
      ],
      "name": "withdraw",
      "outputs": [],
      "stateMutability": "nonpayable",
      "type": "function"
    }
  ],
  "bytecode": "0x608060405260006008556601aac03668ef00600b556301e13380600c553480156200002957600080fd5b5060405162003ff038038062003ff0833981810160405260c08110156200004f57600080fd5b81516020830151604080850151606086015160808701805193519597949692959194919392820192846401000000008211156200008b57600080fd5b908301906020820185811115620000a157600080fd5b8251866020820283011164010000000082111715620000bf57600080fd5b82525081516020918201928201910280838360005b83811015620000ee578181015183820152602001620000d4565b50505050905001604052602001805160405193929190846401000000008211156200011857600080fd5b9083019060208201858111156200012e57600080fd5b82518660208202830111640100000000821117156200014c57600080fd5b82525081516020918201928201910280838360005b838110156200017b57818101518382015260200162000161565b5050505090500160405250505060006200019a6200050960201b60201c565b600080546001600160a01b0319166001600160a01b0383169081178255604051929350917f8be0079c531659141344cd1fd0a4f28419497f9722a3daafe3b4186f6b6457e0908290a350620001ee62000509565b600180546001600160a01b0319166001600160a01b0392831617908190556040519116906000907f74da04524d50c64947f5dd5381ef1a4dca5cba8ed1d816243f9e48aa0b5617ed908290a383421062000278576040805162461bcd60e51b815260206004808301919091526024820152636c61746560e01b604482015290519081900360640190fd5b6001600160a01b03861615620002a457600480546001600160a01b0319166001600160a01b0388161790555b600580546001600160a01b0319166001600160a01b0387161790556009849055600c548401600a556109c4600d556040805160e08101825260008152610e10602082015262015180918101919091526203f48060608201526206978060808201526212750060a08201526224ea0060c08201526200032790600f906007620005cf565b506040805160e0810182526103208152610190602082015260c8918101919091526064606082015260326080820152601960a0820152600160c08201526200037490600e90600762000626565b5081516200038a9060109060208501906200066a565b5080516000905b808210156200041157605f838381518110620003a957fe5b6020026020010151111562000405576040805162461bcd60e51b815260206004820181905260248201527f4c6f636b20252063616e277420626520686967686572207468616e203935252e604482015290519081900360640190fd5b60018201915062000391565b8251620004269060139060208601906200066a565b505060105460009150600019015b80821015620004af5760006200047d60016200046960095462000469876001018b6200050d60201b62002e511790919060201c565b6200057460201b62002eb11790919060201c565b601180546001818101835560009290925260008051602062003faf833981519152019190915592909201915062000434565b620004d06009546200046983886200050d60201b62002e511790919060201c565b60125550506011805460018101825560009190915260001960008051602062003faf8339815191529091015550620006bf945050505050565b3390565b6000826200051e575060006200056e565b828202828482816200052c57fe5b04146200056b5760405162461bcd60e51b815260040180806020018281038252602181526020018062003fcf6021913960400191505060405180910390fd5b90505b92915050565b6000828201838110156200056b576040805162461bcd60e51b815260206004820152601b60248201527f536166654d6174683a206164646974696f6e206f766572666c6f770000000000604482015290519081900360640190fd5b82805482825590600052602060002090810192821562000614579160200282015b8281111562000614578251829062ffffff16905591602001919060010190620005f0565b5062000622929150620006a8565b5090565b82805482825590600052602060002090810192821562000614579160200282015b8281111562000614578251829061ffff1690559160200191906001019062000647565b82805482825590600052602060002090810192821562000614579160200282015b82811115620006145782518255916020019190600101906200068b565b5b80821115620006225760008155600101620006a9565b6138e080620006cf6000396000f3fe608060405234801561001057600080fd5b50600436106102f05760003560e01c80635ad961531161019d578063943f013d116100e9578063cf1c316a116100a2578063e5554e071161007c578063e5554e0714610b2b578063ede87d6114610b48578063f2fde38b14610b65578063f930e77014610b8b576102f0565b8063cf1c316a14610ab6578063cf4b55cb14610adc578063e2bbb15814610b08576102f0565b8063943f013d146109fd57806396805e5414610a05578063a82859c514610a3f578063ac60574e14610a5c578063b918161114610a64578063cbd5654714610a8a576102f0565b8063719bf9f81161015657806382386d581161013057806382386d58146109415780638da5cb5b146109735780638dbb1e3a1461097b57806393f1a40b1461099e576102f0565b8063719bf9f8146108db57806375d323fe146108f85780637d3de84014610915576102f0565b80635ad96153146108815780635f96dc11146108895780636066debd1461089157806361d027b3146108c35780636e271dd5146108cb578063715018a6146108d3576102f0565b8063354affb71161025c578063485d7d94116102155780635312ea8e116101ef5780635312ea8e1461081e57806354575af41461083b5780635603534e14610871578063570ca73514610879576102f0565b8063485d7d94146107d35780634abbbd28146107f95780634c7bc85414610801576102f0565b8063354affb7146106115780633c32a450146106b25780633cf6259d146106d6578063441a3e70146106f35780634456eda2146107165780634666406414610732576102f0565b8063231f0c6a116102ae578063231f0c6a146104d057806323cf6d3e146104f3578063245b211d1461051057806327e689281461052d57806329605e77146105ce5780632fda7735146105f4576102f0565b8062269cb6146102f5578063085ed718146102ff5780631526fe271461042257806315f74a4d1461047657806317caf6f1146104935780631ab06ee5146104ad575b600080fd5b6102fd610bae565b005b6102fd6004803603604081101561031557600080fd5b810190602081018135600160201b81111561032f57600080fd5b82018360208201111561034157600080fd5b803590602001918460208302840111600160201b8311171561036257600080fd5b9190808060200260200160405190810160405280939291908181526020018383602002808284376000920191909152509295949360208101935035915050600160201b8111156103b157600080fd5b8201836020820111156103c357600080fd5b803590602001918460208302840111600160201b831117156103e457600080fd5b919080806020026020016040519081016040528093929190818152602001838360200280828437600092019190915250929550610c3e945050505050565b61043f6004803603602081101561043857600080fd5b5035610de2565b604080516001600160a01b039096168652602086019490945284840192909252606084015215156080830152519081900360a00190f35b6102fd6004803603602081101561048c57600080fd5b5035610e2d565b61049b610f5c565b60408051918252519081900360200190f35b6102fd600480360360408110156104c357600080fd5b5080359060200135610f62565b61049b600480360360408110156104e657600080fd5b5080359060200135611010565b61049b6004803603602081101561050957600080fd5b50356110b9565b6102fd6004803603602081101561052657600080fd5b50356110d7565b6102fd6004803603602081101561054357600080fd5b810190602081018135600160201b81111561055d57600080fd5b82018360208201111561056f57600080fd5b803590602001918460208302840111600160201b8311171561059057600080fd5b919080806020026020016040519081016040528093929190818152602001838360200280828437600092019190915250929550611162945050505050565b6102fd600480360360208110156105e457600080fd5b50356001600160a01b0316611283565b61049b6004803603602081101561060a57600080fd5b50356112d8565b6102fd6004803603602081101561062757600080fd5b810190602081018135600160201b81111561064157600080fd5b82018360208201111561065357600080fd5b803590602001918460208302840111600160201b8311171561067457600080fd5b9190808060200260200160405190810160405280939291908181526020018383602002808284376000920191909152509295506112e5945050505050565b6106ba611382565b604080516001600160a01b039092168252519081900360200190f35b6102fd600480360360208110156106ec57600080fd5b5035611391565b6102fd6004803603604081101561070957600080fd5b5080359060200135611420565b61071e6118b8565b604080519115158252519081900360200190f35b6102fd6004803603602081101561074857600080fd5b810190602081018135600160201b81111561076257600080fd5b82018360208201111561077457600080fd5b803590602001918460208302840111600160201b8311171561079557600080fd5b9190808060200260200160405190810160405280939291908181526020018383602002808284376000920191909152509295506118de945050505050565b6102fd600480360360208110156107e957600080fd5b50356001600160a01b0316611977565b61049b611a10565b61049b6004803603602081101561081757600080fd5b5035611a16565b6102fd6004803603602081101561083457600080fd5b5035611a61565b6102fd6004803603606081101561085157600080fd5b506001600160a01b03813581169160208101359160409091013516611c6e565b61049b611df3565b6106ba611df9565b61049b611e08565b61049b611e0e565b6102fd600480360360608110156108a757600080fd5b508035906001600160a01b036020820135169060400135611e14565b6106ba611ec3565b61049b611ed2565b6102fd611ed8565b6102fd600480360360208110156108f157600080fd5b5035611f84565b6102fd6004803603602081101561090e57600080fd5b5035612066565b61049b6004803603604081101561092b57600080fd5b50803590602001356001600160a01b0316612229565b6102fd6004803603606081101561095757600080fd5b508035906001600160a01b036020820135169060400135612283565b6106ba612332565b61049b6004803603604081101561099157600080fd5b5080359060200135612341565b6109ca600480360360408110156109b457600080fd5b50803590602001356001600160a01b031661243b565b604080519687526020870195909552858501939093526060850191909152608084015260a0830152519081900360c00190f35b61049b61247b565b6102fd60048036036080811015610a1b57600080fd5b508035906001600160a01b0360208201351690604081013515159060600135612481565b61049b60048036036020811015610a5557600080fd5b5035612666565b61049b612673565b61071e60048036036020811015610a7a57600080fd5b50356001600160a01b031661268a565b61049b60048036036040811015610aa057600080fd5b50803590602001356001600160a01b031661269f565b6102fd60048036036020811015610acc57600080fd5b50356001600160a01b0316612788565b61049b60048036036040811015610af257600080fd5b50803590602001356001600160a01b031661280e565b6102fd60048036036040811015610b1e57600080fd5b508035906020013561296c565b61049b60048036036020811015610b4157600080fd5b5035612c7f565b61049b60048036036020811015610b5e57600080fd5b5035612c8c565b6102fd60048036036020811015610b7b57600080fd5b50356001600160a01b0316612c99565b61049b60048036036040811015610ba157600080fd5b5080359060200135612d9b565b3360009081526002602052604090205460ff1680610bdb575033610bd0612332565b6001600160a01b0316145b80610bf5575033610bea611df9565b6001600160a01b0316145b610c34576040805162461bcd60e51b815260206004820152601860248201526000805160206137e2833981519152604482015290519081900360640190fd5b610c3c612f0b565b565b3360009081526002602052604090205460ff1680610c6b575033610c60612332565b6001600160a01b0316145b80610c85575033610c7a611df9565b6001600160a01b0316145b610cc4576040805162461bcd60e51b815260206004820152601860248201526000805160206137e2833981519152604482015290519081900360640190fd5b60008251118015610ce9575081600081518110610cdd57fe5b60200260200101516000145b8015610cf6575081518151145b610d315760405162461bcd60e51b815260040180806020018281038252604d815260200180613727604d913960600191505060405180910390fd5b8151610d4490600f9060208501906136a0565b5080516000905b80821015610dc857610320838381518110610d6257fe5b60200260200101511115610dbd576040805162461bcd60e51b815260206004820152601c60248201527f4665652063616e277420626520686967686572207468616e2038252e00000000604482015290519081900360640190fd5b600182019150610d4b565b8251610ddb90600e9060208601906136a0565b5050505050565b60068181548110610def57fe5b6000918252602090912060059091020180546001820154600283015460038401546004909401546001600160a01b0390931694509092909160ff1685565b3360009081526002602052604090205460ff1680610e5a575033610e4f612332565b6001600160a01b0316145b80610e74575033610e69611df9565b6001600160a01b0316145b610eb3576040805162461bcd60e51b815260206004820152601860248201526000805160206137e2833981519152604482015290519081900360640190fd5b6009544210610efc576040805162461bcd60e51b815260206004820152601060248201526f20b63932b0b23c9039ba30b93a32b21760811b604482015290519081900360640190fd5b8060095410610f4d576040805162461bcd60e51b81526020600482015260186024820152772a34b6b29034b7383aba1034b9903a37b79032b0b9363c9760411b604482015290519081900360640190fd5b600a8190556009549003600c55565b60085481565b6001546001600160a01b03163314610fab5760405162461bcd60e51b81526004018080602001828103825260248152602001806138026024913960400191505060405180910390fd5b610fb3612f0b565b600060068381548110610fc257fe5b60009182526020909120600590910201600481015490915060ff16156110095761100582610fff8360010154600854612f2a90919063ffffffff16565b90612eb1565b6008555b6001015550565b6000818310611021575060006110b3565b600a54821061107757600a54831061103b575060006110b3565b60095483116110655761105e600b54611058600954600a54612341565b90612e51565b90506110b3565b61105e600b5461105885600a54612341565b6009548211611088575060006110b3565b60095483116110a35761105e600b5461105860095485612341565b61105e600b546110588585612341565b92915050565b600f81815481106110c657fe5b600091825260209091200154905081565b3360009081526002602052604090205460ff16806111045750336110f9612332565b6001600160a01b0316145b8061111e575033611113611df9565b6001600160a01b0316145b61115d576040805162461bcd60e51b815260206004820152601860248201526000805160206137e2833981519152604482015290519081900360640190fd5b601255565b3360009081526002602052604090205460ff168061118f575033611184612332565b6001600160a01b0316145b806111a957503361119e611df9565b6001600160a01b0316145b6111e8576040805162461bcd60e51b815260206004820152601860248201526000805160206137e2833981519152604482015290519081900360640190fd5b80516000905b8082101561126a57605f83838151811061120457fe5b6020026020010151111561125f576040805162461bcd60e51b815260206004820181905260248201527f4c6f636b20252063616e277420626520686967686572207468616e203935252e604482015290519081900360640190fd5b6001820191506111ee565b825161127d9060139060208601906136a0565b50505050565b6001546001600160a01b031633146112cc5760405162461bcd60e51b81526004018080602001828103825260248152602001806138026024913960400191505060405180910390fd5b6112d581612f87565b50565b601081815481106110c657fe5b3360009081526002602052604090205460ff1680611312575033611307612332565b6001600160a01b0316145b8061132c575033611321611df9565b6001600160a01b0316145b61136b576040805162461bcd60e51b815260206004820152601860248201526000805160206137e2833981519152604482015290519081900360640190fd5b805161137e9060119060208401906136a0565b5050565b6004546001600160a01b031681565b3360009081526002602052604090205460ff16806113be5750336113b3612332565b6001600160a01b0316145b806113d85750336113cd611df9565b6001600160a01b0316145b611417576040805162461bcd60e51b815260206004820152601860248201526000805160206137e2833981519152604482015290519081900360640190fd5b6112d581613024565b611428613181565b156114645760405162461bcd60e51b81526004018080602001828103825260268152602001806138856026913960400191505060405180910390fd5b61146c6131a2565b156114a85760405162461bcd60e51b81526004018080602001828103825260268152602001806138856026913960400191505060405180910390fd5b60003390506000600684815481106114bc57fe5b600091825260208083208784526007825260408085206001600160a01b03881686529092529220805460059092029092019250841115611538576040805162461bcd60e51b81526020600482015260126024820152711dda5d1a191c985dce881b9bdd0819dbdbd960721b604482015290519081900360640190fd5b61154185613024565b600061157e8260010154611578670de0b6b3a764000061157287600301548760000154612e5190919063ffffffff16565b906131c3565b90612f2a565b905080156116a057611590848261322a565b60125460028301546000914291116116535760006115c6600083116115b557826115c0565b6115c0836001612f2a565b83612d9b565b90506115d760646115728684612e51565b9250821561165157600480546040805163282d3fdf60e01b81526001600160a01b038b811694820194909452602481018790529051929091169163282d3fdf9160448082019260009290919082900301818387803b15801561163857600080fd5b505af115801561164c573d6000803e3d6000fd5b505050505b505b60028401819055604080518481526020810184905281516001600160a01b038916927fd6f2c8500df5b44f11e9e48b91ff9f1b9d81bc496d55570c2b1b75bf65243f51928290030190a250505b84156118125781546116b29086612f2a565b8255600d5460038301544314611746576000808460040154116116db57836005015442036116e3565b836004015442035b600f549091508060005b811561174157600182039050600f818154811061170657fe5b9060005260206000200154841061173657600e818154811061172457fe5b90600052602060002001549450611741565b6001820391506116ed565b505050505b426004840155600061175e6127106115728985612e51565b9050600061176c8883612f2a565b905081156117f85760055460408051632364d3dd60e21b815290516117f8926001600160a01b031691638d934f74916004808301926020929190829003018186803b1580156117ba57600080fd5b505afa1580156117ce573d6000803e3d6000fd5b505050506040513d60208110156117e457600080fd5b505187546001600160a01b031690846132e4565b855461180e906001600160a01b031688836132e4565b5050505b6003830154825461183091670de0b6b3a76400009161157291612e51565b600183015560408051868152905187916001600160a01b038716917ff279e6a1f5e320cca91135676d9cb6e44ca8a08c0b88342bcdb1144f6511b5689181900360200190a350504360009081526003602090815260408083203284529091528082208054600160ff199182168117909255338452919092208054909116909117905550505050565b6001546000906001600160a01b03166118cf613336565b6001600160a01b031614905090565b3360009081526002602052604090205460ff168061190b575033611900612332565b6001600160a01b0316145b8061192557503361191a611df9565b6001600160a01b0316145b611964576040805162461bcd60e51b815260206004820152601860248201526000805160206137e2833981519152604482015290519081900360640190fd5b805161137e9060109060208401906136a0565b61197f613336565b6001600160a01b0316611990612332565b6001600160a01b0316146119d9576040805162461bcd60e51b815260206004820181905260248201526000805160206137c2833981519152604482015290519081900360640190fd5b6001600160a01b0381163314156119ef57600080fd5b6001600160a01b03166000908152600260205260409020805460ff19169055565b60125481565b60008060068381548110611a2657fe5b906000526020600020906005020190506000611a596008546115728460010154611058600b546110586001420342612341565b949350505050565b611a69613181565b15611aa55760405162461bcd60e51b81526004018080602001828103825260268152602001806138856026913960400191505060405180910390fd5b611aad6131a2565b15611ae95760405162461bcd60e51b81526004018080602001828103825260268152602001806138856026913960400191505060405180910390fd5b600060068281548110611af857fe5b60009182526020808320858452600782526040808520338652909252908320600d54815460059094029092019450929091611b3b90612710906115729085612e51565b8354909150600090611b4d9083612f2a565b600080865560018601558554909150611b70906001600160a01b031633836132e4565b60055460408051632364d3dd60e21b81529051611bf4926001600160a01b031691638d934f74916004808301926020929190829003018186803b158015611bb657600080fd5b505afa158015611bca573d6000803e3d6000fd5b505050506040513d6020811015611be057600080fd5b505186546001600160a01b031690846132e4565b604080518281529051879133917fbb757047c2b5f3974fe26b7c10f732e7bce710b0952a71082702781e62ae05959181900360200190a350504360009081526003602090815260408083203284529091528082208054600160ff199182168117909255338452919092208054909116909117905550505050565b3360009081526002602052604090205460ff1680611c9b575033611c90612332565b6001600160a01b0316145b80611cb5575033611caa611df9565b6001600160a01b0316145b611cf4576040805162461bcd60e51b815260206004820152601860248201526000805160206137e2833981519152604482015290519081900360640190fd5b600a546276a70001421015611dda576004546001600160a01b0384811691161415611d4f576040805162461bcd60e51b81526020600482015260066024820152657468656f727960d01b604482015290519081900360640190fd5b60065460005b81811015611dd757600060068281548110611d6c57fe5b6000918252602090912060059091020180549091506001600160a01b0387811691161415611dce576040805162461bcd60e51b815260206004820152600a6024820152693837b7b6173a37b5b2b760b11b604482015290519081900360640190fd5b50600101611d55565b50505b611dee6001600160a01b03841682846132e4565b505050565b600d5481565b6001546001600160a01b031690565b600b5481565b60095481565b3360009081526002602052604090205460ff1680611e41575033611e36612332565b6001600160a01b0316145b80611e5b575033611e50611df9565b6001600160a01b0316145b611e9a576040805162461bcd60e51b815260206004820152601860248201526000805160206137e2833981519152604482015290519081900360640190fd5b60009283526007602090815260408085206001600160a01b039094168552929052912060040155565b6005546001600160a01b031681565b600a5481565b611ee0613336565b6001600160a01b0316611ef1612332565b6001600160a01b031614611f3a576040805162461bcd60e51b815260206004820181905260248201526000805160206137c2833981519152604482015290519081900360640190fd5b600080546040516001600160a01b03909116907f8be0079c531659141344cd1fd0a4f28419497f9722a3daafe3b4186f6b6457e0908390a3600080546001600160a01b0319169055565b3360009081526002602052604090205460ff1680611fb1575033611fa6612332565b6001600160a01b0316145b80611fcb575033611fc0611df9565b6001600160a01b0316145b61200a576040805162461bcd60e51b815260206004820152601860248201526000805160206137e2833981519152604482015290519081900360640190fd5b6109c4811115612061576040805162461bcd60e51b815260206004820152601d60248201527f4665652063616e277420626520686967686572207468616e203235252e000000604482015290519081900360640190fd5b600d55565b3360009081526002602052604090205460ff1680612093575033612088612332565b6001600160a01b0316145b806120ad5750336120a2611df9565b6001600160a01b0316145b6120ec576040805162461bcd60e51b815260206004820152601860248201526000805160206137e2833981519152604482015290519081900360640190fd5b6009544210612135576040805162461bcd60e51b815260206004820152601060248201526f20b63932b0b23c9039ba30b93a32b21760811b604482015290519081900360640190fd5b804210612184576040805162461bcd60e51b81526020600482015260186024820152772a34b6b29034b7383aba1034b9903a37b79032b0b9363c9760411b604482015290519081900360640190fd5b600a5481106121c45760405162461bcd60e51b81526004018080602001828103825260358152602001806138266035913960400191505060405180910390fd5b6006546000805b82821015612221576000600683815481106121e257fe5b906000526020600020906005020190508060020154915060095482148061220857508482105b1561221557600281018590555b506001820191506121cb565b505050600955565b60008281526007602090815260408083206001600160a01b03851684529091528120601254600282015442911061227857600061226d600083116115b557826115c0565b93506110b392505050565b506000949350505050565b3360009081526002602052604090205460ff16806122b05750336122a5612332565b6001600160a01b0316145b806122ca5750336122bf611df9565b6001600160a01b0316145b612309576040805162461bcd60e51b815260206004820152601860248201526000805160206137e2833981519152604482015290519081900360640190fd5b60009283526007602090815260408085206001600160a01b039094168552929052912060050155565b6000546001600160a01b031690565b600954600090819084101561235a5760009150506110b3565b60005b6011548110156124335760006011828154811061237657fe5b9060005260206000200154905060016010805490500382111561239f57600093505050506110b3565b8085116123e55760006123ce601084815481106123b857fe5b600091825260209091200154611058888a612f2a565b90506123da8482612eb1565b9450505050506110b3565b8086101561242a576000612415601084815481106123ff57fe5b600091825260209091200154611058848a612f2a565b919650869190506124268482612eb1565b9350505b5060010161235d565b509392505050565b6007602090815260009283526040808420909152908252902080546001820154600283015460038401546004850154600590950154939492939192909186565b600c5481565b6001546001600160a01b031633146124ca5760405162461bcd60e51b81526004018080602001828103825260248152602001806138026024913960400191505060405180910390fd5b6124d38361333a565b81156124e1576124e1612f0b565b6009544210156124ff576009548110156124fa57506009545b61250a565b4281101561250a5750425b60006009548211158061251d5750428211155b6040805160a0810182526001600160a01b03878116825260208201898152928201868152600060608401818152861580156080870190815260068054600181018255945295517ff652222313e28459528d920b65115c16c04f3efc82aaedc97be59f3f377c0d3f600590940293840180546001600160a01b031916919096161790945594517ff652222313e28459528d920b65115c16c04f3efc82aaedc97be59f3f377c0d4082015590517ff652222313e28459528d920b65115c16c04f3efc82aaedc97be59f3f377c0d4182015592517ff652222313e28459528d920b65115c16c04f3efc82aaedc97be59f3f377c0d4284015590517ff652222313e28459528d920b65115c16c04f3efc82aaedc97be59f3f377c0d43909201805460ff191692151592909217909155909150610ddb5760085461265c9086612eb1565b6008555050505050565b601381815481106110c657fe5b600080612684600954600a54611010565b91505090565b60026020526000908152604090205460ff1681565b60008281526007602090815260408083206001600160a01b03851684529091528120600d5460038201544314611a595760008260050154116126fd57600e6000815481106126e957fe5b9060005260206000200154925050506110b3565b600080836004015411612716578260050154420361271e565b826004015442035b600f549091508060005b811561277c57600182039050600f818154811061274157fe5b9060005260206000200154841061277157600e818154811061275f57fe5b9060005260206000200154945061277c565b600182039150612728565b50505050949350505050565b612790613336565b6001600160a01b03166127a1612332565b6001600160a01b0316146127ea576040805162461bcd60e51b815260206004820181905260248201526000805160206137c2833981519152604482015290519081900360640190fd5b6001600160a01b03166000908152600260205260409020805460ff19166001179055565b6000806006848154811061281e57fe5b600091825260208083208784526007825260408085206001600160a01b0389811687529084528186206005959095029092016003810154815483516370a0823160e01b815230600482015293519298509596909590949316926370a082319260248082019391829003018186803b15801561289857600080fd5b505afa1580156128ac573d6000803e3d6000fd5b505050506040513d60208110156128c257600080fd5b50516002850154909150421180156128d957508015155b156129365760006128ee856002015442611010565b9050600061290f600854611572886001015485612e5190919063ffffffff16565b905061293161292a8461157284670de0b6b3a7640000612e51565b8590612eb1565b935050505b6129618360010154611578670de0b6b3a7640000611572868860000154612e5190919063ffffffff16565b979650505050505050565b612974613181565b156129b05760405162461bcd60e51b81526004018080602001828103825260268152602001806138856026913960400191505060405180910390fd5b6129b86131a2565b156129f45760405162461bcd60e51b81526004018080602001828103825260268152602001806138856026913960400191505060405180910390fd5b6000339050600060068481548110612a0857fe5b600091825260208083208784526007825260408085206001600160a01b0388168652909252922060059091029091019150612a4285613024565b805415612b91576000612a7a8260010154611578670de0b6b3a764000061157287600301548760000154612e5190919063ffffffff16565b90508015612b8b57612a8c848261322a565b6012546002830154600091429111612b3e576000612ab1600083116115b557826115c0565b9050612ac260646115728684612e51565b92508215612b3c57600480546040805163282d3fdf60e01b81526001600160a01b038b811694820194909452602481018790529051929091169163282d3fdf9160448082019260009290919082900301818387803b158015612b2357600080fd5b505af1158015612b37573d6000803e3d6000fd5b505050505b505b60028401819055604080518481526020810184905281516001600160a01b038916927fd6f2c8500df5b44f11e9e48b91ff9f1b9d81bc496d55570c2b1b75bf65243f51928290030190a250505b50612b98565b4260028201555b4360038201556005810154612bae574260058201555b8315612bda578154612bcb906001600160a01b03168430876133d4565b8054612bd79085612eb1565b81555b60038201548154612bf891670de0b6b3a76400009161157291612e51565b600182015560408051858152905186916001600160a01b038616917f90890809c654f11d6e72a28fa60149770a0d11ec6c92319d6ceb2bb0a4ea1a159181900360200190a350504360009081526003602090815260408083203284529091528082208054600160ff1991821681179092553384529190922080549091169091179055505050565b601181815481106110c657fe5b600e81815481106110c657fe5b612ca1613336565b6001600160a01b0316612cb2612332565b6001600160a01b031614612cfb576040805162461bcd60e51b815260206004820181905260248201526000805160206137c2833981519152604482015290519081900360640190fd5b6001600160a01b038116612d405760405162461bcd60e51b81526004018080602001828103825260268152602001806137016026913960400191505060405180910390fd5b600080546040516001600160a01b03808516939216917f8be0079c531659141344cd1fd0a4f28419497f9722a3daafe3b4186f6b6457e091a3600080546001600160a01b0319166001600160a01b0392909216919091179055565b6009546000908190841015612db45760649150506110b3565b600a548310612dc75760009150506110b3565b6012548310612dda5760009150506110b3565b60005b60115481101561243357600060118281548110612df657fe5b90600052602060002001549050600160138054905003821115612e1f57600093505050506110b3565b808511612e485760138281548110612e3357fe5b906000526020600020015493505050506110b3565b50600101612ddd565b600082612e60575060006110b3565b82820282848281612e6d57fe5b0414612eaa5760405162461bcd60e51b81526004018080602001828103825260218152602001806137a16021913960400191505060405180910390fd5b9392505050565b600082820183811015612eaa576040805162461bcd60e51b815260206004820152601b60248201527f536166654d6174683a206164646974696f6e206f766572666c6f770000000000604482015290519081900360640190fd5b60065460005b8181101561137e57612f2281613024565b600101612f11565b600082821115612f81576040805162461bcd60e51b815260206004820152601e60248201527f536166654d6174683a207375627472616374696f6e206f766572666c6f770000604482015290519081900360640190fd5b50900390565b6001600160a01b038116612fcc5760405162461bcd60e51b815260040180806020018281038252602d815260200180613774602d913960400191505060405180910390fd5b6040516001600160a01b038216906000907f74da04524d50c64947f5dd5381ef1a4dca5cba8ed1d816243f9e48aa0b5617ed908290a3600180546001600160a01b0319166001600160a01b0392909216919091179055565b60006006828154811061303357fe5b906000526020600020906005020190508060020154421161305457506112d5565b8054604080516370a0823160e01b815230600482015290516000926001600160a01b0316916370a08231916024808301926020929190829003018186803b15801561309e57600080fd5b505afa1580156130b2573d6000803e3d6000fd5b505050506040513d60208110156130c857600080fd5b50519050806130de5750426002909101556112d5565b600482015460ff1661310f5760048201805460ff1916600190811790915582015460085461310b91612eb1565b6008555b60085415613176576000613127836002015442611010565b90506000613148600854611572866001015485612e5190919063ffffffff16565b905061316e6131638461157284670de0b6b3a7640000612e51565b600386015490612eb1565b600385015550505b504260029091015550565b43600090815260036020908152604080832032845290915290205460ff1690565b43600090815260036020908152604080832033845290915290205460ff1690565b6000808211613219576040805162461bcd60e51b815260206004820152601a60248201527f536166654d6174683a206469766973696f6e206279207a65726f000000000000604482015290519081900360640190fd5b81838161322257fe5b049392505050565b60048054604080516370a0823160e01b81523093810193909352516000926001600160a01b03909216916370a08231916024808301926020929190829003018186803b15801561327957600080fd5b505afa15801561328d573d6000803e3d6000fd5b505050506040513d60208110156132a357600080fd5b505190508015611dee57808211156132d1576004546132cc906001600160a01b031684836132e4565b611dee565b600454611dee906001600160a01b031684845b604080516001600160a01b038416602482015260448082018490528251808303909101815260649091019091526020810180516001600160e01b031663a9059cbb60e01b179052611dee90849061342a565b3390565b60065460005b81811015611dee57826001600160a01b03166006828154811061335f57fe5b60009182526020909120600590910201546001600160a01b031614156133cc576040805162461bcd60e51b815260206004820181905260248201527f5468656f7279526577617264506f6f6c3a206578697374696e6720706f6f6c3f604482015290519081900360640190fd5b600101613340565b604080516001600160a01b0380861660248301528416604482015260648082018490528251808303909101815260849091019091526020810180516001600160e01b03166323b872dd60e01b17905261127d9085905b606061347f826040518060400160405280602081526020017f5361666545524332303a206c6f772d6c6576656c2063616c6c206661696c6564815250856001600160a01b03166134db9092919063ffffffff16565b805190915015611dee5780806020019051602081101561349e57600080fd5b5051611dee5760405162461bcd60e51b815260040180806020018281038252602a81526020018061385b602a913960400191505060405180910390fd5b6060611a598484600085856134ef856135f6565b613540576040805162461bcd60e51b815260206004820152601d60248201527f416464726573733a2063616c6c20746f206e6f6e2d636f6e7472616374000000604482015290519081900360640190fd5b60006060866001600160a01b031685876040518082805190602001908083835b6020831061357f5780518252601f199092019160209182019101613560565b6001836020036101000a03801982511681845116808217855250505050505090500191505060006040518083038185875af1925050503d80600081146135e1576040519150601f19603f3d011682016040523d82523d6000602084013e6135e6565b606091505b50915091506129618282866135fc565b3b151590565b6060831561360b575081612eaa565b82511561361b5782518084602001fd5b8160405162461bcd60e51b81526004018080602001828103825283818151815260200191508051906020019080838360005b8381101561366557818101518382015260200161364d565b50505050905090810190601f1680156136925780820380516001836020036101000a031916815260200191505b509250505060405180910390fd5b8280548282559060005260206000209081019282156136db579160200282015b828111156136db5782518255916020019190600101906136c0565b506136e79291506136eb565b5090565b5b808211156136e757600081556001016136ec56fe4f776e61626c653a206e6577206f776e657220697320746865207a65726f206164647265737346656520737461676520617272617973206d75737420626520657175616c20696e206e6f6e2d7a65726f206c656e67746820616e642074696d652073686f756c6420737461727420617420302e6f70657261746f723a207a65726f206164647265737320676976656e20666f72206e6577206f70657261746f72536166654d6174683a206d756c7469706c69636174696f6e206f766572666c6f774f776e61626c653a2063616c6c6572206973206e6f7420746865206f776e657263616c6c6572206973206e6f7420617574686f72697a656400000000000000006f70657261746f723a2063616c6c6572206973206e6f7420746865206f70657261746f7254696d6520697320616674657220656e642074696d652c20706c65617365206368616e676520656e642074696d652066697273742e5361666545524332303a204552433230206f7065726174696f6e20646964206e6f742073756363656564436f6e747261637447756172643a206f6e6520626c6f636b2c206f6e652066756e6374696f6ea26469706673582212205e4aec42e56915335ac18a316edf7da40ba6a4a8f434b191a18f05f537bf520f64736f6c634300060c003331ecc21a745e3968a04e9570e4425bc18fa8019c68028196b546d1669c200c68536166654d6174683a206d756c7469706c69636174696f6e206f766572666c6f77",
  "linkReferences": {},
  "deployedLinkReferences": {}
}