{
  "_format": "hh-sol-artifact-1",
  "contractName": "SimpleERCFund",
  "sourceName": "contracts/SimpleERCFund.sol",
  "abi": [
    {
      "anonymous": false,
      "inputs": [
        {
          "indexed": true,
          "internalType": "address",
          "name": "from",
          "type": "address"
        },
        {
          "indexed": true,
          "internalType": "uint256",
          "name": "at",
          "type": "uint256"
        },
        {
          "indexed": false,
          "internalType": "string",
          "name": "reason",
          "type": "string"
        }
      ],
      "name": "Deposit",
      "type": "event"
    },
    {
      "anonymous": false,
      "inputs": [
        {
          "indexed": true,
          "internalType": "address",
          "name": "previousOperator",
          "type": "address"
        },
        {
          "indexed": true,
          "internalType": "address",
          "name": "newOperator",
          "type": "address"
        }
      ],
      "name": "OperatorTransferred",
      "type": "event"
    },
    {
      "anonymous": false,
      "inputs": [
        {
          "indexed": true,
          "internalType": "address",
          "name": "previousOwner",
          "type": "address"
        },
        {
          "indexed": true,
          "internalType": "address",
          "name": "newOwner",
          "type": "address"
        }
      ],
      "name": "OwnershipTransferred",
      "type": "event"
    },
    {
      "anonymous": false,
      "inputs": [
        {
          "indexed": true,
          "internalType": "address",
          "name": "from",
          "type": "address"
        },
        {
          "indexed": true,
          "internalType": "address",
          "name": "to",
          "type": "address"
        },
        {
          "indexed": true,
          "internalType": "uint256",
          "name": "at",
          "type": "uint256"
        },
        {
          "indexed": false,
          "internalType": "string",
          "name": "reason",
          "type": "string"
        }
      ],
      "name": "Withdrawal",
      "type": "event"
    },
    {
      "inputs": [
        {
          "internalType": "address",
          "name": "token",
          "type": "address"
        },
        {
          "internalType": "uint256",
          "name": "amount",
          "type": "uint256"
        },
        {
          "internalType": "string",
          "name": "reason",
          "type": "string"
        }
      ],
      "name": "deposit",
      "outputs": [],
      "stateMutability": "nonpayable",
      "type": "function"
    },
    {
      "inputs": [],
      "name": "isOperator",
      "outputs": [
        {
          "internalType": "bool",
          "name": "",
          "type": "bool"
        }
      ],
      "stateMutability": "view",
      "type": "function"
    },
    {
      "inputs": [],
      "name": "operator",
      "outputs": [
        {
          "internalType": "address",
          "name": "",
          "type": "address"
        }
      ],
      "stateMutability": "view",
      "type": "function"
    },
    {
      "inputs": [],
      "name": "owner",
      "outputs": [
        {
          "internalType": "address",
          "name": "",
          "type": "address"
        }
      ],
      "stateMutability": "view",
      "type": "function"
    },
    {
      "inputs": [],
      "name": "renounceOwnership",
      "outputs": [],
      "stateMutability": "nonpayable",
      "type": "function"
    },
    {
      "inputs": [
        {
          "internalType": "address",
          "name": "newOperator_",
          "type": "address"
        }
      ],
      "name": "transferOperator",
      "outputs": [],
      "stateMutability": "nonpayable",
      "type": "function"
    },
    {
      "inputs": [
        {
          "internalType": "address",
          "name": "newOwner",
          "type": "address"
        }
      ],
      "name": "transferOwnership",
      "outputs": [],
      "stateMutability": "nonpayable",
      "type": "function"
    },
    {
      "inputs": [
        {
          "internalType": "address",
          "name": "token",
          "type": "address"
        },
        {
          "internalType": "uint256",
          "name": "amount",
          "type": "uint256"
        },
        {
          "internalType": "address",
          "name": "to",
          "type": "address"
        },
        {
          "internalType": "string",
          "name": "reason",
          "type": "string"
        }
      ],
      "name": "withdraw",
      "outputs": [],
      "stateMutability": "nonpayable",
      "type": "function"
    }
  ],
  "bytecode": "0x608060405234801561001057600080fd5b50600061001b6100be565b600080546001600160a01b0319166001600160a01b0383169081178255604051929350917f8be0079c531659141344cd1fd0a4f28419497f9722a3daafe3b4186f6b6457e0908290a35061006d6100be565b600180546001600160a01b0319166001600160a01b0392831617908190556040519116906000907f74da04524d50c64947f5dd5381ef1a4dca5cba8ed1d816243f9e48aa0b5617ed908290a36100c2565b3390565b610c0a806100d16000396000f3fe608060405234801561001057600080fd5b50600436106100885760003560e01c80638da5cb5b1161005b5780638da5cb5b146100fd57806395c66ddb14610105578063bfe07da6146101ca578063f2fde38b1461028557610088565b806329605e771461008d5780634456eda2146100b5578063570ca735146100d1578063715018a6146100f5575b600080fd5b6100b3600480360360208110156100a357600080fd5b50356001600160a01b03166102ab565b005b6100bd610300565b604080519115158252519081900360200190f35b6100d9610326565b604080516001600160a01b039092168252519081900360200190f35b6100b3610335565b6100d96103f3565b6100b36004803603608081101561011b57600080fd5b6001600160a01b03823581169260208101359260408201359092169181019060808101606082013564010000000081111561015557600080fd5b82018360208201111561016757600080fd5b8035906020019184600183028401116401000000008311171561018957600080fd5b91908080601f016020809104026020016040519081016040528093929190818152602001838380828437600092019190915250929550610402945050505050565b6100b3600480360360608110156101e057600080fd5b6001600160a01b038235169160208101359181019060608101604082013564010000000081111561021057600080fd5b82018360208201111561022257600080fd5b8035906020019184600183028401116401000000008311171561024457600080fd5b91908080601f016020809104026020016040519081016040528093929190818152602001838380828437600092019190915250929550610513945050505050565b6100b36004803603602081101561029b57600080fd5b50356001600160a01b03166105d1565b6001546001600160a01b031633146102f45760405162461bcd60e51b8152600401808060200182810382526024815260200180610b876024913960400191505060405180910390fd5b6102fd816106e5565b50565b6001546000906001600160a01b0316610317610782565b6001600160a01b031614905090565b6001546001600160a01b031690565b61033d610782565b6001600160a01b031661034e6103f3565b6001600160a01b0316146103a9576040805162461bcd60e51b815260206004820181905260248201527f4f776e61626c653a2063616c6c6572206973206e6f7420746865206f776e6572604482015290519081900360640190fd5b600080546040516001600160a01b03909116907f8be0079c531659141344cd1fd0a4f28419497f9722a3daafe3b4186f6b6457e0908390a3600080546001600160a01b0319169055565b6000546001600160a01b031690565b6001546001600160a01b0316331461044b5760405162461bcd60e51b8152600401808060200182810382526024815260200180610b876024913960400191505060405180910390fd5b61045f6001600160a01b0385168385610786565b42826001600160a01b0316336001600160a01b03167f2b0d35cc55a37536a00cf056f44b5f4b453659ddd18bc131a978463523ad3a1f846040518080602001828103825283818151815260200191508051906020019080838360005b838110156104d35781810151838201526020016104bb565b50505050905090810190601f1680156105005780820380516001836020036101000a031916815260200191505b509250505060405180910390a450505050565b6105286001600160a01b0384163330856107dd565b42336001600160a01b03167f643e927b32d5bfd08eccd2fcbd97057ad413850f857a2359639114e8e8dd3d7b836040518080602001828103825283818151815260200191508051906020019080838360005b8381101561059257818101518382015260200161057a565b50505050905090810190601f1680156105bf5780820380516001836020036101000a031916815260200191505b509250505060405180910390a3505050565b6105d9610782565b6001600160a01b03166105ea6103f3565b6001600160a01b031614610645576040805162461bcd60e51b815260206004820181905260248201527f4f776e61626c653a2063616c6c6572206973206e6f7420746865206f776e6572604482015290519081900360640190fd5b6001600160a01b03811661068a5760405162461bcd60e51b8152600401808060200182810382526026815260200180610b0e6026913960400191505060405180910390fd5b600080546040516001600160a01b03808516939216917f8be0079c531659141344cd1fd0a4f28419497f9722a3daafe3b4186f6b6457e091a3600080546001600160a01b0319166001600160a01b0392909216919091179055565b6001600160a01b03811661072a5760405162461bcd60e51b815260040180806020018281038252602d815260200180610b5a602d913960400191505060405180910390fd5b6040516001600160a01b038216906000907f74da04524d50c64947f5dd5381ef1a4dca5cba8ed1d816243f9e48aa0b5617ed908290a3600180546001600160a01b0319166001600160a01b0392909216919091179055565b3390565b604080516001600160a01b038416602482015260448082018490528251808303909101815260649091019091526020810180516001600160e01b031663a9059cbb60e01b1790526107d890849061083d565b505050565b604080516001600160a01b0380861660248301528416604482015260648082018490528251808303909101815260849091019091526020810180516001600160e01b03166323b872dd60e01b17905261083790859061083d565b50505050565b6060610892826040518060400160405280602081526020017f5361666545524332303a206c6f772d6c6576656c2063616c6c206661696c6564815250856001600160a01b03166108ee9092919063ffffffff16565b8051909150156107d8578080602001905160208110156108b157600080fd5b50516107d85760405162461bcd60e51b815260040180806020018281038252602a815260200180610bab602a913960400191505060405180910390fd5b60606108fd8484600085610907565b90505b9392505050565b6060824710156109485760405162461bcd60e51b8152600401808060200182810382526026815260200180610b346026913960400191505060405180910390fd5b61095185610a63565b6109a2576040805162461bcd60e51b815260206004820152601d60248201527f416464726573733a2063616c6c20746f206e6f6e2d636f6e7472616374000000604482015290519081900360640190fd5b60006060866001600160a01b031685876040518082805190602001908083835b602083106109e15780518252601f1990920191602091820191016109c2565b6001836020036101000a03801982511681845116808217855250505050505090500191505060006040518083038185875af1925050503d8060008114610a43576040519150601f19603f3d011682016040523d82523d6000602084013e610a48565b606091505b5091509150610a58828286610a69565b979650505050505050565b3b151590565b60608315610a78575081610900565b825115610a885782518084602001fd5b8160405162461bcd60e51b81526004018080602001828103825283818151815260200191508051906020019080838360005b83811015610ad2578181015183820152602001610aba565b50505050905090810190601f168015610aff5780820380516001836020036101000a031916815260200191505b509250505060405180910390fdfe4f776e61626c653a206e6577206f776e657220697320746865207a65726f2061646472657373416464726573733a20696e73756666696369656e742062616c616e636520666f722063616c6c6f70657261746f723a207a65726f206164647265737320676976656e20666f72206e6577206f70657261746f726f70657261746f723a2063616c6c6572206973206e6f7420746865206f70657261746f725361666545524332303a204552433230206f7065726174696f6e20646964206e6f742073756363656564a264697066735822122059702fa641ae8b311038c0f457f55813366996eafe5355d6c0356ac5ebcd4def64736f6c634300060c0033",
  "linkReferences": {},
  "deployedLinkReferences": {}
}