{
  "_format": "hh-sol-artifact-1",
  "contractName": "Game",
  "sourceName": "contracts/Game.sol",
  "abi": [
    {
      "inputs": [],
      "stateMutability": "nonpayable",
      "type": "constructor"
    },
    {
      "anonymous": false,
      "inputs": [
        {
          "indexed": true,
          "internalType": "address",
          "name": "owner",
          "type": "address"
        },
        {
          "indexed": true,
          "internalType": "address",
          "name": "spender",
          "type": "address"
        },
        {
          "indexed": false,
          "internalType": "uint256",
          "name": "value",
          "type": "uint256"
        }
      ],
      "name": "Approval",
      "type": "event"
    },
    {
      "anonymous": false,
      "inputs": [
        {
          "indexed": true,
          "internalType": "address",
          "name": "to",
          "type": "address"
        },
        {
          "indexed": false,
          "internalType": "uint256",
          "name": "value",
          "type": "uint256"
        }
      ],
      "name": "Lock",
      "type": "event"
    },
    {
      "anonymous": false,
      "inputs": [
        {
          "indexed": true,
          "internalType": "address",
          "name": "previousOperator",
          "type": "address"
        },
        {
          "indexed": true,
          "internalType": "address",
          "name": "newOperator",
          "type": "address"
        }
      ],
      "name": "OperatorTransferred",
      "type": "event"
    },
    {
      "anonymous": false,
      "inputs": [
        {
          "indexed": true,
          "internalType": "address",
          "name": "previousOwner",
          "type": "address"
        },
        {
          "indexed": true,
          "internalType": "address",
          "name": "newOwner",
          "type": "address"
        }
      ],
      "name": "OwnershipTransferred",
      "type": "event"
    },
    {
      "anonymous": false,
      "inputs": [
        {
          "indexed": true,
          "internalType": "address",
          "name": "from",
          "type": "address"
        },
        {
          "indexed": true,
          "internalType": "address",
          "name": "to",
          "type": "address"
        },
        {
          "indexed": false,
          "internalType": "uint256",
          "name": "value",
          "type": "uint256"
        }
      ],
      "name": "Transfer",
      "type": "event"
    },
    {
      "anonymous": false,
      "inputs": [
        {
          "indexed": true,
          "internalType": "address",
          "name": "to",
          "type": "address"
        },
        {
          "indexed": false,
          "internalType": "uint256",
          "name": "value",
          "type": "uint256"
        }
      ],
      "name": "Unlock",
      "type": "event"
    },
    {
      "inputs": [
        {
          "internalType": "address",
          "name": "_toAdd",
          "type": "address"
        }
      ],
      "name": "addAuthorized",
      "outputs": [],
      "stateMutability": "nonpayable",
      "type": "function"
    },
    {
      "inputs": [
        {
          "internalType": "address",
          "name": "owner",
          "type": "address"
        },
        {
          "internalType": "address",
          "name": "spender",
          "type": "address"
        }
      ],
      "name": "allowance",
      "outputs": [
        {
          "internalType": "uint256",
          "name": "",
          "type": "uint256"
        }
      ],
      "stateMutability": "view",
      "type": "function"
    },
    {
      "inputs": [
        {
          "internalType": "address",
          "name": "spender",
          "type": "address"
        },
        {
          "internalType": "uint256",
          "name": "amount",
          "type": "uint256"
        }
      ],
      "name": "approve",
      "outputs": [
        {
          "internalType": "bool",
          "name": "",
          "type": "bool"
        }
      ],
      "stateMutability": "nonpayable",
      "type": "function"
    },
    {
      "inputs": [
        {
          "internalType": "address",
          "name": "",
          "type": "address"
        }
      ],
      "name": "authorized",
      "outputs": [
        {
          "internalType": "bool",
          "name": "",
          "type": "bool"
        }
      ],
      "stateMutability": "view",
      "type": "function"
    },
    {
      "inputs": [
        {
          "internalType": "address",
          "name": "account",
          "type": "address"
        }
      ],
      "name": "balanceOf",
      "outputs": [
        {
          "internalType": "uint256",
          "name": "",
          "type": "uint256"
        }
      ],
      "stateMutability": "view",
      "type": "function"
    },
    {
      "inputs": [
        {
          "internalType": "uint256",
          "name": "amount",
          "type": "uint256"
        }
      ],
      "name": "burn",
      "outputs": [],
      "stateMutability": "nonpayable",
      "type": "function"
    },
    {
      "inputs": [
        {
          "internalType": "address",
          "name": "account",
          "type": "address"
        },
        {
          "internalType": "uint256",
          "name": "amount",
          "type": "uint256"
        }
      ],
      "name": "burnFrom",
      "outputs": [],
      "stateMutability": "nonpayable",
      "type": "function"
    },
    {
      "inputs": [
        {
          "internalType": "address",
          "name": "_holder",
          "type": "address"
        }
      ],
      "name": "canUnlockAmount",
      "outputs": [
        {
          "internalType": "uint256",
          "name": "",
          "type": "uint256"
        }
      ],
      "stateMutability": "view",
      "type": "function"
    },
    {
      "inputs": [],
      "name": "circulatingSupply",
      "outputs": [
        {
          "internalType": "uint256",
          "name": "",
          "type": "uint256"
        }
      ],
      "stateMutability": "view",
      "type": "function"
    },
    {
      "inputs": [],
      "name": "decimals",
      "outputs": [
        {
          "internalType": "uint8",
          "name": "",
          "type": "uint8"
        }
      ],
      "stateMutability": "view",
      "type": "function"
    },
    {
      "inputs": [
        {
          "internalType": "address",
          "name": "spender",
          "type": "address"
        },
        {
          "internalType": "uint256",
          "name": "subtractedValue",
          "type": "uint256"
        }
      ],
      "name": "decreaseAllowance",
      "outputs": [
        {
          "internalType": "bool",
          "name": "",
          "type": "bool"
        }
      ],
      "stateMutability": "nonpayable",
      "type": "function"
    },
    {
      "inputs": [
        {
          "internalType": "address",
          "name": "_genesisPool",
          "type": "address"
        }
      ],
      "name": "distributeReward",
      "outputs": [],
      "stateMutability": "nonpayable",
      "type": "function"
    },
    {
      "inputs": [],
      "name": "distributed",
      "outputs": [
        {
          "internalType": "address",
          "name": "",
          "type": "address"
        }
      ],
      "stateMutability": "view",
      "type": "function"
    },
    {
      "inputs": [
        {
          "internalType": "address",
          "name": "_user",
          "type": "address"
        }
      ],
      "name": "doesNotUnlockBeforeTransfer",
      "outputs": [
        {
          "internalType": "bool",
          "name": "",
          "type": "bool"
        }
      ],
      "stateMutability": "view",
      "type": "function"
    },
    {
      "inputs": [
        {
          "internalType": "address",
          "name": "_holder",
          "type": "address"
        }
      ],
      "name": "getLockFromTime",
      "outputs": [
        {
          "internalType": "uint256",
          "name": "",
          "type": "uint256"
        }
      ],
      "stateMutability": "view",
      "type": "function"
    },
    {
      "inputs": [
        {
          "internalType": "contract IERC20",
          "name": "_token",
          "type": "address"
        },
        {
          "internalType": "uint256",
          "name": "_amount",
          "type": "uint256"
        },
        {
          "internalType": "address",
          "name": "_to",
          "type": "address"
        }
      ],
      "name": "governanceRecoverUnsupported",
      "outputs": [],
      "stateMutability": "nonpayable",
      "type": "function"
    },
    {
      "inputs": [
        {
          "internalType": "address",
          "name": "spender",
          "type": "address"
        },
        {
          "internalType": "uint256",
          "name": "addedValue",
          "type": "uint256"
        }
      ],
      "name": "increaseAllowance",
      "outputs": [
        {
          "internalType": "bool",
          "name": "",
          "type": "bool"
        }
      ],
      "stateMutability": "nonpayable",
      "type": "function"
    },
    {
      "inputs": [],
      "name": "isOperator",
      "outputs": [
        {
          "internalType": "bool",
          "name": "",
          "type": "bool"
        }
      ],
      "stateMutability": "view",
      "type": "function"
    },
    {
      "inputs": [
        {
          "internalType": "address",
          "name": "_holder",
          "type": "address"
        }
      ],
      "name": "lastUnlockTime",
      "outputs": [
        {
          "internalType": "uint256",
          "name": "",
          "type": "uint256"
        }
      ],
      "stateMutability": "view",
      "type": "function"
    },
    {
      "inputs": [
        {
          "internalType": "address",
          "name": "_holder",
          "type": "address"
        },
        {
          "internalType": "uint256",
          "name": "_amount",
          "type": "uint256"
        }
      ],
      "name": "lock",
      "outputs": [],
      "stateMutability": "nonpayable",
      "type": "function"
    },
    {
      "inputs": [
        {
          "internalType": "address",
          "name": "",
          "type": "address"
        }
      ],
      "name": "lockFromTime",
      "outputs": [
        {
          "internalType": "uint256",
          "name": "",
          "type": "uint256"
        }
      ],
      "stateMutability": "view",
      "type": "function"
    },
    {
      "inputs": [
        {
          "internalType": "address",
          "name": "_holder",
          "type": "address"
        },
        {
          "internalType": "uint256",
          "name": "_newLockFrom",
          "type": "uint256"
        }
      ],
      "name": "lockFromUpdate",
      "outputs": [],
      "stateMutability": "nonpayable",
      "type": "function"
    },
    {
      "inputs": [
        {
          "internalType": "address",
          "name": "_holder",
          "type": "address"
        }
      ],
      "name": "lockOf",
      "outputs": [
        {
          "internalType": "uint256",
          "name": "",
          "type": "uint256"
        }
      ],
      "stateMutability": "view",
      "type": "function"
    },
    {
      "inputs": [],
      "name": "lockTime",
      "outputs": [
        {
          "internalType": "uint256",
          "name": "",
          "type": "uint256"
        }
      ],
      "stateMutability": "view",
      "type": "function"
    },
    {
      "inputs": [],
      "name": "lockedSupply",
      "outputs": [
        {
          "internalType": "uint256",
          "name": "",
          "type": "uint256"
        }
      ],
      "stateMutability": "view",
      "type": "function"
    },
    {
      "inputs": [
        {
          "internalType": "address",
          "name": "recipient_",
          "type": "address"
        },
        {
          "internalType": "uint256",
          "name": "amount_",
          "type": "uint256"
        }
      ],
      "name": "mint",
      "outputs": [
        {
          "internalType": "bool",
          "name": "",
          "type": "bool"
        }
      ],
      "stateMutability": "nonpayable",
      "type": "function"
    },
    {
      "inputs": [],
      "name": "name",
      "outputs": [
        {
          "internalType": "string",
          "name": "",
          "type": "string"
        }
      ],
      "stateMutability": "view",
      "type": "function"
    },
    {
      "inputs": [
        {
          "internalType": "address",
          "name": "",
          "type": "address"
        }
      ],
      "name": "noUnlockBeforeTransfer",
      "outputs": [
        {
          "internalType": "bool",
          "name": "",
          "type": "bool"
        }
      ],
      "stateMutability": "view",
      "type": "function"
    },
    {
      "inputs": [],
      "name": "operator",
      "outputs": [
        {
          "internalType": "address",
          "name": "",
          "type": "address"
        }
      ],
      "stateMutability": "view",
      "type": "function"
    },
    {
      "inputs": [],
      "name": "owner",
      "outputs": [
        {
          "internalType": "address",
          "name": "",
          "type": "address"
        }
      ],
      "stateMutability": "view",
      "type": "function"
    },
    {
      "inputs": [
        {
          "internalType": "address",
          "name": "_toRemove",
          "type": "address"
        }
      ],
      "name": "removeAuthorized",
      "outputs": [],
      "stateMutability": "nonpayable",
      "type": "function"
    },
    {
      "inputs": [],
      "name": "renounceOwnership",
      "outputs": [],
      "stateMutability": "nonpayable",
      "type": "function"
    },
    {
      "inputs": [],
      "name": "rewardPoolDistributed",
      "outputs": [
        {
          "internalType": "bool",
          "name": "",
          "type": "bool"
        }
      ],
      "stateMutability": "view",
      "type": "function"
    },
    {
      "inputs": [
        {
          "internalType": "uint256",
          "name": "_lockTime",
          "type": "uint256"
        }
      ],
      "name": "setLockTime",
      "outputs": [],
      "stateMutability": "nonpayable",
      "type": "function"
    },
    {
      "inputs": [
        {
          "internalType": "bool",
          "name": "_noUnlockBeforeTransfer",
          "type": "bool"
        }
      ],
      "name": "setNoUnlockBeforeTransfer",
      "outputs": [],
      "stateMutability": "nonpayable",
      "type": "function"
    },
    {
      "inputs": [],
      "name": "symbol",
      "outputs": [
        {
          "internalType": "string",
          "name": "",
          "type": "string"
        }
      ],
      "stateMutability": "view",
      "type": "function"
    },
    {
      "inputs": [
        {
          "internalType": "address",
          "name": "_holder",
          "type": "address"
        }
      ],
      "name": "totalBalanceOf",
      "outputs": [
        {
          "internalType": "uint256",
          "name": "",
          "type": "uint256"
        }
      ],
      "stateMutability": "view",
      "type": "function"
    },
    {
      "inputs": [],
      "name": "totalLock",
      "outputs": [
        {
          "internalType": "uint256",
          "name": "",
          "type": "uint256"
        }
      ],
      "stateMutability": "view",
      "type": "function"
    },
    {
      "inputs": [],
      "name": "totalSupply",
      "outputs": [
        {
          "internalType": "uint256",
          "name": "",
          "type": "uint256"
        }
      ],
      "stateMutability": "view",
      "type": "function"
    },
    {
      "inputs": [
        {
          "internalType": "address",
          "name": "recipient",
          "type": "address"
        },
        {
          "internalType": "uint256",
          "name": "amount",
          "type": "uint256"
        }
      ],
      "name": "transfer",
      "outputs": [
        {
          "internalType": "bool",
          "name": "",
          "type": "bool"
        }
      ],
      "stateMutability": "nonpayable",
      "type": "function"
    },
    {
      "inputs": [
        {
          "internalType": "address",
          "name": "sender",
          "type": "address"
        },
        {
          "internalType": "address",
          "name": "recipient",
          "type": "address"
        },
        {
          "internalType": "uint256",
          "name": "amount",
          "type": "uint256"
        }
      ],
      "name": "transferFrom",
      "outputs": [
        {
          "internalType": "bool",
          "name": "",
          "type": "bool"
        }
      ],
      "stateMutability": "nonpayable",
      "type": "function"
    },
    {
      "inputs": [
        {
          "internalType": "address",
          "name": "newOperator_",
          "type": "address"
        }
      ],
      "name": "transferOperator",
      "outputs": [],
      "stateMutability": "nonpayable",
      "type": "function"
    },
    {
      "inputs": [
        {
          "internalType": "address",
          "name": "newOwner",
          "type": "address"
        }
      ],
      "name": "transferOwnership",
      "outputs": [],
      "stateMutability": "nonpayable",
      "type": "function"
    },
    {
      "inputs": [],
      "name": "unlock",
      "outputs": [],
      "stateMutability": "nonpayable",
      "type": "function"
    },
    {
      "inputs": [
        {
          "internalType": "address",
          "name": "account",
          "type": "address"
        },
        {
          "internalType": "uint256",
          "name": "amount",
          "type": "uint256"
        }
      ],
      "name": "unlockForUser",
      "outputs": [],
      "stateMutability": "nonpayable",
      "type": "function"
    },
    {
      "inputs": [],
      "name": "unlockedSupply",
      "outputs": [
        {
          "internalType": "uint256",
          "name": "",
          "type": "uint256"
        }
      ],
      "stateMutability": "view",
      "type": "function"
    }
  ],
  "bytecode": "0x60806040526008805460ff191690553480156200001b57600080fd5b506040518060400160405280600481526020016347414d4560e01b81525060405180606001604052806029815260200162002a6360299139815162000068906003906020850190620002e2565b5080516200007e906004906020840190620002e2565b50506005805460ff191660121790555060006200009a62000168565b60058054610100600160a81b0319166101006001600160a01b03841690810291909117909155604051919250906000907f8be0079c531659141344cd1fd0a4f28419497f9722a3daafe3b4186f6b6457e0908290a350620000fa62000168565b600680546001600160a01b0319166001600160a01b0392831617908190556040519116906000907f74da04524d50c64947f5dd5381ef1a4dca5cba8ed1d816243f9e48aa0b5617ed908290a36301e13380600a556200016233670de0b6b3a76400006200016c565b6200037e565b3390565b6001600160a01b038216620001c8576040805162461bcd60e51b815260206004820152601f60248201527f45524332303a206d696e7420746f20746865207a65726f206164647265737300604482015290519081900360640190fd5b620001d6600083836200027b565b620001f2816002546200028060201b62001aed1790919060201c565b6002556001600160a01b038216600090815260208181526040909120546200022591839062001aed62000280821b17901c565b6001600160a01b0383166000818152602081815260408083209490945583518581529351929391927fddf252ad1be2c89b69c2b068fc378daa952ba7f163c4a11628f55a4df523b3ef9281900390910190a35050565b505050565b600082820183811015620002db576040805162461bcd60e51b815260206004820152601b60248201527f536166654d6174683a206164646974696f6e206f766572666c6f770000000000604482015290519081900360640190fd5b9392505050565b828054600181600116156101000203166002900490600052602060002090601f016020900481019282601f106200032557805160ff191683800117855562000355565b8280016001018555821562000355579182015b828111156200035557825182559160200191906001019062000338565b506200036392915062000367565b5090565b5b8082111562000363576000815560010162000368565b6126d5806200038e6000396000f3fe608060405234801561001057600080fd5b506004361061028a5760003560e01c80635a46d3b51161015c578063a69df4b5116100ce578063cf1c316a11610087578063cf1c316a146107e7578063dc7887a41461080d578063dd62ed3e14610833578063f2fde38b14610861578063f84b903e14610887578063fd3d27b81461088f5761028a565b8063a69df4b51461073c578063a9059cbb14610744578063ae04d45d14610770578063af2b0f661461078d578063b9181611146107b9578063ca5c7b91146107df5761028a565b806384ec23441161012057806384ec2344146106c45780638da5cb5b146106f05780639358928b146106f857806395d89b41146107005780639662676c14610708578063a457c2d7146107105761028a565b80635a46d3b51461061e57806370a082311461064457806370d28c281461066a578063715018a61461069057806379cc6790146106985761028a565b80633950935111610200578063485d7d94116101b9578063485d7d941461052c57806348846519146105525780634a4548ef146105785780634b0ee02a1461059e57806354575af4146105c4578063570ca735146105fa5761028a565b806339509351146104815780633a1aae35146104ad5780633e85866a146104b557806340c10f19146104db57806342966c68146105075780634456eda2146105245761028a565b80631a19920d116102525780631a19920d14610396578063202b1760146103b557806323b872dd146103db578063282d3fdf1461041157806329605e771461043d578063313ce567146104635761028a565b806306fdde031461028f578063092193ab1461030c578063095ea7b3146103345780630d6680871461037457806318160ddd1461038e575b600080fd5b610297610897565b6040805160208082528351818301528351919283929083019185019080838360005b838110156102d15781810151838201526020016102b9565b50505050905090810190601f1680156102fe5780820380516001836020036101000a031916815260200191505b509250505060405180910390f35b6103326004803603602081101561032257600080fd5b50356001600160a01b031661092d565b005b6103606004803603604081101561034a57600080fd5b506001600160a01b038135169060200135610af7565b604080519115158252519081900360200190f35b61037c610b15565b60408051918252519081900360200190f35b61037c610b1b565b610332600480360360208110156103ac57600080fd5b50351515610b21565b61037c600480360360208110156103cb57600080fd5b50356001600160a01b0316610b41565b610360600480360360608110156103f157600080fd5b506001600160a01b03813581169160208101359091169060400135610c54565b6103326004803603604081101561042757600080fd5b506001600160a01b038135169060200135610cdb565b6103326004803603602081101561045357600080fd5b50356001600160a01b031661101b565b61046b61106d565b6040805160ff9092168252519081900360200190f35b6103606004803603604081101561049757600080fd5b506001600160a01b038135169060200135611076565b61037c6110c4565b610360600480360360208110156104cb57600080fd5b50356001600160a01b03166110ca565b610360600480360360408110156104f157600080fd5b506001600160a01b0381351690602001356110e8565b6103326004803603602081101561051d57600080fd5b5035611162565b61036061116b565b6103326004803603602081101561054257600080fd5b50356001600160a01b0316611191565b61037c6004803603602081101561056857600080fd5b50356001600160a01b031661122a565b6103606004803603602081101561058e57600080fd5b50356001600160a01b031661123c565b61037c600480360360208110156105b457600080fd5b50356001600160a01b0316611251565b610332600480360360608110156105da57600080fd5b506001600160a01b0381358116916020810135916040909101351661127e565b610602611404565b604080516001600160a01b039092168252519081900360200190f35b61037c6004803603602081101561063457600080fd5b50356001600160a01b0316611413565b61037c6004803603602081101561065a57600080fd5b50356001600160a01b031661142e565b61037c6004803603602081101561068057600080fd5b50356001600160a01b0316611449565b610332611464565b610332600480360360408110156106ae57600080fd5b506001600160a01b038135169060200135611516565b610332600480360360408110156106da57600080fd5b506001600160a01b03813516906020013561156d565b61060261160f565b61037c611623565b610297611653565b6103606116b4565b6103606004803603604081101561072657600080fd5b506001600160a01b0381351690602001356116bd565b610332611725565b6103606004803603604081101561075a57600080fd5b506001600160a01b03813516906020013561173c565b6103326004803603602081101561078657600080fd5b5035611750565b610332600480360360408110156107a357600080fd5b506001600160a01b03813516906020013561181e565b610360600480360360208110156107cf57600080fd5b50356001600160a01b03166118d0565b61037c6118e5565b610332600480360360208110156107fd57600080fd5b50356001600160a01b03166118ef565b61037c6004803603602081101561082357600080fd5b50356001600160a01b0316611975565b61037c6004803603604081101561084957600080fd5b506001600160a01b0381358116916020013516611990565b6103326004803603602081101561087757600080fd5b50356001600160a01b03166119bb565b610602611ac9565b61037c611add565b60038054604080516020601f60026000196101006001881615020190951694909404938401819004810282018101909252828152606093909290918301828280156109235780601f106108f857610100808354040283529160200191610923565b820191906000526020600020905b81548152906001019060200180831161090657829003601f168201915b5050505050905090565b3360009081526007602052604090205460ff168061095a57503361094f61160f565b6001600160a01b0316145b80610974575033610969611404565b6001600160a01b0316145b6109b3576040805162461bcd60e51b81526020600482015260186024820152600080516020612584833981519152604482015290519081900360640190fd5b60085460ff1615610a0b576040805162461bcd60e51b815260206004820152601860248201527f6f6e6c792063616e2064697374726962757465206f6e63650000000000000000604482015290519081900360640190fd5b6001600160a01b038116610a56576040805162461bcd60e51b815260206004820152600d60248201526c0857d9d95b995cda5cd41bdbdb609a1b604482015290519081900360640190fd5b60088054600160ff1990911617610100600160a81b0319166101006001600160a01b03841690810291909117909155604080516356302ba760e11b81529051610af4928492909163ac60574e91600480820192602092909190829003018186803b158015610ac357600080fd5b505afa158015610ad7573d6000803e3d6000fd5b505050506040513d6020811015610aed57600080fd5b5051611b4e565b50565b6000610b0b610b04611c3e565b8484611c42565b5060015b92915050565b600a5481565b60025490565b336000908152600c60205260409020805460ff1916911515919091179055565b6001600160a01b0381166000908152600b60205260408120544211610b6857506000610c4f565b600a546001600160a01b0383166000908152600b6020526040902054610b8d91611aed565b4210610bb257506001600160a01b0381166000908152600d6020526040902054610c4f565b6001600160a01b0382166000908152600e6020526040812054610bd6904290611d2e565b6001600160a01b0384166000908152600e6020908152604080832054600a54600b909352908320549394509192610c189291610c129190611aed565b90611d2e565b6001600160a01b0385166000908152600d6020526040902054909150610c4a908290610c449085611d8b565b90611de4565b925050505b919050565b6000610c61848484611e4b565b610cd184610c6d611c3e565b610ccc8560405180606001604052806028815260200161253c602891396001600160a01b038a16600090815260016020526040812090610cab611c3e565b6001600160a01b031681526020810191909152604001600020549190611eb4565b611c42565b5060019392505050565b3360009081526007602052604090205460ff1680610d08575033610cfd61160f565b6001600160a01b0316145b80610d22575033610d17611404565b6001600160a01b0316145b610d61576040805162461bcd60e51b81526020600482015260186024820152600080516020612584833981519152604482015290519081900360640190fd5b6001600160a01b038216610dbc576040805162461bcd60e51b815260206004820152601f60248201527f43616e6e6f74206c6f636b20746f20746865207a65726f206164647265737300604482015290519081900360640190fd5b610dc58261142e565b811115610e19576040805162461bcd60e51b815260206004820152601860248201527f4c6f636b20616d6f756e74206f7665722062616c616e63650000000000000000604482015290519081900360640190fd5b610e21611404565b6001600160a01b0316336001600160a01b03161480610e7a5750610e546064610c44605f610e4e86611251565b90611d8b565b6001600160a01b0383166000908152600d6020526040902054610e779083611aed565b11155b610eb55760405162461bcd60e51b81526004018080602001828103825260258152602001806126326025913960400191505060405180910390fd5b6001600160a01b0382166000908152600c602052604090205460ff168015610ef457506001600160a01b0382166000908152600d602052604090205415155b15610f12576000610f0483610b41565b9050610f108382611f4b565b505b6001600160a01b0382166000908152600b602052604090204290819055610f3a833084611e4b565b6001600160a01b0383166000908152600d6020526040902054610f5d9083611aed565b6001600160a01b0384166000908152600d6020526040902055600954610f839083611aed565b6009556001600160a01b0383166000908152600b6020908152604080832054600e909252909120541015610fd7576001600160a01b0383166000908152600b6020908152604080832054600e909252909120555b6040805183815290516001600160a01b038516917f625fed9875dada8643f2418b838ae0bc78d9a148a18eee4ee1979ff0f3f5d427919081900360200190a2505050565b6006546001600160a01b031633146110645760405162461bcd60e51b81526004018080602001828103825260248152602001806125c86024913960400191505060405180910390fd5b610af4816120b4565b60055460ff1690565b6000610b0b611083611c3e565b84610ccc8560016000611094611c3e565b6001600160a01b03908116825260208083019390935260409182016000908120918c168152925290205490611aed565b60095490565b6001600160a01b03166000908152600c602052604090205460ff1690565b6006546000906001600160a01b031633146111345760405162461bcd60e51b81526004018080602001828103825260248152602001806125c86024913960400191505060405180910390fd5b600061113f8461142e565b905061114b8484611b4e565b60006111568561142e565b91909111949350505050565b610af481612151565b6006546000906001600160a01b0316611182611c3e565b6001600160a01b031614905090565b611199611c3e565b6001600160a01b03166111aa61160f565b6001600160a01b0316146111f3576040805162461bcd60e51b81526020600482018190526024820152600080516020612564833981519152604482015290519081900360640190fd5b6001600160a01b03811633141561120957600080fd5b6001600160a01b03166000908152600760205260409020805460ff19169055565b600b6020526000908152604090205481565b600c6020526000908152604090205460ff1681565b6000610b0f61125f8361142e565b6001600160a01b0384166000908152600d602052604090205490611aed565b3360009081526007602052604090205460ff16806112ab5750336112a061160f565b6001600160a01b0316145b806112c55750336112ba611404565b6001600160a01b0316145b611304576040805162461bcd60e51b81526020600482015260186024820152600080516020612584833981519152604482015290519081900360640190fd5b61130c611404565b6001600160a01b0316336001600160a01b0316148061133457506001600160a01b0383163014155b61137c576040805162461bcd60e51b815260206004820152601460248201527324b73b30b634b2103832b936b4b9b9b4b7b7399760611b604482015290519081900360640190fd5b826001600160a01b031663a9059cbb82846040518363ffffffff1660e01b815260040180836001600160a01b0316815260200182815260200192505050602060405180830381600087803b1580156113d357600080fd5b505af11580156113e7573d6000803e3d6000fd5b505050506040513d60208110156113fd57600080fd5b5050505050565b6006546001600160a01b031690565b6001600160a01b03166000908152600d602052604090205490565b6001600160a01b031660009081526020819052604090205490565b6001600160a01b03166000908152600b602052604090205490565b61146c611c3e565b6001600160a01b031661147d61160f565b6001600160a01b0316146114c6576040805162461bcd60e51b81526020600482018190526024820152600080516020612564833981519152604482015290519081900360640190fd5b60055460405160009161010090046001600160a01b0316907f8be0079c531659141344cd1fd0a4f28419497f9722a3daafe3b4186f6b6457e0908390a360058054610100600160a81b0319169055565b6006546001600160a01b0316331461155f5760405162461bcd60e51b81526004018080602001828103825260248152602001806125c86024913960400191505060405180910390fd5b6115698282612162565b5050565b3360009081526007602052604090205460ff168061159a57503361158f61160f565b6001600160a01b0316145b806115b45750336115a9611404565b6001600160a01b0316145b6115f3576040805162461bcd60e51b81526020600482015260186024820152600080516020612584833981519152604482015290519081900360640190fd5b6001600160a01b039091166000908152600b6020526040902055565b60055461010090046001600160a01b031690565b600061164e611646600860019054906101000a90046001600160a01b031661142e565b610c12610b1b565b905090565b60048054604080516020601f60026000196101006001881615020190951694909404938401819004810282018101909252828152606093909290918301828280156109235780601f106108f857610100808354040283529160200191610923565b60085460ff1681565b6000610b0b6116ca611c3e565b84610ccc8560405180606001604052806025815260200161267b60259139600160006116f4611c3e565b6001600160a01b03908116825260208083019390935260409182016000908120918d16815292529020549190611eb4565b600061173033610b41565b9050610af43382611f4b565b6000610b0b611749611c3e565b8484611e4b565b3360009081526007602052604090205460ff168061177d57503361177261160f565b6001600160a01b0316145b8061179757503361178c611404565b6001600160a01b0316145b6117d6576040805162461bcd60e51b81526020600482015260186024820152600080516020612584833981519152604482015290519081900360640190fd5b6301e133808111156118195760405162461bcd60e51b815260040180806020018281038252602c81526020018061249c602c913960400191505060405180910390fd5b600a55565b3360009081526007602052604090205460ff168061184b57503361184061160f565b6001600160a01b0316145b8061186557503361185a611404565b6001600160a01b0316145b6118a4576040805162461bcd60e51b81526020600482015260186024820152600080516020612584833981519152604482015290519081900360640190fd5b60006118af83610b41565b905080156118c1576118c18382611f4b565b6118cb8383611f4b565b505050565b60076020526000908152604090205460ff1681565b600061164e6110c4565b6118f7611c3e565b6001600160a01b031661190861160f565b6001600160a01b031614611951576040805162461bcd60e51b81526020600482018190526024820152600080516020612564833981519152604482015290519081900360640190fd5b6001600160a01b03166000908152600760205260409020805460ff19166001179055565b6001600160a01b03166000908152600e602052604090205490565b6001600160a01b03918216600090815260016020908152604080832093909416825291909152205490565b6119c3611c3e565b6001600160a01b03166119d461160f565b6001600160a01b031614611a1d576040805162461bcd60e51b81526020600482018190526024820152600080516020612564833981519152604482015290519081900360640190fd5b6001600160a01b038116611a625760405162461bcd60e51b81526004018080602001828103825260268152602001806124546026913960400191505060405180910390fd5b6005546040516001600160a01b0380841692610100900416907f8be0079c531659141344cd1fd0a4f28419497f9722a3daafe3b4186f6b6457e090600090a3600580546001600160a01b0390921661010002610100600160a81b0319909216919091179055565b60085461010090046001600160a01b031681565b600061164e600954610c12610b1b565b600082820183811015611b47576040805162461bcd60e51b815260206004820152601b60248201527f536166654d6174683a206164646974696f6e206f766572666c6f770000000000604482015290519081900360640190fd5b9392505050565b6001600160a01b038216611ba9576040805162461bcd60e51b815260206004820152601f60248201527f45524332303a206d696e7420746f20746865207a65726f206164647265737300604482015290519081900360640190fd5b611bb5600083836118cb565b600254611bc29082611aed565b6002556001600160a01b038216600090815260208190526040902054611be89082611aed565b6001600160a01b0383166000818152602081815260408083209490945583518581529351929391927fddf252ad1be2c89b69c2b068fc378daa952ba7f163c4a11628f55a4df523b3ef9281900390910190a35050565b3390565b6001600160a01b038316611c875760405162461bcd60e51b81526004018080602001828103825260248152602001806126576024913960400191505060405180910390fd5b6001600160a01b038216611ccc5760405162461bcd60e51b815260040180806020018281038252602281526020018061247a6022913960400191505060405180910390fd5b6001600160a01b03808416600081815260016020908152604080832094871680845294825291829020859055815185815291517f8c5be1e5ebec7d5bd14f71427d1e84f3dd0314c0f7b2291e5b200ac8c7c3b9259281900390910190a3505050565b600082821115611d85576040805162461bcd60e51b815260206004820152601e60248201527f536166654d6174683a207375627472616374696f6e206f766572666c6f770000604482015290519081900360640190fd5b50900390565b600082611d9a57506000610b0f565b82820282848281611da757fe5b0414611b475760405162461bcd60e51b815260040180806020018281038252602181526020018061251b6021913960400191505060405180910390fd5b6000808211611e3a576040805162461bcd60e51b815260206004820152601a60248201527f536166654d6174683a206469766973696f6e206279207a65726f000000000000604482015290519081900360640190fd5b818381611e4357fe5b049392505050565b6001600160a01b0383166000908152600c602052604090205460ff16158015611e8b57506001600160a01b0383166000908152600d602052604090205415155b15611ea9576000611e9b84610b41565b9050611ea78482611f4b565b505b6118cb8383836121b7565b60008184841115611f435760405162461bcd60e51b81526004018080602001828103825283818151815260200191508051906020019080838360005b83811015611f08578181015183820152602001611ef0565b50505050905090810190601f168015611f355780820380516001836020036101000a031916815260200191505b509250505060405180910390fd5b505050900390565b6001600160a01b0382166000908152600d6020526040902054611fb5576040805162461bcd60e51b815260206004820152601a60248201527f496e73756666696369656e74206c6f636b656420746f6b656e73000000000000604482015290519081900360640190fd5b6001600160a01b0382166000908152600d6020526040902054811115611ff057506001600160a01b0381166000908152600d60205260409020545b611ff93061142e565b81111561200c576120093061142e565b90505b612017308383611e4b565b6001600160a01b0382166000908152600d602052604090205461203a9082611d2e565b6001600160a01b0383166000908152600d6020908152604080832093909355600e90522042905560095461206e9082611d2e565b6009556040805182815290516001600160a01b038416917f6381d9813cabeb57471b5a7e05078e64845ccdb563146a6911d536f24ce960f1919081900360200190a25050565b6001600160a01b0381166120f95760405162461bcd60e51b815260040180806020018281038252602d8152602001806124ee602d913960400191505060405180910390fd5b6040516001600160a01b038216906000907f74da04524d50c64947f5dd5381ef1a4dca5cba8ed1d816243f9e48aa0b5617ed908290a3600680546001600160a01b0319166001600160a01b0392909216919091179055565b610af461215c611c3e565b82612312565b6000612199826040518060600160405280602481526020016125a4602491396121928661218d611c3e565b611990565b9190611eb4565b90506121ad836121a7611c3e565b83611c42565b6118cb8383612312565b6001600160a01b0383166121fc5760405162461bcd60e51b815260040180806020018281038252602581526020018061260d6025913960400191505060405180910390fd5b6001600160a01b0382166122415760405162461bcd60e51b815260040180806020018281038252602381526020018061240f6023913960400191505060405180910390fd5b61224c8383836118cb565b612289816040518060600160405280602681526020016124c8602691396001600160a01b0386166000908152602081905260409020549190611eb4565b6001600160a01b0380851660009081526020819052604080822093909355908416815220546122b89082611aed565b6001600160a01b038084166000818152602081815260409182902094909455805185815290519193928716927fddf252ad1be2c89b69c2b068fc378daa952ba7f163c4a11628f55a4df523b3ef92918290030190a3505050565b6001600160a01b0382166123575760405162461bcd60e51b81526004018080602001828103825260218152602001806125ec6021913960400191505060405180910390fd5b612363826000836118cb565b6123a081604051806060016040528060228152602001612432602291396001600160a01b0385166000908152602081905260409020549190611eb4565b6001600160a01b0383166000908152602081905260409020556002546123c69082611d2e565b6002556040805182815290516000916001600160a01b038516917fddf252ad1be2c89b69c2b068fc378daa952ba7f163c4a11628f55a4df523b3ef9181900360200190a3505056fe45524332303a207472616e7366657220746f20746865207a65726f206164647265737345524332303a206275726e20616d6f756e7420657863656564732062616c616e63654f776e61626c653a206e6577206f776e657220697320746865207a65726f206164647265737345524332303a20617070726f766520746f20746865207a65726f20616464726573734c6f636b2074696d65206d757374206e6f742062652067726561746572207468616e2033363520646179732e45524332303a207472616e7366657220616d6f756e7420657863656564732062616c616e63656f70657261746f723a207a65726f206164647265737320676976656e20666f72206e6577206f70657261746f72536166654d6174683a206d756c7469706c69636174696f6e206f766572666c6f7745524332303a207472616e7366657220616d6f756e74206578636565647320616c6c6f77616e63654f776e61626c653a2063616c6c6572206973206e6f7420746865206f776e657263616c6c6572206973206e6f7420617574686f72697a6564000000000000000045524332303a206275726e20616d6f756e74206578636565647320616c6c6f77616e63656f70657261746f723a2063616c6c6572206973206e6f7420746865206f70657261746f7245524332303a206275726e2066726f6d20746865207a65726f206164647265737345524332303a207472616e736665722066726f6d20746865207a65726f20616464726573734c6f636b20616d6f756e74206f76657220393525206f6620746f74616c2062616c616e636545524332303a20617070726f76652066726f6d20746865207a65726f206164647265737345524332303a2064656372656173656420616c6c6f77616e63652062656c6f77207a65726fa26469706673582212207e2a2f175996dd075c0c530d772e8dad5465f2a1e0479cecd85c761c1a92b87064736f6c634300060c003347616d65205468656f7279202867616d657468656f72792e74656368293a2047414d4520546f6b656e",
  "linkReferences": {},
  "deployedLinkReferences": {}
}