{
  "_format": "hh-sol-artifact-1",
  "contractName": "Game",
  "sourceName": "contracts/Game.sol",
  "abi": [
    {
      "inputs": [],
      "stateMutability": "nonpayable",
      "type": "constructor"
    },
    {
      "anonymous": false,
      "inputs": [
        {
          "indexed": true,
          "internalType": "address",
          "name": "owner",
          "type": "address"
        },
        {
          "indexed": true,
          "internalType": "address",
          "name": "spender",
          "type": "address"
        },
        {
          "indexed": false,
          "internalType": "uint256",
          "name": "value",
          "type": "uint256"
        }
      ],
      "name": "Approval",
      "type": "event"
    },
    {
      "anonymous": false,
      "inputs": [
        {
          "indexed": true,
          "internalType": "address",
          "name": "to",
          "type": "address"
        },
        {
          "indexed": false,
          "internalType": "uint256",
          "name": "value",
          "type": "uint256"
        }
      ],
      "name": "Lock",
      "type": "event"
    },
    {
      "anonymous": false,
      "inputs": [
        {
          "indexed": true,
          "internalType": "address",
          "name": "previousOperator",
          "type": "address"
        },
        {
          "indexed": true,
          "internalType": "address",
          "name": "newOperator",
          "type": "address"
        }
      ],
      "name": "OperatorTransferred",
      "type": "event"
    },
    {
      "anonymous": false,
      "inputs": [
        {
          "indexed": true,
          "internalType": "address",
          "name": "previousOwner",
          "type": "address"
        },
        {
          "indexed": true,
          "internalType": "address",
          "name": "newOwner",
          "type": "address"
        }
      ],
      "name": "OwnershipTransferred",
      "type": "event"
    },
    {
      "anonymous": false,
      "inputs": [
        {
          "indexed": true,
          "internalType": "address",
          "name": "from",
          "type": "address"
        },
        {
          "indexed": true,
          "internalType": "address",
          "name": "to",
          "type": "address"
        },
        {
          "indexed": false,
          "internalType": "uint256",
          "name": "value",
          "type": "uint256"
        }
      ],
      "name": "Transfer",
      "type": "event"
    },
    {
      "anonymous": false,
      "inputs": [
        {
          "indexed": true,
          "internalType": "address",
          "name": "to",
          "type": "address"
        },
        {
          "indexed": false,
          "internalType": "uint256",
          "name": "value",
          "type": "uint256"
        }
      ],
      "name": "Unlock",
      "type": "event"
    },
    {
      "inputs": [
        {
          "internalType": "address",
          "name": "_toAdd",
          "type": "address"
        }
      ],
      "name": "addAuthorized",
      "outputs": [],
      "stateMutability": "nonpayable",
      "type": "function"
    },
    {
      "inputs": [
        {
          "internalType": "address",
          "name": "owner",
          "type": "address"
        },
        {
          "internalType": "address",
          "name": "spender",
          "type": "address"
        }
      ],
      "name": "allowance",
      "outputs": [
        {
          "internalType": "uint256",
          "name": "",
          "type": "uint256"
        }
      ],
      "stateMutability": "view",
      "type": "function"
    },
    {
      "inputs": [
        {
          "internalType": "address",
          "name": "spender",
          "type": "address"
        },
        {
          "internalType": "uint256",
          "name": "amount",
          "type": "uint256"
        }
      ],
      "name": "approve",
      "outputs": [
        {
          "internalType": "bool",
          "name": "",
          "type": "bool"
        }
      ],
      "stateMutability": "nonpayable",
      "type": "function"
    },
    {
      "inputs": [
        {
          "internalType": "address",
          "name": "",
          "type": "address"
        }
      ],
      "name": "authorized",
      "outputs": [
        {
          "internalType": "bool",
          "name": "",
          "type": "bool"
        }
      ],
      "stateMutability": "view",
      "type": "function"
    },
    {
      "inputs": [
        {
          "internalType": "address",
          "name": "account",
          "type": "address"
        }
      ],
      "name": "balanceOf",
      "outputs": [
        {
          "internalType": "uint256",
          "name": "",
          "type": "uint256"
        }
      ],
      "stateMutability": "view",
      "type": "function"
    },
    {
      "inputs": [
        {
          "internalType": "uint256",
          "name": "amount",
          "type": "uint256"
        }
      ],
      "name": "burn",
      "outputs": [],
      "stateMutability": "nonpayable",
      "type": "function"
    },
    {
      "inputs": [
        {
          "internalType": "address",
          "name": "account",
          "type": "address"
        },
        {
          "internalType": "uint256",
          "name": "amount",
          "type": "uint256"
        }
      ],
      "name": "burnFrom",
      "outputs": [],
      "stateMutability": "nonpayable",
      "type": "function"
    },
    {
      "inputs": [
        {
          "internalType": "address",
          "name": "_holder",
          "type": "address"
        }
      ],
      "name": "canUnlockAmount",
      "outputs": [
        {
          "internalType": "uint256",
          "name": "",
          "type": "uint256"
        }
      ],
      "stateMutability": "view",
      "type": "function"
    },
    {
      "inputs": [],
      "name": "circulatingSupply",
      "outputs": [
        {
          "internalType": "uint256",
          "name": "",
          "type": "uint256"
        }
      ],
      "stateMutability": "view",
      "type": "function"
    },
    {
      "inputs": [],
      "name": "decimals",
      "outputs": [
        {
          "internalType": "uint8",
          "name": "",
          "type": "uint8"
        }
      ],
      "stateMutability": "view",
      "type": "function"
    },
    {
      "inputs": [
        {
          "internalType": "address",
          "name": "spender",
          "type": "address"
        },
        {
          "internalType": "uint256",
          "name": "subtractedValue",
          "type": "uint256"
        }
      ],
      "name": "decreaseAllowance",
      "outputs": [
        {
          "internalType": "bool",
          "name": "",
          "type": "bool"
        }
      ],
      "stateMutability": "nonpayable",
      "type": "function"
    },
    {
      "inputs": [
        {
          "internalType": "address",
          "name": "_genesisPool",
          "type": "address"
        },
        {
          "internalType": "address",
          "name": "_theoretics",
          "type": "address"
        }
      ],
      "name": "distributeReward",
      "outputs": [],
      "stateMutability": "nonpayable",
      "type": "function"
    },
    {
      "inputs": [],
      "name": "distributed",
      "outputs": [
        {
          "internalType": "address",
          "name": "",
          "type": "address"
        }
      ],
      "stateMutability": "view",
      "type": "function"
    },
    {
      "inputs": [
        {
          "internalType": "address",
          "name": "_user",
          "type": "address"
        }
      ],
      "name": "doesNotUnlockBeforeTransfer",
      "outputs": [
        {
          "internalType": "bool",
          "name": "",
          "type": "bool"
        }
      ],
      "stateMutability": "view",
      "type": "function"
    },
    {
      "inputs": [
        {
          "internalType": "address",
          "name": "_holder",
          "type": "address"
        }
      ],
      "name": "getLockFromTime",
      "outputs": [
        {
          "internalType": "uint256",
          "name": "",
          "type": "uint256"
        }
      ],
      "stateMutability": "view",
      "type": "function"
    },
    {
      "inputs": [
        {
          "internalType": "contract IERC20",
          "name": "_token",
          "type": "address"
        },
        {
          "internalType": "uint256",
          "name": "_amount",
          "type": "uint256"
        },
        {
          "internalType": "address",
          "name": "_to",
          "type": "address"
        }
      ],
      "name": "governanceRecoverUnsupported",
      "outputs": [],
      "stateMutability": "nonpayable",
      "type": "function"
    },
    {
      "inputs": [
        {
          "internalType": "address",
          "name": "spender",
          "type": "address"
        },
        {
          "internalType": "uint256",
          "name": "addedValue",
          "type": "uint256"
        }
      ],
      "name": "increaseAllowance",
      "outputs": [
        {
          "internalType": "bool",
          "name": "",
          "type": "bool"
        }
      ],
      "stateMutability": "nonpayable",
      "type": "function"
    },
    {
      "inputs": [],
      "name": "isOperator",
      "outputs": [
        {
          "internalType": "bool",
          "name": "",
          "type": "bool"
        }
      ],
      "stateMutability": "view",
      "type": "function"
    },
    {
      "inputs": [
        {
          "internalType": "address",
          "name": "_holder",
          "type": "address"
        }
      ],
      "name": "lastUnlockTime",
      "outputs": [
        {
          "internalType": "uint256",
          "name": "",
          "type": "uint256"
        }
      ],
      "stateMutability": "view",
      "type": "function"
    },
    {
      "inputs": [
        {
          "internalType": "address",
          "name": "_holder",
          "type": "address"
        },
        {
          "internalType": "uint256",
          "name": "_amount",
          "type": "uint256"
        }
      ],
      "name": "lock",
      "outputs": [],
      "stateMutability": "nonpayable",
      "type": "function"
    },
    {
      "inputs": [
        {
          "internalType": "address",
          "name": "",
          "type": "address"
        }
      ],
      "name": "lockFromTime",
      "outputs": [
        {
          "internalType": "uint256",
          "name": "",
          "type": "uint256"
        }
      ],
      "stateMutability": "view",
      "type": "function"
    },
    {
      "inputs": [
        {
          "internalType": "address",
          "name": "_holder",
          "type": "address"
        },
        {
          "internalType": "uint256",
          "name": "_newLockFrom",
          "type": "uint256"
        }
      ],
      "name": "lockFromUpdate",
      "outputs": [],
      "stateMutability": "nonpayable",
      "type": "function"
    },
    {
      "inputs": [
        {
          "internalType": "address",
          "name": "_holder",
          "type": "address"
        }
      ],
      "name": "lockOf",
      "outputs": [
        {
          "internalType": "uint256",
          "name": "",
          "type": "uint256"
        }
      ],
      "stateMutability": "view",
      "type": "function"
    },
    {
      "inputs": [],
      "name": "lockTime",
      "outputs": [
        {
          "internalType": "uint256",
          "name": "",
          "type": "uint256"
        }
      ],
      "stateMutability": "view",
      "type": "function"
    },
    {
      "inputs": [],
      "name": "lockedSupply",
      "outputs": [
        {
          "internalType": "uint256",
          "name": "",
          "type": "uint256"
        }
      ],
      "stateMutability": "view",
      "type": "function"
    },
    {
      "inputs": [
        {
          "internalType": "address",
          "name": "recipient_",
          "type": "address"
        },
        {
          "internalType": "uint256",
          "name": "amount_",
          "type": "uint256"
        }
      ],
      "name": "mint",
      "outputs": [
        {
          "internalType": "bool",
          "name": "",
          "type": "bool"
        }
      ],
      "stateMutability": "nonpayable",
      "type": "function"
    },
    {
      "inputs": [],
      "name": "name",
      "outputs": [
        {
          "internalType": "string",
          "name": "",
          "type": "string"
        }
      ],
      "stateMutability": "view",
      "type": "function"
    },
    {
      "inputs": [
        {
          "internalType": "address",
          "name": "",
          "type": "address"
        }
      ],
      "name": "noUnlockBeforeTransfer",
      "outputs": [
        {
          "internalType": "bool",
          "name": "",
          "type": "bool"
        }
      ],
      "stateMutability": "view",
      "type": "function"
    },
    {
      "inputs": [],
      "name": "operator",
      "outputs": [
        {
          "internalType": "address",
          "name": "",
          "type": "address"
        }
      ],
      "stateMutability": "view",
      "type": "function"
    },
    {
      "inputs": [],
      "name": "owner",
      "outputs": [
        {
          "internalType": "address",
          "name": "",
          "type": "address"
        }
      ],
      "stateMutability": "view",
      "type": "function"
    },
    {
      "inputs": [
        {
          "internalType": "address",
          "name": "_toRemove",
          "type": "address"
        }
      ],
      "name": "removeAuthorized",
      "outputs": [],
      "stateMutability": "nonpayable",
      "type": "function"
    },
    {
      "inputs": [],
      "name": "renounceOwnership",
      "outputs": [],
      "stateMutability": "nonpayable",
      "type": "function"
    },
    {
      "inputs": [],
      "name": "rewardPoolDistributed",
      "outputs": [
        {
          "internalType": "bool",
          "name": "",
          "type": "bool"
        }
      ],
      "stateMutability": "view",
      "type": "function"
    },
    {
      "inputs": [
        {
          "internalType": "uint256",
          "name": "_lockTime",
          "type": "uint256"
        }
      ],
      "name": "setLockTime",
      "outputs": [],
      "stateMutability": "nonpayable",
      "type": "function"
    },
    {
      "inputs": [
        {
          "internalType": "bool",
          "name": "_noUnlockBeforeTransfer",
          "type": "bool"
        }
      ],
      "name": "setNoUnlockBeforeTransfer",
      "outputs": [],
      "stateMutability": "nonpayable",
      "type": "function"
    },
    {
      "inputs": [],
      "name": "symbol",
      "outputs": [
        {
          "internalType": "string",
          "name": "",
          "type": "string"
        }
      ],
      "stateMutability": "view",
      "type": "function"
    },
    {
      "inputs": [],
      "name": "theoretics",
      "outputs": [
        {
          "internalType": "address",
          "name": "",
          "type": "address"
        }
      ],
      "stateMutability": "view",
      "type": "function"
    },
    {
      "inputs": [
        {
          "internalType": "address",
          "name": "_holder",
          "type": "address"
        }
      ],
      "name": "totalBalanceOf",
      "outputs": [
        {
          "internalType": "uint256",
          "name": "",
          "type": "uint256"
        }
      ],
      "stateMutability": "view",
      "type": "function"
    },
    {
      "inputs": [],
      "name": "totalLock",
      "outputs": [
        {
          "internalType": "uint256",
          "name": "",
          "type": "uint256"
        }
      ],
      "stateMutability": "view",
      "type": "function"
    },
    {
      "inputs": [],
      "name": "totalSupply",
      "outputs": [
        {
          "internalType": "uint256",
          "name": "",
          "type": "uint256"
        }
      ],
      "stateMutability": "view",
      "type": "function"
    },
    {
      "inputs": [
        {
          "internalType": "address",
          "name": "recipient",
          "type": "address"
        },
        {
          "internalType": "uint256",
          "name": "amount",
          "type": "uint256"
        }
      ],
      "name": "transfer",
      "outputs": [
        {
          "internalType": "bool",
          "name": "",
          "type": "bool"
        }
      ],
      "stateMutability": "nonpayable",
      "type": "function"
    },
    {
      "inputs": [
        {
          "internalType": "address",
          "name": "sender",
          "type": "address"
        },
        {
          "internalType": "address",
          "name": "recipient",
          "type": "address"
        },
        {
          "internalType": "uint256",
          "name": "amount",
          "type": "uint256"
        }
      ],
      "name": "transferFrom",
      "outputs": [
        {
          "internalType": "bool",
          "name": "",
          "type": "bool"
        }
      ],
      "stateMutability": "nonpayable",
      "type": "function"
    },
    {
      "inputs": [
        {
          "internalType": "address",
          "name": "newOperator_",
          "type": "address"
        }
      ],
      "name": "transferOperator",
      "outputs": [],
      "stateMutability": "nonpayable",
      "type": "function"
    },
    {
      "inputs": [
        {
          "internalType": "address",
          "name": "newOwner",
          "type": "address"
        }
      ],
      "name": "transferOwnership",
      "outputs": [],
      "stateMutability": "nonpayable",
      "type": "function"
    },
    {
      "inputs": [],
      "name": "unlock",
      "outputs": [],
      "stateMutability": "nonpayable",
      "type": "function"
    },
    {
      "inputs": [
        {
          "internalType": "address",
          "name": "account",
          "type": "address"
        },
        {
          "internalType": "uint256",
          "name": "amount",
          "type": "uint256"
        }
      ],
      "name": "unlockForUser",
      "outputs": [],
      "stateMutability": "nonpayable",
      "type": "function"
    },
    {
      "inputs": [],
      "name": "unlockedSupply",
      "outputs": [
        {
          "internalType": "uint256",
          "name": "",
          "type": "uint256"
        }
      ],
      "stateMutability": "view",
      "type": "function"
    }
  ],
  "bytecode": "0x60806040526008805460ff191690553480156200001b57600080fd5b506040518060400160405280600481526020016347414d4560e01b81525060405180606001604052806029815260200162002b1960299139815162000068906003906020850190620002e2565b5080516200007e906004906020840190620002e2565b50506005805460ff191660121790555060006200009a62000168565b60058054610100600160a81b0319166101006001600160a01b03841690810291909117909155604051919250906000907f8be0079c531659141344cd1fd0a4f28419497f9722a3daafe3b4186f6b6457e0908290a350620000fa62000168565b600680546001600160a01b0319166001600160a01b0392831617908190556040519116906000907f74da04524d50c64947f5dd5381ef1a4dca5cba8ed1d816243f9e48aa0b5617ed908290a36301e13380600b556200016233670de0b6b3a76400006200016c565b6200037e565b3390565b6001600160a01b038216620001c8576040805162461bcd60e51b815260206004820152601f60248201527f45524332303a206d696e7420746f20746865207a65726f206164647265737300604482015290519081900360640190fd5b620001d6600083836200027b565b620001f2816002546200028060201b62001ba31790919060201c565b6002556001600160a01b038216600090815260208181526040909120546200022591839062001ba362000280821b17901c565b6001600160a01b0383166000818152602081815260408083209490945583518581529351929391927fddf252ad1be2c89b69c2b068fc378daa952ba7f163c4a11628f55a4df523b3ef9281900390910190a35050565b505050565b600082820183811015620002db576040805162461bcd60e51b815260206004820152601b60248201527f536166654d6174683a206164646974696f6e206f766572666c6f770000000000604482015290519081900360640190fd5b9392505050565b828054600181600116156101000203166002900490600052602060002090601f016020900481019282601f106200032557805160ff191683800117855562000355565b8280016001018555821562000355579182015b828111156200035557825182559160200191906001019062000338565b506200036392915062000367565b5090565b5b8082111562000363576000815560010162000368565b61278b806200038e6000396000f3fe608060405234801561001057600080fd5b50600436106102955760003560e01c806370a0823111610167578063ad45e4ae116100ce578063dc7887a411610087578063dc7887a4146107fa578063dd62ed3e14610820578063f2fde38b1461084e578063f4fd47cf14610874578063f84b903e146108a2578063fd3d27b8146108aa57610295565b8063ad45e4ae14610755578063ae04d45d1461075d578063af2b0f661461077a578063b9181611146107a6578063ca5c7b91146107cc578063cf1c316a146107d457610295565b80639358928b116101205780639358928b146106dd57806395d89b41146106e55780639662676c146106ed578063a457c2d7146106f5578063a69df4b514610721578063a9059cbb1461072957610295565b806370a082311461062957806370d28c281461064f578063715018a61461067557806379cc67901461067d57806384ec2344146106a95780638da5cb5b146106d557610295565b80633a1aae351161020b57806348846519116101c457806348846519146105375780634a4548ef1461055d5780634b0ee02a1461058357806354575af4146105a9578063570ca735146105df5780635a46d3b51461060357610295565b80633a1aae35146104925780633e85866a1461049a57806340c10f19146104c057806342966c68146104ec5780634456eda214610509578063485d7d941461051157610295565b8063202b17601161025d578063202b17601461039a57806323b872dd146103c0578063282d3fdf146103f657806329605e7714610422578063313ce56714610448578063395093511461046657610295565b806306fdde031461029a578063095ea7b3146103175780630d6680871461035757806318160ddd146103715780631a19920d14610379575b600080fd5b6102a26108b2565b6040805160208082528351818301528351919283929083019185019080838360005b838110156102dc5781810151838201526020016102c4565b50505050905090810190601f1680156103095780820380516001836020036101000a031916815260200191505b509250505060405180910390f35b6103436004803603604081101561032d57600080fd5b506001600160a01b038135169060200135610948565b604080519115158252519081900360200190f35b61035f610966565b60408051918252519081900360200190f35b61035f61096c565b6103986004803603602081101561038f57600080fd5b50351515610972565b005b61035f600480360360208110156103b057600080fd5b50356001600160a01b0316610992565b610343600480360360608110156103d657600080fd5b506001600160a01b03813581169160208101359091169060400135610aa5565b6103986004803603604081101561040c57600080fd5b506001600160a01b038135169060200135610b2c565b6103986004803603602081101561043857600080fd5b50356001600160a01b0316610e96565b610450610eeb565b6040805160ff9092168252519081900360200190f35b6103436004803603604081101561047c57600080fd5b506001600160a01b038135169060200135610ef4565b61035f610f42565b610343600480360360208110156104b057600080fd5b50356001600160a01b0316610f48565b610343600480360360408110156104d657600080fd5b506001600160a01b038135169060200135610f66565b6103986004803603602081101561050257600080fd5b5035610fe0565b610343610fe9565b6103986004803603602081101561052757600080fd5b50356001600160a01b031661100f565b61035f6004803603602081101561054d57600080fd5b50356001600160a01b03166110a8565b6103436004803603602081101561057357600080fd5b50356001600160a01b03166110ba565b61035f6004803603602081101561059957600080fd5b50356001600160a01b03166110cf565b610398600480360360608110156105bf57600080fd5b506001600160a01b038135811691602081013591604090910135166110fc565b6105e7611282565b604080516001600160a01b039092168252519081900360200190f35b61035f6004803603602081101561061957600080fd5b50356001600160a01b0316611291565b61035f6004803603602081101561063f57600080fd5b50356001600160a01b03166112ac565b61035f6004803603602081101561066557600080fd5b50356001600160a01b03166112c7565b6103986112e2565b6103986004803603604081101561069357600080fd5b506001600160a01b038135169060200135611394565b610398600480360360408110156106bf57600080fd5b506001600160a01b0381351690602001356113eb565b6105e761148d565b61035f6114a1565b6102a26114d1565b610343611532565b6103436004803603604081101561070b57600080fd5b506001600160a01b03813516906020013561153b565b6103986115a3565b6103436004803603604081101561073f57600080fd5b506001600160a01b0381351690602001356115ba565b6105e76115ce565b6103986004803603602081101561077357600080fd5b50356115dd565b6103986004803603604081101561079057600080fd5b506001600160a01b0381351690602001356116ab565b610343600480360360208110156107bc57600080fd5b50356001600160a01b031661175d565b61035f611772565b610398600480360360208110156107ea57600080fd5b50356001600160a01b031661177c565b61035f6004803603602081101561081057600080fd5b50356001600160a01b0316611802565b61035f6004803603604081101561083657600080fd5b506001600160a01b038135811691602001351661181d565b6103986004803603602081101561086457600080fd5b50356001600160a01b0316611848565b6103986004803603604081101561088a57600080fd5b506001600160a01b0381358116916020013516611956565b6105e7611b7f565b61035f611b93565b60038054604080516020601f600260001961010060018816150201909516949094049384018190048102820181019092528281526060939092909183018282801561093e5780601f106109135761010080835404028352916020019161093e565b820191906000526020600020905b81548152906001019060200180831161092157829003601f168201915b5050505050905090565b600061095c610955611c04565b8484611c08565b5060015b92915050565b600b5481565b60025490565b336000908152600d60205260409020805460ff1916911515919091179055565b6001600160a01b0381166000908152600c602052604081205442116109b957506000610aa0565b600b546001600160a01b0383166000908152600c60205260409020546109de91611ba3565b4210610a0357506001600160a01b0381166000908152600e6020526040902054610aa0565b6001600160a01b0382166000908152600f6020526040812054610a27904290611cf4565b6001600160a01b0384166000908152600f6020908152604080832054600b54600c909352908320549394509192610a699291610a639190611ba3565b90611cf4565b6001600160a01b0385166000908152600e6020526040902054909150610a9b908290610a959085611d51565b90611daa565b925050505b919050565b6000610ab2848484611e11565b610b2284610abe611c04565b610b1d856040518060600160405280602881526020016125f2602891396001600160a01b038a16600090815260016020526040812090610afc611c04565b6001600160a01b031681526020810191909152604001600020549190611e7a565b611c08565b5060019392505050565b3360009081526007602052604090205460ff1680610b59575033610b4e61148d565b6001600160a01b0316145b80610b73575033610b68611282565b6001600160a01b0316145b80610b8857506009546001600160a01b031633145b610bc7576040805162461bcd60e51b8152602060048201526018602482015260008051602061263a833981519152604482015290519081900360640190fd5b6001600160a01b038216610c22576040805162461bcd60e51b815260206004820152601f60248201527f43616e6e6f74206c6f636b20746f20746865207a65726f206164647265737300604482015290519081900360640190fd5b610c2b826112ac565b811115610c7f576040805162461bcd60e51b815260206004820152601860248201527f4c6f636b20616d6f756e74206f7665722062616c616e63650000000000000000604482015290519081900360640190fd5b610c87611282565b6001600160a01b0316336001600160a01b03161480610cb057506009546001600160a01b031633145b80610cf55750610ccf6064610a95605f610cc9866110cf565b90611d51565b6001600160a01b0383166000908152600e6020526040902054610cf29083611ba3565b11155b610d305760405162461bcd60e51b81526004018080602001828103825260258152602001806126e86025913960400191505060405180910390fd5b6001600160a01b0382166000908152600d602052604090205460ff168015610d6f57506001600160a01b0382166000908152600e602052604090205415155b15610d8d576000610d7f83610992565b9050610d8b8382611f11565b505b6001600160a01b0382166000908152600c602052604090204290819055610db5833084611e11565b6001600160a01b0383166000908152600e6020526040902054610dd89083611ba3565b6001600160a01b0384166000908152600e6020526040902055600a54610dfe9083611ba3565b600a556001600160a01b0383166000908152600c6020908152604080832054600f909252909120541015610e52576001600160a01b0383166000908152600c6020908152604080832054600f909252909120555b6040805183815290516001600160a01b038516917f625fed9875dada8643f2418b838ae0bc78d9a148a18eee4ee1979ff0f3f5d427919081900360200190a2505050565b6006546001600160a01b03163314610edf5760405162461bcd60e51b815260040180806020018281038252602481526020018061267e6024913960400191505060405180910390fd5b610ee88161207a565b50565b60055460ff1690565b600061095c610f01611c04565b84610b1d8560016000610f12611c04565b6001600160a01b03908116825260208083019390935260409182016000908120918c168152925290205490611ba3565b600a5490565b6001600160a01b03166000908152600d602052604090205460ff1690565b6006546000906001600160a01b03163314610fb25760405162461bcd60e51b815260040180806020018281038252602481526020018061267e6024913960400191505060405180910390fd5b6000610fbd846112ac565b9050610fc98484612117565b6000610fd4856112ac565b91909111949350505050565b610ee881612207565b6006546000906001600160a01b0316611000611c04565b6001600160a01b031614905090565b611017611c04565b6001600160a01b031661102861148d565b6001600160a01b031614611071576040805162461bcd60e51b8152602060048201819052602482015260008051602061261a833981519152604482015290519081900360640190fd5b6001600160a01b03811633141561108757600080fd5b6001600160a01b03166000908152600760205260409020805460ff19169055565b600c6020526000908152604090205481565b600d6020526000908152604090205460ff1681565b60006109606110dd836112ac565b6001600160a01b0384166000908152600e602052604090205490611ba3565b3360009081526007602052604090205460ff168061112957503361111e61148d565b6001600160a01b0316145b80611143575033611138611282565b6001600160a01b0316145b611182576040805162461bcd60e51b8152602060048201526018602482015260008051602061263a833981519152604482015290519081900360640190fd5b61118a611282565b6001600160a01b0316336001600160a01b031614806111b257506001600160a01b0383163014155b6111fa576040805162461bcd60e51b815260206004820152601460248201527324b73b30b634b2103832b936b4b9b9b4b7b7399760611b604482015290519081900360640190fd5b826001600160a01b031663a9059cbb82846040518363ffffffff1660e01b815260040180836001600160a01b0316815260200182815260200192505050602060405180830381600087803b15801561125157600080fd5b505af1158015611265573d6000803e3d6000fd5b505050506040513d602081101561127b57600080fd5b5050505050565b6006546001600160a01b031690565b6001600160a01b03166000908152600e602052604090205490565b6001600160a01b031660009081526020819052604090205490565b6001600160a01b03166000908152600c602052604090205490565b6112ea611c04565b6001600160a01b03166112fb61148d565b6001600160a01b031614611344576040805162461bcd60e51b8152602060048201819052602482015260008051602061261a833981519152604482015290519081900360640190fd5b60055460405160009161010090046001600160a01b0316907f8be0079c531659141344cd1fd0a4f28419497f9722a3daafe3b4186f6b6457e0908390a360058054610100600160a81b0319169055565b6006546001600160a01b031633146113dd5760405162461bcd60e51b815260040180806020018281038252602481526020018061267e6024913960400191505060405180910390fd5b6113e78282612218565b5050565b3360009081526007602052604090205460ff168061141857503361140d61148d565b6001600160a01b0316145b80611432575033611427611282565b6001600160a01b0316145b611471576040805162461bcd60e51b8152602060048201526018602482015260008051602061263a833981519152604482015290519081900360640190fd5b6001600160a01b039091166000908152600c6020526040902055565b60055461010090046001600160a01b031690565b60006114cc6114c4600860019054906101000a90046001600160a01b03166112ac565b610a6361096c565b905090565b60048054604080516020601f600260001961010060018816150201909516949094049384018190048102820181019092528281526060939092909183018282801561093e5780601f106109135761010080835404028352916020019161093e565b60085460ff1681565b600061095c611548611c04565b84610b1d856040518060600160405280602581526020016127316025913960016000611572611c04565b6001600160a01b03908116825260208083019390935260409182016000908120918d16815292529020549190611e7a565b60006115ae33610992565b9050610ee83382611f11565b600061095c6115c7611c04565b8484611e11565b6009546001600160a01b031681565b3360009081526007602052604090205460ff168061160a5750336115ff61148d565b6001600160a01b0316145b80611624575033611619611282565b6001600160a01b0316145b611663576040805162461bcd60e51b8152602060048201526018602482015260008051602061263a833981519152604482015290519081900360640190fd5b6301e133808111156116a65760405162461bcd60e51b815260040180806020018281038252602c815260200180612552602c913960400191505060405180910390fd5b600b55565b3360009081526007602052604090205460ff16806116d85750336116cd61148d565b6001600160a01b0316145b806116f25750336116e7611282565b6001600160a01b0316145b611731576040805162461bcd60e51b8152602060048201526018602482015260008051602061263a833981519152604482015290519081900360640190fd5b600061173c83610992565b9050801561174e5761174e8382611f11565b6117588383611f11565b505050565b60076020526000908152604090205460ff1681565b60006114cc610f42565b611784611c04565b6001600160a01b031661179561148d565b6001600160a01b0316146117de576040805162461bcd60e51b8152602060048201819052602482015260008051602061261a833981519152604482015290519081900360640190fd5b6001600160a01b03166000908152600760205260409020805460ff19166001179055565b6001600160a01b03166000908152600f602052604090205490565b6001600160a01b03918216600090815260016020908152604080832093909416825291909152205490565b611850611c04565b6001600160a01b031661186161148d565b6001600160a01b0316146118aa576040805162461bcd60e51b8152602060048201819052602482015260008051602061261a833981519152604482015290519081900360640190fd5b6001600160a01b0381166118ef5760405162461bcd60e51b815260040180806020018281038252602681526020018061250a6026913960400191505060405180910390fd5b6005546040516001600160a01b0380841692610100900416907f8be0079c531659141344cd1fd0a4f28419497f9722a3daafe3b4186f6b6457e090600090a3600580546001600160a01b0390921661010002610100600160a81b0319909216919091179055565b3360009081526007602052604090205460ff168061198357503361197861148d565b6001600160a01b0316145b8061199d575033611992611282565b6001600160a01b0316145b6119dc576040805162461bcd60e51b8152602060048201526018602482015260008051602061263a833981519152604482015290519081900360640190fd5b60085460ff1615611a34576040805162461bcd60e51b815260206004820152601860248201527f6f6e6c792063616e2064697374726962757465206f6e63650000000000000000604482015290519081900360640190fd5b6001600160a01b038216611a7f576040805162461bcd60e51b815260206004820152600d60248201526c0857d9d95b995cda5cd41bdbdb609a1b604482015290519081900360640190fd5b6001600160a01b038116611ac9576040805162461bcd60e51b815260206004820152600c60248201526b215f7468656f72657469637360a01b604482015290519081900360640190fd5b60088054600160ff1990911617610100600160a81b0319166101006001600160a01b0385811691820292909217909255600980546001600160a01b031916918416919091179055604080516356302ba760e11b815290516113e7928592909163ac60574e91600480820192602092909190829003018186803b158015611b4e57600080fd5b505afa158015611b62573d6000803e3d6000fd5b505050506040513d6020811015611b7857600080fd5b5051612117565b60085461010090046001600160a01b031681565b60006114cc600a54610a6361096c565b600082820183811015611bfd576040805162461bcd60e51b815260206004820152601b60248201527f536166654d6174683a206164646974696f6e206f766572666c6f770000000000604482015290519081900360640190fd5b9392505050565b3390565b6001600160a01b038316611c4d5760405162461bcd60e51b815260040180806020018281038252602481526020018061270d6024913960400191505060405180910390fd5b6001600160a01b038216611c925760405162461bcd60e51b81526004018080602001828103825260228152602001806125306022913960400191505060405180910390fd5b6001600160a01b03808416600081815260016020908152604080832094871680845294825291829020859055815185815291517f8c5be1e5ebec7d5bd14f71427d1e84f3dd0314c0f7b2291e5b200ac8c7c3b9259281900390910190a3505050565b600082821115611d4b576040805162461bcd60e51b815260206004820152601e60248201527f536166654d6174683a207375627472616374696f6e206f766572666c6f770000604482015290519081900360640190fd5b50900390565b600082611d6057506000610960565b82820282848281611d6d57fe5b0414611bfd5760405162461bcd60e51b81526004018080602001828103825260218152602001806125d16021913960400191505060405180910390fd5b6000808211611e00576040805162461bcd60e51b815260206004820152601a60248201527f536166654d6174683a206469766973696f6e206279207a65726f000000000000604482015290519081900360640190fd5b818381611e0957fe5b049392505050565b6001600160a01b0383166000908152600d602052604090205460ff16158015611e5157506001600160a01b0383166000908152600e602052604090205415155b15611e6f576000611e6184610992565b9050611e6d8482611f11565b505b61175883838361226d565b60008184841115611f095760405162461bcd60e51b81526004018080602001828103825283818151815260200191508051906020019080838360005b83811015611ece578181015183820152602001611eb6565b50505050905090810190601f168015611efb5780820380516001836020036101000a031916815260200191505b509250505060405180910390fd5b505050900390565b6001600160a01b0382166000908152600e6020526040902054611f7b576040805162461bcd60e51b815260206004820152601a60248201527f496e73756666696369656e74206c6f636b656420746f6b656e73000000000000604482015290519081900360640190fd5b6001600160a01b0382166000908152600e6020526040902054811115611fb657506001600160a01b0381166000908152600e60205260409020545b611fbf306112ac565b811115611fd257611fcf306112ac565b90505b611fdd308383611e11565b6001600160a01b0382166000908152600e60205260409020546120009082611cf4565b6001600160a01b0383166000908152600e6020908152604080832093909355600f905220429055600a546120349082611cf4565b600a556040805182815290516001600160a01b038416917f6381d9813cabeb57471b5a7e05078e64845ccdb563146a6911d536f24ce960f1919081900360200190a25050565b6001600160a01b0381166120bf5760405162461bcd60e51b815260040180806020018281038252602d8152602001806125a4602d913960400191505060405180910390fd5b6040516001600160a01b038216906000907f74da04524d50c64947f5dd5381ef1a4dca5cba8ed1d816243f9e48aa0b5617ed908290a3600680546001600160a01b0319166001600160a01b0392909216919091179055565b6001600160a01b038216612172576040805162461bcd60e51b815260206004820152601f60248201527f45524332303a206d696e7420746f20746865207a65726f206164647265737300604482015290519081900360640190fd5b61217e60008383611758565b60025461218b9082611ba3565b6002556001600160a01b0382166000908152602081905260409020546121b19082611ba3565b6001600160a01b0383166000818152602081815260408083209490945583518581529351929391927fddf252ad1be2c89b69c2b068fc378daa952ba7f163c4a11628f55a4df523b3ef9281900390910190a35050565b610ee8612212611c04565b826123c8565b600061224f8260405180606001604052806024815260200161265a6024913961224886612243611c04565b61181d565b9190611e7a565b90506122638361225d611c04565b83611c08565b61175883836123c8565b6001600160a01b0383166122b25760405162461bcd60e51b81526004018080602001828103825260258152602001806126c36025913960400191505060405180910390fd5b6001600160a01b0382166122f75760405162461bcd60e51b81526004018080602001828103825260238152602001806124c56023913960400191505060405180910390fd5b612302838383611758565b61233f8160405180606001604052806026815260200161257e602691396001600160a01b0386166000908152602081905260409020549190611e7a565b6001600160a01b03808516600090815260208190526040808220939093559084168152205461236e9082611ba3565b6001600160a01b038084166000818152602081815260409182902094909455805185815290519193928716927fddf252ad1be2c89b69c2b068fc378daa952ba7f163c4a11628f55a4df523b3ef92918290030190a3505050565b6001600160a01b03821661240d5760405162461bcd60e51b81526004018080602001828103825260218152602001806126a26021913960400191505060405180910390fd5b61241982600083611758565b612456816040518060600160405280602281526020016124e8602291396001600160a01b0385166000908152602081905260409020549190611e7a565b6001600160a01b03831660009081526020819052604090205560025461247c9082611cf4565b6002556040805182815290516000916001600160a01b038516917fddf252ad1be2c89b69c2b068fc378daa952ba7f163c4a11628f55a4df523b3ef9181900360200190a3505056fe45524332303a207472616e7366657220746f20746865207a65726f206164647265737345524332303a206275726e20616d6f756e7420657863656564732062616c616e63654f776e61626c653a206e6577206f776e657220697320746865207a65726f206164647265737345524332303a20617070726f766520746f20746865207a65726f20616464726573734c6f636b2074696d65206d757374206e6f742062652067726561746572207468616e2033363520646179732e45524332303a207472616e7366657220616d6f756e7420657863656564732062616c616e63656f70657261746f723a207a65726f206164647265737320676976656e20666f72206e6577206f70657261746f72536166654d6174683a206d756c7469706c69636174696f6e206f766572666c6f7745524332303a207472616e7366657220616d6f756e74206578636565647320616c6c6f77616e63654f776e61626c653a2063616c6c6572206973206e6f7420746865206f776e657263616c6c6572206973206e6f7420617574686f72697a6564000000000000000045524332303a206275726e20616d6f756e74206578636565647320616c6c6f77616e63656f70657261746f723a2063616c6c6572206973206e6f7420746865206f70657261746f7245524332303a206275726e2066726f6d20746865207a65726f206164647265737345524332303a207472616e736665722066726f6d20746865207a65726f20616464726573734c6f636b20616d6f756e74206f76657220393525206f6620746f74616c2062616c616e636545524332303a20617070726f76652066726f6d20746865207a65726f206164647265737345524332303a2064656372656173656420616c6c6f77616e63652062656c6f77207a65726fa2646970667358221220806fcbf5c6d9ab9280736b8733e241a91a766913b56f7ea9d7d260714ba97e5064736f6c634300060c003347616d65205468656f7279202867616d657468656f72792e74656368293a2047414d4520546f6b656e",
  "linkReferences": {},
  "deployedLinkReferences": {}
}