{
  "_format": "hh-sol-artifact-1",
  "contractName": "Master",
  "sourceName": "contracts/Master.sol",
  "abi": [
    {
      "inputs": [
        {
          "internalType": "contract IERC20Lockable",
          "name": "_theory",
          "type": "address"
        },
        {
          "internalType": "contract IERC20Lockable",
          "name": "_game",
          "type": "address"
        },
        {
          "internalType": "contract ITheoretics",
          "name": "_theoretics",
          "type": "address"
        },
        {
          "internalType": "contract ITreasury",
          "name": "_treasury",
          "type": "address"
        }
      ],
      "stateMutability": "nonpayable",
      "type": "constructor"
    },
    {
      "anonymous": false,
      "inputs": [
        {
          "indexed": true,
          "internalType": "address",
          "name": "owner",
          "type": "address"
        },
        {
          "indexed": true,
          "internalType": "address",
          "name": "spender",
          "type": "address"
        },
        {
          "indexed": false,
          "internalType": "uint256",
          "name": "value",
          "type": "uint256"
        }
      ],
      "name": "Approval",
      "type": "event"
    },
    {
      "anonymous": false,
      "inputs": [
        {
          "indexed": true,
          "internalType": "address",
          "name": "user",
          "type": "address"
        },
        {
          "indexed": false,
          "internalType": "uint256",
          "name": "amountInTheory",
          "type": "uint256"
        },
        {
          "indexed": false,
          "internalType": "uint256",
          "name": "amountOutMaster",
          "type": "uint256"
        }
      ],
      "name": "Deposit",
      "type": "event"
    },
    {
      "anonymous": false,
      "inputs": [
        {
          "indexed": true,
          "internalType": "address",
          "name": "previousOwner",
          "type": "address"
        },
        {
          "indexed": true,
          "internalType": "address",
          "name": "newOwner",
          "type": "address"
        }
      ],
      "name": "OwnershipTransferred",
      "type": "event"
    },
    {
      "anonymous": false,
      "inputs": [
        {
          "indexed": true,
          "internalType": "address",
          "name": "user",
          "type": "address"
        },
        {
          "indexed": false,
          "internalType": "uint256",
          "name": "reward",
          "type": "uint256"
        },
        {
          "indexed": false,
          "internalType": "uint256",
          "name": "lockAmount",
          "type": "uint256"
        }
      ],
      "name": "RewardPaid",
      "type": "event"
    },
    {
      "anonymous": false,
      "inputs": [
        {
          "indexed": false,
          "internalType": "uint256",
          "name": "id",
          "type": "uint256"
        }
      ],
      "name": "Snapshot",
      "type": "event"
    },
    {
      "anonymous": false,
      "inputs": [
        {
          "indexed": true,
          "internalType": "address",
          "name": "from",
          "type": "address"
        },
        {
          "indexed": true,
          "internalType": "address",
          "name": "to",
          "type": "address"
        },
        {
          "indexed": false,
          "internalType": "uint256",
          "name": "value",
          "type": "uint256"
        }
      ],
      "name": "Transfer",
      "type": "event"
    },
    {
      "anonymous": false,
      "inputs": [
        {
          "indexed": true,
          "internalType": "address",
          "name": "user",
          "type": "address"
        },
        {
          "indexed": false,
          "internalType": "uint256",
          "name": "amountInMaster",
          "type": "uint256"
        },
        {
          "indexed": false,
          "internalType": "uint256",
          "name": "amountOutTheory",
          "type": "uint256"
        }
      ],
      "name": "Withdraw",
      "type": "event"
    },
    {
      "anonymous": false,
      "inputs": [
        {
          "indexed": true,
          "internalType": "address",
          "name": "user",
          "type": "address"
        },
        {
          "indexed": false,
          "internalType": "uint256",
          "name": "amountInMaster",
          "type": "uint256"
        },
        {
          "indexed": false,
          "internalType": "uint256",
          "name": "amountOutTheory",
          "type": "uint256"
        }
      ],
      "name": "WithdrawRequest",
      "type": "event"
    },
    {
      "inputs": [
        {
          "internalType": "address",
          "name": "_toAdd",
          "type": "address"
        }
      ],
      "name": "addAuthorized",
      "outputs": [],
      "stateMutability": "nonpayable",
      "type": "function"
    },
    {
      "inputs": [
        {
          "internalType": "address",
          "name": "owner",
          "type": "address"
        },
        {
          "internalType": "address",
          "name": "spender",
          "type": "address"
        }
      ],
      "name": "allowance",
      "outputs": [
        {
          "internalType": "uint256",
          "name": "",
          "type": "uint256"
        }
      ],
      "stateMutability": "view",
      "type": "function"
    },
    {
      "inputs": [
        {
          "internalType": "address",
          "name": "userAddress",
          "type": "address"
        }
      ],
      "name": "anyGameAvailableToClaim",
      "outputs": [
        {
          "internalType": "bool",
          "name": "",
          "type": "bool"
        }
      ],
      "stateMutability": "view",
      "type": "function"
    },
    {
      "inputs": [
        {
          "internalType": "address",
          "name": "spender",
          "type": "address"
        },
        {
          "internalType": "uint256",
          "name": "amount",
          "type": "uint256"
        }
      ],
      "name": "approve",
      "outputs": [
        {
          "internalType": "bool",
          "name": "",
          "type": "bool"
        }
      ],
      "stateMutability": "nonpayable",
      "type": "function"
    },
    {
      "inputs": [
        {
          "internalType": "address",
          "name": "",
          "type": "address"
        }
      ],
      "name": "authorized",
      "outputs": [
        {
          "internalType": "bool",
          "name": "",
          "type": "bool"
        }
      ],
      "stateMutability": "view",
      "type": "function"
    },
    {
      "inputs": [
        {
          "internalType": "address",
          "name": "account",
          "type": "address"
        }
      ],
      "name": "balanceOf",
      "outputs": [
        {
          "internalType": "uint256",
          "name": "",
          "type": "uint256"
        }
      ],
      "stateMutability": "view",
      "type": "function"
    },
    {
      "inputs": [
        {
          "internalType": "address",
          "name": "account",
          "type": "address"
        },
        {
          "internalType": "uint256",
          "name": "snapshotId",
          "type": "uint256"
        }
      ],
      "name": "balanceOfAt",
      "outputs": [
        {
          "internalType": "uint256",
          "name": "",
          "type": "uint256"
        }
      ],
      "stateMutability": "view",
      "type": "function"
    },
    {
      "inputs": [],
      "name": "claimGame",
      "outputs": [],
      "stateMutability": "nonpayable",
      "type": "function"
    },
    {
      "inputs": [],
      "name": "decimals",
      "outputs": [
        {
          "internalType": "uint8",
          "name": "",
          "type": "uint8"
        }
      ],
      "stateMutability": "view",
      "type": "function"
    },
    {
      "inputs": [
        {
          "internalType": "address",
          "name": "spender",
          "type": "address"
        },
        {
          "internalType": "uint256",
          "name": "subtractedValue",
          "type": "uint256"
        }
      ],
      "name": "decreaseAllowance",
      "outputs": [
        {
          "internalType": "bool",
          "name": "",
          "type": "bool"
        }
      ],
      "stateMutability": "nonpayable",
      "type": "function"
    },
    {
      "inputs": [],
      "name": "game",
      "outputs": [
        {
          "internalType": "contract IERC20Lockable",
          "name": "",
          "type": "address"
        }
      ],
      "stateMutability": "view",
      "type": "function"
    },
    {
      "inputs": [
        {
          "internalType": "address",
          "name": "userAddress",
          "type": "address"
        }
      ],
      "name": "gameAvailableToClaim",
      "outputs": [
        {
          "internalType": "uint256",
          "name": "",
          "type": "uint256"
        }
      ],
      "stateMutability": "view",
      "type": "function"
    },
    {
      "inputs": [
        {
          "internalType": "address",
          "name": "spender",
          "type": "address"
        },
        {
          "internalType": "uint256",
          "name": "addedValue",
          "type": "uint256"
        }
      ],
      "name": "increaseAllowance",
      "outputs": [
        {
          "internalType": "bool",
          "name": "",
          "type": "bool"
        }
      ],
      "stateMutability": "nonpayable",
      "type": "function"
    },
    {
      "inputs": [],
      "name": "initiatePart1",
      "outputs": [],
      "stateMutability": "nonpayable",
      "type": "function"
    },
    {
      "inputs": [],
      "name": "initiatePart2",
      "outputs": [],
      "stateMutability": "nonpayable",
      "type": "function"
    },
    {
      "inputs": [
        {
          "internalType": "uint256",
          "name": "_share",
          "type": "uint256"
        }
      ],
      "name": "masterToTheory",
      "outputs": [
        {
          "internalType": "uint256",
          "name": "",
          "type": "uint256"
        }
      ],
      "stateMutability": "view",
      "type": "function"
    },
    {
      "inputs": [
        {
          "internalType": "uint256",
          "name": "_share",
          "type": "uint256"
        },
        {
          "internalType": "uint256",
          "name": "totalGovernanceToken",
          "type": "uint256"
        },
        {
          "internalType": "uint256",
          "name": "totalShares",
          "type": "uint256"
        }
      ],
      "name": "masterToTheoryOwed",
      "outputs": [
        {
          "internalType": "uint256",
          "name": "",
          "type": "uint256"
        }
      ],
      "stateMutability": "view",
      "type": "function"
    },
    {
      "inputs": [],
      "name": "minLockTime",
      "outputs": [
        {
          "internalType": "uint256",
          "name": "",
          "type": "uint256"
        }
      ],
      "stateMutability": "view",
      "type": "function"
    },
    {
      "inputs": [],
      "name": "name",
      "outputs": [
        {
          "internalType": "string",
          "name": "",
          "type": "string"
        }
      ],
      "stateMutability": "view",
      "type": "function"
    },
    {
      "inputs": [],
      "name": "owner",
      "outputs": [
        {
          "internalType": "address",
          "name": "",
          "type": "address"
        }
      ],
      "stateMutability": "view",
      "type": "function"
    },
    {
      "inputs": [
        {
          "internalType": "address",
          "name": "_toRemove",
          "type": "address"
        }
      ],
      "name": "removeAuthorized",
      "outputs": [],
      "stateMutability": "nonpayable",
      "type": "function"
    },
    {
      "inputs": [],
      "name": "renounceOwnership",
      "outputs": [],
      "stateMutability": "nonpayable",
      "type": "function"
    },
    {
      "inputs": [
        {
          "internalType": "uint256",
          "name": "amountInTheory",
          "type": "uint256"
        },
        {
          "internalType": "uint256",
          "name": "lockTime",
          "type": "uint256"
        }
      ],
      "name": "requestBuyFromTheory",
      "outputs": [],
      "stateMutability": "nonpayable",
      "type": "function"
    },
    {
      "inputs": [
        {
          "internalType": "uint256",
          "name": "amountInMaster",
          "type": "uint256"
        }
      ],
      "name": "requestSellToTheory",
      "outputs": [],
      "stateMutability": "nonpayable",
      "type": "function"
    },
    {
      "inputs": [],
      "name": "sellToTheory",
      "outputs": [],
      "stateMutability": "nonpayable",
      "type": "function"
    },
    {
      "inputs": [
        {
          "internalType": "uint256",
          "name": "lockTime",
          "type": "uint256"
        },
        {
          "internalType": "uint256",
          "name": "penalty",
          "type": "uint256"
        }
      ],
      "name": "setTimes",
      "outputs": [],
      "stateMutability": "nonpayable",
      "type": "function"
    },
    {
      "inputs": [
        {
          "internalType": "uint256",
          "name": "amount",
          "type": "uint256"
        }
      ],
      "name": "stakeExternalTheory",
      "outputs": [],
      "stateMutability": "nonpayable",
      "type": "function"
    },
    {
      "inputs": [],
      "name": "symbol",
      "outputs": [
        {
          "internalType": "string",
          "name": "",
          "type": "string"
        }
      ],
      "stateMutability": "view",
      "type": "function"
    },
    {
      "inputs": [],
      "name": "theoretics",
      "outputs": [
        {
          "internalType": "contract ITheoretics",
          "name": "",
          "type": "address"
        }
      ],
      "stateMutability": "view",
      "type": "function"
    },
    {
      "inputs": [],
      "name": "theory",
      "outputs": [
        {
          "internalType": "contract IERC20Lockable",
          "name": "",
          "type": "address"
        }
      ],
      "stateMutability": "view",
      "type": "function"
    },
    {
      "inputs": [
        {
          "internalType": "uint256",
          "name": "_amount",
          "type": "uint256"
        }
      ],
      "name": "theoryToMaster",
      "outputs": [
        {
          "internalType": "uint256",
          "name": "",
          "type": "uint256"
        }
      ],
      "stateMutability": "view",
      "type": "function"
    },
    {
      "inputs": [
        {
          "internalType": "uint256",
          "name": "_amount",
          "type": "uint256"
        },
        {
          "internalType": "uint256",
          "name": "totalGovernanceToken",
          "type": "uint256"
        },
        {
          "internalType": "uint256",
          "name": "totalShares",
          "type": "uint256"
        }
      ],
      "name": "theoryToMasterOwed",
      "outputs": [
        {
          "internalType": "uint256",
          "name": "",
          "type": "uint256"
        }
      ],
      "stateMutability": "view",
      "type": "function"
    },
    {
      "inputs": [],
      "name": "totalGameClaimed",
      "outputs": [
        {
          "internalType": "uint256",
          "name": "",
          "type": "uint256"
        }
      ],
      "stateMutability": "view",
      "type": "function"
    },
    {
      "inputs": [],
      "name": "totalSupply",
      "outputs": [
        {
          "internalType": "uint256",
          "name": "",
          "type": "uint256"
        }
      ],
      "stateMutability": "view",
      "type": "function"
    },
    {
      "inputs": [
        {
          "internalType": "uint256",
          "name": "snapshotId",
          "type": "uint256"
        }
      ],
      "name": "totalSupplyAt",
      "outputs": [
        {
          "internalType": "uint256",
          "name": "",
          "type": "uint256"
        }
      ],
      "stateMutability": "view",
      "type": "function"
    },
    {
      "inputs": [
        {
          "internalType": "address",
          "name": "recipient",
          "type": "address"
        },
        {
          "internalType": "uint256",
          "name": "amount",
          "type": "uint256"
        }
      ],
      "name": "transfer",
      "outputs": [
        {
          "internalType": "bool",
          "name": "",
          "type": "bool"
        }
      ],
      "stateMutability": "nonpayable",
      "type": "function"
    },
    {
      "inputs": [
        {
          "internalType": "address",
          "name": "sender",
          "type": "address"
        },
        {
          "internalType": "address",
          "name": "recipient",
          "type": "address"
        },
        {
          "internalType": "uint256",
          "name": "amount",
          "type": "uint256"
        }
      ],
      "name": "transferFrom",
      "outputs": [
        {
          "internalType": "bool",
          "name": "",
          "type": "bool"
        }
      ],
      "stateMutability": "nonpayable",
      "type": "function"
    },
    {
      "inputs": [
        {
          "internalType": "address",
          "name": "newOwner",
          "type": "address"
        }
      ],
      "name": "transferOwnership",
      "outputs": [],
      "stateMutability": "nonpayable",
      "type": "function"
    },
    {
      "inputs": [
        {
          "internalType": "contract IERC20",
          "name": "_token",
          "type": "address"
        },
        {
          "internalType": "address",
          "name": "to",
          "type": "address"
        },
        {
          "internalType": "uint256",
          "name": "amount",
          "type": "uint256"
        }
      ],
      "name": "transferToken",
      "outputs": [],
      "stateMutability": "nonpayable",
      "type": "function"
    },
    {
      "inputs": [],
      "name": "treasury",
      "outputs": [
        {
          "internalType": "contract ITreasury",
          "name": "",
          "type": "address"
        }
      ],
      "stateMutability": "view",
      "type": "function"
    },
    {
      "inputs": [],
      "name": "unlockedClaimPenalty",
      "outputs": [
        {
          "internalType": "uint256",
          "name": "",
          "type": "uint256"
        }
      ],
      "stateMutability": "view",
      "type": "function"
    },
    {
      "inputs": [
        {
          "internalType": "address",
          "name": "",
          "type": "address"
        }
      ],
      "name": "userInfo",
      "outputs": [
        {
          "internalType": "uint256",
          "name": "lockToTime",
          "type": "uint256"
        },
        {
          "internalType": "uint256",
          "name": "chosenLockTime",
          "type": "uint256"
        },
        {
          "internalType": "address",
          "name": "approveTransferFrom",
          "type": "address"
        },
        {
          "internalType": "uint256",
          "name": "lastTotalGameClaimed",
          "type": "uint256"
        },
        {
          "internalType": "uint256",
          "name": "withdrawRequestedInMaster",
          "type": "uint256"
        },
        {
          "internalType": "uint256",
          "name": "withdrawRequestedInTheory",
          "type": "uint256"
        },
        {
          "internalType": "uint256",
          "name": "lastStakeRequestBlock",
          "type": "uint256"
        },
        {
          "internalType": "uint256",
          "name": "lastWithdrawRequestBlock",
          "type": "uint256"
        }
      ],
      "stateMutability": "view",
      "type": "function"
    }
  ],
  "bytecode": "0x60806040523480156200001157600080fd5b5060405162004c2838038062004c28833981810160405260808110156200003757600080fd5b50805160208083015160408085015160609095015181518083018352600c81526b26b0b9ba32b9102a37b5b2b760a11b8186019081528351808501909452600684526526a0a9aa22a960d11b9584019590955280519596939593949193909291620000a691600391906200018d565b508051620000bc9060049060208401906200018d565b50506005805460ff19166012179055506000620000d862000189565b600a80546001600160a01b0319166001600160a01b038316908117909155604051919250906000907f8be0079c531659141344cd1fd0a4f28419497f9722a3daafe3b4186f6b6457e0908290a350600f80546001600160a01b039586166001600160a01b03199182161790915560108054948616948216949094179093556011805492851692841692909217909155601280549190931691161790556301e1338060135562278d0060145562000229565b3390565b828054600181600116156101000203166002900490600052602060002090601f016020900481019282601f10620001d057805160ff191683800117855562000200565b8280016001018555821562000200579182015b8281111562000200578251825591602001919060010190620001e3565b506200020e92915062000212565b5090565b5b808211156200020e576000815560010162000213565b6149ef80620002396000396000f3fe608060405234801561001057600080fd5b506004361061025e5760003560e01c80638da5cb5b11610146578063b9181611116100c3578063dd62ed3e11610087578063dd62ed3e146106ee578063e4d2c45e1461071c578063f2fde38b14610745578063f5537ede1461076b578063f894dd21146107a1578063fdb781c8146107ca5761025e565b8063b918161114610657578063c3fe3e281461067d578063c7b728de14610685578063cf1c316a146106a2578063d3819abc146106c85761025e565b8063a5bd5f4d1161010a578063a5bd5f4d146105f6578063a60ff766146105fe578063a9059cbb14610606578063ab9fb43814610632578063ad45e4ae1461064f5761025e565b80638da5cb5b1461059557806395d89b411461059d57806397b98e4a146105a5578063981b24d0146105ad578063a457c2d7146105ca5761025e565b80633c32a450116101df57806361d027b3116101a357806361d027b31461051757806364c087411461051f57806364efc79b1461054257806370a082311461055f578063715018a61461058557806378424d581461058d5761025e565b80633c32a45014610491578063485d7d94146104b55780634ee2cd7e146104db5780635358a2af146105075780635936e8bd1461050f5761025e565b8063224348361161022657806322434836146103c857806323b872dd146103eb5780632e9c807214610421578063313ce5671461044757806339509351146104655761025e565b806306fdde0314610263578063095ea7b3146102e057806318160ddd1461032057806318bb939a1461033a5780631959a00214610359575b600080fd5b61026b6107d2565b6040805160208082528351818301528351919283929083019185019080838360005b838110156102a557818101518382015260200161028d565b50505050905090810190601f1680156102d25780820380516001836020036101000a031916815260200191505b509250505060405180910390f35b61030c600480360360408110156102f657600080fd5b506001600160a01b038135169060200135610868565b604080519115158252519081900360200190f35b610328610886565b60408051918252519081900360200190f35b6103576004803603602081101561035057600080fd5b503561088c565b005b61037f6004803603602081101561036f57600080fd5b50356001600160a01b0316610c71565b6040805198895260208901979097526001600160a01b03909516878701526060870193909352608086019190915260a085015260c084015260e083015251908190036101000190f35b610357600480360360408110156103de57600080fd5b5080359060200135610cbe565b61030c6004803603606081101561040157600080fd5b506001600160a01b03813581169160208101359091169060400135610dda565b6103286004803603602081101561043757600080fd5b50356001600160a01b0316610e62565b61044f610f22565b6040805160ff9092168252519081900360200190f35b61030c6004803603604081101561047b57600080fd5b506001600160a01b038135169060200135610f2b565b610499610f79565b604080516001600160a01b039092168252519081900360200190f35b610357600480360360208110156104cb57600080fd5b50356001600160a01b0316610f88565b610328600480360360408110156104f157600080fd5b506001600160a01b038135169060200135611021565b61032861106a565b610357611070565b610499611176565b6103576004803603604081101561053557600080fd5b5080359060200135611185565b6103576004803603602081101561055857600080fd5b5035611563565b6103286004803603602081101561057557600080fd5b50356001600160a01b031661185a565b610357611875565b610357611921565b6104996119ee565b61026b6119fd565b610357611a5e565b610328600480360360208110156105c357600080fd5b503561205d565b61030c600480360360408110156105e057600080fd5b506001600160a01b03813516906020013561208d565b6103286120f5565b6103286120fb565b61030c6004803603604081101561061c57600080fd5b506001600160a01b038135169060200135612101565b6103286004803603602081101561064857600080fd5b5035612115565b6104996121d7565b61030c6004803603602081101561066d57600080fd5b50356001600160a01b03166121e6565b6104996121fb565b6103286004803603602081101561069b57600080fd5b503561220a565b610357600480360360208110156106b857600080fd5b50356001600160a01b031661229a565b61030c600480360360208110156106de57600080fd5b50356001600160a01b0316612320565b6103286004803603604081101561070457600080fd5b506001600160a01b038135811691602001351661239d565b6103286004803603606081101561073257600080fd5b50803590602081013590604001356123c8565b6103576004803603602081101561075b57600080fd5b50356001600160a01b03166123f1565b6103576004803603606081101561078157600080fd5b506001600160a01b038135811691602081013590911690604001356124f4565b610328600480360360608110156107b757600080fd5b508035906020810135906040013561268b565b6103576126b4565b60038054604080516020601f600260001961010060018816150201909516949094049384018190048102820181019092528281526060939092909183018282801561085e5780601f106108335761010080835404028352916020019161085e565b820191906000526020600020905b81548152906001019060200180831161084157829003601f168201915b5050505050905090565b600061087c6108756127f9565b84846127fd565b5060015b92915050565b60025490565b336000908152600b602052604090205460ff16806108b95750336108ae6119ee565b6001600160a01b0316145b610905576040805162461bcd60e51b815260206004820152601860248201527718d85b1b195c881a5cc81b9bdd08185d5d1a1bdc9a5e995960421b604482015290519081900360640190fd5b61090d6128e9565b156109495760405162461bcd60e51b81526004018080602001828103825260268152602001806149066026913960400191505060405180910390fd5b61095161290a565b1561098d5760405162461bcd60e51b81526004018080602001828103825260268152602001806149066026913960400191505060405180910390fd5b610a246109a760185460155461292b90919063ffffffff16565b600f54604080516370a0823160e01b815230600482015290516001600160a01b03909216916370a0823191602480820192602092909190829003018186803b1580156109f257600080fd5b505afa158015610a06573d6000803e3d6000fd5b505050506040513d6020811015610a1c57600080fd5b505190612985565b811115610a78576040805162461bcd60e51b815260206004820152601b60248201527f43616e6e6f74207374616b652070656e64696e672066756e64732e0000000000604482015290519081900360640190fd5b601160009054906101000a90046001600160a01b03166001600160a01b031663900cf0cf6040518163ffffffff1660e01b815260040160206040518083038186803b158015610ac657600080fd5b505afa158015610ada573d6000803e3d6000fd5b505050506040513d6020811015610af057600080fd5b5051601a541480610b785750601160009054906101000a90046001600160a01b03166001600160a01b03166313f24daf6040518163ffffffff1660e01b815260040160206040518083038186803b158015610b4a57600080fd5b505afa158015610b5e573d6000803e3d6000fd5b505050506040513d6020811015610b7457600080fd5b5051155b15610c2257601154600f54610b9b916001600160a01b03918216911660006129e2565b601154600f54610bb8916001600160a01b039182169116836129e2565b6011546040805163534a7e1d60e11b81526004810184905290516001600160a01b039092169163a694fc3a9160248082019260009290919082900301818387803b158015610c0557600080fd5b505af1158015610c19573d6000803e3d6000fd5b50505050610c33565b601554610c2f908261292b565b6015555b50436000908152600c602090815260408083203284529091528082208054600160ff1991821681179092553384529190922080549091169091179055565b600d6020526000908152604090208054600182015460028301546003840154600485015460058601546006870154600790970154959694956001600160a01b039094169492939192909188565b336000908152600b602052604090205460ff1680610ceb575033610ce06119ee565b6001600160a01b0316145b610d37576040805162461bcd60e51b815260206004820152601860248201527718d85b1b195c881a5cc81b9bdd08185d5d1a1bdc9a5e995960421b604482015290519081900360640190fd5b6303c26700821115610d86576040805162461bcd60e51b81526020600482015260136024820152722637b1b5903a34b6b2903a37b7903434b3b41760691b604482015290519081900360640190fd5b81811115610dcf576040805162461bcd60e51b81526020600482015260116024820152702832b730b63a3c903a37b7903434b3b41760791b604482015290519081900360640190fd5b601391909155601455565b6000610de7848484612afa565b610e5784610df36127f9565b610e52856040518060600160405280602881526020016147f7602891396001600160a01b038a16600090815260016020526040812090610e316127f9565b6001600160a01b031681526020810191909152604001600020549190612d3a565b6127fd565b5060015b9392505050565b6000610e6d8261185a565b610e7957506000610f1d565b6001600160a01b0382166000908152600d602052604081206003810154600e54919291610ea591612985565b905080610eb757600092505050610f1d565b6000610ec1610886565b905080610ed45760009350505050610f1d565b6000610efb82610ef5670de0b6b3a7640000610eef3361185a565b90612dd1565b90612e2a565b90506000610f15670de0b6b3a7640000610ef58685612dd1565b955050505050505b919050565b60055460ff1690565b600061087c610f386127f9565b84610e528560016000610f496127f9565b6001600160a01b03908116825260208083019390935260409182016000908120918c16815292529020549061292b565b600f546001600160a01b031681565b610f906127f9565b6001600160a01b0316610fa16119ee565b6001600160a01b031614610fea576040805162461bcd60e51b8152602060048201819052602482015260008051602061481f833981519152604482015290519081900360640190fd5b6001600160a01b03811633141561100057600080fd5b6001600160a01b03166000908152600b60205260409020805460ff19169055565b6001600160a01b038216600090815260066020526040812081908190611048908590612e91565b915091508161105f5761105a8561185a565b611061565b805b95945050505050565b60145481565b6110786128e9565b156110b45760405162461bcd60e51b81526004018080602001828103825260268152602001806149066026913960400191505060405180910390fd5b6110bc61290a565b156110f85760405162461bcd60e51b81526004018080602001828103825260268152602001806149066026913960400191505060405180910390fd5b61110133612320565b611146576040805162461bcd60e51b815260206004820152601160248201527027379023a0a6a2903a379031b630b4b69760791b604482015290519081900360640190fd5b336000908152600d602052604090208054421061116e5760145461116b90429061292b565b81555b610c33612f8e565b6012546001600160a01b031681565b61118d6128e9565b156111c95760405162461bcd60e51b81526004018080602001828103825260268152602001806149066026913960400191505060405180910390fd5b6111d161290a565b1561120d5760405162461bcd60e51b81526004018080602001828103825260268152602001806149066026913960400191505060405180910390fd5b6000821161125c576040805162461bcd60e51b81526020600482015260176024820152762737903d32b9379030b6b7bab73a1030b63637bbb2b21760491b604482015290519081900360640190fd5b336000908152600d60205260409020600481015415801561128257508060070154601b54115b6112bd5760405162461bcd60e51b81526004018080602001828103825260258152602001806146f76025913960400191505060405180910390fd5b6013548210156112cd5760135491505b60006112d9428461292b565b6001830184905582549091508111156112f6576112f633826131f7565b600061130185612115565b600f5490915061131c906001600160a01b0316333088613213565b6113263382613273565b601160009054906101000a90046001600160a01b03166001600160a01b031663900cf0cf6040518163ffffffff1660e01b815260040160206040518083038186803b15801561137457600080fd5b505afa158015611388573d6000803e3d6000fd5b505050506040513d602081101561139e57600080fd5b5051601a5414806114265750601160009054906101000a90046001600160a01b03166001600160a01b03166313f24daf6040518163ffffffff1660e01b815260040160206040518083038186803b1580156113f857600080fd5b505afa15801561140c573d6000803e3d6000fd5b505050506040513d602081101561142257600080fd5b5051155b156114d057601154600f54611449916001600160a01b03918216911660006129e2565b601154600f54611466916001600160a01b039182169116876129e2565b6011546040805163534a7e1d60e11b81526004810188905290516001600160a01b039092169163a694fc3a9160248082019260009290919082900301818387803b1580156114b357600080fd5b505af11580156114c7573d6000803e3d6000fd5b505050506114e1565b6015546114dd908661292b565b6015555b4360068401556040805186815260208101839052815133927f90890809c654f11d6e72a28fa60149770a0d11ec6c92319d6ceb2bb0a4ea1a15928290030190a25050436000908152600c602090815260408083203284529091528082208054600160ff1991821681179092553384529190922080549091169091179055505050565b61156b6128e9565b156115a75760405162461bcd60e51b81526004018080602001828103825260268152602001806149066026913960400191505060405180910390fd5b6115af61290a565b156115eb5760405162461bcd60e51b81526004018080602001828103825260268152602001806149066026913960400191505060405180910390fd5b336000908152600d602052604090208054421015611640576040805162461bcd60e51b815260206004820152600d60248201526c5374696c6c206c6f636b65642160981b604482015290519081900360640190fd5b6000821161168f576040805162461bcd60e51b81526020600482015260176024820152762737903d32b9379030b6b7bab73a1030b63637bbb2b21760491b604482015290519081900360640190fd5b8060060154601c54116116d35760405162461bcd60e51b815260040180806020018281038252602581526020018061476e6025913960400191505060405180910390fd5b6116dc3361185a565b8214156116eb576116eb612f8e565b6116f6333084612afa565b6004810154611705908361292b565b6004820155601754611717908361292b565b60175560006117258361220a565b6005830154909150611737908261292b565b6005830155601654611749908261292b565b6016554360078301556040805184815260208101839052815133927fcbc7c7858f9ab8ce22517d4b910042540172c3d579222cf6716e222f341ca371928290030190a2601160009054906101000a90046001600160a01b03166001600160a01b03166313f24daf6040518163ffffffff1660e01b815260040160206040518083038186803b1580156117da57600080fd5b505afa1580156117ee573d6000803e3d6000fd5b505050506040513d602081101561180457600080fd5b505161181a57611812613363565b61181a613cc1565b5050436000908152600c602090815260408083203284529091528082208054600160ff199182168117909255338452919092208054909116909117905550565b6001600160a01b031660009081526020819052604090205490565b61187d6127f9565b6001600160a01b031661188e6119ee565b6001600160a01b0316146118d7576040805162461bcd60e51b8152602060048201819052602482015260008051602061481f833981519152604482015290519081900360640190fd5b600a546040516000916001600160a01b0316907f8be0079c531659141344cd1fd0a4f28419497f9722a3daafe3b4186f6b6457e0908390a3600a80546001600160a01b0319169055565b6119296128e9565b156119655760405162461bcd60e51b81526004018080602001828103825260268152602001806149066026913960400191505060405180910390fd5b61196d61290a565b156119a95760405162461bcd60e51b81526004018080602001828103825260268152602001806149066026913960400191505060405180910390fd5b6119b1613363565b436000908152600c602090815260408083203284529091528082208054600160ff1991821681179092553384529190922080549091169091179055565b600a546001600160a01b031690565b60048054604080516020601f600260001961010060018816150201909516949094049384018190048102820181019092528281526060939092909183018282801561085e5780601f106108335761010080835404028352916020019161085e565b611a666128e9565b15611aa25760405162461bcd60e51b81526004018080602001828103825260268152602001806149066026913960400191505060405180910390fd5b611aaa61290a565b15611ae65760405162461bcd60e51b81526004018080602001828103825260268152602001806149066026913960400191505060405180910390fd5b601154604080516313f24daf60e01b815290516000926001600160a01b0316916313f24daf916004808301926020929190829003018186803b158015611b2b57600080fd5b505afa158015611b3f573d6000803e3d6000fd5b505050506040513d6020811015611b5557600080fd5b50519050801580611be75750611be581601160009054906101000a90046001600160a01b03166001600160a01b031663900cf0cf6040518163ffffffff1660e01b815260040160206040518083038186803b158015611bb357600080fd5b505afa158015611bc7573d6000803e3d6000fd5b505050506040513d6020811015611bdd57600080fd5b505190613eae565b155b611c38576040805162461bcd60e51b815260206004820152601e60248201527f4d7573742063616c6c20617420612077697468647261772065706f63682e0000604482015290519081900360640190fd5b801580611c985750610708611c9542601160009054906101000a90046001600160a01b03166001600160a01b031663c5967c266040518163ffffffff1660e01b815260040160206040518083038186803b1580156109f257600080fd5b11155b611cd35760405162461bcd60e51b815260040180806020018281038252602c815260200180614742602c913960400191505060405180910390fd5b801580611d5b5750601160009054906101000a90046001600160a01b03166001600160a01b031663900cf0cf6040518163ffffffff1660e01b815260040160206040518083038186803b158015611d2957600080fd5b505afa158015611d3d573d6000803e3d6000fd5b505050506040513d6020811015611d5357600080fd5b5051601a5414155b611d9e576040805162461bcd60e51b815260206004820152600f60248201526e20b63932b0b23c9031b0b63632b21760891b604482015290519081900360640190fd5b601160009054906101000a90046001600160a01b03166001600160a01b03166313f24daf6040518163ffffffff1660e01b815260040160206040518083038186803b158015611dec57600080fd5b505afa158015611e00573d6000803e3d6000fd5b505050506040513d6020811015611e1657600080fd5b50511580611e9e5750601160009054906101000a90046001600160a01b03166001600160a01b031663900cf0cf6040518163ffffffff1660e01b815260040160206040518083038186803b158015611e6d57600080fd5b505afa158015611e81573d6000803e3d6000fd5b505050506040513d6020811015611e9757600080fd5b5051601954145b611ee8576040805162461bcd60e51b815260206004820152601660248201527524b734ba34b0ba32903830b93a1018903334b939ba1760511b604482015290519081900360640190fd5b60155415611f9d57601154600f54611f0e916001600160a01b03918216911660006129e2565b601154601554600f54611f2f926001600160a01b03918216929116906129e2565b6011546015546040805163534a7e1d60e11b81526004810192909252516001600160a01b039092169163a694fc3a9160248082019260009290919082900301818387803b158015611f7f57600080fd5b505af1158015611f93573d6000803e3d6000fd5b5050600060155550505b601160009054906101000a90046001600160a01b03166001600160a01b031663900cf0cf6040518163ffffffff1660e01b815260040160206040518083038186803b158015611feb57600080fd5b505afa158015611fff573d6000803e3d6000fd5b505050506040513d602081101561201557600080fd5b5051601a555043601c8190556000908152600c602090815260408083203284529091528082208054600160ff1991821681179092553384529190922080549091169091179055565b600080600061206d846007612e91565b91509150816120835761207e610886565b612085565b805b949350505050565b600061087c61209a6127f9565b84610e528560405180606001604052806025815260200161499560259139600160006120c46127f9565b6001600160a01b03908116825260208083019390935260409182016000908120918d16815292529020549190612d3a565b600e5481565b60135481565b600061087c61210e6127f9565b8484612afa565b601554601154604080516370a0823160e01b81523060048201529051600093849361219f9391926001600160a01b03909116916370a08231916024808301926020929190829003018186803b15801561216d57600080fd5b505afa158015612181573d6000803e3d6000fd5b505050506040513d602081101561219757600080fd5b50519061292b565b905060006121ab610886565b90508015806121b8575081155b156121c7578392505050610f1d565b600061106183610ef58785612dd1565b6011546001600160a01b031681565b600b6020526000908152604090205460ff1681565b6010546001600160a01b031681565b601554601154604080516370a0823160e01b8152306004820152905160009384936122629391926001600160a01b03909116916370a08231916024808301926020929190829003018186803b15801561216d57600080fd5b9050600061226e610886565b905080158061227b575081155b1561228a578392505050610f1d565b600061106182610ef58786612dd1565b6122a26127f9565b6001600160a01b03166122b36119ee565b6001600160a01b0316146122fc576040805162461bcd60e51b8152602060048201819052602482015260008051602061481f833981519152604482015290519081900360640190fd5b6001600160a01b03166000908152600b60205260409020805460ff19166001179055565b600061232b8261185a565b61233757506000610f1d565b6001600160a01b0382166000908152600d602052604081206003810154600e5491929161236391612985565b90508061237557600092505050610f1d565b600061237f610886565b9050806123925760009350505050610f1d565b506001949350505050565b6001600160a01b03918216600090815260016020908152604080832093909416825291909152205490565b60008115806123d5575082155b156123e1575082610e5b565b600061106183610ef58787612dd1565b6123f96127f9565b6001600160a01b031661240a6119ee565b6001600160a01b031614612453576040805162461bcd60e51b8152602060048201819052602482015260008051602061481f833981519152604482015290519081900360640190fd5b6001600160a01b0381166124985760405162461bcd60e51b81526004018080602001828103825260268152602001806146676026913960400191505060405180910390fd5b600a546040516001600160a01b038084169216907f8be0079c531659141344cd1fd0a4f28419497f9722a3daafe3b4186f6b6457e090600090a3600a80546001600160a01b0319166001600160a01b0392909216919091179055565b336000908152600b602052604090205460ff16806125215750336125166119ee565b6001600160a01b0316145b61256d576040805162461bcd60e51b815260206004820152601860248201527718d85b1b195c881a5cc81b9bdd08185d5d1a1bdc9a5e995960421b604482015290519081900360640190fd5b6125756128e9565b156125b15760405162461bcd60e51b81526004018080602001828103825260268152602001806149066026913960400191505060405180910390fd5b6125b961290a565b156125f55760405162461bcd60e51b81526004018080602001828103825260268152602001806149066026913960400191505060405180910390fd5b6001600160a01b03831630141580612621575061261d6017546126173061185a565b90612985565b8111155b61262a57600080fd5b600f546001600160a01b03848116911614156126775760405162461bcd60e51b81526004018080602001828103825260228152602001806146af6022913960400191505060405180910390fd5b61181a6001600160a01b0384168383613f15565b6000811580612698575082155b156126a4575082610e5b565b600061106184610ef58786612dd1565b6126bc6128e9565b156126f85760405162461bcd60e51b81526004018080602001828103825260268152602001806149066026913960400191505060405180910390fd5b61270061290a565b1561273c5760405162461bcd60e51b81526004018080602001828103825260268152602001806149066026913960400191505060405180910390fd5b601160009054906101000a90046001600160a01b03166001600160a01b03166313f24daf6040518163ffffffff1660e01b815260040160206040518083038186803b15801561278a57600080fd5b505afa15801561279e573d6000803e3d6000fd5b505050506040513d60208110156127b457600080fd5b50516127f15760405162461bcd60e51b81526004018080602001828103825260218152602001806147936021913960400191505060405180910390fd5b6119b1613cc1565b3390565b6001600160a01b0383166128425760405162461bcd60e51b81526004018080602001828103825260248152602001806148b86024913960400191505060405180910390fd5b6001600160a01b0382166128875760405162461bcd60e51b815260040180806020018281038252602281526020018061468d6022913960400191505060405180910390fd5b6001600160a01b03808416600081815260016020908152604080832094871680845294825291829020859055815185815291517f8c5be1e5ebec7d5bd14f71427d1e84f3dd0314c0f7b2291e5b200ac8c7c3b9259281900390910190a3505050565b436000908152600c6020908152604080832032845290915290205460ff1690565b436000908152600c6020908152604080832033845290915290205460ff1690565b600082820183811015610e5b576040805162461bcd60e51b815260206004820152601b60248201527f536166654d6174683a206164646974696f6e206f766572666c6f770000000000604482015290519081900360640190fd5b6000828211156129dc576040805162461bcd60e51b815260206004820152601e60248201527f536166654d6174683a207375627472616374696f6e206f766572666c6f770000604482015290519081900360640190fd5b50900390565b801580612a68575060408051636eb1769f60e11b81523060048201526001600160a01b03848116602483015291519185169163dd62ed3e91604480820192602092909190829003018186803b158015612a3a57600080fd5b505afa158015612a4e573d6000803e3d6000fd5b505050506040513d6020811015612a6457600080fd5b5051155b612aa35760405162461bcd60e51b815260040180806020018281038252603681526020018061492c6036913960400191505060405180910390fd5b604080516001600160a01b038416602482015260448082018490528251808303909101815260649091019091526020810180516001600160e01b031663095ea7b360e01b179052612af5908490613f63565b505050565b336000908152600b602052604090205460ff1680612b27575033612b1c6119ee565b6001600160a01b0316145b80612ba8575060125460408051632364d3dd60e21b8152905133926001600160a01b031691638d934f74916004808301926020929190829003018186803b158015612b7157600080fd5b505afa158015612b85573d6000803e3d6000fd5b505050506040513d6020811015612b9b57600080fd5b50516001600160a01b0316145b80612bb257503033145b80612bd557506001600160a01b0382166000908152600b602052604090205460ff165b80612bf85750816001600160a01b0316612bed6119ee565b6001600160a01b0316145b80612c7b575060125460408051632364d3dd60e21b815290516001600160a01b03808616931691638d934f74916004808301926020929190829003018186803b158015612c4457600080fd5b505afa158015612c58573d6000803e3d6000fd5b505050506040513d6020811015612c6e57600080fd5b50516001600160a01b0316145b80612c8e5750306001600160a01b038316145b612d2f576001600160a01b038281166000908152600d6020526040902060028101549091858116911614612cf35760405162461bcd60e51b81526004018080602001828103825260228152602001806147b46022913960400191505060405180910390fd5b6002810180546001600160a01b0319169055601354600090612d1690429061292b565b8254909150811115612d2c57612d2c84826131f7565b50505b612af5838383614014565b60008184841115612dc95760405162461bcd60e51b81526004018080602001828103825283818151815260200191508051906020019080838360005b83811015612d8e578181015183820152602001612d76565b50505050905090810190601f168015612dbb5780820380516001836020036101000a031916815260200191505b509250505060405180910390fd5b505050900390565b600082612de057506000610880565b82820282848281612ded57fe5b0414610e5b5760405162461bcd60e51b81526004018080602001828103825260218152602001806147d66021913960400191505060405180910390fd5b6000808211612e80576040805162461bcd60e51b815260206004820152601a60248201527f536166654d6174683a206469766973696f6e206279207a65726f000000000000604482015290519081900360640190fd5b818381612e8957fe5b049392505050565b60008060008411612ee2576040805162461bcd60e51b815260206004820152601660248201527504552433230536e617073686f743a20696420697320360541b604482015290519081900360640190fd5b612eec600961416f565b841115612f40576040805162461bcd60e51b815260206004820152601d60248201527f4552433230536e617073686f743a206e6f6e6578697374656e74206964000000604482015290519081900360640190fd5b6000612f4c8486614173565b8454909150811415612f65576000809250925050612f87565b6001846001018281548110612f7657fe5b906000526020600020015492509250505b9250929050565b336000908152600d602052604081206003810154600e54919291612fb191612985565b600e54600384015590506000612fdd612fc8610886565b610ef5670de0b6b3a7640000610eef3361185a565b90506000612ff7670de0b6b3a7640000610ef58585612dd1565b6010546040805163a9059cbb60e01b81523360048201526024810184905290519293506001600160a01b039091169163a9059cbb916044808201926020929091908290030181600087803b15801561304e57600080fd5b505af1158015613062573d6000803e3d6000fd5b505050506040513d602081101561307857600080fd5b505060115460408051638278b53b60e01b8152905160009283926001600160a01b0390911691638278b53b91600480820192602092909190829003018186803b1580156130c457600080fd5b505afa1580156130d8573d6000803e3d6000fd5b505050506040513d60208110156130ee57600080fd5b5051905060648111156131325760405162461bcd60e51b81526004018080602001828103825260338152602001806148606033913960400191505060405180910390fd5b6131416064610ef58584612dd1565b915081156131b5576010546040805163282d3fdf60e01b81523360048201526024810185905290516001600160a01b039092169163282d3fdf9160448082019260009290919082900301818387803b15801561319c57600080fd5b505af11580156131b0573d6000803e3d6000fd5b505050505b6040805184815260208101849052815133927fd6f2c8500df5b44f11e9e48b91ff9f1b9d81bc496d55570c2b1b75bf65243f51928290030190a2505050505050565b6001600160a01b039091166000908152600d6020526040902055565b604080516001600160a01b0380861660248301528416604482015260648082018490528251808303909101815260849091019091526020810180516001600160e01b03166323b872dd60e01b17905261326d908590613f63565b50505050565b6001600160a01b0382166132ce576040805162461bcd60e51b815260206004820152601f60248201527f45524332303a206d696e7420746f20746865207a65726f206164647265737300604482015290519081900360640190fd5b6132da60008383614214565b6002546132e7908261292b565b6002556001600160a01b03821660009081526020819052604090205461330d908261292b565b6001600160a01b0383166000818152602081815260408083209490945583518581529351929391927fddf252ad1be2c89b69c2b068fc378daa952ba7f163c4a11628f55a4df523b3ef9281900390910190a35050565b601154604080516313f24daf60e01b815290516000926001600160a01b0316916313f24daf916004808301926020929190829003018186803b1580156133a857600080fd5b505afa1580156133bc573d6000803e3d6000fd5b505050506040513d60208110156133d257600080fd5b50519050801580613432575061343081601160009054906101000a90046001600160a01b03166001600160a01b031663900cf0cf6040518163ffffffff1660e01b815260040160206040518083038186803b158015611bb357600080fd5b155b613483576040805162461bcd60e51b815260206004820152601e60248201527f4d7573742063616c6c20617420612077697468647261772065706f63682e0000604482015290519081900360640190fd5b8015806134e357506107086134e042601160009054906101000a90046001600160a01b03166001600160a01b031663c5967c266040518163ffffffff1660e01b815260040160206040518083038186803b1580156109f257600080fd5b11155b61351e5760405162461bcd60e51b815260040180806020018281038252602c815260200180614742602c913960400191505060405180910390fd5b8015806135a65750601160009054906101000a90046001600160a01b03166001600160a01b031663900cf0cf6040518163ffffffff1660e01b815260040160206040518083038186803b15801561357457600080fd5b505afa158015613588573d6000803e3d6000fd5b505050506040513d602081101561359e57600080fd5b505160195414155b6135e9576040805162461bcd60e51b815260206004820152600f60248201526e20b63932b0b23c9031b0b63632b21760891b604482015290519081900360640190fd5b60105460408051632587701560e11b815230600482015290516000926001600160a01b031691634b0ee02a916024808301926020929190829003018186803b15801561363457600080fd5b505afa158015613648573d6000803e3d6000fd5b505050506040513d602081101561365e57600080fd5b50516017549091501561367d576136773060175461426c565b60006017555b6016546136f157601160009054906101000a90046001600160a01b03166001600160a01b031663b88a802f6040518163ffffffff1660e01b8152600401600060405180830381600087803b1580156136d457600080fd5b505af11580156136e8573d6000803e3d6000fd5b50505050613ac1565b600f54604080516370a0823160e01b815230600482015290516000926001600160a01b0316916370a08231916024808301926020929190829003018186803b15801561373c57600080fd5b505afa158015613750573d6000803e3d6000fd5b505050506040513d602081101561376657600080fd5b5051601680546000909155601554919250908111156137995760155461378d908290612985565b600060155590506137ad565b6015546137a69082612985565b6015555060005b8015613a555760115460408051632e1a7d4d60e01b81526004810184905290516001600160a01b0390921691632e1a7d4d9160248082019260009290919082900301818387803b15801561380057600080fd5b505af1158015613814573d6000803e3d6000fd5b5050601854613826925090508261292b565b601855600f54604080516370a0823160e01b815230600482015290516000926001600160a01b0316916370a08231916024808301926020929190829003018186803b15801561387457600080fd5b505afa158015613888573d6000803e3d6000fd5b505050506040513d602081101561389e57600080fd5b5051905060006138ae8285612985565b905060006138bc8483612985565b90506000811180156139c25750600f5460125460408051632364d3dd60e21b815290516000936001600160a01b039081169363dd62ed3e93911691638d934f7491600480820192602092909190829003018186803b15801561391d57600080fd5b505afa158015613931573d6000803e3d6000fd5b505050506040513d602081101561394757600080fd5b5051604080516001600160e01b031960e085901b1681526001600160a01b039092166004830152306024830152516044808301926020929190829003018186803b15801561399457600080fd5b505afa1580156139a8573d6000803e3d6000fd5b505050506040513d60208110156139be57600080fd5b5051115b15613a4d5760125460408051632364d3dd60e21b81529051613a4d926001600160a01b031691638d934f74916004808301926020929190829003018186803b158015613a0d57600080fd5b505afa158015613a21573d6000803e3d6000fd5b505050506040513d6020811015613a3757600080fd5b5051600f546001600160a01b0316903084613213565b505050613abe565b601160009054906101000a90046001600160a01b03166001600160a01b031663b88a802f6040518163ffffffff1660e01b8152600401600060405180830381600087803b158015613aa557600080fd5b505af1158015613ab9573d6000803e3d6000fd5b505050505b50505b60105460408051635a46d3b560e01b8152306004820181905291516001600160a01b039093169263af2b0f6692918491635a46d3b591602480820192602092909190829003018186803b158015613b1757600080fd5b505afa158015613b2b573d6000803e3d6000fd5b505050506040513d6020811015613b4157600080fd5b5051604080516001600160e01b031960e086901b1681526001600160a01b039093166004840152602483019190915251604480830192600092919082900301818387803b158015613b9157600080fd5b505af1158015613ba5573d6000803e3d6000fd5b505060105460408051632587701560e11b81523060048201529051600094506001600160a01b039092169250634b0ee02a916024808301926020929190829003018186803b158015613bf657600080fd5b505afa158015613c0a573d6000803e3d6000fd5b505050506040513d6020811015613c2057600080fd5b505190506000613c308284612985565b600e54909150613c40908261292b565b600e556011546040805163900cf0cf60e01b815290516001600160a01b039092169163900cf0cf91600480820192602092909190829003018186803b158015613c8857600080fd5b505afa158015613c9c573d6000803e3d6000fd5b505050506040513d6020811015613cb257600080fd5b5051601955505043601b555050565b336000908152600d602052604090208054421015613d16576040805162461bcd60e51b815260206004820152600d60248201526c5374696c6c206c6f636b65642160981b604482015290519081900360640190fd5b6000816004015411613d69576040805162461bcd60e51b81526020600482015260176024820152762737903d32b9379030b6b7bab73a1030b63637bbb2b21760491b604482015290519081900360640190fd5b601160009054906101000a90046001600160a01b03166001600160a01b03166313f24daf6040518163ffffffff1660e01b815260040160206040518083038186803b158015613db757600080fd5b505afa158015613dcb573d6000803e3d6000fd5b505050506040513d6020811015613de157600080fd5b50511580613df457508060070154601b54115b613e2f5760405162461bcd60e51b81526004018080602001828103825260338152602001806149626033913960400191505060405180910390fd5b6005810154601854613e419082612985565b6018556004820180546000918290556005840191909155600f54613e6f906001600160a01b03163384613f15565b6040805182815260208101849052815133927ff279e6a1f5e320cca91135676d9cb6e44ca8a08c0b88342bcdb1144f6511b568928290030190a2505050565b6000808211613f04576040805162461bcd60e51b815260206004820152601860248201527f536166654d6174683a206d6f64756c6f206279207a65726f0000000000000000604482015290519081900360640190fd5b818381613f0d57fe5b069392505050565b604080516001600160a01b038416602482015260448082018490528251808303909101815260649091019091526020810180516001600160e01b031663a9059cbb60e01b179052612af59084905b6060613fb8826040518060400160405280602081526020017f5361666545524332303a206c6f772d6c6576656c2063616c6c206661696c6564815250856001600160a01b03166143689092919063ffffffff16565b805190915015612af557808060200190516020811015613fd757600080fd5b5051612af55760405162461bcd60e51b815260040180806020018281038252602a8152602001806148dc602a913960400191505060405180910390fd5b6001600160a01b0383166140595760405162461bcd60e51b81526004018080602001828103825260258152602001806148936025913960400191505060405180910390fd5b6001600160a01b03821661409e5760405162461bcd60e51b81526004018080602001828103825260238152602001806146226023913960400191505060405180910390fd5b6140a9838383614214565b6140e6816040518060600160405280602681526020016146d1602691396001600160a01b0386166000908152602081905260409020549190612d3a565b6001600160a01b038085166000908152602081905260408082209390935590841681522054614115908261292b565b6001600160a01b038084166000818152602081815260409182902094909455805185815290519193928716927fddf252ad1be2c89b69c2b068fc378daa952ba7f163c4a11628f55a4df523b3ef92918290030190a3505050565b5490565b815460009061418457506000610880565b82546000905b808210156141d357600061419e8383614377565b9050848682815481106141ad57fe5b906000526020600020015411156141c6578091506141cd565b8060010192505b5061418a565b6000821180156141fb5750838560018403815481106141ee57fe5b9060005260206000200154145b1561420c5750600019019050610880565b509050610880565b61421f838383612af5565b6001600160a01b038316614243576142368261439c565b61423e6143c9565b612af5565b6001600160a01b03821661425a576142368361439c565b6142638361439c565b612af58261439c565b6001600160a01b0382166142b15760405162461bcd60e51b815260040180806020018281038252602181526020018061483f6021913960400191505060405180910390fd5b6142bd82600083614214565b6142fa81604051806060016040528060228152602001614645602291396001600160a01b0385166000908152602081905260409020549190612d3a565b6001600160a01b0383166000908152602081905260409020556002546143209082612985565b6002556040805182815290516000916001600160a01b038516917fddf252ad1be2c89b69c2b068fc378daa952ba7f163c4a11628f55a4df523b3ef9181900360200190a35050565b606061208584846000856143d8565b6000600280830660028506018161438a57fe5b04600283046002850401019392505050565b6001600160a01b03811660009081526006602052604090206143c6906143c18361185a565b614534565b50565b6143d660076143c1610886565b565b6060824710156144195760405162461bcd60e51b815260040180806020018281038252602681526020018061471c6026913960400191505060405180910390fd5b61442285614580565b614473576040805162461bcd60e51b815260206004820152601d60248201527f416464726573733a2063616c6c20746f206e6f6e2d636f6e7472616374000000604482015290519081900360640190fd5b60006060866001600160a01b031685876040518082805190602001908083835b602083106144b25780518252601f199092019160209182019101614493565b6001836020036101000a03801982511681845116808217855250505050505090500191505060006040518083038185875af1925050503d8060008114614514576040519150601f19603f3d011682016040523d82523d6000602084013e614519565b606091505b5091509150614529828286614586565b979650505050505050565b6000614540600961416f565b90508061454c846145ec565b1015612af5578254600180820185556000858152602080822090930193909355938401805494850181558252902090910155565b3b151590565b60608315614595575081610e5b565b8251156145a55782518084602001fd5b60405162461bcd60e51b8152602060048201818152845160248401528451859391928392604401919085019080838360008315612d8e578181015183820152602001612d76565b80546000906145fd57506000610f1d565b81548290600019810190811061460f57fe5b90600052602060002001549050610f1d56fe45524332303a207472616e7366657220746f20746865207a65726f206164647265737345524332303a206275726e20616d6f756e7420657863656564732062616c616e63654f776e61626c653a206e6577206f776e657220697320746865207a65726f206164647265737345524332303a20617070726f766520746f20746865207a65726f206164647265737343616e6e6f74206272696e6720646f776e207072696365206f66204d41535445522e45524332303a207472616e7366657220616d6f756e7420657863656564732062616c616e636543616e6e6f74207374616b65207769746820612077697468647261772070656e64696e672e416464726573733a20696e73756666696369656e742062616c616e636520666f722063616c6c4d7573742062652063616c6c6564203330206d696e75746573206265666f72652065706f636820656e64732e43616e6e6f7420776974686472617720776974682061207374616b652070656e64696e672e43616c6c207265717565737453656c6c546f5468656f727920696e73746561642e526563656976657220646964206e6f7420617070726f7665207472616e736665722e536166654d6174683a206d756c7469706c69636174696f6e206f766572666c6f7745524332303a207472616e7366657220616d6f756e74206578636565647320616c6c6f77616e63654f776e61626c653a2063616c6c6572206973206e6f7420746865206f776e657245524332303a206275726e2066726f6d20746865207a65726f2061646472657373496e76616c6964206c6f636b2070657263656e746167652c20636865636b205468656f72657469637320636f6e74726163742e45524332303a207472616e736665722066726f6d20746865207a65726f206164647265737345524332303a20617070726f76652066726f6d20746865207a65726f20616464726573735361666545524332303a204552433230206f7065726174696f6e20646964206e6f742073756363656564436f6e747261637447756172643a206f6e6520626c6f636b2c206f6e652066756e6374696f6e5361666545524332303a20617070726f76652066726f6d206e6f6e2d7a65726f20746f206e6f6e2d7a65726f20616c6c6f77616e6365496e69746961746f7220506172742031206e6f74207965742063616c6c6564206f722063616c6c656420746f6f20736f6f6e2e45524332303a2064656372656173656420616c6c6f77616e63652062656c6f77207a65726fa2646970667358221220feae8aff218fe044790d251dbfcd17610c008980a38ecc152af2d2cb1f34097b64736f6c634300060c0033",
  "linkReferences": {},
  "deployedLinkReferences": {}
}