{
  "_format": "hh-sol-artifact-1",
  "contractName": "Master",
  "sourceName": "contracts/Master.sol",
  "abi": [
    {
      "inputs": [
        {
          "internalType": "contract IERC20Lockable",
          "name": "_theory",
          "type": "address"
        },
        {
          "internalType": "contract IERC20Lockable",
          "name": "_game",
          "type": "address"
        },
        {
          "internalType": "contract ITheoretics",
          "name": "_theoretics",
          "type": "address"
        },
        {
          "internalType": "contract ITreasury",
          "name": "_treasury",
          "type": "address"
        }
      ],
      "stateMutability": "nonpayable",
      "type": "constructor"
    },
    {
      "anonymous": false,
      "inputs": [
        {
          "indexed": true,
          "internalType": "address",
          "name": "owner",
          "type": "address"
        },
        {
          "indexed": true,
          "internalType": "address",
          "name": "spender",
          "type": "address"
        },
        {
          "indexed": false,
          "internalType": "uint256",
          "name": "value",
          "type": "uint256"
        }
      ],
      "name": "Approval",
      "type": "event"
    },
    {
      "anonymous": false,
      "inputs": [
        {
          "indexed": true,
          "internalType": "address",
          "name": "user",
          "type": "address"
        },
        {
          "indexed": false,
          "internalType": "uint256",
          "name": "amountInTheory",
          "type": "uint256"
        },
        {
          "indexed": false,
          "internalType": "uint256",
          "name": "amountOutMaster",
          "type": "uint256"
        }
      ],
      "name": "Deposit",
      "type": "event"
    },
    {
      "anonymous": false,
      "inputs": [
        {
          "indexed": true,
          "internalType": "address",
          "name": "previousOwner",
          "type": "address"
        },
        {
          "indexed": true,
          "internalType": "address",
          "name": "newOwner",
          "type": "address"
        }
      ],
      "name": "OwnershipTransferred",
      "type": "event"
    },
    {
      "anonymous": false,
      "inputs": [
        {
          "indexed": true,
          "internalType": "address",
          "name": "user",
          "type": "address"
        },
        {
          "indexed": false,
          "internalType": "uint256",
          "name": "reward",
          "type": "uint256"
        },
        {
          "indexed": false,
          "internalType": "uint256",
          "name": "lockAmount",
          "type": "uint256"
        }
      ],
      "name": "RewardPaid",
      "type": "event"
    },
    {
      "anonymous": false,
      "inputs": [
        {
          "indexed": false,
          "internalType": "uint256",
          "name": "id",
          "type": "uint256"
        }
      ],
      "name": "Snapshot",
      "type": "event"
    },
    {
      "anonymous": false,
      "inputs": [
        {
          "indexed": true,
          "internalType": "address",
          "name": "from",
          "type": "address"
        },
        {
          "indexed": true,
          "internalType": "address",
          "name": "to",
          "type": "address"
        },
        {
          "indexed": false,
          "internalType": "uint256",
          "name": "value",
          "type": "uint256"
        }
      ],
      "name": "Transfer",
      "type": "event"
    },
    {
      "anonymous": false,
      "inputs": [
        {
          "indexed": true,
          "internalType": "address",
          "name": "user",
          "type": "address"
        },
        {
          "indexed": false,
          "internalType": "uint256",
          "name": "amountInMaster",
          "type": "uint256"
        },
        {
          "indexed": false,
          "internalType": "uint256",
          "name": "amountOutTheory",
          "type": "uint256"
        }
      ],
      "name": "Withdraw",
      "type": "event"
    },
    {
      "anonymous": false,
      "inputs": [
        {
          "indexed": true,
          "internalType": "address",
          "name": "user",
          "type": "address"
        },
        {
          "indexed": false,
          "internalType": "uint256",
          "name": "amountInMaster",
          "type": "uint256"
        },
        {
          "indexed": false,
          "internalType": "uint256",
          "name": "amountOutTheory",
          "type": "uint256"
        }
      ],
      "name": "WithdrawRequest",
      "type": "event"
    },
    {
      "inputs": [
        {
          "internalType": "address",
          "name": "_toAdd",
          "type": "address"
        }
      ],
      "name": "addAuthorized",
      "outputs": [],
      "stateMutability": "nonpayable",
      "type": "function"
    },
    {
      "inputs": [
        {
          "internalType": "address",
          "name": "owner",
          "type": "address"
        },
        {
          "internalType": "address",
          "name": "spender",
          "type": "address"
        }
      ],
      "name": "allowance",
      "outputs": [
        {
          "internalType": "uint256",
          "name": "",
          "type": "uint256"
        }
      ],
      "stateMutability": "view",
      "type": "function"
    },
    {
      "inputs": [
        {
          "internalType": "address",
          "name": "spender",
          "type": "address"
        },
        {
          "internalType": "uint256",
          "name": "amount",
          "type": "uint256"
        }
      ],
      "name": "approve",
      "outputs": [
        {
          "internalType": "bool",
          "name": "",
          "type": "bool"
        }
      ],
      "stateMutability": "nonpayable",
      "type": "function"
    },
    {
      "inputs": [
        {
          "internalType": "address",
          "name": "from",
          "type": "address"
        }
      ],
      "name": "approveTransferFrom",
      "outputs": [],
      "stateMutability": "nonpayable",
      "type": "function"
    },
    {
      "inputs": [
        {
          "internalType": "address",
          "name": "",
          "type": "address"
        }
      ],
      "name": "authorized",
      "outputs": [
        {
          "internalType": "bool",
          "name": "",
          "type": "bool"
        }
      ],
      "stateMutability": "view",
      "type": "function"
    },
    {
      "inputs": [
        {
          "internalType": "address",
          "name": "account",
          "type": "address"
        }
      ],
      "name": "balanceOf",
      "outputs": [
        {
          "internalType": "uint256",
          "name": "",
          "type": "uint256"
        }
      ],
      "stateMutability": "view",
      "type": "function"
    },
    {
      "inputs": [
        {
          "internalType": "address",
          "name": "account",
          "type": "address"
        },
        {
          "internalType": "uint256",
          "name": "snapshotId",
          "type": "uint256"
        }
      ],
      "name": "balanceOfAt",
      "outputs": [
        {
          "internalType": "uint256",
          "name": "",
          "type": "uint256"
        }
      ],
      "stateMutability": "view",
      "type": "function"
    },
    {
      "inputs": [
        {
          "internalType": "uint256",
          "name": "amountInTheory",
          "type": "uint256"
        },
        {
          "internalType": "uint256",
          "name": "lockTime",
          "type": "uint256"
        }
      ],
      "name": "buyFromTheory",
      "outputs": [],
      "stateMutability": "nonpayable",
      "type": "function"
    },
    {
      "inputs": [],
      "name": "claimGame",
      "outputs": [],
      "stateMutability": "nonpayable",
      "type": "function"
    },
    {
      "inputs": [],
      "name": "decimals",
      "outputs": [
        {
          "internalType": "uint8",
          "name": "",
          "type": "uint8"
        }
      ],
      "stateMutability": "view",
      "type": "function"
    },
    {
      "inputs": [
        {
          "internalType": "address",
          "name": "spender",
          "type": "address"
        },
        {
          "internalType": "uint256",
          "name": "subtractedValue",
          "type": "uint256"
        }
      ],
      "name": "decreaseAllowance",
      "outputs": [
        {
          "internalType": "bool",
          "name": "",
          "type": "bool"
        }
      ],
      "stateMutability": "nonpayable",
      "type": "function"
    },
    {
      "inputs": [
        {
          "internalType": "address",
          "name": "theorist",
          "type": "address"
        }
      ],
      "name": "earned",
      "outputs": [
        {
          "internalType": "uint256",
          "name": "",
          "type": "uint256"
        }
      ],
      "stateMutability": "view",
      "type": "function"
    },
    {
      "inputs": [],
      "name": "expectedClaimableGameThisEpoch",
      "outputs": [
        {
          "internalType": "uint256",
          "name": "",
          "type": "uint256"
        }
      ],
      "stateMutability": "view",
      "type": "function"
    },
    {
      "inputs": [],
      "name": "game",
      "outputs": [
        {
          "internalType": "contract IERC20Lockable",
          "name": "",
          "type": "address"
        }
      ],
      "stateMutability": "view",
      "type": "function"
    },
    {
      "inputs": [
        {
          "internalType": "address",
          "name": "theorist",
          "type": "address"
        }
      ],
      "name": "getLastSnapshotIndexOf",
      "outputs": [
        {
          "internalType": "uint256",
          "name": "",
          "type": "uint256"
        }
      ],
      "stateMutability": "view",
      "type": "function"
    },
    {
      "inputs": [
        {
          "internalType": "address",
          "name": "spender",
          "type": "address"
        },
        {
          "internalType": "uint256",
          "name": "addedValue",
          "type": "uint256"
        }
      ],
      "name": "increaseAllowance",
      "outputs": [
        {
          "internalType": "bool",
          "name": "",
          "type": "bool"
        }
      ],
      "stateMutability": "nonpayable",
      "type": "function"
    },
    {
      "inputs": [
        {
          "internalType": "bool",
          "name": "allowEmergency",
          "type": "bool"
        }
      ],
      "name": "initiatePart1",
      "outputs": [],
      "stateMutability": "nonpayable",
      "type": "function"
    },
    {
      "inputs": [],
      "name": "initiatePart2",
      "outputs": [],
      "stateMutability": "nonpayable",
      "type": "function"
    },
    {
      "inputs": [],
      "name": "lastInitiatePart1Block",
      "outputs": [
        {
          "internalType": "uint256",
          "name": "",
          "type": "uint256"
        }
      ],
      "stateMutability": "view",
      "type": "function"
    },
    {
      "inputs": [],
      "name": "lastInitiatePart1Epoch",
      "outputs": [
        {
          "internalType": "uint256",
          "name": "",
          "type": "uint256"
        }
      ],
      "stateMutability": "view",
      "type": "function"
    },
    {
      "inputs": [],
      "name": "lastInitiatePart2Block",
      "outputs": [
        {
          "internalType": "uint256",
          "name": "",
          "type": "uint256"
        }
      ],
      "stateMutability": "view",
      "type": "function"
    },
    {
      "inputs": [],
      "name": "lastInitiatePart2Epoch",
      "outputs": [
        {
          "internalType": "uint256",
          "name": "",
          "type": "uint256"
        }
      ],
      "stateMutability": "view",
      "type": "function"
    },
    {
      "inputs": [],
      "name": "latestSnapshotIndex",
      "outputs": [
        {
          "internalType": "uint256",
          "name": "",
          "type": "uint256"
        }
      ],
      "stateMutability": "view",
      "type": "function"
    },
    {
      "inputs": [
        {
          "internalType": "uint256",
          "name": "",
          "type": "uint256"
        }
      ],
      "name": "masterHistory",
      "outputs": [
        {
          "internalType": "uint256",
          "name": "time",
          "type": "uint256"
        },
        {
          "internalType": "uint256",
          "name": "rewardReceived",
          "type": "uint256"
        },
        {
          "internalType": "uint256",
          "name": "rewardPerShare",
          "type": "uint256"
        }
      ],
      "stateMutability": "view",
      "type": "function"
    },
    {
      "inputs": [
        {
          "internalType": "uint256",
          "name": "_share",
          "type": "uint256"
        }
      ],
      "name": "masterToTheory",
      "outputs": [
        {
          "internalType": "uint256",
          "name": "",
          "type": "uint256"
        }
      ],
      "stateMutability": "view",
      "type": "function"
    },
    {
      "inputs": [
        {
          "internalType": "uint256",
          "name": "_share",
          "type": "uint256"
        },
        {
          "internalType": "uint256",
          "name": "totalGovernanceToken",
          "type": "uint256"
        },
        {
          "internalType": "uint256",
          "name": "totalShares",
          "type": "uint256"
        }
      ],
      "name": "masterToTheoryOwed",
      "outputs": [
        {
          "internalType": "uint256",
          "name": "",
          "type": "uint256"
        }
      ],
      "stateMutability": "view",
      "type": "function"
    },
    {
      "inputs": [],
      "name": "minLockTime",
      "outputs": [
        {
          "internalType": "uint256",
          "name": "",
          "type": "uint256"
        }
      ],
      "stateMutability": "view",
      "type": "function"
    },
    {
      "inputs": [],
      "name": "name",
      "outputs": [
        {
          "internalType": "string",
          "name": "",
          "type": "string"
        }
      ],
      "stateMutability": "view",
      "type": "function"
    },
    {
      "inputs": [],
      "name": "owner",
      "outputs": [
        {
          "internalType": "address",
          "name": "",
          "type": "address"
        }
      ],
      "stateMutability": "view",
      "type": "function"
    },
    {
      "inputs": [
        {
          "internalType": "address",
          "name": "_toRemove",
          "type": "address"
        }
      ],
      "name": "removeAuthorized",
      "outputs": [],
      "stateMutability": "nonpayable",
      "type": "function"
    },
    {
      "inputs": [],
      "name": "renounceOwnership",
      "outputs": [],
      "stateMutability": "nonpayable",
      "type": "function"
    },
    {
      "inputs": [
        {
          "internalType": "uint256",
          "name": "amountInMaster",
          "type": "uint256"
        },
        {
          "internalType": "bool",
          "name": "allowEmergency",
          "type": "bool"
        }
      ],
      "name": "requestSellToTheory",
      "outputs": [],
      "stateMutability": "nonpayable",
      "type": "function"
    },
    {
      "inputs": [],
      "name": "sellToTheory",
      "outputs": [],
      "stateMutability": "nonpayable",
      "type": "function"
    },
    {
      "inputs": [
        {
          "internalType": "uint256",
          "name": "lockTime",
          "type": "uint256"
        },
        {
          "internalType": "uint256",
          "name": "penalty",
          "type": "uint256"
        }
      ],
      "name": "setTimes",
      "outputs": [],
      "stateMutability": "nonpayable",
      "type": "function"
    },
    {
      "inputs": [
        {
          "internalType": "uint256",
          "name": "amount",
          "type": "uint256"
        }
      ],
      "name": "stakeExternalTheory",
      "outputs": [],
      "stateMutability": "nonpayable",
      "type": "function"
    },
    {
      "inputs": [],
      "name": "symbol",
      "outputs": [
        {
          "internalType": "string",
          "name": "",
          "type": "string"
        }
      ],
      "stateMutability": "view",
      "type": "function"
    },
    {
      "inputs": [],
      "name": "theoretics",
      "outputs": [
        {
          "internalType": "contract ITheoretics",
          "name": "",
          "type": "address"
        }
      ],
      "stateMutability": "view",
      "type": "function"
    },
    {
      "inputs": [],
      "name": "theory",
      "outputs": [
        {
          "internalType": "contract IERC20Lockable",
          "name": "",
          "type": "address"
        }
      ],
      "stateMutability": "view",
      "type": "function"
    },
    {
      "inputs": [
        {
          "internalType": "uint256",
          "name": "_amount",
          "type": "uint256"
        }
      ],
      "name": "theoryToMaster",
      "outputs": [
        {
          "internalType": "uint256",
          "name": "",
          "type": "uint256"
        }
      ],
      "stateMutability": "view",
      "type": "function"
    },
    {
      "inputs": [
        {
          "internalType": "uint256",
          "name": "_amount",
          "type": "uint256"
        },
        {
          "internalType": "uint256",
          "name": "totalGovernanceToken",
          "type": "uint256"
        },
        {
          "internalType": "uint256",
          "name": "totalShares",
          "type": "uint256"
        }
      ],
      "name": "theoryToMasterOwed",
      "outputs": [
        {
          "internalType": "uint256",
          "name": "",
          "type": "uint256"
        }
      ],
      "stateMutability": "view",
      "type": "function"
    },
    {
      "inputs": [],
      "name": "totalGameUnclaimed",
      "outputs": [
        {
          "internalType": "uint256",
          "name": "",
          "type": "uint256"
        }
      ],
      "stateMutability": "view",
      "type": "function"
    },
    {
      "inputs": [],
      "name": "totalStakeRequestedInTheory",
      "outputs": [
        {
          "internalType": "uint256",
          "name": "",
          "type": "uint256"
        }
      ],
      "stateMutability": "view",
      "type": "function"
    },
    {
      "inputs": [],
      "name": "totalSupply",
      "outputs": [
        {
          "internalType": "uint256",
          "name": "",
          "type": "uint256"
        }
      ],
      "stateMutability": "view",
      "type": "function"
    },
    {
      "inputs": [
        {
          "internalType": "uint256",
          "name": "snapshotId",
          "type": "uint256"
        }
      ],
      "name": "totalSupplyAt",
      "outputs": [
        {
          "internalType": "uint256",
          "name": "",
          "type": "uint256"
        }
      ],
      "stateMutability": "view",
      "type": "function"
    },
    {
      "inputs": [],
      "name": "totalWithdrawRequestedInMaster",
      "outputs": [
        {
          "internalType": "uint256",
          "name": "",
          "type": "uint256"
        }
      ],
      "stateMutability": "view",
      "type": "function"
    },
    {
      "inputs": [],
      "name": "totalWithdrawRequestedInTheory",
      "outputs": [
        {
          "internalType": "uint256",
          "name": "",
          "type": "uint256"
        }
      ],
      "stateMutability": "view",
      "type": "function"
    },
    {
      "inputs": [],
      "name": "totalWithdrawUnclaimedInTheory",
      "outputs": [
        {
          "internalType": "uint256",
          "name": "",
          "type": "uint256"
        }
      ],
      "stateMutability": "view",
      "type": "function"
    },
    {
      "inputs": [
        {
          "internalType": "address",
          "name": "recipient",
          "type": "address"
        },
        {
          "internalType": "uint256",
          "name": "amount",
          "type": "uint256"
        }
      ],
      "name": "transfer",
      "outputs": [
        {
          "internalType": "bool",
          "name": "",
          "type": "bool"
        }
      ],
      "stateMutability": "nonpayable",
      "type": "function"
    },
    {
      "inputs": [
        {
          "internalType": "address",
          "name": "sender",
          "type": "address"
        },
        {
          "internalType": "address",
          "name": "recipient",
          "type": "address"
        },
        {
          "internalType": "uint256",
          "name": "amount",
          "type": "uint256"
        }
      ],
      "name": "transferFrom",
      "outputs": [
        {
          "internalType": "bool",
          "name": "",
          "type": "bool"
        }
      ],
      "stateMutability": "nonpayable",
      "type": "function"
    },
    {
      "inputs": [
        {
          "internalType": "address",
          "name": "newOwner",
          "type": "address"
        }
      ],
      "name": "transferOwnership",
      "outputs": [],
      "stateMutability": "nonpayable",
      "type": "function"
    },
    {
      "inputs": [
        {
          "internalType": "contract IERC20",
          "name": "_token",
          "type": "address"
        },
        {
          "internalType": "address",
          "name": "to",
          "type": "address"
        },
        {
          "internalType": "uint256",
          "name": "amount",
          "type": "uint256"
        }
      ],
      "name": "transferToken",
      "outputs": [],
      "stateMutability": "nonpayable",
      "type": "function"
    },
    {
      "inputs": [],
      "name": "treasury",
      "outputs": [
        {
          "internalType": "contract ITreasury",
          "name": "",
          "type": "address"
        }
      ],
      "stateMutability": "view",
      "type": "function"
    },
    {
      "inputs": [],
      "name": "unlockedClaimPenalty",
      "outputs": [
        {
          "internalType": "uint256",
          "name": "",
          "type": "uint256"
        }
      ],
      "stateMutability": "view",
      "type": "function"
    },
    {
      "inputs": [
        {
          "internalType": "address",
          "name": "",
          "type": "address"
        }
      ],
      "name": "userInfo",
      "outputs": [
        {
          "internalType": "uint256",
          "name": "lockToTime",
          "type": "uint256"
        },
        {
          "internalType": "uint256",
          "name": "chosenLockTime",
          "type": "uint256"
        },
        {
          "internalType": "address",
          "name": "approveTransferFrom",
          "type": "address"
        },
        {
          "internalType": "uint256",
          "name": "lastSnapshotIndex",
          "type": "uint256"
        },
        {
          "internalType": "uint256",
          "name": "rewardEarned",
          "type": "uint256"
        },
        {
          "internalType": "uint256",
          "name": "withdrawRequestedInMaster",
          "type": "uint256"
        },
        {
          "internalType": "uint256",
          "name": "withdrawRequestedInTheory",
          "type": "uint256"
        },
        {
          "internalType": "uint256",
          "name": "lastStakeRequestBlock",
          "type": "uint256"
        },
        {
          "internalType": "uint256",
          "name": "lastWithdrawRequestBlock",
          "type": "uint256"
        }
      ],
      "stateMutability": "view",
      "type": "function"
    }
  ],
  "bytecode": "0x60806040523480156200001157600080fd5b5060405162005ed338038062005ed3833981810160405260808110156200003757600080fd5b50805160208083015160408085015160609095015181518083018352600c81526b26b0b9ba32b9102a37b5b2b760a11b8186019081528351808501909452600684526526a0a9aa22a960d11b9584019590955280519596939593949193909291620000a6916003919062000239565b508051620000bc90600490602084019062000239565b50506005805460ff19166012179055506000620000d862000235565b600a80546001600160a01b0319166001600160a01b038316908117909155604051919250906000907f8be0079c531659141344cd1fd0a4f28419497f9722a3daafe3b4186f6b6457e0908290a350600e80546001600160a01b038087166001600160a01b031992831617909255600f80548684169083161790556010805485841690831617905560118054928416929091169190911790556301e1338060125562278d0060135562000189620002be565b505060408051606081018252438152600060208201818152928201818152601d8054600181018255925291517f6d4407e7be21f808e6509aa9fa9143369579dd7d760fe20a2c09680fc146134f60039092029182015591517f6d4407e7be21f808e6509aa9fa9143369579dd7d760fe20a2c09680fc1461350830155517f6d4407e7be21f808e6509aa9fa9143369579dd7d760fe20a2c09680fc14613519091015550620002f6915050565b3390565b828054600181600116156101000203166002900490600052602060002090601f016020900481019282601f106200027c57805160ff1916838001178555620002ac565b82800160010185558215620002ac579182015b82811115620002ac5782518255916020019190600101906200028f565b50620002ba929150620002df565b5090565b60405180606001604052806000815260200160008152602001600081525090565b5b80821115620002ba5760008155600101620002e0565b615bcd80620003066000396000f3fe608060405234801561001057600080fd5b50600436106103415760003560e01c8063714b4658116101b8578063aeadf88f11610104578063dd62ed3e116100a2578063f2fde38b1161007c578063f2fde38b146108fe578063f5537ede14610924578063f894dd211461095a578063fdb781c81461098357610341565b8063dd62ed3e1461086c578063e4d2c45e1461089a578063f0e0d9f6146108c357610341565b8063c3fe3e28116100de578063c3fe3e28146107fe578063c4e6932914610806578063c7b728de14610829578063cf1c316a1461084657610341565b8063aeadf88f146107ab578063b9181611146107d0578063c0da778e146107f657610341565b806397b98e4a11610171578063a60ff7661161014b578063a60ff76614610752578063a9059cbb1461075a578063ab9fb43814610786578063ad45e4ae146107a357610341565b806397b98e4a14610701578063981b24d014610709578063a457c2d71461072657610341565b8063714b4658146106b3578063715018a6146106d957806377011c5f146106e15780638da5cb5b146106e95780638ef71a4b146106f157806395d89b41146106f957610341565b8063294f08b111610292578063485d7d94116102305780635358a2af1161020a5780635358a2af146106755780635936e8bd1461067d57806361d027b31461068557806370a082311461068d57610341565b8063485d7d94146106045780634e0e7e331461062a5780634ee2cd7e1461064957610341565b8063395093511161026c57806339509351146105a45780633c32a450146105d05780633f9e3f04146105f4578063429f657f146105fc57610341565b8063294f08b114610558578063313ce5671461056057806336cea11b1461057e57610341565b806318bb939a116102ff57806322434836116102d957806322434836146104ef57806323b872dd1461051257806323da7499146105485780632558d4f81461055057610341565b806318bb939a146104535780631959a002146104725780631d7553aa146104e757610341565b80628cc2621461034657806303da6fa51461037e57806306fdde0314610386578063095ea7b314610403578063170d4b981461044357806318160ddd1461044b575b600080fd5b61036c6004803603602081101561035c57600080fd5b50356001600160a01b031661098b565b60408051918252519081900360200190f35b61036c610a0e565b61038e610a14565b6040805160208082528351818301528351919283929083019185019080838360005b838110156103c85781810151838201526020016103b0565b50505050905090810190601f1680156103f55780820380516001836020036101000a031916815260200191505b509250505060405180910390f35b61042f6004803603604081101561041957600080fd5b506001600160a01b038135169060200135610aaa565b604080519115158252519081900360200190f35b61036c610ac8565b61036c610ace565b6104706004803603602081101561046957600080fd5b5035610ad4565b005b6104986004803603602081101561048857600080fd5b50356001600160a01b0316610eb9565b60408051998a5260208a01989098526001600160a01b03909616888801526060880194909452608087019290925260a086015260c085015260e084015261010083015251908190036101200190f35b61036c610f0e565b6104706004803603604081101561050557600080fd5b5080359060200135610f14565b61042f6004803603606081101561052857600080fd5b506001600160a01b03813581169160208101359091169060400135611030565b61036c6110b8565b61036c6110be565b61036c6110c4565b6105686110ca565b6040805160ff9092168252519081900360200190f35b6104706004803603602081101561059457600080fd5b50356001600160a01b03166110d3565b61042f600480360360408110156105ba57600080fd5b506001600160a01b038135169060200135611105565b6105d8611153565b604080516001600160a01b039092168252519081900360200190f35b61036c611162565b61036c611178565b6104706004803603602081101561061a57600080fd5b50356001600160a01b0316611354565b6104706004803603602081101561064057600080fd5b503515156113ed565b61036c6004803603604081101561065f57600080fd5b506001600160a01b03813516906020013561147e565b61036c6114c7565b6104706114cd565b6105d8611748565b61036c600480360360208110156106a357600080fd5b50356001600160a01b0316611757565b61036c600480360360208110156106c957600080fd5b50356001600160a01b0316611772565b610470611790565b61036c61183c565b6105d8611842565b61036c611851565b61038e611857565b6104706118b8565b61036c6004803603602081101561071f57600080fd5b5035611ec1565b61042f6004803603604081101561073c57600080fd5b506001600160a01b038135169060200135611ee7565b61036c611f4f565b61042f6004803603604081101561077057600080fd5b506001600160a01b038135169060200135611f55565b61036c6004803603602081101561079c57600080fd5b5035611f69565b6105d861202b565b610470600480360360408110156107c157600080fd5b5080359060200135151561203a565b61042f600480360360208110156107e657600080fd5b50356001600160a01b0316612506565b61036c61251b565b6105d8612521565b6104706004803603604081101561081c57600080fd5b5080359060200135612530565b61036c6004803603602081101561083f57600080fd5b5035612ad0565b6104706004803603602081101561085c57600080fd5b50356001600160a01b0316612b60565b61036c6004803603604081101561088257600080fd5b506001600160a01b0381358116916020013516612be6565b61036c600480360360608110156108b057600080fd5b5080359060208101359060400135612c11565b6108e0600480360360208110156108d957600080fd5b5035612c3a565b60408051938452602084019290925282820152519081900360600190f35b6104706004803603602081101561091457600080fd5b50356001600160a01b0316612c6a565b6104706004803603606081101561093a57600080fd5b506001600160a01b03813581169160208101359091169060400135612d6d565b61036c6004803603606081101561097057600080fd5b50803590602081013590604001356131b4565b6104706131dd565b600080610996613455565b60400151905060006109a7846134ad565b6040908101516001600160a01b0386166000908152600d6020529190912060040154909150610a04906109fe670de0b6b3a76400006109f86109e98787613508565b6109f28a611757565b90613565565b906135be565b90613625565b925050505b919050565b601a5481565b60038054604080516020601f6002600019610100600188161502019095169490940493840181900481028201810190925282815260609390929091830182828015610aa05780601f10610a7557610100808354040283529160200191610aa0565b820191906000526020600020905b815481529060010190602001808311610a8357829003601f168201915b5050505050905090565b6000610abe610ab761367f565b8484613683565b5060015b92915050565b60185481565b60025490565b336000908152600b602052604090205460ff1680610b01575033610af6611842565b6001600160a01b0316145b610b4d576040805162461bcd60e51b815260206004820152601860248201527718d85b1b195c881a5cc81b9bdd08185d5d1a1bdc9a5e995960421b604482015290519081900360640190fd5b610b5561376f565b15610b915760405162461bcd60e51b8152600401808060200182810382526026815260200180615ae46026913960400191505060405180910390fd5b610b99613790565b15610bd55760405162461bcd60e51b8152600401808060200182810382526026815260200180615ae46026913960400191505060405180910390fd5b610c6c610bef60175460145461362590919063ffffffff16565b600e54604080516370a0823160e01b815230600482015290516001600160a01b03909216916370a0823191602480820192602092909190829003018186803b158015610c3a57600080fd5b505afa158015610c4e573d6000803e3d6000fd5b505050506040513d6020811015610c6457600080fd5b505190613508565b811115610cc0576040805162461bcd60e51b815260206004820152601b60248201527f43616e6e6f74207374616b652070656e64696e672066756e64732e0000000000604482015290519081900360640190fd5b601060009054906101000a90046001600160a01b03166001600160a01b031663900cf0cf6040518163ffffffff1660e01b815260040160206040518083038186803b158015610d0e57600080fd5b505afa158015610d22573d6000803e3d6000fd5b505050506040513d6020811015610d3857600080fd5b5051601a541480610dc05750601060009054906101000a90046001600160a01b03166001600160a01b03166313f24daf6040518163ffffffff1660e01b815260040160206040518083038186803b158015610d9257600080fd5b505afa158015610da6573d6000803e3d6000fd5b505050506040513d6020811015610dbc57600080fd5b5051155b15610e6a57601054600e54610de3916001600160a01b03918216911660006137b1565b601054600e54610e00916001600160a01b039182169116836137b1565b6010546040805163534a7e1d60e11b81526004810184905290516001600160a01b039092169163a694fc3a9160248082019260009290919082900301818387803b158015610e4d57600080fd5b505af1158015610e61573d6000803e3d6000fd5b50505050610e7b565b601454610e779082613625565b6014555b50436000908152600c602090815260408083203284529091528082208054600160ff1991821681179092553384529190922080549091169091179055565b600d60205260009081526040902080546001820154600283015460038401546004850154600586015460068701546007880154600890980154969795966001600160a01b039095169593949293919290919089565b601c5481565b336000908152600b602052604090205460ff1680610f41575033610f36611842565b6001600160a01b0316145b610f8d576040805162461bcd60e51b815260206004820152601860248201527718d85b1b195c881a5cc81b9bdd08185d5d1a1bdc9a5e995960421b604482015290519081900360640190fd5b6303c26700821115610fdc576040805162461bcd60e51b81526020600482015260136024820152722637b1b5903a34b6b2903a37b7903434b3b41760691b604482015290519081900360640190fd5b81811115611025576040805162461bcd60e51b81526020600482015260116024820152702832b730b63a3c903a37b7903434b3b41760791b604482015290519081900360640190fd5b601291909155601355565b600061103d8484846138c9565b6110ad8461104961367f565b6110a8856040518060600160405280602881526020016159a7602891396001600160a01b038a1660009081526001602052604081209061108761367f565b6001600160a01b031681526020810191909152604001600020549190613b09565b613683565b5060015b9392505050565b60175481565b60155481565b60145481565b60055460ff1690565b336000908152600d6020526040902060020180546001600160a01b0319166001600160a01b0392909216919091179055565b6000610abe61111261367f565b846110a8856001600061112361367f565b6001600160a01b03908116825260208083019390935260409182016000908120918c168152925290205490613625565b600e546001600160a01b031681565b601d54600090611173906001613508565b905090565b600080601060009054906101000a90046001600160a01b03166001600160a01b031663d518f2436040518163ffffffff1660e01b815260040160606040518083038186803b1580156111c957600080fd5b505afa1580156111dd573d6000803e3d6000fd5b505050506040513d60608110156111f357600080fd5b506040908101516010548251630fe78fc160e21b815292519193506000926001600160a01b039091169163085f070c91611252916001918591633f9e3f0491600480820192602092909190829003018186803b158015610c3a57600080fd5b6040518263ffffffff1660e01b81526004018082815260200191505060606040518083038186803b15801561128657600080fd5b505afa15801561129a573d6000803e3d6000fd5b505050506040513d60608110156112b057600080fd5b5060400151905061134d670de0b6b3a76400006109f86112d08585613508565b601054604080516370a0823160e01b815230600482015290516001600160a01b03909216916370a0823191602480820192602092909190829003018186803b15801561131b57600080fd5b505afa15801561132f573d6000803e3d6000fd5b505050506040513d602081101561134557600080fd5b505190613565565b9250505090565b61135c61367f565b6001600160a01b031661136d611842565b6001600160a01b0316146113b6576040805162461bcd60e51b815260206004820181905260248201526000805160206159cf833981519152604482015290519081900360640190fd5b6001600160a01b0381163314156113cc57600080fd5b6001600160a01b03166000908152600b60205260409020805460ff19169055565b6113f561376f565b156114315760405162461bcd60e51b8152600401808060200182810382526026815260200180615ae46026913960400191505060405180910390fd5b611439613790565b156114755760405162461bcd60e51b8152600401808060200182810382526026815260200180615ae46026913960400191505060405180910390fd5b610e7b81613ba0565b6001600160a01b0382166000908152600660205260408120819081906114a5908590614753565b91509150816114bc576114b785611757565b6114be565b805b95945050505050565b60135481565b6114d561376f565b156115115760405162461bcd60e51b8152600401808060200182810382526026815260200180615ae46026913960400191505060405180910390fd5b611519613790565b156115555760405162461bcd60e51b8152600401808060200182810382526026815260200180615ae46026913960400191505060405180910390fd5b33801561168857611564615737565b506001600160a01b038082166000908152600d6020908152604091829020825161012081018452815481526001820154928101929092526002810154909316918101919091526003820154606082015260048201546080820152600582015460a0820152600682015460c0820152600782015460e08201526008909101546101008201526115f18261098b565b60808201526115fe611162565b606082019081526001600160a01b038381166000908152600d602090815260409182902085518155908501516001820155908401516002820180546001600160a01b0319169190931617909155905160038201556080820151600482015560a0820151600582015560c0820151600682015560e08201516007820155610100909101516008909101555b60006116933361098b565b116116d9576040805162461bcd60e51b815260206004820152601160248201527027379023a0a6a2903a379031b630b4b69760791b604482015290519081900360640190fd5b336000908152600d6020526040902080544210611701576013546116fe904290613625565b81555b611709614850565b5050436000908152600c602090815260408083203284529091528082208054600160ff1991821681179092553384529190922080549091169091179055565b6011546001600160a01b031681565b6001600160a01b031660009081526020819052604090205490565b6001600160a01b03166000908152600d602052604090206003015490565b61179861367f565b6001600160a01b03166117a9611842565b6001600160a01b0316146117f2576040805162461bcd60e51b815260206004820181905260248201526000805160206159cf833981519152604482015290519081900360640190fd5b600a546040516000916001600160a01b0316907f8be0079c531659141344cd1fd0a4f28419497f9722a3daafe3b4186f6b6457e0908390a3600a80546001600160a01b0319169055565b60195481565b600a546001600160a01b031690565b60165481565b60048054604080516020601f6002600019610100600188161502019095169490940493840181900481028201810190925282815260609390929091830182828015610aa05780601f10610a7557610100808354040283529160200191610aa0565b6118c061376f565b156118fc5760405162461bcd60e51b8152600401808060200182810382526026815260200180615ae46026913960400191505060405180910390fd5b611904613790565b156119405760405162461bcd60e51b8152600401808060200182810382526026815260200180615ae46026913960400191505060405180910390fd5b601054604080516313f24daf60e01b815290516000926001600160a01b0316916313f24daf916004808301926020929190829003018186803b15801561198557600080fd5b505afa158015611999573d6000803e3d6000fd5b505050506040513d60208110156119af57600080fd5b50519050801580611a415750611a3f81601060009054906101000a90046001600160a01b03166001600160a01b031663900cf0cf6040518163ffffffff1660e01b815260040160206040518083038186803b158015611a0d57600080fd5b505afa158015611a21573d6000803e3d6000fd5b505050506040513d6020811015611a3757600080fd5b505190614a25565b155b611a92576040805162461bcd60e51b815260206004820152601e60248201527f4d7573742063616c6c20617420612077697468647261772065706f63682e0000604482015290519081900360640190fd5b801580611b175750601060009054906101000a90046001600160a01b03166001600160a01b031663c5967c266040518163ffffffff1660e01b815260040160206040518083038186803b158015611ae857600080fd5b505afa158015611afc573d6000803e3d6000fd5b505050506040513d6020811015611b1257600080fd5b505142115b80611b755750610708611b7242601060009054906101000a90046001600160a01b03166001600160a01b031663c5967c266040518163ffffffff1660e01b815260040160206040518083038186803b158015610c3a57600080fd5b11155b611bb05760405162461bcd60e51b8152600401808060200182810382526034815260200180615a106034913960400191505060405180910390fd5b801580611c385750601060009054906101000a90046001600160a01b03166001600160a01b031663900cf0cf6040518163ffffffff1660e01b815260040160206040518083038186803b158015611c0657600080fd5b505afa158015611c1a573d6000803e3d6000fd5b505050506040513d6020811015611c3057600080fd5b5051601a5414155b611c7b576040805162461bcd60e51b815260206004820152600f60248201526e20b63932b0b23c9031b0b63632b21760891b604482015290519081900360640190fd5b801580611d025750601060009054906101000a90046001600160a01b03166001600160a01b031663900cf0cf6040518163ffffffff1660e01b815260040160206040518083038186803b158015611cd157600080fd5b505afa158015611ce5573d6000803e3d6000fd5b505050506040513d6020811015611cfb57600080fd5b5051601954145b611d4c576040805162461bcd60e51b815260206004820152601660248201527524b734ba34b0ba32903830b93a1018903334b939ba1760511b604482015290519081900360640190fd5b60145415611e0157601054600e54611d72916001600160a01b03918216911660006137b1565b601054601454600e54611d93926001600160a01b03918216929116906137b1565b6010546014546040805163534a7e1d60e11b81526004810192909252516001600160a01b039092169163a694fc3a9160248082019260009290919082900301818387803b158015611de357600080fd5b505af1158015611df7573d6000803e3d6000fd5b5050600060145550505b601060009054906101000a90046001600160a01b03166001600160a01b031663900cf0cf6040518163ffffffff1660e01b815260040160206040518083038186803b158015611e4f57600080fd5b505afa158015611e63573d6000803e3d6000fd5b505050506040513d6020811015611e7957600080fd5b5051601a555043601c8190556000908152600c602090815260408083203284529091528082208054600160ff1991821681179092553384529190922080549091169091179055565b6000806000611ed1846007614753565b91509150816110b157611ee2610ace565b610a04565b6000610abe611ef461367f565b846110a885604051806060016040528060258152602001615b736025913960016000611f1e61367f565b6001600160a01b03908116825260208083019390935260409182016000908120918d16815292529020549190613b09565b60125481565b6000610abe611f6261367f565b84846138c9565b601454601054604080516370a0823160e01b815230600482015290516000938493611ff39391926001600160a01b03909116916370a08231916024808301926020929190829003018186803b158015611fc157600080fd5b505afa158015611fd5573d6000803e3d6000fd5b505050506040513d6020811015611feb57600080fd5b505190613625565b90506000611fff610ace565b905080158061200c575081155b1561201b578392505050610a09565b60006114be836109f88785613565565b6010546001600160a01b031681565b61204261376f565b1561207e5760405162461bcd60e51b8152600401808060200182810382526026815260200180615ae46026913960400191505060405180910390fd5b612086613790565b156120c25760405162461bcd60e51b8152600401808060200182810382526026815260200180615ae46026913960400191505060405180910390fd5b3380156121f5576120d1615737565b506001600160a01b038082166000908152600d6020908152604091829020825161012081018452815481526001820154928101929092526002810154909316918101919091526003820154606082015260048201546080820152600582015460a0820152600682015460c0820152600782015460e082015260089091015461010082015261215e8261098b565b608082015261216b611162565b606082019081526001600160a01b038381166000908152600d602090815260409182902085518155908501516001820155908401516002820180546001600160a01b0319169190931617909155905160038201556080820151600482015560a0820151600582015560c0820151600682015560e08201516007820155610100909101516008909101555b336000908152600d60205260409020805442101561224a576040805162461bcd60e51b815260206004820152600d60248201526c5374696c6c206c6f636b65642160981b604482015290519081900360640190fd5b60008411612299576040805162461bcd60e51b81526020600482015260176024820152762737903d32b9379030b6b7bab73a1030b63637bbb2b21760491b604482015290519081900360640190fd5b601060009054906101000a90046001600160a01b03166001600160a01b03166313f24daf6040518163ffffffff1660e01b815260040160206040518083038186803b1580156122e757600080fd5b505afa1580156122fb573d6000803e3d6000fd5b505050506040513d602081101561231157600080fd5b5051158061232157506007810154155b8061233157508060070154601c54115b61236c5760405162461bcd60e51b815260040180806020018281038252602581526020018061591e6025913960400191505060405180910390fd5b61237533611757565b84141561238457612384614850565b61238f3330866138c9565b600581015461239e9085613625565b60058201556016546123b09085613625565b60165560006123be85612ad0565b60068301549091506123d09082613625565b60068301556015546123e29082613625565b6015556017546123f29082613625565b6017554360088301556040805186815260208101839052815133927fcbc7c7858f9ab8ce22517d4b910042540172c3d579222cf6716e222f341ca371928290030190a2601060009054906101000a90046001600160a01b03166001600160a01b03166313f24daf6040518163ffffffff1660e01b815260040160206040518083038186803b15801561248357600080fd5b505afa158015612497573d6000803e3d6000fd5b505050506040513d60208110156124ad57600080fd5b50516124c4576124bc84613ba0565b6124c4614a8c565b5050436000908152600c602090815260408083203284529091528082208054600160ff1991821681179092553384529190922080549091169091179055505050565b600b6020526000908152604090205460ff1681565b601b5481565b600f546001600160a01b031681565b61253861376f565b156125745760405162461bcd60e51b8152600401808060200182810382526026815260200180615ae46026913960400191505060405180910390fd5b61257c613790565b156125b85760405162461bcd60e51b8152600401808060200182810382526026815260200180615ae46026913960400191505060405180910390fd5b3380156126eb576125c7615737565b506001600160a01b038082166000908152600d6020908152604091829020825161012081018452815481526001820154928101929092526002810154909316918101919091526003820154606082015260048201546080820152600582015460a0820152600682015460c0820152600782015460e08201526008909101546101008201526126548261098b565b6080820152612661611162565b606082019081526001600160a01b038381166000908152600d602090815260409182902085518155908501516001820155908401516002820180546001600160a01b0319169190931617909155905160038201556080820151600482015560a0820151600582015560c0820151600682015560e08201516007820155610100909101516008909101555b6000831161273a576040805162461bcd60e51b81526020600482015260176024820152762737903d32b9379030b6b7bab73a1030b63637bbb2b21760491b604482015290519081900360640190fd5b336000908152600d6020526040902060058101541580156127ee5750601060009054906101000a90046001600160a01b03166001600160a01b03166313f24daf6040518163ffffffff1660e01b815260040160206040518083038186803b1580156127a457600080fd5b505afa1580156127b8573d6000803e3d6000fd5b505050506040513d60208110156127ce57600080fd5b505115806127de57506008810154155b806127ee57508060080154601b54115b6128295760405162461bcd60e51b81526004018080602001828103825260258152602001806158a86025913960400191505060405180910390fd5b6012548310156128395760125492505b60006128454285613625565b600183018590558254909150811115612862576128623382614c30565b600061286d86611f69565b600e54909150612888906001600160a01b0316333089614c4c565b6128923382614cac565b601060009054906101000a90046001600160a01b03166001600160a01b031663900cf0cf6040518163ffffffff1660e01b815260040160206040518083038186803b1580156128e057600080fd5b505afa1580156128f4573d6000803e3d6000fd5b505050506040513d602081101561290a57600080fd5b5051601a5414806129925750601060009054906101000a90046001600160a01b03166001600160a01b03166313f24daf6040518163ffffffff1660e01b815260040160206040518083038186803b15801561296457600080fd5b505afa158015612978573d6000803e3d6000fd5b505050506040513d602081101561298e57600080fd5b5051155b15612a3c57601054600e546129b5916001600160a01b03918216911660006137b1565b601054600e546129d2916001600160a01b039182169116886137b1565b6010546040805163534a7e1d60e11b81526004810189905290516001600160a01b039092169163a694fc3a9160248082019260009290919082900301818387803b158015612a1f57600080fd5b505af1158015612a33573d6000803e3d6000fd5b50505050612a4d565b601454612a499087613625565b6014555b4360078401556040805187815260208101839052815133927f90890809c654f11d6e72a28fa60149770a0d11ec6c92319d6ceb2bb0a4ea1a15928290030190a25050436000908152600c602090815260408083203284529091528082208054600160ff199182168117909255338452919092208054909116909117905550505050565b601454601054604080516370a0823160e01b815230600482015290516000938493612b289391926001600160a01b03909116916370a08231916024808301926020929190829003018186803b158015611fc157600080fd5b90506000612b34610ace565b9050801580612b41575081155b15612b50578392505050610a09565b60006114be826109f88786613565565b612b6861367f565b6001600160a01b0316612b79611842565b6001600160a01b031614612bc2576040805162461bcd60e51b815260206004820181905260248201526000805160206159cf833981519152604482015290519081900360640190fd5b6001600160a01b03166000908152600b60205260409020805460ff19166001179055565b6001600160a01b03918216600090815260016020908152604080832093909416825291909152205490565b6000811580612c1e575082155b15612c2a5750826110b1565b60006114be836109f88787613565565b601d8181548110612c4757fe5b600091825260209091206003909102018054600182015460029092015490925083565b612c7261367f565b6001600160a01b0316612c83611842565b6001600160a01b031614612ccc576040805162461bcd60e51b815260206004820181905260248201526000805160206159cf833981519152604482015290519081900360640190fd5b6001600160a01b038116612d115760405162461bcd60e51b81526004018080602001828103825260268152602001806157f36026913960400191505060405180910390fd5b600a546040516001600160a01b038084169216907f8be0079c531659141344cd1fd0a4f28419497f9722a3daafe3b4186f6b6457e090600090a3600a80546001600160a01b0319166001600160a01b0392909216919091179055565b336000908152600b602052604090205460ff1680612d9a575033612d8f611842565b6001600160a01b0316145b612de6576040805162461bcd60e51b815260206004820152601860248201527718d85b1b195c881a5cc81b9bdd08185d5d1a1bdc9a5e995960421b604482015290519081900360640190fd5b612dee61376f565b15612e2a5760405162461bcd60e51b8152600401808060200182810382526026815260200180615ae46026913960400191505060405180910390fd5b612e32613790565b15612e6e5760405162461bcd60e51b8152600401808060200182810382526026815260200180615ae46026913960400191505060405180910390fd5b6001600160a01b03831630141580612e9a5750612e96601654612e9030611757565b90613508565b8111155b612ed55760405162461bcd60e51b815260040180806020018281038252602b8152602001806158f3602b913960400191505060405180910390fd5b600e546001600160a01b0384811691161415612f225760405162461bcd60e51b81526004018080602001828103825260228152602001806158606022913960400191505060405180910390fd5b600f546001600160a01b038481169116141580612f8e5750601854600f54604080516370a0823160e01b81523060048201529051612f8a93926001600160a01b0316916370a08231916024808301926020929190829003018186803b158015610c3a57600080fd5b8111155b612fc95760405162461bcd60e51b815260040180806020018281038252602b8152602001806158f3602b913960400191505060405180910390fd5b6001600160a01b038316301480612fed5750600f546001600160a01b038481169116145b8061301457506001600160a01b03831673fff54fcdfc0e4357be9577d8bc2b4579ce9d5c88145b8061303b57506001600160a01b038316738d11ec38a3eb5e956b052f67da8bdc9bef8abf3e145b8061306257506001600160a01b03831673168e509fe5aae456cdcac39beb6fd56b6cb8912e145b8061308957506001600160a01b03831673f69fcb51a13d4ca8a58d5a8d964e7ae5d9ca8594145b806130b057506001600160a01b0383167304068da6c83afcfa0e13ba15a6696662335d5b75145b806130d757506001600160a01b0383167382f0b8b456c1a451378467398982d4834b6829c1145b806130fe57506001600160a01b0383167321be370d5312f44cb42ce377bc9b8a0cef1a4c83145b8061312557506001600160a01b0383167374b23882a30290451a17c44f4f05243b6b58c76d145b6131605760405162461bcd60e51b815260040180806020018281038252602581526020018061583b6025913960400191505060405180910390fd5b6131746001600160a01b0384168383614d9c565b5050436000908152600c602090815260408083203284529091528082208054600160ff199182168117909255338452919092208054909116909117905550565b60008115806131c1575082155b156131cd5750826110b1565b60006114be846109f88786613565565b6131e561376f565b156132215760405162461bcd60e51b8152600401808060200182810382526026815260200180615ae46026913960400191505060405180910390fd5b613229613790565b156132655760405162461bcd60e51b8152600401808060200182810382526026815260200180615ae46026913960400191505060405180910390fd5b33801561339857613274615737565b506001600160a01b038082166000908152600d6020908152604091829020825161012081018452815481526001820154928101929092526002810154909316918101919091526003820154606082015260048201546080820152600582015460a0820152600682015460c0820152600782015460e08201526008909101546101008201526133018261098b565b608082015261330e611162565b606082019081526001600160a01b038381166000908152600d602090815260409182902085518155908501516001820155908401516002820180546001600160a01b0319169190931617909155905160038201556080820151600482015560a0820151600582015560c0820151600682015560e08201516007820155610100909101516008909101555b601060009054906101000a90046001600160a01b03166001600160a01b03166313f24daf6040518163ffffffff1660e01b815260040160206040518083038186803b1580156133e657600080fd5b505afa1580156133fa573d6000803e3d6000fd5b505050506040513d602081101561341057600080fd5b505161344d5760405162461bcd60e51b81526004018080602001828103825260218152602001806159436021913960400191505060405180910390fd5b610e7b614a8c565b61345d61578c565b601d613467611162565b8154811061347157fe5b90600052602060002090600302016040518060600160405290816000820154815260200160018201548152602001600282015481525050905090565b6134b561578c565b601d6134c083611772565b815481106134ca57fe5b906000526020600020906003020160405180606001604052908160008201548152602001600182015481526020016002820154815250509050919050565b60008282111561355f576040805162461bcd60e51b815260206004820152601e60248201527f536166654d6174683a207375627472616374696f6e206f766572666c6f770000604482015290519081900360640190fd5b50900390565b60008261357457506000610ac2565b8282028284828161358157fe5b04146110b15760405162461bcd60e51b81526004018080602001828103825260218152602001806159866021913960400191505060405180910390fd5b6000808211613614576040805162461bcd60e51b815260206004820152601a60248201527f536166654d6174683a206469766973696f6e206279207a65726f000000000000604482015290519081900360640190fd5b81838161361d57fe5b049392505050565b6000828201838110156110b1576040805162461bcd60e51b815260206004820152601b60248201527f536166654d6174683a206164646974696f6e206f766572666c6f770000000000604482015290519081900360640190fd5b3390565b6001600160a01b0383166136c85760405162461bcd60e51b8152600401808060200182810382526024815260200180615a696024913960400191505060405180910390fd5b6001600160a01b03821661370d5760405162461bcd60e51b81526004018080602001828103825260228152602001806158196022913960400191505060405180910390fd5b6001600160a01b03808416600081815260016020908152604080832094871680845294825291829020859055815185815291517f8c5be1e5ebec7d5bd14f71427d1e84f3dd0314c0f7b2291e5b200ac8c7c3b9259281900390910190a3505050565b436000908152600c6020908152604080832032845290915290205460ff1690565b436000908152600c6020908152604080832033845290915290205460ff1690565b801580613837575060408051636eb1769f60e11b81523060048201526001600160a01b03848116602483015291519185169163dd62ed3e91604480820192602092909190829003018186803b15801561380957600080fd5b505afa15801561381d573d6000803e3d6000fd5b505050506040513d602081101561383357600080fd5b5051155b6138725760405162461bcd60e51b8152600401808060200182810382526036815260200180615b0a6036913960400191505060405180910390fd5b604080516001600160a01b038416602482015260448082018490528251808303909101815260649091019091526020810180516001600160e01b031663095ea7b360e01b1790526138c4908490614dea565b505050565b336000908152600b602052604090205460ff16806138f65750336138eb611842565b6001600160a01b0316145b80613977575060115460408051632364d3dd60e21b8152905133926001600160a01b031691638d934f74916004808301926020929190829003018186803b15801561394057600080fd5b505afa158015613954573d6000803e3d6000fd5b505050506040513d602081101561396a57600080fd5b50516001600160a01b0316145b8061398157503033145b806139a457506001600160a01b0382166000908152600b602052604090205460ff165b806139c75750816001600160a01b03166139bc611842565b6001600160a01b0316145b80613a4a575060115460408051632364d3dd60e21b815290516001600160a01b03808616931691638d934f74916004808301926020929190829003018186803b158015613a1357600080fd5b505afa158015613a27573d6000803e3d6000fd5b505050506040513d6020811015613a3d57600080fd5b50516001600160a01b0316145b80613a5d5750306001600160a01b038316145b613afe576001600160a01b038281166000908152600d6020526040902060028101549091858116911614613ac25760405162461bcd60e51b81526004018080602001828103825260228152602001806159646022913960400191505060405180910390fd5b6002810180546001600160a01b0319169055601254600090613ae5904290613625565b8254909150811115613afb57613afb8482614c30565b50505b6138c4838383614e9b565b60008184841115613b985760405162461bcd60e51b81526004018080602001828103825283818151815260200191508051906020019080838360005b83811015613b5d578181015183820152602001613b45565b50505050905090810190601f168015613b8a5780820380516001836020036101000a031916815260200191505b509250505060405180910390fd5b505050900390565b601054604080516313f24daf60e01b815290516000926001600160a01b0316916313f24daf916004808301926020929190829003018186803b158015613be557600080fd5b505afa158015613bf9573d6000803e3d6000fd5b505050506040513d6020811015613c0f57600080fd5b50519050801580613c6f5750613c6d81601060009054906101000a90046001600160a01b03166001600160a01b031663900cf0cf6040518163ffffffff1660e01b815260040160206040518083038186803b158015611a0d57600080fd5b155b613cc0576040805162461bcd60e51b815260206004820152601e60248201527f4d7573742063616c6c20617420612077697468647261772065706f63682e0000604482015290519081900360640190fd5b801580613d455750601060009054906101000a90046001600160a01b03166001600160a01b031663c5967c266040518163ffffffff1660e01b815260040160206040518083038186803b158015613d1657600080fd5b505afa158015613d2a573d6000803e3d6000fd5b505050506040513d6020811015613d4057600080fd5b505142115b80613da35750610708613da042601060009054906101000a90046001600160a01b03166001600160a01b031663c5967c266040518163ffffffff1660e01b815260040160206040518083038186803b158015610c3a57600080fd5b11155b613dde5760405162461bcd60e51b8152600401808060200182810382526034815260200180615a106034913960400191505060405180910390fd5b801580613e665750601060009054906101000a90046001600160a01b03166001600160a01b031663900cf0cf6040518163ffffffff1660e01b815260040160206040518083038186803b158015613e3457600080fd5b505afa158015613e48573d6000803e3d6000fd5b505050506040513d6020811015613e5e57600080fd5b505160195414155b613ea9576040805162461bcd60e51b815260206004820152600f60248201526e20b63932b0b23c9031b0b63632b21760891b604482015290519081900360640190fd5b600f5460408051632587701560e11b815230600482015290516000926001600160a01b031691634b0ee02a916024808301926020929190829003018186803b158015613ef457600080fd5b505afa158015613f08573d6000803e3d6000fd5b505050506040513d6020811015613f1e57600080fd5b505160165490915015613f3d57613f3730601654614ff6565b60006016555b601554613fb157601060009054906101000a90046001600160a01b03166001600160a01b031663b88a802f6040518163ffffffff1660e01b8152600401600060405180830381600087803b158015613f9457600080fd5b505af1158015613fa8573d6000803e3d6000fd5b5050505061437a565b600e54604080516370a0823160e01b815230600482015290516000926001600160a01b0316916370a08231916024808301926020929190829003018186803b158015613ffc57600080fd5b505afa158015614010573d6000803e3d6000fd5b505050506040513d602081101561402657600080fd5b5051601580546000909155601454919250908111156140595760145461404d908290613508565b6000601455905061406d565b6014546140669082613508565b6014555060005b801561430e5760105460408051632e1a7d4d60e01b81526004810184905290516001600160a01b0390921691632e1a7d4d9160248082019260009290919082900301818387803b1580156140c057600080fd5b505af11580156140d4573d6000803e3d6000fd5b5050600e54604080516370a0823160e01b81523060048201529051600094506001600160a01b0390921692506370a08231916024808301926020929190829003018186803b15801561412557600080fd5b505afa158015614139573d6000803e3d6000fd5b505050506040513d602081101561414f57600080fd5b50519050600061415f8285613508565b9050600061416d8483613508565b905087158061427b575060008111801561427b5750600e5460115460408051632364d3dd60e21b8152905184936001600160a01b039081169363dd62ed3e93911691638d934f7491600480820192602092909190829003018186803b1580156141d557600080fd5b505afa1580156141e9573d6000803e3d6000fd5b505050506040513d60208110156141ff57600080fd5b5051604080516001600160e01b031960e085901b1681526001600160a01b039092166004830152306024830152516044808301926020929190829003018186803b15801561424c57600080fd5b505afa158015614260573d6000803e3d6000fd5b505050506040513d602081101561427657600080fd5b505110155b156143065760115460408051632364d3dd60e21b81529051614306926001600160a01b031691638d934f74916004808301926020929190829003018186803b1580156142c657600080fd5b505afa1580156142da573d6000803e3d6000fd5b505050506040513d60208110156142f057600080fd5b5051600e546001600160a01b0316903084614c4c565b505050614377565b601060009054906101000a90046001600160a01b03166001600160a01b031663b88a802f6040518163ffffffff1660e01b8152600401600060405180830381600087803b15801561435e57600080fd5b505af1158015614372573d6000803e3d6000fd5b505050505b50505b600f546040805163010158bb60e51b81523060048201529051600092614443926001600160a01b039091169163202b176091602480820192602092909190829003018186803b1580156143cc57600080fd5b505afa1580156143e0573d6000803e3d6000fd5b505050506040513d60208110156143f657600080fd5b5051600f5460408051635a46d3b560e01b815230600482015290516001600160a01b0390921691635a46d3b591602480820192602092909190829003018186803b158015610c3a57600080fd5b905080156144b757600f546040805163579587b360e11b81523060048201526024810184905290516001600160a01b039092169163af2b0f669160448082019260009290919082900301818387803b15801561449e57600080fd5b505af11580156144b2573d6000803e3d6000fd5b505050505b600f5460408051632587701560e11b815230600482015290516000926001600160a01b031691634b0ee02a916024808301926020929190829003018186803b15801561450257600080fd5b505afa158015614516573d6000803e3d6000fd5b505050506040513d602081101561452c57600080fd5b50519050600061453c8285613508565b60185490915061454c9082613625565b6018556000614559613455565b6040015190506000614569610ace565b9050600081156145985761459361458c836109f887670de0b6b3a7640000613565565b8490613625565b61459a565b825b9050816146265760115460408051632364d3dd60e21b81529051614626926001600160a01b031691638d934f74916004808301926020929190829003018186803b1580156145e757600080fd5b505afa1580156145fb573d6000803e3d6000fd5b505050506040513d602081101561461157600080fd5b5051600f546001600160a01b03169086614d9c565b61462e61578c565b50604080516060810182524381526020808201878152828401858152601d805460018101825560009190915284517f6d4407e7be21f808e6509aa9fa9143369579dd7d760fe20a2c09680fc146134f60039092029182015591517f6d4407e7be21f808e6509aa9fa9143369579dd7d760fe20a2c09680fc1461350830155517f6d4407e7be21f808e6509aa9fa9143369579dd7d760fe20a2c09680fc146135190910155601054835163900cf0cf60e01b8152935192936001600160a01b039091169263900cf0cf92600480840193919291829003018186803b15801561471457600080fd5b505afa158015614728573d6000803e3d6000fd5b505050506040513d602081101561473e57600080fd5b5051601955505043601b555050505050505050565b600080600084116147a4576040805162461bcd60e51b815260206004820152601660248201527504552433230536e617073686f743a20696420697320360541b604482015290519081900360640190fd5b6147ae60096150f2565b841115614802576040805162461bcd60e51b815260206004820152601d60248201527f4552433230536e617073686f743a206e6f6e6578697374656e74206964000000604482015290519081900360640190fd5b600061480e84866150f6565b8454909150811415614827576000809250925050614849565b600184600101828154811061483857fe5b906000526020600020015492509250505b9250929050565b336000908152600d60205260409020600401548015614a2257336000908152600d60205260408120600401556018546148899082613508565b601855600f546148a3906001600160a01b03163383614d9c565b600080601060009054906101000a90046001600160a01b03166001600160a01b0316638278b53b6040518163ffffffff1660e01b815260040160206040518083038186803b1580156148f457600080fd5b505afa158015614908573d6000803e3d6000fd5b505050506040513d602081101561491e57600080fd5b5051905060648111156149625760405162461bcd60e51b815260040180806020018281038252602d815260200180615a8d602d913960400191505060405180910390fd5b61497160646109f88584613565565b915081156149e557600f546040805163282d3fdf60e01b81523360048201526024810185905290516001600160a01b039092169163282d3fdf9160448082019260009290919082900301818387803b1580156149cc57600080fd5b505af11580156149e0573d6000803e3d6000fd5b505050505b6040805184815260208101849052815133927fd6f2c8500df5b44f11e9e48b91ff9f1b9d81bc496d55570c2b1b75bf65243f51928290030190a250505b50565b6000808211614a7b576040805162461bcd60e51b815260206004820152601860248201527f536166654d6174683a206d6f64756c6f206279207a65726f0000000000000000604482015290519081900360640190fd5b818381614a8457fe5b069392505050565b336000908152600d602052604090206005810154614aeb576040805162461bcd60e51b81526020600482015260176024820152762737903d32b9379030b6b7bab73a1030b63637bbb2b21760491b604482015290519081900360640190fd5b601060009054906101000a90046001600160a01b03166001600160a01b03166313f24daf6040518163ffffffff1660e01b815260040160206040518083038186803b158015614b3957600080fd5b505afa158015614b4d573d6000803e3d6000fd5b505050506040513d6020811015614b6357600080fd5b50511580614b7657508060080154601b54115b614bb15760405162461bcd60e51b8152600401808060200182810382526033815260200180615b406033913960400191505060405180910390fd5b6006810154601754614bc39082613508565b6017556005820180546000918290556006840191909155600e54614bf1906001600160a01b03163384614d9c565b6040805182815260208101849052815133927ff279e6a1f5e320cca91135676d9cb6e44ca8a08c0b88342bcdb1144f6511b568928290030190a2505050565b6001600160a01b039091166000908152600d6020526040902055565b604080516001600160a01b0380861660248301528416604482015260648082018490528251808303909101815260849091019091526020810180516001600160e01b03166323b872dd60e01b179052614ca6908590614dea565b50505050565b6001600160a01b038216614d07576040805162461bcd60e51b815260206004820152601f60248201527f45524332303a206d696e7420746f20746865207a65726f206164647265737300604482015290519081900360640190fd5b614d1360008383615197565b600254614d209082613625565b6002556001600160a01b038216600090815260208190526040902054614d469082613625565b6001600160a01b0383166000818152602081815260408083209490945583518581529351929391927fddf252ad1be2c89b69c2b068fc378daa952ba7f163c4a11628f55a4df523b3ef9281900390910190a35050565b604080516001600160a01b038416602482015260448082018490528251808303909101815260649091019091526020810180516001600160e01b031663a9059cbb60e01b1790526138c49084905b6060614e3f826040518060400160405280602081526020017f5361666545524332303a206c6f772d6c6576656c2063616c6c206661696c6564815250856001600160a01b03166154219092919063ffffffff16565b8051909150156138c457808060200190516020811015614e5e57600080fd5b50516138c45760405162461bcd60e51b815260040180806020018281038252602a815260200180615aba602a913960400191505060405180910390fd5b6001600160a01b038316614ee05760405162461bcd60e51b8152600401808060200182810382526025815260200180615a446025913960400191505060405180910390fd5b6001600160a01b038216614f255760405162461bcd60e51b81526004018080602001828103825260238152602001806157ae6023913960400191505060405180910390fd5b614f30838383615197565b614f6d81604051806060016040528060268152602001615882602691396001600160a01b0386166000908152602081905260409020549190613b09565b6001600160a01b038085166000908152602081905260408082209390935590841681522054614f9c9082613625565b6001600160a01b038084166000818152602081815260409182902094909455805185815290519193928716927fddf252ad1be2c89b69c2b068fc378daa952ba7f163c4a11628f55a4df523b3ef92918290030190a3505050565b6001600160a01b03821661503b5760405162461bcd60e51b81526004018080602001828103825260218152602001806159ef6021913960400191505060405180910390fd5b61504782600083615197565b615084816040518060600160405280602281526020016157d1602291396001600160a01b0385166000908152602081905260409020549190613b09565b6001600160a01b0383166000908152602081905260409020556002546150aa9082613508565b6002556040805182815290516000916001600160a01b038516917fddf252ad1be2c89b69c2b068fc378daa952ba7f163c4a11628f55a4df523b3ef9181900360200190a35050565b5490565b815460009061510757506000610ac2565b82546000905b808210156151565760006151218383615438565b90508486828154811061513057fe5b9060005260206000200154111561514957809150615150565b8060010192505b5061510d565b60008211801561517e57508385600184038154811061517157fe5b9060005260206000200154145b1561518f5750600019019050610ac2565b509050610ac2565b826001600160a01b038116156152d3576151af615737565b506001600160a01b038082166000908152600d6020908152604091829020825161012081018452815481526001820154928101929092526002810154909316918101919091526003820154606082015260048201546080820152600582015460a0820152600682015460c0820152600782015460e082015260089091015461010082015261523c8261098b565b6080820152615249611162565b606082019081526001600160a01b038381166000908152600d602090815260409182902085518155908501516001820155908401516002820180546001600160a01b0319169190931617909155905160038201556080820151600482015560a0820151600582015560c0820151600682015560e08201516007820155610100909101516008909101555b826001600160a01b0381161561540f576152eb615737565b506001600160a01b038082166000908152600d6020908152604091829020825161012081018452815481526001820154928101929092526002810154909316918101919091526003820154606082015260048201546080820152600582015460a0820152600682015460c0820152600782015460e08201526008909101546101008201526153788261098b565b6080820152615385611162565b606082019081526001600160a01b038381166000908152600d602090815260409182902085518155908501516001820155908401516002820180546001600160a01b0319169190931617909155905160038201556080820151600482015560a0820151600582015560c0820151600682015560e08201516007820155610100909101516008909101555b61541a85858561545d565b5050505050565b606061543084846000856154b5565b949350505050565b6000600280830660028506018161544b57fe5b04600283046002850401019392505050565b6154688383836138c4565b6001600160a01b03831661548c5761547f82615611565b61548761563b565b6138c4565b6001600160a01b0382166154a35761547f83615611565b6154ac83615611565b6138c482615611565b6060824710156154f65760405162461bcd60e51b81526004018080602001828103825260268152602001806158cd6026913960400191505060405180910390fd5b6154ff8561564a565b615550576040805162461bcd60e51b815260206004820152601d60248201527f416464726573733a2063616c6c20746f206e6f6e2d636f6e7472616374000000604482015290519081900360640190fd5b60006060866001600160a01b031685876040518082805190602001908083835b6020831061558f5780518252601f199092019160209182019101615570565b6001836020036101000a03801982511681845116808217855250505050505090500191505060006040518083038185875af1925050503d80600081146155f1576040519150601f19603f3d011682016040523d82523d6000602084013e6155f6565b606091505b5091509150615606828286615650565b979650505050505050565b6001600160a01b0381166000908152600660205260409020614a229061563683611757565b6156b6565b6156486007615636610ace565b565b3b151590565b6060831561565f5750816110b1565b82511561566f5782518084602001fd5b60405162461bcd60e51b8152602060048201818152845160248401528451859391928392604401919085019080838360008315613b5d578181015183820152602001613b45565b60006156c260096150f2565b9050806156ce84615702565b10156138c4578254600180820185556000858152602080822090930193909355938401805494850181558252902090910155565b805460009061571357506000610a09565b81548290600019810190811061572557fe5b90600052602060002001549050610a09565b604051806101200160405280600081526020016000815260200160006001600160a01b031681526020016000815260200160008152602001600081526020016000815260200160008152602001600081525090565b6040518060600160405280600081526020016000815260200160008152509056fe45524332303a207472616e7366657220746f20746865207a65726f206164647265737345524332303a206275726e20616d6f756e7420657863656564732062616c616e63654f776e61626c653a206e6577206f776e657220697320746865207a65726f206164647265737345524332303a20617070726f766520746f20746865207a65726f206164647265737343616e206f6e6c79207472616e736665722077686974656c697374656420746f6b656e732e43616e6e6f74206272696e6720646f776e207072696365206f66204d41535445522e45524332303a207472616e7366657220616d6f756e7420657863656564732062616c616e636543616e6e6f74207374616b65207769746820612077697468647261772070656e64696e672e416464726573733a20696e73756666696369656e742062616c616e636520666f722063616c6c43616e6e6f74207472616e73666572206d6f7265207468616e206163636964656e74616c2066756e64732e43616e6e6f7420776974686472617720776974682061207374616b652070656e64696e672e43616c6c207265717565737453656c6c546f5468656f727920696e73746561642e526563656976657220646964206e6f7420617070726f7665207472616e736665722e536166654d6174683a206d756c7469706c69636174696f6e206f766572666c6f7745524332303a207472616e7366657220616d6f756e74206578636565647320616c6c6f77616e63654f776e61626c653a2063616c6c6572206973206e6f7420746865206f776e657245524332303a206275726e2066726f6d20746865207a65726f20616464726573734d7573742062652063616c6c6564206174206d6f7374203330206d696e75746573206265666f72652065706f636820656e64732e45524332303a207472616e736665722066726f6d20746865207a65726f206164647265737345524332303a20617070726f76652066726f6d20746865207a65726f2061646472657373496e76616c6964206c6f636b2070657263656e746167652c20636865636b207468697320636f6e74726163742e5361666545524332303a204552433230206f7065726174696f6e20646964206e6f742073756363656564436f6e747261637447756172643a206f6e6520626c6f636b2c206f6e652066756e6374696f6e5361666545524332303a20617070726f76652066726f6d206e6f6e2d7a65726f20746f206e6f6e2d7a65726f20616c6c6f77616e6365496e69746961746f7220506172742031206e6f74207965742063616c6c6564206f722063616c6c656420746f6f20736f6f6e2e45524332303a2064656372656173656420616c6c6f77616e63652062656c6f77207a65726fa2646970667358221220c24f564af648a3b4d75618f3ee900b454470fc8e91a1565d5202e812d15528cf64736f6c634300060c0033",
  "linkReferences": {},
  "deployedLinkReferences": {}
}