{
  "_format": "hh-sol-artifact-1",
  "contractName": "Master",
  "sourceName": "contracts/Master.sol",
  "abi": [
    {
      "inputs": [
        {
          "internalType": "contract IERC20Lockable",
          "name": "_theory",
          "type": "address"
        },
        {
          "internalType": "contract IERC20Lockable",
          "name": "_game",
          "type": "address"
        },
        {
          "internalType": "contract ITheoretics",
          "name": "_theoretics",
          "type": "address"
        },
        {
          "internalType": "contract ITreasury",
          "name": "_treasury",
          "type": "address"
        }
      ],
      "stateMutability": "nonpayable",
      "type": "constructor"
    },
    {
      "anonymous": false,
      "inputs": [
        {
          "indexed": true,
          "internalType": "address",
          "name": "owner",
          "type": "address"
        },
        {
          "indexed": true,
          "internalType": "address",
          "name": "spender",
          "type": "address"
        },
        {
          "indexed": false,
          "internalType": "uint256",
          "name": "value",
          "type": "uint256"
        }
      ],
      "name": "Approval",
      "type": "event"
    },
    {
      "anonymous": false,
      "inputs": [
        {
          "indexed": true,
          "internalType": "address",
          "name": "user",
          "type": "address"
        },
        {
          "indexed": false,
          "internalType": "uint256",
          "name": "amountInTheory",
          "type": "uint256"
        },
        {
          "indexed": false,
          "internalType": "uint256",
          "name": "amountOutMaster",
          "type": "uint256"
        }
      ],
      "name": "Deposit",
      "type": "event"
    },
    {
      "anonymous": false,
      "inputs": [
        {
          "indexed": true,
          "internalType": "address",
          "name": "previousOwner",
          "type": "address"
        },
        {
          "indexed": true,
          "internalType": "address",
          "name": "newOwner",
          "type": "address"
        }
      ],
      "name": "OwnershipTransferred",
      "type": "event"
    },
    {
      "anonymous": false,
      "inputs": [
        {
          "indexed": true,
          "internalType": "address",
          "name": "user",
          "type": "address"
        },
        {
          "indexed": false,
          "internalType": "uint256",
          "name": "reward",
          "type": "uint256"
        },
        {
          "indexed": false,
          "internalType": "uint256",
          "name": "lockAmount",
          "type": "uint256"
        }
      ],
      "name": "RewardPaid",
      "type": "event"
    },
    {
      "anonymous": false,
      "inputs": [
        {
          "indexed": false,
          "internalType": "uint256",
          "name": "id",
          "type": "uint256"
        }
      ],
      "name": "Snapshot",
      "type": "event"
    },
    {
      "anonymous": false,
      "inputs": [
        {
          "indexed": true,
          "internalType": "address",
          "name": "from",
          "type": "address"
        },
        {
          "indexed": true,
          "internalType": "address",
          "name": "to",
          "type": "address"
        },
        {
          "indexed": false,
          "internalType": "uint256",
          "name": "value",
          "type": "uint256"
        }
      ],
      "name": "Transfer",
      "type": "event"
    },
    {
      "anonymous": false,
      "inputs": [
        {
          "indexed": true,
          "internalType": "address",
          "name": "user",
          "type": "address"
        },
        {
          "indexed": false,
          "internalType": "uint256",
          "name": "amountInMaster",
          "type": "uint256"
        },
        {
          "indexed": false,
          "internalType": "uint256",
          "name": "amountOutTheory",
          "type": "uint256"
        }
      ],
      "name": "Withdraw",
      "type": "event"
    },
    {
      "anonymous": false,
      "inputs": [
        {
          "indexed": true,
          "internalType": "address",
          "name": "user",
          "type": "address"
        },
        {
          "indexed": false,
          "internalType": "uint256",
          "name": "amountInMaster",
          "type": "uint256"
        },
        {
          "indexed": false,
          "internalType": "uint256",
          "name": "amountOutTheory",
          "type": "uint256"
        }
      ],
      "name": "WithdrawRequest",
      "type": "event"
    },
    {
      "inputs": [
        {
          "internalType": "address",
          "name": "_toAdd",
          "type": "address"
        }
      ],
      "name": "addAuthorized",
      "outputs": [],
      "stateMutability": "nonpayable",
      "type": "function"
    },
    {
      "inputs": [
        {
          "internalType": "address",
          "name": "owner",
          "type": "address"
        },
        {
          "internalType": "address",
          "name": "spender",
          "type": "address"
        }
      ],
      "name": "allowance",
      "outputs": [
        {
          "internalType": "uint256",
          "name": "",
          "type": "uint256"
        }
      ],
      "stateMutability": "view",
      "type": "function"
    },
    {
      "inputs": [
        {
          "internalType": "address",
          "name": "spender",
          "type": "address"
        },
        {
          "internalType": "uint256",
          "name": "amount",
          "type": "uint256"
        }
      ],
      "name": "approve",
      "outputs": [
        {
          "internalType": "bool",
          "name": "",
          "type": "bool"
        }
      ],
      "stateMutability": "nonpayable",
      "type": "function"
    },
    {
      "inputs": [
        {
          "internalType": "address",
          "name": "from",
          "type": "address"
        }
      ],
      "name": "approveTransferFrom",
      "outputs": [],
      "stateMutability": "nonpayable",
      "type": "function"
    },
    {
      "inputs": [
        {
          "internalType": "address",
          "name": "",
          "type": "address"
        }
      ],
      "name": "authorized",
      "outputs": [
        {
          "internalType": "bool",
          "name": "",
          "type": "bool"
        }
      ],
      "stateMutability": "view",
      "type": "function"
    },
    {
      "inputs": [
        {
          "internalType": "address",
          "name": "account",
          "type": "address"
        }
      ],
      "name": "balanceOf",
      "outputs": [
        {
          "internalType": "uint256",
          "name": "",
          "type": "uint256"
        }
      ],
      "stateMutability": "view",
      "type": "function"
    },
    {
      "inputs": [
        {
          "internalType": "address",
          "name": "account",
          "type": "address"
        },
        {
          "internalType": "uint256",
          "name": "snapshotId",
          "type": "uint256"
        }
      ],
      "name": "balanceOfAt",
      "outputs": [
        {
          "internalType": "uint256",
          "name": "",
          "type": "uint256"
        }
      ],
      "stateMutability": "view",
      "type": "function"
    },
    {
      "inputs": [
        {
          "internalType": "uint256",
          "name": "amountInTheory",
          "type": "uint256"
        },
        {
          "internalType": "uint256",
          "name": "lockTime",
          "type": "uint256"
        }
      ],
      "name": "buyFromTheory",
      "outputs": [],
      "stateMutability": "nonpayable",
      "type": "function"
    },
    {
      "inputs": [],
      "name": "claimGame",
      "outputs": [],
      "stateMutability": "nonpayable",
      "type": "function"
    },
    {
      "inputs": [],
      "name": "decimals",
      "outputs": [
        {
          "internalType": "uint8",
          "name": "",
          "type": "uint8"
        }
      ],
      "stateMutability": "view",
      "type": "function"
    },
    {
      "inputs": [
        {
          "internalType": "address",
          "name": "spender",
          "type": "address"
        },
        {
          "internalType": "uint256",
          "name": "subtractedValue",
          "type": "uint256"
        }
      ],
      "name": "decreaseAllowance",
      "outputs": [
        {
          "internalType": "bool",
          "name": "",
          "type": "bool"
        }
      ],
      "stateMutability": "nonpayable",
      "type": "function"
    },
    {
      "inputs": [
        {
          "internalType": "address",
          "name": "theorist",
          "type": "address"
        }
      ],
      "name": "earned",
      "outputs": [
        {
          "internalType": "uint256",
          "name": "",
          "type": "uint256"
        }
      ],
      "stateMutability": "view",
      "type": "function"
    },
    {
      "inputs": [],
      "name": "expectedClaimableGameThisEpoch",
      "outputs": [
        {
          "internalType": "uint256",
          "name": "",
          "type": "uint256"
        }
      ],
      "stateMutability": "view",
      "type": "function"
    },
    {
      "inputs": [],
      "name": "game",
      "outputs": [
        {
          "internalType": "contract IERC20Lockable",
          "name": "",
          "type": "address"
        }
      ],
      "stateMutability": "view",
      "type": "function"
    },
    {
      "inputs": [
        {
          "internalType": "address",
          "name": "theorist",
          "type": "address"
        }
      ],
      "name": "getLastSnapshotIndexOf",
      "outputs": [
        {
          "internalType": "uint256",
          "name": "",
          "type": "uint256"
        }
      ],
      "stateMutability": "view",
      "type": "function"
    },
    {
      "inputs": [
        {
          "internalType": "address",
          "name": "spender",
          "type": "address"
        },
        {
          "internalType": "uint256",
          "name": "addedValue",
          "type": "uint256"
        }
      ],
      "name": "increaseAllowance",
      "outputs": [
        {
          "internalType": "bool",
          "name": "",
          "type": "bool"
        }
      ],
      "stateMutability": "nonpayable",
      "type": "function"
    },
    {
      "inputs": [
        {
          "internalType": "bool",
          "name": "allowEmergency",
          "type": "bool"
        }
      ],
      "name": "initiatePart1",
      "outputs": [],
      "stateMutability": "nonpayable",
      "type": "function"
    },
    {
      "inputs": [],
      "name": "initiatePart2",
      "outputs": [],
      "stateMutability": "nonpayable",
      "type": "function"
    },
    {
      "inputs": [],
      "name": "lastInitiatePart1Block",
      "outputs": [
        {
          "internalType": "uint256",
          "name": "",
          "type": "uint256"
        }
      ],
      "stateMutability": "view",
      "type": "function"
    },
    {
      "inputs": [],
      "name": "lastInitiatePart1Epoch",
      "outputs": [
        {
          "internalType": "uint256",
          "name": "",
          "type": "uint256"
        }
      ],
      "stateMutability": "view",
      "type": "function"
    },
    {
      "inputs": [],
      "name": "lastInitiatePart2Block",
      "outputs": [
        {
          "internalType": "uint256",
          "name": "",
          "type": "uint256"
        }
      ],
      "stateMutability": "view",
      "type": "function"
    },
    {
      "inputs": [],
      "name": "lastInitiatePart2Epoch",
      "outputs": [
        {
          "internalType": "uint256",
          "name": "",
          "type": "uint256"
        }
      ],
      "stateMutability": "view",
      "type": "function"
    },
    {
      "inputs": [],
      "name": "latestSnapshotIndex",
      "outputs": [
        {
          "internalType": "uint256",
          "name": "",
          "type": "uint256"
        }
      ],
      "stateMutability": "view",
      "type": "function"
    },
    {
      "inputs": [
        {
          "internalType": "uint256",
          "name": "",
          "type": "uint256"
        }
      ],
      "name": "masterHistory",
      "outputs": [
        {
          "internalType": "uint256",
          "name": "time",
          "type": "uint256"
        },
        {
          "internalType": "uint256",
          "name": "rewardReceived",
          "type": "uint256"
        },
        {
          "internalType": "uint256",
          "name": "rewardPerShare",
          "type": "uint256"
        }
      ],
      "stateMutability": "view",
      "type": "function"
    },
    {
      "inputs": [
        {
          "internalType": "uint256",
          "name": "_share",
          "type": "uint256"
        }
      ],
      "name": "masterToTheory",
      "outputs": [
        {
          "internalType": "uint256",
          "name": "",
          "type": "uint256"
        }
      ],
      "stateMutability": "view",
      "type": "function"
    },
    {
      "inputs": [
        {
          "internalType": "uint256",
          "name": "_share",
          "type": "uint256"
        },
        {
          "internalType": "uint256",
          "name": "totalGovernanceToken",
          "type": "uint256"
        },
        {
          "internalType": "uint256",
          "name": "totalShares",
          "type": "uint256"
        }
      ],
      "name": "masterToTheoryOwed",
      "outputs": [
        {
          "internalType": "uint256",
          "name": "",
          "type": "uint256"
        }
      ],
      "stateMutability": "view",
      "type": "function"
    },
    {
      "inputs": [],
      "name": "minLockTime",
      "outputs": [
        {
          "internalType": "uint256",
          "name": "",
          "type": "uint256"
        }
      ],
      "stateMutability": "view",
      "type": "function"
    },
    {
      "inputs": [],
      "name": "name",
      "outputs": [
        {
          "internalType": "string",
          "name": "",
          "type": "string"
        }
      ],
      "stateMutability": "view",
      "type": "function"
    },
    {
      "inputs": [],
      "name": "owner",
      "outputs": [
        {
          "internalType": "address",
          "name": "",
          "type": "address"
        }
      ],
      "stateMutability": "view",
      "type": "function"
    },
    {
      "inputs": [
        {
          "internalType": "address",
          "name": "_toRemove",
          "type": "address"
        }
      ],
      "name": "removeAuthorized",
      "outputs": [],
      "stateMutability": "nonpayable",
      "type": "function"
    },
    {
      "inputs": [],
      "name": "renounceOwnership",
      "outputs": [],
      "stateMutability": "nonpayable",
      "type": "function"
    },
    {
      "inputs": [
        {
          "internalType": "uint256",
          "name": "amountInMaster",
          "type": "uint256"
        },
        {
          "internalType": "bool",
          "name": "allowEmergency",
          "type": "bool"
        }
      ],
      "name": "requestSellToTheory",
      "outputs": [],
      "stateMutability": "nonpayable",
      "type": "function"
    },
    {
      "inputs": [],
      "name": "sellToTheory",
      "outputs": [],
      "stateMutability": "nonpayable",
      "type": "function"
    },
    {
      "inputs": [
        {
          "internalType": "uint256",
          "name": "lockTime",
          "type": "uint256"
        },
        {
          "internalType": "uint256",
          "name": "penalty",
          "type": "uint256"
        }
      ],
      "name": "setTimes",
      "outputs": [],
      "stateMutability": "nonpayable",
      "type": "function"
    },
    {
      "inputs": [
        {
          "internalType": "uint256",
          "name": "amount",
          "type": "uint256"
        }
      ],
      "name": "stakeExternalTheory",
      "outputs": [],
      "stateMutability": "nonpayable",
      "type": "function"
    },
    {
      "inputs": [],
      "name": "symbol",
      "outputs": [
        {
          "internalType": "string",
          "name": "",
          "type": "string"
        }
      ],
      "stateMutability": "view",
      "type": "function"
    },
    {
      "inputs": [],
      "name": "theoretics",
      "outputs": [
        {
          "internalType": "contract ITheoretics",
          "name": "",
          "type": "address"
        }
      ],
      "stateMutability": "view",
      "type": "function"
    },
    {
      "inputs": [],
      "name": "theory",
      "outputs": [
        {
          "internalType": "contract IERC20Lockable",
          "name": "",
          "type": "address"
        }
      ],
      "stateMutability": "view",
      "type": "function"
    },
    {
      "inputs": [
        {
          "internalType": "uint256",
          "name": "_amount",
          "type": "uint256"
        }
      ],
      "name": "theoryToMaster",
      "outputs": [
        {
          "internalType": "uint256",
          "name": "",
          "type": "uint256"
        }
      ],
      "stateMutability": "view",
      "type": "function"
    },
    {
      "inputs": [
        {
          "internalType": "uint256",
          "name": "_amount",
          "type": "uint256"
        },
        {
          "internalType": "uint256",
          "name": "totalGovernanceToken",
          "type": "uint256"
        },
        {
          "internalType": "uint256",
          "name": "totalShares",
          "type": "uint256"
        }
      ],
      "name": "theoryToMasterOwed",
      "outputs": [
        {
          "internalType": "uint256",
          "name": "",
          "type": "uint256"
        }
      ],
      "stateMutability": "view",
      "type": "function"
    },
    {
      "inputs": [],
      "name": "totalStakeRequestedInTheory",
      "outputs": [
        {
          "internalType": "uint256",
          "name": "",
          "type": "uint256"
        }
      ],
      "stateMutability": "view",
      "type": "function"
    },
    {
      "inputs": [],
      "name": "totalSupply",
      "outputs": [
        {
          "internalType": "uint256",
          "name": "",
          "type": "uint256"
        }
      ],
      "stateMutability": "view",
      "type": "function"
    },
    {
      "inputs": [
        {
          "internalType": "uint256",
          "name": "snapshotId",
          "type": "uint256"
        }
      ],
      "name": "totalSupplyAt",
      "outputs": [
        {
          "internalType": "uint256",
          "name": "",
          "type": "uint256"
        }
      ],
      "stateMutability": "view",
      "type": "function"
    },
    {
      "inputs": [],
      "name": "totalWithdrawRequestedInMaster",
      "outputs": [
        {
          "internalType": "uint256",
          "name": "",
          "type": "uint256"
        }
      ],
      "stateMutability": "view",
      "type": "function"
    },
    {
      "inputs": [],
      "name": "totalWithdrawRequestedInTheory",
      "outputs": [
        {
          "internalType": "uint256",
          "name": "",
          "type": "uint256"
        }
      ],
      "stateMutability": "view",
      "type": "function"
    },
    {
      "inputs": [],
      "name": "totalWithdrawUnclaimedInTheory",
      "outputs": [
        {
          "internalType": "uint256",
          "name": "",
          "type": "uint256"
        }
      ],
      "stateMutability": "view",
      "type": "function"
    },
    {
      "inputs": [
        {
          "internalType": "address",
          "name": "recipient",
          "type": "address"
        },
        {
          "internalType": "uint256",
          "name": "amount",
          "type": "uint256"
        }
      ],
      "name": "transfer",
      "outputs": [
        {
          "internalType": "bool",
          "name": "",
          "type": "bool"
        }
      ],
      "stateMutability": "nonpayable",
      "type": "function"
    },
    {
      "inputs": [
        {
          "internalType": "address",
          "name": "sender",
          "type": "address"
        },
        {
          "internalType": "address",
          "name": "recipient",
          "type": "address"
        },
        {
          "internalType": "uint256",
          "name": "amount",
          "type": "uint256"
        }
      ],
      "name": "transferFrom",
      "outputs": [
        {
          "internalType": "bool",
          "name": "",
          "type": "bool"
        }
      ],
      "stateMutability": "nonpayable",
      "type": "function"
    },
    {
      "inputs": [
        {
          "internalType": "address",
          "name": "newOwner",
          "type": "address"
        }
      ],
      "name": "transferOwnership",
      "outputs": [],
      "stateMutability": "nonpayable",
      "type": "function"
    },
    {
      "inputs": [
        {
          "internalType": "contract IERC20",
          "name": "_token",
          "type": "address"
        },
        {
          "internalType": "address",
          "name": "to",
          "type": "address"
        },
        {
          "internalType": "uint256",
          "name": "amount",
          "type": "uint256"
        }
      ],
      "name": "transferToken",
      "outputs": [],
      "stateMutability": "nonpayable",
      "type": "function"
    },
    {
      "inputs": [],
      "name": "treasury",
      "outputs": [
        {
          "internalType": "contract ITreasury",
          "name": "",
          "type": "address"
        }
      ],
      "stateMutability": "view",
      "type": "function"
    },
    {
      "inputs": [],
      "name": "unlockedClaimPenalty",
      "outputs": [
        {
          "internalType": "uint256",
          "name": "",
          "type": "uint256"
        }
      ],
      "stateMutability": "view",
      "type": "function"
    },
    {
      "inputs": [
        {
          "internalType": "address",
          "name": "",
          "type": "address"
        }
      ],
      "name": "userInfo",
      "outputs": [
        {
          "internalType": "uint256",
          "name": "lockToTime",
          "type": "uint256"
        },
        {
          "internalType": "uint256",
          "name": "chosenLockTime",
          "type": "uint256"
        },
        {
          "internalType": "address",
          "name": "approveTransferFrom",
          "type": "address"
        },
        {
          "internalType": "uint256",
          "name": "lastSnapshotIndex",
          "type": "uint256"
        },
        {
          "internalType": "uint256",
          "name": "rewardEarned",
          "type": "uint256"
        },
        {
          "internalType": "uint256",
          "name": "withdrawRequestedInMaster",
          "type": "uint256"
        },
        {
          "internalType": "uint256",
          "name": "withdrawRequestedInTheory",
          "type": "uint256"
        },
        {
          "internalType": "uint256",
          "name": "lastStakeRequestBlock",
          "type": "uint256"
        },
        {
          "internalType": "uint256",
          "name": "lastWithdrawRequestBlock",
          "type": "uint256"
        }
      ],
      "stateMutability": "view",
      "type": "function"
    }
  ],
  "bytecode": "0x60806040523480156200001157600080fd5b5060405162005c9938038062005c99833981810160405260808110156200003757600080fd5b50805160208083015160408085015160609095015181518083018352600c81526b26b0b9ba32b9102a37b5b2b760a11b8186019081528351808501909452600684526526a0a9aa22a960d11b9584019590955280519596939593949193909291620000a6916003919062000239565b508051620000bc90600490602084019062000239565b50506005805460ff19166012179055506000620000d862000235565b600a80546001600160a01b0319166001600160a01b038316908117909155604051919250906000907f8be0079c531659141344cd1fd0a4f28419497f9722a3daafe3b4186f6b6457e0908290a350600e80546001600160a01b038087166001600160a01b031992831617909255600f80548684169083161790556010805485841690831617905560118054928416929091169190911790556301e1338060125562278d0060135562000189620002be565b505060408051606081018252438152600060208201818152928201818152601c8054600181018255925291517f0e4562a10381dec21b205ed72637e6b1b523bdd0e4d4d50af5cd23dd4500a21160039092029182015591517f0e4562a10381dec21b205ed72637e6b1b523bdd0e4d4d50af5cd23dd4500a212830155517f0e4562a10381dec21b205ed72637e6b1b523bdd0e4d4d50af5cd23dd4500a2139091015550620002f6915050565b3390565b828054600181600116156101000203166002900490600052602060002090601f016020900481019282601f106200027c57805160ff1916838001178555620002ac565b82800160010185558215620002ac579182015b82811115620002ac5782518255916020019190600101906200028f565b50620002ba929150620002df565b5090565b60405180606001604052806000815260200160008152602001600081525090565b5b80821115620002ba5760008155600101620002e0565b61599380620003066000396000f3fe608060405234801561001057600080fd5b50600436106103265760003560e01c8063714b4658116101b8578063aeadf88f11610104578063dd62ed3e116100a2578063f2fde38b1161007c578063f2fde38b146108db578063f5537ede14610901578063f894dd2114610937578063fdb781c81461096057610326565b8063dd62ed3e14610849578063e4d2c45e14610877578063f0e0d9f6146108a057610326565b8063c3fe3e28116100de578063c3fe3e28146107db578063c4e69329146107e3578063c7b728de14610806578063cf1c316a1461082357610326565b8063aeadf88f14610788578063b9181611146107ad578063c0da778e146107d357610326565b806397b98e4a11610171578063a60ff7661161014b578063a60ff7661461072f578063a9059cbb14610737578063ab9fb43814610763578063ad45e4ae1461078057610326565b806397b98e4a146106de578063981b24d0146106e6578063a457c2d71461070357610326565b8063714b465814610690578063715018a6146106b657806377011c5f146106be5780638da5cb5b146106c65780638ef71a4b146106ce57806395d89b41146106d657610326565b8063313ce56711610277578063485d7d94116102305780635358a2af1161020a5780635358a2af146106525780635936e8bd1461065a57806361d027b31461066257806370a082311461066a57610326565b8063485d7d94146105e15780634e0e7e33146106075780634ee2cd7e1461062657610326565b8063313ce5671461053d57806336cea11b1461055b57806339509351146105815780633c32a450146105ad5780633f9e3f04146105d1578063429f657f146105d957610326565b80631959a002116102e457806323b872dd116102be57806323b872dd146104ef57806323da7499146105255780632558d4f81461052d578063294f08b11461053557610326565b80631959a0021461044f5780631d7553aa146104c457806322434836146104cc57610326565b80628cc2621461032b57806303da6fa51461036357806306fdde031461036b578063095ea7b3146103e857806318160ddd1461042857806318bb939a14610430575b600080fd5b6103516004803603602081101561034157600080fd5b50356001600160a01b0316610968565b60408051918252519081900360200190f35b6103516109eb565b6103736109f1565b6040805160208082528351818301528351919283929083019185019080838360005b838110156103ad578181015183820152602001610395565b50505050905090810190601f1680156103da5780820380516001836020036101000a031916815260200191505b509250505060405180910390f35b610414600480360360408110156103fe57600080fd5b506001600160a01b038135169060200135610a87565b604080519115158252519081900360200190f35b610351610aa5565b61044d6004803603602081101561044657600080fd5b5035610aab565b005b6104756004803603602081101561046557600080fd5b50356001600160a01b0316610e90565b60408051998a5260208a01989098526001600160a01b03909616888801526060880194909452608087019290925260a086015260c085015260e084015261010083015251908190036101200190f35b610351610ee5565b61044d600480360360408110156104e257600080fd5b5080359060200135610eeb565b6104146004803603606081101561050557600080fd5b506001600160a01b03813581169160208101359091169060400135611007565b61035161108f565b610351611095565b61035161109b565b6105456110a1565b6040805160ff9092168252519081900360200190f35b61044d6004803603602081101561057157600080fd5b50356001600160a01b03166110aa565b6104146004803603604081101561059757600080fd5b506001600160a01b0381351690602001356110dc565b6105b561112a565b604080516001600160a01b039092168252519081900360200190f35b610351611139565b61035161114f565b61044d600480360360208110156105f757600080fd5b50356001600160a01b031661132b565b61044d6004803603602081101561061d57600080fd5b503515156113c4565b6103516004803603604081101561063c57600080fd5b506001600160a01b038135169060200135611455565b61035161149e565b61044d6114a4565b6105b561171f565b6103516004803603602081101561068057600080fd5b50356001600160a01b031661172e565b610351600480360360208110156106a657600080fd5b50356001600160a01b0316611749565b61044d611767565b610351611813565b6105b5611819565b610351611828565b61037361182e565b61044d61188f565b610351600480360360208110156106fc57600080fd5b5035611e98565b6104146004803603604081101561071957600080fd5b506001600160a01b038135169060200135611ebe565b610351611f26565b6104146004803603604081101561074d57600080fd5b506001600160a01b038135169060200135611f2c565b6103516004803603602081101561077957600080fd5b5035611f40565b6105b5612002565b61044d6004803603604081101561079e57600080fd5b50803590602001351515612011565b610414600480360360208110156107c357600080fd5b50356001600160a01b03166124dd565b6103516124f2565b6105b56124f8565b61044d600480360360408110156107f957600080fd5b5080359060200135612507565b6103516004803603602081101561081c57600080fd5b5035612aa7565b61044d6004803603602081101561083957600080fd5b50356001600160a01b0316612b37565b6103516004803603604081101561085f57600080fd5b506001600160a01b0381358116916020013516612bbd565b6103516004803603606081101561088d57600080fd5b5080359060208101359060400135612be8565b6108bd600480360360208110156108b657600080fd5b5035612c11565b60408051938452602084019290925282820152519081900360600190f35b61044d600480360360208110156108f157600080fd5b50356001600160a01b0316612c41565b61044d6004803603606081101561091757600080fd5b506001600160a01b03813581169160208101359091169060400135612d44565b6103516004803603606081101561094d57600080fd5b5080359060208101359060400135612f4d565b61044d612f76565b6000806109736131ee565b604001519050600061098484613246565b6040908101516001600160a01b0386166000908152600d60205291909120600401549091506109e1906109db670de0b6b3a76400006109d56109c687876132a1565b6109cf8a61172e565b906132fe565b90613357565b906133be565b925050505b919050565b60195481565b60038054604080516020601f6002600019610100600188161502019095169490940493840181900481028201810190925282815260609390929091830182828015610a7d5780601f10610a5257610100808354040283529160200191610a7d565b820191906000526020600020905b815481529060010190602001808311610a6057829003601f168201915b5050505050905090565b6000610a9b610a94613418565b848461341c565b5060015b92915050565b60025490565b336000908152600b602052604090205460ff1680610ad8575033610acd611819565b6001600160a01b0316145b610b24576040805162461bcd60e51b815260206004820152601860248201527718d85b1b195c881a5cc81b9bdd08185d5d1a1bdc9a5e995960421b604482015290519081900360640190fd5b610b2c613508565b15610b685760405162461bcd60e51b81526004018080602001828103825260268152602001806158aa6026913960400191505060405180910390fd5b610b70613529565b15610bac5760405162461bcd60e51b81526004018080602001828103825260268152602001806158aa6026913960400191505060405180910390fd5b610c43610bc66017546014546133be90919063ffffffff16565b600e54604080516370a0823160e01b815230600482015290516001600160a01b03909216916370a0823191602480820192602092909190829003018186803b158015610c1157600080fd5b505afa158015610c25573d6000803e3d6000fd5b505050506040513d6020811015610c3b57600080fd5b5051906132a1565b811115610c97576040805162461bcd60e51b815260206004820152601b60248201527f43616e6e6f74207374616b652070656e64696e672066756e64732e0000000000604482015290519081900360640190fd5b601060009054906101000a90046001600160a01b03166001600160a01b031663900cf0cf6040518163ffffffff1660e01b815260040160206040518083038186803b158015610ce557600080fd5b505afa158015610cf9573d6000803e3d6000fd5b505050506040513d6020811015610d0f57600080fd5b50516019541480610d975750601060009054906101000a90046001600160a01b03166001600160a01b03166313f24daf6040518163ffffffff1660e01b815260040160206040518083038186803b158015610d6957600080fd5b505afa158015610d7d573d6000803e3d6000fd5b505050506040513d6020811015610d9357600080fd5b5051155b15610e4157601054600e54610dba916001600160a01b039182169116600061354a565b601054600e54610dd7916001600160a01b0391821691168361354a565b6010546040805163534a7e1d60e11b81526004810184905290516001600160a01b039092169163a694fc3a9160248082019260009290919082900301818387803b158015610e2457600080fd5b505af1158015610e38573d6000803e3d6000fd5b50505050610e52565b601454610e4e90826133be565b6014555b50436000908152600c602090815260408083203284529091528082208054600160ff1991821681179092553384529190922080549091169091179055565b600d60205260009081526040902080546001820154600283015460038401546004850154600586015460068701546007880154600890980154969795966001600160a01b039095169593949293919290919089565b601b5481565b336000908152600b602052604090205460ff1680610f18575033610f0d611819565b6001600160a01b0316145b610f64576040805162461bcd60e51b815260206004820152601860248201527718d85b1b195c881a5cc81b9bdd08185d5d1a1bdc9a5e995960421b604482015290519081900360640190fd5b6303c26700821115610fb3576040805162461bcd60e51b81526020600482015260136024820152722637b1b5903a34b6b2903a37b7903434b3b41760691b604482015290519081900360640190fd5b81811115610ffc576040805162461bcd60e51b81526020600482015260116024820152702832b730b63a3c903a37b7903434b3b41760791b604482015290519081900360640190fd5b601291909155601355565b6000611014848484613662565b61108484611020613418565b61107f8560405180606001604052806028815260200161576d602891396001600160a01b038a1660009081526001602052604081209061105e613418565b6001600160a01b0316815260208101919091526040016000205491906138a2565b61341c565b5060015b9392505050565b60175481565b60155481565b60145481565b60055460ff1690565b336000908152600d6020526040902060020180546001600160a01b0319166001600160a01b0392909216919091179055565b6000610a9b6110e9613418565b8461107f85600160006110fa613418565b6001600160a01b03908116825260208083019390935260409182016000908120918c1681529252902054906133be565b600e546001600160a01b031681565b601c5460009061114a9060016132a1565b905090565b600080601060009054906101000a90046001600160a01b03166001600160a01b031663d518f2436040518163ffffffff1660e01b815260040160606040518083038186803b1580156111a057600080fd5b505afa1580156111b4573d6000803e3d6000fd5b505050506040513d60608110156111ca57600080fd5b506040908101516010548251630fe78fc160e21b815292519193506000926001600160a01b039091169163085f070c91611229916001918591633f9e3f0491600480820192602092909190829003018186803b158015610c1157600080fd5b6040518263ffffffff1660e01b81526004018082815260200191505060606040518083038186803b15801561125d57600080fd5b505afa158015611271573d6000803e3d6000fd5b505050506040513d606081101561128757600080fd5b50604001519050611324670de0b6b3a76400006109d56112a785856132a1565b601054604080516370a0823160e01b815230600482015290516001600160a01b03909216916370a0823191602480820192602092909190829003018186803b1580156112f257600080fd5b505afa158015611306573d6000803e3d6000fd5b505050506040513d602081101561131c57600080fd5b5051906132fe565b9250505090565b611333613418565b6001600160a01b0316611344611819565b6001600160a01b03161461138d576040805162461bcd60e51b81526020600482018190526024820152600080516020615795833981519152604482015290519081900360640190fd5b6001600160a01b0381163314156113a357600080fd5b6001600160a01b03166000908152600b60205260409020805460ff19169055565b6113cc613508565b156114085760405162461bcd60e51b81526004018080602001828103825260268152602001806158aa6026913960400191505060405180910390fd5b611410613529565b1561144c5760405162461bcd60e51b81526004018080602001828103825260268152602001806158aa6026913960400191505060405180910390fd5b610e5281613939565b6001600160a01b03821660009081526006602052604081208190819061147c90859061454c565b91509150816114935761148e8561172e565b611495565b805b95945050505050565b60135481565b6114ac613508565b156114e85760405162461bcd60e51b81526004018080602001828103825260268152602001806158aa6026913960400191505060405180910390fd5b6114f0613529565b1561152c5760405162461bcd60e51b81526004018080602001828103825260268152602001806158aa6026913960400191505060405180910390fd5b33801561165f5761153b615522565b506001600160a01b038082166000908152600d6020908152604091829020825161012081018452815481526001820154928101929092526002810154909316918101919091526003820154606082015260048201546080820152600582015460a0820152600682015460c0820152600782015460e08201526008909101546101008201526115c882610968565b60808201526115d5611139565b606082019081526001600160a01b038381166000908152600d602090815260409182902085518155908501516001820155908401516002820180546001600160a01b0319169190931617909155905160038201556080820151600482015560a0820151600582015560c0820151600682015560e08201516007820155610100909101516008909101555b600061166a33610968565b116116b0576040805162461bcd60e51b815260206004820152601160248201527027379023a0a6a2903a379031b630b4b69760791b604482015290519081900360640190fd5b336000908152600d60205260409020805442106116d8576013546116d59042906133be565b81555b6116e0614649565b5050436000908152600c602090815260408083203284529091528082208054600160ff1991821681179092553384529190922080549091169091179055565b6011546001600160a01b031681565b6001600160a01b031660009081526020819052604090205490565b6001600160a01b03166000908152600d602052604090206003015490565b61176f613418565b6001600160a01b0316611780611819565b6001600160a01b0316146117c9576040805162461bcd60e51b81526020600482018190526024820152600080516020615795833981519152604482015290519081900360640190fd5b600a546040516000916001600160a01b0316907f8be0079c531659141344cd1fd0a4f28419497f9722a3daafe3b4186f6b6457e0908390a3600a80546001600160a01b0319169055565b60185481565b600a546001600160a01b031690565b60165481565b60048054604080516020601f6002600019610100600188161502019095169490940493840181900481028201810190925282815260609390929091830182828015610a7d5780601f10610a5257610100808354040283529160200191610a7d565b611897613508565b156118d35760405162461bcd60e51b81526004018080602001828103825260268152602001806158aa6026913960400191505060405180910390fd5b6118db613529565b156119175760405162461bcd60e51b81526004018080602001828103825260268152602001806158aa6026913960400191505060405180910390fd5b601054604080516313f24daf60e01b815290516000926001600160a01b0316916313f24daf916004808301926020929190829003018186803b15801561195c57600080fd5b505afa158015611970573d6000803e3d6000fd5b505050506040513d602081101561198657600080fd5b50519050801580611a185750611a1681601060009054906101000a90046001600160a01b03166001600160a01b031663900cf0cf6040518163ffffffff1660e01b815260040160206040518083038186803b1580156119e457600080fd5b505afa1580156119f8573d6000803e3d6000fd5b505050506040513d6020811015611a0e57600080fd5b505190614810565b155b611a69576040805162461bcd60e51b815260206004820152601e60248201527f4d7573742063616c6c20617420612077697468647261772065706f63682e0000604482015290519081900360640190fd5b801580611aee5750601060009054906101000a90046001600160a01b03166001600160a01b031663c5967c266040518163ffffffff1660e01b815260040160206040518083038186803b158015611abf57600080fd5b505afa158015611ad3573d6000803e3d6000fd5b505050506040513d6020811015611ae957600080fd5b505142115b80611b4c5750610708611b4942601060009054906101000a90046001600160a01b03166001600160a01b031663c5967c266040518163ffffffff1660e01b815260040160206040518083038186803b158015610c1157600080fd5b11155b611b875760405162461bcd60e51b81526004018080602001828103825260348152602001806157d66034913960400191505060405180910390fd5b801580611c0f5750601060009054906101000a90046001600160a01b03166001600160a01b031663900cf0cf6040518163ffffffff1660e01b815260040160206040518083038186803b158015611bdd57600080fd5b505afa158015611bf1573d6000803e3d6000fd5b505050506040513d6020811015611c0757600080fd5b505160195414155b611c52576040805162461bcd60e51b815260206004820152600f60248201526e20b63932b0b23c9031b0b63632b21760891b604482015290519081900360640190fd5b801580611cd95750601060009054906101000a90046001600160a01b03166001600160a01b031663900cf0cf6040518163ffffffff1660e01b815260040160206040518083038186803b158015611ca857600080fd5b505afa158015611cbc573d6000803e3d6000fd5b505050506040513d6020811015611cd257600080fd5b5051601854145b611d23576040805162461bcd60e51b815260206004820152601660248201527524b734ba34b0ba32903830b93a1018903334b939ba1760511b604482015290519081900360640190fd5b60145415611dd857601054600e54611d49916001600160a01b039182169116600061354a565b601054601454600e54611d6a926001600160a01b039182169291169061354a565b6010546014546040805163534a7e1d60e11b81526004810192909252516001600160a01b039092169163a694fc3a9160248082019260009290919082900301818387803b158015611dba57600080fd5b505af1158015611dce573d6000803e3d6000fd5b5050600060145550505b601060009054906101000a90046001600160a01b03166001600160a01b031663900cf0cf6040518163ffffffff1660e01b815260040160206040518083038186803b158015611e2657600080fd5b505afa158015611e3a573d6000803e3d6000fd5b505050506040513d6020811015611e5057600080fd5b50516019555043601b8190556000908152600c602090815260408083203284529091528082208054600160ff1991821681179092553384529190922080549091169091179055565b6000806000611ea884600761454c565b915091508161108857611eb9610aa5565b6109e1565b6000610a9b611ecb613418565b8461107f856040518060600160405280602581526020016159396025913960016000611ef5613418565b6001600160a01b03908116825260208083019390935260409182016000908120918d168152925290205491906138a2565b60125481565b6000610a9b611f39613418565b8484613662565b601454601054604080516370a0823160e01b815230600482015290516000938493611fca9391926001600160a01b03909116916370a08231916024808301926020929190829003018186803b158015611f9857600080fd5b505afa158015611fac573d6000803e3d6000fd5b505050506040513d6020811015611fc257600080fd5b5051906133be565b90506000611fd6610aa5565b9050801580611fe3575081155b15611ff25783925050506109e6565b6000611495836109d587856132fe565b6010546001600160a01b031681565b612019613508565b156120555760405162461bcd60e51b81526004018080602001828103825260268152602001806158aa6026913960400191505060405180910390fd5b61205d613529565b156120995760405162461bcd60e51b81526004018080602001828103825260268152602001806158aa6026913960400191505060405180910390fd5b3380156121cc576120a8615522565b506001600160a01b038082166000908152600d6020908152604091829020825161012081018452815481526001820154928101929092526002810154909316918101919091526003820154606082015260048201546080820152600582015460a0820152600682015460c0820152600782015460e082015260089091015461010082015261213582610968565b6080820152612142611139565b606082019081526001600160a01b038381166000908152600d602090815260409182902085518155908501516001820155908401516002820180546001600160a01b0319169190931617909155905160038201556080820151600482015560a0820151600582015560c0820151600682015560e08201516007820155610100909101516008909101555b336000908152600d602052604090208054421015612221576040805162461bcd60e51b815260206004820152600d60248201526c5374696c6c206c6f636b65642160981b604482015290519081900360640190fd5b60008411612270576040805162461bcd60e51b81526020600482015260176024820152762737903d32b9379030b6b7bab73a1030b63637bbb2b21760491b604482015290519081900360640190fd5b601060009054906101000a90046001600160a01b03166001600160a01b03166313f24daf6040518163ffffffff1660e01b815260040160206040518083038186803b1580156122be57600080fd5b505afa1580156122d2573d6000803e3d6000fd5b505050506040513d60208110156122e857600080fd5b505115806122f857506007810154155b8061230857508060070154601b54115b6123435760405162461bcd60e51b81526004018080602001828103825260258152602001806156e46025913960400191505060405180910390fd5b61234c3361172e565b84141561235b5761235b614649565b612366333086613662565b600581015461237590856133be565b600582015560165461238790856133be565b601655600061239585612aa7565b60068301549091506123a790826133be565b60068301556015546123b990826133be565b6015556017546123c990826133be565b6017554360088301556040805186815260208101839052815133927fcbc7c7858f9ab8ce22517d4b910042540172c3d579222cf6716e222f341ca371928290030190a2601060009054906101000a90046001600160a01b03166001600160a01b03166313f24daf6040518163ffffffff1660e01b815260040160206040518083038186803b15801561245a57600080fd5b505afa15801561246e573d6000803e3d6000fd5b505050506040513d602081101561248457600080fd5b505161249b5761249384613939565b61249b614877565b5050436000908152600c602090815260408083203284529091528082208054600160ff1991821681179092553384529190922080549091169091179055505050565b600b6020526000908152604090205460ff1681565b601a5481565b600f546001600160a01b031681565b61250f613508565b1561254b5760405162461bcd60e51b81526004018080602001828103825260268152602001806158aa6026913960400191505060405180910390fd5b612553613529565b1561258f5760405162461bcd60e51b81526004018080602001828103825260268152602001806158aa6026913960400191505060405180910390fd5b3380156126c25761259e615522565b506001600160a01b038082166000908152600d6020908152604091829020825161012081018452815481526001820154928101929092526002810154909316918101919091526003820154606082015260048201546080820152600582015460a0820152600682015460c0820152600782015460e082015260089091015461010082015261262b82610968565b6080820152612638611139565b606082019081526001600160a01b038381166000908152600d602090815260409182902085518155908501516001820155908401516002820180546001600160a01b0319169190931617909155905160038201556080820151600482015560a0820151600582015560c0820151600682015560e08201516007820155610100909101516008909101555b60008311612711576040805162461bcd60e51b81526020600482015260176024820152762737903d32b9379030b6b7bab73a1030b63637bbb2b21760491b604482015290519081900360640190fd5b336000908152600d6020526040902060058101541580156127c55750601060009054906101000a90046001600160a01b03166001600160a01b03166313f24daf6040518163ffffffff1660e01b815260040160206040518083038186803b15801561277b57600080fd5b505afa15801561278f573d6000803e3d6000fd5b505050506040513d60208110156127a557600080fd5b505115806127b557506008810154155b806127c557508060080154601a54115b6128005760405162461bcd60e51b815260040180806020018281038252602581526020018061566e6025913960400191505060405180910390fd5b6012548310156128105760125492505b600061281c42856133be565b600183018590558254909150811115612839576128393382614a1b565b600061284486611f40565b600e5490915061285f906001600160a01b0316333089614a37565b6128693382614a97565b601060009054906101000a90046001600160a01b03166001600160a01b031663900cf0cf6040518163ffffffff1660e01b815260040160206040518083038186803b1580156128b757600080fd5b505afa1580156128cb573d6000803e3d6000fd5b505050506040513d60208110156128e157600080fd5b505160195414806129695750601060009054906101000a90046001600160a01b03166001600160a01b03166313f24daf6040518163ffffffff1660e01b815260040160206040518083038186803b15801561293b57600080fd5b505afa15801561294f573d6000803e3d6000fd5b505050506040513d602081101561296557600080fd5b5051155b15612a1357601054600e5461298c916001600160a01b039182169116600061354a565b601054600e546129a9916001600160a01b0391821691168861354a565b6010546040805163534a7e1d60e11b81526004810189905290516001600160a01b039092169163a694fc3a9160248082019260009290919082900301818387803b1580156129f657600080fd5b505af1158015612a0a573d6000803e3d6000fd5b50505050612a24565b601454612a2090876133be565b6014555b4360078401556040805187815260208101839052815133927f90890809c654f11d6e72a28fa60149770a0d11ec6c92319d6ceb2bb0a4ea1a15928290030190a25050436000908152600c602090815260408083203284529091528082208054600160ff199182168117909255338452919092208054909116909117905550505050565b601454601054604080516370a0823160e01b815230600482015290516000938493612aff9391926001600160a01b03909116916370a08231916024808301926020929190829003018186803b158015611f9857600080fd5b90506000612b0b610aa5565b9050801580612b18575081155b15612b275783925050506109e6565b6000611495826109d587866132fe565b612b3f613418565b6001600160a01b0316612b50611819565b6001600160a01b031614612b99576040805162461bcd60e51b81526020600482018190526024820152600080516020615795833981519152604482015290519081900360640190fd5b6001600160a01b03166000908152600b60205260409020805460ff19166001179055565b6001600160a01b03918216600090815260016020908152604080832093909416825291909152205490565b6000811580612bf5575082155b15612c01575082611088565b6000611495836109d587876132fe565b601c8181548110612c1e57fe5b600091825260209091206003909102018054600182015460029092015490925083565b612c49613418565b6001600160a01b0316612c5a611819565b6001600160a01b031614612ca3576040805162461bcd60e51b81526020600482018190526024820152600080516020615795833981519152604482015290519081900360640190fd5b6001600160a01b038116612ce85760405162461bcd60e51b81526004018080602001828103825260268152602001806155de6026913960400191505060405180910390fd5b600a546040516001600160a01b038084169216907f8be0079c531659141344cd1fd0a4f28419497f9722a3daafe3b4186f6b6457e090600090a3600a80546001600160a01b0319166001600160a01b0392909216919091179055565b336000908152600b602052604090205460ff1680612d71575033612d66611819565b6001600160a01b0316145b612dbd576040805162461bcd60e51b815260206004820152601860248201527718d85b1b195c881a5cc81b9bdd08185d5d1a1bdc9a5e995960421b604482015290519081900360640190fd5b612dc5613508565b15612e015760405162461bcd60e51b81526004018080602001828103825260268152602001806158aa6026913960400191505060405180910390fd5b612e09613529565b15612e455760405162461bcd60e51b81526004018080602001828103825260268152602001806158aa6026913960400191505060405180910390fd5b6001600160a01b03831630141580612e715750612e6d601654612e673061172e565b906132a1565b8111155b612eac5760405162461bcd60e51b815260040180806020018281038252602b8152602001806156b9602b913960400191505060405180910390fd5b600e546001600160a01b0384811691161415612ef95760405162461bcd60e51b81526004018080602001828103825260228152602001806156266022913960400191505060405180910390fd5b612f0d6001600160a01b0384168383614b87565b5050436000908152600c602090815260408083203284529091528082208054600160ff199182168117909255338452919092208054909116909117905550565b6000811580612f5a575082155b15612f66575082611088565b6000611495846109d587866132fe565b612f7e613508565b15612fba5760405162461bcd60e51b81526004018080602001828103825260268152602001806158aa6026913960400191505060405180910390fd5b612fc2613529565b15612ffe5760405162461bcd60e51b81526004018080602001828103825260268152602001806158aa6026913960400191505060405180910390fd5b3380156131315761300d615522565b506001600160a01b038082166000908152600d6020908152604091829020825161012081018452815481526001820154928101929092526002810154909316918101919091526003820154606082015260048201546080820152600582015460a0820152600682015460c0820152600782015460e082015260089091015461010082015261309a82610968565b60808201526130a7611139565b606082019081526001600160a01b038381166000908152600d602090815260409182902085518155908501516001820155908401516002820180546001600160a01b0319169190931617909155905160038201556080820151600482015560a0820151600582015560c0820151600682015560e08201516007820155610100909101516008909101555b601060009054906101000a90046001600160a01b03166001600160a01b03166313f24daf6040518163ffffffff1660e01b815260040160206040518083038186803b15801561317f57600080fd5b505afa158015613193573d6000803e3d6000fd5b505050506040513d60208110156131a957600080fd5b50516131e65760405162461bcd60e51b81526004018080602001828103825260218152602001806157096021913960400191505060405180910390fd5b610e52614877565b6131f6615577565b601c613200611139565b8154811061320a57fe5b90600052602060002090600302016040518060600160405290816000820154815260200160018201548152602001600282015481525050905090565b61324e615577565b601c61325983611749565b8154811061326357fe5b906000526020600020906003020160405180606001604052908160008201548152602001600182015481526020016002820154815250509050919050565b6000828211156132f8576040805162461bcd60e51b815260206004820152601e60248201527f536166654d6174683a207375627472616374696f6e206f766572666c6f770000604482015290519081900360640190fd5b50900390565b60008261330d57506000610a9f565b8282028284828161331a57fe5b04146110885760405162461bcd60e51b815260040180806020018281038252602181526020018061574c6021913960400191505060405180910390fd5b60008082116133ad576040805162461bcd60e51b815260206004820152601a60248201527f536166654d6174683a206469766973696f6e206279207a65726f000000000000604482015290519081900360640190fd5b8183816133b657fe5b049392505050565b600082820183811015611088576040805162461bcd60e51b815260206004820152601b60248201527f536166654d6174683a206164646974696f6e206f766572666c6f770000000000604482015290519081900360640190fd5b3390565b6001600160a01b0383166134615760405162461bcd60e51b815260040180806020018281038252602481526020018061582f6024913960400191505060405180910390fd5b6001600160a01b0382166134a65760405162461bcd60e51b81526004018080602001828103825260228152602001806156046022913960400191505060405180910390fd5b6001600160a01b03808416600081815260016020908152604080832094871680845294825291829020859055815185815291517f8c5be1e5ebec7d5bd14f71427d1e84f3dd0314c0f7b2291e5b200ac8c7c3b9259281900390910190a3505050565b436000908152600c6020908152604080832032845290915290205460ff1690565b436000908152600c6020908152604080832033845290915290205460ff1690565b8015806135d0575060408051636eb1769f60e11b81523060048201526001600160a01b03848116602483015291519185169163dd62ed3e91604480820192602092909190829003018186803b1580156135a257600080fd5b505afa1580156135b6573d6000803e3d6000fd5b505050506040513d60208110156135cc57600080fd5b5051155b61360b5760405162461bcd60e51b81526004018080602001828103825260368152602001806158d06036913960400191505060405180910390fd5b604080516001600160a01b038416602482015260448082018490528251808303909101815260649091019091526020810180516001600160e01b031663095ea7b360e01b17905261365d908490614bd5565b505050565b336000908152600b602052604090205460ff168061368f575033613684611819565b6001600160a01b0316145b80613710575060115460408051632364d3dd60e21b8152905133926001600160a01b031691638d934f74916004808301926020929190829003018186803b1580156136d957600080fd5b505afa1580156136ed573d6000803e3d6000fd5b505050506040513d602081101561370357600080fd5b50516001600160a01b0316145b8061371a57503033145b8061373d57506001600160a01b0382166000908152600b602052604090205460ff165b806137605750816001600160a01b0316613755611819565b6001600160a01b0316145b806137e3575060115460408051632364d3dd60e21b815290516001600160a01b03808616931691638d934f74916004808301926020929190829003018186803b1580156137ac57600080fd5b505afa1580156137c0573d6000803e3d6000fd5b505050506040513d60208110156137d657600080fd5b50516001600160a01b0316145b806137f65750306001600160a01b038316145b613897576001600160a01b038281166000908152600d602052604090206002810154909185811691161461385b5760405162461bcd60e51b815260040180806020018281038252602281526020018061572a6022913960400191505060405180910390fd5b6002810180546001600160a01b031916905560125460009061387e9042906133be565b8254909150811115613894576138948482614a1b565b50505b61365d838383614c86565b600081848411156139315760405162461bcd60e51b81526004018080602001828103825283818151815260200191508051906020019080838360005b838110156138f65781810151838201526020016138de565b50505050905090810190601f1680156139235780820380516001836020036101000a031916815260200191505b509250505060405180910390fd5b505050900390565b601054604080516313f24daf60e01b815290516000926001600160a01b0316916313f24daf916004808301926020929190829003018186803b15801561397e57600080fd5b505afa158015613992573d6000803e3d6000fd5b505050506040513d60208110156139a857600080fd5b50519050801580613a085750613a0681601060009054906101000a90046001600160a01b03166001600160a01b031663900cf0cf6040518163ffffffff1660e01b815260040160206040518083038186803b1580156119e457600080fd5b155b613a59576040805162461bcd60e51b815260206004820152601e60248201527f4d7573742063616c6c20617420612077697468647261772065706f63682e0000604482015290519081900360640190fd5b801580613ade5750601060009054906101000a90046001600160a01b03166001600160a01b031663c5967c266040518163ffffffff1660e01b815260040160206040518083038186803b158015613aaf57600080fd5b505afa158015613ac3573d6000803e3d6000fd5b505050506040513d6020811015613ad957600080fd5b505142115b80613b3c5750610708613b3942601060009054906101000a90046001600160a01b03166001600160a01b031663c5967c266040518163ffffffff1660e01b815260040160206040518083038186803b158015610c1157600080fd5b11155b613b775760405162461bcd60e51b81526004018080602001828103825260348152602001806157d66034913960400191505060405180910390fd5b801580613bff5750601060009054906101000a90046001600160a01b03166001600160a01b031663900cf0cf6040518163ffffffff1660e01b815260040160206040518083038186803b158015613bcd57600080fd5b505afa158015613be1573d6000803e3d6000fd5b505050506040513d6020811015613bf757600080fd5b505160185414155b613c42576040805162461bcd60e51b815260206004820152600f60248201526e20b63932b0b23c9031b0b63632b21760891b604482015290519081900360640190fd5b600f5460408051632587701560e11b815230600482015290516000926001600160a01b031691634b0ee02a916024808301926020929190829003018186803b158015613c8d57600080fd5b505afa158015613ca1573d6000803e3d6000fd5b505050506040513d6020811015613cb757600080fd5b505160165490915015613cd657613cd030601654614de1565b60006016555b601554613d4a57601060009054906101000a90046001600160a01b03166001600160a01b031663b88a802f6040518163ffffffff1660e01b8152600401600060405180830381600087803b158015613d2d57600080fd5b505af1158015613d41573d6000803e3d6000fd5b50505050614113565b600e54604080516370a0823160e01b815230600482015290516000926001600160a01b0316916370a08231916024808301926020929190829003018186803b158015613d9557600080fd5b505afa158015613da9573d6000803e3d6000fd5b505050506040513d6020811015613dbf57600080fd5b505160158054600090915560145491925090811115613df257601454613de69082906132a1565b60006014559050613e06565b601454613dff90826132a1565b6014555060005b80156140a75760105460408051632e1a7d4d60e01b81526004810184905290516001600160a01b0390921691632e1a7d4d9160248082019260009290919082900301818387803b158015613e5957600080fd5b505af1158015613e6d573d6000803e3d6000fd5b5050600e54604080516370a0823160e01b81523060048201529051600094506001600160a01b0390921692506370a08231916024808301926020929190829003018186803b158015613ebe57600080fd5b505afa158015613ed2573d6000803e3d6000fd5b505050506040513d6020811015613ee857600080fd5b505190506000613ef882856132a1565b90506000613f0684836132a1565b905087158061401457506000811180156140145750600e5460115460408051632364d3dd60e21b8152905184936001600160a01b039081169363dd62ed3e93911691638d934f7491600480820192602092909190829003018186803b158015613f6e57600080fd5b505afa158015613f82573d6000803e3d6000fd5b505050506040513d6020811015613f9857600080fd5b5051604080516001600160e01b031960e085901b1681526001600160a01b039092166004830152306024830152516044808301926020929190829003018186803b158015613fe557600080fd5b505afa158015613ff9573d6000803e3d6000fd5b505050506040513d602081101561400f57600080fd5b505110155b1561409f5760115460408051632364d3dd60e21b8152905161409f926001600160a01b031691638d934f74916004808301926020929190829003018186803b15801561405f57600080fd5b505afa158015614073573d6000803e3d6000fd5b505050506040513d602081101561408957600080fd5b5051600e546001600160a01b0316903084614a37565b505050614110565b601060009054906101000a90046001600160a01b03166001600160a01b031663b88a802f6040518163ffffffff1660e01b8152600401600060405180830381600087803b1580156140f757600080fd5b505af115801561410b573d6000803e3d6000fd5b505050505b50505b600f546040805163010158bb60e51b815230600482015290516000926141dc926001600160a01b039091169163202b176091602480820192602092909190829003018186803b15801561416557600080fd5b505afa158015614179573d6000803e3d6000fd5b505050506040513d602081101561418f57600080fd5b5051600f5460408051635a46d3b560e01b815230600482015290516001600160a01b0390921691635a46d3b591602480820192602092909190829003018186803b158015610c1157600080fd5b9050801561425057600f546040805163579587b360e11b81523060048201526024810184905290516001600160a01b039092169163af2b0f669160448082019260009290919082900301818387803b15801561423757600080fd5b505af115801561424b573d6000803e3d6000fd5b505050505b600f5460408051632587701560e11b815230600482015290516000926001600160a01b031691634b0ee02a916024808301926020929190829003018186803b15801561429b57600080fd5b505afa1580156142af573d6000803e3d6000fd5b505050506040513d60208110156142c557600080fd5b5051905060006142d582856132a1565b905060006142e16131ee565b60400151905060006142f1610aa5565b9050600081156143205761431b614314836109d587670de0b6b3a76400006132fe565b84906133be565b614322565b825b90508161441f57600f5460115460408051632364d3dd60e21b815290516001600160a01b039384169363a9059cbb931691638d934f74916004808301926020929190829003018186803b15801561437857600080fd5b505afa15801561438c573d6000803e3d6000fd5b505050506040513d60208110156143a257600080fd5b5051604080516001600160e01b031960e085901b1681526001600160a01b039092166004830152602482018890525160448083019260209291908290030181600087803b1580156143f257600080fd5b505af1158015614406573d6000803e3d6000fd5b505050506040513d602081101561441c57600080fd5b50505b614427615577565b50604080516060810182524381526020808201878152828401858152601c805460018101825560009190915284517f0e4562a10381dec21b205ed72637e6b1b523bdd0e4d4d50af5cd23dd4500a21160039092029182015591517f0e4562a10381dec21b205ed72637e6b1b523bdd0e4d4d50af5cd23dd4500a212830155517f0e4562a10381dec21b205ed72637e6b1b523bdd0e4d4d50af5cd23dd4500a21390910155601054835163900cf0cf60e01b8152935192936001600160a01b039091169263900cf0cf92600480840193919291829003018186803b15801561450d57600080fd5b505afa158015614521573d6000803e3d6000fd5b505050506040513d602081101561453757600080fd5b5051601855505043601a555050505050505050565b6000806000841161459d576040805162461bcd60e51b815260206004820152601660248201527504552433230536e617073686f743a20696420697320360541b604482015290519081900360640190fd5b6145a76009614edd565b8411156145fb576040805162461bcd60e51b815260206004820152601d60248201527f4552433230536e617073686f743a206e6f6e6578697374656e74206964000000604482015290519081900360640190fd5b60006146078486614ee1565b8454909150811415614620576000809250925050614642565b600184600101828154811061463157fe5b906000526020600020015492509250505b9250929050565b336000908152600d6020526040902060040154801561480d57336000818152600d6020526040812060040155600f5461468e916001600160a01b039091169083614b87565b600080601060009054906101000a90046001600160a01b03166001600160a01b0316638278b53b6040518163ffffffff1660e01b815260040160206040518083038186803b1580156146df57600080fd5b505afa1580156146f3573d6000803e3d6000fd5b505050506040513d602081101561470957600080fd5b50519050606481111561474d5760405162461bcd60e51b815260040180806020018281038252602d815260200180615853602d913960400191505060405180910390fd5b61475c60646109d585846132fe565b915081156147d057600f546040805163282d3fdf60e01b81523360048201526024810185905290516001600160a01b039092169163282d3fdf9160448082019260009290919082900301818387803b1580156147b757600080fd5b505af11580156147cb573d6000803e3d6000fd5b505050505b6040805184815260208101849052815133927fd6f2c8500df5b44f11e9e48b91ff9f1b9d81bc496d55570c2b1b75bf65243f51928290030190a250505b50565b6000808211614866576040805162461bcd60e51b815260206004820152601860248201527f536166654d6174683a206d6f64756c6f206279207a65726f0000000000000000604482015290519081900360640190fd5b81838161486f57fe5b069392505050565b336000908152600d6020526040902060058101546148d6576040805162461bcd60e51b81526020600482015260176024820152762737903d32b9379030b6b7bab73a1030b63637bbb2b21760491b604482015290519081900360640190fd5b601060009054906101000a90046001600160a01b03166001600160a01b03166313f24daf6040518163ffffffff1660e01b815260040160206040518083038186803b15801561492457600080fd5b505afa158015614938573d6000803e3d6000fd5b505050506040513d602081101561494e57600080fd5b5051158061496157508060080154601a54115b61499c5760405162461bcd60e51b81526004018080602001828103825260338152602001806159066033913960400191505060405180910390fd5b60068101546017546149ae90826132a1565b6017556005820180546000918290556006840191909155600e546149dc906001600160a01b03163384614b87565b6040805182815260208101849052815133927ff279e6a1f5e320cca91135676d9cb6e44ca8a08c0b88342bcdb1144f6511b568928290030190a2505050565b6001600160a01b039091166000908152600d6020526040902055565b604080516001600160a01b0380861660248301528416604482015260648082018490528251808303909101815260849091019091526020810180516001600160e01b03166323b872dd60e01b179052614a91908590614bd5565b50505050565b6001600160a01b038216614af2576040805162461bcd60e51b815260206004820152601f60248201527f45524332303a206d696e7420746f20746865207a65726f206164647265737300604482015290519081900360640190fd5b614afe60008383614f82565b600254614b0b90826133be565b6002556001600160a01b038216600090815260208190526040902054614b3190826133be565b6001600160a01b0383166000818152602081815260408083209490945583518581529351929391927fddf252ad1be2c89b69c2b068fc378daa952ba7f163c4a11628f55a4df523b3ef9281900390910190a35050565b604080516001600160a01b038416602482015260448082018490528251808303909101815260649091019091526020810180516001600160e01b031663a9059cbb60e01b17905261365d9084905b6060614c2a826040518060400160405280602081526020017f5361666545524332303a206c6f772d6c6576656c2063616c6c206661696c6564815250856001600160a01b031661520c9092919063ffffffff16565b80519091501561365d57808060200190516020811015614c4957600080fd5b505161365d5760405162461bcd60e51b815260040180806020018281038252602a815260200180615880602a913960400191505060405180910390fd5b6001600160a01b038316614ccb5760405162461bcd60e51b815260040180806020018281038252602581526020018061580a6025913960400191505060405180910390fd5b6001600160a01b038216614d105760405162461bcd60e51b81526004018080602001828103825260238152602001806155996023913960400191505060405180910390fd5b614d1b838383614f82565b614d5881604051806060016040528060268152602001615648602691396001600160a01b03861660009081526020819052604090205491906138a2565b6001600160a01b038085166000908152602081905260408082209390935590841681522054614d8790826133be565b6001600160a01b038084166000818152602081815260409182902094909455805185815290519193928716927fddf252ad1be2c89b69c2b068fc378daa952ba7f163c4a11628f55a4df523b3ef92918290030190a3505050565b6001600160a01b038216614e265760405162461bcd60e51b81526004018080602001828103825260218152602001806157b56021913960400191505060405180910390fd5b614e3282600083614f82565b614e6f816040518060600160405280602281526020016155bc602291396001600160a01b03851660009081526020819052604090205491906138a2565b6001600160a01b038316600090815260208190526040902055600254614e9590826132a1565b6002556040805182815290516000916001600160a01b038516917fddf252ad1be2c89b69c2b068fc378daa952ba7f163c4a11628f55a4df523b3ef9181900360200190a35050565b5490565b8154600090614ef257506000610a9f565b82546000905b80821015614f41576000614f0c8383615223565b905084868281548110614f1b57fe5b90600052602060002001541115614f3457809150614f3b565b8060010192505b50614ef8565b600082118015614f69575083856001840381548110614f5c57fe5b9060005260206000200154145b15614f7a5750600019019050610a9f565b509050610a9f565b826001600160a01b038116156150be57614f9a615522565b506001600160a01b038082166000908152600d6020908152604091829020825161012081018452815481526001820154928101929092526002810154909316918101919091526003820154606082015260048201546080820152600582015460a0820152600682015460c0820152600782015460e082015260089091015461010082015261502782610968565b6080820152615034611139565b606082019081526001600160a01b038381166000908152600d602090815260409182902085518155908501516001820155908401516002820180546001600160a01b0319169190931617909155905160038201556080820151600482015560a0820151600582015560c0820151600682015560e08201516007820155610100909101516008909101555b826001600160a01b038116156151fa576150d6615522565b506001600160a01b038082166000908152600d6020908152604091829020825161012081018452815481526001820154928101929092526002810154909316918101919091526003820154606082015260048201546080820152600582015460a0820152600682015460c0820152600782015460e082015260089091015461010082015261516382610968565b6080820152615170611139565b606082019081526001600160a01b038381166000908152600d602090815260409182902085518155908501516001820155908401516002820180546001600160a01b0319169190931617909155905160038201556080820151600482015560a0820151600582015560c0820151600682015560e08201516007820155610100909101516008909101555b615205858585615248565b5050505050565b606061521b84846000856152a0565b949350505050565b6000600280830660028506018161523657fe5b04600283046002850401019392505050565b61525383838361365d565b6001600160a01b0383166152775761526a826153fc565b615272615426565b61365d565b6001600160a01b03821661528e5761526a836153fc565b615297836153fc565b61365d826153fc565b6060824710156152e15760405162461bcd60e51b81526004018080602001828103825260268152602001806156936026913960400191505060405180910390fd5b6152ea85615435565b61533b576040805162461bcd60e51b815260206004820152601d60248201527f416464726573733a2063616c6c20746f206e6f6e2d636f6e7472616374000000604482015290519081900360640190fd5b60006060866001600160a01b031685876040518082805190602001908083835b6020831061537a5780518252601f19909201916020918201910161535b565b6001836020036101000a03801982511681845116808217855250505050505090500191505060006040518083038185875af1925050503d80600081146153dc576040519150601f19603f3d011682016040523d82523d6000602084013e6153e1565b606091505b50915091506153f182828661543b565b979650505050505050565b6001600160a01b038116600090815260066020526040902061480d906154218361172e565b6154a1565b6154336007615421610aa5565b565b3b151590565b6060831561544a575081611088565b82511561545a5782518084602001fd5b60405162461bcd60e51b81526020600482018181528451602484015284518593919283926044019190850190808383600083156138f65781810151838201526020016138de565b60006154ad6009614edd565b9050806154b9846154ed565b101561365d578254600180820185556000858152602080822090930193909355938401805494850181558252902090910155565b80546000906154fe575060006109e6565b81548290600019810190811061551057fe5b906000526020600020015490506109e6565b604051806101200160405280600081526020016000815260200160006001600160a01b031681526020016000815260200160008152602001600081526020016000815260200160008152602001600081525090565b6040518060600160405280600081526020016000815260200160008152509056fe45524332303a207472616e7366657220746f20746865207a65726f206164647265737345524332303a206275726e20616d6f756e7420657863656564732062616c616e63654f776e61626c653a206e6577206f776e657220697320746865207a65726f206164647265737345524332303a20617070726f766520746f20746865207a65726f206164647265737343616e6e6f74206272696e6720646f776e207072696365206f66204d41535445522e45524332303a207472616e7366657220616d6f756e7420657863656564732062616c616e636543616e6e6f74207374616b65207769746820612077697468647261772070656e64696e672e416464726573733a20696e73756666696369656e742062616c616e636520666f722063616c6c43616e6e6f74207472616e73666572206d6f7265207468616e206163636964656e74616c2066756e64732e43616e6e6f7420776974686472617720776974682061207374616b652070656e64696e672e43616c6c207265717565737453656c6c546f5468656f727920696e73746561642e526563656976657220646964206e6f7420617070726f7665207472616e736665722e536166654d6174683a206d756c7469706c69636174696f6e206f766572666c6f7745524332303a207472616e7366657220616d6f756e74206578636565647320616c6c6f77616e63654f776e61626c653a2063616c6c6572206973206e6f7420746865206f776e657245524332303a206275726e2066726f6d20746865207a65726f20616464726573734d7573742062652063616c6c6564206174206d6f7374203330206d696e75746573206265666f72652065706f636820656e64732e45524332303a207472616e736665722066726f6d20746865207a65726f206164647265737345524332303a20617070726f76652066726f6d20746865207a65726f2061646472657373496e76616c6964206c6f636b2070657263656e746167652c20636865636b207468697320636f6e74726163742e5361666545524332303a204552433230206f7065726174696f6e20646964206e6f742073756363656564436f6e747261637447756172643a206f6e6520626c6f636b2c206f6e652066756e6374696f6e5361666545524332303a20617070726f76652066726f6d206e6f6e2d7a65726f20746f206e6f6e2d7a65726f20616c6c6f77616e6365496e69746961746f7220506172742031206e6f74207965742063616c6c6564206f722063616c6c656420746f6f20736f6f6e2e45524332303a2064656372656173656420616c6c6f77616e63652062656c6f77207a65726fa264697066735822122065d21d921e59635f537a4c381167463da93f84e012a13cbc19ea4525e64649f564736f6c634300060c0033",
  "linkReferences": {},
  "deployedLinkReferences": {}
}