{
  "_format": "hh-sol-artifact-1",
  "contractName": "Master",
  "sourceName": "contracts/Master.sol",
  "abi": [
    {
      "inputs": [
        {
          "internalType": "contract IERC20Lockable",
          "name": "_theory",
          "type": "address"
        },
        {
          "internalType": "contract IERC20Lockable",
          "name": "_game",
          "type": "address"
        },
        {
          "internalType": "contract ITheoretics",
          "name": "_theoretics",
          "type": "address"
        },
        {
          "internalType": "contract ITreasury",
          "name": "_treasury",
          "type": "address"
        }
      ],
      "stateMutability": "nonpayable",
      "type": "constructor"
    },
    {
      "anonymous": false,
      "inputs": [
        {
          "indexed": true,
          "internalType": "address",
          "name": "owner",
          "type": "address"
        },
        {
          "indexed": true,
          "internalType": "address",
          "name": "spender",
          "type": "address"
        },
        {
          "indexed": false,
          "internalType": "uint256",
          "name": "value",
          "type": "uint256"
        }
      ],
      "name": "Approval",
      "type": "event"
    },
    {
      "anonymous": false,
      "inputs": [
        {
          "indexed": true,
          "internalType": "address",
          "name": "user",
          "type": "address"
        },
        {
          "indexed": false,
          "internalType": "uint256",
          "name": "amountInTheory",
          "type": "uint256"
        },
        {
          "indexed": false,
          "internalType": "uint256",
          "name": "amountOutMaster",
          "type": "uint256"
        }
      ],
      "name": "Deposit",
      "type": "event"
    },
    {
      "anonymous": false,
      "inputs": [
        {
          "indexed": true,
          "internalType": "address",
          "name": "previousOwner",
          "type": "address"
        },
        {
          "indexed": true,
          "internalType": "address",
          "name": "newOwner",
          "type": "address"
        }
      ],
      "name": "OwnershipTransferred",
      "type": "event"
    },
    {
      "anonymous": false,
      "inputs": [
        {
          "indexed": true,
          "internalType": "address",
          "name": "user",
          "type": "address"
        },
        {
          "indexed": false,
          "internalType": "uint256",
          "name": "reward",
          "type": "uint256"
        },
        {
          "indexed": false,
          "internalType": "uint256",
          "name": "lockAmount",
          "type": "uint256"
        }
      ],
      "name": "RewardPaid",
      "type": "event"
    },
    {
      "anonymous": false,
      "inputs": [
        {
          "indexed": false,
          "internalType": "uint256",
          "name": "id",
          "type": "uint256"
        }
      ],
      "name": "Snapshot",
      "type": "event"
    },
    {
      "anonymous": false,
      "inputs": [
        {
          "indexed": true,
          "internalType": "address",
          "name": "from",
          "type": "address"
        },
        {
          "indexed": true,
          "internalType": "address",
          "name": "to",
          "type": "address"
        },
        {
          "indexed": false,
          "internalType": "uint256",
          "name": "value",
          "type": "uint256"
        }
      ],
      "name": "Transfer",
      "type": "event"
    },
    {
      "anonymous": false,
      "inputs": [
        {
          "indexed": true,
          "internalType": "address",
          "name": "user",
          "type": "address"
        },
        {
          "indexed": false,
          "internalType": "uint256",
          "name": "amountInMaster",
          "type": "uint256"
        },
        {
          "indexed": false,
          "internalType": "uint256",
          "name": "amountOutTheory",
          "type": "uint256"
        }
      ],
      "name": "Withdraw",
      "type": "event"
    },
    {
      "anonymous": false,
      "inputs": [
        {
          "indexed": true,
          "internalType": "address",
          "name": "user",
          "type": "address"
        },
        {
          "indexed": false,
          "internalType": "uint256",
          "name": "amountInMaster",
          "type": "uint256"
        },
        {
          "indexed": false,
          "internalType": "uint256",
          "name": "amountOutTheory",
          "type": "uint256"
        }
      ],
      "name": "WithdrawRequest",
      "type": "event"
    },
    {
      "inputs": [
        {
          "internalType": "address",
          "name": "_toAdd",
          "type": "address"
        }
      ],
      "name": "addAuthorized",
      "outputs": [],
      "stateMutability": "nonpayable",
      "type": "function"
    },
    {
      "inputs": [
        {
          "internalType": "address",
          "name": "owner",
          "type": "address"
        },
        {
          "internalType": "address",
          "name": "spender",
          "type": "address"
        }
      ],
      "name": "allowance",
      "outputs": [
        {
          "internalType": "uint256",
          "name": "",
          "type": "uint256"
        }
      ],
      "stateMutability": "view",
      "type": "function"
    },
    {
      "inputs": [
        {
          "internalType": "address",
          "name": "spender",
          "type": "address"
        },
        {
          "internalType": "uint256",
          "name": "amount",
          "type": "uint256"
        }
      ],
      "name": "approve",
      "outputs": [
        {
          "internalType": "bool",
          "name": "",
          "type": "bool"
        }
      ],
      "stateMutability": "nonpayable",
      "type": "function"
    },
    {
      "inputs": [
        {
          "internalType": "address",
          "name": "from",
          "type": "address"
        }
      ],
      "name": "approveTransferFrom",
      "outputs": [],
      "stateMutability": "nonpayable",
      "type": "function"
    },
    {
      "inputs": [
        {
          "internalType": "address",
          "name": "",
          "type": "address"
        }
      ],
      "name": "authorized",
      "outputs": [
        {
          "internalType": "bool",
          "name": "",
          "type": "bool"
        }
      ],
      "stateMutability": "view",
      "type": "function"
    },
    {
      "inputs": [
        {
          "internalType": "address",
          "name": "account",
          "type": "address"
        }
      ],
      "name": "balanceOf",
      "outputs": [
        {
          "internalType": "uint256",
          "name": "",
          "type": "uint256"
        }
      ],
      "stateMutability": "view",
      "type": "function"
    },
    {
      "inputs": [
        {
          "internalType": "address",
          "name": "account",
          "type": "address"
        },
        {
          "internalType": "uint256",
          "name": "snapshotId",
          "type": "uint256"
        }
      ],
      "name": "balanceOfAt",
      "outputs": [
        {
          "internalType": "uint256",
          "name": "",
          "type": "uint256"
        }
      ],
      "stateMutability": "view",
      "type": "function"
    },
    {
      "inputs": [
        {
          "internalType": "uint256",
          "name": "amountInTheory",
          "type": "uint256"
        },
        {
          "internalType": "uint256",
          "name": "lockTime",
          "type": "uint256"
        }
      ],
      "name": "buyFromTheory",
      "outputs": [],
      "stateMutability": "nonpayable",
      "type": "function"
    },
    {
      "inputs": [],
      "name": "claimGame",
      "outputs": [],
      "stateMutability": "nonpayable",
      "type": "function"
    },
    {
      "inputs": [],
      "name": "decimals",
      "outputs": [
        {
          "internalType": "uint8",
          "name": "",
          "type": "uint8"
        }
      ],
      "stateMutability": "view",
      "type": "function"
    },
    {
      "inputs": [
        {
          "internalType": "address",
          "name": "spender",
          "type": "address"
        },
        {
          "internalType": "uint256",
          "name": "subtractedValue",
          "type": "uint256"
        }
      ],
      "name": "decreaseAllowance",
      "outputs": [
        {
          "internalType": "bool",
          "name": "",
          "type": "bool"
        }
      ],
      "stateMutability": "nonpayable",
      "type": "function"
    },
    {
      "inputs": [
        {
          "internalType": "address",
          "name": "theorist",
          "type": "address"
        }
      ],
      "name": "earned",
      "outputs": [
        {
          "internalType": "uint256",
          "name": "",
          "type": "uint256"
        }
      ],
      "stateMutability": "view",
      "type": "function"
    },
    {
      "inputs": [],
      "name": "game",
      "outputs": [
        {
          "internalType": "contract IERC20Lockable",
          "name": "",
          "type": "address"
        }
      ],
      "stateMutability": "view",
      "type": "function"
    },
    {
      "inputs": [
        {
          "internalType": "address",
          "name": "theorist",
          "type": "address"
        }
      ],
      "name": "getLastSnapshotIndexOf",
      "outputs": [
        {
          "internalType": "uint256",
          "name": "",
          "type": "uint256"
        }
      ],
      "stateMutability": "view",
      "type": "function"
    },
    {
      "inputs": [
        {
          "internalType": "address",
          "name": "spender",
          "type": "address"
        },
        {
          "internalType": "uint256",
          "name": "addedValue",
          "type": "uint256"
        }
      ],
      "name": "increaseAllowance",
      "outputs": [
        {
          "internalType": "bool",
          "name": "",
          "type": "bool"
        }
      ],
      "stateMutability": "nonpayable",
      "type": "function"
    },
    {
      "inputs": [
        {
          "internalType": "bool",
          "name": "allowEmergency",
          "type": "bool"
        }
      ],
      "name": "initiatePart1",
      "outputs": [],
      "stateMutability": "nonpayable",
      "type": "function"
    },
    {
      "inputs": [],
      "name": "initiatePart2",
      "outputs": [],
      "stateMutability": "nonpayable",
      "type": "function"
    },
    {
      "inputs": [],
      "name": "latestSnapshotIndex",
      "outputs": [
        {
          "internalType": "uint256",
          "name": "",
          "type": "uint256"
        }
      ],
      "stateMutability": "view",
      "type": "function"
    },
    {
      "inputs": [
        {
          "internalType": "uint256",
          "name": "",
          "type": "uint256"
        }
      ],
      "name": "masterHistory",
      "outputs": [
        {
          "internalType": "uint256",
          "name": "time",
          "type": "uint256"
        },
        {
          "internalType": "uint256",
          "name": "rewardReceived",
          "type": "uint256"
        },
        {
          "internalType": "uint256",
          "name": "rewardPerShare",
          "type": "uint256"
        }
      ],
      "stateMutability": "view",
      "type": "function"
    },
    {
      "inputs": [
        {
          "internalType": "uint256",
          "name": "_share",
          "type": "uint256"
        }
      ],
      "name": "masterToTheory",
      "outputs": [
        {
          "internalType": "uint256",
          "name": "",
          "type": "uint256"
        }
      ],
      "stateMutability": "view",
      "type": "function"
    },
    {
      "inputs": [
        {
          "internalType": "uint256",
          "name": "_share",
          "type": "uint256"
        },
        {
          "internalType": "uint256",
          "name": "totalGovernanceToken",
          "type": "uint256"
        },
        {
          "internalType": "uint256",
          "name": "totalShares",
          "type": "uint256"
        }
      ],
      "name": "masterToTheoryOwed",
      "outputs": [
        {
          "internalType": "uint256",
          "name": "",
          "type": "uint256"
        }
      ],
      "stateMutability": "view",
      "type": "function"
    },
    {
      "inputs": [],
      "name": "minLockTime",
      "outputs": [
        {
          "internalType": "uint256",
          "name": "",
          "type": "uint256"
        }
      ],
      "stateMutability": "view",
      "type": "function"
    },
    {
      "inputs": [],
      "name": "name",
      "outputs": [
        {
          "internalType": "string",
          "name": "",
          "type": "string"
        }
      ],
      "stateMutability": "view",
      "type": "function"
    },
    {
      "inputs": [],
      "name": "owner",
      "outputs": [
        {
          "internalType": "address",
          "name": "",
          "type": "address"
        }
      ],
      "stateMutability": "view",
      "type": "function"
    },
    {
      "inputs": [
        {
          "internalType": "address",
          "name": "_toRemove",
          "type": "address"
        }
      ],
      "name": "removeAuthorized",
      "outputs": [],
      "stateMutability": "nonpayable",
      "type": "function"
    },
    {
      "inputs": [],
      "name": "renounceOwnership",
      "outputs": [],
      "stateMutability": "nonpayable",
      "type": "function"
    },
    {
      "inputs": [
        {
          "internalType": "uint256",
          "name": "amountInMaster",
          "type": "uint256"
        },
        {
          "internalType": "bool",
          "name": "allowEmergency",
          "type": "bool"
        }
      ],
      "name": "requestSellToTheory",
      "outputs": [],
      "stateMutability": "nonpayable",
      "type": "function"
    },
    {
      "inputs": [],
      "name": "sellToTheory",
      "outputs": [],
      "stateMutability": "nonpayable",
      "type": "function"
    },
    {
      "inputs": [
        {
          "internalType": "uint256",
          "name": "lockTime",
          "type": "uint256"
        },
        {
          "internalType": "uint256",
          "name": "penalty",
          "type": "uint256"
        }
      ],
      "name": "setTimes",
      "outputs": [],
      "stateMutability": "nonpayable",
      "type": "function"
    },
    {
      "inputs": [
        {
          "internalType": "uint256",
          "name": "amount",
          "type": "uint256"
        }
      ],
      "name": "stakeExternalTheory",
      "outputs": [],
      "stateMutability": "nonpayable",
      "type": "function"
    },
    {
      "inputs": [],
      "name": "symbol",
      "outputs": [
        {
          "internalType": "string",
          "name": "",
          "type": "string"
        }
      ],
      "stateMutability": "view",
      "type": "function"
    },
    {
      "inputs": [],
      "name": "theoretics",
      "outputs": [
        {
          "internalType": "contract ITheoretics",
          "name": "",
          "type": "address"
        }
      ],
      "stateMutability": "view",
      "type": "function"
    },
    {
      "inputs": [],
      "name": "theory",
      "outputs": [
        {
          "internalType": "contract IERC20Lockable",
          "name": "",
          "type": "address"
        }
      ],
      "stateMutability": "view",
      "type": "function"
    },
    {
      "inputs": [
        {
          "internalType": "uint256",
          "name": "_amount",
          "type": "uint256"
        }
      ],
      "name": "theoryToMaster",
      "outputs": [
        {
          "internalType": "uint256",
          "name": "",
          "type": "uint256"
        }
      ],
      "stateMutability": "view",
      "type": "function"
    },
    {
      "inputs": [
        {
          "internalType": "uint256",
          "name": "_amount",
          "type": "uint256"
        },
        {
          "internalType": "uint256",
          "name": "totalGovernanceToken",
          "type": "uint256"
        },
        {
          "internalType": "uint256",
          "name": "totalShares",
          "type": "uint256"
        }
      ],
      "name": "theoryToMasterOwed",
      "outputs": [
        {
          "internalType": "uint256",
          "name": "",
          "type": "uint256"
        }
      ],
      "stateMutability": "view",
      "type": "function"
    },
    {
      "inputs": [],
      "name": "totalSupply",
      "outputs": [
        {
          "internalType": "uint256",
          "name": "",
          "type": "uint256"
        }
      ],
      "stateMutability": "view",
      "type": "function"
    },
    {
      "inputs": [
        {
          "internalType": "uint256",
          "name": "snapshotId",
          "type": "uint256"
        }
      ],
      "name": "totalSupplyAt",
      "outputs": [
        {
          "internalType": "uint256",
          "name": "",
          "type": "uint256"
        }
      ],
      "stateMutability": "view",
      "type": "function"
    },
    {
      "inputs": [
        {
          "internalType": "address",
          "name": "recipient",
          "type": "address"
        },
        {
          "internalType": "uint256",
          "name": "amount",
          "type": "uint256"
        }
      ],
      "name": "transfer",
      "outputs": [
        {
          "internalType": "bool",
          "name": "",
          "type": "bool"
        }
      ],
      "stateMutability": "nonpayable",
      "type": "function"
    },
    {
      "inputs": [
        {
          "internalType": "address",
          "name": "sender",
          "type": "address"
        },
        {
          "internalType": "address",
          "name": "recipient",
          "type": "address"
        },
        {
          "internalType": "uint256",
          "name": "amount",
          "type": "uint256"
        }
      ],
      "name": "transferFrom",
      "outputs": [
        {
          "internalType": "bool",
          "name": "",
          "type": "bool"
        }
      ],
      "stateMutability": "nonpayable",
      "type": "function"
    },
    {
      "inputs": [
        {
          "internalType": "address",
          "name": "newOwner",
          "type": "address"
        }
      ],
      "name": "transferOwnership",
      "outputs": [],
      "stateMutability": "nonpayable",
      "type": "function"
    },
    {
      "inputs": [
        {
          "internalType": "contract IERC20",
          "name": "_token",
          "type": "address"
        },
        {
          "internalType": "address",
          "name": "to",
          "type": "address"
        },
        {
          "internalType": "uint256",
          "name": "amount",
          "type": "uint256"
        }
      ],
      "name": "transferToken",
      "outputs": [],
      "stateMutability": "nonpayable",
      "type": "function"
    },
    {
      "inputs": [],
      "name": "treasury",
      "outputs": [
        {
          "internalType": "contract ITreasury",
          "name": "",
          "type": "address"
        }
      ],
      "stateMutability": "view",
      "type": "function"
    },
    {
      "inputs": [],
      "name": "unlockedClaimPenalty",
      "outputs": [
        {
          "internalType": "uint256",
          "name": "",
          "type": "uint256"
        }
      ],
      "stateMutability": "view",
      "type": "function"
    },
    {
      "inputs": [
        {
          "internalType": "address",
          "name": "",
          "type": "address"
        }
      ],
      "name": "userInfo",
      "outputs": [
        {
          "internalType": "uint256",
          "name": "lockToTime",
          "type": "uint256"
        },
        {
          "internalType": "uint256",
          "name": "chosenLockTime",
          "type": "uint256"
        },
        {
          "internalType": "address",
          "name": "approveTransferFrom",
          "type": "address"
        },
        {
          "internalType": "uint256",
          "name": "lastSnapshotIndex",
          "type": "uint256"
        },
        {
          "internalType": "uint256",
          "name": "rewardEarned",
          "type": "uint256"
        },
        {
          "internalType": "uint256",
          "name": "withdrawRequestedInMaster",
          "type": "uint256"
        },
        {
          "internalType": "uint256",
          "name": "withdrawRequestedInTheory",
          "type": "uint256"
        },
        {
          "internalType": "uint256",
          "name": "lastStakeRequestBlock",
          "type": "uint256"
        },
        {
          "internalType": "uint256",
          "name": "lastWithdrawRequestBlock",
          "type": "uint256"
        }
      ],
      "stateMutability": "view",
      "type": "function"
    }
  ],
  "bytecode": "0x60806040523480156200001157600080fd5b506040516200565938038062005659833981810160405260808110156200003757600080fd5b50805160208083015160408085015160609095015181518083018352600c81526b26b0b9ba32b9102a37b5b2b760a11b8186019081528351808501909452600684526526a0a9aa22a960d11b9584019590955280519596939593949193909291620000a6916003919062000239565b508051620000bc90600490602084019062000239565b50506005805460ff19166012179055506000620000d862000235565b600a80546001600160a01b0319166001600160a01b038316908117909155604051919250906000907f8be0079c531659141344cd1fd0a4f28419497f9722a3daafe3b4186f6b6457e0908290a350600e80546001600160a01b038087166001600160a01b031992831617909255600f80548684169083161790556010805485841690831617905560118054928416929091169190911790556301e1338060125562278d0060135562000189620002be565b505060408051606081018252438152600060208201818152928201818152601c8054600181018255925291517f0e4562a10381dec21b205ed72637e6b1b523bdd0e4d4d50af5cd23dd4500a21160039092029182015591517f0e4562a10381dec21b205ed72637e6b1b523bdd0e4d4d50af5cd23dd4500a212830155517f0e4562a10381dec21b205ed72637e6b1b523bdd0e4d4d50af5cd23dd4500a2139091015550620002f6915050565b3390565b828054600181600116156101000203166002900490600052602060002090601f016020900481019282601f106200027c57805160ff1916838001178555620002ac565b82800160010185558215620002ac579182015b82811115620002ac5782518255916020019190600101906200028f565b50620002ba929150620002df565b5090565b60405180606001604052806000815260200160008152602001600081525090565b5b80821115620002ba5760008155600101620002e0565b61535380620003066000396000f3fe608060405234801561001057600080fd5b50600436106102735760003560e01c80638da5cb5b11610151578063c3fe3e28116100c3578063e4d2c45e11610087578063e4d2c45e1461077c578063f0e0d9f6146107a5578063f2fde38b146107e0578063f5537ede14610806578063f894dd211461083c578063fdb781c81461086557610273565b8063c3fe3e28146106e0578063c4e69329146106e8578063c7b728de1461070b578063cf1c316a14610728578063dd62ed3e1461074e57610273565b8063a60ff76611610115578063a60ff7661461063c578063a9059cbb14610644578063ab9fb43814610670578063ad45e4ae1461068d578063aeadf88f14610695578063b9181611146106ba57610273565b80638da5cb5b146105db57806395d89b41146105e357806397b98e4a146105eb578063981b24d0146105f3578063a457c2d71461061057610273565b80633c32a450116101ea5780635358a2af116101ae5780635358a2af1461056f5780635936e8bd1461057757806361d027b31461057f57806370a0823114610587578063714b4658146105ad578063715018a6146105d357610273565b80633c32a450146104d25780633f9e3f04146104f6578063485d7d94146104fe5780634e0e7e33146105245780634ee2cd7e1461054357610273565b80631959a0021161023c5780631959a00214610394578063224348361461040957806323b872dd1461042c578063313ce5671461046257806336cea11b1461048057806339509351146104a657610273565b80628cc2621461027857806306fdde03146102b0578063095ea7b31461032d57806318160ddd1461036d57806318bb939a14610375575b600080fd5b61029e6004803603602081101561028e57600080fd5b50356001600160a01b031661086d565b60408051918252519081900360200190f35b6102b86108f0565b6040805160208082528351818301528351919283929083019185019080838360005b838110156102f25781810151838201526020016102da565b50505050905090810190601f16801561031f5780820380516001836020036101000a031916815260200191505b509250505060405180910390f35b6103596004803603604081101561034357600080fd5b506001600160a01b038135169060200135610986565b604080519115158252519081900360200190f35b61029e6109a4565b6103926004803603602081101561038b57600080fd5b50356109aa565b005b6103ba600480360360208110156103aa57600080fd5b50356001600160a01b0316610d8f565b60408051998a5260208a01989098526001600160a01b03909616888801526060880194909452608087019290925260a086015260c085015260e084015261010083015251908190036101200190f35b6103926004803603604081101561041f57600080fd5b5080359060200135610de4565b6103596004803603606081101561044257600080fd5b506001600160a01b03813581169160208101359091169060400135610f00565b61046a610f88565b6040805160ff9092168252519081900360200190f35b6103926004803603602081101561049657600080fd5b50356001600160a01b0316610f91565b610359600480360360408110156104bc57600080fd5b506001600160a01b038135169060200135610fc3565b6104da611011565b604080516001600160a01b039092168252519081900360200190f35b61029e611020565b6103926004803603602081101561051457600080fd5b50356001600160a01b0316611036565b6103926004803603602081101561053a57600080fd5b503515156110cf565b61029e6004803603604081101561055957600080fd5b506001600160a01b038135169060200135611160565b61029e6111a9565b6103926111af565b6104da61142a565b61029e6004803603602081101561059d57600080fd5b50356001600160a01b0316611439565b61029e600480360360208110156105c357600080fd5b50356001600160a01b0316611454565b610392611472565b6104da61151e565b6102b861152d565b61039261158e565b61029e6004803603602081101561060957600080fd5b5035611b14565b6103596004803603604081101561062657600080fd5b506001600160a01b038135169060200135611b3a565b61029e611ba2565b6103596004803603604081101561065a57600080fd5b506001600160a01b038135169060200135611ba8565b61029e6004803603602081101561068657600080fd5b5035611bbc565b6104da611c7e565b610392600480360360408110156106ab57600080fd5b50803590602001351515611c8d565b610359600480360360208110156106d057600080fd5b50356001600160a01b03166120c5565b6104da6120da565b610392600480360360408110156106fe57600080fd5b50803590602001356120e9565b61029e6004803603602081101561072157600080fd5b5035612605565b6103926004803603602081101561073e57600080fd5b50356001600160a01b0316612695565b61029e6004803603604081101561076457600080fd5b506001600160a01b038135811691602001351661271b565b61029e6004803603606081101561079257600080fd5b5080359060208101359060400135612746565b6107c2600480360360208110156107bb57600080fd5b503561276f565b60408051938452602084019290925282820152519081900360600190f35b610392600480360360208110156107f657600080fd5b50356001600160a01b031661279f565b6103926004803603606081101561081c57600080fd5b506001600160a01b038135811691602081013590911690604001356128a2565b61029e6004803603606081101561085257600080fd5b5080359060208101359060400135612a79565b610392612aa2565b600080610878612d1a565b604001519050600061088984612d72565b6040908101516001600160a01b0386166000908152600d60205291909120600401549091506108e6906108e0670de0b6b3a76400006108da6108cb8787612dcd565b6108d48a611439565b90612e2a565b90612e83565b90612eea565b925050505b919050565b60038054604080516020601f600260001961010060018816150201909516949094049384018190048102820181019092528281526060939092909183018282801561097c5780601f106109515761010080835404028352916020019161097c565b820191906000526020600020905b81548152906001019060200180831161095f57829003601f168201915b5050505050905090565b600061099a610993612f44565b8484612f48565b5060015b92915050565b60025490565b336000908152600b602052604090205460ff16806109d75750336109cc61151e565b6001600160a01b0316145b610a23576040805162461bcd60e51b815260206004820152601860248201527718d85b1b195c881a5cc81b9bdd08185d5d1a1bdc9a5e995960421b604482015290519081900360640190fd5b610a2b613034565b15610a675760405162461bcd60e51b815260040180806020018281038252602681526020018061526a6026913960400191505060405180910390fd5b610a6f613055565b15610aab5760405162461bcd60e51b815260040180806020018281038252602681526020018061526a6026913960400191505060405180910390fd5b610b42610ac5601754601454612eea90919063ffffffff16565b600e54604080516370a0823160e01b815230600482015290516001600160a01b03909216916370a0823191602480820192602092909190829003018186803b158015610b1057600080fd5b505afa158015610b24573d6000803e3d6000fd5b505050506040513d6020811015610b3a57600080fd5b505190612dcd565b811115610b96576040805162461bcd60e51b815260206004820152601b60248201527f43616e6e6f74207374616b652070656e64696e672066756e64732e0000000000604482015290519081900360640190fd5b601060009054906101000a90046001600160a01b03166001600160a01b031663900cf0cf6040518163ffffffff1660e01b815260040160206040518083038186803b158015610be457600080fd5b505afa158015610bf8573d6000803e3d6000fd5b505050506040513d6020811015610c0e57600080fd5b50516019541480610c965750601060009054906101000a90046001600160a01b03166001600160a01b03166313f24daf6040518163ffffffff1660e01b815260040160206040518083038186803b158015610c6857600080fd5b505afa158015610c7c573d6000803e3d6000fd5b505050506040513d6020811015610c9257600080fd5b5051155b15610d4057601054600e54610cb9916001600160a01b0391821691166000613076565b601054600e54610cd6916001600160a01b03918216911683613076565b6010546040805163534a7e1d60e11b81526004810184905290516001600160a01b039092169163a694fc3a9160248082019260009290919082900301818387803b158015610d2357600080fd5b505af1158015610d37573d6000803e3d6000fd5b50505050610d51565b601454610d4d9082612eea565b6014555b50436000908152600c602090815260408083203284529091528082208054600160ff1991821681179092553384529190922080549091169091179055565b600d60205260009081526040902080546001820154600283015460038401546004850154600586015460068701546007880154600890980154969795966001600160a01b039095169593949293919290919089565b336000908152600b602052604090205460ff1680610e11575033610e0661151e565b6001600160a01b0316145b610e5d576040805162461bcd60e51b815260206004820152601860248201527718d85b1b195c881a5cc81b9bdd08185d5d1a1bdc9a5e995960421b604482015290519081900360640190fd5b6303c26700821115610eac576040805162461bcd60e51b81526020600482015260136024820152722637b1b5903a34b6b2903a37b7903434b3b41760691b604482015290519081900360640190fd5b81811115610ef5576040805162461bcd60e51b81526020600482015260116024820152702832b730b63a3c903a37b7903434b3b41760791b604482015290519081900360640190fd5b601291909155601355565b6000610f0d84848461318e565b610f7d84610f19612f44565b610f7885604051806060016040528060288152602001615161602891396001600160a01b038a16600090815260016020526040812090610f57612f44565b6001600160a01b0316815260208101919091526040016000205491906133ce565b612f48565b5060015b9392505050565b60055460ff1690565b336000908152600d6020526040902060020180546001600160a01b0319166001600160a01b0392909216919091179055565b600061099a610fd0612f44565b84610f788560016000610fe1612f44565b6001600160a01b03908116825260208083019390935260409182016000908120918c168152925290205490612eea565b600e546001600160a01b031681565b601c54600090611031906001612dcd565b905090565b61103e612f44565b6001600160a01b031661104f61151e565b6001600160a01b031614611098576040805162461bcd60e51b81526020600482018190526024820152600080516020615189833981519152604482015290519081900360640190fd5b6001600160a01b0381163314156110ae57600080fd5b6001600160a01b03166000908152600b60205260409020805460ff19169055565b6110d7613034565b156111135760405162461bcd60e51b815260040180806020018281038252602681526020018061526a6026913960400191505060405180910390fd5b61111b613055565b156111575760405162461bcd60e51b815260040180806020018281038252602681526020018061526a6026913960400191505060405180910390fd5b610d5181613465565b6001600160a01b038216600090815260066020526040812081908190611187908590613ef6565b915091508161119e5761119985611439565b6111a0565b805b95945050505050565b60135481565b6111b7613034565b156111f35760405162461bcd60e51b815260040180806020018281038252602681526020018061526a6026913960400191505060405180910390fd5b6111fb613055565b156112375760405162461bcd60e51b815260040180806020018281038252602681526020018061526a6026913960400191505060405180910390fd5b33801561136a57611246614f15565b506001600160a01b038082166000908152600d6020908152604091829020825161012081018452815481526001820154928101929092526002810154909316918101919091526003820154606082015260048201546080820152600582015460a0820152600682015460c0820152600782015460e08201526008909101546101008201526112d38261086d565b60808201526112e0611020565b606082019081526001600160a01b038381166000908152600d602090815260409182902085518155908501516001820155908401516002820180546001600160a01b0319169190931617909155905160038201556080820151600482015560a0820151600582015560c0820151600682015560e08201516007820155610100909101516008909101555b60006113753361086d565b116113bb576040805162461bcd60e51b815260206004820152601160248201527027379023a0a6a2903a379031b630b4b69760791b604482015290519081900360640190fd5b336000908152600d60205260409020805442106113e3576013546113e0904290612eea565b81555b6113eb613ff3565b5050436000908152600c602090815260408083203284529091528082208054600160ff1991821681179092553384529190922080549091169091179055565b6011546001600160a01b031681565b6001600160a01b031660009081526020819052604090205490565b6001600160a01b03166000908152600d602052604090206003015490565b61147a612f44565b6001600160a01b031661148b61151e565b6001600160a01b0316146114d4576040805162461bcd60e51b81526020600482018190526024820152600080516020615189833981519152604482015290519081900360640190fd5b600a546040516000916001600160a01b0316907f8be0079c531659141344cd1fd0a4f28419497f9722a3daafe3b4186f6b6457e0908390a3600a80546001600160a01b0319169055565b600a546001600160a01b031690565b60048054604080516020601f600260001961010060018816150201909516949094049384018190048102820181019092528281526060939092909183018282801561097c5780601f106109515761010080835404028352916020019161097c565b611596613034565b156115d25760405162461bcd60e51b815260040180806020018281038252602681526020018061526a6026913960400191505060405180910390fd5b6115da613055565b156116165760405162461bcd60e51b815260040180806020018281038252602681526020018061526a6026913960400191505060405180910390fd5b601054604080516313f24daf60e01b815290516000926001600160a01b0316916313f24daf916004808301926020929190829003018186803b15801561165b57600080fd5b505afa15801561166f573d6000803e3d6000fd5b505050506040513d602081101561168557600080fd5b50519050801580611717575061171581601060009054906101000a90046001600160a01b03166001600160a01b031663900cf0cf6040518163ffffffff1660e01b815260040160206040518083038186803b1580156116e357600080fd5b505afa1580156116f7573d6000803e3d6000fd5b505050506040513d602081101561170d57600080fd5b5051906141ba565b155b611768576040805162461bcd60e51b815260206004820152601e60248201527f4d7573742063616c6c20617420612077697468647261772065706f63682e0000604482015290519081900360640190fd5b8015806117c857506107086117c542601060009054906101000a90046001600160a01b03166001600160a01b031663c5967c266040518163ffffffff1660e01b815260040160206040518083038186803b158015610b1057600080fd5b11155b6118035760405162461bcd60e51b815260040180806020018281038252602c8152602001806150ac602c913960400191505060405180910390fd5b80158061188b5750601060009054906101000a90046001600160a01b03166001600160a01b031663900cf0cf6040518163ffffffff1660e01b815260040160206040518083038186803b15801561185957600080fd5b505afa15801561186d573d6000803e3d6000fd5b505050506040513d602081101561188357600080fd5b505160195414155b6118ce576040805162461bcd60e51b815260206004820152600f60248201526e20b63932b0b23c9031b0b63632b21760891b604482015290519081900360640190fd5b8015806119555750601060009054906101000a90046001600160a01b03166001600160a01b031663900cf0cf6040518163ffffffff1660e01b815260040160206040518083038186803b15801561192457600080fd5b505afa158015611938573d6000803e3d6000fd5b505050506040513d602081101561194e57600080fd5b5051601854145b61199f576040805162461bcd60e51b815260206004820152601660248201527524b734ba34b0ba32903830b93a1018903334b939ba1760511b604482015290519081900360640190fd5b60145415611a5457601054600e546119c5916001600160a01b0391821691166000613076565b601054601454600e546119e6926001600160a01b0391821692911690613076565b6010546014546040805163534a7e1d60e11b81526004810192909252516001600160a01b039092169163a694fc3a9160248082019260009290919082900301818387803b158015611a3657600080fd5b505af1158015611a4a573d6000803e3d6000fd5b5050600060145550505b601060009054906101000a90046001600160a01b03166001600160a01b031663900cf0cf6040518163ffffffff1660e01b815260040160206040518083038186803b158015611aa257600080fd5b505afa158015611ab6573d6000803e3d6000fd5b505050506040513d6020811015611acc57600080fd5b50516019555043601b8190556000908152600c602090815260408083203284529091528082208054600160ff1991821681179092553384529190922080549091169091179055565b6000806000611b24846007613ef6565b9150915081610f8157611b356109a4565b6108e6565b600061099a611b47612f44565b84610f78856040518060600160405280602581526020016152f96025913960016000611b71612f44565b6001600160a01b03908116825260208083019390935260409182016000908120918d168152925290205491906133ce565b60125481565b600061099a611bb5612f44565b848461318e565b601454601054604080516370a0823160e01b815230600482015290516000938493611c469391926001600160a01b03909116916370a08231916024808301926020929190829003018186803b158015611c1457600080fd5b505afa158015611c28573d6000803e3d6000fd5b505050506040513d6020811015611c3e57600080fd5b505190612eea565b90506000611c526109a4565b9050801580611c5f575081155b15611c6e5783925050506108eb565b60006111a0836108da8785612e2a565b6010546001600160a01b031681565b611c95613034565b15611cd15760405162461bcd60e51b815260040180806020018281038252602681526020018061526a6026913960400191505060405180910390fd5b611cd9613055565b15611d155760405162461bcd60e51b815260040180806020018281038252602681526020018061526a6026913960400191505060405180910390fd5b338015611e4857611d24614f15565b506001600160a01b038082166000908152600d6020908152604091829020825161012081018452815481526001820154928101929092526002810154909316918101919091526003820154606082015260048201546080820152600582015460a0820152600682015460c0820152600782015460e0820152600890910154610100820152611db18261086d565b6080820152611dbe611020565b606082019081526001600160a01b038381166000908152600d602090815260409182902085518155908501516001820155908401516002820180546001600160a01b0319169190931617909155905160038201556080820151600482015560a0820151600582015560c0820151600682015560e08201516007820155610100909101516008909101555b336000908152600d602052604090208054421015611e9d576040805162461bcd60e51b815260206004820152600d60248201526c5374696c6c206c6f636b65642160981b604482015290519081900360640190fd5b60008411611eec576040805162461bcd60e51b81526020600482015260176024820152762737903d32b9379030b6b7bab73a1030b63637bbb2b21760491b604482015290519081900360640190fd5b601b541580611f0057508060070154601b54115b611f3b5760405162461bcd60e51b81526004018080602001828103825260258152602001806150d86025913960400191505060405180910390fd5b611f4433611439565b841415611f5357611f53613ff3565b611f5e33308661318e565b6005810154611f6d9085612eea565b6005820155601654611f7f9085612eea565b6016556000611f8d85612605565b6006830154909150611f9f9082612eea565b6006830155601554611fb19082612eea565b6015554360088301556040805186815260208101839052815133927fcbc7c7858f9ab8ce22517d4b910042540172c3d579222cf6716e222f341ca371928290030190a2601060009054906101000a90046001600160a01b03166001600160a01b03166313f24daf6040518163ffffffff1660e01b815260040160206040518083038186803b15801561204257600080fd5b505afa158015612056573d6000803e3d6000fd5b505050506040513d602081101561206c57600080fd5b50516120835761207b84613465565b612083614221565b5050436000908152600c602090815260408083203284529091528082208054600160ff1991821681179092553384529190922080549091169091179055505050565b600b6020526000908152604090205460ff1681565b600f546001600160a01b031681565b6120f1613034565b1561212d5760405162461bcd60e51b815260040180806020018281038252602681526020018061526a6026913960400191505060405180910390fd5b612135613055565b156121715760405162461bcd60e51b815260040180806020018281038252602681526020018061526a6026913960400191505060405180910390fd5b3380156122a457612180614f15565b506001600160a01b038082166000908152600d6020908152604091829020825161012081018452815481526001820154928101929092526002810154909316918101919091526003820154606082015260048201546080820152600582015460a0820152600682015460c0820152600782015460e082015260089091015461010082015261220d8261086d565b608082015261221a611020565b606082019081526001600160a01b038381166000908152600d602090815260409182902085518155908501516001820155908401516002820180546001600160a01b0319169190931617909155905160038201556080820151600482015560a0820151600582015560c0820151600682015560e08201516007820155610100909101516008909101555b600083116122f3576040805162461bcd60e51b81526020600482015260176024820152762737903d32b9379030b6b7bab73a1030b63637bbb2b21760491b604482015290519081900360640190fd5b336000908152600d6020526040902060058101541580156123235750601a54158061232357508060080154601a54115b61235e5760405162461bcd60e51b81526004018080602001828103825260258152602001806150616025913960400191505060405180910390fd5b60125483101561236e5760125492505b600061237a4285612eea565b60018301859055825490915081111561239757612397338261440e565b60006123a286611bbc565b600e549091506123bd906001600160a01b031633308961442a565b6123c7338261448a565b601060009054906101000a90046001600160a01b03166001600160a01b031663900cf0cf6040518163ffffffff1660e01b815260040160206040518083038186803b15801561241557600080fd5b505afa158015612429573d6000803e3d6000fd5b505050506040513d602081101561243f57600080fd5b505160195414806124c75750601060009054906101000a90046001600160a01b03166001600160a01b03166313f24daf6040518163ffffffff1660e01b815260040160206040518083038186803b15801561249957600080fd5b505afa1580156124ad573d6000803e3d6000fd5b505050506040513d60208110156124c357600080fd5b5051155b1561257157601054600e546124ea916001600160a01b0391821691166000613076565b601054600e54612507916001600160a01b03918216911688613076565b6010546040805163534a7e1d60e11b81526004810189905290516001600160a01b039092169163a694fc3a9160248082019260009290919082900301818387803b15801561255457600080fd5b505af1158015612568573d6000803e3d6000fd5b50505050612582565b60145461257e9087612eea565b6014555b4360078401556040805187815260208101839052815133927f90890809c654f11d6e72a28fa60149770a0d11ec6c92319d6ceb2bb0a4ea1a15928290030190a25050436000908152600c602090815260408083203284529091528082208054600160ff199182168117909255338452919092208054909116909117905550505050565b601454601054604080516370a0823160e01b81523060048201529051600093849361265d9391926001600160a01b03909116916370a08231916024808301926020929190829003018186803b158015611c1457600080fd5b905060006126696109a4565b9050801580612676575081155b156126855783925050506108eb565b60006111a0826108da8786612e2a565b61269d612f44565b6001600160a01b03166126ae61151e565b6001600160a01b0316146126f7576040805162461bcd60e51b81526020600482018190526024820152600080516020615189833981519152604482015290519081900360640190fd5b6001600160a01b03166000908152600b60205260409020805460ff19166001179055565b6001600160a01b03918216600090815260016020908152604080832093909416825291909152205490565b6000811580612753575082155b1561275f575082610f81565b60006111a0836108da8787612e2a565b601c818154811061277c57fe5b600091825260209091206003909102018054600182015460029092015490925083565b6127a7612f44565b6001600160a01b03166127b861151e565b6001600160a01b031614612801576040805162461bcd60e51b81526020600482018190526024820152600080516020615189833981519152604482015290519081900360640190fd5b6001600160a01b0381166128465760405162461bcd60e51b8152600401808060200182810382526026815260200180614fd16026913960400191505060405180910390fd5b600a546040516001600160a01b038084169216907f8be0079c531659141344cd1fd0a4f28419497f9722a3daafe3b4186f6b6457e090600090a3600a80546001600160a01b0319166001600160a01b0392909216919091179055565b336000908152600b602052604090205460ff16806128cf5750336128c461151e565b6001600160a01b0316145b61291b576040805162461bcd60e51b815260206004820152601860248201527718d85b1b195c881a5cc81b9bdd08185d5d1a1bdc9a5e995960421b604482015290519081900360640190fd5b612923613034565b1561295f5760405162461bcd60e51b815260040180806020018281038252602681526020018061526a6026913960400191505060405180910390fd5b612967613055565b156129a35760405162461bcd60e51b815260040180806020018281038252602681526020018061526a6026913960400191505060405180910390fd5b6001600160a01b038316301415806129cf57506129cb6016546129c530611439565b90612dcd565b8111155b6129d857600080fd5b600e546001600160a01b0384811691161415612a255760405162461bcd60e51b81526004018080602001828103825260228152602001806150196022913960400191505060405180910390fd5b612a396001600160a01b038416838361457a565b5050436000908152600c602090815260408083203284529091528082208054600160ff199182168117909255338452919092208054909116909117905550565b6000811580612a86575082155b15612a92575082610f81565b60006111a0846108da8786612e2a565b612aaa613034565b15612ae65760405162461bcd60e51b815260040180806020018281038252602681526020018061526a6026913960400191505060405180910390fd5b612aee613055565b15612b2a5760405162461bcd60e51b815260040180806020018281038252602681526020018061526a6026913960400191505060405180910390fd5b338015612c5d57612b39614f15565b506001600160a01b038082166000908152600d6020908152604091829020825161012081018452815481526001820154928101929092526002810154909316918101919091526003820154606082015260048201546080820152600582015460a0820152600682015460c0820152600782015460e0820152600890910154610100820152612bc68261086d565b6080820152612bd3611020565b606082019081526001600160a01b038381166000908152600d602090815260409182902085518155908501516001820155908401516002820180546001600160a01b0319169190931617909155905160038201556080820151600482015560a0820151600582015560c0820151600682015560e08201516007820155610100909101516008909101555b601060009054906101000a90046001600160a01b03166001600160a01b03166313f24daf6040518163ffffffff1660e01b815260040160206040518083038186803b158015612cab57600080fd5b505afa158015612cbf573d6000803e3d6000fd5b505050506040513d6020811015612cd557600080fd5b5051612d125760405162461bcd60e51b81526004018080602001828103825260218152602001806150fd6021913960400191505060405180910390fd5b610d51614221565b612d22614f6a565b601c612d2c611020565b81548110612d3657fe5b90600052602060002090600302016040518060600160405290816000820154815260200160018201548152602001600282015481525050905090565b612d7a614f6a565b601c612d8583611454565b81548110612d8f57fe5b906000526020600020906003020160405180606001604052908160008201548152602001600182015481526020016002820154815250509050919050565b600082821115612e24576040805162461bcd60e51b815260206004820152601e60248201527f536166654d6174683a207375627472616374696f6e206f766572666c6f770000604482015290519081900360640190fd5b50900390565b600082612e395750600061099e565b82820282848281612e4657fe5b0414610f815760405162461bcd60e51b81526004018080602001828103825260218152602001806151406021913960400191505060405180910390fd5b6000808211612ed9576040805162461bcd60e51b815260206004820152601a60248201527f536166654d6174683a206469766973696f6e206279207a65726f000000000000604482015290519081900360640190fd5b818381612ee257fe5b049392505050565b600082820183811015610f81576040805162461bcd60e51b815260206004820152601b60248201527f536166654d6174683a206164646974696f6e206f766572666c6f770000000000604482015290519081900360640190fd5b3390565b6001600160a01b038316612f8d5760405162461bcd60e51b81526004018080602001828103825260248152602001806151ef6024913960400191505060405180910390fd5b6001600160a01b038216612fd25760405162461bcd60e51b8152600401808060200182810382526022815260200180614ff76022913960400191505060405180910390fd5b6001600160a01b03808416600081815260016020908152604080832094871680845294825291829020859055815185815291517f8c5be1e5ebec7d5bd14f71427d1e84f3dd0314c0f7b2291e5b200ac8c7c3b9259281900390910190a3505050565b436000908152600c6020908152604080832032845290915290205460ff1690565b436000908152600c6020908152604080832033845290915290205460ff1690565b8015806130fc575060408051636eb1769f60e11b81523060048201526001600160a01b03848116602483015291519185169163dd62ed3e91604480820192602092909190829003018186803b1580156130ce57600080fd5b505afa1580156130e2573d6000803e3d6000fd5b505050506040513d60208110156130f857600080fd5b5051155b6131375760405162461bcd60e51b81526004018080602001828103825260368152602001806152906036913960400191505060405180910390fd5b604080516001600160a01b038416602482015260448082018490528251808303909101815260649091019091526020810180516001600160e01b031663095ea7b360e01b1790526131899084906145c8565b505050565b336000908152600b602052604090205460ff16806131bb5750336131b061151e565b6001600160a01b0316145b8061323c575060115460408051632364d3dd60e21b8152905133926001600160a01b031691638d934f74916004808301926020929190829003018186803b15801561320557600080fd5b505afa158015613219573d6000803e3d6000fd5b505050506040513d602081101561322f57600080fd5b50516001600160a01b0316145b8061324657503033145b8061326957506001600160a01b0382166000908152600b602052604090205460ff165b8061328c5750816001600160a01b031661328161151e565b6001600160a01b0316145b8061330f575060115460408051632364d3dd60e21b815290516001600160a01b03808616931691638d934f74916004808301926020929190829003018186803b1580156132d857600080fd5b505afa1580156132ec573d6000803e3d6000fd5b505050506040513d602081101561330257600080fd5b50516001600160a01b0316145b806133225750306001600160a01b038316145b6133c3576001600160a01b038281166000908152600d60205260409020600281015490918581169116146133875760405162461bcd60e51b815260040180806020018281038252602281526020018061511e6022913960400191505060405180910390fd5b6002810180546001600160a01b03191690556012546000906133aa904290612eea565b82549091508111156133c0576133c0848261440e565b50505b613189838383614679565b6000818484111561345d5760405162461bcd60e51b81526004018080602001828103825283818151815260200191508051906020019080838360005b8381101561342257818101518382015260200161340a565b50505050905090810190601f16801561344f5780820380516001836020036101000a031916815260200191505b509250505060405180910390fd5b505050900390565b601054604080516313f24daf60e01b815290516000926001600160a01b0316916313f24daf916004808301926020929190829003018186803b1580156134aa57600080fd5b505afa1580156134be573d6000803e3d6000fd5b505050506040513d60208110156134d457600080fd5b50519050801580613534575061353281601060009054906101000a90046001600160a01b03166001600160a01b031663900cf0cf6040518163ffffffff1660e01b815260040160206040518083038186803b1580156116e357600080fd5b155b613585576040805162461bcd60e51b815260206004820152601e60248201527f4d7573742063616c6c20617420612077697468647261772065706f63682e0000604482015290519081900360640190fd5b8015806135e557506107086135e242601060009054906101000a90046001600160a01b03166001600160a01b031663c5967c266040518163ffffffff1660e01b815260040160206040518083038186803b158015610b1057600080fd5b11155b6136205760405162461bcd60e51b815260040180806020018281038252602c8152602001806150ac602c913960400191505060405180910390fd5b8015806136a85750601060009054906101000a90046001600160a01b03166001600160a01b031663900cf0cf6040518163ffffffff1660e01b815260040160206040518083038186803b15801561367657600080fd5b505afa15801561368a573d6000803e3d6000fd5b505050506040513d60208110156136a057600080fd5b505160185414155b6136eb576040805162461bcd60e51b815260206004820152600f60248201526e20b63932b0b23c9031b0b63632b21760891b604482015290519081900360640190fd5b600f5460408051632587701560e11b815230600482015290516000926001600160a01b031691634b0ee02a916024808301926020929190829003018186803b15801561373657600080fd5b505afa15801561374a573d6000803e3d6000fd5b505050506040513d602081101561376057600080fd5b50516016549091501561377f57613779306016546147d4565b60006016555b6015546137f357601060009054906101000a90046001600160a01b03166001600160a01b031663b88a802f6040518163ffffffff1660e01b8152600401600060405180830381600087803b1580156137d657600080fd5b505af11580156137ea573d6000803e3d6000fd5b50505050613bcb565b600e54604080516370a0823160e01b815230600482015290516000926001600160a01b0316916370a08231916024808301926020929190829003018186803b15801561383e57600080fd5b505afa158015613852573d6000803e3d6000fd5b505050506040513d602081101561386857600080fd5b50516015805460009091556014549192509081111561389b5760145461388f908290612dcd565b600060145590506138af565b6014546138a89082612dcd565b6014555060005b8015613b5f5760105460408051632e1a7d4d60e01b81526004810184905290516001600160a01b0390921691632e1a7d4d9160248082019260009290919082900301818387803b15801561390257600080fd5b505af1158015613916573d6000803e3d6000fd5b50506017546139289250905082612eea565b601755600e54604080516370a0823160e01b815230600482015290516000926001600160a01b0316916370a08231916024808301926020929190829003018186803b15801561397657600080fd5b505afa15801561398a573d6000803e3d6000fd5b505050506040513d60208110156139a057600080fd5b5051905060006139b08285612dcd565b905060006139be8483612dcd565b9050871580613acc5750600081118015613acc5750600e5460115460408051632364d3dd60e21b8152905184936001600160a01b039081169363dd62ed3e93911691638d934f7491600480820192602092909190829003018186803b158015613a2657600080fd5b505afa158015613a3a573d6000803e3d6000fd5b505050506040513d6020811015613a5057600080fd5b5051604080516001600160e01b031960e085901b1681526001600160a01b039092166004830152306024830152516044808301926020929190829003018186803b158015613a9d57600080fd5b505afa158015613ab1573d6000803e3d6000fd5b505050506040513d6020811015613ac757600080fd5b505110155b15613b575760115460408051632364d3dd60e21b81529051613b57926001600160a01b031691638d934f74916004808301926020929190829003018186803b158015613b1757600080fd5b505afa158015613b2b573d6000803e3d6000fd5b505050506040513d6020811015613b4157600080fd5b5051600e546001600160a01b031690308461442a565b505050613bc8565b601060009054906101000a90046001600160a01b03166001600160a01b031663b88a802f6040518163ffffffff1660e01b8152600401600060405180830381600087803b158015613baf57600080fd5b505af1158015613bc3573d6000803e3d6000fd5b505050505b50505b600f546040805163010158bb60e51b81523060048201529051600092613c94926001600160a01b039091169163202b176091602480820192602092909190829003018186803b158015613c1d57600080fd5b505afa158015613c31573d6000803e3d6000fd5b505050506040513d6020811015613c4757600080fd5b5051600f5460408051635a46d3b560e01b815230600482015290516001600160a01b0390921691635a46d3b591602480820192602092909190829003018186803b158015610b1057600080fd5b90508015613d0857600f546040805163579587b360e11b81523060048201526024810184905290516001600160a01b039092169163af2b0f669160448082019260009290919082900301818387803b158015613cef57600080fd5b505af1158015613d03573d6000803e3d6000fd5b505050505b600f5460408051632587701560e11b815230600482015290516000926001600160a01b031691634b0ee02a916024808301926020929190829003018186803b158015613d5357600080fd5b505afa158015613d67573d6000803e3d6000fd5b505050506040513d6020811015613d7d57600080fd5b505190506000613d8d8285612dcd565b90506000613d99612d1a565b6040015190506000613dc8613dc1613daf6109a4565b6108da86670de0b6b3a7640000612e2a565b8390612eea565b9050613dd2614f6a565b50604080516060810182524381526020808201868152828401858152601c805460018101825560009190915284517f0e4562a10381dec21b205ed72637e6b1b523bdd0e4d4d50af5cd23dd4500a21160039092029182015591517f0e4562a10381dec21b205ed72637e6b1b523bdd0e4d4d50af5cd23dd4500a212830155517f0e4562a10381dec21b205ed72637e6b1b523bdd0e4d4d50af5cd23dd4500a21390910155601054835163900cf0cf60e01b8152935192936001600160a01b039091169263900cf0cf92600480840193919291829003018186803b158015613eb857600080fd5b505afa158015613ecc573d6000803e3d6000fd5b505050506040513d6020811015613ee257600080fd5b5051601855505043601a5550505050505050565b60008060008411613f47576040805162461bcd60e51b815260206004820152601660248201527504552433230536e617073686f743a20696420697320360541b604482015290519081900360640190fd5b613f5160096148d0565b841115613fa5576040805162461bcd60e51b815260206004820152601d60248201527f4552433230536e617073686f743a206e6f6e6578697374656e74206964000000604482015290519081900360640190fd5b6000613fb184866148d4565b8454909150811415613fca576000809250925050613fec565b6001846001018281548110613fdb57fe5b906000526020600020015492509250505b9250929050565b336000908152600d602052604090206004015480156141b757336000818152600d6020526040812060040155600f54614038916001600160a01b03909116908361457a565b600080601060009054906101000a90046001600160a01b03166001600160a01b0316638278b53b6040518163ffffffff1660e01b815260040160206040518083038186803b15801561408957600080fd5b505afa15801561409d573d6000803e3d6000fd5b505050506040513d60208110156140b357600080fd5b5051905060648111156140f75760405162461bcd60e51b815260040180806020018281038252602d815260200180615213602d913960400191505060405180910390fd5b61410660646108da8584612e2a565b9150811561417a57600f546040805163282d3fdf60e01b81523360048201526024810185905290516001600160a01b039092169163282d3fdf9160448082019260009290919082900301818387803b15801561416157600080fd5b505af1158015614175573d6000803e3d6000fd5b505050505b6040805184815260208101849052815133927fd6f2c8500df5b44f11e9e48b91ff9f1b9d81bc496d55570c2b1b75bf65243f51928290030190a250505b50565b6000808211614210576040805162461bcd60e51b815260206004820152601860248201527f536166654d6174683a206d6f64756c6f206279207a65726f0000000000000000604482015290519081900360640190fd5b81838161421957fe5b069392505050565b336000908152600d602052604090208054421015614276576040805162461bcd60e51b815260206004820152600d60248201526c5374696c6c206c6f636b65642160981b604482015290519081900360640190fd5b60008160050154116142c9576040805162461bcd60e51b81526020600482015260176024820152762737903d32b9379030b6b7bab73a1030b63637bbb2b21760491b604482015290519081900360640190fd5b601060009054906101000a90046001600160a01b03166001600160a01b03166313f24daf6040518163ffffffff1660e01b815260040160206040518083038186803b15801561431757600080fd5b505afa15801561432b573d6000803e3d6000fd5b505050506040513d602081101561434157600080fd5b5051158061435457508060080154601a54115b61438f5760405162461bcd60e51b81526004018080602001828103825260338152602001806152c66033913960400191505060405180910390fd5b60068101546017546143a19082612dcd565b6017556005820180546000918290556006840191909155600e546143cf906001600160a01b0316338461457a565b6040805182815260208101849052815133927ff279e6a1f5e320cca91135676d9cb6e44ca8a08c0b88342bcdb1144f6511b568928290030190a2505050565b6001600160a01b039091166000908152600d6020526040902055565b604080516001600160a01b0380861660248301528416604482015260648082018490528251808303909101815260849091019091526020810180516001600160e01b03166323b872dd60e01b1790526144849085906145c8565b50505050565b6001600160a01b0382166144e5576040805162461bcd60e51b815260206004820152601f60248201527f45524332303a206d696e7420746f20746865207a65726f206164647265737300604482015290519081900360640190fd5b6144f160008383614975565b6002546144fe9082612eea565b6002556001600160a01b0382166000908152602081905260409020546145249082612eea565b6001600160a01b0383166000818152602081815260408083209490945583518581529351929391927fddf252ad1be2c89b69c2b068fc378daa952ba7f163c4a11628f55a4df523b3ef9281900390910190a35050565b604080516001600160a01b038416602482015260448082018490528251808303909101815260649091019091526020810180516001600160e01b031663a9059cbb60e01b1790526131899084905b606061461d826040518060400160405280602081526020017f5361666545524332303a206c6f772d6c6576656c2063616c6c206661696c6564815250856001600160a01b0316614bff9092919063ffffffff16565b8051909150156131895780806020019051602081101561463c57600080fd5b50516131895760405162461bcd60e51b815260040180806020018281038252602a815260200180615240602a913960400191505060405180910390fd5b6001600160a01b0383166146be5760405162461bcd60e51b81526004018080602001828103825260258152602001806151ca6025913960400191505060405180910390fd5b6001600160a01b0382166147035760405162461bcd60e51b8152600401808060200182810382526023815260200180614f8c6023913960400191505060405180910390fd5b61470e838383614975565b61474b8160405180606001604052806026815260200161503b602691396001600160a01b03861660009081526020819052604090205491906133ce565b6001600160a01b03808516600090815260208190526040808220939093559084168152205461477a9082612eea565b6001600160a01b038084166000818152602081815260409182902094909455805185815290519193928716927fddf252ad1be2c89b69c2b068fc378daa952ba7f163c4a11628f55a4df523b3ef92918290030190a3505050565b6001600160a01b0382166148195760405162461bcd60e51b81526004018080602001828103825260218152602001806151a96021913960400191505060405180910390fd5b61482582600083614975565b61486281604051806060016040528060228152602001614faf602291396001600160a01b03851660009081526020819052604090205491906133ce565b6001600160a01b0383166000908152602081905260409020556002546148889082612dcd565b6002556040805182815290516000916001600160a01b038516917fddf252ad1be2c89b69c2b068fc378daa952ba7f163c4a11628f55a4df523b3ef9181900360200190a35050565b5490565b81546000906148e55750600061099e565b82546000905b808210156149345760006148ff8383614c16565b90508486828154811061490e57fe5b906000526020600020015411156149275780915061492e565b8060010192505b506148eb565b60008211801561495c57508385600184038154811061494f57fe5b9060005260206000200154145b1561496d575060001901905061099e565b50905061099e565b826001600160a01b03811615614ab15761498d614f15565b506001600160a01b038082166000908152600d6020908152604091829020825161012081018452815481526001820154928101929092526002810154909316918101919091526003820154606082015260048201546080820152600582015460a0820152600682015460c0820152600782015460e0820152600890910154610100820152614a1a8261086d565b6080820152614a27611020565b606082019081526001600160a01b038381166000908152600d602090815260409182902085518155908501516001820155908401516002820180546001600160a01b0319169190931617909155905160038201556080820151600482015560a0820151600582015560c0820151600682015560e08201516007820155610100909101516008909101555b826001600160a01b03811615614bed57614ac9614f15565b506001600160a01b038082166000908152600d6020908152604091829020825161012081018452815481526001820154928101929092526002810154909316918101919091526003820154606082015260048201546080820152600582015460a0820152600682015460c0820152600782015460e0820152600890910154610100820152614b568261086d565b6080820152614b63611020565b606082019081526001600160a01b038381166000908152600d602090815260409182902085518155908501516001820155908401516002820180546001600160a01b0319169190931617909155905160038201556080820151600482015560a0820151600582015560c0820151600682015560e08201516007820155610100909101516008909101555b614bf8858585614c3b565b5050505050565b6060614c0e8484600085614c93565b949350505050565b60006002808306600285060181614c2957fe5b04600283046002850401019392505050565b614c46838383613189565b6001600160a01b038316614c6a57614c5d82614def565b614c65614e19565b613189565b6001600160a01b038216614c8157614c5d83614def565b614c8a83614def565b61318982614def565b606082471015614cd45760405162461bcd60e51b81526004018080602001828103825260268152602001806150866026913960400191505060405180910390fd5b614cdd85614e28565b614d2e576040805162461bcd60e51b815260206004820152601d60248201527f416464726573733a2063616c6c20746f206e6f6e2d636f6e7472616374000000604482015290519081900360640190fd5b60006060866001600160a01b031685876040518082805190602001908083835b60208310614d6d5780518252601f199092019160209182019101614d4e565b6001836020036101000a03801982511681845116808217855250505050505090500191505060006040518083038185875af1925050503d8060008114614dcf576040519150601f19603f3d011682016040523d82523d6000602084013e614dd4565b606091505b5091509150614de4828286614e2e565b979650505050505050565b6001600160a01b03811660009081526006602052604090206141b790614e1483611439565b614e94565b614e266007614e146109a4565b565b3b151590565b60608315614e3d575081610f81565b825115614e4d5782518084602001fd5b60405162461bcd60e51b815260206004820181815284516024840152845185939192839260440191908501908083836000831561342257818101518382015260200161340a565b6000614ea060096148d0565b905080614eac84614ee0565b1015613189578254600180820185556000858152602080822090930193909355938401805494850181558252902090910155565b8054600090614ef1575060006108eb565b815482906000198101908110614f0357fe5b906000526020600020015490506108eb565b604051806101200160405280600081526020016000815260200160006001600160a01b031681526020016000815260200160008152602001600081526020016000815260200160008152602001600081525090565b6040518060600160405280600081526020016000815260200160008152509056fe45524332303a207472616e7366657220746f20746865207a65726f206164647265737345524332303a206275726e20616d6f756e7420657863656564732062616c616e63654f776e61626c653a206e6577206f776e657220697320746865207a65726f206164647265737345524332303a20617070726f766520746f20746865207a65726f206164647265737343616e6e6f74206272696e6720646f776e207072696365206f66204d41535445522e45524332303a207472616e7366657220616d6f756e7420657863656564732062616c616e636543616e6e6f74207374616b65207769746820612077697468647261772070656e64696e672e416464726573733a20696e73756666696369656e742062616c616e636520666f722063616c6c4d7573742062652063616c6c6564203330206d696e75746573206265666f72652065706f636820656e64732e43616e6e6f7420776974686472617720776974682061207374616b652070656e64696e672e43616c6c207265717565737453656c6c546f5468656f727920696e73746561642e526563656976657220646964206e6f7420617070726f7665207472616e736665722e536166654d6174683a206d756c7469706c69636174696f6e206f766572666c6f7745524332303a207472616e7366657220616d6f756e74206578636565647320616c6c6f77616e63654f776e61626c653a2063616c6c6572206973206e6f7420746865206f776e657245524332303a206275726e2066726f6d20746865207a65726f206164647265737345524332303a207472616e736665722066726f6d20746865207a65726f206164647265737345524332303a20617070726f76652066726f6d20746865207a65726f2061646472657373496e76616c6964206c6f636b2070657263656e746167652c20636865636b207468697320636f6e74726163742e5361666545524332303a204552433230206f7065726174696f6e20646964206e6f742073756363656564436f6e747261637447756172643a206f6e6520626c6f636b2c206f6e652066756e6374696f6e5361666545524332303a20617070726f76652066726f6d206e6f6e2d7a65726f20746f206e6f6e2d7a65726f20616c6c6f77616e6365496e69746961746f7220506172742031206e6f74207965742063616c6c6564206f722063616c6c656420746f6f20736f6f6e2e45524332303a2064656372656173656420616c6c6f77616e63652062656c6f77207a65726fa26469706673582212204442684a23ebb90552018a331cf0d62384c66ae80a01e8eeec38dc251e0f867764736f6c634300060c0033",
  "linkReferences": {},
  "deployedLinkReferences": {}
}