{
  "_format": "hh-sol-artifact-1",
  "contractName": "Master",
  "sourceName": "contracts/Master.sol",
  "abi": [
    {
      "inputs": [
        {
          "internalType": "contract IERC20Lockable",
          "name": "_theory",
          "type": "address"
        },
        {
          "internalType": "contract IERC20Lockable",
          "name": "_game",
          "type": "address"
        },
        {
          "internalType": "contract ITheoretics",
          "name": "_theoretics",
          "type": "address"
        },
        {
          "internalType": "address",
          "name": "_communityFund",
          "type": "address"
        }
      ],
      "stateMutability": "nonpayable",
      "type": "constructor"
    },
    {
      "anonymous": false,
      "inputs": [
        {
          "indexed": true,
          "internalType": "address",
          "name": "owner",
          "type": "address"
        },
        {
          "indexed": true,
          "internalType": "address",
          "name": "spender",
          "type": "address"
        },
        {
          "indexed": false,
          "internalType": "uint256",
          "name": "value",
          "type": "uint256"
        }
      ],
      "name": "Approval",
      "type": "event"
    },
    {
      "anonymous": false,
      "inputs": [
        {
          "indexed": true,
          "internalType": "address",
          "name": "user",
          "type": "address"
        },
        {
          "indexed": false,
          "internalType": "uint256",
          "name": "amountInTheory",
          "type": "uint256"
        },
        {
          "indexed": false,
          "internalType": "uint256",
          "name": "amountOutMaster",
          "type": "uint256"
        }
      ],
      "name": "Deposit",
      "type": "event"
    },
    {
      "anonymous": false,
      "inputs": [
        {
          "indexed": true,
          "internalType": "address",
          "name": "previousOwner",
          "type": "address"
        },
        {
          "indexed": true,
          "internalType": "address",
          "name": "newOwner",
          "type": "address"
        }
      ],
      "name": "OwnershipTransferred",
      "type": "event"
    },
    {
      "anonymous": false,
      "inputs": [
        {
          "indexed": true,
          "internalType": "address",
          "name": "user",
          "type": "address"
        },
        {
          "indexed": false,
          "internalType": "uint256",
          "name": "reward",
          "type": "uint256"
        },
        {
          "indexed": false,
          "internalType": "uint256",
          "name": "lockAmount",
          "type": "uint256"
        }
      ],
      "name": "RewardPaid",
      "type": "event"
    },
    {
      "anonymous": false,
      "inputs": [
        {
          "indexed": false,
          "internalType": "uint256",
          "name": "id",
          "type": "uint256"
        }
      ],
      "name": "Snapshot",
      "type": "event"
    },
    {
      "anonymous": false,
      "inputs": [
        {
          "indexed": true,
          "internalType": "address",
          "name": "from",
          "type": "address"
        },
        {
          "indexed": true,
          "internalType": "address",
          "name": "to",
          "type": "address"
        },
        {
          "indexed": false,
          "internalType": "uint256",
          "name": "value",
          "type": "uint256"
        }
      ],
      "name": "Transfer",
      "type": "event"
    },
    {
      "anonymous": false,
      "inputs": [
        {
          "indexed": true,
          "internalType": "address",
          "name": "user",
          "type": "address"
        },
        {
          "indexed": false,
          "internalType": "uint256",
          "name": "amountInMaster",
          "type": "uint256"
        },
        {
          "indexed": false,
          "internalType": "uint256",
          "name": "amountOutTheory",
          "type": "uint256"
        }
      ],
      "name": "Withdraw",
      "type": "event"
    },
    {
      "anonymous": false,
      "inputs": [
        {
          "indexed": true,
          "internalType": "address",
          "name": "user",
          "type": "address"
        },
        {
          "indexed": false,
          "internalType": "uint256",
          "name": "amountInMaster",
          "type": "uint256"
        }
      ],
      "name": "WithdrawRequest",
      "type": "event"
    },
    {
      "inputs": [
        {
          "internalType": "address",
          "name": "_toAdd",
          "type": "address"
        }
      ],
      "name": "addAuthorized",
      "outputs": [],
      "stateMutability": "nonpayable",
      "type": "function"
    },
    {
      "inputs": [
        {
          "internalType": "address",
          "name": "owner",
          "type": "address"
        },
        {
          "internalType": "address",
          "name": "spender",
          "type": "address"
        }
      ],
      "name": "allowance",
      "outputs": [
        {
          "internalType": "uint256",
          "name": "",
          "type": "uint256"
        }
      ],
      "stateMutability": "view",
      "type": "function"
    },
    {
      "inputs": [
        {
          "internalType": "address",
          "name": "userAddress",
          "type": "address"
        }
      ],
      "name": "anyGameAvailableToClaim",
      "outputs": [
        {
          "internalType": "bool",
          "name": "",
          "type": "bool"
        }
      ],
      "stateMutability": "view",
      "type": "function"
    },
    {
      "inputs": [
        {
          "internalType": "address",
          "name": "spender",
          "type": "address"
        },
        {
          "internalType": "uint256",
          "name": "amount",
          "type": "uint256"
        }
      ],
      "name": "approve",
      "outputs": [
        {
          "internalType": "bool",
          "name": "",
          "type": "bool"
        }
      ],
      "stateMutability": "nonpayable",
      "type": "function"
    },
    {
      "inputs": [
        {
          "internalType": "address",
          "name": "",
          "type": "address"
        }
      ],
      "name": "authorized",
      "outputs": [
        {
          "internalType": "bool",
          "name": "",
          "type": "bool"
        }
      ],
      "stateMutability": "view",
      "type": "function"
    },
    {
      "inputs": [
        {
          "internalType": "address",
          "name": "account",
          "type": "address"
        }
      ],
      "name": "balanceOf",
      "outputs": [
        {
          "internalType": "uint256",
          "name": "",
          "type": "uint256"
        }
      ],
      "stateMutability": "view",
      "type": "function"
    },
    {
      "inputs": [
        {
          "internalType": "address",
          "name": "account",
          "type": "address"
        },
        {
          "internalType": "uint256",
          "name": "snapshotId",
          "type": "uint256"
        }
      ],
      "name": "balanceOfAt",
      "outputs": [
        {
          "internalType": "uint256",
          "name": "",
          "type": "uint256"
        }
      ],
      "stateMutability": "view",
      "type": "function"
    },
    {
      "inputs": [
        {
          "internalType": "uint256",
          "name": "amountInTheory",
          "type": "uint256"
        },
        {
          "internalType": "uint256",
          "name": "lockTime",
          "type": "uint256"
        }
      ],
      "name": "buyFromTheory",
      "outputs": [],
      "stateMutability": "nonpayable",
      "type": "function"
    },
    {
      "inputs": [],
      "name": "claimGame",
      "outputs": [],
      "stateMutability": "nonpayable",
      "type": "function"
    },
    {
      "inputs": [],
      "name": "communityFund",
      "outputs": [
        {
          "internalType": "address",
          "name": "",
          "type": "address"
        }
      ],
      "stateMutability": "view",
      "type": "function"
    },
    {
      "inputs": [],
      "name": "decimals",
      "outputs": [
        {
          "internalType": "uint8",
          "name": "",
          "type": "uint8"
        }
      ],
      "stateMutability": "view",
      "type": "function"
    },
    {
      "inputs": [
        {
          "internalType": "address",
          "name": "spender",
          "type": "address"
        },
        {
          "internalType": "uint256",
          "name": "subtractedValue",
          "type": "uint256"
        }
      ],
      "name": "decreaseAllowance",
      "outputs": [
        {
          "internalType": "bool",
          "name": "",
          "type": "bool"
        }
      ],
      "stateMutability": "nonpayable",
      "type": "function"
    },
    {
      "inputs": [],
      "name": "extraTheoryAdded",
      "outputs": [
        {
          "internalType": "uint256",
          "name": "",
          "type": "uint256"
        }
      ],
      "stateMutability": "view",
      "type": "function"
    },
    {
      "inputs": [],
      "name": "extraTheoryStakeRequested",
      "outputs": [
        {
          "internalType": "uint256",
          "name": "",
          "type": "uint256"
        }
      ],
      "stateMutability": "view",
      "type": "function"
    },
    {
      "inputs": [],
      "name": "extraTheoryWithdrawRequested",
      "outputs": [
        {
          "internalType": "uint256",
          "name": "",
          "type": "uint256"
        }
      ],
      "stateMutability": "view",
      "type": "function"
    },
    {
      "inputs": [],
      "name": "game",
      "outputs": [
        {
          "internalType": "contract IERC20Lockable",
          "name": "",
          "type": "address"
        }
      ],
      "stateMutability": "view",
      "type": "function"
    },
    {
      "inputs": [
        {
          "internalType": "address",
          "name": "userAddress",
          "type": "address"
        }
      ],
      "name": "gameAvailableToClaim",
      "outputs": [
        {
          "internalType": "uint256",
          "name": "",
          "type": "uint256"
        }
      ],
      "stateMutability": "view",
      "type": "function"
    },
    {
      "inputs": [
        {
          "internalType": "address",
          "name": "spender",
          "type": "address"
        },
        {
          "internalType": "uint256",
          "name": "addedValue",
          "type": "uint256"
        }
      ],
      "name": "increaseAllowance",
      "outputs": [
        {
          "internalType": "bool",
          "name": "",
          "type": "bool"
        }
      ],
      "stateMutability": "nonpayable",
      "type": "function"
    },
    {
      "inputs": [],
      "name": "initiatePart1",
      "outputs": [],
      "stateMutability": "nonpayable",
      "type": "function"
    },
    {
      "inputs": [],
      "name": "initiatePart2",
      "outputs": [],
      "stateMutability": "nonpayable",
      "type": "function"
    },
    {
      "inputs": [
        {
          "internalType": "address",
          "name": "from",
          "type": "address"
        },
        {
          "internalType": "address",
          "name": "to",
          "type": "address"
        },
        {
          "internalType": "uint256",
          "name": "amount",
          "type": "uint256"
        },
        {
          "internalType": "uint256",
          "name": "lockTo",
          "type": "uint256"
        },
        {
          "internalType": "bool",
          "name": "lockAfter",
          "type": "bool"
        }
      ],
      "name": "lockAndTransferFrom",
      "outputs": [
        {
          "internalType": "bool",
          "name": "",
          "type": "bool"
        }
      ],
      "stateMutability": "nonpayable",
      "type": "function"
    },
    {
      "inputs": [
        {
          "internalType": "uint256",
          "name": "_share",
          "type": "uint256"
        }
      ],
      "name": "masterToTheory",
      "outputs": [
        {
          "internalType": "uint256",
          "name": "",
          "type": "uint256"
        }
      ],
      "stateMutability": "view",
      "type": "function"
    },
    {
      "inputs": [
        {
          "internalType": "uint256",
          "name": "_share",
          "type": "uint256"
        },
        {
          "internalType": "uint256",
          "name": "totalGovernanceToken",
          "type": "uint256"
        },
        {
          "internalType": "uint256",
          "name": "totalShares",
          "type": "uint256"
        }
      ],
      "name": "masterToTheoryOwed",
      "outputs": [
        {
          "internalType": "uint256",
          "name": "",
          "type": "uint256"
        }
      ],
      "stateMutability": "view",
      "type": "function"
    },
    {
      "inputs": [],
      "name": "minLockTime",
      "outputs": [
        {
          "internalType": "uint256",
          "name": "",
          "type": "uint256"
        }
      ],
      "stateMutability": "view",
      "type": "function"
    },
    {
      "inputs": [],
      "name": "name",
      "outputs": [
        {
          "internalType": "string",
          "name": "",
          "type": "string"
        }
      ],
      "stateMutability": "view",
      "type": "function"
    },
    {
      "inputs": [],
      "name": "owner",
      "outputs": [
        {
          "internalType": "address",
          "name": "",
          "type": "address"
        }
      ],
      "stateMutability": "view",
      "type": "function"
    },
    {
      "inputs": [
        {
          "internalType": "address",
          "name": "_toRemove",
          "type": "address"
        }
      ],
      "name": "removeAuthorized",
      "outputs": [],
      "stateMutability": "nonpayable",
      "type": "function"
    },
    {
      "inputs": [],
      "name": "renounceOwnership",
      "outputs": [],
      "stateMutability": "nonpayable",
      "type": "function"
    },
    {
      "inputs": [
        {
          "internalType": "uint256",
          "name": "amountInMaster",
          "type": "uint256"
        }
      ],
      "name": "requestSellToTheory",
      "outputs": [],
      "stateMutability": "nonpayable",
      "type": "function"
    },
    {
      "inputs": [],
      "name": "sellToTheory",
      "outputs": [],
      "stateMutability": "nonpayable",
      "type": "function"
    },
    {
      "inputs": [
        {
          "internalType": "uint256",
          "name": "amount",
          "type": "uint256"
        }
      ],
      "name": "stakeExternalTheory",
      "outputs": [],
      "stateMutability": "nonpayable",
      "type": "function"
    },
    {
      "inputs": [],
      "name": "symbol",
      "outputs": [
        {
          "internalType": "string",
          "name": "",
          "type": "string"
        }
      ],
      "stateMutability": "view",
      "type": "function"
    },
    {
      "inputs": [],
      "name": "theoretics",
      "outputs": [
        {
          "internalType": "contract ITheoretics",
          "name": "",
          "type": "address"
        }
      ],
      "stateMutability": "view",
      "type": "function"
    },
    {
      "inputs": [],
      "name": "theory",
      "outputs": [
        {
          "internalType": "contract IERC20Lockable",
          "name": "",
          "type": "address"
        }
      ],
      "stateMutability": "view",
      "type": "function"
    },
    {
      "inputs": [
        {
          "internalType": "uint256",
          "name": "_amount",
          "type": "uint256"
        }
      ],
      "name": "theoryToMaster",
      "outputs": [
        {
          "internalType": "uint256",
          "name": "",
          "type": "uint256"
        }
      ],
      "stateMutability": "view",
      "type": "function"
    },
    {
      "inputs": [
        {
          "internalType": "uint256",
          "name": "_amount",
          "type": "uint256"
        },
        {
          "internalType": "uint256",
          "name": "totalGovernanceToken",
          "type": "uint256"
        },
        {
          "internalType": "uint256",
          "name": "totalShares",
          "type": "uint256"
        }
      ],
      "name": "theoryToMasterOwed",
      "outputs": [
        {
          "internalType": "uint256",
          "name": "",
          "type": "uint256"
        }
      ],
      "stateMutability": "view",
      "type": "function"
    },
    {
      "inputs": [],
      "name": "totalGameClaimed",
      "outputs": [
        {
          "internalType": "uint256",
          "name": "",
          "type": "uint256"
        }
      ],
      "stateMutability": "view",
      "type": "function"
    },
    {
      "inputs": [],
      "name": "totalSupply",
      "outputs": [
        {
          "internalType": "uint256",
          "name": "",
          "type": "uint256"
        }
      ],
      "stateMutability": "view",
      "type": "function"
    },
    {
      "inputs": [
        {
          "internalType": "uint256",
          "name": "snapshotId",
          "type": "uint256"
        }
      ],
      "name": "totalSupplyAt",
      "outputs": [
        {
          "internalType": "uint256",
          "name": "",
          "type": "uint256"
        }
      ],
      "stateMutability": "view",
      "type": "function"
    },
    {
      "inputs": [
        {
          "internalType": "address",
          "name": "recipient",
          "type": "address"
        },
        {
          "internalType": "uint256",
          "name": "amount",
          "type": "uint256"
        }
      ],
      "name": "transfer",
      "outputs": [
        {
          "internalType": "bool",
          "name": "",
          "type": "bool"
        }
      ],
      "stateMutability": "nonpayable",
      "type": "function"
    },
    {
      "inputs": [
        {
          "internalType": "address",
          "name": "sender",
          "type": "address"
        },
        {
          "internalType": "address",
          "name": "recipient",
          "type": "address"
        },
        {
          "internalType": "uint256",
          "name": "amount",
          "type": "uint256"
        }
      ],
      "name": "transferFrom",
      "outputs": [
        {
          "internalType": "bool",
          "name": "",
          "type": "bool"
        }
      ],
      "stateMutability": "nonpayable",
      "type": "function"
    },
    {
      "inputs": [
        {
          "internalType": "address",
          "name": "newOwner",
          "type": "address"
        }
      ],
      "name": "transferOwnership",
      "outputs": [],
      "stateMutability": "nonpayable",
      "type": "function"
    },
    {
      "inputs": [
        {
          "internalType": "contract IERC20",
          "name": "_token",
          "type": "address"
        },
        {
          "internalType": "address",
          "name": "to",
          "type": "address"
        },
        {
          "internalType": "uint256",
          "name": "amount",
          "type": "uint256"
        }
      ],
      "name": "transferToken",
      "outputs": [],
      "stateMutability": "nonpayable",
      "type": "function"
    },
    {
      "inputs": [],
      "name": "unlockedClaimPenalty",
      "outputs": [
        {
          "internalType": "uint256",
          "name": "",
          "type": "uint256"
        }
      ],
      "stateMutability": "view",
      "type": "function"
    },
    {
      "inputs": [
        {
          "internalType": "address",
          "name": "",
          "type": "address"
        }
      ],
      "name": "userInfo",
      "outputs": [
        {
          "internalType": "uint256",
          "name": "lockToTime",
          "type": "uint256"
        },
        {
          "internalType": "uint256",
          "name": "chosenLockTime",
          "type": "uint256"
        },
        {
          "internalType": "address",
          "name": "approveTransferFrom",
          "type": "address"
        },
        {
          "internalType": "uint256",
          "name": "lastTotalGameClaimed",
          "type": "uint256"
        },
        {
          "internalType": "uint256",
          "name": "withdrawRequested",
          "type": "uint256"
        },
        {
          "internalType": "uint256",
          "name": "lastStakeRequestBlock",
          "type": "uint256"
        },
        {
          "internalType": "uint256",
          "name": "lastWithdrawRequestBlock",
          "type": "uint256"
        }
      ],
      "stateMutability": "view",
      "type": "function"
    },
    {
      "inputs": [
        {
          "internalType": "uint256",
          "name": "amount",
          "type": "uint256"
        }
      ],
      "name": "withdrawExternalTheory",
      "outputs": [],
      "stateMutability": "nonpayable",
      "type": "function"
    }
  ],
  "bytecode": "0x60806040523480156200001157600080fd5b5060405162004b8038038062004b80833981810160405260808110156200003757600080fd5b50805160208083015160408085015160609095015181518083018352600c81526b26b0b9ba32b9102a37b5b2b760a11b8186019081528351808501909452600684526526a0a9aa22a960d11b9584019590955280519596939593949193909291620000a691600391906200018d565b508051620000bc9060049060208401906200018d565b50506005805460ff19166012179055506000620000d862000189565b600a80546001600160a01b0319166001600160a01b038316908117909155604051919250906000907f8be0079c531659141344cd1fd0a4f28419497f9722a3daafe3b4186f6b6457e0908290a350600f80546001600160a01b039586166001600160a01b03199182161790915560108054948616948216949094179093556011805492851692841692909217909155601280549190931691161790556301e1338060135562278d0060145562000229565b3390565b828054600181600116156101000203166002900490600052602060002090601f016020900481019282601f10620001d057805160ff191683800117855562000200565b8280016001018555821562000200579182015b8281111562000200578251825591602001919060010190620001e3565b506200020e92915062000212565b5090565b5b808211156200020e576000815560010162000213565b61494780620002396000396000f3fe608060405234801561001057600080fd5b50600436106102895760003560e01c806395d89b411161015c578063bceae6c4116100ce578063dd62ed3e11610087578063dd62ed3e14610766578063e4d2c45e14610794578063f2fde38b146107bd578063f5537ede146107e3578063f894dd2114610819578063fdb781c81461084257610289565b8063bceae6c4146106b5578063c3fe3e28146106d2578063c4e69329146106da578063c7b728de146106fd578063cf1c316a1461071a578063d3819abc1461074057610289565b8063a60ff76611610120578063a60ff766146105f2578063a77a5d13146105fa578063a9059cbb1461063e578063ab9fb4381461066a578063ad45e4ae14610687578063b91816111461068f57610289565b806395d89b411461059157806397b98e4a14610599578063981b24d0146105a1578063a457c2d7146105be578063a5bd5f4d146105ea57610289565b806339509351116102005780635936e8bd116101b95780635936e8bd1461052e57806364efc79b1461053657806370a0823114610553578063715018a61461057957806378424d58146105815780638da5cb5b1461058957610289565b806339509351146104985780633c32a450146104c4578063485d7d94146104cc5780634ee2cd7e146104f2578063532c26bb1461051e5780635358a2af1461052657610289565b806318160ddd1161025257806318160ddd1461039157806318bb939a146103995780631959a002146103b857806323b872dd1461041e5780632e9c807214610454578063313ce5671461047a57610289565b8062f380f41461028e5780630271dbba146102b257806306fdde03146102cc578063095ea7b31461034957806315f8a69714610389575b600080fd5b61029661084a565b604080516001600160a01b039092168252519081900360200190f35b6102ba610859565b60408051918252519081900360200190f35b6102d461085f565b6040805160208082528351818301528351919283929083019185019080838360005b8381101561030e5781810151838201526020016102f6565b50505050905090810190601f16801561033b5780820380516001836020036101000a031916815260200191505b509250505060405180910390f35b6103756004803603604081101561035f57600080fd5b506001600160a01b0381351690602001356108f5565b604080519115158252519081900360200190f35b6102ba610913565b6102ba610919565b6103b6600480360360208110156103af57600080fd5b503561091f565b005b6103de600480360360208110156103ce57600080fd5b50356001600160a01b0316610cd9565b6040805197885260208801969096526001600160a01b03909416868601526060860192909252608085015260a084015260c0830152519081900360e00190f35b6103756004803603606081101561043457600080fd5b506001600160a01b03813581169160208101359091169060400135610d20565b6102ba6004803603602081101561046a57600080fd5b50356001600160a01b0316610da8565b610482610e68565b6040805160ff9092168252519081900360200190f35b610375600480360360408110156104ae57600080fd5b506001600160a01b038135169060200135610e71565b610296610ebf565b6103b6600480360360208110156104e257600080fd5b50356001600160a01b0316610ece565b6102ba6004803603604081101561050857600080fd5b506001600160a01b038135169060200135610f67565b6102ba610fb0565b6102ba610fb6565b6103b6610fbc565b6103b66004803603602081101561054c57600080fd5b50356110c2565b6102ba6004803603602081101561056957600080fd5b50356001600160a01b031661137a565b6103b6611395565b6103b6611441565b610296611e82565b6102d4611e91565b6103b6611ef2565b6102ba600480360360208110156105b757600080fd5b5035612498565b610375600480360360408110156105d457600080fd5b506001600160a01b0381351690602001356124c8565b6102ba612530565b6102ba612536565b610375600480360360a081101561061057600080fd5b506001600160a01b03813581169160208101359091169060408101359060608101359060800135151561253c565b6103756004803603604081101561065457600080fd5b506001600160a01b0381351690602001356126d3565b6102ba6004803603602081101561068057600080fd5b50356126e7565b610296612773565b610375600480360360208110156106a557600080fd5b50356001600160a01b0316612782565b6103b6600480360360208110156106cb57600080fd5b5035612797565b61029661294d565b6103b6600480360360408110156106f057600080fd5b508035906020013561295c565b6102ba6004803603602081101561071357600080fd5b5035612cf8565b6103b66004803603602081101561073057600080fd5b50356001600160a01b0316612d84565b6103756004803603602081101561075657600080fd5b50356001600160a01b0316612e0a565b6102ba6004803603604081101561077c57600080fd5b506001600160a01b0381358116916020013516612e87565b6102ba600480360360608110156107aa57600080fd5b5080359060208101359060400135612eb2565b6103b6600480360360208110156107d357600080fd5b50356001600160a01b0316612edb565b6103b6600480360360608110156107f957600080fd5b506001600160a01b03813581169160208101359091169060400135612fde565b6102ba6004803603606081101561082f57600080fd5b5080359060208101359060400135613254565b6103b661327d565b6012546001600160a01b031681565b60175481565b60038054604080516020601f60026000196101006001881615020190951694909404938401819004810282018101909252828152606093909290918301828280156108eb5780601f106108c0576101008083540402835291602001916108eb565b820191906000526020600020905b8154815290600101906020018083116108ce57829003601f168201915b5050505050905090565b60006109096109026134ed565b84846134f1565b5060015b92915050565b60165481565b60025490565b336000908152600b602052604090205460ff168061094c575033610941611e82565b6001600160a01b0316145b610998576040805162461bcd60e51b815260206004820152601860248201527718d85b1b195c881a5cc81b9bdd08185d5d1a1bdc9a5e995960421b604482015290519081900360640190fd5b6109a06135dd565b156109dc5760405162461bcd60e51b81526004018080602001828103825260268152602001806148946026913960400191505060405180910390fd5b6109e46135fe565b15610a205760405162461bcd60e51b81526004018080602001828103825260268152602001806148946026913960400191505060405180910390fd5b601a54601854610a2f9161361f565b600f54604080516370a0823160e01b815230600482015290516001600160a01b03909216916370a0823191602480820192602092909190829003018186803b158015610a7a57600080fd5b505afa158015610a8e573d6000803e3d6000fd5b505050506040513d6020811015610aa457600080fd5b505103811115610afb576040805162461bcd60e51b815260206004820152601b60248201527f43616e6e6f74207374616b652070656e64696e672066756e64732e0000000000604482015290519081900360640190fd5b601160009054906101000a90046001600160a01b03166001600160a01b031663900cf0cf6040518163ffffffff1660e01b815260040160206040518083038186803b158015610b4957600080fd5b505afa158015610b5d573d6000803e3d6000fd5b505050506040513d6020811015610b7357600080fd5b5051601d541480610bfb5750601160009054906101000a90046001600160a01b03166001600160a01b03166313f24daf6040518163ffffffff1660e01b815260040160206040518083038186803b158015610bcd57600080fd5b505afa158015610be1573d6000803e3d6000fd5b505050506040513d6020811015610bf757600080fd5b5051155b15610c7a57601554610c0d908261361f565b6015556011546040805163534a7e1d60e11b81526004810184905290516001600160a01b039092169163a694fc3a9160248082019260009290919082900301818387803b158015610c5d57600080fd5b505af1158015610c71573d6000803e3d6000fd5b50505050610c9b565b601854610c87908261361f565b601855601654610c97908261361f565b6016555b50436000908152600c602090815260408083203284529091528082208054600160ff1991821681179092553384529190922080549091169091179055565b600d602052600090815260409020805460018201546002830154600384015460048501546005860154600690960154949593946001600160a01b0390931693919290919087565b6000610d2d848484613679565b610d9d84610d396134ed565b610d9885604051806060016040528060288152602001614785602891396001600160a01b038a16600090815260016020526040812090610d776134ed565b6001600160a01b0316815260208101919091526040016000205491906137e7565b6134f1565b5060015b9392505050565b6000610db38261137a565b610dbf57506000610e63565b6001600160a01b0382166000908152600d602052604081206003810154600e54919291610deb9161387e565b905080610dfd57600092505050610e63565b6000610e07610919565b905080610e1a5760009350505050610e63565b6000610e4182610e3b670de0b6b3a7640000610e353361137a565b906138db565b90613934565b90506000610e5b670de0b6b3a7640000610e3b86856138db565b955050505050505b919050565b60055460ff1690565b6000610909610e7e6134ed565b84610d988560016000610e8f6134ed565b6001600160a01b03908116825260208083019390935260409182016000908120918c16815292529020549061361f565b600f546001600160a01b031681565b610ed66134ed565b6001600160a01b0316610ee7611e82565b6001600160a01b031614610f30576040805162461bcd60e51b815260206004820181905260248201526000805160206147ad833981519152604482015290519081900360640190fd5b6001600160a01b038116331415610f4657600080fd5b6001600160a01b03166000908152600b60205260409020805460ff19169055565b6001600160a01b038216600090815260066020526040812081908190610f8e90859061399b565b9150915081610fa557610fa08561137a565b610fa7565b805b95945050505050565b60155481565b60145481565b610fc46135dd565b156110005760405162461bcd60e51b81526004018080602001828103825260268152602001806148946026913960400191505060405180910390fd5b6110086135fe565b156110445760405162461bcd60e51b81526004018080602001828103825260268152602001806148946026913960400191505060405180910390fd5b61104d33612e0a565b611092576040805162461bcd60e51b815260206004820152601160248201527027379023a0a6a2903a379031b630b4b69760791b604482015290519081900360640190fd5b336000908152600d60205260409020805442106110ba576014546110b790429061361f565b81555b610c9b613a98565b6110ca6135dd565b156111065760405162461bcd60e51b81526004018080602001828103825260268152602001806148946026913960400191505060405180910390fd5b61110e6135fe565b1561114a5760405162461bcd60e51b81526004018080602001828103825260268152602001806148946026913960400191505060405180910390fd5b336000908152600d60205260409020805442101561119f576040805162461bcd60e51b815260206004820152600d60248201526c5374696c6c206c6f636b65642160981b604482015290519081900360640190fd5b600082116111ee576040805162461bcd60e51b81526020600482015260176024820152762737903d32b9379030b6b7bab73a1030b63637bbb2b21760491b604482015290519081900360640190fd5b8060050154601f54116112325760405162461bcd60e51b815260040180806020018281038252602581526020018061471d6025913960400191505060405180910390fd5b61123d333084613679565b600481015461124c908361361f565b600482015560195461125e908361361f565b601955601b5461126e908361361f565b601b5543600682015560408051838152905133917f17040713250ec5f668a1c39e7939900e78558350dbaff0ebef34268dfa8ea4ac919081900360200190a2601160009054906101000a90046001600160a01b03166001600160a01b03166313f24daf6040518163ffffffff1660e01b815260040160206040518083038186803b1580156112fb57600080fd5b505afa15801561130f573d6000803e3d6000fd5b505050506040513d602081101561132557600080fd5b505161133b57611333611441565b61133b61327d565b5050436000908152600c602090815260408083203284529091528082208054600160ff1991821681179092553384529190922080549091169091179055565b6001600160a01b031660009081526020819052604090205490565b61139d6134ed565b6001600160a01b03166113ae611e82565b6001600160a01b0316146113f7576040805162461bcd60e51b815260206004820181905260248201526000805160206147ad833981519152604482015290519081900360640190fd5b600a546040516000916001600160a01b0316907f8be0079c531659141344cd1fd0a4f28419497f9722a3daafe3b4186f6b6457e0908390a3600a80546001600160a01b0319169055565b6114496135dd565b156114855760405162461bcd60e51b81526004018080602001828103825260268152602001806148946026913960400191505060405180910390fd5b61148d6135fe565b156114c95760405162461bcd60e51b81526004018080602001828103825260268152602001806148946026913960400191505060405180910390fd5b601154604080516313f24daf60e01b815290516000926001600160a01b0316916313f24daf916004808301926020929190829003018186803b15801561150e57600080fd5b505afa158015611522573d6000803e3d6000fd5b505050506040513d602081101561153857600080fd5b505190508015806115ca57506115c881601160009054906101000a90046001600160a01b03166001600160a01b031663900cf0cf6040518163ffffffff1660e01b815260040160206040518083038186803b15801561159657600080fd5b505afa1580156115aa573d6000803e3d6000fd5b505050506040513d60208110156115c057600080fd5b505190613d0f565b155b61161b576040805162461bcd60e51b815260206004820152601e60248201527f4d7573742063616c6c20617420612077697468647261772065706f63682e0000604482015290519081900360640190fd5b8015806116ad57506107086116aa42601160009054906101000a90046001600160a01b03166001600160a01b031663c5967c266040518163ffffffff1660e01b815260040160206040518083038186803b15801561167857600080fd5b505afa15801561168c573d6000803e3d6000fd5b505050506040513d60208110156116a257600080fd5b50519061387e565b11155b6116e85760405162461bcd60e51b815260040180806020018281038252602c8152602001806146f1602c913960400191505060405180910390fd5b8015806117705750601160009054906101000a90046001600160a01b03166001600160a01b031663900cf0cf6040518163ffffffff1660e01b815260040160206040518083038186803b15801561173e57600080fd5b505afa158015611752573d6000803e3d6000fd5b505050506040513d602081101561176857600080fd5b5051601c5414155b6117b3576040805162461bcd60e51b815260206004820152600f60248201526e20b63932b0b23c9031b0b63632b21760891b604482015290519081900360640190fd5b60105460408051632587701560e11b815230600482015290516000926001600160a01b031691634b0ee02a916024808301926020929190829003018186803b1580156117fe57600080fd5b505afa158015611812573d6000803e3d6000fd5b505050506040513d602081101561182857600080fd5b505160175460195491925061183d919061361f565b6118ae57601160009054906101000a90046001600160a01b03166001600160a01b031663b88a802f6040518163ffffffff1660e01b8152600401600060405180830381600087803b15801561189157600080fd5b505af11580156118a5573d6000803e3d6000fd5b50505050611c46565b600f54604080516370a0823160e01b815230600482015290516000926001600160a01b0316916370a08231916024808301926020929190829003018186803b1580156118f957600080fd5b505afa15801561190d573d6000803e3d6000fd5b505050506040513d602081101561192357600080fd5b5051600f54604080516370a0823160e01b81523060048201529051929350611a20926001600160a01b03909216916370a0823191602480820192602092909190829003018186803b15801561197757600080fd5b505afa15801561198b573d6000803e3d6000fd5b505050506040513d60208110156119a157600080fd5b5051601154604080516370a0823160e01b815230600482015290516001600160a01b03909216916370a0823191602480820192602092909190829003018186803b1580156119ee57600080fd5b505afa158015611a02573d6000803e3d6000fd5b505050506040513d6020811015611a1857600080fd5b50519061361f565b602055611a2b610919565b602155601754601954600091611a4991611a449161361f565b612cf8565b60115460408051632e1a7d4d60e01b81526004810184905290519293506001600160a01b0390911691632e1a7d4d9160248082019260009290919082900301818387803b158015611a9957600080fd5b505af1158015611aad573d6000803e3d6000fd5b505060006019555050601a54611ac3908261361f565b601a55600f54604080516370a0823160e01b815230600482015290516000926001600160a01b0316916370a08231916024808301926020929190829003018186803b158015611b1157600080fd5b505afa158015611b25573d6000803e3d6000fd5b505050506040513d6020811015611b3b57600080fd5b505190506000611b4b828561387e565b90506000611b59848361387e565b9050600081118015611bee5750600f5460125460408051636eb1769f60e11b81526001600160a01b0392831660048201523060248201529051600093929092169163dd62ed3e91604480820192602092909190829003018186803b158015611bc057600080fd5b505afa158015611bd4573d6000803e3d6000fd5b505050506040513d6020811015611bea57600080fd5b5051115b15611c1157601254600f54611c11916001600160a01b0391821691163084613d76565b60175415611c4057601254601754600f54611c3a926001600160a01b0391821692911690613dd6565b60006017555b50505050505b60105460408051635a46d3b560e01b8152306004820181905291516001600160a01b039093169263af2b0f6692918491635a46d3b591602480820192602092909190829003018186803b158015611c9c57600080fd5b505afa158015611cb0573d6000803e3d6000fd5b505050506040513d6020811015611cc657600080fd5b5051604080516001600160e01b031960e086901b1681526001600160a01b039093166004840152602483019190915251604480830192600092919082900301818387803b158015611d1657600080fd5b505af1158015611d2a573d6000803e3d6000fd5b505060105460408051632587701560e11b81523060048201529051600094506001600160a01b039092169250634b0ee02a916024808301926020929190829003018186803b158015611d7b57600080fd5b505afa158015611d8f573d6000803e3d6000fd5b505050506040513d6020811015611da557600080fd5b505190506000611db5828461387e565b600e54909150611dc5908261361f565b600e556011546040805163900cf0cf60e01b815290516001600160a01b039092169163900cf0cf91600480820192602092909190829003018186803b158015611e0d57600080fd5b505afa158015611e21573d6000803e3d6000fd5b505050506040513d6020811015611e3757600080fd5b5051601c55505043601e8190556000908152600c602090815260408083203284529091528082208054600160ff19918216811790925533845291909220805490911690911790555050565b600a546001600160a01b031690565b60048054604080516020601f60026000196101006001881615020190951694909404938401819004810282018101909252828152606093909290918301828280156108eb5780601f106108c0576101008083540402835291602001916108eb565b611efa6135dd565b15611f365760405162461bcd60e51b81526004018080602001828103825260268152602001806148946026913960400191505060405180910390fd5b611f3e6135fe565b15611f7a5760405162461bcd60e51b81526004018080602001828103825260268152602001806148946026913960400191505060405180910390fd5b601154604080516313f24daf60e01b815290516000926001600160a01b0316916313f24daf916004808301926020929190829003018186803b158015611fbf57600080fd5b505afa158015611fd3573d6000803e3d6000fd5b505050506040513d6020811015611fe957600080fd5b50519050801580612049575061204781601160009054906101000a90046001600160a01b03166001600160a01b031663900cf0cf6040518163ffffffff1660e01b815260040160206040518083038186803b15801561159657600080fd5b155b61209a576040805162461bcd60e51b815260206004820152601e60248201527f4d7573742063616c6c20617420612077697468647261772065706f63682e0000604482015290519081900360640190fd5b8015806120fa57506107086120f742601160009054906101000a90046001600160a01b03166001600160a01b031663c5967c266040518163ffffffff1660e01b815260040160206040518083038186803b15801561167857600080fd5b11155b6121355760405162461bcd60e51b815260040180806020018281038252602c8152602001806146f1602c913960400191505060405180910390fd5b8015806121bd5750601160009054906101000a90046001600160a01b03166001600160a01b031663900cf0cf6040518163ffffffff1660e01b815260040160206040518083038186803b15801561218b57600080fd5b505afa15801561219f573d6000803e3d6000fd5b505050506040513d60208110156121b557600080fd5b5051601d5414155b612200576040805162461bcd60e51b815260206004820152600f60248201526e20b63932b0b23c9031b0b63632b21760891b604482015290519081900360640190fd5b601160009054906101000a90046001600160a01b03166001600160a01b03166313f24daf6040518163ffffffff1660e01b815260040160206040518083038186803b15801561224e57600080fd5b505afa158015612262573d6000803e3d6000fd5b505050506040513d602081101561227857600080fd5b505115806123005750601160009054906101000a90046001600160a01b03166001600160a01b031663900cf0cf6040518163ffffffff1660e01b815260040160206040518083038186803b1580156122cf57600080fd5b505afa1580156122e3573d6000803e3d6000fd5b505050506040513d60208110156122f957600080fd5b5051601c54145b61234a576040805162461bcd60e51b815260206004820152601660248201527524b734ba34b0ba32903830b93a1018903334b939ba1760511b604482015290519081900360640190fd5b601854156123d8576011546018546040805163534a7e1d60e11b81526004810192909252516001600160a01b039092169163a694fc3a9160248082019260009290919082900301818387803b1580156123a257600080fd5b505af11580156123b6573d6000803e3d6000fd5b50506016546015546123ca9350915061361f565b601555600060168190556018555b601160009054906101000a90046001600160a01b03166001600160a01b031663900cf0cf6040518163ffffffff1660e01b815260040160206040518083038186803b15801561242657600080fd5b505afa15801561243a573d6000803e3d6000fd5b505050506040513d602081101561245057600080fd5b5051601d555043601f8190556000908152600c602090815260408083203284529091528082208054600160ff1991821681179092553384529190922080549091169091179055565b60008060006124a884600761399b565b91509150816124be576124b9610919565b6124c0565b805b949350505050565b60006109096124d56134ed565b84610d98856040518060600160405280602581526020016148ed60259139600160006124ff6134ed565b6001600160a01b03908116825260208083019390935260409182016000908120918d168152925290205491906137e7565b600e5481565b60135481565b336000908152600b602052604081205460ff168061256957503361255e611e82565b6001600160a01b0316145b6125b5576040805162461bcd60e51b815260206004820152601860248201527718d85b1b195c881a5cc81b9bdd08185d5d1a1bdc9a5e995960421b604482015290519081900360640190fd5b6125bd6135dd565b156125f95760405162461bcd60e51b81526004018080602001828103825260268152602001806148946026913960400191505060405180910390fd5b6126016135fe565b1561263d5760405162461bcd60e51b81526004018080602001828103825260268152602001806148946026913960400191505060405180910390fd5b60008261264e5761264e8685613e28565b6001600160a01b0387163314156126705761266986866126d3565b905061267e565b61267b878787610d20565b90505b821561268e5761268e8685613e28565b436000908152600c602090815260408083203284529091528082208054600160ff19918216811790925533845291909220805490911690911790559695505050505050565b60006109096126e06134ed565b8484613679565b600f54604080516370a0823160e01b81523060048201529051600092839261273b926001600160a01b03909216916370a0823191602480820192602092909190829003018186803b15801561197757600080fd5b90506000612747610919565b9050801580612754575081155b15612763578392505050610e63565b6000610fa783610e3b87856138db565b6011546001600160a01b031681565b600b6020526000908152604090205460ff1681565b336000908152600b602052604090205460ff16806127c45750336127b9611e82565b6001600160a01b0316145b612810576040805162461bcd60e51b815260206004820152601860248201527718d85b1b195c881a5cc81b9bdd08185d5d1a1bdc9a5e995960421b604482015290519081900360640190fd5b6128186135dd565b156128545760405162461bcd60e51b81526004018080602001828103825260268152602001806148946026913960400191505060405180910390fd5b61285c6135fe565b156128985760405162461bcd60e51b81526004018080602001828103825260268152602001806148946026913960400191505060405180910390fd5b6015548110156128ef576040805162461bcd60e51b815260206004820152601960248201527f43616e2774207769746864726177207061737420312e30782e00000000000000604482015290519081900360640190fd5b6015546128fc908261387e565b60155560175461290c908261361f565b60175550436000908152600c602090815260408083203284529091528082208054600160ff1991821681179092553384529190922080549091169091179055565b6010546001600160a01b031681565b6129646135dd565b156129a05760405162461bcd60e51b81526004018080602001828103825260268152602001806148946026913960400191505060405180910390fd5b6129a86135fe565b156129e45760405162461bcd60e51b81526004018080602001828103825260268152602001806148946026913960400191505060405180910390fd5b60008211612a33576040805162461bcd60e51b81526020600482015260176024820152762737903d32b9379030b6b7bab73a1030b63637bbb2b21760491b604482015290519081900360640190fd5b336000908152600d602052604090206004810154158015612a5957508060060154601e54115b612a945760405162461bcd60e51b81526004018080602001828103825260258152602001806146a66025913960400191505060405180910390fd5b601354821015612aa45760135491505b6000612ab0428461361f565b600183018490558254909150811115612acd57612acd3382613e28565b6000612ad8856126e7565b9050612ae43382613e44565b600f54612afc906001600160a01b0316333088613d76565b601160009054906101000a90046001600160a01b03166001600160a01b031663900cf0cf6040518163ffffffff1660e01b815260040160206040518083038186803b158015612b4a57600080fd5b505afa158015612b5e573d6000803e3d6000fd5b505050506040513d6020811015612b7457600080fd5b5051601d541480612bfc5750601160009054906101000a90046001600160a01b03166001600160a01b03166313f24daf6040518163ffffffff1660e01b815260040160206040518083038186803b158015612bce57600080fd5b505afa158015612be2573d6000803e3d6000fd5b505050506040513d6020811015612bf857600080fd5b5051155b15612c6b576011546040805163534a7e1d60e11b81526004810188905290516001600160a01b039092169163a694fc3a9160248082019260009290919082900301818387803b158015612c4e57600080fd5b505af1158015612c62573d6000803e3d6000fd5b50505050612c7c565b601854612c78908661361f565b6018555b6040805186815260208101839052815133927f90890809c654f11d6e72a28fa60149770a0d11ec6c92319d6ceb2bb0a4ea1a15928290030190a25050436000908152600c602090815260408083203284529091528082208054600160ff1991821681179092553384529190922080549091169091179055505050565b600f54604080516370a0823160e01b815230600482015290516000928392612d4c926001600160a01b03909216916370a0823191602480820192602092909190829003018186803b15801561197757600080fd5b90506000612d58610919565b9050801580612d65575081155b15612d74578392505050610e63565b6000610fa782610e3b87866138db565b612d8c6134ed565b6001600160a01b0316612d9d611e82565b6001600160a01b031614612de6576040805162461bcd60e51b815260206004820181905260248201526000805160206147ad833981519152604482015290519081900360640190fd5b6001600160a01b03166000908152600b60205260409020805460ff19166001179055565b6000612e158261137a565b612e2157506000610e63565b6001600160a01b0382166000908152600d602052604081206003810154600e54919291612e4d9161387e565b905080612e5f57600092505050610e63565b6000612e69610919565b905080612e7c5760009350505050610e63565b506001949350505050565b6001600160a01b03918216600090815260016020908152604080832093909416825291909152205490565b6000811580612ebf575082155b15612ecb575082610da1565b6000610fa783610e3b87876138db565b612ee36134ed565b6001600160a01b0316612ef4611e82565b6001600160a01b031614612f3d576040805162461bcd60e51b815260206004820181905260248201526000805160206147ad833981519152604482015290519081900360640190fd5b6001600160a01b038116612f825760405162461bcd60e51b81526004018080602001828103825260268152602001806146386026913960400191505060405180910390fd5b600a546040516001600160a01b038084169216907f8be0079c531659141344cd1fd0a4f28419497f9722a3daafe3b4186f6b6457e090600090a3600a80546001600160a01b0319166001600160a01b0392909216919091179055565b336000908152600b602052604090205460ff168061300b575033613000611e82565b6001600160a01b0316145b613057576040805162461bcd60e51b815260206004820152601860248201527718d85b1b195c881a5cc81b9bdd08185d5d1a1bdc9a5e995960421b604482015290519081900360640190fd5b61305f6135dd565b1561309b5760405162461bcd60e51b81526004018080602001828103825260268152602001806148946026913960400191505060405180910390fd5b6130a36135fe565b156130df5760405162461bcd60e51b81526004018080602001828103825260268152602001806148946026913960400191505060405180910390fd5b6001600160a01b038316301415806131035750601b546130fe3061137a565b038111155b61310c57600080fd5b600f546001600160a01b0384811691161415806131af5750601a546018546131339161361f565b600f54604080516370a0823160e01b815230600482015290516001600160a01b03909216916370a0823191602480820192602092909190829003018186803b15801561317e57600080fd5b505afa158015613192573d6000803e3d6000fd5b505050506040513d60208110156131a857600080fd5b5051038111155b613200576040805162461bcd60e51b815260206004820152601e60248201527f43616e6e6f742077697468647261772070656e64696e672066756e64732e0000604482015290519081900360640190fd5b6132146001600160a01b0384168383613dd6565b5050436000908152600c602090815260408083203284529091528082208054600160ff199182168117909255338452919092208054909116909117905550565b6000811580613261575082155b1561326d575082610da1565b6000610fa784610e3b87866138db565b6132856135dd565b156132c15760405162461bcd60e51b81526004018080602001828103825260268152602001806148946026913960400191505060405180910390fd5b6132c96135fe565b156133055760405162461bcd60e51b81526004018080602001828103825260268152602001806148946026913960400191505060405180910390fd5b336000908152600d60205260409020805442101561335a576040805162461bcd60e51b815260206004820152600d60248201526c5374696c6c206c6f636b65642160981b604482015290519081900360640190fd5b60008160040154116133ad576040805162461bcd60e51b81526020600482015260176024820152762737903d32b9379030b6b7bab73a1030b63637bbb2b21760491b604482015290519081900360640190fd5b8060060154601e54116133f15760405162461bcd60e51b81526004018080602001828103825260338152602001806148ba6033913960400191505060405180910390fd5b60006134068260040154602054602154612eb2565b601a54909150613416908261387e565b601a556004820154601b5461342a9161387e565b601b556134363361137a565b61344257613442613a98565b613450308360040154613f34565b60006004830155600f5461346e906001600160a01b03163383613dd6565b60048201546040805191825260208201839052805133927ff279e6a1f5e320cca91135676d9cb6e44ca8a08c0b88342bcdb1144f6511b56892908290030190a25050436000908152600c602090815260408083203284529091528082208054600160ff1991821681179092553384529190922080549091169091179055565b3390565b6001600160a01b0383166135365760405162461bcd60e51b81526004018080602001828103825260248152602001806148466024913960400191505060405180910390fd5b6001600160a01b03821661357b5760405162461bcd60e51b815260040180806020018281038252602281526020018061465e6022913960400191505060405180910390fd5b6001600160a01b03808416600081815260016020908152604080832094871680845294825291829020859055815185815291517f8c5be1e5ebec7d5bd14f71427d1e84f3dd0314c0f7b2291e5b200ac8c7c3b9259281900390910190a3505050565b436000908152600c6020908152604080832032845290915290205460ff1690565b436000908152600c6020908152604080832033845290915290205460ff1690565b600082820183811015610da1576040805162461bcd60e51b815260206004820152601b60248201527f536166654d6174683a206164646974696f6e206f766572666c6f770000000000604482015290519081900360640190fd5b336000908152600b602052604090205460ff16806136a657503361369b611e82565b6001600160a01b0316145b806136bb57506012546001600160a01b031633145b806136c557503033145b806136e857506001600160a01b0382166000908152600b602052604090205460ff165b8061370b5750816001600160a01b0316613700611e82565b6001600160a01b0316145b8061372357506012546001600160a01b038381169116145b806137365750306001600160a01b038316145b6137d7576001600160a01b038281166000908152600d602052604090206002810154909185811691161461379b5760405162461bcd60e51b81526004018080602001828103825260228152602001806147426022913960400191505060405180910390fd5b6002810180546001600160a01b03191690556013546000906137be90429061361f565b82549091508111156137d4576137d48482613e28565b50505b6137e2838383614030565b505050565b600081848411156138765760405162461bcd60e51b81526004018080602001828103825283818151815260200191508051906020019080838360005b8381101561383b578181015183820152602001613823565b50505050905090810190601f1680156138685780820380516001836020036101000a031916815260200191505b509250505060405180910390fd5b505050900390565b6000828211156138d5576040805162461bcd60e51b815260206004820152601e60248201527f536166654d6174683a207375627472616374696f6e206f766572666c6f770000604482015290519081900360640190fd5b50900390565b6000826138ea5750600061090d565b828202828482816138f757fe5b0414610da15760405162461bcd60e51b81526004018080602001828103825260218152602001806147646021913960400191505060405180910390fd5b600080821161398a576040805162461bcd60e51b815260206004820152601a60248201527f536166654d6174683a206469766973696f6e206279207a65726f000000000000604482015290519081900360640190fd5b81838161399357fe5b049392505050565b600080600084116139ec576040805162461bcd60e51b815260206004820152601660248201527504552433230536e617073686f743a20696420697320360541b604482015290519081900360640190fd5b6139f6600961418b565b841115613a4a576040805162461bcd60e51b815260206004820152601d60248201527f4552433230536e617073686f743a206e6f6e6578697374656e74206964000000604482015290519081900360640190fd5b6000613a56848661418f565b8454909150811415613a6f576000809250925050613a91565b6001846001018281548110613a8057fe5b906000526020600020015492509250505b9250929050565b336000908152600d602052604081206003810154600e54919291613abb9161387e565b600e54600384015590506000613af5613ad2610919565b610e3b670de0b6b3a7640000610e358760040154613aef3361137a565b9061361f565b90506000613b0f670de0b6b3a7640000610e3b85856138db565b6010546040805163a9059cbb60e01b81523360048201526024810184905290519293506001600160a01b039091169163a9059cbb916044808201926020929091908290030181600087803b158015613b6657600080fd5b505af1158015613b7a573d6000803e3d6000fd5b505050506040513d6020811015613b9057600080fd5b505060115460408051638278b53b60e01b8152905160009283926001600160a01b0390911691638278b53b91600480820192602092909190829003018186803b158015613bdc57600080fd5b505afa158015613bf0573d6000803e3d6000fd5b505050506040513d6020811015613c0657600080fd5b505190506064811115613c4a5760405162461bcd60e51b81526004018080602001828103825260338152602001806147ee6033913960400191505060405180910390fd5b613c596064610e3b85846138db565b91508115613ccd576010546040805163282d3fdf60e01b81523360048201526024810185905290516001600160a01b039092169163282d3fdf9160448082019260009290919082900301818387803b158015613cb457600080fd5b505af1158015613cc8573d6000803e3d6000fd5b505050505b6040805184815260208101849052815133927fd6f2c8500df5b44f11e9e48b91ff9f1b9d81bc496d55570c2b1b75bf65243f51928290030190a2505050505050565b6000808211613d65576040805162461bcd60e51b815260206004820152601860248201527f536166654d6174683a206d6f64756c6f206279207a65726f0000000000000000604482015290519081900360640190fd5b818381613d6e57fe5b069392505050565b604080516001600160a01b0380861660248301528416604482015260648082018490528251808303909101815260849091019091526020810180516001600160e01b03166323b872dd60e01b179052613dd0908590614230565b50505050565b604080516001600160a01b038416602482015260448082018490528251808303909101815260649091019091526020810180516001600160e01b031663a9059cbb60e01b1790526137e2908490614230565b6001600160a01b039091166000908152600d6020526040902055565b6001600160a01b038216613e9f576040805162461bcd60e51b815260206004820152601f60248201527f45524332303a206d696e7420746f20746865207a65726f206164647265737300604482015290519081900360640190fd5b613eab600083836142e1565b600254613eb8908261361f565b6002556001600160a01b038216600090815260208190526040902054613ede908261361f565b6001600160a01b0383166000818152602081815260408083209490945583518581529351929391927fddf252ad1be2c89b69c2b068fc378daa952ba7f163c4a11628f55a4df523b3ef9281900390910190a35050565b6001600160a01b038216613f795760405162461bcd60e51b81526004018080602001828103825260218152602001806147cd6021913960400191505060405180910390fd5b613f85826000836142e1565b613fc281604051806060016040528060228152602001614616602291396001600160a01b03851660009081526020819052604090205491906137e7565b6001600160a01b038316600090815260208190526040902055600254613fe8908261387e565b6002556040805182815290516000916001600160a01b038516917fddf252ad1be2c89b69c2b068fc378daa952ba7f163c4a11628f55a4df523b3ef9181900360200190a35050565b6001600160a01b0383166140755760405162461bcd60e51b81526004018080602001828103825260258152602001806148216025913960400191505060405180910390fd5b6001600160a01b0382166140ba5760405162461bcd60e51b81526004018080602001828103825260238152602001806145f36023913960400191505060405180910390fd5b6140c58383836142e1565b61410281604051806060016040528060268152602001614680602691396001600160a01b03861660009081526020819052604090205491906137e7565b6001600160a01b038085166000908152602081905260408082209390935590841681522054614131908261361f565b6001600160a01b038084166000818152602081815260409182902094909455805185815290519193928716927fddf252ad1be2c89b69c2b068fc378daa952ba7f163c4a11628f55a4df523b3ef92918290030190a3505050565b5490565b81546000906141a05750600061090d565b82546000905b808210156141ef5760006141ba8383614339565b9050848682815481106141c957fe5b906000526020600020015411156141e2578091506141e9565b8060010192505b506141a6565b60008211801561421757508385600184038154811061420a57fe5b9060005260206000200154145b15614228575060001901905061090d565b50905061090d565b6060614285826040518060400160405280602081526020017f5361666545524332303a206c6f772d6c6576656c2063616c6c206661696c6564815250856001600160a01b031661435e9092919063ffffffff16565b8051909150156137e2578080602001905160208110156142a457600080fd5b50516137e25760405162461bcd60e51b815260040180806020018281038252602a81526020018061486a602a913960400191505060405180910390fd5b6142ec8383836137e2565b6001600160a01b038316614310576143038261436d565b61430b61439a565b6137e2565b6001600160a01b038216614327576143038361436d565b6143308361436d565b6137e28261436d565b6000600280830660028506018161434c57fe5b04600283046002850401019392505050565b60606124c084846000856143a9565b6001600160a01b0381166000908152600660205260409020614397906143928361137a565b614505565b50565b6143a76007614392610919565b565b6060824710156143ea5760405162461bcd60e51b81526004018080602001828103825260268152602001806146cb6026913960400191505060405180910390fd5b6143f385614551565b614444576040805162461bcd60e51b815260206004820152601d60248201527f416464726573733a2063616c6c20746f206e6f6e2d636f6e7472616374000000604482015290519081900360640190fd5b60006060866001600160a01b031685876040518082805190602001908083835b602083106144835780518252601f199092019160209182019101614464565b6001836020036101000a03801982511681845116808217855250505050505090500191505060006040518083038185875af1925050503d80600081146144e5576040519150601f19603f3d011682016040523d82523d6000602084013e6144ea565b606091505b50915091506144fa828286614557565b979650505050505050565b6000614511600961418b565b90508061451d846145bd565b10156137e2578254600180820185556000858152602080822090930193909355938401805494850181558252902090910155565b3b151590565b60608315614566575081610da1565b8251156145765782518084602001fd5b60405162461bcd60e51b815260206004820181815284516024840152845185939192839260440191908501908083836000831561383b578181015183820152602001613823565b80546000906145ce57506000610e63565b8154829060001981019081106145e057fe5b90600052602060002001549050610e6356fe45524332303a207472616e7366657220746f20746865207a65726f206164647265737345524332303a206275726e20616d6f756e7420657863656564732062616c616e63654f776e61626c653a206e6577206f776e657220697320746865207a65726f206164647265737345524332303a20617070726f766520746f20746865207a65726f206164647265737345524332303a207472616e7366657220616d6f756e7420657863656564732062616c616e636543616e6e6f74207374616b65207769746820612077697468647261772070656e64696e672e416464726573733a20696e73756666696369656e742062616c616e636520666f722063616c6c4d7573742062652063616c6c6564203330206d696e75746573206265666f72652065706f636820656e64732e43616e6e6f7420776974686472617720776974682061207374616b652070656e64696e672e526563656976657220646964206e6f7420617070726f7665207472616e736665722e536166654d6174683a206d756c7469706c69636174696f6e206f766572666c6f7745524332303a207472616e7366657220616d6f756e74206578636565647320616c6c6f77616e63654f776e61626c653a2063616c6c6572206973206e6f7420746865206f776e657245524332303a206275726e2066726f6d20746865207a65726f2061646472657373496e76616c6964206c6f636b2070657263656e746167652c20636865636b205468656f72657469637320636f6e74726163742e45524332303a207472616e736665722066726f6d20746865207a65726f206164647265737345524332303a20617070726f76652066726f6d20746865207a65726f20616464726573735361666545524332303a204552433230206f7065726174696f6e20646964206e6f742073756363656564436f6e747261637447756172643a206f6e6520626c6f636b2c206f6e652066756e6374696f6e496e69746961746f7220506172742031206e6f74207965742063616c6c6564206f722063616c6c656420746f6f20736f6f6e2e45524332303a2064656372656173656420616c6c6f77616e63652062656c6f77207a65726fa26469706673582212209779b9e30000c8c138ea0b872ccce6741746b1b8dd6558fa5a1cde1d884cb45964736f6c634300060c0033",
  "linkReferences": {},
  "deployedLinkReferences": {}
}