{
  "_format": "hh-sol-artifact-1",
  "contractName": "Master",
  "sourceName": "contracts/Master.sol",
  "abi": [
    {
      "inputs": [
        {
          "internalType": "contract IERC20Lockable",
          "name": "_theory",
          "type": "address"
        },
        {
          "internalType": "contract IERC20Lockable",
          "name": "_game",
          "type": "address"
        },
        {
          "internalType": "contract ITheoretics",
          "name": "_theoretics",
          "type": "address"
        },
        {
          "internalType": "address",
          "name": "_communityFund",
          "type": "address"
        }
      ],
      "stateMutability": "nonpayable",
      "type": "constructor"
    },
    {
      "anonymous": false,
      "inputs": [
        {
          "indexed": true,
          "internalType": "address",
          "name": "owner",
          "type": "address"
        },
        {
          "indexed": true,
          "internalType": "address",
          "name": "spender",
          "type": "address"
        },
        {
          "indexed": false,
          "internalType": "uint256",
          "name": "value",
          "type": "uint256"
        }
      ],
      "name": "Approval",
      "type": "event"
    },
    {
      "anonymous": false,
      "inputs": [
        {
          "indexed": true,
          "internalType": "address",
          "name": "user",
          "type": "address"
        },
        {
          "indexed": false,
          "internalType": "uint256",
          "name": "amountInTheory",
          "type": "uint256"
        },
        {
          "indexed": false,
          "internalType": "uint256",
          "name": "amountOutMaster",
          "type": "uint256"
        }
      ],
      "name": "Deposit",
      "type": "event"
    },
    {
      "anonymous": false,
      "inputs": [
        {
          "indexed": true,
          "internalType": "address",
          "name": "user",
          "type": "address"
        },
        {
          "indexed": false,
          "internalType": "uint256",
          "name": "amountInTheory",
          "type": "uint256"
        },
        {
          "indexed": false,
          "internalType": "uint256",
          "name": "amountOutMaster",
          "type": "uint256"
        }
      ],
      "name": "DepositRequest",
      "type": "event"
    },
    {
      "anonymous": false,
      "inputs": [
        {
          "indexed": true,
          "internalType": "address",
          "name": "previousOwner",
          "type": "address"
        },
        {
          "indexed": true,
          "internalType": "address",
          "name": "newOwner",
          "type": "address"
        }
      ],
      "name": "OwnershipTransferred",
      "type": "event"
    },
    {
      "anonymous": false,
      "inputs": [
        {
          "indexed": true,
          "internalType": "address",
          "name": "user",
          "type": "address"
        },
        {
          "indexed": false,
          "internalType": "uint256",
          "name": "reward",
          "type": "uint256"
        },
        {
          "indexed": false,
          "internalType": "uint256",
          "name": "lockAmount",
          "type": "uint256"
        }
      ],
      "name": "RewardPaid",
      "type": "event"
    },
    {
      "anonymous": false,
      "inputs": [
        {
          "indexed": false,
          "internalType": "uint256",
          "name": "id",
          "type": "uint256"
        }
      ],
      "name": "Snapshot",
      "type": "event"
    },
    {
      "anonymous": false,
      "inputs": [
        {
          "indexed": true,
          "internalType": "address",
          "name": "from",
          "type": "address"
        },
        {
          "indexed": true,
          "internalType": "address",
          "name": "to",
          "type": "address"
        },
        {
          "indexed": false,
          "internalType": "uint256",
          "name": "value",
          "type": "uint256"
        }
      ],
      "name": "Transfer",
      "type": "event"
    },
    {
      "anonymous": false,
      "inputs": [
        {
          "indexed": true,
          "internalType": "address",
          "name": "user",
          "type": "address"
        },
        {
          "indexed": false,
          "internalType": "uint256",
          "name": "amountInMaster",
          "type": "uint256"
        },
        {
          "indexed": false,
          "internalType": "uint256",
          "name": "amountOutTheory",
          "type": "uint256"
        }
      ],
      "name": "Withdraw",
      "type": "event"
    },
    {
      "anonymous": false,
      "inputs": [
        {
          "indexed": true,
          "internalType": "address",
          "name": "user",
          "type": "address"
        },
        {
          "indexed": false,
          "internalType": "uint256",
          "name": "amountInMaster",
          "type": "uint256"
        },
        {
          "indexed": false,
          "internalType": "uint256",
          "name": "amountOutTheory",
          "type": "uint256"
        }
      ],
      "name": "WithdrawRequest",
      "type": "event"
    },
    {
      "inputs": [
        {
          "internalType": "address",
          "name": "_toAdd",
          "type": "address"
        }
      ],
      "name": "addAuthorized",
      "outputs": [],
      "stateMutability": "nonpayable",
      "type": "function"
    },
    {
      "inputs": [
        {
          "internalType": "address",
          "name": "owner",
          "type": "address"
        },
        {
          "internalType": "address",
          "name": "spender",
          "type": "address"
        }
      ],
      "name": "allowance",
      "outputs": [
        {
          "internalType": "uint256",
          "name": "",
          "type": "uint256"
        }
      ],
      "stateMutability": "view",
      "type": "function"
    },
    {
      "inputs": [
        {
          "internalType": "address",
          "name": "userAddress",
          "type": "address"
        }
      ],
      "name": "anyGameAvailableToClaim",
      "outputs": [
        {
          "internalType": "bool",
          "name": "",
          "type": "bool"
        }
      ],
      "stateMutability": "view",
      "type": "function"
    },
    {
      "inputs": [
        {
          "internalType": "address",
          "name": "spender",
          "type": "address"
        },
        {
          "internalType": "uint256",
          "name": "amount",
          "type": "uint256"
        }
      ],
      "name": "approve",
      "outputs": [
        {
          "internalType": "bool",
          "name": "",
          "type": "bool"
        }
      ],
      "stateMutability": "nonpayable",
      "type": "function"
    },
    {
      "inputs": [
        {
          "internalType": "address",
          "name": "",
          "type": "address"
        }
      ],
      "name": "authorized",
      "outputs": [
        {
          "internalType": "bool",
          "name": "",
          "type": "bool"
        }
      ],
      "stateMutability": "view",
      "type": "function"
    },
    {
      "inputs": [
        {
          "internalType": "address",
          "name": "account",
          "type": "address"
        }
      ],
      "name": "balanceOf",
      "outputs": [
        {
          "internalType": "uint256",
          "name": "",
          "type": "uint256"
        }
      ],
      "stateMutability": "view",
      "type": "function"
    },
    {
      "inputs": [
        {
          "internalType": "address",
          "name": "account",
          "type": "address"
        },
        {
          "internalType": "uint256",
          "name": "snapshotId",
          "type": "uint256"
        }
      ],
      "name": "balanceOfAt",
      "outputs": [
        {
          "internalType": "uint256",
          "name": "",
          "type": "uint256"
        }
      ],
      "stateMutability": "view",
      "type": "function"
    },
    {
      "inputs": [],
      "name": "buyFromTheory",
      "outputs": [],
      "stateMutability": "nonpayable",
      "type": "function"
    },
    {
      "inputs": [],
      "name": "claimGame",
      "outputs": [],
      "stateMutability": "nonpayable",
      "type": "function"
    },
    {
      "inputs": [],
      "name": "communityFund",
      "outputs": [
        {
          "internalType": "address",
          "name": "",
          "type": "address"
        }
      ],
      "stateMutability": "view",
      "type": "function"
    },
    {
      "inputs": [],
      "name": "decimals",
      "outputs": [
        {
          "internalType": "uint8",
          "name": "",
          "type": "uint8"
        }
      ],
      "stateMutability": "view",
      "type": "function"
    },
    {
      "inputs": [
        {
          "internalType": "address",
          "name": "spender",
          "type": "address"
        },
        {
          "internalType": "uint256",
          "name": "subtractedValue",
          "type": "uint256"
        }
      ],
      "name": "decreaseAllowance",
      "outputs": [
        {
          "internalType": "bool",
          "name": "",
          "type": "bool"
        }
      ],
      "stateMutability": "nonpayable",
      "type": "function"
    },
    {
      "inputs": [],
      "name": "game",
      "outputs": [
        {
          "internalType": "contract IERC20Lockable",
          "name": "",
          "type": "address"
        }
      ],
      "stateMutability": "view",
      "type": "function"
    },
    {
      "inputs": [
        {
          "internalType": "address",
          "name": "userAddress",
          "type": "address"
        }
      ],
      "name": "gameAvailableToClaim",
      "outputs": [
        {
          "internalType": "uint256",
          "name": "",
          "type": "uint256"
        }
      ],
      "stateMutability": "view",
      "type": "function"
    },
    {
      "inputs": [
        {
          "internalType": "address",
          "name": "spender",
          "type": "address"
        },
        {
          "internalType": "uint256",
          "name": "addedValue",
          "type": "uint256"
        }
      ],
      "name": "increaseAllowance",
      "outputs": [
        {
          "internalType": "bool",
          "name": "",
          "type": "bool"
        }
      ],
      "stateMutability": "nonpayable",
      "type": "function"
    },
    {
      "inputs": [],
      "name": "initiatePart1",
      "outputs": [],
      "stateMutability": "nonpayable",
      "type": "function"
    },
    {
      "inputs": [],
      "name": "initiatePart2",
      "outputs": [],
      "stateMutability": "nonpayable",
      "type": "function"
    },
    {
      "inputs": [
        {
          "internalType": "address",
          "name": "from",
          "type": "address"
        },
        {
          "internalType": "address",
          "name": "to",
          "type": "address"
        },
        {
          "internalType": "uint256",
          "name": "amount",
          "type": "uint256"
        },
        {
          "internalType": "uint256",
          "name": "lockTo",
          "type": "uint256"
        },
        {
          "internalType": "bool",
          "name": "lockAfter",
          "type": "bool"
        }
      ],
      "name": "lockAndTransferFrom",
      "outputs": [
        {
          "internalType": "bool",
          "name": "",
          "type": "bool"
        }
      ],
      "stateMutability": "nonpayable",
      "type": "function"
    },
    {
      "inputs": [
        {
          "internalType": "uint256",
          "name": "_share",
          "type": "uint256"
        }
      ],
      "name": "masterToTheory",
      "outputs": [
        {
          "internalType": "uint256",
          "name": "",
          "type": "uint256"
        }
      ],
      "stateMutability": "view",
      "type": "function"
    },
    {
      "inputs": [
        {
          "internalType": "uint256",
          "name": "_share",
          "type": "uint256"
        },
        {
          "internalType": "uint256",
          "name": "totalGovernanceToken",
          "type": "uint256"
        },
        {
          "internalType": "uint256",
          "name": "totalShares",
          "type": "uint256"
        }
      ],
      "name": "masterToTheoryOwed",
      "outputs": [
        {
          "internalType": "uint256",
          "name": "",
          "type": "uint256"
        }
      ],
      "stateMutability": "view",
      "type": "function"
    },
    {
      "inputs": [],
      "name": "minLockTime",
      "outputs": [
        {
          "internalType": "uint256",
          "name": "",
          "type": "uint256"
        }
      ],
      "stateMutability": "view",
      "type": "function"
    },
    {
      "inputs": [],
      "name": "name",
      "outputs": [
        {
          "internalType": "string",
          "name": "",
          "type": "string"
        }
      ],
      "stateMutability": "view",
      "type": "function"
    },
    {
      "inputs": [],
      "name": "owner",
      "outputs": [
        {
          "internalType": "address",
          "name": "",
          "type": "address"
        }
      ],
      "stateMutability": "view",
      "type": "function"
    },
    {
      "inputs": [
        {
          "internalType": "address",
          "name": "_toRemove",
          "type": "address"
        }
      ],
      "name": "removeAuthorized",
      "outputs": [],
      "stateMutability": "nonpayable",
      "type": "function"
    },
    {
      "inputs": [],
      "name": "renounceOwnership",
      "outputs": [],
      "stateMutability": "nonpayable",
      "type": "function"
    },
    {
      "inputs": [
        {
          "internalType": "uint256",
          "name": "amountInTheory",
          "type": "uint256"
        },
        {
          "internalType": "uint256",
          "name": "lockTime",
          "type": "uint256"
        }
      ],
      "name": "requestBuyFromTheory",
      "outputs": [],
      "stateMutability": "nonpayable",
      "type": "function"
    },
    {
      "inputs": [
        {
          "internalType": "uint256",
          "name": "amountInMaster",
          "type": "uint256"
        }
      ],
      "name": "requestSellToTheory",
      "outputs": [],
      "stateMutability": "nonpayable",
      "type": "function"
    },
    {
      "inputs": [],
      "name": "sellToTheory",
      "outputs": [],
      "stateMutability": "nonpayable",
      "type": "function"
    },
    {
      "inputs": [
        {
          "internalType": "uint256",
          "name": "amount",
          "type": "uint256"
        }
      ],
      "name": "stakeExternalTheory",
      "outputs": [],
      "stateMutability": "nonpayable",
      "type": "function"
    },
    {
      "inputs": [],
      "name": "symbol",
      "outputs": [
        {
          "internalType": "string",
          "name": "",
          "type": "string"
        }
      ],
      "stateMutability": "view",
      "type": "function"
    },
    {
      "inputs": [],
      "name": "theoretics",
      "outputs": [
        {
          "internalType": "contract ITheoretics",
          "name": "",
          "type": "address"
        }
      ],
      "stateMutability": "view",
      "type": "function"
    },
    {
      "inputs": [],
      "name": "theory",
      "outputs": [
        {
          "internalType": "contract IERC20Lockable",
          "name": "",
          "type": "address"
        }
      ],
      "stateMutability": "view",
      "type": "function"
    },
    {
      "inputs": [
        {
          "internalType": "uint256",
          "name": "_amount",
          "type": "uint256"
        }
      ],
      "name": "theoryToMaster",
      "outputs": [
        {
          "internalType": "uint256",
          "name": "",
          "type": "uint256"
        }
      ],
      "stateMutability": "view",
      "type": "function"
    },
    {
      "inputs": [
        {
          "internalType": "uint256",
          "name": "_amount",
          "type": "uint256"
        },
        {
          "internalType": "uint256",
          "name": "totalGovernanceToken",
          "type": "uint256"
        },
        {
          "internalType": "uint256",
          "name": "totalShares",
          "type": "uint256"
        }
      ],
      "name": "theoryToMasterOwed",
      "outputs": [
        {
          "internalType": "uint256",
          "name": "",
          "type": "uint256"
        }
      ],
      "stateMutability": "view",
      "type": "function"
    },
    {
      "inputs": [],
      "name": "totalGameClaimed",
      "outputs": [
        {
          "internalType": "uint256",
          "name": "",
          "type": "uint256"
        }
      ],
      "stateMutability": "view",
      "type": "function"
    },
    {
      "inputs": [],
      "name": "totalSupply",
      "outputs": [
        {
          "internalType": "uint256",
          "name": "",
          "type": "uint256"
        }
      ],
      "stateMutability": "view",
      "type": "function"
    },
    {
      "inputs": [
        {
          "internalType": "uint256",
          "name": "snapshotId",
          "type": "uint256"
        }
      ],
      "name": "totalSupplyAt",
      "outputs": [
        {
          "internalType": "uint256",
          "name": "",
          "type": "uint256"
        }
      ],
      "stateMutability": "view",
      "type": "function"
    },
    {
      "inputs": [
        {
          "internalType": "address",
          "name": "recipient",
          "type": "address"
        },
        {
          "internalType": "uint256",
          "name": "amount",
          "type": "uint256"
        }
      ],
      "name": "transfer",
      "outputs": [
        {
          "internalType": "bool",
          "name": "",
          "type": "bool"
        }
      ],
      "stateMutability": "nonpayable",
      "type": "function"
    },
    {
      "inputs": [
        {
          "internalType": "address",
          "name": "sender",
          "type": "address"
        },
        {
          "internalType": "address",
          "name": "recipient",
          "type": "address"
        },
        {
          "internalType": "uint256",
          "name": "amount",
          "type": "uint256"
        }
      ],
      "name": "transferFrom",
      "outputs": [
        {
          "internalType": "bool",
          "name": "",
          "type": "bool"
        }
      ],
      "stateMutability": "nonpayable",
      "type": "function"
    },
    {
      "inputs": [
        {
          "internalType": "address",
          "name": "newOwner",
          "type": "address"
        }
      ],
      "name": "transferOwnership",
      "outputs": [],
      "stateMutability": "nonpayable",
      "type": "function"
    },
    {
      "inputs": [
        {
          "internalType": "contract IERC20",
          "name": "_token",
          "type": "address"
        },
        {
          "internalType": "address",
          "name": "to",
          "type": "address"
        },
        {
          "internalType": "uint256",
          "name": "amount",
          "type": "uint256"
        }
      ],
      "name": "transferToken",
      "outputs": [],
      "stateMutability": "nonpayable",
      "type": "function"
    },
    {
      "inputs": [],
      "name": "unlockedClaimPenalty",
      "outputs": [
        {
          "internalType": "uint256",
          "name": "",
          "type": "uint256"
        }
      ],
      "stateMutability": "view",
      "type": "function"
    },
    {
      "inputs": [
        {
          "internalType": "address",
          "name": "",
          "type": "address"
        }
      ],
      "name": "userInfo",
      "outputs": [
        {
          "internalType": "uint256",
          "name": "lockToTime",
          "type": "uint256"
        },
        {
          "internalType": "uint256",
          "name": "chosenLockTime",
          "type": "uint256"
        },
        {
          "internalType": "address",
          "name": "approveTransferFrom",
          "type": "address"
        },
        {
          "internalType": "uint256",
          "name": "lastTotalGameClaimed",
          "type": "uint256"
        },
        {
          "internalType": "uint256",
          "name": "stakeRequestedInMaster",
          "type": "uint256"
        },
        {
          "internalType": "uint256",
          "name": "stakeRequestedInTheory",
          "type": "uint256"
        },
        {
          "internalType": "uint256",
          "name": "withdrawRequestedInMaster",
          "type": "uint256"
        },
        {
          "internalType": "uint256",
          "name": "withdrawRequestedInTheory",
          "type": "uint256"
        },
        {
          "internalType": "uint256",
          "name": "lastStakeRequestBlock",
          "type": "uint256"
        },
        {
          "internalType": "uint256",
          "name": "lastWithdrawRequestBlock",
          "type": "uint256"
        }
      ],
      "stateMutability": "view",
      "type": "function"
    }
  ],
  "bytecode": "0x60806040523480156200001157600080fd5b5060405162004bf438038062004bf4833981810160405260808110156200003757600080fd5b50805160208083015160408085015160609095015181518083018352600c81526b26b0b9ba32b9102a37b5b2b760a11b8186019081528351808501909452600684526526a0a9aa22a960d11b9584019590955280519596939593949193909291620000a691600391906200018d565b508051620000bc9060049060208401906200018d565b50506005805460ff19166012179055506000620000d862000189565b600a80546001600160a01b0319166001600160a01b038316908117909155604051919250906000907f8be0079c531659141344cd1fd0a4f28419497f9722a3daafe3b4186f6b6457e0908290a350600f80546001600160a01b039586166001600160a01b03199182161790915560108054948616948216949094179093556011805492851692841692909217909155601280549190931691161790556301e1338060135562278d0060145562000229565b3390565b828054600181600116156101000203166002900490600052602060002090601f016020900481019282601f10620001d057805160ff191683800117855562000200565b8280016001018555821562000200579182015b8281111562000200578251825591602001919060010190620001e3565b506200020e92915062000212565b5090565b5b808211156200020e576000815560010162000213565b6149bb80620002396000396000f3fe608060405234801561001057600080fd5b50600436106102685760003560e01c80638da5cb5b11610151578063b9181611116100c3578063dd62ed3e11610087578063dd62ed3e14610730578063e4d2c45e1461075e578063f2fde38b14610787578063f5537ede146107ad578063f894dd21146107e3578063fdb781c81461080c57610268565b8063b918161114610699578063c3fe3e28146106bf578063c7b728de146106c7578063cf1c316a146106e4578063d3819abc1461070a57610268565b8063a5bd5f4d11610115578063a5bd5f4d146105f4578063a60ff766146105fc578063a77a5d1314610604578063a9059cbb14610648578063ab9fb43814610674578063ad45e4ae1461069157610268565b80638da5cb5b1461059357806395d89b411461059b57806397b98e4a146105a3578063981b24d0146105ab578063a457c2d7146105c857610268565b80633c32a450116101ea57806364c08741116101ae57806364c087411461051557806364efc79b1461053857806370a0823114610555578063715018a61461057b57806378424d58146105835780637abde2af1461058b57610268565b80633c32a450146104ab578063485d7d94146104b35780634ee2cd7e146104d95780635358a2af146105055780635936e8bd1461050d57610268565b80631959a002116102315780631959a0021461038757806323b872dd146104055780632e9c80721461043b578063313ce56714610461578063395093511461047f57610268565b8062f380f41461026d57806306fdde0314610291578063095ea7b31461030e57806318160ddd1461034e57806318bb939a14610368575b600080fd5b610275610814565b604080516001600160a01b039092168252519081900360200190f35b610299610823565b6040805160208082528351818301528351919283929083019185019080838360005b838110156102d35781810151838201526020016102bb565b50505050905090810190601f1680156103005780820380516001836020036101000a031916815260200191505b509250505060405180910390f35b61033a6004803603604081101561032457600080fd5b506001600160a01b0381351690602001356108b9565b604080519115158252519081900360200190f35b6103566108d7565b60408051918252519081900360200190f35b6103856004803603602081101561037e57600080fd5b50356108dd565b005b6103ad6004803603602081101561039d57600080fd5b50356001600160a01b0316610c87565b604080519a8b5260208b01999099526001600160a01b03909716898901526060890195909552608088019390935260a087019190915260c086015260e085015261010084015261012083015251908190036101400190f35b61033a6004803603606081101561041b57600080fd5b506001600160a01b03813581169160208101359091169060400135610ce2565b6103566004803603602081101561045157600080fd5b50356001600160a01b0316610d6a565b610469610e2a565b6040805160ff9092168252519081900360200190f35b61033a6004803603604081101561049557600080fd5b506001600160a01b038135169060200135610e33565b610275610e81565b610385600480360360208110156104c957600080fd5b50356001600160a01b0316610e90565b610356600480360360408110156104ef57600080fd5b506001600160a01b038135169060200135610f29565b610356610f72565b610385610f78565b6103856004803603604081101561052b57600080fd5b508035906020013561107e565b6103856004803603602081101561054e57600080fd5b5035611498565b6103566004803603602081101561056b57600080fd5b50356001600160a01b031661177a565b610385611795565b610385611841565b61038561190e565b610275611b70565b610299611b7f565b610385611be0565b610356600480360360208110156105c157600080fd5b50356121c4565b61033a600480360360408110156105de57600080fd5b506001600160a01b0381351690602001356121f4565b61035661225c565b610356612262565b61033a600480360360a081101561061a57600080fd5b506001600160a01b038135811691602081013590911690604081013590606081013590608001351515612268565b61033a6004803603604081101561065e57600080fd5b506001600160a01b0381351690602001356123ff565b6103566004803603602081101561068a57600080fd5b5035612413565b6102756124c7565b61033a600480360360208110156106af57600080fd5b50356001600160a01b03166124d6565b6102756124eb565b610356600480360360208110156106dd57600080fd5b50356124fa565b610385600480360360208110156106fa57600080fd5b50356001600160a01b03166125ae565b61033a6004803603602081101561072057600080fd5b50356001600160a01b0316612634565b6103566004803603604081101561074657600080fd5b506001600160a01b03813581169160200135166126b1565b6103566004803603606081101561077457600080fd5b50803590602081013590604001356126dc565b6103856004803603602081101561079d57600080fd5b50356001600160a01b0316612705565b610385600480360360608110156107c357600080fd5b506001600160a01b03813581169160208101359091169060400135612808565b610356600480360360608110156107f957600080fd5b50803590602081013590604001356129a5565b6103856129ce565b6012546001600160a01b031681565b60038054604080516020601f60026000196101006001881615020190951694909404938401819004810282018101909252828152606093909290918301828280156108af5780601f10610884576101008083540402835291602001916108af565b820191906000526020600020905b81548152906001019060200180831161089257829003601f168201915b5050505050905090565b60006108cd6108c6612b13565b8484612b17565b5060015b92915050565b60025490565b336000908152600b602052604090205460ff168061090a5750336108ff611b70565b6001600160a01b0316145b610956576040805162461bcd60e51b815260206004820152601860248201527718d85b1b195c881a5cc81b9bdd08185d5d1a1bdc9a5e995960421b604482015290519081900360640190fd5b61095e612c03565b1561099a5760405162461bcd60e51b81526004018080602001828103825260268152602001806149086026913960400191505060405180910390fd5b6109a2612c24565b156109de5760405162461bcd60e51b81526004018080602001828103825260268152602001806149086026913960400191505060405180910390fd5b610a756109f8601a54601554612c4590919063ffffffff16565b600f54604080516370a0823160e01b815230600482015290516001600160a01b03909216916370a0823191602480820192602092909190829003018186803b158015610a4357600080fd5b505afa158015610a57573d6000803e3d6000fd5b505050506040513d6020811015610a6d57600080fd5b505190612c9f565b811115610ac9576040805162461bcd60e51b815260206004820152601b60248201527f43616e6e6f74207374616b652070656e64696e672066756e64732e0000000000604482015290519081900360640190fd5b601160009054906101000a90046001600160a01b03166001600160a01b031663900cf0cf6040518163ffffffff1660e01b815260040160206040518083038186803b158015610b1757600080fd5b505afa158015610b2b573d6000803e3d6000fd5b505050506040513d6020811015610b4157600080fd5b5051601c541480610bc95750601160009054906101000a90046001600160a01b03166001600160a01b03166313f24daf6040518163ffffffff1660e01b815260040160206040518083038186803b158015610b9b57600080fd5b505afa158015610baf573d6000803e3d6000fd5b505050506040513d6020811015610bc557600080fd5b5051155b15610c38576011546040805163534a7e1d60e11b81526004810184905290516001600160a01b039092169163a694fc3a9160248082019260009290919082900301818387803b158015610c1b57600080fd5b505af1158015610c2f573d6000803e3d6000fd5b50505050610c49565b601554610c459082612c45565b6015555b50436000908152600c602090815260408083203284529091528082208054600160ff1991821681179092553384529190922080549091169091179055565b600d602052600090815260409020805460018201546002830154600384015460048501546005860154600687015460078801546008890154600990990154979896976001600160a01b0390961696949593949293919290918a565b6000610cef848484612cfc565b610d5f84610cfb612b13565b610d5a856040518060600160405280602881526020016147f9602891396001600160a01b038a16600090815260016020526040812090610d39612b13565b6001600160a01b031681526020810191909152604001600020549190612e6a565b612b17565b5060015b9392505050565b6000610d758261177a565b610d8157506000610e25565b6001600160a01b0382166000908152600d602052604081206003810154600e54919291610dad91612c9f565b905080610dbf57600092505050610e25565b6000610dc96108d7565b905080610ddc5760009350505050610e25565b6000610e0382610dfd670de0b6b3a7640000610df73361177a565b90612f01565b90612f5a565b90506000610e1d670de0b6b3a7640000610dfd8685612f01565b955050505050505b919050565b60055460ff1690565b60006108cd610e40612b13565b84610d5a8560016000610e51612b13565b6001600160a01b03908116825260208083019390935260409182016000908120918c168152925290205490612c45565b600f546001600160a01b031681565b610e98612b13565b6001600160a01b0316610ea9611b70565b6001600160a01b031614610ef2576040805162461bcd60e51b81526020600482018190526024820152600080516020614821833981519152604482015290519081900360640190fd5b6001600160a01b038116331415610f0857600080fd5b6001600160a01b03166000908152600b60205260409020805460ff19169055565b6001600160a01b038216600090815260066020526040812081908190610f50908590612fc1565b9150915081610f6757610f628561177a565b610f69565b805b95945050505050565b60145481565b610f80612c03565b15610fbc5760405162461bcd60e51b81526004018080602001828103825260268152602001806149086026913960400191505060405180910390fd5b610fc4612c24565b156110005760405162461bcd60e51b81526004018080602001828103825260268152602001806149086026913960400191505060405180910390fd5b61100933612634565b61104e576040805162461bcd60e51b815260206004820152601160248201527027379023a0a6a2903a379031b630b4b69760791b604482015290519081900360640190fd5b336000908152600d602052604090208054421061107657601454611073904290612c45565b81555b610c496130be565b611086612c03565b156110c25760405162461bcd60e51b81526004018080602001828103825260268152602001806149086026913960400191505060405180910390fd5b6110ca612c24565b156111065760405162461bcd60e51b81526004018080602001828103825260268152602001806149086026913960400191505060405180910390fd5b60008211611155576040805162461bcd60e51b81526020600482015260176024820152762737903d32b9379030b6b7bab73a1030b63637bbb2b21760491b604482015290519081900360640190fd5b336000908152600d60205260409020600681015415801561117b57508060090154601d54115b6111b65760405162461bcd60e51b81526004018080602001828103825260258152602001806146f96025913960400191505060405180910390fd5b6013548210156111c65760135491505b60006111d24284612c45565b6001830184905582549091508111156111ef576111ef3382613327565b60006111fa85612413565b600f54909150611215906001600160a01b0316333088613343565b6040805186815260208101839052815133927fc5367970eb680b70294f3a8b21b129a9f897a6937f748f467e34d368d37180d7928290030190a2601160009054906101000a90046001600160a01b03166001600160a01b031663900cf0cf6040518163ffffffff1660e01b815260040160206040518083038186803b15801561129d57600080fd5b505afa1580156112b1573d6000803e3d6000fd5b505050506040513d60208110156112c757600080fd5b5051601c54148061134f5750601160009054906101000a90046001600160a01b03166001600160a01b03166313f24daf6040518163ffffffff1660e01b815260040160206040518083038186803b15801561132157600080fd5b505afa158015611335573d6000803e3d6000fd5b505050506040513d602081101561134b57600080fd5b5051155b156114055761135e33826133a3565b6011546040805163534a7e1d60e11b81526004810188905290516001600160a01b039092169163a694fc3a9160248082019260009290919082900301818387803b1580156113ab57600080fd5b505af11580156113bf573d6000803e3d6000fd5b5050604080518881526020810185905281513394507f90890809c654f11d6e72a28fa60149770a0d11ec6c92319d6ceb2bb0a4ea1a1593509081900390910190a261144e565b60048301546114149082612c45565b60048401556016546114269082612c45565b60165560058301546114389082612c45565b600584015560155461144a9086612c45565b6015555b50504360089091018190556000908152600c60209081526040808320328452808352818420805460ff19908116600190811790925533865291909352922080549092161790555050565b6114a0612c03565b156114dc5760405162461bcd60e51b81526004018080602001828103825260268152602001806149086026913960400191505060405180910390fd5b6114e4612c24565b156115205760405162461bcd60e51b81526004018080602001828103825260268152602001806149086026913960400191505060405180910390fd5b336000908152600d602052604090208054421015611575576040805162461bcd60e51b815260206004820152600d60248201526c5374696c6c206c6f636b65642160981b604482015290519081900360640190fd5b600082116115c4576040805162461bcd60e51b81526020600482015260176024820152762737903d32b9379030b6b7bab73a1030b63637bbb2b21760491b604482015290519081900360640190fd5b60048101541580156115db57508060080154601e54115b6116165760405162461bcd60e51b81526004018080602001828103825260258152602001806147706025913960400191505060405180910390fd5b60068101546116259083612c45565b60068201556018546116379083612c45565b6018556000611645836124fa565b60078301549091506116579082612c45565b60078301556017546116699082612c45565b6017554360098301556040805184815260208101839052815133927fcbc7c7858f9ab8ce22517d4b910042540172c3d579222cf6716e222f341ca371928290030190a2601160009054906101000a90046001600160a01b03166001600160a01b03166313f24daf6040518163ffffffff1660e01b815260040160206040518083038186803b1580156116fa57600080fd5b505afa15801561170e573d6000803e3d6000fd5b505050506040513d602081101561172457600080fd5b505161173a57611732613493565b61173a613c6a565b5050436000908152600c602090815260408083203284529091528082208054600160ff199182168117909255338452919092208054909116909117905550565b6001600160a01b031660009081526020819052604090205490565b61179d612b13565b6001600160a01b03166117ae611b70565b6001600160a01b0316146117f7576040805162461bcd60e51b81526020600482018190526024820152600080516020614821833981519152604482015290519081900360640190fd5b600a546040516000916001600160a01b0316907f8be0079c531659141344cd1fd0a4f28419497f9722a3daafe3b4186f6b6457e0908390a3600a80546001600160a01b0319169055565b611849612c03565b156118855760405162461bcd60e51b81526004018080602001828103825260268152602001806149086026913960400191505060405180910390fd5b61188d612c24565b156118c95760405162461bcd60e51b81526004018080602001828103825260268152602001806149086026913960400191505060405180910390fd5b6118d1613493565b436000908152600c602090815260408083203284529091528082208054600160ff1991821681179092553384529190922080549091169091179055565b611916612c03565b156119525760405162461bcd60e51b81526004018080602001828103825260268152602001806149086026913960400191505060405180910390fd5b61195a612c24565b156119965760405162461bcd60e51b81526004018080602001828103825260268152602001806149086026913960400191505060405180910390fd5b601160009054906101000a90046001600160a01b03166001600160a01b03166313f24daf6040518163ffffffff1660e01b815260040160206040518083038186803b1580156119e457600080fd5b505afa1580156119f8573d6000803e3d6000fd5b505050506040513d6020811015611a0e57600080fd5b5051611a4b5760405162461bcd60e51b815260040180806020018281038252602281526020018061468f6022913960400191505060405180910390fd5b336000908152600d602052604090206004810154611aaa576040805162461bcd60e51b81526020600482015260176024820152762737903d32b9379030b6b7bab73a1030b63637bbb2b21760491b604482015290519081900360640190fd5b601160009054906101000a90046001600160a01b03166001600160a01b03166313f24daf6040518163ffffffff1660e01b815260040160206040518083038186803b158015611af857600080fd5b505afa158015611b0c573d6000803e3d6000fd5b505050506040513d6020811015611b2257600080fd5b50511580611b3557508060080154601e54115b610c495760405162461bcd60e51b81526004018080602001828103825260338152602001806145f26033913960400191505060405180910390fd5b600a546001600160a01b031690565b60048054604080516020601f60026000196101006001881615020190951694909404938401819004810282018101909252828152606093909290918301828280156108af5780601f10610884576101008083540402835291602001916108af565b611be8612c03565b15611c245760405162461bcd60e51b81526004018080602001828103825260268152602001806149086026913960400191505060405180910390fd5b611c2c612c24565b15611c685760405162461bcd60e51b81526004018080602001828103825260268152602001806149086026913960400191505060405180910390fd5b601154604080516313f24daf60e01b815290516000926001600160a01b0316916313f24daf916004808301926020929190829003018186803b158015611cad57600080fd5b505afa158015611cc1573d6000803e3d6000fd5b505050506040513d6020811015611cd757600080fd5b50519050801580611d695750611d6781601160009054906101000a90046001600160a01b03166001600160a01b031663900cf0cf6040518163ffffffff1660e01b815260040160206040518083038186803b158015611d3557600080fd5b505afa158015611d49573d6000803e3d6000fd5b505050506040513d6020811015611d5f57600080fd5b505190613e57565b155b611dba576040805162461bcd60e51b815260206004820152601e60248201527f4d7573742063616c6c20617420612077697468647261772065706f63682e0000604482015290519081900360640190fd5b801580611e1a5750610708611e1742601160009054906101000a90046001600160a01b03166001600160a01b031663c5967c266040518163ffffffff1660e01b815260040160206040518083038186803b158015610a4357600080fd5b11155b611e555760405162461bcd60e51b815260040180806020018281038252602c815260200180614744602c913960400191505060405180910390fd5b801580611edd5750601160009054906101000a90046001600160a01b03166001600160a01b031663900cf0cf6040518163ffffffff1660e01b815260040160206040518083038186803b158015611eab57600080fd5b505afa158015611ebf573d6000803e3d6000fd5b505050506040513d6020811015611ed557600080fd5b5051601c5414155b611f20576040805162461bcd60e51b815260206004820152600f60248201526e20b63932b0b23c9031b0b63632b21760891b604482015290519081900360640190fd5b601160009054906101000a90046001600160a01b03166001600160a01b03166313f24daf6040518163ffffffff1660e01b815260040160206040518083038186803b158015611f6e57600080fd5b505afa158015611f82573d6000803e3d6000fd5b505050506040513d6020811015611f9857600080fd5b505115806120205750601160009054906101000a90046001600160a01b03166001600160a01b031663900cf0cf6040518163ffffffff1660e01b815260040160206040518083038186803b158015611fef57600080fd5b505afa158015612003573d6000803e3d6000fd5b505050506040513d602081101561201957600080fd5b5051601b54145b61206a576040805162461bcd60e51b815260206004820152601660248201527524b734ba34b0ba32903830b93a1018903334b939ba1760511b604482015290519081900360640190fd5b601554156121045761207e306016546133a3565b6011546015546040805163534a7e1d60e11b81526004810192909252516001600160a01b039092169163a694fc3a9160248082019260009290919082900301818387803b1580156120ce57600080fd5b505af11580156120e2573d6000803e3d6000fd5b50506016546019546120f693509150612c45565b601955600060168190556015555b601160009054906101000a90046001600160a01b03166001600160a01b031663900cf0cf6040518163ffffffff1660e01b815260040160206040518083038186803b15801561215257600080fd5b505afa158015612166573d6000803e3d6000fd5b505050506040513d602081101561217c57600080fd5b5051601c555043601e8190556000908152600c602090815260408083203284529091528082208054600160ff1991821681179092553384529190922080549091169091179055565b60008060006121d4846007612fc1565b91509150816121ea576121e56108d7565b6121ec565b805b949350505050565b60006108cd612201612b13565b84610d5a85604051806060016040528060258152602001614961602591396001600061222b612b13565b6001600160a01b03908116825260208083019390935260409182016000908120918d16815292529020549190612e6a565b600e5481565b60135481565b336000908152600b602052604081205460ff168061229557503361228a611b70565b6001600160a01b0316145b6122e1576040805162461bcd60e51b815260206004820152601860248201527718d85b1b195c881a5cc81b9bdd08185d5d1a1bdc9a5e995960421b604482015290519081900360640190fd5b6122e9612c03565b156123255760405162461bcd60e51b81526004018080602001828103825260268152602001806149086026913960400191505060405180910390fd5b61232d612c24565b156123695760405162461bcd60e51b81526004018080602001828103825260268152602001806149086026913960400191505060405180910390fd5b60008261237a5761237a8685613327565b6001600160a01b03871633141561239c5761239586866123ff565b90506123aa565b6123a7878787610ce2565b90505b82156123ba576123ba8685613327565b436000908152600c602090815260408083203284529091528082208054600160ff19918216811790925533845291909220805490911690911790559695505050505050565b60006108cd61240c612b13565b8484612cfc565b601154604080516370a0823160e01b8152306004820152905160009283926001600160a01b03909116916370a0823191602480820192602092909190829003018186803b15801561246357600080fd5b505afa158015612477573d6000803e3d6000fd5b505050506040513d602081101561248d57600080fd5b50519050600061249b6108d7565b90508015806124a8575081155b156124b7578392505050610e25565b6000610f6983610dfd8785612f01565b6011546001600160a01b031681565b600b6020526000908152604090205460ff1681565b6010546001600160a01b031681565b601154604080516370a0823160e01b8152306004820152905160009283926001600160a01b03909116916370a0823191602480820192602092909190829003018186803b15801561254a57600080fd5b505afa15801561255e573d6000803e3d6000fd5b505050506040513d602081101561257457600080fd5b5051905060006125826108d7565b905080158061258f575081155b1561259e578392505050610e25565b6000610f6982610dfd8786612f01565b6125b6612b13565b6001600160a01b03166125c7611b70565b6001600160a01b031614612610576040805162461bcd60e51b81526020600482018190526024820152600080516020614821833981519152604482015290519081900360640190fd5b6001600160a01b03166000908152600b60205260409020805460ff19166001179055565b600061263f8261177a565b61264b57506000610e25565b6001600160a01b0382166000908152600d602052604081206003810154600e5491929161267791612c9f565b90508061268957600092505050610e25565b60006126936108d7565b9050806126a65760009350505050610e25565b506001949350505050565b6001600160a01b03918216600090815260016020908152604080832093909416825291909152205490565b60008115806126e9575082155b156126f5575082610d63565b6000610f6983610dfd8787612f01565b61270d612b13565b6001600160a01b031661271e611b70565b6001600160a01b031614612767576040805162461bcd60e51b81526020600482018190526024820152600080516020614821833981519152604482015290519081900360640190fd5b6001600160a01b0381166127ac5760405162461bcd60e51b81526004018080602001828103825260268152602001806146476026913960400191505060405180910390fd5b600a546040516001600160a01b038084169216907f8be0079c531659141344cd1fd0a4f28419497f9722a3daafe3b4186f6b6457e090600090a3600a80546001600160a01b0319166001600160a01b0392909216919091179055565b336000908152600b602052604090205460ff168061283557503361282a611b70565b6001600160a01b0316145b612881576040805162461bcd60e51b815260206004820152601860248201527718d85b1b195c881a5cc81b9bdd08185d5d1a1bdc9a5e995960421b604482015290519081900360640190fd5b612889612c03565b156128c55760405162461bcd60e51b81526004018080602001828103825260268152602001806149086026913960400191505060405180910390fd5b6128cd612c24565b156129095760405162461bcd60e51b81526004018080602001828103825260268152602001806149086026913960400191505060405180910390fd5b6001600160a01b0383163014158061293b57506129376019546129316018546129313061177a565b90612c9f565b8111155b61294457600080fd5b600f546001600160a01b03848116911614156129915760405162461bcd60e51b81526004018080602001828103825260228152602001806146b16022913960400191505060405180910390fd5b61173a6001600160a01b0384168383613ebe565b60008115806129b2575082155b156129be575082610d63565b6000610f6984610dfd8786612f01565b6129d6612c03565b15612a125760405162461bcd60e51b81526004018080602001828103825260268152602001806149086026913960400191505060405180910390fd5b612a1a612c24565b15612a565760405162461bcd60e51b81526004018080602001828103825260268152602001806149086026913960400191505060405180910390fd5b601160009054906101000a90046001600160a01b03166001600160a01b03166313f24daf6040518163ffffffff1660e01b815260040160206040518083038186803b158015612aa457600080fd5b505afa158015612ab8573d6000803e3d6000fd5b505050506040513d6020811015612ace57600080fd5b5051612b0b5760405162461bcd60e51b81526004018080602001828103825260218152602001806147956021913960400191505060405180910390fd5b6118d1613c6a565b3390565b6001600160a01b038316612b5c5760405162461bcd60e51b81526004018080602001828103825260248152602001806148ba6024913960400191505060405180910390fd5b6001600160a01b038216612ba15760405162461bcd60e51b815260040180806020018281038252602281526020018061466d6022913960400191505060405180910390fd5b6001600160a01b03808416600081815260016020908152604080832094871680845294825291829020859055815185815291517f8c5be1e5ebec7d5bd14f71427d1e84f3dd0314c0f7b2291e5b200ac8c7c3b9259281900390910190a3505050565b436000908152600c6020908152604080832032845290915290205460ff1690565b436000908152600c6020908152604080832033845290915290205460ff1690565b600082820183811015610d63576040805162461bcd60e51b815260206004820152601b60248201527f536166654d6174683a206164646974696f6e206f766572666c6f770000000000604482015290519081900360640190fd5b600082821115612cf6576040805162461bcd60e51b815260206004820152601e60248201527f536166654d6174683a207375627472616374696f6e206f766572666c6f770000604482015290519081900360640190fd5b50900390565b336000908152600b602052604090205460ff1680612d29575033612d1e611b70565b6001600160a01b0316145b80612d3e57506012546001600160a01b031633145b80612d4857503033145b80612d6b57506001600160a01b0382166000908152600b602052604090205460ff165b80612d8e5750816001600160a01b0316612d83611b70565b6001600160a01b0316145b80612da657506012546001600160a01b038381169116145b80612db95750306001600160a01b038316145b612e5a576001600160a01b038281166000908152600d6020526040902060028101549091858116911614612e1e5760405162461bcd60e51b81526004018080602001828103825260228152602001806147b66022913960400191505060405180910390fd5b6002810180546001600160a01b0319169055601354600090612e41904290612c45565b8254909150811115612e5757612e578482613327565b50505b612e65838383613f10565b505050565b60008184841115612ef95760405162461bcd60e51b81526004018080602001828103825283818151815260200191508051906020019080838360005b83811015612ebe578181015183820152602001612ea6565b50505050905090810190601f168015612eeb5780820380516001836020036101000a031916815260200191505b509250505060405180910390fd5b505050900390565b600082612f10575060006108d1565b82820282848281612f1d57fe5b0414610d635760405162461bcd60e51b81526004018080602001828103825260218152602001806147d86021913960400191505060405180910390fd5b6000808211612fb0576040805162461bcd60e51b815260206004820152601a60248201527f536166654d6174683a206469766973696f6e206279207a65726f000000000000604482015290519081900360640190fd5b818381612fb957fe5b049392505050565b60008060008411613012576040805162461bcd60e51b815260206004820152601660248201527504552433230536e617073686f743a20696420697320360541b604482015290519081900360640190fd5b61301c600961406b565b841115613070576040805162461bcd60e51b815260206004820152601d60248201527f4552433230536e617073686f743a206e6f6e6578697374656e74206964000000604482015290519081900360640190fd5b600061307c848661406f565b84549091508114156130955760008092509250506130b7565b60018460010182815481106130a657fe5b906000526020600020015492509250505b9250929050565b336000908152600d602052604081206003810154600e549192916130e191612c9f565b600e5460038401559050600061310d6130f86108d7565b610dfd670de0b6b3a7640000610df73361177a565b90506000613127670de0b6b3a7640000610dfd8585612f01565b6010546040805163a9059cbb60e01b81523360048201526024810184905290519293506001600160a01b039091169163a9059cbb916044808201926020929091908290030181600087803b15801561317e57600080fd5b505af1158015613192573d6000803e3d6000fd5b505050506040513d60208110156131a857600080fd5b505060115460408051638278b53b60e01b8152905160009283926001600160a01b0390911691638278b53b91600480820192602092909190829003018186803b1580156131f457600080fd5b505afa158015613208573d6000803e3d6000fd5b505050506040513d602081101561321e57600080fd5b5051905060648111156132625760405162461bcd60e51b81526004018080602001828103825260338152602001806148626033913960400191505060405180910390fd5b6132716064610dfd8584612f01565b915081156132e5576010546040805163282d3fdf60e01b81523360048201526024810185905290516001600160a01b039092169163282d3fdf9160448082019260009290919082900301818387803b1580156132cc57600080fd5b505af11580156132e0573d6000803e3d6000fd5b505050505b6040805184815260208101849052815133927fd6f2c8500df5b44f11e9e48b91ff9f1b9d81bc496d55570c2b1b75bf65243f51928290030190a2505050505050565b6001600160a01b039091166000908152600d6020526040902055565b604080516001600160a01b0380861660248301528416604482015260648082018490528251808303909101815260849091019091526020810180516001600160e01b03166323b872dd60e01b17905261339d908590614110565b50505050565b6001600160a01b0382166133fe576040805162461bcd60e51b815260206004820152601f60248201527f45524332303a206d696e7420746f20746865207a65726f206164647265737300604482015290519081900360640190fd5b61340a600083836141c1565b6002546134179082612c45565b6002556001600160a01b03821660009081526020819052604090205461343d9082612c45565b6001600160a01b0383166000818152602081815260408083209490945583518581529351929391927fddf252ad1be2c89b69c2b068fc378daa952ba7f163c4a11628f55a4df523b3ef9281900390910190a35050565b601154604080516313f24daf60e01b815290516000926001600160a01b0316916313f24daf916004808301926020929190829003018186803b1580156134d857600080fd5b505afa1580156134ec573d6000803e3d6000fd5b505050506040513d602081101561350257600080fd5b50519050801580613562575061356081601160009054906101000a90046001600160a01b03166001600160a01b031663900cf0cf6040518163ffffffff1660e01b815260040160206040518083038186803b158015611d3557600080fd5b155b6135b3576040805162461bcd60e51b815260206004820152601e60248201527f4d7573742063616c6c20617420612077697468647261772065706f63682e0000604482015290519081900360640190fd5b801580613613575061070861361042601160009054906101000a90046001600160a01b03166001600160a01b031663c5967c266040518163ffffffff1660e01b815260040160206040518083038186803b158015610a4357600080fd5b11155b61364e5760405162461bcd60e51b815260040180806020018281038252602c815260200180614744602c913960400191505060405180910390fd5b8015806136d65750601160009054906101000a90046001600160a01b03166001600160a01b031663900cf0cf6040518163ffffffff1660e01b815260040160206040518083038186803b1580156136a457600080fd5b505afa1580156136b8573d6000803e3d6000fd5b505050506040513d60208110156136ce57600080fd5b5051601b5414155b613719576040805162461bcd60e51b815260206004820152600f60248201526e20b63932b0b23c9031b0b63632b21760891b604482015290519081900360640190fd5b60105460408051632587701560e11b815230600482015290516000926001600160a01b031691634b0ee02a916024808301926020929190829003018186803b15801561376457600080fd5b505afa158015613778573d6000803e3d6000fd5b505050506040513d602081101561378e57600080fd5b5051601854909150156137ad576137a730601854614219565b60006018555b60175461382157601160009054906101000a90046001600160a01b03166001600160a01b031663b88a802f6040518163ffffffff1660e01b8152600401600060405180830381600087803b15801561380457600080fd5b505af1158015613818573d6000803e3d6000fd5b50505050613a6a565b600f54604080516370a0823160e01b815230600482015290516000926001600160a01b0316916370a08231916024808301926020929190829003018186803b15801561386c57600080fd5b505afa158015613880573d6000803e3d6000fd5b505050506040513d602081101561389657600080fd5b505160175460115460408051632e1a7d4d60e01b815260048101849052905193945091926001600160a01b0390911691632e1a7d4d91602480830192600092919082900301818387803b1580156138ec57600080fd5b505af1158015613900573d6000803e3d6000fd5b505060006017555050601a546139169082612c45565b601a55600f54604080516370a0823160e01b815230600482015290516000926001600160a01b0316916370a08231916024808301926020929190829003018186803b15801561396457600080fd5b505afa158015613978573d6000803e3d6000fd5b505050506040513d602081101561398e57600080fd5b50519050600061399e8285612c9f565b905060006139ac8483612c9f565b9050600081118015613a415750600f5460125460408051636eb1769f60e11b81526001600160a01b0392831660048201523060248201529051600093929092169163dd62ed3e91604480820192602092909190829003018186803b158015613a1357600080fd5b505afa158015613a27573d6000803e3d6000fd5b505050506040513d6020811015613a3d57600080fd5b5051115b15613a6457601254600f54613a64916001600160a01b0391821691163084613343565b50505050505b60105460408051635a46d3b560e01b8152306004820181905291516001600160a01b039093169263af2b0f6692918491635a46d3b591602480820192602092909190829003018186803b158015613ac057600080fd5b505afa158015613ad4573d6000803e3d6000fd5b505050506040513d6020811015613aea57600080fd5b5051604080516001600160e01b031960e086901b1681526001600160a01b039093166004840152602483019190915251604480830192600092919082900301818387803b158015613b3a57600080fd5b505af1158015613b4e573d6000803e3d6000fd5b505060105460408051632587701560e11b81523060048201529051600094506001600160a01b039092169250634b0ee02a916024808301926020929190829003018186803b158015613b9f57600080fd5b505afa158015613bb3573d6000803e3d6000fd5b505050506040513d6020811015613bc957600080fd5b505190506000613bd98284612c9f565b600e54909150613be99082612c45565b600e556011546040805163900cf0cf60e01b815290516001600160a01b039092169163900cf0cf91600480820192602092909190829003018186803b158015613c3157600080fd5b505afa158015613c45573d6000803e3d6000fd5b505050506040513d6020811015613c5b57600080fd5b5051601b55505043601d555050565b336000908152600d602052604090208054421015613cbf576040805162461bcd60e51b815260206004820152600d60248201526c5374696c6c206c6f636b65642160981b604482015290519081900360640190fd5b6000816006015411613d12576040805162461bcd60e51b81526020600482015260176024820152762737903d32b9379030b6b7bab73a1030b63637bbb2b21760491b604482015290519081900360640190fd5b601160009054906101000a90046001600160a01b03166001600160a01b03166313f24daf6040518163ffffffff1660e01b815260040160206040518083038186803b158015613d6057600080fd5b505afa158015613d74573d6000803e3d6000fd5b505050506040513d6020811015613d8a57600080fd5b50511580613d9d57508060090154601d54115b613dd85760405162461bcd60e51b815260040180806020018281038252603381526020018061492e6033913960400191505060405180910390fd5b6007810154601a54613dea9082612c9f565b601a556006820180546000918290556007840191909155600f54613e18906001600160a01b03163384613ebe565b6040805182815260208101849052815133927ff279e6a1f5e320cca91135676d9cb6e44ca8a08c0b88342bcdb1144f6511b568928290030190a2505050565b6000808211613ead576040805162461bcd60e51b815260206004820152601860248201527f536166654d6174683a206d6f64756c6f206279207a65726f0000000000000000604482015290519081900360640190fd5b818381613eb657fe5b069392505050565b604080516001600160a01b038416602482015260448082018490528251808303909101815260649091019091526020810180516001600160e01b031663a9059cbb60e01b179052612e65908490614110565b6001600160a01b038316613f555760405162461bcd60e51b81526004018080602001828103825260258152602001806148956025913960400191505060405180910390fd5b6001600160a01b038216613f9a5760405162461bcd60e51b81526004018080602001828103825260238152602001806145cf6023913960400191505060405180910390fd5b613fa58383836141c1565b613fe2816040518060600160405280602681526020016146d3602691396001600160a01b0386166000908152602081905260409020549190612e6a565b6001600160a01b0380851660009081526020819052604080822093909355908416815220546140119082612c45565b6001600160a01b038084166000818152602081815260409182902094909455805185815290519193928716927fddf252ad1be2c89b69c2b068fc378daa952ba7f163c4a11628f55a4df523b3ef92918290030190a3505050565b5490565b8154600090614080575060006108d1565b82546000905b808210156140cf57600061409a8383614315565b9050848682815481106140a957fe5b906000526020600020015411156140c2578091506140c9565b8060010192505b50614086565b6000821180156140f75750838560018403815481106140ea57fe5b9060005260206000200154145b1561410857506000190190506108d1565b5090506108d1565b6060614165826040518060400160405280602081526020017f5361666545524332303a206c6f772d6c6576656c2063616c6c206661696c6564815250856001600160a01b031661433a9092919063ffffffff16565b805190915015612e655780806020019051602081101561418457600080fd5b5051612e655760405162461bcd60e51b815260040180806020018281038252602a8152602001806148de602a913960400191505060405180910390fd5b6141cc838383612e65565b6001600160a01b0383166141f0576141e382614349565b6141eb614376565b612e65565b6001600160a01b038216614207576141e383614349565b61421083614349565b612e6582614349565b6001600160a01b03821661425e5760405162461bcd60e51b81526004018080602001828103825260218152602001806148416021913960400191505060405180910390fd5b61426a826000836141c1565b6142a781604051806060016040528060228152602001614625602291396001600160a01b0385166000908152602081905260409020549190612e6a565b6001600160a01b0383166000908152602081905260409020556002546142cd9082612c9f565b6002556040805182815290516000916001600160a01b038516917fddf252ad1be2c89b69c2b068fc378daa952ba7f163c4a11628f55a4df523b3ef9181900360200190a35050565b6000600280830660028506018161432857fe5b04600283046002850401019392505050565b60606121ec8484600085614385565b6001600160a01b03811660009081526006602052604090206143739061436e8361177a565b6144e1565b50565b614383600761436e6108d7565b565b6060824710156143c65760405162461bcd60e51b815260040180806020018281038252602681526020018061471e6026913960400191505060405180910390fd5b6143cf8561452d565b614420576040805162461bcd60e51b815260206004820152601d60248201527f416464726573733a2063616c6c20746f206e6f6e2d636f6e7472616374000000604482015290519081900360640190fd5b60006060866001600160a01b031685876040518082805190602001908083835b6020831061445f5780518252601f199092019160209182019101614440565b6001836020036101000a03801982511681845116808217855250505050505090500191505060006040518083038185875af1925050503d80600081146144c1576040519150601f19603f3d011682016040523d82523d6000602084013e6144c6565b606091505b50915091506144d6828286614533565b979650505050505050565b60006144ed600961406b565b9050806144f984614599565b1015612e65578254600180820185556000858152602080822090930193909355938401805494850181558252902090910155565b3b151590565b60608315614542575081610d63565b8251156145525782518084602001fd5b60405162461bcd60e51b8152602060048201818152845160248401528451859391928392604401919085019080838360008315612ebe578181015183820152602001612ea6565b80546000906145aa57506000610e25565b8154829060001981019081106145bc57fe5b90600052602060002001549050610e2556fe45524332303a207472616e7366657220746f20746865207a65726f2061646472657373496e69746961746f7220506172742032206e6f74207965742063616c6c6564206f722063616c6c656420746f6f20736f6f6e2e45524332303a206275726e20616d6f756e7420657863656564732062616c616e63654f776e61626c653a206e6577206f776e657220697320746865207a65726f206164647265737345524332303a20617070726f766520746f20746865207a65726f206164647265737343616c6c207265717565737442757946726f6d5468656f727920696e73746561642e43616e6e6f74206272696e6720646f776e207072696365206f66204d41535445522e45524332303a207472616e7366657220616d6f756e7420657863656564732062616c616e636543616e6e6f74207374616b65207769746820612077697468647261772070656e64696e672e416464726573733a20696e73756666696369656e742062616c616e636520666f722063616c6c4d7573742062652063616c6c6564203330206d696e75746573206265666f72652065706f636820656e64732e43616e6e6f7420776974686472617720776974682061207374616b652070656e64696e672e43616c6c207265717565737453656c6c546f5468656f727920696e73746561642e526563656976657220646964206e6f7420617070726f7665207472616e736665722e536166654d6174683a206d756c7469706c69636174696f6e206f766572666c6f7745524332303a207472616e7366657220616d6f756e74206578636565647320616c6c6f77616e63654f776e61626c653a2063616c6c6572206973206e6f7420746865206f776e657245524332303a206275726e2066726f6d20746865207a65726f2061646472657373496e76616c6964206c6f636b2070657263656e746167652c20636865636b205468656f72657469637320636f6e74726163742e45524332303a207472616e736665722066726f6d20746865207a65726f206164647265737345524332303a20617070726f76652066726f6d20746865207a65726f20616464726573735361666545524332303a204552433230206f7065726174696f6e20646964206e6f742073756363656564436f6e747261637447756172643a206f6e6520626c6f636b2c206f6e652066756e6374696f6e496e69746961746f7220506172742031206e6f74207965742063616c6c6564206f722063616c6c656420746f6f20736f6f6e2e45524332303a2064656372656173656420616c6c6f77616e63652062656c6f77207a65726fa2646970667358221220eb2edd6c128db04bc36da2b03a994a3f67399926aaa217750bd66c086c3c1e2a64736f6c634300060c0033",
  "linkReferences": {},
  "deployedLinkReferences": {}
}