{
  "_format": "hh-sol-artifact-1",
  "contractName": "Master",
  "sourceName": "contracts/Master.sol",
  "abi": [
    {
      "inputs": [
        {
          "internalType": "contract IERC20Lockable",
          "name": "_theory",
          "type": "address"
        },
        {
          "internalType": "contract IERC20Lockable",
          "name": "_game",
          "type": "address"
        },
        {
          "internalType": "contract ITheoretics",
          "name": "_theoretics",
          "type": "address"
        },
        {
          "internalType": "address",
          "name": "_communityFund",
          "type": "address"
        }
      ],
      "stateMutability": "nonpayable",
      "type": "constructor"
    },
    {
      "anonymous": false,
      "inputs": [
        {
          "indexed": true,
          "internalType": "address",
          "name": "owner",
          "type": "address"
        },
        {
          "indexed": true,
          "internalType": "address",
          "name": "spender",
          "type": "address"
        },
        {
          "indexed": false,
          "internalType": "uint256",
          "name": "value",
          "type": "uint256"
        }
      ],
      "name": "Approval",
      "type": "event"
    },
    {
      "anonymous": false,
      "inputs": [
        {
          "indexed": true,
          "internalType": "address",
          "name": "user",
          "type": "address"
        },
        {
          "indexed": false,
          "internalType": "uint256",
          "name": "amountInTheory",
          "type": "uint256"
        },
        {
          "indexed": false,
          "internalType": "uint256",
          "name": "amountOutMaster",
          "type": "uint256"
        }
      ],
      "name": "Deposit",
      "type": "event"
    },
    {
      "anonymous": false,
      "inputs": [
        {
          "indexed": true,
          "internalType": "address",
          "name": "previousOwner",
          "type": "address"
        },
        {
          "indexed": true,
          "internalType": "address",
          "name": "newOwner",
          "type": "address"
        }
      ],
      "name": "OwnershipTransferred",
      "type": "event"
    },
    {
      "anonymous": false,
      "inputs": [
        {
          "indexed": true,
          "internalType": "address",
          "name": "user",
          "type": "address"
        },
        {
          "indexed": false,
          "internalType": "uint256",
          "name": "reward",
          "type": "uint256"
        },
        {
          "indexed": false,
          "internalType": "uint256",
          "name": "lockAmount",
          "type": "uint256"
        }
      ],
      "name": "RewardPaid",
      "type": "event"
    },
    {
      "anonymous": false,
      "inputs": [
        {
          "indexed": false,
          "internalType": "uint256",
          "name": "id",
          "type": "uint256"
        }
      ],
      "name": "Snapshot",
      "type": "event"
    },
    {
      "anonymous": false,
      "inputs": [
        {
          "indexed": true,
          "internalType": "address",
          "name": "from",
          "type": "address"
        },
        {
          "indexed": true,
          "internalType": "address",
          "name": "to",
          "type": "address"
        },
        {
          "indexed": false,
          "internalType": "uint256",
          "name": "value",
          "type": "uint256"
        }
      ],
      "name": "Transfer",
      "type": "event"
    },
    {
      "anonymous": false,
      "inputs": [
        {
          "indexed": true,
          "internalType": "address",
          "name": "user",
          "type": "address"
        },
        {
          "indexed": false,
          "internalType": "uint256",
          "name": "amountInMaster",
          "type": "uint256"
        },
        {
          "indexed": false,
          "internalType": "uint256",
          "name": "amountOutTheory",
          "type": "uint256"
        }
      ],
      "name": "Withdraw",
      "type": "event"
    },
    {
      "anonymous": false,
      "inputs": [
        {
          "indexed": true,
          "internalType": "address",
          "name": "user",
          "type": "address"
        },
        {
          "indexed": false,
          "internalType": "uint256",
          "name": "amountInMaster",
          "type": "uint256"
        },
        {
          "indexed": false,
          "internalType": "uint256",
          "name": "amountOutTheory",
          "type": "uint256"
        }
      ],
      "name": "WithdrawRequest",
      "type": "event"
    },
    {
      "inputs": [
        {
          "internalType": "address",
          "name": "_toAdd",
          "type": "address"
        }
      ],
      "name": "addAuthorized",
      "outputs": [],
      "stateMutability": "nonpayable",
      "type": "function"
    },
    {
      "inputs": [
        {
          "internalType": "address",
          "name": "owner",
          "type": "address"
        },
        {
          "internalType": "address",
          "name": "spender",
          "type": "address"
        }
      ],
      "name": "allowance",
      "outputs": [
        {
          "internalType": "uint256",
          "name": "",
          "type": "uint256"
        }
      ],
      "stateMutability": "view",
      "type": "function"
    },
    {
      "inputs": [
        {
          "internalType": "address",
          "name": "userAddress",
          "type": "address"
        }
      ],
      "name": "anyGameAvailableToClaim",
      "outputs": [
        {
          "internalType": "bool",
          "name": "",
          "type": "bool"
        }
      ],
      "stateMutability": "view",
      "type": "function"
    },
    {
      "inputs": [
        {
          "internalType": "address",
          "name": "spender",
          "type": "address"
        },
        {
          "internalType": "uint256",
          "name": "amount",
          "type": "uint256"
        }
      ],
      "name": "approve",
      "outputs": [
        {
          "internalType": "bool",
          "name": "",
          "type": "bool"
        }
      ],
      "stateMutability": "nonpayable",
      "type": "function"
    },
    {
      "inputs": [
        {
          "internalType": "address",
          "name": "",
          "type": "address"
        }
      ],
      "name": "authorized",
      "outputs": [
        {
          "internalType": "bool",
          "name": "",
          "type": "bool"
        }
      ],
      "stateMutability": "view",
      "type": "function"
    },
    {
      "inputs": [
        {
          "internalType": "address",
          "name": "account",
          "type": "address"
        }
      ],
      "name": "balanceOf",
      "outputs": [
        {
          "internalType": "uint256",
          "name": "",
          "type": "uint256"
        }
      ],
      "stateMutability": "view",
      "type": "function"
    },
    {
      "inputs": [
        {
          "internalType": "address",
          "name": "account",
          "type": "address"
        },
        {
          "internalType": "uint256",
          "name": "snapshotId",
          "type": "uint256"
        }
      ],
      "name": "balanceOfAt",
      "outputs": [
        {
          "internalType": "uint256",
          "name": "",
          "type": "uint256"
        }
      ],
      "stateMutability": "view",
      "type": "function"
    },
    {
      "inputs": [],
      "name": "claimGame",
      "outputs": [],
      "stateMutability": "nonpayable",
      "type": "function"
    },
    {
      "inputs": [],
      "name": "communityFund",
      "outputs": [
        {
          "internalType": "address",
          "name": "",
          "type": "address"
        }
      ],
      "stateMutability": "view",
      "type": "function"
    },
    {
      "inputs": [],
      "name": "decimals",
      "outputs": [
        {
          "internalType": "uint8",
          "name": "",
          "type": "uint8"
        }
      ],
      "stateMutability": "view",
      "type": "function"
    },
    {
      "inputs": [
        {
          "internalType": "address",
          "name": "spender",
          "type": "address"
        },
        {
          "internalType": "uint256",
          "name": "subtractedValue",
          "type": "uint256"
        }
      ],
      "name": "decreaseAllowance",
      "outputs": [
        {
          "internalType": "bool",
          "name": "",
          "type": "bool"
        }
      ],
      "stateMutability": "nonpayable",
      "type": "function"
    },
    {
      "inputs": [],
      "name": "game",
      "outputs": [
        {
          "internalType": "contract IERC20Lockable",
          "name": "",
          "type": "address"
        }
      ],
      "stateMutability": "view",
      "type": "function"
    },
    {
      "inputs": [
        {
          "internalType": "address",
          "name": "userAddress",
          "type": "address"
        }
      ],
      "name": "gameAvailableToClaim",
      "outputs": [
        {
          "internalType": "uint256",
          "name": "",
          "type": "uint256"
        }
      ],
      "stateMutability": "view",
      "type": "function"
    },
    {
      "inputs": [
        {
          "internalType": "address",
          "name": "spender",
          "type": "address"
        },
        {
          "internalType": "uint256",
          "name": "addedValue",
          "type": "uint256"
        }
      ],
      "name": "increaseAllowance",
      "outputs": [
        {
          "internalType": "bool",
          "name": "",
          "type": "bool"
        }
      ],
      "stateMutability": "nonpayable",
      "type": "function"
    },
    {
      "inputs": [],
      "name": "initiatePart1",
      "outputs": [],
      "stateMutability": "nonpayable",
      "type": "function"
    },
    {
      "inputs": [],
      "name": "initiatePart2",
      "outputs": [],
      "stateMutability": "nonpayable",
      "type": "function"
    },
    {
      "inputs": [
        {
          "internalType": "address",
          "name": "from",
          "type": "address"
        },
        {
          "internalType": "address",
          "name": "to",
          "type": "address"
        },
        {
          "internalType": "uint256",
          "name": "amount",
          "type": "uint256"
        },
        {
          "internalType": "uint256",
          "name": "lockTo",
          "type": "uint256"
        },
        {
          "internalType": "bool",
          "name": "lockAfter",
          "type": "bool"
        }
      ],
      "name": "lockAndTransferFrom",
      "outputs": [
        {
          "internalType": "bool",
          "name": "",
          "type": "bool"
        }
      ],
      "stateMutability": "nonpayable",
      "type": "function"
    },
    {
      "inputs": [
        {
          "internalType": "uint256",
          "name": "_share",
          "type": "uint256"
        }
      ],
      "name": "masterToTheory",
      "outputs": [
        {
          "internalType": "uint256",
          "name": "",
          "type": "uint256"
        }
      ],
      "stateMutability": "view",
      "type": "function"
    },
    {
      "inputs": [
        {
          "internalType": "uint256",
          "name": "_share",
          "type": "uint256"
        },
        {
          "internalType": "uint256",
          "name": "totalGovernanceToken",
          "type": "uint256"
        },
        {
          "internalType": "uint256",
          "name": "totalShares",
          "type": "uint256"
        }
      ],
      "name": "masterToTheoryOwed",
      "outputs": [
        {
          "internalType": "uint256",
          "name": "",
          "type": "uint256"
        }
      ],
      "stateMutability": "view",
      "type": "function"
    },
    {
      "inputs": [],
      "name": "minLockTime",
      "outputs": [
        {
          "internalType": "uint256",
          "name": "",
          "type": "uint256"
        }
      ],
      "stateMutability": "view",
      "type": "function"
    },
    {
      "inputs": [],
      "name": "name",
      "outputs": [
        {
          "internalType": "string",
          "name": "",
          "type": "string"
        }
      ],
      "stateMutability": "view",
      "type": "function"
    },
    {
      "inputs": [],
      "name": "owner",
      "outputs": [
        {
          "internalType": "address",
          "name": "",
          "type": "address"
        }
      ],
      "stateMutability": "view",
      "type": "function"
    },
    {
      "inputs": [
        {
          "internalType": "address",
          "name": "_toRemove",
          "type": "address"
        }
      ],
      "name": "removeAuthorized",
      "outputs": [],
      "stateMutability": "nonpayable",
      "type": "function"
    },
    {
      "inputs": [],
      "name": "renounceOwnership",
      "outputs": [],
      "stateMutability": "nonpayable",
      "type": "function"
    },
    {
      "inputs": [
        {
          "internalType": "uint256",
          "name": "amountInTheory",
          "type": "uint256"
        },
        {
          "internalType": "uint256",
          "name": "lockTime",
          "type": "uint256"
        }
      ],
      "name": "requestBuyFromTheory",
      "outputs": [],
      "stateMutability": "nonpayable",
      "type": "function"
    },
    {
      "inputs": [
        {
          "internalType": "uint256",
          "name": "amountInMaster",
          "type": "uint256"
        }
      ],
      "name": "requestSellToTheory",
      "outputs": [],
      "stateMutability": "nonpayable",
      "type": "function"
    },
    {
      "inputs": [],
      "name": "sellToTheory",
      "outputs": [],
      "stateMutability": "nonpayable",
      "type": "function"
    },
    {
      "inputs": [
        {
          "internalType": "uint256",
          "name": "amount",
          "type": "uint256"
        }
      ],
      "name": "stakeExternalTheory",
      "outputs": [],
      "stateMutability": "nonpayable",
      "type": "function"
    },
    {
      "inputs": [],
      "name": "symbol",
      "outputs": [
        {
          "internalType": "string",
          "name": "",
          "type": "string"
        }
      ],
      "stateMutability": "view",
      "type": "function"
    },
    {
      "inputs": [],
      "name": "theoretics",
      "outputs": [
        {
          "internalType": "contract ITheoretics",
          "name": "",
          "type": "address"
        }
      ],
      "stateMutability": "view",
      "type": "function"
    },
    {
      "inputs": [],
      "name": "theory",
      "outputs": [
        {
          "internalType": "contract IERC20Lockable",
          "name": "",
          "type": "address"
        }
      ],
      "stateMutability": "view",
      "type": "function"
    },
    {
      "inputs": [
        {
          "internalType": "uint256",
          "name": "_amount",
          "type": "uint256"
        }
      ],
      "name": "theoryToMaster",
      "outputs": [
        {
          "internalType": "uint256",
          "name": "",
          "type": "uint256"
        }
      ],
      "stateMutability": "view",
      "type": "function"
    },
    {
      "inputs": [
        {
          "internalType": "uint256",
          "name": "_amount",
          "type": "uint256"
        },
        {
          "internalType": "uint256",
          "name": "totalGovernanceToken",
          "type": "uint256"
        },
        {
          "internalType": "uint256",
          "name": "totalShares",
          "type": "uint256"
        }
      ],
      "name": "theoryToMasterOwed",
      "outputs": [
        {
          "internalType": "uint256",
          "name": "",
          "type": "uint256"
        }
      ],
      "stateMutability": "view",
      "type": "function"
    },
    {
      "inputs": [],
      "name": "totalGameClaimed",
      "outputs": [
        {
          "internalType": "uint256",
          "name": "",
          "type": "uint256"
        }
      ],
      "stateMutability": "view",
      "type": "function"
    },
    {
      "inputs": [],
      "name": "totalSupply",
      "outputs": [
        {
          "internalType": "uint256",
          "name": "",
          "type": "uint256"
        }
      ],
      "stateMutability": "view",
      "type": "function"
    },
    {
      "inputs": [
        {
          "internalType": "uint256",
          "name": "snapshotId",
          "type": "uint256"
        }
      ],
      "name": "totalSupplyAt",
      "outputs": [
        {
          "internalType": "uint256",
          "name": "",
          "type": "uint256"
        }
      ],
      "stateMutability": "view",
      "type": "function"
    },
    {
      "inputs": [
        {
          "internalType": "address",
          "name": "recipient",
          "type": "address"
        },
        {
          "internalType": "uint256",
          "name": "amount",
          "type": "uint256"
        }
      ],
      "name": "transfer",
      "outputs": [
        {
          "internalType": "bool",
          "name": "",
          "type": "bool"
        }
      ],
      "stateMutability": "nonpayable",
      "type": "function"
    },
    {
      "inputs": [
        {
          "internalType": "address",
          "name": "sender",
          "type": "address"
        },
        {
          "internalType": "address",
          "name": "recipient",
          "type": "address"
        },
        {
          "internalType": "uint256",
          "name": "amount",
          "type": "uint256"
        }
      ],
      "name": "transferFrom",
      "outputs": [
        {
          "internalType": "bool",
          "name": "",
          "type": "bool"
        }
      ],
      "stateMutability": "nonpayable",
      "type": "function"
    },
    {
      "inputs": [
        {
          "internalType": "address",
          "name": "newOwner",
          "type": "address"
        }
      ],
      "name": "transferOwnership",
      "outputs": [],
      "stateMutability": "nonpayable",
      "type": "function"
    },
    {
      "inputs": [
        {
          "internalType": "contract IERC20",
          "name": "_token",
          "type": "address"
        },
        {
          "internalType": "address",
          "name": "to",
          "type": "address"
        },
        {
          "internalType": "uint256",
          "name": "amount",
          "type": "uint256"
        }
      ],
      "name": "transferToken",
      "outputs": [],
      "stateMutability": "nonpayable",
      "type": "function"
    },
    {
      "inputs": [],
      "name": "unlockedClaimPenalty",
      "outputs": [
        {
          "internalType": "uint256",
          "name": "",
          "type": "uint256"
        }
      ],
      "stateMutability": "view",
      "type": "function"
    },
    {
      "inputs": [
        {
          "internalType": "address",
          "name": "",
          "type": "address"
        }
      ],
      "name": "userInfo",
      "outputs": [
        {
          "internalType": "uint256",
          "name": "lockToTime",
          "type": "uint256"
        },
        {
          "internalType": "uint256",
          "name": "chosenLockTime",
          "type": "uint256"
        },
        {
          "internalType": "address",
          "name": "approveTransferFrom",
          "type": "address"
        },
        {
          "internalType": "uint256",
          "name": "lastTotalGameClaimed",
          "type": "uint256"
        },
        {
          "internalType": "uint256",
          "name": "withdrawRequestedInMaster",
          "type": "uint256"
        },
        {
          "internalType": "uint256",
          "name": "withdrawRequestedInTheory",
          "type": "uint256"
        },
        {
          "internalType": "uint256",
          "name": "lastStakeRequestBlock",
          "type": "uint256"
        },
        {
          "internalType": "uint256",
          "name": "lastWithdrawRequestBlock",
          "type": "uint256"
        }
      ],
      "stateMutability": "view",
      "type": "function"
    }
  ],
  "bytecode": "0x60806040523480156200001157600080fd5b506040516200491938038062004919833981810160405260808110156200003757600080fd5b50805160208083015160408085015160609095015181518083018352600c81526b26b0b9ba32b9102a37b5b2b760a11b8186019081528351808501909452600684526526a0a9aa22a960d11b9584019590955280519596939593949193909291620000a691600391906200018d565b508051620000bc9060049060208401906200018d565b50506005805460ff19166012179055506000620000d862000189565b600a80546001600160a01b0319166001600160a01b038316908117909155604051919250906000907f8be0079c531659141344cd1fd0a4f28419497f9722a3daafe3b4186f6b6457e0908290a350600f80546001600160a01b039586166001600160a01b03199182161790915560108054948616948216949094179093556011805492851692841692909217909155601280549190931691161790556301e1338060135562278d0060145562000229565b3390565b828054600181600116156101000203166002900490600052602060002090601f016020900481019282601f10620001d057805160ff191683800117855562000200565b8280016001018555821562000200579182015b8281111562000200578251825591602001919060010190620001e3565b506200020e92915062000212565b5090565b5b808211156200020e576000815560010162000213565b6146e080620002396000396000f3fe608060405234801561001057600080fd5b506004361061025d5760003560e01c806395d89b4111610146578063b9181611116100c3578063dd62ed3e11610087578063dd62ed3e1461070e578063e4d2c45e1461073c578063f2fde38b14610765578063f5537ede1461078b578063f894dd21146107c1578063fdb781c8146107ea5761025d565b8063b918161114610677578063c3fe3e281461069d578063c7b728de146106a5578063cf1c316a146106c2578063d3819abc146106e85761025d565b8063a60ff7661161010a578063a60ff766146105da578063a77a5d13146105e2578063a9059cbb14610626578063ab9fb43814610652578063ad45e4ae1461066f5761025d565b806395d89b411461057957806397b98e4a14610581578063981b24d014610589578063a457c2d7146105a6578063a5bd5f4d146105d25761025d565b80633c32a450116101df57806364c08741116101a357806364c08741146104fb57806364efc79b1461051e57806370a082311461053b578063715018a61461056157806378424d58146105695780638da5cb5b146105715761025d565b80633c32a45014610491578063485d7d94146104995780634ee2cd7e146104bf5780635358a2af146104eb5780635936e8bd146104f35761025d565b80631959a002116102265780631959a0021461037c57806323b872dd146103eb5780632e9c807214610421578063313ce5671461044757806339509351146104655761025d565b8062f380f41461026257806306fdde0314610286578063095ea7b31461030357806318160ddd1461034357806318bb939a1461035d575b600080fd5b61026a6107f2565b604080516001600160a01b039092168252519081900360200190f35b61028e610801565b6040805160208082528351818301528351919283929083019185019080838360005b838110156102c85781810151838201526020016102b0565b50505050905090810190601f1680156102f55780820380516001836020036101000a031916815260200191505b509250505060405180910390f35b61032f6004803603604081101561031957600080fd5b506001600160a01b038135169060200135610897565b604080519115158252519081900360200190f35b61034b6108b5565b60408051918252519081900360200190f35b61037a6004803603602081101561037357600080fd5b50356108bb565b005b6103a26004803603602081101561039257600080fd5b50356001600160a01b0316610c65565b6040805198895260208901979097526001600160a01b03909516878701526060870193909352608086019190915260a085015260c084015260e083015251908190036101000190f35b61032f6004803603606081101561040157600080fd5b506001600160a01b03813581169160208101359091169060400135610cb2565b61034b6004803603602081101561043757600080fd5b50356001600160a01b0316610d3a565b61044f610dfa565b6040805160ff9092168252519081900360200190f35b61032f6004803603604081101561047b57600080fd5b506001600160a01b038135169060200135610e03565b61026a610e51565b61037a600480360360208110156104af57600080fd5b50356001600160a01b0316610e60565b61034b600480360360408110156104d557600080fd5b506001600160a01b038135169060200135610ef9565b61034b610f42565b61037a610f48565b61037a6004803603604081101561051157600080fd5b508035906020013561104e565b61037a6004803603602081101561053457600080fd5b50356113f1565b61034b6004803603602081101561055157600080fd5b50356001600160a01b03166116e8565b61037a611703565b61037a6117af565b61026a61187c565b61028e61188b565b61037a6118ec565b61034b6004803603602081101561059f57600080fd5b5035611eac565b61032f600480360360408110156105bc57600080fd5b506001600160a01b038135169060200135611edc565b61034b611f44565b61034b611f4a565b61032f600480360360a08110156105f857600080fd5b506001600160a01b038135811691602081013590911690604081013590606081013590608001351515611f50565b61032f6004803603604081101561063c57600080fd5b506001600160a01b0381351690602001356120e7565b61034b6004803603602081101561066857600080fd5b50356120fb565b61026a6121bd565b61032f6004803603602081101561068d57600080fd5b50356001600160a01b03166121cc565b61026a6121e1565b61034b600480360360208110156106bb57600080fd5b50356121f0565b61037a600480360360208110156106d857600080fd5b50356001600160a01b0316612280565b61032f600480360360208110156106fe57600080fd5b50356001600160a01b0316612306565b61034b6004803603604081101561072457600080fd5b506001600160a01b0381358116916020013516612383565b61034b6004803603606081101561075257600080fd5b50803590602081013590604001356123ae565b61037a6004803603602081101561077b57600080fd5b50356001600160a01b03166123d7565b61037a600480360360608110156107a157600080fd5b506001600160a01b038135811691602081013590911690604001356124da565b61034b600480360360608110156107d757600080fd5b5080359060208101359060400135612671565b61037a61269a565b6012546001600160a01b031681565b60038054604080516020601f600260001961010060018816150201909516949094049384018190048102820181019092528281526060939092909183018282801561088d5780601f106108625761010080835404028352916020019161088d565b820191906000526020600020905b81548152906001019060200180831161087057829003601f168201915b5050505050905090565b60006108ab6108a46127df565b84846127e3565b5060015b92915050565b60025490565b336000908152600b602052604090205460ff16806108e85750336108dd61187c565b6001600160a01b0316145b610934576040805162461bcd60e51b815260206004820152601860248201527718d85b1b195c881a5cc81b9bdd08185d5d1a1bdc9a5e995960421b604482015290519081900360640190fd5b61093c6128cf565b156109785760405162461bcd60e51b815260040180806020018281038252602681526020018061462d6026913960400191505060405180910390fd5b6109806128f0565b156109bc5760405162461bcd60e51b815260040180806020018281038252602681526020018061462d6026913960400191505060405180910390fd5b610a536109d660185460155461291190919063ffffffff16565b600f54604080516370a0823160e01b815230600482015290516001600160a01b03909216916370a0823191602480820192602092909190829003018186803b158015610a2157600080fd5b505afa158015610a35573d6000803e3d6000fd5b505050506040513d6020811015610a4b57600080fd5b50519061296b565b811115610aa7576040805162461bcd60e51b815260206004820152601b60248201527f43616e6e6f74207374616b652070656e64696e672066756e64732e0000000000604482015290519081900360640190fd5b601160009054906101000a90046001600160a01b03166001600160a01b031663900cf0cf6040518163ffffffff1660e01b815260040160206040518083038186803b158015610af557600080fd5b505afa158015610b09573d6000803e3d6000fd5b505050506040513d6020811015610b1f57600080fd5b5051601a541480610ba75750601160009054906101000a90046001600160a01b03166001600160a01b03166313f24daf6040518163ffffffff1660e01b815260040160206040518083038186803b158015610b7957600080fd5b505afa158015610b8d573d6000803e3d6000fd5b505050506040513d6020811015610ba357600080fd5b5051155b15610c16576011546040805163534a7e1d60e11b81526004810184905290516001600160a01b039092169163a694fc3a9160248082019260009290919082900301818387803b158015610bf957600080fd5b505af1158015610c0d573d6000803e3d6000fd5b50505050610c27565b601554610c239082612911565b6015555b50436000908152600c602090815260408083203284529091528082208054600160ff1991821681179092553384529190922080549091169091179055565b600d6020526000908152604090208054600182015460028301546003840154600485015460058601546006870154600790970154959694956001600160a01b039094169492939192909188565b6000610cbf8484846129c8565b610d2f84610ccb6127df565b610d2a8560405180606001604052806028815260200161451e602891396001600160a01b038a16600090815260016020526040812090610d096127df565b6001600160a01b031681526020810191909152604001600020549190612b36565b6127e3565b5060015b9392505050565b6000610d45826116e8565b610d5157506000610df5565b6001600160a01b0382166000908152600d602052604081206003810154600e54919291610d7d9161296b565b905080610d8f57600092505050610df5565b6000610d996108b5565b905080610dac5760009350505050610df5565b6000610dd382610dcd670de0b6b3a7640000610dc7336116e8565b90612bcd565b90612c26565b90506000610ded670de0b6b3a7640000610dcd8685612bcd565b955050505050505b919050565b60055460ff1690565b60006108ab610e106127df565b84610d2a8560016000610e216127df565b6001600160a01b03908116825260208083019390935260409182016000908120918c168152925290205490612911565b600f546001600160a01b031681565b610e686127df565b6001600160a01b0316610e7961187c565b6001600160a01b031614610ec2576040805162461bcd60e51b81526020600482018190526024820152600080516020614546833981519152604482015290519081900360640190fd5b6001600160a01b038116331415610ed857600080fd5b6001600160a01b03166000908152600b60205260409020805460ff19169055565b6001600160a01b038216600090815260066020526040812081908190610f20908590612c8d565b9150915081610f3757610f32856116e8565b610f39565b805b95945050505050565b60145481565b610f506128cf565b15610f8c5760405162461bcd60e51b815260040180806020018281038252602681526020018061462d6026913960400191505060405180910390fd5b610f946128f0565b15610fd05760405162461bcd60e51b815260040180806020018281038252602681526020018061462d6026913960400191505060405180910390fd5b610fd933612306565b61101e576040805162461bcd60e51b815260206004820152601160248201527027379023a0a6a2903a379031b630b4b69760791b604482015290519081900360640190fd5b336000908152600d602052604090208054421061104657601454611043904290612911565b81555b610c27612d8a565b6110566128cf565b156110925760405162461bcd60e51b815260040180806020018281038252602681526020018061462d6026913960400191505060405180910390fd5b61109a6128f0565b156110d65760405162461bcd60e51b815260040180806020018281038252602681526020018061462d6026913960400191505060405180910390fd5b60008211611125576040805162461bcd60e51b81526020600482015260176024820152762737903d32b9379030b6b7bab73a1030b63637bbb2b21760491b604482015290519081900360640190fd5b336000908152600d60205260409020600481015415801561114b57508060070154601b54115b6111865760405162461bcd60e51b815260040180806020018281038252602581526020018061441e6025913960400191505060405180910390fd5b6013548210156111965760135491505b60006111a24284612911565b6001830184905582549091508111156111bf576111bf3382612ff3565b60006111ca856120fb565b600f549091506111e5906001600160a01b031633308861300f565b6111ef338261306f565b601160009054906101000a90046001600160a01b03166001600160a01b031663900cf0cf6040518163ffffffff1660e01b815260040160206040518083038186803b15801561123d57600080fd5b505afa158015611251573d6000803e3d6000fd5b505050506040513d602081101561126757600080fd5b5051601a5414806112ef5750601160009054906101000a90046001600160a01b03166001600160a01b03166313f24daf6040518163ffffffff1660e01b815260040160206040518083038186803b1580156112c157600080fd5b505afa1580156112d5573d6000803e3d6000fd5b505050506040513d60208110156112eb57600080fd5b5051155b1561135e576011546040805163534a7e1d60e11b81526004810188905290516001600160a01b039092169163a694fc3a9160248082019260009290919082900301818387803b15801561134157600080fd5b505af1158015611355573d6000803e3d6000fd5b5050505061136f565b60155461136b9086612911565b6015555b4360068401556040805186815260208101839052815133927f90890809c654f11d6e72a28fa60149770a0d11ec6c92319d6ceb2bb0a4ea1a15928290030190a25050436000908152600c602090815260408083203284529091528082208054600160ff1991821681179092553384529190922080549091169091179055505050565b6113f96128cf565b156114355760405162461bcd60e51b815260040180806020018281038252602681526020018061462d6026913960400191505060405180910390fd5b61143d6128f0565b156114795760405162461bcd60e51b815260040180806020018281038252602681526020018061462d6026913960400191505060405180910390fd5b336000908152600d6020526040902080544210156114ce576040805162461bcd60e51b815260206004820152600d60248201526c5374696c6c206c6f636b65642160981b604482015290519081900360640190fd5b6000821161151d576040805162461bcd60e51b81526020600482015260176024820152762737903d32b9379030b6b7bab73a1030b63637bbb2b21760491b604482015290519081900360640190fd5b8060060154601c54116115615760405162461bcd60e51b81526004018080602001828103825260258152602001806144956025913960400191505060405180910390fd5b61156a336116e8565b82141561157957611579612d8a565b6115843330846129c8565b60048101546115939083612911565b60048201556017546115a59083612911565b60175560006115b3836121f0565b60058301549091506115c59082612911565b60058301556016546115d79082612911565b6016554360078301556040805184815260208101839052815133927fcbc7c7858f9ab8ce22517d4b910042540172c3d579222cf6716e222f341ca371928290030190a2601160009054906101000a90046001600160a01b03166001600160a01b03166313f24daf6040518163ffffffff1660e01b815260040160206040518083038186803b15801561166857600080fd5b505afa15801561167c573d6000803e3d6000fd5b505050506040513d602081101561169257600080fd5b50516116a8576116a061315f565b6116a86139e4565b5050436000908152600c602090815260408083203284529091528082208054600160ff199182168117909255338452919092208054909116909117905550565b6001600160a01b031660009081526020819052604090205490565b61170b6127df565b6001600160a01b031661171c61187c565b6001600160a01b031614611765576040805162461bcd60e51b81526020600482018190526024820152600080516020614546833981519152604482015290519081900360640190fd5b600a546040516000916001600160a01b0316907f8be0079c531659141344cd1fd0a4f28419497f9722a3daafe3b4186f6b6457e0908390a3600a80546001600160a01b0319169055565b6117b76128cf565b156117f35760405162461bcd60e51b815260040180806020018281038252602681526020018061462d6026913960400191505060405180910390fd5b6117fb6128f0565b156118375760405162461bcd60e51b815260040180806020018281038252602681526020018061462d6026913960400191505060405180910390fd5b61183f61315f565b436000908152600c602090815260408083203284529091528082208054600160ff1991821681179092553384529190922080549091169091179055565b600a546001600160a01b031690565b60048054604080516020601f600260001961010060018816150201909516949094049384018190048102820181019092528281526060939092909183018282801561088d5780601f106108625761010080835404028352916020019161088d565b6118f46128cf565b156119305760405162461bcd60e51b815260040180806020018281038252602681526020018061462d6026913960400191505060405180910390fd5b6119386128f0565b156119745760405162461bcd60e51b815260040180806020018281038252602681526020018061462d6026913960400191505060405180910390fd5b601154604080516313f24daf60e01b815290516000926001600160a01b0316916313f24daf916004808301926020929190829003018186803b1580156119b957600080fd5b505afa1580156119cd573d6000803e3d6000fd5b505050506040513d60208110156119e357600080fd5b50519050801580611a755750611a7381601160009054906101000a90046001600160a01b03166001600160a01b031663900cf0cf6040518163ffffffff1660e01b815260040160206040518083038186803b158015611a4157600080fd5b505afa158015611a55573d6000803e3d6000fd5b505050506040513d6020811015611a6b57600080fd5b505190613bd1565b155b611ac6576040805162461bcd60e51b815260206004820152601e60248201527f4d7573742063616c6c20617420612077697468647261772065706f63682e0000604482015290519081900360640190fd5b801580611b265750610708611b2342601160009054906101000a90046001600160a01b03166001600160a01b031663c5967c266040518163ffffffff1660e01b815260040160206040518083038186803b158015610a2157600080fd5b11155b611b615760405162461bcd60e51b815260040180806020018281038252602c815260200180614469602c913960400191505060405180910390fd5b801580611be95750601160009054906101000a90046001600160a01b03166001600160a01b031663900cf0cf6040518163ffffffff1660e01b815260040160206040518083038186803b158015611bb757600080fd5b505afa158015611bcb573d6000803e3d6000fd5b505050506040513d6020811015611be157600080fd5b5051601a5414155b611c2c576040805162461bcd60e51b815260206004820152600f60248201526e20b63932b0b23c9031b0b63632b21760891b604482015290519081900360640190fd5b601160009054906101000a90046001600160a01b03166001600160a01b03166313f24daf6040518163ffffffff1660e01b815260040160206040518083038186803b158015611c7a57600080fd5b505afa158015611c8e573d6000803e3d6000fd5b505050506040513d6020811015611ca457600080fd5b50511580611d2c5750601160009054906101000a90046001600160a01b03166001600160a01b031663900cf0cf6040518163ffffffff1660e01b815260040160206040518083038186803b158015611cfb57600080fd5b505afa158015611d0f573d6000803e3d6000fd5b505050506040513d6020811015611d2557600080fd5b5051601954145b611d76576040805162461bcd60e51b815260206004820152601660248201527524b734ba34b0ba32903830b93a1018903334b939ba1760511b604482015290519081900360640190fd5b60155415611dec576011546015546040805163534a7e1d60e11b81526004810192909252516001600160a01b039092169163a694fc3a9160248082019260009290919082900301818387803b158015611dce57600080fd5b505af1158015611de2573d6000803e3d6000fd5b5050600060155550505b601160009054906101000a90046001600160a01b03166001600160a01b031663900cf0cf6040518163ffffffff1660e01b815260040160206040518083038186803b158015611e3a57600080fd5b505afa158015611e4e573d6000803e3d6000fd5b505050506040513d6020811015611e6457600080fd5b5051601a555043601c8190556000908152600c602090815260408083203284529091528082208054600160ff1991821681179092553384529190922080549091169091179055565b6000806000611ebc846007612c8d565b9150915081611ed257611ecd6108b5565b611ed4565b805b949350505050565b60006108ab611ee96127df565b84610d2a856040518060600160405280602581526020016146866025913960016000611f136127df565b6001600160a01b03908116825260208083019390935260409182016000908120918d16815292529020549190612b36565b600e5481565b60135481565b336000908152600b602052604081205460ff1680611f7d575033611f7261187c565b6001600160a01b0316145b611fc9576040805162461bcd60e51b815260206004820152601860248201527718d85b1b195c881a5cc81b9bdd08185d5d1a1bdc9a5e995960421b604482015290519081900360640190fd5b611fd16128cf565b1561200d5760405162461bcd60e51b815260040180806020018281038252602681526020018061462d6026913960400191505060405180910390fd5b6120156128f0565b156120515760405162461bcd60e51b815260040180806020018281038252602681526020018061462d6026913960400191505060405180910390fd5b600082612062576120628685612ff3565b6001600160a01b0387163314156120845761207d86866120e7565b9050612092565b61208f878787610cb2565b90505b82156120a2576120a28685612ff3565b436000908152600c602090815260408083203284529091528082208054600160ff19918216811790925533845291909220805490911690911790559695505050505050565b60006108ab6120f46127df565b84846129c8565b601554601154604080516370a0823160e01b8152306004820152905160009384936121859391926001600160a01b03909116916370a08231916024808301926020929190829003018186803b15801561215357600080fd5b505afa158015612167573d6000803e3d6000fd5b505050506040513d602081101561217d57600080fd5b505190612911565b905060006121916108b5565b905080158061219e575081155b156121ad578392505050610df5565b6000610f3983610dcd8785612bcd565b6011546001600160a01b031681565b600b6020526000908152604090205460ff1681565b6010546001600160a01b031681565b601554601154604080516370a0823160e01b8152306004820152905160009384936122489391926001600160a01b03909116916370a08231916024808301926020929190829003018186803b15801561215357600080fd5b905060006122546108b5565b9050801580612261575081155b15612270578392505050610df5565b6000610f3982610dcd8786612bcd565b6122886127df565b6001600160a01b031661229961187c565b6001600160a01b0316146122e2576040805162461bcd60e51b81526020600482018190526024820152600080516020614546833981519152604482015290519081900360640190fd5b6001600160a01b03166000908152600b60205260409020805460ff19166001179055565b6000612311826116e8565b61231d57506000610df5565b6001600160a01b0382166000908152600d602052604081206003810154600e549192916123499161296b565b90508061235b57600092505050610df5565b60006123656108b5565b9050806123785760009350505050610df5565b506001949350505050565b6001600160a01b03918216600090815260016020908152604080832093909416825291909152205490565b60008115806123bb575082155b156123c7575082610d33565b6000610f3983610dcd8787612bcd565b6123df6127df565b6001600160a01b03166123f061187c565b6001600160a01b031614612439576040805162461bcd60e51b81526020600482018190526024820152600080516020614546833981519152604482015290519081900360640190fd5b6001600160a01b03811661247e5760405162461bcd60e51b815260040180806020018281038252602681526020018061438e6026913960400191505060405180910390fd5b600a546040516001600160a01b038084169216907f8be0079c531659141344cd1fd0a4f28419497f9722a3daafe3b4186f6b6457e090600090a3600a80546001600160a01b0319166001600160a01b0392909216919091179055565b336000908152600b602052604090205460ff16806125075750336124fc61187c565b6001600160a01b0316145b612553576040805162461bcd60e51b815260206004820152601860248201527718d85b1b195c881a5cc81b9bdd08185d5d1a1bdc9a5e995960421b604482015290519081900360640190fd5b61255b6128cf565b156125975760405162461bcd60e51b815260040180806020018281038252602681526020018061462d6026913960400191505060405180910390fd5b61259f6128f0565b156125db5760405162461bcd60e51b815260040180806020018281038252602681526020018061462d6026913960400191505060405180910390fd5b6001600160a01b0383163014158061260757506126036017546125fd306116e8565b9061296b565b8111155b61261057600080fd5b600f546001600160a01b038481169116141561265d5760405162461bcd60e51b81526004018080602001828103825260228152602001806143d66022913960400191505060405180910390fd5b6116a86001600160a01b0384168383613c38565b600081158061267e575082155b1561268a575082610d33565b6000610f3984610dcd8786612bcd565b6126a26128cf565b156126de5760405162461bcd60e51b815260040180806020018281038252602681526020018061462d6026913960400191505060405180910390fd5b6126e66128f0565b156127225760405162461bcd60e51b815260040180806020018281038252602681526020018061462d6026913960400191505060405180910390fd5b601160009054906101000a90046001600160a01b03166001600160a01b03166313f24daf6040518163ffffffff1660e01b815260040160206040518083038186803b15801561277057600080fd5b505afa158015612784573d6000803e3d6000fd5b505050506040513d602081101561279a57600080fd5b50516127d75760405162461bcd60e51b81526004018080602001828103825260218152602001806144ba6021913960400191505060405180910390fd5b61183f6139e4565b3390565b6001600160a01b0383166128285760405162461bcd60e51b81526004018080602001828103825260248152602001806145df6024913960400191505060405180910390fd5b6001600160a01b03821661286d5760405162461bcd60e51b81526004018080602001828103825260228152602001806143b46022913960400191505060405180910390fd5b6001600160a01b03808416600081815260016020908152604080832094871680845294825291829020859055815185815291517f8c5be1e5ebec7d5bd14f71427d1e84f3dd0314c0f7b2291e5b200ac8c7c3b9259281900390910190a3505050565b436000908152600c6020908152604080832032845290915290205460ff1690565b436000908152600c6020908152604080832033845290915290205460ff1690565b600082820183811015610d33576040805162461bcd60e51b815260206004820152601b60248201527f536166654d6174683a206164646974696f6e206f766572666c6f770000000000604482015290519081900360640190fd5b6000828211156129c2576040805162461bcd60e51b815260206004820152601e60248201527f536166654d6174683a207375627472616374696f6e206f766572666c6f770000604482015290519081900360640190fd5b50900390565b336000908152600b602052604090205460ff16806129f55750336129ea61187c565b6001600160a01b0316145b80612a0a57506012546001600160a01b031633145b80612a1457503033145b80612a3757506001600160a01b0382166000908152600b602052604090205460ff165b80612a5a5750816001600160a01b0316612a4f61187c565b6001600160a01b0316145b80612a7257506012546001600160a01b038381169116145b80612a855750306001600160a01b038316145b612b26576001600160a01b038281166000908152600d6020526040902060028101549091858116911614612aea5760405162461bcd60e51b81526004018080602001828103825260228152602001806144db6022913960400191505060405180910390fd5b6002810180546001600160a01b0319169055601354600090612b0d904290612911565b8254909150811115612b2357612b238482612ff3565b50505b612b31838383613c8a565b505050565b60008184841115612bc55760405162461bcd60e51b81526004018080602001828103825283818151815260200191508051906020019080838360005b83811015612b8a578181015183820152602001612b72565b50505050905090810190601f168015612bb75780820380516001836020036101000a031916815260200191505b509250505060405180910390fd5b505050900390565b600082612bdc575060006108af565b82820282848281612be957fe5b0414610d335760405162461bcd60e51b81526004018080602001828103825260218152602001806144fd6021913960400191505060405180910390fd5b6000808211612c7c576040805162461bcd60e51b815260206004820152601a60248201527f536166654d6174683a206469766973696f6e206279207a65726f000000000000604482015290519081900360640190fd5b818381612c8557fe5b049392505050565b60008060008411612cde576040805162461bcd60e51b815260206004820152601660248201527504552433230536e617073686f743a20696420697320360541b604482015290519081900360640190fd5b612ce86009613de5565b841115612d3c576040805162461bcd60e51b815260206004820152601d60248201527f4552433230536e617073686f743a206e6f6e6578697374656e74206964000000604482015290519081900360640190fd5b6000612d488486613de9565b8454909150811415612d61576000809250925050612d83565b6001846001018281548110612d7257fe5b906000526020600020015492509250505b9250929050565b336000908152600d602052604081206003810154600e54919291612dad9161296b565b600e54600384015590506000612dd9612dc46108b5565b610dcd670de0b6b3a7640000610dc7336116e8565b90506000612df3670de0b6b3a7640000610dcd8585612bcd565b6010546040805163a9059cbb60e01b81523360048201526024810184905290519293506001600160a01b039091169163a9059cbb916044808201926020929091908290030181600087803b158015612e4a57600080fd5b505af1158015612e5e573d6000803e3d6000fd5b505050506040513d6020811015612e7457600080fd5b505060115460408051638278b53b60e01b8152905160009283926001600160a01b0390911691638278b53b91600480820192602092909190829003018186803b158015612ec057600080fd5b505afa158015612ed4573d6000803e3d6000fd5b505050506040513d6020811015612eea57600080fd5b505190506064811115612f2e5760405162461bcd60e51b81526004018080602001828103825260338152602001806145876033913960400191505060405180910390fd5b612f3d6064610dcd8584612bcd565b91508115612fb1576010546040805163282d3fdf60e01b81523360048201526024810185905290516001600160a01b039092169163282d3fdf9160448082019260009290919082900301818387803b158015612f9857600080fd5b505af1158015612fac573d6000803e3d6000fd5b505050505b6040805184815260208101849052815133927fd6f2c8500df5b44f11e9e48b91ff9f1b9d81bc496d55570c2b1b75bf65243f51928290030190a2505050505050565b6001600160a01b039091166000908152600d6020526040902055565b604080516001600160a01b0380861660248301528416604482015260648082018490528251808303909101815260849091019091526020810180516001600160e01b03166323b872dd60e01b179052613069908590613e8a565b50505050565b6001600160a01b0382166130ca576040805162461bcd60e51b815260206004820152601f60248201527f45524332303a206d696e7420746f20746865207a65726f206164647265737300604482015290519081900360640190fd5b6130d660008383613f3b565b6002546130e39082612911565b6002556001600160a01b0382166000908152602081905260409020546131099082612911565b6001600160a01b0383166000818152602081815260408083209490945583518581529351929391927fddf252ad1be2c89b69c2b068fc378daa952ba7f163c4a11628f55a4df523b3ef9281900390910190a35050565b601154604080516313f24daf60e01b815290516000926001600160a01b0316916313f24daf916004808301926020929190829003018186803b1580156131a457600080fd5b505afa1580156131b8573d6000803e3d6000fd5b505050506040513d60208110156131ce57600080fd5b5051905080158061322e575061322c81601160009054906101000a90046001600160a01b03166001600160a01b031663900cf0cf6040518163ffffffff1660e01b815260040160206040518083038186803b158015611a4157600080fd5b155b61327f576040805162461bcd60e51b815260206004820152601e60248201527f4d7573742063616c6c20617420612077697468647261772065706f63682e0000604482015290519081900360640190fd5b8015806132df57506107086132dc42601160009054906101000a90046001600160a01b03166001600160a01b031663c5967c266040518163ffffffff1660e01b815260040160206040518083038186803b158015610a2157600080fd5b11155b61331a5760405162461bcd60e51b815260040180806020018281038252602c815260200180614469602c913960400191505060405180910390fd5b8015806133a25750601160009054906101000a90046001600160a01b03166001600160a01b031663900cf0cf6040518163ffffffff1660e01b815260040160206040518083038186803b15801561337057600080fd5b505afa158015613384573d6000803e3d6000fd5b505050506040513d602081101561339a57600080fd5b505160195414155b6133e5576040805162461bcd60e51b815260206004820152600f60248201526e20b63932b0b23c9031b0b63632b21760891b604482015290519081900360640190fd5b60105460408051632587701560e11b815230600482015290516000926001600160a01b031691634b0ee02a916024808301926020929190829003018186803b15801561343057600080fd5b505afa158015613444573d6000803e3d6000fd5b505050506040513d602081101561345a57600080fd5b5051601754909150156134795761347330601754613f93565b60006017555b6016546134ed57601160009054906101000a90046001600160a01b03166001600160a01b031663b88a802f6040518163ffffffff1660e01b8152600401600060405180830381600087803b1580156134d057600080fd5b505af11580156134e4573d6000803e3d6000fd5b505050506137e4565b600f54604080516370a0823160e01b815230600482015290516000926001600160a01b0316916370a08231916024808301926020929190829003018186803b15801561353857600080fd5b505afa15801561354c573d6000803e3d6000fd5b505050506040513d602081101561356257600080fd5b5051601680546000909155601554919250908111156135955760155461358990829061296b565b600060155590506135a9565b6015546135a2908261296b565b6015555060005b80156137785760115460408051632e1a7d4d60e01b81526004810184905290516001600160a01b0390921691632e1a7d4d9160248082019260009290919082900301818387803b1580156135fc57600080fd5b505af1158015613610573d6000803e3d6000fd5b50506018546136229250905082612911565b601855600f54604080516370a0823160e01b815230600482015290516000926001600160a01b0316916370a08231916024808301926020929190829003018186803b15801561367057600080fd5b505afa158015613684573d6000803e3d6000fd5b505050506040513d602081101561369a57600080fd5b5051905060006136aa828561296b565b905060006136b8848361296b565b905060008111801561374d5750600f5460125460408051636eb1769f60e11b81526001600160a01b0392831660048201523060248201529051600093929092169163dd62ed3e91604480820192602092909190829003018186803b15801561371f57600080fd5b505afa158015613733573d6000803e3d6000fd5b505050506040513d602081101561374957600080fd5b5051115b1561377057601254600f54613770916001600160a01b039182169116308461300f565b5050506137e1565b601160009054906101000a90046001600160a01b03166001600160a01b031663b88a802f6040518163ffffffff1660e01b8152600401600060405180830381600087803b1580156137c857600080fd5b505af11580156137dc573d6000803e3d6000fd5b505050505b50505b60105460408051635a46d3b560e01b8152306004820181905291516001600160a01b039093169263af2b0f6692918491635a46d3b591602480820192602092909190829003018186803b15801561383a57600080fd5b505afa15801561384e573d6000803e3d6000fd5b505050506040513d602081101561386457600080fd5b5051604080516001600160e01b031960e086901b1681526001600160a01b039093166004840152602483019190915251604480830192600092919082900301818387803b1580156138b457600080fd5b505af11580156138c8573d6000803e3d6000fd5b505060105460408051632587701560e11b81523060048201529051600094506001600160a01b039092169250634b0ee02a916024808301926020929190829003018186803b15801561391957600080fd5b505afa15801561392d573d6000803e3d6000fd5b505050506040513d602081101561394357600080fd5b505190506000613953828461296b565b600e549091506139639082612911565b600e556011546040805163900cf0cf60e01b815290516001600160a01b039092169163900cf0cf91600480820192602092909190829003018186803b1580156139ab57600080fd5b505afa1580156139bf573d6000803e3d6000fd5b505050506040513d60208110156139d557600080fd5b5051601955505043601b555050565b336000908152600d602052604090208054421015613a39576040805162461bcd60e51b815260206004820152600d60248201526c5374696c6c206c6f636b65642160981b604482015290519081900360640190fd5b6000816004015411613a8c576040805162461bcd60e51b81526020600482015260176024820152762737903d32b9379030b6b7bab73a1030b63637bbb2b21760491b604482015290519081900360640190fd5b601160009054906101000a90046001600160a01b03166001600160a01b03166313f24daf6040518163ffffffff1660e01b815260040160206040518083038186803b158015613ada57600080fd5b505afa158015613aee573d6000803e3d6000fd5b505050506040513d6020811015613b0457600080fd5b50511580613b1757508060070154601b54115b613b525760405162461bcd60e51b81526004018080602001828103825260338152602001806146536033913960400191505060405180910390fd5b6005810154601854613b64908261296b565b6018556004820180546000918290556005840191909155600f54613b92906001600160a01b03163384613c38565b6040805182815260208101849052815133927ff279e6a1f5e320cca91135676d9cb6e44ca8a08c0b88342bcdb1144f6511b568928290030190a2505050565b6000808211613c27576040805162461bcd60e51b815260206004820152601860248201527f536166654d6174683a206d6f64756c6f206279207a65726f0000000000000000604482015290519081900360640190fd5b818381613c3057fe5b069392505050565b604080516001600160a01b038416602482015260448082018490528251808303909101815260649091019091526020810180516001600160e01b031663a9059cbb60e01b179052612b31908490613e8a565b6001600160a01b038316613ccf5760405162461bcd60e51b81526004018080602001828103825260258152602001806145ba6025913960400191505060405180910390fd5b6001600160a01b038216613d145760405162461bcd60e51b81526004018080602001828103825260238152602001806143496023913960400191505060405180910390fd5b613d1f838383613f3b565b613d5c816040518060600160405280602681526020016143f8602691396001600160a01b0386166000908152602081905260409020549190612b36565b6001600160a01b038085166000908152602081905260408082209390935590841681522054613d8b9082612911565b6001600160a01b038084166000818152602081815260409182902094909455805185815290519193928716927fddf252ad1be2c89b69c2b068fc378daa952ba7f163c4a11628f55a4df523b3ef92918290030190a3505050565b5490565b8154600090613dfa575060006108af565b82546000905b80821015613e49576000613e14838361408f565b905084868281548110613e2357fe5b90600052602060002001541115613e3c57809150613e43565b8060010192505b50613e00565b600082118015613e71575083856001840381548110613e6457fe5b9060005260206000200154145b15613e8257506000190190506108af565b5090506108af565b6060613edf826040518060400160405280602081526020017f5361666545524332303a206c6f772d6c6576656c2063616c6c206661696c6564815250856001600160a01b03166140b49092919063ffffffff16565b805190915015612b3157808060200190516020811015613efe57600080fd5b5051612b315760405162461bcd60e51b815260040180806020018281038252602a815260200180614603602a913960400191505060405180910390fd5b613f46838383612b31565b6001600160a01b038316613f6a57613f5d826140c3565b613f656140f0565b612b31565b6001600160a01b038216613f8157613f5d836140c3565b613f8a836140c3565b612b31826140c3565b6001600160a01b038216613fd85760405162461bcd60e51b81526004018080602001828103825260218152602001806145666021913960400191505060405180910390fd5b613fe482600083613f3b565b6140218160405180606001604052806022815260200161436c602291396001600160a01b0385166000908152602081905260409020549190612b36565b6001600160a01b038316600090815260208190526040902055600254614047908261296b565b6002556040805182815290516000916001600160a01b038516917fddf252ad1be2c89b69c2b068fc378daa952ba7f163c4a11628f55a4df523b3ef9181900360200190a35050565b600060028083066002850601816140a257fe5b04600283046002850401019392505050565b6060611ed484846000856140ff565b6001600160a01b03811660009081526006602052604090206140ed906140e8836116e8565b61425b565b50565b6140fd60076140e86108b5565b565b6060824710156141405760405162461bcd60e51b81526004018080602001828103825260268152602001806144436026913960400191505060405180910390fd5b614149856142a7565b61419a576040805162461bcd60e51b815260206004820152601d60248201527f416464726573733a2063616c6c20746f206e6f6e2d636f6e7472616374000000604482015290519081900360640190fd5b60006060866001600160a01b031685876040518082805190602001908083835b602083106141d95780518252601f1990920191602091820191016141ba565b6001836020036101000a03801982511681845116808217855250505050505090500191505060006040518083038185875af1925050503d806000811461423b576040519150601f19603f3d011682016040523d82523d6000602084013e614240565b606091505b50915091506142508282866142ad565b979650505050505050565b60006142676009613de5565b90508061427384614313565b1015612b31578254600180820185556000858152602080822090930193909355938401805494850181558252902090910155565b3b151590565b606083156142bc575081610d33565b8251156142cc5782518084602001fd5b60405162461bcd60e51b8152602060048201818152845160248401528451859391928392604401919085019080838360008315612b8a578181015183820152602001612b72565b805460009061432457506000610df5565b81548290600019810190811061433657fe5b90600052602060002001549050610df556fe45524332303a207472616e7366657220746f20746865207a65726f206164647265737345524332303a206275726e20616d6f756e7420657863656564732062616c616e63654f776e61626c653a206e6577206f776e657220697320746865207a65726f206164647265737345524332303a20617070726f766520746f20746865207a65726f206164647265737343616e6e6f74206272696e6720646f776e207072696365206f66204d41535445522e45524332303a207472616e7366657220616d6f756e7420657863656564732062616c616e636543616e6e6f74207374616b65207769746820612077697468647261772070656e64696e672e416464726573733a20696e73756666696369656e742062616c616e636520666f722063616c6c4d7573742062652063616c6c6564203330206d696e75746573206265666f72652065706f636820656e64732e43616e6e6f7420776974686472617720776974682061207374616b652070656e64696e672e43616c6c207265717565737453656c6c546f5468656f727920696e73746561642e526563656976657220646964206e6f7420617070726f7665207472616e736665722e536166654d6174683a206d756c7469706c69636174696f6e206f766572666c6f7745524332303a207472616e7366657220616d6f756e74206578636565647320616c6c6f77616e63654f776e61626c653a2063616c6c6572206973206e6f7420746865206f776e657245524332303a206275726e2066726f6d20746865207a65726f2061646472657373496e76616c6964206c6f636b2070657263656e746167652c20636865636b205468656f72657469637320636f6e74726163742e45524332303a207472616e736665722066726f6d20746865207a65726f206164647265737345524332303a20617070726f76652066726f6d20746865207a65726f20616464726573735361666545524332303a204552433230206f7065726174696f6e20646964206e6f742073756363656564436f6e747261637447756172643a206f6e6520626c6f636b2c206f6e652066756e6374696f6e496e69746961746f7220506172742031206e6f74207965742063616c6c6564206f722063616c6c656420746f6f20736f6f6e2e45524332303a2064656372656173656420616c6c6f77616e63652062656c6f77207a65726fa264697066735822122013705ced74953e0db3cd6a0628a248776fddf6a6e102fcd34c11b7ae4bef64aa64736f6c634300060c0033",
  "linkReferences": {},
  "deployedLinkReferences": {}
}