{
  "_format": "hh-sol-artifact-1",
  "contractName": "Master",
  "sourceName": "contracts/Master.sol",
  "abi": [
    {
      "inputs": [
        {
          "internalType": "contract IERC20Lockable",
          "name": "_theory",
          "type": "address"
        },
        {
          "internalType": "contract IERC20Lockable",
          "name": "_game",
          "type": "address"
        },
        {
          "internalType": "contract ITheoretics",
          "name": "_theoretics",
          "type": "address"
        },
        {
          "internalType": "contract ITreasury",
          "name": "_treasury",
          "type": "address"
        }
      ],
      "stateMutability": "nonpayable",
      "type": "constructor"
    },
    {
      "anonymous": false,
      "inputs": [
        {
          "indexed": true,
          "internalType": "address",
          "name": "owner",
          "type": "address"
        },
        {
          "indexed": true,
          "internalType": "address",
          "name": "spender",
          "type": "address"
        },
        {
          "indexed": false,
          "internalType": "uint256",
          "name": "value",
          "type": "uint256"
        }
      ],
      "name": "Approval",
      "type": "event"
    },
    {
      "anonymous": false,
      "inputs": [
        {
          "indexed": true,
          "internalType": "address",
          "name": "user",
          "type": "address"
        },
        {
          "indexed": false,
          "internalType": "uint256",
          "name": "amountInTheory",
          "type": "uint256"
        },
        {
          "indexed": false,
          "internalType": "uint256",
          "name": "amountOutMaster",
          "type": "uint256"
        }
      ],
      "name": "Deposit",
      "type": "event"
    },
    {
      "anonymous": false,
      "inputs": [
        {
          "indexed": true,
          "internalType": "address",
          "name": "previousOwner",
          "type": "address"
        },
        {
          "indexed": true,
          "internalType": "address",
          "name": "newOwner",
          "type": "address"
        }
      ],
      "name": "OwnershipTransferred",
      "type": "event"
    },
    {
      "anonymous": false,
      "inputs": [
        {
          "indexed": true,
          "internalType": "address",
          "name": "user",
          "type": "address"
        },
        {
          "indexed": false,
          "internalType": "uint256",
          "name": "reward",
          "type": "uint256"
        },
        {
          "indexed": false,
          "internalType": "uint256",
          "name": "lockAmount",
          "type": "uint256"
        }
      ],
      "name": "RewardPaid",
      "type": "event"
    },
    {
      "anonymous": false,
      "inputs": [
        {
          "indexed": false,
          "internalType": "uint256",
          "name": "id",
          "type": "uint256"
        }
      ],
      "name": "Snapshot",
      "type": "event"
    },
    {
      "anonymous": false,
      "inputs": [
        {
          "indexed": true,
          "internalType": "address",
          "name": "from",
          "type": "address"
        },
        {
          "indexed": true,
          "internalType": "address",
          "name": "to",
          "type": "address"
        },
        {
          "indexed": false,
          "internalType": "uint256",
          "name": "value",
          "type": "uint256"
        }
      ],
      "name": "Transfer",
      "type": "event"
    },
    {
      "anonymous": false,
      "inputs": [
        {
          "indexed": true,
          "internalType": "address",
          "name": "user",
          "type": "address"
        },
        {
          "indexed": false,
          "internalType": "uint256",
          "name": "amountInMaster",
          "type": "uint256"
        },
        {
          "indexed": false,
          "internalType": "uint256",
          "name": "amountOutTheory",
          "type": "uint256"
        }
      ],
      "name": "Withdraw",
      "type": "event"
    },
    {
      "anonymous": false,
      "inputs": [
        {
          "indexed": true,
          "internalType": "address",
          "name": "user",
          "type": "address"
        },
        {
          "indexed": false,
          "internalType": "uint256",
          "name": "amountInMaster",
          "type": "uint256"
        },
        {
          "indexed": false,
          "internalType": "uint256",
          "name": "amountOutTheory",
          "type": "uint256"
        }
      ],
      "name": "WithdrawRequest",
      "type": "event"
    },
    {
      "inputs": [
        {
          "internalType": "address",
          "name": "_toAdd",
          "type": "address"
        }
      ],
      "name": "addAuthorized",
      "outputs": [],
      "stateMutability": "nonpayable",
      "type": "function"
    },
    {
      "inputs": [
        {
          "internalType": "address",
          "name": "owner",
          "type": "address"
        },
        {
          "internalType": "address",
          "name": "spender",
          "type": "address"
        }
      ],
      "name": "allowance",
      "outputs": [
        {
          "internalType": "uint256",
          "name": "",
          "type": "uint256"
        }
      ],
      "stateMutability": "view",
      "type": "function"
    },
    {
      "inputs": [
        {
          "internalType": "address",
          "name": "spender",
          "type": "address"
        },
        {
          "internalType": "uint256",
          "name": "amount",
          "type": "uint256"
        }
      ],
      "name": "approve",
      "outputs": [
        {
          "internalType": "bool",
          "name": "",
          "type": "bool"
        }
      ],
      "stateMutability": "nonpayable",
      "type": "function"
    },
    {
      "inputs": [
        {
          "internalType": "address",
          "name": "from",
          "type": "address"
        }
      ],
      "name": "approveTransferFrom",
      "outputs": [],
      "stateMutability": "nonpayable",
      "type": "function"
    },
    {
      "inputs": [
        {
          "internalType": "address",
          "name": "",
          "type": "address"
        }
      ],
      "name": "authorized",
      "outputs": [
        {
          "internalType": "bool",
          "name": "",
          "type": "bool"
        }
      ],
      "stateMutability": "view",
      "type": "function"
    },
    {
      "inputs": [
        {
          "internalType": "address",
          "name": "account",
          "type": "address"
        }
      ],
      "name": "balanceOf",
      "outputs": [
        {
          "internalType": "uint256",
          "name": "",
          "type": "uint256"
        }
      ],
      "stateMutability": "view",
      "type": "function"
    },
    {
      "inputs": [
        {
          "internalType": "address",
          "name": "account",
          "type": "address"
        },
        {
          "internalType": "uint256",
          "name": "snapshotId",
          "type": "uint256"
        }
      ],
      "name": "balanceOfAt",
      "outputs": [
        {
          "internalType": "uint256",
          "name": "",
          "type": "uint256"
        }
      ],
      "stateMutability": "view",
      "type": "function"
    },
    {
      "inputs": [
        {
          "internalType": "uint256",
          "name": "amountInTheory",
          "type": "uint256"
        },
        {
          "internalType": "uint256",
          "name": "lockTime",
          "type": "uint256"
        }
      ],
      "name": "buyFromTheory",
      "outputs": [],
      "stateMutability": "nonpayable",
      "type": "function"
    },
    {
      "inputs": [],
      "name": "claimGame",
      "outputs": [],
      "stateMutability": "nonpayable",
      "type": "function"
    },
    {
      "inputs": [],
      "name": "decimals",
      "outputs": [
        {
          "internalType": "uint8",
          "name": "",
          "type": "uint8"
        }
      ],
      "stateMutability": "view",
      "type": "function"
    },
    {
      "inputs": [
        {
          "internalType": "address",
          "name": "spender",
          "type": "address"
        },
        {
          "internalType": "uint256",
          "name": "subtractedValue",
          "type": "uint256"
        }
      ],
      "name": "decreaseAllowance",
      "outputs": [
        {
          "internalType": "bool",
          "name": "",
          "type": "bool"
        }
      ],
      "stateMutability": "nonpayable",
      "type": "function"
    },
    {
      "inputs": [
        {
          "internalType": "address",
          "name": "theorist",
          "type": "address"
        }
      ],
      "name": "earned",
      "outputs": [
        {
          "internalType": "uint256",
          "name": "",
          "type": "uint256"
        }
      ],
      "stateMutability": "view",
      "type": "function"
    },
    {
      "inputs": [],
      "name": "game",
      "outputs": [
        {
          "internalType": "contract IERC20Lockable",
          "name": "",
          "type": "address"
        }
      ],
      "stateMutability": "view",
      "type": "function"
    },
    {
      "inputs": [
        {
          "internalType": "address",
          "name": "theorist",
          "type": "address"
        }
      ],
      "name": "getLastSnapshotIndexOf",
      "outputs": [
        {
          "internalType": "uint256",
          "name": "",
          "type": "uint256"
        }
      ],
      "stateMutability": "view",
      "type": "function"
    },
    {
      "inputs": [
        {
          "internalType": "address",
          "name": "spender",
          "type": "address"
        },
        {
          "internalType": "uint256",
          "name": "addedValue",
          "type": "uint256"
        }
      ],
      "name": "increaseAllowance",
      "outputs": [
        {
          "internalType": "bool",
          "name": "",
          "type": "bool"
        }
      ],
      "stateMutability": "nonpayable",
      "type": "function"
    },
    {
      "inputs": [
        {
          "internalType": "bool",
          "name": "allowEmergency",
          "type": "bool"
        }
      ],
      "name": "initiatePart1",
      "outputs": [],
      "stateMutability": "nonpayable",
      "type": "function"
    },
    {
      "inputs": [],
      "name": "initiatePart2",
      "outputs": [],
      "stateMutability": "nonpayable",
      "type": "function"
    },
    {
      "inputs": [],
      "name": "latestSnapshotIndex",
      "outputs": [
        {
          "internalType": "uint256",
          "name": "",
          "type": "uint256"
        }
      ],
      "stateMutability": "view",
      "type": "function"
    },
    {
      "inputs": [
        {
          "internalType": "uint256",
          "name": "",
          "type": "uint256"
        }
      ],
      "name": "masterHistory",
      "outputs": [
        {
          "internalType": "uint256",
          "name": "time",
          "type": "uint256"
        },
        {
          "internalType": "uint256",
          "name": "rewardReceived",
          "type": "uint256"
        },
        {
          "internalType": "uint256",
          "name": "rewardPerShare",
          "type": "uint256"
        }
      ],
      "stateMutability": "view",
      "type": "function"
    },
    {
      "inputs": [
        {
          "internalType": "uint256",
          "name": "_share",
          "type": "uint256"
        }
      ],
      "name": "masterToTheory",
      "outputs": [
        {
          "internalType": "uint256",
          "name": "",
          "type": "uint256"
        }
      ],
      "stateMutability": "view",
      "type": "function"
    },
    {
      "inputs": [
        {
          "internalType": "uint256",
          "name": "_share",
          "type": "uint256"
        },
        {
          "internalType": "uint256",
          "name": "totalGovernanceToken",
          "type": "uint256"
        },
        {
          "internalType": "uint256",
          "name": "totalShares",
          "type": "uint256"
        }
      ],
      "name": "masterToTheoryOwed",
      "outputs": [
        {
          "internalType": "uint256",
          "name": "",
          "type": "uint256"
        }
      ],
      "stateMutability": "view",
      "type": "function"
    },
    {
      "inputs": [],
      "name": "minLockTime",
      "outputs": [
        {
          "internalType": "uint256",
          "name": "",
          "type": "uint256"
        }
      ],
      "stateMutability": "view",
      "type": "function"
    },
    {
      "inputs": [],
      "name": "name",
      "outputs": [
        {
          "internalType": "string",
          "name": "",
          "type": "string"
        }
      ],
      "stateMutability": "view",
      "type": "function"
    },
    {
      "inputs": [],
      "name": "owner",
      "outputs": [
        {
          "internalType": "address",
          "name": "",
          "type": "address"
        }
      ],
      "stateMutability": "view",
      "type": "function"
    },
    {
      "inputs": [
        {
          "internalType": "address",
          "name": "_toRemove",
          "type": "address"
        }
      ],
      "name": "removeAuthorized",
      "outputs": [],
      "stateMutability": "nonpayable",
      "type": "function"
    },
    {
      "inputs": [],
      "name": "renounceOwnership",
      "outputs": [],
      "stateMutability": "nonpayable",
      "type": "function"
    },
    {
      "inputs": [
        {
          "internalType": "uint256",
          "name": "amountInMaster",
          "type": "uint256"
        },
        {
          "internalType": "bool",
          "name": "allowEmergency",
          "type": "bool"
        }
      ],
      "name": "requestSellToTheory",
      "outputs": [],
      "stateMutability": "nonpayable",
      "type": "function"
    },
    {
      "inputs": [],
      "name": "sellToTheory",
      "outputs": [],
      "stateMutability": "nonpayable",
      "type": "function"
    },
    {
      "inputs": [
        {
          "internalType": "uint256",
          "name": "lockTime",
          "type": "uint256"
        },
        {
          "internalType": "uint256",
          "name": "penalty",
          "type": "uint256"
        }
      ],
      "name": "setTimes",
      "outputs": [],
      "stateMutability": "nonpayable",
      "type": "function"
    },
    {
      "inputs": [
        {
          "internalType": "uint256",
          "name": "amount",
          "type": "uint256"
        }
      ],
      "name": "stakeExternalTheory",
      "outputs": [],
      "stateMutability": "nonpayable",
      "type": "function"
    },
    {
      "inputs": [],
      "name": "symbol",
      "outputs": [
        {
          "internalType": "string",
          "name": "",
          "type": "string"
        }
      ],
      "stateMutability": "view",
      "type": "function"
    },
    {
      "inputs": [],
      "name": "theoretics",
      "outputs": [
        {
          "internalType": "contract ITheoretics",
          "name": "",
          "type": "address"
        }
      ],
      "stateMutability": "view",
      "type": "function"
    },
    {
      "inputs": [],
      "name": "theory",
      "outputs": [
        {
          "internalType": "contract IERC20Lockable",
          "name": "",
          "type": "address"
        }
      ],
      "stateMutability": "view",
      "type": "function"
    },
    {
      "inputs": [
        {
          "internalType": "uint256",
          "name": "_amount",
          "type": "uint256"
        }
      ],
      "name": "theoryToMaster",
      "outputs": [
        {
          "internalType": "uint256",
          "name": "",
          "type": "uint256"
        }
      ],
      "stateMutability": "view",
      "type": "function"
    },
    {
      "inputs": [
        {
          "internalType": "uint256",
          "name": "_amount",
          "type": "uint256"
        },
        {
          "internalType": "uint256",
          "name": "totalGovernanceToken",
          "type": "uint256"
        },
        {
          "internalType": "uint256",
          "name": "totalShares",
          "type": "uint256"
        }
      ],
      "name": "theoryToMasterOwed",
      "outputs": [
        {
          "internalType": "uint256",
          "name": "",
          "type": "uint256"
        }
      ],
      "stateMutability": "view",
      "type": "function"
    },
    {
      "inputs": [],
      "name": "totalSupply",
      "outputs": [
        {
          "internalType": "uint256",
          "name": "",
          "type": "uint256"
        }
      ],
      "stateMutability": "view",
      "type": "function"
    },
    {
      "inputs": [
        {
          "internalType": "uint256",
          "name": "snapshotId",
          "type": "uint256"
        }
      ],
      "name": "totalSupplyAt",
      "outputs": [
        {
          "internalType": "uint256",
          "name": "",
          "type": "uint256"
        }
      ],
      "stateMutability": "view",
      "type": "function"
    },
    {
      "inputs": [
        {
          "internalType": "address",
          "name": "recipient",
          "type": "address"
        },
        {
          "internalType": "uint256",
          "name": "amount",
          "type": "uint256"
        }
      ],
      "name": "transfer",
      "outputs": [
        {
          "internalType": "bool",
          "name": "",
          "type": "bool"
        }
      ],
      "stateMutability": "nonpayable",
      "type": "function"
    },
    {
      "inputs": [
        {
          "internalType": "address",
          "name": "sender",
          "type": "address"
        },
        {
          "internalType": "address",
          "name": "recipient",
          "type": "address"
        },
        {
          "internalType": "uint256",
          "name": "amount",
          "type": "uint256"
        }
      ],
      "name": "transferFrom",
      "outputs": [
        {
          "internalType": "bool",
          "name": "",
          "type": "bool"
        }
      ],
      "stateMutability": "nonpayable",
      "type": "function"
    },
    {
      "inputs": [
        {
          "internalType": "address",
          "name": "newOwner",
          "type": "address"
        }
      ],
      "name": "transferOwnership",
      "outputs": [],
      "stateMutability": "nonpayable",
      "type": "function"
    },
    {
      "inputs": [
        {
          "internalType": "contract IERC20",
          "name": "_token",
          "type": "address"
        },
        {
          "internalType": "address",
          "name": "to",
          "type": "address"
        },
        {
          "internalType": "uint256",
          "name": "amount",
          "type": "uint256"
        }
      ],
      "name": "transferToken",
      "outputs": [],
      "stateMutability": "nonpayable",
      "type": "function"
    },
    {
      "inputs": [],
      "name": "treasury",
      "outputs": [
        {
          "internalType": "contract ITreasury",
          "name": "",
          "type": "address"
        }
      ],
      "stateMutability": "view",
      "type": "function"
    },
    {
      "inputs": [],
      "name": "unlockedClaimPenalty",
      "outputs": [
        {
          "internalType": "uint256",
          "name": "",
          "type": "uint256"
        }
      ],
      "stateMutability": "view",
      "type": "function"
    },
    {
      "inputs": [
        {
          "internalType": "address",
          "name": "",
          "type": "address"
        }
      ],
      "name": "userInfo",
      "outputs": [
        {
          "internalType": "uint256",
          "name": "lockToTime",
          "type": "uint256"
        },
        {
          "internalType": "uint256",
          "name": "chosenLockTime",
          "type": "uint256"
        },
        {
          "internalType": "address",
          "name": "approveTransferFrom",
          "type": "address"
        },
        {
          "internalType": "uint256",
          "name": "lastSnapshotIndex",
          "type": "uint256"
        },
        {
          "internalType": "uint256",
          "name": "rewardEarned",
          "type": "uint256"
        },
        {
          "internalType": "uint256",
          "name": "withdrawRequestedInMaster",
          "type": "uint256"
        },
        {
          "internalType": "uint256",
          "name": "withdrawRequestedInTheory",
          "type": "uint256"
        },
        {
          "internalType": "uint256",
          "name": "lastStakeRequestBlock",
          "type": "uint256"
        },
        {
          "internalType": "uint256",
          "name": "lastWithdrawRequestBlock",
          "type": "uint256"
        }
      ],
      "stateMutability": "view",
      "type": "function"
    }
  ],
  "bytecode": "0x60806040523480156200001157600080fd5b506040516200587538038062005875833981810160405260808110156200003757600080fd5b50805160208083015160408085015160609095015181518083018352600c81526b26b0b9ba32b9102a37b5b2b760a11b8186019081528351808501909452600684526526a0a9aa22a960d11b9584019590955280519596939593949193909291620000a6916003919062000239565b508051620000bc90600490602084019062000239565b50506005805460ff19166012179055506000620000d862000235565b600a80546001600160a01b0319166001600160a01b038316908117909155604051919250906000907f8be0079c531659141344cd1fd0a4f28419497f9722a3daafe3b4186f6b6457e0908290a350600e80546001600160a01b038087166001600160a01b031992831617909255600f80548684169083161790556010805485841690831617905560118054928416929091169190911790556301e1338060125562278d0060135562000189620002be565b505060408051606081018252438152600060208201818152928201818152601c8054600181018255925291517f0e4562a10381dec21b205ed72637e6b1b523bdd0e4d4d50af5cd23dd4500a21160039092029182015591517f0e4562a10381dec21b205ed72637e6b1b523bdd0e4d4d50af5cd23dd4500a212830155517f0e4562a10381dec21b205ed72637e6b1b523bdd0e4d4d50af5cd23dd4500a2139091015550620002f6915050565b3390565b828054600181600116156101000203166002900490600052602060002090601f016020900481019282601f106200027c57805160ff1916838001178555620002ac565b82800160010185558215620002ac579182015b82811115620002ac5782518255916020019190600101906200028f565b50620002ba929150620002df565b5090565b60405180606001604052806000815260200160008152602001600081525090565b5b80821115620002ba5760008155600101620002e0565b61556f80620003066000396000f3fe608060405234801561001057600080fd5b50600436106102735760003560e01c80638da5cb5b11610151578063c3fe3e28116100c3578063e4d2c45e11610087578063e4d2c45e1461077c578063f0e0d9f6146107a5578063f2fde38b146107e0578063f5537ede14610806578063f894dd211461083c578063fdb781c81461086557610273565b8063c3fe3e28146106e0578063c4e69329146106e8578063c7b728de1461070b578063cf1c316a14610728578063dd62ed3e1461074e57610273565b8063a60ff76611610115578063a60ff7661461063c578063a9059cbb14610644578063ab9fb43814610670578063ad45e4ae1461068d578063aeadf88f14610695578063b9181611146106ba57610273565b80638da5cb5b146105db57806395d89b41146105e357806397b98e4a146105eb578063981b24d0146105f3578063a457c2d71461061057610273565b80633c32a450116101ea5780635358a2af116101ae5780635358a2af1461056f5780635936e8bd1461057757806361d027b31461057f57806370a0823114610587578063714b4658146105ad578063715018a6146105d357610273565b80633c32a450146104d25780633f9e3f04146104f6578063485d7d94146104fe5780634e0e7e33146105245780634ee2cd7e1461054357610273565b80631959a0021161023c5780631959a00214610394578063224348361461040957806323b872dd1461042c578063313ce5671461046257806336cea11b1461048057806339509351146104a657610273565b80628cc2621461027857806306fdde03146102b0578063095ea7b31461032d57806318160ddd1461036d57806318bb939a14610375575b600080fd5b61029e6004803603602081101561028e57600080fd5b50356001600160a01b031661086d565b60408051918252519081900360200190f35b6102b86108f0565b6040805160208082528351818301528351919283929083019185019080838360005b838110156102f25781810151838201526020016102da565b50505050905090810190601f16801561031f5780820380516001836020036101000a031916815260200191505b509250505060405180910390f35b6103596004803603604081101561034357600080fd5b506001600160a01b038135169060200135610986565b604080519115158252519081900360200190f35b61029e6109a4565b6103926004803603602081101561038b57600080fd5b50356109aa565b005b6103ba600480360360208110156103aa57600080fd5b50356001600160a01b0316610d8f565b60408051998a5260208a01989098526001600160a01b03909616888801526060880194909452608087019290925260a086015260c085015260e084015261010083015251908190036101200190f35b6103926004803603604081101561041f57600080fd5b5080359060200135610de4565b6103596004803603606081101561044257600080fd5b506001600160a01b03813581169160208101359091169060400135610f00565b61046a610f88565b6040805160ff9092168252519081900360200190f35b6103926004803603602081101561049657600080fd5b50356001600160a01b0316610f91565b610359600480360360408110156104bc57600080fd5b506001600160a01b038135169060200135610fc3565b6104da611011565b604080516001600160a01b039092168252519081900360200190f35b61029e611020565b6103926004803603602081101561051457600080fd5b50356001600160a01b0316611036565b6103926004803603602081101561053a57600080fd5b503515156110cf565b61029e6004803603604081101561055957600080fd5b506001600160a01b038135169060200135611160565b61029e6111a9565b6103926111af565b6104da61142a565b61029e6004803603602081101561059d57600080fd5b50356001600160a01b0316611439565b61029e600480360360208110156105c357600080fd5b50356001600160a01b0316611454565b610392611472565b6104da61151e565b6102b861152d565b61039261158e565b61029e6004803603602081101561060957600080fd5b5035611b97565b6103596004803603604081101561062657600080fd5b506001600160a01b038135169060200135611bbd565b61029e611c25565b6103596004803603604081101561065a57600080fd5b506001600160a01b038135169060200135611c2b565b61029e6004803603602081101561068657600080fd5b5035611c3f565b6104da611d01565b610392600480360360408110156106ab57600080fd5b50803590602001351515611d10565b610359600480360360208110156106d057600080fd5b50356001600160a01b0316612148565b6104da61215d565b610392600480360360408110156106fe57600080fd5b508035906020013561216c565b61029e6004803603602081101561072157600080fd5b5035612688565b6103926004803603602081101561073e57600080fd5b50356001600160a01b0316612718565b61029e6004803603604081101561076457600080fd5b506001600160a01b038135811691602001351661279e565b61029e6004803603606081101561079257600080fd5b50803590602081013590604001356127c9565b6107c2600480360360208110156107bb57600080fd5b50356127f2565b60408051938452602084019290925282820152519081900360600190f35b610392600480360360208110156107f657600080fd5b50356001600160a01b0316612822565b6103926004803603606081101561081c57600080fd5b506001600160a01b03813581169160208101359091169060400135612925565b61029e6004803603606081101561085257600080fd5b5080359060208101359060400135612afc565b610392612b25565b600080610878612d9d565b604001519050600061088984612df5565b6040908101516001600160a01b0386166000908152600d60205291909120600401549091506108e6906108e0670de0b6b3a76400006108da6108cb8787612e50565b6108d48a611439565b90612ead565b90612f06565b90612f6d565b925050505b919050565b60038054604080516020601f600260001961010060018816150201909516949094049384018190048102820181019092528281526060939092909183018282801561097c5780601f106109515761010080835404028352916020019161097c565b820191906000526020600020905b81548152906001019060200180831161095f57829003601f168201915b5050505050905090565b600061099a610993612fc7565b8484612fcb565b5060015b92915050565b60025490565b336000908152600b602052604090205460ff16806109d75750336109cc61151e565b6001600160a01b0316145b610a23576040805162461bcd60e51b815260206004820152601860248201527718d85b1b195c881a5cc81b9bdd08185d5d1a1bdc9a5e995960421b604482015290519081900360640190fd5b610a2b6130b7565b15610a675760405162461bcd60e51b81526004018080602001828103825260268152602001806154866026913960400191505060405180910390fd5b610a6f6130d8565b15610aab5760405162461bcd60e51b81526004018080602001828103825260268152602001806154866026913960400191505060405180910390fd5b610b42610ac5601754601454612f6d90919063ffffffff16565b600e54604080516370a0823160e01b815230600482015290516001600160a01b03909216916370a0823191602480820192602092909190829003018186803b158015610b1057600080fd5b505afa158015610b24573d6000803e3d6000fd5b505050506040513d6020811015610b3a57600080fd5b505190612e50565b811115610b96576040805162461bcd60e51b815260206004820152601b60248201527f43616e6e6f74207374616b652070656e64696e672066756e64732e0000000000604482015290519081900360640190fd5b601060009054906101000a90046001600160a01b03166001600160a01b031663900cf0cf6040518163ffffffff1660e01b815260040160206040518083038186803b158015610be457600080fd5b505afa158015610bf8573d6000803e3d6000fd5b505050506040513d6020811015610c0e57600080fd5b50516019541480610c965750601060009054906101000a90046001600160a01b03166001600160a01b03166313f24daf6040518163ffffffff1660e01b815260040160206040518083038186803b158015610c6857600080fd5b505afa158015610c7c573d6000803e3d6000fd5b505050506040513d6020811015610c9257600080fd5b5051155b15610d4057601054600e54610cb9916001600160a01b03918216911660006130f9565b601054600e54610cd6916001600160a01b039182169116836130f9565b6010546040805163534a7e1d60e11b81526004810184905290516001600160a01b039092169163a694fc3a9160248082019260009290919082900301818387803b158015610d2357600080fd5b505af1158015610d37573d6000803e3d6000fd5b50505050610d51565b601454610d4d9082612f6d565b6014555b50436000908152600c602090815260408083203284529091528082208054600160ff1991821681179092553384529190922080549091169091179055565b600d60205260009081526040902080546001820154600283015460038401546004850154600586015460068701546007880154600890980154969795966001600160a01b039095169593949293919290919089565b336000908152600b602052604090205460ff1680610e11575033610e0661151e565b6001600160a01b0316145b610e5d576040805162461bcd60e51b815260206004820152601860248201527718d85b1b195c881a5cc81b9bdd08185d5d1a1bdc9a5e995960421b604482015290519081900360640190fd5b6303c26700821115610eac576040805162461bcd60e51b81526020600482015260136024820152722637b1b5903a34b6b2903a37b7903434b3b41760691b604482015290519081900360640190fd5b81811115610ef5576040805162461bcd60e51b81526020600482015260116024820152702832b730b63a3c903a37b7903434b3b41760791b604482015290519081900360640190fd5b601291909155601355565b6000610f0d848484613211565b610f7d84610f19612fc7565b610f7885604051806060016040528060288152602001615349602891396001600160a01b038a16600090815260016020526040812090610f57612fc7565b6001600160a01b031681526020810191909152604001600020549190613451565b612fcb565b5060015b9392505050565b60055460ff1690565b336000908152600d6020526040902060020180546001600160a01b0319166001600160a01b0392909216919091179055565b600061099a610fd0612fc7565b84610f788560016000610fe1612fc7565b6001600160a01b03908116825260208083019390935260409182016000908120918c168152925290205490612f6d565b600e546001600160a01b031681565b601c54600090611031906001612e50565b905090565b61103e612fc7565b6001600160a01b031661104f61151e565b6001600160a01b031614611098576040805162461bcd60e51b81526020600482018190526024820152600080516020615371833981519152604482015290519081900360640190fd5b6001600160a01b0381163314156110ae57600080fd5b6001600160a01b03166000908152600b60205260409020805460ff19169055565b6110d76130b7565b156111135760405162461bcd60e51b81526004018080602001828103825260268152602001806154866026913960400191505060405180910390fd5b61111b6130d8565b156111575760405162461bcd60e51b81526004018080602001828103825260268152602001806154866026913960400191505060405180910390fd5b610d51816134e8565b6001600160a01b03821660009081526006602052604081208190819061118790859061410a565b915091508161119e5761119985611439565b6111a0565b805b95945050505050565b60135481565b6111b76130b7565b156111f35760405162461bcd60e51b81526004018080602001828103825260268152602001806154866026913960400191505060405180910390fd5b6111fb6130d8565b156112375760405162461bcd60e51b81526004018080602001828103825260268152602001806154866026913960400191505060405180910390fd5b33801561136a57611246615129565b506001600160a01b038082166000908152600d6020908152604091829020825161012081018452815481526001820154928101929092526002810154909316918101919091526003820154606082015260048201546080820152600582015460a0820152600682015460c0820152600782015460e08201526008909101546101008201526112d38261086d565b60808201526112e0611020565b606082019081526001600160a01b038381166000908152600d602090815260409182902085518155908501516001820155908401516002820180546001600160a01b0319169190931617909155905160038201556080820151600482015560a0820151600582015560c0820151600682015560e08201516007820155610100909101516008909101555b60006113753361086d565b116113bb576040805162461bcd60e51b815260206004820152601160248201527027379023a0a6a2903a379031b630b4b69760791b604482015290519081900360640190fd5b336000908152600d60205260409020805442106113e3576013546113e0904290612f6d565b81555b6113eb614207565b5050436000908152600c602090815260408083203284529091528082208054600160ff1991821681179092553384529190922080549091169091179055565b6011546001600160a01b031681565b6001600160a01b031660009081526020819052604090205490565b6001600160a01b03166000908152600d602052604090206003015490565b61147a612fc7565b6001600160a01b031661148b61151e565b6001600160a01b0316146114d4576040805162461bcd60e51b81526020600482018190526024820152600080516020615371833981519152604482015290519081900360640190fd5b600a546040516000916001600160a01b0316907f8be0079c531659141344cd1fd0a4f28419497f9722a3daafe3b4186f6b6457e0908390a3600a80546001600160a01b0319169055565b600a546001600160a01b031690565b60048054604080516020601f600260001961010060018816150201909516949094049384018190048102820181019092528281526060939092909183018282801561097c5780601f106109515761010080835404028352916020019161097c565b6115966130b7565b156115d25760405162461bcd60e51b81526004018080602001828103825260268152602001806154866026913960400191505060405180910390fd5b6115da6130d8565b156116165760405162461bcd60e51b81526004018080602001828103825260268152602001806154866026913960400191505060405180910390fd5b601054604080516313f24daf60e01b815290516000926001600160a01b0316916313f24daf916004808301926020929190829003018186803b15801561165b57600080fd5b505afa15801561166f573d6000803e3d6000fd5b505050506040513d602081101561168557600080fd5b50519050801580611717575061171581601060009054906101000a90046001600160a01b03166001600160a01b031663900cf0cf6040518163ffffffff1660e01b815260040160206040518083038186803b1580156116e357600080fd5b505afa1580156116f7573d6000803e3d6000fd5b505050506040513d602081101561170d57600080fd5b5051906143ce565b155b611768576040805162461bcd60e51b815260206004820152601e60248201527f4d7573742063616c6c20617420612077697468647261772065706f63682e0000604482015290519081900360640190fd5b8015806117ed5750601060009054906101000a90046001600160a01b03166001600160a01b031663c5967c266040518163ffffffff1660e01b815260040160206040518083038186803b1580156117be57600080fd5b505afa1580156117d2573d6000803e3d6000fd5b505050506040513d60208110156117e857600080fd5b505142115b8061184b575061070861184842601060009054906101000a90046001600160a01b03166001600160a01b031663c5967c266040518163ffffffff1660e01b815260040160206040518083038186803b158015610b1057600080fd5b11155b6118865760405162461bcd60e51b81526004018080602001828103825260348152602001806153b26034913960400191505060405180910390fd5b80158061190e5750601060009054906101000a90046001600160a01b03166001600160a01b031663900cf0cf6040518163ffffffff1660e01b815260040160206040518083038186803b1580156118dc57600080fd5b505afa1580156118f0573d6000803e3d6000fd5b505050506040513d602081101561190657600080fd5b505160195414155b611951576040805162461bcd60e51b815260206004820152600f60248201526e20b63932b0b23c9031b0b63632b21760891b604482015290519081900360640190fd5b8015806119d85750601060009054906101000a90046001600160a01b03166001600160a01b031663900cf0cf6040518163ffffffff1660e01b815260040160206040518083038186803b1580156119a757600080fd5b505afa1580156119bb573d6000803e3d6000fd5b505050506040513d60208110156119d157600080fd5b5051601854145b611a22576040805162461bcd60e51b815260206004820152601660248201527524b734ba34b0ba32903830b93a1018903334b939ba1760511b604482015290519081900360640190fd5b60145415611ad757601054600e54611a48916001600160a01b03918216911660006130f9565b601054601454600e54611a69926001600160a01b03918216929116906130f9565b6010546014546040805163534a7e1d60e11b81526004810192909252516001600160a01b039092169163a694fc3a9160248082019260009290919082900301818387803b158015611ab957600080fd5b505af1158015611acd573d6000803e3d6000fd5b5050600060145550505b601060009054906101000a90046001600160a01b03166001600160a01b031663900cf0cf6040518163ffffffff1660e01b815260040160206040518083038186803b158015611b2557600080fd5b505afa158015611b39573d6000803e3d6000fd5b505050506040513d6020811015611b4f57600080fd5b50516019555043601b8190556000908152600c602090815260408083203284529091528082208054600160ff1991821681179092553384529190922080549091169091179055565b6000806000611ba784600761410a565b9150915081610f8157611bb86109a4565b6108e6565b600061099a611bca612fc7565b84610f78856040518060600160405280602581526020016155156025913960016000611bf4612fc7565b6001600160a01b03908116825260208083019390935260409182016000908120918d16815292529020549190613451565b60125481565b600061099a611c38612fc7565b8484613211565b601454601054604080516370a0823160e01b815230600482015290516000938493611cc99391926001600160a01b03909116916370a08231916024808301926020929190829003018186803b158015611c9757600080fd5b505afa158015611cab573d6000803e3d6000fd5b505050506040513d6020811015611cc157600080fd5b505190612f6d565b90506000611cd56109a4565b9050801580611ce2575081155b15611cf15783925050506108eb565b60006111a0836108da8785612ead565b6010546001600160a01b031681565b611d186130b7565b15611d545760405162461bcd60e51b81526004018080602001828103825260268152602001806154866026913960400191505060405180910390fd5b611d5c6130d8565b15611d985760405162461bcd60e51b81526004018080602001828103825260268152602001806154866026913960400191505060405180910390fd5b338015611ecb57611da7615129565b506001600160a01b038082166000908152600d6020908152604091829020825161012081018452815481526001820154928101929092526002810154909316918101919091526003820154606082015260048201546080820152600582015460a0820152600682015460c0820152600782015460e0820152600890910154610100820152611e348261086d565b6080820152611e41611020565b606082019081526001600160a01b038381166000908152600d602090815260409182902085518155908501516001820155908401516002820180546001600160a01b0319169190931617909155905160038201556080820151600482015560a0820151600582015560c0820151600682015560e08201516007820155610100909101516008909101555b336000908152600d602052604090208054421015611f20576040805162461bcd60e51b815260206004820152600d60248201526c5374696c6c206c6f636b65642160981b604482015290519081900360640190fd5b60008411611f6f576040805162461bcd60e51b81526020600482015260176024820152762737903d32b9379030b6b7bab73a1030b63637bbb2b21760491b604482015290519081900360640190fd5b601b541580611f8357508060070154601b54115b611fbe5760405162461bcd60e51b81526004018080602001828103825260258152602001806152c06025913960400191505060405180910390fd5b611fc733611439565b841415611fd657611fd6614207565b611fe1333086613211565b6005810154611ff09085612f6d565b60058201556016546120029085612f6d565b601655600061201085612688565b60068301549091506120229082612f6d565b60068301556015546120349082612f6d565b6015554360088301556040805186815260208101839052815133927fcbc7c7858f9ab8ce22517d4b910042540172c3d579222cf6716e222f341ca371928290030190a2601060009054906101000a90046001600160a01b03166001600160a01b03166313f24daf6040518163ffffffff1660e01b815260040160206040518083038186803b1580156120c557600080fd5b505afa1580156120d9573d6000803e3d6000fd5b505050506040513d60208110156120ef57600080fd5b5051612106576120fe846134e8565b612106614435565b5050436000908152600c602090815260408083203284529091528082208054600160ff1991821681179092553384529190922080549091169091179055505050565b600b6020526000908152604090205460ff1681565b600f546001600160a01b031681565b6121746130b7565b156121b05760405162461bcd60e51b81526004018080602001828103825260268152602001806154866026913960400191505060405180910390fd5b6121b86130d8565b156121f45760405162461bcd60e51b81526004018080602001828103825260268152602001806154866026913960400191505060405180910390fd5b33801561232757612203615129565b506001600160a01b038082166000908152600d6020908152604091829020825161012081018452815481526001820154928101929092526002810154909316918101919091526003820154606082015260048201546080820152600582015460a0820152600682015460c0820152600782015460e08201526008909101546101008201526122908261086d565b608082015261229d611020565b606082019081526001600160a01b038381166000908152600d602090815260409182902085518155908501516001820155908401516002820180546001600160a01b0319169190931617909155905160038201556080820151600482015560a0820151600582015560c0820151600682015560e08201516007820155610100909101516008909101555b60008311612376576040805162461bcd60e51b81526020600482015260176024820152762737903d32b9379030b6b7bab73a1030b63637bbb2b21760491b604482015290519081900360640190fd5b336000908152600d6020526040902060058101541580156123a65750601a5415806123a657508060080154601a54115b6123e15760405162461bcd60e51b81526004018080602001828103825260258152602001806152756025913960400191505060405180910390fd5b6012548310156123f15760125492505b60006123fd4285612f6d565b60018301859055825490915081111561241a5761241a3382614622565b600061242586611c3f565b600e54909150612440906001600160a01b031633308961463e565b61244a338261469e565b601060009054906101000a90046001600160a01b03166001600160a01b031663900cf0cf6040518163ffffffff1660e01b815260040160206040518083038186803b15801561249857600080fd5b505afa1580156124ac573d6000803e3d6000fd5b505050506040513d60208110156124c257600080fd5b5051601954148061254a5750601060009054906101000a90046001600160a01b03166001600160a01b03166313f24daf6040518163ffffffff1660e01b815260040160206040518083038186803b15801561251c57600080fd5b505afa158015612530573d6000803e3d6000fd5b505050506040513d602081101561254657600080fd5b5051155b156125f457601054600e5461256d916001600160a01b03918216911660006130f9565b601054600e5461258a916001600160a01b039182169116886130f9565b6010546040805163534a7e1d60e11b81526004810189905290516001600160a01b039092169163a694fc3a9160248082019260009290919082900301818387803b1580156125d757600080fd5b505af11580156125eb573d6000803e3d6000fd5b50505050612605565b6014546126019087612f6d565b6014555b4360078401556040805187815260208101839052815133927f90890809c654f11d6e72a28fa60149770a0d11ec6c92319d6ceb2bb0a4ea1a15928290030190a25050436000908152600c602090815260408083203284529091528082208054600160ff199182168117909255338452919092208054909116909117905550505050565b601454601054604080516370a0823160e01b8152306004820152905160009384936126e09391926001600160a01b03909116916370a08231916024808301926020929190829003018186803b158015611c9757600080fd5b905060006126ec6109a4565b90508015806126f9575081155b156127085783925050506108eb565b60006111a0826108da8786612ead565b612720612fc7565b6001600160a01b031661273161151e565b6001600160a01b03161461277a576040805162461bcd60e51b81526020600482018190526024820152600080516020615371833981519152604482015290519081900360640190fd5b6001600160a01b03166000908152600b60205260409020805460ff19166001179055565b6001600160a01b03918216600090815260016020908152604080832093909416825291909152205490565b60008115806127d6575082155b156127e2575082610f81565b60006111a0836108da8787612ead565b601c81815481106127ff57fe5b600091825260209091206003909102018054600182015460029092015490925083565b61282a612fc7565b6001600160a01b031661283b61151e565b6001600160a01b031614612884576040805162461bcd60e51b81526020600482018190526024820152600080516020615371833981519152604482015290519081900360640190fd5b6001600160a01b0381166128c95760405162461bcd60e51b81526004018080602001828103825260268152602001806151e56026913960400191505060405180910390fd5b600a546040516001600160a01b038084169216907f8be0079c531659141344cd1fd0a4f28419497f9722a3daafe3b4186f6b6457e090600090a3600a80546001600160a01b0319166001600160a01b0392909216919091179055565b336000908152600b602052604090205460ff168061295257503361294761151e565b6001600160a01b0316145b61299e576040805162461bcd60e51b815260206004820152601860248201527718d85b1b195c881a5cc81b9bdd08185d5d1a1bdc9a5e995960421b604482015290519081900360640190fd5b6129a66130b7565b156129e25760405162461bcd60e51b81526004018080602001828103825260268152602001806154866026913960400191505060405180910390fd5b6129ea6130d8565b15612a265760405162461bcd60e51b81526004018080602001828103825260268152602001806154866026913960400191505060405180910390fd5b6001600160a01b03831630141580612a525750612a4e601654612a4830611439565b90612e50565b8111155b612a5b57600080fd5b600e546001600160a01b0384811691161415612aa85760405162461bcd60e51b815260040180806020018281038252602281526020018061522d6022913960400191505060405180910390fd5b612abc6001600160a01b038416838361478e565b5050436000908152600c602090815260408083203284529091528082208054600160ff199182168117909255338452919092208054909116909117905550565b6000811580612b09575082155b15612b15575082610f81565b60006111a0846108da8786612ead565b612b2d6130b7565b15612b695760405162461bcd60e51b81526004018080602001828103825260268152602001806154866026913960400191505060405180910390fd5b612b716130d8565b15612bad5760405162461bcd60e51b81526004018080602001828103825260268152602001806154866026913960400191505060405180910390fd5b338015612ce057612bbc615129565b506001600160a01b038082166000908152600d6020908152604091829020825161012081018452815481526001820154928101929092526002810154909316918101919091526003820154606082015260048201546080820152600582015460a0820152600682015460c0820152600782015460e0820152600890910154610100820152612c498261086d565b6080820152612c56611020565b606082019081526001600160a01b038381166000908152600d602090815260409182902085518155908501516001820155908401516002820180546001600160a01b0319169190931617909155905160038201556080820151600482015560a0820151600582015560c0820151600682015560e08201516007820155610100909101516008909101555b601060009054906101000a90046001600160a01b03166001600160a01b03166313f24daf6040518163ffffffff1660e01b815260040160206040518083038186803b158015612d2e57600080fd5b505afa158015612d42573d6000803e3d6000fd5b505050506040513d6020811015612d5857600080fd5b5051612d955760405162461bcd60e51b81526004018080602001828103825260218152602001806152e56021913960400191505060405180910390fd5b610d51614435565b612da561517e565b601c612daf611020565b81548110612db957fe5b90600052602060002090600302016040518060600160405290816000820154815260200160018201548152602001600282015481525050905090565b612dfd61517e565b601c612e0883611454565b81548110612e1257fe5b906000526020600020906003020160405180606001604052908160008201548152602001600182015481526020016002820154815250509050919050565b600082821115612ea7576040805162461bcd60e51b815260206004820152601e60248201527f536166654d6174683a207375627472616374696f6e206f766572666c6f770000604482015290519081900360640190fd5b50900390565b600082612ebc5750600061099e565b82820282848281612ec957fe5b0414610f815760405162461bcd60e51b81526004018080602001828103825260218152602001806153286021913960400191505060405180910390fd5b6000808211612f5c576040805162461bcd60e51b815260206004820152601a60248201527f536166654d6174683a206469766973696f6e206279207a65726f000000000000604482015290519081900360640190fd5b818381612f6557fe5b049392505050565b600082820183811015610f81576040805162461bcd60e51b815260206004820152601b60248201527f536166654d6174683a206164646974696f6e206f766572666c6f770000000000604482015290519081900360640190fd5b3390565b6001600160a01b0383166130105760405162461bcd60e51b815260040180806020018281038252602481526020018061540b6024913960400191505060405180910390fd5b6001600160a01b0382166130555760405162461bcd60e51b815260040180806020018281038252602281526020018061520b6022913960400191505060405180910390fd5b6001600160a01b03808416600081815260016020908152604080832094871680845294825291829020859055815185815291517f8c5be1e5ebec7d5bd14f71427d1e84f3dd0314c0f7b2291e5b200ac8c7c3b9259281900390910190a3505050565b436000908152600c6020908152604080832032845290915290205460ff1690565b436000908152600c6020908152604080832033845290915290205460ff1690565b80158061317f575060408051636eb1769f60e11b81523060048201526001600160a01b03848116602483015291519185169163dd62ed3e91604480820192602092909190829003018186803b15801561315157600080fd5b505afa158015613165573d6000803e3d6000fd5b505050506040513d602081101561317b57600080fd5b5051155b6131ba5760405162461bcd60e51b81526004018080602001828103825260368152602001806154ac6036913960400191505060405180910390fd5b604080516001600160a01b038416602482015260448082018490528251808303909101815260649091019091526020810180516001600160e01b031663095ea7b360e01b17905261320c9084906147dc565b505050565b336000908152600b602052604090205460ff168061323e57503361323361151e565b6001600160a01b0316145b806132bf575060115460408051632364d3dd60e21b8152905133926001600160a01b031691638d934f74916004808301926020929190829003018186803b15801561328857600080fd5b505afa15801561329c573d6000803e3d6000fd5b505050506040513d60208110156132b257600080fd5b50516001600160a01b0316145b806132c957503033145b806132ec57506001600160a01b0382166000908152600b602052604090205460ff165b8061330f5750816001600160a01b031661330461151e565b6001600160a01b0316145b80613392575060115460408051632364d3dd60e21b815290516001600160a01b03808616931691638d934f74916004808301926020929190829003018186803b15801561335b57600080fd5b505afa15801561336f573d6000803e3d6000fd5b505050506040513d602081101561338557600080fd5b50516001600160a01b0316145b806133a55750306001600160a01b038316145b613446576001600160a01b038281166000908152600d602052604090206002810154909185811691161461340a5760405162461bcd60e51b81526004018080602001828103825260228152602001806153066022913960400191505060405180910390fd5b6002810180546001600160a01b031916905560125460009061342d904290612f6d565b8254909150811115613443576134438482614622565b50505b61320c83838361488d565b600081848411156134e05760405162461bcd60e51b81526004018080602001828103825283818151815260200191508051906020019080838360005b838110156134a557818101518382015260200161348d565b50505050905090810190601f1680156134d25780820380516001836020036101000a031916815260200191505b509250505060405180910390fd5b505050900390565b601054604080516313f24daf60e01b815290516000926001600160a01b0316916313f24daf916004808301926020929190829003018186803b15801561352d57600080fd5b505afa158015613541573d6000803e3d6000fd5b505050506040513d602081101561355757600080fd5b505190508015806135b757506135b581601060009054906101000a90046001600160a01b03166001600160a01b031663900cf0cf6040518163ffffffff1660e01b815260040160206040518083038186803b1580156116e357600080fd5b155b613608576040805162461bcd60e51b815260206004820152601e60248201527f4d7573742063616c6c20617420612077697468647261772065706f63682e0000604482015290519081900360640190fd5b80158061368d5750601060009054906101000a90046001600160a01b03166001600160a01b031663c5967c266040518163ffffffff1660e01b815260040160206040518083038186803b15801561365e57600080fd5b505afa158015613672573d6000803e3d6000fd5b505050506040513d602081101561368857600080fd5b505142115b806136eb57506107086136e842601060009054906101000a90046001600160a01b03166001600160a01b031663c5967c266040518163ffffffff1660e01b815260040160206040518083038186803b158015610b1057600080fd5b11155b6137265760405162461bcd60e51b81526004018080602001828103825260348152602001806153b26034913960400191505060405180910390fd5b8015806137ae5750601060009054906101000a90046001600160a01b03166001600160a01b031663900cf0cf6040518163ffffffff1660e01b815260040160206040518083038186803b15801561377c57600080fd5b505afa158015613790573d6000803e3d6000fd5b505050506040513d60208110156137a657600080fd5b505160185414155b6137f1576040805162461bcd60e51b815260206004820152600f60248201526e20b63932b0b23c9031b0b63632b21760891b604482015290519081900360640190fd5b600f5460408051632587701560e11b815230600482015290516000926001600160a01b031691634b0ee02a916024808301926020929190829003018186803b15801561383c57600080fd5b505afa158015613850573d6000803e3d6000fd5b505050506040513d602081101561386657600080fd5b5051601654909150156138855761387f306016546149e8565b60006016555b6015546138f957601060009054906101000a90046001600160a01b03166001600160a01b031663b88a802f6040518163ffffffff1660e01b8152600401600060405180830381600087803b1580156138dc57600080fd5b505af11580156138f0573d6000803e3d6000fd5b50505050613cd1565b600e54604080516370a0823160e01b815230600482015290516000926001600160a01b0316916370a08231916024808301926020929190829003018186803b15801561394457600080fd5b505afa158015613958573d6000803e3d6000fd5b505050506040513d602081101561396e57600080fd5b5051601580546000909155601454919250908111156139a157601454613995908290612e50565b600060145590506139b5565b6014546139ae9082612e50565b6014555060005b8015613c655760105460408051632e1a7d4d60e01b81526004810184905290516001600160a01b0390921691632e1a7d4d9160248082019260009290919082900301818387803b158015613a0857600080fd5b505af1158015613a1c573d6000803e3d6000fd5b5050601754613a2e9250905082612f6d565b601755600e54604080516370a0823160e01b815230600482015290516000926001600160a01b0316916370a08231916024808301926020929190829003018186803b158015613a7c57600080fd5b505afa158015613a90573d6000803e3d6000fd5b505050506040513d6020811015613aa657600080fd5b505190506000613ab68285612e50565b90506000613ac48483612e50565b9050871580613bd25750600081118015613bd25750600e5460115460408051632364d3dd60e21b8152905184936001600160a01b039081169363dd62ed3e93911691638d934f7491600480820192602092909190829003018186803b158015613b2c57600080fd5b505afa158015613b40573d6000803e3d6000fd5b505050506040513d6020811015613b5657600080fd5b5051604080516001600160e01b031960e085901b1681526001600160a01b039092166004830152306024830152516044808301926020929190829003018186803b158015613ba357600080fd5b505afa158015613bb7573d6000803e3d6000fd5b505050506040513d6020811015613bcd57600080fd5b505110155b15613c5d5760115460408051632364d3dd60e21b81529051613c5d926001600160a01b031691638d934f74916004808301926020929190829003018186803b158015613c1d57600080fd5b505afa158015613c31573d6000803e3d6000fd5b505050506040513d6020811015613c4757600080fd5b5051600e546001600160a01b031690308461463e565b505050613cce565b601060009054906101000a90046001600160a01b03166001600160a01b031663b88a802f6040518163ffffffff1660e01b8152600401600060405180830381600087803b158015613cb557600080fd5b505af1158015613cc9573d6000803e3d6000fd5b505050505b50505b600f546040805163010158bb60e51b81523060048201529051600092613d9a926001600160a01b039091169163202b176091602480820192602092909190829003018186803b158015613d2357600080fd5b505afa158015613d37573d6000803e3d6000fd5b505050506040513d6020811015613d4d57600080fd5b5051600f5460408051635a46d3b560e01b815230600482015290516001600160a01b0390921691635a46d3b591602480820192602092909190829003018186803b158015610b1057600080fd5b90508015613e0e57600f546040805163579587b360e11b81523060048201526024810184905290516001600160a01b039092169163af2b0f669160448082019260009290919082900301818387803b158015613df557600080fd5b505af1158015613e09573d6000803e3d6000fd5b505050505b600f5460408051632587701560e11b815230600482015290516000926001600160a01b031691634b0ee02a916024808301926020929190829003018186803b158015613e5957600080fd5b505afa158015613e6d573d6000803e3d6000fd5b505050506040513d6020811015613e8357600080fd5b505190506000613e938285612e50565b90506000613e9f612d9d565b6040015190506000613eaf6109a4565b905060008115613ede57613ed9613ed2836108da87670de0b6b3a7640000612ead565b8490612f6d565b613ee0565b825b905081613fdd57600f5460115460408051632364d3dd60e21b815290516001600160a01b039384169363a9059cbb931691638d934f74916004808301926020929190829003018186803b158015613f3657600080fd5b505afa158015613f4a573d6000803e3d6000fd5b505050506040513d6020811015613f6057600080fd5b5051604080516001600160e01b031960e085901b1681526001600160a01b039092166004830152602482018890525160448083019260209291908290030181600087803b158015613fb057600080fd5b505af1158015613fc4573d6000803e3d6000fd5b505050506040513d6020811015613fda57600080fd5b50505b613fe561517e565b50604080516060810182524381526020808201878152828401858152601c805460018101825560009190915284517f0e4562a10381dec21b205ed72637e6b1b523bdd0e4d4d50af5cd23dd4500a21160039092029182015591517f0e4562a10381dec21b205ed72637e6b1b523bdd0e4d4d50af5cd23dd4500a212830155517f0e4562a10381dec21b205ed72637e6b1b523bdd0e4d4d50af5cd23dd4500a21390910155601054835163900cf0cf60e01b8152935192936001600160a01b039091169263900cf0cf92600480840193919291829003018186803b1580156140cb57600080fd5b505afa1580156140df573d6000803e3d6000fd5b505050506040513d60208110156140f557600080fd5b5051601855505043601a555050505050505050565b6000806000841161415b576040805162461bcd60e51b815260206004820152601660248201527504552433230536e617073686f743a20696420697320360541b604482015290519081900360640190fd5b6141656009614ae4565b8411156141b9576040805162461bcd60e51b815260206004820152601d60248201527f4552433230536e617073686f743a206e6f6e6578697374656e74206964000000604482015290519081900360640190fd5b60006141c58486614ae8565b84549091508114156141de576000809250925050614200565b60018460010182815481106141ef57fe5b906000526020600020015492509250505b9250929050565b336000908152600d602052604090206004015480156143cb57336000818152600d6020526040812060040155600f5461424c916001600160a01b03909116908361478e565b600080601060009054906101000a90046001600160a01b03166001600160a01b0316638278b53b6040518163ffffffff1660e01b815260040160206040518083038186803b15801561429d57600080fd5b505afa1580156142b1573d6000803e3d6000fd5b505050506040513d60208110156142c757600080fd5b50519050606481111561430b5760405162461bcd60e51b815260040180806020018281038252602d81526020018061542f602d913960400191505060405180910390fd5b61431a60646108da8584612ead565b9150811561438e57600f546040805163282d3fdf60e01b81523360048201526024810185905290516001600160a01b039092169163282d3fdf9160448082019260009290919082900301818387803b15801561437557600080fd5b505af1158015614389573d6000803e3d6000fd5b505050505b6040805184815260208101849052815133927fd6f2c8500df5b44f11e9e48b91ff9f1b9d81bc496d55570c2b1b75bf65243f51928290030190a250505b50565b6000808211614424576040805162461bcd60e51b815260206004820152601860248201527f536166654d6174683a206d6f64756c6f206279207a65726f0000000000000000604482015290519081900360640190fd5b81838161442d57fe5b069392505050565b336000908152600d60205260409020805442101561448a576040805162461bcd60e51b815260206004820152600d60248201526c5374696c6c206c6f636b65642160981b604482015290519081900360640190fd5b60008160050154116144dd576040805162461bcd60e51b81526020600482015260176024820152762737903d32b9379030b6b7bab73a1030b63637bbb2b21760491b604482015290519081900360640190fd5b601060009054906101000a90046001600160a01b03166001600160a01b03166313f24daf6040518163ffffffff1660e01b815260040160206040518083038186803b15801561452b57600080fd5b505afa15801561453f573d6000803e3d6000fd5b505050506040513d602081101561455557600080fd5b5051158061456857508060080154601a54115b6145a35760405162461bcd60e51b81526004018080602001828103825260338152602001806154e26033913960400191505060405180910390fd5b60068101546017546145b59082612e50565b6017556005820180546000918290556006840191909155600e546145e3906001600160a01b0316338461478e565b6040805182815260208101849052815133927ff279e6a1f5e320cca91135676d9cb6e44ca8a08c0b88342bcdb1144f6511b568928290030190a2505050565b6001600160a01b039091166000908152600d6020526040902055565b604080516001600160a01b0380861660248301528416604482015260648082018490528251808303909101815260849091019091526020810180516001600160e01b03166323b872dd60e01b1790526146989085906147dc565b50505050565b6001600160a01b0382166146f9576040805162461bcd60e51b815260206004820152601f60248201527f45524332303a206d696e7420746f20746865207a65726f206164647265737300604482015290519081900360640190fd5b61470560008383614b89565b6002546147129082612f6d565b6002556001600160a01b0382166000908152602081905260409020546147389082612f6d565b6001600160a01b0383166000818152602081815260408083209490945583518581529351929391927fddf252ad1be2c89b69c2b068fc378daa952ba7f163c4a11628f55a4df523b3ef9281900390910190a35050565b604080516001600160a01b038416602482015260448082018490528251808303909101815260649091019091526020810180516001600160e01b031663a9059cbb60e01b17905261320c9084905b6060614831826040518060400160405280602081526020017f5361666545524332303a206c6f772d6c6576656c2063616c6c206661696c6564815250856001600160a01b0316614e139092919063ffffffff16565b80519091501561320c5780806020019051602081101561485057600080fd5b505161320c5760405162461bcd60e51b815260040180806020018281038252602a81526020018061545c602a913960400191505060405180910390fd5b6001600160a01b0383166148d25760405162461bcd60e51b81526004018080602001828103825260258152602001806153e66025913960400191505060405180910390fd5b6001600160a01b0382166149175760405162461bcd60e51b81526004018080602001828103825260238152602001806151a06023913960400191505060405180910390fd5b614922838383614b89565b61495f8160405180606001604052806026815260200161524f602691396001600160a01b0386166000908152602081905260409020549190613451565b6001600160a01b03808516600090815260208190526040808220939093559084168152205461498e9082612f6d565b6001600160a01b038084166000818152602081815260409182902094909455805185815290519193928716927fddf252ad1be2c89b69c2b068fc378daa952ba7f163c4a11628f55a4df523b3ef92918290030190a3505050565b6001600160a01b038216614a2d5760405162461bcd60e51b81526004018080602001828103825260218152602001806153916021913960400191505060405180910390fd5b614a3982600083614b89565b614a76816040518060600160405280602281526020016151c3602291396001600160a01b0385166000908152602081905260409020549190613451565b6001600160a01b038316600090815260208190526040902055600254614a9c9082612e50565b6002556040805182815290516000916001600160a01b038516917fddf252ad1be2c89b69c2b068fc378daa952ba7f163c4a11628f55a4df523b3ef9181900360200190a35050565b5490565b8154600090614af95750600061099e565b82546000905b80821015614b48576000614b138383614e2a565b905084868281548110614b2257fe5b90600052602060002001541115614b3b57809150614b42565b8060010192505b50614aff565b600082118015614b70575083856001840381548110614b6357fe5b9060005260206000200154145b15614b81575060001901905061099e565b50905061099e565b826001600160a01b03811615614cc557614ba1615129565b506001600160a01b038082166000908152600d6020908152604091829020825161012081018452815481526001820154928101929092526002810154909316918101919091526003820154606082015260048201546080820152600582015460a0820152600682015460c0820152600782015460e0820152600890910154610100820152614c2e8261086d565b6080820152614c3b611020565b606082019081526001600160a01b038381166000908152600d602090815260409182902085518155908501516001820155908401516002820180546001600160a01b0319169190931617909155905160038201556080820151600482015560a0820151600582015560c0820151600682015560e08201516007820155610100909101516008909101555b826001600160a01b03811615614e0157614cdd615129565b506001600160a01b038082166000908152600d6020908152604091829020825161012081018452815481526001820154928101929092526002810154909316918101919091526003820154606082015260048201546080820152600582015460a0820152600682015460c0820152600782015460e0820152600890910154610100820152614d6a8261086d565b6080820152614d77611020565b606082019081526001600160a01b038381166000908152600d602090815260409182902085518155908501516001820155908401516002820180546001600160a01b0319169190931617909155905160038201556080820151600482015560a0820151600582015560c0820151600682015560e08201516007820155610100909101516008909101555b614e0c858585614e4f565b5050505050565b6060614e228484600085614ea7565b949350505050565b60006002808306600285060181614e3d57fe5b04600283046002850401019392505050565b614e5a83838361320c565b6001600160a01b038316614e7e57614e7182615003565b614e7961502d565b61320c565b6001600160a01b038216614e9557614e7183615003565b614e9e83615003565b61320c82615003565b606082471015614ee85760405162461bcd60e51b815260040180806020018281038252602681526020018061529a6026913960400191505060405180910390fd5b614ef18561503c565b614f42576040805162461bcd60e51b815260206004820152601d60248201527f416464726573733a2063616c6c20746f206e6f6e2d636f6e7472616374000000604482015290519081900360640190fd5b60006060866001600160a01b031685876040518082805190602001908083835b60208310614f815780518252601f199092019160209182019101614f62565b6001836020036101000a03801982511681845116808217855250505050505090500191505060006040518083038185875af1925050503d8060008114614fe3576040519150601f19603f3d011682016040523d82523d6000602084013e614fe8565b606091505b5091509150614ff8828286615042565b979650505050505050565b6001600160a01b03811660009081526006602052604090206143cb9061502883611439565b6150a8565b61503a60076150286109a4565b565b3b151590565b60608315615051575081610f81565b8251156150615782518084602001fd5b60405162461bcd60e51b81526020600482018181528451602484015284518593919283926044019190850190808383600083156134a557818101518382015260200161348d565b60006150b46009614ae4565b9050806150c0846150f4565b101561320c578254600180820185556000858152602080822090930193909355938401805494850181558252902090910155565b8054600090615105575060006108eb565b81548290600019810190811061511757fe5b906000526020600020015490506108eb565b604051806101200160405280600081526020016000815260200160006001600160a01b031681526020016000815260200160008152602001600081526020016000815260200160008152602001600081525090565b6040518060600160405280600081526020016000815260200160008152509056fe45524332303a207472616e7366657220746f20746865207a65726f206164647265737345524332303a206275726e20616d6f756e7420657863656564732062616c616e63654f776e61626c653a206e6577206f776e657220697320746865207a65726f206164647265737345524332303a20617070726f766520746f20746865207a65726f206164647265737343616e6e6f74206272696e6720646f776e207072696365206f66204d41535445522e45524332303a207472616e7366657220616d6f756e7420657863656564732062616c616e636543616e6e6f74207374616b65207769746820612077697468647261772070656e64696e672e416464726573733a20696e73756666696369656e742062616c616e636520666f722063616c6c43616e6e6f7420776974686472617720776974682061207374616b652070656e64696e672e43616c6c207265717565737453656c6c546f5468656f727920696e73746561642e526563656976657220646964206e6f7420617070726f7665207472616e736665722e536166654d6174683a206d756c7469706c69636174696f6e206f766572666c6f7745524332303a207472616e7366657220616d6f756e74206578636565647320616c6c6f77616e63654f776e61626c653a2063616c6c6572206973206e6f7420746865206f776e657245524332303a206275726e2066726f6d20746865207a65726f20616464726573734d7573742062652063616c6c6564206174206d6f7374203330206d696e75746573206265666f72652065706f636820656e64732e45524332303a207472616e736665722066726f6d20746865207a65726f206164647265737345524332303a20617070726f76652066726f6d20746865207a65726f2061646472657373496e76616c6964206c6f636b2070657263656e746167652c20636865636b207468697320636f6e74726163742e5361666545524332303a204552433230206f7065726174696f6e20646964206e6f742073756363656564436f6e747261637447756172643a206f6e6520626c6f636b2c206f6e652066756e6374696f6e5361666545524332303a20617070726f76652066726f6d206e6f6e2d7a65726f20746f206e6f6e2d7a65726f20616c6c6f77616e6365496e69746961746f7220506172742031206e6f74207965742063616c6c6564206f722063616c6c656420746f6f20736f6f6e2e45524332303a2064656372656173656420616c6c6f77616e63652062656c6f77207a65726fa2646970667358221220c0cc47714ce4375f8edbfc505dd159da5cdd4c0ea117720a16e291d24749238964736f6c634300060c0033",
  "linkReferences": {},
  "deployedLinkReferences": {}
}