{
  "_format": "hh-sol-artifact-1",
  "contractName": "Master",
  "sourceName": "contracts/Master.sol",
  "abi": [
    {
      "inputs": [
        {
          "internalType": "contract IERC20Lockable",
          "name": "_theory",
          "type": "address"
        },
        {
          "internalType": "contract IERC20Lockable",
          "name": "_game",
          "type": "address"
        },
        {
          "internalType": "contract ITheoretics",
          "name": "_theoretics",
          "type": "address"
        },
        {
          "internalType": "address",
          "name": "_communityFund",
          "type": "address"
        }
      ],
      "stateMutability": "nonpayable",
      "type": "constructor"
    },
    {
      "anonymous": false,
      "inputs": [
        {
          "indexed": true,
          "internalType": "address",
          "name": "owner",
          "type": "address"
        },
        {
          "indexed": true,
          "internalType": "address",
          "name": "spender",
          "type": "address"
        },
        {
          "indexed": false,
          "internalType": "uint256",
          "name": "value",
          "type": "uint256"
        }
      ],
      "name": "Approval",
      "type": "event"
    },
    {
      "anonymous": false,
      "inputs": [
        {
          "indexed": true,
          "internalType": "address",
          "name": "user",
          "type": "address"
        },
        {
          "indexed": false,
          "internalType": "uint256",
          "name": "amountInTheory",
          "type": "uint256"
        },
        {
          "indexed": false,
          "internalType": "uint256",
          "name": "amountOutMaster",
          "type": "uint256"
        }
      ],
      "name": "Deposit",
      "type": "event"
    },
    {
      "anonymous": false,
      "inputs": [
        {
          "indexed": true,
          "internalType": "address",
          "name": "previousOwner",
          "type": "address"
        },
        {
          "indexed": true,
          "internalType": "address",
          "name": "newOwner",
          "type": "address"
        }
      ],
      "name": "OwnershipTransferred",
      "type": "event"
    },
    {
      "anonymous": false,
      "inputs": [
        {
          "indexed": true,
          "internalType": "address",
          "name": "user",
          "type": "address"
        },
        {
          "indexed": false,
          "internalType": "uint256",
          "name": "reward",
          "type": "uint256"
        },
        {
          "indexed": false,
          "internalType": "uint256",
          "name": "lockAmount",
          "type": "uint256"
        }
      ],
      "name": "RewardPaid",
      "type": "event"
    },
    {
      "anonymous": false,
      "inputs": [
        {
          "indexed": false,
          "internalType": "uint256",
          "name": "id",
          "type": "uint256"
        }
      ],
      "name": "Snapshot",
      "type": "event"
    },
    {
      "anonymous": false,
      "inputs": [
        {
          "indexed": true,
          "internalType": "address",
          "name": "from",
          "type": "address"
        },
        {
          "indexed": true,
          "internalType": "address",
          "name": "to",
          "type": "address"
        },
        {
          "indexed": false,
          "internalType": "uint256",
          "name": "value",
          "type": "uint256"
        }
      ],
      "name": "Transfer",
      "type": "event"
    },
    {
      "anonymous": false,
      "inputs": [
        {
          "indexed": true,
          "internalType": "address",
          "name": "user",
          "type": "address"
        },
        {
          "indexed": false,
          "internalType": "uint256",
          "name": "amountInMaster",
          "type": "uint256"
        },
        {
          "indexed": false,
          "internalType": "uint256",
          "name": "amountOutTheory",
          "type": "uint256"
        }
      ],
      "name": "Withdraw",
      "type": "event"
    },
    {
      "inputs": [
        {
          "internalType": "address",
          "name": "_toAdd",
          "type": "address"
        }
      ],
      "name": "addAuthorized",
      "outputs": [],
      "stateMutability": "nonpayable",
      "type": "function"
    },
    {
      "inputs": [
        {
          "internalType": "address",
          "name": "owner",
          "type": "address"
        },
        {
          "internalType": "address",
          "name": "spender",
          "type": "address"
        }
      ],
      "name": "allowance",
      "outputs": [
        {
          "internalType": "uint256",
          "name": "",
          "type": "uint256"
        }
      ],
      "stateMutability": "view",
      "type": "function"
    },
    {
      "inputs": [
        {
          "internalType": "address",
          "name": "spender",
          "type": "address"
        },
        {
          "internalType": "uint256",
          "name": "amount",
          "type": "uint256"
        }
      ],
      "name": "approve",
      "outputs": [
        {
          "internalType": "bool",
          "name": "",
          "type": "bool"
        }
      ],
      "stateMutability": "nonpayable",
      "type": "function"
    },
    {
      "inputs": [
        {
          "internalType": "address",
          "name": "",
          "type": "address"
        }
      ],
      "name": "authorized",
      "outputs": [
        {
          "internalType": "bool",
          "name": "",
          "type": "bool"
        }
      ],
      "stateMutability": "view",
      "type": "function"
    },
    {
      "inputs": [
        {
          "internalType": "address",
          "name": "account",
          "type": "address"
        }
      ],
      "name": "balanceOf",
      "outputs": [
        {
          "internalType": "uint256",
          "name": "",
          "type": "uint256"
        }
      ],
      "stateMutability": "view",
      "type": "function"
    },
    {
      "inputs": [
        {
          "internalType": "address",
          "name": "account",
          "type": "address"
        },
        {
          "internalType": "uint256",
          "name": "snapshotId",
          "type": "uint256"
        }
      ],
      "name": "balanceOfAt",
      "outputs": [
        {
          "internalType": "uint256",
          "name": "",
          "type": "uint256"
        }
      ],
      "stateMutability": "view",
      "type": "function"
    },
    {
      "inputs": [
        {
          "internalType": "uint256",
          "name": "amountInTheory",
          "type": "uint256"
        },
        {
          "internalType": "uint256",
          "name": "lockTime",
          "type": "uint256"
        }
      ],
      "name": "buyFromTheory",
      "outputs": [],
      "stateMutability": "nonpayable",
      "type": "function"
    },
    {
      "inputs": [],
      "name": "claimGame",
      "outputs": [],
      "stateMutability": "nonpayable",
      "type": "function"
    },
    {
      "inputs": [],
      "name": "communityFund",
      "outputs": [
        {
          "internalType": "address",
          "name": "",
          "type": "address"
        }
      ],
      "stateMutability": "view",
      "type": "function"
    },
    {
      "inputs": [],
      "name": "decimals",
      "outputs": [
        {
          "internalType": "uint8",
          "name": "",
          "type": "uint8"
        }
      ],
      "stateMutability": "view",
      "type": "function"
    },
    {
      "inputs": [
        {
          "internalType": "address",
          "name": "spender",
          "type": "address"
        },
        {
          "internalType": "uint256",
          "name": "subtractedValue",
          "type": "uint256"
        }
      ],
      "name": "decreaseAllowance",
      "outputs": [
        {
          "internalType": "bool",
          "name": "",
          "type": "bool"
        }
      ],
      "stateMutability": "nonpayable",
      "type": "function"
    },
    {
      "inputs": [],
      "name": "extraTheoryAdded",
      "outputs": [
        {
          "internalType": "uint256",
          "name": "",
          "type": "uint256"
        }
      ],
      "stateMutability": "view",
      "type": "function"
    },
    {
      "inputs": [],
      "name": "game",
      "outputs": [
        {
          "internalType": "contract IERC20Lockable",
          "name": "",
          "type": "address"
        }
      ],
      "stateMutability": "view",
      "type": "function"
    },
    {
      "inputs": [
        {
          "internalType": "address",
          "name": "spender",
          "type": "address"
        },
        {
          "internalType": "uint256",
          "name": "addedValue",
          "type": "uint256"
        }
      ],
      "name": "increaseAllowance",
      "outputs": [
        {
          "internalType": "bool",
          "name": "",
          "type": "bool"
        }
      ],
      "stateMutability": "nonpayable",
      "type": "function"
    },
    {
      "inputs": [
        {
          "internalType": "address",
          "name": "from",
          "type": "address"
        },
        {
          "internalType": "address",
          "name": "to",
          "type": "address"
        },
        {
          "internalType": "uint256",
          "name": "amount",
          "type": "uint256"
        },
        {
          "internalType": "uint256",
          "name": "lockTo",
          "type": "uint256"
        },
        {
          "internalType": "bool",
          "name": "lockAfter",
          "type": "bool"
        }
      ],
      "name": "lockAndTransferFrom",
      "outputs": [
        {
          "internalType": "bool",
          "name": "",
          "type": "bool"
        }
      ],
      "stateMutability": "nonpayable",
      "type": "function"
    },
    {
      "inputs": [
        {
          "internalType": "uint256",
          "name": "_share",
          "type": "uint256"
        }
      ],
      "name": "masterToTheory",
      "outputs": [
        {
          "internalType": "uint256",
          "name": "",
          "type": "uint256"
        }
      ],
      "stateMutability": "view",
      "type": "function"
    },
    {
      "inputs": [],
      "name": "minLockTime",
      "outputs": [
        {
          "internalType": "uint256",
          "name": "",
          "type": "uint256"
        }
      ],
      "stateMutability": "view",
      "type": "function"
    },
    {
      "inputs": [],
      "name": "name",
      "outputs": [
        {
          "internalType": "string",
          "name": "",
          "type": "string"
        }
      ],
      "stateMutability": "view",
      "type": "function"
    },
    {
      "inputs": [],
      "name": "owner",
      "outputs": [
        {
          "internalType": "address",
          "name": "",
          "type": "address"
        }
      ],
      "stateMutability": "view",
      "type": "function"
    },
    {
      "inputs": [
        {
          "internalType": "address",
          "name": "_toRemove",
          "type": "address"
        }
      ],
      "name": "removeAuthorized",
      "outputs": [],
      "stateMutability": "nonpayable",
      "type": "function"
    },
    {
      "inputs": [],
      "name": "renounceOwnership",
      "outputs": [],
      "stateMutability": "nonpayable",
      "type": "function"
    },
    {
      "inputs": [
        {
          "internalType": "uint256",
          "name": "amountInMaster",
          "type": "uint256"
        },
        {
          "internalType": "bool",
          "name": "emergency",
          "type": "bool"
        }
      ],
      "name": "sellToTheory",
      "outputs": [],
      "stateMutability": "nonpayable",
      "type": "function"
    },
    {
      "inputs": [
        {
          "internalType": "uint256",
          "name": "amount",
          "type": "uint256"
        }
      ],
      "name": "stakeExternalTheory",
      "outputs": [],
      "stateMutability": "nonpayable",
      "type": "function"
    },
    {
      "inputs": [],
      "name": "symbol",
      "outputs": [
        {
          "internalType": "string",
          "name": "",
          "type": "string"
        }
      ],
      "stateMutability": "view",
      "type": "function"
    },
    {
      "inputs": [],
      "name": "theoretics",
      "outputs": [
        {
          "internalType": "contract ITheoretics",
          "name": "",
          "type": "address"
        }
      ],
      "stateMutability": "view",
      "type": "function"
    },
    {
      "inputs": [],
      "name": "theory",
      "outputs": [
        {
          "internalType": "contract IERC20Lockable",
          "name": "",
          "type": "address"
        }
      ],
      "stateMutability": "view",
      "type": "function"
    },
    {
      "inputs": [
        {
          "internalType": "uint256",
          "name": "_amount",
          "type": "uint256"
        }
      ],
      "name": "theoryToMaster",
      "outputs": [
        {
          "internalType": "uint256",
          "name": "",
          "type": "uint256"
        }
      ],
      "stateMutability": "view",
      "type": "function"
    },
    {
      "inputs": [],
      "name": "totalGameClaimed",
      "outputs": [
        {
          "internalType": "uint256",
          "name": "",
          "type": "uint256"
        }
      ],
      "stateMutability": "view",
      "type": "function"
    },
    {
      "inputs": [],
      "name": "totalSupply",
      "outputs": [
        {
          "internalType": "uint256",
          "name": "",
          "type": "uint256"
        }
      ],
      "stateMutability": "view",
      "type": "function"
    },
    {
      "inputs": [
        {
          "internalType": "uint256",
          "name": "snapshotId",
          "type": "uint256"
        }
      ],
      "name": "totalSupplyAt",
      "outputs": [
        {
          "internalType": "uint256",
          "name": "",
          "type": "uint256"
        }
      ],
      "stateMutability": "view",
      "type": "function"
    },
    {
      "inputs": [
        {
          "internalType": "address",
          "name": "recipient",
          "type": "address"
        },
        {
          "internalType": "uint256",
          "name": "amount",
          "type": "uint256"
        }
      ],
      "name": "transfer",
      "outputs": [
        {
          "internalType": "bool",
          "name": "",
          "type": "bool"
        }
      ],
      "stateMutability": "nonpayable",
      "type": "function"
    },
    {
      "inputs": [
        {
          "internalType": "address",
          "name": "sender",
          "type": "address"
        },
        {
          "internalType": "address",
          "name": "recipient",
          "type": "address"
        },
        {
          "internalType": "uint256",
          "name": "amount",
          "type": "uint256"
        }
      ],
      "name": "transferFrom",
      "outputs": [
        {
          "internalType": "bool",
          "name": "",
          "type": "bool"
        }
      ],
      "stateMutability": "nonpayable",
      "type": "function"
    },
    {
      "inputs": [
        {
          "internalType": "contract IERC20",
          "name": "_token",
          "type": "address"
        },
        {
          "internalType": "address",
          "name": "to",
          "type": "address"
        },
        {
          "internalType": "uint256",
          "name": "amount",
          "type": "uint256"
        }
      ],
      "name": "transferOtherToken",
      "outputs": [],
      "stateMutability": "nonpayable",
      "type": "function"
    },
    {
      "inputs": [
        {
          "internalType": "address",
          "name": "newOwner",
          "type": "address"
        }
      ],
      "name": "transferOwnership",
      "outputs": [],
      "stateMutability": "nonpayable",
      "type": "function"
    },
    {
      "inputs": [
        {
          "internalType": "address",
          "name": "",
          "type": "address"
        }
      ],
      "name": "userInfo",
      "outputs": [
        {
          "internalType": "uint256",
          "name": "lockToTime",
          "type": "uint256"
        },
        {
          "internalType": "uint256",
          "name": "chosenLockTime",
          "type": "uint256"
        },
        {
          "internalType": "address",
          "name": "approveTransferFrom",
          "type": "address"
        },
        {
          "internalType": "uint256",
          "name": "lastTotalGameClaimed",
          "type": "uint256"
        }
      ],
      "stateMutability": "view",
      "type": "function"
    },
    {
      "inputs": [
        {
          "internalType": "uint256",
          "name": "amount",
          "type": "uint256"
        }
      ],
      "name": "withdrawExternalTheory",
      "outputs": [],
      "stateMutability": "nonpayable",
      "type": "function"
    }
  ],
  "bytecode": "0x60806040523480156200001157600080fd5b506040516200350c3803806200350c833981810160405260808110156200003757600080fd5b50805160208083015160408085015160609095015181518083018352600c81526b26b0b9ba32b9102a37b5b2b760a11b8186019081528351808501909452600684526526a0a9aa22a960d11b9584019590955280519596939593949193909291620000a6916003919062000177565b508051620000bc90600490602084019062000177565b50506005805460ff19166012179055506000620000d862000173565b600a80546001600160a01b0319166001600160a01b038316908117909155604051919250906000907f8be0079c531659141344cd1fd0a4f28419497f9722a3daafe3b4186f6b6457e0908290a350600f80546001600160a01b03199081166001600160a01b039687161790915560108054821694861694909417909355601280549093169316929092179055506301e1338060135562000213565b3390565b828054600181600116156101000203166002900490600052602060002090601f016020900481019282601f10620001ba57805160ff1916838001178555620001ea565b82800160010185558215620001ea579182015b82811115620001ea578251825591602001919060010190620001cd565b50620001f8929150620001fc565b5090565b5b80821115620001f85760008155600101620001fd565b6132e980620002236000396000f3fe608060405234801561001057600080fd5b506004361061021b5760003560e01c806395d89b4111610125578063ad45e4ae116100ad578063c4e693291161007c578063c4e693291461064a578063c7b728de1461066d578063cf1c316a1461068a578063dd62ed3e146106b0578063f2fde38b146106de5761021b565b8063ad45e4ae146105f7578063b9181611146105ff578063bceae6c414610625578063c3fe3e28146106425761021b565b8063a5bd5f4d116100f4578063a5bd5f4d1461055a578063a60ff76614610562578063a77a5d131461056a578063a9059cbb146105ae578063ab9fb438146105da5761021b565b806395d89b41146104d3578063981b24d0146104db5780639df1e2b0146104f8578063a457c2d71461052e5761021b565b80633c32a450116101a85780635936e8bd116101775780635936e8bd1461047057806370a0823114610478578063715018a61461049e5780638052ab1e146104a65780638da5cb5b146104cb5761021b565b80633c32a4501461040e578063485d7d94146104165780634ee2cd7e1461043c578063532c26bb146104685761021b565b806318bb939a116101ef57806318bb939a1461031b5780631959a0021461033a57806323b872dd1461038e578063313ce567146103c457806339509351146103e25761021b565b8062f380f41461022057806306fdde0314610244578063095ea7b3146102c157806318160ddd14610301575b600080fd5b610228610704565b604080516001600160a01b039092168252519081900360200190f35b61024c610713565b6040805160208082528351818301528351919283929083019185019080838360005b8381101561028657818101518382015260200161026e565b50505050905090810190601f1680156102b35780820380516001836020036101000a031916815260200191505b509250505060405180910390f35b6102ed600480360360408110156102d757600080fd5b506001600160a01b0381351690602001356107a9565b604080519115158252519081900360200190f35b6103096107c7565b60408051918252519081900360200190f35b6103386004803603602081101561033157600080fd5b50356107cd565b005b6103606004803603602081101561035057600080fd5b50356001600160a01b0316610981565b6040805194855260208501939093526001600160a01b03909116838301526060830152519081900360800190f35b6102ed600480360360608110156103a457600080fd5b506001600160a01b038135811691602081013590911690604001356109b4565b6103cc610a3c565b6040805160ff9092168252519081900360200190f35b6102ed600480360360408110156103f857600080fd5b506001600160a01b038135169060200135610a45565b610228610a93565b6103386004803603602081101561042c57600080fd5b50356001600160a01b0316610aa2565b6103096004803603604081101561045257600080fd5b506001600160a01b038135169060200135610b3b565b610309610b84565b610338610b8a565b6103096004803603602081101561048e57600080fd5b50356001600160a01b0316610c59565b610338610c78565b610338600480360360408110156104bc57600080fd5b50803590602001351515610d24565b610228611092565b61024c6110a1565b610309600480360360208110156104f157600080fd5b5035611102565b6103386004803603606081101561050e57600080fd5b506001600160a01b03813581169160208101359091169060400135611132565b6102ed6004803603604081101561054457600080fd5b506001600160a01b038135169060200135611287565b6103096112ef565b6103096112f5565b6102ed600480360360a081101561058057600080fd5b506001600160a01b0381358116916020810135909116906040810135906060810135906080013515156112fb565b6102ed600480360360408110156105c457600080fd5b506001600160a01b038135169060200135611492565b610309600480360360208110156105f057600080fd5b50356114a6565b610228611560565b6102ed6004803603602081101561061557600080fd5b50356001600160a01b031661156f565b6103386004803603602081101561063b57600080fd5b5035611584565b610228611873565b6103386004803603604081101561066057600080fd5b5080359060200135611882565b6103096004803603602081101561068357600080fd5b5035611ab4565b610338600480360360208110156106a057600080fd5b50356001600160a01b0316611b68565b610309600480360360408110156106c657600080fd5b506001600160a01b0381358116916020013516611bee565b610338600480360360208110156106f457600080fd5b50356001600160a01b0316611c19565b6012546001600160a01b031681565b60038054604080516020601f600260001961010060018816150201909516949094049384018190048102820181019092528281526060939092909183018282801561079f5780601f106107745761010080835404028352916020019161079f565b820191906000526020600020905b81548152906001019060200180831161078257829003601f168201915b5050505050905090565b60006107bd6107b6611d1c565b8484611d20565b5060015b92915050565b60025490565b336000908152600b602052604090205460ff16806107fa5750336107ef611092565b6001600160a01b0316145b610846576040805162461bcd60e51b815260206004820152601860248201527718d85b1b195c881a5cc81b9bdd08185d5d1a1bdc9a5e995960421b604482015290519081900360640190fd5b61084e611e0c565b1561088a5760405162461bcd60e51b81526004018080602001828103825260268152602001806132696026913960400191505060405180910390fd5b610892611e2d565b156108ce5760405162461bcd60e51b81526004018080602001828103825260268152602001806132696026913960400191505060405180910390fd5b6014546108db9082611e4e565b6014556011546040805163534a7e1d60e11b81526004810184905290516001600160a01b039092169163a694fc3a9160248082019260009290919082900301818387803b15801561092b57600080fd5b505af115801561093f573d6000803e3d6000fd5b5050436000908152600c602090815260408083203284529091528082208054600160ff1991821681179092553384529190922080549091169091179055505050565b600d602052600090815260409020805460018201546002830154600390930154919290916001600160a01b039091169084565b60006109c1848484611ea8565b610a31846109cd611d1c565b610a2c8560405180606001604052806028815260200161315a602891396001600160a01b038a16600090815260016020526040812090610a0b611d1c565b6001600160a01b031681526020810191909152604001600020549190611fcc565b611d20565b5060015b9392505050565b60055460ff1690565b60006107bd610a52611d1c565b84610a2c8560016000610a63611d1c565b6001600160a01b03908116825260208083019390935260409182016000908120918c168152925290205490611e4e565b600f546001600160a01b031681565b610aaa611d1c565b6001600160a01b0316610abb611092565b6001600160a01b031614610b04576040805162461bcd60e51b81526020600482018190526024820152600080516020613182833981519152604482015290519081900360640190fd5b6001600160a01b038116331415610b1a57600080fd5b6001600160a01b03166000908152600b60205260409020805460ff19169055565b6001600160a01b038216600090815260066020526040812081908190610b62908590612063565b9150915081610b7957610b7485610c59565b610b7b565b805b95945050505050565b60145481565b610b92611e0c565b15610bce5760405162461bcd60e51b81526004018080602001828103825260268152602001806132696026913960400191505060405180910390fd5b610bd6611e2d565b15610c125760405162461bcd60e51b81526004018080602001828103825260268152602001806132696026913960400191505060405180910390fd5b610c1c6000612160565b436000908152600c602090815260408083203284529091528082208054600160ff1991821681179092553384529190922080549091169091179055565b6001600160a01b0381166000908152602081905260409020545b919050565b610c80611d1c565b6001600160a01b0316610c91611092565b6001600160a01b031614610cda576040805162461bcd60e51b81526020600482018190526024820152600080516020613182833981519152604482015290519081900360640190fd5b600a546040516000916001600160a01b0316907f8be0079c531659141344cd1fd0a4f28419497f9722a3daafe3b4186f6b6457e0908390a3600a80546001600160a01b0319169055565b610d2c611e0c565b15610d685760405162461bcd60e51b81526004018080602001828103825260268152602001806132696026913960400191505060405180910390fd5b610d70611e2d565b15610dac5760405162461bcd60e51b81526004018080602001828103825260268152602001806132696026913960400191505060405180910390fd5b336000908152600d6020526040902054421015610e00576040805162461bcd60e51b815260206004820152600d60248201526c5374696c6c206c6f636b65642160981b604482015290519081900360640190fd5b60008211610e4f576040805162461bcd60e51b81526020600482015260176024820152762737903d32b9379030b6b7bab73a1030b63637bbb2b21760491b604482015290519081900360640190fd5b6000610e5a83611ab4565b9050610e6633846126a4565b600f54604080516370a0823160e01b815230600482015290516000926001600160a01b0316916370a08231916024808301926020929190829003018186803b158015610eb157600080fd5b505afa158015610ec5573d6000803e3d6000fd5b505050506040513d6020811015610edb57600080fd5b50519050610ee882612160565b600f54604080516370a0823160e01b815230600482015290516000926001600160a01b0316916370a08231916024808301926020929190829003018186803b158015610f3357600080fd5b505afa158015610f47573d6000803e3d6000fd5b505050506040513d6020811015610f5d57600080fd5b505190506000610f6d82846127a0565b905084610ffd576000610f8085836127a0565b90508015610fa657601254600f54610fa6916001600160a01b03918216911630846127fd565b600f54610fbd906001600160a01b0316338761285d565b6040805188815260208101879052815133927ff279e6a1f5e320cca91135676d9cb6e44ca8a08c0b88342bcdb1144f6511b568928290030190a25061104f565b600f54611014906001600160a01b0316338361285d565b6040805187815260208101839052815133927ff279e6a1f5e320cca91135676d9cb6e44ca8a08c0b88342bcdb1144f6511b568928290030190a25b5050436000908152600c602090815260408083203284529091528082208054600160ff199182168117909255338452919092208054909116909117905550505050565b600a546001600160a01b031690565b60048054604080516020601f600260001961010060018816150201909516949094049384018190048102820181019092528281526060939092909183018282801561079f5780601f106107745761010080835404028352916020019161079f565b6000806000611112846007612063565b9150915081611128576111236107c7565b61112a565b805b949350505050565b336000908152600b602052604090205460ff168061115f575033611154611092565b6001600160a01b0316145b6111ab576040805162461bcd60e51b815260206004820152601860248201527718d85b1b195c881a5cc81b9bdd08185d5d1a1bdc9a5e995960421b604482015290519081900360640190fd5b6111b3611e0c565b156111ef5760405162461bcd60e51b81526004018080602001828103825260268152602001806132696026913960400191505060405180910390fd5b6111f7611e2d565b156112335760405162461bcd60e51b81526004018080602001828103825260268152602001806132696026913960400191505060405180910390fd5b6112476001600160a01b038416838361285d565b5050436000908152600c602090815260408083203284529091528082208054600160ff199182168117909255338452919092208054909116909117905550565b60006107bd611294611d1c565b84610a2c8560405180606001604052806025815260200161328f60259139600160006112be611d1c565b6001600160a01b03908116825260208083019390935260409182016000908120918d16815292529020549190611fcc565b600e5481565b60135481565b336000908152600b602052604081205460ff168061132857503361131d611092565b6001600160a01b0316145b611374576040805162461bcd60e51b815260206004820152601860248201527718d85b1b195c881a5cc81b9bdd08185d5d1a1bdc9a5e995960421b604482015290519081900360640190fd5b61137c611e0c565b156113b85760405162461bcd60e51b81526004018080602001828103825260268152602001806132696026913960400191505060405180910390fd5b6113c0611e2d565b156113fc5760405162461bcd60e51b81526004018080602001828103825260268152602001806132696026913960400191505060405180910390fd5b60008261140d5761140d86856128af565b6001600160a01b03871633141561142f576114288686611492565b905061143d565b61143a8787876109b4565b90505b821561144d5761144d86856128af565b436000908152600c602090815260408083203284529091528082208054600160ff19918216811790925533845291909220805490911690911790559695505050505050565b60006107bd61149f611d1c565b8484611ea8565b601154604080516370a0823160e01b8152306004820152905160009283926001600160a01b03909116916370a0823191602480820192602092909190829003018186803b1580156114f657600080fd5b505afa15801561150a573d6000803e3d6000fd5b505050506040513d602081101561152057600080fd5b50519050600061152e6107c7565b905080158061153b575081155b1561154a578392505050610c73565b6000610b7b8361155a87856128cb565b90612924565b6011546001600160a01b031681565b600b6020526000908152604090205460ff1681565b336000908152600b602052604090205460ff16806115b15750336115a6611092565b6001600160a01b0316145b6115fd576040805162461bcd60e51b815260206004820152601860248201527718d85b1b195c881a5cc81b9bdd08185d5d1a1bdc9a5e995960421b604482015290519081900360640190fd5b611605611e0c565b156116415760405162461bcd60e51b81526004018080602001828103825260268152602001806132696026913960400191505060405180910390fd5b611649611e2d565b156116855760405162461bcd60e51b81526004018080602001828103825260268152602001806132696026913960400191505060405180910390fd5b60145481116116db576040805162461bcd60e51b815260206004820152601960248201527f43616e2774207769746864726177207061737420312e30782e00000000000000604482015290519081900360640190fd5b6014546116e890826127a0565b601455600f54604080516370a0823160e01b815230600482015290516000926001600160a01b0316916370a08231916024808301926020929190829003018186803b15801561173657600080fd5b505afa15801561174a573d6000803e3d6000fd5b505050506040513d602081101561176057600080fd5b505160115460408051632e1a7d4d60e01b81526004810186905290519293506001600160a01b0390911691632e1a7d4d9160248082019260009290919082900301818387803b1580156117b257600080fd5b505af11580156117c6573d6000803e3d6000fd5b5050600f54604080516370a0823160e01b81523060048201529051600094506001600160a01b0390921692506370a08231916024808301926020929190829003018186803b15801561181757600080fd5b505afa15801561182b573d6000803e3d6000fd5b505050506040513d602081101561184157600080fd5b5051601254909150611247906001600160a01b031661186083856127a0565b600f546001600160a01b0316919061285d565b6010546001600160a01b031681565b61188a611e0c565b156118c65760405162461bcd60e51b81526004018080602001828103825260268152602001806132696026913960400191505060405180910390fd5b6118ce611e2d565b1561190a5760405162461bcd60e51b81526004018080602001828103825260268152602001806132696026913960400191505060405180910390fd5b60008211611959576040805162461bcd60e51b81526020600482015260176024820152762737903d32b9379030b6b7bab73a1030b63637bbb2b21760491b604482015290519081900360640190fd5b60135481101561196857506013545b60006119744283611e4e565b336000908152600d60205260409020600181018490558054919250908211156119a1576119a133836128af565b60006119ac856114a6565b90506119b8338261298b565b600f546119d0906001600160a01b03163330886127fd565b6011546040805163534a7e1d60e11b81526004810188905290516001600160a01b039092169163a694fc3a9160248082019260009290919082900301818387803b158015611a1d57600080fd5b505af1158015611a31573d6000803e3d6000fd5b5050604080518881526020810185905281513394507f90890809c654f11d6e72a28fa60149770a0d11ec6c92319d6ceb2bb0a4ea1a1593509081900390910190a25050436000908152600c602090815260408083203284529091528082208054600160ff1991821681179092553384529190922080549091169091179055505050565b601154604080516370a0823160e01b8152306004820152905160009283926001600160a01b03909116916370a0823191602480820192602092909190829003018186803b158015611b0457600080fd5b505afa158015611b18573d6000803e3d6000fd5b505050506040513d6020811015611b2e57600080fd5b505190506000611b3c6107c7565b9050801580611b49575081155b15611b58578392505050610c73565b6000610b7b8261155a87866128cb565b611b70611d1c565b6001600160a01b0316611b81611092565b6001600160a01b031614611bca576040805162461bcd60e51b81526020600482018190526024820152600080516020613182833981519152604482015290519081900360640190fd5b6001600160a01b03166000908152600b60205260409020805460ff19166001179055565b6001600160a01b03918216600090815260016020908152604080832093909416825291909152205490565b611c21611d1c565b6001600160a01b0316611c32611092565b6001600160a01b031614611c7b576040805162461bcd60e51b81526020600482018190526024820152600080516020613182833981519152604482015290519081900360640190fd5b6001600160a01b038116611cc05760405162461bcd60e51b81526004018080602001828103825260268152602001806130836026913960400191505060405180910390fd5b600a546040516001600160a01b038084169216907f8be0079c531659141344cd1fd0a4f28419497f9722a3daafe3b4186f6b6457e090600090a3600a80546001600160a01b0319166001600160a01b0392909216919091179055565b3390565b6001600160a01b038316611d655760405162461bcd60e51b815260040180806020018281038252602481526020018061321b6024913960400191505060405180910390fd5b6001600160a01b038216611daa5760405162461bcd60e51b81526004018080602001828103825260228152602001806130a96022913960400191505060405180910390fd5b6001600160a01b03808416600081815260016020908152604080832094871680845294825291829020859055815185815291517f8c5be1e5ebec7d5bd14f71427d1e84f3dd0314c0f7b2291e5b200ac8c7c3b9259281900390910190a3505050565b436000908152600c6020908152604080832032845290915290205460ff1690565b436000908152600c6020908152604080832033845290915290205460ff1690565b600082820183811015610a35576040805162461bcd60e51b815260206004820152601b60248201527f536166654d6174683a206164646974696f6e206f766572666c6f770000000000604482015290519081900360640190fd5b336000908152600b602052604090205460ff1680611ed5575033611eca611092565b6001600160a01b0316145b80611ef857506001600160a01b0382166000908152600b602052604090205460ff165b80611f1b5750816001600160a01b0316611f10611092565b6001600160a01b0316145b611fbc576001600160a01b038281166000908152600d6020526040902060028101549091858116911614611f805760405162461bcd60e51b81526004018080602001828103825260228152602001806131176022913960400191505060405180910390fd5b6002810180546001600160a01b0319169055601354600090611fa3904290611e4e565b8254909150811115611fb957611fb984826128af565b50505b611fc7838383612a7b565b505050565b6000818484111561205b5760405162461bcd60e51b81526004018080602001828103825283818151815260200191508051906020019080838360005b83811015612020578181015183820152602001612008565b50505050905090810190601f16801561204d5780820380516001836020036101000a031916815260200191505b509250505060405180910390fd5b505050900390565b600080600084116120b4576040805162461bcd60e51b815260206004820152601660248201527504552433230536e617073686f743a20696420697320360541b604482015290519081900360640190fd5b6120be6009612bd6565b841115612112576040805162461bcd60e51b815260206004820152601d60248201527f4552433230536e617073686f743a206e6f6e6578697374656e74206964000000604482015290519081900360640190fd5b600061211e8486612bda565b8454909150811415612137576000809250925050612159565b600184600101828154811061214857fe5b906000526020600020015492509250505b9250929050565b60105460408051632587701560e11b815230600482015290516000926001600160a01b031691634b0ee02a916024808301926020929190829003018186803b1580156121ab57600080fd5b505afa1580156121bf573d6000803e3d6000fd5b505050506040513d60208110156121d557600080fd5b505190508161224b57601160009054906101000a90046001600160a01b03166001600160a01b031663b88a802f6040518163ffffffff1660e01b8152600401600060405180830381600087803b15801561222e57600080fd5b505af1158015612242573d6000803e3d6000fd5b505050506122b1565b60115460408051632e1a7d4d60e01b81526004810185905290516001600160a01b0390921691632e1a7d4d9160248082019260009290919082900301818387803b15801561229857600080fd5b505af11580156122ac573d6000803e3d6000fd5b505050505b60105460408051635a46d3b560e01b8152306004820181905291516001600160a01b039093169263af2b0f6692918491635a46d3b591602480820192602092909190829003018186803b15801561230757600080fd5b505afa15801561231b573d6000803e3d6000fd5b505050506040513d602081101561233157600080fd5b5051604080516001600160e01b031960e086901b1681526001600160a01b039093166004840152602483019190915251604480830192600092919082900301818387803b15801561238157600080fd5b505af1158015612395573d6000803e3d6000fd5b505060105460408051632587701560e11b81523060048201529051600094506001600160a01b039092169250634b0ee02a916024808301926020929190829003018186803b1580156123e657600080fd5b505afa1580156123fa573d6000803e3d6000fd5b505050506040513d602081101561241057600080fd5b50519050600061242082846127a0565b600e549091506124309082611e4e565b600e819055336000908152600d6020526040812060038101549092612454916127a0565b600e5460038401559050600061248661246b6107c7565b61155a670de0b6b3a764000061248033610c59565b906128cb565b905060006124a0670de0b6b3a764000061155a85856128cb565b6010546040805163a9059cbb60e01b81523360048201526024810184905290519293506001600160a01b039091169163a9059cbb916044808201926020929091908290030181600087803b1580156124f757600080fd5b505af115801561250b573d6000803e3d6000fd5b505050506040513d602081101561252157600080fd5b505060115460408051638278b53b60e01b8152905160009283926001600160a01b0390911691638278b53b91600480820192602092909190829003018186803b15801561256d57600080fd5b505afa158015612581573d6000803e3d6000fd5b505050506040513d602081101561259757600080fd5b5051905060648111156125db5760405162461bcd60e51b81526004018080602001828103825260338152602001806131c36033913960400191505060405180910390fd5b6125ea606461155a85846128cb565b9150811561265e576010546040805163282d3fdf60e01b81523360048201526024810185905290516001600160a01b039092169163282d3fdf9160448082019260009290919082900301818387803b15801561264557600080fd5b505af1158015612659573d6000803e3d6000fd5b505050505b6040805184815260208101849052815133927fd6f2c8500df5b44f11e9e48b91ff9f1b9d81bc496d55570c2b1b75bf65243f51928290030190a250505050505050505050565b6001600160a01b0382166126e95760405162461bcd60e51b81526004018080602001828103825260218152602001806131a26021913960400191505060405180910390fd5b6126f582600083612c7b565b61273281604051806060016040528060228152602001613061602291396001600160a01b0385166000908152602081905260409020549190611fcc565b6001600160a01b03831660009081526020819052604090205560025461275890826127a0565b6002556040805182815290516000916001600160a01b038516917fddf252ad1be2c89b69c2b068fc378daa952ba7f163c4a11628f55a4df523b3ef9181900360200190a35050565b6000828211156127f7576040805162461bcd60e51b815260206004820152601e60248201527f536166654d6174683a207375627472616374696f6e206f766572666c6f770000604482015290519081900360640190fd5b50900390565b604080516001600160a01b0380861660248301528416604482015260648082018490528251808303909101815260849091019091526020810180516001600160e01b03166323b872dd60e01b179052612857908590612cd3565b50505050565b604080516001600160a01b038416602482015260448082018490528251808303909101815260649091019091526020810180516001600160e01b031663a9059cbb60e01b179052611fc7908490612cd3565b6001600160a01b039091166000908152600d6020526040902055565b6000826128da575060006107c1565b828202828482816128e757fe5b0414610a355760405162461bcd60e51b81526004018080602001828103825260218152602001806131396021913960400191505060405180910390fd5b600080821161297a576040805162461bcd60e51b815260206004820152601a60248201527f536166654d6174683a206469766973696f6e206279207a65726f000000000000604482015290519081900360640190fd5b81838161298357fe5b049392505050565b6001600160a01b0382166129e6576040805162461bcd60e51b815260206004820152601f60248201527f45524332303a206d696e7420746f20746865207a65726f206164647265737300604482015290519081900360640190fd5b6129f260008383612c7b565b6002546129ff9082611e4e565b6002556001600160a01b038216600090815260208190526040902054612a259082611e4e565b6001600160a01b0383166000818152602081815260408083209490945583518581529351929391927fddf252ad1be2c89b69c2b068fc378daa952ba7f163c4a11628f55a4df523b3ef9281900390910190a35050565b6001600160a01b038316612ac05760405162461bcd60e51b81526004018080602001828103825260258152602001806131f66025913960400191505060405180910390fd5b6001600160a01b038216612b055760405162461bcd60e51b815260040180806020018281038252602381526020018061303e6023913960400191505060405180910390fd5b612b10838383612c7b565b612b4d816040518060600160405280602681526020016130cb602691396001600160a01b0386166000908152602081905260409020549190611fcc565b6001600160a01b038085166000908152602081905260408082209390935590841681522054612b7c9082611e4e565b6001600160a01b038084166000818152602081815260409182902094909455805185815290519193928716927fddf252ad1be2c89b69c2b068fc378daa952ba7f163c4a11628f55a4df523b3ef92918290030190a3505050565b5490565b8154600090612beb575060006107c1565b82546000905b80821015612c3a576000612c058383612d84565b905084868281548110612c1457fe5b90600052602060002001541115612c2d57809150612c34565b8060010192505b50612bf1565b600082118015612c62575083856001840381548110612c5557fe5b9060005260206000200154145b15612c7357506000190190506107c1565b5090506107c1565b612c86838383611fc7565b6001600160a01b038316612caa57612c9d82612da9565b612ca5612dd6565b611fc7565b6001600160a01b038216612cc157612c9d83612da9565b612cca83612da9565b611fc782612da9565b6060612d28826040518060400160405280602081526020017f5361666545524332303a206c6f772d6c6576656c2063616c6c206661696c6564815250856001600160a01b0316612de59092919063ffffffff16565b805190915015611fc757808060200190516020811015612d4757600080fd5b5051611fc75760405162461bcd60e51b815260040180806020018281038252602a81526020018061323f602a913960400191505060405180910390fd5b60006002808306600285060181612d9757fe5b04600283046002850401019392505050565b6001600160a01b0381166000908152600660205260409020612dd390612dce83610c59565b612df4565b50565b612de36007612dce6107c7565b565b606061112a8484600085612e40565b6000612e006009612bd6565b905080612e0c84612f9c565b1015611fc7578254600180820185556000858152602080822090930193909355938401805494850181558252902090910155565b606082471015612e815760405162461bcd60e51b81526004018080602001828103825260268152602001806130f16026913960400191505060405180910390fd5b612e8a85612fd1565b612edb576040805162461bcd60e51b815260206004820152601d60248201527f416464726573733a2063616c6c20746f206e6f6e2d636f6e7472616374000000604482015290519081900360640190fd5b60006060866001600160a01b031685876040518082805190602001908083835b60208310612f1a5780518252601f199092019160209182019101612efb565b6001836020036101000a03801982511681845116808217855250505050505090500191505060006040518083038185875af1925050503d8060008114612f7c576040519150601f19603f3d011682016040523d82523d6000602084013e612f81565b606091505b5091509150612f91828286612fd7565b979650505050505050565b8054600090612fad57506000610c73565b815482906000198101908110612fbf57fe5b90600052602060002001549050610c73565b3b151590565b60608315612fe6575081610a35565b825115612ff65782518084602001fd5b60405162461bcd60e51b815260206004820181815284516024840152845185939192839260440191908501908083836000831561202057818101518382015260200161200856fe45524332303a207472616e7366657220746f20746865207a65726f206164647265737345524332303a206275726e20616d6f756e7420657863656564732062616c616e63654f776e61626c653a206e6577206f776e657220697320746865207a65726f206164647265737345524332303a20617070726f766520746f20746865207a65726f206164647265737345524332303a207472616e7366657220616d6f756e7420657863656564732062616c616e6365416464726573733a20696e73756666696369656e742062616c616e636520666f722063616c6c526563656976657220646964206e6f7420617070726f7665207472616e736665722e536166654d6174683a206d756c7469706c69636174696f6e206f766572666c6f7745524332303a207472616e7366657220616d6f756e74206578636565647320616c6c6f77616e63654f776e61626c653a2063616c6c6572206973206e6f7420746865206f776e657245524332303a206275726e2066726f6d20746865207a65726f2061646472657373496e76616c6964206c6f636b2070657263656e746167652c20636865636b205468656f72657469637320636f6e74726163742e45524332303a207472616e736665722066726f6d20746865207a65726f206164647265737345524332303a20617070726f76652066726f6d20746865207a65726f20616464726573735361666545524332303a204552433230206f7065726174696f6e20646964206e6f742073756363656564436f6e747261637447756172643a206f6e6520626c6f636b2c206f6e652066756e6374696f6e45524332303a2064656372656173656420616c6c6f77616e63652062656c6f77207a65726fa2646970667358221220fdbf6c1699a8044be398adc436014c6b48dfc9ae024e2d7e305b001b4a38b09c64736f6c634300060c0033",
  "linkReferences": {},
  "deployedLinkReferences": {}
}