{
  "_format": "hh-sol-artifact-1",
  "contractName": "Master",
  "sourceName": "contracts/Master.sol",
  "abi": [
    {
      "inputs": [
        {
          "internalType": "contract IERC20Lockable",
          "name": "_theory",
          "type": "address"
        },
        {
          "internalType": "contract IERC20Lockable",
          "name": "_game",
          "type": "address"
        },
        {
          "internalType": "contract ITheoretics",
          "name": "_theoretics",
          "type": "address"
        },
        {
          "internalType": "contract ITreasury",
          "name": "_treasury",
          "type": "address"
        },
        {
          "internalType": "address[]",
          "name": "_whitelist",
          "type": "address[]"
        }
      ],
      "stateMutability": "nonpayable",
      "type": "constructor"
    },
    {
      "anonymous": false,
      "inputs": [
        {
          "indexed": true,
          "internalType": "address",
          "name": "owner",
          "type": "address"
        },
        {
          "indexed": true,
          "internalType": "address",
          "name": "spender",
          "type": "address"
        },
        {
          "indexed": false,
          "internalType": "uint256",
          "name": "value",
          "type": "uint256"
        }
      ],
      "name": "Approval",
      "type": "event"
    },
    {
      "anonymous": false,
      "inputs": [
        {
          "indexed": true,
          "internalType": "address",
          "name": "user",
          "type": "address"
        },
        {
          "indexed": false,
          "internalType": "uint256",
          "name": "amountInTheory",
          "type": "uint256"
        },
        {
          "indexed": false,
          "internalType": "uint256",
          "name": "amountOutMaster",
          "type": "uint256"
        }
      ],
      "name": "Deposit",
      "type": "event"
    },
    {
      "anonymous": false,
      "inputs": [
        {
          "indexed": true,
          "internalType": "address",
          "name": "to",
          "type": "address"
        },
        {
          "indexed": false,
          "internalType": "uint256",
          "name": "value",
          "type": "uint256"
        }
      ],
      "name": "LockGame",
      "type": "event"
    },
    {
      "anonymous": false,
      "inputs": [
        {
          "indexed": true,
          "internalType": "address",
          "name": "previousOwner",
          "type": "address"
        },
        {
          "indexed": true,
          "internalType": "address",
          "name": "newOwner",
          "type": "address"
        }
      ],
      "name": "OwnershipTransferred",
      "type": "event"
    },
    {
      "anonymous": false,
      "inputs": [
        {
          "indexed": true,
          "internalType": "address",
          "name": "user",
          "type": "address"
        },
        {
          "indexed": false,
          "internalType": "uint256",
          "name": "reward",
          "type": "uint256"
        },
        {
          "indexed": false,
          "internalType": "uint256",
          "name": "lockAmount",
          "type": "uint256"
        }
      ],
      "name": "RewardPaid",
      "type": "event"
    },
    {
      "anonymous": false,
      "inputs": [
        {
          "indexed": false,
          "internalType": "uint256",
          "name": "id",
          "type": "uint256"
        }
      ],
      "name": "Snapshot",
      "type": "event"
    },
    {
      "anonymous": false,
      "inputs": [
        {
          "indexed": true,
          "internalType": "address",
          "name": "from",
          "type": "address"
        },
        {
          "indexed": true,
          "internalType": "address",
          "name": "to",
          "type": "address"
        },
        {
          "indexed": false,
          "internalType": "uint256",
          "name": "value",
          "type": "uint256"
        }
      ],
      "name": "Transfer",
      "type": "event"
    },
    {
      "anonymous": false,
      "inputs": [
        {
          "indexed": true,
          "internalType": "address",
          "name": "to",
          "type": "address"
        },
        {
          "indexed": false,
          "internalType": "uint256",
          "name": "value",
          "type": "uint256"
        }
      ],
      "name": "UnlockGame",
      "type": "event"
    },
    {
      "anonymous": false,
      "inputs": [
        {
          "indexed": true,
          "internalType": "address",
          "name": "user",
          "type": "address"
        },
        {
          "indexed": false,
          "internalType": "uint256",
          "name": "amountInMaster",
          "type": "uint256"
        },
        {
          "indexed": false,
          "internalType": "uint256",
          "name": "amountOutTheory",
          "type": "uint256"
        }
      ],
      "name": "Withdraw",
      "type": "event"
    },
    {
      "anonymous": false,
      "inputs": [
        {
          "indexed": true,
          "internalType": "address",
          "name": "user",
          "type": "address"
        },
        {
          "indexed": false,
          "internalType": "uint256",
          "name": "amountInMaster",
          "type": "uint256"
        },
        {
          "indexed": false,
          "internalType": "uint256",
          "name": "amountOutTheory",
          "type": "uint256"
        }
      ],
      "name": "WithdrawRequest",
      "type": "event"
    },
    {
      "inputs": [
        {
          "internalType": "address",
          "name": "_toAdd",
          "type": "address"
        }
      ],
      "name": "addAuthorized",
      "outputs": [],
      "stateMutability": "nonpayable",
      "type": "function"
    },
    {
      "inputs": [
        {
          "internalType": "address",
          "name": "owner",
          "type": "address"
        },
        {
          "internalType": "address",
          "name": "spender",
          "type": "address"
        }
      ],
      "name": "allowance",
      "outputs": [
        {
          "internalType": "uint256",
          "name": "",
          "type": "uint256"
        }
      ],
      "stateMutability": "view",
      "type": "function"
    },
    {
      "inputs": [
        {
          "internalType": "address",
          "name": "spender",
          "type": "address"
        },
        {
          "internalType": "uint256",
          "name": "amount",
          "type": "uint256"
        }
      ],
      "name": "approve",
      "outputs": [
        {
          "internalType": "bool",
          "name": "",
          "type": "bool"
        }
      ],
      "stateMutability": "nonpayable",
      "type": "function"
    },
    {
      "inputs": [
        {
          "internalType": "address",
          "name": "from",
          "type": "address"
        }
      ],
      "name": "approveTransferFrom",
      "outputs": [],
      "stateMutability": "nonpayable",
      "type": "function"
    },
    {
      "inputs": [
        {
          "internalType": "address",
          "name": "",
          "type": "address"
        }
      ],
      "name": "authorized",
      "outputs": [
        {
          "internalType": "bool",
          "name": "",
          "type": "bool"
        }
      ],
      "stateMutability": "view",
      "type": "function"
    },
    {
      "inputs": [
        {
          "internalType": "address",
          "name": "account",
          "type": "address"
        }
      ],
      "name": "balanceOf",
      "outputs": [
        {
          "internalType": "uint256",
          "name": "",
          "type": "uint256"
        }
      ],
      "stateMutability": "view",
      "type": "function"
    },
    {
      "inputs": [
        {
          "internalType": "address",
          "name": "account",
          "type": "address"
        },
        {
          "internalType": "uint256",
          "name": "snapshotId",
          "type": "uint256"
        }
      ],
      "name": "balanceOfAt",
      "outputs": [
        {
          "internalType": "uint256",
          "name": "",
          "type": "uint256"
        }
      ],
      "stateMutability": "view",
      "type": "function"
    },
    {
      "inputs": [
        {
          "internalType": "uint256",
          "name": "amountInTheory",
          "type": "uint256"
        },
        {
          "internalType": "uint256",
          "name": "lockTime",
          "type": "uint256"
        }
      ],
      "name": "buyFromTheory",
      "outputs": [],
      "stateMutability": "nonpayable",
      "type": "function"
    },
    {
      "inputs": [
        {
          "internalType": "address",
          "name": "_holder",
          "type": "address"
        }
      ],
      "name": "canUnlockAmountGame",
      "outputs": [
        {
          "internalType": "uint256",
          "name": "",
          "type": "uint256"
        }
      ],
      "stateMutability": "view",
      "type": "function"
    },
    {
      "inputs": [],
      "name": "claimGame",
      "outputs": [],
      "stateMutability": "nonpayable",
      "type": "function"
    },
    {
      "inputs": [],
      "name": "decimals",
      "outputs": [
        {
          "internalType": "uint8",
          "name": "",
          "type": "uint8"
        }
      ],
      "stateMutability": "view",
      "type": "function"
    },
    {
      "inputs": [
        {
          "internalType": "address",
          "name": "spender",
          "type": "address"
        },
        {
          "internalType": "uint256",
          "name": "subtractedValue",
          "type": "uint256"
        }
      ],
      "name": "decreaseAllowance",
      "outputs": [
        {
          "internalType": "bool",
          "name": "",
          "type": "bool"
        }
      ],
      "stateMutability": "nonpayable",
      "type": "function"
    },
    {
      "inputs": [
        {
          "internalType": "address",
          "name": "theorist",
          "type": "address"
        }
      ],
      "name": "earned",
      "outputs": [
        {
          "internalType": "uint256",
          "name": "",
          "type": "uint256"
        }
      ],
      "stateMutability": "view",
      "type": "function"
    },
    {
      "inputs": [
        {
          "internalType": "address",
          "name": "theorist",
          "type": "address"
        }
      ],
      "name": "getLastSnapshotIndexOf",
      "outputs": [
        {
          "internalType": "uint256",
          "name": "",
          "type": "uint256"
        }
      ],
      "stateMutability": "view",
      "type": "function"
    },
    {
      "inputs": [
        {
          "internalType": "address",
          "name": "spender",
          "type": "address"
        },
        {
          "internalType": "uint256",
          "name": "addedValue",
          "type": "uint256"
        }
      ],
      "name": "increaseAllowance",
      "outputs": [
        {
          "internalType": "bool",
          "name": "",
          "type": "bool"
        }
      ],
      "stateMutability": "nonpayable",
      "type": "function"
    },
    {
      "inputs": [
        {
          "internalType": "bool",
          "name": "allowEmergency",
          "type": "bool"
        }
      ],
      "name": "initiatePart1",
      "outputs": [],
      "stateMutability": "nonpayable",
      "type": "function"
    },
    {
      "inputs": [],
      "name": "initiatePart2",
      "outputs": [],
      "stateMutability": "nonpayable",
      "type": "function"
    },
    {
      "inputs": [],
      "name": "latestSnapshotIndex",
      "outputs": [
        {
          "internalType": "uint256",
          "name": "",
          "type": "uint256"
        }
      ],
      "stateMutability": "view",
      "type": "function"
    },
    {
      "inputs": [
        {
          "internalType": "address",
          "name": "_holder",
          "type": "address"
        }
      ],
      "name": "lockOfGame",
      "outputs": [
        {
          "internalType": "uint256",
          "name": "",
          "type": "uint256"
        }
      ],
      "stateMutability": "view",
      "type": "function"
    },
    {
      "inputs": [
        {
          "internalType": "uint256",
          "name": "",
          "type": "uint256"
        }
      ],
      "name": "masterHistory",
      "outputs": [
        {
          "internalType": "uint256",
          "name": "time",
          "type": "uint256"
        },
        {
          "internalType": "uint256",
          "name": "rewardReceived",
          "type": "uint256"
        },
        {
          "internalType": "uint256",
          "name": "rewardPerShare",
          "type": "uint256"
        }
      ],
      "stateMutability": "view",
      "type": "function"
    },
    {
      "inputs": [
        {
          "internalType": "uint256",
          "name": "_share",
          "type": "uint256"
        }
      ],
      "name": "masterToTheory",
      "outputs": [
        {
          "internalType": "uint256",
          "name": "",
          "type": "uint256"
        }
      ],
      "stateMutability": "view",
      "type": "function"
    },
    {
      "inputs": [],
      "name": "minLockTime",
      "outputs": [
        {
          "internalType": "uint256",
          "name": "",
          "type": "uint256"
        }
      ],
      "stateMutability": "view",
      "type": "function"
    },
    {
      "inputs": [],
      "name": "name",
      "outputs": [
        {
          "internalType": "string",
          "name": "",
          "type": "string"
        }
      ],
      "stateMutability": "view",
      "type": "function"
    },
    {
      "inputs": [],
      "name": "owner",
      "outputs": [
        {
          "internalType": "address",
          "name": "",
          "type": "address"
        }
      ],
      "stateMutability": "view",
      "type": "function"
    },
    {
      "inputs": [
        {
          "internalType": "address",
          "name": "_toRemove",
          "type": "address"
        }
      ],
      "name": "removeAuthorized",
      "outputs": [],
      "stateMutability": "nonpayable",
      "type": "function"
    },
    {
      "inputs": [],
      "name": "renounceOwnership",
      "outputs": [],
      "stateMutability": "nonpayable",
      "type": "function"
    },
    {
      "inputs": [
        {
          "internalType": "uint256",
          "name": "amountInMaster",
          "type": "uint256"
        },
        {
          "internalType": "bool",
          "name": "allowEmergency",
          "type": "bool"
        }
      ],
      "name": "requestSellToTheory",
      "outputs": [],
      "stateMutability": "nonpayable",
      "type": "function"
    },
    {
      "inputs": [],
      "name": "sellToTheory",
      "outputs": [],
      "stateMutability": "nonpayable",
      "type": "function"
    },
    {
      "inputs": [
        {
          "internalType": "uint256",
          "name": "lockTime",
          "type": "uint256"
        },
        {
          "internalType": "uint256",
          "name": "penalty",
          "type": "uint256"
        },
        {
          "internalType": "bool",
          "name": "emergency",
          "type": "bool"
        }
      ],
      "name": "setAdmin",
      "outputs": [],
      "stateMutability": "nonpayable",
      "type": "function"
    },
    {
      "inputs": [
        {
          "internalType": "uint256",
          "name": "amount",
          "type": "uint256"
        }
      ],
      "name": "stakeExternalTheory",
      "outputs": [],
      "stateMutability": "nonpayable",
      "type": "function"
    },
    {
      "inputs": [],
      "name": "symbol",
      "outputs": [
        {
          "internalType": "string",
          "name": "",
          "type": "string"
        }
      ],
      "stateMutability": "view",
      "type": "function"
    },
    {
      "inputs": [
        {
          "internalType": "uint256",
          "name": "_amount",
          "type": "uint256"
        }
      ],
      "name": "theoryToMaster",
      "outputs": [
        {
          "internalType": "uint256",
          "name": "",
          "type": "uint256"
        }
      ],
      "stateMutability": "view",
      "type": "function"
    },
    {
      "inputs": [
        {
          "internalType": "address",
          "name": "_holder",
          "type": "address"
        }
      ],
      "name": "totalBalanceOfGame",
      "outputs": [
        {
          "internalType": "uint256",
          "name": "",
          "type": "uint256"
        }
      ],
      "stateMutability": "view",
      "type": "function"
    },
    {
      "inputs": [
        {
          "internalType": "address",
          "name": "_holder",
          "type": "address"
        }
      ],
      "name": "totalCanUnlockAmountGame",
      "outputs": [
        {
          "internalType": "uint256",
          "name": "",
          "type": "uint256"
        }
      ],
      "stateMutability": "view",
      "type": "function"
    },
    {
      "inputs": [],
      "name": "totalGameLocked",
      "outputs": [
        {
          "internalType": "uint256",
          "name": "",
          "type": "uint256"
        }
      ],
      "stateMutability": "view",
      "type": "function"
    },
    {
      "inputs": [],
      "name": "totalGameUnclaimed",
      "outputs": [
        {
          "internalType": "uint256",
          "name": "",
          "type": "uint256"
        }
      ],
      "stateMutability": "view",
      "type": "function"
    },
    {
      "inputs": [],
      "name": "totalLockGame",
      "outputs": [
        {
          "internalType": "uint256",
          "name": "",
          "type": "uint256"
        }
      ],
      "stateMutability": "view",
      "type": "function"
    },
    {
      "inputs": [],
      "name": "totalStakeRequestedInTheory",
      "outputs": [
        {
          "internalType": "uint256",
          "name": "",
          "type": "uint256"
        }
      ],
      "stateMutability": "view",
      "type": "function"
    },
    {
      "inputs": [],
      "name": "totalSupply",
      "outputs": [
        {
          "internalType": "uint256",
          "name": "",
          "type": "uint256"
        }
      ],
      "stateMutability": "view",
      "type": "function"
    },
    {
      "inputs": [
        {
          "internalType": "uint256",
          "name": "snapshotId",
          "type": "uint256"
        }
      ],
      "name": "totalSupplyAt",
      "outputs": [
        {
          "internalType": "uint256",
          "name": "",
          "type": "uint256"
        }
      ],
      "stateMutability": "view",
      "type": "function"
    },
    {
      "inputs": [],
      "name": "totalWithdrawRequestedInMaster",
      "outputs": [
        {
          "internalType": "uint256",
          "name": "",
          "type": "uint256"
        }
      ],
      "stateMutability": "view",
      "type": "function"
    },
    {
      "inputs": [],
      "name": "totalWithdrawRequestedInTheory",
      "outputs": [
        {
          "internalType": "uint256",
          "name": "",
          "type": "uint256"
        }
      ],
      "stateMutability": "view",
      "type": "function"
    },
    {
      "inputs": [],
      "name": "totalWithdrawUnclaimedInTheory",
      "outputs": [
        {
          "internalType": "uint256",
          "name": "",
          "type": "uint256"
        }
      ],
      "stateMutability": "view",
      "type": "function"
    },
    {
      "inputs": [
        {
          "internalType": "address",
          "name": "recipient",
          "type": "address"
        },
        {
          "internalType": "uint256",
          "name": "amount",
          "type": "uint256"
        }
      ],
      "name": "transfer",
      "outputs": [
        {
          "internalType": "bool",
          "name": "",
          "type": "bool"
        }
      ],
      "stateMutability": "nonpayable",
      "type": "function"
    },
    {
      "inputs": [
        {
          "internalType": "address",
          "name": "sender",
          "type": "address"
        },
        {
          "internalType": "address",
          "name": "recipient",
          "type": "address"
        },
        {
          "internalType": "uint256",
          "name": "amount",
          "type": "uint256"
        }
      ],
      "name": "transferFrom",
      "outputs": [
        {
          "internalType": "bool",
          "name": "",
          "type": "bool"
        }
      ],
      "stateMutability": "nonpayable",
      "type": "function"
    },
    {
      "inputs": [
        {
          "internalType": "address",
          "name": "newOwner",
          "type": "address"
        }
      ],
      "name": "transferOwnership",
      "outputs": [],
      "stateMutability": "nonpayable",
      "type": "function"
    },
    {
      "inputs": [
        {
          "internalType": "contract IERC20",
          "name": "_token",
          "type": "address"
        },
        {
          "internalType": "address",
          "name": "to",
          "type": "address"
        },
        {
          "internalType": "uint256",
          "name": "amount",
          "type": "uint256"
        }
      ],
      "name": "transferToken",
      "outputs": [],
      "stateMutability": "nonpayable",
      "type": "function"
    },
    {
      "inputs": [],
      "name": "unlockGame",
      "outputs": [],
      "stateMutability": "nonpayable",
      "type": "function"
    },
    {
      "inputs": [
        {
          "internalType": "address",
          "name": "account",
          "type": "address"
        },
        {
          "internalType": "uint256",
          "name": "amount",
          "type": "uint256"
        }
      ],
      "name": "unlockGameForUser",
      "outputs": [],
      "stateMutability": "nonpayable",
      "type": "function"
    },
    {
      "inputs": [],
      "name": "unlockedClaimPenalty",
      "outputs": [
        {
          "internalType": "uint256",
          "name": "",
          "type": "uint256"
        }
      ],
      "stateMutability": "view",
      "type": "function"
    },
    {
      "inputs": [
        {
          "internalType": "address",
          "name": "",
          "type": "address"
        }
      ],
      "name": "userInfo",
      "outputs": [
        {
          "internalType": "uint256",
          "name": "lockToTime",
          "type": "uint256"
        },
        {
          "internalType": "uint256",
          "name": "chosenLockTime",
          "type": "uint256"
        },
        {
          "internalType": "address",
          "name": "approveTransferFrom",
          "type": "address"
        },
        {
          "internalType": "uint256",
          "name": "lastSnapshotIndex",
          "type": "uint256"
        },
        {
          "internalType": "uint256",
          "name": "rewardEarned",
          "type": "uint256"
        },
        {
          "internalType": "uint256",
          "name": "withdrawRequestedInMaster",
          "type": "uint256"
        },
        {
          "internalType": "uint256",
          "name": "withdrawRequestedInTheory",
          "type": "uint256"
        },
        {
          "internalType": "uint256",
          "name": "lastStakeRequestBlock",
          "type": "uint256"
        },
        {
          "internalType": "uint256",
          "name": "lastWithdrawRequestBlock",
          "type": "uint256"
        },
        {
          "internalType": "uint256",
          "name": "gameLocked",
          "type": "uint256"
        },
        {
          "internalType": "uint256",
          "name": "gameLockFrom",
          "type": "uint256"
        },
        {
          "internalType": "uint256",
          "name": "gameLastUnlockTime",
          "type": "uint256"
        }
      ],
      "stateMutability": "view",
      "type": "function"
    }
  ],
  "bytecode": "0x60806040523480156200001157600080fd5b506040516200640538038062006405833981810160405260a08110156200003757600080fd5b81516020830151604080850151606086015160808701805193519597949692959194919392820192846401000000008211156200007357600080fd5b9083019060208201858111156200008957600080fd5b8251866020820283011164010000000082111715620000a757600080fd5b82525081516020918201928201910280838360005b83811015620000d6578181015183820152602001620000bc565b5050505090910160408181018152600c82526b26b0b9ba32b9102a37b5b2b760a11b60208084019182528251808401909352600683526526a0a9aa22a960d11b9083015282519296509094506200013393506003925090620002df565b50805162000149906004906020840190620002df565b50506005805460ff1916601217905550600062000165620002db565b600a80546001600160a01b0319166001600160a01b038316908117909155604051919250906000907f8be0079c531659141344cd1fd0a4f28419497f9722a3daafe3b4186f6b6457e0908290a350600e80546001600160a01b038088166001600160a01b031992831617909255600f80548784169083161790556010805486841690831617905560118054928516929091169190911790556301e1338060125562278d006013556200021662000364565b506040805160608101825243815260006020808301828152938301828152601e8054600181018255935283517f50bb669a95c7b50b7e8a6f09454034b2b14cf2b85c730dca9a539ca82cb6e35060039094029384015593517f50bb669a95c7b50b7e8a6f09454034b2b14cf2b85c730dca9a539ca82cb6e35183015592517f50bb669a95c7b50b7e8a6f09454034b2b14cf2b85c730dca9a539ca82cb6e3529091015582519091620002ce91601f9185019062000385565b5050505050505062000423565b3390565b828054600181600116156101000203166002900490600052602060002090601f016020900481019282601f106200032257805160ff191683800117855562000352565b8280016001018555821562000352579182015b828111156200035257825182559160200191906001019062000335565b5062000360929150620003eb565b5090565b60405180606001604052806000815260200160008152602001600081525090565b828054828255906000526020600020908101928215620003dd579160200282015b82811115620003dd57825182546001600160a01b0319166001600160a01b03909116178255602090920191600190910190620003a6565b506200036092915062000402565b5b80821115620003605760008155600101620003ec565b5b80821115620003605780546001600160a01b031916815560010162000403565b615fd280620004336000396000f3fe608060405234801561001057600080fd5b50600436106102f05760003560e01c8063715018a61161019d578063b5ee1fe4116100e9578063dd62ed3e116100a2578063f2fde38b1161007c578063f2fde38b14610930578063f5537ede14610956578063fdb781c81461098c578063fe5aa5a714610994576102f0565b8063dd62ed3e146108a1578063dff408e8146108cf578063f0e0d9f6146108f5576102f0565b8063b5ee1fe4146107e1578063b9181611146107e9578063c4e693291461080f578063c7b728de14610832578063cf1c316a1461084f578063dbd9596b14610875576102f0565b8063981b24d011610156578063a8bbf27511610130578063a8bbf2751461074d578063a9059cbb14610773578063ab9fb4381461079f578063aeadf88f146107bc576102f0565b8063981b24d0146106fc578063a457c2d714610719578063a60ff76614610745576102f0565b8063715018a61461068d5780638da5cb5b146106955780638ef71a4b146106b957806395392727146106c157806395d89b41146106ec57806397b98e4a146106f4576102f0565b806336cea11b1161025c5780634e0e7e3311610215578063581d03f5116101ef578063581d03f5146106315780635936e8bd1461063957806370a0823114610641578063714b465814610667576102f0565b80634e0e7e33146105de5780634ee2cd7e146105fd5780635358a2af14610629576102f0565b806336cea11b1461051257806339509351146105385780633f9e3f0414610564578063485d7d941461056c5780634c85b121146105925780634de23626146105b8576102f0565b80631959a002116102ae5780631959a0021461041957806323b872dd146104a657806323da7499146104dc5780632558d4f8146104e4578063294f08b1146104ec578063313ce567146104f4576102f0565b80628cc262146102f557806306fdde031461032d578063095ea7b3146103aa578063170d4b98146103ea57806318160ddd146103f257806318bb939a146103fa575b600080fd5b61031b6004803603602081101561030b57600080fd5b50356001600160a01b031661099c565b60408051918252519081900360200190f35b610335610a1f565b6040805160208082528351818301528351919283929083019185019080838360005b8381101561036f578181015183820152602001610357565b50505050905090810190601f16801561039c5780820380516001836020036101000a031916815260200191505b509250505060405180910390f35b6103d6600480360360408110156103c057600080fd5b506001600160a01b038135169060200135610ab5565b604080519115158252519081900360200190f35b61031b610ad3565b61031b610ad9565b6104176004803603602081101561041057600080fd5b5035610adf565b005b61043f6004803603602081101561042f57600080fd5b50356001600160a01b0316610ea9565b604080519c8d5260208d019b909b526001600160a01b039099168b8b015260608b019790975260808a019590955260a089019390935260c088019190915260e087015261010086015261012085015261014084015261016083015251908190036101800190f35b6103d6600480360360608110156104bc57600080fd5b506001600160a01b03813581169160208101359091169060400135610f12565b61031b610f9a565b61031b610fa0565b61031b610fa6565b6104fc610fac565b6040805160ff9092168252519081900360200190f35b6104176004803603602081101561052857600080fd5b50356001600160a01b0316610fb5565b6103d66004803603604081101561054e57600080fd5b506001600160a01b038135169060200135610fe7565b61031b611035565b6104176004803603602081101561058257600080fd5b50356001600160a01b031661104b565b61031b600480360360208110156105a857600080fd5b50356001600160a01b03166110e4565b61031b600480360360208110156105ce57600080fd5b50356001600160a01b031661117a565b610417600480360360208110156105f457600080fd5b5035151561134c565b61031b6004803603604081101561061357600080fd5b506001600160a01b038135169060200135611654565b61031b61169d565b61031b6116a3565b61041761172b565b61031b6004803603602081101561065757600080fd5b50356001600160a01b03166119e8565b61031b6004803603602081101561067d57600080fd5b50356001600160a01b0316611a03565b610417611a21565b61069d611acd565b604080516001600160a01b039092168252519081900360200190f35b61031b611adc565b610417600480360360608110156106d757600080fd5b50803590602081013590604001351515611ae2565b610335611bef565b610417611c50565b61031b6004803603602081101561071257600080fd5b5035612044565b6103d66004803603604081101561072f57600080fd5b506001600160a01b03813516906020013561206a565b61031b6120d2565b61031b6004803603602081101561076357600080fd5b50356001600160a01b03166120d8565b6103d66004803603604081101561078957600080fd5b506001600160a01b038135169060200135612177565b61031b600480360360208110156107b557600080fd5b503561218b565b610417600480360360408110156107d257600080fd5b5080359060200135151561221b565b61031b6126b8565b6103d6600480360360208110156107ff57600080fd5b50356001600160a01b03166126be565b6104176004803603604081101561082557600080fd5b50803590602001356126d3565b61031b6004803603602081101561084857600080fd5b5035612c2d565b6104176004803603602081101561086557600080fd5b50356001600160a01b0316612cbd565b6104176004803603604081101561088b57600080fd5b506001600160a01b038135169060200135612d43565b61031b600480360360408110156108b757600080fd5b506001600160a01b0381358116916020013516613119565b61031b600480360360208110156108e557600080fd5b50356001600160a01b0316613144565b6109126004803603602081101561090b57600080fd5b503561319f565b60408051938452602084019290925282820152519081900360600190f35b6104176004803603602081101561094657600080fd5b50356001600160a01b03166131cf565b6104176004803603606081101561096c57600080fd5b506001600160a01b038135811691602081013590911690604001356132d2565b61041761356d565b610417613827565b6000806109a7613aaa565b60400151905060006109b884613b02565b6040908101516001600160a01b0386166000908152600d6020529190912060040154909150610a1590610a0f670de0b6b3a7640000610a096109fa8787613b5d565b610a038a6119e8565b90613bba565b90613c13565b90613c7a565b925050505b919050565b60038054604080516020601f6002600019610100600188161502019095169490940493840181900481028201810190925282815260609390929091830182828015610aab5780601f10610a8057610100808354040283529160200191610aab565b820191906000526020600020905b815481529060010190602001808311610a8e57829003601f168201915b5050505050905090565b6000610ac9610ac2613cd4565b8484613cd8565b5060015b92915050565b60185481565b60025490565b336000908152600b602052604090205460ff1680610b0c575033610b01611acd565b6001600160a01b0316145b610b58576040805162461bcd60e51b815260206004820152601860248201527718d85b1b195c881a5cc81b9bdd08185d5d1a1bdc9a5e995960421b604482015290519081900360640190fd5b610b60613dc4565b15610b9c5760405162461bcd60e51b8152600401808060200182810382526026815260200180615ee96026913960400191505060405180910390fd5b610ba4613de5565b15610be05760405162461bcd60e51b8152600401808060200182810382526026815260200180615ee96026913960400191505060405180910390fd5b610c77610bfa601754601454613c7a90919063ffffffff16565b600e54604080516370a0823160e01b815230600482015290516001600160a01b03909216916370a0823191602480820192602092909190829003018186803b158015610c4557600080fd5b505afa158015610c59573d6000803e3d6000fd5b505050506040513d6020811015610c6f57600080fd5b505190613b5d565b811115610cb0576040805162461bcd60e51b8152602060048201526002602482015261282360f11b604482015290519081900360640190fd5b601060009054906101000a90046001600160a01b03166001600160a01b031663900cf0cf6040518163ffffffff1660e01b815260040160206040518083038186803b158015610cfe57600080fd5b505afa158015610d12573d6000803e3d6000fd5b505050506040513d6020811015610d2857600080fd5b5051601a541480610db05750601060009054906101000a90046001600160a01b03166001600160a01b03166313f24daf6040518163ffffffff1660e01b815260040160206040518083038186803b158015610d8257600080fd5b505afa158015610d96573d6000803e3d6000fd5b505050506040513d6020811015610dac57600080fd5b5051155b15610e5a57601054600e54610dd3916001600160a01b0391821691166000613e06565b601054600e54610df0916001600160a01b03918216911683613e06565b6010546040805163534a7e1d60e11b81526004810184905290516001600160a01b039092169163a694fc3a9160248082019260009290919082900301818387803b158015610e3d57600080fd5b505af1158015610e51573d6000803e3d6000fd5b50505050610e6b565b601454610e679082613c7a565b6014555b50436000908152600c602090815260408083203284529091528082208054600160ff1991821681179092553384529190922080549091169091179055565b600d60205260009081526040902080546001820154600283015460038401546004850154600586015460068701546007880154600889015460098a0154600a8b0154600b909b0154999a98996001600160a01b039098169896979596949593949293919290918c565b6000610f1f848484613f1e565b610f8f84610f2b613cd4565b610f8a85604051806060016040528060288152602001615e0d602891396001600160a01b038a16600090815260016020526040812090610f69613cd4565b6001600160a01b03168152602081019190915260400160002054919061417e565b613cd8565b5060015b9392505050565b60175481565b60155481565b60145481565b60055460ff1690565b336000908152600d6020526040902060020180546001600160a01b0319166001600160a01b0392909216919091179055565b6000610ac9610ff4613cd4565b84610f8a8560016000611005613cd4565b6001600160a01b03908116825260208083019390935260409182016000908120918c168152925290205490613c7a565b601e54600090611046906001613b5d565b905090565b611053613cd4565b6001600160a01b0316611064611acd565b6001600160a01b0316146110ad576040805162461bcd60e51b81526020600482018190526024820152600080516020615e35833981519152604482015290519081900360640190fd5b6001600160a01b0381163314156110c357600080fd5b6001600160a01b03166000908152600b60205260409020805460ff19169055565b6001600160a01b038082166000818152600d6020908152604080832060090154600f548251635a46d3b560e01b8152600481019690965291519395610acd959194921692635a46d3b592602480840193829003018186803b15801561114857600080fd5b505afa15801561115c573d6000803e3d6000fd5b505050506040513d602081101561117257600080fd5b505190613c7a565b600080600f60009054906101000a90046001600160a01b03166001600160a01b0316630d6680876040518163ffffffff1660e01b815260040160206040518083038186803b1580156111cb57600080fd5b505afa1580156111df573d6000803e3d6000fd5b505050506040513d60208110156111f557600080fd5b50519050611201615bfa565b506001600160a01b038084166000908152600d6020908152604091829020825161018081018452815481526001820154928101929092526002810154909316918101919091526003820154606082015260048201546080820152600582015460a0820152600682015460c0820152600782015460e082015260088201546101008201526009820154610120820152600a8201546101408201819052600b909201546101608201529042116112ba57600092505050610a1a565b6101408101516112ca9083613c7a565b42106112de5761012001519150610a1a9050565b60006112f882610160015142613b5d90919063ffffffff16565b9050600061132383610160015161131d86866101400151613c7a90919063ffffffff16565b90613b5d565b905061134181610a0984866101200151613bba90919063ffffffff16565b945050505050610a1a565b611354613dc4565b156113905760405162461bcd60e51b8152600401808060200182810382526026815260200180615ee96026913960400191505060405180910390fd5b611398613de5565b156113d45760405162461bcd60e51b8152600401808060200182810382526026815260200180615ee96026913960400191505060405180910390fd5b601054604080516313f24daf60e01b815290516000926001600160a01b0316916313f24daf916004808301926020929190829003018186803b15801561141957600080fd5b505afa15801561142d573d6000803e3d6000fd5b505050506040513d602081101561144357600080fd5b5051601054604080516362cb3e1360e11b815290519293506000926001600160a01b039092169163c5967c2691600480820192602092909190829003018186803b15801561149057600080fd5b505afa1580156114a4573d6000803e3d6000fd5b505050506040513d60208110156114ba57600080fd5b50516010546040805163900cf0cf60e01b815290519293506000926001600160a01b039092169163900cf0cf91600480820192602092909190829003018186803b15801561150757600080fd5b505afa15801561151b573d6000803e3d6000fd5b505050506040513d602081101561153157600080fd5b5051905082158061154957506115478184614215565b155b61157f576040805162461bcd60e51b8152602060048201526002602482015261574560f01b604482015290519081900360640190fd5b8142118061159857506107086115958342613b5d565b11155b6115ce576040805162461bcd60e51b8152602060048201526002602482015261033360f41b604482015290519081900360640190fd5b80601954141561160a576040805162461bcd60e51b8152602060048201526002602482015261414360f01b604482015290519081900360640190fd5b6116138461427c565b5050436000908152600c602090815260408083203284529091528082208054600160ff19918216811790925533845291909220805490911690911790555050565b6001600160a01b03821660009081526006602052604081208190819061167b908590614ac2565b91509150816116925761168d856119e8565b611694565b805b95945050505050565b60135481565b6000611046600f60009054906101000a90046001600160a01b03166001600160a01b0316633a1aae356040518163ffffffff1660e01b815260040160206040518083038186803b1580156116f657600080fd5b505afa15801561170a573d6000803e3d6000fd5b505050506040513d602081101561172057600080fd5b5051601d5490613c7a565b611733613dc4565b1561176f5760405162461bcd60e51b8152600401808060200182810382526026815260200180615ee96026913960400191505060405180910390fd5b611777613de5565b156117b35760405162461bcd60e51b8152600401808060200182810382526026815260200180615ee96026913960400191505060405180910390fd5b338015611928576117c2615bfa565b506001600160a01b038082166000908152600d6020908152604091829020825161018081018452815481526001820154928101929092526002810154909316918101919091526003820154606082015260048201546080820152600582015460a0820152600682015460c0820152600782015460e082015260088201546101008201526009820154610120820152600a820154610140820152600b909101546101608201526118708261099c565b608082015261187d611035565b606082019081526001600160a01b038381166000908152600d602090815260409182902085518155908501516001820155908401516002820180546001600160a01b0319169190931617909155905160038201556080820151600482015560a0820151600582015560c0820151600682015560e0820151600782015561010082015160088201556101208201516009820155610140820151600a82015561016090910151600b909101555b60006119333361099c565b11611979576040805162461bcd60e51b815260206004820152601160248201527027379023a0a6a2903a379031b630b4b69760791b604482015290519081900360640190fd5b336000908152600d60205260409020805442106119a15760135461199e904290613c7a565b81555b6119a9614bbf565b5050436000908152600c602090815260408083203284529091528082208054600160ff1991821681179092553384529190922080549091169091179055565b6001600160a01b031660009081526020819052604090205490565b6001600160a01b03166000908152600d602052604090206003015490565b611a29613cd4565b6001600160a01b0316611a3a611acd565b6001600160a01b031614611a83576040805162461bcd60e51b81526020600482018190526024820152600080516020615e35833981519152604482015290519081900360640190fd5b600a546040516000916001600160a01b0316907f8be0079c531659141344cd1fd0a4f28419497f9722a3daafe3b4186f6b6457e0908390a3600a80546001600160a01b0319169055565b600a546001600160a01b031690565b60165481565b336000908152600b602052604090205460ff1680611b0f575033611b04611acd565b6001600160a01b0316145b611b5b576040805162461bcd60e51b815260206004820152601860248201527718d85b1b195c881a5cc81b9bdd08185d5d1a1bdc9a5e995960421b604482015290519081900360640190fd5b6303c26700831115611b99576040805162461bcd60e51b8152602060048201526002602482015261131560f21b604482015290519081900360640190fd5b82821115611bd3576040805162461bcd60e51b8152602060048201526002602482015261141560f21b604482015290519081900360640190fd5b6012929092556013556020805460ff1916911515919091179055565b60048054604080516020601f6002600019610100600188161502019095169490940493840181900481028201810190925282815260609390929091830182828015610aab5780601f10610a8057610100808354040283529160200191610aab565b611c58613dc4565b15611c945760405162461bcd60e51b8152600401808060200182810382526026815260200180615ee96026913960400191505060405180910390fd5b611c9c613de5565b15611cd85760405162461bcd60e51b8152600401808060200182810382526026815260200180615ee96026913960400191505060405180910390fd5b601054604080516313f24daf60e01b815290516000926001600160a01b0316916313f24daf916004808301926020929190829003018186803b158015611d1d57600080fd5b505afa158015611d31573d6000803e3d6000fd5b505050506040513d6020811015611d4757600080fd5b5051601054604080516362cb3e1360e11b815290519293506000926001600160a01b039092169163c5967c2691600480820192602092909190829003018186803b158015611d9457600080fd5b505afa158015611da8573d6000803e3d6000fd5b505050506040513d6020811015611dbe57600080fd5b50516010546040805163900cf0cf60e01b815290519293506000926001600160a01b039092169163900cf0cf91600480820192602092909190829003018186803b158015611e0b57600080fd5b505afa158015611e1f573d6000803e3d6000fd5b505050506040513d6020811015611e3557600080fd5b50519050821580611e4d5750611e4b8184614215565b155b611e83576040805162461bcd60e51b8152602060048201526002602482015261574560f01b604482015290519081900360640190fd5b81421180611e9c5750610708611e998342613b5d565b11155b611ed2576040805162461bcd60e51b8152602060048201526002602482015261033360f41b604482015290519081900360640190fd5b80601a541415611f0e576040805162461bcd60e51b8152602060048201526002602482015261414360f01b604482015290519081900360640190fd5b8060195414611f4a576040805162461bcd60e51b815260206004820152600360248201526249503160e81b604482015290519081900360640190fd5b60145415611ffd57601054600e546001600160a01b0391821691611f719116826000613e06565b601454600e54611f8e916001600160a01b03909116908390613e06565b6010546014546040805163534a7e1d60e11b81526004810192909252516001600160a01b039092169163a694fc3a9160248082019260009290919082900301818387803b158015611fde57600080fd5b505af1158015611ff2573d6000803e3d6000fd5b505060006014555050505b601a55505043601c8190556000908152600c602090815260408083203284529091528082208054600160ff1991821681179092553384529190922080549091169091179055565b6000806000612054846007614ac2565b9150915081610f9357612065610ad9565b610a15565b6000610ac9612077613cd4565b84610f8a85604051806060016040528060258152602001615f7860259139600160006120a1613cd4565b6001600160a01b03908116825260208083019390935260409182016000908120918d1681529252902054919061417e565b60125481565b600f5460408051632587701560e11b81526001600160a01b0384811660048301529151600093610acd931691634b0ee02a916024808301926020929190829003018186803b15801561212957600080fd5b505afa15801561213d573d6000803e3d6000fd5b505050506040513d602081101561215357600080fd5b50516001600160a01b0384166000908152600d602052604090206009015490613c7a565b6000610ac9612184613cd4565b8484613f1e565b601454601054604080516370a0823160e01b8152306004820152905160009384936121e39391926001600160a01b03909116916370a08231916024808301926020929190829003018186803b15801561114857600080fd5b905060006121ef610ad9565b90508015806121fc575081155b1561220b578392505050610a1a565b600061169483610a098785613bba565b612223613dc4565b1561225f5760405162461bcd60e51b8152600401808060200182810382526026815260200180615ee96026913960400191505060405180910390fd5b612267613de5565b156122a35760405162461bcd60e51b8152600401808060200182810382526026815260200180615ee96026913960400191505060405180910390fd5b338015612418576122b2615bfa565b506001600160a01b038082166000908152600d6020908152604091829020825161018081018452815481526001820154928101929092526002810154909316918101919091526003820154606082015260048201546080820152600582015460a0820152600682015460c0820152600782015460e082015260088201546101008201526009820154610120820152600a820154610140820152600b909101546101608201526123608261099c565b608082015261236d611035565b606082019081526001600160a01b038381166000908152600d602090815260409182902085518155908501516001820155908401516002820180546001600160a01b0319169190931617909155905160038201556080820151600482015560a0820151600582015560c0820151600682015560e0820151600782015561010082015160088201556101208201516009820155610140820151600a82015561016090910151600b909101555b336000908152600d60205260409020805442101580612439575060205460ff165b61247a576040805162461bcd60e51b815260206004820152600d60248201526c5374696c6c206c6f636b65642160981b604482015290519081900360640190fd5b600084116124c9576040805162461bcd60e51b81526020600482015260176024820152762737903d32b9379030b6b7bab73a1030b63637bbb2b21760491b604482015290519081900360640190fd5b601054604080516313f24daf60e01b815290516000926001600160a01b0316916313f24daf916004808301926020929190829003018186803b15801561250e57600080fd5b505afa158015612522573d6000803e3d6000fd5b505050506040513d602081101561253857600080fd5b5051905080158061254b57506007820154155b8061255b57508160070154601c54115b6125965760405162461bcd60e51b8152600401808060200182810382526025815260200180615d846025913960400191505060405180910390fd5b61259f336119e8565b8514156125ae576125ae614bbf565b6125b9333087613f1e565b60058201546125c89086613c7a565b60058301556016546125da9086613c7a565b60165560006125e886612c2d565b60068401549091506125fa9082613c7a565b600684015560155461260c9082613c7a565b60155560175461261c9082613c7a565b6017554360088401556040805187815260208101839052815133927fcbc7c7858f9ab8ce22517d4b910042540172c3d579222cf6716e222f341ca371928290030190a2816126755761266d8561427c565b612675614d2a565b5050436000908152600c602090815260408083203284529091528082208054600160ff199182168117909255338452919092208054909116909117905550505050565b601d5481565b600b6020526000908152604090205460ff1681565b6126db613dc4565b156127175760405162461bcd60e51b8152600401808060200182810382526026815260200180615ee96026913960400191505060405180910390fd5b61271f613de5565b1561275b5760405162461bcd60e51b8152600401808060200182810382526026815260200180615ee96026913960400191505060405180910390fd5b3380156128d05761276a615bfa565b506001600160a01b038082166000908152600d6020908152604091829020825161018081018452815481526001820154928101929092526002810154909316918101919091526003820154606082015260048201546080820152600582015460a0820152600682015460c0820152600782015460e082015260088201546101008201526009820154610120820152600a820154610140820152600b909101546101608201526128188261099c565b6080820152612825611035565b606082019081526001600160a01b038381166000908152600d602090815260409182902085518155908501516001820155908401516002820180546001600160a01b0319169190931617909155905160038201556080820151600482015560a0820151600582015560c0820151600682015560e0820151600782015561010082015160088201556101208201516009820155610140820151600a82015561016090910151600b909101555b6000831161291f576040805162461bcd60e51b81526020600482015260176024820152762737903d32b9379030b6b7bab73a1030b63637bbb2b21760491b604482015290519081900360640190fd5b336000908152600d6020908152604080832060105482516313f24daf60e01b815292519194936001600160a01b03909116926313f24daf9260048083019392829003018186803b15801561297257600080fd5b505afa158015612986573d6000803e3d6000fd5b505050506040513d602081101561299c57600080fd5b505160058301549091501580156129cd57508015806129bd57506008820154155b806129cd57508160080154601b54115b612a085760405162461bcd60e51b8152600401808060200182810382526025815260200180615d396025913960400191505060405180910390fd5b601254841015612a185760125493505b6000612a244286613c7a565b600184018690558354909150811115612a3b578083555b6000612a468761218b565b600e54909150612a61906001600160a01b031633308a614ece565b612a6b3382614f28565b601060009054906101000a90046001600160a01b03166001600160a01b031663900cf0cf6040518163ffffffff1660e01b815260040160206040518083038186803b158015612ab957600080fd5b505afa158015612acd573d6000803e3d6000fd5b505050506040513d6020811015612ae357600080fd5b5051601a541480612af2575082155b15612b9857601054600e546001600160a01b0391821691612b169116826000613e06565b600e54612b2d906001600160a01b0316828a613e06565b6010546040805163534a7e1d60e11b8152600481018b905290516001600160a01b039092169163a694fc3a9160248082019260009290919082900301818387803b158015612b7a57600080fd5b505af1158015612b8e573d6000803e3d6000fd5b5050505050612ba9565b601454612ba59088613c7a565b6014555b4360078501556040805188815260208101839052815133927f90890809c654f11d6e72a28fa60149770a0d11ec6c92319d6ceb2bb0a4ea1a15928290030190a25050436000908152600c602090815260408083203284529091528082208054600160ff19918216811790925533845291909220805490911690911790555050505050565b601454601054604080516370a0823160e01b815230600482015290516000938493612c859391926001600160a01b03909116916370a08231916024808301926020929190829003018186803b15801561114857600080fd5b90506000612c91610ad9565b9050801580612c9e575081155b15612cad578392505050610a1a565b600061169482610a098786613bba565b612cc5613cd4565b6001600160a01b0316612cd6611acd565b6001600160a01b031614612d1f576040805162461bcd60e51b81526020600482018190526024820152600080516020615e35833981519152604482015290519081900360640190fd5b6001600160a01b03166000908152600b60205260409020805460ff19166001179055565b336000908152600b602052604090205460ff1680612d70575033612d65611acd565b6001600160a01b0316145b612dbc576040805162461bcd60e51b815260206004820152601860248201527718d85b1b195c881a5cc81b9bdd08185d5d1a1bdc9a5e995960421b604482015290519081900360640190fd5b6000612dc78361117a565b90508015612dd957612dd98382615018565b600f5460408051635a46d3b560e01b81526001600160a01b03868116600483015291516000939290921691635a46d3b591602480820192602092909190829003018186803b158015612e2a57600080fd5b505afa158015612e3e573d6000803e3d6000fd5b505050506040513d6020811015612e5457600080fd5b5051600f546040805163010158bb60e51b815233600482015290519293506001600160a01b039091169163202b176091602480820192602092909190829003018186803b158015612ea457600080fd5b505afa158015612eb8573d6000803e3d6000fd5b505050506040513d6020811015612ece57600080fd5b5051811115612fbe57600f546040805163579587b360e11b81526001600160a01b038781166004830152600060248301819052925193169263af2b0f669260448084019391929182900301818387803b158015612f2a57600080fd5b505af1158015612f3e573d6000803e3d6000fd5b5050600f5460408051635a46d3b560e01b81526001600160a01b0389811660048301529151919092169350635a46d3b592506024808301926020929190829003018186803b158015612f8f57600080fd5b505afa158015612fa3573d6000803e3d6000fd5b505050506040513d6020811015612fb957600080fd5b505190505b80156130da57600f546040805163579587b360e11b81526001600160a01b038781166004830152602482018790529151919092169163af2b0f6691604480830192600092919082900301818387803b15801561301957600080fd5b505af115801561302d573d6000803e3d6000fd5b5050600f5460408051635a46d3b560e01b81526001600160a01b0389811660048301529151600095506130b894509190921691635a46d3b5916024808301926020929190829003018186803b15801561308557600080fd5b505afa158015613099573d6000803e3d6000fd5b505050506040513d60208110156130af57600080fd5b50518390613b5d565b9050808411156130d3576130cc8482613b5d565b93506130d8565b600093505b505b60008311801561310457506001600160a01b0384166000908152600d602052604090206009015415155b15613113576131138484615018565b50505050565b6001600160a01b03918216600090815260016020908152604080832093909416825291909152205490565b6000610acd6131528361117a565b600f546040805163010158bb60e51b81526001600160a01b0387811660048301529151919092169163202b1760916024808301926020929190829003018186803b15801561114857600080fd5b601e81815481106131ac57fe5b600091825260209091206003909102018054600182015460029092015490925083565b6131d7613cd4565b6001600160a01b03166131e8611acd565b6001600160a01b031614613231576040805162461bcd60e51b81526020600482018190526024820152600080516020615e35833981519152604482015290519081900360640190fd5b6001600160a01b0381166132765760405162461bcd60e51b8152600401808060200182810382526026815260200180615ccb6026913960400191505060405180910390fd5b600a546040516001600160a01b038084169216907f8be0079c531659141344cd1fd0a4f28419497f9722a3daafe3b4186f6b6457e090600090a3600a80546001600160a01b0319166001600160a01b0392909216919091179055565b336000908152600b602052604090205460ff16806132ff5750336132f4611acd565b6001600160a01b0316145b61334b576040805162461bcd60e51b815260206004820152601860248201527718d85b1b195c881a5cc81b9bdd08185d5d1a1bdc9a5e995960421b604482015290519081900360640190fd5b6001600160a01b03831630141580613371575061336d60165461131d306119e8565b8111155b6133a7576040805162461bcd60e51b815260206004820152600260248201526120a360f11b604482015290519081900360640190fd5b600e546001600160a01b03848116911614156133f0576040805162461bcd60e51b81526020600482015260036024820152624d502d60e81b604482015290519081900360640190fd5b600f546001600160a01b0384811691161415806134685750601d54601854600f54604080516370a0823160e01b81523060048201529051613464949361131d9390926001600160a01b03909116916370a0823191602480820192602092909190829003018186803b158015610c4557600080fd5b8111155b61349e576040805162461bcd60e51b815260206004820152600260248201526120a360f11b604482015290519081900360640190fd5b601f5460009081905b808210156134ef57601f82815481106134bc57fe5b6000918252602090912001546001600160a01b03878116911614156134e457600192506134ef565b8160010191506134a7565b6001600160a01b0386163014806135135750600f546001600160a01b038781169116145b8061351b5750825b613551576040805162461bcd60e51b815260206004820152600260248201526115d360f21b604482015290519081900360640190fd5b6135656001600160a01b0387168686615115565b505050505050565b613575613dc4565b156135b15760405162461bcd60e51b8152600401808060200182810382526026815260200180615ee96026913960400191505060405180910390fd5b6135b9613de5565b156135f55760405162461bcd60e51b8152600401808060200182810382526026815260200180615ee96026913960400191505060405180910390fd5b33801561376a57613604615bfa565b506001600160a01b038082166000908152600d6020908152604091829020825161018081018452815481526001820154928101929092526002810154909316918101919091526003820154606082015260048201546080820152600582015460a0820152600682015460c0820152600782015460e082015260088201546101008201526009820154610120820152600a820154610140820152600b909101546101608201526136b28261099c565b60808201526136bf611035565b606082019081526001600160a01b038381166000908152600d602090815260409182902085518155908501516001820155908401516002820180546001600160a01b0319169190931617909155905160038201556080820151600482015560a0820151600582015560c0820151600682015560e0820151600782015561010082015160088201556101208201516009820155610140820151600a82015561016090910151600b909101555b601060009054906101000a90046001600160a01b03166001600160a01b03166313f24daf6040518163ffffffff1660e01b815260040160206040518083038186803b1580156137b857600080fd5b505afa1580156137cc573d6000803e3d6000fd5b505050506040513d60208110156137e257600080fd5b505161381f5760405162461bcd60e51b8152600401808060200182810382526021815260200180615da96021913960400191505060405180910390fd5b610e6b614d2a565b60006138323361117a565b600f5460408051635a46d3b560e01b815233600482015290519293506000926001600160a01b0390921691635a46d3b591602480820192602092909190829003018186803b15801561388357600080fd5b505afa158015613897573d6000803e3d6000fd5b505050506040513d60208110156138ad57600080fd5b5051600f546040805163010158bb60e51b815233600482015290519293506000926001600160a01b039092169163202b176091602480820192602092909190829003018186803b15801561390057600080fd5b505afa158015613914573d6000803e3d6000fd5b505050506040513d602081101561392a57600080fd5b50519050613936615bfa565b50336000908152600d60209081526040918290208251610180810184528154815260018201549281019290925260028101546001600160a01b0316928201929092526003820154606082015260048201546080820152600582015460a0820152600682015460c0820152600782015460e0820152600882015461010082015260098201546101208201819052600a830154610140830152600b90920154610160820152901515806139e657508183115b613a1d576040805162461bcd60e51b815260206004820152600360248201526212531560ea1b604482015290519081900360640190fd5b61012081015115613a3257613a323385615018565b8183111561311357600f546040805163579587b360e11b815233600482015260006024820181905291516001600160a01b039093169263af2b0f669260448084019391929182900301818387803b158015613a8c57600080fd5b505af1158015613aa0573d6000803e3d6000fd5b5050505050505050565b613ab2615c64565b601e613abc611035565b81548110613ac657fe5b90600052602060002090600302016040518060600160405290816000820154815260200160018201548152602001600282015481525050905090565b613b0a615c64565b601e613b1583611a03565b81548110613b1f57fe5b906000526020600020906003020160405180606001604052908160008201548152602001600182015481526020016002820154815250509050919050565b600082821115613bb4576040805162461bcd60e51b815260206004820152601e60248201527f536166654d6174683a207375627472616374696f6e206f766572666c6f770000604482015290519081900360640190fd5b50900390565b600082613bc957506000610acd565b82820282848281613bd657fe5b0414610f935760405162461bcd60e51b8152600401808060200182810382526021815260200180615dec6021913960400191505060405180910390fd5b6000808211613c69576040805162461bcd60e51b815260206004820152601a60248201527f536166654d6174683a206469766973696f6e206279207a65726f000000000000604482015290519081900360640190fd5b818381613c7257fe5b049392505050565b600082820183811015610f93576040805162461bcd60e51b815260206004820152601b60248201527f536166654d6174683a206164646974696f6e206f766572666c6f770000000000604482015290519081900360640190fd5b3390565b6001600160a01b038316613d1d5760405162461bcd60e51b8152600401808060200182810382526024815260200180615e9b6024913960400191505060405180910390fd5b6001600160a01b038216613d625760405162461bcd60e51b8152600401808060200182810382526022815260200180615cf16022913960400191505060405180910390fd5b6001600160a01b03808416600081815260016020908152604080832094871680845294825291829020859055815185815291517f8c5be1e5ebec7d5bd14f71427d1e84f3dd0314c0f7b2291e5b200ac8c7c3b9259281900390910190a3505050565b436000908152600c6020908152604080832032845290915290205460ff1690565b436000908152600c6020908152604080832033845290915290205460ff1690565b801580613e8c575060408051636eb1769f60e11b81523060048201526001600160a01b03848116602483015291519185169163dd62ed3e91604480820192602092909190829003018186803b158015613e5e57600080fd5b505afa158015613e72573d6000803e3d6000fd5b505050506040513d6020811015613e8857600080fd5b5051155b613ec75760405162461bcd60e51b8152600401808060200182810382526036815260200180615f0f6036913960400191505060405180910390fd5b604080516001600160a01b038416602482015260448082018490528251808303909101815260649091019091526020810180516001600160e01b031663095ea7b360e01b179052613f19908490615163565b505050565b60115460408051632364d3dd60e21b815290516000926001600160a01b031691638d934f74916004808301926020929190829003018186803b158015613f6357600080fd5b505afa158015613f77573d6000803e3d6000fd5b505050506040513d6020811015613f8d57600080fd5b505190506000613f9b611acd565b6001600160a01b0385166000908152600d6020526040902080549192509015806140e15750336000908152600b602052604090205460ff1680613fe657506001600160a01b03821633145b80613ff957506001600160a01b03831633145b8061400357503033145b8061402657506001600160a01b0386166000908152600b602052604090205460ff165b806140425750856001600160a01b0316826001600160a01b0316145b8061405e5750856001600160a01b0316836001600160a01b0316145b806140715750306001600160a01b038716145b8061409457506001600160a01b0385166000908152600b602052604090205460ff165b806140b05750846001600160a01b0316826001600160a01b0316145b806140cc5750846001600160a01b0316836001600160a01b0316145b806140df5750306001600160a01b038616145b155b156141735780541580614103575060028101546001600160a01b038781169116145b61413e5760405162461bcd60e51b8152600401808060200182810382526022815260200180615dca6022913960400191505060405180910390fd5b6002810180546001600160a01b0319169055601254600090614161904290613c7a565b8254909150811115614171578082555b505b613565868686615214565b6000818484111561420d5760405162461bcd60e51b81526004018080602001828103825283818151815260200191508051906020019080838360005b838110156141d25781810151838201526020016141ba565b50505050905090810190601f1680156141ff5780820380516001836020036101000a031916815260200191505b509250505060405180910390fd5b505050900390565b600080821161426b576040805162461bcd60e51b815260206004820152601860248201527f536166654d6174683a206d6f64756c6f206279207a65726f0000000000000000604482015290519081900360640190fd5b81838161427457fe5b069392505050565b600f5460408051632587701560e11b815230600482015290516000926001600160a01b031691634b0ee02a916024808301926020929190829003018186803b1580156142c757600080fd5b505afa1580156142db573d6000803e3d6000fd5b505050506040513d60208110156142f157600080fd5b5051601654909150156143105761430a3060165461536f565b60006016555b60155461438457601060009054906101000a90046001600160a01b03166001600160a01b031663b88a802f6040518163ffffffff1660e01b8152600401600060405180830381600087803b15801561436757600080fd5b505af115801561437b573d6000803e3d6000fd5b505050506146ea565b600e54604080516370a0823160e01b815230600482015290516000926001600160a01b0316916370a08231916024808301926020929190829003018186803b1580156143cf57600080fd5b505afa1580156143e3573d6000803e3d6000fd5b505050506040513d60208110156143f957600080fd5b50516015805460009091556014549192509081111561442c57601454614420908290613b5d565b60006014559050614440565b6014546144399082613b5d565b6014555060005b801561467e5760105460408051632e1a7d4d60e01b81526004810184905290516001600160a01b0390921691632e1a7d4d9160248082019260009290919082900301818387803b15801561449357600080fd5b505af11580156144a7573d6000803e3d6000fd5b5050600e54604080516370a0823160e01b81523060048201529051600094506001600160a01b0390921692506370a08231916024808301926020929190829003018186803b1580156144f857600080fd5b505afa15801561450c573d6000803e3d6000fd5b505050506040513d602081101561452257600080fd5b5051905060006145328285613b5d565b905060006145408483613b5d565b90506000601160009054906101000a90046001600160a01b03166001600160a01b0316638d934f746040518163ffffffff1660e01b815260040160206040518083038186803b15801561459257600080fd5b505afa1580156145a6573d6000803e3d6000fd5b505050506040513d60208110156145bc57600080fd5b5051905087158061465857506000821180156146585750600e5460408051636eb1769f60e11b81526001600160a01b03848116600483015230602483015291518593929092169163dd62ed3e91604480820192602092909190829003018186803b15801561462957600080fd5b505afa15801561463d573d6000803e3d6000fd5b505050506040513d602081101561465357600080fd5b505110155b1561467557600e54614675906001600160a01b0316823085614ece565b505050506146e7565b601060009054906101000a90046001600160a01b03166001600160a01b031663b88a802f6040518163ffffffff1660e01b8152600401600060405180830381600087803b1580156146ce57600080fd5b505af11580156146e2573d6000803e3d6000fd5b505050505b50505b600f546040805163010158bb60e51b815230600482015290516000926147b3926001600160a01b039091169163202b176091602480820192602092909190829003018186803b15801561473c57600080fd5b505afa158015614750573d6000803e3d6000fd5b505050506040513d602081101561476657600080fd5b5051600f5460408051635a46d3b560e01b815230600482015290516001600160a01b0390921691635a46d3b591602480820192602092909190829003018186803b158015610c4557600080fd5b9050801561482757600f546040805163579587b360e11b81523060048201526024810184905290516001600160a01b039092169163af2b0f669160448082019260009290919082900301818387803b15801561480e57600080fd5b505af1158015614822573d6000803e3d6000fd5b505050505b600f5460408051632587701560e11b815230600482015290516000926001600160a01b031691634b0ee02a916024808301926020929190829003018186803b15801561487257600080fd5b505afa158015614886573d6000803e3d6000fd5b505050506040513d602081101561489c57600080fd5b5051905060006148ac8285613b5d565b6018549091506148bc9082613c7a565b60185560006148c9613aaa565b60400151905060006148d9610ad9565b905060008115614908576149036148fc83610a0987670de0b6b3a7640000613bba565b8490613c7a565b61490a565b825b9050816149965760115460408051632364d3dd60e21b81529051614996926001600160a01b031691638d934f74916004808301926020929190829003018186803b15801561495757600080fd5b505afa15801561496b573d6000803e3d6000fd5b505050506040513d602081101561498157600080fd5b5051600f546001600160a01b03169086615115565b61499e615c64565b50604080516060810182524381526020808201878152828401858152601e805460018101825560009190915284517f50bb669a95c7b50b7e8a6f09454034b2b14cf2b85c730dca9a539ca82cb6e35060039092029182015591517f50bb669a95c7b50b7e8a6f09454034b2b14cf2b85c730dca9a539ca82cb6e351830155517f50bb669a95c7b50b7e8a6f09454034b2b14cf2b85c730dca9a539ca82cb6e35290910155601054835163900cf0cf60e01b8152935192936001600160a01b039091169263900cf0cf92600480840193919291829003018186803b158015614a8457600080fd5b505afa158015614a98573d6000803e3d6000fd5b505050506040513d6020811015614aae57600080fd5b5051601955505043601b5550505050505050565b60008060008411614b13576040805162461bcd60e51b815260206004820152601660248201527504552433230536e617073686f743a20696420697320360541b604482015290519081900360640190fd5b614b1d600961546b565b841115614b71576040805162461bcd60e51b815260206004820152601d60248201527f4552433230536e617073686f743a206e6f6e6578697374656e74206964000000604482015290519081900360640190fd5b6000614b7d848661546f565b8454909150811415614b96576000809250925050614bb8565b6001846001018281548110614ba757fe5b906000526020600020015492509250505b9250929050565b336000908152600d60205260409020600401548015614d2757336000908152600d6020526040812060040155601854614bf89082613b5d565b60185560105460408051638278b53b60e01b8152905160009283926001600160a01b0390911691638278b53b91600480820192602092909190829003018186803b158015614c4557600080fd5b505afa158015614c59573d6000803e3d6000fd5b505050506040513d6020811015614c6f57600080fd5b505190506064811115614cae576040805162461bcd60e51b815260206004820152600260248201526104c560f41b604482015290519081900360640190fd5b614cbd6064610a098584613bba565b9150614cc93383615510565b614cea33614cd78585613b5d565b600f546001600160a01b03169190615115565b6040805184815260208101849052815133927fd6f2c8500df5b44f11e9e48b91ff9f1b9d81bc496d55570c2b1b75bf65243f51928290030190a250505b50565b336000908152600d602052604090206005810154614d89576040805162461bcd60e51b81526020600482015260176024820152762737903d32b9379030b6b7bab73a1030b63637bbb2b21760491b604482015290519081900360640190fd5b601060009054906101000a90046001600160a01b03166001600160a01b03166313f24daf6040518163ffffffff1660e01b815260040160206040518083038186803b158015614dd757600080fd5b505afa158015614deb573d6000803e3d6000fd5b505050506040513d6020811015614e0157600080fd5b50511580614e1457508060080154601b54115b614e4f5760405162461bcd60e51b8152600401808060200182810382526033815260200180615f456033913960400191505060405180910390fd5b6006810154601754614e619082613b5d565b6017556005820180546000918290556006840191909155600e54614e8f906001600160a01b03163384615115565b6040805182815260208101849052815133927ff279e6a1f5e320cca91135676d9cb6e44ca8a08c0b88342bcdb1144f6511b568928290030190a2505050565b604080516001600160a01b0380861660248301528416604482015260648082018490528251808303909101815260849091019091526020810180516001600160e01b03166323b872dd60e01b179052613113908590615163565b6001600160a01b038216614f83576040805162461bcd60e51b815260206004820152601f60248201527f45524332303a206d696e7420746f20746865207a65726f206164647265737300604482015290519081900360640190fd5b614f8f600083836155d6565b600254614f9c9082613c7a565b6002556001600160a01b038216600090815260208190526040902054614fc29082613c7a565b6001600160a01b0383166000818152602081815260408083209490945583518581529351929391927fddf252ad1be2c89b69c2b068fc378daa952ba7f163c4a11628f55a4df523b3ef9281900390910190a35050565b6001600160a01b0382166000908152600d60205260409020600981015461506c576040805162461bcd60e51b815260206004820152600360248201526212531560ea1b604482015290519081900360640190fd5b806009015482111561508057806009015491505b601d5482111561509057601d5491505b600f546150a7906001600160a01b03168484615115565b60098101546150b69083613b5d565b600982015542600b820155601d546150ce9083613b5d565b601d556040805183815290516001600160a01b038516917fcc859b0a9fae23554e2cab73a0ac6a7833017884a83158937dc556104bbc5e2a919081900360200190a2505050565b604080516001600160a01b038416602482015260448082018490528251808303909101815260649091019091526020810180516001600160e01b031663a9059cbb60e01b179052613f199084905b60606151b8826040518060400160405280602081526020017f5361666545524332303a206c6f772d6c6576656c2063616c6c206661696c6564815250856001600160a01b03166158e49092919063ffffffff16565b805190915015613f19578080602001905160208110156151d757600080fd5b5051613f195760405162461bcd60e51b815260040180806020018281038252602a815260200180615ebf602a913960400191505060405180910390fd5b6001600160a01b0383166152595760405162461bcd60e51b8152600401808060200182810382526025815260200180615e766025913960400191505060405180910390fd5b6001600160a01b03821661529e5760405162461bcd60e51b8152600401808060200182810382526023815260200180615c866023913960400191505060405180910390fd5b6152a98383836155d6565b6152e681604051806060016040528060268152602001615d13602691396001600160a01b038616600090815260208190526040902054919061417e565b6001600160a01b0380851660009081526020819052604080822093909355908416815220546153159082613c7a565b6001600160a01b038084166000818152602081815260409182902094909455805185815290519193928716927fddf252ad1be2c89b69c2b068fc378daa952ba7f163c4a11628f55a4df523b3ef92918290030190a3505050565b6001600160a01b0382166153b45760405162461bcd60e51b8152600401808060200182810382526021815260200180615e556021913960400191505060405180910390fd5b6153c0826000836155d6565b6153fd81604051806060016040528060228152602001615ca9602291396001600160a01b038516600090815260208190526040902054919061417e565b6001600160a01b0383166000908152602081905260409020556002546154239082613b5d565b6002556040805182815290516000916001600160a01b038516917fddf252ad1be2c89b69c2b068fc378daa952ba7f163c4a11628f55a4df523b3ef9181900360200190a35050565b5490565b815460009061548057506000610acd565b82546000905b808210156154cf57600061549a83836158fb565b9050848682815481106154a957fe5b906000526020600020015411156154c2578091506154c9565b8060010192505b50615486565b6000821180156154f75750838560018403815481106154ea57fe5b9060005260206000200154145b156155085750600019019050610acd565b509050610acd565b6001600160a01b0382166000908152600d60205260408120906155328461117a565b600983015490915015615549576155498482615018565b42600a830181905560098301546155609085613c7a565b6009840155601d546155729085613c7a565b601d55600a830154600b840154101561559057600a830154600b8401555b6040805185815290516001600160a01b038716917f31f510460ec42dc1b233b63e98ed6908f97d128910f5ac0ccab67f78a7af8c74919081900360200190a25050505050565b826001600160a01b03811615615754576155ee615bfa565b506001600160a01b038082166000908152600d6020908152604091829020825161018081018452815481526001820154928101929092526002810154909316918101919091526003820154606082015260048201546080820152600582015460a0820152600682015460c0820152600782015460e082015260088201546101008201526009820154610120820152600a820154610140820152600b9091015461016082015261569c8261099c565b60808201526156a9611035565b606082019081526001600160a01b038381166000908152600d602090815260409182902085518155908501516001820155908401516002820180546001600160a01b0319169190931617909155905160038201556080820151600482015560a0820151600582015560c0820151600682015560e0820151600782015561010082015160088201556101208201516009820155610140820151600a82015561016090910151600b909101555b826001600160a01b038116156158d25761576c615bfa565b506001600160a01b038082166000908152600d6020908152604091829020825161018081018452815481526001820154928101929092526002810154909316918101919091526003820154606082015260048201546080820152600582015460a0820152600682015460c0820152600782015460e082015260088201546101008201526009820154610120820152600a820154610140820152600b9091015461016082015261581a8261099c565b6080820152615827611035565b606082019081526001600160a01b038381166000908152600d602090815260409182902085518155908501516001820155908401516002820180546001600160a01b0319169190931617909155905160038201556080820151600482015560a0820151600582015560c0820151600682015560e0820151600782015561010082015160088201556101208201516009820155610140820151600a82015561016090910151600b909101555b6158dd858585615920565b5050505050565b60606158f38484600085615978565b949350505050565b6000600280830660028506018161590e57fe5b04600283046002850401019392505050565b61592b838383613f19565b6001600160a01b03831661594f5761594282615ad4565b61594a615afe565b613f19565b6001600160a01b0382166159665761594283615ad4565b61596f83615ad4565b613f1982615ad4565b6060824710156159b95760405162461bcd60e51b8152600401808060200182810382526026815260200180615d5e6026913960400191505060405180910390fd5b6159c285615b0d565b615a13576040805162461bcd60e51b815260206004820152601d60248201527f416464726573733a2063616c6c20746f206e6f6e2d636f6e7472616374000000604482015290519081900360640190fd5b60006060866001600160a01b031685876040518082805190602001908083835b60208310615a525780518252601f199092019160209182019101615a33565b6001836020036101000a03801982511681845116808217855250505050505090500191505060006040518083038185875af1925050503d8060008114615ab4576040519150601f19603f3d011682016040523d82523d6000602084013e615ab9565b606091505b5091509150615ac9828286615b13565b979650505050505050565b6001600160a01b0381166000908152600660205260409020614d2790615af9836119e8565b615b79565b615b0b6007615af9610ad9565b565b3b151590565b60608315615b22575081610f93565b825115615b325782518084602001fd5b60405162461bcd60e51b81526020600482018181528451602484015284518593919283926044019190850190808383600083156141d25781810151838201526020016141ba565b6000615b85600961546b565b905080615b9184615bc5565b1015613f19578254600180820185556000858152602080822090930193909355938401805494850181558252902090910155565b8054600090615bd657506000610a1a565b815482906000198101908110615be857fe5b90600052602060002001549050610a1a565b604051806101800160405280600081526020016000815260200160006001600160a01b031681526020016000815260200160008152602001600081526020016000815260200160008152602001600081526020016000815260200160008152602001600081525090565b6040518060600160405280600081526020016000815260200160008152509056fe45524332303a207472616e7366657220746f20746865207a65726f206164647265737345524332303a206275726e20616d6f756e7420657863656564732062616c616e63654f776e61626c653a206e6577206f776e657220697320746865207a65726f206164647265737345524332303a20617070726f766520746f20746865207a65726f206164647265737345524332303a207472616e7366657220616d6f756e7420657863656564732062616c616e636543616e6e6f74207374616b65207769746820612077697468647261772070656e64696e672e416464726573733a20696e73756666696369656e742062616c616e636520666f722063616c6c43616e6e6f7420776974686472617720776974682061207374616b652070656e64696e672e43616c6c207265717565737453656c6c546f5468656f727920696e73746561642e526563656976657220646964206e6f7420617070726f7665207472616e736665722e536166654d6174683a206d756c7469706c69636174696f6e206f766572666c6f7745524332303a207472616e7366657220616d6f756e74206578636565647320616c6c6f77616e63654f776e61626c653a2063616c6c6572206973206e6f7420746865206f776e657245524332303a206275726e2066726f6d20746865207a65726f206164647265737345524332303a207472616e736665722066726f6d20746865207a65726f206164647265737345524332303a20617070726f76652066726f6d20746865207a65726f20616464726573735361666545524332303a204552433230206f7065726174696f6e20646964206e6f742073756363656564436f6e747261637447756172643a206f6e6520626c6f636b2c206f6e652066756e6374696f6e5361666545524332303a20617070726f76652066726f6d206e6f6e2d7a65726f20746f206e6f6e2d7a65726f20616c6c6f77616e6365496e69746961746f7220506172742031206e6f74207965742063616c6c6564206f722063616c6c656420746f6f20736f6f6e2e45524332303a2064656372656173656420616c6c6f77616e63652062656c6f77207a65726fa26469706673582212205ab28eb5d80f3a5fb606207fe7ff7c75b24dc1c165a1d3c0f1f9ea7e47bbc48464736f6c634300060c0033",
  "linkReferences": {},
  "deployedLinkReferences": {}
}