{
  "_format": "hh-sol-artifact-1",
  "contractName": "Master",
  "sourceName": "contracts/Master.sol",
  "abi": [
    {
      "inputs": [
        {
          "internalType": "contract IERC20Lockable",
          "name": "_theory",
          "type": "address"
        },
        {
          "internalType": "contract IERC20Lockable",
          "name": "_game",
          "type": "address"
        },
        {
          "internalType": "contract ITheoretics",
          "name": "_theoretics",
          "type": "address"
        },
        {
          "internalType": "address",
          "name": "_communityFund",
          "type": "address"
        }
      ],
      "stateMutability": "nonpayable",
      "type": "constructor"
    },
    {
      "anonymous": false,
      "inputs": [
        {
          "indexed": true,
          "internalType": "address",
          "name": "owner",
          "type": "address"
        },
        {
          "indexed": true,
          "internalType": "address",
          "name": "spender",
          "type": "address"
        },
        {
          "indexed": false,
          "internalType": "uint256",
          "name": "value",
          "type": "uint256"
        }
      ],
      "name": "Approval",
      "type": "event"
    },
    {
      "anonymous": false,
      "inputs": [
        {
          "indexed": true,
          "internalType": "address",
          "name": "user",
          "type": "address"
        },
        {
          "indexed": false,
          "internalType": "uint256",
          "name": "amountInTheory",
          "type": "uint256"
        },
        {
          "indexed": false,
          "internalType": "uint256",
          "name": "amountOutMaster",
          "type": "uint256"
        }
      ],
      "name": "Deposit",
      "type": "event"
    },
    {
      "anonymous": false,
      "inputs": [
        {
          "indexed": true,
          "internalType": "address",
          "name": "previousOwner",
          "type": "address"
        },
        {
          "indexed": true,
          "internalType": "address",
          "name": "newOwner",
          "type": "address"
        }
      ],
      "name": "OwnershipTransferred",
      "type": "event"
    },
    {
      "anonymous": false,
      "inputs": [
        {
          "indexed": true,
          "internalType": "address",
          "name": "user",
          "type": "address"
        },
        {
          "indexed": false,
          "internalType": "uint256",
          "name": "reward",
          "type": "uint256"
        },
        {
          "indexed": false,
          "internalType": "uint256",
          "name": "lockAmount",
          "type": "uint256"
        }
      ],
      "name": "RewardPaid",
      "type": "event"
    },
    {
      "anonymous": false,
      "inputs": [
        {
          "indexed": false,
          "internalType": "uint256",
          "name": "id",
          "type": "uint256"
        }
      ],
      "name": "Snapshot",
      "type": "event"
    },
    {
      "anonymous": false,
      "inputs": [
        {
          "indexed": true,
          "internalType": "address",
          "name": "from",
          "type": "address"
        },
        {
          "indexed": true,
          "internalType": "address",
          "name": "to",
          "type": "address"
        },
        {
          "indexed": false,
          "internalType": "uint256",
          "name": "value",
          "type": "uint256"
        }
      ],
      "name": "Transfer",
      "type": "event"
    },
    {
      "anonymous": false,
      "inputs": [
        {
          "indexed": true,
          "internalType": "address",
          "name": "user",
          "type": "address"
        },
        {
          "indexed": false,
          "internalType": "uint256",
          "name": "amountInMaster",
          "type": "uint256"
        },
        {
          "indexed": false,
          "internalType": "uint256",
          "name": "amountOutTheory",
          "type": "uint256"
        }
      ],
      "name": "Withdraw",
      "type": "event"
    },
    {
      "anonymous": false,
      "inputs": [
        {
          "indexed": true,
          "internalType": "address",
          "name": "user",
          "type": "address"
        },
        {
          "indexed": false,
          "internalType": "uint256",
          "name": "amountInMaster",
          "type": "uint256"
        }
      ],
      "name": "WithdrawRequest",
      "type": "event"
    },
    {
      "inputs": [
        {
          "internalType": "address",
          "name": "_toAdd",
          "type": "address"
        }
      ],
      "name": "addAuthorized",
      "outputs": [],
      "stateMutability": "nonpayable",
      "type": "function"
    },
    {
      "inputs": [
        {
          "internalType": "address",
          "name": "owner",
          "type": "address"
        },
        {
          "internalType": "address",
          "name": "spender",
          "type": "address"
        }
      ],
      "name": "allowance",
      "outputs": [
        {
          "internalType": "uint256",
          "name": "",
          "type": "uint256"
        }
      ],
      "stateMutability": "view",
      "type": "function"
    },
    {
      "inputs": [
        {
          "internalType": "address",
          "name": "userAddress",
          "type": "address"
        }
      ],
      "name": "anyGameAvailableToClaim",
      "outputs": [
        {
          "internalType": "bool",
          "name": "",
          "type": "bool"
        }
      ],
      "stateMutability": "view",
      "type": "function"
    },
    {
      "inputs": [
        {
          "internalType": "address",
          "name": "spender",
          "type": "address"
        },
        {
          "internalType": "uint256",
          "name": "amount",
          "type": "uint256"
        }
      ],
      "name": "approve",
      "outputs": [
        {
          "internalType": "bool",
          "name": "",
          "type": "bool"
        }
      ],
      "stateMutability": "nonpayable",
      "type": "function"
    },
    {
      "inputs": [
        {
          "internalType": "address",
          "name": "",
          "type": "address"
        }
      ],
      "name": "authorized",
      "outputs": [
        {
          "internalType": "bool",
          "name": "",
          "type": "bool"
        }
      ],
      "stateMutability": "view",
      "type": "function"
    },
    {
      "inputs": [
        {
          "internalType": "address",
          "name": "account",
          "type": "address"
        }
      ],
      "name": "balanceOf",
      "outputs": [
        {
          "internalType": "uint256",
          "name": "",
          "type": "uint256"
        }
      ],
      "stateMutability": "view",
      "type": "function"
    },
    {
      "inputs": [
        {
          "internalType": "address",
          "name": "account",
          "type": "address"
        },
        {
          "internalType": "uint256",
          "name": "snapshotId",
          "type": "uint256"
        }
      ],
      "name": "balanceOfAt",
      "outputs": [
        {
          "internalType": "uint256",
          "name": "",
          "type": "uint256"
        }
      ],
      "stateMutability": "view",
      "type": "function"
    },
    {
      "inputs": [
        {
          "internalType": "uint256",
          "name": "amountInTheory",
          "type": "uint256"
        },
        {
          "internalType": "uint256",
          "name": "lockTime",
          "type": "uint256"
        }
      ],
      "name": "buyFromTheory",
      "outputs": [],
      "stateMutability": "nonpayable",
      "type": "function"
    },
    {
      "inputs": [],
      "name": "claimGame",
      "outputs": [],
      "stateMutability": "nonpayable",
      "type": "function"
    },
    {
      "inputs": [],
      "name": "communityFund",
      "outputs": [
        {
          "internalType": "address",
          "name": "",
          "type": "address"
        }
      ],
      "stateMutability": "view",
      "type": "function"
    },
    {
      "inputs": [],
      "name": "decimals",
      "outputs": [
        {
          "internalType": "uint8",
          "name": "",
          "type": "uint8"
        }
      ],
      "stateMutability": "view",
      "type": "function"
    },
    {
      "inputs": [
        {
          "internalType": "address",
          "name": "spender",
          "type": "address"
        },
        {
          "internalType": "uint256",
          "name": "subtractedValue",
          "type": "uint256"
        }
      ],
      "name": "decreaseAllowance",
      "outputs": [
        {
          "internalType": "bool",
          "name": "",
          "type": "bool"
        }
      ],
      "stateMutability": "nonpayable",
      "type": "function"
    },
    {
      "inputs": [],
      "name": "extraTheoryAdded",
      "outputs": [
        {
          "internalType": "uint256",
          "name": "",
          "type": "uint256"
        }
      ],
      "stateMutability": "view",
      "type": "function"
    },
    {
      "inputs": [],
      "name": "extraTheoryStakeRequested",
      "outputs": [
        {
          "internalType": "uint256",
          "name": "",
          "type": "uint256"
        }
      ],
      "stateMutability": "view",
      "type": "function"
    },
    {
      "inputs": [],
      "name": "extraTheoryWithdrawRequested",
      "outputs": [
        {
          "internalType": "uint256",
          "name": "",
          "type": "uint256"
        }
      ],
      "stateMutability": "view",
      "type": "function"
    },
    {
      "inputs": [],
      "name": "game",
      "outputs": [
        {
          "internalType": "contract IERC20Lockable",
          "name": "",
          "type": "address"
        }
      ],
      "stateMutability": "view",
      "type": "function"
    },
    {
      "inputs": [
        {
          "internalType": "address",
          "name": "userAddress",
          "type": "address"
        }
      ],
      "name": "gameAvailableToClaim",
      "outputs": [
        {
          "internalType": "uint256",
          "name": "",
          "type": "uint256"
        }
      ],
      "stateMutability": "view",
      "type": "function"
    },
    {
      "inputs": [
        {
          "internalType": "address",
          "name": "spender",
          "type": "address"
        },
        {
          "internalType": "uint256",
          "name": "addedValue",
          "type": "uint256"
        }
      ],
      "name": "increaseAllowance",
      "outputs": [
        {
          "internalType": "bool",
          "name": "",
          "type": "bool"
        }
      ],
      "stateMutability": "nonpayable",
      "type": "function"
    },
    {
      "inputs": [],
      "name": "initiatePart1",
      "outputs": [],
      "stateMutability": "nonpayable",
      "type": "function"
    },
    {
      "inputs": [],
      "name": "initiatePart2",
      "outputs": [],
      "stateMutability": "nonpayable",
      "type": "function"
    },
    {
      "inputs": [
        {
          "internalType": "address",
          "name": "from",
          "type": "address"
        },
        {
          "internalType": "address",
          "name": "to",
          "type": "address"
        },
        {
          "internalType": "uint256",
          "name": "amount",
          "type": "uint256"
        },
        {
          "internalType": "uint256",
          "name": "lockTo",
          "type": "uint256"
        },
        {
          "internalType": "bool",
          "name": "lockAfter",
          "type": "bool"
        }
      ],
      "name": "lockAndTransferFrom",
      "outputs": [
        {
          "internalType": "bool",
          "name": "",
          "type": "bool"
        }
      ],
      "stateMutability": "nonpayable",
      "type": "function"
    },
    {
      "inputs": [
        {
          "internalType": "uint256",
          "name": "_share",
          "type": "uint256"
        }
      ],
      "name": "masterToTheory",
      "outputs": [
        {
          "internalType": "uint256",
          "name": "",
          "type": "uint256"
        }
      ],
      "stateMutability": "view",
      "type": "function"
    },
    {
      "inputs": [
        {
          "internalType": "uint256",
          "name": "_share",
          "type": "uint256"
        },
        {
          "internalType": "uint256",
          "name": "totalGovernanceToken",
          "type": "uint256"
        },
        {
          "internalType": "uint256",
          "name": "totalShares",
          "type": "uint256"
        }
      ],
      "name": "masterToTheoryOwed",
      "outputs": [
        {
          "internalType": "uint256",
          "name": "",
          "type": "uint256"
        }
      ],
      "stateMutability": "view",
      "type": "function"
    },
    {
      "inputs": [],
      "name": "minLockTime",
      "outputs": [
        {
          "internalType": "uint256",
          "name": "",
          "type": "uint256"
        }
      ],
      "stateMutability": "view",
      "type": "function"
    },
    {
      "inputs": [],
      "name": "name",
      "outputs": [
        {
          "internalType": "string",
          "name": "",
          "type": "string"
        }
      ],
      "stateMutability": "view",
      "type": "function"
    },
    {
      "inputs": [],
      "name": "owner",
      "outputs": [
        {
          "internalType": "address",
          "name": "",
          "type": "address"
        }
      ],
      "stateMutability": "view",
      "type": "function"
    },
    {
      "inputs": [
        {
          "internalType": "address",
          "name": "_toRemove",
          "type": "address"
        }
      ],
      "name": "removeAuthorized",
      "outputs": [],
      "stateMutability": "nonpayable",
      "type": "function"
    },
    {
      "inputs": [],
      "name": "renounceOwnership",
      "outputs": [],
      "stateMutability": "nonpayable",
      "type": "function"
    },
    {
      "inputs": [
        {
          "internalType": "uint256",
          "name": "amountInMaster",
          "type": "uint256"
        }
      ],
      "name": "requestSellToTheory",
      "outputs": [],
      "stateMutability": "nonpayable",
      "type": "function"
    },
    {
      "inputs": [],
      "name": "sellToTheory",
      "outputs": [],
      "stateMutability": "nonpayable",
      "type": "function"
    },
    {
      "inputs": [
        {
          "internalType": "uint256",
          "name": "amount",
          "type": "uint256"
        }
      ],
      "name": "stakeExternalTheory",
      "outputs": [],
      "stateMutability": "nonpayable",
      "type": "function"
    },
    {
      "inputs": [],
      "name": "symbol",
      "outputs": [
        {
          "internalType": "string",
          "name": "",
          "type": "string"
        }
      ],
      "stateMutability": "view",
      "type": "function"
    },
    {
      "inputs": [],
      "name": "theoretics",
      "outputs": [
        {
          "internalType": "contract ITheoretics",
          "name": "",
          "type": "address"
        }
      ],
      "stateMutability": "view",
      "type": "function"
    },
    {
      "inputs": [],
      "name": "theory",
      "outputs": [
        {
          "internalType": "contract IERC20Lockable",
          "name": "",
          "type": "address"
        }
      ],
      "stateMutability": "view",
      "type": "function"
    },
    {
      "inputs": [
        {
          "internalType": "uint256",
          "name": "_amount",
          "type": "uint256"
        }
      ],
      "name": "theoryToMaster",
      "outputs": [
        {
          "internalType": "uint256",
          "name": "",
          "type": "uint256"
        }
      ],
      "stateMutability": "view",
      "type": "function"
    },
    {
      "inputs": [
        {
          "internalType": "uint256",
          "name": "_amount",
          "type": "uint256"
        },
        {
          "internalType": "uint256",
          "name": "totalGovernanceToken",
          "type": "uint256"
        },
        {
          "internalType": "uint256",
          "name": "totalShares",
          "type": "uint256"
        }
      ],
      "name": "theoryToMasterOwed",
      "outputs": [
        {
          "internalType": "uint256",
          "name": "",
          "type": "uint256"
        }
      ],
      "stateMutability": "view",
      "type": "function"
    },
    {
      "inputs": [],
      "name": "totalGameClaimed",
      "outputs": [
        {
          "internalType": "uint256",
          "name": "",
          "type": "uint256"
        }
      ],
      "stateMutability": "view",
      "type": "function"
    },
    {
      "inputs": [],
      "name": "totalSupply",
      "outputs": [
        {
          "internalType": "uint256",
          "name": "",
          "type": "uint256"
        }
      ],
      "stateMutability": "view",
      "type": "function"
    },
    {
      "inputs": [
        {
          "internalType": "uint256",
          "name": "snapshotId",
          "type": "uint256"
        }
      ],
      "name": "totalSupplyAt",
      "outputs": [
        {
          "internalType": "uint256",
          "name": "",
          "type": "uint256"
        }
      ],
      "stateMutability": "view",
      "type": "function"
    },
    {
      "inputs": [
        {
          "internalType": "address",
          "name": "recipient",
          "type": "address"
        },
        {
          "internalType": "uint256",
          "name": "amount",
          "type": "uint256"
        }
      ],
      "name": "transfer",
      "outputs": [
        {
          "internalType": "bool",
          "name": "",
          "type": "bool"
        }
      ],
      "stateMutability": "nonpayable",
      "type": "function"
    },
    {
      "inputs": [
        {
          "internalType": "address",
          "name": "sender",
          "type": "address"
        },
        {
          "internalType": "address",
          "name": "recipient",
          "type": "address"
        },
        {
          "internalType": "uint256",
          "name": "amount",
          "type": "uint256"
        }
      ],
      "name": "transferFrom",
      "outputs": [
        {
          "internalType": "bool",
          "name": "",
          "type": "bool"
        }
      ],
      "stateMutability": "nonpayable",
      "type": "function"
    },
    {
      "inputs": [
        {
          "internalType": "address",
          "name": "newOwner",
          "type": "address"
        }
      ],
      "name": "transferOwnership",
      "outputs": [],
      "stateMutability": "nonpayable",
      "type": "function"
    },
    {
      "inputs": [
        {
          "internalType": "contract IERC20",
          "name": "_token",
          "type": "address"
        },
        {
          "internalType": "address",
          "name": "to",
          "type": "address"
        },
        {
          "internalType": "uint256",
          "name": "amount",
          "type": "uint256"
        }
      ],
      "name": "transferToken",
      "outputs": [],
      "stateMutability": "nonpayable",
      "type": "function"
    },
    {
      "inputs": [],
      "name": "unlockedClaimPenalty",
      "outputs": [
        {
          "internalType": "uint256",
          "name": "",
          "type": "uint256"
        }
      ],
      "stateMutability": "view",
      "type": "function"
    },
    {
      "inputs": [
        {
          "internalType": "address",
          "name": "",
          "type": "address"
        }
      ],
      "name": "userInfo",
      "outputs": [
        {
          "internalType": "uint256",
          "name": "lockToTime",
          "type": "uint256"
        },
        {
          "internalType": "uint256",
          "name": "chosenLockTime",
          "type": "uint256"
        },
        {
          "internalType": "address",
          "name": "approveTransferFrom",
          "type": "address"
        },
        {
          "internalType": "uint256",
          "name": "lastTotalGameClaimed",
          "type": "uint256"
        },
        {
          "internalType": "uint256",
          "name": "withdrawRequested",
          "type": "uint256"
        },
        {
          "internalType": "uint256",
          "name": "lastWithdrawRequestBlock",
          "type": "uint256"
        }
      ],
      "stateMutability": "view",
      "type": "function"
    },
    {
      "inputs": [
        {
          "internalType": "uint256",
          "name": "amount",
          "type": "uint256"
        }
      ],
      "name": "withdrawExternalTheory",
      "outputs": [],
      "stateMutability": "nonpayable",
      "type": "function"
    }
  ],
  "bytecode": "0x60806040523480156200001157600080fd5b5060405162004a8e38038062004a8e833981810160405260808110156200003757600080fd5b50805160208083015160408085015160609095015181518083018352600c81526b26b0b9ba32b9102a37b5b2b760a11b8186019081528351808501909452600684526526a0a9aa22a960d11b9584019590955280519596939593949193909291620000a691600391906200018d565b508051620000bc9060049060208401906200018d565b50506005805460ff19166012179055506000620000d862000189565b600a80546001600160a01b0319166001600160a01b038316908117909155604051919250906000907f8be0079c531659141344cd1fd0a4f28419497f9722a3daafe3b4186f6b6457e0908290a350600f80546001600160a01b039586166001600160a01b03199182161790915560108054948616948216949094179093556011805492851692841692909217909155601280549190931691161790556301e1338060135562278d0060145562000229565b3390565b828054600181600116156101000203166002900490600052602060002090601f016020900481019282601f10620001d057805160ff191683800117855562000200565b8280016001018555821562000200579182015b8281111562000200578251825591602001919060010190620001e3565b506200020e92915062000212565b5090565b5b808211156200020e576000815560010162000213565b61485580620002396000396000f3fe608060405234801561001057600080fd5b50600436106102895760003560e01c806395d89b411161015c578063bceae6c4116100ce578063dd62ed3e11610087578063dd62ed3e14610761578063e4d2c45e1461078f578063f2fde38b146107b8578063f5537ede146107de578063f894dd2114610814578063fdb781c81461083d57610289565b8063bceae6c4146106b0578063c3fe3e28146106cd578063c4e69329146106d5578063c7b728de146106f8578063cf1c316a14610715578063d3819abc1461073b57610289565b8063a60ff76611610120578063a60ff766146105ed578063a77a5d13146105f5578063a9059cbb14610639578063ab9fb43814610665578063ad45e4ae14610682578063b91816111461068a57610289565b806395d89b411461058c57806397b98e4a14610594578063981b24d01461059c578063a457c2d7146105b9578063a5bd5f4d146105e557610289565b806339509351116102005780635936e8bd116101b95780635936e8bd1461052957806364efc79b1461053157806370a082311461054e578063715018a61461057457806378424d581461057c5780638da5cb5b1461058457610289565b806339509351146104935780633c32a450146104bf578063485d7d94146104c75780634ee2cd7e146104ed578063532c26bb146105195780635358a2af1461052157610289565b806318160ddd1161025257806318160ddd1461039157806318bb939a146103995780631959a002146103b857806323b872dd146104195780632e9c80721461044f578063313ce5671461047557610289565b8062f380f41461028e5780630271dbba146102b257806306fdde03146102cc578063095ea7b31461034957806315f8a69714610389575b600080fd5b610296610845565b604080516001600160a01b039092168252519081900360200190f35b6102ba610854565b60408051918252519081900360200190f35b6102d461085a565b6040805160208082528351818301528351919283929083019185019080838360005b8381101561030e5781810151838201526020016102f6565b50505050905090810190601f16801561033b5780820380516001836020036101000a031916815260200191505b509250505060405180910390f35b6103756004803603604081101561035f57600080fd5b506001600160a01b0381351690602001356108f0565b604080519115158252519081900360200190f35b6102ba61090e565b6102ba610914565b6103b6600480360360208110156103af57600080fd5b503561091a565b005b6103de600480360360208110156103ce57600080fd5b50356001600160a01b0316610cd4565b6040805196875260208701959095526001600160a01b03909316858501526060850191909152608084015260a0830152519081900360c00190f35b6103756004803603606081101561042f57600080fd5b506001600160a01b03813581169160208101359091169060400135610d13565b6102ba6004803603602081101561046557600080fd5b50356001600160a01b0316610d9b565b61047d610e5b565b6040805160ff9092168252519081900360200190f35b610375600480360360408110156104a957600080fd5b506001600160a01b038135169060200135610e64565b610296610eb2565b6103b6600480360360208110156104dd57600080fd5b50356001600160a01b0316610ec1565b6102ba6004803603604081101561050357600080fd5b506001600160a01b038135169060200135610f5a565b6102ba610fa3565b6102ba610fa9565b6103b6610faf565b6103b66004803603602081101561054757600080fd5b50356110b5565b6102ba6004803603602081101561056457600080fd5b50356001600160a01b0316611329565b6103b6611344565b6103b66113f0565b610296611e31565b6102d4611e40565b6103b6611ea1565b6102ba600480360360208110156105b257600080fd5b5035612442565b610375600480360360408110156105cf57600080fd5b506001600160a01b038135169060200135612472565b6102ba6124da565b6102ba6124e0565b610375600480360360a081101561060b57600080fd5b506001600160a01b0381358116916020810135909116906040810135906060810135906080013515156124e6565b6103756004803603604081101561064f57600080fd5b506001600160a01b03813516906020013561267d565b6102ba6004803603602081101561067b57600080fd5b5035612691565b61029661271d565b610375600480360360208110156106a057600080fd5b50356001600160a01b031661272c565b6103b6600480360360208110156106c657600080fd5b5035612741565b6102966128f7565b6103b6600480360360408110156106eb57600080fd5b5080359060200135612906565b6102ba6004803603602081101561070e57600080fd5b5035612c50565b6103b66004803603602081101561072b57600080fd5b50356001600160a01b0316612cdc565b6103756004803603602081101561075157600080fd5b50356001600160a01b0316612d62565b6102ba6004803603604081101561077757600080fd5b506001600160a01b0381358116916020013516612ddf565b6102ba600480360360608110156107a557600080fd5b5080359060208101359060400135612e0a565b6103b6600480360360208110156107ce57600080fd5b50356001600160a01b0316612e33565b6103b6600480360360608110156107f457600080fd5b506001600160a01b03813581169160208101359091169060400135612f36565b6102ba6004803603606081101561082a57600080fd5b50803590602081013590604001356131ac565b6103b66131d5565b6012546001600160a01b031681565b60175481565b60038054604080516020601f60026000196101006001881615020190951694909404938401819004810282018101909252828152606093909290918301828280156108e65780601f106108bb576101008083540402835291602001916108e6565b820191906000526020600020905b8154815290600101906020018083116108c957829003601f168201915b5050505050905090565b60006109046108fd613445565b8484613449565b5060015b92915050565b60165481565b60025490565b336000908152600b602052604090205460ff168061094757503361093c611e31565b6001600160a01b0316145b610993576040805162461bcd60e51b815260206004820152601860248201527718d85b1b195c881a5cc81b9bdd08185d5d1a1bdc9a5e995960421b604482015290519081900360640190fd5b61099b613535565b156109d75760405162461bcd60e51b81526004018080602001828103825260268152602001806147a26026913960400191505060405180910390fd5b6109df613556565b15610a1b5760405162461bcd60e51b81526004018080602001828103825260268152602001806147a26026913960400191505060405180910390fd5b601a54601854610a2a91613577565b600f54604080516370a0823160e01b815230600482015290516001600160a01b03909216916370a0823191602480820192602092909190829003018186803b158015610a7557600080fd5b505afa158015610a89573d6000803e3d6000fd5b505050506040513d6020811015610a9f57600080fd5b505103811115610af6576040805162461bcd60e51b815260206004820152601b60248201527f43616e6e6f74207374616b652070656e64696e672066756e64732e0000000000604482015290519081900360640190fd5b601160009054906101000a90046001600160a01b03166001600160a01b031663900cf0cf6040518163ffffffff1660e01b815260040160206040518083038186803b158015610b4457600080fd5b505afa158015610b58573d6000803e3d6000fd5b505050506040513d6020811015610b6e57600080fd5b5051601d541480610bf65750601160009054906101000a90046001600160a01b03166001600160a01b03166313f24daf6040518163ffffffff1660e01b815260040160206040518083038186803b158015610bc857600080fd5b505afa158015610bdc573d6000803e3d6000fd5b505050506040513d6020811015610bf257600080fd5b5051155b15610c7557601554610c089082613577565b6015556011546040805163534a7e1d60e11b81526004810184905290516001600160a01b039092169163a694fc3a9160248082019260009290919082900301818387803b158015610c5857600080fd5b505af1158015610c6c573d6000803e3d6000fd5b50505050610c96565b601854610c829082613577565b601855601654610c929082613577565b6016555b50436000908152600c602090815260408083203284529091528082208054600160ff1991821681179092553384529190922080549091169091179055565b600d60205260009081526040902080546001820154600283015460038401546004850154600590950154939492936001600160a01b0390921692909186565b6000610d208484846135d1565b610d9084610d2c613445565b610d8b85604051806060016040528060288152602001614693602891396001600160a01b038a16600090815260016020526040812090610d6a613445565b6001600160a01b03168152602081019190915260400160002054919061373f565b613449565b5060015b9392505050565b6000610da682611329565b610db257506000610e56565b6001600160a01b0382166000908152600d602052604081206003810154600e54919291610dde916137d6565b905080610df057600092505050610e56565b6000610dfa610914565b905080610e0d5760009350505050610e56565b6000610e3482610e2e670de0b6b3a7640000610e2833611329565b90613833565b9061388c565b90506000610e4e670de0b6b3a7640000610e2e8685613833565b955050505050505b919050565b60055460ff1690565b6000610904610e71613445565b84610d8b8560016000610e82613445565b6001600160a01b03908116825260208083019390935260409182016000908120918c168152925290205490613577565b600f546001600160a01b031681565b610ec9613445565b6001600160a01b0316610eda611e31565b6001600160a01b031614610f23576040805162461bcd60e51b815260206004820181905260248201526000805160206146bb833981519152604482015290519081900360640190fd5b6001600160a01b038116331415610f3957600080fd5b6001600160a01b03166000908152600b60205260409020805460ff19169055565b6001600160a01b038216600090815260066020526040812081908190610f819085906138f3565b9150915081610f9857610f9385611329565b610f9a565b805b95945050505050565b60155481565b60145481565b610fb7613535565b15610ff35760405162461bcd60e51b81526004018080602001828103825260268152602001806147a26026913960400191505060405180910390fd5b610ffb613556565b156110375760405162461bcd60e51b81526004018080602001828103825260268152602001806147a26026913960400191505060405180910390fd5b61104033612d62565b611085576040805162461bcd60e51b815260206004820152601160248201527027379023a0a6a2903a379031b630b4b69760791b604482015290519081900360640190fd5b336000908152600d60205260409020805442106110ad576014546110aa904290613577565b81555b610c966139f0565b6110bd613535565b156110f95760405162461bcd60e51b81526004018080602001828103825260268152602001806147a26026913960400191505060405180910390fd5b611101613556565b1561113d5760405162461bcd60e51b81526004018080602001828103825260268152602001806147a26026913960400191505060405180910390fd5b336000908152600d602052604090208054421015611192576040805162461bcd60e51b815260206004820152600d60248201526c5374696c6c206c6f636b65642160981b604482015290519081900360640190fd5b600082116111e1576040805162461bcd60e51b81526020600482015260176024820152762737903d32b9379030b6b7bab73a1030b63637bbb2b21760491b604482015290519081900360640190fd5b6111ec3330846135d1565b60048101546111fb9083613577565b600482015560195461120d9083613577565b601955601b5461121d9083613577565b601b5543600582015560408051838152905133917f17040713250ec5f668a1c39e7939900e78558350dbaff0ebef34268dfa8ea4ac919081900360200190a2601160009054906101000a90046001600160a01b03166001600160a01b03166313f24daf6040518163ffffffff1660e01b815260040160206040518083038186803b1580156112aa57600080fd5b505afa1580156112be573d6000803e3d6000fd5b505050506040513d60208110156112d457600080fd5b50516112ea576112e26113f0565b6112ea6131d5565b5050436000908152600c602090815260408083203284529091528082208054600160ff1991821681179092553384529190922080549091169091179055565b6001600160a01b031660009081526020819052604090205490565b61134c613445565b6001600160a01b031661135d611e31565b6001600160a01b0316146113a6576040805162461bcd60e51b815260206004820181905260248201526000805160206146bb833981519152604482015290519081900360640190fd5b600a546040516000916001600160a01b0316907f8be0079c531659141344cd1fd0a4f28419497f9722a3daafe3b4186f6b6457e0908390a3600a80546001600160a01b0319169055565b6113f8613535565b156114345760405162461bcd60e51b81526004018080602001828103825260268152602001806147a26026913960400191505060405180910390fd5b61143c613556565b156114785760405162461bcd60e51b81526004018080602001828103825260268152602001806147a26026913960400191505060405180910390fd5b601154604080516313f24daf60e01b815290516000926001600160a01b0316916313f24daf916004808301926020929190829003018186803b1580156114bd57600080fd5b505afa1580156114d1573d6000803e3d6000fd5b505050506040513d60208110156114e757600080fd5b50519050801580611579575061157781601160009054906101000a90046001600160a01b03166001600160a01b031663900cf0cf6040518163ffffffff1660e01b815260040160206040518083038186803b15801561154557600080fd5b505afa158015611559573d6000803e3d6000fd5b505050506040513d602081101561156f57600080fd5b505190613c67565b155b6115ca576040805162461bcd60e51b815260206004820152601e60248201527f4d7573742063616c6c20617420612077697468647261772065706f63682e0000604482015290519081900360640190fd5b80158061165c575061070861165942601160009054906101000a90046001600160a01b03166001600160a01b031663c5967c266040518163ffffffff1660e01b815260040160206040518083038186803b15801561162757600080fd5b505afa15801561163b573d6000803e3d6000fd5b505050506040513d602081101561165157600080fd5b5051906137d6565b11155b6116975760405162461bcd60e51b815260040180806020018281038252602c815260200180614624602c913960400191505060405180910390fd5b80158061171f5750601160009054906101000a90046001600160a01b03166001600160a01b031663900cf0cf6040518163ffffffff1660e01b815260040160206040518083038186803b1580156116ed57600080fd5b505afa158015611701573d6000803e3d6000fd5b505050506040513d602081101561171757600080fd5b5051601c5414155b611762576040805162461bcd60e51b815260206004820152600f60248201526e20b63932b0b23c9031b0b63632b21760891b604482015290519081900360640190fd5b60105460408051632587701560e11b815230600482015290516000926001600160a01b031691634b0ee02a916024808301926020929190829003018186803b1580156117ad57600080fd5b505afa1580156117c1573d6000803e3d6000fd5b505050506040513d60208110156117d757600080fd5b50516017546019549192506117ec9190613577565b61185d57601160009054906101000a90046001600160a01b03166001600160a01b031663b88a802f6040518163ffffffff1660e01b8152600401600060405180830381600087803b15801561184057600080fd5b505af1158015611854573d6000803e3d6000fd5b50505050611bf5565b600f54604080516370a0823160e01b815230600482015290516000926001600160a01b0316916370a08231916024808301926020929190829003018186803b1580156118a857600080fd5b505afa1580156118bc573d6000803e3d6000fd5b505050506040513d60208110156118d257600080fd5b5051600f54604080516370a0823160e01b815230600482015290519293506119cf926001600160a01b03909216916370a0823191602480820192602092909190829003018186803b15801561192657600080fd5b505afa15801561193a573d6000803e3d6000fd5b505050506040513d602081101561195057600080fd5b5051601154604080516370a0823160e01b815230600482015290516001600160a01b03909216916370a0823191602480820192602092909190829003018186803b15801561199d57600080fd5b505afa1580156119b1573d6000803e3d6000fd5b505050506040513d60208110156119c757600080fd5b505190613577565b601f556119da610914565b6020556017546019546000916119f8916119f391613577565b612c50565b60115460408051632e1a7d4d60e01b81526004810184905290519293506001600160a01b0390911691632e1a7d4d9160248082019260009290919082900301818387803b158015611a4857600080fd5b505af1158015611a5c573d6000803e3d6000fd5b505060006019555050601a54611a729082613577565b601a55600f54604080516370a0823160e01b815230600482015290516000926001600160a01b0316916370a08231916024808301926020929190829003018186803b158015611ac057600080fd5b505afa158015611ad4573d6000803e3d6000fd5b505050506040513d6020811015611aea57600080fd5b505190506000611afa82856137d6565b90506000611b0884836137d6565b9050600081118015611b9d5750600f5460125460408051636eb1769f60e11b81526001600160a01b0392831660048201523060248201529051600093929092169163dd62ed3e91604480820192602092909190829003018186803b158015611b6f57600080fd5b505afa158015611b83573d6000803e3d6000fd5b505050506040513d6020811015611b9957600080fd5b5051115b15611bc057601254600f54611bc0916001600160a01b0391821691163084613cce565b60175415611bef57601254601754600f54611be9926001600160a01b0391821692911690613d2e565b60006017555b50505050505b60105460408051635a46d3b560e01b8152306004820181905291516001600160a01b039093169263af2b0f6692918491635a46d3b591602480820192602092909190829003018186803b158015611c4b57600080fd5b505afa158015611c5f573d6000803e3d6000fd5b505050506040513d6020811015611c7557600080fd5b5051604080516001600160e01b031960e086901b1681526001600160a01b039093166004840152602483019190915251604480830192600092919082900301818387803b158015611cc557600080fd5b505af1158015611cd9573d6000803e3d6000fd5b505060105460408051632587701560e11b81523060048201529051600094506001600160a01b039092169250634b0ee02a916024808301926020929190829003018186803b158015611d2a57600080fd5b505afa158015611d3e573d6000803e3d6000fd5b505050506040513d6020811015611d5457600080fd5b505190506000611d6482846137d6565b600e54909150611d749082613577565b600e556011546040805163900cf0cf60e01b815290516001600160a01b039092169163900cf0cf91600480820192602092909190829003018186803b158015611dbc57600080fd5b505afa158015611dd0573d6000803e3d6000fd5b505050506040513d6020811015611de657600080fd5b5051601c55505043601e8190556000908152600c602090815260408083203284529091528082208054600160ff19918216811790925533845291909220805490911690911790555050565b600a546001600160a01b031690565b60048054604080516020601f60026000196101006001881615020190951694909404938401819004810282018101909252828152606093909290918301828280156108e65780601f106108bb576101008083540402835291602001916108e6565b611ea9613535565b15611ee55760405162461bcd60e51b81526004018080602001828103825260268152602001806147a26026913960400191505060405180910390fd5b611eed613556565b15611f295760405162461bcd60e51b81526004018080602001828103825260268152602001806147a26026913960400191505060405180910390fd5b601154604080516313f24daf60e01b815290516000926001600160a01b0316916313f24daf916004808301926020929190829003018186803b158015611f6e57600080fd5b505afa158015611f82573d6000803e3d6000fd5b505050506040513d6020811015611f9857600080fd5b50519050801580611ff85750611ff681601160009054906101000a90046001600160a01b03166001600160a01b031663900cf0cf6040518163ffffffff1660e01b815260040160206040518083038186803b15801561154557600080fd5b155b612049576040805162461bcd60e51b815260206004820152601e60248201527f4d7573742063616c6c20617420612077697468647261772065706f63682e0000604482015290519081900360640190fd5b8015806120a957506107086120a642601160009054906101000a90046001600160a01b03166001600160a01b031663c5967c266040518163ffffffff1660e01b815260040160206040518083038186803b15801561162757600080fd5b11155b6120e45760405162461bcd60e51b815260040180806020018281038252602c815260200180614624602c913960400191505060405180910390fd5b80158061216c5750601160009054906101000a90046001600160a01b03166001600160a01b031663900cf0cf6040518163ffffffff1660e01b815260040160206040518083038186803b15801561213a57600080fd5b505afa15801561214e573d6000803e3d6000fd5b505050506040513d602081101561216457600080fd5b5051601d5414155b6121af576040805162461bcd60e51b815260206004820152600f60248201526e20b63932b0b23c9031b0b63632b21760891b604482015290519081900360640190fd5b601160009054906101000a90046001600160a01b03166001600160a01b03166313f24daf6040518163ffffffff1660e01b815260040160206040518083038186803b1580156121fd57600080fd5b505afa158015612211573d6000803e3d6000fd5b505050506040513d602081101561222757600080fd5b505115806122af5750601160009054906101000a90046001600160a01b03166001600160a01b031663900cf0cf6040518163ffffffff1660e01b815260040160206040518083038186803b15801561227e57600080fd5b505afa158015612292573d6000803e3d6000fd5b505050506040513d60208110156122a857600080fd5b5051601c54145b6122f9576040805162461bcd60e51b815260206004820152601660248201527524b734ba34b0ba32903830b93a1018903334b939ba1760511b604482015290519081900360640190fd5b60185415612387576011546018546040805163534a7e1d60e11b81526004810192909252516001600160a01b039092169163a694fc3a9160248082019260009290919082900301818387803b15801561235157600080fd5b505af1158015612365573d6000803e3d6000fd5b505060165460155461237993509150613577565b601555600060168190556018555b601160009054906101000a90046001600160a01b03166001600160a01b031663900cf0cf6040518163ffffffff1660e01b815260040160206040518083038186803b1580156123d557600080fd5b505afa1580156123e9573d6000803e3d6000fd5b505050506040513d60208110156123ff57600080fd5b5051601d5550436000908152600c602090815260408083203284529091528082208054600160ff1991821681179092553384529190922080549091169091179055565b60008060006124528460076138f3565b915091508161246857612463610914565b61246a565b805b949350505050565b600061090461247f613445565b84610d8b856040518060600160405280602581526020016147fb60259139600160006124a9613445565b6001600160a01b03908116825260208083019390935260409182016000908120918d1681529252902054919061373f565b600e5481565b60135481565b336000908152600b602052604081205460ff1680612513575033612508611e31565b6001600160a01b0316145b61255f576040805162461bcd60e51b815260206004820152601860248201527718d85b1b195c881a5cc81b9bdd08185d5d1a1bdc9a5e995960421b604482015290519081900360640190fd5b612567613535565b156125a35760405162461bcd60e51b81526004018080602001828103825260268152602001806147a26026913960400191505060405180910390fd5b6125ab613556565b156125e75760405162461bcd60e51b81526004018080602001828103825260268152602001806147a26026913960400191505060405180910390fd5b6000826125f8576125f88685613d80565b6001600160a01b03871633141561261a57612613868661267d565b9050612628565b612625878787610d13565b90505b8215612638576126388685613d80565b436000908152600c602090815260408083203284529091528082208054600160ff19918216811790925533845291909220805490911690911790559695505050505050565b600061090461268a613445565b84846135d1565b600f54604080516370a0823160e01b8152306004820152905160009283926126e5926001600160a01b03909216916370a0823191602480820192602092909190829003018186803b15801561192657600080fd5b905060006126f1610914565b90508015806126fe575081155b1561270d578392505050610e56565b6000610f9a83610e2e8785613833565b6011546001600160a01b031681565b600b6020526000908152604090205460ff1681565b336000908152600b602052604090205460ff168061276e575033612763611e31565b6001600160a01b0316145b6127ba576040805162461bcd60e51b815260206004820152601860248201527718d85b1b195c881a5cc81b9bdd08185d5d1a1bdc9a5e995960421b604482015290519081900360640190fd5b6127c2613535565b156127fe5760405162461bcd60e51b81526004018080602001828103825260268152602001806147a26026913960400191505060405180910390fd5b612806613556565b156128425760405162461bcd60e51b81526004018080602001828103825260268152602001806147a26026913960400191505060405180910390fd5b601554811015612899576040805162461bcd60e51b815260206004820152601960248201527f43616e2774207769746864726177207061737420312e30782e00000000000000604482015290519081900360640190fd5b6015546128a690826137d6565b6015556017546128b69082613577565b60175550436000908152600c602090815260408083203284529091528082208054600160ff1991821681179092553384529190922080549091169091179055565b6010546001600160a01b031681565b61290e613535565b1561294a5760405162461bcd60e51b81526004018080602001828103825260268152602001806147a26026913960400191505060405180910390fd5b612952613556565b1561298e5760405162461bcd60e51b81526004018080602001828103825260268152602001806147a26026913960400191505060405180910390fd5b600082116129dd576040805162461bcd60e51b81526020600482015260176024820152762737903d32b9379030b6b7bab73a1030b63637bbb2b21760491b604482015290519081900360640190fd5b6013548110156129ec57506013545b60006129f84283613577565b336000908152600d6020526040902060018101849055805491925090821115612a2557612a253383613d80565b6000612a3085612691565b9050612a3c3382613d9c565b600f54612a54906001600160a01b0316333088613cce565b601160009054906101000a90046001600160a01b03166001600160a01b031663900cf0cf6040518163ffffffff1660e01b815260040160206040518083038186803b158015612aa257600080fd5b505afa158015612ab6573d6000803e3d6000fd5b505050506040513d6020811015612acc57600080fd5b5051601d541480612b545750601160009054906101000a90046001600160a01b03166001600160a01b03166313f24daf6040518163ffffffff1660e01b815260040160206040518083038186803b158015612b2657600080fd5b505afa158015612b3a573d6000803e3d6000fd5b505050506040513d6020811015612b5057600080fd5b5051155b15612bc3576011546040805163534a7e1d60e11b81526004810188905290516001600160a01b039092169163a694fc3a9160248082019260009290919082900301818387803b158015612ba657600080fd5b505af1158015612bba573d6000803e3d6000fd5b50505050612bd4565b601854612bd09086613577565b6018555b6040805186815260208101839052815133927f90890809c654f11d6e72a28fa60149770a0d11ec6c92319d6ceb2bb0a4ea1a15928290030190a25050436000908152600c602090815260408083203284529091528082208054600160ff1991821681179092553384529190922080549091169091179055505050565b600f54604080516370a0823160e01b815230600482015290516000928392612ca4926001600160a01b03909216916370a0823191602480820192602092909190829003018186803b15801561192657600080fd5b90506000612cb0610914565b9050801580612cbd575081155b15612ccc578392505050610e56565b6000610f9a82610e2e8786613833565b612ce4613445565b6001600160a01b0316612cf5611e31565b6001600160a01b031614612d3e576040805162461bcd60e51b815260206004820181905260248201526000805160206146bb833981519152604482015290519081900360640190fd5b6001600160a01b03166000908152600b60205260409020805460ff19166001179055565b6000612d6d82611329565b612d7957506000610e56565b6001600160a01b0382166000908152600d602052604081206003810154600e54919291612da5916137d6565b905080612db757600092505050610e56565b6000612dc1610914565b905080612dd45760009350505050610e56565b506001949350505050565b6001600160a01b03918216600090815260016020908152604080832093909416825291909152205490565b6000811580612e17575082155b15612e23575082610d94565b6000610f9a83610e2e8787613833565b612e3b613445565b6001600160a01b0316612e4c611e31565b6001600160a01b031614612e95576040805162461bcd60e51b815260206004820181905260248201526000805160206146bb833981519152604482015290519081900360640190fd5b6001600160a01b038116612eda5760405162461bcd60e51b81526004018080602001828103825260268152602001806145906026913960400191505060405180910390fd5b600a546040516001600160a01b038084169216907f8be0079c531659141344cd1fd0a4f28419497f9722a3daafe3b4186f6b6457e090600090a3600a80546001600160a01b0319166001600160a01b0392909216919091179055565b336000908152600b602052604090205460ff1680612f63575033612f58611e31565b6001600160a01b0316145b612faf576040805162461bcd60e51b815260206004820152601860248201527718d85b1b195c881a5cc81b9bdd08185d5d1a1bdc9a5e995960421b604482015290519081900360640190fd5b612fb7613535565b15612ff35760405162461bcd60e51b81526004018080602001828103825260268152602001806147a26026913960400191505060405180910390fd5b612ffb613556565b156130375760405162461bcd60e51b81526004018080602001828103825260268152602001806147a26026913960400191505060405180910390fd5b6001600160a01b0383163014158061305b5750601b5461305630611329565b038111155b61306457600080fd5b600f546001600160a01b0384811691161415806131075750601a5460185461308b91613577565b600f54604080516370a0823160e01b815230600482015290516001600160a01b03909216916370a0823191602480820192602092909190829003018186803b1580156130d657600080fd5b505afa1580156130ea573d6000803e3d6000fd5b505050506040513d602081101561310057600080fd5b5051038111155b613158576040805162461bcd60e51b815260206004820152601e60248201527f43616e6e6f742077697468647261772070656e64696e672066756e64732e0000604482015290519081900360640190fd5b61316c6001600160a01b0384168383613d2e565b5050436000908152600c602090815260408083203284529091528082208054600160ff199182168117909255338452919092208054909116909117905550565b60008115806131b9575082155b156131c5575082610d94565b6000610f9a84610e2e8786613833565b6131dd613535565b156132195760405162461bcd60e51b81526004018080602001828103825260268152602001806147a26026913960400191505060405180910390fd5b613221613556565b1561325d5760405162461bcd60e51b81526004018080602001828103825260268152602001806147a26026913960400191505060405180910390fd5b336000908152600d6020526040902080544210156132b2576040805162461bcd60e51b815260206004820152600d60248201526c5374696c6c206c6f636b65642160981b604482015290519081900360640190fd5b6000816004015411613305576040805162461bcd60e51b81526020600482015260176024820152762737903d32b9379030b6b7bab73a1030b63637bbb2b21760491b604482015290519081900360640190fd5b8060050154601e54116133495760405162461bcd60e51b81526004018080602001828103825260338152602001806147c86033913960400191505060405180910390fd5b600061335e8260040154601f54602054612e0a565b601a5490915061336e90826137d6565b601a556004820154601b54613382916137d6565b601b5561338e33611329565b61339a5761339a6139f0565b6133a8308360040154613e8c565b60006004830155600f546133c6906001600160a01b03163383613d2e565b60048201546040805191825260208201839052805133927ff279e6a1f5e320cca91135676d9cb6e44ca8a08c0b88342bcdb1144f6511b56892908290030190a25050436000908152600c602090815260408083203284529091528082208054600160ff1991821681179092553384529190922080549091169091179055565b3390565b6001600160a01b03831661348e5760405162461bcd60e51b81526004018080602001828103825260248152602001806147546024913960400191505060405180910390fd5b6001600160a01b0382166134d35760405162461bcd60e51b81526004018080602001828103825260228152602001806145b66022913960400191505060405180910390fd5b6001600160a01b03808416600081815260016020908152604080832094871680845294825291829020859055815185815291517f8c5be1e5ebec7d5bd14f71427d1e84f3dd0314c0f7b2291e5b200ac8c7c3b9259281900390910190a3505050565b436000908152600c6020908152604080832032845290915290205460ff1690565b436000908152600c6020908152604080832033845290915290205460ff1690565b600082820183811015610d94576040805162461bcd60e51b815260206004820152601b60248201527f536166654d6174683a206164646974696f6e206f766572666c6f770000000000604482015290519081900360640190fd5b336000908152600b602052604090205460ff16806135fe5750336135f3611e31565b6001600160a01b0316145b8061361357506012546001600160a01b031633145b8061361d57503033145b8061364057506001600160a01b0382166000908152600b602052604090205460ff165b806136635750816001600160a01b0316613658611e31565b6001600160a01b0316145b8061367b57506012546001600160a01b038381169116145b8061368e5750306001600160a01b038316145b61372f576001600160a01b038281166000908152600d60205260409020600281015490918581169116146136f35760405162461bcd60e51b81526004018080602001828103825260228152602001806146506022913960400191505060405180910390fd5b6002810180546001600160a01b0319169055601354600090613716904290613577565b825490915081111561372c5761372c8482613d80565b50505b61373a838383613f88565b505050565b600081848411156137ce5760405162461bcd60e51b81526004018080602001828103825283818151815260200191508051906020019080838360005b8381101561379357818101518382015260200161377b565b50505050905090810190601f1680156137c05780820380516001836020036101000a031916815260200191505b509250505060405180910390fd5b505050900390565b60008282111561382d576040805162461bcd60e51b815260206004820152601e60248201527f536166654d6174683a207375627472616374696f6e206f766572666c6f770000604482015290519081900360640190fd5b50900390565b60008261384257506000610908565b8282028284828161384f57fe5b0414610d945760405162461bcd60e51b81526004018080602001828103825260218152602001806146726021913960400191505060405180910390fd5b60008082116138e2576040805162461bcd60e51b815260206004820152601a60248201527f536166654d6174683a206469766973696f6e206279207a65726f000000000000604482015290519081900360640190fd5b8183816138eb57fe5b049392505050565b60008060008411613944576040805162461bcd60e51b815260206004820152601660248201527504552433230536e617073686f743a20696420697320360541b604482015290519081900360640190fd5b61394e60096140e3565b8411156139a2576040805162461bcd60e51b815260206004820152601d60248201527f4552433230536e617073686f743a206e6f6e6578697374656e74206964000000604482015290519081900360640190fd5b60006139ae84866140e7565b84549091508114156139c75760008092509250506139e9565b60018460010182815481106139d857fe5b906000526020600020015492509250505b9250929050565b336000908152600d602052604081206003810154600e54919291613a13916137d6565b600e54600384015590506000613a4d613a2a610914565b610e2e670de0b6b3a7640000610e288760040154613a4733611329565b90613577565b90506000613a67670de0b6b3a7640000610e2e8585613833565b6010546040805163a9059cbb60e01b81523360048201526024810184905290519293506001600160a01b039091169163a9059cbb916044808201926020929091908290030181600087803b158015613abe57600080fd5b505af1158015613ad2573d6000803e3d6000fd5b505050506040513d6020811015613ae857600080fd5b505060115460408051638278b53b60e01b8152905160009283926001600160a01b0390911691638278b53b91600480820192602092909190829003018186803b158015613b3457600080fd5b505afa158015613b48573d6000803e3d6000fd5b505050506040513d6020811015613b5e57600080fd5b505190506064811115613ba25760405162461bcd60e51b81526004018080602001828103825260338152602001806146fc6033913960400191505060405180910390fd5b613bb16064610e2e8584613833565b91508115613c25576010546040805163282d3fdf60e01b81523360048201526024810185905290516001600160a01b039092169163282d3fdf9160448082019260009290919082900301818387803b158015613c0c57600080fd5b505af1158015613c20573d6000803e3d6000fd5b505050505b6040805184815260208101849052815133927fd6f2c8500df5b44f11e9e48b91ff9f1b9d81bc496d55570c2b1b75bf65243f51928290030190a2505050505050565b6000808211613cbd576040805162461bcd60e51b815260206004820152601860248201527f536166654d6174683a206d6f64756c6f206279207a65726f0000000000000000604482015290519081900360640190fd5b818381613cc657fe5b069392505050565b604080516001600160a01b0380861660248301528416604482015260648082018490528251808303909101815260849091019091526020810180516001600160e01b03166323b872dd60e01b179052613d28908590614188565b50505050565b604080516001600160a01b038416602482015260448082018490528251808303909101815260649091019091526020810180516001600160e01b031663a9059cbb60e01b17905261373a908490614188565b6001600160a01b039091166000908152600d6020526040902055565b6001600160a01b038216613df7576040805162461bcd60e51b815260206004820152601f60248201527f45524332303a206d696e7420746f20746865207a65726f206164647265737300604482015290519081900360640190fd5b613e0360008383614239565b600254613e109082613577565b6002556001600160a01b038216600090815260208190526040902054613e369082613577565b6001600160a01b0383166000818152602081815260408083209490945583518581529351929391927fddf252ad1be2c89b69c2b068fc378daa952ba7f163c4a11628f55a4df523b3ef9281900390910190a35050565b6001600160a01b038216613ed15760405162461bcd60e51b81526004018080602001828103825260218152602001806146db6021913960400191505060405180910390fd5b613edd82600083614239565b613f1a8160405180606001604052806022815260200161456e602291396001600160a01b038516600090815260208190526040902054919061373f565b6001600160a01b038316600090815260208190526040902055600254613f4090826137d6565b6002556040805182815290516000916001600160a01b038516917fddf252ad1be2c89b69c2b068fc378daa952ba7f163c4a11628f55a4df523b3ef9181900360200190a35050565b6001600160a01b038316613fcd5760405162461bcd60e51b815260040180806020018281038252602581526020018061472f6025913960400191505060405180910390fd5b6001600160a01b0382166140125760405162461bcd60e51b815260040180806020018281038252602381526020018061454b6023913960400191505060405180910390fd5b61401d838383614239565b61405a816040518060600160405280602681526020016145d8602691396001600160a01b038616600090815260208190526040902054919061373f565b6001600160a01b0380851660009081526020819052604080822093909355908416815220546140899082613577565b6001600160a01b038084166000818152602081815260409182902094909455805185815290519193928716927fddf252ad1be2c89b69c2b068fc378daa952ba7f163c4a11628f55a4df523b3ef92918290030190a3505050565b5490565b81546000906140f857506000610908565b82546000905b808210156141475760006141128383614291565b90508486828154811061412157fe5b9060005260206000200154111561413a57809150614141565b8060010192505b506140fe565b60008211801561416f57508385600184038154811061416257fe5b9060005260206000200154145b156141805750600019019050610908565b509050610908565b60606141dd826040518060400160405280602081526020017f5361666545524332303a206c6f772d6c6576656c2063616c6c206661696c6564815250856001600160a01b03166142b69092919063ffffffff16565b80519091501561373a578080602001905160208110156141fc57600080fd5b505161373a5760405162461bcd60e51b815260040180806020018281038252602a815260200180614778602a913960400191505060405180910390fd5b61424483838361373a565b6001600160a01b0383166142685761425b826142c5565b6142636142f2565b61373a565b6001600160a01b03821661427f5761425b836142c5565b614288836142c5565b61373a826142c5565b600060028083066002850601816142a457fe5b04600283046002850401019392505050565b606061246a8484600085614301565b6001600160a01b03811660009081526006602052604090206142ef906142ea83611329565b61445d565b50565b6142ff60076142ea610914565b565b6060824710156143425760405162461bcd60e51b81526004018080602001828103825260268152602001806145fe6026913960400191505060405180910390fd5b61434b856144a9565b61439c576040805162461bcd60e51b815260206004820152601d60248201527f416464726573733a2063616c6c20746f206e6f6e2d636f6e7472616374000000604482015290519081900360640190fd5b60006060866001600160a01b031685876040518082805190602001908083835b602083106143db5780518252601f1990920191602091820191016143bc565b6001836020036101000a03801982511681845116808217855250505050505090500191505060006040518083038185875af1925050503d806000811461443d576040519150601f19603f3d011682016040523d82523d6000602084013e614442565b606091505b50915091506144528282866144af565b979650505050505050565b600061446960096140e3565b90508061447584614515565b101561373a578254600180820185556000858152602080822090930193909355938401805494850181558252902090910155565b3b151590565b606083156144be575081610d94565b8251156144ce5782518084602001fd5b60405162461bcd60e51b815260206004820181815284516024840152845185939192839260440191908501908083836000831561379357818101518382015260200161377b565b805460009061452657506000610e56565b81548290600019810190811061453857fe5b90600052602060002001549050610e5656fe45524332303a207472616e7366657220746f20746865207a65726f206164647265737345524332303a206275726e20616d6f756e7420657863656564732062616c616e63654f776e61626c653a206e6577206f776e657220697320746865207a65726f206164647265737345524332303a20617070726f766520746f20746865207a65726f206164647265737345524332303a207472616e7366657220616d6f756e7420657863656564732062616c616e6365416464726573733a20696e73756666696369656e742062616c616e636520666f722063616c6c4d7573742062652063616c6c6564203330206d696e75746573206265666f72652065706f636820656e64732e526563656976657220646964206e6f7420617070726f7665207472616e736665722e536166654d6174683a206d756c7469706c69636174696f6e206f766572666c6f7745524332303a207472616e7366657220616d6f756e74206578636565647320616c6c6f77616e63654f776e61626c653a2063616c6c6572206973206e6f7420746865206f776e657245524332303a206275726e2066726f6d20746865207a65726f2061646472657373496e76616c6964206c6f636b2070657263656e746167652c20636865636b205468656f72657469637320636f6e74726163742e45524332303a207472616e736665722066726f6d20746865207a65726f206164647265737345524332303a20617070726f76652066726f6d20746865207a65726f20616464726573735361666545524332303a204552433230206f7065726174696f6e20646964206e6f742073756363656564436f6e747261637447756172643a206f6e6520626c6f636b2c206f6e652066756e6374696f6e496e69746961746f7220506172742031206e6f74207965742063616c6c6564206f722063616c6c656420746f6f20736f6f6e2e45524332303a2064656372656173656420616c6c6f77616e63652062656c6f77207a65726fa2646970667358221220b958702b41343220e97b08b8a5b854cca37fe63e93c8a338ee151239176ce3d364736f6c634300060c0033",
  "linkReferences": {},
  "deployedLinkReferences": {}
}