{
  "_format": "hh-sol-artifact-1",
  "contractName": "Master",
  "sourceName": "contracts/Master.sol",
  "abi": [
    {
      "inputs": [
        {
          "internalType": "contract IERC20Lockable",
          "name": "_theory",
          "type": "address"
        },
        {
          "internalType": "contract IERC20Lockable",
          "name": "_game",
          "type": "address"
        },
        {
          "internalType": "contract ITheoretics",
          "name": "_theoretics",
          "type": "address"
        },
        {
          "internalType": "contract ITreasury",
          "name": "_treasury",
          "type": "address"
        }
      ],
      "stateMutability": "nonpayable",
      "type": "constructor"
    },
    {
      "anonymous": false,
      "inputs": [
        {
          "indexed": true,
          "internalType": "address",
          "name": "owner",
          "type": "address"
        },
        {
          "indexed": true,
          "internalType": "address",
          "name": "spender",
          "type": "address"
        },
        {
          "indexed": false,
          "internalType": "uint256",
          "name": "value",
          "type": "uint256"
        }
      ],
      "name": "Approval",
      "type": "event"
    },
    {
      "anonymous": false,
      "inputs": [
        {
          "indexed": true,
          "internalType": "address",
          "name": "user",
          "type": "address"
        },
        {
          "indexed": false,
          "internalType": "uint256",
          "name": "amountInTheory",
          "type": "uint256"
        },
        {
          "indexed": false,
          "internalType": "uint256",
          "name": "amountOutMaster",
          "type": "uint256"
        }
      ],
      "name": "Deposit",
      "type": "event"
    },
    {
      "anonymous": false,
      "inputs": [
        {
          "indexed": true,
          "internalType": "address",
          "name": "previousOwner",
          "type": "address"
        },
        {
          "indexed": true,
          "internalType": "address",
          "name": "newOwner",
          "type": "address"
        }
      ],
      "name": "OwnershipTransferred",
      "type": "event"
    },
    {
      "anonymous": false,
      "inputs": [
        {
          "indexed": true,
          "internalType": "address",
          "name": "user",
          "type": "address"
        },
        {
          "indexed": false,
          "internalType": "uint256",
          "name": "reward",
          "type": "uint256"
        },
        {
          "indexed": false,
          "internalType": "uint256",
          "name": "lockAmount",
          "type": "uint256"
        }
      ],
      "name": "RewardPaid",
      "type": "event"
    },
    {
      "anonymous": false,
      "inputs": [
        {
          "indexed": false,
          "internalType": "uint256",
          "name": "id",
          "type": "uint256"
        }
      ],
      "name": "Snapshot",
      "type": "event"
    },
    {
      "anonymous": false,
      "inputs": [
        {
          "indexed": true,
          "internalType": "address",
          "name": "from",
          "type": "address"
        },
        {
          "indexed": true,
          "internalType": "address",
          "name": "to",
          "type": "address"
        },
        {
          "indexed": false,
          "internalType": "uint256",
          "name": "value",
          "type": "uint256"
        }
      ],
      "name": "Transfer",
      "type": "event"
    },
    {
      "anonymous": false,
      "inputs": [
        {
          "indexed": true,
          "internalType": "address",
          "name": "user",
          "type": "address"
        },
        {
          "indexed": false,
          "internalType": "uint256",
          "name": "amountInMaster",
          "type": "uint256"
        },
        {
          "indexed": false,
          "internalType": "uint256",
          "name": "amountOutTheory",
          "type": "uint256"
        }
      ],
      "name": "Withdraw",
      "type": "event"
    },
    {
      "anonymous": false,
      "inputs": [
        {
          "indexed": true,
          "internalType": "address",
          "name": "user",
          "type": "address"
        },
        {
          "indexed": false,
          "internalType": "uint256",
          "name": "amountInMaster",
          "type": "uint256"
        },
        {
          "indexed": false,
          "internalType": "uint256",
          "name": "amountOutTheory",
          "type": "uint256"
        }
      ],
      "name": "WithdrawRequest",
      "type": "event"
    },
    {
      "inputs": [
        {
          "internalType": "address",
          "name": "_toAdd",
          "type": "address"
        }
      ],
      "name": "addAuthorized",
      "outputs": [],
      "stateMutability": "nonpayable",
      "type": "function"
    },
    {
      "inputs": [
        {
          "internalType": "address",
          "name": "owner",
          "type": "address"
        },
        {
          "internalType": "address",
          "name": "spender",
          "type": "address"
        }
      ],
      "name": "allowance",
      "outputs": [
        {
          "internalType": "uint256",
          "name": "",
          "type": "uint256"
        }
      ],
      "stateMutability": "view",
      "type": "function"
    },
    {
      "inputs": [
        {
          "internalType": "address",
          "name": "spender",
          "type": "address"
        },
        {
          "internalType": "uint256",
          "name": "amount",
          "type": "uint256"
        }
      ],
      "name": "approve",
      "outputs": [
        {
          "internalType": "bool",
          "name": "",
          "type": "bool"
        }
      ],
      "stateMutability": "nonpayable",
      "type": "function"
    },
    {
      "inputs": [
        {
          "internalType": "address",
          "name": "from",
          "type": "address"
        }
      ],
      "name": "approveTransferFrom",
      "outputs": [],
      "stateMutability": "nonpayable",
      "type": "function"
    },
    {
      "inputs": [
        {
          "internalType": "address",
          "name": "",
          "type": "address"
        }
      ],
      "name": "authorized",
      "outputs": [
        {
          "internalType": "bool",
          "name": "",
          "type": "bool"
        }
      ],
      "stateMutability": "view",
      "type": "function"
    },
    {
      "inputs": [
        {
          "internalType": "address",
          "name": "account",
          "type": "address"
        }
      ],
      "name": "balanceOf",
      "outputs": [
        {
          "internalType": "uint256",
          "name": "",
          "type": "uint256"
        }
      ],
      "stateMutability": "view",
      "type": "function"
    },
    {
      "inputs": [
        {
          "internalType": "address",
          "name": "account",
          "type": "address"
        },
        {
          "internalType": "uint256",
          "name": "snapshotId",
          "type": "uint256"
        }
      ],
      "name": "balanceOfAt",
      "outputs": [
        {
          "internalType": "uint256",
          "name": "",
          "type": "uint256"
        }
      ],
      "stateMutability": "view",
      "type": "function"
    },
    {
      "inputs": [
        {
          "internalType": "uint256",
          "name": "amountInTheory",
          "type": "uint256"
        },
        {
          "internalType": "uint256",
          "name": "lockTime",
          "type": "uint256"
        }
      ],
      "name": "buyFromTheory",
      "outputs": [],
      "stateMutability": "nonpayable",
      "type": "function"
    },
    {
      "inputs": [],
      "name": "claimGame",
      "outputs": [],
      "stateMutability": "nonpayable",
      "type": "function"
    },
    {
      "inputs": [],
      "name": "decimals",
      "outputs": [
        {
          "internalType": "uint8",
          "name": "",
          "type": "uint8"
        }
      ],
      "stateMutability": "view",
      "type": "function"
    },
    {
      "inputs": [
        {
          "internalType": "address",
          "name": "spender",
          "type": "address"
        },
        {
          "internalType": "uint256",
          "name": "subtractedValue",
          "type": "uint256"
        }
      ],
      "name": "decreaseAllowance",
      "outputs": [
        {
          "internalType": "bool",
          "name": "",
          "type": "bool"
        }
      ],
      "stateMutability": "nonpayable",
      "type": "function"
    },
    {
      "inputs": [
        {
          "internalType": "address",
          "name": "theorist",
          "type": "address"
        }
      ],
      "name": "earned",
      "outputs": [
        {
          "internalType": "uint256",
          "name": "",
          "type": "uint256"
        }
      ],
      "stateMutability": "view",
      "type": "function"
    },
    {
      "inputs": [],
      "name": "game",
      "outputs": [
        {
          "internalType": "contract IERC20Lockable",
          "name": "",
          "type": "address"
        }
      ],
      "stateMutability": "view",
      "type": "function"
    },
    {
      "inputs": [
        {
          "internalType": "address",
          "name": "theorist",
          "type": "address"
        }
      ],
      "name": "getLastSnapshotIndexOf",
      "outputs": [
        {
          "internalType": "uint256",
          "name": "",
          "type": "uint256"
        }
      ],
      "stateMutability": "view",
      "type": "function"
    },
    {
      "inputs": [
        {
          "internalType": "address",
          "name": "spender",
          "type": "address"
        },
        {
          "internalType": "uint256",
          "name": "addedValue",
          "type": "uint256"
        }
      ],
      "name": "increaseAllowance",
      "outputs": [
        {
          "internalType": "bool",
          "name": "",
          "type": "bool"
        }
      ],
      "stateMutability": "nonpayable",
      "type": "function"
    },
    {
      "inputs": [
        {
          "internalType": "bool",
          "name": "allowEmergency",
          "type": "bool"
        }
      ],
      "name": "initiatePart1",
      "outputs": [],
      "stateMutability": "nonpayable",
      "type": "function"
    },
    {
      "inputs": [],
      "name": "initiatePart2",
      "outputs": [],
      "stateMutability": "nonpayable",
      "type": "function"
    },
    {
      "inputs": [],
      "name": "lastInitiatePart1Block",
      "outputs": [
        {
          "internalType": "uint256",
          "name": "",
          "type": "uint256"
        }
      ],
      "stateMutability": "view",
      "type": "function"
    },
    {
      "inputs": [],
      "name": "lastInitiatePart1Epoch",
      "outputs": [
        {
          "internalType": "uint256",
          "name": "",
          "type": "uint256"
        }
      ],
      "stateMutability": "view",
      "type": "function"
    },
    {
      "inputs": [],
      "name": "lastInitiatePart2Block",
      "outputs": [
        {
          "internalType": "uint256",
          "name": "",
          "type": "uint256"
        }
      ],
      "stateMutability": "view",
      "type": "function"
    },
    {
      "inputs": [],
      "name": "lastInitiatePart2Epoch",
      "outputs": [
        {
          "internalType": "uint256",
          "name": "",
          "type": "uint256"
        }
      ],
      "stateMutability": "view",
      "type": "function"
    },
    {
      "inputs": [],
      "name": "latestSnapshotIndex",
      "outputs": [
        {
          "internalType": "uint256",
          "name": "",
          "type": "uint256"
        }
      ],
      "stateMutability": "view",
      "type": "function"
    },
    {
      "inputs": [
        {
          "internalType": "uint256",
          "name": "",
          "type": "uint256"
        }
      ],
      "name": "masterHistory",
      "outputs": [
        {
          "internalType": "uint256",
          "name": "time",
          "type": "uint256"
        },
        {
          "internalType": "uint256",
          "name": "rewardReceived",
          "type": "uint256"
        },
        {
          "internalType": "uint256",
          "name": "rewardPerShare",
          "type": "uint256"
        }
      ],
      "stateMutability": "view",
      "type": "function"
    },
    {
      "inputs": [
        {
          "internalType": "uint256",
          "name": "_share",
          "type": "uint256"
        }
      ],
      "name": "masterToTheory",
      "outputs": [
        {
          "internalType": "uint256",
          "name": "",
          "type": "uint256"
        }
      ],
      "stateMutability": "view",
      "type": "function"
    },
    {
      "inputs": [
        {
          "internalType": "uint256",
          "name": "_share",
          "type": "uint256"
        },
        {
          "internalType": "uint256",
          "name": "totalGovernanceToken",
          "type": "uint256"
        },
        {
          "internalType": "uint256",
          "name": "totalShares",
          "type": "uint256"
        }
      ],
      "name": "masterToTheoryOwed",
      "outputs": [
        {
          "internalType": "uint256",
          "name": "",
          "type": "uint256"
        }
      ],
      "stateMutability": "view",
      "type": "function"
    },
    {
      "inputs": [],
      "name": "minLockTime",
      "outputs": [
        {
          "internalType": "uint256",
          "name": "",
          "type": "uint256"
        }
      ],
      "stateMutability": "view",
      "type": "function"
    },
    {
      "inputs": [],
      "name": "name",
      "outputs": [
        {
          "internalType": "string",
          "name": "",
          "type": "string"
        }
      ],
      "stateMutability": "view",
      "type": "function"
    },
    {
      "inputs": [],
      "name": "owner",
      "outputs": [
        {
          "internalType": "address",
          "name": "",
          "type": "address"
        }
      ],
      "stateMutability": "view",
      "type": "function"
    },
    {
      "inputs": [
        {
          "internalType": "address",
          "name": "_toRemove",
          "type": "address"
        }
      ],
      "name": "removeAuthorized",
      "outputs": [],
      "stateMutability": "nonpayable",
      "type": "function"
    },
    {
      "inputs": [],
      "name": "renounceOwnership",
      "outputs": [],
      "stateMutability": "nonpayable",
      "type": "function"
    },
    {
      "inputs": [
        {
          "internalType": "uint256",
          "name": "amountInMaster",
          "type": "uint256"
        },
        {
          "internalType": "bool",
          "name": "allowEmergency",
          "type": "bool"
        }
      ],
      "name": "requestSellToTheory",
      "outputs": [],
      "stateMutability": "nonpayable",
      "type": "function"
    },
    {
      "inputs": [],
      "name": "sellToTheory",
      "outputs": [],
      "stateMutability": "nonpayable",
      "type": "function"
    },
    {
      "inputs": [
        {
          "internalType": "uint256",
          "name": "lockTime",
          "type": "uint256"
        },
        {
          "internalType": "uint256",
          "name": "penalty",
          "type": "uint256"
        }
      ],
      "name": "setTimes",
      "outputs": [],
      "stateMutability": "nonpayable",
      "type": "function"
    },
    {
      "inputs": [
        {
          "internalType": "uint256",
          "name": "amount",
          "type": "uint256"
        }
      ],
      "name": "stakeExternalTheory",
      "outputs": [],
      "stateMutability": "nonpayable",
      "type": "function"
    },
    {
      "inputs": [],
      "name": "symbol",
      "outputs": [
        {
          "internalType": "string",
          "name": "",
          "type": "string"
        }
      ],
      "stateMutability": "view",
      "type": "function"
    },
    {
      "inputs": [],
      "name": "theoretics",
      "outputs": [
        {
          "internalType": "contract ITheoretics",
          "name": "",
          "type": "address"
        }
      ],
      "stateMutability": "view",
      "type": "function"
    },
    {
      "inputs": [],
      "name": "theory",
      "outputs": [
        {
          "internalType": "contract IERC20Lockable",
          "name": "",
          "type": "address"
        }
      ],
      "stateMutability": "view",
      "type": "function"
    },
    {
      "inputs": [
        {
          "internalType": "uint256",
          "name": "_amount",
          "type": "uint256"
        }
      ],
      "name": "theoryToMaster",
      "outputs": [
        {
          "internalType": "uint256",
          "name": "",
          "type": "uint256"
        }
      ],
      "stateMutability": "view",
      "type": "function"
    },
    {
      "inputs": [
        {
          "internalType": "uint256",
          "name": "_amount",
          "type": "uint256"
        },
        {
          "internalType": "uint256",
          "name": "totalGovernanceToken",
          "type": "uint256"
        },
        {
          "internalType": "uint256",
          "name": "totalShares",
          "type": "uint256"
        }
      ],
      "name": "theoryToMasterOwed",
      "outputs": [
        {
          "internalType": "uint256",
          "name": "",
          "type": "uint256"
        }
      ],
      "stateMutability": "view",
      "type": "function"
    },
    {
      "inputs": [],
      "name": "totalStakeRequestedInTheory",
      "outputs": [
        {
          "internalType": "uint256",
          "name": "",
          "type": "uint256"
        }
      ],
      "stateMutability": "view",
      "type": "function"
    },
    {
      "inputs": [],
      "name": "totalSupply",
      "outputs": [
        {
          "internalType": "uint256",
          "name": "",
          "type": "uint256"
        }
      ],
      "stateMutability": "view",
      "type": "function"
    },
    {
      "inputs": [
        {
          "internalType": "uint256",
          "name": "snapshotId",
          "type": "uint256"
        }
      ],
      "name": "totalSupplyAt",
      "outputs": [
        {
          "internalType": "uint256",
          "name": "",
          "type": "uint256"
        }
      ],
      "stateMutability": "view",
      "type": "function"
    },
    {
      "inputs": [],
      "name": "totalWithdrawRequestedInMaster",
      "outputs": [
        {
          "internalType": "uint256",
          "name": "",
          "type": "uint256"
        }
      ],
      "stateMutability": "view",
      "type": "function"
    },
    {
      "inputs": [],
      "name": "totalWithdrawRequestedInTheory",
      "outputs": [
        {
          "internalType": "uint256",
          "name": "",
          "type": "uint256"
        }
      ],
      "stateMutability": "view",
      "type": "function"
    },
    {
      "inputs": [],
      "name": "totalWithdrawUnclaimedInTheory",
      "outputs": [
        {
          "internalType": "uint256",
          "name": "",
          "type": "uint256"
        }
      ],
      "stateMutability": "view",
      "type": "function"
    },
    {
      "inputs": [
        {
          "internalType": "address",
          "name": "recipient",
          "type": "address"
        },
        {
          "internalType": "uint256",
          "name": "amount",
          "type": "uint256"
        }
      ],
      "name": "transfer",
      "outputs": [
        {
          "internalType": "bool",
          "name": "",
          "type": "bool"
        }
      ],
      "stateMutability": "nonpayable",
      "type": "function"
    },
    {
      "inputs": [
        {
          "internalType": "address",
          "name": "sender",
          "type": "address"
        },
        {
          "internalType": "address",
          "name": "recipient",
          "type": "address"
        },
        {
          "internalType": "uint256",
          "name": "amount",
          "type": "uint256"
        }
      ],
      "name": "transferFrom",
      "outputs": [
        {
          "internalType": "bool",
          "name": "",
          "type": "bool"
        }
      ],
      "stateMutability": "nonpayable",
      "type": "function"
    },
    {
      "inputs": [
        {
          "internalType": "address",
          "name": "newOwner",
          "type": "address"
        }
      ],
      "name": "transferOwnership",
      "outputs": [],
      "stateMutability": "nonpayable",
      "type": "function"
    },
    {
      "inputs": [
        {
          "internalType": "contract IERC20",
          "name": "_token",
          "type": "address"
        },
        {
          "internalType": "address",
          "name": "to",
          "type": "address"
        },
        {
          "internalType": "uint256",
          "name": "amount",
          "type": "uint256"
        }
      ],
      "name": "transferToken",
      "outputs": [],
      "stateMutability": "nonpayable",
      "type": "function"
    },
    {
      "inputs": [],
      "name": "treasury",
      "outputs": [
        {
          "internalType": "contract ITreasury",
          "name": "",
          "type": "address"
        }
      ],
      "stateMutability": "view",
      "type": "function"
    },
    {
      "inputs": [],
      "name": "unlockedClaimPenalty",
      "outputs": [
        {
          "internalType": "uint256",
          "name": "",
          "type": "uint256"
        }
      ],
      "stateMutability": "view",
      "type": "function"
    },
    {
      "inputs": [
        {
          "internalType": "address",
          "name": "",
          "type": "address"
        }
      ],
      "name": "userInfo",
      "outputs": [
        {
          "internalType": "uint256",
          "name": "lockToTime",
          "type": "uint256"
        },
        {
          "internalType": "uint256",
          "name": "chosenLockTime",
          "type": "uint256"
        },
        {
          "internalType": "address",
          "name": "approveTransferFrom",
          "type": "address"
        },
        {
          "internalType": "uint256",
          "name": "lastSnapshotIndex",
          "type": "uint256"
        },
        {
          "internalType": "uint256",
          "name": "rewardEarned",
          "type": "uint256"
        },
        {
          "internalType": "uint256",
          "name": "withdrawRequestedInMaster",
          "type": "uint256"
        },
        {
          "internalType": "uint256",
          "name": "withdrawRequestedInTheory",
          "type": "uint256"
        },
        {
          "internalType": "uint256",
          "name": "lastStakeRequestBlock",
          "type": "uint256"
        },
        {
          "internalType": "uint256",
          "name": "lastWithdrawRequestBlock",
          "type": "uint256"
        }
      ],
      "stateMutability": "view",
      "type": "function"
    }
  ],
  "bytecode": "0x60806040523480156200001157600080fd5b506040516200597d3803806200597d833981810160405260808110156200003757600080fd5b50805160208083015160408085015160609095015181518083018352600c81526b26b0b9ba32b9102a37b5b2b760a11b8186019081528351808501909452600684526526a0a9aa22a960d11b9584019590955280519596939593949193909291620000a6916003919062000239565b508051620000bc90600490602084019062000239565b50506005805460ff19166012179055506000620000d862000235565b600a80546001600160a01b0319166001600160a01b038316908117909155604051919250906000907f8be0079c531659141344cd1fd0a4f28419497f9722a3daafe3b4186f6b6457e0908290a350600e80546001600160a01b038087166001600160a01b031992831617909255600f80548684169083161790556010805485841690831617905560118054928416929091169190911790556301e1338060125562278d0060135562000189620002be565b505060408051606081018252438152600060208201818152928201818152601c8054600181018255925291517f0e4562a10381dec21b205ed72637e6b1b523bdd0e4d4d50af5cd23dd4500a21160039092029182015591517f0e4562a10381dec21b205ed72637e6b1b523bdd0e4d4d50af5cd23dd4500a212830155517f0e4562a10381dec21b205ed72637e6b1b523bdd0e4d4d50af5cd23dd4500a2139091015550620002f6915050565b3390565b828054600181600116156101000203166002900490600052602060002090601f016020900481019282601f106200027c57805160ff1916838001178555620002ac565b82800160010185558215620002ac579182015b82811115620002ac5782518255916020019190600101906200028f565b50620002ba929150620002df565b5090565b60405180606001604052806000815260200160008152602001600081525090565b5b80821115620002ba5760008155600101620002e0565b61567780620003066000396000f3fe608060405234801561001057600080fd5b506004361061030b5760003560e01c8063715018a61161019d578063b9181611116100e9578063dd62ed3e116100a2578063f2fde38b1161007c578063f2fde38b146108b8578063f5537ede146108de578063f894dd2114610914578063fdb781c81461093d5761030b565b8063dd62ed3e14610826578063e4d2c45e14610854578063f0e0d9f61461087d5761030b565b8063b91816111461078a578063c0da778e146107b0578063c3fe3e28146107b8578063c4e69329146107c0578063c7b728de146107e3578063cf1c316a146108005761030b565b8063981b24d011610156578063a9059cbb11610130578063a9059cbb14610714578063ab9fb43814610740578063ad45e4ae1461075d578063aeadf88f146107655761030b565b8063981b24d0146106c3578063a457c2d7146106e0578063a60ff7661461070c5761030b565b8063715018a61461069357806377011c5f1461069b5780638da5cb5b146106a35780638ef71a4b146106ab57806395d89b41146106b357806397b98e4a146106bb5761030b565b8063313ce5671161025c5780634e0e7e33116102155780635936e8bd116101ef5780635936e8bd1461063757806361d027b31461063f57806370a0823114610647578063714b46581461066d5761030b565b80634e0e7e33146105e45780634ee2cd7e146106035780635358a2af1461062f5761030b565b8063313ce5671461052257806336cea11b1461054057806339509351146105665780633c32a450146105925780633f9e3f04146105b6578063485d7d94146105be5761030b565b80631959a002116102c957806323b872dd116102a357806323b872dd146104d457806323da74991461050a5780632558d4f814610512578063294f08b11461051a5761030b565b80631959a002146104345780631d7553aa146104a957806322434836146104b15761030b565b80628cc2621461031057806303da6fa51461034857806306fdde0314610350578063095ea7b3146103cd57806318160ddd1461040d57806318bb939a14610415575b600080fd5b6103366004803603602081101561032657600080fd5b50356001600160a01b0316610945565b60408051918252519081900360200190f35b6103366109c8565b6103586109ce565b6040805160208082528351818301528351919283929083019185019080838360005b8381101561039257818101518382015260200161037a565b50505050905090810190601f1680156103bf5780820380516001836020036101000a031916815260200191505b509250505060405180910390f35b6103f9600480360360408110156103e357600080fd5b506001600160a01b038135169060200135610a64565b604080519115158252519081900360200190f35b610336610a82565b6104326004803603602081101561042b57600080fd5b5035610a88565b005b61045a6004803603602081101561044a57600080fd5b50356001600160a01b0316610e6d565b60408051998a5260208a01989098526001600160a01b03909616888801526060880194909452608087019290925260a086015260c085015260e084015261010083015251908190036101200190f35b610336610ec2565b610432600480360360408110156104c757600080fd5b5080359060200135610ec8565b6103f9600480360360608110156104ea57600080fd5b506001600160a01b03813581169160208101359091169060400135610fe4565b61033661106c565b610336611072565b610336611078565b61052a61107e565b6040805160ff9092168252519081900360200190f35b6104326004803603602081101561055657600080fd5b50356001600160a01b0316611087565b6103f96004803603604081101561057c57600080fd5b506001600160a01b0381351690602001356110b9565b61059a611107565b604080516001600160a01b039092168252519081900360200190f35b610336611116565b610432600480360360208110156105d457600080fd5b50356001600160a01b031661112c565b610432600480360360208110156105fa57600080fd5b503515156111c5565b6103366004803603604081101561061957600080fd5b506001600160a01b038135169060200135611256565b61033661129f565b6104326112a5565b61059a611520565b6103366004803603602081101561065d57600080fd5b50356001600160a01b031661152f565b6103366004803603602081101561068357600080fd5b50356001600160a01b031661154a565b610432611568565b610336611614565b61059a61161a565b610336611629565b61035861162f565b610432611690565b610336600480360360208110156106d957600080fd5b5035611c99565b6103f9600480360360408110156106f657600080fd5b506001600160a01b038135169060200135611cbf565b610336611d27565b6103f96004803603604081101561072a57600080fd5b506001600160a01b038135169060200135611d2d565b6103366004803603602081101561075657600080fd5b5035611d41565b61059a611e03565b6104326004803603604081101561077b57600080fd5b50803590602001351515611e12565b6103f9600480360360208110156107a057600080fd5b50356001600160a01b031661224a565b61033661225f565b61059a612265565b610432600480360360408110156107d657600080fd5b5080359060200135612274565b610336600480360360208110156107f957600080fd5b5035612790565b6104326004803603602081101561081657600080fd5b50356001600160a01b0316612820565b6103366004803603604081101561083c57600080fd5b506001600160a01b03813581169160200135166128a6565b6103366004803603606081101561086a57600080fd5b50803590602081013590604001356128d1565b61089a6004803603602081101561089357600080fd5b50356128fa565b60408051938452602084019290925282820152519081900360600190f35b610432600480360360208110156108ce57600080fd5b50356001600160a01b031661292a565b610432600480360360608110156108f457600080fd5b506001600160a01b03813581169160208101359091169060400135612a2d565b6103366004803603606081101561092a57600080fd5b5080359060208101359060400135612c04565b610432612c2d565b600080610950612ea5565b604001519050600061096184612efd565b6040908101516001600160a01b0386166000908152600d60205291909120600401549091506109be906109b8670de0b6b3a76400006109b26109a38787612f58565b6109ac8a61152f565b90612fb5565b9061300e565b90613075565b925050505b919050565b60195481565b60038054604080516020601f6002600019610100600188161502019095169490940493840181900481028201810190925282815260609390929091830182828015610a5a5780601f10610a2f57610100808354040283529160200191610a5a565b820191906000526020600020905b815481529060010190602001808311610a3d57829003601f168201915b5050505050905090565b6000610a78610a716130cf565b84846130d3565b5060015b92915050565b60025490565b336000908152600b602052604090205460ff1680610ab5575033610aaa61161a565b6001600160a01b0316145b610b01576040805162461bcd60e51b815260206004820152601860248201527718d85b1b195c881a5cc81b9bdd08185d5d1a1bdc9a5e995960421b604482015290519081900360640190fd5b610b096131bf565b15610b455760405162461bcd60e51b815260040180806020018281038252602681526020018061558e6026913960400191505060405180910390fd5b610b4d6131e0565b15610b895760405162461bcd60e51b815260040180806020018281038252602681526020018061558e6026913960400191505060405180910390fd5b610c20610ba360175460145461307590919063ffffffff16565b600e54604080516370a0823160e01b815230600482015290516001600160a01b03909216916370a0823191602480820192602092909190829003018186803b158015610bee57600080fd5b505afa158015610c02573d6000803e3d6000fd5b505050506040513d6020811015610c1857600080fd5b505190612f58565b811115610c74576040805162461bcd60e51b815260206004820152601b60248201527f43616e6e6f74207374616b652070656e64696e672066756e64732e0000000000604482015290519081900360640190fd5b601060009054906101000a90046001600160a01b03166001600160a01b031663900cf0cf6040518163ffffffff1660e01b815260040160206040518083038186803b158015610cc257600080fd5b505afa158015610cd6573d6000803e3d6000fd5b505050506040513d6020811015610cec57600080fd5b50516019541480610d745750601060009054906101000a90046001600160a01b03166001600160a01b03166313f24daf6040518163ffffffff1660e01b815260040160206040518083038186803b158015610d4657600080fd5b505afa158015610d5a573d6000803e3d6000fd5b505050506040513d6020811015610d7057600080fd5b5051155b15610e1e57601054600e54610d97916001600160a01b0391821691166000613201565b601054600e54610db4916001600160a01b03918216911683613201565b6010546040805163534a7e1d60e11b81526004810184905290516001600160a01b039092169163a694fc3a9160248082019260009290919082900301818387803b158015610e0157600080fd5b505af1158015610e15573d6000803e3d6000fd5b50505050610e2f565b601454610e2b9082613075565b6014555b50436000908152600c602090815260408083203284529091528082208054600160ff1991821681179092553384529190922080549091169091179055565b600d60205260009081526040902080546001820154600283015460038401546004850154600586015460068701546007880154600890980154969795966001600160a01b039095169593949293919290919089565b601b5481565b336000908152600b602052604090205460ff1680610ef5575033610eea61161a565b6001600160a01b0316145b610f41576040805162461bcd60e51b815260206004820152601860248201527718d85b1b195c881a5cc81b9bdd08185d5d1a1bdc9a5e995960421b604482015290519081900360640190fd5b6303c26700821115610f90576040805162461bcd60e51b81526020600482015260136024820152722637b1b5903a34b6b2903a37b7903434b3b41760691b604482015290519081900360640190fd5b81811115610fd9576040805162461bcd60e51b81526020600482015260116024820152702832b730b63a3c903a37b7903434b3b41760791b604482015290519081900360640190fd5b601291909155601355565b6000610ff1848484613319565b61106184610ffd6130cf565b61105c85604051806060016040528060288152602001615451602891396001600160a01b038a1660009081526001602052604081209061103b6130cf565b6001600160a01b031681526020810191909152604001600020549190613559565b6130d3565b5060015b9392505050565b60175481565b60155481565b60145481565b60055460ff1690565b336000908152600d6020526040902060020180546001600160a01b0319166001600160a01b0392909216919091179055565b6000610a786110c66130cf565b8461105c85600160006110d76130cf565b6001600160a01b03908116825260208083019390935260409182016000908120918c168152925290205490613075565b600e546001600160a01b031681565b601c54600090611127906001612f58565b905090565b6111346130cf565b6001600160a01b031661114561161a565b6001600160a01b03161461118e576040805162461bcd60e51b81526020600482018190526024820152600080516020615479833981519152604482015290519081900360640190fd5b6001600160a01b0381163314156111a457600080fd5b6001600160a01b03166000908152600b60205260409020805460ff19169055565b6111cd6131bf565b156112095760405162461bcd60e51b815260040180806020018281038252602681526020018061558e6026913960400191505060405180910390fd5b6112116131e0565b1561124d5760405162461bcd60e51b815260040180806020018281038252602681526020018061558e6026913960400191505060405180910390fd5b610e2f816135f0565b6001600160a01b03821660009081526006602052604081208190819061127d908590614212565b91509150816112945761128f8561152f565b611296565b805b95945050505050565b60135481565b6112ad6131bf565b156112e95760405162461bcd60e51b815260040180806020018281038252602681526020018061558e6026913960400191505060405180910390fd5b6112f16131e0565b1561132d5760405162461bcd60e51b815260040180806020018281038252602681526020018061558e6026913960400191505060405180910390fd5b3380156114605761133c615231565b506001600160a01b038082166000908152600d6020908152604091829020825161012081018452815481526001820154928101929092526002810154909316918101919091526003820154606082015260048201546080820152600582015460a0820152600682015460c0820152600782015460e08201526008909101546101008201526113c982610945565b60808201526113d6611116565b606082019081526001600160a01b038381166000908152600d602090815260409182902085518155908501516001820155908401516002820180546001600160a01b0319169190931617909155905160038201556080820151600482015560a0820151600582015560c0820151600682015560e08201516007820155610100909101516008909101555b600061146b33610945565b116114b1576040805162461bcd60e51b815260206004820152601160248201527027379023a0a6a2903a379031b630b4b69760791b604482015290519081900360640190fd5b336000908152600d60205260409020805442106114d9576013546114d6904290613075565b81555b6114e161430f565b5050436000908152600c602090815260408083203284529091528082208054600160ff1991821681179092553384529190922080549091169091179055565b6011546001600160a01b031681565b6001600160a01b031660009081526020819052604090205490565b6001600160a01b03166000908152600d602052604090206003015490565b6115706130cf565b6001600160a01b031661158161161a565b6001600160a01b0316146115ca576040805162461bcd60e51b81526020600482018190526024820152600080516020615479833981519152604482015290519081900360640190fd5b600a546040516000916001600160a01b0316907f8be0079c531659141344cd1fd0a4f28419497f9722a3daafe3b4186f6b6457e0908390a3600a80546001600160a01b0319169055565b60185481565b600a546001600160a01b031690565b60165481565b60048054604080516020601f6002600019610100600188161502019095169490940493840181900481028201810190925282815260609390929091830182828015610a5a5780601f10610a2f57610100808354040283529160200191610a5a565b6116986131bf565b156116d45760405162461bcd60e51b815260040180806020018281038252602681526020018061558e6026913960400191505060405180910390fd5b6116dc6131e0565b156117185760405162461bcd60e51b815260040180806020018281038252602681526020018061558e6026913960400191505060405180910390fd5b601054604080516313f24daf60e01b815290516000926001600160a01b0316916313f24daf916004808301926020929190829003018186803b15801561175d57600080fd5b505afa158015611771573d6000803e3d6000fd5b505050506040513d602081101561178757600080fd5b50519050801580611819575061181781601060009054906101000a90046001600160a01b03166001600160a01b031663900cf0cf6040518163ffffffff1660e01b815260040160206040518083038186803b1580156117e557600080fd5b505afa1580156117f9573d6000803e3d6000fd5b505050506040513d602081101561180f57600080fd5b5051906144d6565b155b61186a576040805162461bcd60e51b815260206004820152601e60248201527f4d7573742063616c6c20617420612077697468647261772065706f63682e0000604482015290519081900360640190fd5b8015806118ef5750601060009054906101000a90046001600160a01b03166001600160a01b031663c5967c266040518163ffffffff1660e01b815260040160206040518083038186803b1580156118c057600080fd5b505afa1580156118d4573d6000803e3d6000fd5b505050506040513d60208110156118ea57600080fd5b505142115b8061194d575061070861194a42601060009054906101000a90046001600160a01b03166001600160a01b031663c5967c266040518163ffffffff1660e01b815260040160206040518083038186803b158015610bee57600080fd5b11155b6119885760405162461bcd60e51b81526004018080602001828103825260348152602001806154ba6034913960400191505060405180910390fd5b801580611a105750601060009054906101000a90046001600160a01b03166001600160a01b031663900cf0cf6040518163ffffffff1660e01b815260040160206040518083038186803b1580156119de57600080fd5b505afa1580156119f2573d6000803e3d6000fd5b505050506040513d6020811015611a0857600080fd5b505160195414155b611a53576040805162461bcd60e51b815260206004820152600f60248201526e20b63932b0b23c9031b0b63632b21760891b604482015290519081900360640190fd5b801580611ada5750601060009054906101000a90046001600160a01b03166001600160a01b031663900cf0cf6040518163ffffffff1660e01b815260040160206040518083038186803b158015611aa957600080fd5b505afa158015611abd573d6000803e3d6000fd5b505050506040513d6020811015611ad357600080fd5b5051601854145b611b24576040805162461bcd60e51b815260206004820152601660248201527524b734ba34b0ba32903830b93a1018903334b939ba1760511b604482015290519081900360640190fd5b60145415611bd957601054600e54611b4a916001600160a01b0391821691166000613201565b601054601454600e54611b6b926001600160a01b0391821692911690613201565b6010546014546040805163534a7e1d60e11b81526004810192909252516001600160a01b039092169163a694fc3a9160248082019260009290919082900301818387803b158015611bbb57600080fd5b505af1158015611bcf573d6000803e3d6000fd5b5050600060145550505b601060009054906101000a90046001600160a01b03166001600160a01b031663900cf0cf6040518163ffffffff1660e01b815260040160206040518083038186803b158015611c2757600080fd5b505afa158015611c3b573d6000803e3d6000fd5b505050506040513d6020811015611c5157600080fd5b50516019555043601b8190556000908152600c602090815260408083203284529091528082208054600160ff1991821681179092553384529190922080549091169091179055565b6000806000611ca9846007614212565b915091508161106557611cba610a82565b6109be565b6000610a78611ccc6130cf565b8461105c8560405180606001604052806025815260200161561d6025913960016000611cf66130cf565b6001600160a01b03908116825260208083019390935260409182016000908120918d16815292529020549190613559565b60125481565b6000610a78611d3a6130cf565b8484613319565b601454601054604080516370a0823160e01b815230600482015290516000938493611dcb9391926001600160a01b03909116916370a08231916024808301926020929190829003018186803b158015611d9957600080fd5b505afa158015611dad573d6000803e3d6000fd5b505050506040513d6020811015611dc357600080fd5b505190613075565b90506000611dd7610a82565b9050801580611de4575081155b15611df35783925050506109c3565b6000611296836109b28785612fb5565b6010546001600160a01b031681565b611e1a6131bf565b15611e565760405162461bcd60e51b815260040180806020018281038252602681526020018061558e6026913960400191505060405180910390fd5b611e5e6131e0565b15611e9a5760405162461bcd60e51b815260040180806020018281038252602681526020018061558e6026913960400191505060405180910390fd5b338015611fcd57611ea9615231565b506001600160a01b038082166000908152600d6020908152604091829020825161012081018452815481526001820154928101929092526002810154909316918101919091526003820154606082015260048201546080820152600582015460a0820152600682015460c0820152600782015460e0820152600890910154610100820152611f3682610945565b6080820152611f43611116565b606082019081526001600160a01b038381166000908152600d602090815260409182902085518155908501516001820155908401516002820180546001600160a01b0319169190931617909155905160038201556080820151600482015560a0820151600582015560c0820151600682015560e08201516007820155610100909101516008909101555b336000908152600d602052604090208054421015612022576040805162461bcd60e51b815260206004820152600d60248201526c5374696c6c206c6f636b65642160981b604482015290519081900360640190fd5b60008411612071576040805162461bcd60e51b81526020600482015260176024820152762737903d32b9379030b6b7bab73a1030b63637bbb2b21760491b604482015290519081900360640190fd5b601b54158061208557508060070154601b54115b6120c05760405162461bcd60e51b81526004018080602001828103825260258152602001806153c86025913960400191505060405180910390fd5b6120c93361152f565b8414156120d8576120d861430f565b6120e3333086613319565b60058101546120f29085613075565b60058201556016546121049085613075565b601655600061211285612790565b60068301549091506121249082613075565b60068301556015546121369082613075565b6015554360088301556040805186815260208101839052815133927fcbc7c7858f9ab8ce22517d4b910042540172c3d579222cf6716e222f341ca371928290030190a2601060009054906101000a90046001600160a01b03166001600160a01b03166313f24daf6040518163ffffffff1660e01b815260040160206040518083038186803b1580156121c757600080fd5b505afa1580156121db573d6000803e3d6000fd5b505050506040513d60208110156121f157600080fd5b505161220857612200846135f0565b61220861453d565b5050436000908152600c602090815260408083203284529091528082208054600160ff1991821681179092553384529190922080549091169091179055505050565b600b6020526000908152604090205460ff1681565b601a5481565b600f546001600160a01b031681565b61227c6131bf565b156122b85760405162461bcd60e51b815260040180806020018281038252602681526020018061558e6026913960400191505060405180910390fd5b6122c06131e0565b156122fc5760405162461bcd60e51b815260040180806020018281038252602681526020018061558e6026913960400191505060405180910390fd5b33801561242f5761230b615231565b506001600160a01b038082166000908152600d6020908152604091829020825161012081018452815481526001820154928101929092526002810154909316918101919091526003820154606082015260048201546080820152600582015460a0820152600682015460c0820152600782015460e082015260089091015461010082015261239882610945565b60808201526123a5611116565b606082019081526001600160a01b038381166000908152600d602090815260409182902085518155908501516001820155908401516002820180546001600160a01b0319169190931617909155905160038201556080820151600482015560a0820151600582015560c0820151600682015560e08201516007820155610100909101516008909101555b6000831161247e576040805162461bcd60e51b81526020600482015260176024820152762737903d32b9379030b6b7bab73a1030b63637bbb2b21760491b604482015290519081900360640190fd5b336000908152600d6020526040902060058101541580156124ae5750601a5415806124ae57508060080154601a54115b6124e95760405162461bcd60e51b815260040180806020018281038252602581526020018061537d6025913960400191505060405180910390fd5b6012548310156124f95760125492505b60006125054285613075565b60018301859055825490915081111561252257612522338261472a565b600061252d86611d41565b600e54909150612548906001600160a01b0316333089614746565b61255233826147a6565b601060009054906101000a90046001600160a01b03166001600160a01b031663900cf0cf6040518163ffffffff1660e01b815260040160206040518083038186803b1580156125a057600080fd5b505afa1580156125b4573d6000803e3d6000fd5b505050506040513d60208110156125ca57600080fd5b505160195414806126525750601060009054906101000a90046001600160a01b03166001600160a01b03166313f24daf6040518163ffffffff1660e01b815260040160206040518083038186803b15801561262457600080fd5b505afa158015612638573d6000803e3d6000fd5b505050506040513d602081101561264e57600080fd5b5051155b156126fc57601054600e54612675916001600160a01b0391821691166000613201565b601054600e54612692916001600160a01b03918216911688613201565b6010546040805163534a7e1d60e11b81526004810189905290516001600160a01b039092169163a694fc3a9160248082019260009290919082900301818387803b1580156126df57600080fd5b505af11580156126f3573d6000803e3d6000fd5b5050505061270d565b6014546127099087613075565b6014555b4360078401556040805187815260208101839052815133927f90890809c654f11d6e72a28fa60149770a0d11ec6c92319d6ceb2bb0a4ea1a15928290030190a25050436000908152600c602090815260408083203284529091528082208054600160ff199182168117909255338452919092208054909116909117905550505050565b601454601054604080516370a0823160e01b8152306004820152905160009384936127e89391926001600160a01b03909116916370a08231916024808301926020929190829003018186803b158015611d9957600080fd5b905060006127f4610a82565b9050801580612801575081155b156128105783925050506109c3565b6000611296826109b28786612fb5565b6128286130cf565b6001600160a01b031661283961161a565b6001600160a01b031614612882576040805162461bcd60e51b81526020600482018190526024820152600080516020615479833981519152604482015290519081900360640190fd5b6001600160a01b03166000908152600b60205260409020805460ff19166001179055565b6001600160a01b03918216600090815260016020908152604080832093909416825291909152205490565b60008115806128de575082155b156128ea575082611065565b6000611296836109b28787612fb5565b601c818154811061290757fe5b600091825260209091206003909102018054600182015460029092015490925083565b6129326130cf565b6001600160a01b031661294361161a565b6001600160a01b03161461298c576040805162461bcd60e51b81526020600482018190526024820152600080516020615479833981519152604482015290519081900360640190fd5b6001600160a01b0381166129d15760405162461bcd60e51b81526004018080602001828103825260268152602001806152ed6026913960400191505060405180910390fd5b600a546040516001600160a01b038084169216907f8be0079c531659141344cd1fd0a4f28419497f9722a3daafe3b4186f6b6457e090600090a3600a80546001600160a01b0319166001600160a01b0392909216919091179055565b336000908152600b602052604090205460ff1680612a5a575033612a4f61161a565b6001600160a01b0316145b612aa6576040805162461bcd60e51b815260206004820152601860248201527718d85b1b195c881a5cc81b9bdd08185d5d1a1bdc9a5e995960421b604482015290519081900360640190fd5b612aae6131bf565b15612aea5760405162461bcd60e51b815260040180806020018281038252602681526020018061558e6026913960400191505060405180910390fd5b612af26131e0565b15612b2e5760405162461bcd60e51b815260040180806020018281038252602681526020018061558e6026913960400191505060405180910390fd5b6001600160a01b03831630141580612b5a5750612b56601654612b503061152f565b90612f58565b8111155b612b6357600080fd5b600e546001600160a01b0384811691161415612bb05760405162461bcd60e51b81526004018080602001828103825260228152602001806153356022913960400191505060405180910390fd5b612bc46001600160a01b0384168383614896565b5050436000908152600c602090815260408083203284529091528082208054600160ff199182168117909255338452919092208054909116909117905550565b6000811580612c11575082155b15612c1d575082611065565b6000611296846109b28786612fb5565b612c356131bf565b15612c715760405162461bcd60e51b815260040180806020018281038252602681526020018061558e6026913960400191505060405180910390fd5b612c796131e0565b15612cb55760405162461bcd60e51b815260040180806020018281038252602681526020018061558e6026913960400191505060405180910390fd5b338015612de857612cc4615231565b506001600160a01b038082166000908152600d6020908152604091829020825161012081018452815481526001820154928101929092526002810154909316918101919091526003820154606082015260048201546080820152600582015460a0820152600682015460c0820152600782015460e0820152600890910154610100820152612d5182610945565b6080820152612d5e611116565b606082019081526001600160a01b038381166000908152600d602090815260409182902085518155908501516001820155908401516002820180546001600160a01b0319169190931617909155905160038201556080820151600482015560a0820151600582015560c0820151600682015560e08201516007820155610100909101516008909101555b601060009054906101000a90046001600160a01b03166001600160a01b03166313f24daf6040518163ffffffff1660e01b815260040160206040518083038186803b158015612e3657600080fd5b505afa158015612e4a573d6000803e3d6000fd5b505050506040513d6020811015612e6057600080fd5b5051612e9d5760405162461bcd60e51b81526004018080602001828103825260218152602001806153ed6021913960400191505060405180910390fd5b610e2f61453d565b612ead615286565b601c612eb7611116565b81548110612ec157fe5b90600052602060002090600302016040518060600160405290816000820154815260200160018201548152602001600282015481525050905090565b612f05615286565b601c612f108361154a565b81548110612f1a57fe5b906000526020600020906003020160405180606001604052908160008201548152602001600182015481526020016002820154815250509050919050565b600082821115612faf576040805162461bcd60e51b815260206004820152601e60248201527f536166654d6174683a207375627472616374696f6e206f766572666c6f770000604482015290519081900360640190fd5b50900390565b600082612fc457506000610a7c565b82820282848281612fd157fe5b04146110655760405162461bcd60e51b81526004018080602001828103825260218152602001806154306021913960400191505060405180910390fd5b6000808211613064576040805162461bcd60e51b815260206004820152601a60248201527f536166654d6174683a206469766973696f6e206279207a65726f000000000000604482015290519081900360640190fd5b81838161306d57fe5b049392505050565b600082820183811015611065576040805162461bcd60e51b815260206004820152601b60248201527f536166654d6174683a206164646974696f6e206f766572666c6f770000000000604482015290519081900360640190fd5b3390565b6001600160a01b0383166131185760405162461bcd60e51b81526004018080602001828103825260248152602001806155136024913960400191505060405180910390fd5b6001600160a01b03821661315d5760405162461bcd60e51b81526004018080602001828103825260228152602001806153136022913960400191505060405180910390fd5b6001600160a01b03808416600081815260016020908152604080832094871680845294825291829020859055815185815291517f8c5be1e5ebec7d5bd14f71427d1e84f3dd0314c0f7b2291e5b200ac8c7c3b9259281900390910190a3505050565b436000908152600c6020908152604080832032845290915290205460ff1690565b436000908152600c6020908152604080832033845290915290205460ff1690565b801580613287575060408051636eb1769f60e11b81523060048201526001600160a01b03848116602483015291519185169163dd62ed3e91604480820192602092909190829003018186803b15801561325957600080fd5b505afa15801561326d573d6000803e3d6000fd5b505050506040513d602081101561328357600080fd5b5051155b6132c25760405162461bcd60e51b81526004018080602001828103825260368152602001806155b46036913960400191505060405180910390fd5b604080516001600160a01b038416602482015260448082018490528251808303909101815260649091019091526020810180516001600160e01b031663095ea7b360e01b1790526133149084906148e4565b505050565b336000908152600b602052604090205460ff168061334657503361333b61161a565b6001600160a01b0316145b806133c7575060115460408051632364d3dd60e21b8152905133926001600160a01b031691638d934f74916004808301926020929190829003018186803b15801561339057600080fd5b505afa1580156133a4573d6000803e3d6000fd5b505050506040513d60208110156133ba57600080fd5b50516001600160a01b0316145b806133d157503033145b806133f457506001600160a01b0382166000908152600b602052604090205460ff165b806134175750816001600160a01b031661340c61161a565b6001600160a01b0316145b8061349a575060115460408051632364d3dd60e21b815290516001600160a01b03808616931691638d934f74916004808301926020929190829003018186803b15801561346357600080fd5b505afa158015613477573d6000803e3d6000fd5b505050506040513d602081101561348d57600080fd5b50516001600160a01b0316145b806134ad5750306001600160a01b038316145b61354e576001600160a01b038281166000908152600d60205260409020600281015490918581169116146135125760405162461bcd60e51b815260040180806020018281038252602281526020018061540e6022913960400191505060405180910390fd5b6002810180546001600160a01b0319169055601254600090613535904290613075565b825490915081111561354b5761354b848261472a565b50505b613314838383614995565b600081848411156135e85760405162461bcd60e51b81526004018080602001828103825283818151815260200191508051906020019080838360005b838110156135ad578181015183820152602001613595565b50505050905090810190601f1680156135da5780820380516001836020036101000a031916815260200191505b509250505060405180910390fd5b505050900390565b601054604080516313f24daf60e01b815290516000926001600160a01b0316916313f24daf916004808301926020929190829003018186803b15801561363557600080fd5b505afa158015613649573d6000803e3d6000fd5b505050506040513d602081101561365f57600080fd5b505190508015806136bf57506136bd81601060009054906101000a90046001600160a01b03166001600160a01b031663900cf0cf6040518163ffffffff1660e01b815260040160206040518083038186803b1580156117e557600080fd5b155b613710576040805162461bcd60e51b815260206004820152601e60248201527f4d7573742063616c6c20617420612077697468647261772065706f63682e0000604482015290519081900360640190fd5b8015806137955750601060009054906101000a90046001600160a01b03166001600160a01b031663c5967c266040518163ffffffff1660e01b815260040160206040518083038186803b15801561376657600080fd5b505afa15801561377a573d6000803e3d6000fd5b505050506040513d602081101561379057600080fd5b505142115b806137f357506107086137f042601060009054906101000a90046001600160a01b03166001600160a01b031663c5967c266040518163ffffffff1660e01b815260040160206040518083038186803b158015610bee57600080fd5b11155b61382e5760405162461bcd60e51b81526004018080602001828103825260348152602001806154ba6034913960400191505060405180910390fd5b8015806138b65750601060009054906101000a90046001600160a01b03166001600160a01b031663900cf0cf6040518163ffffffff1660e01b815260040160206040518083038186803b15801561388457600080fd5b505afa158015613898573d6000803e3d6000fd5b505050506040513d60208110156138ae57600080fd5b505160185414155b6138f9576040805162461bcd60e51b815260206004820152600f60248201526e20b63932b0b23c9031b0b63632b21760891b604482015290519081900360640190fd5b600f5460408051632587701560e11b815230600482015290516000926001600160a01b031691634b0ee02a916024808301926020929190829003018186803b15801561394457600080fd5b505afa158015613958573d6000803e3d6000fd5b505050506040513d602081101561396e57600080fd5b50516016549091501561398d5761398730601654614af0565b60006016555b601554613a0157601060009054906101000a90046001600160a01b03166001600160a01b031663b88a802f6040518163ffffffff1660e01b8152600401600060405180830381600087803b1580156139e457600080fd5b505af11580156139f8573d6000803e3d6000fd5b50505050613dd9565b600e54604080516370a0823160e01b815230600482015290516000926001600160a01b0316916370a08231916024808301926020929190829003018186803b158015613a4c57600080fd5b505afa158015613a60573d6000803e3d6000fd5b505050506040513d6020811015613a7657600080fd5b505160158054600090915560145491925090811115613aa957601454613a9d908290612f58565b60006014559050613abd565b601454613ab69082612f58565b6014555060005b8015613d6d5760105460408051632e1a7d4d60e01b81526004810184905290516001600160a01b0390921691632e1a7d4d9160248082019260009290919082900301818387803b158015613b1057600080fd5b505af1158015613b24573d6000803e3d6000fd5b5050601754613b369250905082613075565b601755600e54604080516370a0823160e01b815230600482015290516000926001600160a01b0316916370a08231916024808301926020929190829003018186803b158015613b8457600080fd5b505afa158015613b98573d6000803e3d6000fd5b505050506040513d6020811015613bae57600080fd5b505190506000613bbe8285612f58565b90506000613bcc8483612f58565b9050871580613cda5750600081118015613cda5750600e5460115460408051632364d3dd60e21b8152905184936001600160a01b039081169363dd62ed3e93911691638d934f7491600480820192602092909190829003018186803b158015613c3457600080fd5b505afa158015613c48573d6000803e3d6000fd5b505050506040513d6020811015613c5e57600080fd5b5051604080516001600160e01b031960e085901b1681526001600160a01b039092166004830152306024830152516044808301926020929190829003018186803b158015613cab57600080fd5b505afa158015613cbf573d6000803e3d6000fd5b505050506040513d6020811015613cd557600080fd5b505110155b15613d655760115460408051632364d3dd60e21b81529051613d65926001600160a01b031691638d934f74916004808301926020929190829003018186803b158015613d2557600080fd5b505afa158015613d39573d6000803e3d6000fd5b505050506040513d6020811015613d4f57600080fd5b5051600e546001600160a01b0316903084614746565b505050613dd6565b601060009054906101000a90046001600160a01b03166001600160a01b031663b88a802f6040518163ffffffff1660e01b8152600401600060405180830381600087803b158015613dbd57600080fd5b505af1158015613dd1573d6000803e3d6000fd5b505050505b50505b600f546040805163010158bb60e51b81523060048201529051600092613ea2926001600160a01b039091169163202b176091602480820192602092909190829003018186803b158015613e2b57600080fd5b505afa158015613e3f573d6000803e3d6000fd5b505050506040513d6020811015613e5557600080fd5b5051600f5460408051635a46d3b560e01b815230600482015290516001600160a01b0390921691635a46d3b591602480820192602092909190829003018186803b158015610bee57600080fd5b90508015613f1657600f546040805163579587b360e11b81523060048201526024810184905290516001600160a01b039092169163af2b0f669160448082019260009290919082900301818387803b158015613efd57600080fd5b505af1158015613f11573d6000803e3d6000fd5b505050505b600f5460408051632587701560e11b815230600482015290516000926001600160a01b031691634b0ee02a916024808301926020929190829003018186803b158015613f6157600080fd5b505afa158015613f75573d6000803e3d6000fd5b505050506040513d6020811015613f8b57600080fd5b505190506000613f9b8285612f58565b90506000613fa7612ea5565b6040015190506000613fb7610a82565b905060008115613fe657613fe1613fda836109b287670de0b6b3a7640000612fb5565b8490613075565b613fe8565b825b9050816140e557600f5460115460408051632364d3dd60e21b815290516001600160a01b039384169363a9059cbb931691638d934f74916004808301926020929190829003018186803b15801561403e57600080fd5b505afa158015614052573d6000803e3d6000fd5b505050506040513d602081101561406857600080fd5b5051604080516001600160e01b031960e085901b1681526001600160a01b039092166004830152602482018890525160448083019260209291908290030181600087803b1580156140b857600080fd5b505af11580156140cc573d6000803e3d6000fd5b505050506040513d60208110156140e257600080fd5b50505b6140ed615286565b50604080516060810182524381526020808201878152828401858152601c805460018101825560009190915284517f0e4562a10381dec21b205ed72637e6b1b523bdd0e4d4d50af5cd23dd4500a21160039092029182015591517f0e4562a10381dec21b205ed72637e6b1b523bdd0e4d4d50af5cd23dd4500a212830155517f0e4562a10381dec21b205ed72637e6b1b523bdd0e4d4d50af5cd23dd4500a21390910155601054835163900cf0cf60e01b8152935192936001600160a01b039091169263900cf0cf92600480840193919291829003018186803b1580156141d357600080fd5b505afa1580156141e7573d6000803e3d6000fd5b505050506040513d60208110156141fd57600080fd5b5051601855505043601a555050505050505050565b60008060008411614263576040805162461bcd60e51b815260206004820152601660248201527504552433230536e617073686f743a20696420697320360541b604482015290519081900360640190fd5b61426d6009614bec565b8411156142c1576040805162461bcd60e51b815260206004820152601d60248201527f4552433230536e617073686f743a206e6f6e6578697374656e74206964000000604482015290519081900360640190fd5b60006142cd8486614bf0565b84549091508114156142e6576000809250925050614308565b60018460010182815481106142f757fe5b906000526020600020015492509250505b9250929050565b336000908152600d602052604090206004015480156144d357336000818152600d6020526040812060040155600f54614354916001600160a01b039091169083614896565b600080601060009054906101000a90046001600160a01b03166001600160a01b0316638278b53b6040518163ffffffff1660e01b815260040160206040518083038186803b1580156143a557600080fd5b505afa1580156143b9573d6000803e3d6000fd5b505050506040513d60208110156143cf57600080fd5b5051905060648111156144135760405162461bcd60e51b815260040180806020018281038252602d815260200180615537602d913960400191505060405180910390fd5b61442260646109b28584612fb5565b9150811561449657600f546040805163282d3fdf60e01b81523360048201526024810185905290516001600160a01b039092169163282d3fdf9160448082019260009290919082900301818387803b15801561447d57600080fd5b505af1158015614491573d6000803e3d6000fd5b505050505b6040805184815260208101849052815133927fd6f2c8500df5b44f11e9e48b91ff9f1b9d81bc496d55570c2b1b75bf65243f51928290030190a250505b50565b600080821161452c576040805162461bcd60e51b815260206004820152601860248201527f536166654d6174683a206d6f64756c6f206279207a65726f0000000000000000604482015290519081900360640190fd5b81838161453557fe5b069392505050565b336000908152600d602052604090208054421015614592576040805162461bcd60e51b815260206004820152600d60248201526c5374696c6c206c6f636b65642160981b604482015290519081900360640190fd5b60008160050154116145e5576040805162461bcd60e51b81526020600482015260176024820152762737903d32b9379030b6b7bab73a1030b63637bbb2b21760491b604482015290519081900360640190fd5b601060009054906101000a90046001600160a01b03166001600160a01b03166313f24daf6040518163ffffffff1660e01b815260040160206040518083038186803b15801561463357600080fd5b505afa158015614647573d6000803e3d6000fd5b505050506040513d602081101561465d57600080fd5b5051158061467057508060080154601a54115b6146ab5760405162461bcd60e51b81526004018080602001828103825260338152602001806155ea6033913960400191505060405180910390fd5b60068101546017546146bd9082612f58565b6017556005820180546000918290556006840191909155600e546146eb906001600160a01b03163384614896565b6040805182815260208101849052815133927ff279e6a1f5e320cca91135676d9cb6e44ca8a08c0b88342bcdb1144f6511b568928290030190a2505050565b6001600160a01b039091166000908152600d6020526040902055565b604080516001600160a01b0380861660248301528416604482015260648082018490528251808303909101815260849091019091526020810180516001600160e01b03166323b872dd60e01b1790526147a09085906148e4565b50505050565b6001600160a01b038216614801576040805162461bcd60e51b815260206004820152601f60248201527f45524332303a206d696e7420746f20746865207a65726f206164647265737300604482015290519081900360640190fd5b61480d60008383614c91565b60025461481a9082613075565b6002556001600160a01b0382166000908152602081905260409020546148409082613075565b6001600160a01b0383166000818152602081815260408083209490945583518581529351929391927fddf252ad1be2c89b69c2b068fc378daa952ba7f163c4a11628f55a4df523b3ef9281900390910190a35050565b604080516001600160a01b038416602482015260448082018490528251808303909101815260649091019091526020810180516001600160e01b031663a9059cbb60e01b1790526133149084905b6060614939826040518060400160405280602081526020017f5361666545524332303a206c6f772d6c6576656c2063616c6c206661696c6564815250856001600160a01b0316614f1b9092919063ffffffff16565b8051909150156133145780806020019051602081101561495857600080fd5b50516133145760405162461bcd60e51b815260040180806020018281038252602a815260200180615564602a913960400191505060405180910390fd5b6001600160a01b0383166149da5760405162461bcd60e51b81526004018080602001828103825260258152602001806154ee6025913960400191505060405180910390fd5b6001600160a01b038216614a1f5760405162461bcd60e51b81526004018080602001828103825260238152602001806152a86023913960400191505060405180910390fd5b614a2a838383614c91565b614a6781604051806060016040528060268152602001615357602691396001600160a01b0386166000908152602081905260409020549190613559565b6001600160a01b038085166000908152602081905260408082209390935590841681522054614a969082613075565b6001600160a01b038084166000818152602081815260409182902094909455805185815290519193928716927fddf252ad1be2c89b69c2b068fc378daa952ba7f163c4a11628f55a4df523b3ef92918290030190a3505050565b6001600160a01b038216614b355760405162461bcd60e51b81526004018080602001828103825260218152602001806154996021913960400191505060405180910390fd5b614b4182600083614c91565b614b7e816040518060600160405280602281526020016152cb602291396001600160a01b0385166000908152602081905260409020549190613559565b6001600160a01b038316600090815260208190526040902055600254614ba49082612f58565b6002556040805182815290516000916001600160a01b038516917fddf252ad1be2c89b69c2b068fc378daa952ba7f163c4a11628f55a4df523b3ef9181900360200190a35050565b5490565b8154600090614c0157506000610a7c565b82546000905b80821015614c50576000614c1b8383614f32565b905084868281548110614c2a57fe5b90600052602060002001541115614c4357809150614c4a565b8060010192505b50614c07565b600082118015614c78575083856001840381548110614c6b57fe5b9060005260206000200154145b15614c895750600019019050610a7c565b509050610a7c565b826001600160a01b03811615614dcd57614ca9615231565b506001600160a01b038082166000908152600d6020908152604091829020825161012081018452815481526001820154928101929092526002810154909316918101919091526003820154606082015260048201546080820152600582015460a0820152600682015460c0820152600782015460e0820152600890910154610100820152614d3682610945565b6080820152614d43611116565b606082019081526001600160a01b038381166000908152600d602090815260409182902085518155908501516001820155908401516002820180546001600160a01b0319169190931617909155905160038201556080820151600482015560a0820151600582015560c0820151600682015560e08201516007820155610100909101516008909101555b826001600160a01b03811615614f0957614de5615231565b506001600160a01b038082166000908152600d6020908152604091829020825161012081018452815481526001820154928101929092526002810154909316918101919091526003820154606082015260048201546080820152600582015460a0820152600682015460c0820152600782015460e0820152600890910154610100820152614e7282610945565b6080820152614e7f611116565b606082019081526001600160a01b038381166000908152600d602090815260409182902085518155908501516001820155908401516002820180546001600160a01b0319169190931617909155905160038201556080820151600482015560a0820151600582015560c0820151600682015560e08201516007820155610100909101516008909101555b614f14858585614f57565b5050505050565b6060614f2a8484600085614faf565b949350505050565b60006002808306600285060181614f4557fe5b04600283046002850401019392505050565b614f62838383613314565b6001600160a01b038316614f8657614f798261510b565b614f81615135565b613314565b6001600160a01b038216614f9d57614f798361510b565b614fa68361510b565b6133148261510b565b606082471015614ff05760405162461bcd60e51b81526004018080602001828103825260268152602001806153a26026913960400191505060405180910390fd5b614ff985615144565b61504a576040805162461bcd60e51b815260206004820152601d60248201527f416464726573733a2063616c6c20746f206e6f6e2d636f6e7472616374000000604482015290519081900360640190fd5b60006060866001600160a01b031685876040518082805190602001908083835b602083106150895780518252601f19909201916020918201910161506a565b6001836020036101000a03801982511681845116808217855250505050505090500191505060006040518083038185875af1925050503d80600081146150eb576040519150601f19603f3d011682016040523d82523d6000602084013e6150f0565b606091505b509150915061510082828661514a565b979650505050505050565b6001600160a01b03811660009081526006602052604090206144d3906151308361152f565b6151b0565b6151426007615130610a82565b565b3b151590565b60608315615159575081611065565b8251156151695782518084602001fd5b60405162461bcd60e51b81526020600482018181528451602484015284518593919283926044019190850190808383600083156135ad578181015183820152602001613595565b60006151bc6009614bec565b9050806151c8846151fc565b1015613314578254600180820185556000858152602080822090930193909355938401805494850181558252902090910155565b805460009061520d575060006109c3565b81548290600019810190811061521f57fe5b906000526020600020015490506109c3565b604051806101200160405280600081526020016000815260200160006001600160a01b031681526020016000815260200160008152602001600081526020016000815260200160008152602001600081525090565b6040518060600160405280600081526020016000815260200160008152509056fe45524332303a207472616e7366657220746f20746865207a65726f206164647265737345524332303a206275726e20616d6f756e7420657863656564732062616c616e63654f776e61626c653a206e6577206f776e657220697320746865207a65726f206164647265737345524332303a20617070726f766520746f20746865207a65726f206164647265737343616e6e6f74206272696e6720646f776e207072696365206f66204d41535445522e45524332303a207472616e7366657220616d6f756e7420657863656564732062616c616e636543616e6e6f74207374616b65207769746820612077697468647261772070656e64696e672e416464726573733a20696e73756666696369656e742062616c616e636520666f722063616c6c43616e6e6f7420776974686472617720776974682061207374616b652070656e64696e672e43616c6c207265717565737453656c6c546f5468656f727920696e73746561642e526563656976657220646964206e6f7420617070726f7665207472616e736665722e536166654d6174683a206d756c7469706c69636174696f6e206f766572666c6f7745524332303a207472616e7366657220616d6f756e74206578636565647320616c6c6f77616e63654f776e61626c653a2063616c6c6572206973206e6f7420746865206f776e657245524332303a206275726e2066726f6d20746865207a65726f20616464726573734d7573742062652063616c6c6564206174206d6f7374203330206d696e75746573206265666f72652065706f636820656e64732e45524332303a207472616e736665722066726f6d20746865207a65726f206164647265737345524332303a20617070726f76652066726f6d20746865207a65726f2061646472657373496e76616c6964206c6f636b2070657263656e746167652c20636865636b207468697320636f6e74726163742e5361666545524332303a204552433230206f7065726174696f6e20646964206e6f742073756363656564436f6e747261637447756172643a206f6e6520626c6f636b2c206f6e652066756e6374696f6e5361666545524332303a20617070726f76652066726f6d206e6f6e2d7a65726f20746f206e6f6e2d7a65726f20616c6c6f77616e6365496e69746961746f7220506172742031206e6f74207965742063616c6c6564206f722063616c6c656420746f6f20736f6f6e2e45524332303a2064656372656173656420616c6c6f77616e63652062656c6f77207a65726fa26469706673582212201a1dab08968321f22ed544a87c5d9c3bff7222d9fd402513d7cadb5880acd79c64736f6c634300060c0033",
  "linkReferences": {},
  "deployedLinkReferences": {}
}