{
  "_format": "hh-sol-artifact-1",
  "contractName": "Master",
  "sourceName": "contracts/Master.sol",
  "abi": [
    {
      "inputs": [
        {
          "internalType": "contract ITheoretics[]",
          "name": "_whitelistedStakers",
          "type": "address[]"
        },
        {
          "internalType": "address",
          "name": "_communityFund",
          "type": "address"
        }
      ],
      "stateMutability": "nonpayable",
      "type": "constructor"
    },
    {
      "anonymous": false,
      "inputs": [
        {
          "indexed": true,
          "internalType": "address",
          "name": "owner",
          "type": "address"
        },
        {
          "indexed": true,
          "internalType": "address",
          "name": "spender",
          "type": "address"
        },
        {
          "indexed": false,
          "internalType": "uint256",
          "name": "value",
          "type": "uint256"
        }
      ],
      "name": "Approval",
      "type": "event"
    },
    {
      "anonymous": false,
      "inputs": [
        {
          "indexed": true,
          "internalType": "address",
          "name": "previousOwner",
          "type": "address"
        },
        {
          "indexed": true,
          "internalType": "address",
          "name": "newOwner",
          "type": "address"
        }
      ],
      "name": "OwnershipTransferred",
      "type": "event"
    },
    {
      "anonymous": false,
      "inputs": [
        {
          "indexed": false,
          "internalType": "uint256",
          "name": "id",
          "type": "uint256"
        }
      ],
      "name": "Snapshot",
      "type": "event"
    },
    {
      "anonymous": false,
      "inputs": [
        {
          "indexed": true,
          "internalType": "address",
          "name": "from",
          "type": "address"
        },
        {
          "indexed": true,
          "internalType": "address",
          "name": "to",
          "type": "address"
        },
        {
          "indexed": false,
          "internalType": "uint256",
          "name": "value",
          "type": "uint256"
        }
      ],
      "name": "Transfer",
      "type": "event"
    },
    {
      "inputs": [
        {
          "internalType": "address",
          "name": "_toAdd",
          "type": "address"
        }
      ],
      "name": "addAuthorized",
      "outputs": [],
      "stateMutability": "nonpayable",
      "type": "function"
    },
    {
      "inputs": [
        {
          "internalType": "address",
          "name": "owner",
          "type": "address"
        },
        {
          "internalType": "address",
          "name": "spender",
          "type": "address"
        }
      ],
      "name": "allowance",
      "outputs": [
        {
          "internalType": "uint256",
          "name": "",
          "type": "uint256"
        }
      ],
      "stateMutability": "view",
      "type": "function"
    },
    {
      "inputs": [
        {
          "internalType": "address",
          "name": "spender",
          "type": "address"
        },
        {
          "internalType": "uint256",
          "name": "amount",
          "type": "uint256"
        }
      ],
      "name": "approve",
      "outputs": [
        {
          "internalType": "bool",
          "name": "",
          "type": "bool"
        }
      ],
      "stateMutability": "nonpayable",
      "type": "function"
    },
    {
      "inputs": [
        {
          "internalType": "address",
          "name": "",
          "type": "address"
        }
      ],
      "name": "approveTransferFrom",
      "outputs": [
        {
          "internalType": "address",
          "name": "",
          "type": "address"
        }
      ],
      "stateMutability": "view",
      "type": "function"
    },
    {
      "inputs": [
        {
          "internalType": "address",
          "name": "",
          "type": "address"
        }
      ],
      "name": "authorized",
      "outputs": [
        {
          "internalType": "bool",
          "name": "",
          "type": "bool"
        }
      ],
      "stateMutability": "view",
      "type": "function"
    },
    {
      "inputs": [
        {
          "internalType": "address",
          "name": "account",
          "type": "address"
        }
      ],
      "name": "balanceOf",
      "outputs": [
        {
          "internalType": "uint256",
          "name": "",
          "type": "uint256"
        }
      ],
      "stateMutability": "view",
      "type": "function"
    },
    {
      "inputs": [
        {
          "internalType": "address",
          "name": "account",
          "type": "address"
        },
        {
          "internalType": "uint256",
          "name": "snapshotId",
          "type": "uint256"
        }
      ],
      "name": "balanceOfAt",
      "outputs": [
        {
          "internalType": "uint256",
          "name": "",
          "type": "uint256"
        }
      ],
      "stateMutability": "view",
      "type": "function"
    },
    {
      "inputs": [],
      "name": "buyFromTheory",
      "outputs": [],
      "stateMutability": "nonpayable",
      "type": "function"
    },
    {
      "inputs": [],
      "name": "communityFund",
      "outputs": [
        {
          "internalType": "address",
          "name": "",
          "type": "address"
        }
      ],
      "stateMutability": "view",
      "type": "function"
    },
    {
      "inputs": [],
      "name": "decimals",
      "outputs": [
        {
          "internalType": "uint8",
          "name": "",
          "type": "uint8"
        }
      ],
      "stateMutability": "view",
      "type": "function"
    },
    {
      "inputs": [
        {
          "internalType": "address",
          "name": "spender",
          "type": "address"
        },
        {
          "internalType": "uint256",
          "name": "subtractedValue",
          "type": "uint256"
        }
      ],
      "name": "decreaseAllowance",
      "outputs": [
        {
          "internalType": "bool",
          "name": "",
          "type": "bool"
        }
      ],
      "stateMutability": "nonpayable",
      "type": "function"
    },
    {
      "inputs": [
        {
          "internalType": "address",
          "name": "spender",
          "type": "address"
        },
        {
          "internalType": "uint256",
          "name": "addedValue",
          "type": "uint256"
        }
      ],
      "name": "increaseAllowance",
      "outputs": [
        {
          "internalType": "bool",
          "name": "",
          "type": "bool"
        }
      ],
      "stateMutability": "nonpayable",
      "type": "function"
    },
    {
      "inputs": [
        {
          "internalType": "address",
          "name": "user",
          "type": "address"
        },
        {
          "internalType": "uint256",
          "name": "lockTo",
          "type": "uint256"
        }
      ],
      "name": "lock",
      "outputs": [],
      "stateMutability": "nonpayable",
      "type": "function"
    },
    {
      "inputs": [
        {
          "internalType": "address",
          "name": "from",
          "type": "address"
        },
        {
          "internalType": "address",
          "name": "to",
          "type": "address"
        },
        {
          "internalType": "uint256",
          "name": "amount",
          "type": "uint256"
        },
        {
          "internalType": "uint256",
          "name": "lockTo",
          "type": "uint256"
        }
      ],
      "name": "lockAndTransferFrom",
      "outputs": [
        {
          "internalType": "bool",
          "name": "",
          "type": "bool"
        }
      ],
      "stateMutability": "nonpayable",
      "type": "function"
    },
    {
      "inputs": [
        {
          "internalType": "address",
          "name": "",
          "type": "address"
        }
      ],
      "name": "lockToTime",
      "outputs": [
        {
          "internalType": "uint256",
          "name": "",
          "type": "uint256"
        }
      ],
      "stateMutability": "view",
      "type": "function"
    },
    {
      "inputs": [],
      "name": "masterToTheoryMultiplier",
      "outputs": [
        {
          "internalType": "uint256",
          "name": "",
          "type": "uint256"
        }
      ],
      "stateMutability": "view",
      "type": "function"
    },
    {
      "inputs": [],
      "name": "minLockTime",
      "outputs": [
        {
          "internalType": "uint256",
          "name": "",
          "type": "uint256"
        }
      ],
      "stateMutability": "view",
      "type": "function"
    },
    {
      "inputs": [],
      "name": "name",
      "outputs": [
        {
          "internalType": "string",
          "name": "",
          "type": "string"
        }
      ],
      "stateMutability": "view",
      "type": "function"
    },
    {
      "inputs": [],
      "name": "owner",
      "outputs": [
        {
          "internalType": "address",
          "name": "",
          "type": "address"
        }
      ],
      "stateMutability": "view",
      "type": "function"
    },
    {
      "inputs": [
        {
          "internalType": "address",
          "name": "_toRemove",
          "type": "address"
        }
      ],
      "name": "removeAuthorized",
      "outputs": [],
      "stateMutability": "nonpayable",
      "type": "function"
    },
    {
      "inputs": [],
      "name": "renounceOwnership",
      "outputs": [],
      "stateMutability": "nonpayable",
      "type": "function"
    },
    {
      "inputs": [],
      "name": "sellToTheory",
      "outputs": [],
      "stateMutability": "nonpayable",
      "type": "function"
    },
    {
      "inputs": [],
      "name": "symbol",
      "outputs": [
        {
          "internalType": "string",
          "name": "",
          "type": "string"
        }
      ],
      "stateMutability": "view",
      "type": "function"
    },
    {
      "inputs": [],
      "name": "theory",
      "outputs": [
        {
          "internalType": "contract IERC20Lockable",
          "name": "",
          "type": "address"
        }
      ],
      "stateMutability": "view",
      "type": "function"
    },
    {
      "inputs": [],
      "name": "theoryToMasterMultiplier",
      "outputs": [
        {
          "internalType": "uint256",
          "name": "",
          "type": "uint256"
        }
      ],
      "stateMutability": "view",
      "type": "function"
    },
    {
      "inputs": [],
      "name": "totalSupply",
      "outputs": [
        {
          "internalType": "uint256",
          "name": "",
          "type": "uint256"
        }
      ],
      "stateMutability": "view",
      "type": "function"
    },
    {
      "inputs": [
        {
          "internalType": "uint256",
          "name": "snapshotId",
          "type": "uint256"
        }
      ],
      "name": "totalSupplyAt",
      "outputs": [
        {
          "internalType": "uint256",
          "name": "",
          "type": "uint256"
        }
      ],
      "stateMutability": "view",
      "type": "function"
    },
    {
      "inputs": [
        {
          "internalType": "address",
          "name": "recipient",
          "type": "address"
        },
        {
          "internalType": "uint256",
          "name": "amount",
          "type": "uint256"
        }
      ],
      "name": "transfer",
      "outputs": [
        {
          "internalType": "bool",
          "name": "",
          "type": "bool"
        }
      ],
      "stateMutability": "nonpayable",
      "type": "function"
    },
    {
      "inputs": [
        {
          "internalType": "address",
          "name": "sender",
          "type": "address"
        },
        {
          "internalType": "address",
          "name": "recipient",
          "type": "address"
        },
        {
          "internalType": "uint256",
          "name": "amount",
          "type": "uint256"
        }
      ],
      "name": "transferFrom",
      "outputs": [
        {
          "internalType": "bool",
          "name": "",
          "type": "bool"
        }
      ],
      "stateMutability": "nonpayable",
      "type": "function"
    },
    {
      "inputs": [
        {
          "internalType": "address",
          "name": "newOwner",
          "type": "address"
        }
      ],
      "name": "transferOwnership",
      "outputs": [],
      "stateMutability": "nonpayable",
      "type": "function"
    },
    {
      "inputs": [
        {
          "internalType": "uint256",
          "name": "",
          "type": "uint256"
        }
      ],
      "name": "whitelistedAddressesInStakers",
      "outputs": [
        {
          "internalType": "address",
          "name": "",
          "type": "address"
        }
      ],
      "stateMutability": "view",
      "type": "function"
    },
    {
      "inputs": [
        {
          "internalType": "uint256",
          "name": "",
          "type": "uint256"
        }
      ],
      "name": "whitelistedStakers",
      "outputs": [
        {
          "internalType": "contract ITheoretics",
          "name": "",
          "type": "address"
        }
      ],
      "stateMutability": "view",
      "type": "function"
    }
  ],
  "bytecode": "0x60806040523480156200001157600080fd5b506040516200202f3803806200202f833981810160405260408110156200003757600080fd5b81019080805160405193929190846401000000008211156200005857600080fd5b9083019060208201858111156200006e57600080fd5b82518660208202830111640100000000821117156200008c57600080fd5b82525081516020918201928201910280838360005b83811015620000bb578181015183820152602001620000a1565b505050509190910160408181526020938401518183018252600c83526b26b0b9ba32b9102a37b5b2b760a11b8584019081528251808401909352600683526526a0a9aa22a960d11b9583019590955282519096509194509262000122925060039162000215565b5080516200013890600490602084019062000215565b50506005805460ff191660121790555060006200015462000211565b600a80546001600160a01b0319166001600160a01b038316908117909155604051919250906000907f8be0079c531659141344cd1fd0a4f28419497f9722a3daafe3b4186f6b6457e0908290a3508151620001b79060109060208501906200029a565b5060408051602081019091526011546001600160a01b03168152620001e190600f9060016200029a565b50601180546001600160a01b0319166001600160a01b0392909216919091179055506301e1338060125562000338565b3390565b828054600181600116156101000203166002900490600052602060002090601f016020900481019282601f106200025857805160ff191683800117855562000288565b8280016001018555821562000288579182015b82811115620002885782518255916020019190600101906200026b565b506200029692915062000300565b5090565b828054828255906000526020600020908101928215620002f2579160200282015b82811115620002f257825182546001600160a01b0319166001600160a01b03909116178255602090920191600190910190620002bb565b506200029692915062000317565b5b8082111562000296576000815560010162000301565b5b80821115620002965780546001600160a01b031916815560010162000318565b611ce780620003486000396000f3fe608060405234801561001057600080fd5b50600436106101ef5760003560e01c806370a082311161010f578063a9059cbb116100a2578063cf1c316a11610071578063cf1c316a146105b2578063dd62ed3e146105d8578063f2fde38b14610606578063fdb781c81461049e576101ef565b8063a9059cbb14610507578063b918161114610533578063c702ec4b14610559578063c83ea54414610595576101ef565b806395d89b41116100de57806395d89b41146104ae578063981b24d0146104b6578063a457c2d7146104d3578063a60ff766146104ff576101ef565b806370a0823114610470578063715018a6146104965780637abde2af1461049e5780638da5cb5b146104a6576101ef565b8063313ce5671161018757806343e51c191161015657806343e51c19146103f9578063485d7d94146104165780634ee2cd7e1461043c5780635c16830d14610468576101ef565b8063313ce5671461038157806336cea11b1461039f57806339509351146103c55780633c32a450146103f1576101ef565b8063118ebd1d116101c3578063118ebd1d1461030d57806318160ddd1461031557806323b872dd1461031d578063282d3fdf14610353576101ef565b8062f380f4146101f457806304a9d3771461021857806306fdde0314610250578063095ea7b3146102cd575b600080fd5b6101fc61062c565b604080516001600160a01b039092168252519081900360200190f35b61023e6004803603602081101561022e57600080fd5b50356001600160a01b031661063b565b60408051918252519081900360200190f35b61025861064d565b6040805160208082528351818301528351919283929083019185019080838360005b8381101561029257818101518382015260200161027a565b50505050905090810190601f1680156102bf5780820380516001836020036101000a031916815260200191505b509250505060405180910390f35b6102f9600480360360408110156102e357600080fd5b506001600160a01b0381351690602001356106e4565b604080519115158252519081900360200190f35b61023e610702565b61023e610959565b6102f96004803603606081101561033357600080fd5b506001600160a01b0381358116916020810135909116906040013561095f565b61037f6004803603604081101561036957600080fd5b506001600160a01b0381351690602001356109e6565b005b610389610a69565b6040805160ff9092168252519081900360200190f35b6101fc600480360360208110156103b557600080fd5b50356001600160a01b0316610a72565b6102f9600480360360408110156103db57600080fd5b506001600160a01b038135169060200135610a8d565b6101fc610adb565b6101fc6004803603602081101561040f57600080fd5b5035610aea565b61037f6004803603602081101561042c57600080fd5b50356001600160a01b0316610b11565b61023e6004803603604081101561045257600080fd5b506001600160a01b038135169060200135610baa565b61023e610bf3565b61023e6004803603602081101561048657600080fd5b50356001600160a01b0316610d5b565b61037f610d7a565b61037f610e26565b6101fc610e28565b610258610e37565b61023e600480360360208110156104cc57600080fd5b5035610e98565b6102f9600480360360408110156104e957600080fd5b506001600160a01b038135169060200135610ec8565b61023e610f30565b6102f96004803603604081101561051d57600080fd5b506001600160a01b038135169060200135610f36565b6102f96004803603602081101561054957600080fd5b50356001600160a01b0316610f4a565b6102f96004803603608081101561056f57600080fd5b506001600160a01b03813581169160208101359091169060408101359060600135610f5f565b6101fc600480360360208110156105ab57600080fd5b5035611144565b61037f600480360360208110156105c857600080fd5b50356001600160a01b0316611151565b61023e600480360360408110156105ee57600080fd5b506001600160a01b03813581169160200135166111d7565b61037f6004803603602081101561061c57600080fd5b50356001600160a01b0316611202565b6011546001600160a01b031681565b600c6020526000908152604090205481565b60038054604080516020601f60026000196101006001881615020190951694909404938401819004810282018101909252828152606093909290918301828280156106d95780601f106106ae576101008083540402835291602001916106d9565b820191906000526020600020905b8154815290600101906020018083116106bc57829003601f168201915b505050505090505b90565b60006106f86106f1611305565b8484611309565b5060015b92915050565b60008061070d610959565b90508061072557670de0b6b3a76400009150506106e1565b601054600f546000918291829081805b8486101561081e576010868154811061074a57fe5b60009182526020822001549094506001600160a01b031691505b8284101561081357600f848154811061077957fe5b60009182526020918290200154604080516370a0823160e01b81526001600160a01b0392831660048201819052915191945061080693928616926370a0823192602480840193829003018186803b1580156107d357600080fd5b505afa1580156107e7573d6000803e3d6000fd5b505050506040513d60208110156107fd57600080fd5b505188906113f5565b9650600184019350610764565b600186019550610735565b5050600e54601154604080516370a0823160e01b81526001600160a01b0392831660048201529051610952975061093a965061092a95509190921692506370a0823191602480820192602092909190829003018186803b15801561088157600080fd5b505afa158015610895573d6000803e3d6000fd5b505050506040513d60208110156108ab57600080fd5b5051600e54604080516370a0823160e01b815230600482015290516001600160a01b03909216916370a0823191602480820192602092909190829003018186803b1580156108f857600080fd5b505afa15801561090c573d6000803e3d6000fd5b505050506040513d602081101561092257600080fd5b5051906113f5565b61093484866113f5565b906113f5565b61094c84670de0b6b3a7640000611456565b906114af565b9250505090565b60025490565b600061096c848484611516565b6109dc84610978611305565b6109d785604051806060016040528060288152602001611bfc602891396001600160a01b038a166000908152600160205260408120906109b6611305565b6001600160a01b031681526020810191909152604001600020549190611671565b611309565b5060019392505050565b336000908152600b602052604090205460ff1680610a13575033610a08610e28565b6001600160a01b0316145b610a5f576040805162461bcd60e51b815260206004820152601860248201527718d85b1b195c881a5cc81b9bdd08185d5d1a1bdc9a5e995960421b604482015290519081900360640190fd5b610a6582825b5050565b60055460ff1690565b600d602052600090815260409020546001600160a01b031681565b60006106f8610a9a611305565b846109d78560016000610aab611305565b6001600160a01b03908116825260208083019390935260409182016000908120918c1681529252902054906113f5565b600e546001600160a01b031681565b600f8181548110610af757fe5b6000918252602090912001546001600160a01b0316905081565b610b19611305565b6001600160a01b0316610b2a610e28565b6001600160a01b031614610b73576040805162461bcd60e51b81526020600482018190526024820152600080516020611c24833981519152604482015290519081900360640190fd5b6001600160a01b038116331415610b8957600080fd5b6001600160a01b03166000908152600b60205260409020805460ff19169055565b6001600160a01b038216600090815260066020526040812081908190610bd1908590611708565b9150915081610be857610be385610d5b565b610bea565b805b95945050505050565b600080610bfe610959565b905080610c1657670de0b6b3a76400009150506106e1565b601054600f546000918291829081805b84861015610cdc5760108681548110610c3b57fe5b60009182526020822001549094506001600160a01b031691505b82841015610cd157600f8481548110610c6a57fe5b60009182526020918290200154604080516370a0823160e01b81526001600160a01b03928316600482018190529151919450610cc493928616926370a0823192602480840193829003018186803b1580156107d357600080fd5b9650600184019350610c55565b600186019550610c26565b5050600e54601154604080516370a0823160e01b81526001600160a01b0392831660048201529051610952975089965061094c9550670de0b6b3a76400009450610d5593610d4b9316916370a08231916024808301926020929190829003018186803b15801561088157600080fd5b61093487896113f5565b90611456565b6001600160a01b0381166000908152602081905260409020545b919050565b610d82611305565b6001600160a01b0316610d93610e28565b6001600160a01b031614610ddc576040805162461bcd60e51b81526020600482018190526024820152600080516020611c24833981519152604482015290519081900360640190fd5b600a546040516000916001600160a01b0316907f8be0079c531659141344cd1fd0a4f28419497f9722a3daafe3b4186f6b6457e0908390a3600a80546001600160a01b0319169055565b565b600a546001600160a01b031690565b60048054604080516020601f60026000196101006001881615020190951694909404938401819004810282018101909252828152606093909290918301828280156106d95780601f106106ae576101008083540402835291602001916106d9565b6000806000610ea8846007611708565b9150915081610ebe57610eb9610959565b610ec0565b805b949350505050565b60006106f8610ed5611305565b846109d785604051806060016040528060258152602001611c8d6025913960016000610eff611305565b6001600160a01b03908116825260208083019390935260409182016000908120918d16815292529020549190611671565b60125481565b60006106f8610f43611305565b8484611516565b600b6020526000908152604090205460ff1681565b336000908152600b602052604081205460ff1680610f8c575033610f81610e28565b6001600160a01b0316145b610fd8576040805162461bcd60e51b815260206004820152601860248201527718d85b1b195c881a5cc81b9bdd08185d5d1a1bdc9a5e995960421b604482015290519081900360640190fd5b336000908152600b602052604090205460ff1680611005575033610ffa610e28565b6001600160a01b0316145b8061102857506001600160a01b0384166000908152600b602052604090205460ff165b8061104b5750836001600160a01b0316611040610e28565b6001600160a01b0316145b61110d576001600160a01b038481166000908152600d60205260409020548116908616146110aa5760405162461bcd60e51b8152600401808060200182810382526022815260200180611bb96022913960400191505060405180910390fd5b6001600160a01b0384166000908152600d6020526040812080546001600160a01b03191690556012546110de9042906113f5565b6001600160a01b0386166000908152600c602052604090205490915081111561110b5761110b8582610a65565b505b6111178483610a65565b6001600160a01b038516331415611139576111328484610f36565b9050610ec0565b610bea85858561095f565b60108181548110610af757fe5b611159611305565b6001600160a01b031661116a610e28565b6001600160a01b0316146111b3576040805162461bcd60e51b81526020600482018190526024820152600080516020611c24833981519152604482015290519081900360640190fd5b6001600160a01b03166000908152600b60205260409020805460ff19166001179055565b6001600160a01b03918216600090815260016020908152604080832093909416825291909152205490565b61120a611305565b6001600160a01b031661121b610e28565b6001600160a01b031614611264576040805162461bcd60e51b81526020600482018190526024820152600080516020611c24833981519152604482015290519081900360640190fd5b6001600160a01b0381166112a95760405162461bcd60e51b8152600401808060200182810382526026815260200180611b4b6026913960400191505060405180910390fd5b600a546040516001600160a01b038084169216907f8be0079c531659141344cd1fd0a4f28419497f9722a3daafe3b4186f6b6457e090600090a3600a80546001600160a01b0319166001600160a01b0392909216919091179055565b3390565b6001600160a01b03831661134e5760405162461bcd60e51b8152600401808060200182810382526024815260200180611c696024913960400191505060405180910390fd5b6001600160a01b0382166113935760405162461bcd60e51b8152600401808060200182810382526022815260200180611b716022913960400191505060405180910390fd5b6001600160a01b03808416600081815260016020908152604080832094871680845294825291829020859055815185815291517f8c5be1e5ebec7d5bd14f71427d1e84f3dd0314c0f7b2291e5b200ac8c7c3b9259281900390910190a3505050565b60008282018381101561144f576040805162461bcd60e51b815260206004820152601b60248201527f536166654d6174683a206164646974696f6e206f766572666c6f770000000000604482015290519081900360640190fd5b9392505050565b600082611465575060006106fc565b8282028284828161147257fe5b041461144f5760405162461bcd60e51b8152600401808060200182810382526021815260200180611bdb6021913960400191505060405180910390fd5b6000808211611505576040805162461bcd60e51b815260206004820152601a60248201527f536166654d6174683a206469766973696f6e206279207a65726f000000000000604482015290519081900360640190fd5b81838161150e57fe5b049392505050565b6001600160a01b03831661155b5760405162461bcd60e51b8152600401808060200182810382526025815260200180611c446025913960400191505060405180910390fd5b6001600160a01b0382166115a05760405162461bcd60e51b8152600401808060200182810382526023815260200180611b286023913960400191505060405180910390fd5b6115ab838383611805565b6115e881604051806060016040528060268152602001611b93602691396001600160a01b0386166000908152602081905260409020549190611671565b6001600160a01b03808516600090815260208190526040808220939093559084168152205461161790826113f5565b6001600160a01b038084166000818152602081815260409182902094909455805185815290519193928716927fddf252ad1be2c89b69c2b068fc378daa952ba7f163c4a11628f55a4df523b3ef92918290030190a3505050565b600081848411156117005760405162461bcd60e51b81526004018080602001828103825283818151815260200191508051906020019080838360005b838110156116c55781810151838201526020016116ad565b50505050905090810190601f1680156116f25780820380516001836020036101000a031916815260200191505b509250505060405180910390fd5b505050900390565b60008060008411611759576040805162461bcd60e51b815260206004820152601660248201527504552433230536e617073686f743a20696420697320360541b604482015290519081900360640190fd5b611763600961194a565b8411156117b7576040805162461bcd60e51b815260206004820152601d60248201527f4552433230536e617073686f743a206e6f6e6578697374656e74206964000000604482015290519081900360640190fd5b60006117c3848661194e565b84549091508114156117dc5760008092509250506117fe565b60018460010182815481106117ed57fe5b906000526020600020015492509250505b9250929050565b336000908152600b602052604090205460ff1680611832575033611827610e28565b6001600160a01b0316145b8061185557506001600160a01b0382166000908152600b602052604090205460ff165b806118785750816001600160a01b031661186d610e28565b6001600160a01b0316145b61193a576001600160a01b038281166000908152600d60205260409020548116908416146118d75760405162461bcd60e51b8152600401808060200182810382526022815260200180611bb96022913960400191505060405180910390fd5b6001600160a01b0382166000908152600d6020526040812080546001600160a01b031916905560125461190b9042906113f5565b6001600160a01b0384166000908152600c6020526040902054909150811115611938576119388382610a65565b505b6119458383836119ef565b505050565b5490565b815460009061195f575060006106fc565b82546000905b808210156119ae5760006119798383611a47565b90508486828154811061198857fe5b906000526020600020015411156119a1578091506119a8565b8060010192505b50611965565b6000821180156119d65750838560018403815481106119c957fe5b9060005260206000200154145b156119e757506000190190506106fc565b5090506106fc565b6119fa838383611945565b6001600160a01b038316611a1e57611a1182611a6c565b611a19611a99565b611945565b6001600160a01b038216611a3557611a1183611a6c565b611a3e83611a6c565b61194582611a6c565b60006002808306600285060181611a5a57fe5b04600283046002850401019392505050565b6001600160a01b0381166000908152600660205260409020611a9690611a9183610d5b565b611aa6565b50565b610e266007611a91610959565b6000611ab2600961194a565b905080611abe84611af2565b1015611945578254600180820185556000858152602080822090930193909355938401805494850181558252902090910155565b8054600090611b0357506000610d75565b815482906000198101908110611b1557fe5b90600052602060002001549050610d7556fe45524332303a207472616e7366657220746f20746865207a65726f20616464726573734f776e61626c653a206e6577206f776e657220697320746865207a65726f206164647265737345524332303a20617070726f766520746f20746865207a65726f206164647265737345524332303a207472616e7366657220616d6f756e7420657863656564732062616c616e6365526563656976657220646964206e6f7420617070726f7665207472616e736665722e536166654d6174683a206d756c7469706c69636174696f6e206f766572666c6f7745524332303a207472616e7366657220616d6f756e74206578636565647320616c6c6f77616e63654f776e61626c653a2063616c6c6572206973206e6f7420746865206f776e657245524332303a207472616e736665722066726f6d20746865207a65726f206164647265737345524332303a20617070726f76652066726f6d20746865207a65726f206164647265737345524332303a2064656372656173656420616c6c6f77616e63652062656c6f77207a65726fa264697066735822122092ebff4ac9ad9712304567982d34b36a3a730714768b26d399f4fbbc63fe70ad64736f6c634300060c0033",
  "linkReferences": {},
  "deployedLinkReferences": {}
}