{
  "_format": "hh-sol-artifact-1",
  "contractName": "Master",
  "sourceName": "contracts/Master.sol",
  "abi": [
    {
      "inputs": [
        {
          "internalType": "contract ITheoretics[]",
          "name": "_whitelistedStakers",
          "type": "address[]"
        },
        {
          "internalType": "address",
          "name": "_communityFund",
          "type": "address"
        }
      ],
      "stateMutability": "nonpayable",
      "type": "constructor"
    },
    {
      "anonymous": false,
      "inputs": [
        {
          "indexed": true,
          "internalType": "address",
          "name": "owner",
          "type": "address"
        },
        {
          "indexed": true,
          "internalType": "address",
          "name": "spender",
          "type": "address"
        },
        {
          "indexed": false,
          "internalType": "uint256",
          "name": "value",
          "type": "uint256"
        }
      ],
      "name": "Approval",
      "type": "event"
    },
    {
      "anonymous": false,
      "inputs": [
        {
          "indexed": true,
          "internalType": "address",
          "name": "previousOwner",
          "type": "address"
        },
        {
          "indexed": true,
          "internalType": "address",
          "name": "newOwner",
          "type": "address"
        }
      ],
      "name": "OwnershipTransferred",
      "type": "event"
    },
    {
      "anonymous": false,
      "inputs": [
        {
          "indexed": false,
          "internalType": "uint256",
          "name": "id",
          "type": "uint256"
        }
      ],
      "name": "Snapshot",
      "type": "event"
    },
    {
      "anonymous": false,
      "inputs": [
        {
          "indexed": true,
          "internalType": "address",
          "name": "from",
          "type": "address"
        },
        {
          "indexed": true,
          "internalType": "address",
          "name": "to",
          "type": "address"
        },
        {
          "indexed": false,
          "internalType": "uint256",
          "name": "value",
          "type": "uint256"
        }
      ],
      "name": "Transfer",
      "type": "event"
    },
    {
      "inputs": [
        {
          "internalType": "address",
          "name": "_toAdd",
          "type": "address"
        }
      ],
      "name": "addAuthorized",
      "outputs": [],
      "stateMutability": "nonpayable",
      "type": "function"
    },
    {
      "inputs": [
        {
          "internalType": "address",
          "name": "owner",
          "type": "address"
        },
        {
          "internalType": "address",
          "name": "spender",
          "type": "address"
        }
      ],
      "name": "allowance",
      "outputs": [
        {
          "internalType": "uint256",
          "name": "",
          "type": "uint256"
        }
      ],
      "stateMutability": "view",
      "type": "function"
    },
    {
      "inputs": [
        {
          "internalType": "address",
          "name": "spender",
          "type": "address"
        },
        {
          "internalType": "uint256",
          "name": "amount",
          "type": "uint256"
        }
      ],
      "name": "approve",
      "outputs": [
        {
          "internalType": "bool",
          "name": "",
          "type": "bool"
        }
      ],
      "stateMutability": "nonpayable",
      "type": "function"
    },
    {
      "inputs": [
        {
          "internalType": "address",
          "name": "",
          "type": "address"
        }
      ],
      "name": "approveTransferFrom",
      "outputs": [
        {
          "internalType": "address",
          "name": "",
          "type": "address"
        }
      ],
      "stateMutability": "view",
      "type": "function"
    },
    {
      "inputs": [
        {
          "internalType": "address",
          "name": "",
          "type": "address"
        }
      ],
      "name": "authorized",
      "outputs": [
        {
          "internalType": "bool",
          "name": "",
          "type": "bool"
        }
      ],
      "stateMutability": "view",
      "type": "function"
    },
    {
      "inputs": [
        {
          "internalType": "address",
          "name": "account",
          "type": "address"
        }
      ],
      "name": "balanceOf",
      "outputs": [
        {
          "internalType": "uint256",
          "name": "",
          "type": "uint256"
        }
      ],
      "stateMutability": "view",
      "type": "function"
    },
    {
      "inputs": [
        {
          "internalType": "address",
          "name": "account",
          "type": "address"
        },
        {
          "internalType": "uint256",
          "name": "snapshotId",
          "type": "uint256"
        }
      ],
      "name": "balanceOfAt",
      "outputs": [
        {
          "internalType": "uint256",
          "name": "",
          "type": "uint256"
        }
      ],
      "stateMutability": "view",
      "type": "function"
    },
    {
      "inputs": [],
      "name": "buyFromTheory",
      "outputs": [],
      "stateMutability": "nonpayable",
      "type": "function"
    },
    {
      "inputs": [],
      "name": "communityFund",
      "outputs": [
        {
          "internalType": "address",
          "name": "",
          "type": "address"
        }
      ],
      "stateMutability": "view",
      "type": "function"
    },
    {
      "inputs": [],
      "name": "decimals",
      "outputs": [
        {
          "internalType": "uint8",
          "name": "",
          "type": "uint8"
        }
      ],
      "stateMutability": "view",
      "type": "function"
    },
    {
      "inputs": [
        {
          "internalType": "address",
          "name": "spender",
          "type": "address"
        },
        {
          "internalType": "uint256",
          "name": "subtractedValue",
          "type": "uint256"
        }
      ],
      "name": "decreaseAllowance",
      "outputs": [
        {
          "internalType": "bool",
          "name": "",
          "type": "bool"
        }
      ],
      "stateMutability": "nonpayable",
      "type": "function"
    },
    {
      "inputs": [
        {
          "internalType": "address",
          "name": "spender",
          "type": "address"
        },
        {
          "internalType": "uint256",
          "name": "addedValue",
          "type": "uint256"
        }
      ],
      "name": "increaseAllowance",
      "outputs": [
        {
          "internalType": "bool",
          "name": "",
          "type": "bool"
        }
      ],
      "stateMutability": "nonpayable",
      "type": "function"
    },
    {
      "inputs": [
        {
          "internalType": "address",
          "name": "user",
          "type": "address"
        },
        {
          "internalType": "uint256",
          "name": "lockTo",
          "type": "uint256"
        }
      ],
      "name": "lock",
      "outputs": [],
      "stateMutability": "nonpayable",
      "type": "function"
    },
    {
      "inputs": [
        {
          "internalType": "address",
          "name": "from",
          "type": "address"
        },
        {
          "internalType": "address",
          "name": "to",
          "type": "address"
        },
        {
          "internalType": "uint256",
          "name": "amount",
          "type": "uint256"
        },
        {
          "internalType": "uint256",
          "name": "lockTo",
          "type": "uint256"
        }
      ],
      "name": "lockAndTransferFrom",
      "outputs": [
        {
          "internalType": "bool",
          "name": "",
          "type": "bool"
        }
      ],
      "stateMutability": "nonpayable",
      "type": "function"
    },
    {
      "inputs": [
        {
          "internalType": "address",
          "name": "",
          "type": "address"
        }
      ],
      "name": "lockToTime",
      "outputs": [
        {
          "internalType": "uint256",
          "name": "",
          "type": "uint256"
        }
      ],
      "stateMutability": "view",
      "type": "function"
    },
    {
      "inputs": [],
      "name": "masterToTheoryMultiplier",
      "outputs": [
        {
          "internalType": "uint256",
          "name": "",
          "type": "uint256"
        }
      ],
      "stateMutability": "view",
      "type": "function"
    },
    {
      "inputs": [],
      "name": "minLockTime",
      "outputs": [
        {
          "internalType": "uint256",
          "name": "",
          "type": "uint256"
        }
      ],
      "stateMutability": "view",
      "type": "function"
    },
    {
      "inputs": [],
      "name": "name",
      "outputs": [
        {
          "internalType": "string",
          "name": "",
          "type": "string"
        }
      ],
      "stateMutability": "view",
      "type": "function"
    },
    {
      "inputs": [],
      "name": "owner",
      "outputs": [
        {
          "internalType": "address",
          "name": "",
          "type": "address"
        }
      ],
      "stateMutability": "view",
      "type": "function"
    },
    {
      "inputs": [
        {
          "internalType": "address",
          "name": "_toRemove",
          "type": "address"
        }
      ],
      "name": "removeAuthorized",
      "outputs": [],
      "stateMutability": "nonpayable",
      "type": "function"
    },
    {
      "inputs": [],
      "name": "renounceOwnership",
      "outputs": [],
      "stateMutability": "nonpayable",
      "type": "function"
    },
    {
      "inputs": [],
      "name": "symbol",
      "outputs": [
        {
          "internalType": "string",
          "name": "",
          "type": "string"
        }
      ],
      "stateMutability": "view",
      "type": "function"
    },
    {
      "inputs": [],
      "name": "theory",
      "outputs": [
        {
          "internalType": "contract IERC20Lockable",
          "name": "",
          "type": "address"
        }
      ],
      "stateMutability": "view",
      "type": "function"
    },
    {
      "inputs": [],
      "name": "theoryToMasterMultiplier",
      "outputs": [
        {
          "internalType": "uint256",
          "name": "",
          "type": "uint256"
        }
      ],
      "stateMutability": "view",
      "type": "function"
    },
    {
      "inputs": [],
      "name": "totalSupply",
      "outputs": [
        {
          "internalType": "uint256",
          "name": "",
          "type": "uint256"
        }
      ],
      "stateMutability": "view",
      "type": "function"
    },
    {
      "inputs": [
        {
          "internalType": "uint256",
          "name": "snapshotId",
          "type": "uint256"
        }
      ],
      "name": "totalSupplyAt",
      "outputs": [
        {
          "internalType": "uint256",
          "name": "",
          "type": "uint256"
        }
      ],
      "stateMutability": "view",
      "type": "function"
    },
    {
      "inputs": [
        {
          "internalType": "address",
          "name": "recipient",
          "type": "address"
        },
        {
          "internalType": "uint256",
          "name": "amount",
          "type": "uint256"
        }
      ],
      "name": "transfer",
      "outputs": [
        {
          "internalType": "bool",
          "name": "",
          "type": "bool"
        }
      ],
      "stateMutability": "nonpayable",
      "type": "function"
    },
    {
      "inputs": [
        {
          "internalType": "address",
          "name": "sender",
          "type": "address"
        },
        {
          "internalType": "address",
          "name": "recipient",
          "type": "address"
        },
        {
          "internalType": "uint256",
          "name": "amount",
          "type": "uint256"
        }
      ],
      "name": "transferFrom",
      "outputs": [
        {
          "internalType": "bool",
          "name": "",
          "type": "bool"
        }
      ],
      "stateMutability": "nonpayable",
      "type": "function"
    },
    {
      "inputs": [
        {
          "internalType": "address",
          "name": "newOwner",
          "type": "address"
        }
      ],
      "name": "transferOwnership",
      "outputs": [],
      "stateMutability": "nonpayable",
      "type": "function"
    },
    {
      "inputs": [
        {
          "internalType": "uint256",
          "name": "",
          "type": "uint256"
        }
      ],
      "name": "whitelistedAddressesInStakers",
      "outputs": [
        {
          "internalType": "address",
          "name": "",
          "type": "address"
        }
      ],
      "stateMutability": "view",
      "type": "function"
    },
    {
      "inputs": [
        {
          "internalType": "uint256",
          "name": "",
          "type": "uint256"
        }
      ],
      "name": "whitelistedStakers",
      "outputs": [
        {
          "internalType": "contract ITheoretics",
          "name": "",
          "type": "address"
        }
      ],
      "stateMutability": "view",
      "type": "function"
    }
  ],
  "bytecode": "0x60806040523480156200001157600080fd5b506040516200202438038062002024833981810160405260408110156200003757600080fd5b81019080805160405193929190846401000000008211156200005857600080fd5b9083019060208201858111156200006e57600080fd5b82518660208202830111640100000000821117156200008c57600080fd5b82525081516020918201928201910280838360005b83811015620000bb578181015183820152602001620000a1565b505050509190910160408181526020938401518183018252600c83526b26b0b9ba32b9102a37b5b2b760a11b8584019081528251808401909352600683526526a0a9aa22a960d11b9583019590955282519096509194509262000122925060039162000215565b5080516200013890600490602084019062000215565b50506005805460ff191660121790555060006200015462000211565b600a80546001600160a01b0319166001600160a01b038316908117909155604051919250906000907f8be0079c531659141344cd1fd0a4f28419497f9722a3daafe3b4186f6b6457e0908290a3508151620001b79060109060208501906200029a565b5060408051602081019091526011546001600160a01b03168152620001e190600f9060016200029a565b50601180546001600160a01b0319166001600160a01b0392909216919091179055506301e1338060125562000338565b3390565b828054600181600116156101000203166002900490600052602060002090601f016020900481019282601f106200025857805160ff191683800117855562000288565b8280016001018555821562000288579182015b82811115620002885782518255916020019190600101906200026b565b506200029692915062000300565b5090565b828054828255906000526020600020908101928215620002f2579160200282015b82811115620002f257825182546001600160a01b0319166001600160a01b03909116178255602090920191600190910190620002bb565b506200029692915062000317565b5b8082111562000296576000815560010162000301565b5b80821115620002965780546001600160a01b031916815560010162000318565b611cdc80620003486000396000f3fe608060405234801561001057600080fd5b50600436106101e45760003560e01c80635c16830d1161010f578063a60ff766116100a2578063c83ea54411610071578063c83ea5441461058a578063cf1c316a146105a7578063dd62ed3e146105cd578063f2fde38b146105fb576101e4565b8063a60ff766146104f4578063a9059cbb146104fc578063b918161114610528578063c702ec4b1461054e576101e4565b80638da5cb5b116100de5780638da5cb5b1461049b57806395d89b41146104a3578063981b24d0146104ab578063a457c2d7146104c8576101e4565b80635c16830d1461045d57806370a0823114610465578063715018a61461048b5780637abde2af14610493576101e4565b8063282d3fdf116101875780633c32a450116101565780633c32a450146103e657806343e51c19146103ee578063485d7d941461040b5780634ee2cd7e14610431576101e4565b8063282d3fdf14610348578063313ce5671461037657806336cea11b1461039457806339509351146103ba576101e4565b8063095ea7b3116101c3578063095ea7b3146102c2578063118ebd1d1461030257806318160ddd1461030a57806323b872dd14610312576101e4565b8062f380f4146101e957806304a9d3771461020d57806306fdde0314610245575b600080fd5b6101f1610621565b604080516001600160a01b039092168252519081900360200190f35b6102336004803603602081101561022357600080fd5b50356001600160a01b0316610630565b60408051918252519081900360200190f35b61024d610642565b6040805160208082528351818301528351919283929083019185019080838360005b8381101561028757818101518382015260200161026f565b50505050905090810190601f1680156102b45780820380516001836020036101000a031916815260200191505b509250505060405180910390f35b6102ee600480360360408110156102d857600080fd5b506001600160a01b0381351690602001356106d9565b604080519115158252519081900360200190f35b6102336106f7565b61023361094e565b6102ee6004803603606081101561032857600080fd5b506001600160a01b03813581169160208101359091169060400135610954565b6103746004803603604081101561035e57600080fd5b506001600160a01b0381351690602001356109db565b005b61037e610a5e565b6040805160ff9092168252519081900360200190f35b6101f1600480360360208110156103aa57600080fd5b50356001600160a01b0316610a67565b6102ee600480360360408110156103d057600080fd5b506001600160a01b038135169060200135610a82565b6101f1610ad0565b6101f16004803603602081101561040457600080fd5b5035610adf565b6103746004803603602081101561042157600080fd5b50356001600160a01b0316610b06565b6102336004803603604081101561044757600080fd5b506001600160a01b038135169060200135610b9f565b610233610be8565b6102336004803603602081101561047b57600080fd5b50356001600160a01b0316610d50565b610374610d6f565b610374610e1b565b6101f1610e1d565b61024d610e2c565b610233600480360360208110156104c157600080fd5b5035610e8d565b6102ee600480360360408110156104de57600080fd5b506001600160a01b038135169060200135610ebd565b610233610f25565b6102ee6004803603604081101561051257600080fd5b506001600160a01b038135169060200135610f2b565b6102ee6004803603602081101561053e57600080fd5b50356001600160a01b0316610f3f565b6102ee6004803603608081101561056457600080fd5b506001600160a01b03813581169160208101359091169060408101359060600135610f54565b6101f1600480360360208110156105a057600080fd5b5035611139565b610374600480360360208110156105bd57600080fd5b50356001600160a01b0316611146565b610233600480360360408110156105e357600080fd5b506001600160a01b03813581169160200135166111cc565b6103746004803603602081101561061157600080fd5b50356001600160a01b03166111f7565b6011546001600160a01b031681565b600c6020526000908152604090205481565b60038054604080516020601f60026000196101006001881615020190951694909404938401819004810282018101909252828152606093909290918301828280156106ce5780601f106106a3576101008083540402835291602001916106ce565b820191906000526020600020905b8154815290600101906020018083116106b157829003601f168201915b505050505090505b90565b60006106ed6106e66112fa565b84846112fe565b5060015b92915050565b60008061070261094e565b90508061071a57670de0b6b3a76400009150506106d6565b601054600f546000918291829081805b84861015610813576010868154811061073f57fe5b60009182526020822001549094506001600160a01b031691505b8284101561080857600f848154811061076e57fe5b60009182526020918290200154604080516370a0823160e01b81526001600160a01b039283166004820181905291519194506107fb93928616926370a0823192602480840193829003018186803b1580156107c857600080fd5b505afa1580156107dc573d6000803e3d6000fd5b505050506040513d60208110156107f257600080fd5b505188906113ea565b9650600184019350610759565b60018601955061072a565b5050600e54601154604080516370a0823160e01b81526001600160a01b0392831660048201529051610947975061092f965061091f95509190921692506370a0823191602480820192602092909190829003018186803b15801561087657600080fd5b505afa15801561088a573d6000803e3d6000fd5b505050506040513d60208110156108a057600080fd5b5051600e54604080516370a0823160e01b815230600482015290516001600160a01b03909216916370a0823191602480820192602092909190829003018186803b1580156108ed57600080fd5b505afa158015610901573d6000803e3d6000fd5b505050506040513d602081101561091757600080fd5b5051906113ea565b61092984866113ea565b906113ea565b61094184670de0b6b3a764000061144b565b906114a4565b9250505090565b60025490565b600061096184848461150b565b6109d18461096d6112fa565b6109cc85604051806060016040528060288152602001611bf1602891396001600160a01b038a166000908152600160205260408120906109ab6112fa565b6001600160a01b031681526020810191909152604001600020549190611666565b6112fe565b5060019392505050565b336000908152600b602052604090205460ff1680610a085750336109fd610e1d565b6001600160a01b0316145b610a54576040805162461bcd60e51b815260206004820152601860248201527718d85b1b195c881a5cc81b9bdd08185d5d1a1bdc9a5e995960421b604482015290519081900360640190fd5b610a5a82825b5050565b60055460ff1690565b600d602052600090815260409020546001600160a01b031681565b60006106ed610a8f6112fa565b846109cc8560016000610aa06112fa565b6001600160a01b03908116825260208083019390935260409182016000908120918c1681529252902054906113ea565b600e546001600160a01b031681565b600f8181548110610aec57fe5b6000918252602090912001546001600160a01b0316905081565b610b0e6112fa565b6001600160a01b0316610b1f610e1d565b6001600160a01b031614610b68576040805162461bcd60e51b81526020600482018190526024820152600080516020611c19833981519152604482015290519081900360640190fd5b6001600160a01b038116331415610b7e57600080fd5b6001600160a01b03166000908152600b60205260409020805460ff19169055565b6001600160a01b038216600090815260066020526040812081908190610bc69085906116fd565b9150915081610bdd57610bd885610d50565b610bdf565b805b95945050505050565b600080610bf361094e565b905080610c0b57670de0b6b3a76400009150506106d6565b601054600f546000918291829081805b84861015610cd15760108681548110610c3057fe5b60009182526020822001549094506001600160a01b031691505b82841015610cc657600f8481548110610c5f57fe5b60009182526020918290200154604080516370a0823160e01b81526001600160a01b03928316600482018190529151919450610cb993928616926370a0823192602480840193829003018186803b1580156107c857600080fd5b9650600184019350610c4a565b600186019550610c1b565b5050600e54601154604080516370a0823160e01b81526001600160a01b039283166004820152905161094797508996506109419550670de0b6b3a76400009450610d4a93610d409316916370a08231916024808301926020929190829003018186803b15801561087657600080fd5b61092987896113ea565b9061144b565b6001600160a01b0381166000908152602081905260409020545b919050565b610d776112fa565b6001600160a01b0316610d88610e1d565b6001600160a01b031614610dd1576040805162461bcd60e51b81526020600482018190526024820152600080516020611c19833981519152604482015290519081900360640190fd5b600a546040516000916001600160a01b0316907f8be0079c531659141344cd1fd0a4f28419497f9722a3daafe3b4186f6b6457e0908390a3600a80546001600160a01b0319169055565b565b600a546001600160a01b031690565b60048054604080516020601f60026000196101006001881615020190951694909404938401819004810282018101909252828152606093909290918301828280156106ce5780601f106106a3576101008083540402835291602001916106ce565b6000806000610e9d8460076116fd565b9150915081610eb357610eae61094e565b610eb5565b805b949350505050565b60006106ed610eca6112fa565b846109cc85604051806060016040528060258152602001611c826025913960016000610ef46112fa565b6001600160a01b03908116825260208083019390935260409182016000908120918d16815292529020549190611666565b60125481565b60006106ed610f386112fa565b848461150b565b600b6020526000908152604090205460ff1681565b336000908152600b602052604081205460ff1680610f81575033610f76610e1d565b6001600160a01b0316145b610fcd576040805162461bcd60e51b815260206004820152601860248201527718d85b1b195c881a5cc81b9bdd08185d5d1a1bdc9a5e995960421b604482015290519081900360640190fd5b336000908152600b602052604090205460ff1680610ffa575033610fef610e1d565b6001600160a01b0316145b8061101d57506001600160a01b0384166000908152600b602052604090205460ff165b806110405750836001600160a01b0316611035610e1d565b6001600160a01b0316145b611102576001600160a01b038481166000908152600d602052604090205481169086161461109f5760405162461bcd60e51b8152600401808060200182810382526022815260200180611bae6022913960400191505060405180910390fd5b6001600160a01b0384166000908152600d6020526040812080546001600160a01b03191690556012546110d39042906113ea565b6001600160a01b0386166000908152600c6020526040902054909150811115611100576111008582610a5a565b505b61110c8483610a5a565b6001600160a01b03851633141561112e576111278484610f2b565b9050610eb5565b610bdf858585610954565b60108181548110610aec57fe5b61114e6112fa565b6001600160a01b031661115f610e1d565b6001600160a01b0316146111a8576040805162461bcd60e51b81526020600482018190526024820152600080516020611c19833981519152604482015290519081900360640190fd5b6001600160a01b03166000908152600b60205260409020805460ff19166001179055565b6001600160a01b03918216600090815260016020908152604080832093909416825291909152205490565b6111ff6112fa565b6001600160a01b0316611210610e1d565b6001600160a01b031614611259576040805162461bcd60e51b81526020600482018190526024820152600080516020611c19833981519152604482015290519081900360640190fd5b6001600160a01b03811661129e5760405162461bcd60e51b8152600401808060200182810382526026815260200180611b406026913960400191505060405180910390fd5b600a546040516001600160a01b038084169216907f8be0079c531659141344cd1fd0a4f28419497f9722a3daafe3b4186f6b6457e090600090a3600a80546001600160a01b0319166001600160a01b0392909216919091179055565b3390565b6001600160a01b0383166113435760405162461bcd60e51b8152600401808060200182810382526024815260200180611c5e6024913960400191505060405180910390fd5b6001600160a01b0382166113885760405162461bcd60e51b8152600401808060200182810382526022815260200180611b666022913960400191505060405180910390fd5b6001600160a01b03808416600081815260016020908152604080832094871680845294825291829020859055815185815291517f8c5be1e5ebec7d5bd14f71427d1e84f3dd0314c0f7b2291e5b200ac8c7c3b9259281900390910190a3505050565b600082820183811015611444576040805162461bcd60e51b815260206004820152601b60248201527f536166654d6174683a206164646974696f6e206f766572666c6f770000000000604482015290519081900360640190fd5b9392505050565b60008261145a575060006106f1565b8282028284828161146757fe5b04146114445760405162461bcd60e51b8152600401808060200182810382526021815260200180611bd06021913960400191505060405180910390fd5b60008082116114fa576040805162461bcd60e51b815260206004820152601a60248201527f536166654d6174683a206469766973696f6e206279207a65726f000000000000604482015290519081900360640190fd5b81838161150357fe5b049392505050565b6001600160a01b0383166115505760405162461bcd60e51b8152600401808060200182810382526025815260200180611c396025913960400191505060405180910390fd5b6001600160a01b0382166115955760405162461bcd60e51b8152600401808060200182810382526023815260200180611b1d6023913960400191505060405180910390fd5b6115a08383836117fa565b6115dd81604051806060016040528060268152602001611b88602691396001600160a01b0386166000908152602081905260409020549190611666565b6001600160a01b03808516600090815260208190526040808220939093559084168152205461160c90826113ea565b6001600160a01b038084166000818152602081815260409182902094909455805185815290519193928716927fddf252ad1be2c89b69c2b068fc378daa952ba7f163c4a11628f55a4df523b3ef92918290030190a3505050565b600081848411156116f55760405162461bcd60e51b81526004018080602001828103825283818151815260200191508051906020019080838360005b838110156116ba5781810151838201526020016116a2565b50505050905090810190601f1680156116e75780820380516001836020036101000a031916815260200191505b509250505060405180910390fd5b505050900390565b6000806000841161174e576040805162461bcd60e51b815260206004820152601660248201527504552433230536e617073686f743a20696420697320360541b604482015290519081900360640190fd5b611758600961193f565b8411156117ac576040805162461bcd60e51b815260206004820152601d60248201527f4552433230536e617073686f743a206e6f6e6578697374656e74206964000000604482015290519081900360640190fd5b60006117b88486611943565b84549091508114156117d15760008092509250506117f3565b60018460010182815481106117e257fe5b906000526020600020015492509250505b9250929050565b336000908152600b602052604090205460ff168061182757503361181c610e1d565b6001600160a01b0316145b8061184a57506001600160a01b0382166000908152600b602052604090205460ff165b8061186d5750816001600160a01b0316611862610e1d565b6001600160a01b0316145b61192f576001600160a01b038281166000908152600d60205260409020548116908416146118cc5760405162461bcd60e51b8152600401808060200182810382526022815260200180611bae6022913960400191505060405180910390fd5b6001600160a01b0382166000908152600d6020526040812080546001600160a01b03191690556012546119009042906113ea565b6001600160a01b0384166000908152600c602052604090205490915081111561192d5761192d8382610a5a565b505b61193a8383836119e4565b505050565b5490565b8154600090611954575060006106f1565b82546000905b808210156119a357600061196e8383611a3c565b90508486828154811061197d57fe5b906000526020600020015411156119965780915061199d565b8060010192505b5061195a565b6000821180156119cb5750838560018403815481106119be57fe5b9060005260206000200154145b156119dc57506000190190506106f1565b5090506106f1565b6119ef83838361193a565b6001600160a01b038316611a1357611a0682611a61565b611a0e611a8e565b61193a565b6001600160a01b038216611a2a57611a0683611a61565b611a3383611a61565b61193a82611a61565b60006002808306600285060181611a4f57fe5b04600283046002850401019392505050565b6001600160a01b0381166000908152600660205260409020611a8b90611a8683610d50565b611a9b565b50565b610e1b6007611a8661094e565b6000611aa7600961193f565b905080611ab384611ae7565b101561193a578254600180820185556000858152602080822090930193909355938401805494850181558252902090910155565b8054600090611af857506000610d6a565b815482906000198101908110611b0a57fe5b90600052602060002001549050610d6a56fe45524332303a207472616e7366657220746f20746865207a65726f20616464726573734f776e61626c653a206e6577206f776e657220697320746865207a65726f206164647265737345524332303a20617070726f766520746f20746865207a65726f206164647265737345524332303a207472616e7366657220616d6f756e7420657863656564732062616c616e6365526563656976657220646964206e6f7420617070726f7665207472616e736665722e536166654d6174683a206d756c7469706c69636174696f6e206f766572666c6f7745524332303a207472616e7366657220616d6f756e74206578636565647320616c6c6f77616e63654f776e61626c653a2063616c6c6572206973206e6f7420746865206f776e657245524332303a207472616e736665722066726f6d20746865207a65726f206164647265737345524332303a20617070726f76652066726f6d20746865207a65726f206164647265737345524332303a2064656372656173656420616c6c6f77616e63652062656c6f77207a65726fa26469706673582212201dbbe3457d7f3b2d8e98b884ed8c1e22e81b386dd1ccc12f2c47d6ff19c66b0464736f6c634300060c0033",
  "linkReferences": {},
  "deployedLinkReferences": {}
}