{
  "_format": "hh-sol-artifact-1",
  "contractName": "Master",
  "sourceName": "contracts/Master.sol",
  "abi": [
    {
      "inputs": [
        {
          "internalType": "contract IERC20Lockable",
          "name": "_theory",
          "type": "address"
        },
        {
          "internalType": "contract IERC20Lockable",
          "name": "_game",
          "type": "address"
        },
        {
          "internalType": "contract ITheoretics",
          "name": "_theoretics",
          "type": "address"
        },
        {
          "internalType": "contract ITreasury",
          "name": "_treasury",
          "type": "address"
        }
      ],
      "stateMutability": "nonpayable",
      "type": "constructor"
    },
    {
      "anonymous": false,
      "inputs": [
        {
          "indexed": true,
          "internalType": "address",
          "name": "owner",
          "type": "address"
        },
        {
          "indexed": true,
          "internalType": "address",
          "name": "spender",
          "type": "address"
        },
        {
          "indexed": false,
          "internalType": "uint256",
          "name": "value",
          "type": "uint256"
        }
      ],
      "name": "Approval",
      "type": "event"
    },
    {
      "anonymous": false,
      "inputs": [
        {
          "indexed": true,
          "internalType": "address",
          "name": "user",
          "type": "address"
        },
        {
          "indexed": false,
          "internalType": "uint256",
          "name": "amountInTheory",
          "type": "uint256"
        },
        {
          "indexed": false,
          "internalType": "uint256",
          "name": "amountOutMaster",
          "type": "uint256"
        }
      ],
      "name": "Deposit",
      "type": "event"
    },
    {
      "anonymous": false,
      "inputs": [
        {
          "indexed": true,
          "internalType": "address",
          "name": "previousOwner",
          "type": "address"
        },
        {
          "indexed": true,
          "internalType": "address",
          "name": "newOwner",
          "type": "address"
        }
      ],
      "name": "OwnershipTransferred",
      "type": "event"
    },
    {
      "anonymous": false,
      "inputs": [
        {
          "indexed": true,
          "internalType": "address",
          "name": "user",
          "type": "address"
        },
        {
          "indexed": false,
          "internalType": "uint256",
          "name": "reward",
          "type": "uint256"
        },
        {
          "indexed": false,
          "internalType": "uint256",
          "name": "lockAmount",
          "type": "uint256"
        }
      ],
      "name": "RewardPaid",
      "type": "event"
    },
    {
      "anonymous": false,
      "inputs": [
        {
          "indexed": false,
          "internalType": "uint256",
          "name": "id",
          "type": "uint256"
        }
      ],
      "name": "Snapshot",
      "type": "event"
    },
    {
      "anonymous": false,
      "inputs": [
        {
          "indexed": true,
          "internalType": "address",
          "name": "from",
          "type": "address"
        },
        {
          "indexed": true,
          "internalType": "address",
          "name": "to",
          "type": "address"
        },
        {
          "indexed": false,
          "internalType": "uint256",
          "name": "value",
          "type": "uint256"
        }
      ],
      "name": "Transfer",
      "type": "event"
    },
    {
      "anonymous": false,
      "inputs": [
        {
          "indexed": true,
          "internalType": "address",
          "name": "user",
          "type": "address"
        },
        {
          "indexed": false,
          "internalType": "uint256",
          "name": "amountInMaster",
          "type": "uint256"
        },
        {
          "indexed": false,
          "internalType": "uint256",
          "name": "amountOutTheory",
          "type": "uint256"
        }
      ],
      "name": "Withdraw",
      "type": "event"
    },
    {
      "anonymous": false,
      "inputs": [
        {
          "indexed": true,
          "internalType": "address",
          "name": "user",
          "type": "address"
        },
        {
          "indexed": false,
          "internalType": "uint256",
          "name": "amountInMaster",
          "type": "uint256"
        },
        {
          "indexed": false,
          "internalType": "uint256",
          "name": "amountOutTheory",
          "type": "uint256"
        }
      ],
      "name": "WithdrawRequest",
      "type": "event"
    },
    {
      "inputs": [
        {
          "internalType": "address",
          "name": "_toAdd",
          "type": "address"
        }
      ],
      "name": "addAuthorized",
      "outputs": [],
      "stateMutability": "nonpayable",
      "type": "function"
    },
    {
      "inputs": [
        {
          "internalType": "address",
          "name": "owner",
          "type": "address"
        },
        {
          "internalType": "address",
          "name": "spender",
          "type": "address"
        }
      ],
      "name": "allowance",
      "outputs": [
        {
          "internalType": "uint256",
          "name": "",
          "type": "uint256"
        }
      ],
      "stateMutability": "view",
      "type": "function"
    },
    {
      "inputs": [
        {
          "internalType": "address",
          "name": "userAddress",
          "type": "address"
        }
      ],
      "name": "anyGameAvailableToClaim",
      "outputs": [
        {
          "internalType": "bool",
          "name": "",
          "type": "bool"
        }
      ],
      "stateMutability": "view",
      "type": "function"
    },
    {
      "inputs": [
        {
          "internalType": "address",
          "name": "spender",
          "type": "address"
        },
        {
          "internalType": "uint256",
          "name": "amount",
          "type": "uint256"
        }
      ],
      "name": "approve",
      "outputs": [
        {
          "internalType": "bool",
          "name": "",
          "type": "bool"
        }
      ],
      "stateMutability": "nonpayable",
      "type": "function"
    },
    {
      "inputs": [
        {
          "internalType": "address",
          "name": "",
          "type": "address"
        }
      ],
      "name": "authorized",
      "outputs": [
        {
          "internalType": "bool",
          "name": "",
          "type": "bool"
        }
      ],
      "stateMutability": "view",
      "type": "function"
    },
    {
      "inputs": [
        {
          "internalType": "address",
          "name": "account",
          "type": "address"
        }
      ],
      "name": "balanceOf",
      "outputs": [
        {
          "internalType": "uint256",
          "name": "",
          "type": "uint256"
        }
      ],
      "stateMutability": "view",
      "type": "function"
    },
    {
      "inputs": [
        {
          "internalType": "address",
          "name": "account",
          "type": "address"
        },
        {
          "internalType": "uint256",
          "name": "snapshotId",
          "type": "uint256"
        }
      ],
      "name": "balanceOfAt",
      "outputs": [
        {
          "internalType": "uint256",
          "name": "",
          "type": "uint256"
        }
      ],
      "stateMutability": "view",
      "type": "function"
    },
    {
      "inputs": [],
      "name": "claimGame",
      "outputs": [],
      "stateMutability": "nonpayable",
      "type": "function"
    },
    {
      "inputs": [],
      "name": "decimals",
      "outputs": [
        {
          "internalType": "uint8",
          "name": "",
          "type": "uint8"
        }
      ],
      "stateMutability": "view",
      "type": "function"
    },
    {
      "inputs": [
        {
          "internalType": "address",
          "name": "spender",
          "type": "address"
        },
        {
          "internalType": "uint256",
          "name": "subtractedValue",
          "type": "uint256"
        }
      ],
      "name": "decreaseAllowance",
      "outputs": [
        {
          "internalType": "bool",
          "name": "",
          "type": "bool"
        }
      ],
      "stateMutability": "nonpayable",
      "type": "function"
    },
    {
      "inputs": [],
      "name": "game",
      "outputs": [
        {
          "internalType": "contract IERC20Lockable",
          "name": "",
          "type": "address"
        }
      ],
      "stateMutability": "view",
      "type": "function"
    },
    {
      "inputs": [
        {
          "internalType": "address",
          "name": "userAddress",
          "type": "address"
        }
      ],
      "name": "gameAvailableToClaim",
      "outputs": [
        {
          "internalType": "uint256",
          "name": "",
          "type": "uint256"
        }
      ],
      "stateMutability": "view",
      "type": "function"
    },
    {
      "inputs": [
        {
          "internalType": "address",
          "name": "spender",
          "type": "address"
        },
        {
          "internalType": "uint256",
          "name": "addedValue",
          "type": "uint256"
        }
      ],
      "name": "increaseAllowance",
      "outputs": [
        {
          "internalType": "bool",
          "name": "",
          "type": "bool"
        }
      ],
      "stateMutability": "nonpayable",
      "type": "function"
    },
    {
      "inputs": [],
      "name": "initiatePart1",
      "outputs": [],
      "stateMutability": "nonpayable",
      "type": "function"
    },
    {
      "inputs": [],
      "name": "initiatePart2",
      "outputs": [],
      "stateMutability": "nonpayable",
      "type": "function"
    },
    {
      "inputs": [
        {
          "internalType": "address",
          "name": "from",
          "type": "address"
        },
        {
          "internalType": "address",
          "name": "to",
          "type": "address"
        },
        {
          "internalType": "uint256",
          "name": "amount",
          "type": "uint256"
        },
        {
          "internalType": "uint256",
          "name": "lockTo",
          "type": "uint256"
        },
        {
          "internalType": "bool",
          "name": "lockAfter",
          "type": "bool"
        }
      ],
      "name": "lockAndTransferFrom",
      "outputs": [
        {
          "internalType": "bool",
          "name": "",
          "type": "bool"
        }
      ],
      "stateMutability": "nonpayable",
      "type": "function"
    },
    {
      "inputs": [
        {
          "internalType": "uint256",
          "name": "_share",
          "type": "uint256"
        }
      ],
      "name": "masterToTheory",
      "outputs": [
        {
          "internalType": "uint256",
          "name": "",
          "type": "uint256"
        }
      ],
      "stateMutability": "view",
      "type": "function"
    },
    {
      "inputs": [
        {
          "internalType": "uint256",
          "name": "_share",
          "type": "uint256"
        },
        {
          "internalType": "uint256",
          "name": "totalGovernanceToken",
          "type": "uint256"
        },
        {
          "internalType": "uint256",
          "name": "totalShares",
          "type": "uint256"
        }
      ],
      "name": "masterToTheoryOwed",
      "outputs": [
        {
          "internalType": "uint256",
          "name": "",
          "type": "uint256"
        }
      ],
      "stateMutability": "view",
      "type": "function"
    },
    {
      "inputs": [],
      "name": "minLockTime",
      "outputs": [
        {
          "internalType": "uint256",
          "name": "",
          "type": "uint256"
        }
      ],
      "stateMutability": "view",
      "type": "function"
    },
    {
      "inputs": [],
      "name": "name",
      "outputs": [
        {
          "internalType": "string",
          "name": "",
          "type": "string"
        }
      ],
      "stateMutability": "view",
      "type": "function"
    },
    {
      "inputs": [],
      "name": "owner",
      "outputs": [
        {
          "internalType": "address",
          "name": "",
          "type": "address"
        }
      ],
      "stateMutability": "view",
      "type": "function"
    },
    {
      "inputs": [
        {
          "internalType": "address",
          "name": "_toRemove",
          "type": "address"
        }
      ],
      "name": "removeAuthorized",
      "outputs": [],
      "stateMutability": "nonpayable",
      "type": "function"
    },
    {
      "inputs": [],
      "name": "renounceOwnership",
      "outputs": [],
      "stateMutability": "nonpayable",
      "type": "function"
    },
    {
      "inputs": [
        {
          "internalType": "uint256",
          "name": "amountInTheory",
          "type": "uint256"
        },
        {
          "internalType": "uint256",
          "name": "lockTime",
          "type": "uint256"
        }
      ],
      "name": "requestBuyFromTheory",
      "outputs": [],
      "stateMutability": "nonpayable",
      "type": "function"
    },
    {
      "inputs": [
        {
          "internalType": "uint256",
          "name": "amountInMaster",
          "type": "uint256"
        }
      ],
      "name": "requestSellToTheory",
      "outputs": [],
      "stateMutability": "nonpayable",
      "type": "function"
    },
    {
      "inputs": [],
      "name": "sellToTheory",
      "outputs": [],
      "stateMutability": "nonpayable",
      "type": "function"
    },
    {
      "inputs": [
        {
          "internalType": "uint256",
          "name": "lockTime",
          "type": "uint256"
        },
        {
          "internalType": "uint256",
          "name": "penalty",
          "type": "uint256"
        }
      ],
      "name": "setTimes",
      "outputs": [],
      "stateMutability": "nonpayable",
      "type": "function"
    },
    {
      "inputs": [
        {
          "internalType": "uint256",
          "name": "amount",
          "type": "uint256"
        }
      ],
      "name": "stakeExternalTheory",
      "outputs": [],
      "stateMutability": "nonpayable",
      "type": "function"
    },
    {
      "inputs": [],
      "name": "symbol",
      "outputs": [
        {
          "internalType": "string",
          "name": "",
          "type": "string"
        }
      ],
      "stateMutability": "view",
      "type": "function"
    },
    {
      "inputs": [],
      "name": "theoretics",
      "outputs": [
        {
          "internalType": "contract ITheoretics",
          "name": "",
          "type": "address"
        }
      ],
      "stateMutability": "view",
      "type": "function"
    },
    {
      "inputs": [],
      "name": "theory",
      "outputs": [
        {
          "internalType": "contract IERC20Lockable",
          "name": "",
          "type": "address"
        }
      ],
      "stateMutability": "view",
      "type": "function"
    },
    {
      "inputs": [
        {
          "internalType": "uint256",
          "name": "_amount",
          "type": "uint256"
        }
      ],
      "name": "theoryToMaster",
      "outputs": [
        {
          "internalType": "uint256",
          "name": "",
          "type": "uint256"
        }
      ],
      "stateMutability": "view",
      "type": "function"
    },
    {
      "inputs": [
        {
          "internalType": "uint256",
          "name": "_amount",
          "type": "uint256"
        },
        {
          "internalType": "uint256",
          "name": "totalGovernanceToken",
          "type": "uint256"
        },
        {
          "internalType": "uint256",
          "name": "totalShares",
          "type": "uint256"
        }
      ],
      "name": "theoryToMasterOwed",
      "outputs": [
        {
          "internalType": "uint256",
          "name": "",
          "type": "uint256"
        }
      ],
      "stateMutability": "view",
      "type": "function"
    },
    {
      "inputs": [],
      "name": "totalGameClaimed",
      "outputs": [
        {
          "internalType": "uint256",
          "name": "",
          "type": "uint256"
        }
      ],
      "stateMutability": "view",
      "type": "function"
    },
    {
      "inputs": [],
      "name": "totalSupply",
      "outputs": [
        {
          "internalType": "uint256",
          "name": "",
          "type": "uint256"
        }
      ],
      "stateMutability": "view",
      "type": "function"
    },
    {
      "inputs": [
        {
          "internalType": "uint256",
          "name": "snapshotId",
          "type": "uint256"
        }
      ],
      "name": "totalSupplyAt",
      "outputs": [
        {
          "internalType": "uint256",
          "name": "",
          "type": "uint256"
        }
      ],
      "stateMutability": "view",
      "type": "function"
    },
    {
      "inputs": [
        {
          "internalType": "address",
          "name": "recipient",
          "type": "address"
        },
        {
          "internalType": "uint256",
          "name": "amount",
          "type": "uint256"
        }
      ],
      "name": "transfer",
      "outputs": [
        {
          "internalType": "bool",
          "name": "",
          "type": "bool"
        }
      ],
      "stateMutability": "nonpayable",
      "type": "function"
    },
    {
      "inputs": [
        {
          "internalType": "address",
          "name": "sender",
          "type": "address"
        },
        {
          "internalType": "address",
          "name": "recipient",
          "type": "address"
        },
        {
          "internalType": "uint256",
          "name": "amount",
          "type": "uint256"
        }
      ],
      "name": "transferFrom",
      "outputs": [
        {
          "internalType": "bool",
          "name": "",
          "type": "bool"
        }
      ],
      "stateMutability": "nonpayable",
      "type": "function"
    },
    {
      "inputs": [
        {
          "internalType": "address",
          "name": "newOwner",
          "type": "address"
        }
      ],
      "name": "transferOwnership",
      "outputs": [],
      "stateMutability": "nonpayable",
      "type": "function"
    },
    {
      "inputs": [
        {
          "internalType": "contract IERC20",
          "name": "_token",
          "type": "address"
        },
        {
          "internalType": "address",
          "name": "to",
          "type": "address"
        },
        {
          "internalType": "uint256",
          "name": "amount",
          "type": "uint256"
        }
      ],
      "name": "transferToken",
      "outputs": [],
      "stateMutability": "nonpayable",
      "type": "function"
    },
    {
      "inputs": [],
      "name": "treasury",
      "outputs": [
        {
          "internalType": "contract ITreasury",
          "name": "",
          "type": "address"
        }
      ],
      "stateMutability": "view",
      "type": "function"
    },
    {
      "inputs": [],
      "name": "unlockedClaimPenalty",
      "outputs": [
        {
          "internalType": "uint256",
          "name": "",
          "type": "uint256"
        }
      ],
      "stateMutability": "view",
      "type": "function"
    },
    {
      "inputs": [
        {
          "internalType": "address",
          "name": "",
          "type": "address"
        }
      ],
      "name": "userInfo",
      "outputs": [
        {
          "internalType": "uint256",
          "name": "lockToTime",
          "type": "uint256"
        },
        {
          "internalType": "uint256",
          "name": "chosenLockTime",
          "type": "uint256"
        },
        {
          "internalType": "address",
          "name": "approveTransferFrom",
          "type": "address"
        },
        {
          "internalType": "uint256",
          "name": "lastTotalGameClaimed",
          "type": "uint256"
        },
        {
          "internalType": "uint256",
          "name": "withdrawRequestedInMaster",
          "type": "uint256"
        },
        {
          "internalType": "uint256",
          "name": "withdrawRequestedInTheory",
          "type": "uint256"
        },
        {
          "internalType": "uint256",
          "name": "lastStakeRequestBlock",
          "type": "uint256"
        },
        {
          "internalType": "uint256",
          "name": "lastWithdrawRequestBlock",
          "type": "uint256"
        }
      ],
      "stateMutability": "view",
      "type": "function"
    }
  ],
  "bytecode": "0x60806040523480156200001157600080fd5b5060405162004c1438038062004c14833981810160405260808110156200003757600080fd5b50805160208083015160408085015160609095015181518083018352600c81526b26b0b9ba32b9102a37b5b2b760a11b8186019081528351808501909452600684526526a0a9aa22a960d11b9584019590955280519596939593949193909291620000a691600391906200018d565b508051620000bc9060049060208401906200018d565b50506005805460ff19166012179055506000620000d862000189565b600a80546001600160a01b0319166001600160a01b038316908117909155604051919250906000907f8be0079c531659141344cd1fd0a4f28419497f9722a3daafe3b4186f6b6457e0908290a350600f80546001600160a01b039586166001600160a01b03199182161790915560108054948616948216949094179093556011805492851692841692909217909155601280549190931691161790556301e1338060135562278d0060145562000229565b3390565b828054600181600116156101000203166002900490600052602060002090601f016020900481019282601f10620001d057805160ff191683800117855562000200565b8280016001018555821562000200579182015b8281111562000200578251825591602001919060010190620001e3565b506200020e92915062000212565b5090565b5b808211156200020e576000815560010162000213565b6149db80620002396000396000f3fe608060405234801561001057600080fd5b50600436106102695760003560e01c80638da5cb5b11610151578063b9181611116100c3578063dd62ed3e11610087578063dd62ed3e1461073d578063e4d2c45e1461076b578063f2fde38b14610794578063f5537ede146107ba578063f894dd21146107f0578063fdb781c81461081957610269565b8063b9181611146106a6578063c3fe3e28146106cc578063c7b728de146106d4578063cf1c316a146106f1578063d3819abc1461071757610269565b8063a5bd5f4d11610115578063a5bd5f4d14610601578063a60ff76614610609578063a77a5d1314610611578063a9059cbb14610655578063ab9fb43814610681578063ad45e4ae1461069e57610269565b80638da5cb5b146105a057806395d89b41146105a857806397b98e4a146105b0578063981b24d0146105b8578063a457c2d7146105d557610269565b80633c32a450116101ea57806361d027b3116101ae57806361d027b31461052257806364c087411461052a57806364efc79b1461054d57806370a082311461056a578063715018a61461059057806378424d581461059857610269565b80633c32a4501461049c578063485d7d94146104c05780634ee2cd7e146104e65780635358a2af146105125780635936e8bd1461051a57610269565b8063224348361161023157806322434836146103d357806323b872dd146103f65780632e9c80721461042c578063313ce56714610452578063395093511461047057610269565b806306fdde031461026e578063095ea7b3146102eb57806318160ddd1461032b57806318bb939a146103455780631959a00214610364575b600080fd5b610276610821565b6040805160208082528351818301528351919283929083019185019080838360005b838110156102b0578181015183820152602001610298565b50505050905090810190601f1680156102dd5780820380516001836020036101000a031916815260200191505b509250505060405180910390f35b6103176004803603604081101561030157600080fd5b506001600160a01b0381351690602001356108b7565b604080519115158252519081900360200190f35b6103336108d5565b60408051918252519081900360200190f35b6103626004803603602081101561035b57600080fd5b50356108db565b005b61038a6004803603602081101561037a57600080fd5b50356001600160a01b0316610c85565b6040805198895260208901979097526001600160a01b03909516878701526060870193909352608086019190915260a085015260c084015260e083015251908190036101000190f35b610362600480360360408110156103e957600080fd5b5080359060200135610cd2565b6103176004803603606081101561040c57600080fd5b506001600160a01b03813581169160208101359091169060400135610dee565b6103336004803603602081101561044257600080fd5b50356001600160a01b0316610e76565b61045a610f36565b6040805160ff9092168252519081900360200190f35b6103176004803603604081101561048657600080fd5b506001600160a01b038135169060200135610f3f565b6104a4610f8d565b604080516001600160a01b039092168252519081900360200190f35b610362600480360360208110156104d657600080fd5b50356001600160a01b0316610f9c565b610333600480360360408110156104fc57600080fd5b506001600160a01b038135169060200135611035565b61033361107e565b610362611084565b6104a461118a565b6103626004803603604081101561054057600080fd5b5080359060200135611199565b6103626004803603602081101561056357600080fd5b503561153c565b6103336004803603602081101561058057600080fd5b50356001600160a01b0316611833565b61036261184e565b6103626118fa565b6104a46119c7565b6102766119d6565b610362611a37565b610333600480360360208110156105ce57600080fd5b5035611ff7565b610317600480360360408110156105eb57600080fd5b506001600160a01b038135169060200135612027565b61033361208f565b610333612095565b610317600480360360a081101561062757600080fd5b506001600160a01b03813581169160208101359091169060408101359060608101359060800135151561209b565b6103176004803603604081101561066b57600080fd5b506001600160a01b038135169060200135612232565b6103336004803603602081101561069757600080fd5b5035612246565b6104a4612308565b610317600480360360208110156106bc57600080fd5b50356001600160a01b0316612317565b6104a461232c565b610333600480360360208110156106ea57600080fd5b503561233b565b6103626004803603602081101561070757600080fd5b50356001600160a01b03166123cb565b6103176004803603602081101561072d57600080fd5b50356001600160a01b0316612451565b6103336004803603604081101561075357600080fd5b506001600160a01b03813581169160200135166124ce565b6103336004803603606081101561078157600080fd5b50803590602081013590604001356124f9565b610362600480360360208110156107aa57600080fd5b50356001600160a01b0316612522565b610362600480360360608110156107d057600080fd5b506001600160a01b03813581169160208101359091169060400135612625565b6103336004803603606081101561080657600080fd5b50803590602081013590604001356127bc565b6103626127e5565b60038054604080516020601f60026000196101006001881615020190951694909404938401819004810282018101909252828152606093909290918301828280156108ad5780601f10610882576101008083540402835291602001916108ad565b820191906000526020600020905b81548152906001019060200180831161089057829003601f168201915b5050505050905090565b60006108cb6108c461292a565b848461292e565b5060015b92915050565b60025490565b336000908152600b602052604090205460ff16806109085750336108fd6119c7565b6001600160a01b0316145b610954576040805162461bcd60e51b815260206004820152601860248201527718d85b1b195c881a5cc81b9bdd08185d5d1a1bdc9a5e995960421b604482015290519081900360640190fd5b61095c612a1a565b156109985760405162461bcd60e51b81526004018080602001828103825260268152602001806149286026913960400191505060405180910390fd5b6109a0612a3b565b156109dc5760405162461bcd60e51b81526004018080602001828103825260268152602001806149286026913960400191505060405180910390fd5b610a736109f6601854601554612a5c90919063ffffffff16565b600f54604080516370a0823160e01b815230600482015290516001600160a01b03909216916370a0823191602480820192602092909190829003018186803b158015610a4157600080fd5b505afa158015610a55573d6000803e3d6000fd5b505050506040513d6020811015610a6b57600080fd5b505190612ab6565b811115610ac7576040805162461bcd60e51b815260206004820152601b60248201527f43616e6e6f74207374616b652070656e64696e672066756e64732e0000000000604482015290519081900360640190fd5b601160009054906101000a90046001600160a01b03166001600160a01b031663900cf0cf6040518163ffffffff1660e01b815260040160206040518083038186803b158015610b1557600080fd5b505afa158015610b29573d6000803e3d6000fd5b505050506040513d6020811015610b3f57600080fd5b5051601a541480610bc75750601160009054906101000a90046001600160a01b03166001600160a01b03166313f24daf6040518163ffffffff1660e01b815260040160206040518083038186803b158015610b9957600080fd5b505afa158015610bad573d6000803e3d6000fd5b505050506040513d6020811015610bc357600080fd5b5051155b15610c36576011546040805163534a7e1d60e11b81526004810184905290516001600160a01b039092169163a694fc3a9160248082019260009290919082900301818387803b158015610c1957600080fd5b505af1158015610c2d573d6000803e3d6000fd5b50505050610c47565b601554610c439082612a5c565b6015555b50436000908152600c602090815260408083203284529091528082208054600160ff1991821681179092553384529190922080549091169091179055565b600d6020526000908152604090208054600182015460028301546003840154600485015460058601546006870154600790970154959694956001600160a01b039094169492939192909188565b336000908152600b602052604090205460ff1680610cff575033610cf46119c7565b6001600160a01b0316145b610d4b576040805162461bcd60e51b815260206004820152601860248201527718d85b1b195c881a5cc81b9bdd08185d5d1a1bdc9a5e995960421b604482015290519081900360640190fd5b6303c26700821115610d9a576040805162461bcd60e51b81526020600482015260136024820152722637b1b5903a34b6b2903a37b7903434b3b41760691b604482015290519081900360640190fd5b81811115610de3576040805162461bcd60e51b81526020600482015260116024820152702832b730b63a3c903a37b7903434b3b41760791b604482015290519081900360640190fd5b601391909155601455565b6000610dfb848484612b13565b610e6b84610e0761292a565b610e6685604051806060016040528060288152602001614819602891396001600160a01b038a16600090815260016020526040812090610e4561292a565b6001600160a01b031681526020810191909152604001600020549190612d58565b61292e565b5060015b9392505050565b6000610e8182611833565b610e8d57506000610f31565b6001600160a01b0382166000908152600d602052604081206003810154600e54919291610eb991612ab6565b905080610ecb57600092505050610f31565b6000610ed56108d5565b905080610ee85760009350505050610f31565b6000610f0f82610f09670de0b6b3a7640000610f0333611833565b90612def565b90612e48565b90506000610f29670de0b6b3a7640000610f098685612def565b955050505050505b919050565b60055460ff1690565b60006108cb610f4c61292a565b84610e668560016000610f5d61292a565b6001600160a01b03908116825260208083019390935260409182016000908120918c168152925290205490612a5c565b600f546001600160a01b031681565b610fa461292a565b6001600160a01b0316610fb56119c7565b6001600160a01b031614610ffe576040805162461bcd60e51b81526020600482018190526024820152600080516020614841833981519152604482015290519081900360640190fd5b6001600160a01b03811633141561101457600080fd5b6001600160a01b03166000908152600b60205260409020805460ff19169055565b6001600160a01b03821660009081526006602052604081208190819061105c908590612eaf565b91509150816110735761106e85611833565b611075565b805b95945050505050565b60145481565b61108c612a1a565b156110c85760405162461bcd60e51b81526004018080602001828103825260268152602001806149286026913960400191505060405180910390fd5b6110d0612a3b565b1561110c5760405162461bcd60e51b81526004018080602001828103825260268152602001806149286026913960400191505060405180910390fd5b61111533612451565b61115a576040805162461bcd60e51b815260206004820152601160248201527027379023a0a6a2903a379031b630b4b69760791b604482015290519081900360640190fd5b336000908152600d60205260409020805442106111825760145461117f904290612a5c565b81555b610c47612fac565b6012546001600160a01b031681565b6111a1612a1a565b156111dd5760405162461bcd60e51b81526004018080602001828103825260268152602001806149286026913960400191505060405180910390fd5b6111e5612a3b565b156112215760405162461bcd60e51b81526004018080602001828103825260268152602001806149286026913960400191505060405180910390fd5b60008211611270576040805162461bcd60e51b81526020600482015260176024820152762737903d32b9379030b6b7bab73a1030b63637bbb2b21760491b604482015290519081900360640190fd5b336000908152600d60205260409020600481015415801561129657508060070154601b54115b6112d15760405162461bcd60e51b81526004018080602001828103825260258152602001806147196025913960400191505060405180910390fd5b6013548210156112e15760135491505b60006112ed4284612a5c565b60018301849055825490915081111561130a5761130a3382613215565b600061131585612246565b600f54909150611330906001600160a01b0316333088613231565b61133a3382613291565b601160009054906101000a90046001600160a01b03166001600160a01b031663900cf0cf6040518163ffffffff1660e01b815260040160206040518083038186803b15801561138857600080fd5b505afa15801561139c573d6000803e3d6000fd5b505050506040513d60208110156113b257600080fd5b5051601a54148061143a5750601160009054906101000a90046001600160a01b03166001600160a01b03166313f24daf6040518163ffffffff1660e01b815260040160206040518083038186803b15801561140c57600080fd5b505afa158015611420573d6000803e3d6000fd5b505050506040513d602081101561143657600080fd5b5051155b156114a9576011546040805163534a7e1d60e11b81526004810188905290516001600160a01b039092169163a694fc3a9160248082019260009290919082900301818387803b15801561148c57600080fd5b505af11580156114a0573d6000803e3d6000fd5b505050506114ba565b6015546114b69086612a5c565b6015555b4360068401556040805186815260208101839052815133927f90890809c654f11d6e72a28fa60149770a0d11ec6c92319d6ceb2bb0a4ea1a15928290030190a25050436000908152600c602090815260408083203284529091528082208054600160ff1991821681179092553384529190922080549091169091179055505050565b611544612a1a565b156115805760405162461bcd60e51b81526004018080602001828103825260268152602001806149286026913960400191505060405180910390fd5b611588612a3b565b156115c45760405162461bcd60e51b81526004018080602001828103825260268152602001806149286026913960400191505060405180910390fd5b336000908152600d602052604090208054421015611619576040805162461bcd60e51b815260206004820152600d60248201526c5374696c6c206c6f636b65642160981b604482015290519081900360640190fd5b60008211611668576040805162461bcd60e51b81526020600482015260176024820152762737903d32b9379030b6b7bab73a1030b63637bbb2b21760491b604482015290519081900360640190fd5b8060060154601c54116116ac5760405162461bcd60e51b81526004018080602001828103825260258152602001806147906025913960400191505060405180910390fd5b6116b533611833565b8214156116c4576116c4612fac565b6116cf333084612b13565b60048101546116de9083612a5c565b60048201556017546116f09083612a5c565b60175560006116fe8361233b565b60058301549091506117109082612a5c565b60058301556016546117229082612a5c565b6016554360078301556040805184815260208101839052815133927fcbc7c7858f9ab8ce22517d4b910042540172c3d579222cf6716e222f341ca371928290030190a2601160009054906101000a90046001600160a01b03166001600160a01b03166313f24daf6040518163ffffffff1660e01b815260040160206040518083038186803b1580156117b357600080fd5b505afa1580156117c7573d6000803e3d6000fd5b505050506040513d60208110156117dd57600080fd5b50516117f3576117eb613381565b6117f3613cdf565b5050436000908152600c602090815260408083203284529091528082208054600160ff199182168117909255338452919092208054909116909117905550565b6001600160a01b031660009081526020819052604090205490565b61185661292a565b6001600160a01b03166118676119c7565b6001600160a01b0316146118b0576040805162461bcd60e51b81526020600482018190526024820152600080516020614841833981519152604482015290519081900360640190fd5b600a546040516000916001600160a01b0316907f8be0079c531659141344cd1fd0a4f28419497f9722a3daafe3b4186f6b6457e0908390a3600a80546001600160a01b0319169055565b611902612a1a565b1561193e5760405162461bcd60e51b81526004018080602001828103825260268152602001806149286026913960400191505060405180910390fd5b611946612a3b565b156119825760405162461bcd60e51b81526004018080602001828103825260268152602001806149286026913960400191505060405180910390fd5b61198a613381565b436000908152600c602090815260408083203284529091528082208054600160ff1991821681179092553384529190922080549091169091179055565b600a546001600160a01b031690565b60048054604080516020601f60026000196101006001881615020190951694909404938401819004810282018101909252828152606093909290918301828280156108ad5780601f10610882576101008083540402835291602001916108ad565b611a3f612a1a565b15611a7b5760405162461bcd60e51b81526004018080602001828103825260268152602001806149286026913960400191505060405180910390fd5b611a83612a3b565b15611abf5760405162461bcd60e51b81526004018080602001828103825260268152602001806149286026913960400191505060405180910390fd5b601154604080516313f24daf60e01b815290516000926001600160a01b0316916313f24daf916004808301926020929190829003018186803b158015611b0457600080fd5b505afa158015611b18573d6000803e3d6000fd5b505050506040513d6020811015611b2e57600080fd5b50519050801580611bc05750611bbe81601160009054906101000a90046001600160a01b03166001600160a01b031663900cf0cf6040518163ffffffff1660e01b815260040160206040518083038186803b158015611b8c57600080fd5b505afa158015611ba0573d6000803e3d6000fd5b505050506040513d6020811015611bb657600080fd5b505190613ecc565b155b611c11576040805162461bcd60e51b815260206004820152601e60248201527f4d7573742063616c6c20617420612077697468647261772065706f63682e0000604482015290519081900360640190fd5b801580611c715750610708611c6e42601160009054906101000a90046001600160a01b03166001600160a01b031663c5967c266040518163ffffffff1660e01b815260040160206040518083038186803b158015610a4157600080fd5b11155b611cac5760405162461bcd60e51b815260040180806020018281038252602c815260200180614764602c913960400191505060405180910390fd5b801580611d345750601160009054906101000a90046001600160a01b03166001600160a01b031663900cf0cf6040518163ffffffff1660e01b815260040160206040518083038186803b158015611d0257600080fd5b505afa158015611d16573d6000803e3d6000fd5b505050506040513d6020811015611d2c57600080fd5b5051601a5414155b611d77576040805162461bcd60e51b815260206004820152600f60248201526e20b63932b0b23c9031b0b63632b21760891b604482015290519081900360640190fd5b601160009054906101000a90046001600160a01b03166001600160a01b03166313f24daf6040518163ffffffff1660e01b815260040160206040518083038186803b158015611dc557600080fd5b505afa158015611dd9573d6000803e3d6000fd5b505050506040513d6020811015611def57600080fd5b50511580611e775750601160009054906101000a90046001600160a01b03166001600160a01b031663900cf0cf6040518163ffffffff1660e01b815260040160206040518083038186803b158015611e4657600080fd5b505afa158015611e5a573d6000803e3d6000fd5b505050506040513d6020811015611e7057600080fd5b5051601954145b611ec1576040805162461bcd60e51b815260206004820152601660248201527524b734ba34b0ba32903830b93a1018903334b939ba1760511b604482015290519081900360640190fd5b60155415611f37576011546015546040805163534a7e1d60e11b81526004810192909252516001600160a01b039092169163a694fc3a9160248082019260009290919082900301818387803b158015611f1957600080fd5b505af1158015611f2d573d6000803e3d6000fd5b5050600060155550505b601160009054906101000a90046001600160a01b03166001600160a01b031663900cf0cf6040518163ffffffff1660e01b815260040160206040518083038186803b158015611f8557600080fd5b505afa158015611f99573d6000803e3d6000fd5b505050506040513d6020811015611faf57600080fd5b5051601a555043601c8190556000908152600c602090815260408083203284529091528082208054600160ff1991821681179092553384529190922080549091169091179055565b6000806000612007846007612eaf565b915091508161201d576120186108d5565b61201f565b805b949350505050565b60006108cb61203461292a565b84610e6685604051806060016040528060258152602001614981602591396001600061205e61292a565b6001600160a01b03908116825260208083019390935260409182016000908120918d16815292529020549190612d58565b600e5481565b60135481565b336000908152600b602052604081205460ff16806120c85750336120bd6119c7565b6001600160a01b0316145b612114576040805162461bcd60e51b815260206004820152601860248201527718d85b1b195c881a5cc81b9bdd08185d5d1a1bdc9a5e995960421b604482015290519081900360640190fd5b61211c612a1a565b156121585760405162461bcd60e51b81526004018080602001828103825260268152602001806149286026913960400191505060405180910390fd5b612160612a3b565b1561219c5760405162461bcd60e51b81526004018080602001828103825260268152602001806149286026913960400191505060405180910390fd5b6000826121ad576121ad8685613215565b6001600160a01b0387163314156121cf576121c88686612232565b90506121dd565b6121da878787610dee565b90505b82156121ed576121ed8685613215565b436000908152600c602090815260408083203284529091528082208054600160ff19918216811790925533845291909220805490911690911790559695505050505050565b60006108cb61223f61292a565b8484612b13565b601554601154604080516370a0823160e01b8152306004820152905160009384936122d09391926001600160a01b03909116916370a08231916024808301926020929190829003018186803b15801561229e57600080fd5b505afa1580156122b2573d6000803e3d6000fd5b505050506040513d60208110156122c857600080fd5b505190612a5c565b905060006122dc6108d5565b90508015806122e9575081155b156122f8578392505050610f31565b600061107583610f098785612def565b6011546001600160a01b031681565b600b6020526000908152604090205460ff1681565b6010546001600160a01b031681565b601554601154604080516370a0823160e01b8152306004820152905160009384936123939391926001600160a01b03909116916370a08231916024808301926020929190829003018186803b15801561229e57600080fd5b9050600061239f6108d5565b90508015806123ac575081155b156123bb578392505050610f31565b600061107582610f098786612def565b6123d361292a565b6001600160a01b03166123e46119c7565b6001600160a01b03161461242d576040805162461bcd60e51b81526020600482018190526024820152600080516020614841833981519152604482015290519081900360640190fd5b6001600160a01b03166000908152600b60205260409020805460ff19166001179055565b600061245c82611833565b61246857506000610f31565b6001600160a01b0382166000908152600d602052604081206003810154600e5491929161249491612ab6565b9050806124a657600092505050610f31565b60006124b06108d5565b9050806124c35760009350505050610f31565b506001949350505050565b6001600160a01b03918216600090815260016020908152604080832093909416825291909152205490565b6000811580612506575082155b15612512575082610e6f565b600061107583610f098787612def565b61252a61292a565b6001600160a01b031661253b6119c7565b6001600160a01b031614612584576040805162461bcd60e51b81526020600482018190526024820152600080516020614841833981519152604482015290519081900360640190fd5b6001600160a01b0381166125c95760405162461bcd60e51b81526004018080602001828103825260268152602001806146896026913960400191505060405180910390fd5b600a546040516001600160a01b038084169216907f8be0079c531659141344cd1fd0a4f28419497f9722a3daafe3b4186f6b6457e090600090a3600a80546001600160a01b0319166001600160a01b0392909216919091179055565b336000908152600b602052604090205460ff16806126525750336126476119c7565b6001600160a01b0316145b61269e576040805162461bcd60e51b815260206004820152601860248201527718d85b1b195c881a5cc81b9bdd08185d5d1a1bdc9a5e995960421b604482015290519081900360640190fd5b6126a6612a1a565b156126e25760405162461bcd60e51b81526004018080602001828103825260268152602001806149286026913960400191505060405180910390fd5b6126ea612a3b565b156127265760405162461bcd60e51b81526004018080602001828103825260268152602001806149286026913960400191505060405180910390fd5b6001600160a01b03831630141580612752575061274e60175461274830611833565b90612ab6565b8111155b61275b57600080fd5b600f546001600160a01b03848116911614156127a85760405162461bcd60e51b81526004018080602001828103825260228152602001806146d16022913960400191505060405180910390fd5b6117f36001600160a01b0384168383613f33565b60008115806127c9575082155b156127d5575082610e6f565b600061107584610f098786612def565b6127ed612a1a565b156128295760405162461bcd60e51b81526004018080602001828103825260268152602001806149286026913960400191505060405180910390fd5b612831612a3b565b1561286d5760405162461bcd60e51b81526004018080602001828103825260268152602001806149286026913960400191505060405180910390fd5b601160009054906101000a90046001600160a01b03166001600160a01b03166313f24daf6040518163ffffffff1660e01b815260040160206040518083038186803b1580156128bb57600080fd5b505afa1580156128cf573d6000803e3d6000fd5b505050506040513d60208110156128e557600080fd5b50516129225760405162461bcd60e51b81526004018080602001828103825260218152602001806147b56021913960400191505060405180910390fd5b61198a613cdf565b3390565b6001600160a01b0383166129735760405162461bcd60e51b81526004018080602001828103825260248152602001806148da6024913960400191505060405180910390fd5b6001600160a01b0382166129b85760405162461bcd60e51b81526004018080602001828103825260228152602001806146af6022913960400191505060405180910390fd5b6001600160a01b03808416600081815260016020908152604080832094871680845294825291829020859055815185815291517f8c5be1e5ebec7d5bd14f71427d1e84f3dd0314c0f7b2291e5b200ac8c7c3b9259281900390910190a3505050565b436000908152600c6020908152604080832032845290915290205460ff1690565b436000908152600c6020908152604080832033845290915290205460ff1690565b600082820183811015610e6f576040805162461bcd60e51b815260206004820152601b60248201527f536166654d6174683a206164646974696f6e206f766572666c6f770000000000604482015290519081900360640190fd5b600082821115612b0d576040805162461bcd60e51b815260206004820152601e60248201527f536166654d6174683a207375627472616374696f6e206f766572666c6f770000604482015290519081900360640190fd5b50900390565b336000908152600b602052604090205460ff1680612b40575033612b356119c7565b6001600160a01b0316145b80612bc1575060125460408051632364d3dd60e21b8152905133926001600160a01b031691638d934f74916004808301926020929190829003018186803b158015612b8a57600080fd5b505afa158015612b9e573d6000803e3d6000fd5b505050506040513d6020811015612bb457600080fd5b50516001600160a01b0316145b80612bcb57503033145b80612bee57506001600160a01b0382166000908152600b602052604090205460ff165b80612c115750816001600160a01b0316612c066119c7565b6001600160a01b0316145b80612c94575060125460408051632364d3dd60e21b815290516001600160a01b03808616931691638d934f74916004808301926020929190829003018186803b158015612c5d57600080fd5b505afa158015612c71573d6000803e3d6000fd5b505050506040513d6020811015612c8757600080fd5b50516001600160a01b0316145b80612ca75750306001600160a01b038316145b612d48576001600160a01b038281166000908152600d6020526040902060028101549091858116911614612d0c5760405162461bcd60e51b81526004018080602001828103825260228152602001806147d66022913960400191505060405180910390fd5b6002810180546001600160a01b0319169055601354600090612d2f904290612a5c565b8254909150811115612d4557612d458482613215565b50505b612d53838383613f85565b505050565b60008184841115612de75760405162461bcd60e51b81526004018080602001828103825283818151815260200191508051906020019080838360005b83811015612dac578181015183820152602001612d94565b50505050905090810190601f168015612dd95780820380516001836020036101000a031916815260200191505b509250505060405180910390fd5b505050900390565b600082612dfe575060006108cf565b82820282848281612e0b57fe5b0414610e6f5760405162461bcd60e51b81526004018080602001828103825260218152602001806147f86021913960400191505060405180910390fd5b6000808211612e9e576040805162461bcd60e51b815260206004820152601a60248201527f536166654d6174683a206469766973696f6e206279207a65726f000000000000604482015290519081900360640190fd5b818381612ea757fe5b049392505050565b60008060008411612f00576040805162461bcd60e51b815260206004820152601660248201527504552433230536e617073686f743a20696420697320360541b604482015290519081900360640190fd5b612f0a60096140e0565b841115612f5e576040805162461bcd60e51b815260206004820152601d60248201527f4552433230536e617073686f743a206e6f6e6578697374656e74206964000000604482015290519081900360640190fd5b6000612f6a84866140e4565b8454909150811415612f83576000809250925050612fa5565b6001846001018281548110612f9457fe5b906000526020600020015492509250505b9250929050565b336000908152600d602052604081206003810154600e54919291612fcf91612ab6565b600e54600384015590506000612ffb612fe66108d5565b610f09670de0b6b3a7640000610f0333611833565b90506000613015670de0b6b3a7640000610f098585612def565b6010546040805163a9059cbb60e01b81523360048201526024810184905290519293506001600160a01b039091169163a9059cbb916044808201926020929091908290030181600087803b15801561306c57600080fd5b505af1158015613080573d6000803e3d6000fd5b505050506040513d602081101561309657600080fd5b505060115460408051638278b53b60e01b8152905160009283926001600160a01b0390911691638278b53b91600480820192602092909190829003018186803b1580156130e257600080fd5b505afa1580156130f6573d6000803e3d6000fd5b505050506040513d602081101561310c57600080fd5b5051905060648111156131505760405162461bcd60e51b81526004018080602001828103825260338152602001806148826033913960400191505060405180910390fd5b61315f6064610f098584612def565b915081156131d3576010546040805163282d3fdf60e01b81523360048201526024810185905290516001600160a01b039092169163282d3fdf9160448082019260009290919082900301818387803b1580156131ba57600080fd5b505af11580156131ce573d6000803e3d6000fd5b505050505b6040805184815260208101849052815133927fd6f2c8500df5b44f11e9e48b91ff9f1b9d81bc496d55570c2b1b75bf65243f51928290030190a2505050505050565b6001600160a01b039091166000908152600d6020526040902055565b604080516001600160a01b0380861660248301528416604482015260648082018490528251808303909101815260849091019091526020810180516001600160e01b03166323b872dd60e01b17905261328b908590614185565b50505050565b6001600160a01b0382166132ec576040805162461bcd60e51b815260206004820152601f60248201527f45524332303a206d696e7420746f20746865207a65726f206164647265737300604482015290519081900360640190fd5b6132f860008383614236565b6002546133059082612a5c565b6002556001600160a01b03821660009081526020819052604090205461332b9082612a5c565b6001600160a01b0383166000818152602081815260408083209490945583518581529351929391927fddf252ad1be2c89b69c2b068fc378daa952ba7f163c4a11628f55a4df523b3ef9281900390910190a35050565b601154604080516313f24daf60e01b815290516000926001600160a01b0316916313f24daf916004808301926020929190829003018186803b1580156133c657600080fd5b505afa1580156133da573d6000803e3d6000fd5b505050506040513d60208110156133f057600080fd5b50519050801580613450575061344e81601160009054906101000a90046001600160a01b03166001600160a01b031663900cf0cf6040518163ffffffff1660e01b815260040160206040518083038186803b158015611b8c57600080fd5b155b6134a1576040805162461bcd60e51b815260206004820152601e60248201527f4d7573742063616c6c20617420612077697468647261772065706f63682e0000604482015290519081900360640190fd5b80158061350157506107086134fe42601160009054906101000a90046001600160a01b03166001600160a01b031663c5967c266040518163ffffffff1660e01b815260040160206040518083038186803b158015610a4157600080fd5b11155b61353c5760405162461bcd60e51b815260040180806020018281038252602c815260200180614764602c913960400191505060405180910390fd5b8015806135c45750601160009054906101000a90046001600160a01b03166001600160a01b031663900cf0cf6040518163ffffffff1660e01b815260040160206040518083038186803b15801561359257600080fd5b505afa1580156135a6573d6000803e3d6000fd5b505050506040513d60208110156135bc57600080fd5b505160195414155b613607576040805162461bcd60e51b815260206004820152600f60248201526e20b63932b0b23c9031b0b63632b21760891b604482015290519081900360640190fd5b60105460408051632587701560e11b815230600482015290516000926001600160a01b031691634b0ee02a916024808301926020929190829003018186803b15801561365257600080fd5b505afa158015613666573d6000803e3d6000fd5b505050506040513d602081101561367c57600080fd5b50516017549091501561369b576136953060175461428e565b60006017555b60165461370f57601160009054906101000a90046001600160a01b03166001600160a01b031663b88a802f6040518163ffffffff1660e01b8152600401600060405180830381600087803b1580156136f257600080fd5b505af1158015613706573d6000803e3d6000fd5b50505050613adf565b600f54604080516370a0823160e01b815230600482015290516000926001600160a01b0316916370a08231916024808301926020929190829003018186803b15801561375a57600080fd5b505afa15801561376e573d6000803e3d6000fd5b505050506040513d602081101561378457600080fd5b5051601680546000909155601554919250908111156137b7576015546137ab908290612ab6565b600060155590506137cb565b6015546137c49082612ab6565b6015555060005b8015613a735760115460408051632e1a7d4d60e01b81526004810184905290516001600160a01b0390921691632e1a7d4d9160248082019260009290919082900301818387803b15801561381e57600080fd5b505af1158015613832573d6000803e3d6000fd5b50506018546138449250905082612a5c565b601855600f54604080516370a0823160e01b815230600482015290516000926001600160a01b0316916370a08231916024808301926020929190829003018186803b15801561389257600080fd5b505afa1580156138a6573d6000803e3d6000fd5b505050506040513d60208110156138bc57600080fd5b5051905060006138cc8285612ab6565b905060006138da8483612ab6565b90506000811180156139e05750600f5460125460408051632364d3dd60e21b815290516000936001600160a01b039081169363dd62ed3e93911691638d934f7491600480820192602092909190829003018186803b15801561393b57600080fd5b505afa15801561394f573d6000803e3d6000fd5b505050506040513d602081101561396557600080fd5b5051604080516001600160e01b031960e085901b1681526001600160a01b039092166004830152306024830152516044808301926020929190829003018186803b1580156139b257600080fd5b505afa1580156139c6573d6000803e3d6000fd5b505050506040513d60208110156139dc57600080fd5b5051115b15613a6b5760125460408051632364d3dd60e21b81529051613a6b926001600160a01b031691638d934f74916004808301926020929190829003018186803b158015613a2b57600080fd5b505afa158015613a3f573d6000803e3d6000fd5b505050506040513d6020811015613a5557600080fd5b5051600f546001600160a01b0316903084613231565b505050613adc565b601160009054906101000a90046001600160a01b03166001600160a01b031663b88a802f6040518163ffffffff1660e01b8152600401600060405180830381600087803b158015613ac357600080fd5b505af1158015613ad7573d6000803e3d6000fd5b505050505b50505b60105460408051635a46d3b560e01b8152306004820181905291516001600160a01b039093169263af2b0f6692918491635a46d3b591602480820192602092909190829003018186803b158015613b3557600080fd5b505afa158015613b49573d6000803e3d6000fd5b505050506040513d6020811015613b5f57600080fd5b5051604080516001600160e01b031960e086901b1681526001600160a01b039093166004840152602483019190915251604480830192600092919082900301818387803b158015613baf57600080fd5b505af1158015613bc3573d6000803e3d6000fd5b505060105460408051632587701560e11b81523060048201529051600094506001600160a01b039092169250634b0ee02a916024808301926020929190829003018186803b158015613c1457600080fd5b505afa158015613c28573d6000803e3d6000fd5b505050506040513d6020811015613c3e57600080fd5b505190506000613c4e8284612ab6565b600e54909150613c5e9082612a5c565b600e556011546040805163900cf0cf60e01b815290516001600160a01b039092169163900cf0cf91600480820192602092909190829003018186803b158015613ca657600080fd5b505afa158015613cba573d6000803e3d6000fd5b505050506040513d6020811015613cd057600080fd5b5051601955505043601b555050565b336000908152600d602052604090208054421015613d34576040805162461bcd60e51b815260206004820152600d60248201526c5374696c6c206c6f636b65642160981b604482015290519081900360640190fd5b6000816004015411613d87576040805162461bcd60e51b81526020600482015260176024820152762737903d32b9379030b6b7bab73a1030b63637bbb2b21760491b604482015290519081900360640190fd5b601160009054906101000a90046001600160a01b03166001600160a01b03166313f24daf6040518163ffffffff1660e01b815260040160206040518083038186803b158015613dd557600080fd5b505afa158015613de9573d6000803e3d6000fd5b505050506040513d6020811015613dff57600080fd5b50511580613e1257508060070154601b54115b613e4d5760405162461bcd60e51b815260040180806020018281038252603381526020018061494e6033913960400191505060405180910390fd5b6005810154601854613e5f9082612ab6565b6018556004820180546000918290556005840191909155600f54613e8d906001600160a01b03163384613f33565b6040805182815260208101849052815133927ff279e6a1f5e320cca91135676d9cb6e44ca8a08c0b88342bcdb1144f6511b568928290030190a2505050565b6000808211613f22576040805162461bcd60e51b815260206004820152601860248201527f536166654d6174683a206d6f64756c6f206279207a65726f0000000000000000604482015290519081900360640190fd5b818381613f2b57fe5b069392505050565b604080516001600160a01b038416602482015260448082018490528251808303909101815260649091019091526020810180516001600160e01b031663a9059cbb60e01b179052612d53908490614185565b6001600160a01b038316613fca5760405162461bcd60e51b81526004018080602001828103825260258152602001806148b56025913960400191505060405180910390fd5b6001600160a01b03821661400f5760405162461bcd60e51b81526004018080602001828103825260238152602001806146446023913960400191505060405180910390fd5b61401a838383614236565b614057816040518060600160405280602681526020016146f3602691396001600160a01b0386166000908152602081905260409020549190612d58565b6001600160a01b0380851660009081526020819052604080822093909355908416815220546140869082612a5c565b6001600160a01b038084166000818152602081815260409182902094909455805185815290519193928716927fddf252ad1be2c89b69c2b068fc378daa952ba7f163c4a11628f55a4df523b3ef92918290030190a3505050565b5490565b81546000906140f5575060006108cf565b82546000905b8082101561414457600061410f838361438a565b90508486828154811061411e57fe5b906000526020600020015411156141375780915061413e565b8060010192505b506140fb565b60008211801561416c57508385600184038154811061415f57fe5b9060005260206000200154145b1561417d57506000190190506108cf565b5090506108cf565b60606141da826040518060400160405280602081526020017f5361666545524332303a206c6f772d6c6576656c2063616c6c206661696c6564815250856001600160a01b03166143af9092919063ffffffff16565b805190915015612d53578080602001905160208110156141f957600080fd5b5051612d535760405162461bcd60e51b815260040180806020018281038252602a8152602001806148fe602a913960400191505060405180910390fd5b614241838383612d53565b6001600160a01b03831661426557614258826143be565b6142606143eb565b612d53565b6001600160a01b03821661427c57614258836143be565b614285836143be565b612d53826143be565b6001600160a01b0382166142d35760405162461bcd60e51b81526004018080602001828103825260218152602001806148616021913960400191505060405180910390fd5b6142df82600083614236565b61431c81604051806060016040528060228152602001614667602291396001600160a01b0385166000908152602081905260409020549190612d58565b6001600160a01b0383166000908152602081905260409020556002546143429082612ab6565b6002556040805182815290516000916001600160a01b038516917fddf252ad1be2c89b69c2b068fc378daa952ba7f163c4a11628f55a4df523b3ef9181900360200190a35050565b6000600280830660028506018161439d57fe5b04600283046002850401019392505050565b606061201f84846000856143fa565b6001600160a01b03811660009081526006602052604090206143e8906143e383611833565b614556565b50565b6143f860076143e36108d5565b565b60608247101561443b5760405162461bcd60e51b815260040180806020018281038252602681526020018061473e6026913960400191505060405180910390fd5b614444856145a2565b614495576040805162461bcd60e51b815260206004820152601d60248201527f416464726573733a2063616c6c20746f206e6f6e2d636f6e7472616374000000604482015290519081900360640190fd5b60006060866001600160a01b031685876040518082805190602001908083835b602083106144d45780518252601f1990920191602091820191016144b5565b6001836020036101000a03801982511681845116808217855250505050505090500191505060006040518083038185875af1925050503d8060008114614536576040519150601f19603f3d011682016040523d82523d6000602084013e61453b565b606091505b509150915061454b8282866145a8565b979650505050505050565b600061456260096140e0565b90508061456e8461460e565b1015612d53578254600180820185556000858152602080822090930193909355938401805494850181558252902090910155565b3b151590565b606083156145b7575081610e6f565b8251156145c75782518084602001fd5b60405162461bcd60e51b8152602060048201818152845160248401528451859391928392604401919085019080838360008315612dac578181015183820152602001612d94565b805460009061461f57506000610f31565b81548290600019810190811061463157fe5b90600052602060002001549050610f3156fe45524332303a207472616e7366657220746f20746865207a65726f206164647265737345524332303a206275726e20616d6f756e7420657863656564732062616c616e63654f776e61626c653a206e6577206f776e657220697320746865207a65726f206164647265737345524332303a20617070726f766520746f20746865207a65726f206164647265737343616e6e6f74206272696e6720646f776e207072696365206f66204d41535445522e45524332303a207472616e7366657220616d6f756e7420657863656564732062616c616e636543616e6e6f74207374616b65207769746820612077697468647261772070656e64696e672e416464726573733a20696e73756666696369656e742062616c616e636520666f722063616c6c4d7573742062652063616c6c6564203330206d696e75746573206265666f72652065706f636820656e64732e43616e6e6f7420776974686472617720776974682061207374616b652070656e64696e672e43616c6c207265717565737453656c6c546f5468656f727920696e73746561642e526563656976657220646964206e6f7420617070726f7665207472616e736665722e536166654d6174683a206d756c7469706c69636174696f6e206f766572666c6f7745524332303a207472616e7366657220616d6f756e74206578636565647320616c6c6f77616e63654f776e61626c653a2063616c6c6572206973206e6f7420746865206f776e657245524332303a206275726e2066726f6d20746865207a65726f2061646472657373496e76616c6964206c6f636b2070657263656e746167652c20636865636b205468656f72657469637320636f6e74726163742e45524332303a207472616e736665722066726f6d20746865207a65726f206164647265737345524332303a20617070726f76652066726f6d20746865207a65726f20616464726573735361666545524332303a204552433230206f7065726174696f6e20646964206e6f742073756363656564436f6e747261637447756172643a206f6e6520626c6f636b2c206f6e652066756e6374696f6e496e69746961746f7220506172742031206e6f74207965742063616c6c6564206f722063616c6c656420746f6f20736f6f6e2e45524332303a2064656372656173656420616c6c6f77616e63652062656c6f77207a65726fa2646970667358221220bf4f41a9b0fa99afbb72aecad8f66304e92358ec57e6451edb9049a0cd8deb0864736f6c634300060c0033",
  "linkReferences": {},
  "deployedLinkReferences": {}
}