{
  "_format": "hh-sol-artifact-1",
  "contractName": "Zap",
  "sourceName": "contracts/Zap.sol",
  "abi": [
    {
      "inputs": [
        {
          "internalType": "address",
          "name": "_WNATIVE",
          "type": "address"
        },
        {
          "internalType": "address",
          "name": "_fund",
          "type": "address"
        }
      ],
      "stateMutability": "nonpayable",
      "type": "constructor"
    },
    {
      "anonymous": false,
      "inputs": [
        {
          "indexed": true,
          "internalType": "address",
          "name": "previousOwner",
          "type": "address"
        },
        {
          "indexed": true,
          "internalType": "address",
          "name": "newOwner",
          "type": "address"
        }
      ],
      "name": "OwnershipTransferred",
      "type": "event"
    },
    {
      "inputs": [
        {
          "internalType": "address",
          "name": "_from",
          "type": "address"
        },
        {
          "internalType": "address",
          "name": "_to",
          "type": "address"
        },
        {
          "internalType": "address",
          "name": "_router",
          "type": "address"
        },
        {
          "internalType": "uint256",
          "name": "amountWithoutFee",
          "type": "uint256"
        }
      ],
      "name": "estimateZapInToken",
      "outputs": [
        {
          "internalType": "uint256",
          "name": "",
          "type": "uint256"
        },
        {
          "internalType": "uint256",
          "name": "",
          "type": "uint256"
        }
      ],
      "stateMutability": "view",
      "type": "function"
    },
    {
      "inputs": [],
      "name": "owner",
      "outputs": [
        {
          "internalType": "address",
          "name": "",
          "type": "address"
        }
      ],
      "stateMutability": "view",
      "type": "function"
    },
    {
      "inputs": [],
      "name": "renounceOwnership",
      "outputs": [],
      "stateMutability": "nonpayable",
      "type": "function"
    },
    {
      "inputs": [
        {
          "internalType": "uint256",
          "name": "fee",
          "type": "uint256"
        },
        {
          "internalType": "address",
          "name": "fund",
          "type": "address"
        }
      ],
      "name": "setFee",
      "outputs": [],
      "stateMutability": "nonpayable",
      "type": "function"
    },
    {
      "inputs": [
        {
          "internalType": "address",
          "name": "token",
          "type": "address"
        },
        {
          "internalType": "address",
          "name": "router",
          "type": "address"
        },
        {
          "internalType": "address",
          "name": "bridgeToken",
          "type": "address"
        }
      ],
      "name": "setTokenBridgeForRouter",
      "outputs": [],
      "stateMutability": "nonpayable",
      "type": "function"
    },
    {
      "inputs": [
        {
          "internalType": "address",
          "name": "router",
          "type": "address"
        }
      ],
      "name": "setUseNativeRouter",
      "outputs": [],
      "stateMutability": "nonpayable",
      "type": "function"
    },
    {
      "inputs": [
        {
          "internalType": "address",
          "name": "_from",
          "type": "address"
        },
        {
          "internalType": "uint256",
          "name": "amount",
          "type": "uint256"
        },
        {
          "internalType": "uint256",
          "name": "slippage",
          "type": "uint256"
        },
        {
          "internalType": "address",
          "name": "_to",
          "type": "address"
        },
        {
          "internalType": "address",
          "name": "routerAddr",
          "type": "address"
        },
        {
          "internalType": "address",
          "name": "_recipient",
          "type": "address"
        }
      ],
      "name": "swapToken",
      "outputs": [],
      "stateMutability": "nonpayable",
      "type": "function"
    },
    {
      "inputs": [
        {
          "internalType": "address",
          "name": "newOwner",
          "type": "address"
        }
      ],
      "name": "transferOwnership",
      "outputs": [],
      "stateMutability": "nonpayable",
      "type": "function"
    },
    {
      "inputs": [
        {
          "internalType": "address",
          "name": "",
          "type": "address"
        }
      ],
      "name": "useNativeRouter",
      "outputs": [
        {
          "internalType": "bool",
          "name": "",
          "type": "bool"
        }
      ],
      "stateMutability": "view",
      "type": "function"
    },
    {
      "inputs": [
        {
          "internalType": "address",
          "name": "token",
          "type": "address"
        }
      ],
      "name": "withdraw",
      "outputs": [],
      "stateMutability": "nonpayable",
      "type": "function"
    },
    {
      "inputs": [
        {
          "internalType": "address",
          "name": "_from",
          "type": "address"
        },
        {
          "internalType": "uint256",
          "name": "amountWithoutFee",
          "type": "uint256"
        },
        {
          "internalType": "uint256",
          "name": "slippage",
          "type": "uint256"
        },
        {
          "internalType": "address",
          "name": "_to",
          "type": "address"
        },
        {
          "internalType": "address",
          "name": "routerAddr",
          "type": "address"
        },
        {
          "internalType": "address",
          "name": "_recipient",
          "type": "address"
        }
      ],
      "name": "zapInToken",
      "outputs": [],
      "stateMutability": "nonpayable",
      "type": "function"
    },
    {
      "stateMutability": "payable",
      "type": "receive"
    }
  ],
  "bytecode": "0x60806040523480156200001157600080fd5b5060405162002ce238038062002ce28339810160408190526200003491620000c9565b600080546001600160a01b031916339081178255604051909182917f8be0079c531659141344cd1fd0a4f28419497f9722a3daafe3b4186f6b6457e0908290a350600180546001600160a01b039384166001600160a01b03199182161790915560326003556002805492909316911617905562000100565b80516001600160a01b0381168114620000c457600080fd5b919050565b60008060408385031215620000dc578182fd5b620000e783620000ac565b9150620000f760208401620000ac565b90509250929050565b612bd280620001106000396000f3fe6080604052600436106100a05760003560e01c80638da5cb5b116100645780638da5cb5b146101435780638e8d8152146101705780639416cbc6146101a5578063b4f2e8b8146101e5578063e571e28014610205578063f2fde38b1461022557600080fd5b806303546a72146100ac57806351cff8d9146100ce5780635424888b146100ee578063715018a61461010e57806388fbe4191461012357600080fd5b366100a757005b600080fd5b3480156100b857600080fd5b506100cc6100c73660046127b1565b610245565b005b3480156100da57600080fd5b506100cc6100e93660046126df565b61027b565b3480156100fa57600080fd5b506100cc610109366004612717565b610413565b34801561011a57600080fd5b506100cc61047a565b34801561012f57600080fd5b506100cc61013e3660046126df565b6104ee565b34801561014f57600080fd5b506000546040516001600160a01b0390911681526020015b60405180910390f35b34801561017c57600080fd5b5061019061018b366004612761565b61053c565b60408051928352602083019190915201610167565b3480156101b157600080fd5b506101d56101c03660046126df565b60056020526000908152604090205460ff1681565b6040519015158152602001610167565b3480156101f157600080fd5b506100cc610200366004612918565b6109f4565b34801561021157600080fd5b506100cc6102203660046127b1565b610a8b565b34801561023157600080fd5b506100cc6102403660046126df565b610b12565b61025a6001600160a01b038716333088610bfc565b6102648683610c6d565b610272868686868587610d06565b50505050505050565b6000546001600160a01b031633146102ae5760405162461bcd60e51b81526004016102a590612a4f565b60405180910390fd5b6001600160a01b0381166102fa57600080546040516001600160a01b03909116914780156108fc02929091818181858888f193505050501580156102f6573d6000803e3d6000fd5b5050565b806001600160a01b031663a9059cbb61031b6000546001600160a01b031690565b6040516370a0823160e01b81523060048201526001600160a01b038516906370a082319060240160206040518083038186803b15801561035a57600080fd5b505afa15801561036e573d6000803e3d6000fd5b505050506040513d601f19601f820116820180604052508101906103929190612900565b6040516001600160e01b031960e085901b1681526001600160a01b0390921660048301526024820152604401602060405180830381600087803b1580156103d857600080fd5b505af11580156103ec573d6000803e3d6000fd5b505050506040513d601f19601f820116820180604052508101906102f691906128e0565b50565b6000546001600160a01b0316331461043d5760405162461bcd60e51b81526004016102a590612a4f565b6001600160a01b03928316600090815260046020908152604080832094861683529390529190912080546001600160a01b03191691909216179055565b6000546001600160a01b031633146104a45760405162461bcd60e51b81526004016102a590612a4f565b600080546040516001600160a01b03909116907f8be0079c531659141344cd1fd0a4f28419497f9722a3daafe3b4186f6b6457e0908390a3600080546001600160a01b0319169055565b6000546001600160a01b031633146105185760405162461bcd60e51b81526004016102a590612a4f565b6001600160a01b03166000908152600560205260409020805460ff19166001179055565b600080600061056261271061055c6003548761151390919063ffffffff16565b90611526565b905060006105708583611532565b9050866001600160a01b0316630dfe16816040518163ffffffff1660e01b815260040160206040518083038186803b1580156105ab57600080fd5b505afa1580156105bf573d6000803e3d6000fd5b505050506040513d601f19601f820116820180604052508101906105e391906126fb565b6001600160a01b0316886001600160a01b031614806106835750866001600160a01b031663d21220a76040518163ffffffff1660e01b815260040160206040518083038186803b15801561063657600080fd5b505afa15801561064a573d6000803e3d6000fd5b505050506040513d601f19601f8201168201806040525081019061066e91906126fb565b6001600160a01b0316886001600160a01b0316145b156108c0576000876001600160a01b0316630dfe16816040518163ffffffff1660e01b815260040160206040518083038186803b1580156106c357600080fd5b505afa1580156106d7573d6000803e3d6000fd5b505050506040513d601f19601f820116820180604052508101906106fb91906126fb565b6001600160a01b0316896001600160a01b03161461078957876001600160a01b0316630dfe16816040518163ffffffff1660e01b815260040160206040518083038186803b15801561074c57600080fd5b505afa158015610760573d6000803e3d6000fd5b505050506040513d601f19601f8201168201806040525081019061078491906126fb565b6107fa565b876001600160a01b031663d21220a76040518163ffffffff1660e01b815260040160206040518083038186803b1580156107c257600080fd5b505afa1580156107d6573d6000803e3d6000fd5b505050506040513d601f19601f820116820180604052508101906107fa91906126fb565b90506000610809836002611526565b905060006108198b83858c61153e565b9050896001600160a01b0316630dfe16816040518163ffffffff1660e01b815260040160206040518083038186803b15801561085457600080fd5b505afa158015610868573d6000803e3d6000fd5b505050506040513d601f19601f8201168201806040525081019061088c91906126fb565b6001600160a01b03168b6001600160a01b031614156108b35790955093506109eb92505050565b955093506109eb92505050565b6000610948896108d1846002611526565b8a6001600160a01b0316630dfe16816040518163ffffffff1660e01b815260040160206040518083038186803b15801561090a57600080fd5b505afa15801561091e573d6000803e3d6000fd5b505050506040513d601f19601f8201168201806040525081019061094291906126fb565b8a61153e565b905060006109dc8a61096561095e866002611526565b8690611532565b8b6001600160a01b031663d21220a76040518163ffffffff1660e01b815260040160206040518083038186803b15801561099e57600080fd5b505afa1580156109b2573d6000803e3d6000fd5b505050506040513d601f19601f820116820180604052508101906109d691906126fb565b8b61153e565b9195509093506109eb92505050565b94509492505050565b6000546001600160a01b03163314610a1e5760405162461bcd60e51b81526004016102a590612a4f565b610190821115610a645760405162461bcd60e51b8152602060048201526011602482015270466565206d757374206265203c3d20342560781b60448201526064016102a5565b600391909155600280546001600160a01b0319166001600160a01b03909216919091179055565b6000610aa861271061055c6003548961151390919063ffffffff16565b90506000610ab68783611532565b90508115610ada57600254610ada906001600160a01b038a81169133911685610bfc565b610aef6001600160a01b038916333084610bfc565b610af98885610c6d565b610b07888288888789611d11565b505050505050505050565b6000546001600160a01b03163314610b3c5760405162461bcd60e51b81526004016102a590612a4f565b6001600160a01b038116610ba15760405162461bcd60e51b815260206004820152602660248201527f4f776e61626c653a206e6577206f776e657220697320746865207a65726f206160448201526564647265737360d01b60648201526084016102a5565b600080546040516001600160a01b03808516939216917f8be0079c531659141344cd1fd0a4f28419497f9722a3daafe3b4186f6b6457e091a3600080546001600160a01b0319166001600160a01b0392909216919091179055565b6040516001600160a01b0380851660248301528316604482015260648101829052610c679085906323b872dd60e01b906084015b60408051601f198184030181529190526020810180516001600160e01b03166001600160e01b03199093169290921790915261236c565b50505050565b604051636eb1769f60e11b81523060048201526001600160a01b03828116602483015283169063dd62ed3e9060440160206040518083038186803b158015610cb457600080fd5b505afa158015610cc8573d6000803e3d6000fd5b505050506040513d601f19601f82011682018060405250810190610cec9190612900565b6102f6576102f66001600160a01b03831682600019612443565b6001600160a01b03808716600090815260046020818152604080842085871680865290835281852054898716865293835281852090855290915282205491928492918116911660608215801590610d6557506001600160a01b03821615155b15610fb757816001600160a01b0316836001600160a01b031614610ef05760408051600580825260c08201909252906020820160a0803683370190505090508a81600081518110610dc657634e487b7160e01b600052603260045260246000fd5b60200260200101906001600160a01b031690816001600160a01b0316815250508281600181518110610e0857634e487b7160e01b600052603260045260246000fd5b6001600160a01b039283166020918202929092010152600154825191169082906002908110610e4757634e487b7160e01b600052603260045260246000fd5b60200260200101906001600160a01b031690816001600160a01b0316815250508181600381518110610e8957634e487b7160e01b600052603260045260246000fd5b60200260200101906001600160a01b031690816001600160a01b0316815250508781600481518110610ecb57634e487b7160e01b600052603260045260246000fd5b60200260200101906001600160a01b031690816001600160a01b03168152505061140e565b6040805160038082526080820190925290602082016060803683370190505090508a81600081518110610f3357634e487b7160e01b600052603260045260246000fd5b60200260200101906001600160a01b031690816001600160a01b0316815250508281600181518110610f7557634e487b7160e01b600052603260045260246000fd5b60200260200101906001600160a01b031690816001600160a01b0316815250508781600281518110610ecb57634e487b7160e01b600052603260045260246000fd5b6001600160a01b038316156111a6576001546001600160a01b03898116911614156110a0576040805160038082526080820190925290602082016060803683370190505090508a8160008151811061101f57634e487b7160e01b600052603260045260246000fd5b60200260200101906001600160a01b031690816001600160a01b031681525050828160018151811061106157634e487b7160e01b600052603260045260246000fd5b6001600160a01b039283166020918202929092010152600154825191169082906002908110610ecb57634e487b7160e01b600052603260045260246000fd5b60408051600480825260a0820190925290602082016080803683370190505090508a816000815181106110e357634e487b7160e01b600052603260045260246000fd5b60200260200101906001600160a01b031690816001600160a01b031681525050828160018151811061112557634e487b7160e01b600052603260045260246000fd5b6001600160a01b03928316602091820292909201015260015482519116908290600290811061116457634e487b7160e01b600052603260045260246000fd5b60200260200101906001600160a01b031690816001600160a01b0316815250508781600381518110610ecb57634e487b7160e01b600052603260045260246000fd5b6001600160a01b038216156112785760408051600480825260a0820190925290602082016080803683370190505090508a816000815181106111f857634e487b7160e01b600052603260045260246000fd5b6001600160a01b039283166020918202929092010152600180548351921691839190811061123657634e487b7160e01b600052603260045260246000fd5b60200260200101906001600160a01b031690816001600160a01b031681525050818160028151811061116457634e487b7160e01b600052603260045260246000fd5b6001546001600160a01b038c8116911614806112a157506001546001600160a01b038981169116145b1561132a5760408051600280825260608201835290916020830190803683370190505090508a816000815181106112e857634e487b7160e01b600052603260045260246000fd5b60200260200101906001600160a01b031690816001600160a01b0316815250508781600181518110610ecb57634e487b7160e01b600052603260045260246000fd5b6040805160038082526080820190925290602082016060803683370190505090508a8160008151811061136d57634e487b7160e01b600052603260045260246000fd5b6001600160a01b03928316602091820292909201015260018054835192169183919081106113ab57634e487b7160e01b600052603260045260246000fd5b60200260200101906001600160a01b031690816001600160a01b03168152505087816002815181106113ed57634e487b7160e01b600052603260045260246000fd5b60200260200101906001600160a01b031690816001600160a01b0316815250505b600061141c8c8c8b8a61153e565b9050600061143a61143361271061055c858f611513565b8390611532565b90506000866001600160a01b03166338ed17398e84878e426040518663ffffffff1660e01b8152600401611472959493929190612a9d565b600060405180830381600087803b15801561148c57600080fd5b505af11580156114a0573d6000803e3d6000fd5b505050506040513d6000823e601f3d908101601f191682016040526114c89190810190612820565b905080600182516114d99190612b18565b815181106114f757634e487b7160e01b600052603260045260246000fd5b60200260200101519750505050505050505b9695505050505050565b600061151f8284612af9565b9392505050565b600061151f8284612ad9565b600061151f8284612b18565b6001600160a01b0380851660009081526004602081815260408084208587168086529083528185205488871686529383528185209085529091528220549192849291811691166060821580159061159d57506001600160a01b03821615155b156117ef57816001600160a01b0316836001600160a01b0316146117285760408051600580825260c08201909252906020820160a08036833701905050905088816000815181106115fe57634e487b7160e01b600052603260045260246000fd5b60200260200101906001600160a01b031690816001600160a01b031681525050828160018151811061164057634e487b7160e01b600052603260045260246000fd5b6001600160a01b03928316602091820292909201015260015482519116908290600290811061167f57634e487b7160e01b600052603260045260246000fd5b60200260200101906001600160a01b031690816001600160a01b03168152505081816003815181106116c157634e487b7160e01b600052603260045260246000fd5b60200260200101906001600160a01b031690816001600160a01b031681525050868160048151811061170357634e487b7160e01b600052603260045260246000fd5b60200260200101906001600160a01b031690816001600160a01b031681525050611c46565b604080516003808252608082019092529060208201606080368337019050509050888160008151811061176b57634e487b7160e01b600052603260045260246000fd5b60200260200101906001600160a01b031690816001600160a01b03168152505082816001815181106117ad57634e487b7160e01b600052603260045260246000fd5b60200260200101906001600160a01b031690816001600160a01b031681525050868160028151811061170357634e487b7160e01b600052603260045260246000fd5b6001600160a01b038316156119de576001546001600160a01b03888116911614156118d857604080516003808252608082019092529060208201606080368337019050509050888160008151811061185757634e487b7160e01b600052603260045260246000fd5b60200260200101906001600160a01b031690816001600160a01b031681525050828160018151811061189957634e487b7160e01b600052603260045260246000fd5b6001600160a01b03928316602091820292909201015260015482519116908290600290811061170357634e487b7160e01b600052603260045260246000fd5b60408051600480825260a082019092529060208201608080368337019050509050888160008151811061191b57634e487b7160e01b600052603260045260246000fd5b60200260200101906001600160a01b031690816001600160a01b031681525050828160018151811061195d57634e487b7160e01b600052603260045260246000fd5b6001600160a01b03928316602091820292909201015260015482519116908290600290811061199c57634e487b7160e01b600052603260045260246000fd5b60200260200101906001600160a01b031690816001600160a01b031681525050868160038151811061170357634e487b7160e01b600052603260045260246000fd5b6001600160a01b03821615611ab05760408051600480825260a0820190925290602082016080803683370190505090508881600081518110611a3057634e487b7160e01b600052603260045260246000fd5b6001600160a01b0392831660209182029290920101526001805483519216918391908110611a6e57634e487b7160e01b600052603260045260246000fd5b60200260200101906001600160a01b031690816001600160a01b031681525050818160028151811061199c57634e487b7160e01b600052603260045260246000fd5b6001546001600160a01b038a811691161480611ad957506001546001600160a01b038881169116145b15611b625760408051600280825260608201835290916020830190803683370190505090508881600081518110611b2057634e487b7160e01b600052603260045260246000fd5b60200260200101906001600160a01b031690816001600160a01b031681525050868160018151811061170357634e487b7160e01b600052603260045260246000fd5b6040805160038082526080820190925290602082016060803683370190505090508881600081518110611ba557634e487b7160e01b600052603260045260246000fd5b6001600160a01b0392831660209182029290920101526001805483519216918391908110611be357634e487b7160e01b600052603260045260246000fd5b60200260200101906001600160a01b031690816001600160a01b0316815250508681600281518110611c2557634e487b7160e01b600052603260045260246000fd5b60200260200101906001600160a01b031690816001600160a01b0316815250505b60405163d06ca61f60e01b81526000906001600160a01b0386169063d06ca61f90611c77908c908690600401612a84565b60006040518083038186803b158015611c8f57600080fd5b505afa158015611ca3573d6000803e3d6000fd5b505050506040513d6000823e601f3d908101601f19168201604052611ccb9190810190612820565b90508060018251611cdc9190612b18565b81518110611cfa57634e487b7160e01b600052603260045260246000fd5b602002602001015195505050505050949350505050565b6000836001600160a01b0316630dfe16816040518163ffffffff1660e01b815260040160206040518083038186803b158015611d4c57600080fd5b505afa158015611d60573d6000803e3d6000fd5b505050506040513d601f19601f82011682018060405250810190611d8491906126fb565b6001600160a01b0316876001600160a01b03161480611e245750836001600160a01b031663d21220a76040518163ffffffff1660e01b815260040160206040518083038186803b158015611dd757600080fd5b505afa158015611deb573d6000803e3d6000fd5b505050506040513d601f19601f82011682018060405250810190611e0f91906126fb565b6001600160a01b0316876001600160a01b0316145b1561210d576000846001600160a01b0316630dfe16816040518163ffffffff1660e01b815260040160206040518083038186803b158015611e6457600080fd5b505afa158015611e78573d6000803e3d6000fd5b505050506040513d601f19601f82011682018060405250810190611e9c91906126fb565b6001600160a01b0316886001600160a01b031614611f2a57846001600160a01b0316630dfe16816040518163ffffffff1660e01b815260040160206040518083038186803b158015611eed57600080fd5b505afa158015611f01573d6000803e3d6000fd5b505050506040513d601f19601f82011682018060405250810190611f2591906126fb565b611f9b565b846001600160a01b031663d21220a76040518163ffffffff1660e01b815260040160206040518083038186803b158015611f6357600080fd5b505afa158015611f77573d6000803e3d6000fd5b505050506040513d601f19601f82011682018060405250810190611f9b91906126fb565b9050611fa78184610c6d565b6040805180820190915260008082526020820152611fd0611fc9896002611526565b8990611532565b8152611fea89611fe18a6002611526565b89853089610d06565b816020018181525050612010604051806040016040528060008152602001600081525090565b815161203090612028906127109061055c908c611513565b835190611532565b815260208201516120589061204d906127109061055c908c611513565b602084015190611532565b8160200181815250506000856001600160a01b031663e8e337008c8686600001518760200151876000015188602001518e426040518963ffffffff1660e01b81526004016120ad9897969594939291906129d3565b606060405180830381600087803b1580156120c757600080fd5b505af11580156120db573d6000803e3d6000fd5b505050506040513d601f19601f820116820180604052508101906120ff9190612947565b965061150995505050505050565b6000846001600160a01b0316630dfe16816040518163ffffffff1660e01b815260040160206040518083038186803b15801561214857600080fd5b505afa15801561215c573d6000803e3d6000fd5b505050506040513d601f19601f8201168201806040525081019061218091906126fb565b90506000856001600160a01b031663d21220a76040518163ffffffff1660e01b815260040160206040518083038186803b1580156121bd57600080fd5b505afa1580156121d1573d6000803e3d6000fd5b505050506040513d601f19601f820116820180604052508101906121f591906126fb565b90506122018285610c6d565b61220b8185610c6d565b60408051808201909152600080825260208201526122378a61222e8b6002611526565b8a86308a610d06565b815261225b8a61225261224b8c6002611526565b8c90611532565b8a85308a610d06565b816020018181525050612281604051806040016040528060008152602001600081525090565b815161229990612028906127109061055c908d611513565b815260208201516122b69061204d906127109061055c908d611513565b8160200181815250506000866001600160a01b031663e8e33700868686600001518760200151876000015188602001518f426040518963ffffffff1660e01b815260040161230b9897969594939291906129d3565b606060405180830381600087803b15801561232557600080fd5b505af1158015612339573d6000803e3d6000fd5b505050506040513d601f19601f8201168201806040525081019061235d9190612947565b97506115099650505050505050565b60006123c1826040518060400160405280602081526020017f5361666545524332303a206c6f772d6c6576656c2063616c6c206661696c6564815250856001600160a01b03166125679092919063ffffffff16565b80519091501561243e57808060200190518101906123df91906128e0565b61243e5760405162461bcd60e51b815260206004820152602a60248201527f5361666545524332303a204552433230206f7065726174696f6e20646964206e6044820152691bdd081cdd58d8d9595960b21b60648201526084016102a5565b505050565b8015806124cc5750604051636eb1769f60e11b81523060048201526001600160a01b03838116602483015284169063dd62ed3e9060440160206040518083038186803b15801561249257600080fd5b505afa1580156124a6573d6000803e3d6000fd5b505050506040513d601f19601f820116820180604052508101906124ca9190612900565b155b6125375760405162461bcd60e51b815260206004820152603660248201527f5361666545524332303a20617070726f76652066726f6d206e6f6e2d7a65726f60448201527520746f206e6f6e2d7a65726f20616c6c6f77616e636560501b60648201526084016102a5565b6040516001600160a01b03831660248201526044810182905261243e90849063095ea7b360e01b90606401610c30565b6060612576848460008561257e565b949350505050565b6060824710156125df5760405162461bcd60e51b815260206004820152602660248201527f416464726573733a20696e73756666696369656e742062616c616e636520666f6044820152651c8818d85b1b60d21b60648201526084016102a5565b843b61262d5760405162461bcd60e51b815260206004820152601d60248201527f416464726573733a2063616c6c20746f206e6f6e2d636f6e747261637400000060448201526064016102a5565b600080866001600160a01b0316858760405161264991906129b7565b60006040518083038185875af1925050503d8060008114612686576040519150601f19603f3d011682016040523d82523d6000602084013e61268b565b606091505b509150915061269b8282866126a6565b979650505050505050565b606083156126b557508161151f565b8251156126c55782518084602001fd5b8160405162461bcd60e51b81526004016102a59190612a1c565b6000602082840312156126f0578081fd5b813561151f81612b87565b60006020828403121561270c578081fd5b815161151f81612b87565b60008060006060848603121561272b578182fd5b833561273681612b87565b9250602084013561274681612b87565b9150604084013561275681612b87565b809150509250925092565b60008060008060808587031215612776578081fd5b843561278181612b87565b9350602085013561279181612b87565b925060408501356127a181612b87565b9396929550929360600135925050565b60008060008060008060c087890312156127c9578182fd5b86356127d481612b87565b9550602087013594506040870135935060608701356127f281612b87565b9250608087013561280281612b87565b915060a087013561281281612b87565b809150509295509295509295565b60006020808385031215612832578182fd5b825167ffffffffffffffff80821115612849578384fd5b818501915085601f83011261285c578384fd5b81518181111561286e5761286e612b71565b8060051b604051601f19603f8301168101818110858211171561289357612893612b71565b604052828152858101935084860182860187018a10156128b1578788fd5b8795505b838610156128d35780518552600195909501949386019386016128b5565b5098975050505050505050565b6000602082840312156128f1578081fd5b8151801515811461151f578182fd5b600060208284031215612911578081fd5b5051919050565b6000806040838503121561292a578182fd5b82359150602083013561293c81612b87565b809150509250929050565b60008060006060848603121561295b578283fd5b8351925060208401519150604084015190509250925092565b6000815180845260208085019450808401835b838110156129ac5781516001600160a01b031687529582019590820190600101612987565b509495945050505050565b600082516129c9818460208701612b2f565b9190910192915050565b6001600160a01b039889168152968816602088015260408701959095526060860193909352608085019190915260a084015290921660c082015260e08101919091526101000190565b6020815260008251806020840152612a3b816040850160208701612b2f565b601f01601f19169190910160400192915050565b6020808252818101527f4f776e61626c653a2063616c6c6572206973206e6f7420746865206f776e6572604082015260600190565b8281526040602082015260006125766040830184612974565b85815284602082015260a060408201526000612abc60a0830186612974565b6001600160a01b0394909416606083015250608001529392505050565b600082612af457634e487b7160e01b81526012600452602481fd5b500490565b6000816000190483118215151615612b1357612b13612b5b565b500290565b600082821015612b2a57612b2a612b5b565b500390565b60005b83811015612b4a578181015183820152602001612b32565b83811115610c675750506000910152565b634e487b7160e01b600052601160045260246000fd5b634e487b7160e01b600052604160045260246000fd5b6001600160a01b038116811461041057600080fdfea2646970667358221220d1cffd8b28b865b9398df3cb2a115841c5631cd019c3f9bbb38d3d2c9204ba6e64736f6c63430008040033",
  "linkReferences": {},
  "deployedLinkReferences": {}
}