{
  "_format": "hh-sol-artifact-1",
  "contractName": "Theory",
  "sourceName": "contracts/Theory.sol",
  "abi": [
    {
      "inputs": [
        {
          "internalType": "uint256",
          "name": "_startTime",
          "type": "uint256"
        },
        {
          "internalType": "address",
          "name": "_communityFund",
          "type": "address"
        },
        {
          "internalType": "address",
          "name": "_devFund",
          "type": "address"
        },
        {
          "internalType": "uint256",
          "name": "_lockFromTime",
          "type": "uint256"
        },
        {
          "internalType": "uint256",
          "name": "_lockToTime",
          "type": "uint256"
        }
      ],
      "stateMutability": "nonpayable",
      "type": "constructor"
    },
    {
      "anonymous": false,
      "inputs": [
        {
          "indexed": true,
          "internalType": "address",
          "name": "owner",
          "type": "address"
        },
        {
          "indexed": true,
          "internalType": "address",
          "name": "spender",
          "type": "address"
        },
        {
          "indexed": false,
          "internalType": "uint256",
          "name": "value",
          "type": "uint256"
        }
      ],
      "name": "Approval",
      "type": "event"
    },
    {
      "anonymous": false,
      "inputs": [
        {
          "indexed": true,
          "internalType": "address",
          "name": "to",
          "type": "address"
        },
        {
          "indexed": false,
          "internalType": "uint256",
          "name": "value",
          "type": "uint256"
        }
      ],
      "name": "Lock",
      "type": "event"
    },
    {
      "anonymous": false,
      "inputs": [
        {
          "indexed": true,
          "internalType": "address",
          "name": "previousOperator",
          "type": "address"
        },
        {
          "indexed": true,
          "internalType": "address",
          "name": "newOperator",
          "type": "address"
        }
      ],
      "name": "OperatorTransferred",
      "type": "event"
    },
    {
      "anonymous": false,
      "inputs": [
        {
          "indexed": true,
          "internalType": "address",
          "name": "previousOwner",
          "type": "address"
        },
        {
          "indexed": true,
          "internalType": "address",
          "name": "newOwner",
          "type": "address"
        }
      ],
      "name": "OwnershipTransferred",
      "type": "event"
    },
    {
      "anonymous": false,
      "inputs": [
        {
          "indexed": true,
          "internalType": "address",
          "name": "from",
          "type": "address"
        },
        {
          "indexed": true,
          "internalType": "address",
          "name": "to",
          "type": "address"
        },
        {
          "indexed": false,
          "internalType": "uint256",
          "name": "value",
          "type": "uint256"
        }
      ],
      "name": "Transfer",
      "type": "event"
    },
    {
      "anonymous": false,
      "inputs": [
        {
          "indexed": true,
          "internalType": "address",
          "name": "to",
          "type": "address"
        },
        {
          "indexed": false,
          "internalType": "uint256",
          "name": "value",
          "type": "uint256"
        }
      ],
      "name": "Unlock",
      "type": "event"
    },
    {
      "inputs": [],
      "name": "COMMUNITY_FUND_POOL_ALLOCATION",
      "outputs": [
        {
          "internalType": "uint256",
          "name": "",
          "type": "uint256"
        }
      ],
      "stateMutability": "view",
      "type": "function"
    },
    {
      "inputs": [],
      "name": "DEV_FUND_POOL_ALLOCATION",
      "outputs": [
        {
          "internalType": "uint256",
          "name": "",
          "type": "uint256"
        }
      ],
      "stateMutability": "view",
      "type": "function"
    },
    {
      "inputs": [],
      "name": "VESTING_DURATION",
      "outputs": [
        {
          "internalType": "uint256",
          "name": "",
          "type": "uint256"
        }
      ],
      "stateMutability": "view",
      "type": "function"
    },
    {
      "inputs": [
        {
          "internalType": "address",
          "name": "_toAdd",
          "type": "address"
        }
      ],
      "name": "addAuthorized",
      "outputs": [],
      "stateMutability": "nonpayable",
      "type": "function"
    },
    {
      "inputs": [
        {
          "internalType": "address",
          "name": "owner",
          "type": "address"
        },
        {
          "internalType": "address",
          "name": "spender",
          "type": "address"
        }
      ],
      "name": "allowance",
      "outputs": [
        {
          "internalType": "uint256",
          "name": "",
          "type": "uint256"
        }
      ],
      "stateMutability": "view",
      "type": "function"
    },
    {
      "inputs": [
        {
          "internalType": "address",
          "name": "spender",
          "type": "address"
        },
        {
          "internalType": "uint256",
          "name": "amount",
          "type": "uint256"
        }
      ],
      "name": "approve",
      "outputs": [
        {
          "internalType": "bool",
          "name": "",
          "type": "bool"
        }
      ],
      "stateMutability": "nonpayable",
      "type": "function"
    },
    {
      "inputs": [
        {
          "internalType": "address",
          "name": "",
          "type": "address"
        }
      ],
      "name": "authorized",
      "outputs": [
        {
          "internalType": "bool",
          "name": "",
          "type": "bool"
        }
      ],
      "stateMutability": "view",
      "type": "function"
    },
    {
      "inputs": [
        {
          "internalType": "address",
          "name": "account",
          "type": "address"
        }
      ],
      "name": "balanceOf",
      "outputs": [
        {
          "internalType": "uint256",
          "name": "",
          "type": "uint256"
        }
      ],
      "stateMutability": "view",
      "type": "function"
    },
    {
      "inputs": [
        {
          "internalType": "uint256",
          "name": "amount",
          "type": "uint256"
        }
      ],
      "name": "burn",
      "outputs": [],
      "stateMutability": "nonpayable",
      "type": "function"
    },
    {
      "inputs": [
        {
          "internalType": "address",
          "name": "account",
          "type": "address"
        },
        {
          "internalType": "uint256",
          "name": "amount",
          "type": "uint256"
        }
      ],
      "name": "burnFrom",
      "outputs": [],
      "stateMutability": "nonpayable",
      "type": "function"
    },
    {
      "inputs": [
        {
          "internalType": "address",
          "name": "_holder",
          "type": "address"
        }
      ],
      "name": "canUnlockAmount",
      "outputs": [
        {
          "internalType": "uint256",
          "name": "",
          "type": "uint256"
        }
      ],
      "stateMutability": "view",
      "type": "function"
    },
    {
      "inputs": [],
      "name": "circulatingSupply",
      "outputs": [
        {
          "internalType": "uint256",
          "name": "",
          "type": "uint256"
        }
      ],
      "stateMutability": "view",
      "type": "function"
    },
    {
      "inputs": [],
      "name": "claimRewards",
      "outputs": [],
      "stateMutability": "nonpayable",
      "type": "function"
    },
    {
      "inputs": [],
      "name": "communityFund",
      "outputs": [
        {
          "internalType": "address",
          "name": "",
          "type": "address"
        }
      ],
      "stateMutability": "view",
      "type": "function"
    },
    {
      "inputs": [],
      "name": "communityFundLastClaimed",
      "outputs": [
        {
          "internalType": "uint256",
          "name": "",
          "type": "uint256"
        }
      ],
      "stateMutability": "view",
      "type": "function"
    },
    {
      "inputs": [],
      "name": "communityFundRewardRate",
      "outputs": [
        {
          "internalType": "uint256",
          "name": "",
          "type": "uint256"
        }
      ],
      "stateMutability": "view",
      "type": "function"
    },
    {
      "inputs": [],
      "name": "decimals",
      "outputs": [
        {
          "internalType": "uint8",
          "name": "",
          "type": "uint8"
        }
      ],
      "stateMutability": "view",
      "type": "function"
    },
    {
      "inputs": [
        {
          "internalType": "address",
          "name": "spender",
          "type": "address"
        },
        {
          "internalType": "uint256",
          "name": "subtractedValue",
          "type": "uint256"
        }
      ],
      "name": "decreaseAllowance",
      "outputs": [
        {
          "internalType": "bool",
          "name": "",
          "type": "bool"
        }
      ],
      "stateMutability": "nonpayable",
      "type": "function"
    },
    {
      "inputs": [],
      "name": "devFund",
      "outputs": [
        {
          "internalType": "address",
          "name": "",
          "type": "address"
        }
      ],
      "stateMutability": "view",
      "type": "function"
    },
    {
      "inputs": [],
      "name": "devFundLastClaimed",
      "outputs": [
        {
          "internalType": "uint256",
          "name": "",
          "type": "uint256"
        }
      ],
      "stateMutability": "view",
      "type": "function"
    },
    {
      "inputs": [],
      "name": "devFundRewardRate",
      "outputs": [
        {
          "internalType": "uint256",
          "name": "",
          "type": "uint256"
        }
      ],
      "stateMutability": "view",
      "type": "function"
    },
    {
      "inputs": [
        {
          "internalType": "address",
          "name": "_farmingIncentiveFund",
          "type": "address"
        }
      ],
      "name": "distributeReward",
      "outputs": [],
      "stateMutability": "nonpayable",
      "type": "function"
    },
    {
      "inputs": [],
      "name": "distributed",
      "outputs": [
        {
          "internalType": "address",
          "name": "",
          "type": "address"
        }
      ],
      "stateMutability": "view",
      "type": "function"
    },
    {
      "inputs": [],
      "name": "endTime",
      "outputs": [
        {
          "internalType": "uint256",
          "name": "",
          "type": "uint256"
        }
      ],
      "stateMutability": "view",
      "type": "function"
    },
    {
      "inputs": [
        {
          "internalType": "contract IERC20",
          "name": "_token",
          "type": "address"
        },
        {
          "internalType": "uint256",
          "name": "_amount",
          "type": "uint256"
        },
        {
          "internalType": "address",
          "name": "_to",
          "type": "address"
        }
      ],
      "name": "governanceRecoverUnsupported",
      "outputs": [],
      "stateMutability": "nonpayable",
      "type": "function"
    },
    {
      "inputs": [
        {
          "internalType": "address",
          "name": "spender",
          "type": "address"
        },
        {
          "internalType": "uint256",
          "name": "addedValue",
          "type": "uint256"
        }
      ],
      "name": "increaseAllowance",
      "outputs": [
        {
          "internalType": "bool",
          "name": "",
          "type": "bool"
        }
      ],
      "stateMutability": "nonpayable",
      "type": "function"
    },
    {
      "inputs": [],
      "name": "isOperator",
      "outputs": [
        {
          "internalType": "bool",
          "name": "",
          "type": "bool"
        }
      ],
      "stateMutability": "view",
      "type": "function"
    },
    {
      "inputs": [
        {
          "internalType": "address",
          "name": "_holder",
          "type": "address"
        }
      ],
      "name": "lastUnlockTime",
      "outputs": [
        {
          "internalType": "uint256",
          "name": "",
          "type": "uint256"
        }
      ],
      "stateMutability": "view",
      "type": "function"
    },
    {
      "inputs": [
        {
          "internalType": "address",
          "name": "_holder",
          "type": "address"
        },
        {
          "internalType": "uint256",
          "name": "_amount",
          "type": "uint256"
        }
      ],
      "name": "lock",
      "outputs": [],
      "stateMutability": "nonpayable",
      "type": "function"
    },
    {
      "inputs": [],
      "name": "lockFromTime",
      "outputs": [
        {
          "internalType": "uint256",
          "name": "",
          "type": "uint256"
        }
      ],
      "stateMutability": "view",
      "type": "function"
    },
    {
      "inputs": [
        {
          "internalType": "uint256",
          "name": "_newLockFrom",
          "type": "uint256"
        }
      ],
      "name": "lockFromUpdate",
      "outputs": [],
      "stateMutability": "nonpayable",
      "type": "function"
    },
    {
      "inputs": [
        {
          "internalType": "address",
          "name": "_holder",
          "type": "address"
        }
      ],
      "name": "lockOf",
      "outputs": [
        {
          "internalType": "uint256",
          "name": "",
          "type": "uint256"
        }
      ],
      "stateMutability": "view",
      "type": "function"
    },
    {
      "inputs": [],
      "name": "lockToTime",
      "outputs": [
        {
          "internalType": "uint256",
          "name": "",
          "type": "uint256"
        }
      ],
      "stateMutability": "view",
      "type": "function"
    },
    {
      "inputs": [
        {
          "internalType": "uint256",
          "name": "_newLockTo",
          "type": "uint256"
        }
      ],
      "name": "lockToUpdate",
      "outputs": [],
      "stateMutability": "nonpayable",
      "type": "function"
    },
    {
      "inputs": [],
      "name": "lockedSupply",
      "outputs": [
        {
          "internalType": "uint256",
          "name": "",
          "type": "uint256"
        }
      ],
      "stateMutability": "view",
      "type": "function"
    },
    {
      "inputs": [],
      "name": "name",
      "outputs": [
        {
          "internalType": "string",
          "name": "",
          "type": "string"
        }
      ],
      "stateMutability": "view",
      "type": "function"
    },
    {
      "inputs": [
        {
          "internalType": "address",
          "name": "",
          "type": "address"
        }
      ],
      "name": "noUnlockBeforeTransfer",
      "outputs": [
        {
          "internalType": "bool",
          "name": "",
          "type": "bool"
        }
      ],
      "stateMutability": "view",
      "type": "function"
    },
    {
      "inputs": [],
      "name": "operator",
      "outputs": [
        {
          "internalType": "address",
          "name": "",
          "type": "address"
        }
      ],
      "stateMutability": "view",
      "type": "function"
    },
    {
      "inputs": [],
      "name": "owner",
      "outputs": [
        {
          "internalType": "address",
          "name": "",
          "type": "address"
        }
      ],
      "stateMutability": "view",
      "type": "function"
    },
    {
      "inputs": [
        {
          "internalType": "address",
          "name": "_toRemove",
          "type": "address"
        }
      ],
      "name": "removeAuthorized",
      "outputs": [],
      "stateMutability": "nonpayable",
      "type": "function"
    },
    {
      "inputs": [],
      "name": "renounceOwnership",
      "outputs": [],
      "stateMutability": "nonpayable",
      "type": "function"
    },
    {
      "inputs": [],
      "name": "rewardPoolDistributed",
      "outputs": [
        {
          "internalType": "bool",
          "name": "",
          "type": "bool"
        }
      ],
      "stateMutability": "view",
      "type": "function"
    },
    {
      "inputs": [
        {
          "internalType": "address",
          "name": "_devFund",
          "type": "address"
        }
      ],
      "name": "setDevFund",
      "outputs": [],
      "stateMutability": "nonpayable",
      "type": "function"
    },
    {
      "inputs": [
        {
          "internalType": "bool",
          "name": "_noUnlockBeforeTransfer",
          "type": "bool"
        }
      ],
      "name": "setNoUnlockBeforeTransfer",
      "outputs": [],
      "stateMutability": "nonpayable",
      "type": "function"
    },
    {
      "inputs": [
        {
          "internalType": "address",
          "name": "_communityFund",
          "type": "address"
        }
      ],
      "name": "setTreasuryFund",
      "outputs": [],
      "stateMutability": "nonpayable",
      "type": "function"
    },
    {
      "inputs": [],
      "name": "startTime",
      "outputs": [
        {
          "internalType": "uint256",
          "name": "",
          "type": "uint256"
        }
      ],
      "stateMutability": "view",
      "type": "function"
    },
    {
      "inputs": [],
      "name": "symbol",
      "outputs": [
        {
          "internalType": "string",
          "name": "",
          "type": "string"
        }
      ],
      "stateMutability": "view",
      "type": "function"
    },
    {
      "inputs": [
        {
          "internalType": "address",
          "name": "_holder",
          "type": "address"
        }
      ],
      "name": "totalBalanceOf",
      "outputs": [
        {
          "internalType": "uint256",
          "name": "",
          "type": "uint256"
        }
      ],
      "stateMutability": "view",
      "type": "function"
    },
    {
      "inputs": [],
      "name": "totalLock",
      "outputs": [
        {
          "internalType": "uint256",
          "name": "",
          "type": "uint256"
        }
      ],
      "stateMutability": "view",
      "type": "function"
    },
    {
      "inputs": [],
      "name": "totalSupply",
      "outputs": [
        {
          "internalType": "uint256",
          "name": "",
          "type": "uint256"
        }
      ],
      "stateMutability": "view",
      "type": "function"
    },
    {
      "inputs": [
        {
          "internalType": "address",
          "name": "recipient",
          "type": "address"
        },
        {
          "internalType": "uint256",
          "name": "amount",
          "type": "uint256"
        }
      ],
      "name": "transfer",
      "outputs": [
        {
          "internalType": "bool",
          "name": "",
          "type": "bool"
        }
      ],
      "stateMutability": "nonpayable",
      "type": "function"
    },
    {
      "inputs": [
        {
          "internalType": "address",
          "name": "sender",
          "type": "address"
        },
        {
          "internalType": "address",
          "name": "recipient",
          "type": "address"
        },
        {
          "internalType": "uint256",
          "name": "amount",
          "type": "uint256"
        }
      ],
      "name": "transferFrom",
      "outputs": [
        {
          "internalType": "bool",
          "name": "",
          "type": "bool"
        }
      ],
      "stateMutability": "nonpayable",
      "type": "function"
    },
    {
      "inputs": [
        {
          "internalType": "address",
          "name": "newOperator_",
          "type": "address"
        }
      ],
      "name": "transferOperator",
      "outputs": [],
      "stateMutability": "nonpayable",
      "type": "function"
    },
    {
      "inputs": [
        {
          "internalType": "address",
          "name": "newOwner",
          "type": "address"
        }
      ],
      "name": "transferOwnership",
      "outputs": [],
      "stateMutability": "nonpayable",
      "type": "function"
    },
    {
      "inputs": [],
      "name": "unclaimedDevFund",
      "outputs": [
        {
          "internalType": "uint256",
          "name": "_pending",
          "type": "uint256"
        }
      ],
      "stateMutability": "view",
      "type": "function"
    },
    {
      "inputs": [],
      "name": "unclaimedTreasuryFund",
      "outputs": [
        {
          "internalType": "uint256",
          "name": "_pending",
          "type": "uint256"
        }
      ],
      "stateMutability": "view",
      "type": "function"
    },
    {
      "inputs": [],
      "name": "unlock",
      "outputs": [],
      "stateMutability": "nonpayable",
      "type": "function"
    },
    {
      "inputs": [
        {
          "internalType": "address",
          "name": "account",
          "type": "address"
        },
        {
          "internalType": "uint256",
          "name": "amount",
          "type": "uint256"
        }
      ],
      "name": "unlockForUser",
      "outputs": [],
      "stateMutability": "nonpayable",
      "type": "function"
    },
    {
      "inputs": [],
      "name": "unlockedSupply",
      "outputs": [
        {
          "internalType": "uint256",
          "name": "",
          "type": "uint256"
        }
      ],
      "stateMutability": "view",
      "type": "function"
    }
  ],
  "bytecode": "0x60806040526011805460ff191690553480156200001b57600080fd5b5060405162002f0238038062002f02833981810160405260a08110156200004157600080fd5b5080516020808301516040808501516060808701516080909701518351808501855260068152655448454f525960d01b818801528451928301909452602b8083529697949692959093929062002ed7908301398151620000a9906003906020850190620004ac565b508051620000bf906004906020840190620004ac565b50506005805460ff19166012179055506000620000db620002c9565b60058054610100600160a81b0319166101006001600160a01b03841690810291909117909155604051919250906000907f8be0079c531659141344cd1fd0a4f28419497f9722a3daafe3b4186f6b6457e0908290a3506200013b620002c9565b600680546001600160a01b0319166001600160a01b0392831617908190556040519116906000907f74da04524d50c64947f5dd5381ef1a4dca5cba8ed1d816243f9e48aa0b5617ed908290a36200019b33670de0b6b3a7640000620002cd565b620001b13069060bfd20d9ce64884000620002cd565b620001c73069057f4335653ddbbd8000620002cd565b60088590556301e13380808601600955600f8690556010869055620002049069060bfd20d9ce6488400090620003dc602090811b62001dc917901c565b600a556200022d69057f4335653ddbbd80006301e13380620003dc602090811b62001dc917901c565b600b556001600160a01b0383166200028c576040805162461bcd60e51b815260206004820152601360248201527f416464726573732063616e6e6f74206265203000000000000000000000000000604482015290519081900360640190fd5b600d80546001600160a01b039485166001600160a01b031991821617909155600c8054959094169416939093179091556013556014555062000548565b3390565b6001600160a01b03821662000329576040805162461bcd60e51b815260206004820152601f60248201527f45524332303a206d696e7420746f20746865207a65726f206164647265737300604482015290519081900360640190fd5b620003376000838362000445565b62000353816002546200044a60201b62001e301790919060201c565b6002556001600160a01b038216600090815260208181526040909120546200038691839062001e306200044a821b17901c565b6001600160a01b0383166000818152602081815260408083209490945583518581529351929391927fddf252ad1be2c89b69c2b068fc378daa952ba7f163c4a11628f55a4df523b3ef9281900390910190a35050565b600080821162000433576040805162461bcd60e51b815260206004820152601a60248201527f536166654d6174683a206469766973696f6e206279207a65726f000000000000604482015290519081900360640190fd5b8183816200043d57fe5b049392505050565b505050565b600082820183811015620004a5576040805162461bcd60e51b815260206004820152601b60248201527f536166654d6174683a206164646974696f6e206f766572666c6f770000000000604482015290519081900360640190fd5b9392505050565b828054600181600116156101000203166002900490600052602060002090601f016020900481019282601f10620004ef57805160ff19168380011785556200051f565b828001600101855582156200051f579182015b828111156200051f57825182559160200191906001019062000502565b506200052d92915062000531565b5090565b5b808211156200052d576000815560010162000532565b61297f80620005586000396000f3fe608060405234801561001057600080fd5b50600436106103985760003560e01c80634cfc4d30116101e9578063a69df4b51161010f578063ca5c7b91116100ad578063f2fde38b1161007c578063f2fde38b14610960578063f746b71814610986578063f84b903e146109ac578063fd3d27b8146109b457610398565b8063ca5c7b91146108de578063cf1c316a146108e6578063dc7887a41461090c578063dd62ed3e1461093257610398565b8063ae4db919116100e9578063ae4db91914610849578063af2b0f661461086f578063b91816111461089b578063c38533c6146108c157610398565b8063a69df4b51461080d578063a9059cbb14610815578063abb4b1be1461084157610398565b806378e97925116101875780639358928b116101565780639358928b146107c957806395d89b41146107d15780639662676c146107d9578063a457c2d7146107e157610398565b806378e979251461078557806379cc67901461078d5780638da5cb5b146107b95780639262c5b7146107c157610398565b8063570ca735116101c3578063570ca735146107295780635a46d3b51461073157806370a0823114610757578063715018a61461077d57610398565b80634cfc4d30146106e35780634f337dd5146106eb57806354575af4146106f357610398565b80632c07a624116102ce5780633bba8eed1161026c57806344cdc4541161023b57806344cdc45414610669578063485d7d94146106715780634a4548ef146106975780634b0ee02a146106bd57610398565b80633bba8eed1461063457806342966c681461063c5780634390d2a8146106595780634456eda21461066157610398565b80633197cbb6116102a85780633197cbb6146105f0578063372500ab146105f857806339509351146106005780633a1aae351461062c57610398565b80632c07a624146105c25780632e3367ce146105ca578063313ce567146105d257610398565b8063177647821161033b578063202b176011610315578063202b17601461051457806323b872dd1461053a578063282d3fdf1461057057806329605e771461059c57610398565b806317764782146104e557806318160ddd146104ed5780631a19920d146104f557610398565b8063092193ab11610377578063092193ab14610458578063095ea7b3146104805780630cb285e2146104c057806314a8cea3146104dd57610398565b8062f380f41461039d57806304017315146103c157806306fdde03146103db575b600080fd5b6103a56109bc565b604080516001600160a01b039092168252519081900360200190f35b6103c96109cb565b60408051918252519081900360200190f35b6103e36109d1565b6040805160208082528351818301528351919283929083019185019080838360005b8381101561041d578181015183820152602001610405565b50505050905090810190601f16801561044a5780820380516001836020036101000a031916815260200191505b509250505060405180910390f35b61047e6004803603602081101561046e57600080fd5b50356001600160a01b0316610a68565b005b6104ac6004803603604081101561049657600080fd5b506001600160a01b038135169060200135610c38565b604080519115158252519081900360200190f35b61047e600480360360208110156104d657600080fd5b5035610c56565b6103c9610d6a565b6103c9610d70565b6103c9610dbe565b61047e6004803603602081101561050b57600080fd5b50351515610dc4565b6103c96004803603602081101561052a57600080fd5b50356001600160a01b0316610de4565b6104ac6004803603606081101561055057600080fd5b506001600160a01b03813581169160208101359091169060400135610ea9565b61047e6004803603604081101561058657600080fd5b506001600160a01b038135169060200135610f30565b61047e600480360360208110156105b257600080fd5b50356001600160a01b031661124f565b6103c96112a1565b6103c96112e3565b6105da6112e9565b6040805160ff9092168252519081900360200190f35b6103c96112f2565b61047e6112f8565b6104ac6004803603604081101561061657600080fd5b506001600160a01b038135169060200135611388565b6103c96113d6565b6103c96113dc565b61047e6004803603602081101561065257600080fd5b50356113ea565b6103a56113f3565b6104ac611402565b6103c9611428565b61047e6004803603602081101561068757600080fd5b50356001600160a01b031661142e565b6104ac600480360360208110156106ad57600080fd5b50356001600160a01b03166114c7565b6103c9600480360360208110156106d357600080fd5b50356001600160a01b03166114dc565b6103c9611509565b6103c9611511565b61047e6004803603606081101561070957600080fd5b506001600160a01b0381358116916020810135916040909101351661151f565b6103a56116a5565b6103c96004803603602081101561074757600080fd5b50356001600160a01b03166116b4565b6103c96004803603602081101561076d57600080fd5b50356001600160a01b03166116cf565b61047e6116ea565b6103c961179c565b61047e600480360360408110156107a357600080fd5b506001600160a01b0381351690602001356117a2565b6103a56117fc565b6103c9611810565b6103c9611816565b6103e3611845565b6104ac6118a6565b6104ac600480360360408110156107f757600080fd5b506001600160a01b0381351690602001356118af565b61047e611917565b6104ac6004803603604081101561082b57600080fd5b506001600160a01b03813516906020013561192e565b6103c9611942565b61047e6004803603602081101561085f57600080fd5b50356001600160a01b0316611948565b61047e6004803603604081101561088557600080fd5b506001600160a01b0381351690602001356119f6565b6104ac600480360360208110156108b157600080fd5b50356001600160a01b0316611aa3565b61047e600480360360208110156108d757600080fd5b5035611ab8565b6103c9611b5c565b61047e600480360360208110156108fc57600080fd5b50356001600160a01b0316611b66565b6103c96004803603602081101561092257600080fd5b50356001600160a01b0316611bec565b6103c96004803603604081101561094857600080fd5b506001600160a01b0381358116916020013516611c07565b61047e6004803603602081101561097657600080fd5b50356001600160a01b0316611c32565b61047e6004803603602081101561099c57600080fd5b50356001600160a01b0316611d40565b6103a5611daa565b6103c9611db9565b600c546001600160a01b031681565b60105481565b60038054604080516020601f6002600019610100600188161502019095169490940493840181900481028201810190925282815260609390929091830182828015610a5d5780601f10610a3257610100808354040283529160200191610a5d565b820191906000526020600020905b815481529060010190602001808311610a4057829003601f168201915b505050505090505b90565b3360009081526007602052604090205460ff1680610a95575033610a8a6117fc565b6001600160a01b0316145b80610aaf575033610aa46116a5565b6001600160a01b0316145b610aee576040805162461bcd60e51b8152602060048201526018602482015260008051602061282e833981519152604482015290519081900360640190fd5b60115460ff1615610b46576040805162461bcd60e51b815260206004820152601860248201527f6f6e6c792063616e2064697374726962757465206f6e63650000000000000000604482015290519081900360640190fd5b6001600160a01b038116610b9a576040805162461bcd60e51b81526020600482015260166024820152750857d9985c9b5a5b99d25b98d95b9d1a5d99519d5b9960521b604482015290519081900360640190fd5b6011805460ff19166001179055600e80546001600160a01b0383166001600160a01b03199091168117909155604080516356302ba760e11b81529051610c35928492909163ac60574e91600480820192602092909190829003018186803b158015610c0457600080fd5b505afa158015610c18573d6000803e3d6000fd5b505050506040513d6020811015610c2e57600080fd5b5051611e91565b50565b6000610c4c610c45611f81565b8484611f85565b5060015b92915050565b3360009081526007602052604090205460ff1680610c83575033610c786117fc565b6001600160a01b0316145b80610c9d575033610c926116a5565b6001600160a01b0316145b610cdc576040805162461bcd60e51b8152602060048201526018602482015260008051602061282e833981519152604482015290519081900360640190fd5b6013548111610d1c5760405162461bcd60e51b81526004018080602001828103825260278152602001806127716027913960400191505060405180910390fd5b60135481036301e13380811115610d645760405162461bcd60e51b815260040180806020018281038252602c81526020018061271f602c913960400191505060405180910390fd5b50601455565b60135481565b6009546000904290811115610d8457506009545b80600f5410610d97576000915050610a65565b610db8600a54610db2600f548461207190919063ffffffff16565b906120ce565b91505090565b60025490565b336000908152601560205260409020805460ff1916911515919091179055565b60006013544211610df757506000610ea4565b6014544210610e1f57506001600160a01b038116600090815260166020526040902054610ea4565b6001600160a01b038216600090815260176020526040812054610e43904290612071565b6001600160a01b0384166000908152601760205260408120546014549293509091610e6d91612071565b6001600160a01b038516600090815260166020526040902054909150610e9f908290610e9990856120ce565b90611dc9565b925050505b919050565b6000610eb6848484612127565b610f2684610ec2611f81565b610f21856040518060600160405280602881526020016127e6602891396001600160a01b038a16600090815260016020526040812090610f00611f81565b6001600160a01b031681526020810191909152604001600020549190612190565b611f85565b5060019392505050565b3360009081526007602052604090205460ff1680610f5d575033610f526117fc565b6001600160a01b0316145b80610f77575033610f6c6116a5565b6001600160a01b0316145b80610f8c5750600e546001600160a01b031633145b610fcb576040805162461bcd60e51b8152602060048201526018602482015260008051602061282e833981519152604482015290519081900360640190fd5b6001600160a01b038216611026576040805162461bcd60e51b815260206004820152601f60248201527f43616e6e6f74206c6f636b20746f20746865207a65726f206164647265737300604482015290519081900360640190fd5b61102f826116cf565b811115611083576040805162461bcd60e51b815260206004820152601860248201527f4c6f636b20616d6f756e74206f7665722062616c616e63650000000000000000604482015290519081900360640190fd5b61108b6116a5565b6001600160a01b0316336001600160a01b031614806110de57506110b86064610e99605f610db2866114dc565b6001600160a01b0383166000908152601660205260409020546110db9083611e30565b11155b6111195760405162461bcd60e51b81526004018080602001828103825260258152602001806128dc6025913960400191505060405180910390fd5b6001600160a01b03821660009081526015602052604090205460ff16801561115857506001600160a01b03821660009081526016602052604090205415155b1561117657600061116883610de4565b90506111748382612227565b505b611181823083612127565b6001600160a01b0382166000908152601660205260409020546111a49082611e30565b6001600160a01b0383166000908152601660205260409020556012546111ca9082611e30565b6012556013546001600160a01b038316600090815260176020526040902054101561120c576013546001600160a01b0383166000908152601760205260409020555b6040805182815290516001600160a01b038416917f625fed9875dada8643f2418b838ae0bc78d9a148a18eee4ee1979ff0f3f5d427919081900360200190a25050565b6006546001600160a01b031633146112985760405162461bcd60e51b81526004018080602001828103825260248152602001806128726024913960400191505060405180910390fd5b610c3581612390565b60095460009042908111156112b557506009545b80601054106112c8576000915050610a65565b610db8600b54610db26010548461207190919063ffffffff16565b600b5481565b60055460ff1690565b60095481565b6000611302610d70565b905060008111801561131e5750600c546001600160a01b031615155b1561134057600c5461133b9030906001600160a01b031683612127565b42600f555b6113486112a1565b90506000811180156113645750600d546001600160a01b031615155b15610c3557600d546113819030906001600160a01b031683612127565b4260105550565b6000610c4c611395611f81565b84610f2185600160006113a6611f81565b6001600160a01b03908116825260208083019390935260409182016000908120918c168152925290205490611e30565b60125490565b69060bfd20d9ce6488400081565b610c358161242d565b600d546001600160a01b031681565b6006546000906001600160a01b0316611419611f81565b6001600160a01b031614905090565b600a5481565b611436611f81565b6001600160a01b03166114476117fc565b6001600160a01b031614611490576040805162461bcd60e51b8152602060048201819052602482015260008051602061280e833981519152604482015290519081900360640190fd5b6001600160a01b0381163314156114a657600080fd5b6001600160a01b03166000908152600760205260409020805460ff19169055565b60156020526000908152604090205460ff1681565b6000610c506114ea836116cf565b6001600160a01b03841660009081526016602052604090205490611e30565b6301e1338081565b69057f4335653ddbbd800081565b3360009081526007602052604090205460ff168061154c5750336115416117fc565b6001600160a01b0316145b8061156657503361155b6116a5565b6001600160a01b0316145b6115a5576040805162461bcd60e51b8152602060048201526018602482015260008051602061282e833981519152604482015290519081900360640190fd5b6115ad6116a5565b6001600160a01b0316336001600160a01b031614806115d557506001600160a01b0383163014155b61161d576040805162461bcd60e51b815260206004820152601460248201527324b73b30b634b2103832b936b4b9b9b4b7b7399760611b604482015290519081900360640190fd5b826001600160a01b031663a9059cbb82846040518363ffffffff1660e01b815260040180836001600160a01b0316815260200182815260200192505050602060405180830381600087803b15801561167457600080fd5b505af1158015611688573d6000803e3d6000fd5b505050506040513d602081101561169e57600080fd5b5050505050565b6006546001600160a01b031690565b6001600160a01b031660009081526016602052604090205490565b6001600160a01b031660009081526020819052604090205490565b6116f2611f81565b6001600160a01b03166117036117fc565b6001600160a01b03161461174c576040805162461bcd60e51b8152602060048201819052602482015260008051602061280e833981519152604482015290519081900360640190fd5b60055460405160009161010090046001600160a01b0316907f8be0079c531659141344cd1fd0a4f28419497f9722a3daafe3b4186f6b6457e0908390a360058054610100600160a81b0319169055565b60085481565b60006117d98260405180606001604052806024815260200161284e602491396117d2866117cd611f81565b611c07565b9190612190565b90506117ed836117e7611f81565b83611f85565b6117f7838361243a565b505050565b60055461010090046001600160a01b031690565b60145481565b600e5460009061184090611832906001600160a01b03166116cf565b61183a610dbe565b90612071565b905090565b60048054604080516020601f6002600019610100600188161502019095169490940493840181900481028201810190925282815260609390929091830182828015610a5d5780601f10610a3257610100808354040283529160200191610a5d565b60115460ff1681565b6000610c4c6118bc611f81565b84610f218560405180606001604052806025815260200161292560259139600160006118e6611f81565b6001600160a01b03908116825260208083019390935260409182016000908120918d16815292529020549190612190565b600061192233610de4565b9050610c353382612227565b6000610c4c61193b611f81565b8484612127565b600f5481565b600d546001600160a01b03163314611990576040805162461bcd60e51b8152602060048083019190915260248201526310b232bb60e11b604482015290519081900360640190fd5b6001600160a01b0381166119d4576040805162461bcd60e51b815260206004808301919091526024820152637a65726f60e01b604482015290519081900360640190fd5b600d80546001600160a01b0319166001600160a01b0392909216919091179055565b3360009081526007602052604090205460ff1680611a23575033611a186117fc565b6001600160a01b0316145b80611a3d575033611a326116a5565b6001600160a01b0316145b611a7c576040805162461bcd60e51b8152602060048201526018602482015260008051602061282e833981519152604482015290519081900360640190fd5b6000611a8783610de4565b90508015611a9957611a998382612227565b6117f78383612227565b60076020526000908152604090205460ff1681565b3360009081526007602052604090205460ff1680611ae5575033611ada6117fc565b6001600160a01b0316145b80611aff575033611af46116a5565b6001600160a01b0316145b611b3e576040805162461bcd60e51b8152602060048201526018602482015260008051602061282e833981519152604482015290519081900360640190fd5b60138054601454918390559003611b558282611e30565b6014555050565b60006118406113d6565b611b6e611f81565b6001600160a01b0316611b7f6117fc565b6001600160a01b031614611bc8576040805162461bcd60e51b8152602060048201819052602482015260008051602061280e833981519152604482015290519081900360640190fd5b6001600160a01b03166000908152600760205260409020805460ff19166001179055565b6001600160a01b031660009081526017602052604090205490565b6001600160a01b03918216600090815260016020908152604080832093909416825291909152205490565b611c3a611f81565b6001600160a01b0316611c4b6117fc565b6001600160a01b031614611c94576040805162461bcd60e51b8152602060048201819052602482015260008051602061280e833981519152604482015290519081900360640190fd5b6001600160a01b038116611cd95760405162461bcd60e51b81526004018080602001828103825260268152602001806126d76026913960400191505060405180910390fd5b6005546040516001600160a01b0380841692610100900416907f8be0079c531659141344cd1fd0a4f28419497f9722a3daafe3b4186f6b6457e090600090a3600580546001600160a01b0390921661010002610100600160a81b0319909216919091179055565b600d546001600160a01b03163314611d88576040805162461bcd60e51b8152602060048083019190915260248201526310b232bb60e11b604482015290519081900360640190fd5b600c80546001600160a01b0319166001600160a01b0392909216919091179055565b600e546001600160a01b031681565b600061184060125461183a610dbe565b6000808211611e1f576040805162461bcd60e51b815260206004820152601a60248201527f536166654d6174683a206469766973696f6e206279207a65726f000000000000604482015290519081900360640190fd5b818381611e2857fe5b049392505050565b600082820183811015611e8a576040805162461bcd60e51b815260206004820152601b60248201527f536166654d6174683a206164646974696f6e206f766572666c6f770000000000604482015290519081900360640190fd5b9392505050565b6001600160a01b038216611eec576040805162461bcd60e51b815260206004820152601f60248201527f45524332303a206d696e7420746f20746865207a65726f206164647265737300604482015290519081900360640190fd5b611ef8600083836117f7565b600254611f059082611e30565b6002556001600160a01b038216600090815260208190526040902054611f2b9082611e30565b6001600160a01b0383166000818152602081815260408083209490945583518581529351929391927fddf252ad1be2c89b69c2b068fc378daa952ba7f163c4a11628f55a4df523b3ef9281900390910190a35050565b3390565b6001600160a01b038316611fca5760405162461bcd60e51b81526004018080602001828103825260248152602001806129016024913960400191505060405180910390fd5b6001600160a01b03821661200f5760405162461bcd60e51b81526004018080602001828103825260228152602001806126fd6022913960400191505060405180910390fd5b6001600160a01b03808416600081815260016020908152604080832094871680845294825291829020859055815185815291517f8c5be1e5ebec7d5bd14f71427d1e84f3dd0314c0f7b2291e5b200ac8c7c3b9259281900390910190a3505050565b6000828211156120c8576040805162461bcd60e51b815260206004820152601e60248201527f536166654d6174683a207375627472616374696f6e206f766572666c6f770000604482015290519081900360640190fd5b50900390565b6000826120dd57506000610c50565b828202828482816120ea57fe5b0414611e8a5760405162461bcd60e51b81526004018080602001828103825260218152602001806127c56021913960400191505060405180910390fd5b6001600160a01b03831660009081526015602052604090205460ff1615801561216757506001600160a01b03831660009081526016602052604090205415155b1561218557600061217784610de4565b90506121838482612227565b505b6117f7838383612536565b6000818484111561221f5760405162461bcd60e51b81526004018080602001828103825283818151815260200191508051906020019080838360005b838110156121e45781810151838201526020016121cc565b50505050905090810190601f1680156122115780820380516001836020036101000a031916815260200191505b509250505060405180910390fd5b505050900390565b6001600160a01b038216600090815260166020526040902054612291576040805162461bcd60e51b815260206004820152601a60248201527f496e73756666696369656e74206c6f636b656420746f6b656e73000000000000604482015290519081900360640190fd5b6001600160a01b0382166000908152601660205260409020548111156122cc57506001600160a01b0381166000908152601660205260409020545b6122d5306116cf565b8111156122e8576122e5306116cf565b90505b6122f3308383612127565b6001600160a01b0382166000908152601660205260409020546123169082612071565b6001600160a01b038316600090815260166020908152604080832093909355601790522042905560125461234a9082612071565b6012556040805182815290516001600160a01b038416917f6381d9813cabeb57471b5a7e05078e64845ccdb563146a6911d536f24ce960f1919081900360200190a25050565b6001600160a01b0381166123d55760405162461bcd60e51b815260040180806020018281038252602d815260200180612798602d913960400191505060405180910390fd5b6040516001600160a01b038216906000907f74da04524d50c64947f5dd5381ef1a4dca5cba8ed1d816243f9e48aa0b5617ed908290a3600680546001600160a01b0319166001600160a01b0392909216919091179055565b610c35612438611f81565b825b6001600160a01b03821661247f5760405162461bcd60e51b81526004018080602001828103825260218152602001806128966021913960400191505060405180910390fd5b61248b826000836117f7565b6124c8816040518060600160405280602281526020016126b5602291396001600160a01b0385166000908152602081905260409020549190612190565b6001600160a01b0383166000908152602081905260409020556002546124ee9082612071565b6002556040805182815290516000916001600160a01b038516917fddf252ad1be2c89b69c2b068fc378daa952ba7f163c4a11628f55a4df523b3ef9181900360200190a35050565b6001600160a01b03831661257b5760405162461bcd60e51b81526004018080602001828103825260258152602001806128b76025913960400191505060405180910390fd5b6001600160a01b0382166125c05760405162461bcd60e51b81526004018080602001828103825260238152602001806126926023913960400191505060405180910390fd5b6125cb8383836117f7565b6126088160405180606001604052806026815260200161274b602691396001600160a01b0386166000908152602081905260409020549190612190565b6001600160a01b0380851660009081526020819052604080822093909355908416815220546126379082611e30565b6001600160a01b038084166000818152602081815260409182902094909455805185815290519193928716927fddf252ad1be2c89b69c2b068fc378daa952ba7f163c4a11628f55a4df523b3ef92918290030190a350505056fe45524332303a207472616e7366657220746f20746865207a65726f206164647265737345524332303a206275726e20616d6f756e7420657863656564732062616c616e63654f776e61626c653a206e6577206f776e657220697320746865207a65726f206164647265737345524332303a20617070726f766520746f20746865207a65726f20616464726573734c6f636b2074696d65206d757374206e6f742062652067726561746572207468616e2033363520646179732e45524332303a207472616e7366657220616d6f756e7420657863656564732062616c616e63654c6f636b20746f206d7573742062652067726561746572207468616e206c6f636b2066726f6d2e6f70657261746f723a207a65726f206164647265737320676976656e20666f72206e6577206f70657261746f72536166654d6174683a206d756c7469706c69636174696f6e206f766572666c6f7745524332303a207472616e7366657220616d6f756e74206578636565647320616c6c6f77616e63654f776e61626c653a2063616c6c6572206973206e6f7420746865206f776e657263616c6c6572206973206e6f7420617574686f72697a6564000000000000000045524332303a206275726e20616d6f756e74206578636565647320616c6c6f77616e63656f70657261746f723a2063616c6c6572206973206e6f7420746865206f70657261746f7245524332303a206275726e2066726f6d20746865207a65726f206164647265737345524332303a207472616e736665722066726f6d20746865207a65726f20616464726573734c6f636b20616d6f756e74206f76657220393525206f6620746f74616c2062616c616e636545524332303a20617070726f76652066726f6d20746865207a65726f206164647265737345524332303a2064656372656173656420616c6c6f77616e63652062656c6f77207a65726fa2646970667358221220f8fe32b8ae858c769762f8c2fb77c9150e24950f7462532036aa79ba7aa4384064736f6c634300060c003347616d65205468656f7279202867616d657468656f72792e74656368293a205448454f525920546f6b656e",
  "linkReferences": {},
  "deployedLinkReferences": {}
}