{
  "_format": "hh-sol-artifact-1",
  "contractName": "TheoryUnlocker",
  "sourceName": "contracts/nfts/TheoryUnlocker.sol",
  "abi": [
    {
      "inputs": [
        {
          "internalType": "contract IERC20",
          "name": "_buy",
          "type": "address"
        },
        {
          "internalType": "uint256",
          "name": "_initialBuy",
          "type": "uint256"
        },
        {
          "internalType": "uint256",
          "name": "_buyPerLevel",
          "type": "uint256"
        },
        {
          "internalType": "contract IERC20Lockable",
          "name": "_theory",
          "type": "address"
        },
        {
          "internalType": "address",
          "name": "_communityFund",
          "type": "address"
        },
        {
          "internalType": "uint256[]",
          "name": "_maxLevelTime",
          "type": "uint256[]"
        },
        {
          "internalType": "uint256[]",
          "name": "_maxLevelLevel",
          "type": "uint256[]"
        },
        {
          "internalType": "uint256[]",
          "name": "_levelURIsLevel",
          "type": "uint256[]"
        },
        {
          "internalType": "string[]",
          "name": "_levelURIsURI",
          "type": "string[]"
        }
      ],
      "stateMutability": "nonpayable",
      "type": "constructor"
    },
    {
      "anonymous": false,
      "inputs": [
        {
          "indexed": true,
          "internalType": "address",
          "name": "owner",
          "type": "address"
        },
        {
          "indexed": true,
          "internalType": "address",
          "name": "approved",
          "type": "address"
        },
        {
          "indexed": true,
          "internalType": "uint256",
          "name": "tokenId",
          "type": "uint256"
        }
      ],
      "name": "Approval",
      "type": "event"
    },
    {
      "anonymous": false,
      "inputs": [
        {
          "indexed": true,
          "internalType": "address",
          "name": "owner",
          "type": "address"
        },
        {
          "indexed": true,
          "internalType": "address",
          "name": "operator",
          "type": "address"
        },
        {
          "indexed": false,
          "internalType": "bool",
          "name": "approved",
          "type": "bool"
        }
      ],
      "name": "ApprovalForAll",
      "type": "event"
    },
    {
      "anonymous": false,
      "inputs": [
        {
          "indexed": true,
          "internalType": "address",
          "name": "previousOwner",
          "type": "address"
        },
        {
          "indexed": true,
          "internalType": "address",
          "name": "newOwner",
          "type": "address"
        }
      ],
      "name": "OwnershipTransferred",
      "type": "event"
    },
    {
      "anonymous": false,
      "inputs": [
        {
          "indexed": true,
          "internalType": "address",
          "name": "from",
          "type": "address"
        },
        {
          "indexed": true,
          "internalType": "address",
          "name": "to",
          "type": "address"
        },
        {
          "indexed": true,
          "internalType": "uint256",
          "name": "tokenId",
          "type": "uint256"
        }
      ],
      "name": "Transfer",
      "type": "event"
    },
    {
      "inputs": [
        {
          "internalType": "address",
          "name": "_toAdd",
          "type": "address"
        }
      ],
      "name": "addAuthorized",
      "outputs": [],
      "stateMutability": "nonpayable",
      "type": "function"
    },
    {
      "inputs": [
        {
          "internalType": "address",
          "name": "to",
          "type": "address"
        },
        {
          "internalType": "uint256",
          "name": "tokenId",
          "type": "uint256"
        }
      ],
      "name": "approve",
      "outputs": [],
      "stateMutability": "nonpayable",
      "type": "function"
    },
    {
      "inputs": [
        {
          "internalType": "address",
          "name": "",
          "type": "address"
        }
      ],
      "name": "authorized",
      "outputs": [
        {
          "internalType": "bool",
          "name": "",
          "type": "bool"
        }
      ],
      "stateMutability": "view",
      "type": "function"
    },
    {
      "inputs": [
        {
          "internalType": "address",
          "name": "owner",
          "type": "address"
        }
      ],
      "name": "balanceOf",
      "outputs": [
        {
          "internalType": "uint256",
          "name": "",
          "type": "uint256"
        }
      ],
      "stateMutability": "view",
      "type": "function"
    },
    {
      "inputs": [],
      "name": "baseURI",
      "outputs": [
        {
          "internalType": "string",
          "name": "",
          "type": "string"
        }
      ],
      "stateMutability": "view",
      "type": "function"
    },
    {
      "inputs": [],
      "name": "buyToken",
      "outputs": [
        {
          "internalType": "contract IERC20",
          "name": "",
          "type": "address"
        }
      ],
      "stateMutability": "view",
      "type": "function"
    },
    {
      "inputs": [],
      "name": "buyTokenPerLevel",
      "outputs": [
        {
          "internalType": "uint256",
          "name": "",
          "type": "uint256"
        }
      ],
      "stateMutability": "view",
      "type": "function"
    },
    {
      "inputs": [
        {
          "internalType": "address",
          "name": "player",
          "type": "address"
        },
        {
          "internalType": "uint256",
          "name": "tokenId",
          "type": "uint256"
        }
      ],
      "name": "canUnlockAmount",
      "outputs": [
        {
          "internalType": "uint256",
          "name": "",
          "type": "uint256"
        }
      ],
      "stateMutability": "view",
      "type": "function"
    },
    {
      "inputs": [],
      "name": "communityFund",
      "outputs": [
        {
          "internalType": "address",
          "name": "",
          "type": "address"
        }
      ],
      "stateMutability": "view",
      "type": "function"
    },
    {
      "inputs": [
        {
          "internalType": "uint256",
          "name": "level",
          "type": "uint256"
        }
      ],
      "name": "costOf",
      "outputs": [
        {
          "internalType": "uint256",
          "name": "",
          "type": "uint256"
        }
      ],
      "stateMutability": "view",
      "type": "function"
    },
    {
      "inputs": [
        {
          "internalType": "uint256",
          "name": "tokenId",
          "type": "uint256"
        }
      ],
      "name": "getApproved",
      "outputs": [
        {
          "internalType": "address",
          "name": "",
          "type": "address"
        }
      ],
      "stateMutability": "view",
      "type": "function"
    },
    {
      "inputs": [],
      "name": "initialPrice",
      "outputs": [
        {
          "internalType": "uint256",
          "name": "",
          "type": "uint256"
        }
      ],
      "stateMutability": "view",
      "type": "function"
    },
    {
      "inputs": [
        {
          "internalType": "address",
          "name": "owner",
          "type": "address"
        },
        {
          "internalType": "address",
          "name": "operator",
          "type": "address"
        }
      ],
      "name": "isApprovedForAll",
      "outputs": [
        {
          "internalType": "bool",
          "name": "",
          "type": "bool"
        }
      ],
      "stateMutability": "view",
      "type": "function"
    },
    {
      "inputs": [
        {
          "internalType": "uint256",
          "name": "level",
          "type": "uint256"
        }
      ],
      "name": "levelURI",
      "outputs": [
        {
          "internalType": "string",
          "name": "",
          "type": "string"
        }
      ],
      "stateMutability": "view",
      "type": "function"
    },
    {
      "inputs": [
        {
          "internalType": "uint256",
          "name": "",
          "type": "uint256"
        }
      ],
      "name": "levelURIsLevel",
      "outputs": [
        {
          "internalType": "uint256",
          "name": "",
          "type": "uint256"
        }
      ],
      "stateMutability": "view",
      "type": "function"
    },
    {
      "inputs": [
        {
          "internalType": "uint256",
          "name": "",
          "type": "uint256"
        }
      ],
      "name": "levelURIsURI",
      "outputs": [
        {
          "internalType": "string",
          "name": "",
          "type": "string"
        }
      ],
      "stateMutability": "view",
      "type": "function"
    },
    {
      "inputs": [
        {
          "internalType": "uint256",
          "name": "tokenId",
          "type": "uint256"
        }
      ],
      "name": "levelUp",
      "outputs": [],
      "stateMutability": "nonpayable",
      "type": "function"
    },
    {
      "inputs": [],
      "name": "maxLevel",
      "outputs": [
        {
          "internalType": "uint256",
          "name": "",
          "type": "uint256"
        }
      ],
      "stateMutability": "view",
      "type": "function"
    },
    {
      "inputs": [
        {
          "internalType": "uint256",
          "name": "",
          "type": "uint256"
        }
      ],
      "name": "maxLevelLevel",
      "outputs": [
        {
          "internalType": "uint256",
          "name": "",
          "type": "uint256"
        }
      ],
      "stateMutability": "view",
      "type": "function"
    },
    {
      "inputs": [
        {
          "internalType": "uint256",
          "name": "",
          "type": "uint256"
        }
      ],
      "name": "maxLevelTime",
      "outputs": [
        {
          "internalType": "uint256",
          "name": "",
          "type": "uint256"
        }
      ],
      "stateMutability": "view",
      "type": "function"
    },
    {
      "inputs": [
        {
          "internalType": "uint256",
          "name": "tokenId1",
          "type": "uint256"
        },
        {
          "internalType": "uint256",
          "name": "tokenId2",
          "type": "uint256"
        }
      ],
      "name": "merge",
      "outputs": [
        {
          "internalType": "uint256",
          "name": "",
          "type": "uint256"
        }
      ],
      "stateMutability": "nonpayable",
      "type": "function"
    },
    {
      "inputs": [
        {
          "internalType": "uint256",
          "name": "level",
          "type": "uint256"
        }
      ],
      "name": "mint",
      "outputs": [
        {
          "internalType": "uint256",
          "name": "",
          "type": "uint256"
        }
      ],
      "stateMutability": "nonpayable",
      "type": "function"
    },
    {
      "inputs": [],
      "name": "name",
      "outputs": [
        {
          "internalType": "string",
          "name": "",
          "type": "string"
        }
      ],
      "stateMutability": "view",
      "type": "function"
    },
    {
      "inputs": [
        {
          "internalType": "uint256",
          "name": "tokenId",
          "type": "uint256"
        }
      ],
      "name": "nextLevelTime",
      "outputs": [
        {
          "internalType": "uint256",
          "name": "",
          "type": "uint256"
        }
      ],
      "stateMutability": "view",
      "type": "function"
    },
    {
      "inputs": [
        {
          "internalType": "uint256",
          "name": "tokenId",
          "type": "uint256"
        }
      ],
      "name": "nftUnlock",
      "outputs": [],
      "stateMutability": "nonpayable",
      "type": "function"
    },
    {
      "inputs": [],
      "name": "owner",
      "outputs": [
        {
          "internalType": "address",
          "name": "",
          "type": "address"
        }
      ],
      "stateMutability": "view",
      "type": "function"
    },
    {
      "inputs": [
        {
          "internalType": "uint256",
          "name": "tokenId",
          "type": "uint256"
        }
      ],
      "name": "ownerOf",
      "outputs": [
        {
          "internalType": "address",
          "name": "",
          "type": "address"
        }
      ],
      "stateMutability": "view",
      "type": "function"
    },
    {
      "inputs": [
        {
          "internalType": "address",
          "name": "_toRemove",
          "type": "address"
        }
      ],
      "name": "removeAuthorized",
      "outputs": [],
      "stateMutability": "nonpayable",
      "type": "function"
    },
    {
      "inputs": [],
      "name": "renounceOwnership",
      "outputs": [],
      "stateMutability": "nonpayable",
      "type": "function"
    },
    {
      "inputs": [
        {
          "internalType": "address",
          "name": "from",
          "type": "address"
        },
        {
          "internalType": "address",
          "name": "to",
          "type": "address"
        },
        {
          "internalType": "uint256",
          "name": "tokenId",
          "type": "uint256"
        }
      ],
      "name": "safeTransferFrom",
      "outputs": [],
      "stateMutability": "nonpayable",
      "type": "function"
    },
    {
      "inputs": [
        {
          "internalType": "address",
          "name": "from",
          "type": "address"
        },
        {
          "internalType": "address",
          "name": "to",
          "type": "address"
        },
        {
          "internalType": "uint256",
          "name": "tokenId",
          "type": "uint256"
        },
        {
          "internalType": "bytes",
          "name": "_data",
          "type": "bytes"
        }
      ],
      "name": "safeTransferFrom",
      "outputs": [],
      "stateMutability": "nonpayable",
      "type": "function"
    },
    {
      "inputs": [
        {
          "internalType": "address",
          "name": "operator",
          "type": "address"
        },
        {
          "internalType": "bool",
          "name": "approved",
          "type": "bool"
        }
      ],
      "name": "setApprovalForAll",
      "outputs": [],
      "stateMutability": "nonpayable",
      "type": "function"
    },
    {
      "inputs": [
        {
          "internalType": "contract IERC20",
          "name": "_buy",
          "type": "address"
        }
      ],
      "name": "setBuyToken",
      "outputs": [],
      "stateMutability": "nonpayable",
      "type": "function"
    },
    {
      "inputs": [
        {
          "internalType": "uint256",
          "name": "_perLevel",
          "type": "uint256"
        }
      ],
      "name": "setBuyTokenPerLevel",
      "outputs": [],
      "stateMutability": "nonpayable",
      "type": "function"
    },
    {
      "inputs": [
        {
          "internalType": "address",
          "name": "_fund",
          "type": "address"
        }
      ],
      "name": "setCommunityFund",
      "outputs": [],
      "stateMutability": "nonpayable",
      "type": "function"
    },
    {
      "inputs": [
        {
          "internalType": "uint256",
          "name": "tokenId",
          "type": "uint256"
        },
        {
          "internalType": "uint256",
          "name": "time",
          "type": "uint256"
        }
      ],
      "name": "setCreationTime",
      "outputs": [],
      "stateMutability": "nonpayable",
      "type": "function"
    },
    {
      "inputs": [
        {
          "internalType": "uint256",
          "name": "_initial",
          "type": "uint256"
        }
      ],
      "name": "setInitialPrice",
      "outputs": [],
      "stateMutability": "nonpayable",
      "type": "function"
    },
    {
      "inputs": [
        {
          "internalType": "uint256",
          "name": "tokenId",
          "type": "uint256"
        },
        {
          "internalType": "uint256",
          "name": "time",
          "type": "uint256"
        }
      ],
      "name": "setLastLevelTime",
      "outputs": [],
      "stateMutability": "nonpayable",
      "type": "function"
    },
    {
      "inputs": [
        {
          "internalType": "address",
          "name": "user",
          "type": "address"
        },
        {
          "internalType": "uint256",
          "name": "amount",
          "type": "uint256"
        }
      ],
      "name": "setLastLockAmount",
      "outputs": [],
      "stateMutability": "nonpayable",
      "type": "function"
    },
    {
      "inputs": [
        {
          "internalType": "address",
          "name": "user",
          "type": "address"
        },
        {
          "internalType": "uint256",
          "name": "time",
          "type": "uint256"
        }
      ],
      "name": "setLastUnlockTime",
      "outputs": [],
      "stateMutability": "nonpayable",
      "type": "function"
    },
    {
      "inputs": [
        {
          "internalType": "uint256[]",
          "name": "_levelURIsLevel",
          "type": "uint256[]"
        },
        {
          "internalType": "string[]",
          "name": "_levelURIsURI",
          "type": "string[]"
        }
      ],
      "name": "setLevelURIs",
      "outputs": [],
      "stateMutability": "nonpayable",
      "type": "function"
    },
    {
      "inputs": [
        {
          "internalType": "uint256[]",
          "name": "_maxLevelTime",
          "type": "uint256[]"
        },
        {
          "internalType": "uint256[]",
          "name": "_maxLevelLevel",
          "type": "uint256[]"
        }
      ],
      "name": "setMaxLevel",
      "outputs": [],
      "stateMutability": "nonpayable",
      "type": "function"
    },
    {
      "inputs": [
        {
          "internalType": "uint256",
          "name": "_time",
          "type": "uint256"
        }
      ],
      "name": "setTimeToLevel",
      "outputs": [],
      "stateMutability": "nonpayable",
      "type": "function"
    },
    {
      "inputs": [
        {
          "internalType": "uint256",
          "name": "tokenId",
          "type": "uint256"
        },
        {
          "internalType": "uint256",
          "name": "level",
          "type": "uint256"
        }
      ],
      "name": "setTokenLevel",
      "outputs": [],
      "stateMutability": "nonpayable",
      "type": "function"
    },
    {
      "inputs": [
        {
          "internalType": "bytes4",
          "name": "interfaceId",
          "type": "bytes4"
        }
      ],
      "name": "supportsInterface",
      "outputs": [
        {
          "internalType": "bool",
          "name": "",
          "type": "bool"
        }
      ],
      "stateMutability": "view",
      "type": "function"
    },
    {
      "inputs": [],
      "name": "symbol",
      "outputs": [
        {
          "internalType": "string",
          "name": "",
          "type": "string"
        }
      ],
      "stateMutability": "view",
      "type": "function"
    },
    {
      "inputs": [],
      "name": "theory",
      "outputs": [
        {
          "internalType": "contract IERC20Lockable",
          "name": "",
          "type": "address"
        }
      ],
      "stateMutability": "view",
      "type": "function"
    },
    {
      "inputs": [
        {
          "internalType": "uint256",
          "name": "tokenId",
          "type": "uint256"
        }
      ],
      "name": "timeLeftToLevel",
      "outputs": [
        {
          "internalType": "uint256",
          "name": "",
          "type": "uint256"
        }
      ],
      "stateMutability": "view",
      "type": "function"
    },
    {
      "inputs": [],
      "name": "timeToLevel",
      "outputs": [
        {
          "internalType": "uint256",
          "name": "",
          "type": "uint256"
        }
      ],
      "stateMutability": "view",
      "type": "function"
    },
    {
      "inputs": [
        {
          "internalType": "uint256",
          "name": "index",
          "type": "uint256"
        }
      ],
      "name": "tokenByIndex",
      "outputs": [
        {
          "internalType": "uint256",
          "name": "",
          "type": "uint256"
        }
      ],
      "stateMutability": "view",
      "type": "function"
    },
    {
      "inputs": [
        {
          "internalType": "uint256",
          "name": "",
          "type": "uint256"
        }
      ],
      "name": "tokenInfo",
      "outputs": [
        {
          "internalType": "uint256",
          "name": "level",
          "type": "uint256"
        },
        {
          "internalType": "uint256",
          "name": "creationTime",
          "type": "uint256"
        },
        {
          "internalType": "uint256",
          "name": "lastLevelTime",
          "type": "uint256"
        }
      ],
      "stateMutability": "view",
      "type": "function"
    },
    {
      "inputs": [
        {
          "internalType": "address",
          "name": "owner",
          "type": "address"
        },
        {
          "internalType": "uint256",
          "name": "index",
          "type": "uint256"
        }
      ],
      "name": "tokenOfOwnerByIndex",
      "outputs": [
        {
          "internalType": "uint256",
          "name": "",
          "type": "uint256"
        }
      ],
      "stateMutability": "view",
      "type": "function"
    },
    {
      "inputs": [
        {
          "internalType": "uint256",
          "name": "tokenId",
          "type": "uint256"
        }
      ],
      "name": "tokenURI",
      "outputs": [
        {
          "internalType": "string",
          "name": "",
          "type": "string"
        }
      ],
      "stateMutability": "view",
      "type": "function"
    },
    {
      "inputs": [],
      "name": "totalSupply",
      "outputs": [
        {
          "internalType": "uint256",
          "name": "",
          "type": "uint256"
        }
      ],
      "stateMutability": "view",
      "type": "function"
    },
    {
      "inputs": [
        {
          "internalType": "address",
          "name": "from",
          "type": "address"
        },
        {
          "internalType": "address",
          "name": "to",
          "type": "address"
        },
        {
          "internalType": "uint256",
          "name": "tokenId",
          "type": "uint256"
        }
      ],
      "name": "transferFrom",
      "outputs": [],
      "stateMutability": "nonpayable",
      "type": "function"
    },
    {
      "inputs": [
        {
          "internalType": "address",
          "name": "newOwner",
          "type": "address"
        }
      ],
      "name": "transferOwnership",
      "outputs": [],
      "stateMutability": "nonpayable",
      "type": "function"
    },
    {
      "inputs": [
        {
          "internalType": "address",
          "name": "",
          "type": "address"
        }
      ],
      "name": "userInfo",
      "outputs": [
        {
          "internalType": "uint256",
          "name": "lastUnlockTime",
          "type": "uint256"
        },
        {
          "internalType": "uint256",
          "name": "lastLockAmount",
          "type": "uint256"
        }
      ],
      "stateMutability": "view",
      "type": "function"
    }
  ],
  "bytecode": "0x60806040523480156200001157600080fd5b5060405162004dcf38038062004dcf83398101604081905262000034916200063c565b604080518082018252600f81526e2a2422a7a92c902ab73637b1b5b2b960891b60208083019190915282518084019093526002835261475560f01b9083015290620000866301ffc9a760e01b6200030c565b81516200009b90600690602085019062000362565b508051620000b190600790602084019062000362565b50620000c46380ac58cd60e01b6200030c565b620000d6635b5e139f60e01b6200030c565b620000e863780e9d6360e01b6200030c565b5060009050620000f76200035e565b600a80546001600160a01b0319166001600160a01b038316908117909155604051919250906000907f8be0079c531659141344cd1fd0a4f28419497f9722a3daafe3b4186f6b6457e0908290a350601480546001600160a01b0319166001600160a01b038b1617905560158890556016879055815115801590620001905750816000815181106200018457fe5b60200260200101516000145b80156200019e575081518151145b620001c65760405162461bcd60e51b8152600401620001bd9062000777565b60405180910390fd5b60008451118015620001ed575083600081518110620001e157fe5b60200260200101516000145b8015620001fb575083518351145b6200021a5760405162461bcd60e51b8152600401620001bd906200082e565b82516000905b808210156200026d5760648583815181106200023857fe5b60200260200101511115620002615760405162461bcd60e51b8152600401620001bd90620007eb565b60018201915062000220565b835162000282906010906020870190620003e7565b5082516200029890601190602086019062000424565b508551620002ae906012906020890190620003e7565b508451620002c4906013906020880190620003e7565b5050601780546001600160a01b039788166001600160a01b0319918216179091556203f4806018556019805498909716971696909617909455506200093f9650505050505050565b6001600160e01b03198082161415620003395760405162461bcd60e51b8152600401620001bd9062000740565b6001600160e01b0319166000908152602081905260409020805460ff19166001179055565b3390565b828054600181600116156101000203166002900490600052602060002090601f016020900481019282601f10620003a557805160ff1916838001178555620003d5565b82800160010185558215620003d5579182015b82811115620003d5578251825591602001919060010190620003b8565b50620003e392915062000484565b5090565b828054828255906000526020600020908101928215620003d55791602002820182811115620003d5578251825591602001919060010190620003b8565b82805482825590600052602060002090810192821562000476579160200282015b828111156200047657825180516200046591849160209091019062000362565b509160200191906001019062000445565b50620003e39291506200049b565b5b80821115620003e3576000815560010162000485565b80821115620003e3576000620004b28282620004bc565b506001016200049b565b50805460018160011615610100020316600290046000825580601f10620004e4575062000504565b601f01602090049060005260206000209081019062000504919062000484565b50565b80516001600160a01b03811681146200051f57600080fd5b92915050565b600082601f83011262000536578081fd5b81516200054d6200054782620008c8565b620008a1565b818152915060208083019084810160005b84811015620005cc578151870188603f8201126200057b57600080fd5b838101516200058e6200054782620008e8565b81815260408b81848601011115620005a557600080fd5b620005b6838884018387016200090c565b508652505092820192908201906001016200055e565b505050505092915050565b600082601f830112620005e8578081fd5b8151620005f96200054782620008c8565b8181529150602080830190848101818402860182018710156200061b57600080fd5b60005b84811015620005cc578151845292820192908201906001016200061e565b60008060008060008060008060006101208a8c0312156200065b578485fd5b620006678b8b62000507565b985060208a0151975060408a01519650620006868b60608c0162000507565b9550620006978b60808c0162000507565b60a08b01519095506001600160401b0380821115620006b4578586fd5b620006c28d838e01620005d7565b955060c08c0151915080821115620006d8578485fd5b620006e68d838e01620005d7565b945060e08c0151915080821115620006fc578384fd5b6200070a8d838e01620005d7565b93506101008c015191508082111562000721578283fd5b50620007308c828d0162000525565b9150509295985092959850929598565b6020808252601c908201527f4552433136353a20696e76616c696420696e7465726661636520696400000000604082015260600190565b6020808252604e908201527f4c6576656c2055524920617272617973206d75737420626520657175616c206960408201527f6e206e6f6e2d7a65726f206c656e67746820616e64206c6576656c2073686f7560608201526d36321039ba30b93a1030ba10181760911b608082015260a00190565b60208082526023908201527f4d6178206c6576656c2063616e277420626520686967686572207468616e203160408201526218181760e91b606082015260800190565b6020808252604d908201527f4d6178206c6576656c20617272617973206d75737420626520657175616c206960408201527f6e206e6f6e2d7a65726f206c656e67746820616e642074696d652073686f756c60608201526c321039ba30b93a1030ba10181760991b608082015260a00190565b6040518181016001600160401b0381118282101715620008c057600080fd5b604052919050565b60006001600160401b03821115620008de578081fd5b5060209081020190565b60006001600160401b03821115620008fe578081fd5b50601f01601f191660200190565b60005b83811015620009295781810151838201526020016200090f565b8381111562000939576000848401525b50505050565b614480806200094f6000396000f3fe608060405234801561001057600080fd5b50600436106103825760003560e01c80636c0360eb116101de578063b91816111161010f578063d1c2babb116100ad578063e985e9c51161007c578063e985e9c514610743578063ec3ddf3014610756578063f2fde38b14610769578063fd3265921461077c57610382565b8063d1c2babb146106f7578063d8cab4a91461070a578063db357c301461071d578063dd289dcb1461073057610382565b8063cc06c359116100e9578063cc06c359146106a7578063cc33c875146106af578063cc67d1ae146106d1578063cf1c316a146106e457610382565b8063b91816111461066e578063c87b56dd14610681578063ca60567a1461069457610382565b806395d89b411161017c578063a22cb46511610156578063a22cb4651461062d578063a482171914610640578063aa08279c14610648578063b88d4fde1461065b57610382565b806395d89b41146105ff5780639f4ba0ee14610607578063a0712d681461061a57610382565b806371167122116101b857806371167122146105c9578063715018a6146105dc5780638a1165b3146105e45780638da5cb5b146105f757610382565b80636c0360eb1461059b5780637001e2a6146105a357806370a08231146105b657610382565b80632eb552f3116102b857806342842e0e116102565780634f6ccce7116102305780634f6ccce71461054f57806358df3825146105625780635b2f4ed4146105755780636352211e1461058857610382565b806342842e0e1461052157806347aebf9a14610534578063485d7d941461053c57610382565b806338d170991161029257806338d17099146104e05780633bcafb63146104f35780633c32a450146105065780633f684d381461050e57610382565b80632eb552f3146104a75780632f745c59146104ba57806337339a16146104cd57610382565b80630ce90ec2116103255780631d0806ae116102ff5780631d0806ae1461047157806323b872dd14610479578063257c739b1461048c5780632bac96891461049457610382565b80630ce90ec21461043557806318160ddd146104485780631959a0021461045057610382565b8063081437961161036157806308143796146103da578063081812fc146103fa578063095ea7b31461040d5780630a8424331461042257610382565b8062f380f41461038757806301ffc9a7146103a557806306fdde03146103c5575b600080fd5b61038f61078f565b60405161039c91906137bf565b60405180910390f35b6103b86103b33660046136bf565b61079e565b60405161039c919061384d565b6103cd6107c1565b60405161039c9190613858565b6103ed6103e83660046136f7565b610857565b60405161039c9190614316565b61038f6104083660046136f7565b610875565b61042061041b366004613567565b6108c1565b005b6103ed610430366004613567565b610959565b6104206104433660046136f7565b610b22565b6103ed610cd8565b61046361045e36600461343c565b610ce9565b60405161039c92919061431f565b6103ed610d02565b610420610487366004613490565b610d08565b6103ed610d40565b6104206104a23660046136f7565b610d46565b6103ed6104b53660046136f7565b610d94565b6103ed6104c8366004613567565b610da1565b6104206104db36600461343c565b610dca565b6103cd6104ee3660046136f7565b610e35565b6103ed6105013660046136f7565b610f35565b61038f610f42565b6103ed61051c3660046136f7565b610f51565b61042061052f366004613490565b610f90565b6103ed610fab565b61042061054a36600461343c565b610fb1565b6103ed61055d3660046136f7565b611027565b610420610570366004613567565b61103d565b6103cd6105833660046136f7565b6110a5565b61038f6105963660046136f7565b61114b565b6103cd611173565b6104206105b1366004613567565b6111d4565b6103ed6105c436600461343c565b611239565b6104206105d7366004613727565b611282565b6104206112e0565b6104206105f236600461343c565b611369565b61038f6113d4565b6103cd6113e3565b6104206106153660046136f7565b611444565b6103ed6106283660046136f7565b611492565b61042061063b36600461353a565b611617565b61038f6116e5565b610420610656366004613642565b6116f4565b6104206106693660046134d0565b611806565b6103b861067c36600461343c565b611845565b6103cd61068f3660046136f7565b61185a565b6104206106a2366004613727565b6119a0565b6103ed611a2e565b6106c26106bd3660046136f7565b611a96565b60405161039c9392919061432d565b6104206106df366004613727565b611ab7565b6104206106f236600461343c565b611b15565b6103ed610705366004613727565b611b78565b610420610718366004613592565b611e00565b61042061072b3660046136f7565b611ebe565b61042061073e3660046136f7565b612365565b6103b8610751366004613458565b6123b3565b6103ed6107643660046136f7565b6123e1565b61042061077736600461343c565b612402565b6103ed61078a3660046136f7565b6124c3565b6017546001600160a01b031681565b6001600160e01b0319811660009081526020819052604090205460ff165b919050565b60068054604080516020601f600260001961010060018816150201909516949094049384018190048102820181019092528281526060939092909183018282801561084d5780601f106108225761010080835404028352916020019161084d565b820191906000526020600020905b81548152906001019060200180831161083057829003601f168201915b5050505050905090565b6013818154811061086457fe5b600091825260209091200154905081565b6000610880826124d6565b6108a55760405162461bcd60e51b815260040161089c90613f0c565b60405180910390fd5b506000908152600460205260409020546001600160a01b031690565b60006108cc8261114b565b9050806001600160a01b0316836001600160a01b031614156109005760405162461bcd60e51b815260040161089c906140b4565b806001600160a01b03166109126124e3565b6001600160a01b0316148061092e575061092e816107516124e3565b61094a5760405162461bcd60e51b815260040161089c90613cd1565b61095483836124e7565b505050565b60006109636131c1565b506001600160a01b038084166000908152600f602090815260408083208151808301835281548152600190910154928101929092526019549051635a46d3b560e01b815291931690635a46d3b5906109bf9088906004016137bf565b60206040518083038186803b1580156109d757600080fd5b505afa1580156109eb573d6000803e3d6000fd5b505050506040513d601f19601f82011682018060405250810190610a0f919061370f565b905080610a2157600092505050610b1c565b60195460405163010158bb60e51b81526000916001600160a01b03169063202b176090610a529089906004016137bf565b60206040518083038186803b158015610a6a57600080fd5b505afa158015610a7e573d6000803e3d6000fd5b505050506040513d601f19601f82011682018060405250810190610aa2919061370f565b9050808211610ab75760009350505050610b1c565b610ac18282612555565b915082602001518211610ada5760009350505050610b1c565b6020830151610aea908390612555565b6000868152600e602052604081205491935090610b1590606490610b0f90869061257d565b906125b7565b9450505050505b92915050565b610b2a6125e9565b15610b475760405162461bcd60e51b815260040161089c9061425b565b610b4f61260a565b15610b6c5760405162461bcd60e51b815260040161089c9061425b565b33610b768261114b565b6001600160a01b03161480610b9a5750336000908152600b602052604090205460ff165b80610bb4575033610ba96113d4565b6001600160a01b0316145b610bd05760405162461bcd60e51b815260040161089c90613c6b565b6000818152600e60205260409020610be6611a2e565b815410610c055760405162461bcd60e51b815260040161089c90613de0565b6000610c20601854836002015461262b90919063ffffffff16565b905080421015610c425760405162461bcd60e51b815260040161089c906142a1565b600282018190558154600090610c5990600161262b565b80845590506060610c6982610e35565b90506000815111610c8c5760405162461bcd60e51b815260040161089c90613ca2565b610c968582612650565b5050436000908152600c602090815260408083203284529091528082208054600160ff1991821681179092553384529190922080549091169091179055505050565b6000610ce46002612694565b905090565b600f602052600090815260409020805460019091015482565b60155481565b610d19610d136124e3565b8261269f565b610d355760405162461bcd60e51b815260040161089c90614189565b610954838383612724565b60165481565b336000908152600b602052604090205460ff1680610d73575033610d686113d4565b6001600160a01b0316145b610d8f5760405162461bcd60e51b815260040161089c906140f5565b601655565b6010818154811061086457fe5b6001600160a01b0382166000908152600160205260408120610dc39083612832565b9392505050565b336000908152600b602052604090205460ff1680610df7575033610dec6113d4565b6001600160a01b0316145b610e135760405162461bcd60e51b815260040161089c906140f5565b601780546001600160a01b0319166001600160a01b0392909216919091179055565b604080516020810190915260008082526010546060929181905b8115610f2b5760018203905060108181548110610e6857fe5b90600052602060002001548610610f205760118181548110610e8657fe5b600091825260209182902001805460408051601f6002600019610100600187161502019094169390930492830185900485028101850190915281815292830182828015610f145780601f10610ee957610100808354040283529160200191610f14565b820191906000526020600020905b815481529060010190602001808311610ef757829003601f168201915b50505050509350610f2b565b600182039150610e4f565b5091949350505050565b6012818154811061086457fe5b6019546001600160a01b031681565b6018546000828152600e602052604081206002015490918291610f739161262b565b9050804210610f865760009150506107bc565b610dc38142612555565b61095483838360405180602001604052806000815250611806565b60185481565b610fb96124e3565b6001600160a01b0316610fca6113d4565b6001600160a01b031614610ff05760405162461bcd60e51b815260040161089c90613fa4565b6001600160a01b03811633141561100657600080fd5b6001600160a01b03166000908152600b60205260409020805460ff19169055565b60008061103560028461283e565b509392505050565b336000908152600b602052604090205460ff168061106a57503361105f6113d4565b6001600160a01b0316145b6110865760405162461bcd60e51b815260040161089c906140f5565b6001600160a01b039091166000908152600f6020526040902060010155565b601181815481106110b257fe5b600091825260209182902001805460408051601f60026000196101006001871615020190941693909304928301859004850281018501909152818152935090918301828280156111435780601f1061111857610100808354040283529160200191611143565b820191906000526020600020905b81548152906001019060200180831161112657829003601f168201915b505050505081565b6000610b1c82604051806060016040528060298152602001614422602991396002919061285a565b60098054604080516020601f600260001961010060018816150201909516949094049384018190048102820181019092528281526060939092909183018282801561084d5780601f106108225761010080835404028352916020019161084d565b336000908152600b602052604090205460ff16806112015750336111f66113d4565b6001600160a01b0316145b61121d5760405162461bcd60e51b815260040161089c906140f5565b6001600160a01b039091166000908152600f6020526040902055565b60006001600160a01b0382166112615760405162461bcd60e51b815260040161089c90613d2e565b6001600160a01b0382166000908152600160205260409020610b1c90612694565b336000908152600b602052604090205460ff16806112af5750336112a46113d4565b6001600160a01b0316145b6112cb5760405162461bcd60e51b815260040161089c906140f5565b6000918252600e602052604090912060010155565b6112e86124e3565b6001600160a01b03166112f96113d4565b6001600160a01b03161461131f5760405162461bcd60e51b815260040161089c90613fa4565b600a546040516000916001600160a01b0316907f8be0079c531659141344cd1fd0a4f28419497f9722a3daafe3b4186f6b6457e0908390a3600a80546001600160a01b0319169055565b336000908152600b602052604090205460ff168061139657503361138b6113d4565b6001600160a01b0316145b6113b25760405162461bcd60e51b815260040161089c906140f5565b601480546001600160a01b0319166001600160a01b0392909216919091179055565b600a546001600160a01b031690565b60078054604080516020601f600260001961010060018816150201909516949094049384018190048102820181019092528281526060939092909183018282801561084d5780601f106108225761010080835404028352916020019161084d565b336000908152600b602052604090205460ff16806114715750336114666113d4565b6001600160a01b0316145b61148d5760405162461bcd60e51b815260040161089c906140f5565b601555565b600061149c6125e9565b156114b95760405162461bcd60e51b815260040161089c9061425b565b6114c161260a565b156114de5760405162461bcd60e51b815260040161089c9061425b565b6000821180156114f557506114f1611a2e565b8211155b6115115760405162461bcd60e51b815260040161089c906138ad565b33600061153761152e611525866001612555565b6016549061257d565b6015549061262b565b601754601454919250611559916001600160a01b039081169133911684612867565b611563600d6128bf565b600061156f600d6128c8565b6000818152600e602052604090204260018201819055600282015590915061159784836128cc565b85815560606115a587610e35565b905060008151116115c85760405162461bcd60e51b815260040161089c90613ca2565b6115d28382612650565b5050436000908152600c602090815260408083203284529091528082208054600160ff1991821681179092553384529190922080549091169091179055949350505050565b61161f6124e3565b6001600160a01b0316826001600160a01b031614156116505760405162461bcd60e51b815260040161089c90613af1565b806005600061165d6124e3565b6001600160a01b03908116825260208083019390935260409182016000908120918716808252919093529120805460ff1916921515929092179091556116a16124e3565b6001600160a01b03167f17307eab39ab6107e8899845ad3d59bd9653f200f220920489ca2b5937696c31836040516116d9919061384d565b60405180910390a35050565b6014546001600160a01b031681565b336000908152600b602052604090205460ff16806117215750336117166113d4565b6001600160a01b0316145b61173d5760405162461bcd60e51b815260040161089c906140f5565b6000825111801561176257508160008151811061175657fe5b60200260200101516000145b801561176f575081518151145b61178b5760405162461bcd60e51b815260040161089c90613e58565b80516000905b808210156117d85760648383815181106117a757fe5b602002602001015111156117cd5760405162461bcd60e51b815260040161089c90613b28565b600182019150611791565b83516117eb9060129060208701906131db565b5082516117ff9060139060208601906131db565b5050505050565b6118176118116124e3565b8361269f565b6118335760405162461bcd60e51b815260040161089c90614189565b61183f84848484612990565b50505050565b600b6020526000908152604090205460ff1681565b6060611865826124d6565b6118815760405162461bcd60e51b815260040161089c90614022565b60008281526008602090815260409182902080548351601f60026000196101006001861615020190931692909204918201849004840281018401909452808452606093928301828280156119165780601f106118eb57610100808354040283529160200191611916565b820191906000526020600020905b8154815290600101906020018083116118f957829003601f168201915b505050505090506060611927611173565b905080516000141561193b575090506107bc565b81511561196d578082604051602001611955929190613790565b604051602081830303815290604052925050506107bc565b80611977856129c3565b604051602001611988929190613790565b60405160208183030381529060405292505050919050565b336000908152600b602052604090205460ff16806119cd5750336119c26113d4565b6001600160a01b0316145b6119e95760405162461bcd60e51b815260040161089c906140f5565b600081118015611a0057506119fc611a2e565b8111155b611a1c5760405162461bcd60e51b815260040161089c906138ad565b6000918252600e602052604090912055565b601254600090819080825b8115611a8d5760018203905060128181548110611a5257fe5b90600052602060002001544210611a825760138181548110611a7057fe5b90600052602060002001549350611a8d565b600182039150611a39565b50919250505090565b600e6020526000908152604090208054600182015460029092015490919083565b336000908152600b602052604090205460ff1680611ae4575033611ad96113d4565b6001600160a01b0316145b611b005760405162461bcd60e51b815260040161089c906140f5565b6000918252600e602052604090912060020155565b611b1d6124e3565b6001600160a01b0316611b2e6113d4565b6001600160a01b031614611b545760405162461bcd60e51b815260040161089c90613fa4565b6001600160a01b03166000908152600b60205260409020805460ff19166001179055565b6000611b826125e9565b15611b9f5760405162461bcd60e51b815260040161089c9061425b565b611ba761260a565b15611bc45760405162461bcd60e51b815260040161089c9061425b565b33611bce8461114b565b6001600160a01b03161480611bf25750336000908152600b602052604090205460ff165b80611c0c575033611c016113d4565b6001600160a01b0316145b611c285760405162461bcd60e51b815260040161089c906138f0565b33611c328361114b565b6001600160a01b03161480611c565750336000908152600b602052604090205460ff165b80611c70575033611c656113d4565b6001600160a01b0316145b611c8c5760405162461bcd60e51b815260040161089c90614071565b611c958261114b565b6001600160a01b0316611ca78461114b565b6001600160a01b031614611ccd5760405162461bcd60e51b815260040161089c906142d1565b6000828152600e60205260408082205485835290822054611ced9161262b565b9050600081118015611d065750611d02611a2e565b8111155b611d225760405162461bcd60e51b815260040161089c906138ad565b6000611d2d8561114b565b9050611d3885612a9e565b611d4184612a9e565b611d4b600d6128bf565b6000611d57600d6128c8565b6000818152600e6020526040902042600182018190556002820155909150611d7f83836128cc565b8381556060611d8d85610e35565b90506000815111611db05760405162461bcd60e51b815260040161089c90613ca2565b611dba8382612650565b5050436000908152600c602090815260408083203284529091528082208054600160ff199182168117909255338452919092208054909116909117905595945050505050565b336000908152600b602052604090205460ff1680611e2d575033611e226113d4565b6001600160a01b0316145b611e495760405162461bcd60e51b815260040161089c906140f5565b60008251118015611e6e575081600081518110611e6257fe5b60200260200101516000145b8015611e7b575081518151145b611e975760405162461bcd60e51b815260040161089c90613a02565b8151611eaa9060109060208501906131db565b508051610954906011906020840190613226565b611ec66125e9565b15611ee35760405162461bcd60e51b815260040161089c9061425b565b611eeb61260a565b15611f085760405162461bcd60e51b815260040161089c9061425b565b33611f128261114b565b6001600160a01b03161480611f365750336000908152600b602052604090205460ff165b80611f50575033611f456113d4565b6001600160a01b0316145b611f6c5760405162461bcd60e51b815260040161089c90613c6b565b6000611f778261114b565b6001600160a01b0381166000908152600f602052604090208054919250904211611fb35760405162461bcd60e51b815260040161089c90613d78565b601954604051635a46d3b560e01b81526000916001600160a01b031690635a46d3b590611fe49086906004016137bf565b60206040518083038186803b158015611ffc57600080fd5b505afa158015612010573d6000803e3d6000fd5b505050506040513d601f19601f82011682018060405250810190612034919061370f565b90508061204a5742825560019091015550612327565b60195460405163010158bb60e51b81526000916001600160a01b03169063202b17609061207b9087906004016137bf565b60206040518083038186803b15801561209357600080fd5b505afa1580156120a7573d6000803e3d6000fd5b505050506040513d601f19601f820116820180604052508101906120cb919061370f565b90508082116120ec5760405162461bcd60e51b815260040161089c9061412c565b6120f68282612555565b9150826001015482116121fc5760195460405163579587b360e11b81526001600160a01b039091169063af2b0f6690612136908790600090600401613834565b600060405180830381600087803b15801561215057600080fd5b505af1158015612164573d6000803e3d6000fd5b50504285555050601954604051635a46d3b560e01b81526001600160a01b0390911690635a46d3b59061219b9087906004016137bf565b60206040518083038186803b1580156121b357600080fd5b505afa1580156121c7573d6000803e3d6000fd5b505050506040513d601f19601f820116820180604052508101906121eb919061370f565b836001018190555050505050612327565b600183015461220c908390612555565b6000868152600e60205260408120549193509061223190606490610b0f90869061257d565b60195460405163579587b360e11b81529192506001600160a01b03169063af2b0f66906122649088908590600401613834565b600060405180830381600087803b15801561227e57600080fd5b505af1158015612292573d6000803e3d6000fd5b50504286555050601954604051635a46d3b560e01b81526001600160a01b0390911690635a46d3b5906122c99088906004016137bf565b60206040518083038186803b1580156122e157600080fd5b505afa1580156122f5573d6000803e3d6000fd5b505050506040513d601f19601f82011682018060405250810190612319919061370f565b846001018190555050505050505b50436000908152600c602090815260408083203284529091528082208054600160ff1991821681179092553384529190922080549091169091179055565b336000908152600b602052604090205460ff16806123925750336123876113d4565b6001600160a01b0316145b6123ae5760405162461bcd60e51b815260040161089c906140f5565b601855565b6001600160a01b03918216600090815260056020908152604080832093909416825291909152205460ff1690565b6018546000828152600e60205260408120600201549091610b1c919061262b565b61240a6124e3565b6001600160a01b031661241b6113d4565b6001600160a01b0316146124415760405162461bcd60e51b815260040161089c90613fa4565b6001600160a01b0381166124675760405162461bcd60e51b815260040161089c90613985565b600a546040516001600160a01b038084169216907f8be0079c531659141344cd1fd0a4f28419497f9722a3daafe3b4186f6b6457e090600090a3600a80546001600160a01b0319166001600160a01b0392909216919091179055565b6000610b1c61152e611525846001612555565b6000610b1c600283612b6b565b3390565b600081815260046020526040902080546001600160a01b0319166001600160a01b038416908117909155819061251c8261114b565b6001600160a01b03167f8c5be1e5ebec7d5bd14f71427d1e84f3dd0314c0f7b2291e5b200ac8c7c3b92560405160405180910390a45050565b6000828211156125775760405162461bcd60e51b815260040161089c90613b6b565b50900390565b60008261258c57506000610b1c565b8282028284828161259957fe5b0414610dc35760405162461bcd60e51b815260040161089c90613ecb565b60008082116125d85760405162461bcd60e51b815260040161089c90613c34565b8183816125e157fe5b049392505050565b436000908152600c6020908152604080832032845290915290205460ff1690565b436000908152600c6020908152604080832033845290915290205460ff1690565b600082820183811015610dc35760405162461bcd60e51b815260040161089c90613a76565b612659826124d6565b6126755760405162461bcd60e51b815260040161089c90613f58565b600082815260086020908152604090912082516109549284019061327f565b6000610b1c826128c8565b60006126aa826124d6565b6126c65760405162461bcd60e51b815260040161089c90613be8565b60006126d18361114b565b9050806001600160a01b0316846001600160a01b0316148061270c5750836001600160a01b031661270184610875565b6001600160a01b0316145b8061271c575061271c81856123b3565b949350505050565b826001600160a01b03166127378261114b565b6001600160a01b03161461275d5760405162461bcd60e51b815260040161089c90613fd9565b6001600160a01b0382166127835760405162461bcd60e51b815260040161089c90613aad565b61278e838383610954565b6127996000826124e7565b6001600160a01b03831660009081526001602052604090206127bb9082612b77565b506001600160a01b03821660009081526001602052604090206127de9082612b83565b506127eb60028284612b8f565b5080826001600160a01b0316846001600160a01b03167fddf252ad1be2c89b69c2b068fc378daa952ba7f163c4a11628f55a4df523b3ef60405160405180910390a4505050565b6000610dc38383612ba5565b600080808061284d8686612bea565b9097909650945050505050565b600061271c848484612c46565b61183f846323b872dd60e01b85858560405160240161288893929190613810565b60408051601f198184030181529190526020810180516001600160e01b03166001600160e01b031990931692909217909152612ca5565b80546001019055565b5490565b6001600160a01b0382166128f25760405162461bcd60e51b815260040161089c90613e23565b6128fb816124d6565b156129185760405162461bcd60e51b815260040161089c906139cb565b61292460008383610954565b6001600160a01b03821660009081526001602052604090206129469082612b83565b5061295360028284612b8f565b5060405181906001600160a01b038416906000907fddf252ad1be2c89b69c2b068fc378daa952ba7f163c4a11628f55a4df523b3ef908290a45050565b61299b848484612724565b6129a784848484612d34565b61183f5760405162461bcd60e51b815260040161089c90613933565b6060816129e857506040805180820190915260018152600360fc1b60208201526107bc565b8160005b8115612a0057600101600a820491506129ec565b60608167ffffffffffffffff81118015612a1957600080fd5b506040519080825280601f01601f191660200182016040528015612a44576020820181803683370190505b50859350905060001982015b8315612a9557600a840660300160f81b82828060019003935081518110612a7357fe5b60200101906001600160f81b031916908160001a905350600a84049350612a50565b50949350505050565b6000612aa98261114b565b9050612ab781600084610954565b612ac26000836124e7565b6000828152600860205260409020546002600019610100600184161502019091160415612b00576000828152600860205260408120612b00916132ec565b6001600160a01b0381166000908152600160205260409020612b229083612b77565b50612b2e600283612e13565b5060405182906000906001600160a01b038416907fddf252ad1be2c89b69c2b068fc378daa952ba7f163c4a11628f55a4df523b3ef908390a45050565b6000610dc38383612e1f565b6000610dc38383612e37565b6000610dc38383612efd565b600061271c84846001600160a01b038516612f47565b81546000908210612bc85760405162461bcd60e51b815260040161089c9061386b565b826000018281548110612bd757fe5b9060005260206000200154905092915050565b815460009081908310612c0f5760405162461bcd60e51b815260040161089c90613d9e565b6000846000018481548110612c2057fe5b906000526020600020906002020190508060000154816001015492509250509250929050565b60008281526001840160205260408120548281612c765760405162461bcd60e51b815260040161089c9190613858565b50846000016001820381548110612c8957fe5b9060005260206000209060020201600101549150509392505050565b6060612cfa826040518060400160405280602081526020017f5361666545524332303a206c6f772d6c6576656c2063616c6c206661696c6564815250856001600160a01b0316612fde9092919063ffffffff16565b8051909150156109545780806020019051810190612d1891906136a3565b6109545760405162461bcd60e51b815260040161089c90614211565b6000612d48846001600160a01b0316612fed565b612d545750600161271c565b6060612ddc630a85bd0160e11b612d696124e3565b888787604051602401612d7f94939291906137d3565b604051602081830303815290604052906001600160e01b0319166020820180516001600160e01b0383818316178352505050506040518060600160405280603281526020016143f0603291396001600160a01b0388169190612fde565b9050600081806020019051810190612df491906136db565b6001600160e01b031916630a85bd0160e11b1492505050949350505050565b6000610dc38383612ff3565b60009081526001919091016020526040902054151590565b60008181526001830160205260408120548015612ef35783546000198083019190810190600090879083908110612e6a57fe5b9060005260206000200154905080876000018481548110612e8757fe5b600091825260208083209091019290925582815260018981019092526040902090840190558654879080612eb757fe5b60019003818190600052602060002001600090559055866001016000878152602001908152602001600020600090556001945050505050610b1c565b6000915050610b1c565b6000612f098383612e1f565b612f3f57508154600181810184556000848152602080822090930184905584548482528286019093526040902091909155610b1c565b506000610b1c565b600082815260018401602052604081205480612fac575050604080518082018252838152602080820184815286546001818101895560008981528481209551600290930290950191825591519082015586548684528188019092529290912055610dc3565b82856000016001830381548110612fbf57fe5b9060005260206000209060020201600101819055506000915050610dc3565b606061271c84846000856130c7565b3b151590565b60008181526001830160205260408120548015612ef3578354600019808301919081019060009087908390811061302657fe5b906000526020600020906002020190508087600001848154811061304657fe5b60009182526020808320845460029093020191825560019384015491840191909155835482528983019052604090209084019055865487908061308557fe5b6000828152602080822060026000199094019384020182815560019081018390559290935588815289820190925260408220919091559450610b1c9350505050565b6060824710156130e95760405162461bcd60e51b815260040161089c90613ba2565b6130f285612fed565b61310e5760405162461bcd60e51b815260040161089c906141da565b60006060866001600160a01b0316858760405161312b9190613774565b60006040518083038185875af1925050503d8060008114613168576040519150601f19603f3d011682016040523d82523d6000602084013e61316d565b606091505b509150915061317d828286613188565b979650505050505050565b60608315613197575081610dc3565b8251156131a75782518084602001fd5b8160405162461bcd60e51b815260040161089c9190613858565b604051806040016040528060008152602001600081525090565b828054828255906000526020600020908101928215613216579160200282015b828111156132165782518255916020019190600101906131fb565b50613222929150613333565b5090565b828054828255906000526020600020908101928215613273579160200282015b82811115613273578251805161326391849160209091019061327f565b5091602001919060010190613246565b50613222929150613348565b828054600181600116156101000203166002900490600052602060002090601f016020900481019282601f106132c057805160ff1916838001178555613216565b8280016001018555821561321657918201828111156132165782518255916020019190600101906131fb565b50805460018160011615610100020316600290046000825580601f106133125750613330565b601f0160209004906000526020600020908101906133309190613333565b50565b5b808211156132225760008155600101613334565b8082111561322257600061335c82826132ec565b50600101613348565b600082601f830112613375578081fd5b81356133886133838261436a565b614343565b8181529150602080830190848101818402860182018710156133a957600080fd5b60005b848110156133c8578135845292820192908201906001016133ac565b505050505092915050565b600082601f8301126133e3578081fd5b813567ffffffffffffffff8111156133f9578182fd5b61340c601f8201601f1916602001614343565b915080825283602082850101111561342357600080fd5b8060208401602084013760009082016020015292915050565b60006020828403121561344d578081fd5b8135610dc3816143b6565b6000806040838503121561346a578081fd5b8235613475816143b6565b91506020830135613485816143b6565b809150509250929050565b6000806000606084860312156134a4578081fd5b83356134af816143b6565b925060208401356134bf816143b6565b929592945050506040919091013590565b600080600080608085870312156134e5578081fd5b84356134f0816143b6565b93506020850135613500816143b6565b925060408501359150606085013567ffffffffffffffff811115613522578182fd5b61352e878288016133d3565b91505092959194509250565b6000806040838503121561354c578182fd5b8235613557816143b6565b91506020830135613485816143cb565b60008060408385031215613579578182fd5b8235613584816143b6565b946020939093013593505050565b600080604083850312156135a4578182fd5b823567ffffffffffffffff808211156135bb578384fd5b6135c786838701613365565b93506020915081850135818111156135dd578384fd5b85019050601f810186136135ef578283fd5b80356135fd6133838261436a565b81815283810190838501865b84811015613632576136208b8884358901016133d3565b84529286019290860190600101613609565b5096999098509650505050505050565b60008060408385031215613654578182fd5b823567ffffffffffffffff8082111561366b578384fd5b61367786838701613365565b9350602085013591508082111561368c578283fd5b5061369985828601613365565b9150509250929050565b6000602082840312156136b4578081fd5b8151610dc3816143cb565b6000602082840312156136d0578081fd5b8135610dc3816143d9565b6000602082840312156136ec578081fd5b8151610dc3816143d9565b600060208284031215613708578081fd5b5035919050565b600060208284031215613720578081fd5b5051919050565b60008060408385031215613739578182fd5b50508035926020909101359150565b6000815180845261376081602086016020860161438a565b601f01601f19169290920160200192915050565b6000825161378681846020870161438a565b9190910192915050565b600083516137a281846020880161438a565b8351908301906137b681836020880161438a565b01949350505050565b6001600160a01b0391909116815260200190565b6001600160a01b038581168252841660208201526040810183905260806060820181905260009061380690830184613748565b9695505050505050565b6001600160a01b039384168152919092166020820152604081019190915260600190565b6001600160a01b03929092168252602082015260400190565b901515815260200190565b600060208252610dc36020830184613748565b60208082526022908201527f456e756d657261626c655365743a20696e646578206f7574206f6620626f756e604082015261647360f01b606082015260800190565b60208082526023908201527f4c6576656c206d757374206265203e203020616e64203c3d206d6178206c657660408201526232b61760e91b606082015260800190565b60208082526023908201527f4e6f7420656e6f756768207065726d697373696f6e7320666f7220746f6b656e60408201526210189760e91b606082015260800190565b60208082526032908201527f4552433732313a207472616e7366657220746f206e6f6e20455243373231526560408201527131b2b4bb32b91034b6b83632b6b2b73a32b960711b606082015260800190565b60208082526026908201527f4f776e61626c653a206e6577206f776e657220697320746865207a65726f206160408201526564647265737360d01b606082015260800190565b6020808252601c908201527f4552433732313a20746f6b656e20616c7265616479206d696e74656400000000604082015260600190565b6020808252604e908201527f4c6576656c2055524920617272617973206d75737420626520657175616c206960408201527f6e206e6f6e2d7a65726f206c656e67746820616e64206c6576656c2073686f7560608201526d36321039ba30b93a1030ba10181760911b608082015260a00190565b6020808252601b908201527f536166654d6174683a206164646974696f6e206f766572666c6f770000000000604082015260600190565b60208082526024908201527f4552433732313a207472616e7366657220746f20746865207a65726f206164646040820152637265737360e01b606082015260800190565b60208082526019908201527f4552433732313a20617070726f766520746f2063616c6c657200000000000000604082015260600190565b60208082526023908201527f4d6178206c6576656c2063616e277420626520686967686572207468616e203160408201526218181760e91b606082015260800190565b6020808252601e908201527f536166654d6174683a207375627472616374696f6e206f766572666c6f770000604082015260600190565b60208082526026908201527f416464726573733a20696e73756666696369656e742062616c616e636520666f6040820152651c8818d85b1b60d21b606082015260800190565b6020808252602c908201527f4552433732313a206f70657261746f7220717565727920666f72206e6f6e657860408201526b34b9ba32b73a103a37b5b2b760a11b606082015260800190565b6020808252601a908201527f536166654d6174683a206469766973696f6e206279207a65726f000000000000604082015260600190565b60208082526017908201527f4e6f7420656e6f756768207065726d697373696f6e732e000000000000000000604082015260600190565b6020808252601590820152742a37b5b2b7102aa9249034b99034b73b30b634b21760591b604082015260600190565b60208082526038908201527f4552433732313a20617070726f76652063616c6c6572206973206e6f74206f7760408201527f6e6572206e6f7220617070726f76656420666f7220616c6c0000000000000000606082015260800190565b6020808252602a908201527f4552433732313a2062616c616e636520717565727920666f7220746865207a65604082015269726f206164647265737360b01b606082015260800190565b6020808252600c908201526b2637b3b4b19032b93937b91760a11b604082015260600190565b60208082526022908201527f456e756d657261626c654d61703a20696e646578206f7574206f6620626f756e604082015261647360f01b606082015260800190565b60208082526023908201527f4c6576656c206d757374206265206c6f776572207468616e206d6178206c657660408201526232b61760e91b606082015260800190565b6020808252818101527f4552433732313a206d696e7420746f20746865207a65726f2061646472657373604082015260600190565b6020808252604d908201527f4d6178206c6576656c20617272617973206d75737420626520657175616c206960408201527f6e206e6f6e2d7a65726f206c656e67746820616e642074696d652073686f756c60608201526c321039ba30b93a1030ba10181760991b608082015260a00190565b60208082526021908201527f536166654d6174683a206d756c7469706c69636174696f6e206f766572666c6f6040820152607760f81b606082015260800190565b6020808252602c908201527f4552433732313a20617070726f76656420717565727920666f72206e6f6e657860408201526b34b9ba32b73a103a37b5b2b760a11b606082015260800190565b6020808252602c908201527f4552433732314d657461646174613a2055524920736574206f66206e6f6e657860408201526b34b9ba32b73a103a37b5b2b760a11b606082015260800190565b6020808252818101527f4f776e61626c653a2063616c6c6572206973206e6f7420746865206f776e6572604082015260600190565b60208082526029908201527f4552433732313a207472616e73666572206f6620746f6b656e2074686174206960408201526839903737ba1037bbb760b91b606082015260800190565b6020808252602f908201527f4552433732314d657461646174613a2055524920717565727920666f72206e6f60408201526e3732bc34b9ba32b73a103a37b5b2b760891b606082015260800190565b60208082526023908201527f4e6f7420656e6f756768207065726d697373696f6e7320666f7220746f6b656e60408201526210191760e91b606082015260800190565b60208082526021908201527f4552433732313a20617070726f76616c20746f2063757272656e74206f776e656040820152603960f91b606082015260800190565b60208082526018908201527f63616c6c6572206973206e6f7420617574686f72697a65640000000000000000604082015260600190565b60208082526039908201527f546f6f206d75636820746f20756e6c6f636b206e61747572616c6c792c20706c60408201527f656173652063616c6c20756e6c6f636b28292066697273742e00000000000000606082015260800190565b60208082526031908201527f4552433732313a207472616e736665722063616c6c6572206973206e6f74206f6040820152701ddb995c881b9bdc88185c1c1c9bdd9959607a1b606082015260800190565b6020808252601d908201527f416464726573733a2063616c6c20746f206e6f6e2d636f6e7472616374000000604082015260600190565b6020808252602a908201527f5361666545524332303a204552433230206f7065726174696f6e20646964206e6040820152691bdd081cdd58d8d9595960b21b606082015260800190565b60208082526026908201527f436f6e747261637447756172643a206f6e6520626c6f636b2c206f6e652066756040820152653731ba34b7b760d11b606082015260800190565b6020808252601690820152752a37b79032b0b9363c903a37903632bb32b6103ab81760511b604082015260600190565b60208082526025908201527f426f746820746f6b656e73206d7573742068617665207468652073616d65206f6040820152643bb732b91760d91b606082015260800190565b90815260200190565b918252602082015260400190565b9283526020830191909152604082015260600190565b60405181810167ffffffffffffffff8111828210171561436257600080fd5b604052919050565b600067ffffffffffffffff821115614380578081fd5b5060209081020190565b60005b838110156143a557818101518382015260200161438d565b8381111561183f5750506000910152565b6001600160a01b038116811461333057600080fd5b801515811461333057600080fd5b6001600160e01b03198116811461333057600080fdfe4552433732313a207472616e7366657220746f206e6f6e20455243373231526563656976657220696d706c656d656e7465724552433732313a206f776e657220717565727920666f72206e6f6e6578697374656e7420746f6b656ea2646970667358221220f238ee8b606fc51a80786a1811341f6885457582d5778746c34a9fb047bf228964736f6c634300060c0033",
  "linkReferences": {},
  "deployedLinkReferences": {}
}