{
  "_format": "hh-sol-artifact-1",
  "contractName": "TheoryUnlocker",
  "sourceName": "contracts/nfts/TheoryUnlocker.sol",
  "abi": [
    {
      "inputs": [
        {
          "internalType": "contract IERC20",
          "name": "_buy",
          "type": "address"
        },
        {
          "internalType": "uint256",
          "name": "_initialBuy",
          "type": "uint256"
        },
        {
          "internalType": "uint256",
          "name": "_buyPerLevel",
          "type": "uint256"
        },
        {
          "internalType": "contract IERC20Lockable",
          "name": "_theory",
          "type": "address"
        },
        {
          "internalType": "address",
          "name": "_communityFund",
          "type": "address"
        },
        {
          "internalType": "uint256[]",
          "name": "_maxLevelTime",
          "type": "uint256[]"
        },
        {
          "internalType": "uint256[]",
          "name": "_maxLevelLevel",
          "type": "uint256[]"
        },
        {
          "internalType": "uint256[]",
          "name": "_levelURIsLevel",
          "type": "uint256[]"
        },
        {
          "internalType": "string[]",
          "name": "_levelURIsURI",
          "type": "string[]"
        }
      ],
      "stateMutability": "nonpayable",
      "type": "constructor"
    },
    {
      "anonymous": false,
      "inputs": [
        {
          "indexed": true,
          "internalType": "address",
          "name": "owner",
          "type": "address"
        },
        {
          "indexed": true,
          "internalType": "address",
          "name": "approved",
          "type": "address"
        },
        {
          "indexed": true,
          "internalType": "uint256",
          "name": "tokenId",
          "type": "uint256"
        }
      ],
      "name": "Approval",
      "type": "event"
    },
    {
      "anonymous": false,
      "inputs": [
        {
          "indexed": true,
          "internalType": "address",
          "name": "owner",
          "type": "address"
        },
        {
          "indexed": true,
          "internalType": "address",
          "name": "operator",
          "type": "address"
        },
        {
          "indexed": false,
          "internalType": "bool",
          "name": "approved",
          "type": "bool"
        }
      ],
      "name": "ApprovalForAll",
      "type": "event"
    },
    {
      "anonymous": false,
      "inputs": [
        {
          "indexed": true,
          "internalType": "address",
          "name": "previousOwner",
          "type": "address"
        },
        {
          "indexed": true,
          "internalType": "address",
          "name": "newOwner",
          "type": "address"
        }
      ],
      "name": "OwnershipTransferred",
      "type": "event"
    },
    {
      "anonymous": false,
      "inputs": [
        {
          "indexed": true,
          "internalType": "address",
          "name": "from",
          "type": "address"
        },
        {
          "indexed": true,
          "internalType": "address",
          "name": "to",
          "type": "address"
        },
        {
          "indexed": true,
          "internalType": "uint256",
          "name": "tokenId",
          "type": "uint256"
        }
      ],
      "name": "Transfer",
      "type": "event"
    },
    {
      "inputs": [
        {
          "internalType": "address",
          "name": "_toAdd",
          "type": "address"
        }
      ],
      "name": "addAuthorized",
      "outputs": [],
      "stateMutability": "nonpayable",
      "type": "function"
    },
    {
      "inputs": [
        {
          "internalType": "address",
          "name": "to",
          "type": "address"
        },
        {
          "internalType": "uint256",
          "name": "tokenId",
          "type": "uint256"
        }
      ],
      "name": "approve",
      "outputs": [],
      "stateMutability": "nonpayable",
      "type": "function"
    },
    {
      "inputs": [
        {
          "internalType": "address",
          "name": "",
          "type": "address"
        }
      ],
      "name": "authorized",
      "outputs": [
        {
          "internalType": "bool",
          "name": "",
          "type": "bool"
        }
      ],
      "stateMutability": "view",
      "type": "function"
    },
    {
      "inputs": [
        {
          "internalType": "address",
          "name": "owner",
          "type": "address"
        }
      ],
      "name": "balanceOf",
      "outputs": [
        {
          "internalType": "uint256",
          "name": "",
          "type": "uint256"
        }
      ],
      "stateMutability": "view",
      "type": "function"
    },
    {
      "inputs": [],
      "name": "baseURI",
      "outputs": [
        {
          "internalType": "string",
          "name": "",
          "type": "string"
        }
      ],
      "stateMutability": "view",
      "type": "function"
    },
    {
      "inputs": [],
      "name": "buyToken",
      "outputs": [
        {
          "internalType": "contract IERC20",
          "name": "",
          "type": "address"
        }
      ],
      "stateMutability": "view",
      "type": "function"
    },
    {
      "inputs": [],
      "name": "buyTokenPerLevel",
      "outputs": [
        {
          "internalType": "uint256",
          "name": "",
          "type": "uint256"
        }
      ],
      "stateMutability": "view",
      "type": "function"
    },
    {
      "inputs": [],
      "name": "communityFund",
      "outputs": [
        {
          "internalType": "address",
          "name": "",
          "type": "address"
        }
      ],
      "stateMutability": "view",
      "type": "function"
    },
    {
      "inputs": [
        {
          "internalType": "uint256",
          "name": "level",
          "type": "uint256"
        }
      ],
      "name": "costOf",
      "outputs": [
        {
          "internalType": "uint256",
          "name": "",
          "type": "uint256"
        }
      ],
      "stateMutability": "view",
      "type": "function"
    },
    {
      "inputs": [
        {
          "internalType": "uint256",
          "name": "tokenId",
          "type": "uint256"
        }
      ],
      "name": "getApproved",
      "outputs": [
        {
          "internalType": "address",
          "name": "",
          "type": "address"
        }
      ],
      "stateMutability": "view",
      "type": "function"
    },
    {
      "inputs": [],
      "name": "initialPrice",
      "outputs": [
        {
          "internalType": "uint256",
          "name": "",
          "type": "uint256"
        }
      ],
      "stateMutability": "view",
      "type": "function"
    },
    {
      "inputs": [
        {
          "internalType": "address",
          "name": "owner",
          "type": "address"
        },
        {
          "internalType": "address",
          "name": "operator",
          "type": "address"
        }
      ],
      "name": "isApprovedForAll",
      "outputs": [
        {
          "internalType": "bool",
          "name": "",
          "type": "bool"
        }
      ],
      "stateMutability": "view",
      "type": "function"
    },
    {
      "inputs": [
        {
          "internalType": "uint256",
          "name": "level",
          "type": "uint256"
        }
      ],
      "name": "levelURI",
      "outputs": [
        {
          "internalType": "string",
          "name": "",
          "type": "string"
        }
      ],
      "stateMutability": "view",
      "type": "function"
    },
    {
      "inputs": [
        {
          "internalType": "uint256",
          "name": "",
          "type": "uint256"
        }
      ],
      "name": "levelURIsLevel",
      "outputs": [
        {
          "internalType": "uint256",
          "name": "",
          "type": "uint256"
        }
      ],
      "stateMutability": "view",
      "type": "function"
    },
    {
      "inputs": [
        {
          "internalType": "uint256",
          "name": "",
          "type": "uint256"
        }
      ],
      "name": "levelURIsURI",
      "outputs": [
        {
          "internalType": "string",
          "name": "",
          "type": "string"
        }
      ],
      "stateMutability": "view",
      "type": "function"
    },
    {
      "inputs": [
        {
          "internalType": "uint256",
          "name": "tokenId",
          "type": "uint256"
        }
      ],
      "name": "levelUp",
      "outputs": [],
      "stateMutability": "nonpayable",
      "type": "function"
    },
    {
      "inputs": [],
      "name": "maxLevel",
      "outputs": [
        {
          "internalType": "uint256",
          "name": "",
          "type": "uint256"
        }
      ],
      "stateMutability": "view",
      "type": "function"
    },
    {
      "inputs": [
        {
          "internalType": "uint256",
          "name": "",
          "type": "uint256"
        }
      ],
      "name": "maxLevelLevel",
      "outputs": [
        {
          "internalType": "uint256",
          "name": "",
          "type": "uint256"
        }
      ],
      "stateMutability": "view",
      "type": "function"
    },
    {
      "inputs": [
        {
          "internalType": "uint256",
          "name": "",
          "type": "uint256"
        }
      ],
      "name": "maxLevelTime",
      "outputs": [
        {
          "internalType": "uint256",
          "name": "",
          "type": "uint256"
        }
      ],
      "stateMutability": "view",
      "type": "function"
    },
    {
      "inputs": [
        {
          "internalType": "uint256",
          "name": "tokenId1",
          "type": "uint256"
        },
        {
          "internalType": "uint256",
          "name": "tokenId2",
          "type": "uint256"
        }
      ],
      "name": "merge",
      "outputs": [
        {
          "internalType": "uint256",
          "name": "",
          "type": "uint256"
        }
      ],
      "stateMutability": "nonpayable",
      "type": "function"
    },
    {
      "inputs": [
        {
          "internalType": "uint256",
          "name": "level",
          "type": "uint256"
        }
      ],
      "name": "mint",
      "outputs": [
        {
          "internalType": "uint256",
          "name": "",
          "type": "uint256"
        }
      ],
      "stateMutability": "nonpayable",
      "type": "function"
    },
    {
      "inputs": [],
      "name": "name",
      "outputs": [
        {
          "internalType": "string",
          "name": "",
          "type": "string"
        }
      ],
      "stateMutability": "view",
      "type": "function"
    },
    {
      "inputs": [
        {
          "internalType": "uint256",
          "name": "tokenId",
          "type": "uint256"
        }
      ],
      "name": "nextLevelTime",
      "outputs": [
        {
          "internalType": "uint256",
          "name": "",
          "type": "uint256"
        }
      ],
      "stateMutability": "view",
      "type": "function"
    },
    {
      "inputs": [
        {
          "internalType": "uint256",
          "name": "tokenId",
          "type": "uint256"
        }
      ],
      "name": "nftUnlock",
      "outputs": [],
      "stateMutability": "nonpayable",
      "type": "function"
    },
    {
      "inputs": [],
      "name": "owner",
      "outputs": [
        {
          "internalType": "address",
          "name": "",
          "type": "address"
        }
      ],
      "stateMutability": "view",
      "type": "function"
    },
    {
      "inputs": [
        {
          "internalType": "uint256",
          "name": "tokenId",
          "type": "uint256"
        }
      ],
      "name": "ownerOf",
      "outputs": [
        {
          "internalType": "address",
          "name": "",
          "type": "address"
        }
      ],
      "stateMutability": "view",
      "type": "function"
    },
    {
      "inputs": [
        {
          "internalType": "address",
          "name": "_toRemove",
          "type": "address"
        }
      ],
      "name": "removeAuthorized",
      "outputs": [],
      "stateMutability": "nonpayable",
      "type": "function"
    },
    {
      "inputs": [],
      "name": "renounceOwnership",
      "outputs": [],
      "stateMutability": "nonpayable",
      "type": "function"
    },
    {
      "inputs": [
        {
          "internalType": "address",
          "name": "from",
          "type": "address"
        },
        {
          "internalType": "address",
          "name": "to",
          "type": "address"
        },
        {
          "internalType": "uint256",
          "name": "tokenId",
          "type": "uint256"
        }
      ],
      "name": "safeTransferFrom",
      "outputs": [],
      "stateMutability": "nonpayable",
      "type": "function"
    },
    {
      "inputs": [
        {
          "internalType": "address",
          "name": "from",
          "type": "address"
        },
        {
          "internalType": "address",
          "name": "to",
          "type": "address"
        },
        {
          "internalType": "uint256",
          "name": "tokenId",
          "type": "uint256"
        },
        {
          "internalType": "bytes",
          "name": "_data",
          "type": "bytes"
        }
      ],
      "name": "safeTransferFrom",
      "outputs": [],
      "stateMutability": "nonpayable",
      "type": "function"
    },
    {
      "inputs": [
        {
          "internalType": "address",
          "name": "operator",
          "type": "address"
        },
        {
          "internalType": "bool",
          "name": "approved",
          "type": "bool"
        }
      ],
      "name": "setApprovalForAll",
      "outputs": [],
      "stateMutability": "nonpayable",
      "type": "function"
    },
    {
      "inputs": [
        {
          "internalType": "contract IERC20",
          "name": "_buy",
          "type": "address"
        }
      ],
      "name": "setBuyToken",
      "outputs": [],
      "stateMutability": "nonpayable",
      "type": "function"
    },
    {
      "inputs": [
        {
          "internalType": "uint256",
          "name": "_perLevel",
          "type": "uint256"
        }
      ],
      "name": "setBuyTokenPerLevel",
      "outputs": [],
      "stateMutability": "nonpayable",
      "type": "function"
    },
    {
      "inputs": [
        {
          "internalType": "address",
          "name": "_fund",
          "type": "address"
        }
      ],
      "name": "setCommunityFund",
      "outputs": [],
      "stateMutability": "nonpayable",
      "type": "function"
    },
    {
      "inputs": [
        {
          "internalType": "uint256",
          "name": "tokenId",
          "type": "uint256"
        },
        {
          "internalType": "uint256",
          "name": "time",
          "type": "uint256"
        }
      ],
      "name": "setCreationTime",
      "outputs": [],
      "stateMutability": "nonpayable",
      "type": "function"
    },
    {
      "inputs": [
        {
          "internalType": "uint256",
          "name": "_initial",
          "type": "uint256"
        }
      ],
      "name": "setInitialPrice",
      "outputs": [],
      "stateMutability": "nonpayable",
      "type": "function"
    },
    {
      "inputs": [
        {
          "internalType": "uint256",
          "name": "tokenId",
          "type": "uint256"
        },
        {
          "internalType": "uint256",
          "name": "time",
          "type": "uint256"
        }
      ],
      "name": "setLastLevelTime",
      "outputs": [],
      "stateMutability": "nonpayable",
      "type": "function"
    },
    {
      "inputs": [
        {
          "internalType": "address",
          "name": "user",
          "type": "address"
        },
        {
          "internalType": "uint256",
          "name": "amount",
          "type": "uint256"
        }
      ],
      "name": "setLastLockAmount",
      "outputs": [],
      "stateMutability": "nonpayable",
      "type": "function"
    },
    {
      "inputs": [
        {
          "internalType": "address",
          "name": "user",
          "type": "address"
        },
        {
          "internalType": "uint256",
          "name": "time",
          "type": "uint256"
        }
      ],
      "name": "setLastUnlockTime",
      "outputs": [],
      "stateMutability": "nonpayable",
      "type": "function"
    },
    {
      "inputs": [
        {
          "internalType": "uint256[]",
          "name": "_levelURIsLevel",
          "type": "uint256[]"
        },
        {
          "internalType": "string[]",
          "name": "_levelURIsURI",
          "type": "string[]"
        }
      ],
      "name": "setLevelURIs",
      "outputs": [],
      "stateMutability": "nonpayable",
      "type": "function"
    },
    {
      "inputs": [
        {
          "internalType": "uint256[]",
          "name": "_maxLevelTime",
          "type": "uint256[]"
        },
        {
          "internalType": "uint256[]",
          "name": "_maxLevelLevel",
          "type": "uint256[]"
        }
      ],
      "name": "setMaxLevel",
      "outputs": [],
      "stateMutability": "nonpayable",
      "type": "function"
    },
    {
      "inputs": [
        {
          "internalType": "uint256",
          "name": "_time",
          "type": "uint256"
        }
      ],
      "name": "setTimeToLevel",
      "outputs": [],
      "stateMutability": "nonpayable",
      "type": "function"
    },
    {
      "inputs": [
        {
          "internalType": "uint256",
          "name": "tokenId",
          "type": "uint256"
        },
        {
          "internalType": "uint256",
          "name": "level",
          "type": "uint256"
        }
      ],
      "name": "setTokenLevel",
      "outputs": [],
      "stateMutability": "nonpayable",
      "type": "function"
    },
    {
      "inputs": [
        {
          "internalType": "bytes4",
          "name": "interfaceId",
          "type": "bytes4"
        }
      ],
      "name": "supportsInterface",
      "outputs": [
        {
          "internalType": "bool",
          "name": "",
          "type": "bool"
        }
      ],
      "stateMutability": "view",
      "type": "function"
    },
    {
      "inputs": [],
      "name": "symbol",
      "outputs": [
        {
          "internalType": "string",
          "name": "",
          "type": "string"
        }
      ],
      "stateMutability": "view",
      "type": "function"
    },
    {
      "inputs": [],
      "name": "theory",
      "outputs": [
        {
          "internalType": "contract IERC20Lockable",
          "name": "",
          "type": "address"
        }
      ],
      "stateMutability": "view",
      "type": "function"
    },
    {
      "inputs": [
        {
          "internalType": "uint256",
          "name": "tokenId",
          "type": "uint256"
        }
      ],
      "name": "timeLeftToLevel",
      "outputs": [
        {
          "internalType": "uint256",
          "name": "",
          "type": "uint256"
        }
      ],
      "stateMutability": "view",
      "type": "function"
    },
    {
      "inputs": [],
      "name": "timeToLevel",
      "outputs": [
        {
          "internalType": "uint256",
          "name": "",
          "type": "uint256"
        }
      ],
      "stateMutability": "view",
      "type": "function"
    },
    {
      "inputs": [
        {
          "internalType": "uint256",
          "name": "index",
          "type": "uint256"
        }
      ],
      "name": "tokenByIndex",
      "outputs": [
        {
          "internalType": "uint256",
          "name": "",
          "type": "uint256"
        }
      ],
      "stateMutability": "view",
      "type": "function"
    },
    {
      "inputs": [
        {
          "internalType": "uint256",
          "name": "",
          "type": "uint256"
        }
      ],
      "name": "tokenInfo",
      "outputs": [
        {
          "internalType": "uint256",
          "name": "level",
          "type": "uint256"
        },
        {
          "internalType": "uint256",
          "name": "creationTime",
          "type": "uint256"
        },
        {
          "internalType": "uint256",
          "name": "lastLevelTime",
          "type": "uint256"
        }
      ],
      "stateMutability": "view",
      "type": "function"
    },
    {
      "inputs": [
        {
          "internalType": "address",
          "name": "owner",
          "type": "address"
        },
        {
          "internalType": "uint256",
          "name": "index",
          "type": "uint256"
        }
      ],
      "name": "tokenOfOwnerByIndex",
      "outputs": [
        {
          "internalType": "uint256",
          "name": "",
          "type": "uint256"
        }
      ],
      "stateMutability": "view",
      "type": "function"
    },
    {
      "inputs": [
        {
          "internalType": "uint256",
          "name": "tokenId",
          "type": "uint256"
        }
      ],
      "name": "tokenURI",
      "outputs": [
        {
          "internalType": "string",
          "name": "",
          "type": "string"
        }
      ],
      "stateMutability": "view",
      "type": "function"
    },
    {
      "inputs": [],
      "name": "totalSupply",
      "outputs": [
        {
          "internalType": "uint256",
          "name": "",
          "type": "uint256"
        }
      ],
      "stateMutability": "view",
      "type": "function"
    },
    {
      "inputs": [
        {
          "internalType": "address",
          "name": "from",
          "type": "address"
        },
        {
          "internalType": "address",
          "name": "to",
          "type": "address"
        },
        {
          "internalType": "uint256",
          "name": "tokenId",
          "type": "uint256"
        }
      ],
      "name": "transferFrom",
      "outputs": [],
      "stateMutability": "nonpayable",
      "type": "function"
    },
    {
      "inputs": [
        {
          "internalType": "address",
          "name": "newOwner",
          "type": "address"
        }
      ],
      "name": "transferOwnership",
      "outputs": [],
      "stateMutability": "nonpayable",
      "type": "function"
    },
    {
      "inputs": [
        {
          "internalType": "address",
          "name": "",
          "type": "address"
        }
      ],
      "name": "userInfo",
      "outputs": [
        {
          "internalType": "uint256",
          "name": "lastUnlockTime",
          "type": "uint256"
        },
        {
          "internalType": "uint256",
          "name": "lastLockAmount",
          "type": "uint256"
        }
      ],
      "stateMutability": "view",
      "type": "function"
    }
  ],
  "bytecode": "0x60806040523480156200001157600080fd5b5060405162004bdd38038062004bdd83398101604081905262000034916200063c565b604080518082018252600f81526e2a2422a7a92c902ab73637b1b5b2b960891b60208083019190915282518084019093526002835261475560f01b9083015290620000866301ffc9a760e01b6200030c565b81516200009b90600690602085019062000362565b508051620000b190600790602084019062000362565b50620000c46380ac58cd60e01b6200030c565b620000d6635b5e139f60e01b6200030c565b620000e863780e9d6360e01b6200030c565b5060009050620000f76200035e565b600a80546001600160a01b0319166001600160a01b038316908117909155604051919250906000907f8be0079c531659141344cd1fd0a4f28419497f9722a3daafe3b4186f6b6457e0908290a350601480546001600160a01b0319166001600160a01b038b1617905560158890556016879055815115801590620001905750816000815181106200018457fe5b60200260200101516000145b80156200019e575081518151145b620001c65760405162461bcd60e51b8152600401620001bd9062000777565b60405180910390fd5b60008451118015620001ed575083600081518110620001e157fe5b60200260200101516000145b8015620001fb575083518351145b6200021a5760405162461bcd60e51b8152600401620001bd906200082e565b82516000905b808210156200026d5760648583815181106200023857fe5b60200260200101511115620002615760405162461bcd60e51b8152600401620001bd90620007eb565b60018201915062000220565b835162000282906010906020870190620003e7565b5082516200029890601190602086019062000424565b508551620002ae906012906020890190620003e7565b508451620002c4906013906020880190620003e7565b5050601780546001600160a01b039788166001600160a01b0319918216179091556203f4806018556019805498909716971696909617909455506200093f9650505050505050565b6001600160e01b03198082161415620003395760405162461bcd60e51b8152600401620001bd9062000740565b6001600160e01b0319166000908152602081905260409020805460ff19166001179055565b3390565b828054600181600116156101000203166002900490600052602060002090601f016020900481019282601f10620003a557805160ff1916838001178555620003d5565b82800160010185558215620003d5579182015b82811115620003d5578251825591602001919060010190620003b8565b50620003e392915062000484565b5090565b828054828255906000526020600020908101928215620003d55791602002820182811115620003d5578251825591602001919060010190620003b8565b82805482825590600052602060002090810192821562000476579160200282015b828111156200047657825180516200046591849160209091019062000362565b509160200191906001019062000445565b50620003e39291506200049b565b5b80821115620003e3576000815560010162000485565b80821115620003e3576000620004b28282620004bc565b506001016200049b565b50805460018160011615610100020316600290046000825580601f10620004e4575062000504565b601f01602090049060005260206000209081019062000504919062000484565b50565b80516001600160a01b03811681146200051f57600080fd5b92915050565b600082601f83011262000536578081fd5b81516200054d6200054782620008c8565b620008a1565b818152915060208083019084810160005b84811015620005cc578151870188603f8201126200057b57600080fd5b838101516200058e6200054782620008e8565b81815260408b81848601011115620005a557600080fd5b620005b6838884018387016200090c565b508652505092820192908201906001016200055e565b505050505092915050565b600082601f830112620005e8578081fd5b8151620005f96200054782620008c8565b8181529150602080830190848101818402860182018710156200061b57600080fd5b60005b84811015620005cc578151845292820192908201906001016200061e565b60008060008060008060008060006101208a8c0312156200065b578485fd5b620006678b8b62000507565b985060208a0151975060408a01519650620006868b60608c0162000507565b9550620006978b60808c0162000507565b60a08b01519095506001600160401b0380821115620006b4578586fd5b620006c28d838e01620005d7565b955060c08c0151915080821115620006d8578485fd5b620006e68d838e01620005d7565b945060e08c0151915080821115620006fc578384fd5b6200070a8d838e01620005d7565b93506101008c015191508082111562000721578283fd5b50620007308c828d0162000525565b9150509295985092959850929598565b6020808252601c908201527f4552433136353a20696e76616c696420696e7465726661636520696400000000604082015260600190565b6020808252604e908201527f4c6576656c2055524920617272617973206d75737420626520657175616c206960408201527f6e206e6f6e2d7a65726f206c656e67746820616e64206c6576656c2073686f7560608201526d36321039ba30b93a1030ba10181760911b608082015260a00190565b60208082526023908201527f4d6178206c6576656c2063616e277420626520686967686572207468616e203160408201526218181760e91b606082015260800190565b6020808252604d908201527f4d6178206c6576656c20617272617973206d75737420626520657175616c206960408201527f6e206e6f6e2d7a65726f206c656e67746820616e642074696d652073686f756c60608201526c321039ba30b93a1030ba10181760991b608082015260a00190565b6040518181016001600160401b0381118282101715620008c057600080fd5b604052919050565b60006001600160401b03821115620008de578081fd5b5060209081020190565b60006001600160401b03821115620008fe578081fd5b50601f01601f191660200190565b60005b83811015620009295781810151838201526020016200090f565b8381111562000939576000848401525b50505050565b61428e806200094f6000396000f3fe608060405234801561001057600080fd5b50600436106103775760003560e01c80637001e2a6116101d3578063c87b56dd11610104578063d8cab4a9116100a2578063e985e9c51161007c578063e985e9c514610725578063ec3ddf3014610738578063f2fde38b1461074b578063fd3265921461075e57610377565b8063d8cab4a9146106ec578063db357c30146106ff578063dd289dcb1461071257610377565b8063cc33c875116100de578063cc33c87514610691578063cc67d1ae146106b3578063cf1c316a146106c6578063d1c2babb146106d957610377565b8063c87b56dd14610663578063ca60567a14610676578063cc06c3591461068957610377565b80639f4ba0ee11610171578063a48217191161014b578063a482171914610622578063aa08279c1461062a578063b88d4fde1461063d578063b91816111461065057610377565b80639f4ba0ee146105e9578063a0712d68146105fc578063a22cb4651461060f57610377565b8063715018a6116101ad578063715018a6146105be5780638a1165b3146105c65780638da5cb5b146105d957806395d89b41146105e157610377565b80637001e2a61461058557806370a082311461059857806371167122146105ab57610377565b80632f745c59116102ad57806347aebf9a1161024b57806358df38251161022557806358df3825146105445780635b2f4ed4146105575780636352211e1461056a5780636c0360eb1461057d57610377565b806347aebf9a14610516578063485d7d941461051e5780634f6ccce71461053157610377565b80633bcafb63116102875780633bcafb63146104d55780633c32a450146104e85780633f684d38146104f057806342842e0e1461050357610377565b80632f745c591461049c57806337339a16146104af57806338d17099146104c257610377565b806318160ddd1161031a57806323b872dd116102f457806323b872dd1461045b578063257c739b1461046e5780632bac9689146104765780632eb552f31461048957610377565b806318160ddd1461042a5780631959a002146104325780631d0806ae1461045357610377565b8063081437961161035657806308143796146103cf578063081812fc146103ef578063095ea7b3146104025780630ce90ec21461041757610377565b8062f380f41461037c57806301ffc9a71461039a57806306fdde03146103ba575b600080fd5b610384610771565b60405161039191906135cd565b60405180910390f35b6103ad6103a83660046134cd565b610780565b604051610391919061365b565b6103c26107a3565b6040516103919190613666565b6103e26103dd366004613505565b610839565b6040516103919190614124565b6103846103fd366004613505565b610857565b610415610410366004613375565b6108a3565b005b610415610425366004613505565b61093b565b6103e2610af1565b61044561044036600461324a565b610b02565b60405161039192919061412d565b6103e2610b1b565b61041561046936600461329e565b610b21565b6103e2610b59565b610415610484366004613505565b610b5f565b6103e2610497366004613505565b610bad565b6103e26104aa366004613375565b610bba565b6104156104bd36600461324a565b610be5565b6103c26104d0366004613505565b610c50565b6103e26104e3366004613505565b610d50565b610384610d5d565b6103e26104fe366004613505565b610d6c565b61041561051136600461329e565b610db2565b6103e2610dcd565b61041561052c36600461324a565b610dd3565b6103e261053f366004613505565b610e49565b610415610552366004613375565b610e5f565b6103c2610565366004613505565b610ec7565b610384610578366004613505565b610f6d565b6103c2610f95565b610415610593366004613375565b610ff6565b6103e26105a636600461324a565b61105b565b6104156105b9366004613535565b6110a4565b610415611102565b6104156105d436600461324a565b61118b565b6103846111f6565b6103c2611205565b6104156105f7366004613505565b611266565b6103e261060a366004613505565b6112b4565b61041561061d366004613348565b611439565b610384611507565b610415610638366004613450565b611516565b61041561064b3660046132de565b611628565b6103ad61065e36600461324a565b611667565b6103c2610671366004613505565b61167c565b610415610684366004613535565b6117c2565b6103e2611850565b6106a461069f366004613505565b6118b8565b6040516103919392919061413b565b6104156106c1366004613535565b6118d9565b6104156106d436600461324a565b611937565b6103e26106e7366004613535565b61199a565b6104156106fa3660046133a0565b611c22565b61041561070d366004613505565b611ce0565b610415610720366004613505565b61218d565b6103ad610733366004613266565b6121db565b6103e2610746366004613505565b612209565b61041561075936600461324a565b61222a565b6103e261076c366004613505565b6122eb565b6017546001600160a01b031681565b6001600160e01b0319811660009081526020819052604090205460ff165b919050565b60068054604080516020601f600260001961010060018816150201909516949094049384018190048102820181019092528281526060939092909183018282801561082f5780601f106108045761010080835404028352916020019161082f565b820191906000526020600020905b81548152906001019060200180831161081257829003601f168201915b5050505050905090565b6013818154811061084657fe5b600091825260209091200154905081565b6000610862826122fe565b6108875760405162461bcd60e51b815260040161087e90613d1a565b60405180910390fd5b506000908152600460205260409020546001600160a01b031690565b60006108ae82610f6d565b9050806001600160a01b0316836001600160a01b031614156108e25760405162461bcd60e51b815260040161087e90613ec2565b806001600160a01b03166108f461230b565b6001600160a01b0316148061091057506109108161073361230b565b61092c5760405162461bcd60e51b815260040161087e90613adf565b610936838361230f565b505050565b61094361237d565b156109605760405162461bcd60e51b815260040161087e90614069565b61096861239e565b156109855760405162461bcd60e51b815260040161087e90614069565b3361098f82610f6d565b6001600160a01b031614806109b35750336000908152600b602052604090205460ff165b806109cd5750336109c26111f6565b6001600160a01b0316145b6109e95760405162461bcd60e51b815260040161087e90613a79565b6000818152600e602052604090206109ff611850565b815410610a1e5760405162461bcd60e51b815260040161087e90613bee565b6000610a3960185483600201546123bf90919063ffffffff16565b905080421015610a5b5760405162461bcd60e51b815260040161087e906140af565b600282018190558154600090610a729060016123bf565b80845590506060610a8282610c50565b90506000815111610aa55760405162461bcd60e51b815260040161087e90613ab0565b610aaf85826123e4565b5050436000908152600c602090815260408083203284529091528082208054600160ff1991821681179092553384529190922080549091169091179055505050565b6000610afd6002612428565b905090565b600f602052600090815260409020805460019091015482565b60155481565b610b32610b2c61230b565b82612433565b610b4e5760405162461bcd60e51b815260040161087e90613f97565b6109368383836124b8565b60165481565b336000908152600b602052604090205460ff1680610b8c575033610b816111f6565b6001600160a01b0316145b610ba85760405162461bcd60e51b815260040161087e90613f03565b601655565b6010818154811061084657fe5b6001600160a01b0382166000908152600160205260408120610bdc90836125c6565b90505b92915050565b336000908152600b602052604090205460ff1680610c12575033610c076111f6565b6001600160a01b0316145b610c2e5760405162461bcd60e51b815260040161087e90613f03565b601780546001600160a01b0319166001600160a01b0392909216919091179055565b604080516020810190915260008082526010546060929181905b8115610d465760018203905060108181548110610c8357fe5b90600052602060002001548610610d3b5760118181548110610ca157fe5b600091825260209182902001805460408051601f6002600019610100600187161502019094169390930492830185900485028101850190915281815292830182828015610d2f5780601f10610d0457610100808354040283529160200191610d2f565b820191906000526020600020905b815481529060010190602001808311610d1257829003601f168201915b50505050509350610d46565b600182039150610c6a565b5091949350505050565b6012818154811061084657fe5b6019546001600160a01b031681565b6018546000828152600e602052604081206002015490918291610d8e916123bf565b9050804210610da157600091505061079e565b610dab81426125d2565b9392505050565b61093683838360405180602001604052806000815250611628565b60185481565b610ddb61230b565b6001600160a01b0316610dec6111f6565b6001600160a01b031614610e125760405162461bcd60e51b815260040161087e90613db2565b6001600160a01b038116331415610e2857600080fd5b6001600160a01b03166000908152600b60205260409020805460ff19169055565b600080610e576002846125fa565b509392505050565b336000908152600b602052604090205460ff1680610e8c575033610e816111f6565b6001600160a01b0316145b610ea85760405162461bcd60e51b815260040161087e90613f03565b6001600160a01b039091166000908152600f6020526040902060010155565b60118181548110610ed457fe5b600091825260209182902001805460408051601f6002600019610100600187161502019094169390930492830185900485028101850190915281815293509091830182828015610f655780601f10610f3a57610100808354040283529160200191610f65565b820191906000526020600020905b815481529060010190602001808311610f4857829003601f168201915b505050505081565b6000610bdf826040518060600160405280602981526020016142306029913960029190612616565b60098054604080516020601f600260001961010060018816150201909516949094049384018190048102820181019092528281526060939092909183018282801561082f5780601f106108045761010080835404028352916020019161082f565b336000908152600b602052604090205460ff16806110235750336110186111f6565b6001600160a01b0316145b61103f5760405162461bcd60e51b815260040161087e90613f03565b6001600160a01b039091166000908152600f6020526040902055565b60006001600160a01b0382166110835760405162461bcd60e51b815260040161087e90613b3c565b6001600160a01b0382166000908152600160205260409020610bdf90612428565b336000908152600b602052604090205460ff16806110d15750336110c66111f6565b6001600160a01b0316145b6110ed5760405162461bcd60e51b815260040161087e90613f03565b6000918252600e602052604090912060010155565b61110a61230b565b6001600160a01b031661111b6111f6565b6001600160a01b0316146111415760405162461bcd60e51b815260040161087e90613db2565b600a546040516000916001600160a01b0316907f8be0079c531659141344cd1fd0a4f28419497f9722a3daafe3b4186f6b6457e0908390a3600a80546001600160a01b0319169055565b336000908152600b602052604090205460ff16806111b85750336111ad6111f6565b6001600160a01b0316145b6111d45760405162461bcd60e51b815260040161087e90613f03565b601480546001600160a01b0319166001600160a01b0392909216919091179055565b600a546001600160a01b031690565b60078054604080516020601f600260001961010060018816150201909516949094049384018190048102820181019092528281526060939092909183018282801561082f5780601f106108045761010080835404028352916020019161082f565b336000908152600b602052604090205460ff16806112935750336112886111f6565b6001600160a01b0316145b6112af5760405162461bcd60e51b815260040161087e90613f03565b601555565b60006112be61237d565b156112db5760405162461bcd60e51b815260040161087e90614069565b6112e361239e565b156113005760405162461bcd60e51b815260040161087e90614069565b6000821180156113175750611313611850565b8211155b6113335760405162461bcd60e51b815260040161087e906136bb565b3360006113596113506113478660016125d2565b60165490612623565b601554906123bf565b60175460145491925061137b916001600160a01b03908116913391168461265d565b611385600d6126b5565b6000611391600d6126be565b6000818152600e60205260409020426001820181905560028201559091506113b984836126c2565b85815560606113c787610c50565b905060008151116113ea5760405162461bcd60e51b815260040161087e90613ab0565b6113f483826123e4565b5050436000908152600c602090815260408083203284529091528082208054600160ff1991821681179092553384529190922080549091169091179055949350505050565b61144161230b565b6001600160a01b0316826001600160a01b031614156114725760405162461bcd60e51b815260040161087e906138ff565b806005600061147f61230b565b6001600160a01b03908116825260208083019390935260409182016000908120918716808252919093529120805460ff1916921515929092179091556114c361230b565b6001600160a01b03167f17307eab39ab6107e8899845ad3d59bd9653f200f220920489ca2b5937696c31836040516114fb919061365b565b60405180910390a35050565b6014546001600160a01b031681565b336000908152600b602052604090205460ff16806115435750336115386111f6565b6001600160a01b0316145b61155f5760405162461bcd60e51b815260040161087e90613f03565b6000825111801561158457508160008151811061157857fe5b60200260200101516000145b8015611591575081518151145b6115ad5760405162461bcd60e51b815260040161087e90613c66565b80516000905b808210156115fa5760648383815181106115c957fe5b602002602001015111156115ef5760405162461bcd60e51b815260040161087e90613936565b6001820191506115b3565b835161160d906012906020870190612fe9565b508251611621906013906020860190612fe9565b5050505050565b61163961163361230b565b83612433565b6116555760405162461bcd60e51b815260040161087e90613f97565b61166184848484612786565b50505050565b600b6020526000908152604090205460ff1681565b6060611687826122fe565b6116a35760405162461bcd60e51b815260040161087e90613e30565b60008281526008602090815260409182902080548351601f60026000196101006001861615020190931692909204918201849004840281018401909452808452606093928301828280156117385780601f1061170d57610100808354040283529160200191611738565b820191906000526020600020905b81548152906001019060200180831161171b57829003601f168201915b505050505090506060611749610f95565b905080516000141561175d5750905061079e565b81511561178f57808260405160200161177792919061359e565b6040516020818303038152906040529250505061079e565b80611799856127b9565b6040516020016117aa92919061359e565b60405160208183030381529060405292505050919050565b336000908152600b602052604090205460ff16806117ef5750336117e46111f6565b6001600160a01b0316145b61180b5760405162461bcd60e51b815260040161087e90613f03565b600081118015611822575061181e611850565b8111155b61183e5760405162461bcd60e51b815260040161087e906136bb565b6000918252600e602052604090912055565b601254600090819080825b81156118af576001820390506012818154811061187457fe5b906000526020600020015442106118a4576013818154811061189257fe5b906000526020600020015493506118af565b60018203915061185b565b50919250505090565b600e6020526000908152604090208054600182015460029092015490919083565b336000908152600b602052604090205460ff16806119065750336118fb6111f6565b6001600160a01b0316145b6119225760405162461bcd60e51b815260040161087e90613f03565b6000918252600e602052604090912060020155565b61193f61230b565b6001600160a01b03166119506111f6565b6001600160a01b0316146119765760405162461bcd60e51b815260040161087e90613db2565b6001600160a01b03166000908152600b60205260409020805460ff19166001179055565b60006119a461237d565b156119c15760405162461bcd60e51b815260040161087e90614069565b6119c961239e565b156119e65760405162461bcd60e51b815260040161087e90614069565b336119f084610f6d565b6001600160a01b03161480611a145750336000908152600b602052604090205460ff165b80611a2e575033611a236111f6565b6001600160a01b0316145b611a4a5760405162461bcd60e51b815260040161087e906136fe565b33611a5483610f6d565b6001600160a01b03161480611a785750336000908152600b602052604090205460ff165b80611a92575033611a876111f6565b6001600160a01b0316145b611aae5760405162461bcd60e51b815260040161087e90613e7f565b611ab782610f6d565b6001600160a01b0316611ac984610f6d565b6001600160a01b031614611aef5760405162461bcd60e51b815260040161087e906140df565b6000828152600e60205260408082205485835290822054611b0f916123bf565b9050600081118015611b285750611b24611850565b8111155b611b445760405162461bcd60e51b815260040161087e906136bb565b6000611b4f85610f6d565b9050611b5a85612894565b611b6384612894565b611b6d600d6126b5565b6000611b79600d6126be565b6000818152600e6020526040902042600182018190556002820155909150611ba183836126c2565b8381556060611baf85610c50565b90506000815111611bd25760405162461bcd60e51b815260040161087e90613ab0565b611bdc83826123e4565b5050436000908152600c602090815260408083203284529091528082208054600160ff199182168117909255338452919092208054909116909117905595945050505050565b336000908152600b602052604090205460ff1680611c4f575033611c446111f6565b6001600160a01b0316145b611c6b5760405162461bcd60e51b815260040161087e90613f03565b60008251118015611c90575081600081518110611c8457fe5b60200260200101516000145b8015611c9d575081518151145b611cb95760405162461bcd60e51b815260040161087e90613810565b8151611ccc906010906020850190612fe9565b508051610936906011906020840190613034565b611ce861237d565b15611d055760405162461bcd60e51b815260040161087e90614069565b611d0d61239e565b15611d2a5760405162461bcd60e51b815260040161087e90614069565b33611d3482610f6d565b6001600160a01b03161480611d585750336000908152600b602052604090205460ff165b80611d72575033611d676111f6565b6001600160a01b0316145b611d8e5760405162461bcd60e51b815260040161087e90613a79565b6000611d9982610f6d565b6001600160a01b0381166000908152600f602052604090208054919250904211611dd55760405162461bcd60e51b815260040161087e90613b86565b601954604051635a46d3b560e01b81526000916001600160a01b031690635a46d3b590611e069086906004016135cd565b60206040518083038186803b158015611e1e57600080fd5b505afa158015611e32573d6000803e3d6000fd5b505050506040513d601f19601f82011682018060405250810190611e56919061351d565b905080611e6c574282556001909101555061214f565b60195460405163010158bb60e51b81526000916001600160a01b03169063202b176090611e9d9087906004016135cd565b60206040518083038186803b158015611eb557600080fd5b505afa158015611ec9573d6000803e3d6000fd5b505050506040513d601f19601f82011682018060405250810190611eed919061351d565b9050808211611f0e5760405162461bcd60e51b815260040161087e90613f3a565b611f1882826125d2565b91508260010154821161201e5760195460405163579587b360e11b81526001600160a01b039091169063af2b0f6690611f58908790600090600401613642565b600060405180830381600087803b158015611f7257600080fd5b505af1158015611f86573d6000803e3d6000fd5b50504285555050601954604051635a46d3b560e01b81526001600160a01b0390911690635a46d3b590611fbd9087906004016135cd565b60206040518083038186803b158015611fd557600080fd5b505afa158015611fe9573d6000803e3d6000fd5b505050506040513d601f19601f8201168201806040525081019061200d919061351d565b83600101819055505050505061214f565b600183015461202e9083906125d2565b6000868152600e60205260408120549193509061205990606490612053908690612623565b90612961565b60195460405163579587b360e11b81529192506001600160a01b03169063af2b0f669061208c9088908590600401613642565b600060405180830381600087803b1580156120a657600080fd5b505af11580156120ba573d6000803e3d6000fd5b50504286555050601954604051635a46d3b560e01b81526001600160a01b0390911690635a46d3b5906120f19088906004016135cd565b60206040518083038186803b15801561210957600080fd5b505afa15801561211d573d6000803e3d6000fd5b505050506040513d601f19601f82011682018060405250810190612141919061351d565b846001018190555050505050505b50436000908152600c602090815260408083203284529091528082208054600160ff1991821681179092553384529190922080549091169091179055565b336000908152600b602052604090205460ff16806121ba5750336121af6111f6565b6001600160a01b0316145b6121d65760405162461bcd60e51b815260040161087e90613f03565b601855565b6001600160a01b03918216600090815260056020908152604080832093909416825291909152205460ff1690565b6018546000828152600e60205260408120600201549091610bdf91906123bf565b61223261230b565b6001600160a01b03166122436111f6565b6001600160a01b0316146122695760405162461bcd60e51b815260040161087e90613db2565b6001600160a01b03811661228f5760405162461bcd60e51b815260040161087e90613793565b600a546040516001600160a01b038084169216907f8be0079c531659141344cd1fd0a4f28419497f9722a3daafe3b4186f6b6457e090600090a3600a80546001600160a01b0319166001600160a01b0392909216919091179055565b6000610bdf6113506113478460016125d2565b6000610bdf600283612993565b3390565b600081815260046020526040902080546001600160a01b0319166001600160a01b038416908117909155819061234482610f6d565b6001600160a01b03167f8c5be1e5ebec7d5bd14f71427d1e84f3dd0314c0f7b2291e5b200ac8c7c3b92560405160405180910390a45050565b436000908152600c6020908152604080832032845290915290205460ff1690565b436000908152600c6020908152604080832033845290915290205460ff1690565b600082820183811015610bdc5760405162461bcd60e51b815260040161087e90613884565b6123ed826122fe565b6124095760405162461bcd60e51b815260040161087e90613d66565b600082815260086020908152604090912082516109369284019061308d565b6000610bdf826126be565b600061243e826122fe565b61245a5760405162461bcd60e51b815260040161087e906139f6565b600061246583610f6d565b9050806001600160a01b0316846001600160a01b031614806124a05750836001600160a01b031661249584610857565b6001600160a01b0316145b806124b057506124b081856121db565b949350505050565b826001600160a01b03166124cb82610f6d565b6001600160a01b0316146124f15760405162461bcd60e51b815260040161087e90613de7565b6001600160a01b0382166125175760405162461bcd60e51b815260040161087e906138bb565b612522838383610936565b61252d60008261230f565b6001600160a01b038316600090815260016020526040902061254f908261299f565b506001600160a01b038216600090815260016020526040902061257290826129ab565b5061257f600282846129b7565b5080826001600160a01b0316846001600160a01b03167fddf252ad1be2c89b69c2b068fc378daa952ba7f163c4a11628f55a4df523b3ef60405160405180910390a4505050565b6000610bdc83836129cd565b6000828211156125f45760405162461bcd60e51b815260040161087e90613979565b50900390565b60008080806126098686612a12565b9097909650945050505050565b60006124b0848484612a6e565b60008261263257506000610bdf565b8282028284828161263f57fe5b0414610bdc5760405162461bcd60e51b815260040161087e90613cd9565b611661846323b872dd60e01b85858560405160240161267e9392919061361e565b60408051601f198184030181529190526020810180516001600160e01b03166001600160e01b031990931692909217909152612acd565b80546001019055565b5490565b6001600160a01b0382166126e85760405162461bcd60e51b815260040161087e90613c31565b6126f1816122fe565b1561270e5760405162461bcd60e51b815260040161087e906137d9565b61271a60008383610936565b6001600160a01b038216600090815260016020526040902061273c90826129ab565b50612749600282846129b7565b5060405181906001600160a01b038416906000907fddf252ad1be2c89b69c2b068fc378daa952ba7f163c4a11628f55a4df523b3ef908290a45050565b6127918484846124b8565b61279d84848484612b5c565b6116615760405162461bcd60e51b815260040161087e90613741565b6060816127de57506040805180820190915260018152600360fc1b602082015261079e565b8160005b81156127f657600101600a820491506127e2565b60608167ffffffffffffffff8111801561280f57600080fd5b506040519080825280601f01601f19166020018201604052801561283a576020820181803683370190505b50859350905060001982015b831561288b57600a840660300160f81b8282806001900393508151811061286957fe5b60200101906001600160f81b031916908160001a905350600a84049350612846565b50949350505050565b600061289f82610f6d565b90506128ad81600084610936565b6128b860008361230f565b60008281526008602052604090205460026000196101006001841615020190911604156128f65760008281526008602052604081206128f6916130fa565b6001600160a01b0381166000908152600160205260409020612918908361299f565b50612924600283612c3b565b5060405182906000906001600160a01b038416907fddf252ad1be2c89b69c2b068fc378daa952ba7f163c4a11628f55a4df523b3ef908390a45050565b60008082116129825760405162461bcd60e51b815260040161087e90613a42565b81838161298b57fe5b049392505050565b6000610bdc8383612c47565b6000610bdc8383612c5f565b6000610bdc8383612d25565b60006124b084846001600160a01b038516612d6f565b815460009082106129f05760405162461bcd60e51b815260040161087e90613679565b8260000182815481106129ff57fe5b9060005260206000200154905092915050565b815460009081908310612a375760405162461bcd60e51b815260040161087e90613bac565b6000846000018481548110612a4857fe5b906000526020600020906002020190508060000154816001015492509250509250929050565b60008281526001840160205260408120548281612a9e5760405162461bcd60e51b815260040161087e9190613666565b50846000016001820381548110612ab157fe5b9060005260206000209060020201600101549150509392505050565b6060612b22826040518060400160405280602081526020017f5361666545524332303a206c6f772d6c6576656c2063616c6c206661696c6564815250856001600160a01b0316612e069092919063ffffffff16565b8051909150156109365780806020019051810190612b4091906134b1565b6109365760405162461bcd60e51b815260040161087e9061401f565b6000612b70846001600160a01b0316612e15565b612b7c575060016124b0565b6060612c04630a85bd0160e11b612b9161230b565b888787604051602401612ba794939291906135e1565b604051602081830303815290604052906001600160e01b0319166020820180516001600160e01b0383818316178352505050506040518060600160405280603281526020016141fe603291396001600160a01b0388169190612e06565b9050600081806020019051810190612c1c91906134e9565b6001600160e01b031916630a85bd0160e11b1492505050949350505050565b6000610bdc8383612e1b565b60009081526001919091016020526040902054151590565b60008181526001830160205260408120548015612d1b5783546000198083019190810190600090879083908110612c9257fe5b9060005260206000200154905080876000018481548110612caf57fe5b600091825260208083209091019290925582815260018981019092526040902090840190558654879080612cdf57fe5b60019003818190600052602060002001600090559055866001016000878152602001908152602001600020600090556001945050505050610bdf565b6000915050610bdf565b6000612d318383612c47565b612d6757508154600181810184556000848152602080822090930184905584548482528286019093526040902091909155610bdf565b506000610bdf565b600082815260018401602052604081205480612dd4575050604080518082018252838152602080820184815286546001818101895560008981528481209551600290930290950191825591519082015586548684528188019092529290912055610dab565b82856000016001830381548110612de757fe5b9060005260206000209060020201600101819055506000915050610dab565b60606124b08484600085612eef565b3b151590565b60008181526001830160205260408120548015612d1b5783546000198083019190810190600090879083908110612e4e57fe5b9060005260206000209060020201905080876000018481548110612e6e57fe5b600091825260208083208454600290930201918255600193840154918401919091558354825289830190526040902090840190558654879080612ead57fe5b6000828152602080822060026000199094019384020182815560019081018390559290935588815289820190925260408220919091559450610bdf9350505050565b606082471015612f115760405162461bcd60e51b815260040161087e906139b0565b612f1a85612e15565b612f365760405162461bcd60e51b815260040161087e90613fe8565b60006060866001600160a01b03168587604051612f539190613582565b60006040518083038185875af1925050503d8060008114612f90576040519150601f19603f3d011682016040523d82523d6000602084013e612f95565b606091505b5091509150612fa5828286612fb0565b979650505050505050565b60608315612fbf575081610dab565b825115612fcf5782518084602001fd5b8160405162461bcd60e51b815260040161087e9190613666565b828054828255906000526020600020908101928215613024579160200282015b82811115613024578251825591602001919060010190613009565b50613030929150613141565b5090565b828054828255906000526020600020908101928215613081579160200282015b82811115613081578251805161307191849160209091019061308d565b5091602001919060010190613054565b50613030929150613156565b828054600181600116156101000203166002900490600052602060002090601f016020900481019282601f106130ce57805160ff1916838001178555613024565b828001600101855582156130245791820182811115613024578251825591602001919060010190613009565b50805460018160011615610100020316600290046000825580601f10613120575061313e565b601f01602090049060005260206000209081019061313e9190613141565b50565b5b808211156130305760008155600101613142565b8082111561303057600061316a82826130fa565b50600101613156565b600082601f830112613183578081fd5b813561319661319182614178565b614151565b8181529150602080830190848101818402860182018710156131b757600080fd5b60005b848110156131d6578135845292820192908201906001016131ba565b505050505092915050565b600082601f8301126131f1578081fd5b813567ffffffffffffffff811115613207578182fd5b61321a601f8201601f1916602001614151565b915080825283602082850101111561323157600080fd5b8060208401602084013760009082016020015292915050565b60006020828403121561325b578081fd5b8135610bdc816141c4565b60008060408385031215613278578081fd5b8235613283816141c4565b91506020830135613293816141c4565b809150509250929050565b6000806000606084860312156132b2578081fd5b83356132bd816141c4565b925060208401356132cd816141c4565b929592945050506040919091013590565b600080600080608085870312156132f3578081fd5b84356132fe816141c4565b9350602085013561330e816141c4565b925060408501359150606085013567ffffffffffffffff811115613330578182fd5b61333c878288016131e1565b91505092959194509250565b6000806040838503121561335a578182fd5b8235613365816141c4565b91506020830135613293816141d9565b60008060408385031215613387578182fd5b8235613392816141c4565b946020939093013593505050565b600080604083850312156133b2578182fd5b823567ffffffffffffffff808211156133c9578384fd5b6133d586838701613173565b93506020915081850135818111156133eb578384fd5b85019050601f810186136133fd578283fd5b803561340b61319182614178565b81815283810190838501865b848110156134405761342e8b8884358901016131e1565b84529286019290860190600101613417565b5096999098509650505050505050565b60008060408385031215613462578182fd5b823567ffffffffffffffff80821115613479578384fd5b61348586838701613173565b9350602085013591508082111561349a578283fd5b506134a785828601613173565b9150509250929050565b6000602082840312156134c2578081fd5b8151610bdc816141d9565b6000602082840312156134de578081fd5b8135610bdc816141e7565b6000602082840312156134fa578081fd5b8151610bdc816141e7565b600060208284031215613516578081fd5b5035919050565b60006020828403121561352e578081fd5b5051919050565b60008060408385031215613547578182fd5b50508035926020909101359150565b6000815180845261356e816020860160208601614198565b601f01601f19169290920160200192915050565b60008251613594818460208701614198565b9190910192915050565b600083516135b0818460208801614198565b8351908301906135c4818360208801614198565b01949350505050565b6001600160a01b0391909116815260200190565b6001600160a01b038581168252841660208201526040810183905260806060820181905260009061361490830184613556565b9695505050505050565b6001600160a01b039384168152919092166020820152604081019190915260600190565b6001600160a01b03929092168252602082015260400190565b901515815260200190565b600060208252610bdc6020830184613556565b60208082526022908201527f456e756d657261626c655365743a20696e646578206f7574206f6620626f756e604082015261647360f01b606082015260800190565b60208082526023908201527f4c6576656c206d757374206265203e203020616e64203c3d206d6178206c657660408201526232b61760e91b606082015260800190565b60208082526023908201527f4e6f7420656e6f756768207065726d697373696f6e7320666f7220746f6b656e60408201526210189760e91b606082015260800190565b60208082526032908201527f4552433732313a207472616e7366657220746f206e6f6e20455243373231526560408201527131b2b4bb32b91034b6b83632b6b2b73a32b960711b606082015260800190565b60208082526026908201527f4f776e61626c653a206e6577206f776e657220697320746865207a65726f206160408201526564647265737360d01b606082015260800190565b6020808252601c908201527f4552433732313a20746f6b656e20616c7265616479206d696e74656400000000604082015260600190565b6020808252604e908201527f4c6576656c2055524920617272617973206d75737420626520657175616c206960408201527f6e206e6f6e2d7a65726f206c656e67746820616e64206c6576656c2073686f7560608201526d36321039ba30b93a1030ba10181760911b608082015260a00190565b6020808252601b908201527f536166654d6174683a206164646974696f6e206f766572666c6f770000000000604082015260600190565b60208082526024908201527f4552433732313a207472616e7366657220746f20746865207a65726f206164646040820152637265737360e01b606082015260800190565b60208082526019908201527f4552433732313a20617070726f766520746f2063616c6c657200000000000000604082015260600190565b60208082526023908201527f4d6178206c6576656c2063616e277420626520686967686572207468616e203160408201526218181760e91b606082015260800190565b6020808252601e908201527f536166654d6174683a207375627472616374696f6e206f766572666c6f770000604082015260600190565b60208082526026908201527f416464726573733a20696e73756666696369656e742062616c616e636520666f6040820152651c8818d85b1b60d21b606082015260800190565b6020808252602c908201527f4552433732313a206f70657261746f7220717565727920666f72206e6f6e657860408201526b34b9ba32b73a103a37b5b2b760a11b606082015260800190565b6020808252601a908201527f536166654d6174683a206469766973696f6e206279207a65726f000000000000604082015260600190565b60208082526017908201527f4e6f7420656e6f756768207065726d697373696f6e732e000000000000000000604082015260600190565b6020808252601590820152742a37b5b2b7102aa9249034b99034b73b30b634b21760591b604082015260600190565b60208082526038908201527f4552433732313a20617070726f76652063616c6c6572206973206e6f74206f7760408201527f6e6572206e6f7220617070726f76656420666f7220616c6c0000000000000000606082015260800190565b6020808252602a908201527f4552433732313a2062616c616e636520717565727920666f7220746865207a65604082015269726f206164647265737360b01b606082015260800190565b6020808252600c908201526b2637b3b4b19032b93937b91760a11b604082015260600190565b60208082526022908201527f456e756d657261626c654d61703a20696e646578206f7574206f6620626f756e604082015261647360f01b606082015260800190565b60208082526023908201527f4c6576656c206d757374206265206c6f776572207468616e206d6178206c657660408201526232b61760e91b606082015260800190565b6020808252818101527f4552433732313a206d696e7420746f20746865207a65726f2061646472657373604082015260600190565b6020808252604d908201527f4d6178206c6576656c20617272617973206d75737420626520657175616c206960408201527f6e206e6f6e2d7a65726f206c656e67746820616e642074696d652073686f756c60608201526c321039ba30b93a1030ba10181760991b608082015260a00190565b60208082526021908201527f536166654d6174683a206d756c7469706c69636174696f6e206f766572666c6f6040820152607760f81b606082015260800190565b6020808252602c908201527f4552433732313a20617070726f76656420717565727920666f72206e6f6e657860408201526b34b9ba32b73a103a37b5b2b760a11b606082015260800190565b6020808252602c908201527f4552433732314d657461646174613a2055524920736574206f66206e6f6e657860408201526b34b9ba32b73a103a37b5b2b760a11b606082015260800190565b6020808252818101527f4f776e61626c653a2063616c6c6572206973206e6f7420746865206f776e6572604082015260600190565b60208082526029908201527f4552433732313a207472616e73666572206f6620746f6b656e2074686174206960408201526839903737ba1037bbb760b91b606082015260800190565b6020808252602f908201527f4552433732314d657461646174613a2055524920717565727920666f72206e6f60408201526e3732bc34b9ba32b73a103a37b5b2b760891b606082015260800190565b60208082526023908201527f4e6f7420656e6f756768207065726d697373696f6e7320666f7220746f6b656e60408201526210191760e91b606082015260800190565b60208082526021908201527f4552433732313a20617070726f76616c20746f2063757272656e74206f776e656040820152603960f91b606082015260800190565b60208082526018908201527f63616c6c6572206973206e6f7420617574686f72697a65640000000000000000604082015260600190565b60208082526039908201527f546f6f206d75636820746f20756e6c6f636b206e61747572616c6c792c20706c60408201527f656173652063616c6c20756e6c6f636b28292066697273742e00000000000000606082015260800190565b60208082526031908201527f4552433732313a207472616e736665722063616c6c6572206973206e6f74206f6040820152701ddb995c881b9bdc88185c1c1c9bdd9959607a1b606082015260800190565b6020808252601d908201527f416464726573733a2063616c6c20746f206e6f6e2d636f6e7472616374000000604082015260600190565b6020808252602a908201527f5361666545524332303a204552433230206f7065726174696f6e20646964206e6040820152691bdd081cdd58d8d9595960b21b606082015260800190565b60208082526026908201527f436f6e747261637447756172643a206f6e6520626c6f636b2c206f6e652066756040820152653731ba34b7b760d11b606082015260800190565b6020808252601690820152752a37b79032b0b9363c903a37903632bb32b6103ab81760511b604082015260600190565b60208082526025908201527f426f746820746f6b656e73206d7573742068617665207468652073616d65206f6040820152643bb732b91760d91b606082015260800190565b90815260200190565b918252602082015260400190565b9283526020830191909152604082015260600190565b60405181810167ffffffffffffffff8111828210171561417057600080fd5b604052919050565b600067ffffffffffffffff82111561418e578081fd5b5060209081020190565b60005b838110156141b357818101518382015260200161419b565b838111156116615750506000910152565b6001600160a01b038116811461313e57600080fd5b801515811461313e57600080fd5b6001600160e01b03198116811461313e57600080fdfe4552433732313a207472616e7366657220746f206e6f6e20455243373231526563656976657220696d706c656d656e7465724552433732313a206f776e657220717565727920666f72206e6f6e6578697374656e7420746f6b656ea2646970667358221220ec308465be07ffdaaba88218206203f92d1e79e48cb334d58459d3015a65746c64736f6c634300060c0033",
  "linkReferences": {},
  "deployedLinkReferences": {}
}