{
  "_format": "hh-sol-artifact-1",
  "contractName": "TheoryUnlocker",
  "sourceName": "contracts/nfts/TheoryUnlocker.sol",
  "abi": [
    {
      "inputs": [
        {
          "internalType": "contract IERC20",
          "name": "_buy",
          "type": "address"
        },
        {
          "internalType": "uint256",
          "name": "_initialBuy",
          "type": "uint256"
        },
        {
          "internalType": "uint256",
          "name": "_buyPerLevel",
          "type": "uint256"
        },
        {
          "internalType": "contract IERC20Lockable",
          "name": "_theory",
          "type": "address"
        },
        {
          "internalType": "address",
          "name": "_communityFund",
          "type": "address"
        },
        {
          "internalType": "uint256[]",
          "name": "_maxLevelTime",
          "type": "uint256[]"
        },
        {
          "internalType": "uint256[]",
          "name": "_maxLevelLevel",
          "type": "uint256[]"
        },
        {
          "internalType": "uint256[]",
          "name": "_levelURIsLevel",
          "type": "uint256[]"
        },
        {
          "internalType": "string[]",
          "name": "_levelURIsURI",
          "type": "string[]"
        }
      ],
      "stateMutability": "nonpayable",
      "type": "constructor"
    },
    {
      "anonymous": false,
      "inputs": [
        {
          "indexed": true,
          "internalType": "address",
          "name": "owner",
          "type": "address"
        },
        {
          "indexed": true,
          "internalType": "address",
          "name": "approved",
          "type": "address"
        },
        {
          "indexed": true,
          "internalType": "uint256",
          "name": "tokenId",
          "type": "uint256"
        }
      ],
      "name": "Approval",
      "type": "event"
    },
    {
      "anonymous": false,
      "inputs": [
        {
          "indexed": true,
          "internalType": "address",
          "name": "owner",
          "type": "address"
        },
        {
          "indexed": true,
          "internalType": "address",
          "name": "operator",
          "type": "address"
        },
        {
          "indexed": false,
          "internalType": "bool",
          "name": "approved",
          "type": "bool"
        }
      ],
      "name": "ApprovalForAll",
      "type": "event"
    },
    {
      "anonymous": false,
      "inputs": [
        {
          "indexed": true,
          "internalType": "address",
          "name": "previousOwner",
          "type": "address"
        },
        {
          "indexed": true,
          "internalType": "address",
          "name": "newOwner",
          "type": "address"
        }
      ],
      "name": "OwnershipTransferred",
      "type": "event"
    },
    {
      "anonymous": false,
      "inputs": [
        {
          "indexed": true,
          "internalType": "address",
          "name": "from",
          "type": "address"
        },
        {
          "indexed": true,
          "internalType": "address",
          "name": "to",
          "type": "address"
        },
        {
          "indexed": true,
          "internalType": "uint256",
          "name": "tokenId",
          "type": "uint256"
        }
      ],
      "name": "Transfer",
      "type": "event"
    },
    {
      "inputs": [
        {
          "internalType": "address",
          "name": "_toAdd",
          "type": "address"
        }
      ],
      "name": "addAuthorized",
      "outputs": [],
      "stateMutability": "nonpayable",
      "type": "function"
    },
    {
      "inputs": [
        {
          "internalType": "address",
          "name": "to",
          "type": "address"
        },
        {
          "internalType": "uint256",
          "name": "tokenId",
          "type": "uint256"
        }
      ],
      "name": "approve",
      "outputs": [],
      "stateMutability": "nonpayable",
      "type": "function"
    },
    {
      "inputs": [
        {
          "internalType": "address",
          "name": "",
          "type": "address"
        }
      ],
      "name": "authorized",
      "outputs": [
        {
          "internalType": "bool",
          "name": "",
          "type": "bool"
        }
      ],
      "stateMutability": "view",
      "type": "function"
    },
    {
      "inputs": [
        {
          "internalType": "address",
          "name": "owner",
          "type": "address"
        }
      ],
      "name": "balanceOf",
      "outputs": [
        {
          "internalType": "uint256",
          "name": "",
          "type": "uint256"
        }
      ],
      "stateMutability": "view",
      "type": "function"
    },
    {
      "inputs": [],
      "name": "baseURI",
      "outputs": [
        {
          "internalType": "string",
          "name": "",
          "type": "string"
        }
      ],
      "stateMutability": "view",
      "type": "function"
    },
    {
      "inputs": [],
      "name": "buyToken",
      "outputs": [
        {
          "internalType": "contract IERC20",
          "name": "",
          "type": "address"
        }
      ],
      "stateMutability": "view",
      "type": "function"
    },
    {
      "inputs": [],
      "name": "buyTokenPerLevel",
      "outputs": [
        {
          "internalType": "uint256",
          "name": "",
          "type": "uint256"
        }
      ],
      "stateMutability": "view",
      "type": "function"
    },
    {
      "inputs": [
        {
          "internalType": "address",
          "name": "player",
          "type": "address"
        },
        {
          "internalType": "uint256",
          "name": "tokenId",
          "type": "uint256"
        }
      ],
      "name": "canUnlockAmount",
      "outputs": [
        {
          "internalType": "uint256",
          "name": "",
          "type": "uint256"
        }
      ],
      "stateMutability": "view",
      "type": "function"
    },
    {
      "inputs": [],
      "name": "communityFund",
      "outputs": [
        {
          "internalType": "address",
          "name": "",
          "type": "address"
        }
      ],
      "stateMutability": "view",
      "type": "function"
    },
    {
      "inputs": [
        {
          "internalType": "uint256",
          "name": "level",
          "type": "uint256"
        }
      ],
      "name": "costOf",
      "outputs": [
        {
          "internalType": "uint256",
          "name": "",
          "type": "uint256"
        }
      ],
      "stateMutability": "view",
      "type": "function"
    },
    {
      "inputs": [],
      "name": "disableMint",
      "outputs": [
        {
          "internalType": "bool",
          "name": "",
          "type": "bool"
        }
      ],
      "stateMutability": "view",
      "type": "function"
    },
    {
      "inputs": [],
      "name": "emergencyDisableUnlock",
      "outputs": [
        {
          "internalType": "bool",
          "name": "",
          "type": "bool"
        }
      ],
      "stateMutability": "view",
      "type": "function"
    },
    {
      "inputs": [
        {
          "internalType": "uint256",
          "name": "tokenId",
          "type": "uint256"
        }
      ],
      "name": "getApproved",
      "outputs": [
        {
          "internalType": "address",
          "name": "",
          "type": "address"
        }
      ],
      "stateMutability": "view",
      "type": "function"
    },
    {
      "inputs": [],
      "name": "initialPrice",
      "outputs": [
        {
          "internalType": "uint256",
          "name": "",
          "type": "uint256"
        }
      ],
      "stateMutability": "view",
      "type": "function"
    },
    {
      "inputs": [
        {
          "internalType": "address",
          "name": "owner",
          "type": "address"
        },
        {
          "internalType": "address",
          "name": "operator",
          "type": "address"
        }
      ],
      "name": "isApprovedForAll",
      "outputs": [
        {
          "internalType": "bool",
          "name": "",
          "type": "bool"
        }
      ],
      "stateMutability": "view",
      "type": "function"
    },
    {
      "inputs": [
        {
          "internalType": "uint256",
          "name": "level",
          "type": "uint256"
        }
      ],
      "name": "levelURI",
      "outputs": [
        {
          "internalType": "string",
          "name": "",
          "type": "string"
        }
      ],
      "stateMutability": "view",
      "type": "function"
    },
    {
      "inputs": [
        {
          "internalType": "uint256",
          "name": "",
          "type": "uint256"
        }
      ],
      "name": "levelURIsLevel",
      "outputs": [
        {
          "internalType": "uint256",
          "name": "",
          "type": "uint256"
        }
      ],
      "stateMutability": "view",
      "type": "function"
    },
    {
      "inputs": [
        {
          "internalType": "uint256",
          "name": "",
          "type": "uint256"
        }
      ],
      "name": "levelURIsURI",
      "outputs": [
        {
          "internalType": "string",
          "name": "",
          "type": "string"
        }
      ],
      "stateMutability": "view",
      "type": "function"
    },
    {
      "inputs": [
        {
          "internalType": "uint256",
          "name": "tokenId",
          "type": "uint256"
        }
      ],
      "name": "levelUp",
      "outputs": [],
      "stateMutability": "nonpayable",
      "type": "function"
    },
    {
      "inputs": [
        {
          "internalType": "uint256",
          "name": "tokenId",
          "type": "uint256"
        },
        {
          "internalType": "uint256",
          "name": "theLevel",
          "type": "uint256"
        }
      ],
      "name": "levelUpTo",
      "outputs": [],
      "stateMutability": "nonpayable",
      "type": "function"
    },
    {
      "inputs": [
        {
          "internalType": "uint256",
          "name": "tokenId",
          "type": "uint256"
        }
      ],
      "name": "levelUpToMax",
      "outputs": [],
      "stateMutability": "nonpayable",
      "type": "function"
    },
    {
      "inputs": [],
      "name": "maxLevel",
      "outputs": [
        {
          "internalType": "uint256",
          "name": "",
          "type": "uint256"
        }
      ],
      "stateMutability": "view",
      "type": "function"
    },
    {
      "inputs": [
        {
          "internalType": "uint256",
          "name": "",
          "type": "uint256"
        }
      ],
      "name": "maxLevelLevel",
      "outputs": [
        {
          "internalType": "uint256",
          "name": "",
          "type": "uint256"
        }
      ],
      "stateMutability": "view",
      "type": "function"
    },
    {
      "inputs": [
        {
          "internalType": "uint256",
          "name": "",
          "type": "uint256"
        }
      ],
      "name": "maxLevelTime",
      "outputs": [
        {
          "internalType": "uint256",
          "name": "",
          "type": "uint256"
        }
      ],
      "stateMutability": "view",
      "type": "function"
    },
    {
      "inputs": [
        {
          "internalType": "uint256",
          "name": "tokenId1",
          "type": "uint256"
        },
        {
          "internalType": "uint256",
          "name": "tokenId2",
          "type": "uint256"
        }
      ],
      "name": "merge",
      "outputs": [
        {
          "internalType": "uint256",
          "name": "",
          "type": "uint256"
        }
      ],
      "stateMutability": "nonpayable",
      "type": "function"
    },
    {
      "inputs": [
        {
          "internalType": "uint256",
          "name": "level",
          "type": "uint256"
        }
      ],
      "name": "mint",
      "outputs": [
        {
          "internalType": "uint256",
          "name": "",
          "type": "uint256"
        }
      ],
      "stateMutability": "nonpayable",
      "type": "function"
    },
    {
      "inputs": [],
      "name": "name",
      "outputs": [
        {
          "internalType": "string",
          "name": "",
          "type": "string"
        }
      ],
      "stateMutability": "view",
      "type": "function"
    },
    {
      "inputs": [
        {
          "internalType": "uint256",
          "name": "tokenId",
          "type": "uint256"
        }
      ],
      "name": "nextLevelTime",
      "outputs": [
        {
          "internalType": "uint256",
          "name": "",
          "type": "uint256"
        }
      ],
      "stateMutability": "view",
      "type": "function"
    },
    {
      "inputs": [
        {
          "internalType": "uint256",
          "name": "tokenId",
          "type": "uint256"
        }
      ],
      "name": "nftUnlock",
      "outputs": [],
      "stateMutability": "nonpayable",
      "type": "function"
    },
    {
      "inputs": [],
      "name": "owner",
      "outputs": [
        {
          "internalType": "address",
          "name": "",
          "type": "address"
        }
      ],
      "stateMutability": "view",
      "type": "function"
    },
    {
      "inputs": [
        {
          "internalType": "uint256",
          "name": "tokenId",
          "type": "uint256"
        }
      ],
      "name": "ownerOf",
      "outputs": [
        {
          "internalType": "address",
          "name": "",
          "type": "address"
        }
      ],
      "stateMutability": "view",
      "type": "function"
    },
    {
      "inputs": [
        {
          "internalType": "address",
          "name": "_toRemove",
          "type": "address"
        }
      ],
      "name": "removeAuthorized",
      "outputs": [],
      "stateMutability": "nonpayable",
      "type": "function"
    },
    {
      "inputs": [],
      "name": "renounceOwnership",
      "outputs": [],
      "stateMutability": "nonpayable",
      "type": "function"
    },
    {
      "inputs": [
        {
          "internalType": "address",
          "name": "from",
          "type": "address"
        },
        {
          "internalType": "address",
          "name": "to",
          "type": "address"
        },
        {
          "internalType": "uint256",
          "name": "tokenId",
          "type": "uint256"
        }
      ],
      "name": "safeTransferFrom",
      "outputs": [],
      "stateMutability": "nonpayable",
      "type": "function"
    },
    {
      "inputs": [
        {
          "internalType": "address",
          "name": "from",
          "type": "address"
        },
        {
          "internalType": "address",
          "name": "to",
          "type": "address"
        },
        {
          "internalType": "uint256",
          "name": "tokenId",
          "type": "uint256"
        },
        {
          "internalType": "bytes",
          "name": "_data",
          "type": "bytes"
        }
      ],
      "name": "safeTransferFrom",
      "outputs": [],
      "stateMutability": "nonpayable",
      "type": "function"
    },
    {
      "inputs": [
        {
          "internalType": "address",
          "name": "operator",
          "type": "address"
        },
        {
          "internalType": "bool",
          "name": "approved",
          "type": "bool"
        }
      ],
      "name": "setApprovalForAll",
      "outputs": [],
      "stateMutability": "nonpayable",
      "type": "function"
    },
    {
      "inputs": [
        {
          "internalType": "contract IERC20",
          "name": "_buy",
          "type": "address"
        }
      ],
      "name": "setBuyToken",
      "outputs": [],
      "stateMutability": "nonpayable",
      "type": "function"
    },
    {
      "inputs": [
        {
          "internalType": "uint256",
          "name": "_perLevel",
          "type": "uint256"
        }
      ],
      "name": "setBuyTokenPerLevel",
      "outputs": [],
      "stateMutability": "nonpayable",
      "type": "function"
    },
    {
      "inputs": [
        {
          "internalType": "address",
          "name": "_fund",
          "type": "address"
        }
      ],
      "name": "setCommunityFund",
      "outputs": [],
      "stateMutability": "nonpayable",
      "type": "function"
    },
    {
      "inputs": [
        {
          "internalType": "uint256",
          "name": "tokenId",
          "type": "uint256"
        },
        {
          "internalType": "uint256",
          "name": "time",
          "type": "uint256"
        }
      ],
      "name": "setCreationTime",
      "outputs": [],
      "stateMutability": "nonpayable",
      "type": "function"
    },
    {
      "inputs": [
        {
          "internalType": "bool",
          "name": "_disable",
          "type": "bool"
        }
      ],
      "name": "setDisableMint",
      "outputs": [],
      "stateMutability": "nonpayable",
      "type": "function"
    },
    {
      "inputs": [
        {
          "internalType": "bool",
          "name": "_disable",
          "type": "bool"
        }
      ],
      "name": "setEmergencyDisableUnlock",
      "outputs": [],
      "stateMutability": "nonpayable",
      "type": "function"
    },
    {
      "inputs": [
        {
          "internalType": "uint256",
          "name": "_initial",
          "type": "uint256"
        }
      ],
      "name": "setInitialPrice",
      "outputs": [],
      "stateMutability": "nonpayable",
      "type": "function"
    },
    {
      "inputs": [
        {
          "internalType": "uint256",
          "name": "tokenId",
          "type": "uint256"
        },
        {
          "internalType": "uint256",
          "name": "time",
          "type": "uint256"
        }
      ],
      "name": "setLastLevelTime",
      "outputs": [],
      "stateMutability": "nonpayable",
      "type": "function"
    },
    {
      "inputs": [
        {
          "internalType": "address",
          "name": "user",
          "type": "address"
        },
        {
          "internalType": "uint256",
          "name": "amount",
          "type": "uint256"
        }
      ],
      "name": "setLastLockAmount",
      "outputs": [],
      "stateMutability": "nonpayable",
      "type": "function"
    },
    {
      "inputs": [
        {
          "internalType": "address",
          "name": "user",
          "type": "address"
        },
        {
          "internalType": "uint256",
          "name": "time",
          "type": "uint256"
        }
      ],
      "name": "setLastUnlockTime",
      "outputs": [],
      "stateMutability": "nonpayable",
      "type": "function"
    },
    {
      "inputs": [
        {
          "internalType": "uint256[]",
          "name": "_levelURIsLevel",
          "type": "uint256[]"
        },
        {
          "internalType": "string[]",
          "name": "_levelURIsURI",
          "type": "string[]"
        }
      ],
      "name": "setLevelURIs",
      "outputs": [],
      "stateMutability": "nonpayable",
      "type": "function"
    },
    {
      "inputs": [
        {
          "internalType": "uint256[]",
          "name": "_maxLevelTime",
          "type": "uint256[]"
        },
        {
          "internalType": "uint256[]",
          "name": "_maxLevelLevel",
          "type": "uint256[]"
        }
      ],
      "name": "setMaxLevel",
      "outputs": [],
      "stateMutability": "nonpayable",
      "type": "function"
    },
    {
      "inputs": [
        {
          "internalType": "uint256",
          "name": "_time",
          "type": "uint256"
        }
      ],
      "name": "setTimeToLevel",
      "outputs": [],
      "stateMutability": "nonpayable",
      "type": "function"
    },
    {
      "inputs": [
        {
          "internalType": "uint256",
          "name": "tokenId",
          "type": "uint256"
        },
        {
          "internalType": "uint256",
          "name": "level",
          "type": "uint256"
        }
      ],
      "name": "setTokenLevel",
      "outputs": [],
      "stateMutability": "nonpayable",
      "type": "function"
    },
    {
      "inputs": [
        {
          "internalType": "bytes4",
          "name": "interfaceId",
          "type": "bytes4"
        }
      ],
      "name": "supportsInterface",
      "outputs": [
        {
          "internalType": "bool",
          "name": "",
          "type": "bool"
        }
      ],
      "stateMutability": "view",
      "type": "function"
    },
    {
      "inputs": [],
      "name": "symbol",
      "outputs": [
        {
          "internalType": "string",
          "name": "",
          "type": "string"
        }
      ],
      "stateMutability": "view",
      "type": "function"
    },
    {
      "inputs": [],
      "name": "theory",
      "outputs": [
        {
          "internalType": "contract IERC20Lockable",
          "name": "",
          "type": "address"
        }
      ],
      "stateMutability": "view",
      "type": "function"
    },
    {
      "inputs": [
        {
          "internalType": "uint256",
          "name": "tokenId",
          "type": "uint256"
        }
      ],
      "name": "timeLeftToLevel",
      "outputs": [
        {
          "internalType": "uint256",
          "name": "",
          "type": "uint256"
        }
      ],
      "stateMutability": "view",
      "type": "function"
    },
    {
      "inputs": [],
      "name": "timeToLevel",
      "outputs": [
        {
          "internalType": "uint256",
          "name": "",
          "type": "uint256"
        }
      ],
      "stateMutability": "view",
      "type": "function"
    },
    {
      "inputs": [
        {
          "internalType": "uint256",
          "name": "index",
          "type": "uint256"
        }
      ],
      "name": "tokenByIndex",
      "outputs": [
        {
          "internalType": "uint256",
          "name": "",
          "type": "uint256"
        }
      ],
      "stateMutability": "view",
      "type": "function"
    },
    {
      "inputs": [
        {
          "internalType": "uint256",
          "name": "",
          "type": "uint256"
        }
      ],
      "name": "tokenInfo",
      "outputs": [
        {
          "internalType": "uint256",
          "name": "level",
          "type": "uint256"
        },
        {
          "internalType": "uint256",
          "name": "creationTime",
          "type": "uint256"
        },
        {
          "internalType": "uint256",
          "name": "lastLevelTime",
          "type": "uint256"
        }
      ],
      "stateMutability": "view",
      "type": "function"
    },
    {
      "inputs": [
        {
          "internalType": "address",
          "name": "owner",
          "type": "address"
        },
        {
          "internalType": "uint256",
          "name": "index",
          "type": "uint256"
        }
      ],
      "name": "tokenOfOwnerByIndex",
      "outputs": [
        {
          "internalType": "uint256",
          "name": "",
          "type": "uint256"
        }
      ],
      "stateMutability": "view",
      "type": "function"
    },
    {
      "inputs": [
        {
          "internalType": "uint256",
          "name": "tokenId",
          "type": "uint256"
        }
      ],
      "name": "tokenURI",
      "outputs": [
        {
          "internalType": "string",
          "name": "",
          "type": "string"
        }
      ],
      "stateMutability": "view",
      "type": "function"
    },
    {
      "inputs": [],
      "name": "totalSupply",
      "outputs": [
        {
          "internalType": "uint256",
          "name": "",
          "type": "uint256"
        }
      ],
      "stateMutability": "view",
      "type": "function"
    },
    {
      "inputs": [
        {
          "internalType": "address",
          "name": "from",
          "type": "address"
        },
        {
          "internalType": "address",
          "name": "to",
          "type": "address"
        },
        {
          "internalType": "uint256",
          "name": "tokenId",
          "type": "uint256"
        }
      ],
      "name": "transferFrom",
      "outputs": [],
      "stateMutability": "nonpayable",
      "type": "function"
    },
    {
      "inputs": [
        {
          "internalType": "address",
          "name": "newOwner",
          "type": "address"
        }
      ],
      "name": "transferOwnership",
      "outputs": [],
      "stateMutability": "nonpayable",
      "type": "function"
    },
    {
      "inputs": [
        {
          "internalType": "address",
          "name": "",
          "type": "address"
        }
      ],
      "name": "userInfo",
      "outputs": [
        {
          "internalType": "uint256",
          "name": "lastUnlockTime",
          "type": "uint256"
        },
        {
          "internalType": "uint256",
          "name": "lastLockAmount",
          "type": "uint256"
        }
      ],
      "stateMutability": "view",
      "type": "function"
    }
  ],
  "bytecode": "0x60806040523480156200001157600080fd5b506040516200528838038062005288833981016040819052620000349162000645565b604080518082018252600f81526e2a2422a7a92c902ab73637b1b5b2b960891b60208083019190915282518084019093526002835261545560f01b9083015290620000866301ffc9a760e01b62000315565b81516200009b9060069060208501906200036b565b508051620000b19060079060208401906200036b565b50620000c46380ac58cd60e01b62000315565b620000d6635b5e139f60e01b62000315565b620000e863780e9d6360e01b62000315565b5060009050620000f762000367565b600a80546001600160a01b0319166001600160a01b038316908117909155604051919250906000907f8be0079c531659141344cd1fd0a4f28419497f9722a3daafe3b4186f6b6457e0908290a350601480546001600160a01b0319166001600160a01b038b1617905560158890556016879055815115801590620001905750816000815181106200018457fe5b60200260200101516000145b80156200019e575081518151145b620001c65760405162461bcd60e51b8152600401620001bd9062000780565b60405180910390fd5b60008451118015620001ed575083600081518110620001e157fe5b60200260200101516000145b8015620001fb575083518351145b6200021a5760405162461bcd60e51b8152600401620001bd9062000837565b82516000905b808210156200026d5760648583815181106200023857fe5b60200260200101511115620002615760405162461bcd60e51b8152600401620001bd90620007f4565b60018201915062000220565b835162000282906010906020870190620003f0565b508251620002989060119060208601906200042d565b508551620002ae906012906020890190620003f0565b508451620002c4906013906020880190620003f0565b5050601780546001600160a01b03199081166001600160a01b03988916179091556203f48060185560198054909116979096169690961761ffff60a01b191690945550620009489650505050505050565b6001600160e01b03198082161415620003425760405162461bcd60e51b8152600401620001bd9062000749565b6001600160e01b0319166000908152602081905260409020805460ff19166001179055565b3390565b828054600181600116156101000203166002900490600052602060002090601f016020900481019282601f10620003ae57805160ff1916838001178555620003de565b82800160010185558215620003de579182015b82811115620003de578251825591602001919060010190620003c1565b50620003ec9291506200048d565b5090565b828054828255906000526020600020908101928215620003de5791602002820182811115620003de578251825591602001919060010190620003c1565b8280548282559060005260206000209081019282156200047f579160200282015b828111156200047f57825180516200046e9184916020909101906200036b565b50916020019190600101906200044e565b50620003ec929150620004a4565b5b80821115620003ec57600081556001016200048e565b80821115620003ec576000620004bb8282620004c5565b50600101620004a4565b50805460018160011615610100020316600290046000825580601f10620004ed57506200050d565b601f0160209004906000526020600020908101906200050d91906200048d565b50565b80516001600160a01b03811681146200052857600080fd5b92915050565b600082601f8301126200053f578081fd5b8151620005566200055082620008d1565b620008aa565b818152915060208083019084810160005b84811015620005d5578151870188603f8201126200058457600080fd5b83810151620005976200055082620008f1565b81815260408b81848601011115620005ae57600080fd5b620005bf8388840183870162000915565b5086525050928201929082019060010162000567565b505050505092915050565b600082601f830112620005f1578081fd5b8151620006026200055082620008d1565b8181529150602080830190848101818402860182018710156200062457600080fd5b60005b84811015620005d55781518452928201929082019060010162000627565b60008060008060008060008060006101208a8c03121562000664578485fd5b620006708b8b62000510565b985060208a0151975060408a015196506200068f8b60608c0162000510565b9550620006a08b60808c0162000510565b60a08b01519095506001600160401b0380821115620006bd578586fd5b620006cb8d838e01620005e0565b955060c08c0151915080821115620006e1578485fd5b620006ef8d838e01620005e0565b945060e08c015191508082111562000705578384fd5b620007138d838e01620005e0565b93506101008c01519150808211156200072a578283fd5b50620007398c828d016200052e565b9150509295985092959850929598565b6020808252601c908201527f4552433136353a20696e76616c696420696e7465726661636520696400000000604082015260600190565b6020808252604e908201527f4c6576656c2055524920617272617973206d75737420626520657175616c206960408201527f6e206e6f6e2d7a65726f206c656e67746820616e64206c6576656c2073686f7560608201526d36321039ba30b93a1030ba10181760911b608082015260a00190565b60208082526023908201527f4d6178206c6576656c2063616e277420626520686967686572207468616e203160408201526218181760e91b606082015260800190565b6020808252604d908201527f4d6178206c6576656c20617272617973206d75737420626520657175616c206960408201527f6e206e6f6e2d7a65726f206c656e67746820616e642074696d652073686f756c60608201526c321039ba30b93a1030ba10181760991b608082015260a00190565b6040518181016001600160401b0381118282101715620008c957600080fd5b604052919050565b60006001600160401b03821115620008e7578081fd5b5060209081020190565b60006001600160401b0382111562000907578081fd5b50601f01601f191660200190565b60005b838110156200093257818101518382015260200162000918565b8381111562000942576000848401525b50505050565b61493080620009586000396000f3fe608060405234801561001057600080fd5b50600436106103c45760003560e01c80635b2f4ed4116101ff578063b88d4fde1161011a578063d1c2babb116100ad578063e985e9c51161007c578063e985e9c5146107e1578063ec3ddf30146107f4578063f2fde38b14610807578063fd3265921461081a576103c4565b8063d1c2babb14610795578063d8cab4a9146107a8578063db357c30146107bb578063dd289dcb146107ce576103c4565b8063cc06c359116100e9578063cc06c35914610745578063cc33c8751461074d578063cc67d1ae1461076f578063cf1c316a14610782576103c4565b8063b88d4fde146106f9578063b91816111461070c578063c87b56dd1461071f578063ca60567a14610732576103c4565b80638da5cb5b11610192578063a22cb46511610161578063a22cb465146106b8578063a4821719146106cb578063aa08279c146106d3578063b0d388ba146106e6576103c4565b80638da5cb5b1461068257806395d89b411461068a5780639f4ba0ee14610692578063a0712d68146106a5576103c4565b806370a08231116101ce57806370a08231146106415780637116712214610654578063715018a6146106675780638a1165b31461066f576103c4565b80635b2f4ed4146106005780636352211e146106135780636c0360eb146106265780637001e2a61461062e576103c4565b8063257c739b116102ef5780633bcafb631161028257806347aebf9a1161025157806347aebf9a146105bf578063485d7d94146105c75780634f6ccce7146105da57806358df3825146105ed576103c4565b80633bcafb631461057e5780633c32a450146105915780633f684d381461059957806342842e0e146105ac576103c4565b80632f745c59116102be5780632f745c591461053d57806334452f381461055057806337339a161461055857806338d170991461056b576103c4565b8063257c739b146104fc578063286b297c146105045780632bac9689146105175780632eb552f31461052a576103c4565b80630a842433116103675780631c04628d116103365780631c04628d146104c65780631d0806ae146104ce5780631e58a918146104d657806323b872dd146104e9576103c4565b80630a842433146104775780630ce90ec21461048a57806318160ddd1461049d5780631959a002146104a5576103c4565b806308143796116103a3578063081437961461041c578063081812fc1461043c57806308a5510c1461044f578063095ea7b314610464576103c4565b8062f380f4146103c957806301ffc9a7146103e757806306fdde0314610407575b600080fd5b6103d161082d565b6040516103de9190613b8d565b60405180910390f35b6103fa6103f5366004613a8d565b61083c565b6040516103de9190613c1b565b61040f61085f565b6040516103de9190613c26565b61042f61042a366004613ac5565b6108f5565b6040516103de91906147c6565b6103d161044a366004613ac5565b610913565b61046261045d366004613a55565b61095f565b005b610462610472366004613919565b6109c6565b61042f610485366004613919565b610a5e565b610462610498366004613ac5565b610c27565b61042f610cb8565b6104b86104b33660046137ee565b610cc9565b6040516103de9291906147cf565b6103fa610ce2565b61042f610cf2565b6104626104e4366004613ac5565b610cf8565b6104626104f7366004613842565b610db1565b61042f610de9565b610462610512366004613a55565b610def565b610462610525366004613ac5565b610e56565b61042f610538366004613ac5565b610ea4565b61042f61054b366004613919565b610eb1565b6103fa610eda565b6104626105663660046137ee565b610eea565b61040f610579366004613ac5565b610f55565b61042f61058c366004613ac5565b611055565b6103d1611062565b61042f6105a7366004613ac5565b611071565b6104626105ba366004613842565b6110b0565b61042f6110cb565b6104626105d53660046137ee565b6110d1565b61042f6105e8366004613ac5565b611147565b6104626105fb366004613919565b61115d565b61040f61060e366004613ac5565b6111c5565b6103d1610621366004613ac5565b61126b565b61040f611293565b61046261063c366004613919565b6112f4565b61042f61064f3660046137ee565b611359565b610462610662366004613af5565b6113a2565b610462611400565b61046261067d3660046137ee565b611489565b6103d16114f4565b61040f611503565b6104626106a0366004613ac5565b611564565b61042f6106b3366004613ac5565b6115b2565b6104626106c63660046138ec565b611761565b6103d161182f565b6104626106e13660046139f4565b61183e565b6104626106f4366004613af5565b611950565b610462610707366004613882565b611aa3565b6103fa61071a3660046137ee565b611ae2565b61040f61072d366004613ac5565b611af7565b610462610740366004613af5565b611c3d565b61042f611ccb565b61076061075b366004613ac5565b611d33565b6040516103de939291906147dd565b61046261077d366004613af5565b611d54565b6104626107903660046137ee565b611db2565b61042f6107a3366004613af5565b611e15565b6104626107b6366004613944565b61209a565b6104626107c9366004613ac5565b612158565b6104626107dc366004613ac5565b612622565b6103fa6107ef36600461380a565b612670565b61042f610802366004613ac5565b61269e565b6104626108153660046137ee565b6126bf565b61042f610828366004613ac5565b612780565b6017546001600160a01b031681565b6001600160e01b0319811660009081526020819052604090205460ff165b919050565b60068054604080516020601f60026000196101006001881615020190951694909404938401819004810282018101909252828152606093909290918301828280156108eb5780601f106108c0576101008083540402835291602001916108eb565b820191906000526020600020905b8154815290600101906020018083116108ce57829003601f168201915b5050505050905090565b6013818154811061090257fe5b600091825260209091200154905081565b600061091e82612793565b6109435760405162461bcd60e51b815260040161093a906143bc565b60405180910390fd5b506000908152600460205260409020546001600160a01b031690565b336000908152600b602052604090205460ff168061098c5750336109816114f4565b6001600160a01b0316145b6109a85760405162461bcd60e51b815260040161093a906145a5565b60198054911515600160a01b0260ff60a01b19909216919091179055565b60006109d18261126b565b9050806001600160a01b0316836001600160a01b03161415610a055760405162461bcd60e51b815260040161093a90614564565b806001600160a01b0316610a176127a0565b6001600160a01b03161480610a335750610a33816107ef6127a0565b610a4f5760405162461bcd60e51b815260040161093a90614124565b610a5983836127a4565b505050565b6000610a68613573565b506001600160a01b038084166000908152600f602090815260408083208151808301835281548152600190910154928101929092526019549051635a46d3b560e01b815291931690635a46d3b590610ac4908890600401613b8d565b60206040518083038186803b158015610adc57600080fd5b505afa158015610af0573d6000803e3d6000fd5b505050506040513d601f19601f82011682018060405250810190610b149190613add565b905080610b2657600092505050610c21565b60195460405163010158bb60e51b81526000916001600160a01b03169063202b176090610b57908990600401613b8d565b60206040518083038186803b158015610b6f57600080fd5b505afa158015610b83573d6000803e3d6000fd5b505050506040513d601f19601f82011682018060405250810190610ba79190613add565b9050808211610bbc5760009350505050610c21565b610bc68282612812565b915082602001518211610bdf5760009350505050610c21565b6020830151610bef908390612812565b6000868152600e602052604081205491935090610c1a90606490610c1490869061283a565b90612874565b9450505050505b92915050565b610c2f6128a6565b15610c4c5760405162461bcd60e51b815260040161093a9061470b565b610c546128c7565b15610c715760405162461bcd60e51b815260040161093a9061470b565b610c7a816128e8565b50436000908152600c602090815260408083203284529091528082208054600160ff1991821681179092553384529190922080549091169091179055565b6000610cc460026129dd565b905090565b600f602052600090815260409020805460019091015482565b601954600160a81b900460ff1681565b60155481565b610d006128a6565b15610d1d5760405162461bcd60e51b815260040161093a9061470b565b610d256128c7565b15610d425760405162461bcd60e51b815260040161093a9061470b565b6018546000828152600e6020526040902060020154610d60916129e8565b421015610d7f5760405162461bcd60e51b815260040161093a90614751565b6018546000828152600e6020526040902060020154610d9d916129e8565b4210610c7a57610dac816128e8565b610d7f565b610dc2610dbc6127a0565b82612a0d565b610dde5760405162461bcd60e51b815260040161093a90614639565b610a59838383612a92565b60165481565b336000908152600b602052604090205460ff1680610e1c575033610e116114f4565b6001600160a01b0316145b610e385760405162461bcd60e51b815260040161093a906145a5565b60198054911515600160a81b0260ff60a81b19909216919091179055565b336000908152600b602052604090205460ff1680610e83575033610e786114f4565b6001600160a01b0316145b610e9f5760405162461bcd60e51b815260040161093a906145a5565b601655565b6010818154811061090257fe5b6001600160a01b0382166000908152600160205260408120610ed39083612ba0565b9392505050565b601954600160a01b900460ff1681565b336000908152600b602052604090205460ff1680610f17575033610f0c6114f4565b6001600160a01b0316145b610f335760405162461bcd60e51b815260040161093a906145a5565b601780546001600160a01b0319166001600160a01b0392909216919091179055565b604080516020810190915260008082526010546060929181905b811561104b5760018203905060108181548110610f8857fe5b906000526020600020015486106110405760118181548110610fa657fe5b600091825260209182902001805460408051601f60026000196101006001871615020190941693909304928301859004850281018501909152818152928301828280156110345780601f1061100957610100808354040283529160200191611034565b820191906000526020600020905b81548152906001019060200180831161101757829003601f168201915b5050505050935061104b565b600182039150610f6f565b5091949350505050565b6012818154811061090257fe5b6019546001600160a01b031681565b6018546000828152600e602052604081206002015490918291611093916129e8565b90508042106110a657600091505061085a565b610ed38142612812565b610a5983838360405180602001604052806000815250611aa3565b60185481565b6110d96127a0565b6001600160a01b03166110ea6114f4565b6001600160a01b0316146111105760405162461bcd60e51b815260040161093a90614454565b6001600160a01b03811633141561112657600080fd5b6001600160a01b03166000908152600b60205260409020805460ff19169055565b600080611155600284612bac565b509392505050565b336000908152600b602052604090205460ff168061118a57503361117f6114f4565b6001600160a01b0316145b6111a65760405162461bcd60e51b815260040161093a906145a5565b6001600160a01b039091166000908152600f6020526040902060010155565b601181815481106111d257fe5b600091825260209182902001805460408051601f60026000196101006001871615020190941693909304928301859004850281018501909152818152935090918301828280156112635780601f1061123857610100808354040283529160200191611263565b820191906000526020600020905b81548152906001019060200180831161124657829003601f168201915b505050505081565b6000610c21826040518060600160405280602981526020016148d26029913960029190612bc8565b60098054604080516020601f60026000196101006001881615020190951694909404938401819004810282018101909252828152606093909290918301828280156108eb5780601f106108c0576101008083540402835291602001916108eb565b336000908152600b602052604090205460ff16806113215750336113166114f4565b6001600160a01b0316145b61133d5760405162461bcd60e51b815260040161093a906145a5565b6001600160a01b039091166000908152600f6020526040902055565b60006001600160a01b0382166113815760405162461bcd60e51b815260040161093a90614181565b6001600160a01b0382166000908152600160205260409020610c21906129dd565b336000908152600b602052604090205460ff16806113cf5750336113c46114f4565b6001600160a01b0316145b6113eb5760405162461bcd60e51b815260040161093a906145a5565b6000918252600e602052604090912060010155565b6114086127a0565b6001600160a01b03166114196114f4565b6001600160a01b03161461143f5760405162461bcd60e51b815260040161093a90614454565b600a546040516000916001600160a01b0316907f8be0079c531659141344cd1fd0a4f28419497f9722a3daafe3b4186f6b6457e0908390a3600a80546001600160a01b0319169055565b336000908152600b602052604090205460ff16806114b65750336114ab6114f4565b6001600160a01b0316145b6114d25760405162461bcd60e51b815260040161093a906145a5565b601480546001600160a01b0319166001600160a01b0392909216919091179055565b600a546001600160a01b031690565b60078054604080516020601f60026000196101006001881615020190951694909404938401819004810282018101909252828152606093909290918301828280156108eb5780601f106108c0576101008083540402835291602001916108eb565b336000908152600b602052604090205460ff16806115915750336115866114f4565b6001600160a01b0316145b6115ad5760405162461bcd60e51b815260040161093a906145a5565b601555565b60006115bc6128a6565b156115d95760405162461bcd60e51b815260040161093a9061470b565b6115e16128c7565b156115fe5760405162461bcd60e51b815260040161093a9061470b565b601954600160a01b900460ff16156116285760405162461bcd60e51b815260040161093a90614039565b60008211801561163f575061163b611ccb565b8211155b61165b5760405162461bcd60e51b815260040161093a90613c7b565b33600061168161167861166f866001612812565b6016549061283a565b601554906129e8565b6017546014549192506116a3916001600160a01b039081169133911684612bd5565b6116ad600d612c2d565b60006116b9600d612c36565b6000818152600e60205260409020426001820181905560028201559091506116e18483612c3a565b85815560606116ef87610f55565b905060008151116117125760405162461bcd60e51b815260040161093a906140a5565b61171c8382612cfe565b5050436000908152600c602090815260408083203284529091528082208054600160ff1991821681179092553384529190922080549091169091179055949350505050565b6117696127a0565b6001600160a01b0316826001600160a01b0316141561179a5760405162461bcd60e51b815260040161093a90613ebf565b80600560006117a76127a0565b6001600160a01b03908116825260208083019390935260409182016000908120918716808252919093529120805460ff1916921515929092179091556117eb6127a0565b6001600160a01b03167f17307eab39ab6107e8899845ad3d59bd9653f200f220920489ca2b5937696c31836040516118239190613c1b565b60405180910390a35050565b6014546001600160a01b031681565b336000908152600b602052604090205460ff168061186b5750336118606114f4565b6001600160a01b0316145b6118875760405162461bcd60e51b815260040161093a906145a5565b600082511180156118ac5750816000815181106118a057fe5b60200260200101516000145b80156118b9575081518151145b6118d55760405162461bcd60e51b815260040161093a90614308565b80516000905b808210156119225760648383815181106118f157fe5b602002602001015111156119175760405162461bcd60e51b815260040161093a90613ef6565b6001820191506118db565b835161193590601290602087019061358d565b50825161194990601390602086019061358d565b5050505050565b6119586128a6565b156119755760405162461bcd60e51b815260040161093a9061470b565b61197d6128c7565b1561199a5760405162461bcd60e51b815260040161093a9061470b565b6000828152600e6020526040902054811180156119be57506119ba611ccb565b8111155b6119da5760405162461bcd60e51b815260040161093a906141f1565b6018546000838152600e60205260409020600201546119f8916129e8565b421015611a175760405162461bcd60e51b815260040161093a90614751565b6000828152600e602052604090205481118015611a5157506018546000838152600e6020526040902060020154611a4d916129e8565b4210155b15611a6457611a5f826128e8565b611a17565b5050436000908152600c602090815260408083203284529091528082208054600160ff1991821681179092553384529190922080549091169091179055565b611ab4611aae6127a0565b83612a0d565b611ad05760405162461bcd60e51b815260040161093a90614639565b611adc84848484612d42565b50505050565b600b6020526000908152604090205460ff1681565b6060611b0282612793565b611b1e5760405162461bcd60e51b815260040161093a906144d2565b60008281526008602090815260409182902080548351601f6002600019610100600186161502019093169290920491820184900484028101840190945280845260609392830182828015611bb35780601f10611b8857610100808354040283529160200191611bb3565b820191906000526020600020905b815481529060010190602001808311611b9657829003601f168201915b505050505090506060611bc4611293565b9050805160001415611bd85750905061085a565b815115611c0a578082604051602001611bf2929190613b5e565b6040516020818303038152906040529250505061085a565b80611c1485612d75565b604051602001611c25929190613b5e565b60405160208183030381529060405292505050919050565b336000908152600b602052604090205460ff1680611c6a575033611c5f6114f4565b6001600160a01b0316145b611c865760405162461bcd60e51b815260040161093a906145a5565b600081118015611c9d5750611c99611ccb565b8111155b611cb95760405162461bcd60e51b815260040161093a90613c7b565b6000918252600e602052604090912055565b601254600090819080825b8115611d2a5760018203905060128181548110611cef57fe5b90600052602060002001544210611d1f5760138181548110611d0d57fe5b90600052602060002001549350611d2a565b600182039150611cd6565b50919250505090565b600e6020526000908152604090208054600182015460029092015490919083565b336000908152600b602052604090205460ff1680611d81575033611d766114f4565b6001600160a01b0316145b611d9d5760405162461bcd60e51b815260040161093a906145a5565b6000918252600e602052604090912060020155565b611dba6127a0565b6001600160a01b0316611dcb6114f4565b6001600160a01b031614611df15760405162461bcd60e51b815260040161093a90614454565b6001600160a01b03166000908152600b60205260409020805460ff19166001179055565b6000611e1f6128a6565b15611e3c5760405162461bcd60e51b815260040161093a9061470b565b611e446128c7565b15611e615760405162461bcd60e51b815260040161093a9061470b565b33611e6b8461126b565b6001600160a01b03161480611e8f5750336000908152600b602052604090205460ff165b80611ea9575033611e9e6114f4565b6001600160a01b0316145b611ec55760405162461bcd60e51b815260040161093a90613cbe565b33611ecf8361126b565b6001600160a01b03161480611ef35750336000908152600b602052604090205460ff165b80611f0d575033611f026114f4565b6001600160a01b0316145b611f295760405162461bcd60e51b815260040161093a90614521565b611f328261126b565b6001600160a01b0316611f448461126b565b6001600160a01b031614611f6a5760405162461bcd60e51b815260040161093a90614781565b6000828152600e60205260408082205485835290822054611f8a916129e8565b9050600081118015611fa35750611f9f611ccb565b8111155b611fbf5760405162461bcd60e51b815260040161093a90613c7b565b6000611fca8561126b565b90506060611fd786611af7565b9050611fe286612e50565b611feb85612e50565b611ff5600d612c2d565b6000612001600d612c36565b6000818152600e60205260409020426001820181905560028201559091506120298483612c3a565b848155825161204a5760405162461bcd60e51b815260040161093a906140a5565b6120548284612cfe565b50436000908152600c602090815260408083203284529091528082208054600160ff19918216811790925533845291909220805490911690911790559695505050505050565b336000908152600b602052604090205460ff16806120c75750336120bc6114f4565b6001600160a01b0316145b6120e35760405162461bcd60e51b815260040161093a906145a5565b600082511180156121085750816000815181106120fc57fe5b60200260200101516000145b8015612115575081518151145b6121315760405162461bcd60e51b815260040161093a90613dd0565b815161214490601090602085019061358d565b508051610a599060119060208401906135d8565b6121606128a6565b1561217d5760405162461bcd60e51b815260040161093a9061470b565b6121856128c7565b156121a25760405162461bcd60e51b815260040161093a9061470b565b601954600160a81b900460ff16156121cc5760405162461bcd60e51b815260040161093a906140d4565b336121d68261126b565b6001600160a01b031614806121fa5750336000908152600b602052604090205460ff165b806122145750336122096114f4565b6001600160a01b0316145b6122305760405162461bcd60e51b815260040161093a9061406e565b600061223b8261126b565b6001600160a01b0381166000908152600f6020526040902080549192509042116122775760405162461bcd60e51b815260040161093a906141cb565b601954604051635a46d3b560e01b81526000916001600160a01b031690635a46d3b5906122a8908690600401613b8d565b60206040518083038186803b1580156122c057600080fd5b505afa1580156122d4573d6000803e3d6000fd5b505050506040513d601f19601f820116820180604052508101906122f89190613add565b90508061230e5742825560019091015550610c7a565b60195460405163010158bb60e51b81526000916001600160a01b03169063202b17609061233f908790600401613b8d565b60206040518083038186803b15801561235757600080fd5b505afa15801561236b573d6000803e3d6000fd5b505050506040513d601f19601f8201168201806040525081019061238f9190613add565b90508082116123b05760405162461bcd60e51b815260040161093a906145dc565b6123ba8282612812565b9150826001015482116124c05760195460405163579587b360e11b81526001600160a01b039091169063af2b0f66906123fa908790600090600401613c02565b600060405180830381600087803b15801561241457600080fd5b505af1158015612428573d6000803e3d6000fd5b50504285555050601954604051635a46d3b560e01b81526001600160a01b0390911690635a46d3b59061245f908790600401613b8d565b60206040518083038186803b15801561247757600080fd5b505afa15801561248b573d6000803e3d6000fd5b505050506040513d601f19601f820116820180604052508101906124af9190613add565b836001018190555050505050610c7a565b60018301546124d0908390612812565b6000868152600e6020526040812054919350906124f590606490610c1490869061283a565b60195460405163579587b360e11b81529192506001600160a01b03169063af2b0f66906125289088908590600401613c02565b600060405180830381600087803b15801561254257600080fd5b505af1158015612556573d6000803e3d6000fd5b50504286555050601954604051635a46d3b560e01b81526001600160a01b0390911690635a46d3b59061258d908890600401613b8d565b60206040518083038186803b1580156125a557600080fd5b505afa1580156125b9573d6000803e3d6000fd5b505050506040513d601f19601f820116820180604052508101906125dd9190613add565b6001948501555050436000908152600c60209081526040808320328452909152808220805460ff19908116861790915533835291208054909116909217909155505050565b336000908152600b602052604090205460ff168061264f5750336126446114f4565b6001600160a01b0316145b61266b5760405162461bcd60e51b815260040161093a906145a5565b601855565b6001600160a01b03918216600090815260056020908152604080832093909416825291909152205460ff1690565b6018546000828152600e60205260408120600201549091610c2191906129e8565b6126c76127a0565b6001600160a01b03166126d86114f4565b6001600160a01b0316146126fe5760405162461bcd60e51b815260040161093a90614454565b6001600160a01b0381166127245760405162461bcd60e51b815260040161093a90613d53565b600a546040516001600160a01b038084169216907f8be0079c531659141344cd1fd0a4f28419497f9722a3daafe3b4186f6b6457e090600090a3600a80546001600160a01b0319166001600160a01b0392909216919091179055565b6000610c2161167861166f846001612812565b6000610c21600283612f1d565b3390565b600081815260046020526040902080546001600160a01b0319166001600160a01b03841690811790915581906127d98261126b565b6001600160a01b03167f8c5be1e5ebec7d5bd14f71427d1e84f3dd0314c0f7b2291e5b200ac8c7c3b92560405160405180910390a45050565b6000828211156128345760405162461bcd60e51b815260040161093a90613f39565b50900390565b60008261284957506000610c21565b8282028284828161285657fe5b0414610ed35760405162461bcd60e51b815260040161093a9061437b565b60008082116128955760405162461bcd60e51b815260040161093a90614002565b81838161289e57fe5b049392505050565b436000908152600c6020908152604080832032845290915290205460ff1690565b436000908152600c6020908152604080832033845290915290205460ff1690565b336128f28261126b565b6001600160a01b031614806129165750336000908152600b602052604090205460ff165b806129305750336129256114f4565b6001600160a01b0316145b61294c5760405162461bcd60e51b815260040161093a9061406e565b6000818152600e60205260409020612962611ccb565b8154106129815760405162461bcd60e51b815260040161093a90614290565b600061299c60185483600201546129e890919063ffffffff16565b9050804210156129be5760405162461bcd60e51b815260040161093a90614751565b6002820181905581546000906129d59060016129e8565b909255505050565b6000610c2182612c36565b600082820183811015610ed35760405162461bcd60e51b815260040161093a90613e44565b6000612a1882612793565b612a345760405162461bcd60e51b815260040161093a90613fb6565b6000612a3f8361126b565b9050806001600160a01b0316846001600160a01b03161480612a7a5750836001600160a01b0316612a6f84610913565b6001600160a01b0316145b80612a8a5750612a8a8185612670565b949350505050565b826001600160a01b0316612aa58261126b565b6001600160a01b031614612acb5760405162461bcd60e51b815260040161093a90614489565b6001600160a01b038216612af15760405162461bcd60e51b815260040161093a90613e7b565b612afc838383610a59565b612b076000826127a4565b6001600160a01b0383166000908152600160205260409020612b299082612f29565b506001600160a01b0382166000908152600160205260409020612b4c9082612f35565b50612b5960028284612f41565b5080826001600160a01b0316846001600160a01b03167fddf252ad1be2c89b69c2b068fc378daa952ba7f163c4a11628f55a4df523b3ef60405160405180910390a4505050565b6000610ed38383612f57565b6000808080612bbb8686612f9c565b9097909650945050505050565b6000612a8a848484612ff8565b611adc846323b872dd60e01b858585604051602401612bf693929190613bde565b60408051601f198184030181529190526020810180516001600160e01b03166001600160e01b031990931692909217909152613057565b80546001019055565b5490565b6001600160a01b038216612c605760405162461bcd60e51b815260040161093a906142d3565b612c6981612793565b15612c865760405162461bcd60e51b815260040161093a90613d99565b612c9260008383610a59565b6001600160a01b0382166000908152600160205260409020612cb49082612f35565b50612cc160028284612f41565b5060405181906001600160a01b038416906000907fddf252ad1be2c89b69c2b068fc378daa952ba7f163c4a11628f55a4df523b3ef908290a45050565b612d0782612793565b612d235760405162461bcd60e51b815260040161093a90614408565b60008281526008602090815260409091208251610a5992840190613631565b612d4d848484612a92565b612d59848484846130e6565b611adc5760405162461bcd60e51b815260040161093a90613d01565b606081612d9a57506040805180820190915260018152600360fc1b602082015261085a565b8160005b8115612db257600101600a82049150612d9e565b60608167ffffffffffffffff81118015612dcb57600080fd5b506040519080825280601f01601f191660200182016040528015612df6576020820181803683370190505b50859350905060001982015b8315612e4757600a840660300160f81b82828060019003935081518110612e2557fe5b60200101906001600160f81b031916908160001a905350600a84049350612e02565b50949350505050565b6000612e5b8261126b565b9050612e6981600084610a59565b612e746000836127a4565b6000828152600860205260409020546002600019610100600184161502019091160415612eb2576000828152600860205260408120612eb29161369e565b6001600160a01b0381166000908152600160205260409020612ed49083612f29565b50612ee06002836131c5565b5060405182906000906001600160a01b038416907fddf252ad1be2c89b69c2b068fc378daa952ba7f163c4a11628f55a4df523b3ef908390a45050565b6000610ed383836131d1565b6000610ed383836131e9565b6000610ed383836132af565b6000612a8a84846001600160a01b0385166132f9565b81546000908210612f7a5760405162461bcd60e51b815260040161093a90613c39565b826000018281548110612f8957fe5b9060005260206000200154905092915050565b815460009081908310612fc15760405162461bcd60e51b815260040161093a9061424e565b6000846000018481548110612fd257fe5b906000526020600020906002020190508060000154816001015492509250509250929050565b600082815260018401602052604081205482816130285760405162461bcd60e51b815260040161093a9190613c26565b5084600001600182038154811061303b57fe5b9060005260206000209060020201600101549150509392505050565b60606130ac826040518060400160405280602081526020017f5361666545524332303a206c6f772d6c6576656c2063616c6c206661696c6564815250856001600160a01b03166133909092919063ffffffff16565b805190915015610a5957808060200190518101906130ca9190613a71565b610a595760405162461bcd60e51b815260040161093a906146c1565b60006130fa846001600160a01b031661339f565b61310657506001612a8a565b606061318e630a85bd0160e11b61311b6127a0565b8887876040516024016131319493929190613ba1565b604051602081830303815290604052906001600160e01b0319166020820180516001600160e01b0383818316178352505050506040518060600160405280603281526020016148a0603291396001600160a01b0388169190613390565b90506000818060200190518101906131a69190613aa9565b6001600160e01b031916630a85bd0160e11b1492505050949350505050565b6000610ed383836133a5565b60009081526001919091016020526040902054151590565b600081815260018301602052604081205480156132a5578354600019808301919081019060009087908390811061321c57fe5b906000526020600020015490508087600001848154811061323957fe5b60009182526020808320909101929092558281526001898101909252604090209084019055865487908061326957fe5b60019003818190600052602060002001600090559055866001016000878152602001908152602001600020600090556001945050505050610c21565b6000915050610c21565b60006132bb83836131d1565b6132f157508154600181810184556000848152602080822090930184905584548482528286019093526040902091909155610c21565b506000610c21565b60008281526001840160205260408120548061335e575050604080518082018252838152602080820184815286546001818101895560008981528481209551600290930290950191825591519082015586548684528188019092529290912055610ed3565b8285600001600183038154811061337157fe5b9060005260206000209060020201600101819055506000915050610ed3565b6060612a8a8484600085613479565b3b151590565b600081815260018301602052604081205480156132a557835460001980830191908101906000908790839081106133d857fe5b90600052602060002090600202019050808760000184815481106133f857fe5b60009182526020808320845460029093020191825560019384015491840191909155835482528983019052604090209084019055865487908061343757fe5b6000828152602080822060026000199094019384020182815560019081018390559290935588815289820190925260408220919091559450610c219350505050565b60608247101561349b5760405162461bcd60e51b815260040161093a90613f70565b6134a48561339f565b6134c05760405162461bcd60e51b815260040161093a9061468a565b60006060866001600160a01b031685876040516134dd9190613b42565b60006040518083038185875af1925050503d806000811461351a576040519150601f19603f3d011682016040523d82523d6000602084013e61351f565b606091505b509150915061352f82828661353a565b979650505050505050565b60608315613549575081610ed3565b8251156135595782518084602001fd5b8160405162461bcd60e51b815260040161093a9190613c26565b604051806040016040528060008152602001600081525090565b8280548282559060005260206000209081019282156135c8579160200282015b828111156135c85782518255916020019190600101906135ad565b506135d49291506136e5565b5090565b828054828255906000526020600020908101928215613625579160200282015b828111156136255782518051613615918491602090910190613631565b50916020019190600101906135f8565b506135d49291506136fa565b828054600181600116156101000203166002900490600052602060002090601f016020900481019282601f1061367257805160ff19168380011785556135c8565b828001600101855582156135c857918201828111156135c85782518255916020019190600101906135ad565b50805460018160011615610100020316600290046000825580601f106136c457506136e2565b601f0160209004906000526020600020908101906136e291906136e5565b50565b5b808211156135d457600081556001016136e6565b808211156135d457600061370e828261369e565b506001016136fa565b600082601f830112613727578081fd5b813561373a6137358261481a565b6147f3565b81815291506020808301908481018184028601820187101561375b57600080fd5b60005b8481101561377a5781358452928201929082019060010161375e565b505050505092915050565b600082601f830112613795578081fd5b813567ffffffffffffffff8111156137ab578182fd5b6137be601f8201601f19166020016147f3565b91508082528360208285010111156137d557600080fd5b8060208401602084013760009082016020015292915050565b6000602082840312156137ff578081fd5b8135610ed381614866565b6000806040838503121561381c578081fd5b823561382781614866565b9150602083013561383781614866565b809150509250929050565b600080600060608486031215613856578081fd5b833561386181614866565b9250602084013561387181614866565b929592945050506040919091013590565b60008060008060808587031215613897578081fd5b84356138a281614866565b935060208501356138b281614866565b925060408501359150606085013567ffffffffffffffff8111156138d4578182fd5b6138e087828801613785565b91505092959194509250565b600080604083850312156138fe578182fd5b823561390981614866565b915060208301356138378161487b565b6000806040838503121561392b578182fd5b823561393681614866565b946020939093013593505050565b60008060408385031215613956578182fd5b823567ffffffffffffffff8082111561396d578384fd5b61397986838701613717565b935060209150818501358181111561398f578384fd5b85019050601f810186136139a1578283fd5b80356139af6137358261481a565b81815283810190838501865b848110156139e4576139d28b888435890101613785565b845292860192908601906001016139bb565b5096999098509650505050505050565b60008060408385031215613a06578182fd5b823567ffffffffffffffff80821115613a1d578384fd5b613a2986838701613717565b93506020850135915080821115613a3e578283fd5b50613a4b85828601613717565b9150509250929050565b600060208284031215613a66578081fd5b8135610ed38161487b565b600060208284031215613a82578081fd5b8151610ed38161487b565b600060208284031215613a9e578081fd5b8135610ed381614889565b600060208284031215613aba578081fd5b8151610ed381614889565b600060208284031215613ad6578081fd5b5035919050565b600060208284031215613aee578081fd5b5051919050565b60008060408385031215613b07578182fd5b50508035926020909101359150565b60008151808452613b2e81602086016020860161483a565b601f01601f19169290920160200192915050565b60008251613b5481846020870161483a565b9190910192915050565b60008351613b7081846020880161483a565b835190830190613b8481836020880161483a565b01949350505050565b6001600160a01b0391909116815260200190565b6001600160a01b0385811682528416602082015260408101839052608060608201819052600090613bd490830184613b16565b9695505050505050565b6001600160a01b039384168152919092166020820152604081019190915260600190565b6001600160a01b03929092168252602082015260400190565b901515815260200190565b600060208252610ed36020830184613b16565b60208082526022908201527f456e756d657261626c655365743a20696e646578206f7574206f6620626f756e604082015261647360f01b606082015260800190565b60208082526023908201527f4c6576656c206d757374206265203e203020616e64203c3d206d6178206c657660408201526232b61760e91b606082015260800190565b60208082526023908201527f4e6f7420656e6f756768207065726d697373696f6e7320666f7220746f6b656e60408201526210189760e91b606082015260800190565b60208082526032908201527f4552433732313a207472616e7366657220746f206e6f6e20455243373231526560408201527131b2b4bb32b91034b6b83632b6b2b73a32b960711b606082015260800190565b60208082526026908201527f4f776e61626c653a206e6577206f776e657220697320746865207a65726f206160408201526564647265737360d01b606082015260800190565b6020808252601c908201527f4552433732313a20746f6b656e20616c7265616479206d696e74656400000000604082015260600190565b6020808252604e908201527f4c6576656c2055524920617272617973206d75737420626520657175616c206960408201527f6e206e6f6e2d7a65726f206c656e67746820616e64206c6576656c2073686f7560608201526d36321039ba30b93a1030ba10181760911b608082015260a00190565b6020808252601b908201527f536166654d6174683a206164646974696f6e206f766572666c6f770000000000604082015260600190565b60208082526024908201527f4552433732313a207472616e7366657220746f20746865207a65726f206164646040820152637265737360e01b606082015260800190565b60208082526019908201527f4552433732313a20617070726f766520746f2063616c6c657200000000000000604082015260600190565b60208082526023908201527f4d6178206c6576656c2063616e277420626520686967686572207468616e203160408201526218181760e91b606082015260800190565b6020808252601e908201527f536166654d6174683a207375627472616374696f6e206f766572666c6f770000604082015260600190565b60208082526026908201527f416464726573733a20696e73756666696369656e742062616c616e636520666f6040820152651c8818d85b1b60d21b606082015260800190565b6020808252602c908201527f4552433732313a206f70657261746f7220717565727920666f72206e6f6e657860408201526b34b9ba32b73a103a37b5b2b760a11b606082015260800190565b6020808252601a908201527f536166654d6174683a206469766973696f6e206279207a65726f000000000000604082015260600190565b6020808252818101527f596f752063616e206e6f206c6f6e676572206d696e742074686973204e46542e604082015260600190565b60208082526017908201527f4e6f7420656e6f756768207065726d697373696f6e732e000000000000000000604082015260600190565b6020808252601590820152742a37b5b2b7102aa9249034b99034b73b30b634b21760591b604082015260600190565b60208082526030908201527f4e465420756e6c6f636b696e6720686173206265656e2064697361626c65642060408201526f34b71030b71032b6b2b933b2b731bc9760811b606082015260800190565b60208082526038908201527f4552433732313a20617070726f76652063616c6c6572206973206e6f74206f7760408201527f6e6572206e6f7220617070726f76656420666f7220616c6c0000000000000000606082015260800190565b6020808252602a908201527f4552433732313a2062616c616e636520717565727920666f7220746865207a65604082015269726f206164647265737360b01b606082015260800190565b6020808252600c908201526b2637b3b4b19032b93937b91760a11b604082015260600190565b6020808252603b908201527f4c6576656c206d757374206265206c6f776572207468616e206d6178206c657660408201527f656c20616e6420686967686572207468616e2063757272656e742e0000000000606082015260800190565b60208082526022908201527f456e756d657261626c654d61703a20696e646578206f7574206f6620626f756e604082015261647360f01b606082015260800190565b60208082526023908201527f4c6576656c206d757374206265206c6f776572207468616e206d6178206c657660408201526232b61760e91b606082015260800190565b6020808252818101527f4552433732313a206d696e7420746f20746865207a65726f2061646472657373604082015260600190565b6020808252604d908201527f4d6178206c6576656c20617272617973206d75737420626520657175616c206960408201527f6e206e6f6e2d7a65726f206c656e67746820616e642074696d652073686f756c60608201526c321039ba30b93a1030ba10181760991b608082015260a00190565b60208082526021908201527f536166654d6174683a206d756c7469706c69636174696f6e206f766572666c6f6040820152607760f81b606082015260800190565b6020808252602c908201527f4552433732313a20617070726f76656420717565727920666f72206e6f6e657860408201526b34b9ba32b73a103a37b5b2b760a11b606082015260800190565b6020808252602c908201527f4552433732314d657461646174613a2055524920736574206f66206e6f6e657860408201526b34b9ba32b73a103a37b5b2b760a11b606082015260800190565b6020808252818101527f4f776e61626c653a2063616c6c6572206973206e6f7420746865206f776e6572604082015260600190565b60208082526029908201527f4552433732313a207472616e73666572206f6620746f6b656e2074686174206960408201526839903737ba1037bbb760b91b606082015260800190565b6020808252602f908201527f4552433732314d657461646174613a2055524920717565727920666f72206e6f60408201526e3732bc34b9ba32b73a103a37b5b2b760891b606082015260800190565b60208082526023908201527f4e6f7420656e6f756768207065726d697373696f6e7320666f7220746f6b656e60408201526210191760e91b606082015260800190565b60208082526021908201527f4552433732313a20617070726f76616c20746f2063757272656e74206f776e656040820152603960f91b606082015260800190565b60208082526018908201527f63616c6c6572206973206e6f7420617574686f72697a65640000000000000000604082015260600190565b60208082526039908201527f546f6f206d75636820746f20756e6c6f636b206e61747572616c6c792c20706c60408201527f656173652063616c6c20756e6c6f636b28292066697273742e00000000000000606082015260800190565b60208082526031908201527f4552433732313a207472616e736665722063616c6c6572206973206e6f74206f6040820152701ddb995c881b9bdc88185c1c1c9bdd9959607a1b606082015260800190565b6020808252601d908201527f416464726573733a2063616c6c20746f206e6f6e2d636f6e7472616374000000604082015260600190565b6020808252602a908201527f5361666545524332303a204552433230206f7065726174696f6e20646964206e6040820152691bdd081cdd58d8d9595960b21b606082015260800190565b60208082526026908201527f436f6e747261637447756172643a206f6e6520626c6f636b2c206f6e652066756040820152653731ba34b7b760d11b606082015260800190565b6020808252601690820152752a37b79032b0b9363c903a37903632bb32b6103ab81760511b604082015260600190565b60208082526025908201527f426f746820746f6b656e73206d7573742068617665207468652073616d65206f6040820152643bb732b91760d91b606082015260800190565b90815260200190565b918252602082015260400190565b9283526020830191909152604082015260600190565b60405181810167ffffffffffffffff8111828210171561481257600080fd5b604052919050565b600067ffffffffffffffff821115614830578081fd5b5060209081020190565b60005b8381101561485557818101518382015260200161483d565b83811115611adc5750506000910152565b6001600160a01b03811681146136e257600080fd5b80151581146136e257600080fd5b6001600160e01b0319811681146136e257600080fdfe4552433732313a207472616e7366657220746f206e6f6e20455243373231526563656976657220696d706c656d656e7465724552433732313a206f776e657220717565727920666f72206e6f6e6578697374656e7420746f6b656ea2646970667358221220f0b0fae69baf5960ffe6012505b08e737fe0c8059ba9129bde9853eff0ab0e1364736f6c634300060c0033",
  "linkReferences": {},
  "deployedLinkReferences": {}
}