{
  "_format": "hh-sol-artifact-1",
  "contractName": "TheoryUnlocker",
  "sourceName": "contracts/nfts/TheoryUnlocker.sol",
  "abi": [
    {
      "inputs": [
        {
          "internalType": "contract IERC20",
          "name": "_buy",
          "type": "address"
        },
        {
          "internalType": "uint256",
          "name": "_initialBuy",
          "type": "uint256"
        },
        {
          "internalType": "uint256",
          "name": "_buyPerLevel",
          "type": "uint256"
        },
        {
          "internalType": "contract IERC20Lockable",
          "name": "_theory",
          "type": "address"
        },
        {
          "internalType": "address",
          "name": "_communityFund",
          "type": "address"
        },
        {
          "internalType": "uint256[]",
          "name": "_maxLevelTime",
          "type": "uint256[]"
        },
        {
          "internalType": "uint256[]",
          "name": "_maxLevelLevel",
          "type": "uint256[]"
        },
        {
          "internalType": "uint256[]",
          "name": "_levelURIsLevel",
          "type": "uint256[]"
        },
        {
          "internalType": "string[]",
          "name": "_levelURIsURI",
          "type": "string[]"
        }
      ],
      "stateMutability": "nonpayable",
      "type": "constructor"
    },
    {
      "anonymous": false,
      "inputs": [
        {
          "indexed": true,
          "internalType": "address",
          "name": "owner",
          "type": "address"
        },
        {
          "indexed": true,
          "internalType": "address",
          "name": "approved",
          "type": "address"
        },
        {
          "indexed": true,
          "internalType": "uint256",
          "name": "tokenId",
          "type": "uint256"
        }
      ],
      "name": "Approval",
      "type": "event"
    },
    {
      "anonymous": false,
      "inputs": [
        {
          "indexed": true,
          "internalType": "address",
          "name": "owner",
          "type": "address"
        },
        {
          "indexed": true,
          "internalType": "address",
          "name": "operator",
          "type": "address"
        },
        {
          "indexed": false,
          "internalType": "bool",
          "name": "approved",
          "type": "bool"
        }
      ],
      "name": "ApprovalForAll",
      "type": "event"
    },
    {
      "anonymous": false,
      "inputs": [
        {
          "indexed": true,
          "internalType": "address",
          "name": "previousOperator",
          "type": "address"
        },
        {
          "indexed": true,
          "internalType": "address",
          "name": "newOperator",
          "type": "address"
        }
      ],
      "name": "OperatorTransferred",
      "type": "event"
    },
    {
      "anonymous": false,
      "inputs": [
        {
          "indexed": true,
          "internalType": "address",
          "name": "previousOwner",
          "type": "address"
        },
        {
          "indexed": true,
          "internalType": "address",
          "name": "newOwner",
          "type": "address"
        }
      ],
      "name": "OwnershipTransferred",
      "type": "event"
    },
    {
      "anonymous": false,
      "inputs": [
        {
          "indexed": true,
          "internalType": "address",
          "name": "from",
          "type": "address"
        },
        {
          "indexed": true,
          "internalType": "address",
          "name": "to",
          "type": "address"
        },
        {
          "indexed": true,
          "internalType": "uint256",
          "name": "tokenId",
          "type": "uint256"
        }
      ],
      "name": "Transfer",
      "type": "event"
    },
    {
      "inputs": [
        {
          "internalType": "address",
          "name": "_toAdd",
          "type": "address"
        }
      ],
      "name": "addAuthorized",
      "outputs": [],
      "stateMutability": "nonpayable",
      "type": "function"
    },
    {
      "inputs": [
        {
          "internalType": "address",
          "name": "to",
          "type": "address"
        },
        {
          "internalType": "uint256",
          "name": "tokenId",
          "type": "uint256"
        }
      ],
      "name": "approve",
      "outputs": [],
      "stateMutability": "nonpayable",
      "type": "function"
    },
    {
      "inputs": [
        {
          "internalType": "address",
          "name": "",
          "type": "address"
        }
      ],
      "name": "authorized",
      "outputs": [
        {
          "internalType": "bool",
          "name": "",
          "type": "bool"
        }
      ],
      "stateMutability": "view",
      "type": "function"
    },
    {
      "inputs": [
        {
          "internalType": "address",
          "name": "owner",
          "type": "address"
        }
      ],
      "name": "balanceOf",
      "outputs": [
        {
          "internalType": "uint256",
          "name": "",
          "type": "uint256"
        }
      ],
      "stateMutability": "view",
      "type": "function"
    },
    {
      "inputs": [],
      "name": "baseURI",
      "outputs": [
        {
          "internalType": "string",
          "name": "",
          "type": "string"
        }
      ],
      "stateMutability": "view",
      "type": "function"
    },
    {
      "inputs": [],
      "name": "buyToken",
      "outputs": [
        {
          "internalType": "contract IERC20",
          "name": "",
          "type": "address"
        }
      ],
      "stateMutability": "view",
      "type": "function"
    },
    {
      "inputs": [],
      "name": "buyTokenPerLevel",
      "outputs": [
        {
          "internalType": "uint256",
          "name": "",
          "type": "uint256"
        }
      ],
      "stateMutability": "view",
      "type": "function"
    },
    {
      "inputs": [],
      "name": "communityFund",
      "outputs": [
        {
          "internalType": "address",
          "name": "",
          "type": "address"
        }
      ],
      "stateMutability": "view",
      "type": "function"
    },
    {
      "inputs": [
        {
          "internalType": "uint256",
          "name": "level",
          "type": "uint256"
        }
      ],
      "name": "costOf",
      "outputs": [
        {
          "internalType": "uint256",
          "name": "",
          "type": "uint256"
        }
      ],
      "stateMutability": "view",
      "type": "function"
    },
    {
      "inputs": [
        {
          "internalType": "uint256",
          "name": "",
          "type": "uint256"
        }
      ],
      "name": "creationTime",
      "outputs": [
        {
          "internalType": "uint256",
          "name": "",
          "type": "uint256"
        }
      ],
      "stateMutability": "view",
      "type": "function"
    },
    {
      "inputs": [
        {
          "internalType": "uint256",
          "name": "tokenId",
          "type": "uint256"
        }
      ],
      "name": "getApproved",
      "outputs": [
        {
          "internalType": "address",
          "name": "",
          "type": "address"
        }
      ],
      "stateMutability": "view",
      "type": "function"
    },
    {
      "inputs": [],
      "name": "initialPrice",
      "outputs": [
        {
          "internalType": "uint256",
          "name": "",
          "type": "uint256"
        }
      ],
      "stateMutability": "view",
      "type": "function"
    },
    {
      "inputs": [
        {
          "internalType": "address",
          "name": "owner",
          "type": "address"
        },
        {
          "internalType": "address",
          "name": "operator",
          "type": "address"
        }
      ],
      "name": "isApprovedForAll",
      "outputs": [
        {
          "internalType": "bool",
          "name": "",
          "type": "bool"
        }
      ],
      "stateMutability": "view",
      "type": "function"
    },
    {
      "inputs": [],
      "name": "isOperator",
      "outputs": [
        {
          "internalType": "bool",
          "name": "",
          "type": "bool"
        }
      ],
      "stateMutability": "view",
      "type": "function"
    },
    {
      "inputs": [
        {
          "internalType": "uint256",
          "name": "",
          "type": "uint256"
        }
      ],
      "name": "lastLevelTime",
      "outputs": [
        {
          "internalType": "uint256",
          "name": "",
          "type": "uint256"
        }
      ],
      "stateMutability": "view",
      "type": "function"
    },
    {
      "inputs": [
        {
          "internalType": "address",
          "name": "",
          "type": "address"
        }
      ],
      "name": "lastLockOf",
      "outputs": [
        {
          "internalType": "uint256",
          "name": "",
          "type": "uint256"
        }
      ],
      "stateMutability": "view",
      "type": "function"
    },
    {
      "inputs": [
        {
          "internalType": "address",
          "name": "",
          "type": "address"
        }
      ],
      "name": "lastUnlockTime",
      "outputs": [
        {
          "internalType": "uint256",
          "name": "",
          "type": "uint256"
        }
      ],
      "stateMutability": "view",
      "type": "function"
    },
    {
      "inputs": [
        {
          "internalType": "uint256",
          "name": "level",
          "type": "uint256"
        }
      ],
      "name": "levelURI",
      "outputs": [
        {
          "internalType": "string",
          "name": "",
          "type": "string"
        }
      ],
      "stateMutability": "view",
      "type": "function"
    },
    {
      "inputs": [
        {
          "internalType": "uint256",
          "name": "",
          "type": "uint256"
        }
      ],
      "name": "levelURIsLevel",
      "outputs": [
        {
          "internalType": "uint256",
          "name": "",
          "type": "uint256"
        }
      ],
      "stateMutability": "view",
      "type": "function"
    },
    {
      "inputs": [
        {
          "internalType": "uint256",
          "name": "",
          "type": "uint256"
        }
      ],
      "name": "levelURIsURI",
      "outputs": [
        {
          "internalType": "string",
          "name": "",
          "type": "string"
        }
      ],
      "stateMutability": "view",
      "type": "function"
    },
    {
      "inputs": [
        {
          "internalType": "uint256",
          "name": "tokenId",
          "type": "uint256"
        }
      ],
      "name": "levelUp",
      "outputs": [],
      "stateMutability": "nonpayable",
      "type": "function"
    },
    {
      "inputs": [],
      "name": "maxLevel",
      "outputs": [
        {
          "internalType": "uint256",
          "name": "",
          "type": "uint256"
        }
      ],
      "stateMutability": "view",
      "type": "function"
    },
    {
      "inputs": [
        {
          "internalType": "uint256",
          "name": "",
          "type": "uint256"
        }
      ],
      "name": "maxLevelLevel",
      "outputs": [
        {
          "internalType": "uint256",
          "name": "",
          "type": "uint256"
        }
      ],
      "stateMutability": "view",
      "type": "function"
    },
    {
      "inputs": [
        {
          "internalType": "uint256",
          "name": "",
          "type": "uint256"
        }
      ],
      "name": "maxLevelTime",
      "outputs": [
        {
          "internalType": "uint256",
          "name": "",
          "type": "uint256"
        }
      ],
      "stateMutability": "view",
      "type": "function"
    },
    {
      "inputs": [
        {
          "internalType": "uint256",
          "name": "tokenId1",
          "type": "uint256"
        },
        {
          "internalType": "uint256",
          "name": "tokenId2",
          "type": "uint256"
        }
      ],
      "name": "merge",
      "outputs": [
        {
          "internalType": "uint256",
          "name": "",
          "type": "uint256"
        }
      ],
      "stateMutability": "nonpayable",
      "type": "function"
    },
    {
      "inputs": [
        {
          "internalType": "uint256",
          "name": "level",
          "type": "uint256"
        }
      ],
      "name": "mint",
      "outputs": [
        {
          "internalType": "uint256",
          "name": "",
          "type": "uint256"
        }
      ],
      "stateMutability": "nonpayable",
      "type": "function"
    },
    {
      "inputs": [],
      "name": "name",
      "outputs": [
        {
          "internalType": "string",
          "name": "",
          "type": "string"
        }
      ],
      "stateMutability": "view",
      "type": "function"
    },
    {
      "inputs": [
        {
          "internalType": "uint256",
          "name": "tokenId",
          "type": "uint256"
        }
      ],
      "name": "nextLevelTime",
      "outputs": [
        {
          "internalType": "uint256",
          "name": "",
          "type": "uint256"
        }
      ],
      "stateMutability": "view",
      "type": "function"
    },
    {
      "inputs": [
        {
          "internalType": "uint256",
          "name": "tokenId",
          "type": "uint256"
        }
      ],
      "name": "nftUnlock",
      "outputs": [],
      "stateMutability": "nonpayable",
      "type": "function"
    },
    {
      "inputs": [],
      "name": "operator",
      "outputs": [
        {
          "internalType": "address",
          "name": "",
          "type": "address"
        }
      ],
      "stateMutability": "view",
      "type": "function"
    },
    {
      "inputs": [],
      "name": "owner",
      "outputs": [
        {
          "internalType": "address",
          "name": "",
          "type": "address"
        }
      ],
      "stateMutability": "view",
      "type": "function"
    },
    {
      "inputs": [
        {
          "internalType": "uint256",
          "name": "tokenId",
          "type": "uint256"
        }
      ],
      "name": "ownerOf",
      "outputs": [
        {
          "internalType": "address",
          "name": "",
          "type": "address"
        }
      ],
      "stateMutability": "view",
      "type": "function"
    },
    {
      "inputs": [
        {
          "internalType": "address",
          "name": "_toRemove",
          "type": "address"
        }
      ],
      "name": "removeAuthorized",
      "outputs": [],
      "stateMutability": "nonpayable",
      "type": "function"
    },
    {
      "inputs": [],
      "name": "renounceOwnership",
      "outputs": [],
      "stateMutability": "nonpayable",
      "type": "function"
    },
    {
      "inputs": [
        {
          "internalType": "address",
          "name": "from",
          "type": "address"
        },
        {
          "internalType": "address",
          "name": "to",
          "type": "address"
        },
        {
          "internalType": "uint256",
          "name": "tokenId",
          "type": "uint256"
        }
      ],
      "name": "safeTransferFrom",
      "outputs": [],
      "stateMutability": "nonpayable",
      "type": "function"
    },
    {
      "inputs": [
        {
          "internalType": "address",
          "name": "from",
          "type": "address"
        },
        {
          "internalType": "address",
          "name": "to",
          "type": "address"
        },
        {
          "internalType": "uint256",
          "name": "tokenId",
          "type": "uint256"
        },
        {
          "internalType": "bytes",
          "name": "_data",
          "type": "bytes"
        }
      ],
      "name": "safeTransferFrom",
      "outputs": [],
      "stateMutability": "nonpayable",
      "type": "function"
    },
    {
      "inputs": [
        {
          "internalType": "address",
          "name": "operator",
          "type": "address"
        },
        {
          "internalType": "bool",
          "name": "approved",
          "type": "bool"
        }
      ],
      "name": "setApprovalForAll",
      "outputs": [],
      "stateMutability": "nonpayable",
      "type": "function"
    },
    {
      "inputs": [
        {
          "internalType": "contract IERC20",
          "name": "_buy",
          "type": "address"
        }
      ],
      "name": "setBuyToken",
      "outputs": [],
      "stateMutability": "nonpayable",
      "type": "function"
    },
    {
      "inputs": [
        {
          "internalType": "uint256",
          "name": "_perLevel",
          "type": "uint256"
        }
      ],
      "name": "setBuyTokenPerLevel",
      "outputs": [],
      "stateMutability": "nonpayable",
      "type": "function"
    },
    {
      "inputs": [
        {
          "internalType": "address",
          "name": "_fund",
          "type": "address"
        }
      ],
      "name": "setCommunityFund",
      "outputs": [],
      "stateMutability": "nonpayable",
      "type": "function"
    },
    {
      "inputs": [
        {
          "internalType": "uint256",
          "name": "tokenId",
          "type": "uint256"
        },
        {
          "internalType": "uint256",
          "name": "time",
          "type": "uint256"
        }
      ],
      "name": "setCreationTime",
      "outputs": [],
      "stateMutability": "nonpayable",
      "type": "function"
    },
    {
      "inputs": [
        {
          "internalType": "uint256",
          "name": "_initial",
          "type": "uint256"
        }
      ],
      "name": "setInitialPrice",
      "outputs": [],
      "stateMutability": "nonpayable",
      "type": "function"
    },
    {
      "inputs": [
        {
          "internalType": "uint256",
          "name": "tokenId",
          "type": "uint256"
        },
        {
          "internalType": "uint256",
          "name": "time",
          "type": "uint256"
        }
      ],
      "name": "setLastLevelTime",
      "outputs": [],
      "stateMutability": "nonpayable",
      "type": "function"
    },
    {
      "inputs": [
        {
          "internalType": "address",
          "name": "user",
          "type": "address"
        },
        {
          "internalType": "uint256",
          "name": "time",
          "type": "uint256"
        }
      ],
      "name": "setLastLockOf",
      "outputs": [],
      "stateMutability": "nonpayable",
      "type": "function"
    },
    {
      "inputs": [
        {
          "internalType": "address",
          "name": "user",
          "type": "address"
        },
        {
          "internalType": "uint256",
          "name": "time",
          "type": "uint256"
        }
      ],
      "name": "setLastUnlockTime",
      "outputs": [],
      "stateMutability": "nonpayable",
      "type": "function"
    },
    {
      "inputs": [
        {
          "internalType": "uint256[]",
          "name": "_levelURIsLevel",
          "type": "uint256[]"
        },
        {
          "internalType": "string[]",
          "name": "_levelURIsURI",
          "type": "string[]"
        }
      ],
      "name": "setLevelURIs",
      "outputs": [],
      "stateMutability": "nonpayable",
      "type": "function"
    },
    {
      "inputs": [
        {
          "internalType": "uint256[]",
          "name": "_maxLevelTime",
          "type": "uint256[]"
        },
        {
          "internalType": "uint256[]",
          "name": "_maxLevelLevel",
          "type": "uint256[]"
        }
      ],
      "name": "setMaxLevel",
      "outputs": [],
      "stateMutability": "nonpayable",
      "type": "function"
    },
    {
      "inputs": [
        {
          "internalType": "uint256",
          "name": "_time",
          "type": "uint256"
        }
      ],
      "name": "setTimeToLevel",
      "outputs": [],
      "stateMutability": "nonpayable",
      "type": "function"
    },
    {
      "inputs": [
        {
          "internalType": "uint256",
          "name": "tokenId",
          "type": "uint256"
        },
        {
          "internalType": "uint256",
          "name": "level",
          "type": "uint256"
        }
      ],
      "name": "setTokenLevel",
      "outputs": [],
      "stateMutability": "nonpayable",
      "type": "function"
    },
    {
      "inputs": [
        {
          "internalType": "bytes4",
          "name": "interfaceId",
          "type": "bytes4"
        }
      ],
      "name": "supportsInterface",
      "outputs": [
        {
          "internalType": "bool",
          "name": "",
          "type": "bool"
        }
      ],
      "stateMutability": "view",
      "type": "function"
    },
    {
      "inputs": [],
      "name": "symbol",
      "outputs": [
        {
          "internalType": "string",
          "name": "",
          "type": "string"
        }
      ],
      "stateMutability": "view",
      "type": "function"
    },
    {
      "inputs": [],
      "name": "theory",
      "outputs": [
        {
          "internalType": "contract IERC20Lockable",
          "name": "",
          "type": "address"
        }
      ],
      "stateMutability": "view",
      "type": "function"
    },
    {
      "inputs": [
        {
          "internalType": "uint256",
          "name": "tokenId",
          "type": "uint256"
        }
      ],
      "name": "timeLeftToLevel",
      "outputs": [
        {
          "internalType": "uint256",
          "name": "",
          "type": "uint256"
        }
      ],
      "stateMutability": "view",
      "type": "function"
    },
    {
      "inputs": [],
      "name": "timeToLevel",
      "outputs": [
        {
          "internalType": "uint256",
          "name": "",
          "type": "uint256"
        }
      ],
      "stateMutability": "view",
      "type": "function"
    },
    {
      "inputs": [
        {
          "internalType": "uint256",
          "name": "index",
          "type": "uint256"
        }
      ],
      "name": "tokenByIndex",
      "outputs": [
        {
          "internalType": "uint256",
          "name": "",
          "type": "uint256"
        }
      ],
      "stateMutability": "view",
      "type": "function"
    },
    {
      "inputs": [
        {
          "internalType": "uint256",
          "name": "",
          "type": "uint256"
        }
      ],
      "name": "tokenLevels",
      "outputs": [
        {
          "internalType": "uint256",
          "name": "",
          "type": "uint256"
        }
      ],
      "stateMutability": "view",
      "type": "function"
    },
    {
      "inputs": [
        {
          "internalType": "address",
          "name": "owner",
          "type": "address"
        },
        {
          "internalType": "uint256",
          "name": "index",
          "type": "uint256"
        }
      ],
      "name": "tokenOfOwnerByIndex",
      "outputs": [
        {
          "internalType": "uint256",
          "name": "",
          "type": "uint256"
        }
      ],
      "stateMutability": "view",
      "type": "function"
    },
    {
      "inputs": [
        {
          "internalType": "uint256",
          "name": "tokenId",
          "type": "uint256"
        }
      ],
      "name": "tokenURI",
      "outputs": [
        {
          "internalType": "string",
          "name": "",
          "type": "string"
        }
      ],
      "stateMutability": "view",
      "type": "function"
    },
    {
      "inputs": [],
      "name": "totalSupply",
      "outputs": [
        {
          "internalType": "uint256",
          "name": "",
          "type": "uint256"
        }
      ],
      "stateMutability": "view",
      "type": "function"
    },
    {
      "inputs": [
        {
          "internalType": "address",
          "name": "from",
          "type": "address"
        },
        {
          "internalType": "address",
          "name": "to",
          "type": "address"
        },
        {
          "internalType": "uint256",
          "name": "tokenId",
          "type": "uint256"
        }
      ],
      "name": "transferFrom",
      "outputs": [],
      "stateMutability": "nonpayable",
      "type": "function"
    },
    {
      "inputs": [
        {
          "internalType": "address",
          "name": "newOperator_",
          "type": "address"
        }
      ],
      "name": "transferOperator",
      "outputs": [],
      "stateMutability": "nonpayable",
      "type": "function"
    },
    {
      "inputs": [
        {
          "internalType": "address",
          "name": "newOwner",
          "type": "address"
        }
      ],
      "name": "transferOwnership",
      "outputs": [],
      "stateMutability": "nonpayable",
      "type": "function"
    }
  ],
  "bytecode": "0x60806040523480156200001157600080fd5b506040516200504d3803806200504d833981016040819052620000349162000692565b604080518082018252600f81526e2a2422a7a92c902ab73637b1b5b2b960891b60208083019190915282518084019093526002835261475560f01b9083015290620000866301ffc9a760e01b62000362565b81516200009b906006906020850190620003b8565b508051620000b1906007906020840190620003b8565b50620000c46380ac58cd60e01b62000362565b620000d6635b5e139f60e01b62000362565b620000e863780e9d6360e01b62000362565b5060009050620000f7620003b4565b600a80546001600160a01b0319166001600160a01b038316908117909155604051919250906000907f8be0079c531659141344cd1fd0a4f28419497f9722a3daafe3b4186f6b6457e0908290a3506200014f620003b4565b600b80546001600160a01b0319166001600160a01b0392831617908190556040519116906000907f74da04524d50c64947f5dd5381ef1a4dca5cba8ed1d816243f9e48aa0b5617ed908290a3601880546001600160a01b0319166001600160a01b038b161790556019889055601a879055815115801590620001e6575081600081518110620001da57fe5b60200260200101516000145b8015620001f4575081518151145b6200021c5760405162461bcd60e51b81526004016200021390620007cd565b60405180910390fd5b60008451118015620002435750836000815181106200023757fe5b60200260200101516000145b801562000251575083518351145b620002705760405162461bcd60e51b8152600401620002139062000884565b82516000905b80821015620002c35760648583815181106200028e57fe5b60200260200101511115620002b75760405162461bcd60e51b8152600401620002139062000841565b60018201915062000276565b8351620002d89060149060208701906200043d565b508251620002ee9060159060208601906200047a565b508551620003049060169060208901906200043d565b5084516200031a9060179060208801906200043d565b5050601b80546001600160a01b039788166001600160a01b0319918216179091556203f480601c55601d80549890971697169690961790945550620009959650505050505050565b6001600160e01b031980821614156200038f5760405162461bcd60e51b8152600401620002139062000796565b6001600160e01b0319166000908152602081905260409020805460ff19166001179055565b3390565b828054600181600116156101000203166002900490600052602060002090601f016020900481019282601f10620003fb57805160ff19168380011785556200042b565b828001600101855582156200042b579182015b828111156200042b5782518255916020019190600101906200040e565b5062000439929150620004da565b5090565b8280548282559060005260206000209081019282156200042b57916020028201828111156200042b5782518255916020019190600101906200040e565b828054828255906000526020600020908101928215620004cc579160200282015b82811115620004cc5782518051620004bb918491602090910190620003b8565b50916020019190600101906200049b565b5062000439929150620004f1565b5b80821115620004395760008155600101620004db565b808211156200043957600062000508828262000512565b50600101620004f1565b50805460018160011615610100020316600290046000825580601f106200053a57506200055a565b601f0160209004906000526020600020908101906200055a9190620004da565b50565b80516001600160a01b03811681146200057557600080fd5b92915050565b600082601f8301126200058c578081fd5b8151620005a36200059d826200091e565b620008f7565b818152915060208083019084810160005b8481101562000622578151870188603f820112620005d157600080fd5b83810151620005e46200059d826200093e565b81815260408b81848601011115620005fb57600080fd5b6200060c8388840183870162000962565b50865250509282019290820190600101620005b4565b505050505092915050565b600082601f8301126200063e578081fd5b81516200064f6200059d826200091e565b8181529150602080830190848101818402860182018710156200067157600080fd5b60005b84811015620006225781518452928201929082019060010162000674565b60008060008060008060008060006101208a8c031215620006b1578485fd5b620006bd8b8b6200055d565b985060208a0151975060408a01519650620006dc8b60608c016200055d565b9550620006ed8b60808c016200055d565b60a08b01519095506001600160401b03808211156200070a578586fd5b620007188d838e016200062d565b955060c08c01519150808211156200072e578485fd5b6200073c8d838e016200062d565b945060e08c015191508082111562000752578384fd5b620007608d838e016200062d565b93506101008c015191508082111562000777578283fd5b50620007868c828d016200057b565b9150509295985092959850929598565b6020808252601c908201527f4552433136353a20696e76616c696420696e7465726661636520696400000000604082015260600190565b6020808252604e908201527f4c6576656c2055524920617272617973206d75737420626520657175616c206960408201527f6e206e6f6e2d7a65726f206c656e67746820616e64206c6576656c2073686f7560608201526d36321039ba30b93a1030ba10181760911b608082015260a00190565b60208082526023908201527f4d6178206c6576656c2063616e277420626520686967686572207468616e203160408201526218181760e91b606082015260800190565b6020808252604d908201527f4d6178206c6576656c20617272617973206d75737420626520657175616c206960408201527f6e206e6f6e2d7a65726f206c656e67746820616e642074696d652073686f756c60608201526c321039ba30b93a1030ba10181760991b608082015260a00190565b6040518181016001600160401b03811182821017156200091657600080fd5b604052919050565b60006001600160401b0382111562000934578081fd5b5060209081020190565b60006001600160401b0382111562000954578081fd5b50601f01601f191660200190565b60005b838110156200097f57818101518382015260200162000965565b838111156200098f576000848401525b50505050565b6146a880620009a56000396000f3fe608060405234801561001057600080fd5b50600436106103b95760003560e01c806371167122116101f4578063cc67d1ae1161011a578063e600d94d116100ad578063f1c876651161007c578063f1c87665146107a6578063f2fde38b146107b9578063fd326592146107cc578063fd71f6f6146107df576103b9565b8063e600d94d1461075a578063e985e9c51461076d578063ec3ddf3014610780578063ed1a7bb514610793576103b9565b8063d8cab4a9116100e9578063d8cab4a91461070e578063db357c3014610721578063dc7887a414610734578063dd289dcb14610747576103b9565b8063cc67d1ae146106c2578063cf1c316a146106d5578063d1c2babb146106e8578063d5ae33e2146106fb576103b9565b8063a22cb46511610192578063b918161111610161578063b918161114610681578063c87b56dd14610694578063ca60567a146106a7578063cc06c359146106ba576103b9565b8063a22cb46514610640578063a482171914610653578063aa08279c1461065b578063b88d4fde1461066e576103b9565b80638da5cb5b116101ce5780638da5cb5b1461060a57806395d89b41146106125780639f4ba0ee1461061a578063a0712d681461062d576103b9565b806371167122146105dc578063715018a6146105ef5780638a1165b3146105f7576103b9565b806337339a16116102e4578063485d7d94116102775780636352211e116102465780636352211e1461059b5780636c0360eb146105ae5780637001e2a6146105b657806370a08231146105c9576103b9565b8063485d7d941461055a5780634f6ccce71461056d578063570ca735146105805780635b2f4ed414610588576103b9565b80633f684d38116102b35780633f684d381461052457806342842e0e146105375780634456eda21461054a57806347aebf9a14610552576103b9565b806337339a16146104e357806338d17099146104f65780633bcafb63146105095780633c32a4501461051c576103b9565b806318160ddd1161035c57806329605e771161032b57806329605e77146104975780632bac9689146104aa5780632eb552f3146104bd5780632f745c59146104d0576103b9565b806318160ddd1461046c5780631d0806ae1461047457806323b872dd1461047c578063257c739b1461048f576103b9565b806308143796116103985780630814379614610411578063081812fc14610431578063095ea7b3146104445780630ce90ec214610459576103b9565b8062f380f4146103be57806301ffc9a7146103dc57806306fdde03146103fc575b600080fd5b6103c66107f2565b6040516103d3919061397a565b60405180910390f35b6103ef6103ea36600461387a565b610801565b6040516103d39190613a08565b610404610824565b6040516103d39190613a13565b61042461041f3660046138b2565b6108ba565b6040516103d39190614562565b6103c661043f3660046138b2565b6108d8565b610457610452366004613722565b610924565b005b6104576104673660046138b2565b6109bc565b610424610bab565b610424610bbc565b61045761048a36600461364b565b610bc2565b610424610bfa565b6104576104a53660046135f7565b610c00565b6104576104b83660046138b2565b610c36565b6104246104cb3660046138b2565b610c9e565b6104246104de366004613722565b610cab565b6104576104f13660046135f7565b610cd6565b6104046105043660046138b2565b610d5b565b6104246105173660046138b2565b610e5b565b6103c6610e68565b6104246105323660046138b2565b610e77565b61045761054536600461364b565b610eba565b6103ef610ed5565b610424610efb565b6104576105683660046135f7565b610f01565b61042461057b3660046138b2565b610f77565b6103c6610f8d565b6104046105963660046138b2565b610f9c565b6103c66105a93660046138b2565b611042565b61040461106a565b6104576105c4366004613722565b6110cb565b6104246105d73660046135f7565b61114a565b6104576105ea3660046138e2565b611193565b610457611208565b6104576106053660046135f7565b611291565b6103c6611316565b610404611325565b6104576106283660046138b2565b611386565b61042461063b3660046138b2565b6113ee565b61045761064e3660046136f5565b611583565b6103c6611651565b6104576106693660046137fd565b611660565b61045761067c36600461368b565b61178c565b6103ef61068f3660046135f7565b6117cb565b6104046106a23660046138b2565b6117e0565b6104576106b53660046138e2565b611926565b61042461199b565b6104576106d03660046138e2565b611a03565b6104576106e33660046135f7565b611a78565b6104246106f63660046138e2565b611adb565b6104246107093660046138b2565b611da7565b61045761071c36600461374d565b611db9565b61045761072f3660046138b2565b611e91565b6104246107423660046135f7565b6123e5565b6104576107553660046138b2565b6123f7565b6104246107683660046138b2565b61245f565b6103ef61077b366004613613565b612471565b61042461078e3660046138b2565b61249f565b6104576107a1366004613722565b6124bd565b6104246107b43660046135f7565b61253c565b6104576107c73660046135f7565b61254e565b6104246107da3660046138b2565b61260f565b6104246107ed3660046138b2565b612622565b601b546001600160a01b031681565b6001600160e01b0319811660009081526020819052604090205460ff165b919050565b60068054604080516020601f60026000196101006001881615020190951694909404938401819004810282018101909252828152606093909290918301828280156108b05780601f10610885576101008083540402835291602001916108b0565b820191906000526020600020905b81548152906001019060200180831161089357829003601f168201915b5050505050905090565b601781815481106108c757fe5b600091825260209091200154905081565b60006108e382612634565b6109085760405162461bcd60e51b81526004016108ff90614114565b60405180910390fd5b506000908152600460205260409020546001600160a01b031690565b600061092f82611042565b9050806001600160a01b0316836001600160a01b031614156109635760405162461bcd60e51b81526004016108ff90614300565b806001600160a01b0316610975612641565b6001600160a01b0316148061099157506109918161077b612641565b6109ad5760405162461bcd60e51b81526004016108ff90613e8c565b6109b78383612645565b505050565b6109c46126b3565b156109e15760405162461bcd60e51b81526004016108ff906144a7565b6109e96126d4565b15610a065760405162461bcd60e51b81526004016108ff906144a7565b33610a1082611042565b6001600160a01b03161480610a345750336000908152600c602052604090205460ff165b80610a4e575033610a43611316565b6001600160a01b0316145b80610a68575033610a5d610f8d565b6001600160a01b0316145b610a845760405162461bcd60e51b81526004016108ff90613e26565b610a8c61199b565b6000828152600f602052604090205410610ab85760405162461bcd60e51b81526004016108ff90613fe8565b601c546000828152601160205260408120549091610ad691906126f5565b905080421015610af85760405162461bcd60e51b81526004016108ff906144ed565b6000828152601160209081526040808320849055600f909152812054610b1f9060016126f5565b6000848152600f6020526040902081905590506060610b3d82610d5b565b90506000815111610b605760405162461bcd60e51b81526004016108ff90613e5d565b610b6a848261271a565b5050436000908152600d602090815260408083203284529091528082208054600160ff19918216811790925533845291909220805490911690911790555050565b6000610bb7600261275e565b905090565b60195481565b610bd3610bcd612641565b82612769565b610bef5760405162461bcd60e51b81526004016108ff906143d5565b6109b78383836127ee565b601a5481565b600b546001600160a01b03163314610c2a5760405162461bcd60e51b81526004016108ff90614279565b610c33816128fc565b50565b336000908152600c602052604090205460ff1680610c63575033610c58611316565b6001600160a01b0316145b80610c7d575033610c72610f8d565b6001600160a01b0316145b610c995760405162461bcd60e51b81526004016108ff90614341565b601a55565b601481815481106108c757fe5b6001600160a01b0382166000908152600160205260408120610ccd908361297a565b90505b92915050565b336000908152600c602052604090205460ff1680610d03575033610cf8611316565b6001600160a01b0316145b80610d1d575033610d12610f8d565b6001600160a01b0316145b610d395760405162461bcd60e51b81526004016108ff90614341565b601b80546001600160a01b0319166001600160a01b0392909216919091179055565b604080516020810190915260008082526014546060929181905b8115610e515760018203905060148181548110610d8e57fe5b90600052602060002001548610610e465760158181548110610dac57fe5b600091825260209182902001805460408051601f6002600019610100600187161502019094169390930492830185900485028101850190915281815292830182828015610e3a5780601f10610e0f57610100808354040283529160200191610e3a565b820191906000526020600020905b815481529060010190602001808311610e1d57829003601f168201915b50505050509350610e51565b600182039150610d75565b5091949350505050565b601681815481106108c757fe5b601d546001600160a01b031681565b601c5460008281526011602052604081205490918291610e96916126f5565b9050804210610ea957600091505061081f565b610eb38142612986565b9392505050565b6109b78383836040518060200160405280600081525061178c565b600b546000906001600160a01b0316610eec612641565b6001600160a01b031614905090565b601c5481565b610f09612641565b6001600160a01b0316610f1a611316565b6001600160a01b031614610f405760405162461bcd60e51b81526004016108ff906141ac565b6001600160a01b038116331415610f5657600080fd5b6001600160a01b03166000908152600c60205260409020805460ff19169055565b600080610f856002846129ae565b509392505050565b600b546001600160a01b031690565b60158181548110610fa957fe5b600091825260209182902001805460408051601f600260001961010060018716150201909416939093049283018590048502810185019091528181529350909183018282801561103a5780601f1061100f5761010080835404028352916020019161103a565b820191906000526020600020905b81548152906001019060200180831161101d57829003601f168201915b505050505081565b6000610cd08260405180606001604052806029815260200161464a60299139600291906129ca565b60098054604080516020601f60026000196101006001881615020190951694909404938401819004810282018101909252828152606093909290918301828280156108b05780601f10610885576101008083540402835291602001916108b0565b336000908152600c602052604090205460ff16806110f85750336110ed611316565b6001600160a01b0316145b80611112575033611107610f8d565b6001600160a01b0316145b61112e5760405162461bcd60e51b81526004016108ff90614341565b6001600160a01b03909116600090815260126020526040902055565b60006001600160a01b0382166111725760405162461bcd60e51b81526004016108ff90613ee9565b6001600160a01b0382166000908152600160205260409020610cd09061275e565b336000908152600c602052604090205460ff16806111c05750336111b5611316565b6001600160a01b0316145b806111da5750336111cf610f8d565b6001600160a01b0316145b6111f65760405162461bcd60e51b81526004016108ff90614341565b60009182526010602052604090912055565b611210612641565b6001600160a01b0316611221611316565b6001600160a01b0316146112475760405162461bcd60e51b81526004016108ff906141ac565b600a546040516000916001600160a01b0316907f8be0079c531659141344cd1fd0a4f28419497f9722a3daafe3b4186f6b6457e0908390a3600a80546001600160a01b0319169055565b336000908152600c602052604090205460ff16806112be5750336112b3611316565b6001600160a01b0316145b806112d85750336112cd610f8d565b6001600160a01b0316145b6112f45760405162461bcd60e51b81526004016108ff90614341565b601880546001600160a01b0319166001600160a01b0392909216919091179055565b600a546001600160a01b031690565b60078054604080516020601f60026000196101006001881615020190951694909404938401819004810282018101909252828152606093909290918301828280156108b05780601f10610885576101008083540402835291602001916108b0565b336000908152600c602052604090205460ff16806113b35750336113a8611316565b6001600160a01b0316145b806113cd5750336113c2610f8d565b6001600160a01b0316145b6113e95760405162461bcd60e51b81526004016108ff90614341565b601955565b60006113f86126b3565b156114155760405162461bcd60e51b81526004016108ff906144a7565b61141d6126d4565b1561143a5760405162461bcd60e51b81526004016108ff906144a7565b600082118015611451575061144d61199b565b8211155b61146d5760405162461bcd60e51b81526004016108ff90613a68565b33600061149361148a611481866001612986565b601a54906129d7565b601954906126f5565b601b546018549192506114b5916001600160a01b039081169133911684612a11565b6114bf600e612a69565b60006114cb600e612a72565b6000818152601060209081526040808320429081905560119092529091205590506114f68382612a76565b6000818152600f60205260409020859055606061151286610d5b565b905060008151116115355760405162461bcd60e51b81526004016108ff90613e5d565b61153f828261271a565b50436000908152600d602090815260408083203284529091528082208054600160ff1991821681179092553384529190922080549091169091179055949350505050565b61158b612641565b6001600160a01b0316826001600160a01b031614156115bc5760405162461bcd60e51b81526004016108ff90613cac565b80600560006115c9612641565b6001600160a01b03908116825260208083019390935260409182016000908120918716808252919093529120805460ff19169215159290921790915561160d612641565b6001600160a01b03167f17307eab39ab6107e8899845ad3d59bd9653f200f220920489ca2b5937696c31836040516116459190613a08565b60405180910390a35050565b6018546001600160a01b031681565b336000908152600c602052604090205460ff168061168d575033611682611316565b6001600160a01b0316145b806116a757503361169c610f8d565b6001600160a01b0316145b6116c35760405162461bcd60e51b81526004016108ff90614341565b600082511180156116e85750816000815181106116dc57fe5b60200260200101516000145b80156116f5575081518151145b6117115760405162461bcd60e51b81526004016108ff90614060565b80516000905b8082101561175e57606483838151811061172d57fe5b602002602001015111156117535760405162461bcd60e51b81526004016108ff90613ce3565b600182019150611717565b835161177190601690602087019061339d565b50825161178590601790602086019061339d565b5050505050565b61179d611797612641565b83612769565b6117b95760405162461bcd60e51b81526004016108ff906143d5565b6117c584848484612b3a565b50505050565b600c6020526000908152604090205460ff1681565b60606117eb82612634565b6118075760405162461bcd60e51b81526004016108ff9061422a565b60008281526008602090815260409182902080548351601f600260001961010060018616150201909316929092049182018490048402810184019094528084526060939283018282801561189c5780601f106118715761010080835404028352916020019161189c565b820191906000526020600020905b81548152906001019060200180831161187f57829003601f168201915b5050505050905060606118ad61106a565b90508051600014156118c15750905061081f565b8151156118f35780826040516020016118db92919061394b565b6040516020818303038152906040529250505061081f565b806118fd85612b6d565b60405160200161190e92919061394b565b60405160208183030381529060405292505050919050565b336000908152600c602052604090205460ff1680611953575033611948611316565b6001600160a01b0316145b8061196d575033611962610f8d565b6001600160a01b0316145b6119895760405162461bcd60e51b81526004016108ff90614341565b6000918252600f602052604090912055565b601654600090819080825b81156119fa57600182039050601681815481106119bf57fe5b906000526020600020015442106119ef57601781815481106119dd57fe5b906000526020600020015493506119fa565b6001820391506119a6565b50919250505090565b336000908152600c602052604090205460ff1680611a30575033611a25611316565b6001600160a01b0316145b80611a4a575033611a3f610f8d565b6001600160a01b0316145b611a665760405162461bcd60e51b81526004016108ff90614341565b60009182526011602052604090912055565b611a80612641565b6001600160a01b0316611a91611316565b6001600160a01b031614611ab75760405162461bcd60e51b81526004016108ff906141ac565b6001600160a01b03166000908152600c60205260409020805460ff19166001179055565b6000611ae56126b3565b15611b025760405162461bcd60e51b81526004016108ff906144a7565b611b0a6126d4565b15611b275760405162461bcd60e51b81526004016108ff906144a7565b33611b3184611042565b6001600160a01b03161480611b555750336000908152600c602052604090205460ff165b80611b6f575033611b64611316565b6001600160a01b0316145b80611b89575033611b7e610f8d565b6001600160a01b0316145b611ba55760405162461bcd60e51b81526004016108ff90613aab565b33611baf83611042565b6001600160a01b03161480611bd35750336000908152600c602052604090205460ff165b80611bed575033611be2611316565b6001600160a01b0316145b80611c07575033611bfc610f8d565b6001600160a01b0316145b611c235760405162461bcd60e51b81526004016108ff906142bd565b611c2c82611042565b6001600160a01b0316611c3e84611042565b6001600160a01b031614611c645760405162461bcd60e51b81526004016108ff9061451d565b6000828152600f60205260408082205485835290822054611c84916126f5565b9050600081118015611c9d5750611c9961199b565b8111155b611cb95760405162461bcd60e51b81526004016108ff90613a68565b6000611cc485611042565b9050611ccf85612c48565b611cd884612c48565b611ce2600e612a69565b6000611cee600e612a72565b600081815260106020908152604080832042908190556011909252909120559050611d198282612a76565b6000818152600f602052604090208390556060611d3584610d5b565b90506000815111611d585760405162461bcd60e51b81526004016108ff90613e5d565b611d62828261271a565b50436000908152600d602090815260408083203284529091528082208054600160ff199182168117909255338452919092208054909116909117905595945050505050565b60106020526000908152604090205481565b336000908152600c602052604090205460ff1680611de6575033611ddb611316565b6001600160a01b0316145b80611e00575033611df5610f8d565b6001600160a01b0316145b611e1c5760405162461bcd60e51b81526004016108ff90614341565b60008251118015611e41575081600081518110611e3557fe5b60200260200101516000145b8015611e4e575081518151145b611e6a5760405162461bcd60e51b81526004016108ff90613bbd565b8151611e7d90601490602085019061339d565b5080516109b79060159060208401906133e8565b611e996126b3565b15611eb65760405162461bcd60e51b81526004016108ff906144a7565b611ebe6126d4565b15611edb5760405162461bcd60e51b81526004016108ff906144a7565b33611ee582611042565b6001600160a01b03161480611f095750336000908152600c602052604090205460ff165b80611f23575033611f18611316565b6001600160a01b0316145b80611f3d575033611f32610f8d565b6001600160a01b0316145b611f595760405162461bcd60e51b81526004016108ff90613e26565b6000611f6482611042565b6001600160a01b0381166000908152601260205260409020549091504211611f9e5760405162461bcd60e51b81526004016108ff90613f33565b601d54604051635a46d3b560e01b81526000916001600160a01b031690635a46d3b590611fcf90859060040161397a565b60206040518083038186803b158015611fe757600080fd5b505afa158015611ffb573d6000803e3d6000fd5b505050506040513d601f19601f8201168201806040525081019061201f91906138ca565b905080612052576001600160a01b03909116600090815260126020908152604080832042905560139091529020556123a7565b601d5460405163010158bb60e51b81526000916001600160a01b03169063202b17609061208390869060040161397a565b60206040518083038186803b15801561209b57600080fd5b505afa1580156120af573d6000803e3d6000fd5b505050506040513d601f19601f820116820180604052508101906120d391906138ca565b90508082116120f45760405162461bcd60e51b81526004016108ff90614378565b6120fe8282612986565b6001600160a01b038416600090815260136020526040902054909250821161223e57601d5460405163579587b360e11b81526001600160a01b039091169063af2b0f66906121539086906000906004016139ef565b600060405180830381600087803b15801561216d57600080fd5b505af1158015612181573d6000803e3d6000fd5b5050506001600160a01b0380851660009081526012602052604090819020429055601d549051635a46d3b560e01b815291169150635a46d3b5906121c990869060040161397a565b60206040518083038186803b1580156121e157600080fd5b505afa1580156121f5573d6000803e3d6000fd5b505050506040513d601f19601f8201168201806040525081019061221991906138ca565b6001600160a01b03909316600090815260136020526040902092909255506123a79050565b6001600160a01b038316600090815260136020526040902054612262908390612986565b6000858152600f60205260408120549193509061228d906064906122879086906129d7565b90612d15565b601d5460405163579587b360e11b81529192506001600160a01b03169063af2b0f66906122c090879085906004016139ef565b600060405180830381600087803b1580156122da57600080fd5b505af11580156122ee573d6000803e3d6000fd5b5050506001600160a01b0380861660009081526012602052604090819020429055601d549051635a46d3b560e01b815291169150635a46d3b59061233690879060040161397a565b60206040518083038186803b15801561234e57600080fd5b505afa158015612362573d6000803e3d6000fd5b505050506040513d601f19601f8201168201806040525081019061238691906138ca565b6001600160a01b039094166000908152601360205260409020939093555050505b50436000908152600d602090815260408083203284529091528082208054600160ff1991821681179092553384529190922080549091169091179055565b60126020526000908152604090205481565b336000908152600c602052604090205460ff1680612424575033612419611316565b6001600160a01b0316145b8061243e575033612433610f8d565b6001600160a01b0316145b61245a5760405162461bcd60e51b81526004016108ff90614341565b601c55565b600f6020526000908152604090205481565b6001600160a01b03918216600090815260056020908152604080832093909416825291909152205460ff1690565b601c546000828152601160205260408120549091610cd091906126f5565b336000908152600c602052604090205460ff16806124ea5750336124df611316565b6001600160a01b0316145b806125045750336124f9610f8d565b6001600160a01b0316145b6125205760405162461bcd60e51b81526004016108ff90614341565b6001600160a01b03909116600090815260136020526040902055565b60136020526000908152604090205481565b612556612641565b6001600160a01b0316612567611316565b6001600160a01b03161461258d5760405162461bcd60e51b81526004016108ff906141ac565b6001600160a01b0381166125b35760405162461bcd60e51b81526004016108ff90613b40565b600a546040516001600160a01b038084169216907f8be0079c531659141344cd1fd0a4f28419497f9722a3daafe3b4186f6b6457e090600090a3600a80546001600160a01b0319166001600160a01b0392909216919091179055565b6000610cd061148a611481846001612986565b60116020526000908152604090205481565b6000610cd0600283612d47565b3390565b600081815260046020526040902080546001600160a01b0319166001600160a01b038416908117909155819061267a82611042565b6001600160a01b03167f8c5be1e5ebec7d5bd14f71427d1e84f3dd0314c0f7b2291e5b200ac8c7c3b92560405160405180910390a45050565b436000908152600d6020908152604080832032845290915290205460ff1690565b436000908152600d6020908152604080832033845290915290205460ff1690565b600082820183811015610ccd5760405162461bcd60e51b81526004016108ff90613c31565b61272382612634565b61273f5760405162461bcd60e51b81526004016108ff90614160565b600082815260086020908152604090912082516109b792840190613441565b6000610cd082612a72565b600061277482612634565b6127905760405162461bcd60e51b81526004016108ff90613da3565b600061279b83611042565b9050806001600160a01b0316846001600160a01b031614806127d65750836001600160a01b03166127cb846108d8565b6001600160a01b0316145b806127e657506127e68185612471565b949350505050565b826001600160a01b031661280182611042565b6001600160a01b0316146128275760405162461bcd60e51b81526004016108ff906141e1565b6001600160a01b03821661284d5760405162461bcd60e51b81526004016108ff90613c68565b6128588383836109b7565b612863600082612645565b6001600160a01b03831660009081526001602052604090206128859082612d53565b506001600160a01b03821660009081526001602052604090206128a89082612d5f565b506128b560028284612d6b565b5080826001600160a01b0316846001600160a01b03167fddf252ad1be2c89b69c2b068fc378daa952ba7f163c4a11628f55a4df523b3ef60405160405180910390a4505050565b6001600160a01b0381166129225760405162461bcd60e51b81526004016108ff90613f59565b6040516001600160a01b038216906000907f74da04524d50c64947f5dd5381ef1a4dca5cba8ed1d816243f9e48aa0b5617ed908290a3600b80546001600160a01b0319166001600160a01b0392909216919091179055565b6000610ccd8383612d81565b6000828211156129a85760405162461bcd60e51b81526004016108ff90613d26565b50900390565b60008080806129bd8686612dc6565b9097909650945050505050565b60006127e6848484612e22565b6000826129e657506000610cd0565b828202828482816129f357fe5b0414610ccd5760405162461bcd60e51b81526004016108ff906140d3565b6117c5846323b872dd60e01b858585604051602401612a32939291906139cb565b60408051601f198184030181529190526020810180516001600160e01b03166001600160e01b031990931692909217909152612e81565b80546001019055565b5490565b6001600160a01b038216612a9c5760405162461bcd60e51b81526004016108ff9061402b565b612aa581612634565b15612ac25760405162461bcd60e51b81526004016108ff90613b86565b612ace600083836109b7565b6001600160a01b0382166000908152600160205260409020612af09082612d5f565b50612afd60028284612d6b565b5060405181906001600160a01b038416906000907fddf252ad1be2c89b69c2b068fc378daa952ba7f163c4a11628f55a4df523b3ef908290a45050565b612b458484846127ee565b612b5184848484612f10565b6117c55760405162461bcd60e51b81526004016108ff90613aee565b606081612b9257506040805180820190915260018152600360fc1b602082015261081f565b8160005b8115612baa57600101600a82049150612b96565b60608167ffffffffffffffff81118015612bc357600080fd5b506040519080825280601f01601f191660200182016040528015612bee576020820181803683370190505b50859350905060001982015b8315612c3f57600a840660300160f81b82828060019003935081518110612c1d57fe5b60200101906001600160f81b031916908160001a905350600a84049350612bfa565b50949350505050565b6000612c5382611042565b9050612c61816000846109b7565b612c6c600083612645565b6000828152600860205260409020546002600019610100600184161502019091160415612caa576000828152600860205260408120612caa916134ae565b6001600160a01b0381166000908152600160205260409020612ccc9083612d53565b50612cd8600283612fef565b5060405182906000906001600160a01b038416907fddf252ad1be2c89b69c2b068fc378daa952ba7f163c4a11628f55a4df523b3ef908390a45050565b6000808211612d365760405162461bcd60e51b81526004016108ff90613def565b818381612d3f57fe5b049392505050565b6000610ccd8383612ffb565b6000610ccd8383613013565b6000610ccd83836130d9565b60006127e684846001600160a01b038516613123565b81546000908210612da45760405162461bcd60e51b81526004016108ff90613a26565b826000018281548110612db357fe5b9060005260206000200154905092915050565b815460009081908310612deb5760405162461bcd60e51b81526004016108ff90613fa6565b6000846000018481548110612dfc57fe5b906000526020600020906002020190508060000154816001015492509250509250929050565b60008281526001840160205260408120548281612e525760405162461bcd60e51b81526004016108ff9190613a13565b50846000016001820381548110612e6557fe5b9060005260206000209060020201600101549150509392505050565b6060612ed6826040518060400160405280602081526020017f5361666545524332303a206c6f772d6c6576656c2063616c6c206661696c6564815250856001600160a01b03166131ba9092919063ffffffff16565b8051909150156109b75780806020019051810190612ef4919061385e565b6109b75760405162461bcd60e51b81526004016108ff9061445d565b6000612f24846001600160a01b03166131c9565b612f30575060016127e6565b6060612fb8630a85bd0160e11b612f45612641565b888787604051602401612f5b949392919061398e565b604051602081830303815290604052906001600160e01b0319166020820180516001600160e01b038381831617835250505050604051806060016040528060328152602001614618603291396001600160a01b03881691906131ba565b9050600081806020019051810190612fd09190613896565b6001600160e01b031916630a85bd0160e11b1492505050949350505050565b6000610ccd83836131cf565b60009081526001919091016020526040902054151590565b600081815260018301602052604081205480156130cf578354600019808301919081019060009087908390811061304657fe5b906000526020600020015490508087600001848154811061306357fe5b60009182526020808320909101929092558281526001898101909252604090209084019055865487908061309357fe5b60019003818190600052602060002001600090559055866001016000878152602001908152602001600020600090556001945050505050610cd0565b6000915050610cd0565b60006130e58383612ffb565b61311b57508154600181810184556000848152602080822090930184905584548482528286019093526040902091909155610cd0565b506000610cd0565b600082815260018401602052604081205480613188575050604080518082018252838152602080820184815286546001818101895560008981528481209551600290930290950191825591519082015586548684528188019092529290912055610eb3565b8285600001600183038154811061319b57fe5b9060005260206000209060020201600101819055506000915050610eb3565b60606127e684846000856132a3565b3b151590565b600081815260018301602052604081205480156130cf578354600019808301919081019060009087908390811061320257fe5b906000526020600020906002020190508087600001848154811061322257fe5b60009182526020808320845460029093020191825560019384015491840191909155835482528983019052604090209084019055865487908061326157fe5b6000828152602080822060026000199094019384020182815560019081018390559290935588815289820190925260408220919091559450610cd09350505050565b6060824710156132c55760405162461bcd60e51b81526004016108ff90613d5d565b6132ce856131c9565b6132ea5760405162461bcd60e51b81526004016108ff90614426565b60006060866001600160a01b03168587604051613307919061392f565b60006040518083038185875af1925050503d8060008114613344576040519150601f19603f3d011682016040523d82523d6000602084013e613349565b606091505b5091509150613359828286613364565b979650505050505050565b60608315613373575081610eb3565b8251156133835782518084602001fd5b8160405162461bcd60e51b81526004016108ff9190613a13565b8280548282559060005260206000209081019282156133d8579160200282015b828111156133d85782518255916020019190600101906133bd565b506133e49291506134ee565b5090565b828054828255906000526020600020908101928215613435579160200282015b828111156134355782518051613425918491602090910190613441565b5091602001919060010190613408565b506133e4929150613503565b828054600181600116156101000203166002900490600052602060002090601f016020900481019282601f1061348257805160ff19168380011785556133d8565b828001600101855582156133d857918201828111156133d85782518255916020019190600101906133bd565b50805460018160011615610100020316600290046000825580601f106134d45750610c33565b601f016020900490600052602060002090810190610c3391905b5b808211156133e457600081556001016134ef565b808211156133e457600061351782826134ae565b50600101613503565b600082601f830112613530578081fd5b813561354361353e82614592565b61456b565b81815291506020808301908481018184028601820187101561356457600080fd5b60005b8481101561358357813584529282019290820190600101613567565b505050505092915050565b600082601f83011261359e578081fd5b813567ffffffffffffffff8111156135b4578182fd5b6135c7601f8201601f191660200161456b565b91508082528360208285010111156135de57600080fd5b8060208401602084013760009082016020015292915050565b600060208284031215613608578081fd5b8135610ccd816145de565b60008060408385031215613625578081fd5b8235613630816145de565b91506020830135613640816145de565b809150509250929050565b60008060006060848603121561365f578081fd5b833561366a816145de565b9250602084013561367a816145de565b929592945050506040919091013590565b600080600080608085870312156136a0578081fd5b84356136ab816145de565b935060208501356136bb816145de565b925060408501359150606085013567ffffffffffffffff8111156136dd578182fd5b6136e98782880161358e565b91505092959194509250565b60008060408385031215613707578182fd5b8235613712816145de565b91506020830135613640816145f3565b60008060408385031215613734578182fd5b823561373f816145de565b946020939093013593505050565b6000806040838503121561375f578182fd5b823567ffffffffffffffff80821115613776578384fd5b61378286838701613520565b9350602091508185013581811115613798578384fd5b85019050601f810186136137aa578283fd5b80356137b861353e82614592565b81815283810190838501865b848110156137ed576137db8b88843589010161358e565b845292860192908601906001016137c4565b5096999098509650505050505050565b6000806040838503121561380f578182fd5b823567ffffffffffffffff80821115613826578384fd5b61383286838701613520565b93506020850135915080821115613847578283fd5b5061385485828601613520565b9150509250929050565b60006020828403121561386f578081fd5b8151610ccd816145f3565b60006020828403121561388b578081fd5b8135610ccd81614601565b6000602082840312156138a7578081fd5b8151610ccd81614601565b6000602082840312156138c3578081fd5b5035919050565b6000602082840312156138db578081fd5b5051919050565b600080604083850312156138f4578182fd5b50508035926020909101359150565b6000815180845261391b8160208601602086016145b2565b601f01601f19169290920160200192915050565b600082516139418184602087016145b2565b9190910192915050565b6000835161395d8184602088016145b2565b8351908301906139718183602088016145b2565b01949350505050565b6001600160a01b0391909116815260200190565b6001600160a01b03858116825284166020820152604081018390526080606082018190526000906139c190830184613903565b9695505050505050565b6001600160a01b039384168152919092166020820152604081019190915260600190565b6001600160a01b03929092168252602082015260400190565b901515815260200190565b600060208252610ccd6020830184613903565b60208082526022908201527f456e756d657261626c655365743a20696e646578206f7574206f6620626f756e604082015261647360f01b606082015260800190565b60208082526023908201527f4c6576656c206d757374206265203e203020616e64203c3d206d6178206c657660408201526232b61760e91b606082015260800190565b60208082526023908201527f4e6f7420656e6f756768207065726d697373696f6e7320666f7220746f6b656e60408201526210189760e91b606082015260800190565b60208082526032908201527f4552433732313a207472616e7366657220746f206e6f6e20455243373231526560408201527131b2b4bb32b91034b6b83632b6b2b73a32b960711b606082015260800190565b60208082526026908201527f4f776e61626c653a206e6577206f776e657220697320746865207a65726f206160408201526564647265737360d01b606082015260800190565b6020808252601c908201527f4552433732313a20746f6b656e20616c7265616479206d696e74656400000000604082015260600190565b6020808252604e908201527f4c6576656c2055524920617272617973206d75737420626520657175616c206960408201527f6e206e6f6e2d7a65726f206c656e67746820616e64206c6576656c2073686f7560608201526d36321039ba30b93a1030ba10181760911b608082015260a00190565b6020808252601b908201527f536166654d6174683a206164646974696f6e206f766572666c6f770000000000604082015260600190565b60208082526024908201527f4552433732313a207472616e7366657220746f20746865207a65726f206164646040820152637265737360e01b606082015260800190565b60208082526019908201527f4552433732313a20617070726f766520746f2063616c6c657200000000000000604082015260600190565b60208082526023908201527f4d6178206c6576656c2063616e277420626520686967686572207468616e203160408201526218181760e91b606082015260800190565b6020808252601e908201527f536166654d6174683a207375627472616374696f6e206f766572666c6f770000604082015260600190565b60208082526026908201527f416464726573733a20696e73756666696369656e742062616c616e636520666f6040820152651c8818d85b1b60d21b606082015260800190565b6020808252602c908201527f4552433732313a206f70657261746f7220717565727920666f72206e6f6e657860408201526b34b9ba32b73a103a37b5b2b760a11b606082015260800190565b6020808252601a908201527f536166654d6174683a206469766973696f6e206279207a65726f000000000000604082015260600190565b60208082526017908201527f4e6f7420656e6f756768207065726d697373696f6e732e000000000000000000604082015260600190565b6020808252601590820152742a37b5b2b7102aa9249034b99034b73b30b634b21760591b604082015260600190565b60208082526038908201527f4552433732313a20617070726f76652063616c6c6572206973206e6f74206f7760408201527f6e6572206e6f7220617070726f76656420666f7220616c6c0000000000000000606082015260800190565b6020808252602a908201527f4552433732313a2062616c616e636520717565727920666f7220746865207a65604082015269726f206164647265737360b01b606082015260800190565b6020808252600c908201526b2637b3b4b19032b93937b91760a11b604082015260600190565b6020808252602d908201527f6f70657261746f723a207a65726f206164647265737320676976656e20666f7260408201526c103732bb9037b832b930ba37b960991b606082015260800190565b60208082526022908201527f456e756d657261626c654d61703a20696e646578206f7574206f6620626f756e604082015261647360f01b606082015260800190565b60208082526023908201527f4c6576656c206d757374206265206c6f776572207468616e206d6178206c657660408201526232b61760e91b606082015260800190565b6020808252818101527f4552433732313a206d696e7420746f20746865207a65726f2061646472657373604082015260600190565b6020808252604d908201527f4d6178206c6576656c20617272617973206d75737420626520657175616c206960408201527f6e206e6f6e2d7a65726f206c656e67746820616e642074696d652073686f756c60608201526c321039ba30b93a1030ba10181760991b608082015260a00190565b60208082526021908201527f536166654d6174683a206d756c7469706c69636174696f6e206f766572666c6f6040820152607760f81b606082015260800190565b6020808252602c908201527f4552433732313a20617070726f76656420717565727920666f72206e6f6e657860408201526b34b9ba32b73a103a37b5b2b760a11b606082015260800190565b6020808252602c908201527f4552433732314d657461646174613a2055524920736574206f66206e6f6e657860408201526b34b9ba32b73a103a37b5b2b760a11b606082015260800190565b6020808252818101527f4f776e61626c653a2063616c6c6572206973206e6f7420746865206f776e6572604082015260600190565b60208082526029908201527f4552433732313a207472616e73666572206f6620746f6b656e2074686174206960408201526839903737ba1037bbb760b91b606082015260800190565b6020808252602f908201527f4552433732314d657461646174613a2055524920717565727920666f72206e6f60408201526e3732bc34b9ba32b73a103a37b5b2b760891b606082015260800190565b60208082526024908201527f6f70657261746f723a2063616c6c6572206973206e6f7420746865206f70657260408201526330ba37b960e11b606082015260800190565b60208082526023908201527f4e6f7420656e6f756768207065726d697373696f6e7320666f7220746f6b656e60408201526210191760e91b606082015260800190565b60208082526021908201527f4552433732313a20617070726f76616c20746f2063757272656e74206f776e656040820152603960f91b606082015260800190565b60208082526018908201527f63616c6c6572206973206e6f7420617574686f72697a65640000000000000000604082015260600190565b60208082526039908201527f546f6f206d75636820746f20756e6c6f636b206e61747572616c6c792c20706c60408201527f656173652063616c6c20756e6c6f636b28292066697273742e00000000000000606082015260800190565b60208082526031908201527f4552433732313a207472616e736665722063616c6c6572206973206e6f74206f6040820152701ddb995c881b9bdc88185c1c1c9bdd9959607a1b606082015260800190565b6020808252601d908201527f416464726573733a2063616c6c20746f206e6f6e2d636f6e7472616374000000604082015260600190565b6020808252602a908201527f5361666545524332303a204552433230206f7065726174696f6e20646964206e6040820152691bdd081cdd58d8d9595960b21b606082015260800190565b60208082526026908201527f436f6e747261637447756172643a206f6e6520626c6f636b2c206f6e652066756040820152653731ba34b7b760d11b606082015260800190565b6020808252601690820152752a37b79032b0b9363c903a37903632bb32b6103ab81760511b604082015260600190565b60208082526025908201527f426f746820746f6b656e73206d7573742068617665207468652073616d65206f6040820152643bb732b91760d91b606082015260800190565b90815260200190565b60405181810167ffffffffffffffff8111828210171561458a57600080fd5b604052919050565b600067ffffffffffffffff8211156145a8578081fd5b5060209081020190565b60005b838110156145cd5781810151838201526020016145b5565b838111156117c55750506000910152565b6001600160a01b0381168114610c3357600080fd5b8015158114610c3357600080fd5b6001600160e01b031981168114610c3357600080fdfe4552433732313a207472616e7366657220746f206e6f6e20455243373231526563656976657220696d706c656d656e7465724552433732313a206f776e657220717565727920666f72206e6f6e6578697374656e7420746f6b656ea2646970667358221220524cbb455c8786af111ce76dc3148494be008f4b223345158fb55fe23d0b703064736f6c634300060c0033",
  "linkReferences": {},
  "deployedLinkReferences": {}
}