{
  "_format": "hh-sol-artifact-1",
  "contractName": "TheoryUnlocker",
  "sourceName": "contracts/nfts/TheoryUnlocker.sol",
  "abi": [
    {
      "inputs": [
        {
          "internalType": "contract IERC20",
          "name": "_buy",
          "type": "address"
        },
        {
          "internalType": "uint256",
          "name": "_initialBuy",
          "type": "uint256"
        },
        {
          "internalType": "uint256",
          "name": "_buyPerLevel",
          "type": "uint256"
        },
        {
          "internalType": "contract IERC20Lockable",
          "name": "_theory",
          "type": "address"
        },
        {
          "internalType": "address",
          "name": "_communityFund",
          "type": "address"
        },
        {
          "internalType": "uint256[]",
          "name": "_maxLevelTime",
          "type": "uint256[]"
        },
        {
          "internalType": "uint256[]",
          "name": "_maxLevelLevel",
          "type": "uint256[]"
        },
        {
          "internalType": "uint256[]",
          "name": "_levelURIsLevel",
          "type": "uint256[]"
        },
        {
          "internalType": "string[]",
          "name": "_levelURIsURI",
          "type": "string[]"
        }
      ],
      "stateMutability": "nonpayable",
      "type": "constructor"
    },
    {
      "anonymous": false,
      "inputs": [
        {
          "indexed": true,
          "internalType": "address",
          "name": "owner",
          "type": "address"
        },
        {
          "indexed": true,
          "internalType": "address",
          "name": "approved",
          "type": "address"
        },
        {
          "indexed": true,
          "internalType": "uint256",
          "name": "tokenId",
          "type": "uint256"
        }
      ],
      "name": "Approval",
      "type": "event"
    },
    {
      "anonymous": false,
      "inputs": [
        {
          "indexed": true,
          "internalType": "address",
          "name": "owner",
          "type": "address"
        },
        {
          "indexed": true,
          "internalType": "address",
          "name": "operator",
          "type": "address"
        },
        {
          "indexed": false,
          "internalType": "bool",
          "name": "approved",
          "type": "bool"
        }
      ],
      "name": "ApprovalForAll",
      "type": "event"
    },
    {
      "anonymous": false,
      "inputs": [
        {
          "indexed": true,
          "internalType": "address",
          "name": "previousOwner",
          "type": "address"
        },
        {
          "indexed": true,
          "internalType": "address",
          "name": "newOwner",
          "type": "address"
        }
      ],
      "name": "OwnershipTransferred",
      "type": "event"
    },
    {
      "anonymous": false,
      "inputs": [
        {
          "indexed": true,
          "internalType": "address",
          "name": "from",
          "type": "address"
        },
        {
          "indexed": true,
          "internalType": "address",
          "name": "to",
          "type": "address"
        },
        {
          "indexed": true,
          "internalType": "uint256",
          "name": "tokenId",
          "type": "uint256"
        }
      ],
      "name": "Transfer",
      "type": "event"
    },
    {
      "inputs": [
        {
          "internalType": "address",
          "name": "_toAdd",
          "type": "address"
        }
      ],
      "name": "addAuthorized",
      "outputs": [],
      "stateMutability": "nonpayable",
      "type": "function"
    },
    {
      "inputs": [
        {
          "internalType": "address",
          "name": "to",
          "type": "address"
        },
        {
          "internalType": "uint256",
          "name": "tokenId",
          "type": "uint256"
        }
      ],
      "name": "approve",
      "outputs": [],
      "stateMutability": "nonpayable",
      "type": "function"
    },
    {
      "inputs": [
        {
          "internalType": "address",
          "name": "",
          "type": "address"
        }
      ],
      "name": "authorized",
      "outputs": [
        {
          "internalType": "bool",
          "name": "",
          "type": "bool"
        }
      ],
      "stateMutability": "view",
      "type": "function"
    },
    {
      "inputs": [
        {
          "internalType": "address",
          "name": "owner",
          "type": "address"
        }
      ],
      "name": "balanceOf",
      "outputs": [
        {
          "internalType": "uint256",
          "name": "",
          "type": "uint256"
        }
      ],
      "stateMutability": "view",
      "type": "function"
    },
    {
      "inputs": [],
      "name": "baseURI",
      "outputs": [
        {
          "internalType": "string",
          "name": "",
          "type": "string"
        }
      ],
      "stateMutability": "view",
      "type": "function"
    },
    {
      "inputs": [],
      "name": "buyToken",
      "outputs": [
        {
          "internalType": "contract IERC20",
          "name": "",
          "type": "address"
        }
      ],
      "stateMutability": "view",
      "type": "function"
    },
    {
      "inputs": [],
      "name": "buyTokenPerLevel",
      "outputs": [
        {
          "internalType": "uint256",
          "name": "",
          "type": "uint256"
        }
      ],
      "stateMutability": "view",
      "type": "function"
    },
    {
      "inputs": [],
      "name": "communityFund",
      "outputs": [
        {
          "internalType": "address",
          "name": "",
          "type": "address"
        }
      ],
      "stateMutability": "view",
      "type": "function"
    },
    {
      "inputs": [
        {
          "internalType": "uint256",
          "name": "level",
          "type": "uint256"
        }
      ],
      "name": "costOf",
      "outputs": [
        {
          "internalType": "uint256",
          "name": "",
          "type": "uint256"
        }
      ],
      "stateMutability": "view",
      "type": "function"
    },
    {
      "inputs": [
        {
          "internalType": "uint256",
          "name": "tokenId",
          "type": "uint256"
        }
      ],
      "name": "getApproved",
      "outputs": [
        {
          "internalType": "address",
          "name": "",
          "type": "address"
        }
      ],
      "stateMutability": "view",
      "type": "function"
    },
    {
      "inputs": [],
      "name": "initialPrice",
      "outputs": [
        {
          "internalType": "uint256",
          "name": "",
          "type": "uint256"
        }
      ],
      "stateMutability": "view",
      "type": "function"
    },
    {
      "inputs": [
        {
          "internalType": "address",
          "name": "owner",
          "type": "address"
        },
        {
          "internalType": "address",
          "name": "operator",
          "type": "address"
        }
      ],
      "name": "isApprovedForAll",
      "outputs": [
        {
          "internalType": "bool",
          "name": "",
          "type": "bool"
        }
      ],
      "stateMutability": "view",
      "type": "function"
    },
    {
      "inputs": [
        {
          "internalType": "uint256",
          "name": "level",
          "type": "uint256"
        }
      ],
      "name": "levelURI",
      "outputs": [
        {
          "internalType": "string",
          "name": "",
          "type": "string"
        }
      ],
      "stateMutability": "view",
      "type": "function"
    },
    {
      "inputs": [
        {
          "internalType": "uint256",
          "name": "",
          "type": "uint256"
        }
      ],
      "name": "levelURIsLevel",
      "outputs": [
        {
          "internalType": "uint256",
          "name": "",
          "type": "uint256"
        }
      ],
      "stateMutability": "view",
      "type": "function"
    },
    {
      "inputs": [
        {
          "internalType": "uint256",
          "name": "",
          "type": "uint256"
        }
      ],
      "name": "levelURIsURI",
      "outputs": [
        {
          "internalType": "string",
          "name": "",
          "type": "string"
        }
      ],
      "stateMutability": "view",
      "type": "function"
    },
    {
      "inputs": [
        {
          "internalType": "uint256",
          "name": "tokenId",
          "type": "uint256"
        }
      ],
      "name": "levelUp",
      "outputs": [],
      "stateMutability": "nonpayable",
      "type": "function"
    },
    {
      "inputs": [],
      "name": "maxLevel",
      "outputs": [
        {
          "internalType": "uint256",
          "name": "",
          "type": "uint256"
        }
      ],
      "stateMutability": "view",
      "type": "function"
    },
    {
      "inputs": [
        {
          "internalType": "uint256",
          "name": "",
          "type": "uint256"
        }
      ],
      "name": "maxLevelLevel",
      "outputs": [
        {
          "internalType": "uint256",
          "name": "",
          "type": "uint256"
        }
      ],
      "stateMutability": "view",
      "type": "function"
    },
    {
      "inputs": [
        {
          "internalType": "uint256",
          "name": "",
          "type": "uint256"
        }
      ],
      "name": "maxLevelTime",
      "outputs": [
        {
          "internalType": "uint256",
          "name": "",
          "type": "uint256"
        }
      ],
      "stateMutability": "view",
      "type": "function"
    },
    {
      "inputs": [
        {
          "internalType": "uint256",
          "name": "tokenId1",
          "type": "uint256"
        },
        {
          "internalType": "uint256",
          "name": "tokenId2",
          "type": "uint256"
        }
      ],
      "name": "merge",
      "outputs": [
        {
          "internalType": "uint256",
          "name": "",
          "type": "uint256"
        }
      ],
      "stateMutability": "nonpayable",
      "type": "function"
    },
    {
      "inputs": [
        {
          "internalType": "uint256",
          "name": "level",
          "type": "uint256"
        }
      ],
      "name": "mint",
      "outputs": [
        {
          "internalType": "uint256",
          "name": "",
          "type": "uint256"
        }
      ],
      "stateMutability": "nonpayable",
      "type": "function"
    },
    {
      "inputs": [],
      "name": "name",
      "outputs": [
        {
          "internalType": "string",
          "name": "",
          "type": "string"
        }
      ],
      "stateMutability": "view",
      "type": "function"
    },
    {
      "inputs": [
        {
          "internalType": "uint256",
          "name": "tokenId",
          "type": "uint256"
        }
      ],
      "name": "nextLevelTime",
      "outputs": [
        {
          "internalType": "uint256",
          "name": "",
          "type": "uint256"
        }
      ],
      "stateMutability": "view",
      "type": "function"
    },
    {
      "inputs": [
        {
          "internalType": "uint256",
          "name": "tokenId",
          "type": "uint256"
        }
      ],
      "name": "nftUnlock",
      "outputs": [],
      "stateMutability": "nonpayable",
      "type": "function"
    },
    {
      "inputs": [],
      "name": "owner",
      "outputs": [
        {
          "internalType": "address",
          "name": "",
          "type": "address"
        }
      ],
      "stateMutability": "view",
      "type": "function"
    },
    {
      "inputs": [
        {
          "internalType": "uint256",
          "name": "tokenId",
          "type": "uint256"
        }
      ],
      "name": "ownerOf",
      "outputs": [
        {
          "internalType": "address",
          "name": "",
          "type": "address"
        }
      ],
      "stateMutability": "view",
      "type": "function"
    },
    {
      "inputs": [
        {
          "internalType": "address",
          "name": "_toRemove",
          "type": "address"
        }
      ],
      "name": "removeAuthorized",
      "outputs": [],
      "stateMutability": "nonpayable",
      "type": "function"
    },
    {
      "inputs": [],
      "name": "renounceOwnership",
      "outputs": [],
      "stateMutability": "nonpayable",
      "type": "function"
    },
    {
      "inputs": [
        {
          "internalType": "address",
          "name": "from",
          "type": "address"
        },
        {
          "internalType": "address",
          "name": "to",
          "type": "address"
        },
        {
          "internalType": "uint256",
          "name": "tokenId",
          "type": "uint256"
        }
      ],
      "name": "safeTransferFrom",
      "outputs": [],
      "stateMutability": "nonpayable",
      "type": "function"
    },
    {
      "inputs": [
        {
          "internalType": "address",
          "name": "from",
          "type": "address"
        },
        {
          "internalType": "address",
          "name": "to",
          "type": "address"
        },
        {
          "internalType": "uint256",
          "name": "tokenId",
          "type": "uint256"
        },
        {
          "internalType": "bytes",
          "name": "_data",
          "type": "bytes"
        }
      ],
      "name": "safeTransferFrom",
      "outputs": [],
      "stateMutability": "nonpayable",
      "type": "function"
    },
    {
      "inputs": [
        {
          "internalType": "address",
          "name": "operator",
          "type": "address"
        },
        {
          "internalType": "bool",
          "name": "approved",
          "type": "bool"
        }
      ],
      "name": "setApprovalForAll",
      "outputs": [],
      "stateMutability": "nonpayable",
      "type": "function"
    },
    {
      "inputs": [
        {
          "internalType": "contract IERC20",
          "name": "_buy",
          "type": "address"
        }
      ],
      "name": "setBuyToken",
      "outputs": [],
      "stateMutability": "nonpayable",
      "type": "function"
    },
    {
      "inputs": [
        {
          "internalType": "uint256",
          "name": "_perLevel",
          "type": "uint256"
        }
      ],
      "name": "setBuyTokenPerLevel",
      "outputs": [],
      "stateMutability": "nonpayable",
      "type": "function"
    },
    {
      "inputs": [
        {
          "internalType": "address",
          "name": "_fund",
          "type": "address"
        }
      ],
      "name": "setCommunityFund",
      "outputs": [],
      "stateMutability": "nonpayable",
      "type": "function"
    },
    {
      "inputs": [
        {
          "internalType": "uint256",
          "name": "tokenId",
          "type": "uint256"
        },
        {
          "internalType": "uint256",
          "name": "time",
          "type": "uint256"
        }
      ],
      "name": "setCreationTime",
      "outputs": [],
      "stateMutability": "nonpayable",
      "type": "function"
    },
    {
      "inputs": [
        {
          "internalType": "uint256",
          "name": "_initial",
          "type": "uint256"
        }
      ],
      "name": "setInitialPrice",
      "outputs": [],
      "stateMutability": "nonpayable",
      "type": "function"
    },
    {
      "inputs": [
        {
          "internalType": "uint256",
          "name": "tokenId",
          "type": "uint256"
        },
        {
          "internalType": "uint256",
          "name": "time",
          "type": "uint256"
        }
      ],
      "name": "setLastLevelTime",
      "outputs": [],
      "stateMutability": "nonpayable",
      "type": "function"
    },
    {
      "inputs": [
        {
          "internalType": "address",
          "name": "user",
          "type": "address"
        },
        {
          "internalType": "uint256",
          "name": "time",
          "type": "uint256"
        }
      ],
      "name": "setLastLockOf",
      "outputs": [],
      "stateMutability": "nonpayable",
      "type": "function"
    },
    {
      "inputs": [
        {
          "internalType": "address",
          "name": "user",
          "type": "address"
        },
        {
          "internalType": "uint256",
          "name": "time",
          "type": "uint256"
        }
      ],
      "name": "setLastUnlockTime",
      "outputs": [],
      "stateMutability": "nonpayable",
      "type": "function"
    },
    {
      "inputs": [
        {
          "internalType": "uint256[]",
          "name": "_levelURIsLevel",
          "type": "uint256[]"
        },
        {
          "internalType": "string[]",
          "name": "_levelURIsURI",
          "type": "string[]"
        }
      ],
      "name": "setLevelURIs",
      "outputs": [],
      "stateMutability": "nonpayable",
      "type": "function"
    },
    {
      "inputs": [
        {
          "internalType": "uint256[]",
          "name": "_maxLevelTime",
          "type": "uint256[]"
        },
        {
          "internalType": "uint256[]",
          "name": "_maxLevelLevel",
          "type": "uint256[]"
        }
      ],
      "name": "setMaxLevel",
      "outputs": [],
      "stateMutability": "nonpayable",
      "type": "function"
    },
    {
      "inputs": [
        {
          "internalType": "uint256",
          "name": "_time",
          "type": "uint256"
        }
      ],
      "name": "setTimeToLevel",
      "outputs": [],
      "stateMutability": "nonpayable",
      "type": "function"
    },
    {
      "inputs": [
        {
          "internalType": "uint256",
          "name": "tokenId",
          "type": "uint256"
        },
        {
          "internalType": "uint256",
          "name": "level",
          "type": "uint256"
        }
      ],
      "name": "setTokenLevel",
      "outputs": [],
      "stateMutability": "nonpayable",
      "type": "function"
    },
    {
      "inputs": [
        {
          "internalType": "bytes4",
          "name": "interfaceId",
          "type": "bytes4"
        }
      ],
      "name": "supportsInterface",
      "outputs": [
        {
          "internalType": "bool",
          "name": "",
          "type": "bool"
        }
      ],
      "stateMutability": "view",
      "type": "function"
    },
    {
      "inputs": [],
      "name": "symbol",
      "outputs": [
        {
          "internalType": "string",
          "name": "",
          "type": "string"
        }
      ],
      "stateMutability": "view",
      "type": "function"
    },
    {
      "inputs": [],
      "name": "theory",
      "outputs": [
        {
          "internalType": "contract IERC20Lockable",
          "name": "",
          "type": "address"
        }
      ],
      "stateMutability": "view",
      "type": "function"
    },
    {
      "inputs": [
        {
          "internalType": "uint256",
          "name": "tokenId",
          "type": "uint256"
        }
      ],
      "name": "timeLeftToLevel",
      "outputs": [
        {
          "internalType": "uint256",
          "name": "",
          "type": "uint256"
        }
      ],
      "stateMutability": "view",
      "type": "function"
    },
    {
      "inputs": [],
      "name": "timeToLevel",
      "outputs": [
        {
          "internalType": "uint256",
          "name": "",
          "type": "uint256"
        }
      ],
      "stateMutability": "view",
      "type": "function"
    },
    {
      "inputs": [
        {
          "internalType": "uint256",
          "name": "index",
          "type": "uint256"
        }
      ],
      "name": "tokenByIndex",
      "outputs": [
        {
          "internalType": "uint256",
          "name": "",
          "type": "uint256"
        }
      ],
      "stateMutability": "view",
      "type": "function"
    },
    {
      "inputs": [
        {
          "internalType": "uint256",
          "name": "",
          "type": "uint256"
        }
      ],
      "name": "tokenInfo",
      "outputs": [
        {
          "internalType": "uint256",
          "name": "level",
          "type": "uint256"
        },
        {
          "internalType": "uint256",
          "name": "creationTime",
          "type": "uint256"
        },
        {
          "internalType": "uint256",
          "name": "lastLevelTime",
          "type": "uint256"
        }
      ],
      "stateMutability": "view",
      "type": "function"
    },
    {
      "inputs": [
        {
          "internalType": "address",
          "name": "owner",
          "type": "address"
        },
        {
          "internalType": "uint256",
          "name": "index",
          "type": "uint256"
        }
      ],
      "name": "tokenOfOwnerByIndex",
      "outputs": [
        {
          "internalType": "uint256",
          "name": "",
          "type": "uint256"
        }
      ],
      "stateMutability": "view",
      "type": "function"
    },
    {
      "inputs": [
        {
          "internalType": "uint256",
          "name": "tokenId",
          "type": "uint256"
        }
      ],
      "name": "tokenURI",
      "outputs": [
        {
          "internalType": "string",
          "name": "",
          "type": "string"
        }
      ],
      "stateMutability": "view",
      "type": "function"
    },
    {
      "inputs": [],
      "name": "totalSupply",
      "outputs": [
        {
          "internalType": "uint256",
          "name": "",
          "type": "uint256"
        }
      ],
      "stateMutability": "view",
      "type": "function"
    },
    {
      "inputs": [
        {
          "internalType": "address",
          "name": "from",
          "type": "address"
        },
        {
          "internalType": "address",
          "name": "to",
          "type": "address"
        },
        {
          "internalType": "uint256",
          "name": "tokenId",
          "type": "uint256"
        }
      ],
      "name": "transferFrom",
      "outputs": [],
      "stateMutability": "nonpayable",
      "type": "function"
    },
    {
      "inputs": [
        {
          "internalType": "address",
          "name": "newOwner",
          "type": "address"
        }
      ],
      "name": "transferOwnership",
      "outputs": [],
      "stateMutability": "nonpayable",
      "type": "function"
    },
    {
      "inputs": [
        {
          "internalType": "address",
          "name": "",
          "type": "address"
        }
      ],
      "name": "userInfo",
      "outputs": [
        {
          "internalType": "uint256",
          "name": "lastUnlockTime",
          "type": "uint256"
        },
        {
          "internalType": "uint256",
          "name": "lastLockOf",
          "type": "uint256"
        }
      ],
      "stateMutability": "view",
      "type": "function"
    }
  ],
  "bytecode": "0x60806040523480156200001157600080fd5b5060405162004b8938038062004b8983398101604081905262000034916200063c565b604080518082018252600f81526e2a2422a7a92c902ab73637b1b5b2b960891b60208083019190915282518084019093526002835261475560f01b9083015290620000866301ffc9a760e01b6200030c565b81516200009b90600690602085019062000362565b508051620000b190600790602084019062000362565b50620000c46380ac58cd60e01b6200030c565b620000d6635b5e139f60e01b6200030c565b620000e863780e9d6360e01b6200030c565b5060009050620000f76200035e565b600a80546001600160a01b0319166001600160a01b038316908117909155604051919250906000907f8be0079c531659141344cd1fd0a4f28419497f9722a3daafe3b4186f6b6457e0908290a350601380546001600160a01b0319166001600160a01b038b1617905560148890556015879055815115801590620001905750816000815181106200018457fe5b60200260200101516000145b80156200019e575081518151145b620001c65760405162461bcd60e51b8152600401620001bd9062000777565b60405180910390fd5b60008451118015620001ed575083600081518110620001e157fe5b60200260200101516000145b8015620001fb575083518351145b6200021a5760405162461bcd60e51b8152600401620001bd906200082e565b82516000905b808210156200026d5760648583815181106200023857fe5b60200260200101511115620002615760405162461bcd60e51b8152600401620001bd90620007eb565b60018201915062000220565b83516200028290600f906020870190620003e7565b5082516200029890601090602086019062000424565b508551620002ae906011906020890190620003e7565b508451620002c4906012906020880190620003e7565b5050601680546001600160a01b039788166001600160a01b0319918216179091556203f4806017556018805498909716971696909617909455506200093f9650505050505050565b6001600160e01b03198082161415620003395760405162461bcd60e51b8152600401620001bd9062000740565b6001600160e01b0319166000908152602081905260409020805460ff19166001179055565b3390565b828054600181600116156101000203166002900490600052602060002090601f016020900481019282601f10620003a557805160ff1916838001178555620003d5565b82800160010185558215620003d5579182015b82811115620003d5578251825591602001919060010190620003b8565b50620003e392915062000484565b5090565b828054828255906000526020600020908101928215620003d55791602002820182811115620003d5578251825591602001919060010190620003b8565b82805482825590600052602060002090810192821562000476579160200282015b828111156200047657825180516200046591849160209091019062000362565b509160200191906001019062000445565b50620003e39291506200049b565b5b80821115620003e3576000815560010162000485565b80821115620003e3576000620004b28282620004bc565b506001016200049b565b50805460018160011615610100020316600290046000825580601f10620004e4575062000504565b601f01602090049060005260206000209081019062000504919062000484565b50565b80516001600160a01b03811681146200051f57600080fd5b92915050565b600082601f83011262000536578081fd5b81516200054d6200054782620008c8565b620008a1565b818152915060208083019084810160005b84811015620005cc578151870188603f8201126200057b57600080fd5b838101516200058e6200054782620008e8565b81815260408b81848601011115620005a557600080fd5b620005b6838884018387016200090c565b508652505092820192908201906001016200055e565b505050505092915050565b600082601f830112620005e8578081fd5b8151620005f96200054782620008c8565b8181529150602080830190848101818402860182018710156200061b57600080fd5b60005b84811015620005cc578151845292820192908201906001016200061e565b60008060008060008060008060006101208a8c0312156200065b578485fd5b620006678b8b62000507565b985060208a0151975060408a01519650620006868b60608c0162000507565b9550620006978b60808c0162000507565b60a08b01519095506001600160401b0380821115620006b4578586fd5b620006c28d838e01620005d7565b955060c08c0151915080821115620006d8578485fd5b620006e68d838e01620005d7565b945060e08c0151915080821115620006fc578384fd5b6200070a8d838e01620005d7565b93506101008c015191508082111562000721578283fd5b50620007308c828d0162000525565b9150509295985092959850929598565b6020808252601c908201527f4552433136353a20696e76616c696420696e7465726661636520696400000000604082015260600190565b6020808252604e908201527f4c6576656c2055524920617272617973206d75737420626520657175616c206960408201527f6e206e6f6e2d7a65726f206c656e67746820616e64206c6576656c2073686f7560608201526d36321039ba30b93a1030ba10181760911b608082015260a00190565b60208082526023908201527f4d6178206c6576656c2063616e277420626520686967686572207468616e203160408201526218181760e91b606082015260800190565b6020808252604d908201527f4d6178206c6576656c20617272617973206d75737420626520657175616c206960408201527f6e206e6f6e2d7a65726f206c656e67746820616e642074696d652073686f756c60608201526c321039ba30b93a1030ba10181760991b608082015260a00190565b6040518181016001600160401b0381118282101715620008c057600080fd5b604052919050565b60006001600160401b03821115620008de578081fd5b5060209081020190565b60006001600160401b03821115620008fe578081fd5b50601f01601f191660200190565b60005b83811015620009295781810151838201526020016200090f565b8381111562000939576000848401525b50505050565b61423a806200094f6000396000f3fe608060405234801561001057600080fd5b50600436106103775760003560e01c806370a08231116101d3578063ca60567a11610104578063db357c30116100a2578063ec3ddf301161007c578063ec3ddf3014610725578063ed1a7bb514610738578063f2fde38b1461074b578063fd3265921461075e57610377565b8063db357c30146106ec578063dd289dcb146106ff578063e985e9c51461071257610377565b8063cc67d1ae116100de578063cc67d1ae146106a0578063cf1c316a146106b3578063d1c2babb146106c6578063d8cab4a9146106d957610377565b8063ca60567a14610663578063cc06c35914610676578063cc33c8751461067e57610377565b8063a0712d6811610171578063aa08279c1161014b578063aa08279c14610617578063b88d4fde1461062a578063b91816111461063d578063c87b56dd1461065057610377565b8063a0712d68146105e9578063a22cb465146105fc578063a48217191461060f57610377565b80638a1165b3116101ad5780638a1165b3146105b35780638da5cb5b146105c657806395d89b41146105ce5780639f4ba0ee146105d657610377565b806370a08231146105855780637116712214610598578063715018a6146105ab57610377565b80632f745c59116102ad57806347aebf9a1161024b5780635b2f4ed4116102255780635b2f4ed4146105445780636352211e146105575780636c0360eb1461056a5780637001e2a61461057257610377565b806347aebf9a14610516578063485d7d941461051e5780634f6ccce71461053157610377565b80633bcafb63116102875780633bcafb63146104d55780633c32a450146104e85780633f684d38146104f057806342842e0e1461050357610377565b80632f745c591461049c57806337339a16146104af57806338d17099146104c257610377565b806318160ddd1161031a57806323b872dd116102f457806323b872dd1461045b578063257c739b1461046e5780632bac9689146104765780632eb552f31461048957610377565b806318160ddd1461042a5780631959a002146104325780631d0806ae1461045357610377565b8063081437961161035657806308143796146103cf578063081812fc146103ef578063095ea7b3146104025780630ce90ec21461041757610377565b8062f380f41461037c57806301ffc9a71461039a57806306fdde03146103ba575b600080fd5b610384610771565b6040516103919190613579565b60405180910390f35b6103ad6103a8366004613479565b610780565b6040516103919190613607565b6103c26107a3565b6040516103919190613612565b6103e26103dd3660046134b1565b610839565b60405161039191906140d0565b6103846103fd3660046134b1565b610857565b610415610410366004613321565b6108a3565b005b6104156104253660046134b1565b61093b565b6103e2610af1565b6104456104403660046131f6565b610b02565b6040516103919291906140d9565b6103e2610b1b565b61041561046936600461324a565b610b21565b6103e2610b59565b6104156104843660046134b1565b610b5f565b6103e26104973660046134b1565b610bad565b6103e26104aa366004613321565b610bba565b6104156104bd3660046131f6565b610be5565b6103c26104d03660046134b1565b610c50565b6103e26104e33660046134b1565b610d50565b610384610d5d565b6103e26104fe3660046134b1565b610d6c565b61041561051136600461324a565b610db2565b6103e2610dcd565b61041561052c3660046131f6565b610dd3565b6103e261053f3660046134b1565b610e49565b6103c26105523660046134b1565b610e5f565b6103846105653660046134b1565b610f05565b6103c2610f2d565b610415610580366004613321565b610f8e565b6103e26105933660046131f6565b610ff3565b6104156105a63660046134e1565b61103c565b61041561109a565b6104156105c13660046131f6565b611123565b61038461118e565b6103c261119d565b6104156105e43660046134b1565b6111fe565b6103e26105f73660046134b1565b61124c565b61041561060a3660046132f4565b6113c5565b610384611493565b6104156106253660046133fc565b6114a2565b61041561063836600461328a565b6115b4565b6103ad61064b3660046131f6565b6115f3565b6103c261065e3660046134b1565b611608565b6104156106713660046134e1565b61174e565b6103e26117a9565b61069161068c3660046134b1565b611811565b604051610391939291906140e7565b6104156106ae3660046134e1565b611832565b6104156106c13660046131f6565b611890565b6103e26106d43660046134e1565b6118f3565b6104156106e736600461334c565b611b6f565b6104156106fa3660046134b1565b611c2d565b61041561070d3660046134b1565b6120da565b6103ad610720366004613212565b612128565b6103e26107333660046134b1565b612156565b610415610746366004613321565b612177565b6104156107593660046131f6565b6121df565b6103e261076c3660046134b1565b6122a0565b6016546001600160a01b031681565b6001600160e01b0319811660009081526020819052604090205460ff165b919050565b60068054604080516020601f600260001961010060018816150201909516949094049384018190048102820181019092528281526060939092909183018282801561082f5780601f106108045761010080835404028352916020019161082f565b820191906000526020600020905b81548152906001019060200180831161081257829003601f168201915b5050505050905090565b6012818154811061084657fe5b600091825260209091200154905081565b6000610862826122b3565b6108875760405162461bcd60e51b815260040161087e90613cc6565b60405180910390fd5b506000908152600460205260409020546001600160a01b031690565b60006108ae82610f05565b9050806001600160a01b0316836001600160a01b031614156108e25760405162461bcd60e51b815260040161087e90613e6e565b806001600160a01b03166108f46122c0565b6001600160a01b031614806109105750610910816107206122c0565b61092c5760405162461bcd60e51b815260040161087e90613a8b565b61093683836122c4565b505050565b610943612332565b156109605760405162461bcd60e51b815260040161087e90614015565b610968612353565b156109855760405162461bcd60e51b815260040161087e90614015565b3361098f82610f05565b6001600160a01b031614806109b35750336000908152600b602052604090205460ff165b806109cd5750336109c261118e565b6001600160a01b0316145b6109e95760405162461bcd60e51b815260040161087e90613a25565b6000818152600d602052604090206109ff6117a9565b815410610a1e5760405162461bcd60e51b815260040161087e90613b9a565b6000610a39601754836002015461237490919063ffffffff16565b905080421015610a5b5760405162461bcd60e51b815260040161087e9061405b565b600282018190558154600090610a72906001612374565b80845590506060610a8282610c50565b90506000815111610aa55760405162461bcd60e51b815260040161087e90613a5c565b610aaf8582612399565b5050436000908152600c602090815260408083203284529091528082208054600160ff1991821681179092553384529190922080549091169091179055505050565b6000610afd60026123dd565b905090565b600e602052600090815260409020805460019091015482565b60145481565b610b32610b2c6122c0565b826123e8565b610b4e5760405162461bcd60e51b815260040161087e90613f43565b61093683838361246d565b60155481565b336000908152600b602052604090205460ff1680610b8c575033610b8161118e565b6001600160a01b0316145b610ba85760405162461bcd60e51b815260040161087e90613eaf565b601555565b600f818154811061084657fe5b6001600160a01b0382166000908152600160205260408120610bdc908361257b565b90505b92915050565b336000908152600b602052604090205460ff1680610c12575033610c0761118e565b6001600160a01b0316145b610c2e5760405162461bcd60e51b815260040161087e90613eaf565b601680546001600160a01b0319166001600160a01b0392909216919091179055565b60408051602081019091526000808252600f546060929181905b8115610d4657600182039050600f8181548110610c8357fe5b90600052602060002001548610610d3b5760108181548110610ca157fe5b600091825260209182902001805460408051601f6002600019610100600187161502019094169390930492830185900485028101850190915281815292830182828015610d2f5780601f10610d0457610100808354040283529160200191610d2f565b820191906000526020600020905b815481529060010190602001808311610d1257829003601f168201915b50505050509350610d46565b600182039150610c6a565b5091949350505050565b6011818154811061084657fe5b6018546001600160a01b031681565b6017546000828152600d602052604081206002015490918291610d8e91612374565b9050804210610da157600091505061079e565b610dab8142612587565b9392505050565b610936838383604051806020016040528060008152506115b4565b60175481565b610ddb6122c0565b6001600160a01b0316610dec61118e565b6001600160a01b031614610e125760405162461bcd60e51b815260040161087e90613d5e565b6001600160a01b038116331415610e2857600080fd5b6001600160a01b03166000908152600b60205260409020805460ff19169055565b600080610e576002846125af565b509392505050565b60108181548110610e6c57fe5b600091825260209182902001805460408051601f6002600019610100600187161502019094169390930492830185900485028101850190915281815293509091830182828015610efd5780601f10610ed257610100808354040283529160200191610efd565b820191906000526020600020905b815481529060010190602001808311610ee057829003601f168201915b505050505081565b6000610bdf826040518060600160405280602981526020016141dc60299139600291906125cb565b60098054604080516020601f600260001961010060018816150201909516949094049384018190048102820181019092528281526060939092909183018282801561082f5780601f106108045761010080835404028352916020019161082f565b336000908152600b602052604090205460ff1680610fbb575033610fb061118e565b6001600160a01b0316145b610fd75760405162461bcd60e51b815260040161087e90613eaf565b6001600160a01b039091166000908152600e6020526040902055565b60006001600160a01b03821661101b5760405162461bcd60e51b815260040161087e90613ae8565b6001600160a01b0382166000908152600160205260409020610bdf906123dd565b336000908152600b602052604090205460ff168061106957503361105e61118e565b6001600160a01b0316145b6110855760405162461bcd60e51b815260040161087e90613eaf565b6000918252600d602052604090912060010155565b6110a26122c0565b6001600160a01b03166110b361118e565b6001600160a01b0316146110d95760405162461bcd60e51b815260040161087e90613d5e565b600a546040516000916001600160a01b0316907f8be0079c531659141344cd1fd0a4f28419497f9722a3daafe3b4186f6b6457e0908390a3600a80546001600160a01b0319169055565b336000908152600b602052604090205460ff168061115057503361114561118e565b6001600160a01b0316145b61116c5760405162461bcd60e51b815260040161087e90613eaf565b601380546001600160a01b0319166001600160a01b0392909216919091179055565b600a546001600160a01b031690565b60078054604080516020601f600260001961010060018816150201909516949094049384018190048102820181019092528281526060939092909183018282801561082f5780601f106108045761010080835404028352916020019161082f565b336000908152600b602052604090205460ff168061122b57503361122061118e565b6001600160a01b0316145b6112475760405162461bcd60e51b815260040161087e90613eaf565b601455565b6000611256612332565b156112735760405162461bcd60e51b815260040161087e90614015565b61127b612353565b156112985760405162461bcd60e51b815260040161087e90614015565b6000821180156112af57506112ab6117a9565b8211155b6112cb5760405162461bcd60e51b815260040161087e90613667565b3360006112f16112e86112df866001612587565b601554906125d8565b60145490612374565b601654601354919250611313916001600160a01b039081169133911684612612565b600061131d610af1565b6000818152600d6020526040902042600182018190556002820155909150611345848361266a565b858155606061135387610c50565b905060008151116113765760405162461bcd60e51b815260040161087e90613a5c565b6113808382612399565b5050436000908152600c602090815260408083203284529091528082208054600160ff1991821681179092553384529190922080549091169091179055949350505050565b6113cd6122c0565b6001600160a01b0316826001600160a01b031614156113fe5760405162461bcd60e51b815260040161087e906138ab565b806005600061140b6122c0565b6001600160a01b03908116825260208083019390935260409182016000908120918716808252919093529120805460ff19169215159290921790915561144f6122c0565b6001600160a01b03167f17307eab39ab6107e8899845ad3d59bd9653f200f220920489ca2b5937696c31836040516114879190613607565b60405180910390a35050565b6013546001600160a01b031681565b336000908152600b602052604090205460ff16806114cf5750336114c461118e565b6001600160a01b0316145b6114eb5760405162461bcd60e51b815260040161087e90613eaf565b6000825111801561151057508160008151811061150457fe5b60200260200101516000145b801561151d575081518151145b6115395760405162461bcd60e51b815260040161087e90613c12565b80516000905b8082101561158657606483838151811061155557fe5b6020026020010151111561157b5760405162461bcd60e51b815260040161087e906138e2565b60018201915061153f565b8351611599906011906020870190612f95565b5082516115ad906012906020860190612f95565b5050505050565b6115c56115bf6122c0565b836123e8565b6115e15760405162461bcd60e51b815260040161087e90613f43565b6115ed8484848461272e565b50505050565b600b6020526000908152604090205460ff1681565b6060611613826122b3565b61162f5760405162461bcd60e51b815260040161087e90613ddc565b60008281526008602090815260409182902080548351601f60026000196101006001861615020190931692909204918201849004840281018401909452808452606093928301828280156116c45780601f10611699576101008083540402835291602001916116c4565b820191906000526020600020905b8154815290600101906020018083116116a757829003601f168201915b5050505050905060606116d5610f2d565b90508051600014156116e95750905061079e565b81511561171b57808260405160200161170392919061354a565b6040516020818303038152906040529250505061079e565b8061172585612761565b60405160200161173692919061354a565b60405160208183030381529060405292505050919050565b336000908152600b602052604090205460ff168061177b57503361177061118e565b6001600160a01b0316145b6117975760405162461bcd60e51b815260040161087e90613eaf565b6000918252600d602052604090912055565b601154600090819080825b811561180857600182039050601181815481106117cd57fe5b906000526020600020015442106117fd57601281815481106117eb57fe5b90600052602060002001549350611808565b6001820391506117b4565b50919250505090565b600d6020526000908152604090208054600182015460029092015490919083565b336000908152600b602052604090205460ff168061185f57503361185461118e565b6001600160a01b0316145b61187b5760405162461bcd60e51b815260040161087e90613eaf565b6000918252600d602052604090912060020155565b6118986122c0565b6001600160a01b03166118a961118e565b6001600160a01b0316146118cf5760405162461bcd60e51b815260040161087e90613d5e565b6001600160a01b03166000908152600b60205260409020805460ff19166001179055565b60006118fd612332565b1561191a5760405162461bcd60e51b815260040161087e90614015565b611922612353565b1561193f5760405162461bcd60e51b815260040161087e90614015565b3361194984610f05565b6001600160a01b0316148061196d5750336000908152600b602052604090205460ff165b8061198757503361197c61118e565b6001600160a01b0316145b6119a35760405162461bcd60e51b815260040161087e906136aa565b336119ad83610f05565b6001600160a01b031614806119d15750336000908152600b602052604090205460ff165b806119eb5750336119e061118e565b6001600160a01b0316145b611a075760405162461bcd60e51b815260040161087e90613e2b565b611a1082610f05565b6001600160a01b0316611a2284610f05565b6001600160a01b031614611a485760405162461bcd60e51b815260040161087e9061408b565b6000828152600d60205260408082205485835290822054611a6891612374565b9050600081118015611a815750611a7d6117a9565b8111155b611a9d5760405162461bcd60e51b815260040161087e90613667565b6000611aa885610f05565b9050611ab38561283c565b611abc8461283c565b6000611ac6610af1565b6000818152600d6020526040902042600182018190556002820155909150611aee838361266a565b8381556060611afc85610c50565b90506000815111611b1f5760405162461bcd60e51b815260040161087e90613a5c565b611b298382612399565b5050436000908152600c602090815260408083203284529091528082208054600160ff199182168117909255338452919092208054909116909117905595945050505050565b336000908152600b602052604090205460ff1680611b9c575033611b9161118e565b6001600160a01b0316145b611bb85760405162461bcd60e51b815260040161087e90613eaf565b60008251118015611bdd575081600081518110611bd157fe5b60200260200101516000145b8015611bea575081518151145b611c065760405162461bcd60e51b815260040161087e906137bc565b8151611c1990600f906020850190612f95565b508051610936906010906020840190612fe0565b611c35612332565b15611c525760405162461bcd60e51b815260040161087e90614015565b611c5a612353565b15611c775760405162461bcd60e51b815260040161087e90614015565b33611c8182610f05565b6001600160a01b03161480611ca55750336000908152600b602052604090205460ff165b80611cbf575033611cb461118e565b6001600160a01b0316145b611cdb5760405162461bcd60e51b815260040161087e90613a25565b6000611ce682610f05565b6001600160a01b0381166000908152600e602052604090208054919250904211611d225760405162461bcd60e51b815260040161087e90613b32565b601854604051635a46d3b560e01b81526000916001600160a01b031690635a46d3b590611d53908690600401613579565b60206040518083038186803b158015611d6b57600080fd5b505afa158015611d7f573d6000803e3d6000fd5b505050506040513d601f19601f82011682018060405250810190611da391906134c9565b905080611db9574282556001909101555061209c565b60185460405163010158bb60e51b81526000916001600160a01b03169063202b176090611dea908790600401613579565b60206040518083038186803b158015611e0257600080fd5b505afa158015611e16573d6000803e3d6000fd5b505050506040513d601f19601f82011682018060405250810190611e3a91906134c9565b9050808211611e5b5760405162461bcd60e51b815260040161087e90613ee6565b611e658282612587565b915082600101548211611f6b5760185460405163579587b360e11b81526001600160a01b039091169063af2b0f6690611ea59087906000906004016135ee565b600060405180830381600087803b158015611ebf57600080fd5b505af1158015611ed3573d6000803e3d6000fd5b50504285555050601854604051635a46d3b560e01b81526001600160a01b0390911690635a46d3b590611f0a908790600401613579565b60206040518083038186803b158015611f2257600080fd5b505afa158015611f36573d6000803e3d6000fd5b505050506040513d601f19601f82011682018060405250810190611f5a91906134c9565b83600101819055505050505061209c565b6001830154611f7b908390612587565b6000868152600d602052604081205491935090611fa690606490611fa09086906125d8565b90612909565b60185460405163579587b360e11b81529192506001600160a01b03169063af2b0f6690611fd990889085906004016135ee565b600060405180830381600087803b158015611ff357600080fd5b505af1158015612007573d6000803e3d6000fd5b50504286555050601854604051635a46d3b560e01b81526001600160a01b0390911690635a46d3b59061203e908890600401613579565b60206040518083038186803b15801561205657600080fd5b505afa15801561206a573d6000803e3d6000fd5b505050506040513d601f19601f8201168201806040525081019061208e91906134c9565b846001018190555050505050505b50436000908152600c602090815260408083203284529091528082208054600160ff1991821681179092553384529190922080549091169091179055565b336000908152600b602052604090205460ff16806121075750336120fc61118e565b6001600160a01b0316145b6121235760405162461bcd60e51b815260040161087e90613eaf565b601755565b6001600160a01b03918216600090815260056020908152604080832093909416825291909152205460ff1690565b6017546000828152600d60205260408120600201549091610bdf9190612374565b336000908152600b602052604090205460ff16806121a457503361219961118e565b6001600160a01b0316145b6121c05760405162461bcd60e51b815260040161087e90613eaf565b6001600160a01b039091166000908152600e6020526040902060010155565b6121e76122c0565b6001600160a01b03166121f861118e565b6001600160a01b03161461221e5760405162461bcd60e51b815260040161087e90613d5e565b6001600160a01b0381166122445760405162461bcd60e51b815260040161087e9061373f565b600a546040516001600160a01b038084169216907f8be0079c531659141344cd1fd0a4f28419497f9722a3daafe3b4186f6b6457e090600090a3600a80546001600160a01b0319166001600160a01b0392909216919091179055565b6000610bdf6112e86112df846001612587565b6000610bdf60028361293b565b3390565b600081815260046020526040902080546001600160a01b0319166001600160a01b03841690811790915581906122f982610f05565b6001600160a01b03167f8c5be1e5ebec7d5bd14f71427d1e84f3dd0314c0f7b2291e5b200ac8c7c3b92560405160405180910390a45050565b436000908152600c6020908152604080832032845290915290205460ff1690565b436000908152600c6020908152604080832033845290915290205460ff1690565b600082820183811015610bdc5760405162461bcd60e51b815260040161087e90613830565b6123a2826122b3565b6123be5760405162461bcd60e51b815260040161087e90613d12565b6000828152600860209081526040909120825161093692840190613039565b6000610bdf82612947565b60006123f3826122b3565b61240f5760405162461bcd60e51b815260040161087e906139a2565b600061241a83610f05565b9050806001600160a01b0316846001600160a01b031614806124555750836001600160a01b031661244a84610857565b6001600160a01b0316145b8061246557506124658185612128565b949350505050565b826001600160a01b031661248082610f05565b6001600160a01b0316146124a65760405162461bcd60e51b815260040161087e90613d93565b6001600160a01b0382166124cc5760405162461bcd60e51b815260040161087e90613867565b6124d7838383610936565b6124e26000826122c4565b6001600160a01b0383166000908152600160205260409020612504908261294b565b506001600160a01b03821660009081526001602052604090206125279082612957565b5061253460028284612963565b5080826001600160a01b0316846001600160a01b03167fddf252ad1be2c89b69c2b068fc378daa952ba7f163c4a11628f55a4df523b3ef60405160405180910390a4505050565b6000610bdc8383612979565b6000828211156125a95760405162461bcd60e51b815260040161087e90613925565b50900390565b60008080806125be86866129be565b9097909650945050505050565b6000612465848484612a1a565b6000826125e757506000610bdf565b828202828482816125f457fe5b0414610bdc5760405162461bcd60e51b815260040161087e90613c85565b6115ed846323b872dd60e01b858585604051602401612633939291906135ca565b60408051601f198184030181529190526020810180516001600160e01b03166001600160e01b031990931692909217909152612a79565b6001600160a01b0382166126905760405162461bcd60e51b815260040161087e90613bdd565b612699816122b3565b156126b65760405162461bcd60e51b815260040161087e90613785565b6126c260008383610936565b6001600160a01b03821660009081526001602052604090206126e49082612957565b506126f160028284612963565b5060405181906001600160a01b038416906000907fddf252ad1be2c89b69c2b068fc378daa952ba7f163c4a11628f55a4df523b3ef908290a45050565b61273984848461246d565b61274584848484612b08565b6115ed5760405162461bcd60e51b815260040161087e906136ed565b60608161278657506040805180820190915260018152600360fc1b602082015261079e565b8160005b811561279e57600101600a8204915061278a565b60608167ffffffffffffffff811180156127b757600080fd5b506040519080825280601f01601f1916602001820160405280156127e2576020820181803683370190505b50859350905060001982015b831561283357600a840660300160f81b8282806001900393508151811061281157fe5b60200101906001600160f81b031916908160001a905350600a840493506127ee565b50949350505050565b600061284782610f05565b905061285581600084610936565b6128606000836122c4565b600082815260086020526040902054600260001961010060018416150201909116041561289e57600082815260086020526040812061289e916130a6565b6001600160a01b03811660009081526001602052604090206128c0908361294b565b506128cc600283612be7565b5060405182906000906001600160a01b038416907fddf252ad1be2c89b69c2b068fc378daa952ba7f163c4a11628f55a4df523b3ef908390a45050565b600080821161292a5760405162461bcd60e51b815260040161087e906139ee565b81838161293357fe5b049392505050565b6000610bdc8383612bf3565b5490565b6000610bdc8383612c0b565b6000610bdc8383612cd1565b600061246584846001600160a01b038516612d1b565b8154600090821061299c5760405162461bcd60e51b815260040161087e90613625565b8260000182815481106129ab57fe5b9060005260206000200154905092915050565b8154600090819083106129e35760405162461bcd60e51b815260040161087e90613b58565b60008460000184815481106129f457fe5b906000526020600020906002020190508060000154816001015492509250509250929050565b60008281526001840160205260408120548281612a4a5760405162461bcd60e51b815260040161087e9190613612565b50846000016001820381548110612a5d57fe5b9060005260206000209060020201600101549150509392505050565b6060612ace826040518060400160405280602081526020017f5361666545524332303a206c6f772d6c6576656c2063616c6c206661696c6564815250856001600160a01b0316612db29092919063ffffffff16565b8051909150156109365780806020019051810190612aec919061345d565b6109365760405162461bcd60e51b815260040161087e90613fcb565b6000612b1c846001600160a01b0316612dc1565b612b2857506001612465565b6060612bb0630a85bd0160e11b612b3d6122c0565b888787604051602401612b53949392919061358d565b604051602081830303815290604052906001600160e01b0319166020820180516001600160e01b0383818316178352505050506040518060600160405280603281526020016141aa603291396001600160a01b0388169190612db2565b9050600081806020019051810190612bc89190613495565b6001600160e01b031916630a85bd0160e11b1492505050949350505050565b6000610bdc8383612dc7565b60009081526001919091016020526040902054151590565b60008181526001830160205260408120548015612cc75783546000198083019190810190600090879083908110612c3e57fe5b9060005260206000200154905080876000018481548110612c5b57fe5b600091825260208083209091019290925582815260018981019092526040902090840190558654879080612c8b57fe5b60019003818190600052602060002001600090559055866001016000878152602001908152602001600020600090556001945050505050610bdf565b6000915050610bdf565b6000612cdd8383612bf3565b612d1357508154600181810184556000848152602080822090930184905584548482528286019093526040902091909155610bdf565b506000610bdf565b600082815260018401602052604081205480612d80575050604080518082018252838152602080820184815286546001818101895560008981528481209551600290930290950191825591519082015586548684528188019092529290912055610dab565b82856000016001830381548110612d9357fe5b9060005260206000209060020201600101819055506000915050610dab565b60606124658484600085612e9b565b3b151590565b60008181526001830160205260408120548015612cc75783546000198083019190810190600090879083908110612dfa57fe5b9060005260206000209060020201905080876000018481548110612e1a57fe5b600091825260208083208454600290930201918255600193840154918401919091558354825289830190526040902090840190558654879080612e5957fe5b6000828152602080822060026000199094019384020182815560019081018390559290935588815289820190925260408220919091559450610bdf9350505050565b606082471015612ebd5760405162461bcd60e51b815260040161087e9061395c565b612ec685612dc1565b612ee25760405162461bcd60e51b815260040161087e90613f94565b60006060866001600160a01b03168587604051612eff919061352e565b60006040518083038185875af1925050503d8060008114612f3c576040519150601f19603f3d011682016040523d82523d6000602084013e612f41565b606091505b5091509150612f51828286612f5c565b979650505050505050565b60608315612f6b575081610dab565b825115612f7b5782518084602001fd5b8160405162461bcd60e51b815260040161087e9190613612565b828054828255906000526020600020908101928215612fd0579160200282015b82811115612fd0578251825591602001919060010190612fb5565b50612fdc9291506130ed565b5090565b82805482825590600052602060002090810192821561302d579160200282015b8281111561302d578251805161301d918491602090910190613039565b5091602001919060010190613000565b50612fdc929150613102565b828054600181600116156101000203166002900490600052602060002090601f016020900481019282601f1061307a57805160ff1916838001178555612fd0565b82800160010185558215612fd05791820182811115612fd0578251825591602001919060010190612fb5565b50805460018160011615610100020316600290046000825580601f106130cc57506130ea565b601f0160209004906000526020600020908101906130ea91906130ed565b50565b5b80821115612fdc57600081556001016130ee565b80821115612fdc57600061311682826130a6565b50600101613102565b600082601f83011261312f578081fd5b813561314261313d82614124565b6140fd565b81815291506020808301908481018184028601820187101561316357600080fd5b60005b8481101561318257813584529282019290820190600101613166565b505050505092915050565b600082601f83011261319d578081fd5b813567ffffffffffffffff8111156131b3578182fd5b6131c6601f8201601f19166020016140fd565b91508082528360208285010111156131dd57600080fd5b8060208401602084013760009082016020015292915050565b600060208284031215613207578081fd5b8135610bdc81614170565b60008060408385031215613224578081fd5b823561322f81614170565b9150602083013561323f81614170565b809150509250929050565b60008060006060848603121561325e578081fd5b833561326981614170565b9250602084013561327981614170565b929592945050506040919091013590565b6000806000806080858703121561329f578081fd5b84356132aa81614170565b935060208501356132ba81614170565b925060408501359150606085013567ffffffffffffffff8111156132dc578182fd5b6132e88782880161318d565b91505092959194509250565b60008060408385031215613306578182fd5b823561331181614170565b9150602083013561323f81614185565b60008060408385031215613333578182fd5b823561333e81614170565b946020939093013593505050565b6000806040838503121561335e578182fd5b823567ffffffffffffffff80821115613375578384fd5b6133818683870161311f565b9350602091508185013581811115613397578384fd5b85019050601f810186136133a9578283fd5b80356133b761313d82614124565b81815283810190838501865b848110156133ec576133da8b88843589010161318d565b845292860192908601906001016133c3565b5096999098509650505050505050565b6000806040838503121561340e578182fd5b823567ffffffffffffffff80821115613425578384fd5b6134318683870161311f565b93506020850135915080821115613446578283fd5b506134538582860161311f565b9150509250929050565b60006020828403121561346e578081fd5b8151610bdc81614185565b60006020828403121561348a578081fd5b8135610bdc81614193565b6000602082840312156134a6578081fd5b8151610bdc81614193565b6000602082840312156134c2578081fd5b5035919050565b6000602082840312156134da578081fd5b5051919050565b600080604083850312156134f3578182fd5b50508035926020909101359150565b6000815180845261351a816020860160208601614144565b601f01601f19169290920160200192915050565b60008251613540818460208701614144565b9190910192915050565b6000835161355c818460208801614144565b835190830190613570818360208801614144565b01949350505050565b6001600160a01b0391909116815260200190565b6001600160a01b03858116825284166020820152604081018390526080606082018190526000906135c090830184613502565b9695505050505050565b6001600160a01b039384168152919092166020820152604081019190915260600190565b6001600160a01b03929092168252602082015260400190565b901515815260200190565b600060208252610bdc6020830184613502565b60208082526022908201527f456e756d657261626c655365743a20696e646578206f7574206f6620626f756e604082015261647360f01b606082015260800190565b60208082526023908201527f4c6576656c206d757374206265203e203020616e64203c3d206d6178206c657660408201526232b61760e91b606082015260800190565b60208082526023908201527f4e6f7420656e6f756768207065726d697373696f6e7320666f7220746f6b656e60408201526210189760e91b606082015260800190565b60208082526032908201527f4552433732313a207472616e7366657220746f206e6f6e20455243373231526560408201527131b2b4bb32b91034b6b83632b6b2b73a32b960711b606082015260800190565b60208082526026908201527f4f776e61626c653a206e6577206f776e657220697320746865207a65726f206160408201526564647265737360d01b606082015260800190565b6020808252601c908201527f4552433732313a20746f6b656e20616c7265616479206d696e74656400000000604082015260600190565b6020808252604e908201527f4c6576656c2055524920617272617973206d75737420626520657175616c206960408201527f6e206e6f6e2d7a65726f206c656e67746820616e64206c6576656c2073686f7560608201526d36321039ba30b93a1030ba10181760911b608082015260a00190565b6020808252601b908201527f536166654d6174683a206164646974696f6e206f766572666c6f770000000000604082015260600190565b60208082526024908201527f4552433732313a207472616e7366657220746f20746865207a65726f206164646040820152637265737360e01b606082015260800190565b60208082526019908201527f4552433732313a20617070726f766520746f2063616c6c657200000000000000604082015260600190565b60208082526023908201527f4d6178206c6576656c2063616e277420626520686967686572207468616e203160408201526218181760e91b606082015260800190565b6020808252601e908201527f536166654d6174683a207375627472616374696f6e206f766572666c6f770000604082015260600190565b60208082526026908201527f416464726573733a20696e73756666696369656e742062616c616e636520666f6040820152651c8818d85b1b60d21b606082015260800190565b6020808252602c908201527f4552433732313a206f70657261746f7220717565727920666f72206e6f6e657860408201526b34b9ba32b73a103a37b5b2b760a11b606082015260800190565b6020808252601a908201527f536166654d6174683a206469766973696f6e206279207a65726f000000000000604082015260600190565b60208082526017908201527f4e6f7420656e6f756768207065726d697373696f6e732e000000000000000000604082015260600190565b6020808252601590820152742a37b5b2b7102aa9249034b99034b73b30b634b21760591b604082015260600190565b60208082526038908201527f4552433732313a20617070726f76652063616c6c6572206973206e6f74206f7760408201527f6e6572206e6f7220617070726f76656420666f7220616c6c0000000000000000606082015260800190565b6020808252602a908201527f4552433732313a2062616c616e636520717565727920666f7220746865207a65604082015269726f206164647265737360b01b606082015260800190565b6020808252600c908201526b2637b3b4b19032b93937b91760a11b604082015260600190565b60208082526022908201527f456e756d657261626c654d61703a20696e646578206f7574206f6620626f756e604082015261647360f01b606082015260800190565b60208082526023908201527f4c6576656c206d757374206265206c6f776572207468616e206d6178206c657660408201526232b61760e91b606082015260800190565b6020808252818101527f4552433732313a206d696e7420746f20746865207a65726f2061646472657373604082015260600190565b6020808252604d908201527f4d6178206c6576656c20617272617973206d75737420626520657175616c206960408201527f6e206e6f6e2d7a65726f206c656e67746820616e642074696d652073686f756c60608201526c321039ba30b93a1030ba10181760991b608082015260a00190565b60208082526021908201527f536166654d6174683a206d756c7469706c69636174696f6e206f766572666c6f6040820152607760f81b606082015260800190565b6020808252602c908201527f4552433732313a20617070726f76656420717565727920666f72206e6f6e657860408201526b34b9ba32b73a103a37b5b2b760a11b606082015260800190565b6020808252602c908201527f4552433732314d657461646174613a2055524920736574206f66206e6f6e657860408201526b34b9ba32b73a103a37b5b2b760a11b606082015260800190565b6020808252818101527f4f776e61626c653a2063616c6c6572206973206e6f7420746865206f776e6572604082015260600190565b60208082526029908201527f4552433732313a207472616e73666572206f6620746f6b656e2074686174206960408201526839903737ba1037bbb760b91b606082015260800190565b6020808252602f908201527f4552433732314d657461646174613a2055524920717565727920666f72206e6f60408201526e3732bc34b9ba32b73a103a37b5b2b760891b606082015260800190565b60208082526023908201527f4e6f7420656e6f756768207065726d697373696f6e7320666f7220746f6b656e60408201526210191760e91b606082015260800190565b60208082526021908201527f4552433732313a20617070726f76616c20746f2063757272656e74206f776e656040820152603960f91b606082015260800190565b60208082526018908201527f63616c6c6572206973206e6f7420617574686f72697a65640000000000000000604082015260600190565b60208082526039908201527f546f6f206d75636820746f20756e6c6f636b206e61747572616c6c792c20706c60408201527f656173652063616c6c20756e6c6f636b28292066697273742e00000000000000606082015260800190565b60208082526031908201527f4552433732313a207472616e736665722063616c6c6572206973206e6f74206f6040820152701ddb995c881b9bdc88185c1c1c9bdd9959607a1b606082015260800190565b6020808252601d908201527f416464726573733a2063616c6c20746f206e6f6e2d636f6e7472616374000000604082015260600190565b6020808252602a908201527f5361666545524332303a204552433230206f7065726174696f6e20646964206e6040820152691bdd081cdd58d8d9595960b21b606082015260800190565b60208082526026908201527f436f6e747261637447756172643a206f6e6520626c6f636b2c206f6e652066756040820152653731ba34b7b760d11b606082015260800190565b6020808252601690820152752a37b79032b0b9363c903a37903632bb32b6103ab81760511b604082015260600190565b60208082526025908201527f426f746820746f6b656e73206d7573742068617665207468652073616d65206f6040820152643bb732b91760d91b606082015260800190565b90815260200190565b918252602082015260400190565b9283526020830191909152604082015260600190565b60405181810167ffffffffffffffff8111828210171561411c57600080fd5b604052919050565b600067ffffffffffffffff82111561413a578081fd5b5060209081020190565b60005b8381101561415f578181015183820152602001614147565b838111156115ed5750506000910152565b6001600160a01b03811681146130ea57600080fd5b80151581146130ea57600080fd5b6001600160e01b0319811681146130ea57600080fdfe4552433732313a207472616e7366657220746f206e6f6e20455243373231526563656976657220696d706c656d656e7465724552433732313a206f776e657220717565727920666f72206e6f6e6578697374656e7420746f6b656ea264697066735822122096948b85b0945fbec2b31691c8e00c8d641dc91abe908bb07e23852d9f27715b64736f6c634300060c0033",
  "linkReferences": {},
  "deployedLinkReferences": {}
}