{
  "_format": "hh-sol-artifact-1",
  "contractName": "TheoryUnlocker",
  "sourceName": "contracts/nfts/TheoryUnlocker.sol",
  "abi": [
    {
      "inputs": [
        {
          "internalType": "contract IERC20",
          "name": "_buy",
          "type": "address"
        },
        {
          "internalType": "uint256",
          "name": "_initialBuy",
          "type": "uint256"
        },
        {
          "internalType": "uint256",
          "name": "_buyPerLevel",
          "type": "uint256"
        },
        {
          "internalType": "contract IERC20Lockable",
          "name": "_theory",
          "type": "address"
        },
        {
          "internalType": "address",
          "name": "_communityFund",
          "type": "address"
        },
        {
          "internalType": "uint256[]",
          "name": "_maxLevelTime",
          "type": "uint256[]"
        },
        {
          "internalType": "uint256[]",
          "name": "_maxLevelLevel",
          "type": "uint256[]"
        },
        {
          "internalType": "uint256[]",
          "name": "_levelURIsLevel",
          "type": "uint256[]"
        },
        {
          "internalType": "string[]",
          "name": "_levelURIsURI",
          "type": "string[]"
        }
      ],
      "stateMutability": "nonpayable",
      "type": "constructor"
    },
    {
      "anonymous": false,
      "inputs": [
        {
          "indexed": true,
          "internalType": "address",
          "name": "owner",
          "type": "address"
        },
        {
          "indexed": true,
          "internalType": "address",
          "name": "approved",
          "type": "address"
        },
        {
          "indexed": true,
          "internalType": "uint256",
          "name": "tokenId",
          "type": "uint256"
        }
      ],
      "name": "Approval",
      "type": "event"
    },
    {
      "anonymous": false,
      "inputs": [
        {
          "indexed": true,
          "internalType": "address",
          "name": "owner",
          "type": "address"
        },
        {
          "indexed": true,
          "internalType": "address",
          "name": "operator",
          "type": "address"
        },
        {
          "indexed": false,
          "internalType": "bool",
          "name": "approved",
          "type": "bool"
        }
      ],
      "name": "ApprovalForAll",
      "type": "event"
    },
    {
      "anonymous": false,
      "inputs": [
        {
          "indexed": true,
          "internalType": "address",
          "name": "previousOwner",
          "type": "address"
        },
        {
          "indexed": true,
          "internalType": "address",
          "name": "newOwner",
          "type": "address"
        }
      ],
      "name": "OwnershipTransferred",
      "type": "event"
    },
    {
      "anonymous": false,
      "inputs": [
        {
          "indexed": true,
          "internalType": "address",
          "name": "from",
          "type": "address"
        },
        {
          "indexed": true,
          "internalType": "address",
          "name": "to",
          "type": "address"
        },
        {
          "indexed": true,
          "internalType": "uint256",
          "name": "tokenId",
          "type": "uint256"
        }
      ],
      "name": "Transfer",
      "type": "event"
    },
    {
      "inputs": [
        {
          "internalType": "address",
          "name": "_toAdd",
          "type": "address"
        }
      ],
      "name": "addAuthorized",
      "outputs": [],
      "stateMutability": "nonpayable",
      "type": "function"
    },
    {
      "inputs": [
        {
          "internalType": "address",
          "name": "to",
          "type": "address"
        },
        {
          "internalType": "uint256",
          "name": "tokenId",
          "type": "uint256"
        }
      ],
      "name": "approve",
      "outputs": [],
      "stateMutability": "nonpayable",
      "type": "function"
    },
    {
      "inputs": [
        {
          "internalType": "address",
          "name": "",
          "type": "address"
        }
      ],
      "name": "authorized",
      "outputs": [
        {
          "internalType": "bool",
          "name": "",
          "type": "bool"
        }
      ],
      "stateMutability": "view",
      "type": "function"
    },
    {
      "inputs": [
        {
          "internalType": "address",
          "name": "owner",
          "type": "address"
        }
      ],
      "name": "balanceOf",
      "outputs": [
        {
          "internalType": "uint256",
          "name": "",
          "type": "uint256"
        }
      ],
      "stateMutability": "view",
      "type": "function"
    },
    {
      "inputs": [],
      "name": "baseURI",
      "outputs": [
        {
          "internalType": "string",
          "name": "",
          "type": "string"
        }
      ],
      "stateMutability": "view",
      "type": "function"
    },
    {
      "inputs": [],
      "name": "buyToken",
      "outputs": [
        {
          "internalType": "contract IERC20",
          "name": "",
          "type": "address"
        }
      ],
      "stateMutability": "view",
      "type": "function"
    },
    {
      "inputs": [],
      "name": "buyTokenPerLevel",
      "outputs": [
        {
          "internalType": "uint256",
          "name": "",
          "type": "uint256"
        }
      ],
      "stateMutability": "view",
      "type": "function"
    },
    {
      "inputs": [
        {
          "internalType": "address",
          "name": "player",
          "type": "address"
        },
        {
          "internalType": "uint256",
          "name": "tokenId",
          "type": "uint256"
        }
      ],
      "name": "canUnlockAmount",
      "outputs": [
        {
          "internalType": "uint256",
          "name": "",
          "type": "uint256"
        }
      ],
      "stateMutability": "view",
      "type": "function"
    },
    {
      "inputs": [],
      "name": "communityFund",
      "outputs": [
        {
          "internalType": "address",
          "name": "",
          "type": "address"
        }
      ],
      "stateMutability": "view",
      "type": "function"
    },
    {
      "inputs": [
        {
          "internalType": "uint256",
          "name": "level",
          "type": "uint256"
        }
      ],
      "name": "costOf",
      "outputs": [
        {
          "internalType": "uint256",
          "name": "",
          "type": "uint256"
        }
      ],
      "stateMutability": "view",
      "type": "function"
    },
    {
      "inputs": [],
      "name": "disableMint",
      "outputs": [
        {
          "internalType": "bool",
          "name": "",
          "type": "bool"
        }
      ],
      "stateMutability": "view",
      "type": "function"
    },
    {
      "inputs": [
        {
          "internalType": "uint256",
          "name": "tokenId",
          "type": "uint256"
        }
      ],
      "name": "getApproved",
      "outputs": [
        {
          "internalType": "address",
          "name": "",
          "type": "address"
        }
      ],
      "stateMutability": "view",
      "type": "function"
    },
    {
      "inputs": [],
      "name": "initialPrice",
      "outputs": [
        {
          "internalType": "uint256",
          "name": "",
          "type": "uint256"
        }
      ],
      "stateMutability": "view",
      "type": "function"
    },
    {
      "inputs": [
        {
          "internalType": "address",
          "name": "owner",
          "type": "address"
        },
        {
          "internalType": "address",
          "name": "operator",
          "type": "address"
        }
      ],
      "name": "isApprovedForAll",
      "outputs": [
        {
          "internalType": "bool",
          "name": "",
          "type": "bool"
        }
      ],
      "stateMutability": "view",
      "type": "function"
    },
    {
      "inputs": [
        {
          "internalType": "uint256",
          "name": "level",
          "type": "uint256"
        }
      ],
      "name": "levelURI",
      "outputs": [
        {
          "internalType": "string",
          "name": "",
          "type": "string"
        }
      ],
      "stateMutability": "view",
      "type": "function"
    },
    {
      "inputs": [
        {
          "internalType": "uint256",
          "name": "",
          "type": "uint256"
        }
      ],
      "name": "levelURIsLevel",
      "outputs": [
        {
          "internalType": "uint256",
          "name": "",
          "type": "uint256"
        }
      ],
      "stateMutability": "view",
      "type": "function"
    },
    {
      "inputs": [
        {
          "internalType": "uint256",
          "name": "",
          "type": "uint256"
        }
      ],
      "name": "levelURIsURI",
      "outputs": [
        {
          "internalType": "string",
          "name": "",
          "type": "string"
        }
      ],
      "stateMutability": "view",
      "type": "function"
    },
    {
      "inputs": [
        {
          "internalType": "uint256",
          "name": "tokenId",
          "type": "uint256"
        }
      ],
      "name": "levelUp",
      "outputs": [],
      "stateMutability": "nonpayable",
      "type": "function"
    },
    {
      "inputs": [],
      "name": "maxLevel",
      "outputs": [
        {
          "internalType": "uint256",
          "name": "",
          "type": "uint256"
        }
      ],
      "stateMutability": "view",
      "type": "function"
    },
    {
      "inputs": [
        {
          "internalType": "uint256",
          "name": "",
          "type": "uint256"
        }
      ],
      "name": "maxLevelLevel",
      "outputs": [
        {
          "internalType": "uint256",
          "name": "",
          "type": "uint256"
        }
      ],
      "stateMutability": "view",
      "type": "function"
    },
    {
      "inputs": [
        {
          "internalType": "uint256",
          "name": "",
          "type": "uint256"
        }
      ],
      "name": "maxLevelTime",
      "outputs": [
        {
          "internalType": "uint256",
          "name": "",
          "type": "uint256"
        }
      ],
      "stateMutability": "view",
      "type": "function"
    },
    {
      "inputs": [
        {
          "internalType": "uint256",
          "name": "tokenId1",
          "type": "uint256"
        },
        {
          "internalType": "uint256",
          "name": "tokenId2",
          "type": "uint256"
        }
      ],
      "name": "merge",
      "outputs": [
        {
          "internalType": "uint256",
          "name": "",
          "type": "uint256"
        }
      ],
      "stateMutability": "nonpayable",
      "type": "function"
    },
    {
      "inputs": [
        {
          "internalType": "uint256",
          "name": "level",
          "type": "uint256"
        }
      ],
      "name": "mint",
      "outputs": [
        {
          "internalType": "uint256",
          "name": "",
          "type": "uint256"
        }
      ],
      "stateMutability": "nonpayable",
      "type": "function"
    },
    {
      "inputs": [],
      "name": "name",
      "outputs": [
        {
          "internalType": "string",
          "name": "",
          "type": "string"
        }
      ],
      "stateMutability": "view",
      "type": "function"
    },
    {
      "inputs": [
        {
          "internalType": "uint256",
          "name": "tokenId",
          "type": "uint256"
        }
      ],
      "name": "nextLevelTime",
      "outputs": [
        {
          "internalType": "uint256",
          "name": "",
          "type": "uint256"
        }
      ],
      "stateMutability": "view",
      "type": "function"
    },
    {
      "inputs": [
        {
          "internalType": "uint256",
          "name": "tokenId",
          "type": "uint256"
        }
      ],
      "name": "nftUnlock",
      "outputs": [],
      "stateMutability": "nonpayable",
      "type": "function"
    },
    {
      "inputs": [],
      "name": "owner",
      "outputs": [
        {
          "internalType": "address",
          "name": "",
          "type": "address"
        }
      ],
      "stateMutability": "view",
      "type": "function"
    },
    {
      "inputs": [
        {
          "internalType": "uint256",
          "name": "tokenId",
          "type": "uint256"
        }
      ],
      "name": "ownerOf",
      "outputs": [
        {
          "internalType": "address",
          "name": "",
          "type": "address"
        }
      ],
      "stateMutability": "view",
      "type": "function"
    },
    {
      "inputs": [
        {
          "internalType": "address",
          "name": "_toRemove",
          "type": "address"
        }
      ],
      "name": "removeAuthorized",
      "outputs": [],
      "stateMutability": "nonpayable",
      "type": "function"
    },
    {
      "inputs": [],
      "name": "renounceOwnership",
      "outputs": [],
      "stateMutability": "nonpayable",
      "type": "function"
    },
    {
      "inputs": [
        {
          "internalType": "address",
          "name": "from",
          "type": "address"
        },
        {
          "internalType": "address",
          "name": "to",
          "type": "address"
        },
        {
          "internalType": "uint256",
          "name": "tokenId",
          "type": "uint256"
        }
      ],
      "name": "safeTransferFrom",
      "outputs": [],
      "stateMutability": "nonpayable",
      "type": "function"
    },
    {
      "inputs": [
        {
          "internalType": "address",
          "name": "from",
          "type": "address"
        },
        {
          "internalType": "address",
          "name": "to",
          "type": "address"
        },
        {
          "internalType": "uint256",
          "name": "tokenId",
          "type": "uint256"
        },
        {
          "internalType": "bytes",
          "name": "_data",
          "type": "bytes"
        }
      ],
      "name": "safeTransferFrom",
      "outputs": [],
      "stateMutability": "nonpayable",
      "type": "function"
    },
    {
      "inputs": [
        {
          "internalType": "address",
          "name": "operator",
          "type": "address"
        },
        {
          "internalType": "bool",
          "name": "approved",
          "type": "bool"
        }
      ],
      "name": "setApprovalForAll",
      "outputs": [],
      "stateMutability": "nonpayable",
      "type": "function"
    },
    {
      "inputs": [
        {
          "internalType": "contract IERC20",
          "name": "_buy",
          "type": "address"
        }
      ],
      "name": "setBuyToken",
      "outputs": [],
      "stateMutability": "nonpayable",
      "type": "function"
    },
    {
      "inputs": [
        {
          "internalType": "uint256",
          "name": "_perLevel",
          "type": "uint256"
        }
      ],
      "name": "setBuyTokenPerLevel",
      "outputs": [],
      "stateMutability": "nonpayable",
      "type": "function"
    },
    {
      "inputs": [
        {
          "internalType": "address",
          "name": "_fund",
          "type": "address"
        }
      ],
      "name": "setCommunityFund",
      "outputs": [],
      "stateMutability": "nonpayable",
      "type": "function"
    },
    {
      "inputs": [
        {
          "internalType": "uint256",
          "name": "tokenId",
          "type": "uint256"
        },
        {
          "internalType": "uint256",
          "name": "time",
          "type": "uint256"
        }
      ],
      "name": "setCreationTime",
      "outputs": [],
      "stateMutability": "nonpayable",
      "type": "function"
    },
    {
      "inputs": [
        {
          "internalType": "bool",
          "name": "_disable",
          "type": "bool"
        }
      ],
      "name": "setDisableMint",
      "outputs": [],
      "stateMutability": "nonpayable",
      "type": "function"
    },
    {
      "inputs": [
        {
          "internalType": "uint256",
          "name": "_initial",
          "type": "uint256"
        }
      ],
      "name": "setInitialPrice",
      "outputs": [],
      "stateMutability": "nonpayable",
      "type": "function"
    },
    {
      "inputs": [
        {
          "internalType": "uint256",
          "name": "tokenId",
          "type": "uint256"
        },
        {
          "internalType": "uint256",
          "name": "time",
          "type": "uint256"
        }
      ],
      "name": "setLastLevelTime",
      "outputs": [],
      "stateMutability": "nonpayable",
      "type": "function"
    },
    {
      "inputs": [
        {
          "internalType": "address",
          "name": "user",
          "type": "address"
        },
        {
          "internalType": "uint256",
          "name": "amount",
          "type": "uint256"
        }
      ],
      "name": "setLastLockAmount",
      "outputs": [],
      "stateMutability": "nonpayable",
      "type": "function"
    },
    {
      "inputs": [
        {
          "internalType": "address",
          "name": "user",
          "type": "address"
        },
        {
          "internalType": "uint256",
          "name": "time",
          "type": "uint256"
        }
      ],
      "name": "setLastUnlockTime",
      "outputs": [],
      "stateMutability": "nonpayable",
      "type": "function"
    },
    {
      "inputs": [
        {
          "internalType": "uint256[]",
          "name": "_levelURIsLevel",
          "type": "uint256[]"
        },
        {
          "internalType": "string[]",
          "name": "_levelURIsURI",
          "type": "string[]"
        }
      ],
      "name": "setLevelURIs",
      "outputs": [],
      "stateMutability": "nonpayable",
      "type": "function"
    },
    {
      "inputs": [
        {
          "internalType": "uint256[]",
          "name": "_maxLevelTime",
          "type": "uint256[]"
        },
        {
          "internalType": "uint256[]",
          "name": "_maxLevelLevel",
          "type": "uint256[]"
        }
      ],
      "name": "setMaxLevel",
      "outputs": [],
      "stateMutability": "nonpayable",
      "type": "function"
    },
    {
      "inputs": [
        {
          "internalType": "uint256",
          "name": "_time",
          "type": "uint256"
        }
      ],
      "name": "setTimeToLevel",
      "outputs": [],
      "stateMutability": "nonpayable",
      "type": "function"
    },
    {
      "inputs": [
        {
          "internalType": "uint256",
          "name": "tokenId",
          "type": "uint256"
        },
        {
          "internalType": "uint256",
          "name": "level",
          "type": "uint256"
        }
      ],
      "name": "setTokenLevel",
      "outputs": [],
      "stateMutability": "nonpayable",
      "type": "function"
    },
    {
      "inputs": [
        {
          "internalType": "bytes4",
          "name": "interfaceId",
          "type": "bytes4"
        }
      ],
      "name": "supportsInterface",
      "outputs": [
        {
          "internalType": "bool",
          "name": "",
          "type": "bool"
        }
      ],
      "stateMutability": "view",
      "type": "function"
    },
    {
      "inputs": [],
      "name": "symbol",
      "outputs": [
        {
          "internalType": "string",
          "name": "",
          "type": "string"
        }
      ],
      "stateMutability": "view",
      "type": "function"
    },
    {
      "inputs": [],
      "name": "theory",
      "outputs": [
        {
          "internalType": "contract IERC20Lockable",
          "name": "",
          "type": "address"
        }
      ],
      "stateMutability": "view",
      "type": "function"
    },
    {
      "inputs": [
        {
          "internalType": "uint256",
          "name": "tokenId",
          "type": "uint256"
        }
      ],
      "name": "timeLeftToLevel",
      "outputs": [
        {
          "internalType": "uint256",
          "name": "",
          "type": "uint256"
        }
      ],
      "stateMutability": "view",
      "type": "function"
    },
    {
      "inputs": [],
      "name": "timeToLevel",
      "outputs": [
        {
          "internalType": "uint256",
          "name": "",
          "type": "uint256"
        }
      ],
      "stateMutability": "view",
      "type": "function"
    },
    {
      "inputs": [
        {
          "internalType": "uint256",
          "name": "index",
          "type": "uint256"
        }
      ],
      "name": "tokenByIndex",
      "outputs": [
        {
          "internalType": "uint256",
          "name": "",
          "type": "uint256"
        }
      ],
      "stateMutability": "view",
      "type": "function"
    },
    {
      "inputs": [
        {
          "internalType": "uint256",
          "name": "",
          "type": "uint256"
        }
      ],
      "name": "tokenInfo",
      "outputs": [
        {
          "internalType": "uint256",
          "name": "level",
          "type": "uint256"
        },
        {
          "internalType": "uint256",
          "name": "creationTime",
          "type": "uint256"
        },
        {
          "internalType": "uint256",
          "name": "lastLevelTime",
          "type": "uint256"
        }
      ],
      "stateMutability": "view",
      "type": "function"
    },
    {
      "inputs": [
        {
          "internalType": "address",
          "name": "owner",
          "type": "address"
        },
        {
          "internalType": "uint256",
          "name": "index",
          "type": "uint256"
        }
      ],
      "name": "tokenOfOwnerByIndex",
      "outputs": [
        {
          "internalType": "uint256",
          "name": "",
          "type": "uint256"
        }
      ],
      "stateMutability": "view",
      "type": "function"
    },
    {
      "inputs": [
        {
          "internalType": "uint256",
          "name": "tokenId",
          "type": "uint256"
        }
      ],
      "name": "tokenURI",
      "outputs": [
        {
          "internalType": "string",
          "name": "",
          "type": "string"
        }
      ],
      "stateMutability": "view",
      "type": "function"
    },
    {
      "inputs": [],
      "name": "totalSupply",
      "outputs": [
        {
          "internalType": "uint256",
          "name": "",
          "type": "uint256"
        }
      ],
      "stateMutability": "view",
      "type": "function"
    },
    {
      "inputs": [
        {
          "internalType": "address",
          "name": "from",
          "type": "address"
        },
        {
          "internalType": "address",
          "name": "to",
          "type": "address"
        },
        {
          "internalType": "uint256",
          "name": "tokenId",
          "type": "uint256"
        }
      ],
      "name": "transferFrom",
      "outputs": [],
      "stateMutability": "nonpayable",
      "type": "function"
    },
    {
      "inputs": [
        {
          "internalType": "address",
          "name": "newOwner",
          "type": "address"
        }
      ],
      "name": "transferOwnership",
      "outputs": [],
      "stateMutability": "nonpayable",
      "type": "function"
    },
    {
      "inputs": [
        {
          "internalType": "address",
          "name": "",
          "type": "address"
        }
      ],
      "name": "userInfo",
      "outputs": [
        {
          "internalType": "uint256",
          "name": "lastUnlockTime",
          "type": "uint256"
        },
        {
          "internalType": "uint256",
          "name": "lastLockAmount",
          "type": "uint256"
        }
      ],
      "stateMutability": "view",
      "type": "function"
    }
  ],
  "bytecode": "0x60806040523480156200001157600080fd5b5060405162004ebb38038062004ebb833981016040819052620000349162000644565b604080518082018252600f81526e2a2422a7a92c902ab73637b1b5b2b960891b60208083019190915282518084019093526002835261545560f01b9083015290620000866301ffc9a760e01b62000314565b81516200009b9060069060208501906200036a565b508051620000b19060079060208401906200036a565b50620000c46380ac58cd60e01b62000314565b620000d6635b5e139f60e01b62000314565b620000e863780e9d6360e01b62000314565b5060009050620000f762000366565b600a80546001600160a01b0319166001600160a01b038316908117909155604051919250906000907f8be0079c531659141344cd1fd0a4f28419497f9722a3daafe3b4186f6b6457e0908290a350601480546001600160a01b0319166001600160a01b038b1617905560158890556016879055815115801590620001905750816000815181106200018457fe5b60200260200101516000145b80156200019e575081518151145b620001c65760405162461bcd60e51b8152600401620001bd906200077f565b60405180910390fd5b60008451118015620001ed575083600081518110620001e157fe5b60200260200101516000145b8015620001fb575083518351145b6200021a5760405162461bcd60e51b8152600401620001bd9062000836565b82516000905b808210156200026d5760648583815181106200023857fe5b60200260200101511115620002615760405162461bcd60e51b8152600401620001bd90620007f3565b60018201915062000220565b835162000282906010906020870190620003ef565b508251620002989060119060208601906200042c565b508551620002ae906012906020890190620003ef565b508451620002c4906013906020880190620003ef565b5050601780546001600160a01b03199081166001600160a01b03988916179091556203f48060185560198054909116979096169690961760ff60a01b191690945550620009479650505050505050565b6001600160e01b03198082161415620003415760405162461bcd60e51b8152600401620001bd9062000748565b6001600160e01b0319166000908152602081905260409020805460ff19166001179055565b3390565b828054600181600116156101000203166002900490600052602060002090601f016020900481019282601f10620003ad57805160ff1916838001178555620003dd565b82800160010185558215620003dd579182015b82811115620003dd578251825591602001919060010190620003c0565b50620003eb9291506200048c565b5090565b828054828255906000526020600020908101928215620003dd5791602002820182811115620003dd578251825591602001919060010190620003c0565b8280548282559060005260206000209081019282156200047e579160200282015b828111156200047e57825180516200046d9184916020909101906200036a565b50916020019190600101906200044d565b50620003eb929150620004a3565b5b80821115620003eb57600081556001016200048d565b80821115620003eb576000620004ba8282620004c4565b50600101620004a3565b50805460018160011615610100020316600290046000825580601f10620004ec57506200050c565b601f0160209004906000526020600020908101906200050c91906200048c565b50565b80516001600160a01b03811681146200052757600080fd5b92915050565b600082601f8301126200053e578081fd5b8151620005556200054f82620008d0565b620008a9565b818152915060208083019084810160005b84811015620005d4578151870188603f8201126200058357600080fd5b83810151620005966200054f82620008f0565b81815260408b81848601011115620005ad57600080fd5b620005be8388840183870162000914565b5086525050928201929082019060010162000566565b505050505092915050565b600082601f830112620005f0578081fd5b8151620006016200054f82620008d0565b8181529150602080830190848101818402860182018710156200062357600080fd5b60005b84811015620005d45781518452928201929082019060010162000626565b60008060008060008060008060006101208a8c03121562000663578485fd5b6200066f8b8b6200050f565b985060208a0151975060408a015196506200068e8b60608c016200050f565b95506200069f8b60808c016200050f565b60a08b01519095506001600160401b0380821115620006bc578586fd5b620006ca8d838e01620005df565b955060c08c0151915080821115620006e0578485fd5b620006ee8d838e01620005df565b945060e08c015191508082111562000704578384fd5b620007128d838e01620005df565b93506101008c015191508082111562000729578283fd5b50620007388c828d016200052d565b9150509295985092959850929598565b6020808252601c908201527f4552433136353a20696e76616c696420696e7465726661636520696400000000604082015260600190565b6020808252604e908201527f4c6576656c2055524920617272617973206d75737420626520657175616c206960408201527f6e206e6f6e2d7a65726f206c656e67746820616e64206c6576656c2073686f7560608201526d36321039ba30b93a1030ba10181760911b608082015260a00190565b60208082526023908201527f4d6178206c6576656c2063616e277420626520686967686572207468616e203160408201526218181760e91b606082015260800190565b6020808252604d908201527f4d6178206c6576656c20617272617973206d75737420626520657175616c206960408201527f6e206e6f6e2d7a65726f206c656e67746820616e642074696d652073686f756c60608201526c321039ba30b93a1030ba10181760991b608082015260a00190565b6040518181016001600160401b0381118282101715620008c857600080fd5b604052919050565b60006001600160401b03821115620008e6578081fd5b5060209081020190565b60006001600160401b0382111562000906578081fd5b50601f01601f191660200190565b60005b838110156200093157818101518382015260200162000917565b8381111562000941576000848401525b50505050565b61456480620009576000396000f3fe608060405234801561001057600080fd5b50600436106103985760003560e01c80636352211e116101e9578063b91816111161010f578063d1c2babb116100ad578063e985e9c51161007c578063e985e9c514610774578063ec3ddf3014610787578063f2fde38b1461079a578063fd326592146107ad57610398565b8063d1c2babb14610728578063d8cab4a91461073b578063db357c301461074e578063dd289dcb1461076157610398565b8063cc06c359116100e9578063cc06c359146106d8578063cc33c875146106e0578063cc67d1ae14610702578063cf1c316a1461071557610398565b8063b91816111461069f578063c87b56dd146106b2578063ca60567a146106c557610398565b80638da5cb5b11610187578063a22cb46511610156578063a22cb4651461065e578063a482171914610671578063aa08279c14610679578063b88d4fde1461068c57610398565b80638da5cb5b1461062857806395d89b41146106305780639f4ba0ee14610638578063a0712d681461064b57610398565b806370a08231116101c357806370a08231146105e757806371167122146105fa578063715018a61461060d5780638a1165b31461061557610398565b80636352211e146105b95780636c0360eb146105cc5780637001e2a6146105d457610398565b80632bac9689116102ce5780633c32a4501161026c578063485d7d941161023b578063485d7d941461056d5780634f6ccce71461058057806358df3825146105935780635b2f4ed4146105a657610398565b80633c32a450146105375780633f684d381461053f57806342842e0e1461055257806347aebf9a1461056557610398565b806334452f38116102a857806334452f38146104f657806337339a16146104fe57806338d17099146105115780633bcafb631461052457610398565b80632bac9689146104bd5780632eb552f3146104d05780632f745c59146104e357610398565b80630a8424331161033b5780631959a002116103155780631959a002146104795780631d0806ae1461049a57806323b872dd146104a2578063257c739b146104b557610398565b80630a8424331461044b5780630ce90ec21461045e57806318160ddd1461047157610398565b8063081437961161037757806308143796146103f0578063081812fc1461041057806308a5510c14610423578063095ea7b31461043857610398565b8062f380f41461039d57806301ffc9a7146103bb57806306fdde03146103db575b600080fd5b6103a56107c0565b6040516103b2919061386e565b60405180910390f35b6103ce6103c936600461376e565b6107cf565b6040516103b291906138fc565b6103e36107f2565b6040516103b29190613907565b6104036103fe3660046137a6565b610888565b6040516103b291906143fa565b6103a561041e3660046137a6565b6108a6565b610436610431366004613736565b6108f2565b005b6104366104463660046135fa565b610959565b6104036104593660046135fa565b6109f1565b61043661046c3660046137a6565b610bba565b610403610d34565b61048c6104873660046134cf565b610d45565b6040516103b2929190614403565b610403610d5e565b6104366104b0366004613523565b610d64565b610403610d9c565b6104366104cb3660046137a6565b610da2565b6104036104de3660046137a6565b610df0565b6104036104f13660046135fa565b610dfd565b6103ce610e26565b61043661050c3660046134cf565b610e36565b6103e361051f3660046137a6565b610ea1565b6104036105323660046137a6565b610fa1565b6103a5610fae565b61040361054d3660046137a6565b610fbd565b610436610560366004613523565b610ffc565b610403611017565b61043661057b3660046134cf565b61101d565b61040361058e3660046137a6565b611093565b6104366105a13660046135fa565b6110a9565b6103e36105b43660046137a6565b611111565b6103a56105c73660046137a6565b6111b7565b6103e36111df565b6104366105e23660046135fa565b611240565b6104036105f53660046134cf565b6112a5565b6104366106083660046137d6565b6112ee565b61043661134c565b6104366106233660046134cf565b6113d5565b6103a5611440565b6103e361144f565b6104366106463660046137a6565b6114b0565b6104036106593660046137a6565b6114fe565b61043661066c3660046135cd565b6116ad565b6103a561177b565b6104366106873660046136d5565b61178a565b61043661069a366004613563565b61189c565b6103ce6106ad3660046134cf565b6118db565b6103e36106c03660046137a6565b6118f0565b6104366106d33660046137d6565b611a36565b610403611ac4565b6106f36106ee3660046137a6565b611b2c565b6040516103b293929190614411565b6104366107103660046137d6565b611b4d565b6104366107233660046134cf565b611bab565b6104036107363660046137d6565b611c0e565b610436610749366004613625565b611e93565b61043661075c3660046137a6565b611f51565b61043661076f3660046137a6565b6123f8565b6103ce6107823660046134eb565b612446565b6104036107953660046137a6565b612474565b6104366107a83660046134cf565b612495565b6104036107bb3660046137a6565b612556565b6017546001600160a01b031681565b6001600160e01b0319811660009081526020819052604090205460ff165b919050565b60068054604080516020601f600260001961010060018816150201909516949094049384018190048102820181019092528281526060939092909183018282801561087e5780601f106108535761010080835404028352916020019161087e565b820191906000526020600020905b81548152906001019060200180831161086157829003601f168201915b5050505050905090565b6013818154811061089557fe5b600091825260209091200154905081565b60006108b182612569565b6108d65760405162461bcd60e51b81526004016108cd90613ff0565b60405180910390fd5b506000908152600460205260409020546001600160a01b031690565b336000908152600b602052604090205460ff168061091f575033610914611440565b6001600160a01b0316145b61093b5760405162461bcd60e51b81526004016108cd906141d9565b60198054911515600160a01b0260ff60a01b19909216919091179055565b6000610964826111b7565b9050806001600160a01b0316836001600160a01b031614156109985760405162461bcd60e51b81526004016108cd90614198565b806001600160a01b03166109aa612576565b6001600160a01b031614806109c657506109c681610782612576565b6109e25760405162461bcd60e51b81526004016108cd90613db5565b6109ec838361257a565b505050565b60006109fb613254565b506001600160a01b038084166000908152600f602090815260408083208151808301835281548152600190910154928101929092526019549051635a46d3b560e01b815291931690635a46d3b590610a5790889060040161386e565b60206040518083038186803b158015610a6f57600080fd5b505afa158015610a83573d6000803e3d6000fd5b505050506040513d601f19601f82011682018060405250810190610aa791906137be565b905080610ab957600092505050610bb4565b60195460405163010158bb60e51b81526000916001600160a01b03169063202b176090610aea90899060040161386e565b60206040518083038186803b158015610b0257600080fd5b505afa158015610b16573d6000803e3d6000fd5b505050506040513d601f19601f82011682018060405250810190610b3a91906137be565b9050808211610b4f5760009350505050610bb4565b610b5982826125e8565b915082602001518211610b725760009350505050610bb4565b6020830151610b829083906125e8565b6000868152600e602052604081205491935090610bad90606490610ba7908690612610565b9061264a565b9450505050505b92915050565b610bc261267c565b15610bdf5760405162461bcd60e51b81526004016108cd9061433f565b610be761269d565b15610c045760405162461bcd60e51b81526004016108cd9061433f565b33610c0e826111b7565b6001600160a01b03161480610c325750336000908152600b602052604090205460ff165b80610c4c575033610c41611440565b6001600160a01b0316145b610c685760405162461bcd60e51b81526004016108cd90613d4f565b6000818152600e60205260409020610c7e611ac4565b815410610c9d5760405162461bcd60e51b81526004016108cd90613ec4565b6000610cb860185483600201546126be90919063ffffffff16565b905080421015610cda5760405162461bcd60e51b81526004016108cd90614385565b600282018190558154600090610cf19060016126be565b9092555050436000908152600c602090815260408083203284529091528082208054600160ff199182168117909255338452919092208054909116909117905550565b6000610d4060026126e3565b905090565b600f602052600090815260409020805460019091015482565b60155481565b610d75610d6f612576565b826126ee565b610d915760405162461bcd60e51b81526004016108cd9061426d565b6109ec838383612773565b60165481565b336000908152600b602052604090205460ff1680610dcf575033610dc4611440565b6001600160a01b0316145b610deb5760405162461bcd60e51b81526004016108cd906141d9565b601655565b6010818154811061089557fe5b6001600160a01b0382166000908152600160205260408120610e1f9083612881565b9392505050565b601954600160a01b900460ff1681565b336000908152600b602052604090205460ff1680610e63575033610e58611440565b6001600160a01b0316145b610e7f5760405162461bcd60e51b81526004016108cd906141d9565b601780546001600160a01b0319166001600160a01b0392909216919091179055565b604080516020810190915260008082526010546060929181905b8115610f975760018203905060108181548110610ed457fe5b90600052602060002001548610610f8c5760118181548110610ef257fe5b600091825260209182902001805460408051601f6002600019610100600187161502019094169390930492830185900485028101850190915281815292830182828015610f805780601f10610f5557610100808354040283529160200191610f80565b820191906000526020600020905b815481529060010190602001808311610f6357829003601f168201915b50505050509350610f97565b600182039150610ebb565b5091949350505050565b6012818154811061089557fe5b6019546001600160a01b031681565b6018546000828152600e602052604081206002015490918291610fdf916126be565b9050804210610ff25760009150506107ed565b610e1f81426125e8565b6109ec8383836040518060200160405280600081525061189c565b60185481565b611025612576565b6001600160a01b0316611036611440565b6001600160a01b03161461105c5760405162461bcd60e51b81526004016108cd90614088565b6001600160a01b03811633141561107257600080fd5b6001600160a01b03166000908152600b60205260409020805460ff19169055565b6000806110a160028461288d565b509392505050565b336000908152600b602052604090205460ff16806110d65750336110cb611440565b6001600160a01b0316145b6110f25760405162461bcd60e51b81526004016108cd906141d9565b6001600160a01b039091166000908152600f6020526040902060010155565b6011818154811061111e57fe5b600091825260209182902001805460408051601f60026000196101006001871615020190941693909304928301859004850281018501909152818152935090918301828280156111af5780601f10611184576101008083540402835291602001916111af565b820191906000526020600020905b81548152906001019060200180831161119257829003601f168201915b505050505081565b6000610bb48260405180606001604052806029815260200161450660299139600291906128a9565b60098054604080516020601f600260001961010060018816150201909516949094049384018190048102820181019092528281526060939092909183018282801561087e5780601f106108535761010080835404028352916020019161087e565b336000908152600b602052604090205460ff168061126d575033611262611440565b6001600160a01b0316145b6112895760405162461bcd60e51b81526004016108cd906141d9565b6001600160a01b039091166000908152600f6020526040902055565b60006001600160a01b0382166112cd5760405162461bcd60e51b81526004016108cd90613e12565b6001600160a01b0382166000908152600160205260409020610bb4906126e3565b336000908152600b602052604090205460ff168061131b575033611310611440565b6001600160a01b0316145b6113375760405162461bcd60e51b81526004016108cd906141d9565b6000918252600e602052604090912060010155565b611354612576565b6001600160a01b0316611365611440565b6001600160a01b03161461138b5760405162461bcd60e51b81526004016108cd90614088565b600a546040516000916001600160a01b0316907f8be0079c531659141344cd1fd0a4f28419497f9722a3daafe3b4186f6b6457e0908390a3600a80546001600160a01b0319169055565b336000908152600b602052604090205460ff16806114025750336113f7611440565b6001600160a01b0316145b61141e5760405162461bcd60e51b81526004016108cd906141d9565b601480546001600160a01b0319166001600160a01b0392909216919091179055565b600a546001600160a01b031690565b60078054604080516020601f600260001961010060018816150201909516949094049384018190048102820181019092528281526060939092909183018282801561087e5780601f106108535761010080835404028352916020019161087e565b336000908152600b602052604090205460ff16806114dd5750336114d2611440565b6001600160a01b0316145b6114f95760405162461bcd60e51b81526004016108cd906141d9565b601555565b600061150861267c565b156115255760405162461bcd60e51b81526004016108cd9061433f565b61152d61269d565b1561154a5760405162461bcd60e51b81526004016108cd9061433f565b601954600160a01b900460ff16156115745760405162461bcd60e51b81526004016108cd90613d1a565b60008211801561158b5750611587611ac4565b8211155b6115a75760405162461bcd60e51b81526004016108cd9061395c565b3360006115cd6115c46115bb8660016125e8565b60165490612610565b601554906126be565b6017546014549192506115ef916001600160a01b0390811691339116846128b6565b6115f9600d61290e565b6000611605600d612917565b6000818152600e602052604090204260018201819055600282015590915061162d848361291b565b858155606061163b87610ea1565b9050600081511161165e5760405162461bcd60e51b81526004016108cd90613d86565b61166883826129df565b5050436000908152600c602090815260408083203284529091528082208054600160ff1991821681179092553384529190922080549091169091179055949350505050565b6116b5612576565b6001600160a01b0316826001600160a01b031614156116e65760405162461bcd60e51b81526004016108cd90613ba0565b80600560006116f3612576565b6001600160a01b03908116825260208083019390935260409182016000908120918716808252919093529120805460ff191692151592909217909155611737612576565b6001600160a01b03167f17307eab39ab6107e8899845ad3d59bd9653f200f220920489ca2b5937696c318360405161176f91906138fc565b60405180910390a35050565b6014546001600160a01b031681565b336000908152600b602052604090205460ff16806117b75750336117ac611440565b6001600160a01b0316145b6117d35760405162461bcd60e51b81526004016108cd906141d9565b600082511180156117f85750816000815181106117ec57fe5b60200260200101516000145b8015611805575081518151145b6118215760405162461bcd60e51b81526004016108cd90613f3c565b80516000905b8082101561186e57606483838151811061183d57fe5b602002602001015111156118635760405162461bcd60e51b81526004016108cd90613bd7565b600182019150611827565b835161188190601290602087019061326e565b50825161189590601390602086019061326e565b5050505050565b6118ad6118a7612576565b836126ee565b6118c95760405162461bcd60e51b81526004016108cd9061426d565b6118d584848484612a23565b50505050565b600b6020526000908152604090205460ff1681565b60606118fb82612569565b6119175760405162461bcd60e51b81526004016108cd90614106565b60008281526008602090815260409182902080548351601f60026000196101006001861615020190931692909204918201849004840281018401909452808452606093928301828280156119ac5780601f10611981576101008083540402835291602001916119ac565b820191906000526020600020905b81548152906001019060200180831161198f57829003601f168201915b5050505050905060606119bd6111df565b90508051600014156119d1575090506107ed565b815115611a035780826040516020016119eb92919061383f565b604051602081830303815290604052925050506107ed565b80611a0d85612a56565b604051602001611a1e92919061383f565b60405160208183030381529060405292505050919050565b336000908152600b602052604090205460ff1680611a63575033611a58611440565b6001600160a01b0316145b611a7f5760405162461bcd60e51b81526004016108cd906141d9565b600081118015611a965750611a92611ac4565b8111155b611ab25760405162461bcd60e51b81526004016108cd9061395c565b6000918252600e602052604090912055565b601254600090819080825b8115611b235760018203905060128181548110611ae857fe5b90600052602060002001544210611b185760138181548110611b0657fe5b90600052602060002001549350611b23565b600182039150611acf565b50919250505090565b600e6020526000908152604090208054600182015460029092015490919083565b336000908152600b602052604090205460ff1680611b7a575033611b6f611440565b6001600160a01b0316145b611b965760405162461bcd60e51b81526004016108cd906141d9565b6000918252600e602052604090912060020155565b611bb3612576565b6001600160a01b0316611bc4611440565b6001600160a01b031614611bea5760405162461bcd60e51b81526004016108cd90614088565b6001600160a01b03166000908152600b60205260409020805460ff19166001179055565b6000611c1861267c565b15611c355760405162461bcd60e51b81526004016108cd9061433f565b611c3d61269d565b15611c5a5760405162461bcd60e51b81526004016108cd9061433f565b33611c64846111b7565b6001600160a01b03161480611c885750336000908152600b602052604090205460ff165b80611ca2575033611c97611440565b6001600160a01b0316145b611cbe5760405162461bcd60e51b81526004016108cd9061399f565b33611cc8836111b7565b6001600160a01b03161480611cec5750336000908152600b602052604090205460ff165b80611d06575033611cfb611440565b6001600160a01b0316145b611d225760405162461bcd60e51b81526004016108cd90614155565b611d2b826111b7565b6001600160a01b0316611d3d846111b7565b6001600160a01b031614611d635760405162461bcd60e51b81526004016108cd906143b5565b6000828152600e60205260408082205485835290822054611d83916126be565b9050600081118015611d9c5750611d98611ac4565b8111155b611db85760405162461bcd60e51b81526004016108cd9061395c565b6000611dc3856111b7565b90506060611dd0866118f0565b9050611ddb86612b31565b611de485612b31565b611dee600d61290e565b6000611dfa600d612917565b6000818152600e6020526040902042600182018190556002820155909150611e22848361291b565b8481558251611e435760405162461bcd60e51b81526004016108cd90613d86565b611e4d82846129df565b50436000908152600c602090815260408083203284529091528082208054600160ff19918216811790925533845291909220805490911690911790559695505050505050565b336000908152600b602052604090205460ff1680611ec0575033611eb5611440565b6001600160a01b0316145b611edc5760405162461bcd60e51b81526004016108cd906141d9565b60008251118015611f01575081600081518110611ef557fe5b60200260200101516000145b8015611f0e575081518151145b611f2a5760405162461bcd60e51b81526004016108cd90613ab1565b8151611f3d90601090602085019061326e565b5080516109ec9060119060208401906132b9565b611f5961267c565b15611f765760405162461bcd60e51b81526004016108cd9061433f565b611f7e61269d565b15611f9b5760405162461bcd60e51b81526004016108cd9061433f565b33611fa5826111b7565b6001600160a01b03161480611fc95750336000908152600b602052604090205460ff165b80611fe3575033611fd8611440565b6001600160a01b0316145b611fff5760405162461bcd60e51b81526004016108cd90613d4f565b600061200a826111b7565b6001600160a01b0381166000908152600f6020526040902080549192509042116120465760405162461bcd60e51b81526004016108cd90613e5c565b601954604051635a46d3b560e01b81526000916001600160a01b031690635a46d3b59061207790869060040161386e565b60206040518083038186803b15801561208f57600080fd5b505afa1580156120a3573d6000803e3d6000fd5b505050506040513d601f19601f820116820180604052508101906120c791906137be565b9050806120dd57428255600190910155506123ba565b60195460405163010158bb60e51b81526000916001600160a01b03169063202b17609061210e90879060040161386e565b60206040518083038186803b15801561212657600080fd5b505afa15801561213a573d6000803e3d6000fd5b505050506040513d601f19601f8201168201806040525081019061215e91906137be565b905080821161217f5760405162461bcd60e51b81526004016108cd90614210565b61218982826125e8565b91508260010154821161228f5760195460405163579587b360e11b81526001600160a01b039091169063af2b0f66906121c99087906000906004016138e3565b600060405180830381600087803b1580156121e357600080fd5b505af11580156121f7573d6000803e3d6000fd5b50504285555050601954604051635a46d3b560e01b81526001600160a01b0390911690635a46d3b59061222e90879060040161386e565b60206040518083038186803b15801561224657600080fd5b505afa15801561225a573d6000803e3d6000fd5b505050506040513d601f19601f8201168201806040525081019061227e91906137be565b8360010181905550505050506123ba565b600183015461229f9083906125e8565b6000868152600e6020526040812054919350906122c490606490610ba7908690612610565b60195460405163579587b360e11b81529192506001600160a01b03169063af2b0f66906122f790889085906004016138e3565b600060405180830381600087803b15801561231157600080fd5b505af1158015612325573d6000803e3d6000fd5b50504286555050601954604051635a46d3b560e01b81526001600160a01b0390911690635a46d3b59061235c90889060040161386e565b60206040518083038186803b15801561237457600080fd5b505afa158015612388573d6000803e3d6000fd5b505050506040513d601f19601f820116820180604052508101906123ac91906137be565b846001018190555050505050505b50436000908152600c602090815260408083203284529091528082208054600160ff1991821681179092553384529190922080549091169091179055565b336000908152600b602052604090205460ff168061242557503361241a611440565b6001600160a01b0316145b6124415760405162461bcd60e51b81526004016108cd906141d9565b601855565b6001600160a01b03918216600090815260056020908152604080832093909416825291909152205460ff1690565b6018546000828152600e60205260408120600201549091610bb491906126be565b61249d612576565b6001600160a01b03166124ae611440565b6001600160a01b0316146124d45760405162461bcd60e51b81526004016108cd90614088565b6001600160a01b0381166124fa5760405162461bcd60e51b81526004016108cd90613a34565b600a546040516001600160a01b038084169216907f8be0079c531659141344cd1fd0a4f28419497f9722a3daafe3b4186f6b6457e090600090a3600a80546001600160a01b0319166001600160a01b0392909216919091179055565b6000610bb46115c46115bb8460016125e8565b6000610bb4600283612bfe565b3390565b600081815260046020526040902080546001600160a01b0319166001600160a01b03841690811790915581906125af826111b7565b6001600160a01b03167f8c5be1e5ebec7d5bd14f71427d1e84f3dd0314c0f7b2291e5b200ac8c7c3b92560405160405180910390a45050565b60008282111561260a5760405162461bcd60e51b81526004016108cd90613c1a565b50900390565b60008261261f57506000610bb4565b8282028284828161262c57fe5b0414610e1f5760405162461bcd60e51b81526004016108cd90613faf565b600080821161266b5760405162461bcd60e51b81526004016108cd90613ce3565b81838161267457fe5b049392505050565b436000908152600c6020908152604080832032845290915290205460ff1690565b436000908152600c6020908152604080832033845290915290205460ff1690565b600082820183811015610e1f5760405162461bcd60e51b81526004016108cd90613b25565b6000610bb482612917565b60006126f982612569565b6127155760405162461bcd60e51b81526004016108cd90613c97565b6000612720836111b7565b9050806001600160a01b0316846001600160a01b0316148061275b5750836001600160a01b0316612750846108a6565b6001600160a01b0316145b8061276b575061276b8185612446565b949350505050565b826001600160a01b0316612786826111b7565b6001600160a01b0316146127ac5760405162461bcd60e51b81526004016108cd906140bd565b6001600160a01b0382166127d25760405162461bcd60e51b81526004016108cd90613b5c565b6127dd8383836109ec565b6127e860008261257a565b6001600160a01b038316600090815260016020526040902061280a9082612c0a565b506001600160a01b038216600090815260016020526040902061282d9082612c16565b5061283a60028284612c22565b5080826001600160a01b0316846001600160a01b03167fddf252ad1be2c89b69c2b068fc378daa952ba7f163c4a11628f55a4df523b3ef60405160405180910390a4505050565b6000610e1f8383612c38565b600080808061289c8686612c7d565b9097909650945050505050565b600061276b848484612cd9565b6118d5846323b872dd60e01b8585856040516024016128d7939291906138bf565b60408051601f198184030181529190526020810180516001600160e01b03166001600160e01b031990931692909217909152612d38565b80546001019055565b5490565b6001600160a01b0382166129415760405162461bcd60e51b81526004016108cd90613f07565b61294a81612569565b156129675760405162461bcd60e51b81526004016108cd90613a7a565b612973600083836109ec565b6001600160a01b03821660009081526001602052604090206129959082612c16565b506129a260028284612c22565b5060405181906001600160a01b038416906000907fddf252ad1be2c89b69c2b068fc378daa952ba7f163c4a11628f55a4df523b3ef908290a45050565b6129e882612569565b612a045760405162461bcd60e51b81526004016108cd9061403c565b600082815260086020908152604090912082516109ec92840190613312565b612a2e848484612773565b612a3a84848484612dc7565b6118d55760405162461bcd60e51b81526004016108cd906139e2565b606081612a7b57506040805180820190915260018152600360fc1b60208201526107ed565b8160005b8115612a9357600101600a82049150612a7f565b60608167ffffffffffffffff81118015612aac57600080fd5b506040519080825280601f01601f191660200182016040528015612ad7576020820181803683370190505b50859350905060001982015b8315612b2857600a840660300160f81b82828060019003935081518110612b0657fe5b60200101906001600160f81b031916908160001a905350600a84049350612ae3565b50949350505050565b6000612b3c826111b7565b9050612b4a816000846109ec565b612b5560008361257a565b6000828152600860205260409020546002600019610100600184161502019091160415612b93576000828152600860205260408120612b939161337f565b6001600160a01b0381166000908152600160205260409020612bb59083612c0a565b50612bc1600283612ea6565b5060405182906000906001600160a01b038416907fddf252ad1be2c89b69c2b068fc378daa952ba7f163c4a11628f55a4df523b3ef908390a45050565b6000610e1f8383612eb2565b6000610e1f8383612eca565b6000610e1f8383612f90565b600061276b84846001600160a01b038516612fda565b81546000908210612c5b5760405162461bcd60e51b81526004016108cd9061391a565b826000018281548110612c6a57fe5b9060005260206000200154905092915050565b815460009081908310612ca25760405162461bcd60e51b81526004016108cd90613e82565b6000846000018481548110612cb357fe5b906000526020600020906002020190508060000154816001015492509250509250929050565b60008281526001840160205260408120548281612d095760405162461bcd60e51b81526004016108cd9190613907565b50846000016001820381548110612d1c57fe5b9060005260206000209060020201600101549150509392505050565b6060612d8d826040518060400160405280602081526020017f5361666545524332303a206c6f772d6c6576656c2063616c6c206661696c6564815250856001600160a01b03166130719092919063ffffffff16565b8051909150156109ec5780806020019051810190612dab9190613752565b6109ec5760405162461bcd60e51b81526004016108cd906142f5565b6000612ddb846001600160a01b0316613080565b612de75750600161276b565b6060612e6f630a85bd0160e11b612dfc612576565b888787604051602401612e129493929190613882565b604051602081830303815290604052906001600160e01b0319166020820180516001600160e01b0383818316178352505050506040518060600160405280603281526020016144d4603291396001600160a01b0388169190613071565b9050600081806020019051810190612e87919061378a565b6001600160e01b031916630a85bd0160e11b1492505050949350505050565b6000610e1f8383613086565b60009081526001919091016020526040902054151590565b60008181526001830160205260408120548015612f865783546000198083019190810190600090879083908110612efd57fe5b9060005260206000200154905080876000018481548110612f1a57fe5b600091825260208083209091019290925582815260018981019092526040902090840190558654879080612f4a57fe5b60019003818190600052602060002001600090559055866001016000878152602001908152602001600020600090556001945050505050610bb4565b6000915050610bb4565b6000612f9c8383612eb2565b612fd257508154600181810184556000848152602080822090930184905584548482528286019093526040902091909155610bb4565b506000610bb4565b60008281526001840160205260408120548061303f575050604080518082018252838152602080820184815286546001818101895560008981528481209551600290930290950191825591519082015586548684528188019092529290912055610e1f565b8285600001600183038154811061305257fe5b9060005260206000209060020201600101819055506000915050610e1f565b606061276b848460008561315a565b3b151590565b60008181526001830160205260408120548015612f8657835460001980830191908101906000908790839081106130b957fe5b90600052602060002090600202019050808760000184815481106130d957fe5b60009182526020808320845460029093020191825560019384015491840191909155835482528983019052604090209084019055865487908061311857fe5b6000828152602080822060026000199094019384020182815560019081018390559290935588815289820190925260408220919091559450610bb49350505050565b60608247101561317c5760405162461bcd60e51b81526004016108cd90613c51565b61318585613080565b6131a15760405162461bcd60e51b81526004016108cd906142be565b60006060866001600160a01b031685876040516131be9190613823565b60006040518083038185875af1925050503d80600081146131fb576040519150601f19603f3d011682016040523d82523d6000602084013e613200565b606091505b509150915061321082828661321b565b979650505050505050565b6060831561322a575081610e1f565b82511561323a5782518084602001fd5b8160405162461bcd60e51b81526004016108cd9190613907565b604051806040016040528060008152602001600081525090565b8280548282559060005260206000209081019282156132a9579160200282015b828111156132a957825182559160200191906001019061328e565b506132b59291506133c6565b5090565b828054828255906000526020600020908101928215613306579160200282015b8281111561330657825180516132f6918491602090910190613312565b50916020019190600101906132d9565b506132b59291506133db565b828054600181600116156101000203166002900490600052602060002090601f016020900481019282601f1061335357805160ff19168380011785556132a9565b828001600101855582156132a957918201828111156132a957825182559160200191906001019061328e565b50805460018160011615610100020316600290046000825580601f106133a557506133c3565b601f0160209004906000526020600020908101906133c391906133c6565b50565b5b808211156132b557600081556001016133c7565b808211156132b55760006133ef828261337f565b506001016133db565b600082601f830112613408578081fd5b813561341b6134168261444e565b614427565b81815291506020808301908481018184028601820187101561343c57600080fd5b60005b8481101561345b5781358452928201929082019060010161343f565b505050505092915050565b600082601f830112613476578081fd5b813567ffffffffffffffff81111561348c578182fd5b61349f601f8201601f1916602001614427565b91508082528360208285010111156134b657600080fd5b8060208401602084013760009082016020015292915050565b6000602082840312156134e0578081fd5b8135610e1f8161449a565b600080604083850312156134fd578081fd5b82356135088161449a565b915060208301356135188161449a565b809150509250929050565b600080600060608486031215613537578081fd5b83356135428161449a565b925060208401356135528161449a565b929592945050506040919091013590565b60008060008060808587031215613578578081fd5b84356135838161449a565b935060208501356135938161449a565b925060408501359150606085013567ffffffffffffffff8111156135b5578182fd5b6135c187828801613466565b91505092959194509250565b600080604083850312156135df578182fd5b82356135ea8161449a565b91506020830135613518816144af565b6000806040838503121561360c578182fd5b82356136178161449a565b946020939093013593505050565b60008060408385031215613637578182fd5b823567ffffffffffffffff8082111561364e578384fd5b61365a868387016133f8565b9350602091508185013581811115613670578384fd5b85019050601f81018613613682578283fd5b80356136906134168261444e565b81815283810190838501865b848110156136c5576136b38b888435890101613466565b8452928601929086019060010161369c565b5096999098509650505050505050565b600080604083850312156136e7578182fd5b823567ffffffffffffffff808211156136fe578384fd5b61370a868387016133f8565b9350602085013591508082111561371f578283fd5b5061372c858286016133f8565b9150509250929050565b600060208284031215613747578081fd5b8135610e1f816144af565b600060208284031215613763578081fd5b8151610e1f816144af565b60006020828403121561377f578081fd5b8135610e1f816144bd565b60006020828403121561379b578081fd5b8151610e1f816144bd565b6000602082840312156137b7578081fd5b5035919050565b6000602082840312156137cf578081fd5b5051919050565b600080604083850312156137e8578182fd5b50508035926020909101359150565b6000815180845261380f81602086016020860161446e565b601f01601f19169290920160200192915050565b6000825161383581846020870161446e565b9190910192915050565b6000835161385181846020880161446e565b83519083019061386581836020880161446e565b01949350505050565b6001600160a01b0391909116815260200190565b6001600160a01b03858116825284166020820152604081018390526080606082018190526000906138b5908301846137f7565b9695505050505050565b6001600160a01b039384168152919092166020820152604081019190915260600190565b6001600160a01b03929092168252602082015260400190565b901515815260200190565b600060208252610e1f60208301846137f7565b60208082526022908201527f456e756d657261626c655365743a20696e646578206f7574206f6620626f756e604082015261647360f01b606082015260800190565b60208082526023908201527f4c6576656c206d757374206265203e203020616e64203c3d206d6178206c657660408201526232b61760e91b606082015260800190565b60208082526023908201527f4e6f7420656e6f756768207065726d697373696f6e7320666f7220746f6b656e60408201526210189760e91b606082015260800190565b60208082526032908201527f4552433732313a207472616e7366657220746f206e6f6e20455243373231526560408201527131b2b4bb32b91034b6b83632b6b2b73a32b960711b606082015260800190565b60208082526026908201527f4f776e61626c653a206e6577206f776e657220697320746865207a65726f206160408201526564647265737360d01b606082015260800190565b6020808252601c908201527f4552433732313a20746f6b656e20616c7265616479206d696e74656400000000604082015260600190565b6020808252604e908201527f4c6576656c2055524920617272617973206d75737420626520657175616c206960408201527f6e206e6f6e2d7a65726f206c656e67746820616e64206c6576656c2073686f7560608201526d36321039ba30b93a1030ba10181760911b608082015260a00190565b6020808252601b908201527f536166654d6174683a206164646974696f6e206f766572666c6f770000000000604082015260600190565b60208082526024908201527f4552433732313a207472616e7366657220746f20746865207a65726f206164646040820152637265737360e01b606082015260800190565b60208082526019908201527f4552433732313a20617070726f766520746f2063616c6c657200000000000000604082015260600190565b60208082526023908201527f4d6178206c6576656c2063616e277420626520686967686572207468616e203160408201526218181760e91b606082015260800190565b6020808252601e908201527f536166654d6174683a207375627472616374696f6e206f766572666c6f770000604082015260600190565b60208082526026908201527f416464726573733a20696e73756666696369656e742062616c616e636520666f6040820152651c8818d85b1b60d21b606082015260800190565b6020808252602c908201527f4552433732313a206f70657261746f7220717565727920666f72206e6f6e657860408201526b34b9ba32b73a103a37b5b2b760a11b606082015260800190565b6020808252601a908201527f536166654d6174683a206469766973696f6e206279207a65726f000000000000604082015260600190565b6020808252818101527f596f752063616e206e6f206c6f6e676572206d696e742074686973204e46542e604082015260600190565b60208082526017908201527f4e6f7420656e6f756768207065726d697373696f6e732e000000000000000000604082015260600190565b6020808252601590820152742a37b5b2b7102aa9249034b99034b73b30b634b21760591b604082015260600190565b60208082526038908201527f4552433732313a20617070726f76652063616c6c6572206973206e6f74206f7760408201527f6e6572206e6f7220617070726f76656420666f7220616c6c0000000000000000606082015260800190565b6020808252602a908201527f4552433732313a2062616c616e636520717565727920666f7220746865207a65604082015269726f206164647265737360b01b606082015260800190565b6020808252600c908201526b2637b3b4b19032b93937b91760a11b604082015260600190565b60208082526022908201527f456e756d657261626c654d61703a20696e646578206f7574206f6620626f756e604082015261647360f01b606082015260800190565b60208082526023908201527f4c6576656c206d757374206265206c6f776572207468616e206d6178206c657660408201526232b61760e91b606082015260800190565b6020808252818101527f4552433732313a206d696e7420746f20746865207a65726f2061646472657373604082015260600190565b6020808252604d908201527f4d6178206c6576656c20617272617973206d75737420626520657175616c206960408201527f6e206e6f6e2d7a65726f206c656e67746820616e642074696d652073686f756c60608201526c321039ba30b93a1030ba10181760991b608082015260a00190565b60208082526021908201527f536166654d6174683a206d756c7469706c69636174696f6e206f766572666c6f6040820152607760f81b606082015260800190565b6020808252602c908201527f4552433732313a20617070726f76656420717565727920666f72206e6f6e657860408201526b34b9ba32b73a103a37b5b2b760a11b606082015260800190565b6020808252602c908201527f4552433732314d657461646174613a2055524920736574206f66206e6f6e657860408201526b34b9ba32b73a103a37b5b2b760a11b606082015260800190565b6020808252818101527f4f776e61626c653a2063616c6c6572206973206e6f7420746865206f776e6572604082015260600190565b60208082526029908201527f4552433732313a207472616e73666572206f6620746f6b656e2074686174206960408201526839903737ba1037bbb760b91b606082015260800190565b6020808252602f908201527f4552433732314d657461646174613a2055524920717565727920666f72206e6f60408201526e3732bc34b9ba32b73a103a37b5b2b760891b606082015260800190565b60208082526023908201527f4e6f7420656e6f756768207065726d697373696f6e7320666f7220746f6b656e60408201526210191760e91b606082015260800190565b60208082526021908201527f4552433732313a20617070726f76616c20746f2063757272656e74206f776e656040820152603960f91b606082015260800190565b60208082526018908201527f63616c6c6572206973206e6f7420617574686f72697a65640000000000000000604082015260600190565b60208082526039908201527f546f6f206d75636820746f20756e6c6f636b206e61747572616c6c792c20706c60408201527f656173652063616c6c20756e6c6f636b28292066697273742e00000000000000606082015260800190565b60208082526031908201527f4552433732313a207472616e736665722063616c6c6572206973206e6f74206f6040820152701ddb995c881b9bdc88185c1c1c9bdd9959607a1b606082015260800190565b6020808252601d908201527f416464726573733a2063616c6c20746f206e6f6e2d636f6e7472616374000000604082015260600190565b6020808252602a908201527f5361666545524332303a204552433230206f7065726174696f6e20646964206e6040820152691bdd081cdd58d8d9595960b21b606082015260800190565b60208082526026908201527f436f6e747261637447756172643a206f6e6520626c6f636b2c206f6e652066756040820152653731ba34b7b760d11b606082015260800190565b6020808252601690820152752a37b79032b0b9363c903a37903632bb32b6103ab81760511b604082015260600190565b60208082526025908201527f426f746820746f6b656e73206d7573742068617665207468652073616d65206f6040820152643bb732b91760d91b606082015260800190565b90815260200190565b918252602082015260400190565b9283526020830191909152604082015260600190565b60405181810167ffffffffffffffff8111828210171561444657600080fd5b604052919050565b600067ffffffffffffffff821115614464578081fd5b5060209081020190565b60005b83811015614489578181015183820152602001614471565b838111156118d55750506000910152565b6001600160a01b03811681146133c357600080fd5b80151581146133c357600080fd5b6001600160e01b0319811681146133c357600080fdfe4552433732313a207472616e7366657220746f206e6f6e20455243373231526563656976657220696d706c656d656e7465724552433732313a206f776e657220717565727920666f72206e6f6e6578697374656e7420746f6b656ea26469706673582212201b7cc66c02958c794e21117961d3410830e0d8ed065c82a70bf575db11c4275564736f6c634300060c0033",
  "linkReferences": {},
  "deployedLinkReferences": {}
}