{
  "_format": "hh-sol-artifact-1",
  "contractName": "AuthorizableNoOperator",
  "sourceName": "contracts/AuthorizableNoOperator.sol",
  "abi": [
    {
      "anonymous": false,
      "inputs": [
        {
          "indexed": true,
          "internalType": "address",
          "name": "previousOwner",
          "type": "address"
        },
        {
          "indexed": true,
          "internalType": "address",
          "name": "newOwner",
          "type": "address"
        }
      ],
      "name": "OwnershipTransferred",
      "type": "event"
    },
    {
      "inputs": [
        {
          "internalType": "address",
          "name": "_toAdd",
          "type": "address"
        }
      ],
      "name": "addAuthorized",
      "outputs": [],
      "stateMutability": "nonpayable",
      "type": "function"
    },
    {
      "inputs": [
        {
          "internalType": "address",
          "name": "",
          "type": "address"
        }
      ],
      "name": "authorized",
      "outputs": [
        {
          "internalType": "bool",
          "name": "",
          "type": "bool"
        }
      ],
      "stateMutability": "view",
      "type": "function"
    },
    {
      "inputs": [],
      "name": "owner",
      "outputs": [
        {
          "internalType": "address",
          "name": "",
          "type": "address"
        }
      ],
      "stateMutability": "view",
      "type": "function"
    },
    {
      "inputs": [
        {
          "internalType": "address",
          "name": "_toRemove",
          "type": "address"
        }
      ],
      "name": "removeAuthorized",
      "outputs": [],
      "stateMutability": "nonpayable",
      "type": "function"
    },
    {
      "inputs": [],
      "name": "renounceOwnership",
      "outputs": [],
      "stateMutability": "nonpayable",
      "type": "function"
    },
    {
      "inputs": [
        {
          "internalType": "address",
          "name": "newOwner",
          "type": "address"
        }
      ],
      "name": "transferOwnership",
      "outputs": [],
      "stateMutability": "nonpayable",
      "type": "function"
    }
  ],
  "bytecode": "0x608060405234801561001057600080fd5b50600061001b61006a565b600080546001600160a01b0319166001600160a01b0383169081178255604051929350917f8be0079c531659141344cd1fd0a4f28419497f9722a3daafe3b4186f6b6457e0908290a35061006e565b3390565b6104b58061007d6000396000f3fe608060405234801561001057600080fd5b50600436106100625760003560e01c8063485d7d9414610067578063715018a61461008f5780638da5cb5b14610097578063b9181611146100bb578063cf1c316a146100f5578063f2fde38b1461011b575b600080fd5b61008d6004803603602081101561007d57600080fd5b50356001600160a01b0316610141565b005b61008d6101da565b61009f610286565b604080516001600160a01b039092168252519081900360200190f35b6100e1600480360360208110156100d157600080fd5b50356001600160a01b0316610295565b604080519115158252519081900360200190f35b61008d6004803603602081101561010b57600080fd5b50356001600160a01b03166102aa565b61008d6004803603602081101561013157600080fd5b50356001600160a01b0316610333565b610149610435565b6001600160a01b031661015a610286565b6001600160a01b0316146101a3576040805162461bcd60e51b81526020600482018190526024820152600080516020610460833981519152604482015290519081900360640190fd5b6001600160a01b0381163314156101b957600080fd5b6001600160a01b03166000908152600160205260409020805460ff19169055565b6101e2610435565b6001600160a01b03166101f3610286565b6001600160a01b03161461023c576040805162461bcd60e51b81526020600482018190526024820152600080516020610460833981519152604482015290519081900360640190fd5b600080546040516001600160a01b03909116907f8be0079c531659141344cd1fd0a4f28419497f9722a3daafe3b4186f6b6457e0908390a3600080546001600160a01b0319169055565b6000546001600160a01b031690565b60016020526000908152604090205460ff1681565b6102b2610435565b6001600160a01b03166102c3610286565b6001600160a01b03161461030c576040805162461bcd60e51b81526020600482018190526024820152600080516020610460833981519152604482015290519081900360640190fd5b6001600160a01b03166000908152600160208190526040909120805460ff19169091179055565b61033b610435565b6001600160a01b031661034c610286565b6001600160a01b031614610395576040805162461bcd60e51b81526020600482018190526024820152600080516020610460833981519152604482015290519081900360640190fd5b6001600160a01b0381166103da5760405162461bcd60e51b815260040180806020018281038252602681526020018061043a6026913960400191505060405180910390fd5b600080546040516001600160a01b03808516939216917f8be0079c531659141344cd1fd0a4f28419497f9722a3daafe3b4186f6b6457e091a3600080546001600160a01b0319166001600160a01b0392909216919091179055565b339056fe4f776e61626c653a206e6577206f776e657220697320746865207a65726f20616464726573734f776e61626c653a2063616c6c6572206973206e6f7420746865206f776e6572a2646970667358221220ca875b1f0b93bf44809238a34e99742ee0314d7600a60d42a570cc0f5588d3c164736f6c634300060c0033",
  "linkReferences": {},
  "deployedLinkReferences": {}
}