{
	"data": {
		"bytecode": {
			"linkReferences": {},
			"object": "60806040526001805460ff60a01b191690556000600381905560045534801561002757600080fd5b50614bce806100376000396000f3fe608060405234801561001057600080fd5b506004361061048a5760003560e01c80637225247211610262578063b3ab15fb11610151578063cf81d705116100ce578063e08078e511610092578063e08078e514610a9b578063e824601714610aa3578063e90b245414610ac9578063f14698de14610ad1578063f245245a14610ad9578063fcb6f00814610af65761048a565b8063cf81d70514610a0c578063d4b1494414610a42578063d98f249514610a68578063da3ed41914610a70578063db1a376e14610a785761048a565b8063c5967c2611610115578063c5967c26146109cf578063c8412d02146109d7578063c8f987f3146109df578063ca8e0b66146109e7578063cecce38e146109ef5761048a565b8063b3ab15fb14610957578063b4d1d7951461097d578063b8a878f914610985578063bcc81f191461098d578063c3fe3e28146109c75761048a565b8063940e6064116101df578063a0487eea116101a3578063a0487eea146108d2578063a204452b146108ef578063a524ea551461090c578063a5275ebd14610929578063ad45e4ae1461094f5761048a565b8063940e60641461083e57806398b762a11461086457806399820025146108815780639ab4f7751461089e5780639dc29fac146108a65761048a565b8063874106cc11610226578063874106cc146107e65780638c664db6146107ee5780638d934f741461080b578063900cf0cf1461081357806391bbfed51461081b5761048a565b806372252472146107a957806372c054f9146107b157806378e97925146107b957806381d11eaf146107c157806382cad838146107c95761048a565b80633d14b36b1161037e5780635547055c116102fb5780635a0fc79c116102bf5780635a0fc79c146107635780635b7561791461076b57806360f145091461077357806363e2e7a71461077b5780636b82cf81146107a15761048a565b80635547055c1461072657806355ebdeef1461072e578063570ca73514610736578063591663e11461073e57806359bf5d391461075b5761048a565b8063463483841161034257806346348384146106a0578063499f3f19146106a857806353550fcb146106c557806354575af4146106cd57806354f04a11146107035761048a565b80633d14b36b146106395780633e0a322d146106565780634013a08e1461067357806340af7ba51461067b5780634390d2a8146106985761048a565b8063154ec2db1161040c5780632ca1a4f9116103d05780632ca1a4f9146106115780632e9c7b6514610619578063349aa30a14610621578063392e53cd146106295780633c32a450146106315761048a565b8063154ec2db146105c0578063158ef93e146105dd57806322f832cd146105f9578063288bc3f81461060157806329ef1919146106095761048a565b80630c7689ac116104535780630c7689ac1461052f5780630cf60175146105375780630db7eb0b1461053f578063118ebbf9146105475780631460e3901461056a5761048a565b806234c8e31461048f57806303be7e76146104b357806304e5c7b1146104cd5780630a36669b146104ec5780630b5bcec714610512575b600080fd5b610497610afe565b604080516001600160a01b039092168252519081900360200190f35b6104bb610b0d565b60408051918252519081900360200190f35b6104ea600480360360208110156104e357600080fd5b5035610b13565b005b6104ea6004803603602081101561050257600080fd5b50356001600160a01b0316610be2565b6104ea6004803603602081101561052857600080fd5b5035610c94565b6104bb610d30565b6104bb610da7565b6104bb610e59565b6104ea6004803603604081101561055d57600080fd5b5080359060200135610efb565b6104ea600480360360e081101561058057600080fd5b506001600160a01b038135811691602081013582169160408201358116916060810135821691608082013581169160a08101359091169060c00135611558565b6104ea600480360360208110156105d657600080fd5b50356118d3565b6105e5611978565b604080519115158252519081900360200190f35b6104bb611988565b6104bb61198e565b6104bb6119d3565b6104bb6119d9565b6104bb6119df565b6104bb6119e5565b6105e56119eb565b6104976119fb565b6104ea6004803603602081101561064f57600080fd5b5035611a0a565b6104ea6004803603602081101561066c57600080fd5b5035611aa0565b6104bb611b8b565b6104ea6004803603602081101561069157600080fd5b5035611b91565b610497611c36565b6104bb611c45565b6104ea600480360360208110156106be57600080fd5b5035611d22565b6104bb611dbf565b6104ea600480360360608110156106e357600080fd5b506001600160a01b03813581169160208101359160409091013516611ec6565b6104ea6004803603604081101561071957600080fd5b508035906020013561200b565b6104bb61274a565b6104bb612750565b610497612756565b6104ea6004803603602081101561075457600080fd5b5035612765565b6104bb612807565b6104bb61280d565b6104ea612813565b610497612ec5565b6104ea6004803603602081101561079157600080fd5b50356001600160a01b0316612ed4565b6104bb612f3f565b6104bb612f45565b6104bb612f8a565b6104bb61304a565b6104bb613050565b610497600480360360208110156107df57600080fd5b5035613056565b6104bb61307d565b6104ea6004803603602081101561080457600080fd5b5035613083565b610497613125565b6104bb613134565b6104ea6004803603604081101561083157600080fd5b508035906020013561313a565b6105e56004803603604081101561085457600080fd5b5060ff8135169060200135613232565b6104ea6004803603602081101561087a57600080fd5b503561334e565b6104bb6004803603602081101561089757600080fd5b503561339c565b6104976133ba565b6104ea600480360360408110156108bc57600080fd5b506001600160a01b0381351690602001356133c9565b6104bb600480360360208110156108e857600080fd5b5035613474565b6104ea6004803603602081101561090557600080fd5b5035613481565b6104ea6004803603602081101561092257600080fd5b50356134cf565b6104ea6004803603602081101561093f57600080fd5b50356001600160a01b0316613589565b6104976135f4565b6104ea6004803603602081101561096d57600080fd5b50356001600160a01b0316613603565b6104bb61366e565b6104bb613674565b6104ea600480360360808110156109a357600080fd5b506001600160a01b038135811691602081013591604082013516906060013561367a565b61049761380f565b6104bb61381e565b6104bb613848565b6104bb61384e565b6104bb613854565b6104ea60048036036020811015610a0557600080fd5b50356138b6565b6104ea60048036036060811015610a2257600080fd5b506001600160a01b03813581169160208101359160409091013516613957565b6105e560048036036040811015610a5857600080fd5b5060ff8135169060200135613a1a565b6104bb613b14565b6104bb613b1a565b6104ea60048036036040811015610a8e57600080fd5b5080359060200135613b20565b6104bb613bbd565b6104bb60048036036020811015610ab957600080fd5b50356001600160a01b0316613d07565b6104bb613d8a565b6104bb613d90565b6104ea60048036036020811015610aef57600080fd5b5035613d96565b6104bb613de4565b600b546001600160a01b031681565b60235481565b6001546001600160a01b03163314610b5c5760405162461bcd60e51b8152600401808060200182810382526024815260200180614a976024913960400191505060405180910390fd5b600d54811015610b9d5760405162461bcd60e51b815260040180806020018281038252602a815260200180614901602a913960400191505060405180910390fd5b6096811115610bdd5760405162461bcd60e51b815260040180806020018281038252602481526020018061492b6024913960400191505060405180910390fd5b601d55565b6001546001600160a01b03163314610c2b5760405162461bcd60e51b8152600401808060200182810382526024815260200180614a976024913960400191505060405180910390fd5b6009546040805163b3ab15fb60e01b81526001600160a01b0384811660048301529151919092169163b3ab15fb91602480830192600092919082900301818387803b158015610c7957600080fd5b505af1158015610c8d573d6000803e3d6000fd5b5050505050565b6001546001600160a01b03163314610cdd5760405162461bcd60e51b8152600401808060200182810382526024815260200180614a976024913960400191505060405180910390fd5b600a8110158015610cf057506103e88111155b610d2b5760405162461bcd60e51b8152600401808060200182810382526028815260200180614a146028913960400191505060405180910390fd5b601155565b60095460408051638278b53b60e01b815290516000926001600160a01b031691638278b53b916004808301926020929190829003018186803b158015610d7557600080fd5b505afa158015610d89573d6000803e3d6000fd5b505050506040513d6020811015610d9f57600080fd5b505190505b90565b600080610db2611c45565b9050600c548111610e5557601c54610dce57600c549150610e55565b6000610df782610df1670de0b6b3a7640000600c54613dea90919063ffffffff16565b90613e4a565b90506000610e22612710610df1601c54610e1c600c5487613eb190919063ffffffff16565b90613dea565b600c54909150610e329082613f0e565b93506000601a54118015610e475750601a5484115b15610e5257601a5493505b50505b5090565b600080610e64611c45565b9050600d54811115610e55576000610e8e6064610df1601d54600c54613dea90919063ffffffff16565b9050808210610ef0576000610eba612710610df1601e54610e1c600c5488613eb190919063ffffffff16565b600c54909150610eca9082613f0e565b93506000601b54118015610edf5750601b5484115b15610eea57601b5493505b50610ef6565b600c5492505b505090565b610f03613f68565b15610f3f5760405162461bcd60e51b8152600401808060200182810382526026815260200180614ae56026913960400191505060405180910390fd5b610f47613f87565b15610f835760405162461bcd60e51b8152600401808060200182810382526026815260200180614ae56026913960400191505060405180910390fd5b600254421015610fd6576040805162461bcd60e51b8152602060048201526019602482015278151c99585cdd5c9e4e881b9bdd081cdd185c9d1959081e595d603a1b604482015290519081900360640190fd5b6006546040805163570ca73560e01b8152905130926001600160a01b03169163570ca735916004808301926020929190829003018186803b15801561101a57600080fd5b505afa15801561102e573d6000803e3d6000fd5b505050506040513d602081101561104457600080fd5b50516001600160a01b03161480156110d257506007546040805163570ca73560e01b8152905130926001600160a01b03169163570ca735916004808301926020929190829003018186803b15801561109b57600080fd5b505afa1580156110af573d6000803e3d6000fd5b505050506040513d60208110156110c557600080fd5b50516001600160a01b0316145b801561115457506008546040805163570ca73560e01b8152905130926001600160a01b03169163570ca735916004808301926020929190829003018186803b15801561111d57600080fd5b505afa158015611131573d6000803e3d6000fd5b505050506040513d602081101561114757600080fd5b50516001600160a01b0316145b80156111d657506009546040805163570ca73560e01b8152905130926001600160a01b03169163570ca735916004808301926020929190829003018186803b15801561119f57600080fd5b505afa1580156111b3573d6000803e3d6000fd5b505050506040513d60208110156111c957600080fd5b50516001600160a01b0316145b611227576040805162461bcd60e51b815260206004820152601e60248201527f54726561737572793a206e656564206d6f7265207065726d697373696f6e0000604482015290519081900360640190fd5b600082116112665760405162461bcd60e51b815260040180806020018281038252602e8152602001806148d3602e913960400191505060405180910390fd5b6000611270611c45565b90508181146112c6576040805162461bcd60e51b815260206004820152601a60248201527f54726561737572793a2047414d45207072696365206d6f766564000000000000604482015290519081900360640190fd5b600d5481116113065760405162461bcd60e51b8152600401808060200182810382526032815260200180614a656032913960400191505060405180910390fd5b6000611310610e59565b905060008111611367576040805162461bcd60e51b815260206004820152601b60248201527f54726561737572793a20696e76616c696420626f6e6420726174650000000000604482015290519081900360640190fd5b600061137f670de0b6b3a7640000610df18785613dea565b600654604080516370a0823160e01b8152306004820152905192935083926001600160a01b03909216916370a0823191602480820192602092909190829003018186803b1580156113cf57600080fd5b505afa1580156113e3573d6000803e3d6000fd5b505050506040513d60208110156113f957600080fd5b505110156114385760405162461bcd60e51b81526004018080602001828103825260258152602001806149756025913960400191505060405180910390fd5b611450611447600e5483613fa6565b600e5490613eb1565b600e556007546040805163079cc67960e41b81523360048201526024810188905290516001600160a01b03909216916379cc67909160448082019260009290919082900301818387803b1580156114a657600080fd5b505af11580156114ba573d6000803e3d6000fd5b50506006546114d692506001600160a01b031690503383613fbc565b6114de61400e565b6040805182815260208101879052815133927f51e0d16595cabc591e64da08e45bb223577e5b9a39cd947b4ddc3472b2dd8878928290030190a25050436000908152602081815260408083203284529091528082208054600160ff1991821681179092553384529190922080549091169091179055505050565b600154600160a01b900460ff16156115b7576040805162461bcd60e51b815260206004820152601d60248201527f54726561737572793a20616c726561647920696e697469616c697a6564000000604482015290519081900360640190fd5b6001805460ff60a01b1916600160a01b179055600680546001600160a01b03808a166001600160a01b0319928316179092556007805489841690831617905560088054888416908316179055600b8054878416908316179055600980549286169290911691909117905542811161165e576040805162461bcd60e51b815260206004808301919091526024820152636c61746560e01b604482015290519081900360640190fd5b6002819055670de0b6b3a7640000600c81905561168390606490610df1906065613dea565b600d556005805460018101825560009182527f036b6384b5eca791c62761152d0c79bb0604c104a5fb6f4eb0703f3154bb3db00180546001600160a01b0319166001600160a01b03851617905560408051610120810182529182526969e10de76676d0800000602083015269d3c21bcecceda1000000908201526a013da329b633647180000060608201526a01a784379d99db4200000060808201526a0422ca8b0a00a42500000060a08201526a084595161401484a00000060c08201526a108b2a2c2802909400000060e08201526a295be96e6406697200000061010082015261177290600f9060096147f0565b5060408051610120810182526101c28152610190602082015261015e9181019190915261012c606082015260fa608082015260c860a0820152609660c0820152607d60e082015260646101008201526117cf906010906009614846565b50610190601155612710601255610dac601381905561012c6014556015556101f46016819055606e601d55611b58601e55600c601755601855600654604080516370a0823160e01b815230600482015290516001600160a01b03909216916370a0823191602480820192602092909190829003018186803b15801561185357600080fd5b505afa158015611867573d6000803e3d6000fd5b505050506040513d602081101561187d57600080fd5b5051600e55600180546001600160a01b031916339081179091556040805143815290517f25ff68dd81b34665b5ba7e553ee5511bf6812e12adb4a7e2c0d9e26b3099ce799181900360200190a250505050505050565b6001546001600160a01b0316331461191c5760405162461bcd60e51b8152600401808060200182810382526024815260200180614a976024913960400191505060405180910390fd5b614e20811115611973576040805162461bcd60e51b815260206004820152601d60248201527f5f646973636f756e7450657263656e74206973206f7665722032303025000000604482015290519081900360640190fd5b601c55565b600154600160a01b900460ff1681565b60135481565b6009546040805163335d00ff60e01b815290516000926001600160a01b03169163335d00ff916004808301926020929190829003018186803b158015610d7557600080fd5b601c5481565b60195481565b601b5481565b60165481565b600154600160a01b900460ff1690565b6008546001600160a01b031681565b6001546001600160a01b03163314611a535760405162461bcd60e51b8152600401808060200182810382526024815260200180614a976024913960400191505060405180910390fd5b600954604080516397ffe1d760e01b81526004810184905290516001600160a01b03909216916397ffe1d79160248082019260009290919082900301818387803b158015610c7957600080fd5b6001546001600160a01b03163314611ae95760405162461bcd60e51b8152600401808060200182810382526024815260200180614a976024913960400191505060405180910390fd5b6002544210611b32576040805162461bcd60e51b815260206004820152601060248201526f20b63932b0b23c9039ba30b93a32b21760811b604482015290519081900360640190fd5b804210611b86576040805162461bcd60e51b815260206004820152601860248201527f54696d6520696e70757420697320746f6f206561726c792e0000000000000000604482015290519081900360640190fd5b600255565b601f5481565b6001546001600160a01b03163314611bda5760405162461bcd60e51b8152600401808060200182810382526024815260200180614a976024913960400191505060405180910390fd5b614e20811115611c31576040805162461bcd60e51b815260206004820152601c60248201527f5f7072656d69756d50657263656e74206973206f766572203230302500000000604482015290519081900360640190fd5b601e55565b6022546001600160a01b031681565b600b5460065460408051633ddac95360e01b81526001600160a01b039283166004820152670de0b6b3a7640000602482015290516000939290921691633ddac95391604480820192602092909190829003018186803b158015611ca757600080fd5b505afa925050508015611ccc57506040513d6020811015611cc757600080fd5b505160015b611d075760405162461bcd60e51b815260040180806020018281038252603681526020018061489d6036913960400191505060405180910390fd5b71ffffffffffffffffffffffffffffffffffff169050610da4565b6001546001600160a01b03163314611d6b5760405162461bcd60e51b8152600401808060200182810382526024815260200180614a976024913960400191505060405180910390fd5b6127108110158015611d7f5750614e208111155b611dba5760405162461bcd60e51b81526004018080602001828103825260298152602001806149eb6029913960400191505060405180910390fd5b601f55565b600080611dca611c45565b9050600c548111610e55576000611ddf613bbd565b90506000611dfe612710610df160155485613dea90919063ffffffff16565b90506000600760009054906101000a90046001600160a01b03166001600160a01b03166318160ddd6040518163ffffffff1660e01b815260040160206040518083038186803b158015611e5057600080fd5b505afa158015611e64573d6000803e3d6000fd5b505050506040513d6020811015611e7a57600080fd5b5051905080821115611ebf576000611e928383613eb1565b90506000611eac670de0b6b3a7640000610df18489613dea565b9050611eba60045482613fa6565b965050505b5050505090565b6001546001600160a01b03163314611f0f5760405162461bcd60e51b8152600401808060200182810382526024815260200180614a976024913960400191505060405180910390fd5b6006546001600160a01b0384811691161415611f5b576040805162461bcd60e51b8152602060048083019190915260248201526367616d6560e01b604482015290519081900360640190fd5b6007546001600160a01b0384811691161415611fa7576040805162461bcd60e51b81526020600480830191909152602482015263189bdb9960e21b604482015290519081900360640190fd5b6008546001600160a01b0384811691161415611ff2576040805162461bcd60e51b8152602060048201526005602482015264736861726560d81b604482015290519081900360640190fd5b6120066001600160a01b0384168284613fbc565b505050565b612013613f68565b1561204f5760405162461bcd60e51b8152600401808060200182810382526026815260200180614ae56026913960400191505060405180910390fd5b612057613f87565b156120935760405162461bcd60e51b8152600401808060200182810382526026815260200180614ae56026913960400191505060405180910390fd5b6002544210156120e6576040805162461bcd60e51b8152602060048201526019602482015278151c99585cdd5c9e4e881b9bdd081cdd185c9d1959081e595d603a1b604482015290519081900360640190fd5b6006546040805163570ca73560e01b8152905130926001600160a01b03169163570ca735916004808301926020929190829003018186803b15801561212a57600080fd5b505afa15801561213e573d6000803e3d6000fd5b505050506040513d602081101561215457600080fd5b50516001600160a01b03161480156121e257506007546040805163570ca73560e01b8152905130926001600160a01b03169163570ca735916004808301926020929190829003018186803b1580156121ab57600080fd5b505afa1580156121bf573d6000803e3d6000fd5b505050506040513d60208110156121d557600080fd5b50516001600160a01b0316145b801561226457506008546040805163570ca73560e01b8152905130926001600160a01b03169163570ca735916004808301926020929190829003018186803b15801561222d57600080fd5b505afa158015612241573d6000803e3d6000fd5b505050506040513d602081101561225757600080fd5b50516001600160a01b0316145b80156122e657506009546040805163570ca73560e01b8152905130926001600160a01b03169163570ca735916004808301926020929190829003018186803b1580156122af57600080fd5b505afa1580156122c3573d6000803e3d6000fd5b505050506040513d60208110156122d957600080fd5b50516001600160a01b0316145b612337576040805162461bcd60e51b815260206004820152601e60248201527f54726561737572793a206e656564206d6f7265207065726d697373696f6e0000604482015290519081900360640190fd5b600082116123765760405162461bcd60e51b81526004018080602001828103825260308152602001806149bb6030913960400191505060405180910390fd5b6000612380611c45565b90508181146123d6576040805162461bcd60e51b815260206004820152601a60248201527f54726561737572793a2047414d45207072696365206d6f766564000000000000604482015290519081900360640190fd5b600c5481106124165760405162461bcd60e51b8152600401808060200182810382526032815260200180614a656032913960400191505060405180910390fd5b6004548311156124575760405162461bcd60e51b815260040180806020018281038252602a815260200180614b41602a913960400191505060405180910390fd5b6000612461610da7565b9050600081116124b8576040805162461bcd60e51b815260206004820152601b60248201527f54726561737572793a20696e76616c696420626f6e6420726174650000000000604482015290519081900360640190fd5b60006124d0670de0b6b3a7640000610df18785613dea565b905060006124dc613bbd565b9050600061256483600760009054906101000a90046001600160a01b03166001600160a01b03166318160ddd6040518163ffffffff1660e01b815260040160206040518083038186803b15801561253257600080fd5b505afa158015612546573d6000803e3d6000fd5b505050506040513d602081101561255c57600080fd5b505190613f0e565b9050612581612710610df160155485613dea90919063ffffffff16565b8111156125cb576040805162461bcd60e51b81526020600482015260136024820152726f766572206d6178206465627420726174696f60681b604482015290519081900360640190fd5b6006546040805163079cc67960e41b8152336004820152602481018a905290516001600160a01b03909216916379cc67909160448082019260009290919082900301818387803b15801561261e57600080fd5b505af1158015612632573d6000803e3d6000fd5b5050600754604080516340c10f1960e01b81523360048201526024810188905290516001600160a01b0390921693506340c10f1992506044808201926020929091908290030181600087803b15801561268a57600080fd5b505af115801561269e573d6000803e3d6000fd5b505050506040513d60208110156126b457600080fd5b50506004546126c39088613eb1565b6004556126ce61400e565b6040805188815260208101859052815133927f73017f1b70789e2e66759eeb3c7ec11f59e6eedb55d921cfaec5410dd42a4799928290030190a25050436000908152602081815260408083203284529091528082208054600160ff19918216811790925533845291909220805490911690911790555050505050565b600d5481565b60215481565b6001546001600160a01b031681565b6001546001600160a01b031633146127ae5760405162461bcd60e51b8152600401808060200182810382526024815260200180614a976024913960400191505060405180910390fd5b6103e881101580156127c257506127108111155b612802576040805162461bcd60e51b815260206004820152600c60248201526b6f7574206f662072616e676560a01b604482015290519081900360640190fd5b601555565b600e5490565b600e5481565b61281b613f68565b156128575760405162461bcd60e51b8152600401808060200182810382526026815260200180614ae56026913960400191505060405180910390fd5b61285f613f87565b1561289b5760405162461bcd60e51b8152600401808060200182810382526026815260200180614ae56026913960400191505060405180910390fd5b6002544210156128ee576040805162461bcd60e51b8152602060048201526019602482015278151c99585cdd5c9e4e881b9bdd081cdd185c9d1959081e595d603a1b604482015290519081900360640190fd5b6128f661381e565b42101561294a576040805162461bcd60e51b815260206004820152601860248201527f54726561737572793a206e6f74206f70656e6564207965740000000000000000604482015290519081900360640190fd5b6006546040805163570ca73560e01b8152905130926001600160a01b03169163570ca735916004808301926020929190829003018186803b15801561298e57600080fd5b505afa1580156129a2573d6000803e3d6000fd5b505050506040513d60208110156129b857600080fd5b50516001600160a01b0316148015612a4657506007546040805163570ca73560e01b8152905130926001600160a01b03169163570ca735916004808301926020929190829003018186803b158015612a0f57600080fd5b505afa158015612a23573d6000803e3d6000fd5b505050506040513d6020811015612a3957600080fd5b50516001600160a01b0316145b8015612ac857506008546040805163570ca73560e01b8152905130926001600160a01b03169163570ca735916004808301926020929190829003018186803b158015612a9157600080fd5b505afa158015612aa5573d6000803e3d6000fd5b505050506040513d6020811015612abb57600080fd5b50516001600160a01b0316145b8015612b4a57506009546040805163570ca73560e01b8152905130926001600160a01b03169163570ca735916004808301926020929190829003018186803b158015612b1357600080fd5b505afa158015612b27573d6000803e3d6000fd5b505050506040513d6020811015612b3d57600080fd5b50516001600160a01b0316145b612b9b576040805162461bcd60e51b815260206004820152601e60248201527f54726561737572793a206e656564206d6f7265207065726d697373696f6e0000604482015290519081900360640190fd5b612ba361400e565b612bab611c45565b601955600e54600090612bc690612bc0613bbd565b90613eb1565b90506017546003541015612bfc57612bf7612bf2612710610df160185485613dea90919063ffffffff16565b614072565b612e49565b600d546019541115612e4957600754604080516318160ddd60e01b815290516000926001600160a01b0316916318160ddd916004808301926020929190829003018186803b158015612c4d57600080fd5b505afa158015612c61573d6000803e3d6000fd5b505050506040513d6020811015612c7757600080fd5b5051600c54601954919250600091612c8e91613eb1565b90506000806000612ca8655af3107a4000610e1c886143b2565b905080841115612cb6578093505b612cd1612710610df160125488613dea90919063ffffffff16565b600e5410612cf657612cef670de0b6b3a7640000610df18887613dea565b9150612d62565b6000612d0e670de0b6b3a7640000610df18988613dea565b9050612d2b612710610df160135484613dea90919063ffffffff16565b9250612d378184613eb1565b601f5490945015612d6057612d5d612710610df1601f5487613dea90919063ffffffff16565b93505b505b8115612d7157612d7182614072565b8215612e4357600e54612d849084613f0e565b600e55600654604080516340c10f1960e01b81523060048201526024810186905290516001600160a01b03909216916340c10f19916044808201926020929091908290030181600087803b158015612ddb57600080fd5b505af1158015612def573d6000803e3d6000fd5b505050506040513d6020811015612e0557600080fd5b5050604080514281526020810185905281517ff705142bf09f04297640495ddf7c59b7fd6f51894c5aea9602d631cf05f0efc2929181900390910190a15b50505050505b50600354612e58906001613f0e565b600355600d54612e66611c45565b11612e8457612e7f612710610df1601454610e1c613bbd565b612e87565b60005b600455436000908152602081815260408083203284529091528082208054600160ff1991821681179092553384529190922080549091169091179055565b6007546001600160a01b031681565b6001546001600160a01b03163314612f1d5760405162461bcd60e51b8152600401808060200182810382526024815260200180614a976024913960400191505060405180910390fd5b600980546001600160a01b0319166001600160a01b0392909216919091179055565b600c5481565b600954604080516313f24daf60e01b815290516000926001600160a01b0316916313f24daf916004808301926020929190829003018186803b158015610d7557600080fd5b600080612f95611c45565b9050600d54811115610e5557600654604080516370a0823160e01b815230600482015290516000926001600160a01b0316916370a08231916024808301926020929190829003018186803b158015612fec57600080fd5b505afa158015613000573d6000803e3d6000fd5b505050506040513d602081101561301657600080fd5b505190506000613024610e59565b90508015610e525761304281610df184670de0b6b3a7640000613dea565b935050505090565b60025481565b60125481565b6005818154811061306357fe5b6000918252602090912001546001600160a01b0316905081565b60185481565b6001546001600160a01b031633146130cc5760405162461bcd60e51b8152600401808060200182810382526024815260200180614a976024913960400191505060405180910390fd5b6101f481101580156130e057506127108111155b613120576040805162461bcd60e51b815260206004820152600c60248201526b6f7574206f662072616e676560a01b604482015290519081900360640190fd5b601255565b6020546001600160a01b031681565b60035481565b6001546001600160a01b031633146131835760405162461bcd60e51b8152600401808060200182810382526024815260200180614a976024913960400191505060405180910390fd5b60788211156131d9576040805162461bcd60e51b815260206004820152601e60248201527f5f626f6f74737472617045706f6368733a206f7574206f662072616e67650000604482015290519081900360640190fd5b606481101580156131ec57506103e88111155b6132275760405162461bcd60e51b815260040180806020018281038252602e815260200180614b6b602e913960400191505060405180910390fd5b601791909155601855565b6001546000906001600160a01b0316331461327e5760405162461bcd60e51b8152600401808060200182810382526024815260200180614a976024913960400191505060405180910390fd5b60098360ff16106132c05760405162461bcd60e51b8152600401808060200182810382526029815260200180614a3c6029913960400191505060405180910390fd5b60ff8316156132f257600f6001840360ff16815481106132dc57fe5b906000526020600020015482116132f257600080fd5b60088360ff16101561332757600f8360010160ff168154811061331157fe5b9060005260206000200154821061332757600080fd5b81600f8460ff168154811061333857fe5b6000918252602090912001555060015b92915050565b6001546001600160a01b031633146133975760405162461bcd60e51b8152600401808060200182810382526024815260200180614a976024913960400191505060405180910390fd5b601a55565b600f81815481106133a957fe5b600091825260209091200154905081565b600a546001600160a01b031681565b6001546001600160a01b031633146134125760405162461bcd60e51b8152600401808060200182810382526024815260200180614a976024913960400191505060405180910390fd5b816001600160a01b03166342966c68826040518263ffffffff1660e01b815260040180828152602001915050600060405180830381600087803b15801561345857600080fd5b505af115801561346c573d6000803e3d6000fd5b505050505050565b601081815481106133a957fe5b6001546001600160a01b031633146134ca5760405162461bcd60e51b8152600401808060200182810382526024815260200180614a976024913960400191505060405180910390fd5b601b55565b6001546001600160a01b031633146135185760405162461bcd60e51b8152600401808060200182810382526024815260200180614a976024913960400191505060405180910390fd5b600c54811015801561354457506135406064610df16078600c54613dea90919063ffffffff16565b8111155b613584576040805162461bcd60e51b815260206004820152600c60248201526b6f7574206f662072616e676560a01b604482015290519081900360640190fd5b600d55565b6001546001600160a01b031633146135d25760405162461bcd60e51b8152600401808060200182810382526024815260200180614a976024913960400191505060405180910390fd5b600b80546001600160a01b0319166001600160a01b0392909216919091179055565b6009546001600160a01b031681565b6001546001600160a01b0316331461364c5760405162461bcd60e51b8152600401808060200182810382526024815260200180614a976024913960400191505060405180910390fd5b600180546001600160a01b0319166001600160a01b0392909216919091179055565b61546081565b601a5481565b6001546001600160a01b031633146136c35760405162461bcd60e51b8152600401808060200182810382526024815260200180614a976024913960400191505060405180910390fd5b6001600160a01b038416613707576040805162461bcd60e51b815260206004808301919091526024820152637a65726f60e01b604482015290519081900360640190fd5b610bb883111561374d576040805162461bcd60e51b815260206004820152600c60248201526b6f7574206f662072616e676560a01b604482015290519081900360640190fd5b6001600160a01b038216613791576040805162461bcd60e51b815260206004808301919091526024820152637a65726f60e01b604482015290519081900360640190fd5b6103e88111156137d7576040805162461bcd60e51b815260206004820152600c60248201526b6f7574206f662072616e676560a01b604482015290519081900360640190fd5b602080546001600160a01b03199081166001600160a01b03968716179091556021939093556022805490931691909316179055602355565b6006546001600160a01b031681565b600061384361383a615460600354613dea90919063ffffffff16565b60025490613f0e565b905090565b601e5481565b601d5481565b600b5460065460408051630d01142560e31b81526001600160a01b039283166004820152670de0b6b3a7640000602482015290516000939290921691636808a12891604480820192602092909190829003018186803b158015611ca757600080fd5b6001546001600160a01b031633146138ff5760405162461bcd60e51b8152600401808060200182810382526024815260200180614a976024913960400191505060405180910390fd5b6064811015801561391257506105dc8111155b613952576040805162461bcd60e51b815260206004820152600c60248201526b6f7574206f662072616e676560a01b604482015290519081900360640190fd5b601455565b6001546001600160a01b031633146139a05760405162461bcd60e51b8152600401808060200182810382526024815260200180614a976024913960400191505060405180910390fd5b60095460408051631515d6bd60e21b81526001600160a01b038681166004830152602482018690528481166044830152915191909216916354575af491606480830192600092919082900301818387803b1580156139fd57600080fd5b505af1158015613a11573d6000803e3d6000fd5b50505050505050565b6001546000906001600160a01b03163314613a665760405162461bcd60e51b8152600401808060200182810382526024815260200180614a976024913960400191505060405180910390fd5b60098360ff1610613aa85760405162461bcd60e51b8152600401808060200182810382526029815260200180614a3c6029913960400191505060405180910390fd5b600a8210158015613abb57506103e88211155b613b03576040805162461bcd60e51b81526020600482015260146024820152735f76616c75653a206f7574206f662072616e676560601b604482015290519081900360640190fd5b8160108460ff168154811061333857fe5b60115481565b60155481565b6001546001600160a01b03163314613b695760405162461bcd60e51b8152600401808060200182810382526024815260200180614a976024913960400191505060405180910390fd5b60095460408051632ffaaa0960e01b8152600481018590526024810184905290516001600160a01b0390921691632ffaaa099160448082019260009290919082900301818387803b15801561345857600080fd5b600654604080516318160ddd60e01b815290516000926001600160a01b031691839183916318160ddd916004808301926020929190829003018186803b158015613c0657600080fd5b505afa158015613c1a573d6000803e3d6000fd5b505050506040513d6020811015613c3057600080fd5b505160055490915060009081905b80821015613cf357613ce6856001600160a01b03166370a0823160058581548110613c6557fe5b60009182526020918290200154604080516001600160e01b031960e086901b1681526001600160a01b0390921660048301525160248083019392829003018186803b158015613cb357600080fd5b505afa158015613cc7573d6000803e3d6000fd5b505050506040513d6020811015613cdd57600080fd5b50518490613f0e565b9250600182019150613c3e565b613cfd8484613eb1565b9550505050505090565b60095460408051635e033cb960e11b81526001600160a01b0384811660048301529151600093929092169163bc06797291602480820192602092909190829003018186803b158015613d5857600080fd5b505afa158015613d6c573d6000803e3d6000fd5b505050506040513d6020811015613d8257600080fd5b505192915050565b60145481565b60175481565b6001546001600160a01b03163314613ddf5760405162461bcd60e51b8152600401808060200182810382526024815260200180614a976024913960400191505060405180910390fd5b601655565b60045481565b600082613df957506000613348565b82820282848281613e0657fe5b0414613e435760405162461bcd60e51b815260040180806020018281038252602181526020018061499a6021913960400191505060405180910390fd5b9392505050565b6000808211613ea0576040805162461bcd60e51b815260206004820152601a60248201527f536166654d6174683a206469766973696f6e206279207a65726f000000000000604482015290519081900360640190fd5b818381613ea957fe5b049392505050565b600082821115613f08576040805162461bcd60e51b815260206004820152601e60248201527f536166654d6174683a207375627472616374696f6e206f766572666c6f770000604482015290519081900360640190fd5b50900390565b600082820183811015613e43576040805162461bcd60e51b815260206004820152601b60248201527f536166654d6174683a206164646974696f6e206f766572666c6f770000000000604482015290519081900360640190fd5b4360009081526020818152604080832032845290915290205460ff1690565b4360009081526020818152604080832033845290915290205460ff1690565b6000818310613fb55781613e43565b5090919050565b604080516001600160a01b038416602482015260448082018490528251808303909101815260649091019091526020810180516001600160e01b031663a9059cbb60e01b17905261200690849061440f565b600b60009054906101000a90046001600160a01b03166001600160a01b031663a2e620456040518163ffffffff1660e01b8152600401600060405180830381600087803b15801561405e57600080fd5b505af192505050801561406f575060015b50565b600654604080516340c10f1960e01b81523060048201526024810184905290516001600160a01b03909216916340c10f19916044808201926020929091908290030181600087803b1580156140c657600080fd5b505af11580156140da573d6000803e3d6000fd5b505050506040513d60208110156140f057600080fd5b5050602154600090156141d857614118612710610df160215485613dea90919063ffffffff16565b600654602080546040805163a9059cbb60e01b81526001600160a01b03928316600482015260248101869052905194955092169263a9059cbb9260448082019392918290030181600087803b15801561417057600080fd5b505af1158015614184573d6000803e3d6000fd5b505050506040513d602081101561419a57600080fd5b5050604080514281526020810183905281517fcb3f34aaa3445b461e6da5492dc89e5c257a59fa598131f3b6bbc97a3638e409929181900390910190a15b602354600090156142c1576141fe612710610df160235486613dea90919063ffffffff16565b6006546022546040805163a9059cbb60e01b81526001600160a01b03928316600482015260248101859052905193945091169163a9059cbb916044808201926020929091908290030181600087803b15801561425957600080fd5b505af115801561426d573d6000803e3d6000fd5b505050506040513d602081101561428357600080fd5b5050604080514281526020810183905281517fdc8b715b18523e58b7fd0da53259dfa91efd91df4a854d94b136e3333a3b9395929181900390910190a15b6142cf81612bc08585613eb1565b6009546006549194506142f0916001600160a01b03908116911660006144c0565b60095460065461430d916001600160a01b039182169116856144c0565b600954604080516397ffe1d760e01b81526004810186905290516001600160a01b03909216916397ffe1d79160248082019260009290919082900301818387803b15801561435a57600080fd5b505af115801561436e573d6000803e3d6000fd5b5050604080514281526020810187905281517f83ab04d09c2f4ba71d275618abe032919288288e9a89cb1d8c858b8fd348f8c09450908190039091019150a1505050565b600060085b600f8160ff16815481106143c757fe5b906000526020600020015483106143fc5760108160ff16815481106143e857fe5b600091825260209091200154601155614405565b600019016143b7565b5050601154919050565b6060614464826040518060400160405280602081526020017f5361666545524332303a206c6f772d6c6576656c2063616c6c206661696c6564815250856001600160a01b03166145d39092919063ffffffff16565b8051909150156120065780806020019051602081101561448357600080fd5b50516120065760405162461bcd60e51b815260040180806020018281038252602a815260200180614abb602a913960400191505060405180910390fd5b801580614546575060408051636eb1769f60e11b81523060048201526001600160a01b03848116602483015291519185169163dd62ed3e91604480820192602092909190829003018186803b15801561451857600080fd5b505afa15801561452c573d6000803e3d6000fd5b505050506040513d602081101561454257600080fd5b5051155b6145815760405162461bcd60e51b8152600401808060200182810382526036815260200180614b0b6036913960400191505060405180910390fd5b604080516001600160a01b038416602482015260448082018490528251808303909101815260649091019091526020810180516001600160e01b031663095ea7b360e01b17905261200690849061440f565b60606145e284846000856145ea565b949350505050565b60608247101561462b5760405162461bcd60e51b815260040180806020018281038252602681526020018061494f6026913960400191505060405180910390fd5b61463485614746565b614685576040805162461bcd60e51b815260206004820152601d60248201527f416464726573733a2063616c6c20746f206e6f6e2d636f6e7472616374000000604482015290519081900360640190fd5b60006060866001600160a01b031685876040518082805190602001908083835b602083106146c45780518252601f1990920191602091820191016146a5565b6001836020036101000a03801982511681845116808217855250505050505090500191505060006040518083038185875af1925050503d8060008114614726576040519150601f19603f3d011682016040523d82523d6000602084013e61472b565b606091505b509150915061473b82828661474c565b979650505050505050565b3b151590565b6060831561475b575081613e43565b82511561476b5782518084602001fd5b8160405162461bcd60e51b81526004018080602001828103825283818151815260200191508051906020019080838360005b838110156147b557818101518382015260200161479d565b50505050905090810190601f1680156147e25780820380516001836020036101000a031916815260200191505b509250505060405180910390fd5b82805482825590600052602060002090810192821561483a579160200282015b8281111561483a57825182906affffffffffffffffffffff16905591602001919060010190614810565b50610e55929150614887565b82805482825590600052602060002090810192821561483a579160200282015b8281111561483a578251829061ffff16905591602001919060010190614866565b5b80821115610e55576000815560010161488856fe54726561737572793a206661696c656420746f20636f6e73756c742047414d452070726963652066726f6d20746865206f7261636c6554726561737572793a2063616e6e6f742072656465656d20626f6e64732077697468207a65726f20616d6f756e745f7072656d69756d5468726573686f6c6420657863656564732067616d6550726963654365696c696e675f7072656d69756d5468726573686f6c6420697320686967686572207468616e20312e35416464726573733a20696e73756666696369656e742062616c616e636520666f722063616c6c54726561737572793a20747265617375727920686173206e6f206d6f726520627564676574536166654d6174683a206d756c7469706c69636174696f6e206f766572666c6f7754726561737572793a2063616e6e6f7420707572636861736520626f6e64732077697468207a65726f20616d6f756e745f6d696e74696e67466163746f72466f72506179696e67446562743a206f7574206f662072616e67655f6d6178537570706c79457870616e73696f6e50657263656e743a206f7574206f662072616e6765496e6465782068617320746f206265206c6f776572207468616e20636f756e74206f6620746965727354726561737572793a2067616d655072696365206e6f7420656c696769626c6520666f7220626f6e6420707572636861736554726561737572793a2063616c6c6572206973206e6f7420746865206f70657261746f725361666545524332303a204552433230206f7065726174696f6e20646964206e6f742073756363656564436f6e747261637447756172643a206f6e6520626c6f636b2c206f6e652066756e6374696f6e5361666545524332303a20617070726f76652066726f6d206e6f6e2d7a65726f20746f206e6f6e2d7a65726f20616c6c6f77616e636554726561737572793a206e6f7420656e6f75676820626f6e64206c65667420746f2070757263686173655f626f6f747374726170537570706c79457870616e73696f6e50657263656e743a206f7574206f662072616e6765a2646970667358221220fda2c4698b4984b9f2d32ea8499e3f1690d2a09eaea0373ddb25639b0d48f73c64736f6c634300060c0033",
			"opcodes": "PUSH1 0x80 PUSH1 0x40 MSTORE PUSH1 0x1 DUP1 SLOAD PUSH1 0xFF PUSH1 0xA0 SHL NOT AND SWAP1 SSTORE PUSH1 0x0 PUSH1 0x3 DUP2 SWAP1 SSTORE PUSH1 0x4 SSTORE CALLVALUE DUP1 ISZERO PUSH2 0x27 JUMPI PUSH1 0x0 DUP1 REVERT JUMPDEST POP PUSH2 0x4BCE DUP1 PUSH2 0x37 PUSH1 0x0 CODECOPY PUSH1 0x0 RETURN INVALID PUSH1 0x80 PUSH1 0x40 MSTORE CALLVALUE DUP1 ISZERO PUSH2 0x10 JUMPI PUSH1 0x0 DUP1 REVERT JUMPDEST POP PUSH1 0x4 CALLDATASIZE LT PUSH2 0x48A JUMPI PUSH1 0x0 CALLDATALOAD PUSH1 0xE0 SHR DUP1 PUSH4 0x72252472 GT PUSH2 0x262 JUMPI DUP1 PUSH4 0xB3AB15FB GT PUSH2 0x151 JUMPI DUP1 PUSH4 0xCF81D705 GT PUSH2 0xCE JUMPI DUP1 PUSH4 0xE08078E5 GT PUSH2 0x92 JUMPI DUP1 PUSH4 0xE08078E5 EQ PUSH2 0xA9B JUMPI DUP1 PUSH4 0xE8246017 EQ PUSH2 0xAA3 JUMPI DUP1 PUSH4 0xE90B2454 EQ PUSH2 0xAC9 JUMPI DUP1 PUSH4 0xF14698DE EQ PUSH2 0xAD1 JUMPI DUP1 PUSH4 0xF245245A EQ PUSH2 0xAD9 JUMPI DUP1 PUSH4 0xFCB6F008 EQ PUSH2 0xAF6 JUMPI PUSH2 0x48A JUMP JUMPDEST DUP1 PUSH4 0xCF81D705 EQ PUSH2 0xA0C JUMPI DUP1 PUSH4 0xD4B14944 EQ PUSH2 0xA42 JUMPI DUP1 PUSH4 0xD98F2495 EQ PUSH2 0xA68 JUMPI DUP1 PUSH4 0xDA3ED419 EQ PUSH2 0xA70 JUMPI DUP1 PUSH4 0xDB1A376E EQ PUSH2 0xA78 JUMPI PUSH2 0x48A JUMP JUMPDEST DUP1 PUSH4 0xC5967C26 GT PUSH2 0x115 JUMPI DUP1 PUSH4 0xC5967C26 EQ PUSH2 0x9CF JUMPI DUP1 PUSH4 0xC8412D02 EQ PUSH2 0x9D7 JUMPI DUP1 PUSH4 0xC8F987F3 EQ PUSH2 0x9DF JUMPI DUP1 PUSH4 0xCA8E0B66 EQ PUSH2 0x9E7 JUMPI DUP1 PUSH4 0xCECCE38E EQ PUSH2 0x9EF JUMPI PUSH2 0x48A JUMP JUMPDEST DUP1 PUSH4 0xB3AB15FB EQ PUSH2 0x957 JUMPI DUP1 PUSH4 0xB4D1D795 EQ PUSH2 0x97D JUMPI DUP1 PUSH4 0xB8A878F9 EQ PUSH2 0x985 JUMPI DUP1 PUSH4 0xBCC81F19 EQ PUSH2 0x98D JUMPI DUP1 PUSH4 0xC3FE3E28 EQ PUSH2 0x9C7 JUMPI PUSH2 0x48A JUMP JUMPDEST DUP1 PUSH4 0x940E6064 GT PUSH2 0x1DF JUMPI DUP1 PUSH4 0xA0487EEA GT PUSH2 0x1A3 JUMPI DUP1 PUSH4 0xA0487EEA EQ PUSH2 0x8D2 JUMPI DUP1 PUSH4 0xA204452B EQ PUSH2 0x8EF JUMPI DUP1 PUSH4 0xA524EA55 EQ PUSH2 0x90C JUMPI DUP1 PUSH4 0xA5275EBD EQ PUSH2 0x929 JUMPI DUP1 PUSH4 0xAD45E4AE EQ PUSH2 0x94F JUMPI PUSH2 0x48A JUMP JUMPDEST DUP1 PUSH4 0x940E6064 EQ PUSH2 0x83E JUMPI DUP1 PUSH4 0x98B762A1 EQ PUSH2 0x864 JUMPI DUP1 PUSH4 0x99820025 EQ PUSH2 0x881 JUMPI DUP1 PUSH4 0x9AB4F775 EQ PUSH2 0x89E JUMPI DUP1 PUSH4 0x9DC29FAC EQ PUSH2 0x8A6 JUMPI PUSH2 0x48A JUMP JUMPDEST DUP1 PUSH4 0x874106CC GT PUSH2 0x226 JUMPI DUP1 PUSH4 0x874106CC EQ PUSH2 0x7E6 JUMPI DUP1 PUSH4 0x8C664DB6 EQ PUSH2 0x7EE JUMPI DUP1 PUSH4 0x8D934F74 EQ PUSH2 0x80B JUMPI DUP1 PUSH4 0x900CF0CF EQ PUSH2 0x813 JUMPI DUP1 PUSH4 0x91BBFED5 EQ PUSH2 0x81B JUMPI PUSH2 0x48A JUMP JUMPDEST DUP1 PUSH4 0x72252472 EQ PUSH2 0x7A9 JUMPI DUP1 PUSH4 0x72C054F9 EQ PUSH2 0x7B1 JUMPI DUP1 PUSH4 0x78E97925 EQ PUSH2 0x7B9 JUMPI DUP1 PUSH4 0x81D11EAF EQ PUSH2 0x7C1 JUMPI DUP1 PUSH4 0x82CAD838 EQ PUSH2 0x7C9 JUMPI PUSH2 0x48A JUMP JUMPDEST DUP1 PUSH4 0x3D14B36B GT PUSH2 0x37E JUMPI DUP1 PUSH4 0x5547055C GT PUSH2 0x2FB JUMPI DUP1 PUSH4 0x5A0FC79C GT PUSH2 0x2BF JUMPI DUP1 PUSH4 0x5A0FC79C EQ PUSH2 0x763 JUMPI DUP1 PUSH4 0x5B756179 EQ PUSH2 0x76B JUMPI DUP1 PUSH4 0x60F14509 EQ PUSH2 0x773 JUMPI DUP1 PUSH4 0x63E2E7A7 EQ PUSH2 0x77B JUMPI DUP1 PUSH4 0x6B82CF81 EQ PUSH2 0x7A1 JUMPI PUSH2 0x48A JUMP JUMPDEST DUP1 PUSH4 0x5547055C EQ PUSH2 0x726 JUMPI DUP1 PUSH4 0x55EBDEEF EQ PUSH2 0x72E JUMPI DUP1 PUSH4 0x570CA735 EQ PUSH2 0x736 JUMPI DUP1 PUSH4 0x591663E1 EQ PUSH2 0x73E JUMPI DUP1 PUSH4 0x59BF5D39 EQ PUSH2 0x75B JUMPI PUSH2 0x48A JUMP JUMPDEST DUP1 PUSH4 0x46348384 GT PUSH2 0x342 JUMPI DUP1 PUSH4 0x46348384 EQ PUSH2 0x6A0 JUMPI DUP1 PUSH4 0x499F3F19 EQ PUSH2 0x6A8 JUMPI DUP1 PUSH4 0x53550FCB EQ PUSH2 0x6C5 JUMPI DUP1 PUSH4 0x54575AF4 EQ PUSH2 0x6CD JUMPI DUP1 PUSH4 0x54F04A11 EQ PUSH2 0x703 JUMPI PUSH2 0x48A JUMP JUMPDEST DUP1 PUSH4 0x3D14B36B EQ PUSH2 0x639 JUMPI DUP1 PUSH4 0x3E0A322D EQ PUSH2 0x656 JUMPI DUP1 PUSH4 0x4013A08E EQ PUSH2 0x673 JUMPI DUP1 PUSH4 0x40AF7BA5 EQ PUSH2 0x67B JUMPI DUP1 PUSH4 0x4390D2A8 EQ PUSH2 0x698 JUMPI PUSH2 0x48A JUMP JUMPDEST DUP1 PUSH4 0x154EC2DB GT PUSH2 0x40C JUMPI DUP1 PUSH4 0x2CA1A4F9 GT PUSH2 0x3D0 JUMPI DUP1 PUSH4 0x2CA1A4F9 EQ PUSH2 0x611 JUMPI DUP1 PUSH4 0x2E9C7B65 EQ PUSH2 0x619 JUMPI DUP1 PUSH4 0x349AA30A EQ PUSH2 0x621 JUMPI DUP1 PUSH4 0x392E53CD EQ PUSH2 0x629 JUMPI DUP1 PUSH4 0x3C32A450 EQ PUSH2 0x631 JUMPI PUSH2 0x48A JUMP JUMPDEST DUP1 PUSH4 0x154EC2DB EQ PUSH2 0x5C0 JUMPI DUP1 PUSH4 0x158EF93E EQ PUSH2 0x5DD JUMPI DUP1 PUSH4 0x22F832CD EQ PUSH2 0x5F9 JUMPI DUP1 PUSH4 0x288BC3F8 EQ PUSH2 0x601 JUMPI DUP1 PUSH4 0x29EF1919 EQ PUSH2 0x609 JUMPI PUSH2 0x48A JUMP JUMPDEST DUP1 PUSH4 0xC7689AC GT PUSH2 0x453 JUMPI DUP1 PUSH4 0xC7689AC EQ PUSH2 0x52F JUMPI DUP1 PUSH4 0xCF60175 EQ PUSH2 0x537 JUMPI DUP1 PUSH4 0xDB7EB0B EQ PUSH2 0x53F JUMPI DUP1 PUSH4 0x118EBBF9 EQ PUSH2 0x547 JUMPI DUP1 PUSH4 0x1460E390 EQ PUSH2 0x56A JUMPI PUSH2 0x48A JUMP JUMPDEST DUP1 PUSH3 0x34C8E3 EQ PUSH2 0x48F JUMPI DUP1 PUSH4 0x3BE7E76 EQ PUSH2 0x4B3 JUMPI DUP1 PUSH4 0x4E5C7B1 EQ PUSH2 0x4CD JUMPI DUP1 PUSH4 0xA36669B EQ PUSH2 0x4EC JUMPI DUP1 PUSH4 0xB5BCEC7 EQ PUSH2 0x512 JUMPI JUMPDEST PUSH1 0x0 DUP1 REVERT JUMPDEST PUSH2 0x497 PUSH2 0xAFE JUMP JUMPDEST PUSH1 0x40 DUP1 MLOAD PUSH1 0x1 PUSH1 0x1 PUSH1 0xA0 SHL SUB SWAP1 SWAP3 AND DUP3 MSTORE MLOAD SWAP1 DUP2 SWAP1 SUB PUSH1 0x20 ADD SWAP1 RETURN JUMPDEST PUSH2 0x4BB PUSH2 0xB0D JUMP JUMPDEST PUSH1 0x40 DUP1 MLOAD SWAP2 DUP3 MSTORE MLOAD SWAP1 DUP2 SWAP1 SUB PUSH1 0x20 ADD SWAP1 RETURN JUMPDEST PUSH2 0x4EA PUSH1 0x4 DUP1 CALLDATASIZE SUB PUSH1 0x20 DUP2 LT ISZERO PUSH2 0x4E3 JUMPI PUSH1 0x0 DUP1 REVERT JUMPDEST POP CALLDATALOAD PUSH2 0xB13 JUMP JUMPDEST STOP JUMPDEST PUSH2 0x4EA PUSH1 0x4 DUP1 CALLDATASIZE SUB PUSH1 0x20 DUP2 LT ISZERO PUSH2 0x502 JUMPI PUSH1 0x0 DUP1 REVERT JUMPDEST POP CALLDATALOAD PUSH1 0x1 PUSH1 0x1 PUSH1 0xA0 SHL SUB AND PUSH2 0xBE2 JUMP JUMPDEST PUSH2 0x4EA PUSH1 0x4 DUP1 CALLDATASIZE SUB PUSH1 0x20 DUP2 LT ISZERO PUSH2 0x528 JUMPI PUSH1 0x0 DUP1 REVERT JUMPDEST POP CALLDATALOAD PUSH2 0xC94 JUMP JUMPDEST PUSH2 0x4BB PUSH2 0xD30 JUMP JUMPDEST PUSH2 0x4BB PUSH2 0xDA7 JUMP JUMPDEST PUSH2 0x4BB PUSH2 0xE59 JUMP JUMPDEST PUSH2 0x4EA PUSH1 0x4 DUP1 CALLDATASIZE SUB PUSH1 0x40 DUP2 LT ISZERO PUSH2 0x55D JUMPI PUSH1 0x0 DUP1 REVERT JUMPDEST POP DUP1 CALLDATALOAD SWAP1 PUSH1 0x20 ADD CALLDATALOAD PUSH2 0xEFB JUMP JUMPDEST PUSH2 0x4EA PUSH1 0x4 DUP1 CALLDATASIZE SUB PUSH1 0xE0 DUP2 LT ISZERO PUSH2 0x580 JUMPI PUSH1 0x0 DUP1 REVERT JUMPDEST POP PUSH1 0x1 PUSH1 0x1 PUSH1 0xA0 SHL SUB DUP2 CALLDATALOAD DUP2 AND SWAP2 PUSH1 0x20 DUP2 ADD CALLDATALOAD DUP3 AND SWAP2 PUSH1 0x40 DUP3 ADD CALLDATALOAD DUP2 AND SWAP2 PUSH1 0x60 DUP2 ADD CALLDATALOAD DUP3 AND SWAP2 PUSH1 0x80 DUP3 ADD CALLDATALOAD DUP2 AND SWAP2 PUSH1 0xA0 DUP2 ADD CALLDATALOAD SWAP1 SWAP2 AND SWAP1 PUSH1 0xC0 ADD CALLDATALOAD PUSH2 0x1558 JUMP JUMPDEST PUSH2 0x4EA PUSH1 0x4 DUP1 CALLDATASIZE SUB PUSH1 0x20 DUP2 LT ISZERO PUSH2 0x5D6 JUMPI PUSH1 0x0 DUP1 REVERT JUMPDEST POP CALLDATALOAD PUSH2 0x18D3 JUMP JUMPDEST PUSH2 0x5E5 PUSH2 0x1978 JUMP JUMPDEST PUSH1 0x40 DUP1 MLOAD SWAP2 ISZERO ISZERO DUP3 MSTORE MLOAD SWAP1 DUP2 SWAP1 SUB PUSH1 0x20 ADD SWAP1 RETURN JUMPDEST PUSH2 0x4BB PUSH2 0x1988 JUMP JUMPDEST PUSH2 0x4BB PUSH2 0x198E JUMP JUMPDEST PUSH2 0x4BB PUSH2 0x19D3 JUMP JUMPDEST PUSH2 0x4BB PUSH2 0x19D9 JUMP JUMPDEST PUSH2 0x4BB PUSH2 0x19DF JUMP JUMPDEST PUSH2 0x4BB PUSH2 0x19E5 JUMP JUMPDEST PUSH2 0x5E5 PUSH2 0x19EB JUMP JUMPDEST PUSH2 0x497 PUSH2 0x19FB JUMP JUMPDEST PUSH2 0x4EA PUSH1 0x4 DUP1 CALLDATASIZE SUB PUSH1 0x20 DUP2 LT ISZERO PUSH2 0x64F JUMPI PUSH1 0x0 DUP1 REVERT JUMPDEST POP CALLDATALOAD PUSH2 0x1A0A JUMP JUMPDEST PUSH2 0x4EA PUSH1 0x4 DUP1 CALLDATASIZE SUB PUSH1 0x20 DUP2 LT ISZERO PUSH2 0x66C JUMPI PUSH1 0x0 DUP1 REVERT JUMPDEST POP CALLDATALOAD PUSH2 0x1AA0 JUMP JUMPDEST PUSH2 0x4BB PUSH2 0x1B8B JUMP JUMPDEST PUSH2 0x4EA PUSH1 0x4 DUP1 CALLDATASIZE SUB PUSH1 0x20 DUP2 LT ISZERO PUSH2 0x691 JUMPI PUSH1 0x0 DUP1 REVERT JUMPDEST POP CALLDATALOAD PUSH2 0x1B91 JUMP JUMPDEST PUSH2 0x497 PUSH2 0x1C36 JUMP JUMPDEST PUSH2 0x4BB PUSH2 0x1C45 JUMP JUMPDEST PUSH2 0x4EA PUSH1 0x4 DUP1 CALLDATASIZE SUB PUSH1 0x20 DUP2 LT ISZERO PUSH2 0x6BE JUMPI PUSH1 0x0 DUP1 REVERT JUMPDEST POP CALLDATALOAD PUSH2 0x1D22 JUMP JUMPDEST PUSH2 0x4BB PUSH2 0x1DBF JUMP JUMPDEST PUSH2 0x4EA PUSH1 0x4 DUP1 CALLDATASIZE SUB PUSH1 0x60 DUP2 LT ISZERO PUSH2 0x6E3 JUMPI PUSH1 0x0 DUP1 REVERT JUMPDEST POP PUSH1 0x1 PUSH1 0x1 PUSH1 0xA0 SHL SUB DUP2 CALLDATALOAD DUP2 AND SWAP2 PUSH1 0x20 DUP2 ADD CALLDATALOAD SWAP2 PUSH1 0x40 SWAP1 SWAP2 ADD CALLDATALOAD AND PUSH2 0x1EC6 JUMP JUMPDEST PUSH2 0x4EA PUSH1 0x4 DUP1 CALLDATASIZE SUB PUSH1 0x40 DUP2 LT ISZERO PUSH2 0x719 JUMPI PUSH1 0x0 DUP1 REVERT JUMPDEST POP DUP1 CALLDATALOAD SWAP1 PUSH1 0x20 ADD CALLDATALOAD PUSH2 0x200B JUMP JUMPDEST PUSH2 0x4BB PUSH2 0x274A JUMP JUMPDEST PUSH2 0x4BB PUSH2 0x2750 JUMP JUMPDEST PUSH2 0x497 PUSH2 0x2756 JUMP JUMPDEST PUSH2 0x4EA PUSH1 0x4 DUP1 CALLDATASIZE SUB PUSH1 0x20 DUP2 LT ISZERO PUSH2 0x754 JUMPI PUSH1 0x0 DUP1 REVERT JUMPDEST POP CALLDATALOAD PUSH2 0x2765 JUMP JUMPDEST PUSH2 0x4BB PUSH2 0x2807 JUMP JUMPDEST PUSH2 0x4BB PUSH2 0x280D JUMP JUMPDEST PUSH2 0x4EA PUSH2 0x2813 JUMP JUMPDEST PUSH2 0x497 PUSH2 0x2EC5 JUMP JUMPDEST PUSH2 0x4EA PUSH1 0x4 DUP1 CALLDATASIZE SUB PUSH1 0x20 DUP2 LT ISZERO PUSH2 0x791 JUMPI PUSH1 0x0 DUP1 REVERT JUMPDEST POP CALLDATALOAD PUSH1 0x1 PUSH1 0x1 PUSH1 0xA0 SHL SUB AND PUSH2 0x2ED4 JUMP JUMPDEST PUSH2 0x4BB PUSH2 0x2F3F JUMP JUMPDEST PUSH2 0x4BB PUSH2 0x2F45 JUMP JUMPDEST PUSH2 0x4BB PUSH2 0x2F8A JUMP JUMPDEST PUSH2 0x4BB PUSH2 0x304A JUMP JUMPDEST PUSH2 0x4BB PUSH2 0x3050 JUMP JUMPDEST PUSH2 0x497 PUSH1 0x4 DUP1 CALLDATASIZE SUB PUSH1 0x20 DUP2 LT ISZERO PUSH2 0x7DF JUMPI PUSH1 0x0 DUP1 REVERT JUMPDEST POP CALLDATALOAD PUSH2 0x3056 JUMP JUMPDEST PUSH2 0x4BB PUSH2 0x307D JUMP JUMPDEST PUSH2 0x4EA PUSH1 0x4 DUP1 CALLDATASIZE SUB PUSH1 0x20 DUP2 LT ISZERO PUSH2 0x804 JUMPI PUSH1 0x0 DUP1 REVERT JUMPDEST POP CALLDATALOAD PUSH2 0x3083 JUMP JUMPDEST PUSH2 0x497 PUSH2 0x3125 JUMP JUMPDEST PUSH2 0x4BB PUSH2 0x3134 JUMP JUMPDEST PUSH2 0x4EA PUSH1 0x4 DUP1 CALLDATASIZE SUB PUSH1 0x40 DUP2 LT ISZERO PUSH2 0x831 JUMPI PUSH1 0x0 DUP1 REVERT JUMPDEST POP DUP1 CALLDATALOAD SWAP1 PUSH1 0x20 ADD CALLDATALOAD PUSH2 0x313A JUMP JUMPDEST PUSH2 0x5E5 PUSH1 0x4 DUP1 CALLDATASIZE SUB PUSH1 0x40 DUP2 LT ISZERO PUSH2 0x854 JUMPI PUSH1 0x0 DUP1 REVERT JUMPDEST POP PUSH1 0xFF DUP2 CALLDATALOAD AND SWAP1 PUSH1 0x20 ADD CALLDATALOAD PUSH2 0x3232 JUMP JUMPDEST PUSH2 0x4EA PUSH1 0x4 DUP1 CALLDATASIZE SUB PUSH1 0x20 DUP2 LT ISZERO PUSH2 0x87A JUMPI PUSH1 0x0 DUP1 REVERT JUMPDEST POP CALLDATALOAD PUSH2 0x334E JUMP JUMPDEST PUSH2 0x4BB PUSH1 0x4 DUP1 CALLDATASIZE SUB PUSH1 0x20 DUP2 LT ISZERO PUSH2 0x897 JUMPI PUSH1 0x0 DUP1 REVERT JUMPDEST POP CALLDATALOAD PUSH2 0x339C JUMP JUMPDEST PUSH2 0x497 PUSH2 0x33BA JUMP JUMPDEST PUSH2 0x4EA PUSH1 0x4 DUP1 CALLDATASIZE SUB PUSH1 0x40 DUP2 LT ISZERO PUSH2 0x8BC JUMPI PUSH1 0x0 DUP1 REVERT JUMPDEST POP PUSH1 0x1 PUSH1 0x1 PUSH1 0xA0 SHL SUB DUP2 CALLDATALOAD AND SWAP1 PUSH1 0x20 ADD CALLDATALOAD PUSH2 0x33C9 JUMP JUMPDEST PUSH2 0x4BB PUSH1 0x4 DUP1 CALLDATASIZE SUB PUSH1 0x20 DUP2 LT ISZERO PUSH2 0x8E8 JUMPI PUSH1 0x0 DUP1 REVERT JUMPDEST POP CALLDATALOAD PUSH2 0x3474 JUMP JUMPDEST PUSH2 0x4EA PUSH1 0x4 DUP1 CALLDATASIZE SUB PUSH1 0x20 DUP2 LT ISZERO PUSH2 0x905 JUMPI PUSH1 0x0 DUP1 REVERT JUMPDEST POP CALLDATALOAD PUSH2 0x3481 JUMP JUMPDEST PUSH2 0x4EA PUSH1 0x4 DUP1 CALLDATASIZE SUB PUSH1 0x20 DUP2 LT ISZERO PUSH2 0x922 JUMPI PUSH1 0x0 DUP1 REVERT JUMPDEST POP CALLDATALOAD PUSH2 0x34CF JUMP JUMPDEST PUSH2 0x4EA PUSH1 0x4 DUP1 CALLDATASIZE SUB PUSH1 0x20 DUP2 LT ISZERO PUSH2 0x93F JUMPI PUSH1 0x0 DUP1 REVERT JUMPDEST POP CALLDATALOAD PUSH1 0x1 PUSH1 0x1 PUSH1 0xA0 SHL SUB AND PUSH2 0x3589 JUMP JUMPDEST PUSH2 0x497 PUSH2 0x35F4 JUMP JUMPDEST PUSH2 0x4EA PUSH1 0x4 DUP1 CALLDATASIZE SUB PUSH1 0x20 DUP2 LT ISZERO PUSH2 0x96D JUMPI PUSH1 0x0 DUP1 REVERT JUMPDEST POP CALLDATALOAD PUSH1 0x1 PUSH1 0x1 PUSH1 0xA0 SHL SUB AND PUSH2 0x3603 JUMP JUMPDEST PUSH2 0x4BB PUSH2 0x366E JUMP JUMPDEST PUSH2 0x4BB PUSH2 0x3674 JUMP JUMPDEST PUSH2 0x4EA PUSH1 0x4 DUP1 CALLDATASIZE SUB PUSH1 0x80 DUP2 LT ISZERO PUSH2 0x9A3 JUMPI PUSH1 0x0 DUP1 REVERT JUMPDEST POP PUSH1 0x1 PUSH1 0x1 PUSH1 0xA0 SHL SUB DUP2 CALLDATALOAD DUP2 AND SWAP2 PUSH1 0x20 DUP2 ADD CALLDATALOAD SWAP2 PUSH1 0x40 DUP3 ADD CALLDATALOAD AND SWAP1 PUSH1 0x60 ADD CALLDATALOAD PUSH2 0x367A JUMP JUMPDEST PUSH2 0x497 PUSH2 0x380F JUMP JUMPDEST PUSH2 0x4BB PUSH2 0x381E JUMP JUMPDEST PUSH2 0x4BB PUSH2 0x3848 JUMP JUMPDEST PUSH2 0x4BB PUSH2 0x384E JUMP JUMPDEST PUSH2 0x4BB PUSH2 0x3854 JUMP JUMPDEST PUSH2 0x4EA PUSH1 0x4 DUP1 CALLDATASIZE SUB PUSH1 0x20 DUP2 LT ISZERO PUSH2 0xA05 JUMPI PUSH1 0x0 DUP1 REVERT JUMPDEST POP CALLDATALOAD PUSH2 0x38B6 JUMP JUMPDEST PUSH2 0x4EA PUSH1 0x4 DUP1 CALLDATASIZE SUB PUSH1 0x60 DUP2 LT ISZERO PUSH2 0xA22 JUMPI PUSH1 0x0 DUP1 REVERT JUMPDEST POP PUSH1 0x1 PUSH1 0x1 PUSH1 0xA0 SHL SUB DUP2 CALLDATALOAD DUP2 AND SWAP2 PUSH1 0x20 DUP2 ADD CALLDATALOAD SWAP2 PUSH1 0x40 SWAP1 SWAP2 ADD CALLDATALOAD AND PUSH2 0x3957 JUMP JUMPDEST PUSH2 0x5E5 PUSH1 0x4 DUP1 CALLDATASIZE SUB PUSH1 0x40 DUP2 LT ISZERO PUSH2 0xA58 JUMPI PUSH1 0x0 DUP1 REVERT JUMPDEST POP PUSH1 0xFF DUP2 CALLDATALOAD AND SWAP1 PUSH1 0x20 ADD CALLDATALOAD PUSH2 0x3A1A JUMP JUMPDEST PUSH2 0x4BB PUSH2 0x3B14 JUMP JUMPDEST PUSH2 0x4BB PUSH2 0x3B1A JUMP JUMPDEST PUSH2 0x4EA PUSH1 0x4 DUP1 CALLDATASIZE SUB PUSH1 0x40 DUP2 LT ISZERO PUSH2 0xA8E JUMPI PUSH1 0x0 DUP1 REVERT JUMPDEST POP DUP1 CALLDATALOAD SWAP1 PUSH1 0x20 ADD CALLDATALOAD PUSH2 0x3B20 JUMP JUMPDEST PUSH2 0x4BB PUSH2 0x3BBD JUMP JUMPDEST PUSH2 0x4BB PUSH1 0x4 DUP1 CALLDATASIZE SUB PUSH1 0x20 DUP2 LT ISZERO PUSH2 0xAB9 JUMPI PUSH1 0x0 DUP1 REVERT JUMPDEST POP CALLDATALOAD PUSH1 0x1 PUSH1 0x1 PUSH1 0xA0 SHL SUB AND PUSH2 0x3D07 JUMP JUMPDEST PUSH2 0x4BB PUSH2 0x3D8A JUMP JUMPDEST PUSH2 0x4BB PUSH2 0x3D90 JUMP JUMPDEST PUSH2 0x4EA PUSH1 0x4 DUP1 CALLDATASIZE SUB PUSH1 0x20 DUP2 LT ISZERO PUSH2 0xAEF JUMPI PUSH1 0x0 DUP1 REVERT JUMPDEST POP CALLDATALOAD PUSH2 0x3D96 JUMP JUMPDEST PUSH2 0x4BB PUSH2 0x3DE4 JUMP JUMPDEST PUSH1 0xB SLOAD PUSH1 0x1 PUSH1 0x1 PUSH1 0xA0 SHL SUB AND DUP2 JUMP JUMPDEST PUSH1 0x23 SLOAD DUP2 JUMP JUMPDEST PUSH1 0x1 SLOAD PUSH1 0x1 PUSH1 0x1 PUSH1 0xA0 SHL SUB AND CALLER EQ PUSH2 0xB5C JUMPI PUSH1 0x40 MLOAD PUSH3 0x461BCD PUSH1 0xE5 SHL DUP2 MSTORE PUSH1 0x4 ADD DUP1 DUP1 PUSH1 0x20 ADD DUP3 DUP2 SUB DUP3 MSTORE PUSH1 0x24 DUP2 MSTORE PUSH1 0x20 ADD DUP1 PUSH2 0x4A97 PUSH1 0x24 SWAP2 CODECOPY PUSH1 0x40 ADD SWAP2 POP POP PUSH1 0x40 MLOAD DUP1 SWAP2 SUB SWAP1 REVERT JUMPDEST PUSH1 0xD SLOAD DUP2 LT ISZERO PUSH2 0xB9D JUMPI PUSH1 0x40 MLOAD PUSH3 0x461BCD PUSH1 0xE5 SHL DUP2 MSTORE PUSH1 0x4 ADD DUP1 DUP1 PUSH1 0x20 ADD DUP3 DUP2 SUB DUP3 MSTORE PUSH1 0x2A DUP2 MSTORE PUSH1 0x20 ADD DUP1 PUSH2 0x4901 PUSH1 0x2A SWAP2 CODECOPY PUSH1 0x40 ADD SWAP2 POP POP PUSH1 0x40 MLOAD DUP1 SWAP2 SUB SWAP1 REVERT JUMPDEST PUSH1 0x96 DUP2 GT ISZERO PUSH2 0xBDD JUMPI PUSH1 0x40 MLOAD PUSH3 0x461BCD PUSH1 0xE5 SHL DUP2 MSTORE PUSH1 0x4 ADD DUP1 DUP1 PUSH1 0x20 ADD DUP3 DUP2 SUB DUP3 MSTORE PUSH1 0x24 DUP2 MSTORE PUSH1 0x20 ADD DUP1 PUSH2 0x492B PUSH1 0x24 SWAP2 CODECOPY PUSH1 0x40 ADD SWAP2 POP POP PUSH1 0x40 MLOAD DUP1 SWAP2 SUB SWAP1 REVERT JUMPDEST PUSH1 0x1D SSTORE JUMP JUMPDEST PUSH1 0x1 SLOAD PUSH1 0x1 PUSH1 0x1 PUSH1 0xA0 SHL SUB AND CALLER EQ PUSH2 0xC2B JUMPI PUSH1 0x40 MLOAD PUSH3 0x461BCD PUSH1 0xE5 SHL DUP2 MSTORE PUSH1 0x4 ADD DUP1 DUP1 PUSH1 0x20 ADD DUP3 DUP2 SUB DUP3 MSTORE PUSH1 0x24 DUP2 MSTORE PUSH1 0x20 ADD DUP1 PUSH2 0x4A97 PUSH1 0x24 SWAP2 CODECOPY PUSH1 0x40 ADD SWAP2 POP POP PUSH1 0x40 MLOAD DUP1 SWAP2 SUB SWAP1 REVERT JUMPDEST PUSH1 0x9 SLOAD PUSH1 0x40 DUP1 MLOAD PUSH4 0xB3AB15FB PUSH1 0xE0 SHL DUP2 MSTORE PUSH1 0x1 PUSH1 0x1 PUSH1 0xA0 SHL SUB DUP5 DUP2 AND PUSH1 0x4 DUP4 ADD MSTORE SWAP2 MLOAD SWAP2 SWAP1 SWAP3 AND SWAP2 PUSH4 0xB3AB15FB SWAP2 PUSH1 0x24 DUP1 DUP4 ADD SWAP3 PUSH1 0x0 SWAP3 SWAP2 SWAP1 DUP3 SWAP1 SUB ADD DUP2 DUP4 DUP8 DUP1 EXTCODESIZE ISZERO DUP1 ISZERO PUSH2 0xC79 JUMPI PUSH1 0x0 DUP1 REVERT JUMPDEST POP GAS CALL ISZERO DUP1 ISZERO PUSH2 0xC8D JUMPI RETURNDATASIZE PUSH1 0x0 DUP1 RETURNDATACOPY RETURNDATASIZE PUSH1 0x0 REVERT JUMPDEST POP POP POP POP POP JUMP JUMPDEST PUSH1 0x1 SLOAD PUSH1 0x1 PUSH1 0x1 PUSH1 0xA0 SHL SUB AND CALLER EQ PUSH2 0xCDD JUMPI PUSH1 0x40 MLOAD PUSH3 0x461BCD PUSH1 0xE5 SHL DUP2 MSTORE PUSH1 0x4 ADD DUP1 DUP1 PUSH1 0x20 ADD DUP3 DUP2 SUB DUP3 MSTORE PUSH1 0x24 DUP2 MSTORE PUSH1 0x20 ADD DUP1 PUSH2 0x4A97 PUSH1 0x24 SWAP2 CODECOPY PUSH1 0x40 ADD SWAP2 POP POP PUSH1 0x40 MLOAD DUP1 SWAP2 SUB SWAP1 REVERT JUMPDEST PUSH1 0xA DUP2 LT ISZERO DUP1 ISZERO PUSH2 0xCF0 JUMPI POP PUSH2 0x3E8 DUP2 GT ISZERO JUMPDEST PUSH2 0xD2B JUMPI PUSH1 0x40 MLOAD PUSH3 0x461BCD PUSH1 0xE5 SHL DUP2 MSTORE PUSH1 0x4 ADD DUP1 DUP1 PUSH1 0x20 ADD DUP3 DUP2 SUB DUP3 MSTORE PUSH1 0x28 DUP2 MSTORE PUSH1 0x20 ADD DUP1 PUSH2 0x4A14 PUSH1 0x28 SWAP2 CODECOPY PUSH1 0x40 ADD SWAP2 POP POP PUSH1 0x40 MLOAD DUP1 SWAP2 SUB SWAP1 REVERT JUMPDEST PUSH1 0x11 SSTORE JUMP JUMPDEST PUSH1 0x9 SLOAD PUSH1 0x40 DUP1 MLOAD PUSH4 0x8278B53B PUSH1 0xE0 SHL DUP2 MSTORE SWAP1 MLOAD PUSH1 0x0 SWAP3 PUSH1 0x1 PUSH1 0x1 PUSH1 0xA0 SHL SUB AND SWAP2 PUSH4 0x8278B53B SWAP2 PUSH1 0x4 DUP1 DUP4 ADD SWAP3 PUSH1 0x20 SWAP3 SWAP2 SWAP1 DUP3 SWAP1 SUB ADD DUP2 DUP7 DUP1 EXTCODESIZE ISZERO DUP1 ISZERO PUSH2 0xD75 JUMPI PUSH1 0x0 DUP1 REVERT JUMPDEST POP GAS STATICCALL ISZERO DUP1 ISZERO PUSH2 0xD89 JUMPI RETURNDATASIZE PUSH1 0x0 DUP1 RETURNDATACOPY RETURNDATASIZE PUSH1 0x0 REVERT JUMPDEST POP POP POP POP PUSH1 0x40 MLOAD RETURNDATASIZE PUSH1 0x20 DUP2 LT ISZERO PUSH2 0xD9F JUMPI PUSH1 0x0 DUP1 REVERT JUMPDEST POP MLOAD SWAP1 POP JUMPDEST SWAP1 JUMP JUMPDEST PUSH1 0x0 DUP1 PUSH2 0xDB2 PUSH2 0x1C45 JUMP JUMPDEST SWAP1 POP PUSH1 0xC SLOAD DUP2 GT PUSH2 0xE55 JUMPI PUSH1 0x1C SLOAD PUSH2 0xDCE JUMPI PUSH1 0xC SLOAD SWAP2 POP PUSH2 0xE55 JUMP JUMPDEST PUSH1 0x0 PUSH2 0xDF7 DUP3 PUSH2 0xDF1 PUSH8 0xDE0B6B3A7640000 PUSH1 0xC SLOAD PUSH2 0x3DEA SWAP1 SWAP2 SWAP1 PUSH4 0xFFFFFFFF AND JUMP JUMPDEST SWAP1 PUSH2 0x3E4A JUMP JUMPDEST SWAP1 POP PUSH1 0x0 PUSH2 0xE22 PUSH2 0x2710 PUSH2 0xDF1 PUSH1 0x1C SLOAD PUSH2 0xE1C PUSH1 0xC SLOAD DUP8 PUSH2 0x3EB1 SWAP1 SWAP2 SWAP1 PUSH4 0xFFFFFFFF AND JUMP JUMPDEST SWAP1 PUSH2 0x3DEA JUMP JUMPDEST PUSH1 0xC SLOAD SWAP1 SWAP2 POP PUSH2 0xE32 SWAP1 DUP3 PUSH2 0x3F0E JUMP JUMPDEST SWAP4 POP PUSH1 0x0 PUSH1 0x1A SLOAD GT DUP1 ISZERO PUSH2 0xE47 JUMPI POP PUSH1 0x1A SLOAD DUP5 GT JUMPDEST ISZERO PUSH2 0xE52 JUMPI PUSH1 0x1A SLOAD SWAP4 POP JUMPDEST POP POP JUMPDEST POP SWAP1 JUMP JUMPDEST PUSH1 0x0 DUP1 PUSH2 0xE64 PUSH2 0x1C45 JUMP JUMPDEST SWAP1 POP PUSH1 0xD SLOAD DUP2 GT ISZERO PUSH2 0xE55 JUMPI PUSH1 0x0 PUSH2 0xE8E PUSH1 0x64 PUSH2 0xDF1 PUSH1 0x1D SLOAD PUSH1 0xC SLOAD PUSH2 0x3DEA SWAP1 SWAP2 SWAP1 PUSH4 0xFFFFFFFF AND JUMP JUMPDEST SWAP1 POP DUP1 DUP3 LT PUSH2 0xEF0 JUMPI PUSH1 0x0 PUSH2 0xEBA PUSH2 0x2710 PUSH2 0xDF1 PUSH1 0x1E SLOAD PUSH2 0xE1C PUSH1 0xC SLOAD DUP9 PUSH2 0x3EB1 SWAP1 SWAP2 SWAP1 PUSH4 0xFFFFFFFF AND JUMP JUMPDEST PUSH1 0xC SLOAD SWAP1 SWAP2 POP PUSH2 0xECA SWAP1 DUP3 PUSH2 0x3F0E JUMP JUMPDEST SWAP4 POP PUSH1 0x0 PUSH1 0x1B SLOAD GT DUP1 ISZERO PUSH2 0xEDF JUMPI POP PUSH1 0x1B SLOAD DUP5 GT JUMPDEST ISZERO PUSH2 0xEEA JUMPI PUSH1 0x1B SLOAD SWAP4 POP JUMPDEST POP PUSH2 0xEF6 JUMP JUMPDEST PUSH1 0xC SLOAD SWAP3 POP JUMPDEST POP POP SWAP1 JUMP JUMPDEST PUSH2 0xF03 PUSH2 0x3F68 JUMP JUMPDEST ISZERO PUSH2 0xF3F JUMPI PUSH1 0x40 MLOAD PUSH3 0x461BCD PUSH1 0xE5 SHL DUP2 MSTORE PUSH1 0x4 ADD DUP1 DUP1 PUSH1 0x20 ADD DUP3 DUP2 SUB DUP3 MSTORE PUSH1 0x26 DUP2 MSTORE PUSH1 0x20 ADD DUP1 PUSH2 0x4AE5 PUSH1 0x26 SWAP2 CODECOPY PUSH1 0x40 ADD SWAP2 POP POP PUSH1 0x40 MLOAD DUP1 SWAP2 SUB SWAP1 REVERT JUMPDEST PUSH2 0xF47 PUSH2 0x3F87 JUMP JUMPDEST ISZERO PUSH2 0xF83 JUMPI PUSH1 0x40 MLOAD PUSH3 0x461BCD PUSH1 0xE5 SHL DUP2 MSTORE PUSH1 0x4 ADD DUP1 DUP1 PUSH1 0x20 ADD DUP3 DUP2 SUB DUP3 MSTORE PUSH1 0x26 DUP2 MSTORE PUSH1 0x20 ADD DUP1 PUSH2 0x4AE5 PUSH1 0x26 SWAP2 CODECOPY PUSH1 0x40 ADD SWAP2 POP POP PUSH1 0x40 MLOAD DUP1 SWAP2 SUB SWAP1 REVERT JUMPDEST PUSH1 0x2 SLOAD TIMESTAMP LT ISZERO PUSH2 0xFD6 JUMPI PUSH1 0x40 DUP1 MLOAD PUSH3 0x461BCD PUSH1 0xE5 SHL DUP2 MSTORE PUSH1 0x20 PUSH1 0x4 DUP3 ADD MSTORE PUSH1 0x19 PUSH1 0x24 DUP3 ADD MSTORE PUSH25 0x151C99585CDD5C9E4E881B9BDD081CDD185C9D1959081E595D PUSH1 0x3A SHL PUSH1 0x44 DUP3 ADD MSTORE SWAP1 MLOAD SWAP1 DUP2 SWAP1 SUB PUSH1 0x64 ADD SWAP1 REVERT JUMPDEST PUSH1 0x6 SLOAD PUSH1 0x40 DUP1 MLOAD PUSH4 0x570CA735 PUSH1 0xE0 SHL DUP2 MSTORE SWAP1 MLOAD ADDRESS SWAP3 PUSH1 0x1 PUSH1 0x1 PUSH1 0xA0 SHL SUB AND SWAP2 PUSH4 0x570CA735 SWAP2 PUSH1 0x4 DUP1 DUP4 ADD SWAP3 PUSH1 0x20 SWAP3 SWAP2 SWAP1 DUP3 SWAP1 SUB ADD DUP2 DUP7 DUP1 EXTCODESIZE ISZERO DUP1 ISZERO PUSH2 0x101A JUMPI PUSH1 0x0 DUP1 REVERT JUMPDEST POP GAS STATICCALL ISZERO DUP1 ISZERO PUSH2 0x102E JUMPI RETURNDATASIZE PUSH1 0x0 DUP1 RETURNDATACOPY RETURNDATASIZE PUSH1 0x0 REVERT JUMPDEST POP POP POP POP PUSH1 0x40 MLOAD RETURNDATASIZE PUSH1 0x20 DUP2 LT ISZERO PUSH2 0x1044 JUMPI PUSH1 0x0 DUP1 REVERT JUMPDEST POP MLOAD PUSH1 0x1 PUSH1 0x1 PUSH1 0xA0 SHL SUB AND EQ DUP1 ISZERO PUSH2 0x10D2 JUMPI POP PUSH1 0x7 SLOAD PUSH1 0x40 DUP1 MLOAD PUSH4 0x570CA735 PUSH1 0xE0 SHL DUP2 MSTORE SWAP1 MLOAD ADDRESS SWAP3 PUSH1 0x1 PUSH1 0x1 PUSH1 0xA0 SHL SUB AND SWAP2 PUSH4 0x570CA735 SWAP2 PUSH1 0x4 DUP1 DUP4 ADD SWAP3 PUSH1 0x20 SWAP3 SWAP2 SWAP1 DUP3 SWAP1 SUB ADD DUP2 DUP7 DUP1 EXTCODESIZE ISZERO DUP1 ISZERO PUSH2 0x109B JUMPI PUSH1 0x0 DUP1 REVERT JUMPDEST POP GAS STATICCALL ISZERO DUP1 ISZERO PUSH2 0x10AF JUMPI RETURNDATASIZE PUSH1 0x0 DUP1 RETURNDATACOPY RETURNDATASIZE PUSH1 0x0 REVERT JUMPDEST POP POP POP POP PUSH1 0x40 MLOAD RETURNDATASIZE PUSH1 0x20 DUP2 LT ISZERO PUSH2 0x10C5 JUMPI PUSH1 0x0 DUP1 REVERT JUMPDEST POP MLOAD PUSH1 0x1 PUSH1 0x1 PUSH1 0xA0 SHL SUB AND EQ JUMPDEST DUP1 ISZERO PUSH2 0x1154 JUMPI POP PUSH1 0x8 SLOAD PUSH1 0x40 DUP1 MLOAD PUSH4 0x570CA735 PUSH1 0xE0 SHL DUP2 MSTORE SWAP1 MLOAD ADDRESS SWAP3 PUSH1 0x1 PUSH1 0x1 PUSH1 0xA0 SHL SUB AND SWAP2 PUSH4 0x570CA735 SWAP2 PUSH1 0x4 DUP1 DUP4 ADD SWAP3 PUSH1 0x20 SWAP3 SWAP2 SWAP1 DUP3 SWAP1 SUB ADD DUP2 DUP7 DUP1 EXTCODESIZE ISZERO DUP1 ISZERO PUSH2 0x111D JUMPI PUSH1 0x0 DUP1 REVERT JUMPDEST POP GAS STATICCALL ISZERO DUP1 ISZERO PUSH2 0x1131 JUMPI RETURNDATASIZE PUSH1 0x0 DUP1 RETURNDATACOPY RETURNDATASIZE PUSH1 0x0 REVERT JUMPDEST POP POP POP POP PUSH1 0x40 MLOAD RETURNDATASIZE PUSH1 0x20 DUP2 LT ISZERO PUSH2 0x1147 JUMPI PUSH1 0x0 DUP1 REVERT JUMPDEST POP MLOAD PUSH1 0x1 PUSH1 0x1 PUSH1 0xA0 SHL SUB AND EQ JUMPDEST DUP1 ISZERO PUSH2 0x11D6 JUMPI POP PUSH1 0x9 SLOAD PUSH1 0x40 DUP1 MLOAD PUSH4 0x570CA735 PUSH1 0xE0 SHL DUP2 MSTORE SWAP1 MLOAD ADDRESS SWAP3 PUSH1 0x1 PUSH1 0x1 PUSH1 0xA0 SHL SUB AND SWAP2 PUSH4 0x570CA735 SWAP2 PUSH1 0x4 DUP1 DUP4 ADD SWAP3 PUSH1 0x20 SWAP3 SWAP2 SWAP1 DUP3 SWAP1 SUB ADD DUP2 DUP7 DUP1 EXTCODESIZE ISZERO DUP1 ISZERO PUSH2 0x119F JUMPI PUSH1 0x0 DUP1 REVERT JUMPDEST POP GAS STATICCALL ISZERO DUP1 ISZERO PUSH2 0x11B3 JUMPI RETURNDATASIZE PUSH1 0x0 DUP1 RETURNDATACOPY RETURNDATASIZE PUSH1 0x0 REVERT JUMPDEST POP POP POP POP PUSH1 0x40 MLOAD RETURNDATASIZE PUSH1 0x20 DUP2 LT ISZERO PUSH2 0x11C9 JUMPI PUSH1 0x0 DUP1 REVERT JUMPDEST POP MLOAD PUSH1 0x1 PUSH1 0x1 PUSH1 0xA0 SHL SUB AND EQ JUMPDEST PUSH2 0x1227 JUMPI PUSH1 0x40 DUP1 MLOAD PUSH3 0x461BCD PUSH1 0xE5 SHL DUP2 MSTORE PUSH1 0x20 PUSH1 0x4 DUP3 ADD MSTORE PUSH1 0x1E PUSH1 0x24 DUP3 ADD MSTORE PUSH32 0x54726561737572793A206E656564206D6F7265207065726D697373696F6E0000 PUSH1 0x44 DUP3 ADD MSTORE SWAP1 MLOAD SWAP1 DUP2 SWAP1 SUB PUSH1 0x64 ADD SWAP1 REVERT JUMPDEST PUSH1 0x0 DUP3 GT PUSH2 0x1266 JUMPI PUSH1 0x40 MLOAD PUSH3 0x461BCD PUSH1 0xE5 SHL DUP2 MSTORE PUSH1 0x4 ADD DUP1 DUP1 PUSH1 0x20 ADD DUP3 DUP2 SUB DUP3 MSTORE PUSH1 0x2E DUP2 MSTORE PUSH1 0x20 ADD DUP1 PUSH2 0x48D3 PUSH1 0x2E SWAP2 CODECOPY PUSH1 0x40 ADD SWAP2 POP POP PUSH1 0x40 MLOAD DUP1 SWAP2 SUB SWAP1 REVERT JUMPDEST PUSH1 0x0 PUSH2 0x1270 PUSH2 0x1C45 JUMP JUMPDEST SWAP1 POP DUP2 DUP2 EQ PUSH2 0x12C6 JUMPI PUSH1 0x40 DUP1 MLOAD PUSH3 0x461BCD PUSH1 0xE5 SHL DUP2 MSTORE PUSH1 0x20 PUSH1 0x4 DUP3 ADD MSTORE PUSH1 0x1A PUSH1 0x24 DUP3 ADD MSTORE PUSH32 0x54726561737572793A2047414D45207072696365206D6F766564000000000000 PUSH1 0x44 DUP3 ADD MSTORE SWAP1 MLOAD SWAP1 DUP2 SWAP1 SUB PUSH1 0x64 ADD SWAP1 REVERT JUMPDEST PUSH1 0xD SLOAD DUP2 GT PUSH2 0x1306 JUMPI PUSH1 0x40 MLOAD PUSH3 0x461BCD PUSH1 0xE5 SHL DUP2 MSTORE PUSH1 0x4 ADD DUP1 DUP1 PUSH1 0x20 ADD DUP3 DUP2 SUB DUP3 MSTORE PUSH1 0x32 DUP2 MSTORE PUSH1 0x20 ADD DUP1 PUSH2 0x4A65 PUSH1 0x32 SWAP2 CODECOPY PUSH1 0x40 ADD SWAP2 POP POP PUSH1 0x40 MLOAD DUP1 SWAP2 SUB SWAP1 REVERT JUMPDEST PUSH1 0x0 PUSH2 0x1310 PUSH2 0xE59 JUMP JUMPDEST SWAP1 POP PUSH1 0x0 DUP2 GT PUSH2 0x1367 JUMPI PUSH1 0x40 DUP1 MLOAD PUSH3 0x461BCD PUSH1 0xE5 SHL DUP2 MSTORE PUSH1 0x20 PUSH1 0x4 DUP3 ADD MSTORE PUSH1 0x1B PUSH1 0x24 DUP3 ADD MSTORE PUSH32 0x54726561737572793A20696E76616C696420626F6E6420726174650000000000 PUSH1 0x44 DUP3 ADD MSTORE SWAP1 MLOAD SWAP1 DUP2 SWAP1 SUB PUSH1 0x64 ADD SWAP1 REVERT JUMPDEST PUSH1 0x0 PUSH2 0x137F PUSH8 0xDE0B6B3A7640000 PUSH2 0xDF1 DUP8 DUP6 PUSH2 0x3DEA JUMP JUMPDEST PUSH1 0x6 SLOAD PUSH1 0x40 DUP1 MLOAD PUSH4 0x70A08231 PUSH1 0xE0 SHL DUP2 MSTORE ADDRESS PUSH1 0x4 DUP3 ADD MSTORE SWAP1 MLOAD SWAP3 SWAP4 POP DUP4 SWAP3 PUSH1 0x1 PUSH1 0x1 PUSH1 0xA0 SHL SUB SWAP1 SWAP3 AND SWAP2 PUSH4 0x70A08231 SWAP2 PUSH1 0x24 DUP1 DUP3 ADD SWAP3 PUSH1 0x20 SWAP3 SWAP1 SWAP2 SWAP1 DUP3 SWAP1 SUB ADD DUP2 DUP7 DUP1 EXTCODESIZE ISZERO DUP1 ISZERO PUSH2 0x13CF JUMPI PUSH1 0x0 DUP1 REVERT JUMPDEST POP GAS STATICCALL ISZERO DUP1 ISZERO PUSH2 0x13E3 JUMPI RETURNDATASIZE PUSH1 0x0 DUP1 RETURNDATACOPY RETURNDATASIZE PUSH1 0x0 REVERT JUMPDEST POP POP POP POP PUSH1 0x40 MLOAD RETURNDATASIZE PUSH1 0x20 DUP2 LT ISZERO PUSH2 0x13F9 JUMPI PUSH1 0x0 DUP1 REVERT JUMPDEST POP MLOAD LT ISZERO PUSH2 0x1438 JUMPI PUSH1 0x40 MLOAD PUSH3 0x461BCD PUSH1 0xE5 SHL DUP2 MSTORE PUSH1 0x4 ADD DUP1 DUP1 PUSH1 0x20 ADD DUP3 DUP2 SUB DUP3 MSTORE PUSH1 0x25 DUP2 MSTORE PUSH1 0x20 ADD DUP1 PUSH2 0x4975 PUSH1 0x25 SWAP2 CODECOPY PUSH1 0x40 ADD SWAP2 POP POP PUSH1 0x40 MLOAD DUP1 SWAP2 SUB SWAP1 REVERT JUMPDEST PUSH2 0x1450 PUSH2 0x1447 PUSH1 0xE SLOAD DUP4 PUSH2 0x3FA6 JUMP JUMPDEST PUSH1 0xE SLOAD SWAP1 PUSH2 0x3EB1 JUMP JUMPDEST PUSH1 0xE SSTORE PUSH1 0x7 SLOAD PUSH1 0x40 DUP1 MLOAD PUSH4 0x79CC679 PUSH1 0xE4 SHL DUP2 MSTORE CALLER PUSH1 0x4 DUP3 ADD MSTORE PUSH1 0x24 DUP2 ADD DUP9 SWAP1 MSTORE SWAP1 MLOAD PUSH1 0x1 PUSH1 0x1 PUSH1 0xA0 SHL SUB SWAP1 SWAP3 AND SWAP2 PUSH4 0x79CC6790 SWAP2 PUSH1 0x44 DUP1 DUP3 ADD SWAP3 PUSH1 0x0 SWAP3 SWAP1 SWAP2 SWAP1 DUP3 SWAP1 SUB ADD DUP2 DUP4 DUP8 DUP1 EXTCODESIZE ISZERO DUP1 ISZERO PUSH2 0x14A6 JUMPI PUSH1 0x0 DUP1 REVERT JUMPDEST POP GAS CALL ISZERO DUP1 ISZERO PUSH2 0x14BA JUMPI RETURNDATASIZE PUSH1 0x0 DUP1 RETURNDATACOPY RETURNDATASIZE PUSH1 0x0 REVERT JUMPDEST POP POP PUSH1 0x6 SLOAD PUSH2 0x14D6 SWAP3 POP PUSH1 0x1 PUSH1 0x1 PUSH1 0xA0 SHL SUB AND SWAP1 POP CALLER DUP4 PUSH2 0x3FBC JUMP JUMPDEST PUSH2 0x14DE PUSH2 0x400E JUMP JUMPDEST PUSH1 0x40 DUP1 MLOAD DUP3 DUP2 MSTORE PUSH1 0x20 DUP2 ADD DUP8 SWAP1 MSTORE DUP2 MLOAD CALLER SWAP3 PUSH32 0x51E0D16595CABC591E64DA08E45BB223577E5B9A39CD947B4DDC3472B2DD8878 SWAP3 DUP3 SWAP1 SUB ADD SWAP1 LOG2 POP POP NUMBER PUSH1 0x0 SWAP1 DUP2 MSTORE PUSH1 0x20 DUP2 DUP2 MSTORE PUSH1 0x40 DUP1 DUP4 KECCAK256 ORIGIN DUP5 MSTORE SWAP1 SWAP2 MSTORE DUP1 DUP3 KECCAK256 DUP1 SLOAD PUSH1 0x1 PUSH1 0xFF NOT SWAP2 DUP3 AND DUP2 OR SWAP1 SWAP3 SSTORE CALLER DUP5 MSTORE SWAP2 SWAP1 SWAP3 KECCAK256 DUP1 SLOAD SWAP1 SWAP2 AND SWAP1 SWAP2 OR SWAP1 SSTORE POP POP POP JUMP JUMPDEST PUSH1 0x1 SLOAD PUSH1 0x1 PUSH1 0xA0 SHL SWAP1 DIV PUSH1 0xFF AND ISZERO PUSH2 0x15B7 JUMPI PUSH1 0x40 DUP1 MLOAD PUSH3 0x461BCD PUSH1 0xE5 SHL DUP2 MSTORE PUSH1 0x20 PUSH1 0x4 DUP3 ADD MSTORE PUSH1 0x1D PUSH1 0x24 DUP3 ADD MSTORE PUSH32 0x54726561737572793A20616C726561647920696E697469616C697A6564000000 PUSH1 0x44 DUP3 ADD MSTORE SWAP1 MLOAD SWAP1 DUP2 SWAP1 SUB PUSH1 0x64 ADD SWAP1 REVERT JUMPDEST PUSH1 0x1 DUP1 SLOAD PUSH1 0xFF PUSH1 0xA0 SHL NOT AND PUSH1 0x1 PUSH1 0xA0 SHL OR SWAP1 SSTORE PUSH1 0x6 DUP1 SLOAD PUSH1 0x1 PUSH1 0x1 PUSH1 0xA0 SHL SUB DUP1 DUP11 AND PUSH1 0x1 PUSH1 0x1 PUSH1 0xA0 SHL SUB NOT SWAP3 DUP4 AND OR SWAP1 SWAP3 SSTORE PUSH1 0x7 DUP1 SLOAD DUP10 DUP5 AND SWAP1 DUP4 AND OR SWAP1 SSTORE PUSH1 0x8 DUP1 SLOAD DUP9 DUP5 AND SWAP1 DUP4 AND OR SWAP1 SSTORE PUSH1 0xB DUP1 SLOAD DUP8 DUP5 AND SWAP1 DUP4 AND OR SWAP1 SSTORE PUSH1 0x9 DUP1 SLOAD SWAP3 DUP7 AND SWAP3 SWAP1 SWAP2 AND SWAP2 SWAP1 SWAP2 OR SWAP1 SSTORE TIMESTAMP DUP2 GT PUSH2 0x165E JUMPI PUSH1 0x40 DUP1 MLOAD PUSH3 0x461BCD PUSH1 0xE5 SHL DUP2 MSTORE PUSH1 0x20 PUSH1 0x4 DUP1 DUP4 ADD SWAP2 SWAP1 SWAP2 MSTORE PUSH1 0x24 DUP3 ADD MSTORE PUSH4 0x6C617465 PUSH1 0xE0 SHL PUSH1 0x44 DUP3 ADD MSTORE SWAP1 MLOAD SWAP1 DUP2 SWAP1 SUB PUSH1 0x64 ADD SWAP1 REVERT JUMPDEST PUSH1 0x2 DUP2 SWAP1 SSTORE PUSH8 0xDE0B6B3A7640000 PUSH1 0xC DUP2 SWAP1 SSTORE PUSH2 0x1683 SWAP1 PUSH1 0x64 SWAP1 PUSH2 0xDF1 SWAP1 PUSH1 0x65 PUSH2 0x3DEA JUMP JUMPDEST PUSH1 0xD SSTORE PUSH1 0x5 DUP1 SLOAD PUSH1 0x1 DUP2 ADD DUP3 SSTORE PUSH1 0x0 SWAP2 DUP3 MSTORE PUSH32 0x36B6384B5ECA791C62761152D0C79BB0604C104A5FB6F4EB0703F3154BB3DB0 ADD DUP1 SLOAD PUSH1 0x1 PUSH1 0x1 PUSH1 0xA0 SHL SUB NOT AND PUSH1 0x1 PUSH1 0x1 PUSH1 0xA0 SHL SUB DUP6 AND OR SWAP1 SSTORE PUSH1 0x40 DUP1 MLOAD PUSH2 0x120 DUP2 ADD DUP3 MSTORE SWAP2 DUP3 MSTORE PUSH10 0x69E10DE76676D0800000 PUSH1 0x20 DUP4 ADD MSTORE PUSH10 0xD3C21BCECCEDA1000000 SWAP1 DUP3 ADD MSTORE PUSH11 0x13DA329B6336471800000 PUSH1 0x60 DUP3 ADD MSTORE PUSH11 0x1A784379D99DB42000000 PUSH1 0x80 DUP3 ADD MSTORE PUSH11 0x422CA8B0A00A425000000 PUSH1 0xA0 DUP3 ADD MSTORE PUSH11 0x84595161401484A000000 PUSH1 0xC0 DUP3 ADD MSTORE PUSH11 0x108B2A2C28029094000000 PUSH1 0xE0 DUP3 ADD MSTORE PUSH11 0x295BE96E64066972000000 PUSH2 0x100 DUP3 ADD MSTORE PUSH2 0x1772 SWAP1 PUSH1 0xF SWAP1 PUSH1 0x9 PUSH2 0x47F0 JUMP JUMPDEST POP PUSH1 0x40 DUP1 MLOAD PUSH2 0x120 DUP2 ADD DUP3 MSTORE PUSH2 0x1C2 DUP2 MSTORE PUSH2 0x190 PUSH1 0x20 DUP3 ADD MSTORE PUSH2 0x15E SWAP2 DUP2 ADD SWAP2 SWAP1 SWAP2 MSTORE PUSH2 0x12C PUSH1 0x60 DUP3 ADD MSTORE PUSH1 0xFA PUSH1 0x80 DUP3 ADD MSTORE PUSH1 0xC8 PUSH1 0xA0 DUP3 ADD MSTORE PUSH1 0x96 PUSH1 0xC0 DUP3 ADD MSTORE PUSH1 0x7D PUSH1 0xE0 DUP3 ADD MSTORE PUSH1 0x64 PUSH2 0x100 DUP3 ADD MSTORE PUSH2 0x17CF SWAP1 PUSH1 0x10 SWAP1 PUSH1 0x9 PUSH2 0x4846 JUMP JUMPDEST POP PUSH2 0x190 PUSH1 0x11 SSTORE PUSH2 0x2710 PUSH1 0x12 SSTORE PUSH2 0xDAC PUSH1 0x13 DUP2 SWAP1 SSTORE PUSH2 0x12C PUSH1 0x14 SSTORE PUSH1 0x15 SSTORE PUSH2 0x1F4 PUSH1 0x16 DUP2 SWAP1 SSTORE PUSH1 0x6E PUSH1 0x1D SSTORE PUSH2 0x1B58 PUSH1 0x1E SSTORE PUSH1 0xC PUSH1 0x17 SSTORE PUSH1 0x18 SSTORE PUSH1 0x6 SLOAD PUSH1 0x40 DUP1 MLOAD PUSH4 0x70A08231 PUSH1 0xE0 SHL DUP2 MSTORE ADDRESS PUSH1 0x4 DUP3 ADD MSTORE SWAP1 MLOAD PUSH1 0x1 PUSH1 0x1 PUSH1 0xA0 SHL SUB SWAP1 SWAP3 AND SWAP2 PUSH4 0x70A08231 SWAP2 PUSH1 0x24 DUP1 DUP3 ADD SWAP3 PUSH1 0x20 SWAP3 SWAP1 SWAP2 SWAP1 DUP3 SWAP1 SUB ADD DUP2 DUP7 DUP1 EXTCODESIZE ISZERO DUP1 ISZERO PUSH2 0x1853 JUMPI PUSH1 0x0 DUP1 REVERT JUMPDEST POP GAS STATICCALL ISZERO DUP1 ISZERO PUSH2 0x1867 JUMPI RETURNDATASIZE PUSH1 0x0 DUP1 RETURNDATACOPY RETURNDATASIZE PUSH1 0x0 REVERT JUMPDEST POP POP POP POP PUSH1 0x40 MLOAD RETURNDATASIZE PUSH1 0x20 DUP2 LT ISZERO PUSH2 0x187D JUMPI PUSH1 0x0 DUP1 REVERT JUMPDEST POP MLOAD PUSH1 0xE SSTORE PUSH1 0x1 DUP1 SLOAD PUSH1 0x1 PUSH1 0x1 PUSH1 0xA0 SHL SUB NOT AND CALLER SWAP1 DUP2 OR SWAP1 SWAP2 SSTORE PUSH1 0x40 DUP1 MLOAD NUMBER DUP2 MSTORE SWAP1 MLOAD PUSH32 0x25FF68DD81B34665B5BA7E553EE5511BF6812E12ADB4A7E2C0D9E26B3099CE79 SWAP2 DUP2 SWAP1 SUB PUSH1 0x20 ADD SWAP1 LOG2 POP POP POP POP POP POP POP JUMP JUMPDEST PUSH1 0x1 SLOAD PUSH1 0x1 PUSH1 0x1 PUSH1 0xA0 SHL SUB AND CALLER EQ PUSH2 0x191C JUMPI PUSH1 0x40 MLOAD PUSH3 0x461BCD PUSH1 0xE5 SHL DUP2 MSTORE PUSH1 0x4 ADD DUP1 DUP1 PUSH1 0x20 ADD DUP3 DUP2 SUB DUP3 MSTORE PUSH1 0x24 DUP2 MSTORE PUSH1 0x20 ADD DUP1 PUSH2 0x4A97 PUSH1 0x24 SWAP2 CODECOPY PUSH1 0x40 ADD SWAP2 POP POP PUSH1 0x40 MLOAD DUP1 SWAP2 SUB SWAP1 REVERT JUMPDEST PUSH2 0x4E20 DUP2 GT ISZERO PUSH2 0x1973 JUMPI PUSH1 0x40 DUP1 MLOAD PUSH3 0x461BCD PUSH1 0xE5 SHL DUP2 MSTORE PUSH1 0x20 PUSH1 0x4 DUP3 ADD MSTORE PUSH1 0x1D PUSH1 0x24 DUP3 ADD MSTORE PUSH32 0x5F646973636F756E7450657263656E74206973206F7665722032303025000000 PUSH1 0x44 DUP3 ADD MSTORE SWAP1 MLOAD SWAP1 DUP2 SWAP1 SUB PUSH1 0x64 ADD SWAP1 REVERT JUMPDEST PUSH1 0x1C SSTORE JUMP JUMPDEST PUSH1 0x1 SLOAD PUSH1 0x1 PUSH1 0xA0 SHL SWAP1 DIV PUSH1 0xFF AND DUP2 JUMP JUMPDEST PUSH1 0x13 SLOAD DUP2 JUMP JUMPDEST PUSH1 0x9 SLOAD PUSH1 0x40 DUP1 MLOAD PUSH4 0x335D00FF PUSH1 0xE0 SHL DUP2 MSTORE SWAP1 MLOAD PUSH1 0x0 SWAP3 PUSH1 0x1 PUSH1 0x1 PUSH1 0xA0 SHL SUB AND SWAP2 PUSH4 0x335D00FF SWAP2 PUSH1 0x4 DUP1 DUP4 ADD SWAP3 PUSH1 0x20 SWAP3 SWAP2 SWAP1 DUP3 SWAP1 SUB ADD DUP2 DUP7 DUP1 EXTCODESIZE ISZERO DUP1 ISZERO PUSH2 0xD75 JUMPI PUSH1 0x0 DUP1 REVERT JUMPDEST PUSH1 0x1C SLOAD DUP2 JUMP JUMPDEST PUSH1 0x19 SLOAD DUP2 JUMP JUMPDEST PUSH1 0x1B SLOAD DUP2 JUMP JUMPDEST PUSH1 0x16 SLOAD DUP2 JUMP JUMPDEST PUSH1 0x1 SLOAD PUSH1 0x1 PUSH1 0xA0 SHL SWAP1 DIV PUSH1 0xFF AND SWAP1 JUMP JUMPDEST PUSH1 0x8 SLOAD PUSH1 0x1 PUSH1 0x1 PUSH1 0xA0 SHL SUB AND DUP2 JUMP JUMPDEST PUSH1 0x1 SLOAD PUSH1 0x1 PUSH1 0x1 PUSH1 0xA0 SHL SUB AND CALLER EQ PUSH2 0x1A53 JUMPI PUSH1 0x40 MLOAD PUSH3 0x461BCD PUSH1 0xE5 SHL DUP2 MSTORE PUSH1 0x4 ADD DUP1 DUP1 PUSH1 0x20 ADD DUP3 DUP2 SUB DUP3 MSTORE PUSH1 0x24 DUP2 MSTORE PUSH1 0x20 ADD DUP1 PUSH2 0x4A97 PUSH1 0x24 SWAP2 CODECOPY PUSH1 0x40 ADD SWAP2 POP POP PUSH1 0x40 MLOAD DUP1 SWAP2 SUB SWAP1 REVERT JUMPDEST PUSH1 0x9 SLOAD PUSH1 0x40 DUP1 MLOAD PUSH4 0x97FFE1D7 PUSH1 0xE0 SHL DUP2 MSTORE PUSH1 0x4 DUP2 ADD DUP5 SWAP1 MSTORE SWAP1 MLOAD PUSH1 0x1 PUSH1 0x1 PUSH1 0xA0 SHL SUB SWAP1 SWAP3 AND SWAP2 PUSH4 0x97FFE1D7 SWAP2 PUSH1 0x24 DUP1 DUP3 ADD SWAP3 PUSH1 0x0 SWAP3 SWAP1 SWAP2 SWAP1 DUP3 SWAP1 SUB ADD DUP2 DUP4 DUP8 DUP1 EXTCODESIZE ISZERO DUP1 ISZERO PUSH2 0xC79 JUMPI PUSH1 0x0 DUP1 REVERT JUMPDEST PUSH1 0x1 SLOAD PUSH1 0x1 PUSH1 0x1 PUSH1 0xA0 SHL SUB AND CALLER EQ PUSH2 0x1AE9 JUMPI PUSH1 0x40 MLOAD PUSH3 0x461BCD PUSH1 0xE5 SHL DUP2 MSTORE PUSH1 0x4 ADD DUP1 DUP1 PUSH1 0x20 ADD DUP3 DUP2 SUB DUP3 MSTORE PUSH1 0x24 DUP2 MSTORE PUSH1 0x20 ADD DUP1 PUSH2 0x4A97 PUSH1 0x24 SWAP2 CODECOPY PUSH1 0x40 ADD SWAP2 POP POP PUSH1 0x40 MLOAD DUP1 SWAP2 SUB SWAP1 REVERT JUMPDEST PUSH1 0x2 SLOAD TIMESTAMP LT PUSH2 0x1B32 JUMPI PUSH1 0x40 DUP1 MLOAD PUSH3 0x461BCD PUSH1 0xE5 SHL DUP2 MSTORE PUSH1 0x20 PUSH1 0x4 DUP3 ADD MSTORE PUSH1 0x10 PUSH1 0x24 DUP3 ADD MSTORE PUSH16 0x20B63932B0B23C9039BA30B93A32B217 PUSH1 0x81 SHL PUSH1 0x44 DUP3 ADD MSTORE SWAP1 MLOAD SWAP1 DUP2 SWAP1 SUB PUSH1 0x64 ADD SWAP1 REVERT JUMPDEST DUP1 TIMESTAMP LT PUSH2 0x1B86 JUMPI PUSH1 0x40 DUP1 MLOAD PUSH3 0x461BCD PUSH1 0xE5 SHL DUP2 MSTORE PUSH1 0x20 PUSH1 0x4 DUP3 ADD MSTORE PUSH1 0x18 PUSH1 0x24 DUP3 ADD MSTORE PUSH32 0x54696D6520696E70757420697320746F6F206561726C792E0000000000000000 PUSH1 0x44 DUP3 ADD MSTORE SWAP1 MLOAD SWAP1 DUP2 SWAP1 SUB PUSH1 0x64 ADD SWAP1 REVERT JUMPDEST PUSH1 0x2 SSTORE JUMP JUMPDEST PUSH1 0x1F SLOAD DUP2 JUMP JUMPDEST PUSH1 0x1 SLOAD PUSH1 0x1 PUSH1 0x1 PUSH1 0xA0 SHL SUB AND CALLER EQ PUSH2 0x1BDA JUMPI PUSH1 0x40 MLOAD PUSH3 0x461BCD PUSH1 0xE5 SHL DUP2 MSTORE PUSH1 0x4 ADD DUP1 DUP1 PUSH1 0x20 ADD DUP3 DUP2 SUB DUP3 MSTORE PUSH1 0x24 DUP2 MSTORE PUSH1 0x20 ADD DUP1 PUSH2 0x4A97 PUSH1 0x24 SWAP2 CODECOPY PUSH1 0x40 ADD SWAP2 POP POP PUSH1 0x40 MLOAD DUP1 SWAP2 SUB SWAP1 REVERT JUMPDEST PUSH2 0x4E20 DUP2 GT ISZERO PUSH2 0x1C31 JUMPI PUSH1 0x40 DUP1 MLOAD PUSH3 0x461BCD PUSH1 0xE5 SHL DUP2 MSTORE PUSH1 0x20 PUSH1 0x4 DUP3 ADD MSTORE PUSH1 0x1C PUSH1 0x24 DUP3 ADD MSTORE PUSH32 0x5F7072656D69756D50657263656E74206973206F766572203230302500000000 PUSH1 0x44 DUP3 ADD MSTORE SWAP1 MLOAD SWAP1 DUP2 SWAP1 SUB PUSH1 0x64 ADD SWAP1 REVERT JUMPDEST PUSH1 0x1E SSTORE JUMP JUMPDEST PUSH1 0x22 SLOAD PUSH1 0x1 PUSH1 0x1 PUSH1 0xA0 SHL SUB AND DUP2 JUMP JUMPDEST PUSH1 0xB SLOAD PUSH1 0x6 SLOAD PUSH1 0x40 DUP1 MLOAD PUSH4 0x3DDAC953 PUSH1 0xE0 SHL DUP2 MSTORE PUSH1 0x1 PUSH1 0x1 PUSH1 0xA0 SHL SUB SWAP3 DUP4 AND PUSH1 0x4 DUP3 ADD MSTORE PUSH8 0xDE0B6B3A7640000 PUSH1 0x24 DUP3 ADD MSTORE SWAP1 MLOAD PUSH1 0x0 SWAP4 SWAP3 SWAP1 SWAP3 AND SWAP2 PUSH4 0x3DDAC953 SWAP2 PUSH1 0x44 DUP1 DUP3 ADD SWAP3 PUSH1 0x20 SWAP3 SWAP1 SWAP2 SWAP1 DUP3 SWAP1 SUB ADD DUP2 DUP7 DUP1 EXTCODESIZE ISZERO DUP1 ISZERO PUSH2 0x1CA7 JUMPI PUSH1 0x0 DUP1 REVERT JUMPDEST POP GAS STATICCALL SWAP3 POP POP POP DUP1 ISZERO PUSH2 0x1CCC JUMPI POP PUSH1 0x40 MLOAD RETURNDATASIZE PUSH1 0x20 DUP2 LT ISZERO PUSH2 0x1CC7 JUMPI PUSH1 0x0 DUP1 REVERT JUMPDEST POP MLOAD PUSH1 0x1 JUMPDEST PUSH2 0x1D07 JUMPI PUSH1 0x40 MLOAD PUSH3 0x461BCD PUSH1 0xE5 SHL DUP2 MSTORE PUSH1 0x4 ADD DUP1 DUP1 PUSH1 0x20 ADD DUP3 DUP2 SUB DUP3 MSTORE PUSH1 0x36 DUP2 MSTORE PUSH1 0x20 ADD DUP1 PUSH2 0x489D PUSH1 0x36 SWAP2 CODECOPY PUSH1 0x40 ADD SWAP2 POP POP PUSH1 0x40 MLOAD DUP1 SWAP2 SUB SWAP1 REVERT JUMPDEST PUSH18 0xFFFFFFFFFFFFFFFFFFFFFFFFFFFFFFFFFFFF AND SWAP1 POP PUSH2 0xDA4 JUMP JUMPDEST PUSH1 0x1 SLOAD PUSH1 0x1 PUSH1 0x1 PUSH1 0xA0 SHL SUB AND CALLER EQ PUSH2 0x1D6B JUMPI PUSH1 0x40 MLOAD PUSH3 0x461BCD PUSH1 0xE5 SHL DUP2 MSTORE PUSH1 0x4 ADD DUP1 DUP1 PUSH1 0x20 ADD DUP3 DUP2 SUB DUP3 MSTORE PUSH1 0x24 DUP2 MSTORE PUSH1 0x20 ADD DUP1 PUSH2 0x4A97 PUSH1 0x24 SWAP2 CODECOPY PUSH1 0x40 ADD SWAP2 POP POP PUSH1 0x40 MLOAD DUP1 SWAP2 SUB SWAP1 REVERT JUMPDEST PUSH2 0x2710 DUP2 LT ISZERO DUP1 ISZERO PUSH2 0x1D7F JUMPI POP PUSH2 0x4E20 DUP2 GT ISZERO JUMPDEST PUSH2 0x1DBA JUMPI PUSH1 0x40 MLOAD PUSH3 0x461BCD PUSH1 0xE5 SHL DUP2 MSTORE PUSH1 0x4 ADD DUP1 DUP1 PUSH1 0x20 ADD DUP3 DUP2 SUB DUP3 MSTORE PUSH1 0x29 DUP2 MSTORE PUSH1 0x20 ADD DUP1 PUSH2 0x49EB PUSH1 0x29 SWAP2 CODECOPY PUSH1 0x40 ADD SWAP2 POP POP PUSH1 0x40 MLOAD DUP1 SWAP2 SUB SWAP1 REVERT JUMPDEST PUSH1 0x1F SSTORE JUMP JUMPDEST PUSH1 0x0 DUP1 PUSH2 0x1DCA PUSH2 0x1C45 JUMP JUMPDEST SWAP1 POP PUSH1 0xC SLOAD DUP2 GT PUSH2 0xE55 JUMPI PUSH1 0x0 PUSH2 0x1DDF PUSH2 0x3BBD JUMP JUMPDEST SWAP1 POP PUSH1 0x0 PUSH2 0x1DFE PUSH2 0x2710 PUSH2 0xDF1 PUSH1 0x15 SLOAD DUP6 PUSH2 0x3DEA SWAP1 SWAP2 SWAP1 PUSH4 0xFFFFFFFF AND JUMP JUMPDEST SWAP1 POP PUSH1 0x0 PUSH1 0x7 PUSH1 0x0 SWAP1 SLOAD SWAP1 PUSH2 0x100 EXP SWAP1 DIV PUSH1 0x1 PUSH1 0x1 PUSH1 0xA0 SHL SUB AND PUSH1 0x1 PUSH1 0x1 PUSH1 0xA0 SHL SUB AND PUSH4 0x18160DDD PUSH1 0x40 MLOAD DUP2 PUSH4 0xFFFFFFFF AND PUSH1 0xE0 SHL DUP2 MSTORE PUSH1 0x4 ADD PUSH1 0x20 PUSH1 0x40 MLOAD DUP1 DUP4 SUB DUP2 DUP7 DUP1 EXTCODESIZE ISZERO DUP1 ISZERO PUSH2 0x1E50 JUMPI PUSH1 0x0 DUP1 REVERT JUMPDEST POP GAS STATICCALL ISZERO DUP1 ISZERO PUSH2 0x1E64 JUMPI RETURNDATASIZE PUSH1 0x0 DUP1 RETURNDATACOPY RETURNDATASIZE PUSH1 0x0 REVERT JUMPDEST POP POP POP POP PUSH1 0x40 MLOAD RETURNDATASIZE PUSH1 0x20 DUP2 LT ISZERO PUSH2 0x1E7A JUMPI PUSH1 0x0 DUP1 REVERT JUMPDEST POP MLOAD SWAP1 POP DUP1 DUP3 GT ISZERO PUSH2 0x1EBF JUMPI PUSH1 0x0 PUSH2 0x1E92 DUP4 DUP4 PUSH2 0x3EB1 JUMP JUMPDEST SWAP1 POP PUSH1 0x0 PUSH2 0x1EAC PUSH8 0xDE0B6B3A7640000 PUSH2 0xDF1 DUP5 DUP10 PUSH2 0x3DEA JUMP JUMPDEST SWAP1 POP PUSH2 0x1EBA PUSH1 0x4 SLOAD DUP3 PUSH2 0x3FA6 JUMP JUMPDEST SWAP7 POP POP POP JUMPDEST POP POP POP POP SWAP1 JUMP JUMPDEST PUSH1 0x1 SLOAD PUSH1 0x1 PUSH1 0x1 PUSH1 0xA0 SHL SUB AND CALLER EQ PUSH2 0x1F0F JUMPI PUSH1 0x40 MLOAD PUSH3 0x461BCD PUSH1 0xE5 SHL DUP2 MSTORE PUSH1 0x4 ADD DUP1 DUP1 PUSH1 0x20 ADD DUP3 DUP2 SUB DUP3 MSTORE PUSH1 0x24 DUP2 MSTORE PUSH1 0x20 ADD DUP1 PUSH2 0x4A97 PUSH1 0x24 SWAP2 CODECOPY PUSH1 0x40 ADD SWAP2 POP POP PUSH1 0x40 MLOAD DUP1 SWAP2 SUB SWAP1 REVERT JUMPDEST PUSH1 0x6 SLOAD PUSH1 0x1 PUSH1 0x1 PUSH1 0xA0 SHL SUB DUP5 DUP2 AND SWAP2 AND EQ ISZERO PUSH2 0x1F5B JUMPI PUSH1 0x40 DUP1 MLOAD PUSH3 0x461BCD PUSH1 0xE5 SHL DUP2 MSTORE PUSH1 0x20 PUSH1 0x4 DUP1 DUP4 ADD SWAP2 SWAP1 SWAP2 MSTORE PUSH1 0x24 DUP3 ADD MSTORE PUSH4 0x67616D65 PUSH1 0xE0 SHL PUSH1 0x44 DUP3 ADD MSTORE SWAP1 MLOAD SWAP1 DUP2 SWAP1 SUB PUSH1 0x64 ADD SWAP1 REVERT JUMPDEST PUSH1 0x7 SLOAD PUSH1 0x1 PUSH1 0x1 PUSH1 0xA0 SHL SUB DUP5 DUP2 AND SWAP2 AND EQ ISZERO PUSH2 0x1FA7 JUMPI PUSH1 0x40 DUP1 MLOAD PUSH3 0x461BCD PUSH1 0xE5 SHL DUP2 MSTORE PUSH1 0x20 PUSH1 0x4 DUP1 DUP4 ADD SWAP2 SWAP1 SWAP2 MSTORE PUSH1 0x24 DUP3 ADD MSTORE PUSH4 0x189BDB99 PUSH1 0xE2 SHL PUSH1 0x44 DUP3 ADD MSTORE SWAP1 MLOAD SWAP1 DUP2 SWAP1 SUB PUSH1 0x64 ADD SWAP1 REVERT JUMPDEST PUSH1 0x8 SLOAD PUSH1 0x1 PUSH1 0x1 PUSH1 0xA0 SHL SUB DUP5 DUP2 AND SWAP2 AND EQ ISZERO PUSH2 0x1FF2 JUMPI PUSH1 0x40 DUP1 MLOAD PUSH3 0x461BCD PUSH1 0xE5 SHL DUP2 MSTORE PUSH1 0x20 PUSH1 0x4 DUP3 ADD MSTORE PUSH1 0x5 PUSH1 0x24 DUP3 ADD MSTORE PUSH5 0x7368617265 PUSH1 0xD8 SHL PUSH1 0x44 DUP3 ADD MSTORE SWAP1 MLOAD SWAP1 DUP2 SWAP1 SUB PUSH1 0x64 ADD SWAP1 REVERT JUMPDEST PUSH2 0x2006 PUSH1 0x1 PUSH1 0x1 PUSH1 0xA0 SHL SUB DUP5 AND DUP3 DUP5 PUSH2 0x3FBC JUMP JUMPDEST POP POP POP JUMP JUMPDEST PUSH2 0x2013 PUSH2 0x3F68 JUMP JUMPDEST ISZERO PUSH2 0x204F JUMPI PUSH1 0x40 MLOAD PUSH3 0x461BCD PUSH1 0xE5 SHL DUP2 MSTORE PUSH1 0x4 ADD DUP1 DUP1 PUSH1 0x20 ADD DUP3 DUP2 SUB DUP3 MSTORE PUSH1 0x26 DUP2 MSTORE PUSH1 0x20 ADD DUP1 PUSH2 0x4AE5 PUSH1 0x26 SWAP2 CODECOPY PUSH1 0x40 ADD SWAP2 POP POP PUSH1 0x40 MLOAD DUP1 SWAP2 SUB SWAP1 REVERT JUMPDEST PUSH2 0x2057 PUSH2 0x3F87 JUMP JUMPDEST ISZERO PUSH2 0x2093 JUMPI PUSH1 0x40 MLOAD PUSH3 0x461BCD PUSH1 0xE5 SHL DUP2 MSTORE PUSH1 0x4 ADD DUP1 DUP1 PUSH1 0x20 ADD DUP3 DUP2 SUB DUP3 MSTORE PUSH1 0x26 DUP2 MSTORE PUSH1 0x20 ADD DUP1 PUSH2 0x4AE5 PUSH1 0x26 SWAP2 CODECOPY PUSH1 0x40 ADD SWAP2 POP POP PUSH1 0x40 MLOAD DUP1 SWAP2 SUB SWAP1 REVERT JUMPDEST PUSH1 0x2 SLOAD TIMESTAMP LT ISZERO PUSH2 0x20E6 JUMPI PUSH1 0x40 DUP1 MLOAD PUSH3 0x461BCD PUSH1 0xE5 SHL DUP2 MSTORE PUSH1 0x20 PUSH1 0x4 DUP3 ADD MSTORE PUSH1 0x19 PUSH1 0x24 DUP3 ADD MSTORE PUSH25 0x151C99585CDD5C9E4E881B9BDD081CDD185C9D1959081E595D PUSH1 0x3A SHL PUSH1 0x44 DUP3 ADD MSTORE SWAP1 MLOAD SWAP1 DUP2 SWAP1 SUB PUSH1 0x64 ADD SWAP1 REVERT JUMPDEST PUSH1 0x6 SLOAD PUSH1 0x40 DUP1 MLOAD PUSH4 0x570CA735 PUSH1 0xE0 SHL DUP2 MSTORE SWAP1 MLOAD ADDRESS SWAP3 PUSH1 0x1 PUSH1 0x1 PUSH1 0xA0 SHL SUB AND SWAP2 PUSH4 0x570CA735 SWAP2 PUSH1 0x4 DUP1 DUP4 ADD SWAP3 PUSH1 0x20 SWAP3 SWAP2 SWAP1 DUP3 SWAP1 SUB ADD DUP2 DUP7 DUP1 EXTCODESIZE ISZERO DUP1 ISZERO PUSH2 0x212A JUMPI PUSH1 0x0 DUP1 REVERT JUMPDEST POP GAS STATICCALL ISZERO DUP1 ISZERO PUSH2 0x213E JUMPI RETURNDATASIZE PUSH1 0x0 DUP1 RETURNDATACOPY RETURNDATASIZE PUSH1 0x0 REVERT JUMPDEST POP POP POP POP PUSH1 0x40 MLOAD RETURNDATASIZE PUSH1 0x20 DUP2 LT ISZERO PUSH2 0x2154 JUMPI PUSH1 0x0 DUP1 REVERT JUMPDEST POP MLOAD PUSH1 0x1 PUSH1 0x1 PUSH1 0xA0 SHL SUB AND EQ DUP1 ISZERO PUSH2 0x21E2 JUMPI POP PUSH1 0x7 SLOAD PUSH1 0x40 DUP1 MLOAD PUSH4 0x570CA735 PUSH1 0xE0 SHL DUP2 MSTORE SWAP1 MLOAD ADDRESS SWAP3 PUSH1 0x1 PUSH1 0x1 PUSH1 0xA0 SHL SUB AND SWAP2 PUSH4 0x570CA735 SWAP2 PUSH1 0x4 DUP1 DUP4 ADD SWAP3 PUSH1 0x20 SWAP3 SWAP2 SWAP1 DUP3 SWAP1 SUB ADD DUP2 DUP7 DUP1 EXTCODESIZE ISZERO DUP1 ISZERO PUSH2 0x21AB JUMPI PUSH1 0x0 DUP1 REVERT JUMPDEST POP GAS STATICCALL ISZERO DUP1 ISZERO PUSH2 0x21BF JUMPI RETURNDATASIZE PUSH1 0x0 DUP1 RETURNDATACOPY RETURNDATASIZE PUSH1 0x0 REVERT JUMPDEST POP POP POP POP PUSH1 0x40 MLOAD RETURNDATASIZE PUSH1 0x20 DUP2 LT ISZERO PUSH2 0x21D5 JUMPI PUSH1 0x0 DUP1 REVERT JUMPDEST POP MLOAD PUSH1 0x1 PUSH1 0x1 PUSH1 0xA0 SHL SUB AND EQ JUMPDEST DUP1 ISZERO PUSH2 0x2264 JUMPI POP PUSH1 0x8 SLOAD PUSH1 0x40 DUP1 MLOAD PUSH4 0x570CA735 PUSH1 0xE0 SHL DUP2 MSTORE SWAP1 MLOAD ADDRESS SWAP3 PUSH1 0x1 PUSH1 0x1 PUSH1 0xA0 SHL SUB AND SWAP2 PUSH4 0x570CA735 SWAP2 PUSH1 0x4 DUP1 DUP4 ADD SWAP3 PUSH1 0x20 SWAP3 SWAP2 SWAP1 DUP3 SWAP1 SUB ADD DUP2 DUP7 DUP1 EXTCODESIZE ISZERO DUP1 ISZERO PUSH2 0x222D JUMPI PUSH1 0x0 DUP1 REVERT JUMPDEST POP GAS STATICCALL ISZERO DUP1 ISZERO PUSH2 0x2241 JUMPI RETURNDATASIZE PUSH1 0x0 DUP1 RETURNDATACOPY RETURNDATASIZE PUSH1 0x0 REVERT JUMPDEST POP POP POP POP PUSH1 0x40 MLOAD RETURNDATASIZE PUSH1 0x20 DUP2 LT ISZERO PUSH2 0x2257 JUMPI PUSH1 0x0 DUP1 REVERT JUMPDEST POP MLOAD PUSH1 0x1 PUSH1 0x1 PUSH1 0xA0 SHL SUB AND EQ JUMPDEST DUP1 ISZERO PUSH2 0x22E6 JUMPI POP PUSH1 0x9 SLOAD PUSH1 0x40 DUP1 MLOAD PUSH4 0x570CA735 PUSH1 0xE0 SHL DUP2 MSTORE SWAP1 MLOAD ADDRESS SWAP3 PUSH1 0x1 PUSH1 0x1 PUSH1 0xA0 SHL SUB AND SWAP2 PUSH4 0x570CA735 SWAP2 PUSH1 0x4 DUP1 DUP4 ADD SWAP3 PUSH1 0x20 SWAP3 SWAP2 SWAP1 DUP3 SWAP1 SUB ADD DUP2 DUP7 DUP1 EXTCODESIZE ISZERO DUP1 ISZERO PUSH2 0x22AF JUMPI PUSH1 0x0 DUP1 REVERT JUMPDEST POP GAS STATICCALL ISZERO DUP1 ISZERO PUSH2 0x22C3 JUMPI RETURNDATASIZE PUSH1 0x0 DUP1 RETURNDATACOPY RETURNDATASIZE PUSH1 0x0 REVERT JUMPDEST POP POP POP POP PUSH1 0x40 MLOAD RETURNDATASIZE PUSH1 0x20 DUP2 LT ISZERO PUSH2 0x22D9 JUMPI PUSH1 0x0 DUP1 REVERT JUMPDEST POP MLOAD PUSH1 0x1 PUSH1 0x1 PUSH1 0xA0 SHL SUB AND EQ JUMPDEST PUSH2 0x2337 JUMPI PUSH1 0x40 DUP1 MLOAD PUSH3 0x461BCD PUSH1 0xE5 SHL DUP2 MSTORE PUSH1 0x20 PUSH1 0x4 DUP3 ADD MSTORE PUSH1 0x1E PUSH1 0x24 DUP3 ADD MSTORE PUSH32 0x54726561737572793A206E656564206D6F7265207065726D697373696F6E0000 PUSH1 0x44 DUP3 ADD MSTORE SWAP1 MLOAD SWAP1 DUP2 SWAP1 SUB PUSH1 0x64 ADD SWAP1 REVERT JUMPDEST PUSH1 0x0 DUP3 GT PUSH2 0x2376 JUMPI PUSH1 0x40 MLOAD PUSH3 0x461BCD PUSH1 0xE5 SHL DUP2 MSTORE PUSH1 0x4 ADD DUP1 DUP1 PUSH1 0x20 ADD DUP3 DUP2 SUB DUP3 MSTORE PUSH1 0x30 DUP2 MSTORE PUSH1 0x20 ADD DUP1 PUSH2 0x49BB PUSH1 0x30 SWAP2 CODECOPY PUSH1 0x40 ADD SWAP2 POP POP PUSH1 0x40 MLOAD DUP1 SWAP2 SUB SWAP1 REVERT JUMPDEST PUSH1 0x0 PUSH2 0x2380 PUSH2 0x1C45 JUMP JUMPDEST SWAP1 POP DUP2 DUP2 EQ PUSH2 0x23D6 JUMPI PUSH1 0x40 DUP1 MLOAD PUSH3 0x461BCD PUSH1 0xE5 SHL DUP2 MSTORE PUSH1 0x20 PUSH1 0x4 DUP3 ADD MSTORE PUSH1 0x1A PUSH1 0x24 DUP3 ADD MSTORE PUSH32 0x54726561737572793A2047414D45207072696365206D6F766564000000000000 PUSH1 0x44 DUP3 ADD MSTORE SWAP1 MLOAD SWAP1 DUP2 SWAP1 SUB PUSH1 0x64 ADD SWAP1 REVERT JUMPDEST PUSH1 0xC SLOAD DUP2 LT PUSH2 0x2416 JUMPI PUSH1 0x40 MLOAD PUSH3 0x461BCD PUSH1 0xE5 SHL DUP2 MSTORE PUSH1 0x4 ADD DUP1 DUP1 PUSH1 0x20 ADD DUP3 DUP2 SUB DUP3 MSTORE PUSH1 0x32 DUP2 MSTORE PUSH1 0x20 ADD DUP1 PUSH2 0x4A65 PUSH1 0x32 SWAP2 CODECOPY PUSH1 0x40 ADD SWAP2 POP POP PUSH1 0x40 MLOAD DUP1 SWAP2 SUB SWAP1 REVERT JUMPDEST PUSH1 0x4 SLOAD DUP4 GT ISZERO PUSH2 0x2457 JUMPI PUSH1 0x40 MLOAD PUSH3 0x461BCD PUSH1 0xE5 SHL DUP2 MSTORE PUSH1 0x4 ADD DUP1 DUP1 PUSH1 0x20 ADD DUP3 DUP2 SUB DUP3 MSTORE PUSH1 0x2A DUP2 MSTORE PUSH1 0x20 ADD DUP1 PUSH2 0x4B41 PUSH1 0x2A SWAP2 CODECOPY PUSH1 0x40 ADD SWAP2 POP POP PUSH1 0x40 MLOAD DUP1 SWAP2 SUB SWAP1 REVERT JUMPDEST PUSH1 0x0 PUSH2 0x2461 PUSH2 0xDA7 JUMP JUMPDEST SWAP1 POP PUSH1 0x0 DUP2 GT PUSH2 0x24B8 JUMPI PUSH1 0x40 DUP1 MLOAD PUSH3 0x461BCD PUSH1 0xE5 SHL DUP2 MSTORE PUSH1 0x20 PUSH1 0x4 DUP3 ADD MSTORE PUSH1 0x1B PUSH1 0x24 DUP3 ADD MSTORE PUSH32 0x54726561737572793A20696E76616C696420626F6E6420726174650000000000 PUSH1 0x44 DUP3 ADD MSTORE SWAP1 MLOAD SWAP1 DUP2 SWAP1 SUB PUSH1 0x64 ADD SWAP1 REVERT JUMPDEST PUSH1 0x0 PUSH2 0x24D0 PUSH8 0xDE0B6B3A7640000 PUSH2 0xDF1 DUP8 DUP6 PUSH2 0x3DEA JUMP JUMPDEST SWAP1 POP PUSH1 0x0 PUSH2 0x24DC PUSH2 0x3BBD JUMP JUMPDEST SWAP1 POP PUSH1 0x0 PUSH2 0x2564 DUP4 PUSH1 0x7 PUSH1 0x0 SWAP1 SLOAD SWAP1 PUSH2 0x100 EXP SWAP1 DIV PUSH1 0x1 PUSH1 0x1 PUSH1 0xA0 SHL SUB AND PUSH1 0x1 PUSH1 0x1 PUSH1 0xA0 SHL SUB AND PUSH4 0x18160DDD PUSH1 0x40 MLOAD DUP2 PUSH4 0xFFFFFFFF AND PUSH1 0xE0 SHL DUP2 MSTORE PUSH1 0x4 ADD PUSH1 0x20 PUSH1 0x40 MLOAD DUP1 DUP4 SUB DUP2 DUP7 DUP1 EXTCODESIZE ISZERO DUP1 ISZERO PUSH2 0x2532 JUMPI PUSH1 0x0 DUP1 REVERT JUMPDEST POP GAS STATICCALL ISZERO DUP1 ISZERO PUSH2 0x2546 JUMPI RETURNDATASIZE PUSH1 0x0 DUP1 RETURNDATACOPY RETURNDATASIZE PUSH1 0x0 REVERT JUMPDEST POP POP POP POP PUSH1 0x40 MLOAD RETURNDATASIZE PUSH1 0x20 DUP2 LT ISZERO PUSH2 0x255C JUMPI PUSH1 0x0 DUP1 REVERT JUMPDEST POP MLOAD SWAP1 PUSH2 0x3F0E JUMP JUMPDEST SWAP1 POP PUSH2 0x2581 PUSH2 0x2710 PUSH2 0xDF1 PUSH1 0x15 SLOAD DUP6 PUSH2 0x3DEA SWAP1 SWAP2 SWAP1 PUSH4 0xFFFFFFFF AND JUMP JUMPDEST DUP2 GT ISZERO PUSH2 0x25CB JUMPI PUSH1 0x40 DUP1 MLOAD PUSH3 0x461BCD PUSH1 0xE5 SHL DUP2 MSTORE PUSH1 0x20 PUSH1 0x4 DUP3 ADD MSTORE PUSH1 0x13 PUSH1 0x24 DUP3 ADD MSTORE PUSH19 0x6F766572206D6178206465627420726174696F PUSH1 0x68 SHL PUSH1 0x44 DUP3 ADD MSTORE SWAP1 MLOAD SWAP1 DUP2 SWAP1 SUB PUSH1 0x64 ADD SWAP1 REVERT JUMPDEST PUSH1 0x6 SLOAD PUSH1 0x40 DUP1 MLOAD PUSH4 0x79CC679 PUSH1 0xE4 SHL DUP2 MSTORE CALLER PUSH1 0x4 DUP3 ADD MSTORE PUSH1 0x24 DUP2 ADD DUP11 SWAP1 MSTORE SWAP1 MLOAD PUSH1 0x1 PUSH1 0x1 PUSH1 0xA0 SHL SUB SWAP1 SWAP3 AND SWAP2 PUSH4 0x79CC6790 SWAP2 PUSH1 0x44 DUP1 DUP3 ADD SWAP3 PUSH1 0x0 SWAP3 SWAP1 SWAP2 SWAP1 DUP3 SWAP1 SUB ADD DUP2 DUP4 DUP8 DUP1 EXTCODESIZE ISZERO DUP1 ISZERO PUSH2 0x261E JUMPI PUSH1 0x0 DUP1 REVERT JUMPDEST POP GAS CALL ISZERO DUP1 ISZERO PUSH2 0x2632 JUMPI RETURNDATASIZE PUSH1 0x0 DUP1 RETURNDATACOPY RETURNDATASIZE PUSH1 0x0 REVERT JUMPDEST POP POP PUSH1 0x7 SLOAD PUSH1 0x40 DUP1 MLOAD PUSH4 0x40C10F19 PUSH1 0xE0 SHL DUP2 MSTORE CALLER PUSH1 0x4 DUP3 ADD MSTORE PUSH1 0x24 DUP2 ADD DUP9 SWAP1 MSTORE SWAP1 MLOAD PUSH1 0x1 PUSH1 0x1 PUSH1 0xA0 SHL SUB SWAP1 SWAP3 AND SWAP4 POP PUSH4 0x40C10F19 SWAP3 POP PUSH1 0x44 DUP1 DUP3 ADD SWAP3 PUSH1 0x20 SWAP3 SWAP1 SWAP2 SWAP1 DUP3 SWAP1 SUB ADD DUP2 PUSH1 0x0 DUP8 DUP1 EXTCODESIZE ISZERO DUP1 ISZERO PUSH2 0x268A JUMPI PUSH1 0x0 DUP1 REVERT JUMPDEST POP GAS CALL ISZERO DUP1 ISZERO PUSH2 0x269E JUMPI RETURNDATASIZE PUSH1 0x0 DUP1 RETURNDATACOPY RETURNDATASIZE PUSH1 0x0 REVERT JUMPDEST POP POP POP POP PUSH1 0x40 MLOAD RETURNDATASIZE PUSH1 0x20 DUP2 LT ISZERO PUSH2 0x26B4 JUMPI PUSH1 0x0 DUP1 REVERT JUMPDEST POP POP PUSH1 0x4 SLOAD PUSH2 0x26C3 SWAP1 DUP9 PUSH2 0x3EB1 JUMP JUMPDEST PUSH1 0x4 SSTORE PUSH2 0x26CE PUSH2 0x400E JUMP JUMPDEST PUSH1 0x40 DUP1 MLOAD DUP9 DUP2 MSTORE PUSH1 0x20 DUP2 ADD DUP6 SWAP1 MSTORE DUP2 MLOAD CALLER SWAP3 PUSH32 0x73017F1B70789E2E66759EEB3C7EC11F59E6EEDB55D921CFAEC5410DD42A4799 SWAP3 DUP3 SWAP1 SUB ADD SWAP1 LOG2 POP POP NUMBER PUSH1 0x0 SWAP1 DUP2 MSTORE PUSH1 0x20 DUP2 DUP2 MSTORE PUSH1 0x40 DUP1 DUP4 KECCAK256 ORIGIN DUP5 MSTORE SWAP1 SWAP2 MSTORE DUP1 DUP3 KECCAK256 DUP1 SLOAD PUSH1 0x1 PUSH1 0xFF NOT SWAP2 DUP3 AND DUP2 OR SWAP1 SWAP3 SSTORE CALLER DUP5 MSTORE SWAP2 SWAP1 SWAP3 KECCAK256 DUP1 SLOAD SWAP1 SWAP2 AND SWAP1 SWAP2 OR SWAP1 SSTORE POP POP POP POP POP JUMP JUMPDEST PUSH1 0xD SLOAD DUP2 JUMP JUMPDEST PUSH1 0x21 SLOAD DUP2 JUMP JUMPDEST PUSH1 0x1 SLOAD PUSH1 0x1 PUSH1 0x1 PUSH1 0xA0 SHL SUB AND DUP2 JUMP JUMPDEST PUSH1 0x1 SLOAD PUSH1 0x1 PUSH1 0x1 PUSH1 0xA0 SHL SUB AND CALLER EQ PUSH2 0x27AE JUMPI PUSH1 0x40 MLOAD PUSH3 0x461BCD PUSH1 0xE5 SHL DUP2 MSTORE PUSH1 0x4 ADD DUP1 DUP1 PUSH1 0x20 ADD DUP3 DUP2 SUB DUP3 MSTORE PUSH1 0x24 DUP2 MSTORE PUSH1 0x20 ADD DUP1 PUSH2 0x4A97 PUSH1 0x24 SWAP2 CODECOPY PUSH1 0x40 ADD SWAP2 POP POP PUSH1 0x40 MLOAD DUP1 SWAP2 SUB SWAP1 REVERT JUMPDEST PUSH2 0x3E8 DUP2 LT ISZERO DUP1 ISZERO PUSH2 0x27C2 JUMPI POP PUSH2 0x2710 DUP2 GT ISZERO JUMPDEST PUSH2 0x2802 JUMPI PUSH1 0x40 DUP1 MLOAD PUSH3 0x461BCD PUSH1 0xE5 SHL DUP2 MSTORE PUSH1 0x20 PUSH1 0x4 DUP3 ADD MSTORE PUSH1 0xC PUSH1 0x24 DUP3 ADD MSTORE PUSH12 0x6F7574206F662072616E6765 PUSH1 0xA0 SHL PUSH1 0x44 DUP3 ADD MSTORE SWAP1 MLOAD SWAP1 DUP2 SWAP1 SUB PUSH1 0x64 ADD SWAP1 REVERT JUMPDEST PUSH1 0x15 SSTORE JUMP JUMPDEST PUSH1 0xE SLOAD SWAP1 JUMP JUMPDEST PUSH1 0xE SLOAD DUP2 JUMP JUMPDEST PUSH2 0x281B PUSH2 0x3F68 JUMP JUMPDEST ISZERO PUSH2 0x2857 JUMPI PUSH1 0x40 MLOAD PUSH3 0x461BCD PUSH1 0xE5 SHL DUP2 MSTORE PUSH1 0x4 ADD DUP1 DUP1 PUSH1 0x20 ADD DUP3 DUP2 SUB DUP3 MSTORE PUSH1 0x26 DUP2 MSTORE PUSH1 0x20 ADD DUP1 PUSH2 0x4AE5 PUSH1 0x26 SWAP2 CODECOPY PUSH1 0x40 ADD SWAP2 POP POP PUSH1 0x40 MLOAD DUP1 SWAP2 SUB SWAP1 REVERT JUMPDEST PUSH2 0x285F PUSH2 0x3F87 JUMP JUMPDEST ISZERO PUSH2 0x289B JUMPI PUSH1 0x40 MLOAD PUSH3 0x461BCD PUSH1 0xE5 SHL DUP2 MSTORE PUSH1 0x4 ADD DUP1 DUP1 PUSH1 0x20 ADD DUP3 DUP2 SUB DUP3 MSTORE PUSH1 0x26 DUP2 MSTORE PUSH1 0x20 ADD DUP1 PUSH2 0x4AE5 PUSH1 0x26 SWAP2 CODECOPY PUSH1 0x40 ADD SWAP2 POP POP PUSH1 0x40 MLOAD DUP1 SWAP2 SUB SWAP1 REVERT JUMPDEST PUSH1 0x2 SLOAD TIMESTAMP LT ISZERO PUSH2 0x28EE JUMPI PUSH1 0x40 DUP1 MLOAD PUSH3 0x461BCD PUSH1 0xE5 SHL DUP2 MSTORE PUSH1 0x20 PUSH1 0x4 DUP3 ADD MSTORE PUSH1 0x19 PUSH1 0x24 DUP3 ADD MSTORE PUSH25 0x151C99585CDD5C9E4E881B9BDD081CDD185C9D1959081E595D PUSH1 0x3A SHL PUSH1 0x44 DUP3 ADD MSTORE SWAP1 MLOAD SWAP1 DUP2 SWAP1 SUB PUSH1 0x64 ADD SWAP1 REVERT JUMPDEST PUSH2 0x28F6 PUSH2 0x381E JUMP JUMPDEST TIMESTAMP LT ISZERO PUSH2 0x294A JUMPI PUSH1 0x40 DUP1 MLOAD PUSH3 0x461BCD PUSH1 0xE5 SHL DUP2 MSTORE PUSH1 0x20 PUSH1 0x4 DUP3 ADD MSTORE PUSH1 0x18 PUSH1 0x24 DUP3 ADD MSTORE PUSH32 0x54726561737572793A206E6F74206F70656E6564207965740000000000000000 PUSH1 0x44 DUP3 ADD MSTORE SWAP1 MLOAD SWAP1 DUP2 SWAP1 SUB PUSH1 0x64 ADD SWAP1 REVERT JUMPDEST PUSH1 0x6 SLOAD PUSH1 0x40 DUP1 MLOAD PUSH4 0x570CA735 PUSH1 0xE0 SHL DUP2 MSTORE SWAP1 MLOAD ADDRESS SWAP3 PUSH1 0x1 PUSH1 0x1 PUSH1 0xA0 SHL SUB AND SWAP2 PUSH4 0x570CA735 SWAP2 PUSH1 0x4 DUP1 DUP4 ADD SWAP3 PUSH1 0x20 SWAP3 SWAP2 SWAP1 DUP3 SWAP1 SUB ADD DUP2 DUP7 DUP1 EXTCODESIZE ISZERO DUP1 ISZERO PUSH2 0x298E JUMPI PUSH1 0x0 DUP1 REVERT JUMPDEST POP GAS STATICCALL ISZERO DUP1 ISZERO PUSH2 0x29A2 JUMPI RETURNDATASIZE PUSH1 0x0 DUP1 RETURNDATACOPY RETURNDATASIZE PUSH1 0x0 REVERT JUMPDEST POP POP POP POP PUSH1 0x40 MLOAD RETURNDATASIZE PUSH1 0x20 DUP2 LT ISZERO PUSH2 0x29B8 JUMPI PUSH1 0x0 DUP1 REVERT JUMPDEST POP MLOAD PUSH1 0x1 PUSH1 0x1 PUSH1 0xA0 SHL SUB AND EQ DUP1 ISZERO PUSH2 0x2A46 JUMPI POP PUSH1 0x7 SLOAD PUSH1 0x40 DUP1 MLOAD PUSH4 0x570CA735 PUSH1 0xE0 SHL DUP2 MSTORE SWAP1 MLOAD ADDRESS SWAP3 PUSH1 0x1 PUSH1 0x1 PUSH1 0xA0 SHL SUB AND SWAP2 PUSH4 0x570CA735 SWAP2 PUSH1 0x4 DUP1 DUP4 ADD SWAP3 PUSH1 0x20 SWAP3 SWAP2 SWAP1 DUP3 SWAP1 SUB ADD DUP2 DUP7 DUP1 EXTCODESIZE ISZERO DUP1 ISZERO PUSH2 0x2A0F JUMPI PUSH1 0x0 DUP1 REVERT JUMPDEST POP GAS STATICCALL ISZERO DUP1 ISZERO PUSH2 0x2A23 JUMPI RETURNDATASIZE PUSH1 0x0 DUP1 RETURNDATACOPY RETURNDATASIZE PUSH1 0x0 REVERT JUMPDEST POP POP POP POP PUSH1 0x40 MLOAD RETURNDATASIZE PUSH1 0x20 DUP2 LT ISZERO PUSH2 0x2A39 JUMPI PUSH1 0x0 DUP1 REVERT JUMPDEST POP MLOAD PUSH1 0x1 PUSH1 0x1 PUSH1 0xA0 SHL SUB AND EQ JUMPDEST DUP1 ISZERO PUSH2 0x2AC8 JUMPI POP PUSH1 0x8 SLOAD PUSH1 0x40 DUP1 MLOAD PUSH4 0x570CA735 PUSH1 0xE0 SHL DUP2 MSTORE SWAP1 MLOAD ADDRESS SWAP3 PUSH1 0x1 PUSH1 0x1 PUSH1 0xA0 SHL SUB AND SWAP2 PUSH4 0x570CA735 SWAP2 PUSH1 0x4 DUP1 DUP4 ADD SWAP3 PUSH1 0x20 SWAP3 SWAP2 SWAP1 DUP3 SWAP1 SUB ADD DUP2 DUP7 DUP1 EXTCODESIZE ISZERO DUP1 ISZERO PUSH2 0x2A91 JUMPI PUSH1 0x0 DUP1 REVERT JUMPDEST POP GAS STATICCALL ISZERO DUP1 ISZERO PUSH2 0x2AA5 JUMPI RETURNDATASIZE PUSH1 0x0 DUP1 RETURNDATACOPY RETURNDATASIZE PUSH1 0x0 REVERT JUMPDEST POP POP POP POP PUSH1 0x40 MLOAD RETURNDATASIZE PUSH1 0x20 DUP2 LT ISZERO PUSH2 0x2ABB JUMPI PUSH1 0x0 DUP1 REVERT JUMPDEST POP MLOAD PUSH1 0x1 PUSH1 0x1 PUSH1 0xA0 SHL SUB AND EQ JUMPDEST DUP1 ISZERO PUSH2 0x2B4A JUMPI POP PUSH1 0x9 SLOAD PUSH1 0x40 DUP1 MLOAD PUSH4 0x570CA735 PUSH1 0xE0 SHL DUP2 MSTORE SWAP1 MLOAD ADDRESS SWAP3 PUSH1 0x1 PUSH1 0x1 PUSH1 0xA0 SHL SUB AND SWAP2 PUSH4 0x570CA735 SWAP2 PUSH1 0x4 DUP1 DUP4 ADD SWAP3 PUSH1 0x20 SWAP3 SWAP2 SWAP1 DUP3 SWAP1 SUB ADD DUP2 DUP7 DUP1 EXTCODESIZE ISZERO DUP1 ISZERO PUSH2 0x2B13 JUMPI PUSH1 0x0 DUP1 REVERT JUMPDEST POP GAS STATICCALL ISZERO DUP1 ISZERO PUSH2 0x2B27 JUMPI RETURNDATASIZE PUSH1 0x0 DUP1 RETURNDATACOPY RETURNDATASIZE PUSH1 0x0 REVERT JUMPDEST POP POP POP POP PUSH1 0x40 MLOAD RETURNDATASIZE PUSH1 0x20 DUP2 LT ISZERO PUSH2 0x2B3D JUMPI PUSH1 0x0 DUP1 REVERT JUMPDEST POP MLOAD PUSH1 0x1 PUSH1 0x1 PUSH1 0xA0 SHL SUB AND EQ JUMPDEST PUSH2 0x2B9B JUMPI PUSH1 0x40 DUP1 MLOAD PUSH3 0x461BCD PUSH1 0xE5 SHL DUP2 MSTORE PUSH1 0x20 PUSH1 0x4 DUP3 ADD MSTORE PUSH1 0x1E PUSH1 0x24 DUP3 ADD MSTORE PUSH32 0x54726561737572793A206E656564206D6F7265207065726D697373696F6E0000 PUSH1 0x44 DUP3 ADD MSTORE SWAP1 MLOAD SWAP1 DUP2 SWAP1 SUB PUSH1 0x64 ADD SWAP1 REVERT JUMPDEST PUSH2 0x2BA3 PUSH2 0x400E JUMP JUMPDEST PUSH2 0x2BAB PUSH2 0x1C45 JUMP JUMPDEST PUSH1 0x19 SSTORE PUSH1 0xE SLOAD PUSH1 0x0 SWAP1 PUSH2 0x2BC6 SWAP1 PUSH2 0x2BC0 PUSH2 0x3BBD JUMP JUMPDEST SWAP1 PUSH2 0x3EB1 JUMP JUMPDEST SWAP1 POP PUSH1 0x17 SLOAD PUSH1 0x3 SLOAD LT ISZERO PUSH2 0x2BFC JUMPI PUSH2 0x2BF7 PUSH2 0x2BF2 PUSH2 0x2710 PUSH2 0xDF1 PUSH1 0x18 SLOAD DUP6 PUSH2 0x3DEA SWAP1 SWAP2 SWAP1 PUSH4 0xFFFFFFFF AND JUMP JUMPDEST PUSH2 0x4072 JUMP JUMPDEST PUSH2 0x2E49 JUMP JUMPDEST PUSH1 0xD SLOAD PUSH1 0x19 SLOAD GT ISZERO PUSH2 0x2E49 JUMPI PUSH1 0x7 SLOAD PUSH1 0x40 DUP1 MLOAD PUSH4 0x18160DDD PUSH1 0xE0 SHL DUP2 MSTORE SWAP1 MLOAD PUSH1 0x0 SWAP3 PUSH1 0x1 PUSH1 0x1 PUSH1 0xA0 SHL SUB AND SWAP2 PUSH4 0x18160DDD SWAP2 PUSH1 0x4 DUP1 DUP4 ADD SWAP3 PUSH1 0x20 SWAP3 SWAP2 SWAP1 DUP3 SWAP1 SUB ADD DUP2 DUP7 DUP1 EXTCODESIZE ISZERO DUP1 ISZERO PUSH2 0x2C4D JUMPI PUSH1 0x0 DUP1 REVERT JUMPDEST POP GAS STATICCALL ISZERO DUP1 ISZERO PUSH2 0x2C61 JUMPI RETURNDATASIZE PUSH1 0x0 DUP1 RETURNDATACOPY RETURNDATASIZE PUSH1 0x0 REVERT JUMPDEST POP POP POP POP PUSH1 0x40 MLOAD RETURNDATASIZE PUSH1 0x20 DUP2 LT ISZERO PUSH2 0x2C77 JUMPI PUSH1 0x0 DUP1 REVERT JUMPDEST POP MLOAD PUSH1 0xC SLOAD PUSH1 0x19 SLOAD SWAP2 SWAP3 POP PUSH1 0x0 SWAP2 PUSH2 0x2C8E SWAP2 PUSH2 0x3EB1 JUMP JUMPDEST SWAP1 POP PUSH1 0x0 DUP1 PUSH1 0x0 PUSH2 0x2CA8 PUSH6 0x5AF3107A4000 PUSH2 0xE1C DUP9 PUSH2 0x43B2 JUMP JUMPDEST SWAP1 POP DUP1 DUP5 GT ISZERO PUSH2 0x2CB6 JUMPI DUP1 SWAP4 POP JUMPDEST PUSH2 0x2CD1 PUSH2 0x2710 PUSH2 0xDF1 PUSH1 0x12 SLOAD DUP9 PUSH2 0x3DEA SWAP1 SWAP2 SWAP1 PUSH4 0xFFFFFFFF AND JUMP JUMPDEST PUSH1 0xE SLOAD LT PUSH2 0x2CF6 JUMPI PUSH2 0x2CEF PUSH8 0xDE0B6B3A7640000 PUSH2 0xDF1 DUP9 DUP8 PUSH2 0x3DEA JUMP JUMPDEST SWAP2 POP PUSH2 0x2D62 JUMP JUMPDEST PUSH1 0x0 PUSH2 0x2D0E PUSH8 0xDE0B6B3A7640000 PUSH2 0xDF1 DUP10 DUP9 PUSH2 0x3DEA JUMP JUMPDEST SWAP1 POP PUSH2 0x2D2B PUSH2 0x2710 PUSH2 0xDF1 PUSH1 0x13 SLOAD DUP5 PUSH2 0x3DEA SWAP1 SWAP2 SWAP1 PUSH4 0xFFFFFFFF AND JUMP JUMPDEST SWAP3 POP PUSH2 0x2D37 DUP2 DUP5 PUSH2 0x3EB1 JUMP JUMPDEST PUSH1 0x1F SLOAD SWAP1 SWAP5 POP ISZERO PUSH2 0x2D60 JUMPI PUSH2 0x2D5D PUSH2 0x2710 PUSH2 0xDF1 PUSH1 0x1F SLOAD DUP8 PUSH2 0x3DEA SWAP1 SWAP2 SWAP1 PUSH4 0xFFFFFFFF AND JUMP JUMPDEST SWAP4 POP JUMPDEST POP JUMPDEST DUP2 ISZERO PUSH2 0x2D71 JUMPI PUSH2 0x2D71 DUP3 PUSH2 0x4072 JUMP JUMPDEST DUP3 ISZERO PUSH2 0x2E43 JUMPI PUSH1 0xE SLOAD PUSH2 0x2D84 SWAP1 DUP5 PUSH2 0x3F0E JUMP JUMPDEST PUSH1 0xE SSTORE PUSH1 0x6 SLOAD PUSH1 0x40 DUP1 MLOAD PUSH4 0x40C10F19 PUSH1 0xE0 SHL DUP2 MSTORE ADDRESS PUSH1 0x4 DUP3 ADD MSTORE PUSH1 0x24 DUP2 ADD DUP7 SWAP1 MSTORE SWAP1 MLOAD PUSH1 0x1 PUSH1 0x1 PUSH1 0xA0 SHL SUB SWAP1 SWAP3 AND SWAP2 PUSH4 0x40C10F19 SWAP2 PUSH1 0x44 DUP1 DUP3 ADD SWAP3 PUSH1 0x20 SWAP3 SWAP1 SWAP2 SWAP1 DUP3 SWAP1 SUB ADD DUP2 PUSH1 0x0 DUP8 DUP1 EXTCODESIZE ISZERO DUP1 ISZERO PUSH2 0x2DDB JUMPI PUSH1 0x0 DUP1 REVERT JUMPDEST POP GAS CALL ISZERO DUP1 ISZERO PUSH2 0x2DEF JUMPI RETURNDATASIZE PUSH1 0x0 DUP1 RETURNDATACOPY RETURNDATASIZE PUSH1 0x0 REVERT JUMPDEST POP POP POP POP PUSH1 0x40 MLOAD RETURNDATASIZE PUSH1 0x20 DUP2 LT ISZERO PUSH2 0x2E05 JUMPI PUSH1 0x0 DUP1 REVERT JUMPDEST POP POP PUSH1 0x40 DUP1 MLOAD TIMESTAMP DUP2 MSTORE PUSH1 0x20 DUP2 ADD DUP6 SWAP1 MSTORE DUP2 MLOAD PUSH32 0xF705142BF09F04297640495DDF7C59B7FD6F51894C5AEA9602D631CF05F0EFC2 SWAP3 SWAP2 DUP2 SWAP1 SUB SWAP1 SWAP2 ADD SWAP1 LOG1 JUMPDEST POP POP POP POP POP JUMPDEST POP PUSH1 0x3 SLOAD PUSH2 0x2E58 SWAP1 PUSH1 0x1 PUSH2 0x3F0E JUMP JUMPDEST PUSH1 0x3 SSTORE PUSH1 0xD SLOAD PUSH2 0x2E66 PUSH2 0x1C45 JUMP JUMPDEST GT PUSH2 0x2E84 JUMPI PUSH2 0x2E7F PUSH2 0x2710 PUSH2 0xDF1 PUSH1 0x14 SLOAD PUSH2 0xE1C PUSH2 0x3BBD JUMP JUMPDEST PUSH2 0x2E87 JUMP JUMPDEST PUSH1 0x0 JUMPDEST PUSH1 0x4 SSTORE NUMBER PUSH1 0x0 SWAP1 DUP2 MSTORE PUSH1 0x20 DUP2 DUP2 MSTORE PUSH1 0x40 DUP1 DUP4 KECCAK256 ORIGIN DUP5 MSTORE SWAP1 SWAP2 MSTORE DUP1 DUP3 KECCAK256 DUP1 SLOAD PUSH1 0x1 PUSH1 0xFF NOT SWAP2 DUP3 AND DUP2 OR SWAP1 SWAP3 SSTORE CALLER DUP5 MSTORE SWAP2 SWAP1 SWAP3 KECCAK256 DUP1 SLOAD SWAP1 SWAP2 AND SWAP1 SWAP2 OR SWAP1 SSTORE JUMP JUMPDEST PUSH1 0x7 SLOAD PUSH1 0x1 PUSH1 0x1 PUSH1 0xA0 SHL SUB AND DUP2 JUMP JUMPDEST PUSH1 0x1 SLOAD PUSH1 0x1 PUSH1 0x1 PUSH1 0xA0 SHL SUB AND CALLER EQ PUSH2 0x2F1D JUMPI PUSH1 0x40 MLOAD PUSH3 0x461BCD PUSH1 0xE5 SHL DUP2 MSTORE PUSH1 0x4 ADD DUP1 DUP1 PUSH1 0x20 ADD DUP3 DUP2 SUB DUP3 MSTORE PUSH1 0x24 DUP2 MSTORE PUSH1 0x20 ADD DUP1 PUSH2 0x4A97 PUSH1 0x24 SWAP2 CODECOPY PUSH1 0x40 ADD SWAP2 POP POP PUSH1 0x40 MLOAD DUP1 SWAP2 SUB SWAP1 REVERT JUMPDEST PUSH1 0x9 DUP1 SLOAD PUSH1 0x1 PUSH1 0x1 PUSH1 0xA0 SHL SUB NOT AND PUSH1 0x1 PUSH1 0x1 PUSH1 0xA0 SHL SUB SWAP3 SWAP1 SWAP3 AND SWAP2 SWAP1 SWAP2 OR SWAP1 SSTORE JUMP JUMPDEST PUSH1 0xC SLOAD DUP2 JUMP JUMPDEST PUSH1 0x9 SLOAD PUSH1 0x40 DUP1 MLOAD PUSH4 0x13F24DAF PUSH1 0xE0 SHL DUP2 MSTORE SWAP1 MLOAD PUSH1 0x0 SWAP3 PUSH1 0x1 PUSH1 0x1 PUSH1 0xA0 SHL SUB AND SWAP2 PUSH4 0x13F24DAF SWAP2 PUSH1 0x4 DUP1 DUP4 ADD SWAP3 PUSH1 0x20 SWAP3 SWAP2 SWAP1 DUP3 SWAP1 SUB ADD DUP2 DUP7 DUP1 EXTCODESIZE ISZERO DUP1 ISZERO PUSH2 0xD75 JUMPI PUSH1 0x0 DUP1 REVERT JUMPDEST PUSH1 0x0 DUP1 PUSH2 0x2F95 PUSH2 0x1C45 JUMP JUMPDEST SWAP1 POP PUSH1 0xD SLOAD DUP2 GT ISZERO PUSH2 0xE55 JUMPI PUSH1 0x6 SLOAD PUSH1 0x40 DUP1 MLOAD PUSH4 0x70A08231 PUSH1 0xE0 SHL DUP2 MSTORE ADDRESS PUSH1 0x4 DUP3 ADD MSTORE SWAP1 MLOAD PUSH1 0x0 SWAP3 PUSH1 0x1 PUSH1 0x1 PUSH1 0xA0 SHL SUB AND SWAP2 PUSH4 0x70A08231 SWAP2 PUSH1 0x24 DUP1 DUP4 ADD SWAP3 PUSH1 0x20 SWAP3 SWAP2 SWAP1 DUP3 SWAP1 SUB ADD DUP2 DUP7 DUP1 EXTCODESIZE ISZERO DUP1 ISZERO PUSH2 0x2FEC JUMPI PUSH1 0x0 DUP1 REVERT JUMPDEST POP GAS STATICCALL ISZERO DUP1 ISZERO PUSH2 0x3000 JUMPI RETURNDATASIZE PUSH1 0x0 DUP1 RETURNDATACOPY RETURNDATASIZE PUSH1 0x0 REVERT JUMPDEST POP POP POP POP PUSH1 0x40 MLOAD RETURNDATASIZE PUSH1 0x20 DUP2 LT ISZERO PUSH2 0x3016 JUMPI PUSH1 0x0 DUP1 REVERT JUMPDEST POP MLOAD SWAP1 POP PUSH1 0x0 PUSH2 0x3024 PUSH2 0xE59 JUMP JUMPDEST SWAP1 POP DUP1 ISZERO PUSH2 0xE52 JUMPI PUSH2 0x3042 DUP2 PUSH2 0xDF1 DUP5 PUSH8 0xDE0B6B3A7640000 PUSH2 0x3DEA JUMP JUMPDEST SWAP4 POP POP POP POP SWAP1 JUMP JUMPDEST PUSH1 0x2 SLOAD DUP2 JUMP JUMPDEST PUSH1 0x12 SLOAD DUP2 JUMP JUMPDEST PUSH1 0x5 DUP2 DUP2 SLOAD DUP2 LT PUSH2 0x3063 JUMPI INVALID JUMPDEST PUSH1 0x0 SWAP2 DUP3 MSTORE PUSH1 0x20 SWAP1 SWAP2 KECCAK256 ADD SLOAD PUSH1 0x1 PUSH1 0x1 PUSH1 0xA0 SHL SUB AND SWAP1 POP DUP2 JUMP JUMPDEST PUSH1 0x18 SLOAD DUP2 JUMP JUMPDEST PUSH1 0x1 SLOAD PUSH1 0x1 PUSH1 0x1 PUSH1 0xA0 SHL SUB AND CALLER EQ PUSH2 0x30CC JUMPI PUSH1 0x40 MLOAD PUSH3 0x461BCD PUSH1 0xE5 SHL DUP2 MSTORE PUSH1 0x4 ADD DUP1 DUP1 PUSH1 0x20 ADD DUP3 DUP2 SUB DUP3 MSTORE PUSH1 0x24 DUP2 MSTORE PUSH1 0x20 ADD DUP1 PUSH2 0x4A97 PUSH1 0x24 SWAP2 CODECOPY PUSH1 0x40 ADD SWAP2 POP POP PUSH1 0x40 MLOAD DUP1 SWAP2 SUB SWAP1 REVERT JUMPDEST PUSH2 0x1F4 DUP2 LT ISZERO DUP1 ISZERO PUSH2 0x30E0 JUMPI POP PUSH2 0x2710 DUP2 GT ISZERO JUMPDEST PUSH2 0x3120 JUMPI PUSH1 0x40 DUP1 MLOAD PUSH3 0x461BCD PUSH1 0xE5 SHL DUP2 MSTORE PUSH1 0x20 PUSH1 0x4 DUP3 ADD MSTORE PUSH1 0xC PUSH1 0x24 DUP3 ADD MSTORE PUSH12 0x6F7574206F662072616E6765 PUSH1 0xA0 SHL PUSH1 0x44 DUP3 ADD MSTORE SWAP1 MLOAD SWAP1 DUP2 SWAP1 SUB PUSH1 0x64 ADD SWAP1 REVERT JUMPDEST PUSH1 0x12 SSTORE JUMP JUMPDEST PUSH1 0x20 SLOAD PUSH1 0x1 PUSH1 0x1 PUSH1 0xA0 SHL SUB AND DUP2 JUMP JUMPDEST PUSH1 0x3 SLOAD DUP2 JUMP JUMPDEST PUSH1 0x1 SLOAD PUSH1 0x1 PUSH1 0x1 PUSH1 0xA0 SHL SUB AND CALLER EQ PUSH2 0x3183 JUMPI PUSH1 0x40 MLOAD PUSH3 0x461BCD PUSH1 0xE5 SHL DUP2 MSTORE PUSH1 0x4 ADD DUP1 DUP1 PUSH1 0x20 ADD DUP3 DUP2 SUB DUP3 MSTORE PUSH1 0x24 DUP2 MSTORE PUSH1 0x20 ADD DUP1 PUSH2 0x4A97 PUSH1 0x24 SWAP2 CODECOPY PUSH1 0x40 ADD SWAP2 POP POP PUSH1 0x40 MLOAD DUP1 SWAP2 SUB SWAP1 REVERT JUMPDEST PUSH1 0x78 DUP3 GT ISZERO PUSH2 0x31D9 JUMPI PUSH1 0x40 DUP1 MLOAD PUSH3 0x461BCD PUSH1 0xE5 SHL DUP2 MSTORE PUSH1 0x20 PUSH1 0x4 DUP3 ADD MSTORE PUSH1 0x1E PUSH1 0x24 DUP3 ADD MSTORE PUSH32 0x5F626F6F74737472617045706F6368733A206F7574206F662072616E67650000 PUSH1 0x44 DUP3 ADD MSTORE SWAP1 MLOAD SWAP1 DUP2 SWAP1 SUB PUSH1 0x64 ADD SWAP1 REVERT JUMPDEST PUSH1 0x64 DUP2 LT ISZERO DUP1 ISZERO PUSH2 0x31EC JUMPI POP PUSH2 0x3E8 DUP2 GT ISZERO JUMPDEST PUSH2 0x3227 JUMPI PUSH1 0x40 MLOAD PUSH3 0x461BCD PUSH1 0xE5 SHL DUP2 MSTORE PUSH1 0x4 ADD DUP1 DUP1 PUSH1 0x20 ADD DUP3 DUP2 SUB DUP3 MSTORE PUSH1 0x2E DUP2 MSTORE PUSH1 0x20 ADD DUP1 PUSH2 0x4B6B PUSH1 0x2E SWAP2 CODECOPY PUSH1 0x40 ADD SWAP2 POP POP PUSH1 0x40 MLOAD DUP1 SWAP2 SUB SWAP1 REVERT JUMPDEST PUSH1 0x17 SWAP2 SWAP1 SWAP2 SSTORE PUSH1 0x18 SSTORE JUMP JUMPDEST PUSH1 0x1 SLOAD PUSH1 0x0 SWAP1 PUSH1 0x1 PUSH1 0x1 PUSH1 0xA0 SHL SUB AND CALLER EQ PUSH2 0x327E JUMPI PUSH1 0x40 MLOAD PUSH3 0x461BCD PUSH1 0xE5 SHL DUP2 MSTORE PUSH1 0x4 ADD DUP1 DUP1 PUSH1 0x20 ADD DUP3 DUP2 SUB DUP3 MSTORE PUSH1 0x24 DUP2 MSTORE PUSH1 0x20 ADD DUP1 PUSH2 0x4A97 PUSH1 0x24 SWAP2 CODECOPY PUSH1 0x40 ADD SWAP2 POP POP PUSH1 0x40 MLOAD DUP1 SWAP2 SUB SWAP1 REVERT JUMPDEST PUSH1 0x9 DUP4 PUSH1 0xFF AND LT PUSH2 0x32C0 JUMPI PUSH1 0x40 MLOAD PUSH3 0x461BCD PUSH1 0xE5 SHL DUP2 MSTORE PUSH1 0x4 ADD DUP1 DUP1 PUSH1 0x20 ADD DUP3 DUP2 SUB DUP3 MSTORE PUSH1 0x29 DUP2 MSTORE PUSH1 0x20 ADD DUP1 PUSH2 0x4A3C PUSH1 0x29 SWAP2 CODECOPY PUSH1 0x40 ADD SWAP2 POP POP PUSH1 0x40 MLOAD DUP1 SWAP2 SUB SWAP1 REVERT JUMPDEST PUSH1 0xFF DUP4 AND ISZERO PUSH2 0x32F2 JUMPI PUSH1 0xF PUSH1 0x1 DUP5 SUB PUSH1 0xFF AND DUP2 SLOAD DUP2 LT PUSH2 0x32DC JUMPI INVALID JUMPDEST SWAP1 PUSH1 0x0 MSTORE PUSH1 0x20 PUSH1 0x0 KECCAK256 ADD SLOAD DUP3 GT PUSH2 0x32F2 JUMPI PUSH1 0x0 DUP1 REVERT JUMPDEST PUSH1 0x8 DUP4 PUSH1 0xFF AND LT ISZERO PUSH2 0x3327 JUMPI PUSH1 0xF DUP4 PUSH1 0x1 ADD PUSH1 0xFF AND DUP2 SLOAD DUP2 LT PUSH2 0x3311 JUMPI INVALID JUMPDEST SWAP1 PUSH1 0x0 MSTORE PUSH1 0x20 PUSH1 0x0 KECCAK256 ADD SLOAD DUP3 LT PUSH2 0x3327 JUMPI PUSH1 0x0 DUP1 REVERT JUMPDEST DUP2 PUSH1 0xF DUP5 PUSH1 0xFF AND DUP2 SLOAD DUP2 LT PUSH2 0x3338 JUMPI INVALID JUMPDEST PUSH1 0x0 SWAP2 DUP3 MSTORE PUSH1 0x20 SWAP1 SWAP2 KECCAK256 ADD SSTORE POP PUSH1 0x1 JUMPDEST SWAP3 SWAP2 POP POP JUMP JUMPDEST PUSH1 0x1 SLOAD PUSH1 0x1 PUSH1 0x1 PUSH1 0xA0 SHL SUB AND CALLER EQ PUSH2 0x3397 JUMPI PUSH1 0x40 MLOAD PUSH3 0x461BCD PUSH1 0xE5 SHL DUP2 MSTORE PUSH1 0x4 ADD DUP1 DUP1 PUSH1 0x20 ADD DUP3 DUP2 SUB DUP3 MSTORE PUSH1 0x24 DUP2 MSTORE PUSH1 0x20 ADD DUP1 PUSH2 0x4A97 PUSH1 0x24 SWAP2 CODECOPY PUSH1 0x40 ADD SWAP2 POP POP PUSH1 0x40 MLOAD DUP1 SWAP2 SUB SWAP1 REVERT JUMPDEST PUSH1 0x1A SSTORE JUMP JUMPDEST PUSH1 0xF DUP2 DUP2 SLOAD DUP2 LT PUSH2 0x33A9 JUMPI INVALID JUMPDEST PUSH1 0x0 SWAP2 DUP3 MSTORE PUSH1 0x20 SWAP1 SWAP2 KECCAK256 ADD SLOAD SWAP1 POP DUP2 JUMP JUMPDEST PUSH1 0xA SLOAD PUSH1 0x1 PUSH1 0x1 PUSH1 0xA0 SHL SUB AND DUP2 JUMP JUMPDEST PUSH1 0x1 SLOAD PUSH1 0x1 PUSH1 0x1 PUSH1 0xA0 SHL SUB AND CALLER EQ PUSH2 0x3412 JUMPI PUSH1 0x40 MLOAD PUSH3 0x461BCD PUSH1 0xE5 SHL DUP2 MSTORE PUSH1 0x4 ADD DUP1 DUP1 PUSH1 0x20 ADD DUP3 DUP2 SUB DUP3 MSTORE PUSH1 0x24 DUP2 MSTORE PUSH1 0x20 ADD DUP1 PUSH2 0x4A97 PUSH1 0x24 SWAP2 CODECOPY PUSH1 0x40 ADD SWAP2 POP POP PUSH1 0x40 MLOAD DUP1 SWAP2 SUB SWAP1 REVERT JUMPDEST DUP2 PUSH1 0x1 PUSH1 0x1 PUSH1 0xA0 SHL SUB AND PUSH4 0x42966C68 DUP3 PUSH1 0x40 MLOAD DUP3 PUSH4 0xFFFFFFFF AND PUSH1 0xE0 SHL DUP2 MSTORE PUSH1 0x4 ADD DUP1 DUP3 DUP2 MSTORE PUSH1 0x20 ADD SWAP2 POP POP PUSH1 0x0 PUSH1 0x40 MLOAD DUP1 DUP4 SUB DUP2 PUSH1 0x0 DUP8 DUP1 EXTCODESIZE ISZERO DUP1 ISZERO PUSH2 0x3458 JUMPI PUSH1 0x0 DUP1 REVERT JUMPDEST POP GAS CALL ISZERO DUP1 ISZERO PUSH2 0x346C JUMPI RETURNDATASIZE PUSH1 0x0 DUP1 RETURNDATACOPY RETURNDATASIZE PUSH1 0x0 REVERT JUMPDEST POP POP POP POP POP POP JUMP JUMPDEST PUSH1 0x10 DUP2 DUP2 SLOAD DUP2 LT PUSH2 0x33A9 JUMPI INVALID JUMPDEST PUSH1 0x1 SLOAD PUSH1 0x1 PUSH1 0x1 PUSH1 0xA0 SHL SUB AND CALLER EQ PUSH2 0x34CA JUMPI PUSH1 0x40 MLOAD PUSH3 0x461BCD PUSH1 0xE5 SHL DUP2 MSTORE PUSH1 0x4 ADD DUP1 DUP1 PUSH1 0x20 ADD DUP3 DUP2 SUB DUP3 MSTORE PUSH1 0x24 DUP2 MSTORE PUSH1 0x20 ADD DUP1 PUSH2 0x4A97 PUSH1 0x24 SWAP2 CODECOPY PUSH1 0x40 ADD SWAP2 POP POP PUSH1 0x40 MLOAD DUP1 SWAP2 SUB SWAP1 REVERT JUMPDEST PUSH1 0x1B SSTORE JUMP JUMPDEST PUSH1 0x1 SLOAD PUSH1 0x1 PUSH1 0x1 PUSH1 0xA0 SHL SUB AND CALLER EQ PUSH2 0x3518 JUMPI PUSH1 0x40 MLOAD PUSH3 0x461BCD PUSH1 0xE5 SHL DUP2 MSTORE PUSH1 0x4 ADD DUP1 DUP1 PUSH1 0x20 ADD DUP3 DUP2 SUB DUP3 MSTORE PUSH1 0x24 DUP2 MSTORE PUSH1 0x20 ADD DUP1 PUSH2 0x4A97 PUSH1 0x24 SWAP2 CODECOPY PUSH1 0x40 ADD SWAP2 POP POP PUSH1 0x40 MLOAD DUP1 SWAP2 SUB SWAP1 REVERT JUMPDEST PUSH1 0xC SLOAD DUP2 LT ISZERO DUP1 ISZERO PUSH2 0x3544 JUMPI POP PUSH2 0x3540 PUSH1 0x64 PUSH2 0xDF1 PUSH1 0x78 PUSH1 0xC SLOAD PUSH2 0x3DEA SWAP1 SWAP2 SWAP1 PUSH4 0xFFFFFFFF AND JUMP JUMPDEST DUP2 GT ISZERO JUMPDEST PUSH2 0x3584 JUMPI PUSH1 0x40 DUP1 MLOAD PUSH3 0x461BCD PUSH1 0xE5 SHL DUP2 MSTORE PUSH1 0x20 PUSH1 0x4 DUP3 ADD MSTORE PUSH1 0xC PUSH1 0x24 DUP3 ADD MSTORE PUSH12 0x6F7574206F662072616E6765 PUSH1 0xA0 SHL PUSH1 0x44 DUP3 ADD MSTORE SWAP1 MLOAD SWAP1 DUP2 SWAP1 SUB PUSH1 0x64 ADD SWAP1 REVERT JUMPDEST PUSH1 0xD SSTORE JUMP JUMPDEST PUSH1 0x1 SLOAD PUSH1 0x1 PUSH1 0x1 PUSH1 0xA0 SHL SUB AND CALLER EQ PUSH2 0x35D2 JUMPI PUSH1 0x40 MLOAD PUSH3 0x461BCD PUSH1 0xE5 SHL DUP2 MSTORE PUSH1 0x4 ADD DUP1 DUP1 PUSH1 0x20 ADD DUP3 DUP2 SUB DUP3 MSTORE PUSH1 0x24 DUP2 MSTORE PUSH1 0x20 ADD DUP1 PUSH2 0x4A97 PUSH1 0x24 SWAP2 CODECOPY PUSH1 0x40 ADD SWAP2 POP POP PUSH1 0x40 MLOAD DUP1 SWAP2 SUB SWAP1 REVERT JUMPDEST PUSH1 0xB DUP1 SLOAD PUSH1 0x1 PUSH1 0x1 PUSH1 0xA0 SHL SUB NOT AND PUSH1 0x1 PUSH1 0x1 PUSH1 0xA0 SHL SUB SWAP3 SWAP1 SWAP3 AND SWAP2 SWAP1 SWAP2 OR SWAP1 SSTORE JUMP JUMPDEST PUSH1 0x9 SLOAD PUSH1 0x1 PUSH1 0x1 PUSH1 0xA0 SHL SUB AND DUP2 JUMP JUMPDEST PUSH1 0x1 SLOAD PUSH1 0x1 PUSH1 0x1 PUSH1 0xA0 SHL SUB AND CALLER EQ PUSH2 0x364C JUMPI PUSH1 0x40 MLOAD PUSH3 0x461BCD PUSH1 0xE5 SHL DUP2 MSTORE PUSH1 0x4 ADD DUP1 DUP1 PUSH1 0x20 ADD DUP3 DUP2 SUB DUP3 MSTORE PUSH1 0x24 DUP2 MSTORE PUSH1 0x20 ADD DUP1 PUSH2 0x4A97 PUSH1 0x24 SWAP2 CODECOPY PUSH1 0x40 ADD SWAP2 POP POP PUSH1 0x40 MLOAD DUP1 SWAP2 SUB SWAP1 REVERT JUMPDEST PUSH1 0x1 DUP1 SLOAD PUSH1 0x1 PUSH1 0x1 PUSH1 0xA0 SHL SUB NOT AND PUSH1 0x1 PUSH1 0x1 PUSH1 0xA0 SHL SUB SWAP3 SWAP1 SWAP3 AND SWAP2 SWAP1 SWAP2 OR SWAP1 SSTORE JUMP JUMPDEST PUSH2 0x5460 DUP2 JUMP JUMPDEST PUSH1 0x1A SLOAD DUP2 JUMP JUMPDEST PUSH1 0x1 SLOAD PUSH1 0x1 PUSH1 0x1 PUSH1 0xA0 SHL SUB AND CALLER EQ PUSH2 0x36C3 JUMPI PUSH1 0x40 MLOAD PUSH3 0x461BCD PUSH1 0xE5 SHL DUP2 MSTORE PUSH1 0x4 ADD DUP1 DUP1 PUSH1 0x20 ADD DUP3 DUP2 SUB DUP3 MSTORE PUSH1 0x24 DUP2 MSTORE PUSH1 0x20 ADD DUP1 PUSH2 0x4A97 PUSH1 0x24 SWAP2 CODECOPY PUSH1 0x40 ADD SWAP2 POP POP PUSH1 0x40 MLOAD DUP1 SWAP2 SUB SWAP1 REVERT JUMPDEST PUSH1 0x1 PUSH1 0x1 PUSH1 0xA0 SHL SUB DUP5 AND PUSH2 0x3707 JUMPI PUSH1 0x40 DUP1 MLOAD PUSH3 0x461BCD PUSH1 0xE5 SHL DUP2 MSTORE PUSH1 0x20 PUSH1 0x4 DUP1 DUP4 ADD SWAP2 SWAP1 SWAP2 MSTORE PUSH1 0x24 DUP3 ADD MSTORE PUSH4 0x7A65726F PUSH1 0xE0 SHL PUSH1 0x44 DUP3 ADD MSTORE SWAP1 MLOAD SWAP1 DUP2 SWAP1 SUB PUSH1 0x64 ADD SWAP1 REVERT JUMPDEST PUSH2 0xBB8 DUP4 GT ISZERO PUSH2 0x374D JUMPI PUSH1 0x40 DUP1 MLOAD PUSH3 0x461BCD PUSH1 0xE5 SHL DUP2 MSTORE PUSH1 0x20 PUSH1 0x4 DUP3 ADD MSTORE PUSH1 0xC PUSH1 0x24 DUP3 ADD MSTORE PUSH12 0x6F7574206F662072616E6765 PUSH1 0xA0 SHL PUSH1 0x44 DUP3 ADD MSTORE SWAP1 MLOAD SWAP1 DUP2 SWAP1 SUB PUSH1 0x64 ADD SWAP1 REVERT JUMPDEST PUSH1 0x1 PUSH1 0x1 PUSH1 0xA0 SHL SUB DUP3 AND PUSH2 0x3791 JUMPI PUSH1 0x40 DUP1 MLOAD PUSH3 0x461BCD PUSH1 0xE5 SHL DUP2 MSTORE PUSH1 0x20 PUSH1 0x4 DUP1 DUP4 ADD SWAP2 SWAP1 SWAP2 MSTORE PUSH1 0x24 DUP3 ADD MSTORE PUSH4 0x7A65726F PUSH1 0xE0 SHL PUSH1 0x44 DUP3 ADD MSTORE SWAP1 MLOAD SWAP1 DUP2 SWAP1 SUB PUSH1 0x64 ADD SWAP1 REVERT JUMPDEST PUSH2 0x3E8 DUP2 GT ISZERO PUSH2 0x37D7 JUMPI PUSH1 0x40 DUP1 MLOAD PUSH3 0x461BCD PUSH1 0xE5 SHL DUP2 MSTORE PUSH1 0x20 PUSH1 0x4 DUP3 ADD MSTORE PUSH1 0xC PUSH1 0x24 DUP3 ADD MSTORE PUSH12 0x6F7574206F662072616E6765 PUSH1 0xA0 SHL PUSH1 0x44 DUP3 ADD MSTORE SWAP1 MLOAD SWAP1 DUP2 SWAP1 SUB PUSH1 0x64 ADD SWAP1 REVERT JUMPDEST PUSH1 0x20 DUP1 SLOAD PUSH1 0x1 PUSH1 0x1 PUSH1 0xA0 SHL SUB NOT SWAP1 DUP2 AND PUSH1 0x1 PUSH1 0x1 PUSH1 0xA0 SHL SUB SWAP7 DUP8 AND OR SWAP1 SWAP2 SSTORE PUSH1 0x21 SWAP4 SWAP1 SWAP4 SSTORE PUSH1 0x22 DUP1 SLOAD SWAP1 SWAP4 AND SWAP2 SWAP1 SWAP4 AND OR SWAP1 SSTORE PUSH1 0x23 SSTORE JUMP JUMPDEST PUSH1 0x6 SLOAD PUSH1 0x1 PUSH1 0x1 PUSH1 0xA0 SHL SUB AND DUP2 JUMP JUMPDEST PUSH1 0x0 PUSH2 0x3843 PUSH2 0x383A PUSH2 0x5460 PUSH1 0x3 SLOAD PUSH2 0x3DEA SWAP1 SWAP2 SWAP1 PUSH4 0xFFFFFFFF AND JUMP JUMPDEST PUSH1 0x2 SLOAD SWAP1 PUSH2 0x3F0E JUMP JUMPDEST SWAP1 POP SWAP1 JUMP JUMPDEST PUSH1 0x1E SLOAD DUP2 JUMP JUMPDEST PUSH1 0x1D SLOAD DUP2 JUMP JUMPDEST PUSH1 0xB SLOAD PUSH1 0x6 SLOAD PUSH1 0x40 DUP1 MLOAD PUSH4 0xD011425 PUSH1 0xE3 SHL DUP2 MSTORE PUSH1 0x1 PUSH1 0x1 PUSH1 0xA0 SHL SUB SWAP3 DUP4 AND PUSH1 0x4 DUP3 ADD MSTORE PUSH8 0xDE0B6B3A7640000 PUSH1 0x24 DUP3 ADD MSTORE SWAP1 MLOAD PUSH1 0x0 SWAP4 SWAP3 SWAP1 SWAP3 AND SWAP2 PUSH4 0x6808A128 SWAP2 PUSH1 0x44 DUP1 DUP3 ADD SWAP3 PUSH1 0x20 SWAP3 SWAP1 SWAP2 SWAP1 DUP3 SWAP1 SUB ADD DUP2 DUP7 DUP1 EXTCODESIZE ISZERO DUP1 ISZERO PUSH2 0x1CA7 JUMPI PUSH1 0x0 DUP1 REVERT JUMPDEST PUSH1 0x1 SLOAD PUSH1 0x1 PUSH1 0x1 PUSH1 0xA0 SHL SUB AND CALLER EQ PUSH2 0x38FF JUMPI PUSH1 0x40 MLOAD PUSH3 0x461BCD PUSH1 0xE5 SHL DUP2 MSTORE PUSH1 0x4 ADD DUP1 DUP1 PUSH1 0x20 ADD DUP3 DUP2 SUB DUP3 MSTORE PUSH1 0x24 DUP2 MSTORE PUSH1 0x20 ADD DUP1 PUSH2 0x4A97 PUSH1 0x24 SWAP2 CODECOPY PUSH1 0x40 ADD SWAP2 POP POP PUSH1 0x40 MLOAD DUP1 SWAP2 SUB SWAP1 REVERT JUMPDEST PUSH1 0x64 DUP2 LT ISZERO DUP1 ISZERO PUSH2 0x3912 JUMPI POP PUSH2 0x5DC DUP2 GT ISZERO JUMPDEST PUSH2 0x3952 JUMPI PUSH1 0x40 DUP1 MLOAD PUSH3 0x461BCD PUSH1 0xE5 SHL DUP2 MSTORE PUSH1 0x20 PUSH1 0x4 DUP3 ADD MSTORE PUSH1 0xC PUSH1 0x24 DUP3 ADD MSTORE PUSH12 0x6F7574206F662072616E6765 PUSH1 0xA0 SHL PUSH1 0x44 DUP3 ADD MSTORE SWAP1 MLOAD SWAP1 DUP2 SWAP1 SUB PUSH1 0x64 ADD SWAP1 REVERT JUMPDEST PUSH1 0x14 SSTORE JUMP JUMPDEST PUSH1 0x1 SLOAD PUSH1 0x1 PUSH1 0x1 PUSH1 0xA0 SHL SUB AND CALLER EQ PUSH2 0x39A0 JUMPI PUSH1 0x40 MLOAD PUSH3 0x461BCD PUSH1 0xE5 SHL DUP2 MSTORE PUSH1 0x4 ADD DUP1 DUP1 PUSH1 0x20 ADD DUP3 DUP2 SUB DUP3 MSTORE PUSH1 0x24 DUP2 MSTORE PUSH1 0x20 ADD DUP1 PUSH2 0x4A97 PUSH1 0x24 SWAP2 CODECOPY PUSH1 0x40 ADD SWAP2 POP POP PUSH1 0x40 MLOAD DUP1 SWAP2 SUB SWAP1 REVERT JUMPDEST PUSH1 0x9 SLOAD PUSH1 0x40 DUP1 MLOAD PUSH4 0x1515D6BD PUSH1 0xE2 SHL DUP2 MSTORE PUSH1 0x1 PUSH1 0x1 PUSH1 0xA0 SHL SUB DUP7 DUP2 AND PUSH1 0x4 DUP4 ADD MSTORE PUSH1 0x24 DUP3 ADD DUP7 SWAP1 MSTORE DUP5 DUP2 AND PUSH1 0x44 DUP4 ADD MSTORE SWAP2 MLOAD SWAP2 SWAP1 SWAP3 AND SWAP2 PUSH4 0x54575AF4 SWAP2 PUSH1 0x64 DUP1 DUP4 ADD SWAP3 PUSH1 0x0 SWAP3 SWAP2 SWAP1 DUP3 SWAP1 SUB ADD DUP2 DUP4 DUP8 DUP1 EXTCODESIZE ISZERO DUP1 ISZERO PUSH2 0x39FD JUMPI PUSH1 0x0 DUP1 REVERT JUMPDEST POP GAS CALL ISZERO DUP1 ISZERO PUSH2 0x3A11 JUMPI RETURNDATASIZE PUSH1 0x0 DUP1 RETURNDATACOPY RETURNDATASIZE PUSH1 0x0 REVERT JUMPDEST POP POP POP POP POP POP POP JUMP JUMPDEST PUSH1 0x1 SLOAD PUSH1 0x0 SWAP1 PUSH1 0x1 PUSH1 0x1 PUSH1 0xA0 SHL SUB AND CALLER EQ PUSH2 0x3A66 JUMPI PUSH1 0x40 MLOAD PUSH3 0x461BCD PUSH1 0xE5 SHL DUP2 MSTORE PUSH1 0x4 ADD DUP1 DUP1 PUSH1 0x20 ADD DUP3 DUP2 SUB DUP3 MSTORE PUSH1 0x24 DUP2 MSTORE PUSH1 0x20 ADD DUP1 PUSH2 0x4A97 PUSH1 0x24 SWAP2 CODECOPY PUSH1 0x40 ADD SWAP2 POP POP PUSH1 0x40 MLOAD DUP1 SWAP2 SUB SWAP1 REVERT JUMPDEST PUSH1 0x9 DUP4 PUSH1 0xFF AND LT PUSH2 0x3AA8 JUMPI PUSH1 0x40 MLOAD PUSH3 0x461BCD PUSH1 0xE5 SHL DUP2 MSTORE PUSH1 0x4 ADD DUP1 DUP1 PUSH1 0x20 ADD DUP3 DUP2 SUB DUP3 MSTORE PUSH1 0x29 DUP2 MSTORE PUSH1 0x20 ADD DUP1 PUSH2 0x4A3C PUSH1 0x29 SWAP2 CODECOPY PUSH1 0x40 ADD SWAP2 POP POP PUSH1 0x40 MLOAD DUP1 SWAP2 SUB SWAP1 REVERT JUMPDEST PUSH1 0xA DUP3 LT ISZERO DUP1 ISZERO PUSH2 0x3ABB JUMPI POP PUSH2 0x3E8 DUP3 GT ISZERO JUMPDEST PUSH2 0x3B03 JUMPI PUSH1 0x40 DUP1 MLOAD PUSH3 0x461BCD PUSH1 0xE5 SHL DUP2 MSTORE PUSH1 0x20 PUSH1 0x4 DUP3 ADD MSTORE PUSH1 0x14 PUSH1 0x24 DUP3 ADD MSTORE PUSH20 0x5F76616C75653A206F7574206F662072616E6765 PUSH1 0x60 SHL PUSH1 0x44 DUP3 ADD MSTORE SWAP1 MLOAD SWAP1 DUP2 SWAP1 SUB PUSH1 0x64 ADD SWAP1 REVERT JUMPDEST DUP2 PUSH1 0x10 DUP5 PUSH1 0xFF AND DUP2 SLOAD DUP2 LT PUSH2 0x3338 JUMPI INVALID JUMPDEST PUSH1 0x11 SLOAD DUP2 JUMP JUMPDEST PUSH1 0x15 SLOAD DUP2 JUMP JUMPDEST PUSH1 0x1 SLOAD PUSH1 0x1 PUSH1 0x1 PUSH1 0xA0 SHL SUB AND CALLER EQ PUSH2 0x3B69 JUMPI PUSH1 0x40 MLOAD PUSH3 0x461BCD PUSH1 0xE5 SHL DUP2 MSTORE PUSH1 0x4 ADD DUP1 DUP1 PUSH1 0x20 ADD DUP3 DUP2 SUB DUP3 MSTORE PUSH1 0x24 DUP2 MSTORE PUSH1 0x20 ADD DUP1 PUSH2 0x4A97 PUSH1 0x24 SWAP2 CODECOPY PUSH1 0x40 ADD SWAP2 POP POP PUSH1 0x40 MLOAD DUP1 SWAP2 SUB SWAP1 REVERT JUMPDEST PUSH1 0x9 SLOAD PUSH1 0x40 DUP1 MLOAD PUSH4 0x2FFAAA09 PUSH1 0xE0 SHL DUP2 MSTORE PUSH1 0x4 DUP2 ADD DUP6 SWAP1 MSTORE PUSH1 0x24 DUP2 ADD DUP5 SWAP1 MSTORE SWAP1 MLOAD PUSH1 0x1 PUSH1 0x1 PUSH1 0xA0 SHL SUB SWAP1 SWAP3 AND SWAP2 PUSH4 0x2FFAAA09 SWAP2 PUSH1 0x44 DUP1 DUP3 ADD SWAP3 PUSH1 0x0 SWAP3 SWAP1 SWAP2 SWAP1 DUP3 SWAP1 SUB ADD DUP2 DUP4 DUP8 DUP1 EXTCODESIZE ISZERO DUP1 ISZERO PUSH2 0x3458 JUMPI PUSH1 0x0 DUP1 REVERT JUMPDEST PUSH1 0x6 SLOAD PUSH1 0x40 DUP1 MLOAD PUSH4 0x18160DDD PUSH1 0xE0 SHL DUP2 MSTORE SWAP1 MLOAD PUSH1 0x0 SWAP3 PUSH1 0x1 PUSH1 0x1 PUSH1 0xA0 SHL SUB AND SWAP2 DUP4 SWAP2 DUP4 SWAP2 PUSH4 0x18160DDD SWAP2 PUSH1 0x4 DUP1 DUP4 ADD SWAP3 PUSH1 0x20 SWAP3 SWAP2 SWAP1 DUP3 SWAP1 SUB ADD DUP2 DUP7 DUP1 EXTCODESIZE ISZERO DUP1 ISZERO PUSH2 0x3C06 JUMPI PUSH1 0x0 DUP1 REVERT JUMPDEST POP GAS STATICCALL ISZERO DUP1 ISZERO PUSH2 0x3C1A JUMPI RETURNDATASIZE PUSH1 0x0 DUP1 RETURNDATACOPY RETURNDATASIZE PUSH1 0x0 REVERT JUMPDEST POP POP POP POP PUSH1 0x40 MLOAD RETURNDATASIZE PUSH1 0x20 DUP2 LT ISZERO PUSH2 0x3C30 JUMPI PUSH1 0x0 DUP1 REVERT JUMPDEST POP MLOAD PUSH1 0x5 SLOAD SWAP1 SWAP2 POP PUSH1 0x0 SWAP1 DUP2 SWAP1 JUMPDEST DUP1 DUP3 LT ISZERO PUSH2 0x3CF3 JUMPI PUSH2 0x3CE6 DUP6 PUSH1 0x1 PUSH1 0x1 PUSH1 0xA0 SHL SUB AND PUSH4 0x70A08231 PUSH1 0x5 DUP6 DUP2 SLOAD DUP2 LT PUSH2 0x3C65 JUMPI INVALID JUMPDEST PUSH1 0x0 SWAP2 DUP3 MSTORE PUSH1 0x20 SWAP2 DUP3 SWAP1 KECCAK256 ADD SLOAD PUSH1 0x40 DUP1 MLOAD PUSH1 0x1 PUSH1 0x1 PUSH1 0xE0 SHL SUB NOT PUSH1 0xE0 DUP7 SWAP1 SHL AND DUP2 MSTORE PUSH1 0x1 PUSH1 0x1 PUSH1 0xA0 SHL SUB SWAP1 SWAP3 AND PUSH1 0x4 DUP4 ADD MSTORE MLOAD PUSH1 0x24 DUP1 DUP4 ADD SWAP4 SWAP3 DUP3 SWAP1 SUB ADD DUP2 DUP7 DUP1 EXTCODESIZE ISZERO DUP1 ISZERO PUSH2 0x3CB3 JUMPI PUSH1 0x0 DUP1 REVERT JUMPDEST POP GAS STATICCALL ISZERO DUP1 ISZERO PUSH2 0x3CC7 JUMPI RETURNDATASIZE PUSH1 0x0 DUP1 RETURNDATACOPY RETURNDATASIZE PUSH1 0x0 REVERT JUMPDEST POP POP POP POP PUSH1 0x40 MLOAD RETURNDATASIZE PUSH1 0x20 DUP2 LT ISZERO PUSH2 0x3CDD JUMPI PUSH1 0x0 DUP1 REVERT JUMPDEST POP MLOAD DUP5 SWAP1 PUSH2 0x3F0E JUMP JUMPDEST SWAP3 POP PUSH1 0x1 DUP3 ADD SWAP2 POP PUSH2 0x3C3E JUMP JUMPDEST PUSH2 0x3CFD DUP5 DUP5 PUSH2 0x3EB1 JUMP JUMPDEST SWAP6 POP POP POP POP POP POP SWAP1 JUMP JUMPDEST PUSH1 0x9 SLOAD PUSH1 0x40 DUP1 MLOAD PUSH4 0x5E033CB9 PUSH1 0xE1 SHL DUP2 MSTORE PUSH1 0x1 PUSH1 0x1 PUSH1 0xA0 SHL SUB DUP5 DUP2 AND PUSH1 0x4 DUP4 ADD MSTORE SWAP2 MLOAD PUSH1 0x0 SWAP4 SWAP3 SWAP1 SWAP3 AND SWAP2 PUSH4 0xBC067972 SWAP2 PUSH1 0x24 DUP1 DUP3 ADD SWAP3 PUSH1 0x20 SWAP3 SWAP1 SWAP2 SWAP1 DUP3 SWAP1 SUB ADD DUP2 DUP7 DUP1 EXTCODESIZE ISZERO DUP1 ISZERO PUSH2 0x3D58 JUMPI PUSH1 0x0 DUP1 REVERT JUMPDEST POP GAS STATICCALL ISZERO DUP1 ISZERO PUSH2 0x3D6C JUMPI RETURNDATASIZE PUSH1 0x0 DUP1 RETURNDATACOPY RETURNDATASIZE PUSH1 0x0 REVERT JUMPDEST POP POP POP POP PUSH1 0x40 MLOAD RETURNDATASIZE PUSH1 0x20 DUP2 LT ISZERO PUSH2 0x3D82 JUMPI PUSH1 0x0 DUP1 REVERT JUMPDEST POP MLOAD SWAP3 SWAP2 POP POP JUMP JUMPDEST PUSH1 0x14 SLOAD DUP2 JUMP JUMPDEST PUSH1 0x17 SLOAD DUP2 JUMP JUMPDEST PUSH1 0x1 SLOAD PUSH1 0x1 PUSH1 0x1 PUSH1 0xA0 SHL SUB AND CALLER EQ PUSH2 0x3DDF JUMPI PUSH1 0x40 MLOAD PUSH3 0x461BCD PUSH1 0xE5 SHL DUP2 MSTORE PUSH1 0x4 ADD DUP1 DUP1 PUSH1 0x20 ADD DUP3 DUP2 SUB DUP3 MSTORE PUSH1 0x24 DUP2 MSTORE PUSH1 0x20 ADD DUP1 PUSH2 0x4A97 PUSH1 0x24 SWAP2 CODECOPY PUSH1 0x40 ADD SWAP2 POP POP PUSH1 0x40 MLOAD DUP1 SWAP2 SUB SWAP1 REVERT JUMPDEST PUSH1 0x16 SSTORE JUMP JUMPDEST PUSH1 0x4 SLOAD DUP2 JUMP JUMPDEST PUSH1 0x0 DUP3 PUSH2 0x3DF9 JUMPI POP PUSH1 0x0 PUSH2 0x3348 JUMP JUMPDEST DUP3 DUP3 MUL DUP3 DUP5 DUP3 DUP2 PUSH2 0x3E06 JUMPI INVALID JUMPDEST DIV EQ PUSH2 0x3E43 JUMPI PUSH1 0x40 MLOAD PUSH3 0x461BCD PUSH1 0xE5 SHL DUP2 MSTORE PUSH1 0x4 ADD DUP1 DUP1 PUSH1 0x20 ADD DUP3 DUP2 SUB DUP3 MSTORE PUSH1 0x21 DUP2 MSTORE PUSH1 0x20 ADD DUP1 PUSH2 0x499A PUSH1 0x21 SWAP2 CODECOPY PUSH1 0x40 ADD SWAP2 POP POP PUSH1 0x40 MLOAD DUP1 SWAP2 SUB SWAP1 REVERT JUMPDEST SWAP4 SWAP3 POP POP POP JUMP JUMPDEST PUSH1 0x0 DUP1 DUP3 GT PUSH2 0x3EA0 JUMPI PUSH1 0x40 DUP1 MLOAD PUSH3 0x461BCD PUSH1 0xE5 SHL DUP2 MSTORE PUSH1 0x20 PUSH1 0x4 DUP3 ADD MSTORE PUSH1 0x1A PUSH1 0x24 DUP3 ADD MSTORE PUSH32 0x536166654D6174683A206469766973696F6E206279207A65726F000000000000 PUSH1 0x44 DUP3 ADD MSTORE SWAP1 MLOAD SWAP1 DUP2 SWAP1 SUB PUSH1 0x64 ADD SWAP1 REVERT JUMPDEST DUP2 DUP4 DUP2 PUSH2 0x3EA9 JUMPI INVALID JUMPDEST DIV SWAP4 SWAP3 POP POP POP JUMP JUMPDEST PUSH1 0x0 DUP3 DUP3 GT ISZERO PUSH2 0x3F08 JUMPI PUSH1 0x40 DUP1 MLOAD PUSH3 0x461BCD PUSH1 0xE5 SHL DUP2 MSTORE PUSH1 0x20 PUSH1 0x4 DUP3 ADD MSTORE PUSH1 0x1E PUSH1 0x24 DUP3 ADD MSTORE PUSH32 0x536166654D6174683A207375627472616374696F6E206F766572666C6F770000 PUSH1 0x44 DUP3 ADD MSTORE SWAP1 MLOAD SWAP1 DUP2 SWAP1 SUB PUSH1 0x64 ADD SWAP1 REVERT JUMPDEST POP SWAP1 SUB SWAP1 JUMP JUMPDEST PUSH1 0x0 DUP3 DUP3 ADD DUP4 DUP2 LT ISZERO PUSH2 0x3E43 JUMPI PUSH1 0x40 DUP1 MLOAD PUSH3 0x461BCD PUSH1 0xE5 SHL DUP2 MSTORE PUSH1 0x20 PUSH1 0x4 DUP3 ADD MSTORE PUSH1 0x1B PUSH1 0x24 DUP3 ADD MSTORE PUSH32 0x536166654D6174683A206164646974696F6E206F766572666C6F770000000000 PUSH1 0x44 DUP3 ADD MSTORE SWAP1 MLOAD SWAP1 DUP2 SWAP1 SUB PUSH1 0x64 ADD SWAP1 REVERT JUMPDEST NUMBER PUSH1 0x0 SWAP1 DUP2 MSTORE PUSH1 0x20 DUP2 DUP2 MSTORE PUSH1 0x40 DUP1 DUP4 KECCAK256 ORIGIN DUP5 MSTORE SWAP1 SWAP2 MSTORE SWAP1 KECCAK256 SLOAD PUSH1 0xFF AND SWAP1 JUMP JUMPDEST NUMBER PUSH1 0x0 SWAP1 DUP2 MSTORE PUSH1 0x20 DUP2 DUP2 MSTORE PUSH1 0x40 DUP1 DUP4 KECCAK256 CALLER DUP5 MSTORE SWAP1 SWAP2 MSTORE SWAP1 KECCAK256 SLOAD PUSH1 0xFF AND SWAP1 JUMP JUMPDEST PUSH1 0x0 DUP2 DUP4 LT PUSH2 0x3FB5 JUMPI DUP2 PUSH2 0x3E43 JUMP JUMPDEST POP SWAP1 SWAP2 SWAP1 POP JUMP JUMPDEST PUSH1 0x40 DUP1 MLOAD PUSH1 0x1 PUSH1 0x1 PUSH1 0xA0 SHL SUB DUP5 AND PUSH1 0x24 DUP3 ADD MSTORE PUSH1 0x44 DUP1 DUP3 ADD DUP5 SWAP1 MSTORE DUP3 MLOAD DUP1 DUP4 SUB SWAP1 SWAP2 ADD DUP2 MSTORE PUSH1 0x64 SWAP1 SWAP2 ADD SWAP1 SWAP2 MSTORE PUSH1 0x20 DUP2 ADD DUP1 MLOAD PUSH1 0x1 PUSH1 0x1 PUSH1 0xE0 SHL SUB AND PUSH4 0xA9059CBB PUSH1 0xE0 SHL OR SWAP1 MSTORE PUSH2 0x2006 SWAP1 DUP5 SWAP1 PUSH2 0x440F JUMP JUMPDEST PUSH1 0xB PUSH1 0x0 SWAP1 SLOAD SWAP1 PUSH2 0x100 EXP SWAP1 DIV PUSH1 0x1 PUSH1 0x1 PUSH1 0xA0 SHL SUB AND PUSH1 0x1 PUSH1 0x1 PUSH1 0xA0 SHL SUB AND PUSH4 0xA2E62045 PUSH1 0x40 MLOAD DUP2 PUSH4 0xFFFFFFFF AND PUSH1 0xE0 SHL DUP2 MSTORE PUSH1 0x4 ADD PUSH1 0x0 PUSH1 0x40 MLOAD DUP1 DUP4 SUB DUP2 PUSH1 0x0 DUP8 DUP1 EXTCODESIZE ISZERO DUP1 ISZERO PUSH2 0x405E JUMPI PUSH1 0x0 DUP1 REVERT JUMPDEST POP GAS CALL SWAP3 POP POP POP DUP1 ISZERO PUSH2 0x406F JUMPI POP PUSH1 0x1 JUMPDEST POP JUMP JUMPDEST PUSH1 0x6 SLOAD PUSH1 0x40 DUP1 MLOAD PUSH4 0x40C10F19 PUSH1 0xE0 SHL DUP2 MSTORE ADDRESS PUSH1 0x4 DUP3 ADD MSTORE PUSH1 0x24 DUP2 ADD DUP5 SWAP1 MSTORE SWAP1 MLOAD PUSH1 0x1 PUSH1 0x1 PUSH1 0xA0 SHL SUB SWAP1 SWAP3 AND SWAP2 PUSH4 0x40C10F19 SWAP2 PUSH1 0x44 DUP1 DUP3 ADD SWAP3 PUSH1 0x20 SWAP3 SWAP1 SWAP2 SWAP1 DUP3 SWAP1 SUB ADD DUP2 PUSH1 0x0 DUP8 DUP1 EXTCODESIZE ISZERO DUP1 ISZERO PUSH2 0x40C6 JUMPI PUSH1 0x0 DUP1 REVERT JUMPDEST POP GAS CALL ISZERO DUP1 ISZERO PUSH2 0x40DA JUMPI RETURNDATASIZE PUSH1 0x0 DUP1 RETURNDATACOPY RETURNDATASIZE PUSH1 0x0 REVERT JUMPDEST POP POP POP POP PUSH1 0x40 MLOAD RETURNDATASIZE PUSH1 0x20 DUP2 LT ISZERO PUSH2 0x40F0 JUMPI PUSH1 0x0 DUP1 REVERT JUMPDEST POP POP PUSH1 0x21 SLOAD PUSH1 0x0 SWAP1 ISZERO PUSH2 0x41D8 JUMPI PUSH2 0x4118 PUSH2 0x2710 PUSH2 0xDF1 PUSH1 0x21 SLOAD DUP6 PUSH2 0x3DEA SWAP1 SWAP2 SWAP1 PUSH4 0xFFFFFFFF AND JUMP JUMPDEST PUSH1 0x6 SLOAD PUSH1 0x20 DUP1 SLOAD PUSH1 0x40 DUP1 MLOAD PUSH4 0xA9059CBB PUSH1 0xE0 SHL DUP2 MSTORE PUSH1 0x1 PUSH1 0x1 PUSH1 0xA0 SHL SUB SWAP3 DUP4 AND PUSH1 0x4 DUP3 ADD MSTORE PUSH1 0x24 DUP2 ADD DUP7 SWAP1 MSTORE SWAP1 MLOAD SWAP5 SWAP6 POP SWAP3 AND SWAP3 PUSH4 0xA9059CBB SWAP3 PUSH1 0x44 DUP1 DUP3 ADD SWAP4 SWAP3 SWAP2 DUP3 SWAP1 SUB ADD DUP2 PUSH1 0x0 DUP8 DUP1 EXTCODESIZE ISZERO DUP1 ISZERO PUSH2 0x4170 JUMPI PUSH1 0x0 DUP1 REVERT JUMPDEST POP GAS CALL ISZERO DUP1 ISZERO PUSH2 0x4184 JUMPI RETURNDATASIZE PUSH1 0x0 DUP1 RETURNDATACOPY RETURNDATASIZE PUSH1 0x0 REVERT JUMPDEST POP POP POP POP PUSH1 0x40 MLOAD RETURNDATASIZE PUSH1 0x20 DUP2 LT ISZERO PUSH2 0x419A JUMPI PUSH1 0x0 DUP1 REVERT JUMPDEST POP POP PUSH1 0x40 DUP1 MLOAD TIMESTAMP DUP2 MSTORE PUSH1 0x20 DUP2 ADD DUP4 SWAP1 MSTORE DUP2 MLOAD PUSH32 0xCB3F34AAA3445B461E6DA5492DC89E5C257A59FA598131F3B6BBC97A3638E409 SWAP3 SWAP2 DUP2 SWAP1 SUB SWAP1 SWAP2 ADD SWAP1 LOG1 JUMPDEST PUSH1 0x23 SLOAD PUSH1 0x0 SWAP1 ISZERO PUSH2 0x42C1 JUMPI PUSH2 0x41FE PUSH2 0x2710 PUSH2 0xDF1 PUSH1 0x23 SLOAD DUP7 PUSH2 0x3DEA SWAP1 SWAP2 SWAP1 PUSH4 0xFFFFFFFF AND JUMP JUMPDEST PUSH1 0x6 SLOAD PUSH1 0x22 SLOAD PUSH1 0x40 DUP1 MLOAD PUSH4 0xA9059CBB PUSH1 0xE0 SHL DUP2 MSTORE PUSH1 0x1 PUSH1 0x1 PUSH1 0xA0 SHL SUB SWAP3 DUP4 AND PUSH1 0x4 DUP3 ADD MSTORE PUSH1 0x24 DUP2 ADD DUP6 SWAP1 MSTORE SWAP1 MLOAD SWAP4 SWAP5 POP SWAP2 AND SWAP2 PUSH4 0xA9059CBB SWAP2 PUSH1 0x44 DUP1 DUP3 ADD SWAP3 PUSH1 0x20 SWAP3 SWAP1 SWAP2 SWAP1 DUP3 SWAP1 SUB ADD DUP2 PUSH1 0x0 DUP8 DUP1 EXTCODESIZE ISZERO DUP1 ISZERO PUSH2 0x4259 JUMPI PUSH1 0x0 DUP1 REVERT JUMPDEST POP GAS CALL ISZERO DUP1 ISZERO PUSH2 0x426D JUMPI RETURNDATASIZE PUSH1 0x0 DUP1 RETURNDATACOPY RETURNDATASIZE PUSH1 0x0 REVERT JUMPDEST POP POP POP POP PUSH1 0x40 MLOAD RETURNDATASIZE PUSH1 0x20 DUP2 LT ISZERO PUSH2 0x4283 JUMPI PUSH1 0x0 DUP1 REVERT JUMPDEST POP POP PUSH1 0x40 DUP1 MLOAD TIMESTAMP DUP2 MSTORE PUSH1 0x20 DUP2 ADD DUP4 SWAP1 MSTORE DUP2 MLOAD PUSH32 0xDC8B715B18523E58B7FD0DA53259DFA91EFD91DF4A854D94B136E3333A3B9395 SWAP3 SWAP2 DUP2 SWAP1 SUB SWAP1 SWAP2 ADD SWAP1 LOG1 JUMPDEST PUSH2 0x42CF DUP2 PUSH2 0x2BC0 DUP6 DUP6 PUSH2 0x3EB1 JUMP JUMPDEST PUSH1 0x9 SLOAD PUSH1 0x6 SLOAD SWAP2 SWAP5 POP PUSH2 0x42F0 SWAP2 PUSH1 0x1 PUSH1 0x1 PUSH1 0xA0 SHL SUB SWAP1 DUP2 AND SWAP2 AND PUSH1 0x0 PUSH2 0x44C0 JUMP JUMPDEST PUSH1 0x9 SLOAD PUSH1 0x6 SLOAD PUSH2 0x430D SWAP2 PUSH1 0x1 PUSH1 0x1 PUSH1 0xA0 SHL SUB SWAP2 DUP3 AND SWAP2 AND DUP6 PUSH2 0x44C0 JUMP JUMPDEST PUSH1 0x9 SLOAD PUSH1 0x40 DUP1 MLOAD PUSH4 0x97FFE1D7 PUSH1 0xE0 SHL DUP2 MSTORE PUSH1 0x4 DUP2 ADD DUP7 SWAP1 MSTORE SWAP1 MLOAD PUSH1 0x1 PUSH1 0x1 PUSH1 0xA0 SHL SUB SWAP1 SWAP3 AND SWAP2 PUSH4 0x97FFE1D7 SWAP2 PUSH1 0x24 DUP1 DUP3 ADD SWAP3 PUSH1 0x0 SWAP3 SWAP1 SWAP2 SWAP1 DUP3 SWAP1 SUB ADD DUP2 DUP4 DUP8 DUP1 EXTCODESIZE ISZERO DUP1 ISZERO PUSH2 0x435A JUMPI PUSH1 0x0 DUP1 REVERT JUMPDEST POP GAS CALL ISZERO DUP1 ISZERO PUSH2 0x436E JUMPI RETURNDATASIZE PUSH1 0x0 DUP1 RETURNDATACOPY RETURNDATASIZE PUSH1 0x0 REVERT JUMPDEST POP POP PUSH1 0x40 DUP1 MLOAD TIMESTAMP DUP2 MSTORE PUSH1 0x20 DUP2 ADD DUP8 SWAP1 MSTORE DUP2 MLOAD PUSH32 0x83AB04D09C2F4BA71D275618ABE032919288288E9A89CB1D8C858B8FD348F8C0 SWAP5 POP SWAP1 DUP2 SWAP1 SUB SWAP1 SWAP2 ADD SWAP2 POP LOG1 POP POP POP JUMP JUMPDEST PUSH1 0x0 PUSH1 0x8 JUMPDEST PUSH1 0xF DUP2 PUSH1 0xFF AND DUP2 SLOAD DUP2 LT PUSH2 0x43C7 JUMPI INVALID JUMPDEST SWAP1 PUSH1 0x0 MSTORE PUSH1 0x20 PUSH1 0x0 KECCAK256 ADD SLOAD DUP4 LT PUSH2 0x43FC JUMPI PUSH1 0x10 DUP2 PUSH1 0xFF AND DUP2 SLOAD DUP2 LT PUSH2 0x43E8 JUMPI INVALID JUMPDEST PUSH1 0x0 SWAP2 DUP3 MSTORE PUSH1 0x20 SWAP1 SWAP2 KECCAK256 ADD SLOAD PUSH1 0x11 SSTORE PUSH2 0x4405 JUMP JUMPDEST PUSH1 0x0 NOT ADD PUSH2 0x43B7 JUMP JUMPDEST POP POP PUSH1 0x11 SLOAD SWAP2 SWAP1 POP JUMP JUMPDEST PUSH1 0x60 PUSH2 0x4464 DUP3 PUSH1 0x40 MLOAD DUP1 PUSH1 0x40 ADD PUSH1 0x40 MSTORE DUP1 PUSH1 0x20 DUP2 MSTORE PUSH1 0x20 ADD PUSH32 0x5361666545524332303A206C6F772D6C6576656C2063616C6C206661696C6564 DUP2 MSTORE POP DUP6 PUSH1 0x1 PUSH1 0x1 PUSH1 0xA0 SHL SUB AND PUSH2 0x45D3 SWAP1 SWAP3 SWAP2 SWAP1 PUSH4 0xFFFFFFFF AND JUMP JUMPDEST DUP1 MLOAD SWAP1 SWAP2 POP ISZERO PUSH2 0x2006 JUMPI DUP1 DUP1 PUSH1 0x20 ADD SWAP1 MLOAD PUSH1 0x20 DUP2 LT ISZERO PUSH2 0x4483 JUMPI PUSH1 0x0 DUP1 REVERT JUMPDEST POP MLOAD PUSH2 0x2006 JUMPI PUSH1 0x40 MLOAD PUSH3 0x461BCD PUSH1 0xE5 SHL DUP2 MSTORE PUSH1 0x4 ADD DUP1 DUP1 PUSH1 0x20 ADD DUP3 DUP2 SUB DUP3 MSTORE PUSH1 0x2A DUP2 MSTORE PUSH1 0x20 ADD DUP1 PUSH2 0x4ABB PUSH1 0x2A SWAP2 CODECOPY PUSH1 0x40 ADD SWAP2 POP POP PUSH1 0x40 MLOAD DUP1 SWAP2 SUB SWAP1 REVERT JUMPDEST DUP1 ISZERO DUP1 PUSH2 0x4546 JUMPI POP PUSH1 0x40 DUP1 MLOAD PUSH4 0x6EB1769F PUSH1 0xE1 SHL DUP2 MSTORE ADDRESS PUSH1 0x4 DUP3 ADD MSTORE PUSH1 0x1 PUSH1 0x1 PUSH1 0xA0 SHL SUB DUP5 DUP2 AND PUSH1 0x24 DUP4 ADD MSTORE SWAP2 MLOAD SWAP2 DUP6 AND SWAP2 PUSH4 0xDD62ED3E SWAP2 PUSH1 0x44 DUP1 DUP3 ADD SWAP3 PUSH1 0x20 SWAP3 SWAP1 SWAP2 SWAP1 DUP3 SWAP1 SUB ADD DUP2 DUP7 DUP1 EXTCODESIZE ISZERO DUP1 ISZERO PUSH2 0x4518 JUMPI PUSH1 0x0 DUP1 REVERT JUMPDEST POP GAS STATICCALL ISZERO DUP1 ISZERO PUSH2 0x452C JUMPI RETURNDATASIZE PUSH1 0x0 DUP1 RETURNDATACOPY RETURNDATASIZE PUSH1 0x0 REVERT JUMPDEST POP POP POP POP PUSH1 0x40 MLOAD RETURNDATASIZE PUSH1 0x20 DUP2 LT ISZERO PUSH2 0x4542 JUMPI PUSH1 0x0 DUP1 REVERT JUMPDEST POP MLOAD ISZERO JUMPDEST PUSH2 0x4581 JUMPI PUSH1 0x40 MLOAD PUSH3 0x461BCD PUSH1 0xE5 SHL DUP2 MSTORE PUSH1 0x4 ADD DUP1 DUP1 PUSH1 0x20 ADD DUP3 DUP2 SUB DUP3 MSTORE PUSH1 0x36 DUP2 MSTORE PUSH1 0x20 ADD DUP1 PUSH2 0x4B0B PUSH1 0x36 SWAP2 CODECOPY PUSH1 0x40 ADD SWAP2 POP POP PUSH1 0x40 MLOAD DUP1 SWAP2 SUB SWAP1 REVERT JUMPDEST PUSH1 0x40 DUP1 MLOAD PUSH1 0x1 PUSH1 0x1 PUSH1 0xA0 SHL SUB DUP5 AND PUSH1 0x24 DUP3 ADD MSTORE PUSH1 0x44 DUP1 DUP3 ADD DUP5 SWAP1 MSTORE DUP3 MLOAD DUP1 DUP4 SUB SWAP1 SWAP2 ADD DUP2 MSTORE PUSH1 0x64 SWAP1 SWAP2 ADD SWAP1 SWAP2 MSTORE PUSH1 0x20 DUP2 ADD DUP1 MLOAD PUSH1 0x1 PUSH1 0x1 PUSH1 0xE0 SHL SUB AND PUSH4 0x95EA7B3 PUSH1 0xE0 SHL OR SWAP1 MSTORE PUSH2 0x2006 SWAP1 DUP5 SWAP1 PUSH2 0x440F JUMP JUMPDEST PUSH1 0x60 PUSH2 0x45E2 DUP5 DUP5 PUSH1 0x0 DUP6 PUSH2 0x45EA JUMP JUMPDEST SWAP5 SWAP4 POP POP POP POP JUMP JUMPDEST PUSH1 0x60 DUP3 SELFBALANCE LT ISZERO PUSH2 0x462B JUMPI PUSH1 0x40 MLOAD PUSH3 0x461BCD PUSH1 0xE5 SHL DUP2 MSTORE PUSH1 0x4 ADD DUP1 DUP1 PUSH1 0x20 ADD DUP3 DUP2 SUB DUP3 MSTORE PUSH1 0x26 DUP2 MSTORE PUSH1 0x20 ADD DUP1 PUSH2 0x494F PUSH1 0x26 SWAP2 CODECOPY PUSH1 0x40 ADD SWAP2 POP POP PUSH1 0x40 MLOAD DUP1 SWAP2 SUB SWAP1 REVERT JUMPDEST PUSH2 0x4634 DUP6 PUSH2 0x4746 JUMP JUMPDEST PUSH2 0x4685 JUMPI PUSH1 0x40 DUP1 MLOAD PUSH3 0x461BCD PUSH1 0xE5 SHL DUP2 MSTORE PUSH1 0x20 PUSH1 0x4 DUP3 ADD MSTORE PUSH1 0x1D PUSH1 0x24 DUP3 ADD MSTORE PUSH32 0x416464726573733A2063616C6C20746F206E6F6E2D636F6E7472616374000000 PUSH1 0x44 DUP3 ADD MSTORE SWAP1 MLOAD SWAP1 DUP2 SWAP1 SUB PUSH1 0x64 ADD SWAP1 REVERT JUMPDEST PUSH1 0x0 PUSH1 0x60 DUP7 PUSH1 0x1 PUSH1 0x1 PUSH1 0xA0 SHL SUB AND DUP6 DUP8 PUSH1 0x40 MLOAD DUP1 DUP3 DUP1 MLOAD SWAP1 PUSH1 0x20 ADD SWAP1 DUP1 DUP4 DUP4 JUMPDEST PUSH1 0x20 DUP4 LT PUSH2 0x46C4 JUMPI DUP1 MLOAD DUP3 MSTORE PUSH1 0x1F NOT SWAP1 SWAP3 ADD SWAP2 PUSH1 0x20 SWAP2 DUP3 ADD SWAP2 ADD PUSH2 0x46A5 JUMP JUMPDEST PUSH1 0x1 DUP4 PUSH1 0x20 SUB PUSH2 0x100 EXP SUB DUP1 NOT DUP3 MLOAD AND DUP2 DUP5 MLOAD AND DUP1 DUP3 OR DUP6 MSTORE POP POP POP POP POP POP SWAP1 POP ADD SWAP2 POP POP PUSH1 0x0 PUSH1 0x40 MLOAD DUP1 DUP4 SUB DUP2 DUP6 DUP8 GAS CALL SWAP3 POP POP POP RETURNDATASIZE DUP1 PUSH1 0x0 DUP2 EQ PUSH2 0x4726 JUMPI PUSH1 0x40 MLOAD SWAP2 POP PUSH1 0x1F NOT PUSH1 0x3F RETURNDATASIZE ADD AND DUP3 ADD PUSH1 0x40 MSTORE RETURNDATASIZE DUP3 MSTORE RETURNDATASIZE PUSH1 0x0 PUSH1 0x20 DUP5 ADD RETURNDATACOPY PUSH2 0x472B JUMP JUMPDEST PUSH1 0x60 SWAP2 POP JUMPDEST POP SWAP2 POP SWAP2 POP PUSH2 0x473B DUP3 DUP3 DUP7 PUSH2 0x474C JUMP JUMPDEST SWAP8 SWAP7 POP POP POP POP POP POP POP JUMP JUMPDEST EXTCODESIZE ISZERO ISZERO SWAP1 JUMP JUMPDEST PUSH1 0x60 DUP4 ISZERO PUSH2 0x475B JUMPI POP DUP2 PUSH2 0x3E43 JUMP JUMPDEST DUP3 MLOAD ISZERO PUSH2 0x476B JUMPI DUP3 MLOAD DUP1 DUP5 PUSH1 0x20 ADD REVERT JUMPDEST DUP2 PUSH1 0x40 MLOAD PUSH3 0x461BCD PUSH1 0xE5 SHL DUP2 MSTORE PUSH1 0x4 ADD DUP1 DUP1 PUSH1 0x20 ADD DUP3 DUP2 SUB DUP3 MSTORE DUP4 DUP2 DUP2 MLOAD DUP2 MSTORE PUSH1 0x20 ADD SWAP2 POP DUP1 MLOAD SWAP1 PUSH1 0x20 ADD SWAP1 DUP1 DUP4 DUP4 PUSH1 0x0 JUMPDEST DUP4 DUP2 LT ISZERO PUSH2 0x47B5 JUMPI DUP2 DUP2 ADD MLOAD DUP4 DUP3 ADD MSTORE PUSH1 0x20 ADD PUSH2 0x479D JUMP JUMPDEST POP POP POP POP SWAP1 POP SWAP1 DUP2 ADD SWAP1 PUSH1 0x1F AND DUP1 ISZERO PUSH2 0x47E2 JUMPI DUP1 DUP3 SUB DUP1 MLOAD PUSH1 0x1 DUP4 PUSH1 0x20 SUB PUSH2 0x100 EXP SUB NOT AND DUP2 MSTORE PUSH1 0x20 ADD SWAP2 POP JUMPDEST POP SWAP3 POP POP POP PUSH1 0x40 MLOAD DUP1 SWAP2 SUB SWAP1 REVERT JUMPDEST DUP3 DUP1 SLOAD DUP3 DUP3 SSTORE SWAP1 PUSH1 0x0 MSTORE PUSH1 0x20 PUSH1 0x0 KECCAK256 SWAP1 DUP2 ADD SWAP3 DUP3 ISZERO PUSH2 0x483A JUMPI SWAP2 PUSH1 0x20 MUL DUP3 ADD JUMPDEST DUP3 DUP2 GT ISZERO PUSH2 0x483A JUMPI DUP3 MLOAD DUP3 SWAP1 PUSH11 0xFFFFFFFFFFFFFFFFFFFFFF AND SWAP1 SSTORE SWAP2 PUSH1 0x20 ADD SWAP2 SWAP1 PUSH1 0x1 ADD SWAP1 PUSH2 0x4810 JUMP JUMPDEST POP PUSH2 0xE55 SWAP3 SWAP2 POP PUSH2 0x4887 JUMP JUMPDEST DUP3 DUP1 SLOAD DUP3 DUP3 SSTORE SWAP1 PUSH1 0x0 MSTORE PUSH1 0x20 PUSH1 0x0 KECCAK256 SWAP1 DUP2 ADD SWAP3 DUP3 ISZERO PUSH2 0x483A JUMPI SWAP2 PUSH1 0x20 MUL DUP3 ADD JUMPDEST DUP3 DUP2 GT ISZERO PUSH2 0x483A JUMPI DUP3 MLOAD DUP3 SWAP1 PUSH2 0xFFFF AND SWAP1 SSTORE SWAP2 PUSH1 0x20 ADD SWAP2 SWAP1 PUSH1 0x1 ADD SWAP1 PUSH2 0x4866 JUMP JUMPDEST JUMPDEST DUP1 DUP3 GT ISZERO PUSH2 0xE55 JUMPI PUSH1 0x0 DUP2 SSTORE PUSH1 0x1 ADD PUSH2 0x4888 JUMP INVALID SLOAD PUSH19 0x6561737572793A206661696C656420746F2063 PUSH16 0x6E73756C742047414D45207072696365 KECCAK256 PUSH7 0x726F6D20746865 KECCAK256 PUSH16 0x7261636C6554726561737572793A2063 PUSH2 0x6E6E PUSH16 0x742072656465656D20626F6E64732077 PUSH10 0x7468207A65726F20616D PUSH16 0x756E745F7072656D69756D5468726573 PUSH9 0x6F6C64206578636565 PUSH5 0x732067616D PUSH6 0x507269636543 PUSH6 0x696C696E675F PUSH17 0x72656D69756D5468726573686F6C642069 PUSH20 0x20686967686572207468616E20312E3541646472 PUSH6 0x73733A20696E PUSH20 0x756666696369656E742062616C616E636520666F PUSH19 0x2063616C6C54726561737572793A2074726561 PUSH20 0x75727920686173206E6F206D6F72652062756467 PUSH6 0x74536166654D PUSH2 0x7468 GASPRICE KECCAK256 PUSH14 0x756C7469706C69636174696F6E20 PUSH16 0x766572666C6F7754726561737572793A KECCAK256 PUSH4 0x616E6E6F PUSH21 0x20707572636861736520626F6E6473207769746820 PUSH27 0x65726F20616D6F756E745F6D696E74696E67466163746F72466F72 POP PUSH2 0x7969 PUSH15 0x67446562743A206F7574206F662072 PUSH2 0x6E67 PUSH6 0x5F6D61785375 PUSH17 0x706C79457870616E73696F6E5065726365 PUSH15 0x743A206F7574206F662072616E6765 0x49 PUSH15 0x6465782068617320746F206265206C PUSH16 0x776572207468616E20636F756E74206F PUSH7 0x20746965727354 PUSH19 0x6561737572793A2067616D655072696365206E PUSH16 0x7420656C696769626C6520666F722062 PUSH16 0x6E642070757263686173655472656173 PUSH22 0x72793A2063616C6C6572206973206E6F742074686520 PUSH16 0x70657261746F72536166654552433230 GASPRICE KECCAK256 GASLIMIT MSTORE NUMBER ORIGIN ADDRESS KECCAK256 PUSH16 0x7065726174696F6E20646964206E6F74 KECCAK256 PUSH20 0x756363656564436F6E747261637447756172643A KECCAK256 PUSH16 0x6E6520626C6F636B2C206F6E65206675 PUSH15 0x6374696F6E5361666545524332303A KECCAK256 PUSH2 0x7070 PUSH19 0x6F76652066726F6D206E6F6E2D7A65726F2074 PUSH16 0x206E6F6E2D7A65726F20616C6C6F7761 PUSH15 0x636554726561737572793A206E6F74 KECCAK256 PUSH6 0x6E6F75676820 PUSH3 0x6F6E64 KECCAK256 PUSH13 0x65667420746F20707572636861 PUSH20 0x655F626F6F747374726170537570706C79457870 PUSH2 0x6E73 PUSH10 0x6F6E50657263656E743A KECCAK256 PUSH16 0x7574206F662072616E6765A264697066 PUSH20 0x58221220FDA2C4698B4984B9F2D32EA8499E3F16 SWAP1 0xD2 LOG0 SWAP15 0xAE LOG0 CALLDATACOPY RETURNDATASIZE 0xDB 0x25 PUSH4 0x9B0D48F7 EXTCODECOPY PUSH5 0x736F6C6343 STOP MOD 0xC STOP CALLER "
		},
		"gasEstimates": {
			"creation": {
				"codeDepositCost": "3881200",
				"executionCost": "35251",
				"totalCost": "3916451"
			},
			"external": {
				"PERIOD()": "288",
				"allocateSeigniorage()": "infinite",
				"bondDepletionFloorPercent()": "1133",
				"bondSupplyExpansionPercent()": "1110",
				"bondTreasury()": "1171",
				"bootstrapEpochs()": "1130",
				"bootstrapSupplyExpansionPercent()": "1066",
				"burn(address,uint256)": "infinite",
				"buyBonds(uint256,uint256)": "infinite",
				"daoFund()": "1149",
				"daoFundSharedPercent()": "1088",
				"devFund()": "1194",
				"devFundSharedPercent()": "1090",
				"discountPercent()": "1155",
				"epoch()": "1132",
				"epochSupplyContractionLeft()": "1174",
				"excludedFromTotalSupply(uint256)": "2127",
				"game()": "1193",
				"gameOracle()": "1107",
				"gamePriceCeiling()": "1066",
				"gamePriceOne()": "1153",
				"getBondDiscountRate()": "infinite",
				"getBondPremiumRate()": "infinite",
				"getBurnableGameLeft()": "infinite",
				"getGameCirculatingSupply()": "infinite",
				"getGamePrice()": "infinite",
				"getGameUpdatedPrice()": "infinite",
				"getRedeemableBonds()": "infinite",
				"getReserve()": "1154",
				"governanceRecoverUnsupported(address,uint256,address)": "infinite",
				"hodl()": "1148",
				"initialize(address,address,address,address,address,address,uint256)": "infinite",
				"initialized()": "1118",
				"isInitialized()": "1161",
				"maxDebtRatioPercent()": "1131",
				"maxDiscountRate()": "1110",
				"maxExpansionTiers(uint256)": "1998",
				"maxPremiumRate()": "1088",
				"maxSupplyContractionPercent()": "1108",
				"maxSupplyExpansionPercent()": "1109",
				"mintingFactorForPayingDebt()": "1111",
				"nextEpochPoint()": "infinite",
				"operator()": "1149",
				"premiumPercent()": "1087",
				"premiumThreshold()": "1109",
				"previousEpochGamePrice()": "1066",
				"redeemBonds(uint256,uint256)": "infinite",
				"seigniorageExpansionFloorPercent()": "1111",
				"seigniorageSaved()": "1065",
				"setBondDepletionFloorPercent(uint256)": "infinite",
				"setBondSupplyExpansionPercent(uint256)": "infinite",
				"setBootstrap(uint256,uint256)": "infinite",
				"setDiscountPercent(uint256)": "infinite",
				"setExtraFunds(address,uint256,address,uint256)": "infinite",
				"setGameOracle(address)": "infinite",
				"setGamePriceCeiling(uint256)": "infinite",
				"setMaxDebtRatioPercent(uint256)": "infinite",
				"setMaxDiscountRate(uint256)": "infinite",
				"setMaxExpansionTiersEntry(uint8,uint256)": "infinite",
				"setMaxPremiumRate(uint256)": "infinite",
				"setMaxSupplyContractionPercent(uint256)": "infinite",
				"setMaxSupplyExpansionPercents(uint256)": "infinite",
				"setMintingFactorForPayingDebt(uint256)": "infinite",
				"setOperator(address)": "infinite",
				"setPremiumPercent(uint256)": "infinite",
				"setPremiumThreshold(uint256)": "infinite",
				"setStartTime(uint256)": "infinite",
				"setSupplyTiersEntry(uint8,uint256)": "infinite",
				"setTheoretics(address)": "infinite",
				"startTime()": "1111",
				"supplyTiers(uint256)": "2043",
				"theoretics()": "1192",
				"theoreticsAllocateSeigniorage(uint256)": "infinite",
				"theoreticsGetCurrentClaimEpochs()": "infinite",
				"theoreticsGetCurrentWithdrawEpochs()": "infinite",
				"theoreticsGetLockPercentage()": "infinite",
				"theoreticsGetWithdrawFeeOf(address)": "infinite",
				"theoreticsGovernanceRecoverUnsupported(address,uint256,address)": "infinite",
				"theoreticsSetLockUp(uint256,uint256)": "infinite",
				"theoreticsSetOperator(address)": "infinite",
				"theory()": "1193"
			},
			"internal": {
				"_calculateMaxSupplyExpansionPercent(uint256)": "infinite",
				"_sendToTheoretics(uint256)": "infinite",
				"_updateGamePrice()": "infinite"
			}
		},
		"methodIdentifiers": {
			"PERIOD()": "b4d1d795",
			"allocateSeigniorage()": "5b756179",
			"bondDepletionFloorPercent()": "81d11eaf",
			"bondSupplyExpansionPercent()": "349aa30a",
			"bondTreasury()": "9ab4f775",
			"bootstrapEpochs()": "f14698de",
			"bootstrapSupplyExpansionPercent()": "874106cc",
			"burn(address,uint256)": "9dc29fac",
			"buyBonds(uint256,uint256)": "54f04a11",
			"daoFund()": "8d934f74",
			"daoFundSharedPercent()": "55ebdeef",
			"devFund()": "4390d2a8",
			"devFundSharedPercent()": "03be7e76",
			"discountPercent()": "29ef1919",
			"epoch()": "900cf0cf",
			"epochSupplyContractionLeft()": "fcb6f008",
			"excludedFromTotalSupply(uint256)": "82cad838",
			"game()": "c3fe3e28",
			"gameOracle()": "0034c8e3",
			"gamePriceCeiling()": "5547055c",
			"gamePriceOne()": "6b82cf81",
			"getBondDiscountRate()": "0cf60175",
			"getBondPremiumRate()": "0db7eb0b",
			"getBurnableGameLeft()": "53550fcb",
			"getGameCirculatingSupply()": "e08078e5",
			"getGamePrice()": "46348384",
			"getGameUpdatedPrice()": "ca8e0b66",
			"getRedeemableBonds()": "72c054f9",
			"getReserve()": "59bf5d39",
			"governanceRecoverUnsupported(address,uint256,address)": "54575af4",
			"hodl()": "60f14509",
			"initialize(address,address,address,address,address,address,uint256)": "1460e390",
			"initialized()": "158ef93e",
			"isInitialized()": "392e53cd",
			"maxDebtRatioPercent()": "da3ed419",
			"maxDiscountRate()": "b8a878f9",
			"maxExpansionTiers(uint256)": "a0487eea",
			"maxPremiumRate()": "2e9c7b65",
			"maxSupplyContractionPercent()": "e90b2454",
			"maxSupplyExpansionPercent()": "d98f2495",
			"mintingFactorForPayingDebt()": "4013a08e",
			"nextEpochPoint()": "c5967c26",
			"operator()": "570ca735",
			"premiumPercent()": "c8412d02",
			"premiumThreshold()": "c8f987f3",
			"previousEpochGamePrice()": "2ca1a4f9",
			"redeemBonds(uint256,uint256)": "118ebbf9",
			"seigniorageExpansionFloorPercent()": "22f832cd",
			"seigniorageSaved()": "5a0fc79c",
			"setBondDepletionFloorPercent(uint256)": "8c664db6",
			"setBondSupplyExpansionPercent(uint256)": "f245245a",
			"setBootstrap(uint256,uint256)": "91bbfed5",
			"setDiscountPercent(uint256)": "154ec2db",
			"setExtraFunds(address,uint256,address,uint256)": "bcc81f19",
			"setGameOracle(address)": "a5275ebd",
			"setGamePriceCeiling(uint256)": "a524ea55",
			"setMaxDebtRatioPercent(uint256)": "591663e1",
			"setMaxDiscountRate(uint256)": "98b762a1",
			"setMaxExpansionTiersEntry(uint8,uint256)": "d4b14944",
			"setMaxPremiumRate(uint256)": "a204452b",
			"setMaxSupplyContractionPercent(uint256)": "cecce38e",
			"setMaxSupplyExpansionPercents(uint256)": "0b5bcec7",
			"setMintingFactorForPayingDebt(uint256)": "499f3f19",
			"setOperator(address)": "b3ab15fb",
			"setPremiumPercent(uint256)": "40af7ba5",
			"setPremiumThreshold(uint256)": "04e5c7b1",
			"setStartTime(uint256)": "3e0a322d",
			"setSupplyTiersEntry(uint8,uint256)": "940e6064",
			"setTheoretics(address)": "63e2e7a7",
			"startTime()": "78e97925",
			"supplyTiers(uint256)": "99820025",
			"theoretics()": "ad45e4ae",
			"theoreticsAllocateSeigniorage(uint256)": "3d14b36b",
			"theoreticsGetCurrentClaimEpochs()": "288bc3f8",
			"theoreticsGetCurrentWithdrawEpochs()": "72252472",
			"theoreticsGetLockPercentage()": "0c7689ac",
			"theoreticsGetWithdrawFeeOf(address)": "e8246017",
			"theoreticsGovernanceRecoverUnsupported(address,uint256,address)": "cf81d705",
			"theoreticsSetLockUp(uint256,uint256)": "db1a376e",
			"theoreticsSetOperator(address)": "0a36669b",
			"theory()": "3c32a450"
		}
	},
	"abi": [
		{
			"anonymous": false,
			"inputs": [
				{
					"indexed": true,
					"internalType": "address",
					"name": "from",
					"type": "address"
				},
				{
					"indexed": false,
					"internalType": "uint256",
					"name": "gameAmount",
					"type": "uint256"
				},
				{
					"indexed": false,
					"internalType": "uint256",
					"name": "bondAmount",
					"type": "uint256"
				}
			],
			"name": "BoughtBonds",
			"type": "event"
		},
		{
			"anonymous": false,
			"inputs": [
				{
					"indexed": true,
					"internalType": "address",
					"name": "from",
					"type": "address"
				},
				{
					"indexed": false,
					"internalType": "uint256",
					"name": "bondAmount",
					"type": "uint256"
				}
			],
			"name": "BurnedBonds",
			"type": "event"
		},
		{
			"anonymous": false,
			"inputs": [
				{
					"indexed": false,
					"internalType": "uint256",
					"name": "timestamp",
					"type": "uint256"
				},
				{
					"indexed": false,
					"internalType": "uint256",
					"name": "seigniorage",
					"type": "uint256"
				}
			],
			"name": "DaoFundFunded",
			"type": "event"
		},
		{
			"anonymous": false,
			"inputs": [
				{
					"indexed": false,
					"internalType": "uint256",
					"name": "timestamp",
					"type": "uint256"
				},
				{
					"indexed": false,
					"internalType": "uint256",
					"name": "seigniorage",
					"type": "uint256"
				}
			],
			"name": "DevFundFunded",
			"type": "event"
		},
		{
			"anonymous": false,
			"inputs": [
				{
					"indexed": true,
					"internalType": "address",
					"name": "executor",
					"type": "address"
				},
				{
					"indexed": false,
					"internalType": "uint256",
					"name": "at",
					"type": "uint256"
				}
			],
			"name": "Initialized",
			"type": "event"
		},
		{
			"anonymous": false,
			"inputs": [
				{
					"indexed": true,
					"internalType": "address",
					"name": "from",
					"type": "address"
				},
				{
					"indexed": false,
					"internalType": "uint256",
					"name": "gameAmount",
					"type": "uint256"
				},
				{
					"indexed": false,
					"internalType": "uint256",
					"name": "bondAmount",
					"type": "uint256"
				}
			],
			"name": "RedeemedBonds",
			"type": "event"
		},
		{
			"anonymous": false,
			"inputs": [
				{
					"indexed": false,
					"internalType": "uint256",
					"name": "timestamp",
					"type": "uint256"
				},
				{
					"indexed": false,
					"internalType": "uint256",
					"name": "seigniorage",
					"type": "uint256"
				}
			],
			"name": "TreasuryFunded",
			"type": "event"
		},
		{
			"anonymous": false,
			"inputs": [
				{
					"indexed": false,
					"internalType": "uint256",
					"name": "timestamp",
					"type": "uint256"
				},
				{
					"indexed": false,
					"internalType": "uint256",
					"name": "seigniorage",
					"type": "uint256"
				}
			],
			"name": "theoreticsFunded",
			"type": "event"
		},
		{
			"inputs": [],
			"name": "PERIOD",
			"outputs": [
				{
					"internalType": "uint256",
					"name": "",
					"type": "uint256"
				}
			],
			"stateMutability": "view",
			"type": "function"
		},
		{
			"inputs": [],
			"name": "allocateSeigniorage",
			"outputs": [],
			"stateMutability": "nonpayable",
			"type": "function"
		},
		{
			"inputs": [],
			"name": "bondDepletionFloorPercent",
			"outputs": [
				{
					"internalType": "uint256",
					"name": "",
					"type": "uint256"
				}
			],
			"stateMutability": "view",
			"type": "function"
		},
		{
			"inputs": [],
			"name": "bondSupplyExpansionPercent",
			"outputs": [
				{
					"internalType": "uint256",
					"name": "",
					"type": "uint256"
				}
			],
			"stateMutability": "view",
			"type": "function"
		},
		{
			"inputs": [],
			"name": "bondTreasury",
			"outputs": [
				{
					"internalType": "address",
					"name": "",
					"type": "address"
				}
			],
			"stateMutability": "view",
			"type": "function"
		},
		{
			"inputs": [],
			"name": "bootstrapEpochs",
			"outputs": [
				{
					"internalType": "uint256",
					"name": "",
					"type": "uint256"
				}
			],
			"stateMutability": "view",
			"type": "function"
		},
		{
			"inputs": [],
			"name": "bootstrapSupplyExpansionPercent",
			"outputs": [
				{
					"internalType": "uint256",
					"name": "",
					"type": "uint256"
				}
			],
			"stateMutability": "view",
			"type": "function"
		},
		{
			"inputs": [
				{
					"internalType": "address",
					"name": "_token",
					"type": "address"
				},
				{
					"internalType": "uint256",
					"name": "_amount",
					"type": "uint256"
				}
			],
			"name": "burn",
			"outputs": [],
			"stateMutability": "nonpayable",
			"type": "function"
		},
		{
			"inputs": [
				{
					"internalType": "uint256",
					"name": "_gameAmount",
					"type": "uint256"
				},
				{
					"internalType": "uint256",
					"name": "targetPrice",
					"type": "uint256"
				}
			],
			"name": "buyBonds",
			"outputs": [],
			"stateMutability": "nonpayable",
			"type": "function"
		},
		{
			"inputs": [],
			"name": "daoFund",
			"outputs": [
				{
					"internalType": "address",
					"name": "",
					"type": "address"
				}
			],
			"stateMutability": "view",
			"type": "function"
		},
		{
			"inputs": [],
			"name": "daoFundSharedPercent",
			"outputs": [
				{
					"internalType": "uint256",
					"name": "",
					"type": "uint256"
				}
			],
			"stateMutability": "view",
			"type": "function"
		},
		{
			"inputs": [],
			"name": "devFund",
			"outputs": [
				{
					"internalType": "address",
					"name": "",
					"type": "address"
				}
			],
			"stateMutability": "view",
			"type": "function"
		},
		{
			"inputs": [],
			"name": "devFundSharedPercent",
			"outputs": [
				{
					"internalType": "uint256",
					"name": "",
					"type": "uint256"
				}
			],
			"stateMutability": "view",
			"type": "function"
		},
		{
			"inputs": [],
			"name": "discountPercent",
			"outputs": [
				{
					"internalType": "uint256",
					"name": "",
					"type": "uint256"
				}
			],
			"stateMutability": "view",
			"type": "function"
		},
		{
			"inputs": [],
			"name": "epoch",
			"outputs": [
				{
					"internalType": "uint256",
					"name": "",
					"type": "uint256"
				}
			],
			"stateMutability": "view",
			"type": "function"
		},
		{
			"inputs": [],
			"name": "epochSupplyContractionLeft",
			"outputs": [
				{
					"internalType": "uint256",
					"name": "",
					"type": "uint256"
				}
			],
			"stateMutability": "view",
			"type": "function"
		},
		{
			"inputs": [
				{
					"internalType": "uint256",
					"name": "",
					"type": "uint256"
				}
			],
			"name": "excludedFromTotalSupply",
			"outputs": [
				{
					"internalType": "address",
					"name": "",
					"type": "address"
				}
			],
			"stateMutability": "view",
			"type": "function"
		},
		{
			"inputs": [],
			"name": "game",
			"outputs": [
				{
					"internalType": "address",
					"name": "",
					"type": "address"
				}
			],
			"stateMutability": "view",
			"type": "function"
		},
		{
			"inputs": [],
			"name": "gameOracle",
			"outputs": [
				{
					"internalType": "address",
					"name": "",
					"type": "address"
				}
			],
			"stateMutability": "view",
			"type": "function"
		},
		{
			"inputs": [],
			"name": "gamePriceCeiling",
			"outputs": [
				{
					"internalType": "uint256",
					"name": "",
					"type": "uint256"
				}
			],
			"stateMutability": "view",
			"type": "function"
		},
		{
			"inputs": [],
			"name": "gamePriceOne",
			"outputs": [
				{
					"internalType": "uint256",
					"name": "",
					"type": "uint256"
				}
			],
			"stateMutability": "view",
			"type": "function"
		},
		{
			"inputs": [],
			"name": "getBondDiscountRate",
			"outputs": [
				{
					"internalType": "uint256",
					"name": "_rate",
					"type": "uint256"
				}
			],
			"stateMutability": "view",
			"type": "function"
		},
		{
			"inputs": [],
			"name": "getBondPremiumRate",
			"outputs": [
				{
					"internalType": "uint256",
					"name": "_rate",
					"type": "uint256"
				}
			],
			"stateMutability": "view",
			"type": "function"
		},
		{
			"inputs": [],
			"name": "getBurnableGameLeft",
			"outputs": [
				{
					"internalType": "uint256",
					"name": "_burnableGameLeft",
					"type": "uint256"
				}
			],
			"stateMutability": "view",
			"type": "function"
		},
		{
			"inputs": [],
			"name": "getGameCirculatingSupply",
			"outputs": [
				{
					"internalType": "uint256",
					"name": "",
					"type": "uint256"
				}
			],
			"stateMutability": "view",
			"type": "function"
		},
		{
			"inputs": [],
			"name": "getGamePrice",
			"outputs": [
				{
					"internalType": "uint256",
					"name": "gamePrice",
					"type": "uint256"
				}
			],
			"stateMutability": "view",
			"type": "function"
		},
		{
			"inputs": [],
			"name": "getGameUpdatedPrice",
			"outputs": [
				{
					"internalType": "uint256",
					"name": "_gamePrice",
					"type": "uint256"
				}
			],
			"stateMutability": "view",
			"type": "function"
		},
		{
			"inputs": [],
			"name": "getRedeemableBonds",
			"outputs": [
				{
					"internalType": "uint256",
					"name": "_redeemableBonds",
					"type": "uint256"
				}
			],
			"stateMutability": "view",
			"type": "function"
		},
		{
			"inputs": [],
			"name": "getReserve",
			"outputs": [
				{
					"internalType": "uint256",
					"name": "",
					"type": "uint256"
				}
			],
			"stateMutability": "view",
			"type": "function"
		},
		{
			"inputs": [
				{
					"internalType": "contract IERC20",
					"name": "_token",
					"type": "address"
				},
				{
					"internalType": "uint256",
					"name": "_amount",
					"type": "uint256"
				},
				{
					"internalType": "address",
					"name": "_to",
					"type": "address"
				}
			],
			"name": "governanceRecoverUnsupported",
			"outputs": [],
			"stateMutability": "nonpayable",
			"type": "function"
		},
		{
			"inputs": [],
			"name": "hodl",
			"outputs": [
				{
					"internalType": "address",
					"name": "",
					"type": "address"
				}
			],
			"stateMutability": "view",
			"type": "function"
		},
		{
			"inputs": [
				{
					"internalType": "address",
					"name": "_game",
					"type": "address"
				},
				{
					"internalType": "address",
					"name": "_hodl",
					"type": "address"
				},
				{
					"internalType": "address",
					"name": "_theory",
					"type": "address"
				},
				{
					"internalType": "address",
					"name": "_gameOracle",
					"type": "address"
				},
				{
					"internalType": "address",
					"name": "_theoretics",
					"type": "address"
				},
				{
					"internalType": "address",
					"name": "_genesisPool",
					"type": "address"
				},
				{
					"internalType": "uint256",
					"name": "_startTime",
					"type": "uint256"
				}
			],
			"name": "initialize",
			"outputs": [],
			"stateMutability": "nonpayable",
			"type": "function"
		},
		{
			"inputs": [],
			"name": "initialized",
			"outputs": [
				{
					"internalType": "bool",
					"name": "",
					"type": "bool"
				}
			],
			"stateMutability": "view",
			"type": "function"
		},
		{
			"inputs": [],
			"name": "isInitialized",
			"outputs": [
				{
					"internalType": "bool",
					"name": "",
					"type": "bool"
				}
			],
			"stateMutability": "view",
			"type": "function"
		},
		{
			"inputs": [],
			"name": "maxDebtRatioPercent",
			"outputs": [
				{
					"internalType": "uint256",
					"name": "",
					"type": "uint256"
				}
			],
			"stateMutability": "view",
			"type": "function"
		},
		{
			"inputs": [],
			"name": "maxDiscountRate",
			"outputs": [
				{
					"internalType": "uint256",
					"name": "",
					"type": "uint256"
				}
			],
			"stateMutability": "view",
			"type": "function"
		},
		{
			"inputs": [
				{
					"internalType": "uint256",
					"name": "",
					"type": "uint256"
				}
			],
			"name": "maxExpansionTiers",
			"outputs": [
				{
					"internalType": "uint256",
					"name": "",
					"type": "uint256"
				}
			],
			"stateMutability": "view",
			"type": "function"
		},
		{
			"inputs": [],
			"name": "maxPremiumRate",
			"outputs": [
				{
					"internalType": "uint256",
					"name": "",
					"type": "uint256"
				}
			],
			"stateMutability": "view",
			"type": "function"
		},
		{
			"inputs": [],
			"name": "maxSupplyContractionPercent",
			"outputs": [
				{
					"internalType": "uint256",
					"name": "",
					"type": "uint256"
				}
			],
			"stateMutability": "view",
			"type": "function"
		},
		{
			"inputs": [],
			"name": "maxSupplyExpansionPercent",
			"outputs": [
				{
					"internalType": "uint256",
					"name": "",
					"type": "uint256"
				}
			],
			"stateMutability": "view",
			"type": "function"
		},
		{
			"inputs": [],
			"name": "mintingFactorForPayingDebt",
			"outputs": [
				{
					"internalType": "uint256",
					"name": "",
					"type": "uint256"
				}
			],
			"stateMutability": "view",
			"type": "function"
		},
		{
			"inputs": [],
			"name": "nextEpochPoint",
			"outputs": [
				{
					"internalType": "uint256",
					"name": "",
					"type": "uint256"
				}
			],
			"stateMutability": "view",
			"type": "function"
		},
		{
			"inputs": [],
			"name": "operator",
			"outputs": [
				{
					"internalType": "address",
					"name": "",
					"type": "address"
				}
			],
			"stateMutability": "view",
			"type": "function"
		},
		{
			"inputs": [],
			"name": "premiumPercent",
			"outputs": [
				{
					"internalType": "uint256",
					"name": "",
					"type": "uint256"
				}
			],
			"stateMutability": "view",
			"type": "function"
		},
		{
			"inputs": [],
			"name": "premiumThreshold",
			"outputs": [
				{
					"internalType": "uint256",
					"name": "",
					"type": "uint256"
				}
			],
			"stateMutability": "view",
			"type": "function"
		},
		{
			"inputs": [],
			"name": "previousEpochGamePrice",
			"outputs": [
				{
					"internalType": "uint256",
					"name": "",
					"type": "uint256"
				}
			],
			"stateMutability": "view",
			"type": "function"
		},
		{
			"inputs": [
				{
					"internalType": "uint256",
					"name": "_bondAmount",
					"type": "uint256"
				},
				{
					"internalType": "uint256",
					"name": "targetPrice",
					"type": "uint256"
				}
			],
			"name": "redeemBonds",
			"outputs": [],
			"stateMutability": "nonpayable",
			"type": "function"
		},
		{
			"inputs": [],
			"name": "seigniorageExpansionFloorPercent",
			"outputs": [
				{
					"internalType": "uint256",
					"name": "",
					"type": "uint256"
				}
			],
			"stateMutability": "view",
			"type": "function"
		},
		{
			"inputs": [],
			"name": "seigniorageSaved",
			"outputs": [
				{
					"internalType": "uint256",
					"name": "",
					"type": "uint256"
				}
			],
			"stateMutability": "view",
			"type": "function"
		},
		{
			"inputs": [
				{
					"internalType": "uint256",
					"name": "_bondDepletionFloorPercent",
					"type": "uint256"
				}
			],
			"name": "setBondDepletionFloorPercent",
			"outputs": [],
			"stateMutability": "nonpayable",
			"type": "function"
		},
		{
			"inputs": [
				{
					"internalType": "uint256",
					"name": "_bondSupplyExpansionPercent",
					"type": "uint256"
				}
			],
			"name": "setBondSupplyExpansionPercent",
			"outputs": [],
			"stateMutability": "nonpayable",
			"type": "function"
		},
		{
			"inputs": [
				{
					"internalType": "uint256",
					"name": "_bootstrapEpochs",
					"type": "uint256"
				},
				{
					"internalType": "uint256",
					"name": "_bootstrapSupplyExpansionPercent",
					"type": "uint256"
				}
			],
			"name": "setBootstrap",
			"outputs": [],
			"stateMutability": "nonpayable",
			"type": "function"
		},
		{
			"inputs": [
				{
					"internalType": "uint256",
					"name": "_discountPercent",
					"type": "uint256"
				}
			],
			"name": "setDiscountPercent",
			"outputs": [],
			"stateMutability": "nonpayable",
			"type": "function"
		},
		{
			"inputs": [
				{
					"internalType": "address",
					"name": "_daoFund",
					"type": "address"
				},
				{
					"internalType": "uint256",
					"name": "_daoFundSharedPercent",
					"type": "uint256"
				},
				{
					"internalType": "address",
					"name": "_devFund",
					"type": "address"
				},
				{
					"internalType": "uint256",
					"name": "_devFundSharedPercent",
					"type": "uint256"
				}
			],
			"name": "setExtraFunds",
			"outputs": [],
			"stateMutability": "nonpayable",
			"type": "function"
		},
		{
			"inputs": [
				{
					"internalType": "address",
					"name": "_gameOracle",
					"type": "address"
				}
			],
			"name": "setGameOracle",
			"outputs": [],
			"stateMutability": "nonpayable",
			"type": "function"
		},
		{
			"inputs": [
				{
					"internalType": "uint256",
					"name": "_gamePriceCeiling",
					"type": "uint256"
				}
			],
			"name": "setGamePriceCeiling",
			"outputs": [],
			"stateMutability": "nonpayable",
			"type": "function"
		},
		{
			"inputs": [
				{
					"internalType": "uint256",
					"name": "_maxDebtRatioPercent",
					"type": "uint256"
				}
			],
			"name": "setMaxDebtRatioPercent",
			"outputs": [],
			"stateMutability": "nonpayable",
			"type": "function"
		},
		{
			"inputs": [
				{
					"internalType": "uint256",
					"name": "_maxDiscountRate",
					"type": "uint256"
				}
			],
			"name": "setMaxDiscountRate",
			"outputs": [],
			"stateMutability": "nonpayable",
			"type": "function"
		},
		{
			"inputs": [
				{
					"internalType": "uint8",
					"name": "_index",
					"type": "uint8"
				},
				{
					"internalType": "uint256",
					"name": "_value",
					"type": "uint256"
				}
			],
			"name": "setMaxExpansionTiersEntry",
			"outputs": [
				{
					"internalType": "bool",
					"name": "",
					"type": "bool"
				}
			],
			"stateMutability": "nonpayable",
			"type": "function"
		},
		{
			"inputs": [
				{
					"internalType": "uint256",
					"name": "_maxPremiumRate",
					"type": "uint256"
				}
			],
			"name": "setMaxPremiumRate",
			"outputs": [],
			"stateMutability": "nonpayable",
			"type": "function"
		},
		{
			"inputs": [
				{
					"internalType": "uint256",
					"name": "_maxSupplyContractionPercent",
					"type": "uint256"
				}
			],
			"name": "setMaxSupplyContractionPercent",
			"outputs": [],
			"stateMutability": "nonpayable",
			"type": "function"
		},
		{
			"inputs": [
				{
					"internalType": "uint256",
					"name": "_maxSupplyExpansionPercent",
					"type": "uint256"
				}
			],
			"name": "setMaxSupplyExpansionPercents",
			"outputs": [],
			"stateMutability": "nonpayable",
			"type": "function"
		},
		{
			"inputs": [
				{
					"internalType": "uint256",
					"name": "_mintingFactorForPayingDebt",
					"type": "uint256"
				}
			],
			"name": "setMintingFactorForPayingDebt",
			"outputs": [],
			"stateMutability": "nonpayable",
			"type": "function"
		},
		{
			"inputs": [
				{
					"internalType": "address",
					"name": "_operator",
					"type": "address"
				}
			],
			"name": "setOperator",
			"outputs": [],
			"stateMutability": "nonpayable",
			"type": "function"
		},
		{
			"inputs": [
				{
					"internalType": "uint256",
					"name": "_premiumPercent",
					"type": "uint256"
				}
			],
			"name": "setPremiumPercent",
			"outputs": [],
			"stateMutability": "nonpayable",
			"type": "function"
		},
		{
			"inputs": [
				{
					"internalType": "uint256",
					"name": "_premiumThreshold",
					"type": "uint256"
				}
			],
			"name": "setPremiumThreshold",
			"outputs": [],
			"stateMutability": "nonpayable",
			"type": "function"
		},
		{
			"inputs": [
				{
					"internalType": "uint256",
					"name": "_time",
					"type": "uint256"
				}
			],
			"name": "setStartTime",
			"outputs": [],
			"stateMutability": "nonpayable",
			"type": "function"
		},
		{
			"inputs": [
				{
					"internalType": "uint8",
					"name": "_index",
					"type": "uint8"
				},
				{
					"internalType": "uint256",
					"name": "_value",
					"type": "uint256"
				}
			],
			"name": "setSupplyTiersEntry",
			"outputs": [
				{
					"internalType": "bool",
					"name": "",
					"type": "bool"
				}
			],
			"stateMutability": "nonpayable",
			"type": "function"
		},
		{
			"inputs": [
				{
					"internalType": "address",
					"name": "_theoretics",
					"type": "address"
				}
			],
			"name": "setTheoretics",
			"outputs": [],
			"stateMutability": "nonpayable",
			"type": "function"
		},
		{
			"inputs": [],
			"name": "startTime",
			"outputs": [
				{
					"internalType": "uint256",
					"name": "",
					"type": "uint256"
				}
			],
			"stateMutability": "view",
			"type": "function"
		},
		{
			"inputs": [
				{
					"internalType": "uint256",
					"name": "",
					"type": "uint256"
				}
			],
			"name": "supplyTiers",
			"outputs": [
				{
					"internalType": "uint256",
					"name": "",
					"type": "uint256"
				}
			],
			"stateMutability": "view",
			"type": "function"
		},
		{
			"inputs": [],
			"name": "theoretics",
			"outputs": [
				{
					"internalType": "address",
					"name": "",
					"type": "address"
				}
			],
			"stateMutability": "view",
			"type": "function"
		},
		{
			"inputs": [
				{
					"internalType": "uint256",
					"name": "amount",
					"type": "uint256"
				}
			],
			"name": "theoreticsAllocateSeigniorage",
			"outputs": [],
			"stateMutability": "nonpayable",
			"type": "function"
		},
		{
			"inputs": [],
			"name": "theoreticsGetCurrentClaimEpochs",
			"outputs": [
				{
					"internalType": "uint256",
					"name": "",
					"type": "uint256"
				}
			],
			"stateMutability": "view",
			"type": "function"
		},
		{
			"inputs": [],
			"name": "theoreticsGetCurrentWithdrawEpochs",
			"outputs": [
				{
					"internalType": "uint256",
					"name": "",
					"type": "uint256"
				}
			],
			"stateMutability": "view",
			"type": "function"
		},
		{
			"inputs": [],
			"name": "theoreticsGetLockPercentage",
			"outputs": [
				{
					"internalType": "uint256",
					"name": "",
					"type": "uint256"
				}
			],
			"stateMutability": "view",
			"type": "function"
		},
		{
			"inputs": [
				{
					"internalType": "address",
					"name": "_user",
					"type": "address"
				}
			],
			"name": "theoreticsGetWithdrawFeeOf",
			"outputs": [
				{
					"internalType": "uint256",
					"name": "",
					"type": "uint256"
				}
			],
			"stateMutability": "view",
			"type": "function"
		},
		{
			"inputs": [
				{
					"internalType": "address",
					"name": "_token",
					"type": "address"
				},
				{
					"internalType": "uint256",
					"name": "_amount",
					"type": "uint256"
				},
				{
					"internalType": "address",
					"name": "_to",
					"type": "address"
				}
			],
			"name": "theoreticsGovernanceRecoverUnsupported",
			"outputs": [],
			"stateMutability": "nonpayable",
			"type": "function"
		},
		{
			"inputs": [
				{
					"internalType": "uint256",
					"name": "_withdrawLockupEpochs",
					"type": "uint256"
				},
				{
					"internalType": "uint256",
					"name": "_rewardLockupEpochs",
					"type": "uint256"
				}
			],
			"name": "theoreticsSetLockUp",
			"outputs": [],
			"stateMutability": "nonpayable",
			"type": "function"
		},
		{
			"inputs": [
				{
					"internalType": "address",
					"name": "_operator",
					"type": "address"
				}
			],
			"name": "theoreticsSetOperator",
			"outputs": [],
			"stateMutability": "nonpayable",
			"type": "function"
		},
		{
			"inputs": [],
			"name": "theory",
			"outputs": [
				{
					"internalType": "address",
					"name": "",
					"type": "address"
				}
			],
			"stateMutability": "view",
			"type": "function"
		}
	]
}