{
  "_format": "hh-sol-artifact-1",
  "contractName": "TheoryUnlocker",
  "sourceName": "contracts/nfts/GameUnlocker.sol",
  "abi": [
    {
      "inputs": [
        {
          "internalType": "contract IERC20",
          "name": "_buy",
          "type": "address"
        },
        {
          "internalType": "uint256",
          "name": "_initialBuy",
          "type": "uint256"
        },
        {
          "internalType": "uint256",
          "name": "_buyPerLevel",
          "type": "uint256"
        },
        {
          "internalType": "contract IERC20Lockable",
          "name": "_theory",
          "type": "address"
        },
        {
          "internalType": "address",
          "name": "_communityFund",
          "type": "address"
        },
        {
          "internalType": "uint256[]",
          "name": "_maxLevelTime",
          "type": "uint256[]"
        },
        {
          "internalType": "uint256[]",
          "name": "_maxLevelLevel",
          "type": "uint256[]"
        },
        {
          "internalType": "uint256[]",
          "name": "_levelURIsLevel",
          "type": "uint256[]"
        },
        {
          "internalType": "string[]",
          "name": "_levelURIsURI",
          "type": "string[]"
        }
      ],
      "stateMutability": "nonpayable",
      "type": "constructor"
    },
    {
      "anonymous": false,
      "inputs": [
        {
          "indexed": true,
          "internalType": "address",
          "name": "owner",
          "type": "address"
        },
        {
          "indexed": true,
          "internalType": "address",
          "name": "approved",
          "type": "address"
        },
        {
          "indexed": true,
          "internalType": "uint256",
          "name": "tokenId",
          "type": "uint256"
        }
      ],
      "name": "Approval",
      "type": "event"
    },
    {
      "anonymous": false,
      "inputs": [
        {
          "indexed": true,
          "internalType": "address",
          "name": "owner",
          "type": "address"
        },
        {
          "indexed": true,
          "internalType": "address",
          "name": "operator",
          "type": "address"
        },
        {
          "indexed": false,
          "internalType": "bool",
          "name": "approved",
          "type": "bool"
        }
      ],
      "name": "ApprovalForAll",
      "type": "event"
    },
    {
      "anonymous": false,
      "inputs": [
        {
          "indexed": true,
          "internalType": "address",
          "name": "previousOperator",
          "type": "address"
        },
        {
          "indexed": true,
          "internalType": "address",
          "name": "newOperator",
          "type": "address"
        }
      ],
      "name": "OperatorTransferred",
      "type": "event"
    },
    {
      "anonymous": false,
      "inputs": [
        {
          "indexed": true,
          "internalType": "address",
          "name": "previousOwner",
          "type": "address"
        },
        {
          "indexed": true,
          "internalType": "address",
          "name": "newOwner",
          "type": "address"
        }
      ],
      "name": "OwnershipTransferred",
      "type": "event"
    },
    {
      "anonymous": false,
      "inputs": [
        {
          "indexed": true,
          "internalType": "address",
          "name": "from",
          "type": "address"
        },
        {
          "indexed": true,
          "internalType": "address",
          "name": "to",
          "type": "address"
        },
        {
          "indexed": true,
          "internalType": "uint256",
          "name": "tokenId",
          "type": "uint256"
        }
      ],
      "name": "Transfer",
      "type": "event"
    },
    {
      "inputs": [
        {
          "internalType": "address",
          "name": "_toAdd",
          "type": "address"
        }
      ],
      "name": "addAuthorized",
      "outputs": [],
      "stateMutability": "nonpayable",
      "type": "function"
    },
    {
      "inputs": [
        {
          "internalType": "address",
          "name": "to",
          "type": "address"
        },
        {
          "internalType": "uint256",
          "name": "tokenId",
          "type": "uint256"
        }
      ],
      "name": "approve",
      "outputs": [],
      "stateMutability": "nonpayable",
      "type": "function"
    },
    {
      "inputs": [
        {
          "internalType": "address",
          "name": "",
          "type": "address"
        }
      ],
      "name": "authorized",
      "outputs": [
        {
          "internalType": "bool",
          "name": "",
          "type": "bool"
        }
      ],
      "stateMutability": "view",
      "type": "function"
    },
    {
      "inputs": [
        {
          "internalType": "address",
          "name": "owner",
          "type": "address"
        }
      ],
      "name": "balanceOf",
      "outputs": [
        {
          "internalType": "uint256",
          "name": "",
          "type": "uint256"
        }
      ],
      "stateMutability": "view",
      "type": "function"
    },
    {
      "inputs": [],
      "name": "baseURI",
      "outputs": [
        {
          "internalType": "string",
          "name": "",
          "type": "string"
        }
      ],
      "stateMutability": "view",
      "type": "function"
    },
    {
      "inputs": [],
      "name": "buyToken",
      "outputs": [
        {
          "internalType": "contract IERC20",
          "name": "",
          "type": "address"
        }
      ],
      "stateMutability": "view",
      "type": "function"
    },
    {
      "inputs": [
        {
          "internalType": "uint256",
          "name": "",
          "type": "uint256"
        }
      ],
      "name": "creationTime",
      "outputs": [
        {
          "internalType": "uint256",
          "name": "",
          "type": "uint256"
        }
      ],
      "stateMutability": "view",
      "type": "function"
    },
    {
      "inputs": [
        {
          "internalType": "uint256",
          "name": "tokenId",
          "type": "uint256"
        }
      ],
      "name": "getApproved",
      "outputs": [
        {
          "internalType": "address",
          "name": "",
          "type": "address"
        }
      ],
      "stateMutability": "view",
      "type": "function"
    },
    {
      "inputs": [
        {
          "internalType": "address",
          "name": "owner",
          "type": "address"
        },
        {
          "internalType": "address",
          "name": "operator",
          "type": "address"
        }
      ],
      "name": "isApprovedForAll",
      "outputs": [
        {
          "internalType": "bool",
          "name": "",
          "type": "bool"
        }
      ],
      "stateMutability": "view",
      "type": "function"
    },
    {
      "inputs": [],
      "name": "isOperator",
      "outputs": [
        {
          "internalType": "bool",
          "name": "",
          "type": "bool"
        }
      ],
      "stateMutability": "view",
      "type": "function"
    },
    {
      "inputs": [
        {
          "internalType": "uint256",
          "name": "",
          "type": "uint256"
        }
      ],
      "name": "lastLevelTime",
      "outputs": [
        {
          "internalType": "uint256",
          "name": "",
          "type": "uint256"
        }
      ],
      "stateMutability": "view",
      "type": "function"
    },
    {
      "inputs": [
        {
          "internalType": "address",
          "name": "",
          "type": "address"
        }
      ],
      "name": "lastLockOf",
      "outputs": [
        {
          "internalType": "uint256",
          "name": "",
          "type": "uint256"
        }
      ],
      "stateMutability": "view",
      "type": "function"
    },
    {
      "inputs": [
        {
          "internalType": "address",
          "name": "",
          "type": "address"
        }
      ],
      "name": "lastUnlockTime",
      "outputs": [
        {
          "internalType": "uint256",
          "name": "",
          "type": "uint256"
        }
      ],
      "stateMutability": "view",
      "type": "function"
    },
    {
      "inputs": [
        {
          "internalType": "uint256",
          "name": "level",
          "type": "uint256"
        }
      ],
      "name": "levelURI",
      "outputs": [
        {
          "internalType": "string",
          "name": "",
          "type": "string"
        }
      ],
      "stateMutability": "view",
      "type": "function"
    },
    {
      "inputs": [
        {
          "internalType": "uint256",
          "name": "",
          "type": "uint256"
        }
      ],
      "name": "levelURIsLevel",
      "outputs": [
        {
          "internalType": "uint256",
          "name": "",
          "type": "uint256"
        }
      ],
      "stateMutability": "view",
      "type": "function"
    },
    {
      "inputs": [
        {
          "internalType": "uint256",
          "name": "",
          "type": "uint256"
        }
      ],
      "name": "levelURIsURI",
      "outputs": [
        {
          "internalType": "string",
          "name": "",
          "type": "string"
        }
      ],
      "stateMutability": "view",
      "type": "function"
    },
    {
      "inputs": [
        {
          "internalType": "uint256",
          "name": "tokenId",
          "type": "uint256"
        }
      ],
      "name": "levelUp",
      "outputs": [],
      "stateMutability": "nonpayable",
      "type": "function"
    },
    {
      "inputs": [],
      "name": "maxLevel",
      "outputs": [
        {
          "internalType": "uint256",
          "name": "",
          "type": "uint256"
        }
      ],
      "stateMutability": "view",
      "type": "function"
    },
    {
      "inputs": [
        {
          "internalType": "uint256",
          "name": "",
          "type": "uint256"
        }
      ],
      "name": "maxLevelLevel",
      "outputs": [
        {
          "internalType": "uint256",
          "name": "",
          "type": "uint256"
        }
      ],
      "stateMutability": "view",
      "type": "function"
    },
    {
      "inputs": [
        {
          "internalType": "uint256",
          "name": "",
          "type": "uint256"
        }
      ],
      "name": "maxLevelTime",
      "outputs": [
        {
          "internalType": "uint256",
          "name": "",
          "type": "uint256"
        }
      ],
      "stateMutability": "view",
      "type": "function"
    },
    {
      "inputs": [
        {
          "internalType": "uint256",
          "name": "tokenId1",
          "type": "uint256"
        },
        {
          "internalType": "uint256",
          "name": "tokenId2",
          "type": "uint256"
        }
      ],
      "name": "merge",
      "outputs": [
        {
          "internalType": "uint256",
          "name": "",
          "type": "uint256"
        }
      ],
      "stateMutability": "nonpayable",
      "type": "function"
    },
    {
      "inputs": [
        {
          "internalType": "uint256",
          "name": "level",
          "type": "uint256"
        }
      ],
      "name": "mint",
      "outputs": [
        {
          "internalType": "uint256",
          "name": "",
          "type": "uint256"
        }
      ],
      "stateMutability": "nonpayable",
      "type": "function"
    },
    {
      "inputs": [],
      "name": "name",
      "outputs": [
        {
          "internalType": "string",
          "name": "",
          "type": "string"
        }
      ],
      "stateMutability": "view",
      "type": "function"
    },
    {
      "inputs": [
        {
          "internalType": "uint256",
          "name": "tokenId",
          "type": "uint256"
        }
      ],
      "name": "nftUnlock",
      "outputs": [],
      "stateMutability": "nonpayable",
      "type": "function"
    },
    {
      "inputs": [],
      "name": "operator",
      "outputs": [
        {
          "internalType": "address",
          "name": "",
          "type": "address"
        }
      ],
      "stateMutability": "view",
      "type": "function"
    },
    {
      "inputs": [],
      "name": "owner",
      "outputs": [
        {
          "internalType": "address",
          "name": "",
          "type": "address"
        }
      ],
      "stateMutability": "view",
      "type": "function"
    },
    {
      "inputs": [
        {
          "internalType": "uint256",
          "name": "tokenId",
          "type": "uint256"
        }
      ],
      "name": "ownerOf",
      "outputs": [
        {
          "internalType": "address",
          "name": "",
          "type": "address"
        }
      ],
      "stateMutability": "view",
      "type": "function"
    },
    {
      "inputs": [
        {
          "internalType": "address",
          "name": "_toRemove",
          "type": "address"
        }
      ],
      "name": "removeAuthorized",
      "outputs": [],
      "stateMutability": "nonpayable",
      "type": "function"
    },
    {
      "inputs": [],
      "name": "renounceOwnership",
      "outputs": [],
      "stateMutability": "nonpayable",
      "type": "function"
    },
    {
      "inputs": [
        {
          "internalType": "address",
          "name": "from",
          "type": "address"
        },
        {
          "internalType": "address",
          "name": "to",
          "type": "address"
        },
        {
          "internalType": "uint256",
          "name": "tokenId",
          "type": "uint256"
        }
      ],
      "name": "safeTransferFrom",
      "outputs": [],
      "stateMutability": "nonpayable",
      "type": "function"
    },
    {
      "inputs": [
        {
          "internalType": "address",
          "name": "from",
          "type": "address"
        },
        {
          "internalType": "address",
          "name": "to",
          "type": "address"
        },
        {
          "internalType": "uint256",
          "name": "tokenId",
          "type": "uint256"
        },
        {
          "internalType": "bytes",
          "name": "_data",
          "type": "bytes"
        }
      ],
      "name": "safeTransferFrom",
      "outputs": [],
      "stateMutability": "nonpayable",
      "type": "function"
    },
    {
      "inputs": [
        {
          "internalType": "address",
          "name": "operator",
          "type": "address"
        },
        {
          "internalType": "bool",
          "name": "approved",
          "type": "bool"
        }
      ],
      "name": "setApprovalForAll",
      "outputs": [],
      "stateMutability": "nonpayable",
      "type": "function"
    },
    {
      "inputs": [
        {
          "internalType": "bytes4",
          "name": "interfaceId",
          "type": "bytes4"
        }
      ],
      "name": "supportsInterface",
      "outputs": [
        {
          "internalType": "bool",
          "name": "",
          "type": "bool"
        }
      ],
      "stateMutability": "view",
      "type": "function"
    },
    {
      "inputs": [],
      "name": "symbol",
      "outputs": [
        {
          "internalType": "string",
          "name": "",
          "type": "string"
        }
      ],
      "stateMutability": "view",
      "type": "function"
    },
    {
      "inputs": [],
      "name": "theory",
      "outputs": [
        {
          "internalType": "contract IERC20Lockable",
          "name": "",
          "type": "address"
        }
      ],
      "stateMutability": "view",
      "type": "function"
    },
    {
      "inputs": [
        {
          "internalType": "uint256",
          "name": "index",
          "type": "uint256"
        }
      ],
      "name": "tokenByIndex",
      "outputs": [
        {
          "internalType": "uint256",
          "name": "",
          "type": "uint256"
        }
      ],
      "stateMutability": "view",
      "type": "function"
    },
    {
      "inputs": [
        {
          "internalType": "uint256",
          "name": "",
          "type": "uint256"
        }
      ],
      "name": "tokenLevels",
      "outputs": [
        {
          "internalType": "uint256",
          "name": "",
          "type": "uint256"
        }
      ],
      "stateMutability": "view",
      "type": "function"
    },
    {
      "inputs": [
        {
          "internalType": "address",
          "name": "owner",
          "type": "address"
        },
        {
          "internalType": "uint256",
          "name": "index",
          "type": "uint256"
        }
      ],
      "name": "tokenOfOwnerByIndex",
      "outputs": [
        {
          "internalType": "uint256",
          "name": "",
          "type": "uint256"
        }
      ],
      "stateMutability": "view",
      "type": "function"
    },
    {
      "inputs": [
        {
          "internalType": "uint256",
          "name": "tokenId",
          "type": "uint256"
        }
      ],
      "name": "tokenURI",
      "outputs": [
        {
          "internalType": "string",
          "name": "",
          "type": "string"
        }
      ],
      "stateMutability": "view",
      "type": "function"
    },
    {
      "inputs": [],
      "name": "totalSupply",
      "outputs": [
        {
          "internalType": "uint256",
          "name": "",
          "type": "uint256"
        }
      ],
      "stateMutability": "view",
      "type": "function"
    },
    {
      "inputs": [
        {
          "internalType": "address",
          "name": "from",
          "type": "address"
        },
        {
          "internalType": "address",
          "name": "to",
          "type": "address"
        },
        {
          "internalType": "uint256",
          "name": "tokenId",
          "type": "uint256"
        }
      ],
      "name": "transferFrom",
      "outputs": [],
      "stateMutability": "nonpayable",
      "type": "function"
    },
    {
      "inputs": [
        {
          "internalType": "address",
          "name": "newOperator_",
          "type": "address"
        }
      ],
      "name": "transferOperator",
      "outputs": [],
      "stateMutability": "nonpayable",
      "type": "function"
    },
    {
      "inputs": [
        {
          "internalType": "address",
          "name": "newOwner",
          "type": "address"
        }
      ],
      "name": "transferOwnership",
      "outputs": [],
      "stateMutability": "nonpayable",
      "type": "function"
    }
  ],
  "bytecode": "0x60806040523480156200001157600080fd5b50604051620042c9380380620042c9833981016040819052620000349162000692565b604080518082018252600f81526e2a2422a7a92c902ab73637b1b5b2b960891b60208083019190915282518084019093526002835261475560f01b9083015290620000866301ffc9a760e01b62000362565b81516200009b906006906020850190620003b8565b508051620000b1906007906020840190620003b8565b50620000c46380ac58cd60e01b62000362565b620000d6635b5e139f60e01b62000362565b620000e863780e9d6360e01b62000362565b5060009050620000f7620003b4565b600a80546001600160a01b0319166001600160a01b038316908117909155604051919250906000907f8be0079c531659141344cd1fd0a4f28419497f9722a3daafe3b4186f6b6457e0908290a3506200014f620003b4565b600b80546001600160a01b0319166001600160a01b0392831617908190556040519116906000907f74da04524d50c64947f5dd5381ef1a4dca5cba8ed1d816243f9e48aa0b5617ed908290a3601880546001600160a01b0319166001600160a01b038b161790556019889055601a879055815115801590620001e6575081600081518110620001da57fe5b60200260200101516000145b8015620001f4575081518151145b6200021c5760405162461bcd60e51b81526004016200021390620007cd565b60405180910390fd5b60008451118015620002435750836000815181106200023757fe5b60200260200101516000145b801562000251575083518351145b620002705760405162461bcd60e51b8152600401620002139062000884565b82516000905b80821015620002c35760648583815181106200028e57fe5b60200260200101511115620002b75760405162461bcd60e51b8152600401620002139062000841565b60018201915062000276565b8351620002d89060149060208701906200043d565b508251620002ee9060159060208601906200047a565b508551620003049060169060208901906200043d565b5084516200031a9060179060208801906200043d565b5050601b80546001600160a01b039788166001600160a01b0319918216179091556203f480601c55601d80549890971697169690961790945550620009959650505050505050565b6001600160e01b031980821614156200038f5760405162461bcd60e51b8152600401620002139062000796565b6001600160e01b0319166000908152602081905260409020805460ff19166001179055565b3390565b828054600181600116156101000203166002900490600052602060002090601f016020900481019282601f10620003fb57805160ff19168380011785556200042b565b828001600101855582156200042b579182015b828111156200042b5782518255916020019190600101906200040e565b5062000439929150620004da565b5090565b8280548282559060005260206000209081019282156200042b57916020028201828111156200042b5782518255916020019190600101906200040e565b828054828255906000526020600020908101928215620004cc579160200282015b82811115620004cc5782518051620004bb918491602090910190620003b8565b50916020019190600101906200049b565b5062000439929150620004f1565b5b80821115620004395760008155600101620004db565b808211156200043957600062000508828262000512565b50600101620004f1565b50805460018160011615610100020316600290046000825580601f106200053a57506200055a565b601f0160209004906000526020600020908101906200055a9190620004da565b50565b80516001600160a01b03811681146200057557600080fd5b92915050565b600082601f8301126200058c578081fd5b8151620005a36200059d826200091e565b620008f7565b818152915060208083019084810160005b8481101562000622578151870188603f820112620005d157600080fd5b83810151620005e46200059d826200093e565b81815260408b81848601011115620005fb57600080fd5b6200060c8388840183870162000962565b50865250509282019290820190600101620005b4565b505050505092915050565b600082601f8301126200063e578081fd5b81516200064f6200059d826200091e565b8181529150602080830190848101818402860182018710156200067157600080fd5b60005b84811015620006225781518452928201929082019060010162000674565b60008060008060008060008060006101208a8c031215620006b1578485fd5b620006bd8b8b6200055d565b985060208a0151975060408a01519650620006dc8b60608c016200055d565b9550620006ed8b60808c016200055d565b60a08b01519095506001600160401b03808211156200070a578586fd5b620007188d838e016200062d565b955060c08c01519150808211156200072e578485fd5b6200073c8d838e016200062d565b945060e08c015191508082111562000752578384fd5b620007608d838e016200062d565b93506101008c015191508082111562000777578283fd5b50620007868c828d016200057b565b9150509295985092959850929598565b6020808252601c908201527f4552433136353a20696e76616c696420696e7465726661636520696400000000604082015260600190565b6020808252604e908201527f4c6576656c2055524920617272617973206d75737420626520657175616c206960408201527f6e206e6f6e2d7a65726f206c656e67746820616e64206c6576656c2073686f7560608201526d36321039ba30b93a1030ba10181760911b608082015260a00190565b60208082526023908201527f4d6178206c6576656c2063616e277420626520686967686572207468616e203160408201526218181760e91b606082015260800190565b6020808252604d908201527f4d6178206c6576656c20617272617973206d75737420626520657175616c206960408201527f6e206e6f6e2d7a65726f206c656e67746820616e642074696d652073686f756c60608201526c321039ba30b93a1030ba10181760991b608082015260a00190565b6040518181016001600160401b03811182821017156200091657600080fd5b604052919050565b60006001600160401b0382111562000934578081fd5b5060209081020190565b60006001600160401b0382111562000954578081fd5b50601f01601f191660200190565b60005b838110156200097f57818101518382015260200162000965565b838111156200098f576000848401525b50505050565b61392480620009a56000396000f3fe608060405234801561001057600080fd5b50600436106102695760003560e01c80636c0360eb11610151578063cc06c359116100c3578063dc7887a411610087578063dc7887a4146104f3578063e600d94d14610506578063e985e9c514610519578063f1c876651461052c578063f2fde38b1461053f578063fd71f6f61461055257610269565b8063cc06c3591461049f578063cf1c316a146104a7578063d1c2babb146104ba578063d5ae33e2146104cd578063db357c30146104e057610269565b8063a0712d6811610115578063a0712d6814610438578063a22cb4651461044b578063a48217191461045e578063b88d4fde14610466578063b918161114610479578063c87b56dd1461048c57610269565b80636c0360eb1461040557806370a082311461040d578063715018a6146104205780638da5cb5b1461042857806395d89b411461043057610269565b80632f745c59116101ea5780634456eda2116101ae5780634456eda2146103a9578063485d7d94146103b15780634f6ccce7146103c4578063570ca735146103d75780635b2f4ed4146103df5780636352211e146103f257610269565b80632f745c591461035557806338d17099146103685780633bcafb631461037b5780633c32a4501461038e57806342842e0e1461039657610269565b80630ce90ec2116102315780630ce90ec21461030157806318160ddd1461031457806323b872dd1461031c57806329605e771461032f5780632eb552f31461034257610269565b806301ffc9a71461026e57806306fdde031461029757806308143796146102ac578063081812fc146102cc578063095ea7b3146102ec575b600080fd5b61028161027c366004612c9e565b610565565b60405161028e9190612e2c565b60405180910390f35b61029f610588565b60405161028e9190612e37565b6102bf6102ba366004612cd6565b61061e565b60405161028e9190613825565b6102df6102da366004612cd6565b61063c565b60405161028e9190612d9e565b6102ff6102fa366004612c58565b610688565b005b6102ff61030f366004612cd6565b610720565b6102bf61090f565b6102ff61032a366004612b1b565b610920565b6102ff61033d366004612acc565b610958565b6102bf610350366004612cd6565b61098e565b6102bf610363366004612c58565b61099b565b61029f610376366004612cd6565b6109c6565b6102bf610389366004612cd6565b610ac6565b6102df610ad3565b6102ff6103a4366004612b1b565b610ae2565b610281610afd565b6102ff6103bf366004612acc565b610b23565b6102bf6103d2366004612cd6565b610b99565b6102df610baf565b61029f6103ed366004612cd6565b610bbe565b6102df610400366004612cd6565b610c64565b61029f610c8c565b6102bf61041b366004612acc565b610ced565b6102ff610d36565b6102df610dbf565b61029f610dce565b6102bf610446366004612cd6565b610e2f565b6102ff610459366004612c21565b610fc4565b6102df611092565b6102ff610474366004612b5b565b6110a1565b610281610487366004612acc565b6110e0565b61029f61049a366004612cd6565b6110f5565b6102bf61123b565b6102ff6104b5366004612acc565b6112a3565b6102bf6104c8366004612d06565b611306565b6102bf6104db366004612cd6565b6115d2565b6102ff6104ee366004612cd6565b6115e4565b6102bf610501366004612acc565b611b38565b6102bf610514366004612cd6565b611b4a565b610281610527366004612ae7565b611b5c565b6102bf61053a366004612acc565b611b8a565b6102ff61054d366004612acc565b611b9c565b6102bf610560366004612cd6565b611c5d565b6001600160e01b0319811660009081526020819052604090205460ff165b919050565b60068054604080516020601f60026000196101006001881615020190951694909404938401819004810282018101909252828152606093909290918301828280156106145780601f106105e957610100808354040283529160200191610614565b820191906000526020600020905b8154815290600101906020018083116105f757829003601f168201915b5050505050905090565b6017818154811061062b57fe5b600091825260209091200154905081565b600061064782611c6f565b61066c5760405162461bcd60e51b81526004016106639061340e565b60405180910390fd5b506000908152600460205260409020546001600160a01b031690565b600061069382610c64565b9050806001600160a01b0316836001600160a01b031614156106c75760405162461bcd60e51b8152600401610663906135fa565b806001600160a01b03166106d9611c7c565b6001600160a01b031614806106f557506106f581610527611c7c565b6107115760405162461bcd60e51b8152600401610663906131f9565b61071b8383611c80565b505050565b610728611cee565b156107455760405162461bcd60e51b81526004016106639061376a565b61074d611d0f565b1561076a5760405162461bcd60e51b81526004016106639061376a565b3361077482610c64565b6001600160a01b031614806107985750336000908152600c602052604090205460ff165b806107b25750336107a7610dbf565b6001600160a01b0316145b806107cc5750336107c1610baf565b6001600160a01b0316145b6107e85760405162461bcd60e51b815260040161066390613193565b6107f061123b565b6000828152600f60205260409020541061081c5760405162461bcd60e51b815260040161066390613355565b601c54600082815260116020526040812054909161083a9190611d30565b90508042101561085c5760405162461bcd60e51b8152600401610663906137b0565b6000828152601160209081526040808320849055600f909152812054610883906001611d30565b6000848152600f60205260409020819055905060606108a1826109c6565b905060008151116108c45760405162461bcd60e51b8152600401610663906131ca565b6108ce8482611d55565b5050436000908152600d602090815260408083203284529091528082208054600160ff19918216811790925533845291909220805490911690911790555050565b600061091b6002611d99565b905090565b61093161092b611c7c565b82611da4565b61094d5760405162461bcd60e51b815260040161066390613698565b61071b838383611e29565b600b546001600160a01b031633146109825760405162461bcd60e51b815260040161066390613573565b61098b81611f37565b50565b6014818154811061062b57fe5b6001600160a01b03821660009081526001602052604081206109bd9083611fb5565b90505b92915050565b604080516020810190915260008082526014546060929181905b8115610abc57600182039050601481815481106109f957fe5b90600052602060002001548610610ab15760158181548110610a1757fe5b600091825260209182902001805460408051601f6002600019610100600187161502019094169390930492830185900485028101850190915281815292830182828015610aa55780601f10610a7a57610100808354040283529160200191610aa5565b820191906000526020600020905b815481529060010190602001808311610a8857829003601f168201915b50505050509350610abc565b6001820391506109e0565b5091949350505050565b6016818154811061062b57fe5b601d546001600160a01b031681565b61071b838383604051806020016040528060008152506110a1565b600b546000906001600160a01b0316610b14611c7c565b6001600160a01b031614905090565b610b2b611c7c565b6001600160a01b0316610b3c610dbf565b6001600160a01b031614610b625760405162461bcd60e51b8152600401610663906134a6565b6001600160a01b038116331415610b7857600080fd5b6001600160a01b03166000908152600c60205260409020805460ff19169055565b600080610ba7600284611fc1565b509392505050565b600b546001600160a01b031690565b60158181548110610bcb57fe5b600091825260209182902001805460408051601f6002600019610100600187161502019094169390930492830185900485028101850190915281815293509091830182828015610c5c5780601f10610c3157610100808354040283529160200191610c5c565b820191906000526020600020905b815481529060010190602001808311610c3f57829003601f168201915b505050505081565b60006109c0826040518060600160405280602981526020016138c66029913960029190611fdd565b60098054604080516020601f60026000196101006001881615020190951694909404938401819004810282018101909252828152606093909290918301828280156106145780601f106105e957610100808354040283529160200191610614565b60006001600160a01b038216610d155760405162461bcd60e51b815260040161066390613256565b6001600160a01b03821660009081526001602052604090206109c090611d99565b610d3e611c7c565b6001600160a01b0316610d4f610dbf565b6001600160a01b031614610d755760405162461bcd60e51b8152600401610663906134a6565b600a546040516000916001600160a01b0316907f8be0079c531659141344cd1fd0a4f28419497f9722a3daafe3b4186f6b6457e0908390a3600a80546001600160a01b0319169055565b600a546001600160a01b031690565b60078054604080516020601f60026000196101006001881615020190951694909404938401819004810282018101909252828152606093909290918301828280156106145780601f106105e957610100808354040283529160200191610614565b6000610e39611cee565b15610e565760405162461bcd60e51b81526004016106639061376a565b610e5e611d0f565b15610e7b5760405162461bcd60e51b81526004016106639061376a565b600082118015610e925750610e8e61123b565b8211155b610eae5760405162461bcd60e51b815260040161066390612e8c565b336000610ed4610ecb610ec2866001611ff4565b601a549061201c565b60195490611d30565b601b54601854919250610ef6916001600160a01b039081169133911684612056565b610f00600e6120ae565b6000610f0c600e6120b7565b600081815260106020908152604080832042908190556011909252909120559050610f3783826120bb565b6000818152600f602052604090208590556060610f53866109c6565b90506000815111610f765760405162461bcd60e51b8152600401610663906131ca565b610f808282611d55565b50436000908152600d602090815260408083203284529091528082208054600160ff1991821681179092553384529190922080549091169091179055949350505050565b610fcc611c7c565b6001600160a01b0316826001600160a01b03161415610ffd5760405162461bcd60e51b81526004016106639061305c565b806005600061100a611c7c565b6001600160a01b03908116825260208083019390935260409182016000908120918716808252919093529120805460ff19169215159290921790915561104e611c7c565b6001600160a01b03167f17307eab39ab6107e8899845ad3d59bd9653f200f220920489ca2b5937696c31836040516110869190612e2c565b60405180910390a35050565b6018546001600160a01b031681565b6110b26110ac611c7c565b83611da4565b6110ce5760405162461bcd60e51b815260040161066390613698565b6110da8484848461217f565b50505050565b600c6020526000908152604090205460ff1681565b606061110082611c6f565b61111c5760405162461bcd60e51b815260040161066390613524565b60008281526008602090815260409182902080548351601f60026000196101006001861615020190931692909204918201849004840281018401909452808452606093928301828280156111b15780601f10611186576101008083540402835291602001916111b1565b820191906000526020600020905b81548152906001019060200180831161119457829003601f168201915b5050505050905060606111c2610c8c565b90508051600014156111d657509050610583565b8151156112085780826040516020016111f0929190612d6f565b60405160208183030381529060405292505050610583565b80611212856121b2565b604051602001611223929190612d6f565b60405160208183030381529060405292505050919050565b601654600090819080825b811561129a576001820390506016818154811061125f57fe5b9060005260206000200154421061128f576017818154811061127d57fe5b9060005260206000200154935061129a565b600182039150611246565b50919250505090565b6112ab611c7c565b6001600160a01b03166112bc610dbf565b6001600160a01b0316146112e25760405162461bcd60e51b8152600401610663906134a6565b6001600160a01b03166000908152600c60205260409020805460ff19166001179055565b6000611310611cee565b1561132d5760405162461bcd60e51b81526004016106639061376a565b611335611d0f565b156113525760405162461bcd60e51b81526004016106639061376a565b3361135c84610c64565b6001600160a01b031614806113805750336000908152600c602052604090205460ff165b8061139a57503361138f610dbf565b6001600160a01b0316145b806113b45750336113a9610baf565b6001600160a01b0316145b6113d05760405162461bcd60e51b815260040161066390612ecf565b336113da83610c64565b6001600160a01b031614806113fe5750336000908152600c602052604090205460ff165b8061141857503361140d610dbf565b6001600160a01b0316145b80611432575033611427610baf565b6001600160a01b0316145b61144e5760405162461bcd60e51b8152600401610663906135b7565b61145782610c64565b6001600160a01b031661146984610c64565b6001600160a01b03161461148f5760405162461bcd60e51b8152600401610663906137e0565b6000828152600f602052604080822054858352908220546114af91611d30565b90506000811180156114c857506114c461123b565b8111155b6114e45760405162461bcd60e51b815260040161066390612e8c565b60006114ef85610c64565b90506114fa8561228d565b6115038461228d565b61150d600e6120ae565b6000611519600e6120b7565b60008181526010602090815260408083204290819055601190925290912055905061154482826120bb565b6000818152600f602052604090208390556060611560846109c6565b905060008151116115835760405162461bcd60e51b8152600401610663906131ca565b61158d8282611d55565b50436000908152600d602090815260408083203284529091528082208054600160ff199182168117909255338452919092208054909116909117905595945050505050565b60106020526000908152604090205481565b6115ec611cee565b156116095760405162461bcd60e51b81526004016106639061376a565b611611611d0f565b1561162e5760405162461bcd60e51b81526004016106639061376a565b3361163882610c64565b6001600160a01b0316148061165c5750336000908152600c602052604090205460ff165b8061167657503361166b610dbf565b6001600160a01b0316145b80611690575033611685610baf565b6001600160a01b0316145b6116ac5760405162461bcd60e51b815260040161066390613193565b60006116b782610c64565b6001600160a01b03811660009081526012602052604090205490915042116116f15760405162461bcd60e51b8152600401610663906132a0565b601d54604051635a46d3b560e01b81526000916001600160a01b031690635a46d3b590611722908590600401612d9e565b60206040518083038186803b15801561173a57600080fd5b505afa15801561174e573d6000803e3d6000fd5b505050506040513d601f19601f820116820180604052508101906117729190612cee565b9050806117a5576001600160a01b0390911660009081526012602090815260408083204290556013909152902055611afa565b601d5460405163010158bb60e51b81526000916001600160a01b03169063202b1760906117d6908690600401612d9e565b60206040518083038186803b1580156117ee57600080fd5b505afa158015611802573d6000803e3d6000fd5b505050506040513d601f19601f820116820180604052508101906118269190612cee565b90508082116118475760405162461bcd60e51b81526004016106639061363b565b6118518282611ff4565b6001600160a01b038416600090815260136020526040902054909250821161199157601d5460405163579587b360e11b81526001600160a01b039091169063af2b0f66906118a6908690600090600401612e13565b600060405180830381600087803b1580156118c057600080fd5b505af11580156118d4573d6000803e3d6000fd5b5050506001600160a01b0380851660009081526012602052604090819020429055601d549051635a46d3b560e01b815291169150635a46d3b59061191c908690600401612d9e565b60206040518083038186803b15801561193457600080fd5b505afa158015611948573d6000803e3d6000fd5b505050506040513d601f19601f8201168201806040525081019061196c9190612cee565b6001600160a01b0390931660009081526013602052604090209290925550611afa9050565b6001600160a01b0383166000908152601360205260409020546119b5908390611ff4565b6000858152600f6020526040812054919350906119e0906064906119da90869061201c565b9061235a565b601d5460405163579587b360e11b81529192506001600160a01b03169063af2b0f6690611a139087908590600401612e13565b600060405180830381600087803b158015611a2d57600080fd5b505af1158015611a41573d6000803e3d6000fd5b5050506001600160a01b0380861660009081526012602052604090819020429055601d549051635a46d3b560e01b815291169150635a46d3b590611a89908790600401612d9e565b60206040518083038186803b158015611aa157600080fd5b505afa158015611ab5573d6000803e3d6000fd5b505050506040513d601f19601f82011682018060405250810190611ad99190612cee565b6001600160a01b039094166000908152601360205260409020939093555050505b50436000908152600d602090815260408083203284529091528082208054600160ff1991821681179092553384529190922080549091169091179055565b60126020526000908152604090205481565b600f6020526000908152604090205481565b6001600160a01b03918216600090815260056020908152604080832093909416825291909152205460ff1690565b60136020526000908152604090205481565b611ba4611c7c565b6001600160a01b0316611bb5610dbf565b6001600160a01b031614611bdb5760405162461bcd60e51b8152600401610663906134a6565b6001600160a01b038116611c015760405162461bcd60e51b815260040161066390612f64565b600a546040516001600160a01b038084169216907f8be0079c531659141344cd1fd0a4f28419497f9722a3daafe3b4186f6b6457e090600090a3600a80546001600160a01b0319166001600160a01b0392909216919091179055565b60116020526000908152604090205481565b60006109c060028361238c565b3390565b600081815260046020526040902080546001600160a01b0319166001600160a01b0384169081179091558190611cb582610c64565b6001600160a01b03167f8c5be1e5ebec7d5bd14f71427d1e84f3dd0314c0f7b2291e5b200ac8c7c3b92560405160405180910390a45050565b436000908152600d6020908152604080832032845290915290205460ff1690565b436000908152600d6020908152604080832033845290915290205460ff1690565b6000828201838110156109bd5760405162461bcd60e51b815260040161066390612fe1565b611d5e82611c6f565b611d7a5760405162461bcd60e51b81526004016106639061345a565b6000828152600860209081526040909120825161071b928401906129e2565b60006109c0826120b7565b6000611daf82611c6f565b611dcb5760405162461bcd60e51b815260040161066390613110565b6000611dd683610c64565b9050806001600160a01b0316846001600160a01b03161480611e115750836001600160a01b0316611e068461063c565b6001600160a01b0316145b80611e215750611e218185611b5c565b949350505050565b826001600160a01b0316611e3c82610c64565b6001600160a01b031614611e625760405162461bcd60e51b8152600401610663906134db565b6001600160a01b038216611e885760405162461bcd60e51b815260040161066390613018565b611e9383838361071b565b611e9e600082611c80565b6001600160a01b0383166000908152600160205260409020611ec09082612398565b506001600160a01b0382166000908152600160205260409020611ee390826123a4565b50611ef0600282846123b0565b5080826001600160a01b0316846001600160a01b03167fddf252ad1be2c89b69c2b068fc378daa952ba7f163c4a11628f55a4df523b3ef60405160405180910390a4505050565b6001600160a01b038116611f5d5760405162461bcd60e51b8152600401610663906132c6565b6040516001600160a01b038216906000907f74da04524d50c64947f5dd5381ef1a4dca5cba8ed1d816243f9e48aa0b5617ed908290a3600b80546001600160a01b0319166001600160a01b0392909216919091179055565b60006109bd83836123c6565b6000808080611fd0868661240b565b9097909650945050505050565b6000611fea848484612467565b90505b9392505050565b6000828211156120165760405162461bcd60e51b815260040161066390613093565b50900390565b60008261202b575060006109c0565b8282028284828161203857fe5b04146109bd5760405162461bcd60e51b8152600401610663906133cd565b6110da846323b872dd60e01b85858560405160240161207793929190612def565b60408051601f198184030181529190526020810180516001600160e01b03166001600160e01b0319909316929092179091526124c6565b80546001019055565b5490565b6001600160a01b0382166120e15760405162461bcd60e51b815260040161066390613398565b6120ea81611c6f565b156121075760405162461bcd60e51b815260040161066390612faa565b6121136000838361071b565b6001600160a01b038216600090815260016020526040902061213590826123a4565b50612142600282846123b0565b5060405181906001600160a01b038416906000907fddf252ad1be2c89b69c2b068fc378daa952ba7f163c4a11628f55a4df523b3ef908290a45050565b61218a848484611e29565b61219684848484612555565b6110da5760405162461bcd60e51b815260040161066390612f12565b6060816121d757506040805180820190915260018152600360fc1b6020820152610583565b8160005b81156121ef57600101600a820491506121db565b60608167ffffffffffffffff8111801561220857600080fd5b506040519080825280601f01601f191660200182016040528015612233576020820181803683370190505b50859350905060001982015b831561228457600a840660300160f81b8282806001900393508151811061226257fe5b60200101906001600160f81b031916908160001a905350600a8404935061223f565b50949350505050565b600061229882610c64565b90506122a68160008461071b565b6122b1600083611c80565b60008281526008602052604090205460026000196101006001841615020190911604156122ef5760008281526008602052604081206122ef91612a60565b6001600160a01b03811660009081526001602052604090206123119083612398565b5061231d600283612634565b5060405182906000906001600160a01b038416907fddf252ad1be2c89b69c2b068fc378daa952ba7f163c4a11628f55a4df523b3ef908390a45050565b600080821161237b5760405162461bcd60e51b81526004016106639061315c565b81838161238457fe5b049392505050565b60006109bd8383612640565b60006109bd8383612658565b60006109bd838361271e565b6000611fea84846001600160a01b038516612768565b815460009082106123e95760405162461bcd60e51b815260040161066390612e4a565b8260000182815481106123f857fe5b9060005260206000200154905092915050565b8154600090819083106124305760405162461bcd60e51b815260040161066390613313565b600084600001848154811061244157fe5b906000526020600020906002020190508060000154816001015492509250509250929050565b600082815260018401602052604081205482816124975760405162461bcd60e51b81526004016106639190612e37565b508460000160018203815481106124aa57fe5b9060005260206000209060020201600101549150509392505050565b606061251b826040518060400160405280602081526020017f5361666545524332303a206c6f772d6c6576656c2063616c6c206661696c6564815250856001600160a01b03166127ff9092919063ffffffff16565b80519091501561071b57808060200190518101906125399190612c82565b61071b5760405162461bcd60e51b815260040161066390613720565b6000612569846001600160a01b031661280e565b61257557506001611e21565b60606125fd630a85bd0160e11b61258a611c7c565b8887876040516024016125a09493929190612db2565b604051602081830303815290604052906001600160e01b0319166020820180516001600160e01b038381831617835250505050604051806060016040528060328152602001613894603291396001600160a01b03881691906127ff565b90506000818060200190518101906126159190612cba565b6001600160e01b031916630a85bd0160e11b1492505050949350505050565b60006109bd8383612814565b60009081526001919091016020526040902054151590565b60008181526001830160205260408120548015612714578354600019808301919081019060009087908390811061268b57fe5b90600052602060002001549050808760000184815481106126a857fe5b6000918252602080832090910192909255828152600189810190925260409020908401905586548790806126d857fe5b600190038181906000526020600020016000905590558660010160008781526020019081526020016000206000905560019450505050506109c0565b60009150506109c0565b600061272a8383612640565b612760575081546001818101845560008481526020808220909301849055845484825282860190935260409020919091556109c0565b5060006109c0565b6000828152600184016020526040812054806127cd575050604080518082018252838152602080820184815286546001818101895560008981528481209551600290930290950191825591519082015586548684528188019092529290912055611fed565b828560000160018303815481106127e057fe5b9060005260206000209060020201600101819055506000915050611fed565b6060611fea84846000856128e8565b3b151590565b60008181526001830160205260408120548015612714578354600019808301919081019060009087908390811061284757fe5b906000526020600020906002020190508087600001848154811061286757fe5b6000918252602080832084546002909302019182556001938401549184019190915583548252898301905260409020908401905586548790806128a657fe5b60008281526020808220600260001990940193840201828155600190810183905592909355888152898201909252604082209190915594506109c09350505050565b60608247101561290a5760405162461bcd60e51b8152600401610663906130ca565b6129138561280e565b61292f5760405162461bcd60e51b8152600401610663906136e9565b60006060866001600160a01b0316858760405161294c9190612d53565b60006040518083038185875af1925050503d8060008114612989576040519150601f19603f3d011682016040523d82523d6000602084013e61298e565b606091505b509150915061299e8282866129a9565b979650505050505050565b606083156129b8575081611fed565b8251156129c85782518084602001fd5b8160405162461bcd60e51b81526004016106639190612e37565b828054600181600116156101000203166002900490600052602060002090601f016020900481019282601f10612a2357805160ff1916838001178555612a50565b82800160010185558215612a50579182015b82811115612a50578251825591602001919060010190612a35565b50612a5c929150612aa0565b5090565b50805460018160011615610100020316600290046000825580601f10612a86575061098b565b601f01602090049060005260206000209081019061098b91905b5b80821115612a5c5760008155600101612aa1565b80356001600160a01b03811681146109c057600080fd5b600060208284031215612add578081fd5b6109bd8383612ab5565b60008060408385031215612af9578081fd5b612b038484612ab5565b9150612b128460208501612ab5565b90509250929050565b600080600060608486031215612b2f578081fd5b8335612b3a8161385a565b92506020840135612b4a8161385a565b929592945050506040919091013590565b60008060008060808587031215612b70578081fd5b612b7a8686612ab5565b93506020612b8a87828801612ab5565b935060408601359250606086013567ffffffffffffffff80821115612bad578384fd5b818801915088601f830112612bc0578384fd5b813581811115612bce578485fd5b604051601f8201601f1916810185018381118282101715612bed578687fd5b60405281815283820185018b1015612c03578586fd5b81858501868301379081019093019390935250939692955090935050565b60008060408385031215612c33578182fd5b612c3d8484612ab5565b91506020830135612c4d8161386f565b809150509250929050565b60008060408385031215612c6a578182fd5b612c748484612ab5565b946020939093013593505050565b600060208284031215612c93578081fd5b81516109bd8161386f565b600060208284031215612caf578081fd5b81356109bd8161387d565b600060208284031215612ccb578081fd5b81516109bd8161387d565b600060208284031215612ce7578081fd5b5035919050565b600060208284031215612cff578081fd5b5051919050565b60008060408385031215612d18578182fd5b50508035926020909101359150565b60008151808452612d3f81602086016020860161382e565b601f01601f19169290920160200192915050565b60008251612d6581846020870161382e565b9190910192915050565b60008351612d8181846020880161382e565b835190830190612d9581836020880161382e565b01949350505050565b6001600160a01b0391909116815260200190565b6001600160a01b0385811682528416602082015260408101839052608060608201819052600090612de590830184612d27565b9695505050505050565b6001600160a01b039384168152919092166020820152604081019190915260600190565b6001600160a01b03929092168252602082015260400190565b901515815260200190565b6000602082526109bd6020830184612d27565b60208082526022908201527f456e756d657261626c655365743a20696e646578206f7574206f6620626f756e604082015261647360f01b606082015260800190565b60208082526023908201527f4c6576656c206d757374206265203e203020616e64203c3d206d6178206c657660408201526232b61760e91b606082015260800190565b60208082526023908201527f4e6f7420656e6f756768207065726d697373696f6e7320666f7220746f6b656e60408201526210189760e91b606082015260800190565b60208082526032908201527f4552433732313a207472616e7366657220746f206e6f6e20455243373231526560408201527131b2b4bb32b91034b6b83632b6b2b73a32b960711b606082015260800190565b60208082526026908201527f4f776e61626c653a206e6577206f776e657220697320746865207a65726f206160408201526564647265737360d01b606082015260800190565b6020808252601c908201527f4552433732313a20746f6b656e20616c7265616479206d696e74656400000000604082015260600190565b6020808252601b908201527f536166654d6174683a206164646974696f6e206f766572666c6f770000000000604082015260600190565b60208082526024908201527f4552433732313a207472616e7366657220746f20746865207a65726f206164646040820152637265737360e01b606082015260800190565b60208082526019908201527f4552433732313a20617070726f766520746f2063616c6c657200000000000000604082015260600190565b6020808252601e908201527f536166654d6174683a207375627472616374696f6e206f766572666c6f770000604082015260600190565b60208082526026908201527f416464726573733a20696e73756666696369656e742062616c616e636520666f6040820152651c8818d85b1b60d21b606082015260800190565b6020808252602c908201527f4552433732313a206f70657261746f7220717565727920666f72206e6f6e657860408201526b34b9ba32b73a103a37b5b2b760a11b606082015260800190565b6020808252601a908201527f536166654d6174683a206469766973696f6e206279207a65726f000000000000604082015260600190565b60208082526017908201527f4e6f7420656e6f756768207065726d697373696f6e732e000000000000000000604082015260600190565b6020808252601590820152742a37b5b2b7102aa9249034b99034b73b30b634b21760591b604082015260600190565b60208082526038908201527f4552433732313a20617070726f76652063616c6c6572206973206e6f74206f7760408201527f6e6572206e6f7220617070726f76656420666f7220616c6c0000000000000000606082015260800190565b6020808252602a908201527f4552433732313a2062616c616e636520717565727920666f7220746865207a65604082015269726f206164647265737360b01b606082015260800190565b6020808252600c908201526b2637b3b4b19032b93937b91760a11b604082015260600190565b6020808252602d908201527f6f70657261746f723a207a65726f206164647265737320676976656e20666f7260408201526c103732bb9037b832b930ba37b960991b606082015260800190565b60208082526022908201527f456e756d657261626c654d61703a20696e646578206f7574206f6620626f756e604082015261647360f01b606082015260800190565b60208082526023908201527f4c6576656c206d757374206265206c6f776572207468616e206d6178206c657660408201526232b61760e91b606082015260800190565b6020808252818101527f4552433732313a206d696e7420746f20746865207a65726f2061646472657373604082015260600190565b60208082526021908201527f536166654d6174683a206d756c7469706c69636174696f6e206f766572666c6f6040820152607760f81b606082015260800190565b6020808252602c908201527f4552433732313a20617070726f76656420717565727920666f72206e6f6e657860408201526b34b9ba32b73a103a37b5b2b760a11b606082015260800190565b6020808252602c908201527f4552433732314d657461646174613a2055524920736574206f66206e6f6e657860408201526b34b9ba32b73a103a37b5b2b760a11b606082015260800190565b6020808252818101527f4f776e61626c653a2063616c6c6572206973206e6f7420746865206f776e6572604082015260600190565b60208082526029908201527f4552433732313a207472616e73666572206f6620746f6b656e2074686174206960408201526839903737ba1037bbb760b91b606082015260800190565b6020808252602f908201527f4552433732314d657461646174613a2055524920717565727920666f72206e6f60408201526e3732bc34b9ba32b73a103a37b5b2b760891b606082015260800190565b60208082526024908201527f6f70657261746f723a2063616c6c6572206973206e6f7420746865206f70657260408201526330ba37b960e11b606082015260800190565b60208082526023908201527f4e6f7420656e6f756768207065726d697373696f6e7320666f7220746f6b656e60408201526210191760e91b606082015260800190565b60208082526021908201527f4552433732313a20617070726f76616c20746f2063757272656e74206f776e656040820152603960f91b606082015260800190565b60208082526039908201527f546f6f206d75636820746f20756e6c6f636b206e61747572616c6c792c20706c60408201527f656173652063616c6c20756e6c6f636b28292066697273742e00000000000000606082015260800190565b60208082526031908201527f4552433732313a207472616e736665722063616c6c6572206973206e6f74206f6040820152701ddb995c881b9bdc88185c1c1c9bdd9959607a1b606082015260800190565b6020808252601d908201527f416464726573733a2063616c6c20746f206e6f6e2d636f6e7472616374000000604082015260600190565b6020808252602a908201527f5361666545524332303a204552433230206f7065726174696f6e20646964206e6040820152691bdd081cdd58d8d9595960b21b606082015260800190565b60208082526026908201527f436f6e747261637447756172643a206f6e6520626c6f636b2c206f6e652066756040820152653731ba34b7b760d11b606082015260800190565b6020808252601690820152752a37b79032b0b9363c903a37903632bb32b6103ab81760511b604082015260600190565b60208082526025908201527f426f746820746f6b656e73206d7573742068617665207468652073616d65206f6040820152643bb732b91760d91b606082015260800190565b90815260200190565b60005b83811015613849578181015183820152602001613831565b838111156110da5750506000910152565b6001600160a01b038116811461098b57600080fd5b801515811461098b57600080fd5b6001600160e01b03198116811461098b57600080fdfe4552433732313a207472616e7366657220746f206e6f6e20455243373231526563656976657220696d706c656d656e7465724552433732313a206f776e657220717565727920666f72206e6f6e6578697374656e7420746f6b656ea26469706673582212205990d5f407a9328f568fe532e98715779b9f87746bc6204641a24284f721187064736f6c634300060c0033",
  "linkReferences": {},
  "deployedLinkReferences": {}
}