{
  "_format": "hh-sol-artifact-1",
  "contractName": "TheoryUnlocker",
  "sourceName": "contracts/nfts/GameUnlocker.sol",
  "abi": [
    {
      "inputs": [
        {
          "internalType": "contract IERC20",
          "name": "_buy",
          "type": "address"
        },
        {
          "internalType": "uint256",
          "name": "_buyPerLevel",
          "type": "uint256"
        },
        {
          "internalType": "contract IERC20Lockable",
          "name": "_theory",
          "type": "address"
        },
        {
          "internalType": "address",
          "name": "_treasury",
          "type": "address"
        },
        {
          "internalType": "uint256[]",
          "name": "_maxLevelTime",
          "type": "uint256[]"
        },
        {
          "internalType": "uint256[]",
          "name": "_maxLevelLevel",
          "type": "uint256[]"
        },
        {
          "internalType": "uint256[]",
          "name": "_levelURIsLevel",
          "type": "uint256[]"
        },
        {
          "internalType": "string[]",
          "name": "_levelURIsURI",
          "type": "string[]"
        }
      ],
      "stateMutability": "nonpayable",
      "type": "constructor"
    },
    {
      "anonymous": false,
      "inputs": [
        {
          "indexed": true,
          "internalType": "address",
          "name": "owner",
          "type": "address"
        },
        {
          "indexed": true,
          "internalType": "address",
          "name": "approved",
          "type": "address"
        },
        {
          "indexed": true,
          "internalType": "uint256",
          "name": "tokenId",
          "type": "uint256"
        }
      ],
      "name": "Approval",
      "type": "event"
    },
    {
      "anonymous": false,
      "inputs": [
        {
          "indexed": true,
          "internalType": "address",
          "name": "owner",
          "type": "address"
        },
        {
          "indexed": true,
          "internalType": "address",
          "name": "operator",
          "type": "address"
        },
        {
          "indexed": false,
          "internalType": "bool",
          "name": "approved",
          "type": "bool"
        }
      ],
      "name": "ApprovalForAll",
      "type": "event"
    },
    {
      "anonymous": false,
      "inputs": [
        {
          "indexed": true,
          "internalType": "address",
          "name": "previousOperator",
          "type": "address"
        },
        {
          "indexed": true,
          "internalType": "address",
          "name": "newOperator",
          "type": "address"
        }
      ],
      "name": "OperatorTransferred",
      "type": "event"
    },
    {
      "anonymous": false,
      "inputs": [
        {
          "indexed": true,
          "internalType": "address",
          "name": "previousOwner",
          "type": "address"
        },
        {
          "indexed": true,
          "internalType": "address",
          "name": "newOwner",
          "type": "address"
        }
      ],
      "name": "OwnershipTransferred",
      "type": "event"
    },
    {
      "anonymous": false,
      "inputs": [
        {
          "indexed": true,
          "internalType": "address",
          "name": "from",
          "type": "address"
        },
        {
          "indexed": true,
          "internalType": "address",
          "name": "to",
          "type": "address"
        },
        {
          "indexed": true,
          "internalType": "uint256",
          "name": "tokenId",
          "type": "uint256"
        }
      ],
      "name": "Transfer",
      "type": "event"
    },
    {
      "inputs": [
        {
          "internalType": "address",
          "name": "_toAdd",
          "type": "address"
        }
      ],
      "name": "addAuthorized",
      "outputs": [],
      "stateMutability": "nonpayable",
      "type": "function"
    },
    {
      "inputs": [
        {
          "internalType": "address",
          "name": "to",
          "type": "address"
        },
        {
          "internalType": "uint256",
          "name": "tokenId",
          "type": "uint256"
        }
      ],
      "name": "approve",
      "outputs": [],
      "stateMutability": "nonpayable",
      "type": "function"
    },
    {
      "inputs": [
        {
          "internalType": "address",
          "name": "",
          "type": "address"
        }
      ],
      "name": "authorized",
      "outputs": [
        {
          "internalType": "bool",
          "name": "",
          "type": "bool"
        }
      ],
      "stateMutability": "view",
      "type": "function"
    },
    {
      "inputs": [
        {
          "internalType": "address",
          "name": "owner",
          "type": "address"
        }
      ],
      "name": "balanceOf",
      "outputs": [
        {
          "internalType": "uint256",
          "name": "",
          "type": "uint256"
        }
      ],
      "stateMutability": "view",
      "type": "function"
    },
    {
      "inputs": [],
      "name": "baseURI",
      "outputs": [
        {
          "internalType": "string",
          "name": "",
          "type": "string"
        }
      ],
      "stateMutability": "view",
      "type": "function"
    },
    {
      "inputs": [],
      "name": "buyToken",
      "outputs": [
        {
          "internalType": "contract IERC20",
          "name": "",
          "type": "address"
        }
      ],
      "stateMutability": "view",
      "type": "function"
    },
    {
      "inputs": [
        {
          "internalType": "uint256",
          "name": "",
          "type": "uint256"
        }
      ],
      "name": "creationTime",
      "outputs": [
        {
          "internalType": "uint256",
          "name": "",
          "type": "uint256"
        }
      ],
      "stateMutability": "view",
      "type": "function"
    },
    {
      "inputs": [
        {
          "internalType": "uint256",
          "name": "tokenId",
          "type": "uint256"
        }
      ],
      "name": "getApproved",
      "outputs": [
        {
          "internalType": "address",
          "name": "",
          "type": "address"
        }
      ],
      "stateMutability": "view",
      "type": "function"
    },
    {
      "inputs": [
        {
          "internalType": "address",
          "name": "owner",
          "type": "address"
        },
        {
          "internalType": "address",
          "name": "operator",
          "type": "address"
        }
      ],
      "name": "isApprovedForAll",
      "outputs": [
        {
          "internalType": "bool",
          "name": "",
          "type": "bool"
        }
      ],
      "stateMutability": "view",
      "type": "function"
    },
    {
      "inputs": [],
      "name": "isOperator",
      "outputs": [
        {
          "internalType": "bool",
          "name": "",
          "type": "bool"
        }
      ],
      "stateMutability": "view",
      "type": "function"
    },
    {
      "inputs": [
        {
          "internalType": "uint256",
          "name": "",
          "type": "uint256"
        }
      ],
      "name": "lastLevelTime",
      "outputs": [
        {
          "internalType": "uint256",
          "name": "",
          "type": "uint256"
        }
      ],
      "stateMutability": "view",
      "type": "function"
    },
    {
      "inputs": [
        {
          "internalType": "address",
          "name": "",
          "type": "address"
        }
      ],
      "name": "lastLockOf",
      "outputs": [
        {
          "internalType": "uint256",
          "name": "",
          "type": "uint256"
        }
      ],
      "stateMutability": "view",
      "type": "function"
    },
    {
      "inputs": [
        {
          "internalType": "address",
          "name": "",
          "type": "address"
        }
      ],
      "name": "lastUnlockTime",
      "outputs": [
        {
          "internalType": "uint256",
          "name": "",
          "type": "uint256"
        }
      ],
      "stateMutability": "view",
      "type": "function"
    },
    {
      "inputs": [
        {
          "internalType": "uint256",
          "name": "level",
          "type": "uint256"
        }
      ],
      "name": "levelURI",
      "outputs": [
        {
          "internalType": "string",
          "name": "",
          "type": "string"
        }
      ],
      "stateMutability": "view",
      "type": "function"
    },
    {
      "inputs": [
        {
          "internalType": "uint256",
          "name": "",
          "type": "uint256"
        }
      ],
      "name": "levelURIsLevel",
      "outputs": [
        {
          "internalType": "uint256",
          "name": "",
          "type": "uint256"
        }
      ],
      "stateMutability": "view",
      "type": "function"
    },
    {
      "inputs": [
        {
          "internalType": "uint256",
          "name": "",
          "type": "uint256"
        }
      ],
      "name": "levelURIsURI",
      "outputs": [
        {
          "internalType": "string",
          "name": "",
          "type": "string"
        }
      ],
      "stateMutability": "view",
      "type": "function"
    },
    {
      "inputs": [
        {
          "internalType": "uint256",
          "name": "tokenId",
          "type": "uint256"
        }
      ],
      "name": "levelUp",
      "outputs": [],
      "stateMutability": "nonpayable",
      "type": "function"
    },
    {
      "inputs": [],
      "name": "maxLevel",
      "outputs": [
        {
          "internalType": "uint256",
          "name": "",
          "type": "uint256"
        }
      ],
      "stateMutability": "view",
      "type": "function"
    },
    {
      "inputs": [
        {
          "internalType": "uint256",
          "name": "",
          "type": "uint256"
        }
      ],
      "name": "maxLevelLevel",
      "outputs": [
        {
          "internalType": "uint256",
          "name": "",
          "type": "uint256"
        }
      ],
      "stateMutability": "view",
      "type": "function"
    },
    {
      "inputs": [
        {
          "internalType": "uint256",
          "name": "",
          "type": "uint256"
        }
      ],
      "name": "maxLevelTime",
      "outputs": [
        {
          "internalType": "uint256",
          "name": "",
          "type": "uint256"
        }
      ],
      "stateMutability": "view",
      "type": "function"
    },
    {
      "inputs": [
        {
          "internalType": "uint256",
          "name": "tokenId1",
          "type": "uint256"
        },
        {
          "internalType": "uint256",
          "name": "tokenId2",
          "type": "uint256"
        }
      ],
      "name": "merge",
      "outputs": [
        {
          "internalType": "uint256",
          "name": "",
          "type": "uint256"
        }
      ],
      "stateMutability": "nonpayable",
      "type": "function"
    },
    {
      "inputs": [
        {
          "internalType": "uint256",
          "name": "level",
          "type": "uint256"
        }
      ],
      "name": "mint",
      "outputs": [
        {
          "internalType": "uint256",
          "name": "",
          "type": "uint256"
        }
      ],
      "stateMutability": "nonpayable",
      "type": "function"
    },
    {
      "inputs": [],
      "name": "name",
      "outputs": [
        {
          "internalType": "string",
          "name": "",
          "type": "string"
        }
      ],
      "stateMutability": "view",
      "type": "function"
    },
    {
      "inputs": [
        {
          "internalType": "uint256",
          "name": "tokenId",
          "type": "uint256"
        }
      ],
      "name": "nftUnlock",
      "outputs": [],
      "stateMutability": "nonpayable",
      "type": "function"
    },
    {
      "inputs": [],
      "name": "operator",
      "outputs": [
        {
          "internalType": "address",
          "name": "",
          "type": "address"
        }
      ],
      "stateMutability": "view",
      "type": "function"
    },
    {
      "inputs": [],
      "name": "owner",
      "outputs": [
        {
          "internalType": "address",
          "name": "",
          "type": "address"
        }
      ],
      "stateMutability": "view",
      "type": "function"
    },
    {
      "inputs": [
        {
          "internalType": "uint256",
          "name": "tokenId",
          "type": "uint256"
        }
      ],
      "name": "ownerOf",
      "outputs": [
        {
          "internalType": "address",
          "name": "",
          "type": "address"
        }
      ],
      "stateMutability": "view",
      "type": "function"
    },
    {
      "inputs": [
        {
          "internalType": "address",
          "name": "_toRemove",
          "type": "address"
        }
      ],
      "name": "removeAuthorized",
      "outputs": [],
      "stateMutability": "nonpayable",
      "type": "function"
    },
    {
      "inputs": [],
      "name": "renounceOwnership",
      "outputs": [],
      "stateMutability": "nonpayable",
      "type": "function"
    },
    {
      "inputs": [
        {
          "internalType": "address",
          "name": "from",
          "type": "address"
        },
        {
          "internalType": "address",
          "name": "to",
          "type": "address"
        },
        {
          "internalType": "uint256",
          "name": "tokenId",
          "type": "uint256"
        }
      ],
      "name": "safeTransferFrom",
      "outputs": [],
      "stateMutability": "nonpayable",
      "type": "function"
    },
    {
      "inputs": [
        {
          "internalType": "address",
          "name": "from",
          "type": "address"
        },
        {
          "internalType": "address",
          "name": "to",
          "type": "address"
        },
        {
          "internalType": "uint256",
          "name": "tokenId",
          "type": "uint256"
        },
        {
          "internalType": "bytes",
          "name": "_data",
          "type": "bytes"
        }
      ],
      "name": "safeTransferFrom",
      "outputs": [],
      "stateMutability": "nonpayable",
      "type": "function"
    },
    {
      "inputs": [
        {
          "internalType": "address",
          "name": "operator",
          "type": "address"
        },
        {
          "internalType": "bool",
          "name": "approved",
          "type": "bool"
        }
      ],
      "name": "setApprovalForAll",
      "outputs": [],
      "stateMutability": "nonpayable",
      "type": "function"
    },
    {
      "inputs": [
        {
          "internalType": "bytes4",
          "name": "interfaceId",
          "type": "bytes4"
        }
      ],
      "name": "supportsInterface",
      "outputs": [
        {
          "internalType": "bool",
          "name": "",
          "type": "bool"
        }
      ],
      "stateMutability": "view",
      "type": "function"
    },
    {
      "inputs": [],
      "name": "symbol",
      "outputs": [
        {
          "internalType": "string",
          "name": "",
          "type": "string"
        }
      ],
      "stateMutability": "view",
      "type": "function"
    },
    {
      "inputs": [],
      "name": "theory",
      "outputs": [
        {
          "internalType": "contract IERC20Lockable",
          "name": "",
          "type": "address"
        }
      ],
      "stateMutability": "view",
      "type": "function"
    },
    {
      "inputs": [
        {
          "internalType": "uint256",
          "name": "index",
          "type": "uint256"
        }
      ],
      "name": "tokenByIndex",
      "outputs": [
        {
          "internalType": "uint256",
          "name": "",
          "type": "uint256"
        }
      ],
      "stateMutability": "view",
      "type": "function"
    },
    {
      "inputs": [
        {
          "internalType": "uint256",
          "name": "",
          "type": "uint256"
        }
      ],
      "name": "tokenLevels",
      "outputs": [
        {
          "internalType": "uint256",
          "name": "",
          "type": "uint256"
        }
      ],
      "stateMutability": "view",
      "type": "function"
    },
    {
      "inputs": [
        {
          "internalType": "address",
          "name": "owner",
          "type": "address"
        },
        {
          "internalType": "uint256",
          "name": "index",
          "type": "uint256"
        }
      ],
      "name": "tokenOfOwnerByIndex",
      "outputs": [
        {
          "internalType": "uint256",
          "name": "",
          "type": "uint256"
        }
      ],
      "stateMutability": "view",
      "type": "function"
    },
    {
      "inputs": [
        {
          "internalType": "uint256",
          "name": "tokenId",
          "type": "uint256"
        }
      ],
      "name": "tokenURI",
      "outputs": [
        {
          "internalType": "string",
          "name": "",
          "type": "string"
        }
      ],
      "stateMutability": "view",
      "type": "function"
    },
    {
      "inputs": [],
      "name": "totalSupply",
      "outputs": [
        {
          "internalType": "uint256",
          "name": "",
          "type": "uint256"
        }
      ],
      "stateMutability": "view",
      "type": "function"
    },
    {
      "inputs": [
        {
          "internalType": "address",
          "name": "from",
          "type": "address"
        },
        {
          "internalType": "address",
          "name": "to",
          "type": "address"
        },
        {
          "internalType": "uint256",
          "name": "tokenId",
          "type": "uint256"
        }
      ],
      "name": "transferFrom",
      "outputs": [],
      "stateMutability": "nonpayable",
      "type": "function"
    },
    {
      "inputs": [
        {
          "internalType": "address",
          "name": "newOperator_",
          "type": "address"
        }
      ],
      "name": "transferOperator",
      "outputs": [],
      "stateMutability": "nonpayable",
      "type": "function"
    },
    {
      "inputs": [
        {
          "internalType": "address",
          "name": "newOwner",
          "type": "address"
        }
      ],
      "name": "transferOwnership",
      "outputs": [],
      "stateMutability": "nonpayable",
      "type": "function"
    }
  ],
  "bytecode": "0x60806040523480156200001157600080fd5b50604051620042983803806200429883398101604081905262000034916200068c565b604080518082018252600f81526e2a2422a7a92c902ab73637b1b5b2b960891b60208083019190915282518084019093526002835261475560f01b9083015290620000866301ffc9a760e01b6200035c565b81516200009b906006906020850190620003b2565b508051620000b1906007906020840190620003b2565b50620000c46380ac58cd60e01b6200035c565b620000d6635b5e139f60e01b6200035c565b620000e863780e9d6360e01b6200035c565b5060009050620000f7620003ae565b600a80546001600160a01b0319166001600160a01b038316908117909155604051919250906000907f8be0079c531659141344cd1fd0a4f28419497f9722a3daafe3b4186f6b6457e0908290a3506200014f620003ae565b600b80546001600160a01b0319166001600160a01b0392831617908190556040519116906000907f74da04524d50c64947f5dd5381ef1a4dca5cba8ed1d816243f9e48aa0b5617ed908290a3601880546001600160a01b0319166001600160a01b038a161790556019879055815115801590620001e1575081600081518110620001d557fe5b60200260200101516000145b8015620001ef575081518151145b620002175760405162461bcd60e51b81526004016200020e90620007bd565b60405180910390fd5b600084511180156200023e5750836000815181106200023257fe5b60200260200101516000145b80156200024c575083518351145b6200026b5760405162461bcd60e51b81526004016200020e9062000874565b82516000905b80821015620002be5760648583815181106200028957fe5b60200260200101511115620002b25760405162461bcd60e51b81526004016200020e9062000831565b60018201915062000271565b8351620002d390601490602087019062000437565b508251620002e990601590602086019062000474565b508551620002ff90601690602089019062000437565b5084516200031590601790602088019062000437565b5050601a80546001600160a01b039788166001600160a01b0319918216179091556203f480601b55601c805498909716971696909617909455506200098595505050505050565b6001600160e01b03198082161415620003895760405162461bcd60e51b81526004016200020e9062000786565b6001600160e01b0319166000908152602081905260409020805460ff19166001179055565b3390565b828054600181600116156101000203166002900490600052602060002090601f016020900481019282601f10620003f557805160ff191683800117855562000425565b8280016001018555821562000425579182015b828111156200042557825182559160200191906001019062000408565b5062000433929150620004d4565b5090565b8280548282559060005260206000209081019282156200042557916020028201828111156200042557825182559160200191906001019062000408565b828054828255906000526020600020908101928215620004c6579160200282015b82811115620004c65782518051620004b5918491602090910190620003b2565b509160200191906001019062000495565b5062000433929150620004eb565b5b80821115620004335760008155600101620004d5565b80821115620004335760006200050282826200050c565b50600101620004eb565b50805460018160011615610100020316600290046000825580601f1062000534575062000554565b601f016020900490600052602060002090810190620005549190620004d4565b50565b80516001600160a01b03811681146200056f57600080fd5b92915050565b600082601f83011262000586578081fd5b81516200059d62000597826200090e565b620008e7565b818152915060208083019084810160005b848110156200061c578151870188603f820112620005cb57600080fd5b83810151620005de62000597826200092e565b81815260408b81848601011115620005f557600080fd5b620006068388840183870162000952565b50865250509282019290820190600101620005ae565b505050505092915050565b600082601f83011262000638578081fd5b81516200064962000597826200090e565b8181529150602080830190848101818402860182018710156200066b57600080fd5b60005b848110156200061c578151845292820192908201906001016200066e565b600080600080600080600080610100898b031215620006a9578384fd5b620006b58a8a62000557565b975060208901519650620006cd8a60408b0162000557565b9550620006de8a60608b0162000557565b60808a01519095506001600160401b0380821115620006fb578586fd5b620007098c838d0162000627565b955060a08b01519150808211156200071f578485fd5b6200072d8c838d0162000627565b945060c08b015191508082111562000743578384fd5b620007518c838d0162000627565b935060e08b015191508082111562000767578283fd5b50620007768b828c0162000575565b9150509295985092959890939650565b6020808252601c908201527f4552433136353a20696e76616c696420696e7465726661636520696400000000604082015260600190565b6020808252604e908201527f4c6576656c2055524920617272617973206d75737420626520657175616c206960408201527f6e206e6f6e2d7a65726f206c656e67746820616e64206c6576656c2073686f7560608201526d36321039ba30b93a1030ba10181760911b608082015260a00190565b60208082526023908201527f4d6178206c6576656c2063616e277420626520686967686572207468616e203160408201526218181760e91b606082015260800190565b6020808252604d908201527f4d6178206c6576656c20617272617973206d75737420626520657175616c206960408201527f6e206e6f6e2d7a65726f206c656e67746820616e642074696d652073686f756c60608201526c321039ba30b93a1030ba10181760991b608082015260a00190565b6040518181016001600160401b03811182821017156200090657600080fd5b604052919050565b60006001600160401b0382111562000924578081fd5b5060209081020190565b60006001600160401b0382111562000944578081fd5b50601f01601f191660200190565b60005b838110156200096f57818101518382015260200162000955565b838111156200097f576000848401525b50505050565b61390380620009956000396000f3fe608060405234801561001057600080fd5b50600436106102695760003560e01c80636c0360eb11610151578063cc06c359116100c3578063dc7887a411610087578063dc7887a4146104f3578063e600d94d14610506578063e985e9c514610519578063f1c876651461052c578063f2fde38b1461053f578063fd71f6f61461055257610269565b8063cc06c3591461049f578063cf1c316a146104a7578063d1c2babb146104ba578063d5ae33e2146104cd578063db357c30146104e057610269565b8063a0712d6811610115578063a0712d6814610438578063a22cb4651461044b578063a48217191461045e578063b88d4fde14610466578063b918161114610479578063c87b56dd1461048c57610269565b80636c0360eb1461040557806370a082311461040d578063715018a6146104205780638da5cb5b1461042857806395d89b411461043057610269565b80632f745c59116101ea5780634456eda2116101ae5780634456eda2146103a9578063485d7d94146103b15780634f6ccce7146103c4578063570ca735146103d75780635b2f4ed4146103df5780636352211e146103f257610269565b80632f745c591461035557806338d17099146103685780633bcafb631461037b5780633c32a4501461038e57806342842e0e1461039657610269565b80630ce90ec2116102315780630ce90ec21461030157806318160ddd1461031457806323b872dd1461031c57806329605e771461032f5780632eb552f31461034257610269565b806301ffc9a71461026e57806306fdde031461029757806308143796146102ac578063081812fc146102cc578063095ea7b3146102ec575b600080fd5b61028161027c366004612c7d565b610565565b60405161028e9190612e0b565b60405180910390f35b61029f610588565b60405161028e9190612e16565b6102bf6102ba366004612cb5565b61061e565b60405161028e9190613804565b6102df6102da366004612cb5565b61063c565b60405161028e9190612d7d565b6102ff6102fa366004612c37565b610688565b005b6102ff61030f366004612cb5565b610720565b6102bf61090f565b6102ff61032a366004612afa565b610920565b6102ff61033d366004612aab565b610958565b6102bf610350366004612cb5565b61098e565b6102bf610363366004612c37565b61099b565b61029f610376366004612cb5565b6109c6565b6102bf610389366004612cb5565b610ac6565b6102df610ad3565b6102ff6103a4366004612afa565b610ae2565b610281610afd565b6102ff6103bf366004612aab565b610b23565b6102bf6103d2366004612cb5565b610b99565b6102df610baf565b61029f6103ed366004612cb5565b610bbe565b6102df610400366004612cb5565b610c64565b61029f610c8c565b6102bf61041b366004612aab565b610ced565b6102ff610d36565b6102df610dbf565b61029f610dce565b6102bf610446366004612cb5565b610e2f565b6102ff610459366004612c00565b610fa3565b6102df611071565b6102ff610474366004612b3a565b611080565b610281610487366004612aab565b6110bf565b61029f61049a366004612cb5565b6110d4565b6102bf61121a565b6102ff6104b5366004612aab565b611282565b6102bf6104c8366004612ce5565b6112e5565b6102bf6104db366004612cb5565b6115b1565b6102ff6104ee366004612cb5565b6115c3565b6102bf610501366004612aab565b611b17565b6102bf610514366004612cb5565b611b29565b610281610527366004612ac6565b611b3b565b6102bf61053a366004612aab565b611b69565b6102ff61054d366004612aab565b611b7b565b6102bf610560366004612cb5565b611c3c565b6001600160e01b0319811660009081526020819052604090205460ff165b919050565b60068054604080516020601f60026000196101006001881615020190951694909404938401819004810282018101909252828152606093909290918301828280156106145780601f106105e957610100808354040283529160200191610614565b820191906000526020600020905b8154815290600101906020018083116105f757829003601f168201915b5050505050905090565b6017818154811061062b57fe5b600091825260209091200154905081565b600061064782611c4e565b61066c5760405162461bcd60e51b8152600401610663906133ed565b60405180910390fd5b506000908152600460205260409020546001600160a01b031690565b600061069382610c64565b9050806001600160a01b0316836001600160a01b031614156106c75760405162461bcd60e51b8152600401610663906135d9565b806001600160a01b03166106d9611c5b565b6001600160a01b031614806106f557506106f581610527611c5b565b6107115760405162461bcd60e51b8152600401610663906131d8565b61071b8383611c5f565b505050565b610728611ccd565b156107455760405162461bcd60e51b815260040161066390613749565b61074d611cee565b1561076a5760405162461bcd60e51b815260040161066390613749565b3361077482610c64565b6001600160a01b031614806107985750336000908152600c602052604090205460ff165b806107b25750336107a7610dbf565b6001600160a01b0316145b806107cc5750336107c1610baf565b6001600160a01b0316145b6107e85760405162461bcd60e51b815260040161066390613172565b6107f061121a565b6000828152600f60205260409020541061081c5760405162461bcd60e51b815260040161066390613334565b601b54600082815260116020526040812054909161083a9190611d0f565b90508042101561085c5760405162461bcd60e51b81526004016106639061378f565b6000828152601160209081526040808320849055600f909152812054610883906001611d0f565b6000848152600f60205260409020819055905060606108a1826109c6565b905060008151116108c45760405162461bcd60e51b8152600401610663906131a9565b6108ce8482611d34565b5050436000908152600d602090815260408083203284529091528082208054600160ff19918216811790925533845291909220805490911690911790555050565b600061091b6002611d78565b905090565b61093161092b611c5b565b82611d83565b61094d5760405162461bcd60e51b815260040161066390613677565b61071b838383611e08565b600b546001600160a01b031633146109825760405162461bcd60e51b815260040161066390613552565b61098b81611f16565b50565b6014818154811061062b57fe5b6001600160a01b03821660009081526001602052604081206109bd9083611f94565b90505b92915050565b604080516020810190915260008082526014546060929181905b8115610abc57600182039050601481815481106109f957fe5b90600052602060002001548610610ab15760158181548110610a1757fe5b600091825260209182902001805460408051601f6002600019610100600187161502019094169390930492830185900485028101850190915281815292830182828015610aa55780601f10610a7a57610100808354040283529160200191610aa5565b820191906000526020600020905b815481529060010190602001808311610a8857829003601f168201915b50505050509350610abc565b6001820391506109e0565b5091949350505050565b6016818154811061062b57fe5b601c546001600160a01b031681565b61071b83838360405180602001604052806000815250611080565b600b546000906001600160a01b0316610b14611c5b565b6001600160a01b031614905090565b610b2b611c5b565b6001600160a01b0316610b3c610dbf565b6001600160a01b031614610b625760405162461bcd60e51b815260040161066390613485565b6001600160a01b038116331415610b7857600080fd5b6001600160a01b03166000908152600c60205260409020805460ff19169055565b600080610ba7600284611fa0565b509392505050565b600b546001600160a01b031690565b60158181548110610bcb57fe5b600091825260209182902001805460408051601f6002600019610100600187161502019094169390930492830185900485028101850190915281815293509091830182828015610c5c5780601f10610c3157610100808354040283529160200191610c5c565b820191906000526020600020905b815481529060010190602001808311610c3f57829003601f168201915b505050505081565b60006109c0826040518060600160405280602981526020016138a56029913960029190611fbc565b60098054604080516020601f60026000196101006001881615020190951694909404938401819004810282018101909252828152606093909290918301828280156106145780601f106105e957610100808354040283529160200191610614565b60006001600160a01b038216610d155760405162461bcd60e51b815260040161066390613235565b6001600160a01b03821660009081526001602052604090206109c090611d78565b610d3e611c5b565b6001600160a01b0316610d4f610dbf565b6001600160a01b031614610d755760405162461bcd60e51b815260040161066390613485565b600a546040516000916001600160a01b0316907f8be0079c531659141344cd1fd0a4f28419497f9722a3daafe3b4186f6b6457e0908390a3600a80546001600160a01b0319169055565b600a546001600160a01b031690565b60078054604080516020601f60026000196101006001881615020190951694909404938401819004810282018101909252828152606093909290918301828280156106145780601f106105e957610100808354040283529160200191610614565b6000610e39611ccd565b15610e565760405162461bcd60e51b815260040161066390613749565b610e5e611cee565b15610e7b5760405162461bcd60e51b815260040161066390613749565b600082118015610e925750610e8e61121a565b8211155b610eae5760405162461bcd60e51b815260040161066390612e6b565b601954601a546018543392850291610ed5916001600160a01b039081169185911684611fd3565b610edf600e61202b565b6000610eeb600e612034565b600081815260106020908152604080832042908190556011909252909120559050610f168382612038565b6000818152600f602052604090208590556060610f32866109c6565b90506000815111610f555760405162461bcd60e51b8152600401610663906131a9565b610f5f8282611d34565b50436000908152600d602090815260408083203284529091528082208054600160ff1991821681179092553384529190922080549091169091179055949350505050565b610fab611c5b565b6001600160a01b0316826001600160a01b03161415610fdc5760405162461bcd60e51b81526004016106639061303b565b8060056000610fe9611c5b565b6001600160a01b03908116825260208083019390935260409182016000908120918716808252919093529120805460ff19169215159290921790915561102d611c5b565b6001600160a01b03167f17307eab39ab6107e8899845ad3d59bd9653f200f220920489ca2b5937696c31836040516110659190612e0b565b60405180910390a35050565b6018546001600160a01b031681565b61109161108b611c5b565b83611d83565b6110ad5760405162461bcd60e51b815260040161066390613677565b6110b9848484846120fc565b50505050565b600c6020526000908152604090205460ff1681565b60606110df82611c4e565b6110fb5760405162461bcd60e51b815260040161066390613503565b60008281526008602090815260409182902080548351601f60026000196101006001861615020190931692909204918201849004840281018401909452808452606093928301828280156111905780601f1061116557610100808354040283529160200191611190565b820191906000526020600020905b81548152906001019060200180831161117357829003601f168201915b5050505050905060606111a1610c8c565b90508051600014156111b557509050610583565b8151156111e75780826040516020016111cf929190612d4e565b60405160208183030381529060405292505050610583565b806111f18561212f565b604051602001611202929190612d4e565b60405160208183030381529060405292505050919050565b601654600090819080825b8115611279576001820390506016818154811061123e57fe5b9060005260206000200154421061126e576017818154811061125c57fe5b90600052602060002001549350611279565b600182039150611225565b50919250505090565b61128a611c5b565b6001600160a01b031661129b610dbf565b6001600160a01b0316146112c15760405162461bcd60e51b815260040161066390613485565b6001600160a01b03166000908152600c60205260409020805460ff19166001179055565b60006112ef611ccd565b1561130c5760405162461bcd60e51b815260040161066390613749565b611314611cee565b156113315760405162461bcd60e51b815260040161066390613749565b3361133b84610c64565b6001600160a01b0316148061135f5750336000908152600c602052604090205460ff165b8061137957503361136e610dbf565b6001600160a01b0316145b80611393575033611388610baf565b6001600160a01b0316145b6113af5760405162461bcd60e51b815260040161066390612eae565b336113b983610c64565b6001600160a01b031614806113dd5750336000908152600c602052604090205460ff165b806113f75750336113ec610dbf565b6001600160a01b0316145b80611411575033611406610baf565b6001600160a01b0316145b61142d5760405162461bcd60e51b815260040161066390613596565b61143682610c64565b6001600160a01b031661144884610c64565b6001600160a01b03161461146e5760405162461bcd60e51b8152600401610663906137bf565b6000828152600f6020526040808220548583529082205461148e91611d0f565b90506000811180156114a757506114a361121a565b8111155b6114c35760405162461bcd60e51b815260040161066390612e6b565b60006114ce85610c64565b90506114d98561220a565b6114e28461220a565b6114ec600e61202b565b60006114f8600e612034565b6000818152601060209081526040808320429081905560119092529091205590506115238282612038565b6000818152600f60205260409020839055606061153f846109c6565b905060008151116115625760405162461bcd60e51b8152600401610663906131a9565b61156c8282611d34565b50436000908152600d602090815260408083203284529091528082208054600160ff199182168117909255338452919092208054909116909117905595945050505050565b60106020526000908152604090205481565b6115cb611ccd565b156115e85760405162461bcd60e51b815260040161066390613749565b6115f0611cee565b1561160d5760405162461bcd60e51b815260040161066390613749565b3361161782610c64565b6001600160a01b0316148061163b5750336000908152600c602052604090205460ff165b8061165557503361164a610dbf565b6001600160a01b0316145b8061166f575033611664610baf565b6001600160a01b0316145b61168b5760405162461bcd60e51b815260040161066390613172565b600061169682610c64565b6001600160a01b03811660009081526012602052604090205490915042116116d05760405162461bcd60e51b81526004016106639061327f565b601c54604051635a46d3b560e01b81526000916001600160a01b031690635a46d3b590611701908590600401612d7d565b60206040518083038186803b15801561171957600080fd5b505afa15801561172d573d6000803e3d6000fd5b505050506040513d601f19601f820116820180604052508101906117519190612ccd565b905080611784576001600160a01b0390911660009081526012602090815260408083204290556013909152902055611ad9565b601c5460405163010158bb60e51b81526000916001600160a01b03169063202b1760906117b5908690600401612d7d565b60206040518083038186803b1580156117cd57600080fd5b505afa1580156117e1573d6000803e3d6000fd5b505050506040513d601f19601f820116820180604052508101906118059190612ccd565b90508082116118265760405162461bcd60e51b81526004016106639061361a565b61183082826122d7565b6001600160a01b038416600090815260136020526040902054909250821161197057601c5460405163579587b360e11b81526001600160a01b039091169063af2b0f6690611885908690600090600401612df2565b600060405180830381600087803b15801561189f57600080fd5b505af11580156118b3573d6000803e3d6000fd5b5050506001600160a01b0380851660009081526012602052604090819020429055601c549051635a46d3b560e01b815291169150635a46d3b5906118fb908690600401612d7d565b60206040518083038186803b15801561191357600080fd5b505afa158015611927573d6000803e3d6000fd5b505050506040513d601f19601f8201168201806040525081019061194b9190612ccd565b6001600160a01b0390931660009081526013602052604090209290925550611ad99050565b6001600160a01b0383166000908152601360205260409020546119949083906122d7565b6000858152600f6020526040812054919350906119bf906064906119b99086906122ff565b90612339565b601c5460405163579587b360e11b81529192506001600160a01b03169063af2b0f66906119f29087908590600401612df2565b600060405180830381600087803b158015611a0c57600080fd5b505af1158015611a20573d6000803e3d6000fd5b5050506001600160a01b0380861660009081526012602052604090819020429055601c549051635a46d3b560e01b815291169150635a46d3b590611a68908790600401612d7d565b60206040518083038186803b158015611a8057600080fd5b505afa158015611a94573d6000803e3d6000fd5b505050506040513d601f19601f82011682018060405250810190611ab89190612ccd565b6001600160a01b039094166000908152601360205260409020939093555050505b50436000908152600d602090815260408083203284529091528082208054600160ff1991821681179092553384529190922080549091169091179055565b60126020526000908152604090205481565b600f6020526000908152604090205481565b6001600160a01b03918216600090815260056020908152604080832093909416825291909152205460ff1690565b60136020526000908152604090205481565b611b83611c5b565b6001600160a01b0316611b94610dbf565b6001600160a01b031614611bba5760405162461bcd60e51b815260040161066390613485565b6001600160a01b038116611be05760405162461bcd60e51b815260040161066390612f43565b600a546040516001600160a01b038084169216907f8be0079c531659141344cd1fd0a4f28419497f9722a3daafe3b4186f6b6457e090600090a3600a80546001600160a01b0319166001600160a01b0392909216919091179055565b60116020526000908152604090205481565b60006109c060028361236b565b3390565b600081815260046020526040902080546001600160a01b0319166001600160a01b0384169081179091558190611c9482610c64565b6001600160a01b03167f8c5be1e5ebec7d5bd14f71427d1e84f3dd0314c0f7b2291e5b200ac8c7c3b92560405160405180910390a45050565b436000908152600d6020908152604080832032845290915290205460ff1690565b436000908152600d6020908152604080832033845290915290205460ff1690565b6000828201838110156109bd5760405162461bcd60e51b815260040161066390612fc0565b611d3d82611c4e565b611d595760405162461bcd60e51b815260040161066390613439565b6000828152600860209081526040909120825161071b928401906129c1565b60006109c082612034565b6000611d8e82611c4e565b611daa5760405162461bcd60e51b8152600401610663906130ef565b6000611db583610c64565b9050806001600160a01b0316846001600160a01b03161480611df05750836001600160a01b0316611de58461063c565b6001600160a01b0316145b80611e005750611e008185611b3b565b949350505050565b826001600160a01b0316611e1b82610c64565b6001600160a01b031614611e415760405162461bcd60e51b8152600401610663906134ba565b6001600160a01b038216611e675760405162461bcd60e51b815260040161066390612ff7565b611e7283838361071b565b611e7d600082611c5f565b6001600160a01b0383166000908152600160205260409020611e9f9082612377565b506001600160a01b0382166000908152600160205260409020611ec29082612383565b50611ecf6002828461238f565b5080826001600160a01b0316846001600160a01b03167fddf252ad1be2c89b69c2b068fc378daa952ba7f163c4a11628f55a4df523b3ef60405160405180910390a4505050565b6001600160a01b038116611f3c5760405162461bcd60e51b8152600401610663906132a5565b6040516001600160a01b038216906000907f74da04524d50c64947f5dd5381ef1a4dca5cba8ed1d816243f9e48aa0b5617ed908290a3600b80546001600160a01b0319166001600160a01b0392909216919091179055565b60006109bd83836123a5565b6000808080611faf86866123ea565b9097909650945050505050565b6000611fc9848484612446565b90505b9392505050565b6110b9846323b872dd60e01b858585604051602401611ff493929190612dce565b60408051601f198184030181529190526020810180516001600160e01b03166001600160e01b0319909316929092179091526124a5565b80546001019055565b5490565b6001600160a01b03821661205e5760405162461bcd60e51b815260040161066390613377565b61206781611c4e565b156120845760405162461bcd60e51b815260040161066390612f89565b6120906000838361071b565b6001600160a01b03821660009081526001602052604090206120b29082612383565b506120bf6002828461238f565b5060405181906001600160a01b038416906000907fddf252ad1be2c89b69c2b068fc378daa952ba7f163c4a11628f55a4df523b3ef908290a45050565b612107848484611e08565b61211384848484612534565b6110b95760405162461bcd60e51b815260040161066390612ef1565b60608161215457506040805180820190915260018152600360fc1b6020820152610583565b8160005b811561216c57600101600a82049150612158565b60608167ffffffffffffffff8111801561218557600080fd5b506040519080825280601f01601f1916602001820160405280156121b0576020820181803683370190505b50859350905060001982015b831561220157600a840660300160f81b828280600190039350815181106121df57fe5b60200101906001600160f81b031916908160001a905350600a840493506121bc565b50949350505050565b600061221582610c64565b90506122238160008461071b565b61222e600083611c5f565b600082815260086020526040902054600260001961010060018416150201909116041561226c57600082815260086020526040812061226c91612a3f565b6001600160a01b038116600090815260016020526040902061228e9083612377565b5061229a600283612613565b5060405182906000906001600160a01b038416907fddf252ad1be2c89b69c2b068fc378daa952ba7f163c4a11628f55a4df523b3ef908390a45050565b6000828211156122f95760405162461bcd60e51b815260040161066390613072565b50900390565b60008261230e575060006109c0565b8282028284828161231b57fe5b04146109bd5760405162461bcd60e51b8152600401610663906133ac565b600080821161235a5760405162461bcd60e51b81526004016106639061313b565b81838161236357fe5b049392505050565b60006109bd838361261f565b60006109bd8383612637565b60006109bd83836126fd565b6000611fc984846001600160a01b038516612747565b815460009082106123c85760405162461bcd60e51b815260040161066390612e29565b8260000182815481106123d757fe5b9060005260206000200154905092915050565b81546000908190831061240f5760405162461bcd60e51b8152600401610663906132f2565b600084600001848154811061242057fe5b906000526020600020906002020190508060000154816001015492509250509250929050565b600082815260018401602052604081205482816124765760405162461bcd60e51b81526004016106639190612e16565b5084600001600182038154811061248957fe5b9060005260206000209060020201600101549150509392505050565b60606124fa826040518060400160405280602081526020017f5361666545524332303a206c6f772d6c6576656c2063616c6c206661696c6564815250856001600160a01b03166127de9092919063ffffffff16565b80519091501561071b57808060200190518101906125189190612c61565b61071b5760405162461bcd60e51b8152600401610663906136ff565b6000612548846001600160a01b03166127ed565b61255457506001611e00565b60606125dc630a85bd0160e11b612569611c5b565b88878760405160240161257f9493929190612d91565b604051602081830303815290604052906001600160e01b0319166020820180516001600160e01b038381831617835250505050604051806060016040528060328152602001613873603291396001600160a01b03881691906127de565b90506000818060200190518101906125f49190612c99565b6001600160e01b031916630a85bd0160e11b1492505050949350505050565b60006109bd83836127f3565b60009081526001919091016020526040902054151590565b600081815260018301602052604081205480156126f3578354600019808301919081019060009087908390811061266a57fe5b906000526020600020015490508087600001848154811061268757fe5b6000918252602080832090910192909255828152600189810190925260409020908401905586548790806126b757fe5b600190038181906000526020600020016000905590558660010160008781526020019081526020016000206000905560019450505050506109c0565b60009150506109c0565b6000612709838361261f565b61273f575081546001818101845560008481526020808220909301849055845484825282860190935260409020919091556109c0565b5060006109c0565b6000828152600184016020526040812054806127ac575050604080518082018252838152602080820184815286546001818101895560008981528481209551600290930290950191825591519082015586548684528188019092529290912055611fcc565b828560000160018303815481106127bf57fe5b9060005260206000209060020201600101819055506000915050611fcc565b6060611fc984846000856128c7565b3b151590565b600081815260018301602052604081205480156126f3578354600019808301919081019060009087908390811061282657fe5b906000526020600020906002020190508087600001848154811061284657fe5b60009182526020808320845460029093020191825560019384015491840191909155835482528983019052604090209084019055865487908061288557fe5b60008281526020808220600260001990940193840201828155600190810183905592909355888152898201909252604082209190915594506109c09350505050565b6060824710156128e95760405162461bcd60e51b8152600401610663906130a9565b6128f2856127ed565b61290e5760405162461bcd60e51b8152600401610663906136c8565b60006060866001600160a01b0316858760405161292b9190612d32565b60006040518083038185875af1925050503d8060008114612968576040519150601f19603f3d011682016040523d82523d6000602084013e61296d565b606091505b509150915061297d828286612988565b979650505050505050565b60608315612997575081611fcc565b8251156129a75782518084602001fd5b8160405162461bcd60e51b81526004016106639190612e16565b828054600181600116156101000203166002900490600052602060002090601f016020900481019282601f10612a0257805160ff1916838001178555612a2f565b82800160010185558215612a2f579182015b82811115612a2f578251825591602001919060010190612a14565b50612a3b929150612a7f565b5090565b50805460018160011615610100020316600290046000825580601f10612a65575061098b565b601f01602090049060005260206000209081019061098b91905b5b80821115612a3b5760008155600101612a80565b80356001600160a01b03811681146109c057600080fd5b600060208284031215612abc578081fd5b6109bd8383612a94565b60008060408385031215612ad8578081fd5b612ae28484612a94565b9150612af18460208501612a94565b90509250929050565b600080600060608486031215612b0e578081fd5b8335612b1981613839565b92506020840135612b2981613839565b929592945050506040919091013590565b60008060008060808587031215612b4f578081fd5b612b598686612a94565b93506020612b6987828801612a94565b935060408601359250606086013567ffffffffffffffff80821115612b8c578384fd5b818801915088601f830112612b9f578384fd5b813581811115612bad578485fd5b604051601f8201601f1916810185018381118282101715612bcc578687fd5b60405281815283820185018b1015612be2578586fd5b81858501868301379081019093019390935250939692955090935050565b60008060408385031215612c12578182fd5b612c1c8484612a94565b91506020830135612c2c8161384e565b809150509250929050565b60008060408385031215612c49578182fd5b612c538484612a94565b946020939093013593505050565b600060208284031215612c72578081fd5b81516109bd8161384e565b600060208284031215612c8e578081fd5b81356109bd8161385c565b600060208284031215612caa578081fd5b81516109bd8161385c565b600060208284031215612cc6578081fd5b5035919050565b600060208284031215612cde578081fd5b5051919050565b60008060408385031215612cf7578182fd5b50508035926020909101359150565b60008151808452612d1e81602086016020860161380d565b601f01601f19169290920160200192915050565b60008251612d4481846020870161380d565b9190910192915050565b60008351612d6081846020880161380d565b835190830190612d7481836020880161380d565b01949350505050565b6001600160a01b0391909116815260200190565b6001600160a01b0385811682528416602082015260408101839052608060608201819052600090612dc490830184612d06565b9695505050505050565b6001600160a01b039384168152919092166020820152604081019190915260600190565b6001600160a01b03929092168252602082015260400190565b901515815260200190565b6000602082526109bd6020830184612d06565b60208082526022908201527f456e756d657261626c655365743a20696e646578206f7574206f6620626f756e604082015261647360f01b606082015260800190565b60208082526023908201527f4c6576656c206d757374206265203e203020616e64203c3d206d6178206c657660408201526232b61760e91b606082015260800190565b60208082526023908201527f4e6f7420656e6f756768207065726d697373696f6e7320666f7220746f6b656e60408201526210189760e91b606082015260800190565b60208082526032908201527f4552433732313a207472616e7366657220746f206e6f6e20455243373231526560408201527131b2b4bb32b91034b6b83632b6b2b73a32b960711b606082015260800190565b60208082526026908201527f4f776e61626c653a206e6577206f776e657220697320746865207a65726f206160408201526564647265737360d01b606082015260800190565b6020808252601c908201527f4552433732313a20746f6b656e20616c7265616479206d696e74656400000000604082015260600190565b6020808252601b908201527f536166654d6174683a206164646974696f6e206f766572666c6f770000000000604082015260600190565b60208082526024908201527f4552433732313a207472616e7366657220746f20746865207a65726f206164646040820152637265737360e01b606082015260800190565b60208082526019908201527f4552433732313a20617070726f766520746f2063616c6c657200000000000000604082015260600190565b6020808252601e908201527f536166654d6174683a207375627472616374696f6e206f766572666c6f770000604082015260600190565b60208082526026908201527f416464726573733a20696e73756666696369656e742062616c616e636520666f6040820152651c8818d85b1b60d21b606082015260800190565b6020808252602c908201527f4552433732313a206f70657261746f7220717565727920666f72206e6f6e657860408201526b34b9ba32b73a103a37b5b2b760a11b606082015260800190565b6020808252601a908201527f536166654d6174683a206469766973696f6e206279207a65726f000000000000604082015260600190565b60208082526017908201527f4e6f7420656e6f756768207065726d697373696f6e732e000000000000000000604082015260600190565b6020808252601590820152742a37b5b2b7102aa9249034b99034b73b30b634b21760591b604082015260600190565b60208082526038908201527f4552433732313a20617070726f76652063616c6c6572206973206e6f74206f7760408201527f6e6572206e6f7220617070726f76656420666f7220616c6c0000000000000000606082015260800190565b6020808252602a908201527f4552433732313a2062616c616e636520717565727920666f7220746865207a65604082015269726f206164647265737360b01b606082015260800190565b6020808252600c908201526b2637b3b4b19032b93937b91760a11b604082015260600190565b6020808252602d908201527f6f70657261746f723a207a65726f206164647265737320676976656e20666f7260408201526c103732bb9037b832b930ba37b960991b606082015260800190565b60208082526022908201527f456e756d657261626c654d61703a20696e646578206f7574206f6620626f756e604082015261647360f01b606082015260800190565b60208082526023908201527f4c6576656c206d757374206265206c6f776572207468616e206d6178206c657660408201526232b61760e91b606082015260800190565b6020808252818101527f4552433732313a206d696e7420746f20746865207a65726f2061646472657373604082015260600190565b60208082526021908201527f536166654d6174683a206d756c7469706c69636174696f6e206f766572666c6f6040820152607760f81b606082015260800190565b6020808252602c908201527f4552433732313a20617070726f76656420717565727920666f72206e6f6e657860408201526b34b9ba32b73a103a37b5b2b760a11b606082015260800190565b6020808252602c908201527f4552433732314d657461646174613a2055524920736574206f66206e6f6e657860408201526b34b9ba32b73a103a37b5b2b760a11b606082015260800190565b6020808252818101527f4f776e61626c653a2063616c6c6572206973206e6f7420746865206f776e6572604082015260600190565b60208082526029908201527f4552433732313a207472616e73666572206f6620746f6b656e2074686174206960408201526839903737ba1037bbb760b91b606082015260800190565b6020808252602f908201527f4552433732314d657461646174613a2055524920717565727920666f72206e6f60408201526e3732bc34b9ba32b73a103a37b5b2b760891b606082015260800190565b60208082526024908201527f6f70657261746f723a2063616c6c6572206973206e6f7420746865206f70657260408201526330ba37b960e11b606082015260800190565b60208082526023908201527f4e6f7420656e6f756768207065726d697373696f6e7320666f7220746f6b656e60408201526210191760e91b606082015260800190565b60208082526021908201527f4552433732313a20617070726f76616c20746f2063757272656e74206f776e656040820152603960f91b606082015260800190565b60208082526039908201527f546f6f206d75636820746f20756e6c6f636b206e61747572616c6c792c20706c60408201527f656173652063616c6c20756e6c6f636b28292066697273742e00000000000000606082015260800190565b60208082526031908201527f4552433732313a207472616e736665722063616c6c6572206973206e6f74206f6040820152701ddb995c881b9bdc88185c1c1c9bdd9959607a1b606082015260800190565b6020808252601d908201527f416464726573733a2063616c6c20746f206e6f6e2d636f6e7472616374000000604082015260600190565b6020808252602a908201527f5361666545524332303a204552433230206f7065726174696f6e20646964206e6040820152691bdd081cdd58d8d9595960b21b606082015260800190565b60208082526026908201527f436f6e747261637447756172643a206f6e6520626c6f636b2c206f6e652066756040820152653731ba34b7b760d11b606082015260800190565b6020808252601690820152752a37b79032b0b9363c903a37903632bb32b6103ab81760511b604082015260600190565b60208082526025908201527f426f746820746f6b656e73206d7573742068617665207468652073616d65206f6040820152643bb732b91760d91b606082015260800190565b90815260200190565b60005b83811015613828578181015183820152602001613810565b838111156110b95750506000910152565b6001600160a01b038116811461098b57600080fd5b801515811461098b57600080fd5b6001600160e01b03198116811461098b57600080fdfe4552433732313a207472616e7366657220746f206e6f6e20455243373231526563656976657220696d706c656d656e7465724552433732313a206f776e657220717565727920666f72206e6f6e6578697374656e7420746f6b656ea26469706673582212208c55e2d0ef8319ab6110e80bf4cea09e86e044cd8de176ca9ca366def3a8311264736f6c634300060c0033",
  "linkReferences": {},
  "deployedLinkReferences": {}
}