{
  "_format": "hh-sol-artifact-1",
  "contractName": "GameGenesisRewardPool",
  "sourceName": "contracts/distribution/GameGenesisRewardPool.sol",
  "abi": [
    {
      "inputs": [
        {
          "internalType": "address",
          "name": "_game",
          "type": "address"
        },
        {
          "internalType": "contract ITreasury",
          "name": "_treasury",
          "type": "address"
        },
        {
          "internalType": "uint256",
          "name": "_poolStartTime",
          "type": "uint256"
        }
      ],
      "stateMutability": "nonpayable",
      "type": "constructor"
    },
    {
      "anonymous": false,
      "inputs": [
        {
          "indexed": true,
          "internalType": "address",
          "name": "user",
          "type": "address"
        },
        {
          "indexed": true,
          "internalType": "uint256",
          "name": "pid",
          "type": "uint256"
        },
        {
          "indexed": false,
          "internalType": "uint256",
          "name": "amount",
          "type": "uint256"
        }
      ],
      "name": "Deposit",
      "type": "event"
    },
    {
      "anonymous": false,
      "inputs": [
        {
          "indexed": true,
          "internalType": "address",
          "name": "user",
          "type": "address"
        },
        {
          "indexed": true,
          "internalType": "uint256",
          "name": "pid",
          "type": "uint256"
        },
        {
          "indexed": false,
          "internalType": "uint256",
          "name": "amount",
          "type": "uint256"
        }
      ],
      "name": "EmergencyWithdraw",
      "type": "event"
    },
    {
      "anonymous": false,
      "inputs": [
        {
          "indexed": true,
          "internalType": "address",
          "name": "previousOperator",
          "type": "address"
        },
        {
          "indexed": true,
          "internalType": "address",
          "name": "newOperator",
          "type": "address"
        }
      ],
      "name": "OperatorTransferred",
      "type": "event"
    },
    {
      "anonymous": false,
      "inputs": [
        {
          "indexed": true,
          "internalType": "address",
          "name": "previousOwner",
          "type": "address"
        },
        {
          "indexed": true,
          "internalType": "address",
          "name": "newOwner",
          "type": "address"
        }
      ],
      "name": "OwnershipTransferred",
      "type": "event"
    },
    {
      "anonymous": false,
      "inputs": [
        {
          "indexed": true,
          "internalType": "address",
          "name": "user",
          "type": "address"
        },
        {
          "indexed": false,
          "internalType": "uint256",
          "name": "amount",
          "type": "uint256"
        }
      ],
      "name": "RewardPaid",
      "type": "event"
    },
    {
      "anonymous": false,
      "inputs": [
        {
          "indexed": true,
          "internalType": "address",
          "name": "user",
          "type": "address"
        },
        {
          "indexed": true,
          "internalType": "uint256",
          "name": "pid",
          "type": "uint256"
        },
        {
          "indexed": false,
          "internalType": "uint256",
          "name": "amount",
          "type": "uint256"
        }
      ],
      "name": "Withdraw",
      "type": "event"
    },
    {
      "inputs": [
        {
          "internalType": "uint256",
          "name": "_allocPoint",
          "type": "uint256"
        },
        {
          "internalType": "contract IERC20",
          "name": "_token",
          "type": "address"
        },
        {
          "internalType": "bool",
          "name": "_withUpdate",
          "type": "bool"
        },
        {
          "internalType": "uint256",
          "name": "_lastRewardTime",
          "type": "uint256"
        }
      ],
      "name": "add",
      "outputs": [],
      "stateMutability": "nonpayable",
      "type": "function"
    },
    {
      "inputs": [
        {
          "internalType": "address",
          "name": "_toAdd",
          "type": "address"
        }
      ],
      "name": "addAuthorized",
      "outputs": [],
      "stateMutability": "nonpayable",
      "type": "function"
    },
    {
      "inputs": [
        {
          "internalType": "address",
          "name": "",
          "type": "address"
        }
      ],
      "name": "authorized",
      "outputs": [
        {
          "internalType": "bool",
          "name": "",
          "type": "bool"
        }
      ],
      "stateMutability": "view",
      "type": "function"
    },
    {
      "inputs": [
        {
          "internalType": "uint256",
          "name": "_pid",
          "type": "uint256"
        },
        {
          "internalType": "uint256",
          "name": "_amount",
          "type": "uint256"
        }
      ],
      "name": "deposit",
      "outputs": [],
      "stateMutability": "nonpayable",
      "type": "function"
    },
    {
      "inputs": [],
      "name": "depositFee",
      "outputs": [
        {
          "internalType": "uint256",
          "name": "",
          "type": "uint256"
        }
      ],
      "stateMutability": "view",
      "type": "function"
    },
    {
      "inputs": [
        {
          "internalType": "uint256",
          "name": "_pid",
          "type": "uint256"
        }
      ],
      "name": "emergencyWithdraw",
      "outputs": [],
      "stateMutability": "nonpayable",
      "type": "function"
    },
    {
      "inputs": [],
      "name": "forceMassUpdatePools",
      "outputs": [],
      "stateMutability": "nonpayable",
      "type": "function"
    },
    {
      "inputs": [
        {
          "internalType": "uint256",
          "name": "_pid",
          "type": "uint256"
        }
      ],
      "name": "forceUpdatePool",
      "outputs": [],
      "stateMutability": "nonpayable",
      "type": "function"
    },
    {
      "inputs": [],
      "name": "game",
      "outputs": [
        {
          "internalType": "contract IERC20",
          "name": "",
          "type": "address"
        }
      ],
      "stateMutability": "view",
      "type": "function"
    },
    {
      "inputs": [],
      "name": "gamePerSecond",
      "outputs": [
        {
          "internalType": "uint256",
          "name": "",
          "type": "uint256"
        }
      ],
      "stateMutability": "view",
      "type": "function"
    },
    {
      "inputs": [
        {
          "internalType": "uint256",
          "name": "_pid",
          "type": "uint256"
        }
      ],
      "name": "getGamePerSecondInPool",
      "outputs": [
        {
          "internalType": "uint256",
          "name": "",
          "type": "uint256"
        }
      ],
      "stateMutability": "view",
      "type": "function"
    },
    {
      "inputs": [
        {
          "internalType": "uint256",
          "name": "_fromTime",
          "type": "uint256"
        },
        {
          "internalType": "uint256",
          "name": "_toTime",
          "type": "uint256"
        }
      ],
      "name": "getGeneratedReward",
      "outputs": [
        {
          "internalType": "uint256",
          "name": "",
          "type": "uint256"
        }
      ],
      "stateMutability": "view",
      "type": "function"
    },
    {
      "inputs": [],
      "name": "getRequiredAllocation",
      "outputs": [
        {
          "internalType": "uint256",
          "name": "",
          "type": "uint256"
        }
      ],
      "stateMutability": "view",
      "type": "function"
    },
    {
      "inputs": [
        {
          "internalType": "contract IERC20",
          "name": "_token",
          "type": "address"
        },
        {
          "internalType": "uint256",
          "name": "amount",
          "type": "uint256"
        },
        {
          "internalType": "address",
          "name": "to",
          "type": "address"
        }
      ],
      "name": "governanceRecoverUnsupported",
      "outputs": [],
      "stateMutability": "nonpayable",
      "type": "function"
    },
    {
      "inputs": [],
      "name": "isOperator",
      "outputs": [
        {
          "internalType": "bool",
          "name": "",
          "type": "bool"
        }
      ],
      "stateMutability": "view",
      "type": "function"
    },
    {
      "inputs": [],
      "name": "operator",
      "outputs": [
        {
          "internalType": "address",
          "name": "",
          "type": "address"
        }
      ],
      "stateMutability": "view",
      "type": "function"
    },
    {
      "inputs": [],
      "name": "owner",
      "outputs": [
        {
          "internalType": "address",
          "name": "",
          "type": "address"
        }
      ],
      "stateMutability": "view",
      "type": "function"
    },
    {
      "inputs": [
        {
          "internalType": "uint256",
          "name": "_pid",
          "type": "uint256"
        },
        {
          "internalType": "address",
          "name": "_user",
          "type": "address"
        }
      ],
      "name": "pendingGAME",
      "outputs": [
        {
          "internalType": "uint256",
          "name": "",
          "type": "uint256"
        }
      ],
      "stateMutability": "view",
      "type": "function"
    },
    {
      "inputs": [],
      "name": "poolEndTime",
      "outputs": [
        {
          "internalType": "uint256",
          "name": "",
          "type": "uint256"
        }
      ],
      "stateMutability": "view",
      "type": "function"
    },
    {
      "inputs": [
        {
          "internalType": "uint256",
          "name": "",
          "type": "uint256"
        }
      ],
      "name": "poolInfo",
      "outputs": [
        {
          "internalType": "contract IERC20",
          "name": "token",
          "type": "address"
        },
        {
          "internalType": "uint256",
          "name": "allocPoint",
          "type": "uint256"
        },
        {
          "internalType": "uint256",
          "name": "lastRewardTime",
          "type": "uint256"
        },
        {
          "internalType": "uint256",
          "name": "accGamePerShare",
          "type": "uint256"
        },
        {
          "internalType": "bool",
          "name": "isStarted",
          "type": "bool"
        }
      ],
      "stateMutability": "view",
      "type": "function"
    },
    {
      "inputs": [],
      "name": "poolStartTime",
      "outputs": [
        {
          "internalType": "uint256",
          "name": "",
          "type": "uint256"
        }
      ],
      "stateMutability": "view",
      "type": "function"
    },
    {
      "inputs": [
        {
          "internalType": "address",
          "name": "_toRemove",
          "type": "address"
        }
      ],
      "name": "removeAuthorized",
      "outputs": [],
      "stateMutability": "nonpayable",
      "type": "function"
    },
    {
      "inputs": [],
      "name": "renounceOwnership",
      "outputs": [],
      "stateMutability": "nonpayable",
      "type": "function"
    },
    {
      "inputs": [],
      "name": "runningTime",
      "outputs": [
        {
          "internalType": "uint256",
          "name": "",
          "type": "uint256"
        }
      ],
      "stateMutability": "view",
      "type": "function"
    },
    {
      "inputs": [
        {
          "internalType": "uint256",
          "name": "_pid",
          "type": "uint256"
        },
        {
          "internalType": "uint256",
          "name": "_allocPoint",
          "type": "uint256"
        }
      ],
      "name": "set",
      "outputs": [],
      "stateMutability": "nonpayable",
      "type": "function"
    },
    {
      "inputs": [
        {
          "internalType": "uint256",
          "name": "_depositFee",
          "type": "uint256"
        }
      ],
      "name": "setDepositFee",
      "outputs": [],
      "stateMutability": "nonpayable",
      "type": "function"
    },
    {
      "inputs": [
        {
          "internalType": "uint256",
          "name": "_time",
          "type": "uint256"
        }
      ],
      "name": "setPoolEndTime",
      "outputs": [],
      "stateMutability": "nonpayable",
      "type": "function"
    },
    {
      "inputs": [
        {
          "internalType": "uint256",
          "name": "_time",
          "type": "uint256"
        }
      ],
      "name": "setPoolStartTime",
      "outputs": [],
      "stateMutability": "nonpayable",
      "type": "function"
    },
    {
      "inputs": [],
      "name": "totalAllocPoint",
      "outputs": [
        {
          "internalType": "uint256",
          "name": "",
          "type": "uint256"
        }
      ],
      "stateMutability": "view",
      "type": "function"
    },
    {
      "inputs": [
        {
          "internalType": "address",
          "name": "newOperator_",
          "type": "address"
        }
      ],
      "name": "transferOperator",
      "outputs": [],
      "stateMutability": "nonpayable",
      "type": "function"
    },
    {
      "inputs": [
        {
          "internalType": "address",
          "name": "newOwner",
          "type": "address"
        }
      ],
      "name": "transferOwnership",
      "outputs": [],
      "stateMutability": "nonpayable",
      "type": "function"
    },
    {
      "inputs": [],
      "name": "treasury",
      "outputs": [
        {
          "internalType": "contract ITreasury",
          "name": "",
          "type": "address"
        }
      ],
      "stateMutability": "view",
      "type": "function"
    },
    {
      "inputs": [
        {
          "internalType": "uint256",
          "name": "",
          "type": "uint256"
        },
        {
          "internalType": "address",
          "name": "",
          "type": "address"
        }
      ],
      "name": "userInfo",
      "outputs": [
        {
          "internalType": "uint256",
          "name": "amount",
          "type": "uint256"
        },
        {
          "internalType": "uint256",
          "name": "rewardDebt",
          "type": "uint256"
        }
      ],
      "stateMutability": "view",
      "type": "function"
    },
    {
      "inputs": [
        {
          "internalType": "uint256",
          "name": "_pid",
          "type": "uint256"
        },
        {
          "internalType": "uint256",
          "name": "_amount",
          "type": "uint256"
        }
      ],
      "name": "withdraw",
      "outputs": [],
      "stateMutability": "nonpayable",
      "type": "function"
    }
  ],
  "bytecode": "0x60806040526000600855670156a8c394962000600b556203f480600c556064600d553480156200002e57600080fd5b506040516200275338038062002753833981810160405260608110156200005457600080fd5b5080516020820151604090920151909190600062000071620001af565b600080546001600160a01b0319166001600160a01b0383169081178255604051929350917f8be0079c531659141344cd1fd0a4f28419497f9722a3daafe3b4186f6b6457e0908290a350620000c5620001af565b600180546001600160a01b0319166001600160a01b0392831617908190556040519116906000907f74da04524d50c64947f5dd5381ef1a4dca5cba8ed1d816243f9e48aa0b5617ed908290a38042106200014f576040805162461bcd60e51b815260206004808301919091526024820152636c61746560e01b604482015290519081900360640190fd5b6001600160a01b038316156200017b57600580546001600160a01b0319166001600160a01b0385161790555b600480546001600160a01b0319166001600160a01b0393909316929092179091556009819055600c5401600a5550620001b3565b3390565b61259080620001c36000396000f3fe608060405234801561001057600080fd5b50600436106102055760003560e01c806361d027b31161011a578063943f013d116100ad578063b91816111161007c578063b91816111461054e578063c3fe3e2814610574578063cf1c316a1461057c578063e2bbb158146105a2578063f2fde38b146105c557610205565b8063943f013d146104d857806396805e54146104e0578063ac60574e1461051a578063af7c6e191461052257610205565b806375d323fe116100e957806375d323fe1461045157806382acd7881461046e5780638da5cb5b1461048b57806393f1a40b1461049357610205565b806361d027b31461043157806367a52793146104395780636e271dd514610441578063715018a61461044957610205565b80633cf6259d1161019d578063490ae2101161016c578063490ae210146103955780635312ea8e146103b257806354575af4146103cf578063570ca735146104055780635f96dc111461042957610205565b80633cf6259d14610313578063441a3e70146103305780634456eda214610353578063485d7d941461036f57610205565b806317caf6f1116101d957806317caf6f11461029f5780631ab06ee5146102a7578063231f0c6a146102ca57806329605e77146102ed57610205565b8062269cb61461020a57806311615e46146102145780631526fe271461022e57806315f74a4d14610282575b600080fd5b6102126105eb565b005b61021c610688565b60408051918252519081900360200190f35b61024b6004803603602081101561024457600080fd5b503561068e565b604080516001600160a01b039096168652602086019490945284840192909252606084015215156080830152519081900360a00190f35b6102126004803603602081101561029857600080fd5b50356106d9565b61021c610815565b610212600480360360408110156102bd57600080fd5b508035906020013561081b565b61021c600480360360408110156102e057600080fd5b50803590602001356108c9565b6102126004803603602081101561030357600080fd5b50356001600160a01b031661098e565b6102126004803603602081101561032957600080fd5b50356109e3565b6102126004803603604081101561034657600080fd5b5080359060200135610a7f565b61035b610cff565b604080519115158252519081900360200190f35b6102126004803603602081101561038557600080fd5b50356001600160a01b0316610d25565b610212600480360360208110156103ab57600080fd5b5035610dbe565b610212600480360360208110156103c857600080fd5b5035610e62565b610212600480360360608110156103e557600080fd5b506001600160a01b03813581169160208101359160409091013516610fc1565b61040d611109565b604080516001600160a01b039092168252519081900360200190f35b61021c611118565b61040d61111e565b61021c61112d565b61021c611133565b610212611139565b6102126004803603602081101561046757600080fd5b50356111e5565b61021c6004803603602081101561048457600080fd5b5035611375565b61040d6113be565b6104bf600480360360408110156104a957600080fd5b50803590602001356001600160a01b03166113cd565b6040805192835260208301919091528051918290030190f35b61021c6113f1565b610212600480360360808110156104f657600080fd5b508035906001600160a01b03602082013516906040810135151590606001356113f7565b61021c6115dd565b61021c6004803603604081101561053857600080fd5b50803590602001356001600160a01b03166115f4565b61035b6004803603602081101561056457600080fd5b50356001600160a01b0316611752565b61040d611767565b6102126004803603602081101561059257600080fd5b50356001600160a01b0316611776565b610212600480360360408110156105b857600080fd5b50803590602001356117fc565b610212600480360360208110156105db57600080fd5b50356001600160a01b0316611ae8565b3360009081526002602052604090205460ff168061061857503361060d6113be565b6001600160a01b0316145b80610632575033610627611109565b6001600160a01b0316145b61067e576040805162461bcd60e51b815260206004820152601860248201527718d85b1b195c881a5cc81b9bdd08185d5d1a1bdc9a5e995960421b604482015290519081900360640190fd5b610686611bea565b565b600b5481565b6006818154811061069b57fe5b6000918252602090912060059091020180546001820154600283015460038401546004909401546001600160a01b0390931694509092909160ff1685565b3360009081526002602052604090205460ff16806107065750336106fb6113be565b6001600160a01b0316145b80610720575033610715611109565b6001600160a01b0316145b61076c576040805162461bcd60e51b815260206004820152601860248201527718d85b1b195c881a5cc81b9bdd08185d5d1a1bdc9a5e995960421b604482015290519081900360640190fd5b60095442106107b5576040805162461bcd60e51b815260206004820152601060248201526f20b63932b0b23c9039ba30b93a32b21760811b604482015290519081900360640190fd5b8060095410610806576040805162461bcd60e51b81526020600482015260186024820152772a34b6b29034b7383aba1034b9903a37b79032b0b9363c9760411b604482015290519081900360640190fd5b600a8190556009549003600c55565b60085481565b6001546001600160a01b031633146108645760405162461bcd60e51b81526004018080602001828103825260248152602001806124e76024913960400191505060405180910390fd5b61086c611bea565b60006006838154811061087b57fe5b60009182526020909120600590910201600481015490915060ff16156108c2576108be826108b88360010154600854611c0d90919063ffffffff16565b90611c6a565b6008555b6001015550565b60008183106108da57506000610988565b600a54821061094257600a5483106108f457506000610988565b600954831161092757610920600b5461091a600954600a54611c0d90919063ffffffff16565b90611ccb565b9050610988565b610920600b5461091a85600a54611c0d90919063ffffffff16565b600954821161095357506000610988565b600954831161097757610920600b5461091a60095485611c0d90919063ffffffff16565b600b546109209061091a8486611c0d565b92915050565b6001546001600160a01b031633146109d75760405162461bcd60e51b81526004018080602001828103825260248152602001806124e76024913960400191505060405180910390fd5b6109e081611d24565b50565b3360009081526002602052604090205460ff1680610a10575033610a056113be565b6001600160a01b0316145b80610a2a575033610a1f611109565b6001600160a01b0316145b610a76576040805162461bcd60e51b815260206004820152601860248201527718d85b1b195c881a5cc81b9bdd08185d5d1a1bdc9a5e995960421b604482015290519081900360640190fd5b6109e081611dc1565b610a87611f1e565b15610ac35760405162461bcd60e51b81526004018080602001828103825260268152602001806125356026913960400191505060405180910390fd5b610acb611f3f565b15610b075760405162461bcd60e51b81526004018080602001828103825260268152602001806125356026913960400191505060405180910390fd5b6000339050600060068481548110610b1b57fe5b600091825260208083208784526007825260408085206001600160a01b03881686529092529220805460059092029092019250841115610b97576040805162461bcd60e51b81526020600482015260126024820152711dda5d1a191c985dce881b9bdd0819dbdbd960721b604482015290519081900360640190fd5b610ba085611dc1565b6000610bdd8260010154610bd7670de0b6b3a7640000610bd187600301548760000154611ccb90919063ffffffff16565b90611f60565b90611c0d565b90508015610c2f57610bef8482611fc7565b6040805182815290516001600160a01b038616917fe2403640ba68fed3a2f88b7557551d1993f84b99bb10ff833f0cf8db0c5e0486919081900360200190a25b8415610c59578154610c419086611c0d565b82558254610c59906001600160a01b0316858761207d565b60038301548254610c7791670de0b6b3a764000091610bd191611ccb565b600183015560408051868152905187916001600160a01b038716917ff279e6a1f5e320cca91135676d9cb6e44ca8a08c0b88342bcdb1144f6511b5689181900360200190a350504360009081526003602090815260408083203284529091528082208054600160ff199182168117909255338452919092208054909116909117905550505050565b6001546000906001600160a01b0316610d166120cf565b6001600160a01b031614905090565b610d2d6120cf565b6001600160a01b0316610d3e6113be565b6001600160a01b031614610d87576040805162461bcd60e51b815260206004820181905260248201526000805160206124a2833981519152604482015290519081900360640190fd5b6001600160a01b038116331415610d9d57600080fd5b6001600160a01b03166000908152600260205260409020805460ff19169055565b6001546001600160a01b03163314610e075760405162461bcd60e51b81526004018080602001828103825260248152602001806124e76024913960400191505060405180910390fd5b6064811115610e5d576040805162461bcd60e51b815260206004820181905260248201527f4465706f73697420666565206d757374206265206c657373207468616e203125604482015290519081900360640190fd5b600d55565b610e6a611f1e565b15610ea65760405162461bcd60e51b81526004018080602001828103825260268152602001806125356026913960400191505060405180910390fd5b610eae611f3f565b15610eea5760405162461bcd60e51b81526004018080602001828103825260268152602001806125356026913960400191505060405180910390fd5b600060068281548110610ef957fe5b600091825260208083208584526007825260408085203380875293528420805485825560018201959095556005909302018054909450919291610f49916001600160a01b0391909116908361207d565b604080518281529051859133917fbb757047c2b5f3974fe26b7c10f732e7bce710b0952a71082702781e62ae05959181900360200190a350504360009081526003602090815260408083203284529091528082208054600160ff19918216811790925533845291909220805490911690911790555050565b6001546001600160a01b0316331461100a5760405162461bcd60e51b81526004018080602001828103825260248152602001806124e76024913960400191505060405180910390fd5b600a546276a700014210156110f0576005546001600160a01b0384811691161415611065576040805162461bcd60e51b8152602060048083019190915260248201526367616d6560e01b604482015290519081900360640190fd5b60065460005b818110156110ed5760006006828154811061108257fe5b6000918252602090912060059091020180549091506001600160a01b03878116911614156110e4576040805162461bcd60e51b815260206004820152600a6024820152693837b7b6173a37b5b2b760b11b604482015290519081900360640190fd5b5060010161106b565b50505b6111046001600160a01b038416828461207d565b505050565b6001546001600160a01b031690565b60095481565b6004546001600160a01b031681565b600d5481565b600a5481565b6111416120cf565b6001600160a01b03166111526113be565b6001600160a01b03161461119b576040805162461bcd60e51b815260206004820181905260248201526000805160206124a2833981519152604482015290519081900360640190fd5b600080546040516001600160a01b03909116907f8be0079c531659141344cd1fd0a4f28419497f9722a3daafe3b4186f6b6457e0908390a3600080546001600160a01b0319169055565b3360009081526002602052604090205460ff16806112125750336112076113be565b6001600160a01b0316145b8061122c575033611221611109565b6001600160a01b0316145b611278576040805162461bcd60e51b815260206004820152601860248201527718d85b1b195c881a5cc81b9bdd08185d5d1a1bdc9a5e995960421b604482015290519081900360640190fd5b60095442106112c1576040805162461bcd60e51b815260206004820152601060248201526f20b63932b0b23c9039ba30b93a32b21760811b604482015290519081900360640190fd5b804210611310576040805162461bcd60e51b81526020600482015260186024820152772a34b6b29034b7383aba1034b9903a37b79032b0b9363c9760411b604482015290519081900360640190fd5b6006546000805b8282101561136d5760006006838154811061132e57fe5b906000526020600020906005020190508060020154915060095482148061135457508482105b1561136157600281018590555b50600182019150611317565b505050600955565b6000806006838154811061138557fe5b9060005260206000209060050201905060006113b6600854610bd18460010154600b54611ccb90919063ffffffff16565b949350505050565b6000546001600160a01b031690565b60076020908152600092835260408084209091529082529020805460019091015482565b600c5481565b6001546001600160a01b031633146114405760405162461bcd60e51b81526004018080602001828103825260248152602001806124e76024913960400191505060405180910390fd5b611449836120d3565b811561145757611457611bea565b6009544210156114755760095481101561147057506009545b611480565b428110156114805750425b6000600954821115806114935750428211155b6040805160a0810182526001600160a01b03878116825260208201898152928201868152600060608401818152861580156080870190815260068054600181018255945295517ff652222313e28459528d920b65115c16c04f3efc82aaedc97be59f3f377c0d3f600590940293840180546001600160a01b031916919096161790945594517ff652222313e28459528d920b65115c16c04f3efc82aaedc97be59f3f377c0d4082015590517ff652222313e28459528d920b65115c16c04f3efc82aaedc97be59f3f377c0d4182015592517ff652222313e28459528d920b65115c16c04f3efc82aaedc97be59f3f377c0d4284015590517ff652222313e28459528d920b65115c16c04f3efc82aaedc97be59f3f377c0d43909201805460ff1916921515929092179091559091506115d6576008546115d29086611c6a565b6008555b5050505050565b6000806115ee600954600a546108c9565b91505090565b6000806006848154811061160457fe5b600091825260208083208784526007825260408085206001600160a01b0389811687529084528186206005959095029092016003810154815483516370a0823160e01b815230600482015293519298509596909590949316926370a082319260248082019391829003018186803b15801561167e57600080fd5b505afa158015611692573d6000803e3d6000fd5b505050506040513d60208110156116a857600080fd5b50516002850154909150421180156116bf57508015155b1561171c5760006116d48560020154426108c9565b905060006116f5600854610bd1886001015485611ccb90919063ffffffff16565b905061171761171084610bd184670de0b6b3a7640000611ccb565b8590611c6a565b935050505b6117478360010154610bd7670de0b6b3a7640000610bd1868860000154611ccb90919063ffffffff16565b979650505050505050565b60026020526000908152604090205460ff1681565b6005546001600160a01b031681565b61177e6120cf565b6001600160a01b031661178f6113be565b6001600160a01b0316146117d8576040805162461bcd60e51b815260206004820181905260248201526000805160206124a2833981519152604482015290519081900360640190fd5b6001600160a01b03166000908152600260205260409020805460ff19166001179055565b611804611f1e565b156118405760405162461bcd60e51b81526004018080602001828103825260268152602001806125356026913960400191505060405180910390fd5b611848611f3f565b156118845760405162461bcd60e51b81526004018080602001828103825260268152602001806125356026913960400191505060405180910390fd5b600033905060006006848154811061189857fe5b600091825260208083208784526007825260408085206001600160a01b03881686529092529220600590910290910191506118d285611dc1565b80541561195e57600061190a8260010154610bd7670de0b6b3a7640000610bd187600301548760000154611ccb90919063ffffffff16565b9050801561195c5761191c8482611fc7565b6040805182815290516001600160a01b038616917fe2403640ba68fed3a2f88b7557551d1993f84b99bb10ff833f0cf8db0c5e0486919081900360200190a25b505b8315611a43576000611981612710610bd1600d5488611ccb90919063ffffffff16565b9050600061198f8683611c0d565b90508115611a1b576004805460408051632364d3dd60e21b81529051611a1b9389936001600160a01b031692638d934f749281830192602092829003018186803b1580156119dc57600080fd5b505afa1580156119f0573d6000803e3d6000fd5b505050506040513d6020811015611a0657600080fd5b505186546001600160a01b0316919085612157565b8354611a32906001600160a01b0316863084612157565b8254611a3e9082611c6a565b835550505b60038201548154611a6191670de0b6b3a764000091610bd191611ccb565b600182015560408051858152905186916001600160a01b038616917f90890809c654f11d6e72a28fa60149770a0d11ec6c92319d6ceb2bb0a4ea1a159181900360200190a350504360009081526003602090815260408083203284529091528082208054600160ff1991821681179092553384529190922080549091169091179055505050565b611af06120cf565b6001600160a01b0316611b016113be565b6001600160a01b031614611b4a576040805162461bcd60e51b815260206004820181905260248201526000805160206124a2833981519152604482015290519081900360640190fd5b6001600160a01b038116611b8f5760405162461bcd60e51b815260040180806020018281038252602681526020018061242e6026913960400191505060405180910390fd5b600080546040516001600160a01b03808516939216917f8be0079c531659141344cd1fd0a4f28419497f9722a3daafe3b4186f6b6457e091a3600080546001600160a01b0319166001600160a01b0392909216919091179055565b60065460005b81811015611c0957611c0181611dc1565b600101611bf0565b5050565b600082821115611c64576040805162461bcd60e51b815260206004820152601e60248201527f536166654d6174683a207375627472616374696f6e206f766572666c6f770000604482015290519081900360640190fd5b50900390565b600082820183811015611cc4576040805162461bcd60e51b815260206004820152601b60248201527f536166654d6174683a206164646974696f6e206f766572666c6f770000000000604482015290519081900360640190fd5b9392505050565b600082611cda57506000610988565b82820282848281611ce757fe5b0414611cc45760405162461bcd60e51b81526004018080602001828103825260218152602001806124816021913960400191505060405180910390fd5b6001600160a01b038116611d695760405162461bcd60e51b815260040180806020018281038252602d815260200180612454602d913960400191505060405180910390fd5b6040516001600160a01b038216906000907f74da04524d50c64947f5dd5381ef1a4dca5cba8ed1d816243f9e48aa0b5617ed908290a3600180546001600160a01b0319166001600160a01b0392909216919091179055565b600060068281548110611dd057fe5b9060005260206000209060050201905080600201544211611df157506109e0565b8054604080516370a0823160e01b815230600482015290516000926001600160a01b0316916370a08231916024808301926020929190829003018186803b158015611e3b57600080fd5b505afa158015611e4f573d6000803e3d6000fd5b505050506040513d6020811015611e6557600080fd5b5051905080611e7b5750426002909101556109e0565b600482015460ff16611eac5760048201805460ff19166001908117909155820154600854611ea891611c6a565b6008555b60085415611f13576000611ec48360020154426108c9565b90506000611ee5600854610bd1866001015485611ccb90919063ffffffff16565b9050611f0b611f0084610bd184670de0b6b3a7640000611ccb565b600386015490611c6a565b600385015550505b504260029091015550565b43600090815260036020908152604080832032845290915290205460ff1690565b43600090815260036020908152604080832033845290915290205460ff1690565b6000808211611fb6576040805162461bcd60e51b815260206004820152601a60248201527f536166654d6174683a206469766973696f6e206279207a65726f000000000000604482015290519081900360640190fd5b818381611fbf57fe5b049392505050565b600554604080516370a0823160e01b815230600482015290516000926001600160a01b0316916370a08231916024808301926020929190829003018186803b15801561201257600080fd5b505afa158015612026573d6000803e3d6000fd5b505050506040513d602081101561203c57600080fd5b505190508015611104578082111561206a57600554612065906001600160a01b0316848361207d565b611104565b600554611104906001600160a01b031684845b604080516001600160a01b038416602482015260448082018490528251808303909101815260649091019091526020810180516001600160e01b031663a9059cbb60e01b1790526111049084906121b7565b3390565b60065460005b8181101561110457826001600160a01b0316600682815481106120f857fe5b60009182526020909120600590910201546001600160a01b0316141561214f5760405162461bcd60e51b81526004018080602001828103825260258152602001806124c26025913960400191505060405180910390fd5b6001016120d9565b604080516001600160a01b0380861660248301528416604482015260648082018490528251808303909101815260849091019091526020810180516001600160e01b03166323b872dd60e01b1790526121b19085906121b7565b50505050565b606061220c826040518060400160405280602081526020017f5361666545524332303a206c6f772d6c6576656c2063616c6c206661696c6564815250856001600160a01b03166122689092919063ffffffff16565b8051909150156111045780806020019051602081101561222b57600080fd5b50516111045760405162461bcd60e51b815260040180806020018281038252602a81526020018061250b602a913960400191505060405180910390fd5b60606113b684846000858561227c85612383565b6122cd576040805162461bcd60e51b815260206004820152601d60248201527f416464726573733a2063616c6c20746f206e6f6e2d636f6e7472616374000000604482015290519081900360640190fd5b60006060866001600160a01b031685876040518082805190602001908083835b6020831061230c5780518252601f1990920191602091820191016122ed565b6001836020036101000a03801982511681845116808217855250505050505090500191505060006040518083038185875af1925050503d806000811461236e576040519150601f19603f3d011682016040523d82523d6000602084013e612373565b606091505b5091509150611747828286612389565b3b151590565b60608315612398575081611cc4565b8251156123a85782518084602001fd5b8160405162461bcd60e51b81526004018080602001828103825283818151815260200191508051906020019080838360005b838110156123f25781810151838201526020016123da565b50505050905090810190601f16801561241f5780820380516001836020036101000a031916815260200191505b509250505060405180910390fdfe4f776e61626c653a206e6577206f776e657220697320746865207a65726f20616464726573736f70657261746f723a207a65726f206164647265737320676976656e20666f72206e6577206f70657261746f72536166654d6174683a206d756c7469706c69636174696f6e206f766572666c6f774f776e61626c653a2063616c6c6572206973206e6f7420746865206f776e657247616d6547656e65736973526577617264506f6f6c3a206578697374696e6720706f6f6c3f6f70657261746f723a2063616c6c6572206973206e6f7420746865206f70657261746f725361666545524332303a204552433230206f7065726174696f6e20646964206e6f742073756363656564436f6e747261637447756172643a206f6e6520626c6f636b2c206f6e652066756e6374696f6ea26469706673582212204cd36f300ab2a0d303659b48bf5addcfe395eb73c60eec4a25f5fa3c6bfbe5ea64736f6c634300060c0033",
  "linkReferences": {},
  "deployedLinkReferences": {}
}