{
  "_format": "hh-sol-artifact-1",
  "contractName": "TheoryUnlockerGen1",
  "sourceName": "contracts/nfts/TheoryUnlockerGen1.sol",
  "abi": [
    {
      "inputs": [
        {
          "internalType": "contract IERC20",
          "name": "_buy",
          "type": "address"
        },
        {
          "internalType": "uint256[2]",
          "name": "_prices",
          "type": "uint256[2]"
        },
        {
          "internalType": "contract IERC20Lockable[2]",
          "name": "_theoryAndGame",
          "type": "address[2]"
        },
        {
          "internalType": "address",
          "name": "_communityFund",
          "type": "address"
        },
        {
          "internalType": "contract ITheoryUnlocker",
          "name": "_gen0",
          "type": "address"
        },
        {
          "internalType": "contract IUniswapV2Router",
          "name": "_router",
          "type": "address"
        },
        {
          "internalType": "uint256[]",
          "name": "_maxLevelTime",
          "type": "uint256[]"
        },
        {
          "internalType": "uint256[]",
          "name": "_maxLevelLevel",
          "type": "uint256[]"
        },
        {
          "internalType": "uint256[]",
          "name": "_levelURIsLevel",
          "type": "uint256[]"
        },
        {
          "internalType": "string[]",
          "name": "_levelURIsURI",
          "type": "string[]"
        },
        {
          "internalType": "uint256[]",
          "name": "_levelURIsMax",
          "type": "uint256[]"
        }
      ],
      "stateMutability": "nonpayable",
      "type": "constructor"
    },
    {
      "anonymous": false,
      "inputs": [
        {
          "indexed": true,
          "internalType": "address",
          "name": "owner",
          "type": "address"
        },
        {
          "indexed": true,
          "internalType": "address",
          "name": "approved",
          "type": "address"
        },
        {
          "indexed": true,
          "internalType": "uint256",
          "name": "tokenId",
          "type": "uint256"
        }
      ],
      "name": "Approval",
      "type": "event"
    },
    {
      "anonymous": false,
      "inputs": [
        {
          "indexed": true,
          "internalType": "address",
          "name": "owner",
          "type": "address"
        },
        {
          "indexed": true,
          "internalType": "address",
          "name": "operator",
          "type": "address"
        },
        {
          "indexed": false,
          "internalType": "bool",
          "name": "approved",
          "type": "bool"
        }
      ],
      "name": "ApprovalForAll",
      "type": "event"
    },
    {
      "anonymous": false,
      "inputs": [
        {
          "indexed": true,
          "internalType": "address",
          "name": "previousOwner",
          "type": "address"
        },
        {
          "indexed": true,
          "internalType": "address",
          "name": "newOwner",
          "type": "address"
        }
      ],
      "name": "OwnershipTransferred",
      "type": "event"
    },
    {
      "anonymous": false,
      "inputs": [
        {
          "indexed": true,
          "internalType": "address",
          "name": "from",
          "type": "address"
        },
        {
          "indexed": true,
          "internalType": "address",
          "name": "to",
          "type": "address"
        },
        {
          "indexed": true,
          "internalType": "uint256",
          "name": "tokenId",
          "type": "uint256"
        }
      ],
      "name": "Transfer",
      "type": "event"
    },
    {
      "inputs": [
        {
          "internalType": "address",
          "name": "_toAdd",
          "type": "address"
        }
      ],
      "name": "addAuthorized",
      "outputs": [],
      "stateMutability": "nonpayable",
      "type": "function"
    },
    {
      "inputs": [
        {
          "internalType": "address",
          "name": "to",
          "type": "address"
        },
        {
          "internalType": "uint256",
          "name": "tokenId",
          "type": "uint256"
        }
      ],
      "name": "approve",
      "outputs": [],
      "stateMutability": "nonpayable",
      "type": "function"
    },
    {
      "inputs": [
        {
          "internalType": "address",
          "name": "",
          "type": "address"
        }
      ],
      "name": "authorized",
      "outputs": [
        {
          "internalType": "bool",
          "name": "",
          "type": "bool"
        }
      ],
      "stateMutability": "view",
      "type": "function"
    },
    {
      "inputs": [
        {
          "internalType": "address",
          "name": "owner",
          "type": "address"
        }
      ],
      "name": "balanceOf",
      "outputs": [
        {
          "internalType": "uint256",
          "name": "",
          "type": "uint256"
        }
      ],
      "stateMutability": "view",
      "type": "function"
    },
    {
      "inputs": [],
      "name": "baseURI",
      "outputs": [
        {
          "internalType": "string",
          "name": "",
          "type": "string"
        }
      ],
      "stateMutability": "view",
      "type": "function"
    },
    {
      "inputs": [],
      "name": "burnPercentage",
      "outputs": [
        {
          "internalType": "uint256",
          "name": "",
          "type": "uint256"
        }
      ],
      "stateMutability": "view",
      "type": "function"
    },
    {
      "inputs": [],
      "name": "buyToken",
      "outputs": [
        {
          "internalType": "contract IERC20",
          "name": "",
          "type": "address"
        }
      ],
      "stateMutability": "view",
      "type": "function"
    },
    {
      "inputs": [],
      "name": "buyTokenPerLevel",
      "outputs": [
        {
          "internalType": "uint256",
          "name": "",
          "type": "uint256"
        }
      ],
      "stateMutability": "view",
      "type": "function"
    },
    {
      "inputs": [
        {
          "internalType": "address",
          "name": "player",
          "type": "address"
        },
        {
          "internalType": "uint256",
          "name": "tokenId",
          "type": "uint256"
        }
      ],
      "name": "canUnlockAmount",
      "outputs": [
        {
          "internalType": "uint256",
          "name": "",
          "type": "uint256"
        }
      ],
      "stateMutability": "view",
      "type": "function"
    },
    {
      "inputs": [],
      "name": "communityFund",
      "outputs": [
        {
          "internalType": "address",
          "name": "",
          "type": "address"
        }
      ],
      "stateMutability": "view",
      "type": "function"
    },
    {
      "inputs": [
        {
          "internalType": "uint256",
          "name": "level",
          "type": "uint256"
        }
      ],
      "name": "costOf",
      "outputs": [
        {
          "internalType": "uint256",
          "name": "",
          "type": "uint256"
        }
      ],
      "stateMutability": "view",
      "type": "function"
    },
    {
      "inputs": [],
      "name": "disableMint",
      "outputs": [
        {
          "internalType": "bool",
          "name": "",
          "type": "bool"
        }
      ],
      "stateMutability": "view",
      "type": "function"
    },
    {
      "inputs": [],
      "name": "emergencyDisableUnlock",
      "outputs": [
        {
          "internalType": "bool",
          "name": "",
          "type": "bool"
        }
      ],
      "stateMutability": "view",
      "type": "function"
    },
    {
      "inputs": [],
      "name": "game",
      "outputs": [
        {
          "internalType": "contract IERC20Lockable",
          "name": "",
          "type": "address"
        }
      ],
      "stateMutability": "view",
      "type": "function"
    },
    {
      "inputs": [
        {
          "internalType": "uint256",
          "name": "tokenId",
          "type": "uint256"
        }
      ],
      "name": "getApproved",
      "outputs": [
        {
          "internalType": "address",
          "name": "",
          "type": "address"
        }
      ],
      "stateMutability": "view",
      "type": "function"
    },
    {
      "inputs": [],
      "name": "initialPrice",
      "outputs": [
        {
          "internalType": "uint256",
          "name": "",
          "type": "uint256"
        }
      ],
      "stateMutability": "view",
      "type": "function"
    },
    {
      "inputs": [
        {
          "internalType": "address",
          "name": "owner",
          "type": "address"
        },
        {
          "internalType": "address",
          "name": "operator",
          "type": "address"
        }
      ],
      "name": "isApprovedForAll",
      "outputs": [
        {
          "internalType": "bool",
          "name": "",
          "type": "bool"
        }
      ],
      "stateMutability": "view",
      "type": "function"
    },
    {
      "inputs": [
        {
          "internalType": "uint256",
          "name": "level",
          "type": "uint256"
        }
      ],
      "name": "levelURI",
      "outputs": [
        {
          "internalType": "string",
          "name": "",
          "type": "string"
        }
      ],
      "stateMutability": "view",
      "type": "function"
    },
    {
      "inputs": [
        {
          "internalType": "uint256",
          "name": "",
          "type": "uint256"
        }
      ],
      "name": "levelURIsLevel",
      "outputs": [
        {
          "internalType": "uint256",
          "name": "",
          "type": "uint256"
        }
      ],
      "stateMutability": "view",
      "type": "function"
    },
    {
      "inputs": [
        {
          "internalType": "uint256",
          "name": "",
          "type": "uint256"
        }
      ],
      "name": "levelURIsMax",
      "outputs": [
        {
          "internalType": "uint256",
          "name": "",
          "type": "uint256"
        }
      ],
      "stateMutability": "view",
      "type": "function"
    },
    {
      "inputs": [
        {
          "internalType": "uint256",
          "name": "",
          "type": "uint256"
        }
      ],
      "name": "levelURIsMinted",
      "outputs": [
        {
          "internalType": "uint256",
          "name": "",
          "type": "uint256"
        }
      ],
      "stateMutability": "view",
      "type": "function"
    },
    {
      "inputs": [
        {
          "internalType": "uint256",
          "name": "",
          "type": "uint256"
        }
      ],
      "name": "levelURIsSupply",
      "outputs": [
        {
          "internalType": "uint256",
          "name": "",
          "type": "uint256"
        }
      ],
      "stateMutability": "view",
      "type": "function"
    },
    {
      "inputs": [
        {
          "internalType": "uint256",
          "name": "",
          "type": "uint256"
        }
      ],
      "name": "levelURIsURI",
      "outputs": [
        {
          "internalType": "string",
          "name": "",
          "type": "string"
        }
      ],
      "stateMutability": "view",
      "type": "function"
    },
    {
      "inputs": [
        {
          "internalType": "uint256",
          "name": "tokenId",
          "type": "uint256"
        }
      ],
      "name": "levelUp",
      "outputs": [],
      "stateMutability": "nonpayable",
      "type": "function"
    },
    {
      "inputs": [
        {
          "internalType": "uint256",
          "name": "tokenId",
          "type": "uint256"
        },
        {
          "internalType": "uint256",
          "name": "theLevel",
          "type": "uint256"
        }
      ],
      "name": "levelUpTo",
      "outputs": [],
      "stateMutability": "nonpayable",
      "type": "function"
    },
    {
      "inputs": [
        {
          "internalType": "uint256",
          "name": "tokenId",
          "type": "uint256"
        }
      ],
      "name": "levelUpToMax",
      "outputs": [],
      "stateMutability": "nonpayable",
      "type": "function"
    },
    {
      "inputs": [],
      "name": "maxLevel",
      "outputs": [
        {
          "internalType": "uint256",
          "name": "",
          "type": "uint256"
        }
      ],
      "stateMutability": "view",
      "type": "function"
    },
    {
      "inputs": [
        {
          "internalType": "uint256",
          "name": "",
          "type": "uint256"
        }
      ],
      "name": "maxLevelLevel",
      "outputs": [
        {
          "internalType": "uint256",
          "name": "",
          "type": "uint256"
        }
      ],
      "stateMutability": "view",
      "type": "function"
    },
    {
      "inputs": [
        {
          "internalType": "uint256",
          "name": "",
          "type": "uint256"
        }
      ],
      "name": "maxLevelTime",
      "outputs": [
        {
          "internalType": "uint256",
          "name": "",
          "type": "uint256"
        }
      ],
      "stateMutability": "view",
      "type": "function"
    },
    {
      "inputs": [
        {
          "internalType": "uint256",
          "name": "level",
          "type": "uint256"
        }
      ],
      "name": "maxMinted",
      "outputs": [
        {
          "internalType": "uint256",
          "name": "",
          "type": "uint256"
        }
      ],
      "stateMutability": "view",
      "type": "function"
    },
    {
      "inputs": [
        {
          "internalType": "uint256",
          "name": "tokenId1",
          "type": "uint256"
        },
        {
          "internalType": "uint256",
          "name": "tokenId2",
          "type": "uint256"
        }
      ],
      "name": "merge",
      "outputs": [
        {
          "internalType": "uint256",
          "name": "",
          "type": "uint256"
        }
      ],
      "stateMutability": "nonpayable",
      "type": "function"
    },
    {
      "inputs": [
        {
          "internalType": "uint256",
          "name": "level",
          "type": "uint256"
        },
        {
          "internalType": "uint256",
          "name": "slippage",
          "type": "uint256"
        }
      ],
      "name": "mint",
      "outputs": [
        {
          "internalType": "uint256",
          "name": "",
          "type": "uint256"
        }
      ],
      "stateMutability": "nonpayable",
      "type": "function"
    },
    {
      "inputs": [
        {
          "internalType": "uint256",
          "name": "level",
          "type": "uint256"
        }
      ],
      "name": "minted",
      "outputs": [
        {
          "internalType": "uint256",
          "name": "",
          "type": "uint256"
        }
      ],
      "stateMutability": "view",
      "type": "function"
    },
    {
      "inputs": [],
      "name": "name",
      "outputs": [
        {
          "internalType": "string",
          "name": "",
          "type": "string"
        }
      ],
      "stateMutability": "view",
      "type": "function"
    },
    {
      "inputs": [
        {
          "internalType": "uint256",
          "name": "tokenId",
          "type": "uint256"
        }
      ],
      "name": "nextLevelTime",
      "outputs": [
        {
          "internalType": "uint256",
          "name": "",
          "type": "uint256"
        }
      ],
      "stateMutability": "view",
      "type": "function"
    },
    {
      "inputs": [
        {
          "internalType": "uint256",
          "name": "tokenId",
          "type": "uint256"
        }
      ],
      "name": "nftUnlock",
      "outputs": [],
      "stateMutability": "nonpayable",
      "type": "function"
    },
    {
      "inputs": [],
      "name": "owner",
      "outputs": [
        {
          "internalType": "address",
          "name": "",
          "type": "address"
        }
      ],
      "stateMutability": "view",
      "type": "function"
    },
    {
      "inputs": [
        {
          "internalType": "uint256",
          "name": "tokenId",
          "type": "uint256"
        }
      ],
      "name": "ownerOf",
      "outputs": [
        {
          "internalType": "address",
          "name": "",
          "type": "address"
        }
      ],
      "stateMutability": "view",
      "type": "function"
    },
    {
      "inputs": [
        {
          "internalType": "address",
          "name": "_toRemove",
          "type": "address"
        }
      ],
      "name": "removeAuthorized",
      "outputs": [],
      "stateMutability": "nonpayable",
      "type": "function"
    },
    {
      "inputs": [],
      "name": "renounceOwnership",
      "outputs": [],
      "stateMutability": "nonpayable",
      "type": "function"
    },
    {
      "inputs": [
        {
          "internalType": "address",
          "name": "from",
          "type": "address"
        },
        {
          "internalType": "address",
          "name": "to",
          "type": "address"
        },
        {
          "internalType": "uint256",
          "name": "tokenId",
          "type": "uint256"
        }
      ],
      "name": "safeTransferFrom",
      "outputs": [],
      "stateMutability": "nonpayable",
      "type": "function"
    },
    {
      "inputs": [
        {
          "internalType": "address",
          "name": "from",
          "type": "address"
        },
        {
          "internalType": "address",
          "name": "to",
          "type": "address"
        },
        {
          "internalType": "uint256",
          "name": "tokenId",
          "type": "uint256"
        },
        {
          "internalType": "bytes",
          "name": "_data",
          "type": "bytes"
        }
      ],
      "name": "safeTransferFrom",
      "outputs": [],
      "stateMutability": "nonpayable",
      "type": "function"
    },
    {
      "inputs": [
        {
          "internalType": "address",
          "name": "operator",
          "type": "address"
        },
        {
          "internalType": "bool",
          "name": "approved",
          "type": "bool"
        }
      ],
      "name": "setApprovalForAll",
      "outputs": [],
      "stateMutability": "nonpayable",
      "type": "function"
    },
    {
      "inputs": [
        {
          "internalType": "uint256",
          "name": "_burn",
          "type": "uint256"
        }
      ],
      "name": "setBurnPercentage",
      "outputs": [],
      "stateMutability": "nonpayable",
      "type": "function"
    },
    {
      "inputs": [
        {
          "internalType": "contract IERC20",
          "name": "_buy",
          "type": "address"
        }
      ],
      "name": "setBuyToken",
      "outputs": [],
      "stateMutability": "nonpayable",
      "type": "function"
    },
    {
      "inputs": [
        {
          "internalType": "address",
          "name": "_fund",
          "type": "address"
        }
      ],
      "name": "setCommunityFund",
      "outputs": [],
      "stateMutability": "nonpayable",
      "type": "function"
    },
    {
      "inputs": [
        {
          "internalType": "uint256",
          "name": "tokenId",
          "type": "uint256"
        },
        {
          "internalType": "uint256",
          "name": "time",
          "type": "uint256"
        }
      ],
      "name": "setCreationTime",
      "outputs": [],
      "stateMutability": "nonpayable",
      "type": "function"
    },
    {
      "inputs": [
        {
          "internalType": "bool",
          "name": "_disable",
          "type": "bool"
        }
      ],
      "name": "setDisableMint",
      "outputs": [],
      "stateMutability": "nonpayable",
      "type": "function"
    },
    {
      "inputs": [
        {
          "internalType": "bool",
          "name": "_disable",
          "type": "bool"
        }
      ],
      "name": "setEmergencyDisableUnlock",
      "outputs": [],
      "stateMutability": "nonpayable",
      "type": "function"
    },
    {
      "inputs": [
        {
          "internalType": "uint256",
          "name": "tokenId",
          "type": "uint256"
        },
        {
          "internalType": "uint256",
          "name": "time",
          "type": "uint256"
        }
      ],
      "name": "setLastLevelTime",
      "outputs": [],
      "stateMutability": "nonpayable",
      "type": "function"
    },
    {
      "inputs": [
        {
          "internalType": "address",
          "name": "user",
          "type": "address"
        },
        {
          "internalType": "uint256",
          "name": "amount",
          "type": "uint256"
        }
      ],
      "name": "setLastLockAmount",
      "outputs": [],
      "stateMutability": "nonpayable",
      "type": "function"
    },
    {
      "inputs": [
        {
          "internalType": "address",
          "name": "user",
          "type": "address"
        },
        {
          "internalType": "uint256",
          "name": "time",
          "type": "uint256"
        }
      ],
      "name": "setLastUnlockTime",
      "outputs": [],
      "stateMutability": "nonpayable",
      "type": "function"
    },
    {
      "inputs": [
        {
          "internalType": "uint256[]",
          "name": "_levelURIsLevel",
          "type": "uint256[]"
        },
        {
          "internalType": "string[]",
          "name": "_levelURIsURI",
          "type": "string[]"
        },
        {
          "internalType": "uint256[]",
          "name": "_levelURIsMax",
          "type": "uint256[]"
        },
        {
          "internalType": "uint256[]",
          "name": "_levelURIsSupply",
          "type": "uint256[]"
        },
        {
          "internalType": "uint256[]",
          "name": "_levelURIsMinted",
          "type": "uint256[]"
        }
      ],
      "name": "setLevelURIs",
      "outputs": [],
      "stateMutability": "nonpayable",
      "type": "function"
    },
    {
      "inputs": [
        {
          "internalType": "uint256[]",
          "name": "_maxLevelTime",
          "type": "uint256[]"
        },
        {
          "internalType": "uint256[]",
          "name": "_maxLevelLevel",
          "type": "uint256[]"
        }
      ],
      "name": "setMaxLevel",
      "outputs": [],
      "stateMutability": "nonpayable",
      "type": "function"
    },
    {
      "inputs": [
        {
          "internalType": "uint256",
          "name": "_initial",
          "type": "uint256"
        },
        {
          "internalType": "uint256",
          "name": "_perLevel",
          "type": "uint256"
        }
      ],
      "name": "setPrices",
      "outputs": [],
      "stateMutability": "nonpayable",
      "type": "function"
    },
    {
      "inputs": [
        {
          "internalType": "contract IUniswapV2Router",
          "name": "_router",
          "type": "address"
        }
      ],
      "name": "setRouter",
      "outputs": [],
      "stateMutability": "nonpayable",
      "type": "function"
    },
    {
      "inputs": [
        {
          "internalType": "uint256",
          "name": "_time",
          "type": "uint256"
        }
      ],
      "name": "setTimeToLevel",
      "outputs": [],
      "stateMutability": "nonpayable",
      "type": "function"
    },
    {
      "inputs": [
        {
          "internalType": "uint256",
          "name": "tokenId",
          "type": "uint256"
        },
        {
          "internalType": "uint256",
          "name": "level",
          "type": "uint256"
        }
      ],
      "name": "setTokenLevel",
      "outputs": [],
      "stateMutability": "nonpayable",
      "type": "function"
    },
    {
      "inputs": [
        {
          "internalType": "uint256",
          "name": "level",
          "type": "uint256"
        }
      ],
      "name": "supply",
      "outputs": [
        {
          "internalType": "uint256",
          "name": "",
          "type": "uint256"
        }
      ],
      "stateMutability": "view",
      "type": "function"
    },
    {
      "inputs": [
        {
          "internalType": "bytes4",
          "name": "interfaceId",
          "type": "bytes4"
        }
      ],
      "name": "supportsInterface",
      "outputs": [
        {
          "internalType": "bool",
          "name": "",
          "type": "bool"
        }
      ],
      "stateMutability": "view",
      "type": "function"
    },
    {
      "inputs": [],
      "name": "symbol",
      "outputs": [
        {
          "internalType": "string",
          "name": "",
          "type": "string"
        }
      ],
      "stateMutability": "view",
      "type": "function"
    },
    {
      "inputs": [],
      "name": "theory",
      "outputs": [
        {
          "internalType": "contract IERC20Lockable",
          "name": "",
          "type": "address"
        }
      ],
      "stateMutability": "view",
      "type": "function"
    },
    {
      "inputs": [
        {
          "internalType": "uint256",
          "name": "tokenId",
          "type": "uint256"
        }
      ],
      "name": "timeLeftToLevel",
      "outputs": [
        {
          "internalType": "uint256",
          "name": "",
          "type": "uint256"
        }
      ],
      "stateMutability": "view",
      "type": "function"
    },
    {
      "inputs": [],
      "name": "timeToLevel",
      "outputs": [
        {
          "internalType": "uint256",
          "name": "",
          "type": "uint256"
        }
      ],
      "stateMutability": "view",
      "type": "function"
    },
    {
      "inputs": [
        {
          "internalType": "uint256",
          "name": "index",
          "type": "uint256"
        }
      ],
      "name": "tokenByIndex",
      "outputs": [
        {
          "internalType": "uint256",
          "name": "",
          "type": "uint256"
        }
      ],
      "stateMutability": "view",
      "type": "function"
    },
    {
      "inputs": [
        {
          "internalType": "uint256",
          "name": "",
          "type": "uint256"
        }
      ],
      "name": "tokenInfo",
      "outputs": [
        {
          "internalType": "uint256",
          "name": "level",
          "type": "uint256"
        },
        {
          "internalType": "uint256",
          "name": "creationTime",
          "type": "uint256"
        },
        {
          "internalType": "uint256",
          "name": "lastLevelTime",
          "type": "uint256"
        },
        {
          "internalType": "bool",
          "name": "merged",
          "type": "bool"
        }
      ],
      "stateMutability": "view",
      "type": "function"
    },
    {
      "inputs": [
        {
          "internalType": "address",
          "name": "owner",
          "type": "address"
        },
        {
          "internalType": "uint256",
          "name": "index",
          "type": "uint256"
        }
      ],
      "name": "tokenOfOwnerByIndex",
      "outputs": [
        {
          "internalType": "uint256",
          "name": "",
          "type": "uint256"
        }
      ],
      "stateMutability": "view",
      "type": "function"
    },
    {
      "inputs": [
        {
          "internalType": "uint256",
          "name": "tokenId",
          "type": "uint256"
        }
      ],
      "name": "tokenURI",
      "outputs": [
        {
          "internalType": "string",
          "name": "",
          "type": "string"
        }
      ],
      "stateMutability": "view",
      "type": "function"
    },
    {
      "inputs": [],
      "name": "totalSupply",
      "outputs": [
        {
          "internalType": "uint256",
          "name": "",
          "type": "uint256"
        }
      ],
      "stateMutability": "view",
      "type": "function"
    },
    {
      "inputs": [
        {
          "internalType": "address",
          "name": "from",
          "type": "address"
        },
        {
          "internalType": "address",
          "name": "to",
          "type": "address"
        },
        {
          "internalType": "uint256",
          "name": "tokenId",
          "type": "uint256"
        }
      ],
      "name": "transferFrom",
      "outputs": [],
      "stateMutability": "nonpayable",
      "type": "function"
    },
    {
      "inputs": [
        {
          "internalType": "address",
          "name": "newOwner",
          "type": "address"
        }
      ],
      "name": "transferOwnership",
      "outputs": [],
      "stateMutability": "nonpayable",
      "type": "function"
    }
  ],
  "bytecode": "0x60806040523480156200001157600080fd5b506040516200650f3803806200650f833981016040819052620000349162000815565b604080518082018252601581527f5448454f525920556e6c6f636b65722047656e20310000000000000000000000602080830191909152825180840190935260048352635455473160e01b9083015290620000966301ffc9a760e01b6200042f565b8151620000ab90600690602085019062000485565b508051620000c190600790602084019062000485565b50620000d46380ac58cd60e01b6200042f565b620000e6635b5e139f60e01b6200042f565b620000f863780e9d6360e01b6200042f565b50600090506200010762000481565b600a80546001600160a01b0319166001600160a01b038316908117909155604051919250906000907f8be0079c531659141344cd1fd0a4f28419497f9722a3daafe3b4186f6b6457e0908290a350601680546001600160a01b0319166001600160a01b038d1617905560208a01518a511015620001a15760405162461bcd60e51b8152600401620001989062000aeb565b60405180910390fd5b895160175560208a0151601855825115801590620001d4575082600081518110620001c857fe5b60200260200101516000145b8015620001e2575082518251145b8015620001f0575082518151145b6200020f5760405162461bcd60e51b81526004016200019890620009c1565b60008551118015620002365750846000815181106200022a57fe5b60200260200101516000145b801562000244575084518451145b620002635760405162461bcd60e51b8152600401620001989062000a78565b83516000905b80821015620002b65760648683815181106200028157fe5b60200260200101511115620002aa5760405162461bcd60e51b8152600401620001989062000a35565b60018201915062000269565b8451620002cb90600f9060208801906200050a565b508351620002e190601090602087019062000547565b508251620002f79060119060208601906200050a565b5050600f54600091505b80821015620003795760128054600181810190925560007fbb8a6a4669ba250d26cd7a459eca9d215f8307e33aebe50379bc5a3617ec34449091018190556013805480840182559082527f66de8ffda797e3de9c05e8fc57b3bf0ec28a930d40b0d285d93c06501cf6a0900155919091019062000301565b86516200038e9060149060208a01906200050a565b508551620003a49060159060208901906200050a565b5050601a80546001600160a01b03199081166001600160a01b039b8c16179091556203f480601b558a51601c80548316918c169190911790556020909a0151601d80548c16918b169190911761ffff60a01b191690555050601e805489169688169690961790955550506103e860195550601f80549094169216919091179091555062000bee915050565b6001600160e01b031980821614156200045c5760405162461bcd60e51b815260040162000198906200098a565b6001600160e01b0319166000908152602081905260409020805460ff19166001179055565b3390565b828054600181600116156101000203166002900490600052602060002090601f016020900481019282601f10620004c857805160ff1916838001178555620004f8565b82800160010185558215620004f8579182015b82811115620004f8578251825591602001919060010190620004db565b5062000506929150620005a7565b5090565b828054828255906000526020600020908101928215620004f85791602002820182811115620004f8578251825591602001919060010190620004db565b82805482825590600052602060002090810192821562000599579160200282015b828111156200059957825180516200058891849160209091019062000485565b509160200191906001019062000568565b5062000506929150620005be565b5b80821115620005065760008155600101620005a8565b8082111562000506576000620005d58282620005df565b50600101620005be565b50805460018160011615610100020316600290046000825580601f1062000607575062000627565b601f016020900490600052602060002090810190620006279190620005a7565b50565b8051620006378162000bd8565b92915050565b600082601f8301126200064e578081fd5b6200065a604062000b3a565b90508082846040850111156200066f57600080fd5b60005b60028110156200069f578151620006898162000bd8565b8352602092830192919091019060010162000672565b50505092915050565b600082601f830112620006b9578081fd5b8151620006d0620006ca8262000b61565b62000b3a565b818152915060208083019084810160005b848110156200074f578151870188603f820112620006fe57600080fd5b8381015162000711620006ca8262000b81565b81815260408b818486010111156200072857600080fd5b620007398388840183870162000ba5565b50865250509282019290820190600101620006e1565b505050505092915050565b600082601f8301126200076b578081fd5b62000777604062000b3a565b90508082846040850111156200078c57600080fd5b60005b60028110156200069f5781518352602092830192909101906001016200078f565b600082601f830112620007c1578081fd5b8151620007d2620006ca8262000b61565b818152915060208083019084810181840286018201871015620007f457600080fd5b60005b848110156200074f57815184529282019290820190600101620007f7565b60008060008060008060008060008060006101a08c8e03121562000837578687fd5b620008438d8d6200062a565b9a50620008548d60208e016200075a565b9950620008658d60608e016200063d565b9850620008768d60a08e016200062a565b9750620008878d60c08e016200062a565b9650620008988d60e08e016200062a565b6101008d01519096506001600160401b03811115620008b5578586fd5b620008c38e828f01620007b0565b6101208e015190965090506001600160401b03811115620008e2578485fd5b620008f08e828f01620007b0565b6101408e015190955090506001600160401b038111156200090f578384fd5b6200091d8e828f01620007b0565b6101608e015190945090506001600160401b038111156200093c578283fd5b6200094a8e828f01620006a8565b6101808e015190935090506001600160401b0381111562000969578182fd5b620009778e828f01620007b0565b9150509295989b509295989b9093969950565b6020808252601c908201527f4552433136353a20696e76616c696420696e7465726661636520696400000000604082015260600190565b6020808252604e908201527f4c6576656c2055524920617272617973206d75737420626520657175616c206960408201527f6e206e6f6e2d7a65726f206c656e67746820616e64206c6576656c2073686f7560608201526d36321039ba30b93a1030ba10181760911b608082015260a00190565b60208082526023908201527f4d6178206c6576656c2063616e277420626520686967686572207468616e203160408201526218181760e91b606082015260800190565b6020808252604d908201527f4d6178206c6576656c20617272617973206d75737420626520657175616c206960408201527f6e206e6f6e2d7a65726f206c656e67746820616e642074696d652073686f756c60608201526c321039ba30b93a1030ba10181760991b608082015260a00190565b6020808252602f908201527f496e697469616c207072696365206d757374206265206c6f776572207468616e60408201526e10313abc903832b9103632bb32b61760891b606082015260800190565b6040518181016001600160401b038111828210171562000b5957600080fd5b604052919050565b60006001600160401b0382111562000b77578081fd5b5060209081020190565b60006001600160401b0382111562000b97578081fd5b50601f01601f191660200190565b60005b8381101562000bc257818101518382015260200162000ba8565b8381111562000bd2576000848401525b50505050565b6001600160a01b03811681146200062757600080fd5b6159118062000bfe6000396000f3fe608060405234801561001057600080fd5b506004361061041c5760003560e01c80635b2f4ed41161022b578063c3f0d32711610130578063d20bffa7116100b8578063e985e9c511610087578063e985e9c5146108a6578063ec3ddf30146108b9578063f01f20df146108cc578063f2fde38b146108d4578063fd326592146108e75761041c565b8063d20bffa71461085a578063db357c301461086d578063dd289dcb14610880578063df870262146108935761041c565b8063cc06c359116100ff578063cc06c359146107f6578063cc33c875146107fe578063cc67d1ae14610821578063cf1c316a14610834578063d1c2babb146108475761041c565b8063c3f0d327146107b5578063c3fe3e28146107c8578063c87b56dd146107d0578063ca60567a146107e35761041c565b80638da5cb5b116101b3578063aa08279c11610182578063aa08279c14610756578063b0d388ba14610769578063b88d4fde1461077c578063b91816111461078f578063c0d78655146107a25761041c565b80638da5cb5b1461072b57806395d89b4114610733578063a22cb4651461073b578063a48217191461074e5761041c565b806370a08231116101fa57806370a08231146106d757806371167122146106ea578063715018a6146106fd5780637dc0bf3f146107055780638a1165b3146107185761041c565b80635b2f4ed4146106965780636352211e146106a95780636c0360eb146106bc5780637001e2a6146106c45761041c565b806323b872dd1161033157806338d17099116102b957806342842e0e1161028857806342842e0e1461064257806347aebf9a14610655578063485d7d941461065d5780634f6ccce71461067057806358df3825146106835761041c565b806338d17099146106015780633bcafb63146106145780633c32a450146106275780633f684d381461062f5761041c565b80632f745c59116103005780632f745c59146105ad57806334452f38146105c057806335403023146105c857806337339a16146105db57806337f3e8a4146105ee5761041c565b806323b872dd1461056c578063257c739b1461057f578063286b297c146105875780632eb552f31461059a5761041c565b80630a842433116103b457806318160ddd1161038357806318160ddd1461052e5780631b2ef1ca146105365780631c04628d146105495780631d0806ae146105515780631e58a918146105595761041c565b80630a842433146104e25780630b744f3d146104f55780630ce90ec21461050857806315dbb0151461051b5761041c565b806308143796116103f05780630814379614610489578063081812fc146104a957806308a5510c146104bc578063095ea7b3146104cf5761041c565b8062f380f41461042157806301ffc9a71461043f57806305fefda71461045f57806306fdde0314610474575b600080fd5b6104296108fa565b604051610436919061496a565b60405180910390f35b61045261044d3660046147f4565b610909565b60405161043691906149f8565b61047261046d36600461488f565b61092c565b005b61047c6109a9565b6040516104369190614a03565b61049c61049736600461485f565b610a3f565b6040516104369190615759565b6104296104b736600461485f565b610a5d565b6104726104ca3660046147bc565b610aa0565b6104726104dd3660046145d4565b610b07565b61049c6104f03660046145d4565b610b9f565b61049c61050336600461485f565b610dc1565b61047261051636600461485f565b610dce565b61049c61052936600461485f565b610e5f565b61049c610ec8565b61049c61054436600461488f565b610ed9565b610452611366565b61049c611376565b61047261056736600461485f565b61137c565b61047261057a3660046144fd565b611435565b61049c61146d565b6104726105953660046147bc565b611473565b61049c6105a836600461485f565b6114da565b61049c6105bb3660046145d4565b6114e7565b610452611510565b61049c6105d636600461485f565b611520565b6104726105e93660046144a9565b61156d565b61049c6105fc36600461485f565b6115d8565b61047c61060f36600461485f565b6115e5565b61049c61062236600461485f565b6116db565b6104296116e8565b61049c61063d36600461485f565b6116f7565b6104726106503660046144fd565b611736565b61049c611751565b61047261066b3660046144a9565b611757565b61049c61067e36600461485f565b6117cd565b6104726106913660046145d4565b6117e3565b61047c6106a436600461485f565b611894565b6104296106b736600461485f565b61193a565b61047c611962565b6104726106d23660046145d4565b6119c3565b61049c6106e53660046144a9565b611a3e565b6104726106f836600461488f565b611a87565b610472611ae5565b61049c61071336600461485f565b611b6e565b6104726107263660046144a9565b611bbb565b610429611c26565b61047c611c35565b6104726107493660046145a7565b611c96565b610429611d64565b61047261076436600461475b565b611d73565b61047261077736600461488f565b611e85565b61047261078a36600461453d565b611fd8565b61045261079d3660046144a9565b612017565b6104726107b03660046144a9565b61202c565b6104726107c336600461485f565b612097565b610429612107565b61047c6107de36600461485f565b612116565b6104726107f136600461488f565b61225c565b61049c6122ea565b61081161080c36600461485f565b612352565b60405161043694939291906157b7565b61047261082f36600461488f565b61237c565b6104726108423660046144a9565b6123da565b61049c61085536600461488f565b61243d565b61047261086836600461468f565b612768565b61047261087b36600461485f565b612889565b61047261088e36600461485f565b612ff8565b61049c6108a136600461485f565b613046565b6104526108b43660046144c5565b613053565b61049c6108c736600461485f565b613081565b61049c6130a2565b6104726108e23660046144a9565b6130a8565b61049c6108f536600461485f565b613169565b601a546001600160a01b031681565b6001600160e01b0319811660009081526020819052604090205460ff165b919050565b336000908152600b602052604090205460ff168061095957503361094e611c26565b6001600160a01b0316145b61097e5760405162461bcd60e51b8152600401610975906153a7565b60405180910390fd5b8082101561099e5760405162461bcd60e51b8152600401610975906155ce565b601791909155601855565b60068054604080516020601f6002600019610100600188161502019095169490940493840181900481028201810190925282815260609390929091830182828015610a355780601f10610a0a57610100808354040283529160200191610a35565b820191906000526020600020905b815481529060010190602001808311610a1857829003601f168201915b5050505050905090565b60158181548110610a4c57fe5b600091825260209091200154905081565b6000610a688261317c565b610a845760405162461bcd60e51b815260040161097590615199565b506000908152600460205260409020546001600160a01b031690565b336000908152600b602052604090205460ff1680610acd575033610ac2611c26565b6001600160a01b0316145b610ae95760405162461bcd60e51b8152600401610975906153a7565b601d8054911515600160a01b0260ff60a01b19909216919091179055565b6000610b128261193a565b9050806001600160a01b0316836001600160a01b03161415610b465760405162461bcd60e51b815260040161097590615366565b806001600160a01b0316610b58613189565b6001600160a01b03161480610b745750610b74816108b4613189565b610b905760405162461bcd60e51b815260040161097590614f01565b610b9a838361318d565b505050565b6000610ba96141d6565b601e54604051630cacd00160e11b81526001600160a01b0390911690631959a00290610bd990879060040161496a565b604080518083038186803b158015610bf057600080fd5b505afa158015610c04573d6000803e3d6000fd5b505050506040513d601f19601f82011682018060405250810190610c28919061482c565b601c54604051635a46d3b560e01b81529192506000916001600160a01b0390911690635a46d3b590610c5e90889060040161496a565b60206040518083038186803b158015610c7657600080fd5b505afa158015610c8a573d6000803e3d6000fd5b505050506040513d601f19601f82011682018060405250810190610cae9190614877565b905080610cc057600092505050610dbb565b601c5460405163010158bb60e51b81526000916001600160a01b03169063202b176090610cf190899060040161496a565b60206040518083038186803b158015610d0957600080fd5b505afa158015610d1d573d6000803e3d6000fd5b505050506040513d601f19601f82011682018060405250810190610d419190614877565b9050808211610d565760009350505050610dbb565b610d6082826131fb565b915082602001518211610d795760009350505050610dbb565b6020830151610d899083906131fb565b6000868152600e602052604081205491935090610db490606490610dae908690613223565b9061325d565b9450505050505b92915050565b60128181548110610a4c57fe5b610dd661328f565b15610df35760405162461bcd60e51b815260040161097590615667565b610dfb6132b0565b15610e185760405162461bcd60e51b815260040161097590615667565b610e21816132d1565b50436000908152600c602090815260408083203284529091528082208054600160ff1991821681179092553384529190922080549091169091179055565b600f54600090819080825b8115610ebe57600182039050600f8181548110610e8357fe5b90600052602060002001548610610eb35760118181548110610ea157fe5b90600052602060002001549350610ebe565b600182039150610e6a565b5091949350505050565b6000610ed460026133c6565b905090565b6000610ee361328f565b15610f005760405162461bcd60e51b815260040161097590615667565b610f086132b0565b15610f255760405162461bcd60e51b815260040161097590615667565b601d54600160a01b900460ff16158015610f455750610f43336133d1565b155b610f615760405162461bcd60e51b815260040161097590614e16565b600083118015610f785750610f746122ea565b8311155b610f945760405162461bcd60e51b815260040161097590614a58565b610f9d336133d1565b61128c576000610fc6610fbd610fb48660016131fb565b60185490613223565b60175490613430565b90506000610fe5612710610dae6019548561322390919063ffffffff16565b90506000610ff383836131fb565b601a54601654919250611015916001600160a01b039081169133911684613455565b6040805160028082526060808301845260009390929190602083019080368337505060165482519293506001600160a01b03169183915060009061105557fe5b6001600160a01b039283166020918202929092010152601d5482519116908290600190811061108057fe5b6001600160a01b0392831660209182029290920101526016546110a69116333087613455565b601f5460405163d06ca61f60e01b81526060916001600160a01b03169063d06ca61f906110d99088908690600401615762565b60006040518083038186803b1580156110f157600080fd5b505afa158015611105573d6000803e3d6000fd5b505050506040513d6000823e601f3d908101601f1916820160405261112d91908101906145ff565b905060008160018351038151811061114157fe5b6020026020010151905061116e611167612710610dae8c8561322390919063ffffffff16565b82906131fb565b601f546040516338ed173960e01b8152919550606093506001600160a01b031691506338ed1739906111ac908890879087903090429060040161577b565b600060405180830381600087803b1580156111c657600080fd5b505af11580156111da573d6000803e3d6000fd5b505050506040513d6000823e601f3d908101601f1916820160405261120291908101906145ff565b905060008160018351038151811061121657fe5b6020908102919091010151601d54604051630852cd8d60e31b81529192506001600160a01b0316906342966c6890611252908490600401615759565b600060405180830381600087803b15801561126c57600080fd5b505af1158015611280573d6000803e3d6000fd5b50505050505050505050505b33611297600d6134ad565b60006112a3600d6134b6565b6000818152600e602052604090204260018083018290556002830191909155919250906112d19087906134ba565b6112dc86600161351b565b6112e683836135b2565b85815560606112f4876115e5565b905060008151116113175760405162461bcd60e51b815260040161097590614e82565b6113218382613676565b5050436000908152600c602090815260408083203284529091528082208054600160ff1991821681179092553384529190922080549091169091179055949350505050565b601d54600160a81b900460ff1681565b60175481565b61138461328f565b156113a15760405162461bcd60e51b815260040161097590615667565b6113a96132b0565b156113c65760405162461bcd60e51b815260040161097590615667565b601b546000828152600e60205260409020600201546113e491613430565b4210156114035760405162461bcd60e51b8152600401610975906156ad565b601b546000828152600e602052604090206002015461142191613430565b4210610e2157611430816132d1565b611403565b611446611440613189565b826136ba565b6114625760405162461bcd60e51b8152600401610975906154dc565b610b9a83838361373f565b60185481565b336000908152600b602052604090205460ff16806114a0575033611495611c26565b6001600160a01b0316145b6114bc5760405162461bcd60e51b8152600401610975906153a7565b601d8054911515600160a81b0260ff60a81b19909216919091179055565b600f8181548110610a4c57fe5b6001600160a01b0382166000908152600160205260408120611509908361384d565b9392505050565b601d54600160a01b900460ff1681565b600f54600090819080825b8115610ebe57600182039050600f818154811061154457fe5b906000526020600020015486106115625760128181548110610ea157fe5b60018203915061152b565b336000908152600b602052604090205460ff168061159a57503361158f611c26565b6001600160a01b0316145b6115b65760405162461bcd60e51b8152600401610975906153a7565b601a80546001600160a01b0319166001600160a01b0392909216919091179055565b60138181548110610a4c57fe5b60408051602081019091526000808252600f546060929181905b8115610ebe57600182039050600f818154811061161857fe5b906000526020600020015486106116d0576010818154811061163657fe5b600091825260209182902001805460408051601f60026000196101006001871615020190941693909304928301859004850281018501909152818152928301828280156116c45780601f10611699576101008083540402835291602001916116c4565b820191906000526020600020905b8154815290600101906020018083116116a757829003601f168201915b50505050509350610ebe565b6001820391506115ff565b60148181548110610a4c57fe5b601c546001600160a01b031681565b601b546000828152600e60205260408120600201549091829161171991613430565b905080421061172c576000915050610927565b61150981426131fb565b610b9a83838360405180602001604052806000815250611fd8565b601b5481565b61175f613189565b6001600160a01b0316611770611c26565b6001600160a01b0316146117965760405162461bcd60e51b815260040161097590615231565b6001600160a01b0381163314156117ac57600080fd5b6001600160a01b03166000908152600b60205260409020805460ff19169055565b6000806117db600284613859565b509392505050565b336000908152600b602052604090205460ff1680611810575033611805611c26565b6001600160a01b0316145b61182c5760405162461bcd60e51b8152600401610975906153a7565b601e546040516358df382560e01b81526001600160a01b03909116906358df38259061185e90859085906004016149df565b600060405180830381600087803b15801561187857600080fd5b505af115801561188c573d6000803e3d6000fd5b505050505050565b601081815481106118a157fe5b600091825260209182902001805460408051601f60026000196101006001871615020190941693909304928301859004850281018501909152818152935090918301828280156119325780601f1061190757610100808354040283529160200191611932565b820191906000526020600020905b81548152906001019060200180831161191557829003601f168201915b505050505081565b6000610dbb826040518060600160405280602981526020016158b36029913960029190613875565b60098054604080516020601f6002600019610100600188161502019095169490940493840181900481028201810190925282815260609390929091830182828015610a355780601f10610a0a57610100808354040283529160200191610a35565b336000908152600b602052604090205460ff16806119f05750336119e5611c26565b6001600160a01b0316145b611a0c5760405162461bcd60e51b8152600401610975906153a7565b601e54604051633800f15360e11b81526001600160a01b0390911690637001e2a69061185e90859085906004016149df565b60006001600160a01b038216611a665760405162461bcd60e51b815260040161097590614f5e565b6001600160a01b0382166000908152600160205260409020610dbb906133c6565b336000908152600b602052604090205460ff1680611ab4575033611aa9611c26565b6001600160a01b0316145b611ad05760405162461bcd60e51b8152600401610975906153a7565b6000918252600e602052604090912060010155565b611aed613189565b6001600160a01b0316611afe611c26565b6001600160a01b031614611b245760405162461bcd60e51b815260040161097590615231565b600a546040516000916001600160a01b0316907f8be0079c531659141344cd1fd0a4f28419497f9722a3daafe3b4186f6b6457e0908390a3600a80546001600160a01b0319169055565b600f54600090819080825b8115610ebe57600182039050600f8181548110611b9257fe5b90600052602060002001548610611bb05760138181548110610ea157fe5b600182039150611b79565b336000908152600b602052604090205460ff1680611be8575033611bdd611c26565b6001600160a01b0316145b611c045760405162461bcd60e51b8152600401610975906153a7565b601680546001600160a01b0319166001600160a01b0392909216919091179055565b600a546001600160a01b031690565b60078054604080516020601f6002600019610100600188161502019095169490940493840181900481028201810190925282815260609390929091830182828015610a355780601f10610a0a57610100808354040283529160200191610a35565b611c9e613189565b6001600160a01b0316826001600160a01b03161415611ccf5760405162461bcd60e51b815260040161097590614c9c565b8060056000611cdc613189565b6001600160a01b03908116825260208083019390935260409182016000908120918716808252919093529120805460ff191692151592909217909155611d20613189565b6001600160a01b03167f17307eab39ab6107e8899845ad3d59bd9653f200f220920489ca2b5937696c3183604051611d5891906149f8565b60405180910390a35050565b6016546001600160a01b031681565b336000908152600b602052604090205460ff1680611da0575033611d95611c26565b6001600160a01b0316145b611dbc5760405162461bcd60e51b8152600401610975906153a7565b60008251118015611de1575081600081518110611dd557fe5b60200260200101516000145b8015611dee575081518151145b611e0a5760405162461bcd60e51b8152600401610975906150e5565b80516000905b80821015611e57576064838381518110611e2657fe5b60200260200101511115611e4c5760405162461bcd60e51b815260040161097590614cd3565b600182019150611e10565b8351611e6a9060149060208701906141f0565b508251611e7e9060159060208601906141f0565b5050505050565b611e8d61328f565b15611eaa5760405162461bcd60e51b815260040161097590615667565b611eb26132b0565b15611ecf5760405162461bcd60e51b815260040161097590615667565b6000828152600e602052604090205481118015611ef35750611eef6122ea565b8111155b611f0f5760405162461bcd60e51b815260040161097590614fce565b601b546000838152600e6020526040902060020154611f2d91613430565b421015611f4c5760405162461bcd60e51b8152600401610975906156ad565b6000828152600e602052604090205481118015611f865750601b546000838152600e6020526040902060020154611f8291613430565b4210155b15611f9957611f94826132d1565b611f4c565b5050436000908152600c602090815260408083203284529091528082208054600160ff1991821681179092553384529190922080549091169091179055565b611fe9611fe3613189565b836136ba565b6120055760405162461bcd60e51b8152600401610975906154dc565b61201184848484613882565b50505050565b600b6020526000908152604090205460ff1681565b336000908152600b602052604090205460ff168061205957503361204e611c26565b6001600160a01b0316145b6120755760405162461bcd60e51b8152600401610975906153a7565b601f80546001600160a01b0319166001600160a01b0392909216919091179055565b336000908152600b602052604090205460ff16806120c45750336120b9611c26565b6001600160a01b0316145b6120e05760405162461bcd60e51b8152600401610975906153a7565b6127108111156121025760405162461bcd60e51b815260040161097590615722565b601955565b601d546001600160a01b031681565b60606121218261317c565b61213d5760405162461bcd60e51b8152600401610975906152af565b60008281526008602090815260409182902080548351601f60026000196101006001861615020190931692909204918201849004840281018401909452808452606093928301828280156121d25780601f106121a7576101008083540402835291602001916121d2565b820191906000526020600020905b8154815290600101906020018083116121b557829003601f168201915b5050505050905060606121e3611962565b90508051600014156121f757509050610927565b81511561222957808260405160200161221192919061493b565b60405160208183030381529060405292505050610927565b80612233856138b5565b60405160200161224492919061493b565b60405160208183030381529060405292505050919050565b336000908152600b602052604090205460ff168061228957503361227e611c26565b6001600160a01b0316145b6122a55760405162461bcd60e51b8152600401610975906153a7565b6000811180156122bc57506122b86122ea565b8111155b6122d85760405162461bcd60e51b815260040161097590614a58565b6000918252600e602052604090912055565b601454600090819080825b8115612349576001820390506014818154811061230e57fe5b9060005260206000200154421061233e576015818154811061232c57fe5b90600052602060002001549350612349565b6001820391506122f5565b50919250505090565b600e6020526000908152604090208054600182015460028301546003909301549192909160ff1684565b336000908152600b602052604090205460ff16806123a957503361239e611c26565b6001600160a01b0316145b6123c55760405162461bcd60e51b8152600401610975906153a7565b6000918252600e602052604090912060020155565b6123e2613189565b6001600160a01b03166123f3611c26565b6001600160a01b0316146124195760405162461bcd60e51b815260040161097590615231565b6001600160a01b03166000908152600b60205260409020805460ff19166001179055565b600061244761328f565b156124645760405162461bcd60e51b815260040161097590615667565b61246c6132b0565b156124895760405162461bcd60e51b815260040161097590615667565b818314156124a95760405162461bcd60e51b8152600401610975906153de565b336124b38461193a565b6001600160a01b031614806124d75750336000908152600b602052604090205460ff165b806124f15750336124e6611c26565b6001600160a01b0316145b61250d5760405162461bcd60e51b815260040161097590614a9b565b336125178361193a565b6001600160a01b0316148061253b5750336000908152600b602052604090205460ff165b8061255557503361254a611c26565b6001600160a01b0316145b6125715760405162461bcd60e51b8152600401610975906152fe565b61257a8261193a565b6001600160a01b031661258c8461193a565b6001600160a01b0316146125b25760405162461bcd60e51b8152600401610975906156dd565b6000838152600e602052604090206003015460ff16156125e45760405162461bcd60e51b815260040161097590615564565b6000828152600e602052604090206003015460ff16156126165760405162461bcd60e51b815260040161097590615472565b6000828152600e6020526040808220548583529082205461263691613430565b905060008111801561264f575061264b6122ea565b8111155b61266b5760405162461bcd60e51b815260040161097590614a58565b60006126768561193a565b9050606061268386612116565b905061268e86613990565b6126a161269a86612116565b6001613a5d565b6126aa85613990565b6126b4600d6134ad565b60006126c0600d6134b6565b6000818152600e60205260409020426001820181905560028201559091506126e884836135b2565b84815560038101805460ff1916600117905582516127185760405162461bcd60e51b815260040161097590614e82565b6127228284613676565b50436000908152600c602090815260408083203284529091528082208054600160ff19918216811790925533845291909220805490911690911790559695505050505050565b336000908152600b602052604090205460ff168061279557503361278a611c26565b6001600160a01b0316145b6127b15760405162461bcd60e51b8152600401610975906153a7565b600085511180156127d65750846000815181106127ca57fe5b60200260200101516000145b80156127e3575084518451145b80156127f0575084518351145b80156127fd575084518251145b801561280a575084518151145b6128265760405162461bcd60e51b815260040161097590614bad565b845161283990600f9060208801906141f0565b50835161284d90601090602087019061423b565b5082516128619060119060208601906141f0565b5081516128759060129060208501906141f0565b50805161188c9060139060208401906141f0565b61289161328f565b156128ae5760405162461bcd60e51b815260040161097590615667565b6128b66132b0565b156128d35760405162461bcd60e51b815260040161097590615667565b601d54600160a81b900460ff16156128fd5760405162461bcd60e51b815260040161097590614eb1565b336129078261193a565b6001600160a01b0316148061292b5750336000908152600b602052604090205460ff165b8061294557503361293a611c26565b6001600160a01b0316145b6129615760405162461bcd60e51b815260040161097590614e4b565b600061296c8261193a565b90506129766141d6565b601e54604051630cacd00160e11b81526001600160a01b0390911690631959a002906129a690859060040161496a565b604080518083038186803b1580156129bd57600080fd5b505afa1580156129d1573d6000803e3d6000fd5b505050506040513d601f19601f820116820180604052508101906129f5919061482c565b80519091504211612a185760405162461bcd60e51b815260040161097590614fa8565b601c54604051635a46d3b560e01b81526000916001600160a01b031690635a46d3b590612a4990869060040161496a565b60206040518083038186803b158015612a6157600080fd5b505afa158015612a75573d6000803e3d6000fd5b505050506040513d601f19601f82011682018060405250810190612a999190614877565b905080612b7057601e54604051633800f15360e11b81526001600160a01b0390911690637001e2a690612ad290869042906004016149df565b600060405180830381600087803b158015612aec57600080fd5b505af1158015612b00573d6000803e3d6000fd5b5050601e546040516358df382560e01b81526001600160a01b0390911692506358df38259150612b3690869085906004016149df565b600060405180830381600087803b158015612b5057600080fd5b505af1158015612b64573d6000803e3d6000fd5b50505050505050610e21565b601c5460405163010158bb60e51b81526000916001600160a01b03169063202b176090612ba190879060040161496a565b60206040518083038186803b158015612bb957600080fd5b505afa158015612bcd573d6000803e3d6000fd5b505050506040513d601f19601f82011682018060405250810190612bf19190614877565b9050808211612c125760405162461bcd60e51b815260040161097590615415565b612c1c82826131fb565b915082602001518211612dd957601c5460405163579587b360e11b81526001600160a01b039091169063af2b0f6690612c5c9087906000906004016149df565b600060405180830381600087803b158015612c7657600080fd5b505af1158015612c8a573d6000803e3d6000fd5b5050601e54604051633800f15360e11b81526001600160a01b039091169250637001e2a69150612cc090879042906004016149df565b600060405180830381600087803b158015612cda57600080fd5b505af1158015612cee573d6000803e3d6000fd5b5050601e54601c54604051635a46d3b560e01b81526001600160a01b0392831694506358df38259350889290911690635a46d3b590612d3190849060040161496a565b60206040518083038186803b158015612d4957600080fd5b505afa158015612d5d573d6000803e3d6000fd5b505050506040513d601f19601f82011682018060405250810190612d819190614877565b6040518363ffffffff1660e01b8152600401612d9e9291906149df565b600060405180830381600087803b158015612db857600080fd5b505af1158015612dcc573d6000803e3d6000fd5b5050505050505050610e21565b6020830151612de99083906131fb565b6000868152600e602052604081205491935090612e0e90606490610dae908690613223565b601c5460405163579587b360e11b81529192506001600160a01b03169063af2b0f6690612e4190889085906004016149df565b600060405180830381600087803b158015612e5b57600080fd5b505af1158015612e6f573d6000803e3d6000fd5b5050601e54604051633800f15360e11b81526001600160a01b039091169250637001e2a69150612ea590889042906004016149df565b600060405180830381600087803b158015612ebf57600080fd5b505af1158015612ed3573d6000803e3d6000fd5b5050601e54601c54604051635a46d3b560e01b81526001600160a01b0392831694506358df38259350899290911690635a46d3b590612f1690849060040161496a565b60206040518083038186803b158015612f2e57600080fd5b505afa158015612f42573d6000803e3d6000fd5b505050506040513d601f19601f82011682018060405250810190612f669190614877565b6040518363ffffffff1660e01b8152600401612f839291906149df565b600060405180830381600087803b158015612f9d57600080fd5b505af1158015612fb1573d6000803e3d6000fd5b5050436000908152600c602090815260408083203284529091528082208054600160ff19918216811790925533845291909220805490911690911790555050505050505050565b336000908152600b602052604090205460ff168061302557503361301a611c26565b6001600160a01b0316145b6130415760405162461bcd60e51b8152600401610975906153a7565b601b55565b60118181548110610a4c57fe5b6001600160a01b03918216600090815260056020908152604080832093909416825291909152205460ff1690565b601b546000828152600e60205260408120600201549091610dbb9190613430565b60195481565b6130b0613189565b6001600160a01b03166130c1611c26565b6001600160a01b0316146130e75760405162461bcd60e51b815260040161097590615231565b6001600160a01b03811661310d5760405162461bcd60e51b815260040161097590614b30565b600a546040516001600160a01b038084169216907f8be0079c531659141344cd1fd0a4f28419497f9722a3daafe3b4186f6b6457e090600090a3600a80546001600160a01b0319166001600160a01b0392909216919091179055565b6000610dbb610fbd610fb48460016131fb565b6000610dbb600283613b4f565b3390565b600081815260046020526040902080546001600160a01b0319166001600160a01b03841690811790915581906131c28261193a565b6001600160a01b03167f8c5be1e5ebec7d5bd14f71427d1e84f3dd0314c0f7b2291e5b200ac8c7c3b92560405160405180910390a45050565b60008282111561321d5760405162461bcd60e51b815260040161097590614d16565b50900390565b60008261323257506000610dbb565b8282028284828161323f57fe5b04146115095760405162461bcd60e51b815260040161097590615158565b600080821161327e5760405162461bcd60e51b815260040161097590614ddf565b81838161328757fe5b049392505050565b436000908152600c6020908152604080832032845290915290205460ff1690565b436000908152600c6020908152604080832033845290915290205460ff1690565b336132db8261193a565b6001600160a01b031614806132ff5750336000908152600b602052604090205460ff165b8061331957503361330e611c26565b6001600160a01b0316145b6133355760405162461bcd60e51b815260040161097590614e4b565b6000818152600e6020526040902061334b6122ea565b81541061336a5760405162461bcd60e51b81526004016109759061506d565b6000613385601b54836002015461343090919063ffffffff16565b9050804210156133a75760405162461bcd60e51b8152600401610975906156ad565b6002820181905581546000906133be906001613430565b909255505050565b6000610dbb826134b6565b601a546000906001600160a01b038381169116148061340857506001600160a01b0382166000908152600b602052604090205460ff165b80610dbb5750816001600160a01b0316613420611c26565b6001600160a01b03161492915050565b6000828201838110156115095760405162461bcd60e51b815260040161097590614c21565b612011846323b872dd60e01b858585604051602401613476939291906149bb565b60408051601f198184030181529190526020810180516001600160e01b03166001600160e01b031990931692909217909152613b5b565b80546001019055565b5490565b600f548060005b8115611e7e57600182039050600f81815481106134da57fe5b906000526020600020015485106135105783601282815481106134f957fe5b600091825260209091200180549091019055611e7e565b6001820391506134c1565b600f548060005b8115611e7e57600182039050600f818154811061353b57fe5b906000526020600020015485106135a7576011818154811061355957fe5b90600052602060002001546013828154811061357157fe5b9060005260206000200154106135995760405162461bcd60e51b815260040161097590615341565b83601382815481106134f957fe5b600182039150613522565b6001600160a01b0382166135d85760405162461bcd60e51b8152600401610975906150b0565b6135e18161317c565b156135fe5760405162461bcd60e51b815260040161097590614b76565b61360a60008383610b9a565b6001600160a01b038216600090815260016020526040902061362c9082613bea565b5061363960028284613bf6565b5060405181906001600160a01b038416906000907fddf252ad1be2c89b69c2b068fc378daa952ba7f163c4a11628f55a4df523b3ef908290a45050565b61367f8261317c565b61369b5760405162461bcd60e51b8152600401610975906151e5565b60008281526008602090815260409091208251610b9a92840190614294565b60006136c58261317c565b6136e15760405162461bcd60e51b815260040161097590614d93565b60006136ec8361193a565b9050806001600160a01b0316846001600160a01b031614806137275750836001600160a01b031661371c84610a5d565b6001600160a01b0316145b8061373757506137378185613053565b949350505050565b826001600160a01b03166137528261193a565b6001600160a01b0316146137785760405162461bcd60e51b815260040161097590615266565b6001600160a01b03821661379e5760405162461bcd60e51b815260040161097590614c58565b6137a9838383610b9a565b6137b460008261318d565b6001600160a01b03831660009081526001602052604090206137d69082613c0c565b506001600160a01b03821660009081526001602052604090206137f99082613bea565b5061380660028284613bf6565b5080826001600160a01b0316846001600160a01b03167fddf252ad1be2c89b69c2b068fc378daa952ba7f163c4a11628f55a4df523b3ef60405160405180910390a4505050565b60006115098383613c18565b60008080806138688686613c5d565b9097909650945050505050565b6000613737848484613cb9565b61388d84848461373f565b61389984848484613d18565b6120115760405162461bcd60e51b815260040161097590614ade565b6060816138da57506040805180820190915260018152600360fc1b6020820152610927565b8160005b81156138f257600101600a820491506138de565b60608167ffffffffffffffff8111801561390b57600080fd5b506040519080825280601f01601f191660200182016040528015613936576020820181803683370190505b50859350905060001982015b831561398757600a840660300160f81b8282806001900393508151811061396557fe5b60200101906001600160f81b031916908160001a905350600a84049350613942565b50949350505050565b600061399b8261193a565b90506139a981600084610b9a565b6139b460008361318d565b60008281526008602052604090205460026000196101006001841615020190911604156139f25760008281526008602052604081206139f291614301565b6001600160a01b0381166000908152600160205260409020613a149083613c0c565b50613a20600283613df7565b5060405182906000906001600160a01b038416907fddf252ad1be2c89b69c2b068fc378daa952ba7f163c4a11628f55a4df523b3ef908390a45050565b6010548060005b8115611e7e57600182039050613b198560108381548110613a8157fe5b600091825260209182902001805460408051601f6002600019610100600187161502019094169390930492830185900485028101850190915281815292830182828015613b0f5780601f10613ae457610100808354040283529160200191613b0f565b820191906000526020600020905b815481529060010190602001808311613af257829003601f168201915b5050505050613e03565b15613b44578360128281548110613b2c57fe5b60009182526020909120018054919091039055611e7e565b600182039150613a64565b60006115098383613e0f565b6060613bb0826040518060400160405280602081526020017f5361666545524332303a206c6f772d6c6576656c2063616c6c206661696c6564815250856001600160a01b0316613e279092919063ffffffff16565b805190915015610b9a5780806020019051810190613bce91906147d8565b610b9a5760405162461bcd60e51b81526004016109759061561d565b60006115098383613e36565b600061373784846001600160a01b038516613e80565b60006115098383613f17565b81546000908210613c3b5760405162461bcd60e51b815260040161097590614a16565b826000018281548110613c4a57fe5b9060005260206000200154905092915050565b815460009081908310613c825760405162461bcd60e51b81526004016109759061502b565b6000846000018481548110613c9357fe5b906000526020600020906002020190508060000154816001015492509250509250929050565b60008281526001840160205260408120548281613ce95760405162461bcd60e51b81526004016109759190614a03565b50846000016001820381548110613cfc57fe5b9060005260206000209060020201600101549150509392505050565b6000613d2c846001600160a01b0316613fdd565b613d3857506001613737565b6060613dc0630a85bd0160e11b613d4d613189565b888787604051602401613d63949392919061497e565b604051602081830303815290604052906001600160e01b0319166020820180516001600160e01b038381831617835250505050604051806060016040528060328152602001615881603291396001600160a01b0388169190613e27565b9050600081806020019051810190613dd89190614810565b6001600160e01b031916630a85bd0160e11b1492505050949350505050565b60006115098383613fe3565b600061150983836140b7565b60009081526001919091016020526040902054151590565b606061373784846000856140dc565b6000613e428383613e0f565b613e7857508154600181810184556000848152602080822090930184905584548482528286019093526040902091909155610dbb565b506000610dbb565b600082815260018401602052604081205480613ee5575050604080518082018252838152602080820184815286546001818101895560008981528481209551600290930290950191825591519082015586548684528188019092529290912055611509565b82856000016001830381548110613ef857fe5b9060005260206000209060020201600101819055506000915050611509565b60008181526001830160205260408120548015613fd35783546000198083019190810190600090879083908110613f4a57fe5b9060005260206000200154905080876000018481548110613f6757fe5b600091825260208083209091019290925582815260018981019092526040902090840190558654879080613f9757fe5b60019003818190600052602060002001600090559055866001016000878152602001908152602001600020600090556001945050505050610dbb565b6000915050610dbb565b3b151590565b60008181526001830160205260408120548015613fd3578354600019808301919081019060009087908390811061401657fe5b906000526020600020906002020190508087600001848154811061403657fe5b60009182526020808320845460029093020191825560019384015491840191909155835482528983019052604090209084019055865487908061407557fe5b6000828152602080822060026000199094019384020182815560019081018390559290935588815289820190925260408220919091559450610dbb9350505050565b6000815183511480156115095750508051602091820120825192909101919091201490565b6060824710156140fe5760405162461bcd60e51b815260040161097590614d4d565b61410785613fdd565b6141235760405162461bcd60e51b81526004016109759061552d565b60006060866001600160a01b03168587604051614140919061491f565b60006040518083038185875af1925050503d806000811461417d576040519150601f19603f3d011682016040523d82523d6000602084013e614182565b606091505b509150915061419282828661419d565b979650505050505050565b606083156141ac575081611509565b8251156141bc5782518084602001fd5b8160405162461bcd60e51b81526004016109759190614a03565b604051806040016040528060008152602001600081525090565b82805482825590600052602060002090810192821561422b579160200282015b8281111561422b578251825591602001919060010190614210565b50614237929150614348565b5090565b828054828255906000526020600020908101928215614288579160200282015b828111156142885782518051614278918491602090910190614294565b509160200191906001019061425b565b5061423792915061435d565b828054600181600116156101000203166002900490600052602060002090601f016020900481019282601f106142d557805160ff191683800117855561422b565b8280016001018555821561422b579182018281111561422b578251825591602001919060010190614210565b50805460018160011615610100020316600290046000825580601f106143275750614345565b601f0160209004906000526020600020908101906143459190614348565b50565b5b808211156142375760008155600101614349565b808211156142375760006143718282614301565b5060010161435d565b600082601f83011261438a578081fd5b813561439d614398826157fb565b6157d4565b818152915060208083019084810160005b848110156143d7576143c5888484358a0101614440565b845292820192908201906001016143ae565b505050505092915050565b600082601f8301126143f2578081fd5b8135614400614398826157fb565b81815291506020808301908481018184028601820187101561442157600080fd5b60005b848110156143d757813584529282019290820190600101614424565b600082601f830112614450578081fd5b813567ffffffffffffffff811115614466578182fd5b614479601f8201601f19166020016157d4565b915080825283602082850101111561449057600080fd5b8060208401602084013760009082016020015292915050565b6000602082840312156144ba578081fd5b813561150981615847565b600080604083850312156144d7578081fd5b82356144e281615847565b915060208301356144f281615847565b809150509250929050565b600080600060608486031215614511578081fd5b833561451c81615847565b9250602084013561452c81615847565b929592945050506040919091013590565b60008060008060808587031215614552578081fd5b843561455d81615847565b9350602085013561456d81615847565b925060408501359150606085013567ffffffffffffffff81111561458f578182fd5b61459b87828801614440565b91505092959194509250565b600080604083850312156145b9578182fd5b82356145c481615847565b915060208301356144f28161585c565b600080604083850312156145e6578182fd5b82356145f181615847565b946020939093013593505050565b60006020808385031215614611578182fd5b825167ffffffffffffffff811115614627578283fd5b8301601f81018513614637578283fd5b8051614645614398826157fb565b8181528381019083850185840285018601891015614661578687fd5b8694505b83851015614683578051835260019490940193918501918501614665565b50979650505050505050565b600080600080600060a086880312156146a6578283fd5b853567ffffffffffffffff808211156146bd578485fd5b6146c989838a016143e2565b965060208801359150808211156146de578485fd5b6146ea89838a0161437a565b955060408801359150808211156146ff578485fd5b61470b89838a016143e2565b94506060880135915080821115614720578283fd5b61472c89838a016143e2565b93506080880135915080821115614741578283fd5b5061474e888289016143e2565b9150509295509295909350565b6000806040838503121561476d578182fd5b823567ffffffffffffffff80821115614784578384fd5b614790868387016143e2565b935060208501359150808211156147a5578283fd5b506147b2858286016143e2565b9150509250929050565b6000602082840312156147cd578081fd5b81356115098161585c565b6000602082840312156147e9578081fd5b81516115098161585c565b600060208284031215614805578081fd5b81356115098161586a565b600060208284031215614821578081fd5b81516115098161586a565b60006040828403121561483d578081fd5b61484760406157d4565b82518152602083015160208201528091505092915050565b600060208284031215614870578081fd5b5035919050565b600060208284031215614888578081fd5b5051919050565b600080604083850312156148a1578182fd5b50508035926020909101359150565b6000815180845260208085019450808401835b838110156148e85781516001600160a01b0316875295820195908201906001016148c3565b509495945050505050565b6000815180845261490b81602086016020860161581b565b601f01601f19169290920160200192915050565b6000825161493181846020870161581b565b9190910192915050565b6000835161494d81846020880161581b565b83519083019061496181836020880161581b565b01949350505050565b6001600160a01b0391909116815260200190565b6001600160a01b03858116825284166020820152604081018390526080606082018190526000906149b1908301846148f3565b9695505050505050565b6001600160a01b039384168152919092166020820152604081019190915260600190565b6001600160a01b03929092168252602082015260400190565b901515815260200190565b60006020825261150960208301846148f3565b60208082526022908201527f456e756d657261626c655365743a20696e646578206f7574206f6620626f756e604082015261647360f01b606082015260800190565b60208082526023908201527f4c6576656c206d757374206265203e203020616e64203c3d206d6178206c657660408201526232b61760e91b606082015260800190565b60208082526023908201527f4e6f7420656e6f756768207065726d697373696f6e7320666f7220746f6b656e60408201526210189760e91b606082015260800190565b60208082526032908201527f4552433732313a207472616e7366657220746f206e6f6e20455243373231526560408201527131b2b4bb32b91034b6b83632b6b2b73a32b960711b606082015260800190565b60208082526026908201527f4f776e61626c653a206e6577206f776e657220697320746865207a65726f206160408201526564647265737360d01b606082015260800190565b6020808252601c908201527f4552433732313a20746f6b656e20616c7265616479206d696e74656400000000604082015260600190565b6020808252604e908201527f4c6576656c2055524920617272617973206d75737420626520657175616c206960408201527f6e206e6f6e2d7a65726f206c656e67746820616e64206c6576656c2073686f7560608201526d36321039ba30b93a1030ba10181760911b608082015260a00190565b6020808252601b908201527f536166654d6174683a206164646974696f6e206f766572666c6f770000000000604082015260600190565b60208082526024908201527f4552433732313a207472616e7366657220746f20746865207a65726f206164646040820152637265737360e01b606082015260800190565b60208082526019908201527f4552433732313a20617070726f766520746f2063616c6c657200000000000000604082015260600190565b60208082526023908201527f4d6178206c6576656c2063616e277420626520686967686572207468616e203160408201526218181760e91b606082015260800190565b6020808252601e908201527f536166654d6174683a207375627472616374696f6e206f766572666c6f770000604082015260600190565b60208082526026908201527f416464726573733a20696e73756666696369656e742062616c616e636520666f6040820152651c8818d85b1b60d21b606082015260800190565b6020808252602c908201527f4552433732313a206f70657261746f7220717565727920666f72206e6f6e657860408201526b34b9ba32b73a103a37b5b2b760a11b606082015260800190565b6020808252601a908201527f536166654d6174683a206469766973696f6e206279207a65726f000000000000604082015260600190565b6020808252818101527f596f752063616e206e6f206c6f6e676572206d696e742074686973204e46542e604082015260600190565b60208082526017908201527f4e6f7420656e6f756768207065726d697373696f6e732e000000000000000000604082015260600190565b6020808252601590820152742a37b5b2b7102aa9249034b99034b73b30b634b21760591b604082015260600190565b60208082526030908201527f4e465420756e6c6f636b696e6720686173206265656e2064697361626c65642060408201526f34b71030b71032b6b2b933b2b731bc9760811b606082015260800190565b60208082526038908201527f4552433732313a20617070726f76652063616c6c6572206973206e6f74206f7760408201527f6e6572206e6f7220617070726f76656420666f7220616c6c0000000000000000606082015260800190565b6020808252602a908201527f4552433732313a2062616c616e636520717565727920666f7220746865207a65604082015269726f206164647265737360b01b606082015260800190565b6020808252600c908201526b2637b3b4b19032b93937b91760a11b604082015260600190565b6020808252603b908201527f4c6576656c206d757374206265206c6f776572207468616e206d6178206c657660408201527f656c20616e6420686967686572207468616e2063757272656e742e0000000000606082015260800190565b60208082526022908201527f456e756d657261626c654d61703a20696e646578206f7574206f6620626f756e604082015261647360f01b606082015260800190565b60208082526023908201527f4c6576656c206d757374206265206c6f776572207468616e206d6178206c657660408201526232b61760e91b606082015260800190565b6020808252818101527f4552433732313a206d696e7420746f20746865207a65726f2061646472657373604082015260600190565b6020808252604d908201527f4d6178206c6576656c20617272617973206d75737420626520657175616c206960408201527f6e206e6f6e2d7a65726f206c656e67746820616e642074696d652073686f756c60608201526c321039ba30b93a1030ba10181760991b608082015260a00190565b60208082526021908201527f536166654d6174683a206d756c7469706c69636174696f6e206f766572666c6f6040820152607760f81b606082015260800190565b6020808252602c908201527f4552433732313a20617070726f76656420717565727920666f72206e6f6e657860408201526b34b9ba32b73a103a37b5b2b760a11b606082015260800190565b6020808252602c908201527f4552433732314d657461646174613a2055524920736574206f66206e6f6e657860408201526b34b9ba32b73a103a37b5b2b760a11b606082015260800190565b6020808252818101527f4f776e61626c653a2063616c6c6572206973206e6f7420746865206f776e6572604082015260600190565b60208082526029908201527f4552433732313a207472616e73666572206f6620746f6b656e2074686174206960408201526839903737ba1037bbb760b91b606082015260800190565b6020808252602f908201527f4552433732314d657461646174613a2055524920717565727920666f72206e6f60408201526e3732bc34b9ba32b73a103a37b5b2b760891b606082015260800190565b60208082526023908201527f4e6f7420656e6f756768207065726d697373696f6e7320666f7220746f6b656e60408201526210191760e91b606082015260800190565b6020808252600b908201526a26b0bc1036b4b73a32b21760a91b604082015260600190565b60208082526021908201527f4552433732313a20617070726f76616c20746f2063757272656e74206f776e656040820152603960f91b606082015260800190565b60208082526018908201527f63616c6c6572206973206e6f7420617574686f72697a65640000000000000000604082015260600190565b6020808252601c908201527f546f6b656e20494473206d75737420626520646966666572656e742e00000000604082015260600190565b60208082526039908201527f546f6f206d75636820746f20756e6c6f636b206e61747572616c6c792c20706c60408201527f656173652063616c6c20756e6c6f636b28292066697273742e00000000000000606082015260800190565b60208082526044908201527f546f6b656e20322068617320616c7265616479206265656e206d65726765642e60408201527f2047656e2031204e4654732063616e206f6e6c79206265206d6572676564206f6060820152633731b29760e11b608082015260a00190565b60208082526031908201527f4552433732313a207472616e736665722063616c6c6572206973206e6f74206f6040820152701ddb995c881b9bdc88185c1c1c9bdd9959607a1b606082015260800190565b6020808252601d908201527f416464726573733a2063616c6c20746f206e6f6e2d636f6e7472616374000000604082015260600190565b60208082526044908201527f546f6b656e20312068617320616c7265616479206265656e206d65726765642e60408201527f2047656e2031204e4654732063616e206f6e6c79206265206d6572676564206f6060820152633731b29760e11b608082015260a00190565b6020808252602f908201527f496e697469616c207072696365206d757374206265206c6f776572207468616e60408201526e10313abc903832b9103632bb32b61760891b606082015260800190565b6020808252602a908201527f5361666545524332303a204552433230206f7065726174696f6e20646964206e6040820152691bdd081cdd58d8d9595960b21b606082015260800190565b60208082526026908201527f436f6e747261637447756172643a206f6e6520626c6f636b2c206f6e652066756040820152653731ba34b7b760d11b606082015260800190565b6020808252601690820152752a37b79032b0b9363c903a37903632bb32b6103ab81760511b604082015260600190565b60208082526025908201527f426f746820746f6b656e73206d7573742068617665207468652073616d65206f6040820152643bb732b91760d91b606082015260800190565b6020808252601c908201527f4275726e20616d6f756e74206d757374206265203c3d20313030252e00000000604082015260600190565b90815260200190565b60008382526040602083015261373760408301846148b0565b600086825285602083015260a0604083015261579a60a08301866148b0565b6001600160a01b0394909416606083015250608001529392505050565b938452602084019290925260408301521515606082015260800190565b60405181810167ffffffffffffffff811182821017156157f357600080fd5b604052919050565b600067ffffffffffffffff821115615811578081fd5b5060209081020190565b60005b8381101561583657818101518382015260200161581e565b838111156120115750506000910152565b6001600160a01b038116811461434557600080fd5b801515811461434557600080fd5b6001600160e01b03198116811461434557600080fdfe4552433732313a207472616e7366657220746f206e6f6e20455243373231526563656976657220696d706c656d656e7465724552433732313a206f776e657220717565727920666f72206e6f6e6578697374656e7420746f6b656ea26469706673582212203e855c962f0470e070fb9f1fad62d9d90e1f0bcaf856cd6d4cb19ad2f4ac823d64736f6c634300060c0033",
  "linkReferences": {},
  "deployedLinkReferences": {}
}