{
  "_format": "hh-sol-artifact-1",
  "contractName": "TheoryUnlockerGen1",
  "sourceName": "contracts/nfts/TheoryUnlockerGen1.sol",
  "abi": [
    {
      "inputs": [
        {
          "internalType": "contract IERC20",
          "name": "_buy",
          "type": "address"
        },
        {
          "internalType": "uint256",
          "name": "_initialBuy",
          "type": "uint256"
        },
        {
          "internalType": "uint256",
          "name": "_buyPerLevel",
          "type": "uint256"
        },
        {
          "internalType": "contract IERC20Lockable",
          "name": "_theory",
          "type": "address"
        },
        {
          "internalType": "address",
          "name": "_communityFund",
          "type": "address"
        },
        {
          "internalType": "contract ITheoryUnlocker",
          "name": "_gen0",
          "type": "address"
        },
        {
          "internalType": "uint256[]",
          "name": "_maxLevelTime",
          "type": "uint256[]"
        },
        {
          "internalType": "uint256[]",
          "name": "_maxLevelLevel",
          "type": "uint256[]"
        },
        {
          "internalType": "uint256[]",
          "name": "_levelURIsLevel",
          "type": "uint256[]"
        },
        {
          "internalType": "string[]",
          "name": "_levelURIsURI",
          "type": "string[]"
        },
        {
          "internalType": "uint256[]",
          "name": "_levelURIsMax",
          "type": "uint256[]"
        }
      ],
      "stateMutability": "nonpayable",
      "type": "constructor"
    },
    {
      "anonymous": false,
      "inputs": [
        {
          "indexed": true,
          "internalType": "address",
          "name": "owner",
          "type": "address"
        },
        {
          "indexed": true,
          "internalType": "address",
          "name": "approved",
          "type": "address"
        },
        {
          "indexed": true,
          "internalType": "uint256",
          "name": "tokenId",
          "type": "uint256"
        }
      ],
      "name": "Approval",
      "type": "event"
    },
    {
      "anonymous": false,
      "inputs": [
        {
          "indexed": true,
          "internalType": "address",
          "name": "owner",
          "type": "address"
        },
        {
          "indexed": true,
          "internalType": "address",
          "name": "operator",
          "type": "address"
        },
        {
          "indexed": false,
          "internalType": "bool",
          "name": "approved",
          "type": "bool"
        }
      ],
      "name": "ApprovalForAll",
      "type": "event"
    },
    {
      "anonymous": false,
      "inputs": [
        {
          "indexed": true,
          "internalType": "address",
          "name": "previousOwner",
          "type": "address"
        },
        {
          "indexed": true,
          "internalType": "address",
          "name": "newOwner",
          "type": "address"
        }
      ],
      "name": "OwnershipTransferred",
      "type": "event"
    },
    {
      "anonymous": false,
      "inputs": [
        {
          "indexed": true,
          "internalType": "address",
          "name": "from",
          "type": "address"
        },
        {
          "indexed": true,
          "internalType": "address",
          "name": "to",
          "type": "address"
        },
        {
          "indexed": true,
          "internalType": "uint256",
          "name": "tokenId",
          "type": "uint256"
        }
      ],
      "name": "Transfer",
      "type": "event"
    },
    {
      "inputs": [
        {
          "internalType": "address",
          "name": "_toAdd",
          "type": "address"
        }
      ],
      "name": "addAuthorized",
      "outputs": [],
      "stateMutability": "nonpayable",
      "type": "function"
    },
    {
      "inputs": [
        {
          "internalType": "address",
          "name": "to",
          "type": "address"
        },
        {
          "internalType": "uint256",
          "name": "tokenId",
          "type": "uint256"
        }
      ],
      "name": "approve",
      "outputs": [],
      "stateMutability": "nonpayable",
      "type": "function"
    },
    {
      "inputs": [
        {
          "internalType": "address",
          "name": "",
          "type": "address"
        }
      ],
      "name": "authorized",
      "outputs": [
        {
          "internalType": "bool",
          "name": "",
          "type": "bool"
        }
      ],
      "stateMutability": "view",
      "type": "function"
    },
    {
      "inputs": [
        {
          "internalType": "address",
          "name": "owner",
          "type": "address"
        }
      ],
      "name": "balanceOf",
      "outputs": [
        {
          "internalType": "uint256",
          "name": "",
          "type": "uint256"
        }
      ],
      "stateMutability": "view",
      "type": "function"
    },
    {
      "inputs": [],
      "name": "baseURI",
      "outputs": [
        {
          "internalType": "string",
          "name": "",
          "type": "string"
        }
      ],
      "stateMutability": "view",
      "type": "function"
    },
    {
      "inputs": [],
      "name": "buyToken",
      "outputs": [
        {
          "internalType": "contract IERC20",
          "name": "",
          "type": "address"
        }
      ],
      "stateMutability": "view",
      "type": "function"
    },
    {
      "inputs": [],
      "name": "buyTokenPerLevel",
      "outputs": [
        {
          "internalType": "uint256",
          "name": "",
          "type": "uint256"
        }
      ],
      "stateMutability": "view",
      "type": "function"
    },
    {
      "inputs": [
        {
          "internalType": "address",
          "name": "player",
          "type": "address"
        },
        {
          "internalType": "uint256",
          "name": "tokenId",
          "type": "uint256"
        }
      ],
      "name": "canUnlockAmount",
      "outputs": [
        {
          "internalType": "uint256",
          "name": "",
          "type": "uint256"
        }
      ],
      "stateMutability": "view",
      "type": "function"
    },
    {
      "inputs": [],
      "name": "communityFund",
      "outputs": [
        {
          "internalType": "address",
          "name": "",
          "type": "address"
        }
      ],
      "stateMutability": "view",
      "type": "function"
    },
    {
      "inputs": [
        {
          "internalType": "uint256",
          "name": "level",
          "type": "uint256"
        }
      ],
      "name": "costOf",
      "outputs": [
        {
          "internalType": "uint256",
          "name": "",
          "type": "uint256"
        }
      ],
      "stateMutability": "view",
      "type": "function"
    },
    {
      "inputs": [],
      "name": "disableMint",
      "outputs": [
        {
          "internalType": "bool",
          "name": "",
          "type": "bool"
        }
      ],
      "stateMutability": "view",
      "type": "function"
    },
    {
      "inputs": [
        {
          "internalType": "uint256",
          "name": "tokenId",
          "type": "uint256"
        }
      ],
      "name": "getApproved",
      "outputs": [
        {
          "internalType": "address",
          "name": "",
          "type": "address"
        }
      ],
      "stateMutability": "view",
      "type": "function"
    },
    {
      "inputs": [],
      "name": "initialPrice",
      "outputs": [
        {
          "internalType": "uint256",
          "name": "",
          "type": "uint256"
        }
      ],
      "stateMutability": "view",
      "type": "function"
    },
    {
      "inputs": [
        {
          "internalType": "address",
          "name": "owner",
          "type": "address"
        },
        {
          "internalType": "address",
          "name": "operator",
          "type": "address"
        }
      ],
      "name": "isApprovedForAll",
      "outputs": [
        {
          "internalType": "bool",
          "name": "",
          "type": "bool"
        }
      ],
      "stateMutability": "view",
      "type": "function"
    },
    {
      "inputs": [
        {
          "internalType": "uint256",
          "name": "level",
          "type": "uint256"
        }
      ],
      "name": "levelURI",
      "outputs": [
        {
          "internalType": "string",
          "name": "",
          "type": "string"
        }
      ],
      "stateMutability": "view",
      "type": "function"
    },
    {
      "inputs": [
        {
          "internalType": "uint256",
          "name": "",
          "type": "uint256"
        }
      ],
      "name": "levelURIsLevel",
      "outputs": [
        {
          "internalType": "uint256",
          "name": "",
          "type": "uint256"
        }
      ],
      "stateMutability": "view",
      "type": "function"
    },
    {
      "inputs": [
        {
          "internalType": "uint256",
          "name": "",
          "type": "uint256"
        }
      ],
      "name": "levelURIsMax",
      "outputs": [
        {
          "internalType": "uint256",
          "name": "",
          "type": "uint256"
        }
      ],
      "stateMutability": "view",
      "type": "function"
    },
    {
      "inputs": [
        {
          "internalType": "uint256",
          "name": "",
          "type": "uint256"
        }
      ],
      "name": "levelURIsSupply",
      "outputs": [
        {
          "internalType": "uint256",
          "name": "",
          "type": "uint256"
        }
      ],
      "stateMutability": "view",
      "type": "function"
    },
    {
      "inputs": [
        {
          "internalType": "uint256",
          "name": "",
          "type": "uint256"
        }
      ],
      "name": "levelURIsURI",
      "outputs": [
        {
          "internalType": "string",
          "name": "",
          "type": "string"
        }
      ],
      "stateMutability": "view",
      "type": "function"
    },
    {
      "inputs": [
        {
          "internalType": "uint256",
          "name": "tokenId",
          "type": "uint256"
        }
      ],
      "name": "levelUp",
      "outputs": [],
      "stateMutability": "nonpayable",
      "type": "function"
    },
    {
      "inputs": [],
      "name": "maxLevel",
      "outputs": [
        {
          "internalType": "uint256",
          "name": "",
          "type": "uint256"
        }
      ],
      "stateMutability": "view",
      "type": "function"
    },
    {
      "inputs": [
        {
          "internalType": "uint256",
          "name": "",
          "type": "uint256"
        }
      ],
      "name": "maxLevelLevel",
      "outputs": [
        {
          "internalType": "uint256",
          "name": "",
          "type": "uint256"
        }
      ],
      "stateMutability": "view",
      "type": "function"
    },
    {
      "inputs": [
        {
          "internalType": "uint256",
          "name": "",
          "type": "uint256"
        }
      ],
      "name": "maxLevelTime",
      "outputs": [
        {
          "internalType": "uint256",
          "name": "",
          "type": "uint256"
        }
      ],
      "stateMutability": "view",
      "type": "function"
    },
    {
      "inputs": [
        {
          "internalType": "uint256",
          "name": "level",
          "type": "uint256"
        }
      ],
      "name": "maxSupply",
      "outputs": [
        {
          "internalType": "uint256",
          "name": "",
          "type": "uint256"
        }
      ],
      "stateMutability": "view",
      "type": "function"
    },
    {
      "inputs": [
        {
          "internalType": "uint256",
          "name": "tokenId1",
          "type": "uint256"
        },
        {
          "internalType": "uint256",
          "name": "tokenId2",
          "type": "uint256"
        }
      ],
      "name": "merge",
      "outputs": [
        {
          "internalType": "uint256",
          "name": "",
          "type": "uint256"
        }
      ],
      "stateMutability": "nonpayable",
      "type": "function"
    },
    {
      "inputs": [
        {
          "internalType": "uint256",
          "name": "level",
          "type": "uint256"
        }
      ],
      "name": "mint",
      "outputs": [
        {
          "internalType": "uint256",
          "name": "",
          "type": "uint256"
        }
      ],
      "stateMutability": "nonpayable",
      "type": "function"
    },
    {
      "inputs": [],
      "name": "name",
      "outputs": [
        {
          "internalType": "string",
          "name": "",
          "type": "string"
        }
      ],
      "stateMutability": "view",
      "type": "function"
    },
    {
      "inputs": [
        {
          "internalType": "uint256",
          "name": "tokenId",
          "type": "uint256"
        }
      ],
      "name": "nextLevelTime",
      "outputs": [
        {
          "internalType": "uint256",
          "name": "",
          "type": "uint256"
        }
      ],
      "stateMutability": "view",
      "type": "function"
    },
    {
      "inputs": [
        {
          "internalType": "uint256",
          "name": "tokenId",
          "type": "uint256"
        }
      ],
      "name": "nftUnlock",
      "outputs": [],
      "stateMutability": "nonpayable",
      "type": "function"
    },
    {
      "inputs": [],
      "name": "owner",
      "outputs": [
        {
          "internalType": "address",
          "name": "",
          "type": "address"
        }
      ],
      "stateMutability": "view",
      "type": "function"
    },
    {
      "inputs": [
        {
          "internalType": "uint256",
          "name": "tokenId",
          "type": "uint256"
        }
      ],
      "name": "ownerOf",
      "outputs": [
        {
          "internalType": "address",
          "name": "",
          "type": "address"
        }
      ],
      "stateMutability": "view",
      "type": "function"
    },
    {
      "inputs": [
        {
          "internalType": "address",
          "name": "_toRemove",
          "type": "address"
        }
      ],
      "name": "removeAuthorized",
      "outputs": [],
      "stateMutability": "nonpayable",
      "type": "function"
    },
    {
      "inputs": [],
      "name": "renounceOwnership",
      "outputs": [],
      "stateMutability": "nonpayable",
      "type": "function"
    },
    {
      "inputs": [
        {
          "internalType": "address",
          "name": "from",
          "type": "address"
        },
        {
          "internalType": "address",
          "name": "to",
          "type": "address"
        },
        {
          "internalType": "uint256",
          "name": "tokenId",
          "type": "uint256"
        }
      ],
      "name": "safeTransferFrom",
      "outputs": [],
      "stateMutability": "nonpayable",
      "type": "function"
    },
    {
      "inputs": [
        {
          "internalType": "address",
          "name": "from",
          "type": "address"
        },
        {
          "internalType": "address",
          "name": "to",
          "type": "address"
        },
        {
          "internalType": "uint256",
          "name": "tokenId",
          "type": "uint256"
        },
        {
          "internalType": "bytes",
          "name": "_data",
          "type": "bytes"
        }
      ],
      "name": "safeTransferFrom",
      "outputs": [],
      "stateMutability": "nonpayable",
      "type": "function"
    },
    {
      "inputs": [
        {
          "internalType": "address",
          "name": "operator",
          "type": "address"
        },
        {
          "internalType": "bool",
          "name": "approved",
          "type": "bool"
        }
      ],
      "name": "setApprovalForAll",
      "outputs": [],
      "stateMutability": "nonpayable",
      "type": "function"
    },
    {
      "inputs": [
        {
          "internalType": "contract IERC20",
          "name": "_buy",
          "type": "address"
        }
      ],
      "name": "setBuyToken",
      "outputs": [],
      "stateMutability": "nonpayable",
      "type": "function"
    },
    {
      "inputs": [
        {
          "internalType": "address",
          "name": "_fund",
          "type": "address"
        }
      ],
      "name": "setCommunityFund",
      "outputs": [],
      "stateMutability": "nonpayable",
      "type": "function"
    },
    {
      "inputs": [
        {
          "internalType": "uint256",
          "name": "tokenId",
          "type": "uint256"
        },
        {
          "internalType": "uint256",
          "name": "time",
          "type": "uint256"
        }
      ],
      "name": "setCreationTime",
      "outputs": [],
      "stateMutability": "nonpayable",
      "type": "function"
    },
    {
      "inputs": [
        {
          "internalType": "bool",
          "name": "_disable",
          "type": "bool"
        }
      ],
      "name": "setDisableMint",
      "outputs": [],
      "stateMutability": "nonpayable",
      "type": "function"
    },
    {
      "inputs": [
        {
          "internalType": "uint256",
          "name": "tokenId",
          "type": "uint256"
        },
        {
          "internalType": "uint256",
          "name": "time",
          "type": "uint256"
        }
      ],
      "name": "setLastLevelTime",
      "outputs": [],
      "stateMutability": "nonpayable",
      "type": "function"
    },
    {
      "inputs": [
        {
          "internalType": "address",
          "name": "user",
          "type": "address"
        },
        {
          "internalType": "uint256",
          "name": "amount",
          "type": "uint256"
        }
      ],
      "name": "setLastLockAmount",
      "outputs": [],
      "stateMutability": "nonpayable",
      "type": "function"
    },
    {
      "inputs": [
        {
          "internalType": "address",
          "name": "user",
          "type": "address"
        },
        {
          "internalType": "uint256",
          "name": "time",
          "type": "uint256"
        }
      ],
      "name": "setLastUnlockTime",
      "outputs": [],
      "stateMutability": "nonpayable",
      "type": "function"
    },
    {
      "inputs": [
        {
          "internalType": "uint256[]",
          "name": "_levelURIsLevel",
          "type": "uint256[]"
        },
        {
          "internalType": "string[]",
          "name": "_levelURIsURI",
          "type": "string[]"
        },
        {
          "internalType": "uint256[]",
          "name": "_levelURIsMax",
          "type": "uint256[]"
        },
        {
          "internalType": "uint256[]",
          "name": "_levelURIsSupply",
          "type": "uint256[]"
        }
      ],
      "name": "setLevelURIs",
      "outputs": [],
      "stateMutability": "nonpayable",
      "type": "function"
    },
    {
      "inputs": [
        {
          "internalType": "uint256[]",
          "name": "_maxLevelTime",
          "type": "uint256[]"
        },
        {
          "internalType": "uint256[]",
          "name": "_maxLevelLevel",
          "type": "uint256[]"
        }
      ],
      "name": "setMaxLevel",
      "outputs": [],
      "stateMutability": "nonpayable",
      "type": "function"
    },
    {
      "inputs": [
        {
          "internalType": "uint256",
          "name": "_initial",
          "type": "uint256"
        },
        {
          "internalType": "uint256",
          "name": "_perLevel",
          "type": "uint256"
        }
      ],
      "name": "setPrices",
      "outputs": [],
      "stateMutability": "nonpayable",
      "type": "function"
    },
    {
      "inputs": [
        {
          "internalType": "uint256",
          "name": "_time",
          "type": "uint256"
        }
      ],
      "name": "setTimeToLevel",
      "outputs": [],
      "stateMutability": "nonpayable",
      "type": "function"
    },
    {
      "inputs": [
        {
          "internalType": "uint256",
          "name": "tokenId",
          "type": "uint256"
        },
        {
          "internalType": "uint256",
          "name": "level",
          "type": "uint256"
        }
      ],
      "name": "setTokenLevel",
      "outputs": [],
      "stateMutability": "nonpayable",
      "type": "function"
    },
    {
      "inputs": [
        {
          "internalType": "uint256",
          "name": "level",
          "type": "uint256"
        }
      ],
      "name": "supply",
      "outputs": [
        {
          "internalType": "uint256",
          "name": "",
          "type": "uint256"
        }
      ],
      "stateMutability": "view",
      "type": "function"
    },
    {
      "inputs": [
        {
          "internalType": "bytes4",
          "name": "interfaceId",
          "type": "bytes4"
        }
      ],
      "name": "supportsInterface",
      "outputs": [
        {
          "internalType": "bool",
          "name": "",
          "type": "bool"
        }
      ],
      "stateMutability": "view",
      "type": "function"
    },
    {
      "inputs": [],
      "name": "symbol",
      "outputs": [
        {
          "internalType": "string",
          "name": "",
          "type": "string"
        }
      ],
      "stateMutability": "view",
      "type": "function"
    },
    {
      "inputs": [],
      "name": "theory",
      "outputs": [
        {
          "internalType": "contract IERC20Lockable",
          "name": "",
          "type": "address"
        }
      ],
      "stateMutability": "view",
      "type": "function"
    },
    {
      "inputs": [
        {
          "internalType": "uint256",
          "name": "tokenId",
          "type": "uint256"
        }
      ],
      "name": "timeLeftToLevel",
      "outputs": [
        {
          "internalType": "uint256",
          "name": "",
          "type": "uint256"
        }
      ],
      "stateMutability": "view",
      "type": "function"
    },
    {
      "inputs": [],
      "name": "timeToLevel",
      "outputs": [
        {
          "internalType": "uint256",
          "name": "",
          "type": "uint256"
        }
      ],
      "stateMutability": "view",
      "type": "function"
    },
    {
      "inputs": [
        {
          "internalType": "uint256",
          "name": "index",
          "type": "uint256"
        }
      ],
      "name": "tokenByIndex",
      "outputs": [
        {
          "internalType": "uint256",
          "name": "",
          "type": "uint256"
        }
      ],
      "stateMutability": "view",
      "type": "function"
    },
    {
      "inputs": [
        {
          "internalType": "uint256",
          "name": "",
          "type": "uint256"
        }
      ],
      "name": "tokenInfo",
      "outputs": [
        {
          "internalType": "uint256",
          "name": "level",
          "type": "uint256"
        },
        {
          "internalType": "uint256",
          "name": "creationTime",
          "type": "uint256"
        },
        {
          "internalType": "uint256",
          "name": "lastLevelTime",
          "type": "uint256"
        },
        {
          "internalType": "bool",
          "name": "merged",
          "type": "bool"
        }
      ],
      "stateMutability": "view",
      "type": "function"
    },
    {
      "inputs": [
        {
          "internalType": "address",
          "name": "owner",
          "type": "address"
        },
        {
          "internalType": "uint256",
          "name": "index",
          "type": "uint256"
        }
      ],
      "name": "tokenOfOwnerByIndex",
      "outputs": [
        {
          "internalType": "uint256",
          "name": "",
          "type": "uint256"
        }
      ],
      "stateMutability": "view",
      "type": "function"
    },
    {
      "inputs": [
        {
          "internalType": "uint256",
          "name": "tokenId",
          "type": "uint256"
        }
      ],
      "name": "tokenURI",
      "outputs": [
        {
          "internalType": "string",
          "name": "",
          "type": "string"
        }
      ],
      "stateMutability": "view",
      "type": "function"
    },
    {
      "inputs": [],
      "name": "totalSupply",
      "outputs": [
        {
          "internalType": "uint256",
          "name": "",
          "type": "uint256"
        }
      ],
      "stateMutability": "view",
      "type": "function"
    },
    {
      "inputs": [
        {
          "internalType": "address",
          "name": "from",
          "type": "address"
        },
        {
          "internalType": "address",
          "name": "to",
          "type": "address"
        },
        {
          "internalType": "uint256",
          "name": "tokenId",
          "type": "uint256"
        }
      ],
      "name": "transferFrom",
      "outputs": [],
      "stateMutability": "nonpayable",
      "type": "function"
    },
    {
      "inputs": [
        {
          "internalType": "address",
          "name": "newOwner",
          "type": "address"
        }
      ],
      "name": "transferOwnership",
      "outputs": [],
      "stateMutability": "nonpayable",
      "type": "function"
    }
  ],
  "bytecode": "0x60806040523480156200001157600080fd5b506040516200581b3803806200581b833981016040819052620000349162000701565b604080518082018252601581527f5448454f525920556e6c6f636b65722047656e20310000000000000000000000602080830191909152825180840190935260048352635455473160e01b9083015290620000966301ffc9a760e01b620003d1565b8151620000ab90600690602085019062000427565b508051620000c190600790602084019062000427565b50620000d46380ac58cd60e01b620003d1565b620000e6635b5e139f60e01b620003d1565b620000f863780e9d6360e01b620003d1565b50600090506200010762000423565b600a80546001600160a01b0319166001600160a01b038316908117909155604051919250906000907f8be0079c531659141344cd1fd0a4f28419497f9722a3daafe3b4186f6b6457e0908290a350601580546001600160a01b0319166001600160a01b038d16179055888a10156200019c5760405162461bcd60e51b81526004016200019390620009c1565b60405180910390fd5b60168a90556017899055825115801590620001cc575082600081518110620001c057fe5b60200260200101516000145b8015620001da575082518251145b8015620001e8575082518151145b620002075760405162461bcd60e51b8152600401620001939062000897565b600085511180156200022e5750846000815181106200022257fe5b60200260200101516000145b80156200023c575084518451145b6200025b5760405162461bcd60e51b815260040162000193906200094e565b83516000905b80821015620002ae5760648683815181106200027957fe5b60200260200101511115620002a25760405162461bcd60e51b815260040162000193906200090b565b60018201915062000261565b8451620002c390600f906020880190620004ac565b508351620002d9906010906020870190620004e9565b508251620002ef906011906020860190620004ac565b5050600f54600091505b808210156200034557601280546001818101835560009283527fbb8a6a4669ba250d26cd7a459eca9d215f8307e33aebe50379bc5a3617ec3444909101919091559190910190620002f9565b86516200035a9060139060208a0190620004ac565b50855162000370906014906020890190620004ac565b5050601880546001600160a01b03199081166001600160a01b039a8b16179091556203f480601955601a805482169a8a169a909a1760ff60a01b19169099555050601b805490971694909516939093179094555062000aae95505050505050565b6001600160e01b03198082161415620003fe5760405162461bcd60e51b8152600401620001939062000860565b6001600160e01b0319166000908152602081905260409020805460ff19166001179055565b3390565b828054600181600116156101000203166002900490600052602060002090601f016020900481019282601f106200046a57805160ff19168380011785556200049a565b828001600101855582156200049a579182015b828111156200049a5782518255916020019190600101906200047d565b50620004a892915062000549565b5090565b8280548282559060005260206000209081019282156200049a57916020028201828111156200049a5782518255916020019190600101906200047d565b8280548282559060005260206000209081019282156200053b579160200282015b828111156200053b57825180516200052a91849160209091019062000427565b50916020019190600101906200050a565b50620004a892915062000560565b5b80821115620004a857600081556001016200054a565b80821115620004a857600062000577828262000581565b5060010162000560565b50805460018160011615610100020316600290046000825580601f10620005a95750620005c9565b601f016020900490600052602060002090810190620005c9919062000549565b50565b80516001600160a01b0381168114620005e457600080fd5b92915050565b600082601f830112620005fb578081fd5b8151620006126200060c8262000a37565b62000a10565b818152915060208083019084810160005b8481101562000691578151870188603f8201126200064057600080fd5b83810151620006536200060c8262000a57565b81815260408b818486010111156200066a57600080fd5b6200067b8388840183870162000a7b565b5086525050928201929082019060010162000623565b505050505092915050565b600082601f830112620006ad578081fd5b8151620006be6200060c8262000a37565b818152915060208083019084810181840286018201871015620006e057600080fd5b60005b848110156200069157815184529282019290820190600101620006e3565b60008060008060008060008060008060006101608c8e03121562000723578687fd5b6200072f8d8d620005cc565b9a5060208c0151995060408c015198506200074e8d60608e01620005cc565b97506200075f8d60808e01620005cc565b9650620007708d60a08e01620005cc565b60c08d01519096506001600160401b038111156200078c578586fd5b6200079a8e828f016200069c565b60e08e015190965090506001600160401b03811115620007b8578485fd5b620007c68e828f016200069c565b6101008e015190955090506001600160401b03811115620007e5578384fd5b620007f38e828f016200069c565b6101208e015190945090506001600160401b0381111562000812578283fd5b620008208e828f01620005ea565b6101408e015190935090506001600160401b038111156200083f578182fd5b6200084d8e828f016200069c565b9150509295989b509295989b9093969950565b6020808252601c908201527f4552433136353a20696e76616c696420696e7465726661636520696400000000604082015260600190565b6020808252604e908201527f4c6576656c2055524920617272617973206d75737420626520657175616c206960408201527f6e206e6f6e2d7a65726f206c656e67746820616e64206c6576656c2073686f7560608201526d36321039ba30b93a1030ba10181760911b608082015260a00190565b60208082526023908201527f4d6178206c6576656c2063616e277420626520686967686572207468616e203160408201526218181760e91b606082015260800190565b6020808252604d908201527f4d6178206c6576656c20617272617973206d75737420626520657175616c206960408201527f6e206e6f6e2d7a65726f206c656e67746820616e642074696d652073686f756c60608201526c321039ba30b93a1030ba10181760991b608082015260a00190565b6020808252602f908201527f496e697469616c207072696365206d757374206265206c6f776572207468616e60408201526e10313abc903832b9103632bb32b61760891b606082015260800190565b6040518181016001600160401b038111828210171562000a2f57600080fd5b604052919050565b60006001600160401b0382111562000a4d578081fd5b5060209081020190565b60006001600160401b0382111562000a6d578081fd5b50601f01601f191660200190565b60005b8381101562000a9857818101518382015260200162000a7e565b8381111562000aa8576000848401525b50505050565b614d5d8062000abe6000396000f3fe608060405234801561001057600080fd5b50600436106103ae5760003560e01c80635b2f4ed4116101f4578063b88d4fde1161011a578063d1c2babb116100ad578063e985e9c51161007c578063e985e9c5146107a3578063ec3ddf30146107b6578063f2fde38b146107c9578063fd326592146107dc576103ae565b8063d1c2babb14610757578063db357c301461076a578063dd289dcb1461077d578063df87026214610790576103ae565b8063cc06c359116100e9578063cc06c35914610706578063cc33c8751461070e578063cc67d1ae14610731578063cf1c316a14610744576103ae565b8063b88d4fde146106ba578063b9181611146106cd578063c87b56dd146106e0578063ca60567a146106f3576103ae565b8063869f759411610192578063a0712d6811610161578063a0712d6814610679578063a22cb4651461068c578063a48217191461069f578063aa08279c146106a7576103ae565b8063869f7594146106435780638a1165b3146106565780638da5cb5b1461066957806395d89b4114610671576103ae565b80637001e2a6116101ce5780637001e2a61461060257806370a08231146106155780637116712214610628578063715018a61461063b576103ae565b80635b2f4ed4146105d45780636352211e146105e75780636c0360eb146105fa576103ae565b8063257c739b116102d95780633bcafb631161027757806347aebf9a1161024657806347aebf9a14610593578063485d7d941461059b5780634f6ccce7146105ae57806358df3825146105c1576103ae565b80633bcafb63146105525780633c32a450146105655780633f684d381461056d57806342842e0e14610580576103ae565b806334452f38116102b357806334452f3814610511578063354030231461051957806337339a161461052c57806338d170991461053f576103ae565b8063257c739b146104e35780632eb552f3146104eb5780632f745c59146104fe576103ae565b8063095ea7b31161035157806318160ddd1161032057806318160ddd146104ad5780631b6da2d7146104b55780631d0806ae146104c857806323b872dd146104d0576103ae565b8063095ea7b3146104615780630a842433146104745780630b744f3d146104875780630ce90ec21461049a576103ae565b806306fdde031161038d57806306fdde0314610406578063081437961461041b578063081812fc1461043b57806308a5510c1461044e576103ae565b8062f380f4146103b357806301ffc9a7146103d157806305fefda7146103f1575b600080fd5b6103bb6107ef565b6040516103c89190613f4b565b60405180910390f35b6103e46103df366004613e18565b6107fe565b6040516103c89190613fd9565b6104046103ff366004613eb3565b610821565b005b61040e61089e565b6040516103c89190613fe4565b61042e610429366004613e83565b610934565b6040516103c89190614bfa565b6103bb610449366004613e83565b610952565b61040461045c366004613de0565b610995565b61040461046f366004613c6a565b6109fc565b61042e610482366004613c6a565b610a94565b61042e610495366004613e83565b610cb6565b6104046104a8366004613e83565b610cc3565b61042e610e3d565b6104046104c3366004613c95565b610e4e565b61042e610f55565b6104046104de366004613b93565b610f5b565b61042e610f93565b61042e6104f9366004613e83565b610f99565b61042e61050c366004613c6a565b610fa6565b6103e4610fcf565b61042e610527366004613e83565b610fdf565b61040461053a366004613b3f565b611048565b61040e61054d366004613e83565b6110b3565b61042e610560366004613e83565b6111a9565b6103bb6111b6565b61042e61057b366004613e83565b6111c5565b61040461058e366004613b93565b611204565b61042e61121f565b6104046105a9366004613b3f565b611225565b61042e6105bc366004613e83565b61129b565b6104046105cf366004613c6a565b6112b1565b61040e6105e2366004613e83565b611362565b6103bb6105f5366004613e83565b611408565b61040e611430565b610404610610366004613c6a565b611491565b61042e610623366004613b3f565b61150c565b610404610636366004613eb3565b611555565b6104046115b3565b61042e610651366004613e83565b61163c565b610404610664366004613b3f565b611689565b6103bb6116f4565b61040e611703565b61042e610687366004613e83565b611764565b61040461069a366004613c3d565b611923565b6103bb6119f1565b6104046106b5366004613d7f565b611a00565b6104046106c8366004613bd3565b611b0b565b6103e46106db366004613b3f565b611b4a565b61040e6106ee366004613e83565b611b5f565b610404610701366004613eb3565b611ca5565b61042e611d33565b61072161071c366004613e83565b611d9b565b6040516103c89493929190614c03565b61040461073f366004613eb3565b611dc5565b610404610752366004613b3f565b611e23565b61042e610765366004613eb3565b611e86565b610404610778366004613e83565b612191565b61040461078b366004613e83565b6128d7565b61042e61079e366004613e83565b612925565b6103e46107b1366004613b5b565b612932565b61042e6107c4366004613e83565b612960565b6104046107d7366004613b3f565b612981565b61042e6107ea366004613e83565b612a42565b6018546001600160a01b031681565b6001600160e01b0319811660009081526020819052604090205460ff165b919050565b336000908152600b602052604090205460ff168061084e5750336108436116f4565b6001600160a01b0316145b6108735760405162461bcd60e51b815260040161086a906148b6565b60405180910390fd5b808210156108935760405162461bcd60e51b815260040161086a90614aa6565b601691909155601755565b60068054604080516020601f600260001961010060018816150201909516949094049384018190048102820181019092528281526060939092909183018282801561092a5780601f106108ff5761010080835404028352916020019161092a565b820191906000526020600020905b81548152906001019060200180831161090d57829003601f168201915b5050505050905090565b6014818154811061094157fe5b600091825260209091200154905081565b600061095d82612a55565b6109795760405162461bcd60e51b815260040161086a906146cd565b506000908152600460205260409020546001600160a01b031690565b336000908152600b602052604090205460ff16806109c25750336109b76116f4565b6001600160a01b0316145b6109de5760405162461bcd60e51b815260040161086a906148b6565b601a8054911515600160a01b0260ff60a01b19909216919091179055565b6000610a0782611408565b9050806001600160a01b0316836001600160a01b03161415610a3b5760405162461bcd60e51b815260040161086a90614875565b806001600160a01b0316610a4d612a62565b6001600160a01b03161480610a695750610a69816107b1612a62565b610a855760405162461bcd60e51b815260040161086a90614492565b610a8f8383612a66565b505050565b6000610a9e6138c4565b601b54604051630cacd00160e11b81526001600160a01b0390911690631959a00290610ace908790600401613f4b565b604080518083038186803b158015610ae557600080fd5b505afa158015610af9573d6000803e3d6000fd5b505050506040513d601f19601f82011682018060405250810190610b1d9190613e50565b601a54604051635a46d3b560e01b81529192506000916001600160a01b0390911690635a46d3b590610b53908890600401613f4b565b60206040518083038186803b158015610b6b57600080fd5b505afa158015610b7f573d6000803e3d6000fd5b505050506040513d601f19601f82011682018060405250810190610ba39190613e9b565b905080610bb557600092505050610cb0565b601a5460405163010158bb60e51b81526000916001600160a01b03169063202b176090610be6908990600401613f4b565b60206040518083038186803b158015610bfe57600080fd5b505afa158015610c12573d6000803e3d6000fd5b505050506040513d601f19601f82011682018060405250810190610c369190613e9b565b9050808211610c4b5760009350505050610cb0565b610c558282612ad4565b915082602001518211610c6e5760009350505050610cb0565b6020830151610c7e908390612ad4565b6000868152600e602052604081205491935090610ca990606490610ca3908690612afc565b90612b36565b9450505050505b92915050565b6012818154811061094157fe5b610ccb612b68565b15610ce85760405162461bcd60e51b815260040161086a90614b3f565b610cf0612b89565b15610d0d5760405162461bcd60e51b815260040161086a90614b3f565b33610d1782611408565b6001600160a01b03161480610d3b5750336000908152600b602052604090205460ff165b80610d55575033610d4a6116f4565b6001600160a01b0316145b610d715760405162461bcd60e51b815260040161086a9061442c565b6000818152600e60205260409020610d87611d33565b815410610da65760405162461bcd60e51b815260040161086a906145a1565b6000610dc16019548360020154612baa90919063ffffffff16565b905080421015610de35760405162461bcd60e51b815260040161086a90614b85565b600282018190558154600090610dfa906001612baa565b9092555050436000908152600c602090815260408083203284529091528082208054600160ff199182168117909255338452919092208054909116909117905550565b6000610e496002612bcf565b905090565b336000908152600b602052604090205460ff1680610e7b575033610e706116f4565b6001600160a01b0316145b610e975760405162461bcd60e51b815260040161086a906148b6565b60008451118015610ebc575083600081518110610eb057fe5b60200260200101516000145b8015610ec9575083518351145b8015610ed6575083518251145b8015610ee3575083518151145b610eff5760405162461bcd60e51b815260040161086a9061418e565b8351610f1290600f9060208701906138de565b508251610f26906010906020860190613929565b508151610f3a9060119060208501906138de565b508051610f4e9060129060208401906138de565b5050505050565b60165481565b610f6c610f66612a62565b82612bda565b610f885760405162461bcd60e51b815260040161086a906149b4565b610a8f838383612c5f565b60175481565b600f818154811061094157fe5b6001600160a01b0382166000908152600160205260408120610fc89083612d6d565b9392505050565b601a54600160a01b900460ff1681565b600f54600090819080825b811561103e57600182039050600f818154811061100357fe5b90600052602060002001548610611033576012818154811061102157fe5b9060005260206000200154935061103e565b600182039150610fea565b5091949350505050565b336000908152600b602052604090205460ff168061107557503361106a6116f4565b6001600160a01b0316145b6110915760405162461bcd60e51b815260040161086a906148b6565b601880546001600160a01b0319166001600160a01b0392909216919091179055565b60408051602081019091526000808252600f546060929181905b811561103e57600182039050600f81815481106110e657fe5b9060005260206000200154861061119e576010818154811061110457fe5b600091825260209182902001805460408051601f60026000196101006001871615020190941693909304928301859004850281018501909152818152928301828280156111925780601f1061116757610100808354040283529160200191611192565b820191906000526020600020905b81548152906001019060200180831161117557829003601f168201915b5050505050935061103e565b6001820391506110cd565b6013818154811061094157fe5b601a546001600160a01b031681565b6019546000828152600e6020526040812060020154909182916111e791612baa565b90508042106111fa57600091505061081c565b610fc88142612ad4565b610a8f83838360405180602001604052806000815250611b0b565b60195481565b61122d612a62565b6001600160a01b031661123e6116f4565b6001600160a01b0316146112645760405162461bcd60e51b815260040161086a90614765565b6001600160a01b03811633141561127a57600080fd5b6001600160a01b03166000908152600b60205260409020805460ff19169055565b6000806112a9600284612d79565b509392505050565b336000908152600b602052604090205460ff16806112de5750336112d36116f4565b6001600160a01b0316145b6112fa5760405162461bcd60e51b815260040161086a906148b6565b601b546040516358df382560e01b81526001600160a01b03909116906358df38259061132c9085908590600401613fc0565b600060405180830381600087803b15801561134657600080fd5b505af115801561135a573d6000803e3d6000fd5b505050505050565b6010818154811061136f57fe5b600091825260209182902001805460408051601f60026000196101006001871615020190941693909304928301859004850281018501909152818152935090918301828280156114005780601f106113d557610100808354040283529160200191611400565b820191906000526020600020905b8154815290600101906020018083116113e357829003601f168201915b505050505081565b6000610cb082604051806060016040528060298152602001614cff6029913960029190612d95565b60098054604080516020601f600260001961010060018816150201909516949094049384018190048102820181019092528281526060939092909183018282801561092a5780601f106108ff5761010080835404028352916020019161092a565b336000908152600b602052604090205460ff16806114be5750336114b36116f4565b6001600160a01b0316145b6114da5760405162461bcd60e51b815260040161086a906148b6565b601b54604051633800f15360e11b81526001600160a01b0390911690637001e2a69061132c9085908590600401613fc0565b60006001600160a01b0382166115345760405162461bcd60e51b815260040161086a906144ef565b6001600160a01b0382166000908152600160205260409020610cb090612bcf565b336000908152600b602052604090205460ff16806115825750336115776116f4565b6001600160a01b0316145b61159e5760405162461bcd60e51b815260040161086a906148b6565b6000918252600e602052604090912060010155565b6115bb612a62565b6001600160a01b03166115cc6116f4565b6001600160a01b0316146115f25760405162461bcd60e51b815260040161086a90614765565b600a546040516000916001600160a01b0316907f8be0079c531659141344cd1fd0a4f28419497f9722a3daafe3b4186f6b6457e0908390a3600a80546001600160a01b0319169055565b600f54600090819080825b811561103e57600182039050600f818154811061166057fe5b9060005260206000200154861061167e576011818154811061102157fe5b600182039150611647565b336000908152600b602052604090205460ff16806116b65750336116ab6116f4565b6001600160a01b0316145b6116d25760405162461bcd60e51b815260040161086a906148b6565b601580546001600160a01b0319166001600160a01b0392909216919091179055565b600a546001600160a01b031690565b60078054604080516020601f600260001961010060018816150201909516949094049384018190048102820181019092528281526060939092909183018282801561092a5780601f106108ff5761010080835404028352916020019161092a565b600061176e612b68565b1561178b5760405162461bcd60e51b815260040161086a90614b3f565b611793612b89565b156117b05760405162461bcd60e51b815260040161086a90614b3f565b601a54600160a01b900460ff16156117da5760405162461bcd60e51b815260040161086a906143f7565b6000821180156117f157506117ed611d33565b8211155b61180d5760405162461bcd60e51b815260040161086a90614039565b33600061183361182a611821866001612ad4565b60175490612afc565b60165490612baa565b601854601554919250611855916001600160a01b039081169133911684612da2565b61185f600d612dfa565b600061186b600d612e03565b6000818152600e60205260409020426001808301829055600283019190915591925090611899908790612e07565b6118a38483612e68565b85815560606118b1876110b3565b905060008151116118d45760405162461bcd60e51b815260040161086a90614463565b6118de8382612f2c565b5050436000908152600c602090815260408083203284529091528082208054600160ff1991821681179092553384529190922080549091169091179055949350505050565b61192b612a62565b6001600160a01b0316826001600160a01b0316141561195c5760405162461bcd60e51b815260040161086a9061427d565b8060056000611969612a62565b6001600160a01b03908116825260208083019390935260409182016000908120918716808252919093529120805460ff1916921515929092179091556119ad612a62565b6001600160a01b03167f17307eab39ab6107e8899845ad3d59bd9653f200f220920489ca2b5937696c31836040516119e59190613fd9565b60405180910390a35050565b6015546001600160a01b031681565b336000908152600b602052604090205460ff1680611a2d575033611a226116f4565b6001600160a01b0316145b611a495760405162461bcd60e51b815260040161086a906148b6565b60008251118015611a6e575081600081518110611a6257fe5b60200260200101516000145b8015611a7b575081518151145b611a975760405162461bcd60e51b815260040161086a90614619565b80516000905b80821015611ae4576064838381518110611ab357fe5b60200260200101511115611ad95760405162461bcd60e51b815260040161086a906142b4565b600182019150611a9d565b8351611af79060139060208701906138de565b508251610f4e9060149060208601906138de565b611b1c611b16612a62565b83612bda565b611b385760405162461bcd60e51b815260040161086a906149b4565b611b4484848484612f70565b50505050565b600b6020526000908152604090205460ff1681565b6060611b6a82612a55565b611b865760405162461bcd60e51b815260040161086a906147e3565b60008281526008602090815260409182902080548351601f6002600019610100600186161502019093169290920491820184900484028101840190945280845260609392830182828015611c1b5780601f10611bf057610100808354040283529160200191611c1b565b820191906000526020600020905b815481529060010190602001808311611bfe57829003601f168201915b505050505090506060611c2c611430565b9050805160001415611c405750905061081c565b815115611c72578082604051602001611c5a929190613f1c565b6040516020818303038152906040529250505061081c565b80611c7c85612fa3565b604051602001611c8d929190613f1c565b60405160208183030381529060405292505050919050565b336000908152600b602052604090205460ff1680611cd2575033611cc76116f4565b6001600160a01b0316145b611cee5760405162461bcd60e51b815260040161086a906148b6565b600081118015611d055750611d01611d33565b8111155b611d215760405162461bcd60e51b815260040161086a90614039565b6000918252600e602052604090912055565b601354600090819080825b8115611d925760018203905060138181548110611d5757fe5b90600052602060002001544210611d875760148181548110611d7557fe5b90600052602060002001549350611d92565b600182039150611d3e565b50919250505090565b600e6020526000908152604090208054600182015460028301546003909301549192909160ff1684565b336000908152600b602052604090205460ff1680611df2575033611de76116f4565b6001600160a01b0316145b611e0e5760405162461bcd60e51b815260040161086a906148b6565b6000918252600e602052604090912060020155565b611e2b612a62565b6001600160a01b0316611e3c6116f4565b6001600160a01b031614611e625760405162461bcd60e51b815260040161086a90614765565b6001600160a01b03166000908152600b60205260409020805460ff19166001179055565b6000611e90612b68565b15611ead5760405162461bcd60e51b815260040161086a90614b3f565b611eb5612b89565b15611ed25760405162461bcd60e51b815260040161086a90614b3f565b33611edc84611408565b6001600160a01b03161480611f005750336000908152600b602052604090205460ff165b80611f1a575033611f0f6116f4565b6001600160a01b0316145b611f365760405162461bcd60e51b815260040161086a9061407c565b33611f4083611408565b6001600160a01b03161480611f645750336000908152600b602052604090205460ff165b80611f7e575033611f736116f4565b6001600160a01b0316145b611f9a5760405162461bcd60e51b815260040161086a90614832565b611fa382611408565b6001600160a01b0316611fb584611408565b6001600160a01b031614611fdb5760405162461bcd60e51b815260040161086a90614bb5565b6000838152600e602052604090206003015460ff161561200d5760405162461bcd60e51b815260040161086a90614a3c565b6000828152600e602052604090206003015460ff161561203f5760405162461bcd60e51b815260040161086a9061494a565b6000828152600e6020526040808220548583529082205461205f91612baa565b90506000811180156120785750612074611d33565b8111155b6120945760405162461bcd60e51b815260040161086a90614039565b600061209f85611408565b905060606120ac86611b5f565b90506120b78661307e565b6120ca6120c386611b5f565b600161314b565b6120d38561307e565b6120dd600d612dfa565b60006120e9600d612e03565b6000818152600e60205260409020426001820181905560028201559091506121118483612e68565b84815560038101805460ff1916600117905582516121415760405162461bcd60e51b815260040161086a90614463565b61214b8284612f2c565b50436000908152600c602090815260408083203284529091528082208054600160ff19918216811790925533845291909220805490911690911790559695505050505050565b612199612b68565b156121b65760405162461bcd60e51b815260040161086a90614b3f565b6121be612b89565b156121db5760405162461bcd60e51b815260040161086a90614b3f565b336121e582611408565b6001600160a01b031614806122095750336000908152600b602052604090205460ff165b806122235750336122186116f4565b6001600160a01b0316145b61223f5760405162461bcd60e51b815260040161086a9061442c565b600061224a82611408565b90506122546138c4565b601b54604051630cacd00160e11b81526001600160a01b0390911690631959a00290612284908590600401613f4b565b604080518083038186803b15801561229b57600080fd5b505afa1580156122af573d6000803e3d6000fd5b505050506040513d601f19601f820116820180604052508101906122d39190613e50565b805190915042116122f65760405162461bcd60e51b815260040161086a90614539565b601a54604051635a46d3b560e01b81526000916001600160a01b031690635a46d3b590612327908690600401613f4b565b60206040518083038186803b15801561233f57600080fd5b505afa158015612353573d6000803e3d6000fd5b505050506040513d601f19601f820116820180604052508101906123779190613e9b565b90508061244e57601b54604051633800f15360e11b81526001600160a01b0390911690637001e2a6906123b09086904290600401613fc0565b600060405180830381600087803b1580156123ca57600080fd5b505af11580156123de573d6000803e3d6000fd5b5050601b546040516358df382560e01b81526001600160a01b0390911692506358df382591506124149086908590600401613fc0565b600060405180830381600087803b15801561242e57600080fd5b505af1158015612442573d6000803e3d6000fd5b50505050505050612899565b601a5460405163010158bb60e51b81526000916001600160a01b03169063202b17609061247f908790600401613f4b565b60206040518083038186803b15801561249757600080fd5b505afa1580156124ab573d6000803e3d6000fd5b505050506040513d601f19601f820116820180604052508101906124cf9190613e9b565b90508082116124f05760405162461bcd60e51b815260040161086a906148ed565b6124fa8282612ad4565b9150826020015182116126b757601a5460405163579587b360e11b81526001600160a01b039091169063af2b0f669061253a908790600090600401613fc0565b600060405180830381600087803b15801561255457600080fd5b505af1158015612568573d6000803e3d6000fd5b5050601b54604051633800f15360e11b81526001600160a01b039091169250637001e2a6915061259e9087904290600401613fc0565b600060405180830381600087803b1580156125b857600080fd5b505af11580156125cc573d6000803e3d6000fd5b5050601b54601a54604051635a46d3b560e01b81526001600160a01b0392831694506358df38259350889290911690635a46d3b59061260f908490600401613f4b565b60206040518083038186803b15801561262757600080fd5b505afa15801561263b573d6000803e3d6000fd5b505050506040513d601f19601f8201168201806040525081019061265f9190613e9b565b6040518363ffffffff1660e01b815260040161267c929190613fc0565b600060405180830381600087803b15801561269657600080fd5b505af11580156126aa573d6000803e3d6000fd5b5050505050505050612899565b60208301516126c7908390612ad4565b6000868152600e6020526040812054919350906126ec90606490610ca3908690612afc565b601a5460405163579587b360e11b81529192506001600160a01b03169063af2b0f669061271f9088908590600401613fc0565b600060405180830381600087803b15801561273957600080fd5b505af115801561274d573d6000803e3d6000fd5b5050601b54604051633800f15360e11b81526001600160a01b039091169250637001e2a691506127839088904290600401613fc0565b600060405180830381600087803b15801561279d57600080fd5b505af11580156127b1573d6000803e3d6000fd5b5050601b54601a54604051635a46d3b560e01b81526001600160a01b0392831694506358df38259350899290911690635a46d3b5906127f4908490600401613f4b565b60206040518083038186803b15801561280c57600080fd5b505afa158015612820573d6000803e3d6000fd5b505050506040513d601f19601f820116820180604052508101906128449190613e9b565b6040518363ffffffff1660e01b8152600401612861929190613fc0565b600060405180830381600087803b15801561287b57600080fd5b505af115801561288f573d6000803e3d6000fd5b5050505050505050505b50436000908152600c602090815260408083203284529091528082208054600160ff1991821681179092553384529190922080549091169091179055565b336000908152600b602052604090205460ff16806129045750336128f96116f4565b6001600160a01b0316145b6129205760405162461bcd60e51b815260040161086a906148b6565b601955565b6011818154811061094157fe5b6001600160a01b03918216600090815260056020908152604080832093909416825291909152205460ff1690565b6019546000828152600e60205260408120600201549091610cb09190612baa565b612989612a62565b6001600160a01b031661299a6116f4565b6001600160a01b0316146129c05760405162461bcd60e51b815260040161086a90614765565b6001600160a01b0381166129e65760405162461bcd60e51b815260040161086a90614111565b600a546040516001600160a01b038084169216907f8be0079c531659141344cd1fd0a4f28419497f9722a3daafe3b4186f6b6457e090600090a3600a80546001600160a01b0319166001600160a01b0392909216919091179055565b6000610cb061182a611821846001612ad4565b6000610cb060028361323d565b3390565b600081815260046020526040902080546001600160a01b0319166001600160a01b0384169081179091558190612a9b82611408565b6001600160a01b03167f8c5be1e5ebec7d5bd14f71427d1e84f3dd0314c0f7b2291e5b200ac8c7c3b92560405160405180910390a45050565b600082821115612af65760405162461bcd60e51b815260040161086a906142f7565b50900390565b600082612b0b57506000610cb0565b82820282848281612b1857fe5b0414610fc85760405162461bcd60e51b815260040161086a9061468c565b6000808211612b575760405162461bcd60e51b815260040161086a906143c0565b818381612b6057fe5b049392505050565b436000908152600c6020908152604080832032845290915290205460ff1690565b436000908152600c6020908152604080832033845290915290205460ff1690565b600082820183811015610fc85760405162461bcd60e51b815260040161086a90614202565b6000610cb082612e03565b6000612be582612a55565b612c015760405162461bcd60e51b815260040161086a90614374565b6000612c0c83611408565b9050806001600160a01b0316846001600160a01b03161480612c475750836001600160a01b0316612c3c84610952565b6001600160a01b0316145b80612c575750612c578185612932565b949350505050565b826001600160a01b0316612c7282611408565b6001600160a01b031614612c985760405162461bcd60e51b815260040161086a9061479a565b6001600160a01b038216612cbe5760405162461bcd60e51b815260040161086a90614239565b612cc9838383610a8f565b612cd4600082612a66565b6001600160a01b0383166000908152600160205260409020612cf69082613249565b506001600160a01b0382166000908152600160205260409020612d199082613255565b50612d2660028284613261565b5080826001600160a01b0316846001600160a01b03167fddf252ad1be2c89b69c2b068fc378daa952ba7f163c4a11628f55a4df523b3ef60405160405180910390a4505050565b6000610fc88383613277565b6000808080612d8886866132bc565b9097909650945050505050565b6000612c57848484613318565b611b44846323b872dd60e01b858585604051602401612dc393929190613f9c565b60408051601f198184030181529190526020810180516001600160e01b03166001600160e01b031990931692909217909152613377565b80546001019055565b5490565b600f548060005b8115610f4e57600182039050600f8181548110612e2757fe5b90600052602060002001548510612e5d578360128281548110612e4657fe5b600091825260209091200180549091019055610f4e565b600182039150612e0e565b6001600160a01b038216612e8e5760405162461bcd60e51b815260040161086a906145e4565b612e9781612a55565b15612eb45760405162461bcd60e51b815260040161086a90614157565b612ec060008383610a8f565b6001600160a01b0382166000908152600160205260409020612ee29082613255565b50612eef60028284613261565b5060405181906001600160a01b038416906000907fddf252ad1be2c89b69c2b068fc378daa952ba7f163c4a11628f55a4df523b3ef908290a45050565b612f3582612a55565b612f515760405162461bcd60e51b815260040161086a90614719565b60008281526008602090815260409091208251610a8f92840190613982565b612f7b848484612c5f565b612f8784848484613406565b611b445760405162461bcd60e51b815260040161086a906140bf565b606081612fc857506040805180820190915260018152600360fc1b602082015261081c565b8160005b8115612fe057600101600a82049150612fcc565b60608167ffffffffffffffff81118015612ff957600080fd5b506040519080825280601f01601f191660200182016040528015613024576020820181803683370190505b50859350905060001982015b831561307557600a840660300160f81b8282806001900393508151811061305357fe5b60200101906001600160f81b031916908160001a905350600a84049350613030565b50949350505050565b600061308982611408565b905061309781600084610a8f565b6130a2600083612a66565b60008281526008602052604090205460026000196101006001841615020190911604156130e05760008281526008602052604081206130e0916139ef565b6001600160a01b03811660009081526001602052604090206131029083613249565b5061310e6002836134e5565b5060405182906000906001600160a01b038416907fddf252ad1be2c89b69c2b068fc378daa952ba7f163c4a11628f55a4df523b3ef908390a45050565b6010548060005b8115610f4e57600182039050613207856010838154811061316f57fe5b600091825260209182902001805460408051601f60026000196101006001871615020190941693909304928301859004850281018501909152818152928301828280156131fd5780601f106131d2576101008083540402835291602001916131fd565b820191906000526020600020905b8154815290600101906020018083116131e057829003601f168201915b50505050506134f1565b1561323257836012828154811061321a57fe5b60009182526020909120018054919091039055610f4e565b600182039150613152565b6000610fc883836134fd565b6000610fc88383613515565b6000610fc883836135db565b6000612c5784846001600160a01b038516613625565b8154600090821061329a5760405162461bcd60e51b815260040161086a90613ff7565b8260000182815481106132a957fe5b9060005260206000200154905092915050565b8154600090819083106132e15760405162461bcd60e51b815260040161086a9061455f565b60008460000184815481106132f257fe5b906000526020600020906002020190508060000154816001015492509250509250929050565b600082815260018401602052604081205482816133485760405162461bcd60e51b815260040161086a9190613fe4565b5084600001600182038154811061335b57fe5b9060005260206000209060020201600101549150509392505050565b60606133cc826040518060400160405280602081526020017f5361666545524332303a206c6f772d6c6576656c2063616c6c206661696c6564815250856001600160a01b03166136bc9092919063ffffffff16565b805190915015610a8f57808060200190518101906133ea9190613dfc565b610a8f5760405162461bcd60e51b815260040161086a90614af5565b600061341a846001600160a01b03166136cb565b61342657506001612c57565b60606134ae630a85bd0160e11b61343b612a62565b8887876040516024016134519493929190613f5f565b604051602081830303815290604052906001600160e01b0319166020820180516001600160e01b038381831617835250505050604051806060016040528060328152602001614ccd603291396001600160a01b03881691906136bc565b90506000818060200190518101906134c69190613e34565b6001600160e01b031916630a85bd0160e11b1492505050949350505050565b6000610fc883836136d1565b6000610fc883836137a5565b60009081526001919091016020526040902054151590565b600081815260018301602052604081205480156135d1578354600019808301919081019060009087908390811061354857fe5b906000526020600020015490508087600001848154811061356557fe5b60009182526020808320909101929092558281526001898101909252604090209084019055865487908061359557fe5b60019003818190600052602060002001600090559055866001016000878152602001908152602001600020600090556001945050505050610cb0565b6000915050610cb0565b60006135e783836134fd565b61361d57508154600181810184556000848152602080822090930184905584548482528286019093526040902091909155610cb0565b506000610cb0565b60008281526001840160205260408120548061368a575050604080518082018252838152602080820184815286546001818101895560008981528481209551600290930290950191825591519082015586548684528188019092529290912055610fc8565b8285600001600183038154811061369d57fe5b9060005260206000209060020201600101819055506000915050610fc8565b6060612c5784846000856137ca565b3b151590565b600081815260018301602052604081205480156135d1578354600019808301919081019060009087908390811061370457fe5b906000526020600020906002020190508087600001848154811061372457fe5b60009182526020808320845460029093020191825560019384015491840191909155835482528983019052604090209084019055865487908061376357fe5b6000828152602080822060026000199094019384020182815560019081018390559290935588815289820190925260408220919091559450610cb09350505050565b600081518351148015610fc85750508051602091820120825192909101919091201490565b6060824710156137ec5760405162461bcd60e51b815260040161086a9061432e565b6137f5856136cb565b6138115760405162461bcd60e51b815260040161086a90614a05565b60006060866001600160a01b0316858760405161382e9190613f00565b60006040518083038185875af1925050503d806000811461386b576040519150601f19603f3d011682016040523d82523d6000602084013e613870565b606091505b509150915061388082828661388b565b979650505050505050565b6060831561389a575081610fc8565b8251156138aa5782518084602001fd5b8160405162461bcd60e51b815260040161086a9190613fe4565b604051806040016040528060008152602001600081525090565b828054828255906000526020600020908101928215613919579160200282015b828111156139195782518255916020019190600101906138fe565b50613925929150613a36565b5090565b828054828255906000526020600020908101928215613976579160200282015b828111156139765782518051613966918491602090910190613982565b5091602001919060010190613949565b50613925929150613a4b565b828054600181600116156101000203166002900490600052602060002090601f016020900481019282601f106139c357805160ff1916838001178555613919565b8280016001018555821561391957918201828111156139195782518255916020019190600101906138fe565b50805460018160011615610100020316600290046000825580601f10613a155750613a33565b601f016020900490600052602060002090810190613a339190613a36565b50565b5b808211156139255760008155600101613a37565b80821115613925576000613a5f82826139ef565b50600101613a4b565b600082601f830112613a78578081fd5b8135613a8b613a8682614c47565b614c20565b818152915060208083019084810181840286018201871015613aac57600080fd5b60005b84811015613acb57813584529282019290820190600101613aaf565b505050505092915050565b600082601f830112613ae6578081fd5b813567ffffffffffffffff811115613afc578182fd5b613b0f601f8201601f1916602001614c20565b9150808252836020828501011115613b2657600080fd5b8060208401602084013760009082016020015292915050565b600060208284031215613b50578081fd5b8135610fc881614c93565b60008060408385031215613b6d578081fd5b8235613b7881614c93565b91506020830135613b8881614c93565b809150509250929050565b600080600060608486031215613ba7578081fd5b8335613bb281614c93565b92506020840135613bc281614c93565b929592945050506040919091013590565b60008060008060808587031215613be8578081fd5b8435613bf381614c93565b93506020850135613c0381614c93565b925060408501359150606085013567ffffffffffffffff811115613c25578182fd5b613c3187828801613ad6565b91505092959194509250565b60008060408385031215613c4f578182fd5b8235613c5a81614c93565b91506020830135613b8881614ca8565b60008060408385031215613c7c578182fd5b8235613c8781614c93565b946020939093013593505050565b60008060008060808587031215613caa578384fd5b843567ffffffffffffffff80821115613cc1578586fd5b613ccd88838901613a68565b9550602091508187013581811115613ce3578586fd5b8701601f81018913613cf3578586fd5b8035613d01613a8682614c47565b81815284810190838601895b84811015613d3657613d248e898435890101613ad6565b84529287019290870190600101613d0d565b50909850505050604088013592505080821115613d51578384fd5b613d5d88838901613a68565b93506060870135915080821115613d72578283fd5b50613c3187828801613a68565b60008060408385031215613d91578182fd5b823567ffffffffffffffff80821115613da8578384fd5b613db486838701613a68565b93506020850135915080821115613dc9578283fd5b50613dd685828601613a68565b9150509250929050565b600060208284031215613df1578081fd5b8135610fc881614ca8565b600060208284031215613e0d578081fd5b8151610fc881614ca8565b600060208284031215613e29578081fd5b8135610fc881614cb6565b600060208284031215613e45578081fd5b8151610fc881614cb6565b600060408284031215613e61578081fd5b613e6b6040614c20565b82518152602083015160208201528091505092915050565b600060208284031215613e94578081fd5b5035919050565b600060208284031215613eac578081fd5b5051919050565b60008060408385031215613ec5578182fd5b50508035926020909101359150565b60008151808452613eec816020860160208601614c67565b601f01601f19169290920160200192915050565b60008251613f12818460208701614c67565b9190910192915050565b60008351613f2e818460208801614c67565b835190830190613f42818360208801614c67565b01949350505050565b6001600160a01b0391909116815260200190565b6001600160a01b0385811682528416602082015260408101839052608060608201819052600090613f9290830184613ed4565b9695505050505050565b6001600160a01b039384168152919092166020820152604081019190915260600190565b6001600160a01b03929092168252602082015260400190565b901515815260200190565b600060208252610fc86020830184613ed4565b60208082526022908201527f456e756d657261626c655365743a20696e646578206f7574206f6620626f756e604082015261647360f01b606082015260800190565b60208082526023908201527f4c6576656c206d757374206265203e203020616e64203c3d206d6178206c657660408201526232b61760e91b606082015260800190565b60208082526023908201527f4e6f7420656e6f756768207065726d697373696f6e7320666f7220746f6b656e60408201526210189760e91b606082015260800190565b60208082526032908201527f4552433732313a207472616e7366657220746f206e6f6e20455243373231526560408201527131b2b4bb32b91034b6b83632b6b2b73a32b960711b606082015260800190565b60208082526026908201527f4f776e61626c653a206e6577206f776e657220697320746865207a65726f206160408201526564647265737360d01b606082015260800190565b6020808252601c908201527f4552433732313a20746f6b656e20616c7265616479206d696e74656400000000604082015260600190565b6020808252604e908201527f4c6576656c2055524920617272617973206d75737420626520657175616c206960408201527f6e206e6f6e2d7a65726f206c656e67746820616e64206c6576656c2073686f7560608201526d36321039ba30b93a1030ba10181760911b608082015260a00190565b6020808252601b908201527f536166654d6174683a206164646974696f6e206f766572666c6f770000000000604082015260600190565b60208082526024908201527f4552433732313a207472616e7366657220746f20746865207a65726f206164646040820152637265737360e01b606082015260800190565b60208082526019908201527f4552433732313a20617070726f766520746f2063616c6c657200000000000000604082015260600190565b60208082526023908201527f4d6178206c6576656c2063616e277420626520686967686572207468616e203160408201526218181760e91b606082015260800190565b6020808252601e908201527f536166654d6174683a207375627472616374696f6e206f766572666c6f770000604082015260600190565b60208082526026908201527f416464726573733a20696e73756666696369656e742062616c616e636520666f6040820152651c8818d85b1b60d21b606082015260800190565b6020808252602c908201527f4552433732313a206f70657261746f7220717565727920666f72206e6f6e657860408201526b34b9ba32b73a103a37b5b2b760a11b606082015260800190565b6020808252601a908201527f536166654d6174683a206469766973696f6e206279207a65726f000000000000604082015260600190565b6020808252818101527f596f752063616e206e6f206c6f6e676572206d696e742074686973204e46542e604082015260600190565b60208082526017908201527f4e6f7420656e6f756768207065726d697373696f6e732e000000000000000000604082015260600190565b6020808252601590820152742a37b5b2b7102aa9249034b99034b73b30b634b21760591b604082015260600190565b60208082526038908201527f4552433732313a20617070726f76652063616c6c6572206973206e6f74206f7760408201527f6e6572206e6f7220617070726f76656420666f7220616c6c0000000000000000606082015260800190565b6020808252602a908201527f4552433732313a2062616c616e636520717565727920666f7220746865207a65604082015269726f206164647265737360b01b606082015260800190565b6020808252600c908201526b2637b3b4b19032b93937b91760a11b604082015260600190565b60208082526022908201527f456e756d657261626c654d61703a20696e646578206f7574206f6620626f756e604082015261647360f01b606082015260800190565b60208082526023908201527f4c6576656c206d757374206265206c6f776572207468616e206d6178206c657660408201526232b61760e91b606082015260800190565b6020808252818101527f4552433732313a206d696e7420746f20746865207a65726f2061646472657373604082015260600190565b6020808252604d908201527f4d6178206c6576656c20617272617973206d75737420626520657175616c206960408201527f6e206e6f6e2d7a65726f206c656e67746820616e642074696d652073686f756c60608201526c321039ba30b93a1030ba10181760991b608082015260a00190565b60208082526021908201527f536166654d6174683a206d756c7469706c69636174696f6e206f766572666c6f6040820152607760f81b606082015260800190565b6020808252602c908201527f4552433732313a20617070726f76656420717565727920666f72206e6f6e657860408201526b34b9ba32b73a103a37b5b2b760a11b606082015260800190565b6020808252602c908201527f4552433732314d657461646174613a2055524920736574206f66206e6f6e657860408201526b34b9ba32b73a103a37b5b2b760a11b606082015260800190565b6020808252818101527f4f776e61626c653a2063616c6c6572206973206e6f7420746865206f776e6572604082015260600190565b60208082526029908201527f4552433732313a207472616e73666572206f6620746f6b656e2074686174206960408201526839903737ba1037bbb760b91b606082015260800190565b6020808252602f908201527f4552433732314d657461646174613a2055524920717565727920666f72206e6f60408201526e3732bc34b9ba32b73a103a37b5b2b760891b606082015260800190565b60208082526023908201527f4e6f7420656e6f756768207065726d697373696f6e7320666f7220746f6b656e60408201526210191760e91b606082015260800190565b60208082526021908201527f4552433732313a20617070726f76616c20746f2063757272656e74206f776e656040820152603960f91b606082015260800190565b60208082526018908201527f63616c6c6572206973206e6f7420617574686f72697a65640000000000000000604082015260600190565b60208082526039908201527f546f6f206d75636820746f20756e6c6f636b206e61747572616c6c792c20706c60408201527f656173652063616c6c20756e6c6f636b28292066697273742e00000000000000606082015260800190565b60208082526044908201527f546f6b656e20322068617320616c7265616479206265656e206d65726765642e60408201527f2047656e2031204e4654732063616e206f6e6c79206265206d6572676564206f6060820152633731b29760e11b608082015260a00190565b60208082526031908201527f4552433732313a207472616e736665722063616c6c6572206973206e6f74206f6040820152701ddb995c881b9bdc88185c1c1c9bdd9959607a1b606082015260800190565b6020808252601d908201527f416464726573733a2063616c6c20746f206e6f6e2d636f6e7472616374000000604082015260600190565b60208082526044908201527f546f6b656e20312068617320616c7265616479206265656e206d65726765642e60408201527f2047656e2031204e4654732063616e206f6e6c79206265206d6572676564206f6060820152633731b29760e11b608082015260a00190565b6020808252602f908201527f496e697469616c207072696365206d757374206265206c6f776572207468616e60408201526e10313abc903832b9103632bb32b61760891b606082015260800190565b6020808252602a908201527f5361666545524332303a204552433230206f7065726174696f6e20646964206e6040820152691bdd081cdd58d8d9595960b21b606082015260800190565b60208082526026908201527f436f6e747261637447756172643a206f6e6520626c6f636b2c206f6e652066756040820152653731ba34b7b760d11b606082015260800190565b6020808252601690820152752a37b79032b0b9363c903a37903632bb32b6103ab81760511b604082015260600190565b60208082526025908201527f426f746820746f6b656e73206d7573742068617665207468652073616d65206f6040820152643bb732b91760d91b606082015260800190565b90815260200190565b938452602084019290925260408301521515606082015260800190565b60405181810167ffffffffffffffff81118282101715614c3f57600080fd5b604052919050565b600067ffffffffffffffff821115614c5d578081fd5b5060209081020190565b60005b83811015614c82578181015183820152602001614c6a565b83811115611b445750506000910152565b6001600160a01b0381168114613a3357600080fd5b8015158114613a3357600080fd5b6001600160e01b031981168114613a3357600080fdfe4552433732313a207472616e7366657220746f206e6f6e20455243373231526563656976657220696d706c656d656e7465724552433732313a206f776e657220717565727920666f72206e6f6e6578697374656e7420746f6b656ea264697066735822122099be3c94b79a0d40d76224d63494765686c49e53fb082f298aacff1957a47dad64736f6c634300060c0033",
  "linkReferences": {},
  "deployedLinkReferences": {}
}