{
  "_format": "hh-sol-artifact-1",
  "contractName": "TheoryUnlockerGen1",
  "sourceName": "contracts/nfts/TheoryUnlockerGen1.sol",
  "abi": [
    {
      "inputs": [
        {
          "internalType": "contract IERC20",
          "name": "_buy",
          "type": "address"
        },
        {
          "internalType": "uint256[2]",
          "name": "_prices",
          "type": "uint256[2]"
        },
        {
          "internalType": "contract IERC20Lockable[2]",
          "name": "_theoryAndGame",
          "type": "address[2]"
        },
        {
          "internalType": "address",
          "name": "_communityFund",
          "type": "address"
        },
        {
          "internalType": "contract ITheoryUnlocker",
          "name": "_gen0",
          "type": "address"
        },
        {
          "internalType": "contract IUniswapV2Router",
          "name": "_router",
          "type": "address"
        },
        {
          "internalType": "uint256[]",
          "name": "_maxLevelTime",
          "type": "uint256[]"
        },
        {
          "internalType": "uint256[]",
          "name": "_maxLevelLevel",
          "type": "uint256[]"
        },
        {
          "internalType": "uint256[]",
          "name": "_levelURIsLevel",
          "type": "uint256[]"
        },
        {
          "internalType": "string[]",
          "name": "_levelURIsURI",
          "type": "string[]"
        },
        {
          "internalType": "uint256[]",
          "name": "_levelURIsMax",
          "type": "uint256[]"
        }
      ],
      "stateMutability": "nonpayable",
      "type": "constructor"
    },
    {
      "anonymous": false,
      "inputs": [
        {
          "indexed": true,
          "internalType": "address",
          "name": "owner",
          "type": "address"
        },
        {
          "indexed": true,
          "internalType": "address",
          "name": "approved",
          "type": "address"
        },
        {
          "indexed": true,
          "internalType": "uint256",
          "name": "tokenId",
          "type": "uint256"
        }
      ],
      "name": "Approval",
      "type": "event"
    },
    {
      "anonymous": false,
      "inputs": [
        {
          "indexed": true,
          "internalType": "address",
          "name": "owner",
          "type": "address"
        },
        {
          "indexed": true,
          "internalType": "address",
          "name": "operator",
          "type": "address"
        },
        {
          "indexed": false,
          "internalType": "bool",
          "name": "approved",
          "type": "bool"
        }
      ],
      "name": "ApprovalForAll",
      "type": "event"
    },
    {
      "anonymous": false,
      "inputs": [
        {
          "indexed": false,
          "internalType": "address",
          "name": "who",
          "type": "address"
        },
        {
          "indexed": false,
          "internalType": "uint256",
          "name": "tokenId",
          "type": "uint256"
        },
        {
          "indexed": false,
          "internalType": "uint256",
          "name": "leveledTo",
          "type": "uint256"
        }
      ],
      "name": "Level",
      "type": "event"
    },
    {
      "anonymous": false,
      "inputs": [
        {
          "indexed": false,
          "internalType": "address",
          "name": "who",
          "type": "address"
        },
        {
          "indexed": false,
          "internalType": "uint256",
          "name": "tokenId1",
          "type": "uint256"
        },
        {
          "indexed": false,
          "internalType": "uint256",
          "name": "tokenId2",
          "type": "uint256"
        },
        {
          "indexed": false,
          "internalType": "uint256",
          "name": "level1",
          "type": "uint256"
        },
        {
          "indexed": false,
          "internalType": "uint256",
          "name": "level2",
          "type": "uint256"
        },
        {
          "indexed": false,
          "internalType": "uint256",
          "name": "levelMerged",
          "type": "uint256"
        }
      ],
      "name": "Merge",
      "type": "event"
    },
    {
      "anonymous": false,
      "inputs": [
        {
          "indexed": false,
          "internalType": "address",
          "name": "who",
          "type": "address"
        },
        {
          "indexed": false,
          "internalType": "uint256",
          "name": "tokenId",
          "type": "uint256"
        },
        {
          "indexed": false,
          "internalType": "uint256",
          "name": "level",
          "type": "uint256"
        }
      ],
      "name": "Mint",
      "type": "event"
    },
    {
      "anonymous": false,
      "inputs": [
        {
          "indexed": true,
          "internalType": "address",
          "name": "previousOwner",
          "type": "address"
        },
        {
          "indexed": true,
          "internalType": "address",
          "name": "newOwner",
          "type": "address"
        }
      ],
      "name": "OwnershipTransferred",
      "type": "event"
    },
    {
      "anonymous": false,
      "inputs": [
        {
          "indexed": true,
          "internalType": "address",
          "name": "from",
          "type": "address"
        },
        {
          "indexed": true,
          "internalType": "address",
          "name": "to",
          "type": "address"
        },
        {
          "indexed": true,
          "internalType": "uint256",
          "name": "tokenId",
          "type": "uint256"
        }
      ],
      "name": "Transfer",
      "type": "event"
    },
    {
      "anonymous": false,
      "inputs": [
        {
          "indexed": false,
          "internalType": "address",
          "name": "who",
          "type": "address"
        },
        {
          "indexed": false,
          "internalType": "uint256",
          "name": "tokenId",
          "type": "uint256"
        },
        {
          "indexed": false,
          "internalType": "uint256",
          "name": "level",
          "type": "uint256"
        },
        {
          "indexed": false,
          "internalType": "uint256",
          "name": "amountToUnlock",
          "type": "uint256"
        }
      ],
      "name": "Unlock",
      "type": "event"
    },
    {
      "inputs": [],
      "name": "TheoryUnlockerGen0",
      "outputs": [
        {
          "internalType": "contract ITheoryUnlocker",
          "name": "",
          "type": "address"
        }
      ],
      "stateMutability": "view",
      "type": "function"
    },
    {
      "inputs": [
        {
          "internalType": "address",
          "name": "_toAdd",
          "type": "address"
        }
      ],
      "name": "addAuthorized",
      "outputs": [],
      "stateMutability": "nonpayable",
      "type": "function"
    },
    {
      "inputs": [
        {
          "internalType": "address",
          "name": "to",
          "type": "address"
        },
        {
          "internalType": "uint256",
          "name": "tokenId",
          "type": "uint256"
        }
      ],
      "name": "approve",
      "outputs": [],
      "stateMutability": "nonpayable",
      "type": "function"
    },
    {
      "inputs": [
        {
          "internalType": "address",
          "name": "",
          "type": "address"
        }
      ],
      "name": "authorized",
      "outputs": [
        {
          "internalType": "bool",
          "name": "",
          "type": "bool"
        }
      ],
      "stateMutability": "view",
      "type": "function"
    },
    {
      "inputs": [
        {
          "internalType": "address",
          "name": "owner",
          "type": "address"
        }
      ],
      "name": "balanceOf",
      "outputs": [
        {
          "internalType": "uint256",
          "name": "",
          "type": "uint256"
        }
      ],
      "stateMutability": "view",
      "type": "function"
    },
    {
      "inputs": [],
      "name": "baseURI",
      "outputs": [
        {
          "internalType": "string",
          "name": "",
          "type": "string"
        }
      ],
      "stateMutability": "view",
      "type": "function"
    },
    {
      "inputs": [],
      "name": "burnPercentage",
      "outputs": [
        {
          "internalType": "uint256",
          "name": "",
          "type": "uint256"
        }
      ],
      "stateMutability": "view",
      "type": "function"
    },
    {
      "inputs": [],
      "name": "buyToken",
      "outputs": [
        {
          "internalType": "contract IERC20",
          "name": "",
          "type": "address"
        }
      ],
      "stateMutability": "view",
      "type": "function"
    },
    {
      "inputs": [],
      "name": "buyTokenPerLevel",
      "outputs": [
        {
          "internalType": "uint256",
          "name": "",
          "type": "uint256"
        }
      ],
      "stateMutability": "view",
      "type": "function"
    },
    {
      "inputs": [
        {
          "internalType": "address",
          "name": "player",
          "type": "address"
        },
        {
          "internalType": "uint256",
          "name": "tokenId",
          "type": "uint256"
        }
      ],
      "name": "canUnlockAmount",
      "outputs": [
        {
          "internalType": "uint256",
          "name": "",
          "type": "uint256"
        }
      ],
      "stateMutability": "view",
      "type": "function"
    },
    {
      "inputs": [],
      "name": "communityFund",
      "outputs": [
        {
          "internalType": "address",
          "name": "",
          "type": "address"
        }
      ],
      "stateMutability": "view",
      "type": "function"
    },
    {
      "inputs": [
        {
          "internalType": "uint256",
          "name": "level",
          "type": "uint256"
        }
      ],
      "name": "costOf",
      "outputs": [
        {
          "internalType": "uint256",
          "name": "",
          "type": "uint256"
        }
      ],
      "stateMutability": "view",
      "type": "function"
    },
    {
      "inputs": [],
      "name": "disableMint",
      "outputs": [
        {
          "internalType": "bool",
          "name": "",
          "type": "bool"
        }
      ],
      "stateMutability": "view",
      "type": "function"
    },
    {
      "inputs": [],
      "name": "emergencyDisableUnlock",
      "outputs": [
        {
          "internalType": "bool",
          "name": "",
          "type": "bool"
        }
      ],
      "stateMutability": "view",
      "type": "function"
    },
    {
      "inputs": [
        {
          "internalType": "uint256",
          "name": "level",
          "type": "uint256"
        }
      ],
      "name": "extraGameCost",
      "outputs": [
        {
          "internalType": "uint256",
          "name": "",
          "type": "uint256"
        }
      ],
      "stateMutability": "view",
      "type": "function"
    },
    {
      "inputs": [
        {
          "internalType": "uint256",
          "name": "",
          "type": "uint256"
        }
      ],
      "name": "extraGameCostAmount",
      "outputs": [
        {
          "internalType": "uint256",
          "name": "",
          "type": "uint256"
        }
      ],
      "stateMutability": "view",
      "type": "function"
    },
    {
      "inputs": [
        {
          "internalType": "uint256",
          "name": "",
          "type": "uint256"
        }
      ],
      "name": "extraGameCostLevel",
      "outputs": [
        {
          "internalType": "uint256",
          "name": "",
          "type": "uint256"
        }
      ],
      "stateMutability": "view",
      "type": "function"
    },
    {
      "inputs": [],
      "name": "game",
      "outputs": [
        {
          "internalType": "contract IERC20Lockable",
          "name": "",
          "type": "address"
        }
      ],
      "stateMutability": "view",
      "type": "function"
    },
    {
      "inputs": [],
      "name": "gameCostPerLevel",
      "outputs": [
        {
          "internalType": "uint256",
          "name": "",
          "type": "uint256"
        }
      ],
      "stateMutability": "view",
      "type": "function"
    },
    {
      "inputs": [
        {
          "internalType": "uint256",
          "name": "tokenId",
          "type": "uint256"
        }
      ],
      "name": "getApproved",
      "outputs": [
        {
          "internalType": "address",
          "name": "",
          "type": "address"
        }
      ],
      "stateMutability": "view",
      "type": "function"
    },
    {
      "inputs": [],
      "name": "initialPrice",
      "outputs": [
        {
          "internalType": "uint256",
          "name": "",
          "type": "uint256"
        }
      ],
      "stateMutability": "view",
      "type": "function"
    },
    {
      "inputs": [
        {
          "internalType": "address",
          "name": "owner",
          "type": "address"
        },
        {
          "internalType": "address",
          "name": "operator",
          "type": "address"
        }
      ],
      "name": "isApprovedForAll",
      "outputs": [
        {
          "internalType": "bool",
          "name": "",
          "type": "bool"
        }
      ],
      "stateMutability": "view",
      "type": "function"
    },
    {
      "inputs": [
        {
          "internalType": "uint256",
          "name": "level",
          "type": "uint256"
        }
      ],
      "name": "levelURI",
      "outputs": [
        {
          "internalType": "string",
          "name": "",
          "type": "string"
        }
      ],
      "stateMutability": "view",
      "type": "function"
    },
    {
      "inputs": [
        {
          "internalType": "uint256",
          "name": "",
          "type": "uint256"
        }
      ],
      "name": "levelURIsLevel",
      "outputs": [
        {
          "internalType": "uint256",
          "name": "",
          "type": "uint256"
        }
      ],
      "stateMutability": "view",
      "type": "function"
    },
    {
      "inputs": [
        {
          "internalType": "uint256",
          "name": "",
          "type": "uint256"
        }
      ],
      "name": "levelURIsMax",
      "outputs": [
        {
          "internalType": "uint256",
          "name": "",
          "type": "uint256"
        }
      ],
      "stateMutability": "view",
      "type": "function"
    },
    {
      "inputs": [
        {
          "internalType": "uint256",
          "name": "",
          "type": "uint256"
        }
      ],
      "name": "levelURIsMinted",
      "outputs": [
        {
          "internalType": "uint256",
          "name": "",
          "type": "uint256"
        }
      ],
      "stateMutability": "view",
      "type": "function"
    },
    {
      "inputs": [
        {
          "internalType": "uint256",
          "name": "",
          "type": "uint256"
        }
      ],
      "name": "levelURIsSupply",
      "outputs": [
        {
          "internalType": "uint256",
          "name": "",
          "type": "uint256"
        }
      ],
      "stateMutability": "view",
      "type": "function"
    },
    {
      "inputs": [
        {
          "internalType": "uint256",
          "name": "",
          "type": "uint256"
        }
      ],
      "name": "levelURIsURI",
      "outputs": [
        {
          "internalType": "string",
          "name": "",
          "type": "string"
        }
      ],
      "stateMutability": "view",
      "type": "function"
    },
    {
      "inputs": [
        {
          "internalType": "uint256",
          "name": "tokenId",
          "type": "uint256"
        }
      ],
      "name": "levelUp",
      "outputs": [],
      "stateMutability": "nonpayable",
      "type": "function"
    },
    {
      "inputs": [
        {
          "internalType": "uint256",
          "name": "tokenId",
          "type": "uint256"
        },
        {
          "internalType": "uint256",
          "name": "theLevel",
          "type": "uint256"
        }
      ],
      "name": "levelUpTo",
      "outputs": [],
      "stateMutability": "nonpayable",
      "type": "function"
    },
    {
      "inputs": [
        {
          "internalType": "uint256",
          "name": "tokenId",
          "type": "uint256"
        }
      ],
      "name": "levelUpToMax",
      "outputs": [],
      "stateMutability": "nonpayable",
      "type": "function"
    },
    {
      "inputs": [],
      "name": "maxLevel",
      "outputs": [
        {
          "internalType": "uint256",
          "name": "",
          "type": "uint256"
        }
      ],
      "stateMutability": "view",
      "type": "function"
    },
    {
      "inputs": [
        {
          "internalType": "uint256",
          "name": "",
          "type": "uint256"
        }
      ],
      "name": "maxLevelLevel",
      "outputs": [
        {
          "internalType": "uint256",
          "name": "",
          "type": "uint256"
        }
      ],
      "stateMutability": "view",
      "type": "function"
    },
    {
      "inputs": [
        {
          "internalType": "uint256",
          "name": "",
          "type": "uint256"
        }
      ],
      "name": "maxLevelTime",
      "outputs": [
        {
          "internalType": "uint256",
          "name": "",
          "type": "uint256"
        }
      ],
      "stateMutability": "view",
      "type": "function"
    },
    {
      "inputs": [
        {
          "internalType": "uint256",
          "name": "level",
          "type": "uint256"
        }
      ],
      "name": "maxMinted",
      "outputs": [
        {
          "internalType": "uint256",
          "name": "",
          "type": "uint256"
        }
      ],
      "stateMutability": "view",
      "type": "function"
    },
    {
      "inputs": [
        {
          "internalType": "uint256",
          "name": "tokenId1",
          "type": "uint256"
        },
        {
          "internalType": "uint256",
          "name": "tokenId2",
          "type": "uint256"
        }
      ],
      "name": "merge",
      "outputs": [
        {
          "internalType": "uint256",
          "name": "",
          "type": "uint256"
        }
      ],
      "stateMutability": "nonpayable",
      "type": "function"
    },
    {
      "inputs": [
        {
          "internalType": "uint256",
          "name": "level",
          "type": "uint256"
        },
        {
          "internalType": "uint256",
          "name": "slippage",
          "type": "uint256"
        }
      ],
      "name": "mint",
      "outputs": [
        {
          "internalType": "uint256",
          "name": "",
          "type": "uint256"
        }
      ],
      "stateMutability": "nonpayable",
      "type": "function"
    },
    {
      "inputs": [
        {
          "internalType": "uint256",
          "name": "level",
          "type": "uint256"
        }
      ],
      "name": "minted",
      "outputs": [
        {
          "internalType": "uint256",
          "name": "",
          "type": "uint256"
        }
      ],
      "stateMutability": "view",
      "type": "function"
    },
    {
      "inputs": [],
      "name": "name",
      "outputs": [
        {
          "internalType": "string",
          "name": "",
          "type": "string"
        }
      ],
      "stateMutability": "view",
      "type": "function"
    },
    {
      "inputs": [
        {
          "internalType": "uint256",
          "name": "tokenId",
          "type": "uint256"
        }
      ],
      "name": "nextLevelTime",
      "outputs": [
        {
          "internalType": "uint256",
          "name": "",
          "type": "uint256"
        }
      ],
      "stateMutability": "view",
      "type": "function"
    },
    {
      "inputs": [
        {
          "internalType": "uint256",
          "name": "tokenId",
          "type": "uint256"
        }
      ],
      "name": "nftUnlock",
      "outputs": [],
      "stateMutability": "nonpayable",
      "type": "function"
    },
    {
      "inputs": [],
      "name": "owner",
      "outputs": [
        {
          "internalType": "address",
          "name": "",
          "type": "address"
        }
      ],
      "stateMutability": "view",
      "type": "function"
    },
    {
      "inputs": [
        {
          "internalType": "uint256",
          "name": "tokenId",
          "type": "uint256"
        }
      ],
      "name": "ownerOf",
      "outputs": [
        {
          "internalType": "address",
          "name": "",
          "type": "address"
        }
      ],
      "stateMutability": "view",
      "type": "function"
    },
    {
      "inputs": [
        {
          "internalType": "address",
          "name": "_toRemove",
          "type": "address"
        }
      ],
      "name": "removeAuthorized",
      "outputs": [],
      "stateMutability": "nonpayable",
      "type": "function"
    },
    {
      "inputs": [],
      "name": "renounceOwnership",
      "outputs": [],
      "stateMutability": "nonpayable",
      "type": "function"
    },
    {
      "inputs": [],
      "name": "router",
      "outputs": [
        {
          "internalType": "contract IUniswapV2Router",
          "name": "",
          "type": "address"
        }
      ],
      "stateMutability": "view",
      "type": "function"
    },
    {
      "inputs": [
        {
          "internalType": "address",
          "name": "from",
          "type": "address"
        },
        {
          "internalType": "address",
          "name": "to",
          "type": "address"
        },
        {
          "internalType": "uint256",
          "name": "tokenId",
          "type": "uint256"
        }
      ],
      "name": "safeTransferFrom",
      "outputs": [],
      "stateMutability": "nonpayable",
      "type": "function"
    },
    {
      "inputs": [
        {
          "internalType": "address",
          "name": "from",
          "type": "address"
        },
        {
          "internalType": "address",
          "name": "to",
          "type": "address"
        },
        {
          "internalType": "uint256",
          "name": "tokenId",
          "type": "uint256"
        },
        {
          "internalType": "bytes",
          "name": "_data",
          "type": "bytes"
        }
      ],
      "name": "safeTransferFrom",
      "outputs": [],
      "stateMutability": "nonpayable",
      "type": "function"
    },
    {
      "inputs": [
        {
          "internalType": "address",
          "name": "operator",
          "type": "address"
        },
        {
          "internalType": "bool",
          "name": "approved",
          "type": "bool"
        }
      ],
      "name": "setApprovalForAll",
      "outputs": [],
      "stateMutability": "nonpayable",
      "type": "function"
    },
    {
      "inputs": [
        {
          "internalType": "uint256",
          "name": "_burn",
          "type": "uint256"
        }
      ],
      "name": "setBurnPercentage",
      "outputs": [],
      "stateMutability": "nonpayable",
      "type": "function"
    },
    {
      "inputs": [
        {
          "internalType": "contract IERC20",
          "name": "_buy",
          "type": "address"
        }
      ],
      "name": "setBuyToken",
      "outputs": [],
      "stateMutability": "nonpayable",
      "type": "function"
    },
    {
      "inputs": [
        {
          "internalType": "address",
          "name": "_fund",
          "type": "address"
        }
      ],
      "name": "setCommunityFund",
      "outputs": [],
      "stateMutability": "nonpayable",
      "type": "function"
    },
    {
      "inputs": [
        {
          "internalType": "uint256",
          "name": "tokenId",
          "type": "uint256"
        },
        {
          "internalType": "uint256",
          "name": "time",
          "type": "uint256"
        }
      ],
      "name": "setCreationTime",
      "outputs": [],
      "stateMutability": "nonpayable",
      "type": "function"
    },
    {
      "inputs": [
        {
          "internalType": "bool",
          "name": "_disable",
          "type": "bool"
        }
      ],
      "name": "setDisableMint",
      "outputs": [],
      "stateMutability": "nonpayable",
      "type": "function"
    },
    {
      "inputs": [
        {
          "internalType": "bool",
          "name": "_disable",
          "type": "bool"
        }
      ],
      "name": "setEmergencyDisableUnlock",
      "outputs": [],
      "stateMutability": "nonpayable",
      "type": "function"
    },
    {
      "inputs": [
        {
          "internalType": "uint256",
          "name": "_gameCostPerLevel",
          "type": "uint256"
        },
        {
          "internalType": "uint256[]",
          "name": "_extraGameCostLevel",
          "type": "uint256[]"
        },
        {
          "internalType": "uint256[]",
          "name": "_extraGameCostAmount",
          "type": "uint256[]"
        }
      ],
      "name": "setGameCostForLevel",
      "outputs": [],
      "stateMutability": "nonpayable",
      "type": "function"
    },
    {
      "inputs": [
        {
          "internalType": "uint256",
          "name": "tokenId",
          "type": "uint256"
        },
        {
          "internalType": "uint256",
          "name": "time",
          "type": "uint256"
        }
      ],
      "name": "setLastLevelTime",
      "outputs": [],
      "stateMutability": "nonpayable",
      "type": "function"
    },
    {
      "inputs": [
        {
          "internalType": "address",
          "name": "user",
          "type": "address"
        },
        {
          "internalType": "uint256",
          "name": "amount",
          "type": "uint256"
        }
      ],
      "name": "setLastLockAmount",
      "outputs": [],
      "stateMutability": "nonpayable",
      "type": "function"
    },
    {
      "inputs": [
        {
          "internalType": "address",
          "name": "user",
          "type": "address"
        },
        {
          "internalType": "uint256",
          "name": "time",
          "type": "uint256"
        }
      ],
      "name": "setLastUnlockTime",
      "outputs": [],
      "stateMutability": "nonpayable",
      "type": "function"
    },
    {
      "inputs": [
        {
          "internalType": "uint256[]",
          "name": "_levelURIsLevel",
          "type": "uint256[]"
        },
        {
          "internalType": "string[]",
          "name": "_levelURIsURI",
          "type": "string[]"
        },
        {
          "internalType": "uint256[]",
          "name": "_levelURIsMax",
          "type": "uint256[]"
        },
        {
          "internalType": "uint256[]",
          "name": "_levelURIsSupply",
          "type": "uint256[]"
        },
        {
          "internalType": "uint256[]",
          "name": "_levelURIsMinted",
          "type": "uint256[]"
        }
      ],
      "name": "setLevelURIs",
      "outputs": [],
      "stateMutability": "nonpayable",
      "type": "function"
    },
    {
      "inputs": [
        {
          "internalType": "uint256[]",
          "name": "_maxLevelTime",
          "type": "uint256[]"
        },
        {
          "internalType": "uint256[]",
          "name": "_maxLevelLevel",
          "type": "uint256[]"
        }
      ],
      "name": "setMaxLevel",
      "outputs": [],
      "stateMutability": "nonpayable",
      "type": "function"
    },
    {
      "inputs": [
        {
          "internalType": "uint256",
          "name": "_initial",
          "type": "uint256"
        },
        {
          "internalType": "uint256",
          "name": "_perLevel",
          "type": "uint256"
        }
      ],
      "name": "setPrices",
      "outputs": [],
      "stateMutability": "nonpayable",
      "type": "function"
    },
    {
      "inputs": [
        {
          "internalType": "contract IUniswapV2Router",
          "name": "_router",
          "type": "address"
        }
      ],
      "name": "setRouter",
      "outputs": [],
      "stateMutability": "nonpayable",
      "type": "function"
    },
    {
      "inputs": [
        {
          "internalType": "uint256",
          "name": "_time",
          "type": "uint256"
        }
      ],
      "name": "setTimeToLevel",
      "outputs": [],
      "stateMutability": "nonpayable",
      "type": "function"
    },
    {
      "inputs": [
        {
          "internalType": "uint256",
          "name": "tokenId",
          "type": "uint256"
        },
        {
          "internalType": "uint256",
          "name": "level",
          "type": "uint256"
        }
      ],
      "name": "setTokenLevel",
      "outputs": [],
      "stateMutability": "nonpayable",
      "type": "function"
    },
    {
      "inputs": [
        {
          "internalType": "uint256",
          "name": "level",
          "type": "uint256"
        }
      ],
      "name": "supply",
      "outputs": [
        {
          "internalType": "uint256",
          "name": "",
          "type": "uint256"
        }
      ],
      "stateMutability": "view",
      "type": "function"
    },
    {
      "inputs": [
        {
          "internalType": "bytes4",
          "name": "interfaceId",
          "type": "bytes4"
        }
      ],
      "name": "supportsInterface",
      "outputs": [
        {
          "internalType": "bool",
          "name": "",
          "type": "bool"
        }
      ],
      "stateMutability": "view",
      "type": "function"
    },
    {
      "inputs": [],
      "name": "symbol",
      "outputs": [
        {
          "internalType": "string",
          "name": "",
          "type": "string"
        }
      ],
      "stateMutability": "view",
      "type": "function"
    },
    {
      "inputs": [],
      "name": "theory",
      "outputs": [
        {
          "internalType": "contract IERC20Lockable",
          "name": "",
          "type": "address"
        }
      ],
      "stateMutability": "view",
      "type": "function"
    },
    {
      "inputs": [
        {
          "internalType": "uint256",
          "name": "tokenId",
          "type": "uint256"
        }
      ],
      "name": "timeLeftToLevel",
      "outputs": [
        {
          "internalType": "uint256",
          "name": "",
          "type": "uint256"
        }
      ],
      "stateMutability": "view",
      "type": "function"
    },
    {
      "inputs": [],
      "name": "timeToLevel",
      "outputs": [
        {
          "internalType": "uint256",
          "name": "",
          "type": "uint256"
        }
      ],
      "stateMutability": "view",
      "type": "function"
    },
    {
      "inputs": [
        {
          "internalType": "uint256",
          "name": "index",
          "type": "uint256"
        }
      ],
      "name": "tokenByIndex",
      "outputs": [
        {
          "internalType": "uint256",
          "name": "",
          "type": "uint256"
        }
      ],
      "stateMutability": "view",
      "type": "function"
    },
    {
      "inputs": [
        {
          "internalType": "uint256",
          "name": "",
          "type": "uint256"
        }
      ],
      "name": "tokenInfo",
      "outputs": [
        {
          "internalType": "uint256",
          "name": "level",
          "type": "uint256"
        },
        {
          "internalType": "uint256",
          "name": "creationTime",
          "type": "uint256"
        },
        {
          "internalType": "uint256",
          "name": "lastLevelTime",
          "type": "uint256"
        },
        {
          "internalType": "bool",
          "name": "merged",
          "type": "bool"
        }
      ],
      "stateMutability": "view",
      "type": "function"
    },
    {
      "inputs": [
        {
          "internalType": "address",
          "name": "owner",
          "type": "address"
        },
        {
          "internalType": "uint256",
          "name": "index",
          "type": "uint256"
        }
      ],
      "name": "tokenOfOwnerByIndex",
      "outputs": [
        {
          "internalType": "uint256",
          "name": "",
          "type": "uint256"
        }
      ],
      "stateMutability": "view",
      "type": "function"
    },
    {
      "inputs": [
        {
          "internalType": "uint256",
          "name": "tokenId",
          "type": "uint256"
        }
      ],
      "name": "tokenURI",
      "outputs": [
        {
          "internalType": "string",
          "name": "",
          "type": "string"
        }
      ],
      "stateMutability": "view",
      "type": "function"
    },
    {
      "inputs": [],
      "name": "totalSupply",
      "outputs": [
        {
          "internalType": "uint256",
          "name": "",
          "type": "uint256"
        }
      ],
      "stateMutability": "view",
      "type": "function"
    },
    {
      "inputs": [
        {
          "internalType": "address",
          "name": "from",
          "type": "address"
        },
        {
          "internalType": "address",
          "name": "to",
          "type": "address"
        },
        {
          "internalType": "uint256",
          "name": "tokenId",
          "type": "uint256"
        }
      ],
      "name": "transferFrom",
      "outputs": [],
      "stateMutability": "nonpayable",
      "type": "function"
    },
    {
      "inputs": [
        {
          "internalType": "address",
          "name": "newOwner",
          "type": "address"
        }
      ],
      "name": "transferOwnership",
      "outputs": [],
      "stateMutability": "nonpayable",
      "type": "function"
    }
  ],
  "bytecode": "0x60806040523480156200001157600080fd5b5060405162006d3a38038062006d3a8339810160408190526200003491620009e9565b604080518082018252601581527f5448454f525920556e6c6f636b65722047656e20310000000000000000000000602080830191909152825180840190935260048352635455473160e01b9083015290620000966301ffc9a760e01b62000577565b8151620000ab906006906020850190620005cd565b508051620000c1906007906020840190620005cd565b50620000d46380ac58cd60e01b62000577565b620000e6635b5e139f60e01b62000577565b620000f863780e9d6360e01b62000577565b506000905062000107620005c9565b600a80546001600160a01b0319166001600160a01b038316908117909155604051919250906000907f8be0079c531659141344cd1fd0a4f28419497f9722a3daafe3b4186f6b6457e0908290a350601680546001600160a01b0319166001600160a01b038d1617905560208a01518a511015620001a15760405162461bcd60e51b8152600401620001989062000cbf565b60405180910390fd5b895160175560208a0151601855825115801590620001d4575082600081518110620001c857fe5b60200260200101516000145b8015620001e2575082518251145b8015620001f0575082518151145b6200020f5760405162461bcd60e51b8152600401620001989062000b95565b60008551118015620002365750846000815181106200022a57fe5b60200260200101516000145b801562000244575084518451145b620002635760405162461bcd60e51b8152600401620001989062000c4c565b83516000905b80821015620002b65760648683815181106200028157fe5b60200260200101511115620002aa5760405162461bcd60e51b8152600401620001989062000c09565b60018201915062000269565b8451620002cb90600f90602088019062000652565b508351620002e19060109060208701906200068f565b508251620002f790601190602086019062000652565b5050600f54600091505b80821015620003795760128054600181810190925560007fbb8a6a4669ba250d26cd7a459eca9d215f8307e33aebe50379bc5a3617ec34449091018190556013805480840182559082527f66de8ffda797e3de9c05e8fc57b3bf0ec28a930d40b0d285d93c06501cf6a0900155919091019062000301565b86516200038e9060149060208a019062000652565b508551620003a490601590602089019062000652565b50601a80546001600160a01b0319166001600160a01b038c161790556203f480601b558a60006020020151601c80546001600160a01b0319166001600160a01b039092169190911790558a600160209081029190910151601d80546001600160a01b03199081166001600160a01b039384161761ffff60a01b1916909155601e805482168d84161781556103e86019908155601f8054909316938d1693909317909155670de0b6b3a76400008355604080516101408101825260008152600594810194909452600a908401819052600f60608501526014608085015260a084019290925260c0830152602360e08301526028610100830152602d610120830152620004b291602191620006ef565b506040805161014081018252674563918244f400008152678ac7230489e8000060208201526801158e460913d000009181019190915268022b1c8c1227a0000060608201526804563918244f40000060808201526808ac7230489e80000060a0820152681158e460913d00000060c08201526822b1c8c1227a00000060e0820152684563918244f4000000610100820152688ac7230489e80000006101208201526200056390602290600a62000732565b505050505050505050505050505062000d8f565b6001600160e01b03198082161415620005a45760405162461bcd60e51b8152600401620001989062000b5e565b6001600160e01b0319166000908152602081905260409020805460ff19166001179055565b3390565b828054600181600116156101000203166002900490600052602060002090601f016020900481019282601f106200061057805160ff191683800117855562000640565b8280016001018555821562000640579182015b828111156200064057825182559160200191906001019062000623565b506200064e9291506200077b565b5090565b8280548282559060005260206000209081019282156200064057916020028201828111156200064057825182559160200191906001019062000623565b828054828255906000526020600020908101928215620006e1579160200282015b82811115620006e15782518051620006d0918491602090910190620005cd565b5091602001919060010190620006b0565b506200064e92915062000792565b82805482825590600052602060002090810192821562000640579160200282015b8281111562000640578251829060ff1690559160200191906001019062000710565b82805482825590600052602060002090810192821562000640579160200282015b828111156200064057825182906001600160481b031690559160200191906001019062000753565b5b808211156200064e57600081556001016200077c565b808211156200064e576000620007a98282620007b3565b5060010162000792565b50805460018160011615610100020316600290046000825580601f10620007db5750620007fb565b601f016020900490600052602060002090810190620007fb91906200077b565b50565b80516200080b8162000d79565b92915050565b600082601f83011262000822578081fd5b6200082e604062000cdb565b90508082846040850111156200084357600080fd5b60005b6002811015620008735781516200085d8162000d79565b8352602092830192919091019060010162000846565b50505092915050565b600082601f8301126200088d578081fd5b8151620008a46200089e8262000d02565b62000cdb565b818152915060208083019084810160005b8481101562000923578151870188603f820112620008d257600080fd5b83810151620008e56200089e8262000d22565b81815260408b81848601011115620008fc57600080fd5b6200090d8388840183870162000d46565b50865250509282019290820190600101620008b5565b505050505092915050565b600082601f8301126200093f578081fd5b6200094b604062000cdb565b90508082846040850111156200096057600080fd5b60005b60028110156200087357815183526020928301929091019060010162000963565b600082601f83011262000995578081fd5b8151620009a66200089e8262000d02565b818152915060208083019084810181840286018201871015620009c857600080fd5b60005b848110156200092357815184529282019290820190600101620009cb565b60008060008060008060008060008060006101a08c8e03121562000a0b578687fd5b62000a178d8d620007fe565b9a5062000a288d60208e016200092e565b995062000a398d60608e0162000811565b985062000a4a8d60a08e01620007fe565b975062000a5b8d60c08e01620007fe565b965062000a6c8d60e08e01620007fe565b6101008d01519096506001600160401b0381111562000a89578586fd5b62000a978e828f0162000984565b6101208e015190965090506001600160401b0381111562000ab6578485fd5b62000ac48e828f0162000984565b6101408e015190955090506001600160401b0381111562000ae3578384fd5b62000af18e828f0162000984565b6101608e015190945090506001600160401b0381111562000b10578283fd5b62000b1e8e828f016200087c565b6101808e015190935090506001600160401b0381111562000b3d578182fd5b62000b4b8e828f0162000984565b9150509295989b509295989b9093969950565b6020808252601c908201527f4552433136353a20696e76616c696420696e7465726661636520696400000000604082015260600190565b6020808252604e908201527f4c6576656c2055524920617272617973206d75737420626520657175616c206960408201527f6e206e6f6e2d7a65726f206c656e67746820616e64206c6576656c2073686f7560608201526d36321039ba30b93a1030ba10181760911b608082015260a00190565b60208082526023908201527f4d6178206c6576656c2063616e277420626520686967686572207468616e203160408201526218181760e91b606082015260800190565b6020808252604d908201527f4d6178206c6576656c20617272617973206d75737420626520657175616c206960408201527f6e206e6f6e2d7a65726f206c656e67746820616e642074696d652073686f756c60608201526c321039ba30b93a1030ba10181760991b608082015260a00190565b602080825260029082015261049560f41b604082015260600190565b6040518181016001600160401b038111828210171562000cfa57600080fd5b604052919050565b60006001600160401b0382111562000d18578081fd5b5060209081020190565b60006001600160401b0382111562000d38578081fd5b50601f01601f191660200190565b60005b8381101562000d6357818101518382015260200162000d49565b8381111562000d73576000848401525b50505050565b6001600160a01b0381168114620007fb57600080fd5b615f9b8062000d9f6000396000f3fe608060405234801561001057600080fd5b50600436106104695760003560e01c80637001e2a61161024c578063c87b56dd11610146578063dd289dcb116100c3578063ec3ddf3011610087578063ec3ddf3014610962578063f01f20df14610975578063f2fde38b1461097d578063f887ea4014610990578063fd3265921461099857610469565b8063dd289dcb1461090e578063df87026214610921578063e03652d314610934578063e74ab80f1461093c578063e985e9c51461094f57610469565b8063cf1c316a1161010a578063cf1c316a146108af578063d1c2babb146108c2578063d20bffa7146108d5578063d2a87f0f146108e8578063db357c30146108fb57610469565b8063c87b56dd1461084b578063ca60567a1461085e578063cc06c35914610871578063cc33c87514610879578063cc67d1ae1461089c57610469565b8063a22cb465116101d4578063b918161111610198578063b9181611146107f7578063c0d786551461080a578063c3f0d3271461081d578063c3fe3e2814610830578063c50d0a531461083857610469565b8063a22cb465146107a3578063a4821719146107b6578063aa08279c146107be578063b0d388ba146107d1578063b88d4fde146107e457610469565b80637dc0bf3f1161021b5780637dc0bf3f146107655780638a1165b3146107785780638da5cb5b1461078b57806395d89b41146107935780639eb3a6431461079b57610469565b80637001e2a61461072457806370a0823114610737578063711671221461074a578063715018a61461075d57610469565b8063286b297c116103685780633f684d38116102e557806358df3825116102a957806358df3825146106d057806359c5f463146106e35780635b2f4ed4146106f65780636352211e146107095780636c0360eb1461071c57610469565b80633f684d381461067c57806342842e0e1461068f57806347aebf9a146106a2578063485d7d94146106aa5780634f6ccce7146106bd57610469565b806337339a161161032c57806337339a161461062857806337f3e8a41461063b57806338d170991461064e5780633bcafb63146106615780633c32a4501461067457610469565b8063286b297c146105d45780632eb552f3146105e75780632f745c59146105fa57806334452f381461060d578063354030231461061557610469565b80630b744f3d116103f65780631c04628d116103ba5780631c04628d146105965780631d0806ae1461059e5780631e58a918146105a657806323b872dd146105b9578063257c739b146105cc57610469565b80630b744f3d146105425780630ce90ec21461055557806315dbb0151461056857806318160ddd1461057b5780631b2ef1ca1461058357610469565b8063081437961161043d57806308143796146104d6578063081812fc146104f657806308a5510c14610509578063095ea7b31461051c5780630a8424331461052f57610469565b8062f380f41461046e57806301ffc9a71461048c57806305fefda7146104ac57806306fdde03146104c1575b600080fd5b6104766109ab565b6040516104839190614f84565b60405180910390f35b61049f61049a366004614da4565b6109ba565b60405161048391906150a6565b6104bf6104ba366004614ea9565b6109dd565b005b6104c9610a5a565b60405161048391906150b1565b6104e96104e4366004614e0f565b610af0565b6040516104839190615de3565b610476610504366004614e0f565b610b0e565b6104bf610517366004614d6c565b610b51565b6104bf61052a366004614b84565b610bb8565b6104e961053d366004614b84565b610c50565b6104e9610550366004614e0f565b610e72565b6104bf610563366004614e0f565b610e7f565b6104e9610576366004614e0f565b610f10565b6104e9610f79565b6104e9610591366004614ea9565b610f8a565b61049f6114a4565b6104e96114b4565b6104bf6105b4366004614e0f565b6114ba565b6104bf6105c7366004614aad565b611573565b6104e96115ab565b6104bf6105e2366004614d6c565b6115b1565b6104e96105f5366004614e0f565b611618565b6104e9610608366004614b84565b611625565b61049f61164e565b6104e9610623366004614e0f565b61165e565b6104bf610636366004614a59565b6116ab565b6104e9610649366004614e0f565b611716565b6104c961065c366004614e0f565b611723565b6104e961066f366004614e0f565b611819565b610476611826565b6104e961068a366004614e0f565b611835565b6104bf61069d366004614aad565b611874565b6104e961188f565b6104bf6106b8366004614a59565b611895565b6104e96106cb366004614e0f565b61190b565b6104bf6106de366004614b84565b611921565b6104e96106f1366004614e0f565b6119d2565b6104c9610704366004614e0f565b6119df565b610476610717366004614e0f565b611a85565b6104c9611aad565b6104bf610732366004614b84565b611b0e565b6104e9610745366004614a59565b611b89565b6104bf610758366004614ea9565b611bd2565b6104bf611c30565b6104e9610773366004614e0f565b611cb9565b6104bf610786366004614a59565b611d06565b610476611d71565b6104c9611d80565b6104e9611de1565b6104bf6107b1366004614b57565b611de7565b610476611eb5565b6104bf6107cc366004614d0b565b611ec4565b6104bf6107df366004614ea9565b611fd6565b6104bf6107f2366004614aed565b612129565b61049f610805366004614a59565b612168565b6104bf610818366004614a59565b61217d565b6104bf61082b366004614e0f565b6121e8565b610476612258565b6104bf610846366004614e3f565b612267565b6104c9610859366004614e0f565b612329565b6104bf61086c366004614ea9565b61246f565b6104e96124fd565b61088c610887366004614e0f565b612565565b6040516104839493929190615e41565b6104bf6108aa366004614ea9565b61258f565b6104bf6108bd366004614a59565b6125ed565b6104e96108d0366004614ea9565b612650565b6104bf6108e3366004614c3f565b6129d0565b6104e96108f6366004614e0f565b612b1a565b6104bf610909366004614e0f565b612b67565b6104bf61091c366004614e0f565b6133bb565b6104e961092f366004614e0f565b613409565b610476613416565b6104e961094a366004614e0f565b613425565b61049f61095d366004614a75565b613432565b6104e9610970366004614e0f565b613460565b6104e9613481565b6104bf61098b366004614a59565b613487565b610476613548565b6104e96109a6366004614e0f565b613557565b601a546001600160a01b031681565b6001600160e01b0319811660009081526020819052604090205460ff165b919050565b336000908152600b602052604090205460ff1680610a0a5750336109ff611d71565b6001600160a01b0316145b610a2f5760405162461bcd60e51b8152600401610a2690615afd565b60405180910390fd5b80821015610a4f5760405162461bcd60e51b8152600401610a2690615d2c565b601791909155601855565b60068054604080516020601f6002600019610100600188161502019095169490940493840181900481028201810190925282815260609390929091830182828015610ae65780601f10610abb57610100808354040283529160200191610ae6565b820191906000526020600020905b815481529060010190602001808311610ac957829003601f168201915b5050505050905090565b60158181548110610afd57fe5b600091825260209091200154905081565b6000610b198261356a565b610b355760405162461bcd60e51b8152600401610a26906158d2565b506000908152600460205260409020546001600160a01b031690565b336000908152600b602052604090205460ff1680610b7e575033610b73611d71565b6001600160a01b0316145b610b9a5760405162461bcd60e51b8152600401610a2690615afd565b601d8054911515600160a01b0260ff60a01b19909216919091179055565b6000610bc382611a85565b9050806001600160a01b0316836001600160a01b03161415610bf75760405162461bcd60e51b8152600401610a2690615abc565b806001600160a01b0316610c09613577565b6001600160a01b03161480610c255750610c258161095d613577565b610c415760405162461bcd60e51b8152600401610a269061561b565b610c4b838361357b565b505050565b6000610c5a614786565b601e54604051630cacd00160e11b81526001600160a01b0390911690631959a00290610c8a908790600401614f84565b604080518083038186803b158015610ca157600080fd5b505afa158015610cb5573d6000803e3d6000fd5b505050506040513d601f19601f82011682018060405250810190610cd99190614ddc565b601c54604051635a46d3b560e01b81529192506000916001600160a01b0390911690635a46d3b590610d0f908890600401614f84565b60206040518083038186803b158015610d2757600080fd5b505afa158015610d3b573d6000803e3d6000fd5b505050506040513d601f19601f82011682018060405250810190610d5f9190614e27565b905080610d7157600092505050610e6c565b601c5460405163010158bb60e51b81526000916001600160a01b03169063202b176090610da2908990600401614f84565b60206040518083038186803b158015610dba57600080fd5b505afa158015610dce573d6000803e3d6000fd5b505050506040513d601f19601f82011682018060405250810190610df29190614e27565b9050808211610e075760009350505050610e6c565b610e1182826135e9565b915082602001518211610e2a5760009350505050610e6c565b6020830151610e3a9083906135e9565b6000868152600e602052604081205491935090610e6590606490610e5f908690613611565b9061364b565b9450505050505b92915050565b60128181548110610afd57fe5b610e8761367d565b15610ea45760405162461bcd60e51b8152600401610a2690615cb6565b610eac61369e565b15610ec95760405162461bcd60e51b8152600401610a2690615cb6565b610ed2816136bf565b50436000908152600c602090815260408083203284529091528082208054600160ff1991821681179092553384529190922080549091169091179055565b600f54600090819080825b8115610f6f57600182039050600f8181548110610f3457fe5b90600052602060002001548610610f645760118181548110610f5257fe5b90600052602060002001549350610f6f565b600182039150610f1b565b5091949350505050565b6000610f8560026138b3565b905090565b6000610f9461367d565b15610fb15760405162461bcd60e51b8152600401610a2690615cb6565b610fb961369e565b15610fd65760405162461bcd60e51b8152600401610a2690615cb6565b601d54600160a01b900460ff161580610ff35750610ff3336138be565b61100f5760405162461bcd60e51b8152600401610a26906154c2565b60008311801561102657506110226124fd565b8311155b8061104057506000831180156110405750611040336138be565b61105c5760405162461bcd60e51b8152600401610a2690615106565b611065336138be565b61138f57600061108e61108561107c8660016135e9565b60185490613611565b6017549061391d565b905060006110ad612710610e5f6019548561361190919063ffffffff16565b905060006110bb83836135e9565b601a546016549192506110dd916001600160a01b039081169133911684613942565b6040805160028082526060808301845260009390929190602083019080368337505060165482519293506001600160a01b03169183915060009061111d57fe5b6001600160a01b039283166020918202929092010152601d5482519116908290600190811061114857fe5b6001600160a01b03928316602091820292909201015260165461116e9116333087613942565b601f5460405163d06ca61f60e01b81526060916001600160a01b03169063d06ca61f906111a19088908690600401615dec565b60006040518083038186803b1580156111b957600080fd5b505afa1580156111cd573d6000803e3d6000fd5b505050506040513d6000823e601f3d908101601f191682016040526111f59190810190614baf565b905060008160018351038151811061120957fe5b6020026020010151905061123661122f612710610e5f8c8561361190919063ffffffff16565b82906135e9565b601f5460165491955061125993506001600160a01b03918216925016600061399a565b601f54601654611276916001600160a01b0391821691168661399a565b601f546040516338ed173960e01b81526060916001600160a01b0316906338ed1739906112af9088908790879030904290600401615e05565b600060405180830381600087803b1580156112c957600080fd5b505af11580156112dd573d6000803e3d6000fd5b505050506040513d6000823e601f3d908101601f191682016040526113059190810190614baf565b905060008160018351038151811061131957fe5b6020908102919091010151601d54604051630852cd8d60e31b81529192506001600160a01b0316906342966c6890611355908490600401615de3565b600060405180830381600087803b15801561136f57600080fd5b505af1158015611383573d6000803e3d6000fd5b50505050505050505050505b3361139a600d613a5d565b60006113a6600d613a66565b6000818152600e602052604090204260018083018290556002830191909155919250906113d4908790613a6a565b6113df866001613acb565b6113e98383613b62565b85815560606113f787611723565b9050600081511161141a5760405162461bcd60e51b8152600401610a2690615567565b6114248382613c26565b7f4c209b5fc8ad50758f13e2e1088ba56a560dff690a1c6fef26394f4c03821c4f33848960405161145793929190614fd5565b60405180910390a15050436000908152600c602090815260408083203284529091528082208054600160ff1991821681179092553384529190922080549091169091179055949350505050565b601d54600160a81b900460ff1681565b60175481565b6114c261367d565b156114df5760405162461bcd60e51b8152600401610a2690615cb6565b6114e761369e565b156115045760405162461bcd60e51b8152600401610a2690615cb6565b601b546000828152600e60205260409020600201546115229161391d565b4210156115415760405162461bcd60e51b8152600401610a2690615cfc565b601b546000828152600e602052604090206002015461155f9161391d565b4210610ed25761156e816136bf565b611541565b61158461157e613577565b82613c6a565b6115a05760405162461bcd60e51b8152600401610a2690615be4565b610c4b838383613cef565b60185481565b336000908152600b602052604090205460ff16806115de5750336115d3611d71565b6001600160a01b0316145b6115fa5760405162461bcd60e51b8152600401610a2690615afd565b601d8054911515600160a81b0260ff60a81b19909216919091179055565b600f8181548110610afd57fe5b6001600160a01b03821660009081526001602052604081206116479083613dfd565b9392505050565b601d54600160a01b900460ff1681565b600f54600090819080825b8115610f6f57600182039050600f818154811061168257fe5b906000526020600020015486106116a05760128181548110610f5257fe5b600182039150611669565b336000908152600b602052604090205460ff16806116d85750336116cd611d71565b6001600160a01b0316145b6116f45760405162461bcd60e51b8152600401610a2690615afd565b601a80546001600160a01b0319166001600160a01b0392909216919091179055565b60138181548110610afd57fe5b60408051602081019091526000808252600f546060929181905b8115610f6f57600182039050600f818154811061175657fe5b9060005260206000200154861061180e576010818154811061177457fe5b600091825260209182902001805460408051601f60026000196101006001871615020190941693909304928301859004850281018501909152818152928301828280156118025780601f106117d757610100808354040283529160200191611802565b820191906000526020600020905b8154815290600101906020018083116117e557829003601f168201915b50505050509350610f6f565b60018203915061173d565b60148181548110610afd57fe5b601c546001600160a01b031681565b601b546000828152600e6020526040812060020154909182916118579161391d565b905080421061186a5760009150506109d8565b61164781426135e9565b610c4b83838360405180602001604052806000815250612129565b601b5481565b61189d613577565b6001600160a01b03166118ae611d71565b6001600160a01b0316146118d45760405162461bcd60e51b8152600401610a269061596a565b6001600160a01b0381163314156118ea57600080fd5b6001600160a01b03166000908152600b60205260409020805460ff19169055565b600080611919600284613e09565b509392505050565b336000908152600b602052604090205460ff168061194e575033611943611d71565b6001600160a01b0316145b61196a5760405162461bcd60e51b8152600401610a2690615afd565b601e546040516358df382560e01b81526001600160a01b03909116906358df38259061199c908590859060040161508d565b600060405180830381600087803b1580156119b657600080fd5b505af11580156119ca573d6000803e3d6000fd5b505050505050565b60218181548110610afd57fe5b601081815481106119ec57fe5b600091825260209182902001805460408051601f6002600019610100600187161502019094169390930492830185900485028101850190915281815293509091830182828015611a7d5780601f10611a5257610100808354040283529160200191611a7d565b820191906000526020600020905b815481529060010190602001808311611a6057829003601f168201915b505050505081565b6000610e6c82604051806060016040528060298152602001615f3d6029913960029190613e25565b60098054604080516020601f6002600019610100600188161502019095169490940493840181900481028201810190925282815260609390929091830182828015610ae65780601f10610abb57610100808354040283529160200191610ae6565b336000908152600b602052604090205460ff1680611b3b575033611b30611d71565b6001600160a01b0316145b611b575760405162461bcd60e51b8152600401610a2690615afd565b601e54604051633800f15360e11b81526001600160a01b0390911690637001e2a69061199c908590859060040161508d565b60006001600160a01b038216611bb15760405162461bcd60e51b8152600401610a2690615678565b6001600160a01b0382166000908152600160205260409020610e6c906138b3565b336000908152600b602052604090205460ff1680611bff575033611bf4611d71565b6001600160a01b0316145b611c1b5760405162461bcd60e51b8152600401610a2690615afd565b6000918252600e602052604090912060010155565b611c38613577565b6001600160a01b0316611c49611d71565b6001600160a01b031614611c6f5760405162461bcd60e51b8152600401610a269061596a565b600a546040516000916001600160a01b0316907f8be0079c531659141344cd1fd0a4f28419497f9722a3daafe3b4186f6b6457e0908390a3600a80546001600160a01b0319169055565b600f54600090819080825b8115610f6f57600182039050600f8181548110611cdd57fe5b90600052602060002001548610611cfb5760138181548110610f5257fe5b600182039150611cc4565b336000908152600b602052604090205460ff1680611d33575033611d28611d71565b6001600160a01b0316145b611d4f5760405162461bcd60e51b8152600401610a2690615afd565b601680546001600160a01b0319166001600160a01b0392909216919091179055565b600a546001600160a01b031690565b60078054604080516020601f6002600019610100600188161502019095169490940493840181900481028201810190925282815260609390929091830182828015610ae65780601f10610abb57610100808354040283529160200191610ae6565b60205481565b611def613577565b6001600160a01b0316826001600160a01b03161415611e205760405162461bcd60e51b8152600401610a269061534a565b8060056000611e2d613577565b6001600160a01b03908116825260208083019390935260409182016000908120918716808252919093529120805460ff191692151592909217909155611e71613577565b6001600160a01b03167f17307eab39ab6107e8899845ad3d59bd9653f200f220920489ca2b5937696c3183604051611ea991906150a6565b60405180910390a35050565b6016546001600160a01b031681565b336000908152600b602052604090205460ff1680611ef1575033611ee6611d71565b6001600160a01b0316145b611f0d5760405162461bcd60e51b8152600401610a2690615afd565b60008251118015611f32575081600081518110611f2657fe5b60200260200101516000145b8015611f3f575081518151145b611f5b5760405162461bcd60e51b8152600401610a269061581e565b80516000905b80821015611fa8576064838381518110611f7757fe5b60200260200101511115611f9d5760405162461bcd60e51b8152600401610a26906153b6565b600182019150611f61565b8351611fbb9060149060208701906147a0565b508251611fcf9060159060208601906147a0565b5050505050565b611fde61367d565b15611ffb5760405162461bcd60e51b8152600401610a2690615cb6565b61200361369e565b156120205760405162461bcd60e51b8152600401610a2690615cb6565b6000828152600e60205260409020548111801561204457506120406124fd565b8111155b6120605760405162461bcd60e51b8152600401610a2690615707565b601b546000838152600e602052604090206002015461207e9161391d565b42101561209d5760405162461bcd60e51b8152600401610a2690615cfc565b6000828152600e6020526040902054811180156120d75750601b546000838152600e60205260409020600201546120d39161391d565b4210155b156120ea576120e5826136bf565b61209d565b5050436000908152600c602090815260408083203284529091528082208054600160ff1991821681179092553384529190922080549091169091179055565b61213a612134613577565b83613c6a565b6121565760405162461bcd60e51b8152600401610a2690615be4565b61216284848484613e32565b50505050565b600b6020526000908152604090205460ff1681565b336000908152600b602052604090205460ff16806121aa57503361219f611d71565b6001600160a01b0316145b6121c65760405162461bcd60e51b8152600401610a2690615afd565b601f80546001600160a01b0319166001600160a01b0392909216919091179055565b336000908152600b602052604090205460ff168061221557503361220a611d71565b6001600160a01b0316145b6122315760405162461bcd60e51b8152600401610a2690615afd565b6127108111156122535760405162461bcd60e51b8152600401610a2690615bc8565b601955565b601d546001600160a01b031681565b336000908152600b602052604090205460ff1680612294575033612289611d71565b6001600160a01b0316145b6122b05760405162461bcd60e51b8152600401610a2690615afd565b600082511180156122d55750816000815181106122c957fe5b60200260200101516000145b80156122e2575081518151145b6122fe5760405162461bcd60e51b8152600401610a269061599f565b6020838155825161231591602191908501906147a0565b5080516121629060229060208401906147a0565b60606123348261356a565b6123505760405162461bcd60e51b8152600401610a2690615a05565b60008281526008602090815260409182902080548351601f60026000196101006001861615020190931692909204918201849004840281018401909452808452606093928301828280156123e55780601f106123ba576101008083540402835291602001916123e5565b820191906000526020600020905b8154815290600101906020018083116123c857829003601f168201915b5050505050905060606123f6611aad565b905080516000141561240a575090506109d8565b81511561243c578082604051602001612424929190614f55565b604051602081830303815290604052925050506109d8565b8061244685613e65565b604051602001612457929190614f55565b60405160208183030381529060405292505050919050565b336000908152600b602052604090205460ff168061249c575033612491611d71565b6001600160a01b0316145b6124b85760405162461bcd60e51b8152600401610a2690615afd565b6000811180156124cf57506124cb6124fd565b8111155b6124eb5760405162461bcd60e51b8152600401610a2690615106565b6000918252600e602052604090912055565b601454600090819080825b811561255c576001820390506014818154811061252157fe5b90600052602060002001544210612551576015818154811061253f57fe5b9060005260206000200154935061255c565b600182039150612508565b50919250505090565b600e6020526000908152604090208054600182015460028301546003909301549192909160ff1684565b336000908152600b602052604090205460ff16806125bc5750336125b1611d71565b6001600160a01b0316145b6125d85760405162461bcd60e51b8152600401610a2690615afd565b6000918252600e602052604090912060020155565b6125f5613577565b6001600160a01b0316612606611d71565b6001600160a01b03161461262c5760405162461bcd60e51b8152600401610a269061596a565b6001600160a01b03166000908152600b60205260409020805460ff19166001179055565b600061265a61367d565b156126775760405162461bcd60e51b8152600401610a2690615cb6565b61267f61369e565b1561269c5760405162461bcd60e51b8152600401610a2690615cb6565b818314156126bc5760405162461bcd60e51b8152600401610a2690615b34565b336126c684611a85565b6001600160a01b031614806126ea5750336000908152600b602052604090205460ff165b806127045750336126f9611d71565b6001600160a01b0316145b6127205760405162461bcd60e51b8152600401610a2690615149565b3361272a83611a85565b6001600160a01b0316148061274e5750336000908152600b602052604090205460ff165b8061276857503361275d611d71565b6001600160a01b0316145b6127845760405162461bcd60e51b8152600401610a2690615a54565b61278d82611a85565b6001600160a01b031661279f84611a85565b6001600160a01b0316146127c55760405162461bcd60e51b8152600401610a2690615d9e565b6000838152600e602052604090206003015460ff16156127f75760405162461bcd60e51b8152600401610a26906155e6565b6000828152600e602052604090206003015460ff16156128295760405162461bcd60e51b8152600401610a2690615381565b6000838152600e60205260408082205484835290822054909161284c838361391d565b905060008111801561286557506128616124fd565b8111155b806128745750612874336138be565b6128905760405162461bcd60e51b8152600401610a2690615106565b600061289b87611a85565b905060606128a888612329565b90506128b388613f40565b6128c66128bf88612329565b600161400d565b6128cf87613f40565b6128d9600d613a5d565b60006128e5600d613a66565b6000818152600e602052604090204260018201819055600282015590915061290d8483613b62565b84815560038101805460ff19166001179055825161293d5760405162461bcd60e51b8152600401610a2690615567565b6129478284613c26565b7fba686ec693ca70698e2f440efae5040d92acb009a6399b0d9b9bfc47ef936145338b8b8a8a8a6040516129809695949392919061501c565b60405180910390a150436000908152600c602090815260408083203284529091528082208054600160ff199182168117909255338452919092208054909116909117905598975050505050505050565b336000908152600b602052604090205460ff16806129fd5750336129f2611d71565b6001600160a01b0316145b612a195760405162461bcd60e51b8152600401610a2690615afd565b601d54600160a01b900460ff16612a425760405162461bcd60e51b8152600401610a26906156e8565b60008551118015612a67575084600081518110612a5b57fe5b60200260200101516000145b8015612a74575084518451145b8015612a81575084518351145b8015612a8e575084518251145b8015612a9b575084518151145b612ab75760405162461bcd60e51b8152600401610a269061525b565b8451612aca90600f9060208801906147a0565b508351612ade9060109060208701906147eb565b508251612af29060119060208601906147a0565b508151612b069060129060208501906147a0565b5080516119ca9060139060208401906147a0565b602154600090819080825b8115610f6f5760018203905060218181548110612b3e57fe5b90600052602060002001548610612b5c5760228181548110610f5257fe5b600182039150612b25565b612b6f61367d565b15612b8c5760405162461bcd60e51b8152600401610a2690615cb6565b612b9461369e565b15612bb15760405162461bcd60e51b8152600401610a2690615cb6565b601d54600160a81b900460ff1615612bdb5760405162461bcd60e51b8152600401610a2690615596565b33612be582611a85565b6001600160a01b03161480612c095750336000908152600b602052604090205460ff165b80612c23575033612c18611d71565b6001600160a01b0316145b612c3f5760405162461bcd60e51b8152600401610a2690615530565b6000612c4a82611a85565b9050612c54614786565b601e54604051630cacd00160e11b81526001600160a01b0390911690631959a00290612c84908590600401614f84565b604080518083038186803b158015612c9b57600080fd5b505afa158015612caf573d6000803e3d6000fd5b505050506040513d601f19601f82011682018060405250810190612cd39190614ddc565b80519091504211612cf65760405162461bcd60e51b8152600401610a26906156c2565b601c54604051635a46d3b560e01b81526000916001600160a01b031690635a46d3b590612d27908690600401614f84565b60206040518083038186803b158015612d3f57600080fd5b505afa158015612d53573d6000803e3d6000fd5b505050506040513d601f19601f82011682018060405250810190612d779190614e27565b905080612e9a57601e54604051633800f15360e11b81526001600160a01b0390911690637001e2a690612db0908690429060040161508d565b600060405180830381600087803b158015612dca57600080fd5b505af1158015612dde573d6000803e3d6000fd5b5050601e546040516358df382560e01b81526001600160a01b0390911692506358df38259150612e14908690859060040161508d565b600060405180830381600087803b158015612e2e57600080fd5b505af1158015612e42573d6000803e3d6000fd5b5050506000858152600e60205260408082205490517fa0a01f5aa68fdaf8aa6fb537fe6078fa09dcde567f2634e239f990716cb335b09350612e8a9233928992909190614ff6565b60405180910390a1505050610ed2565b601c5460405163010158bb60e51b81526000916001600160a01b03169063202b176090612ecb908790600401614f84565b60206040518083038186803b158015612ee357600080fd5b505afa158015612ef7573d6000803e3d6000fd5b505050506040513d601f19601f82011682018060405250810190612f1b9190614e27565b9050808211612f3c5760405162461bcd60e51b8152600401610a2690615b6b565b612f4682826135e9565b91508260200151821161314f57601c5460405163579587b360e11b81526001600160a01b039091169063af2b0f6690612f8690879060009060040161508d565b600060405180830381600087803b158015612fa057600080fd5b505af1158015612fb4573d6000803e3d6000fd5b5050601e54604051633800f15360e11b81526001600160a01b039091169250637001e2a69150612fea908790429060040161508d565b600060405180830381600087803b15801561300457600080fd5b505af1158015613018573d6000803e3d6000fd5b5050601e54601c54604051635a46d3b560e01b81526001600160a01b0392831694506358df38259350889290911690635a46d3b59061305b908490600401614f84565b60206040518083038186803b15801561307357600080fd5b505afa158015613087573d6000803e3d6000fd5b505050506040513d601f19601f820116820180604052508101906130ab9190614e27565b6040518363ffffffff1660e01b81526004016130c892919061508d565b600060405180830381600087803b1580156130e257600080fd5b505af11580156130f6573d6000803e3d6000fd5b5050506000868152600e60205260408082205490517fa0a01f5aa68fdaf8aa6fb537fe6078fa09dcde567f2634e239f990716cb335b0935061313e9233928a92909190614ff6565b60405180910390a150505050610ed2565b602083015161315f9083906135e9565b6000868152600e60205260408120549193509061318490606490610e5f908690613611565b601c5460405163579587b360e11b81529192506001600160a01b03169063af2b0f66906131b7908890859060040161508d565b600060405180830381600087803b1580156131d157600080fd5b505af11580156131e5573d6000803e3d6000fd5b5050601e54604051633800f15360e11b81526001600160a01b039091169250637001e2a6915061321b908890429060040161508d565b600060405180830381600087803b15801561323557600080fd5b505af1158015613249573d6000803e3d6000fd5b5050601e54601c54604051635a46d3b560e01b81526001600160a01b0392831694506358df38259350899290911690635a46d3b59061328c908490600401614f84565b60206040518083038186803b1580156132a457600080fd5b505afa1580156132b8573d6000803e3d6000fd5b505050506040513d601f19601f820116820180604052508101906132dc9190614e27565b6040518363ffffffff1660e01b81526004016132f992919061508d565b600060405180830381600087803b15801561331357600080fd5b505af1158015613327573d6000803e3d6000fd5b5050506000878152600e6020526040908190205490517fa0a01f5aa68fdaf8aa6fb537fe6078fa09dcde567f2634e239f990716cb335b092506133709133918a91908690614ff6565b60405180910390a15050436000908152600c602090815260408083203284529091528082208054600160ff199182168117909255338452919092208054909116909117905550505050565b336000908152600b602052604090205460ff16806133e85750336133dd611d71565b6001600160a01b0316145b6134045760405162461bcd60e51b8152600401610a2690615afd565b601b55565b60118181548110610afd57fe5b601e546001600160a01b031681565b60228181548110610afd57fe5b6001600160a01b03918216600090815260056020908152604080832093909416825291909152205460ff1690565b601b546000828152600e60205260408120600201549091610e6c919061391d565b60195481565b61348f613577565b6001600160a01b03166134a0611d71565b6001600160a01b0316146134c65760405162461bcd60e51b8152600401610a269061596a565b6001600160a01b0381166134ec5760405162461bcd60e51b8152600401610a26906151de565b600a546040516001600160a01b038084169216907f8be0079c531659141344cd1fd0a4f28419497f9722a3daafe3b4186f6b6457e090600090a3600a80546001600160a01b0319166001600160a01b0392909216919091179055565b601f546001600160a01b031681565b6000610e6c61108561107c8460016135e9565b6000610e6c6002836140ff565b3390565b600081815260046020526040902080546001600160a01b0319166001600160a01b03841690811790915581906135b082611a85565b6001600160a01b03167f8c5be1e5ebec7d5bd14f71427d1e84f3dd0314c0f7b2291e5b200ac8c7c3b92560405160405180910390a45050565b60008282111561360b5760405162461bcd60e51b8152600401610a26906153f9565b50900390565b60008261362057506000610e6c565b8282028284828161362d57fe5b04146116475760405162461bcd60e51b8152600401610a2690615891565b600080821161366c5760405162461bcd60e51b8152600401610a26906154f9565b81838161367557fe5b049392505050565b436000908152600c6020908152604080832032845290915290205460ff1690565b436000908152600c6020908152604080832033845290915290205460ff1690565b336136c982611a85565b6001600160a01b031614806136ed5750336000908152600b602052604090205460ff165b806137075750336136fc611d71565b6001600160a01b0316145b6137235760405162461bcd60e51b8152600401610a2690615530565b6000818152600e602052604090206137396124fd565b8154106137585760405162461bcd60e51b8152600401610a26906157a6565b6000613773601b54836002015461391d90919063ffffffff16565b9050804210156137955760405162461bcd60e51b8152600401610a2690615cfc565b600282018190556137a5336138be565b61385b5781546020546000916137bb9190613611565b905060006137cc8460000154612b1a565b905060006137da838361391d565b601d549091506137f5906001600160a01b0316333084613942565b601d54604051630852cd8d60e31b81526001600160a01b03909116906342966c6890613825908490600401615de3565b600060405180830381600087803b15801561383f57600080fd5b505af1158015613853573d6000803e3d6000fd5b505050505050505b815460009061386b90600161391d565b8084556040519091507ffad5be9f4ac6c1de813a372154d2eaced7085081b790ef2176b34cc456b09709906138a590339087908590614fd5565b60405180910390a150505050565b6000610e6c82613a66565b601a546000906001600160a01b03838116911614806138f557506001600160a01b0382166000908152600b602052604090205460ff165b80610e6c5750816001600160a01b031661390d611d71565b6001600160a01b03161492915050565b6000828201838110156116475760405162461bcd60e51b8152600401610a26906152cf565b612162846323b872dd60e01b85858560405160240161396393929190615069565b60408051601f198184030181529190526020810180516001600160e01b03166001600160e01b03199093169290921790915261410b565b801580613a225750604051636eb1769f60e11b81526001600160a01b0384169063dd62ed3e906139d0903090869060040161504f565b60206040518083038186803b1580156139e857600080fd5b505afa1580156139fc573d6000803e3d6000fd5b505050506040513d601f19601f82011682018060405250810190613a209190614e27565b155b613a3e5760405162461bcd60e51b8152600401610a2690615d48565b610c4b8363095ea7b360e01b848460405160240161396392919061508d565b80546001019055565b5490565b600f548060005b8115611fcf57600182039050600f8181548110613a8a57fe5b90600052602060002001548510613ac0578360128281548110613aa957fe5b600091825260209091200180549091019055611fcf565b600182039150613a71565b600f548060005b8115611fcf57600182039050600f8181548110613aeb57fe5b90600052602060002001548510613b575760118181548110613b0957fe5b906000526020600020015460138281548110613b2157fe5b906000526020600020015410613b495760405162461bcd60e51b8152600401610a2690615a97565b8360138281548110613aa957fe5b600182039150613ad2565b6001600160a01b038216613b885760405162461bcd60e51b8152600401610a26906157e9565b613b918161356a565b15613bae5760405162461bcd60e51b8152600401610a2690615224565b613bba60008383610c4b565b6001600160a01b0382166000908152600160205260409020613bdc908261419a565b50613be9600282846141a6565b5060405181906001600160a01b038416906000907fddf252ad1be2c89b69c2b068fc378daa952ba7f163c4a11628f55a4df523b3ef908290a45050565b613c2f8261356a565b613c4b5760405162461bcd60e51b8152600401610a269061591e565b60008281526008602090815260409091208251610c4b92840190614844565b6000613c758261356a565b613c915760405162461bcd60e51b8152600401610a2690615476565b6000613c9c83611a85565b9050806001600160a01b0316846001600160a01b03161480613cd75750836001600160a01b0316613ccc84610b0e565b6001600160a01b0316145b80613ce75750613ce78185613432565b949350505050565b826001600160a01b0316613d0282611a85565b6001600160a01b031614613d285760405162461bcd60e51b8152600401610a26906159bc565b6001600160a01b038216613d4e5760405162461bcd60e51b8152600401610a2690615306565b613d59838383610c4b565b613d6460008261357b565b6001600160a01b0383166000908152600160205260409020613d8690826141bc565b506001600160a01b0382166000908152600160205260409020613da9908261419a565b50613db6600282846141a6565b5080826001600160a01b0316846001600160a01b03167fddf252ad1be2c89b69c2b068fc378daa952ba7f163c4a11628f55a4df523b3ef60405160405180910390a4505050565b600061164783836141c8565b6000808080613e18868661420d565b9097909650945050505050565b6000613ce7848484614269565b613e3d848484613cef565b613e49848484846142c8565b6121625760405162461bcd60e51b8152600401610a269061518c565b606081613e8a57506040805180820190915260018152600360fc1b60208201526109d8565b8160005b8115613ea257600101600a82049150613e8e565b60608167ffffffffffffffff81118015613ebb57600080fd5b506040519080825280601f01601f191660200182016040528015613ee6576020820181803683370190505b50859350905060001982015b8315613f3757600a840660300160f81b82828060019003935081518110613f1557fe5b60200101906001600160f81b031916908160001a905350600a84049350613ef2565b50949350505050565b6000613f4b82611a85565b9050613f5981600084610c4b565b613f6460008361357b565b6000828152600860205260409020546002600019610100600184161502019091160415613fa2576000828152600860205260408120613fa2916148b1565b6001600160a01b0381166000908152600160205260409020613fc490836141bc565b50613fd06002836143a7565b5060405182906000906001600160a01b038416907fddf252ad1be2c89b69c2b068fc378daa952ba7f163c4a11628f55a4df523b3ef908390a45050565b6010548060005b8115611fcf576001820390506140c9856010838154811061403157fe5b600091825260209182902001805460408051601f60026000196101006001871615020190941693909304928301859004850281018501909152818152928301828280156140bf5780601f10614094576101008083540402835291602001916140bf565b820191906000526020600020905b8154815290600101906020018083116140a257829003601f168201915b50505050506143b3565b156140f45783601282815481106140dc57fe5b60009182526020909120018054919091039055611fcf565b600182039150614014565b600061164783836143bf565b6060614160826040518060400160405280602081526020017f5361666545524332303a206c6f772d6c6576656c2063616c6c206661696c6564815250856001600160a01b03166143d79092919063ffffffff16565b805190915015610c4b578080602001905181019061417e9190614d88565b610c4b5760405162461bcd60e51b8152600401610a2690615c6c565b600061164783836143e6565b6000613ce784846001600160a01b038516614430565b600061164783836144c7565b815460009082106141eb5760405162461bcd60e51b8152600401610a26906150c4565b8260000182815481106141fa57fe5b9060005260206000200154905092915050565b8154600090819083106142325760405162461bcd60e51b8152600401610a2690615764565b600084600001848154811061424357fe5b906000526020600020906002020190508060000154816001015492509250509250929050565b600082815260018401602052604081205482816142995760405162461bcd60e51b8152600401610a2691906150b1565b508460000160018203815481106142ac57fe5b9060005260206000209060020201600101549150509392505050565b60006142dc846001600160a01b031661458d565b6142e857506001613ce7565b6060614370630a85bd0160e11b6142fd613577565b8887876040516024016143139493929190614f98565b604051602081830303815290604052906001600160e01b0319166020820180516001600160e01b038381831617835250505050604051806060016040528060328152602001615f0b603291396001600160a01b03881691906143d7565b90506000818060200190518101906143889190614dc0565b6001600160e01b031916630a85bd0160e11b1492505050949350505050565b60006116478383614593565b60006116478383614667565b60009081526001919091016020526040902054151590565b6060613ce7848460008561468c565b60006143f283836143bf565b61442857508154600181810184556000848152602080822090930184905584548482528286019093526040902091909155610e6c565b506000610e6c565b600082815260018401602052604081205480614495575050604080518082018252838152602080820184815286546001818101895560008981528481209551600290930290950191825591519082015586548684528188019092529290912055611647565b828560000160018303815481106144a857fe5b9060005260206000209060020201600101819055506000915050611647565b6000818152600183016020526040812054801561458357835460001980830191908101906000908790839081106144fa57fe5b906000526020600020015490508087600001848154811061451757fe5b60009182526020808320909101929092558281526001898101909252604090209084019055865487908061454757fe5b60019003818190600052602060002001600090559055866001016000878152602001908152602001600020600090556001945050505050610e6c565b6000915050610e6c565b3b151590565b6000818152600183016020526040812054801561458357835460001980830191908101906000908790839081106145c657fe5b90600052602060002090600202019050808760000184815481106145e657fe5b60009182526020808320845460029093020191825560019384015491840191909155835482528983019052604090209084019055865487908061462557fe5b6000828152602080822060026000199094019384020182815560019081018390559290935588815289820190925260408220919091559450610e6c9350505050565b6000815183511480156116475750508051602091820120825192909101919091201490565b6060824710156146ae5760405162461bcd60e51b8152600401610a2690615430565b6146b78561458d565b6146d35760405162461bcd60e51b8152600401610a2690615c35565b60006060866001600160a01b031685876040516146f09190614f39565b60006040518083038185875af1925050503d806000811461472d576040519150601f19603f3d011682016040523d82523d6000602084013e614732565b606091505b509150915061474282828661474d565b979650505050505050565b6060831561475c575081611647565b82511561476c5782518084602001fd5b8160405162461bcd60e51b8152600401610a2691906150b1565b604051806040016040528060008152602001600081525090565b8280548282559060005260206000209081019282156147db579160200282015b828111156147db5782518255916020019190600101906147c0565b506147e79291506148f8565b5090565b828054828255906000526020600020908101928215614838579160200282015b828111156148385782518051614828918491602090910190614844565b509160200191906001019061480b565b506147e792915061490d565b828054600181600116156101000203166002900490600052602060002090601f016020900481019282601f1061488557805160ff19168380011785556147db565b828001600101855582156147db57918201828111156147db5782518255916020019190600101906147c0565b50805460018160011615610100020316600290046000825580601f106148d757506148f5565b601f0160209004906000526020600020908101906148f591906148f8565b50565b5b808211156147e757600081556001016148f9565b808211156147e757600061492182826148b1565b5060010161490d565b600082601f83011261493a578081fd5b813561494d61494882615e85565b615e5e565b818152915060208083019084810160005b8481101561498757614975888484358a01016149f0565b8452928201929082019060010161495e565b505050505092915050565b600082601f8301126149a2578081fd5b81356149b061494882615e85565b8181529150602080830190848101818402860182018710156149d157600080fd5b60005b84811015614987578135845292820192908201906001016149d4565b600082601f830112614a00578081fd5b813567ffffffffffffffff811115614a16578182fd5b614a29601f8201601f1916602001615e5e565b9150808252836020828501011115614a4057600080fd5b8060208401602084013760009082016020015292915050565b600060208284031215614a6a578081fd5b813561164781615ed1565b60008060408385031215614a87578081fd5b8235614a9281615ed1565b91506020830135614aa281615ed1565b809150509250929050565b600080600060608486031215614ac1578081fd5b8335614acc81615ed1565b92506020840135614adc81615ed1565b929592945050506040919091013590565b60008060008060808587031215614b02578081fd5b8435614b0d81615ed1565b93506020850135614b1d81615ed1565b925060408501359150606085013567ffffffffffffffff811115614b3f578182fd5b614b4b878288016149f0565b91505092959194509250565b60008060408385031215614b69578182fd5b8235614b7481615ed1565b91506020830135614aa281615ee6565b60008060408385031215614b96578182fd5b8235614ba181615ed1565b946020939093013593505050565b60006020808385031215614bc1578182fd5b825167ffffffffffffffff811115614bd7578283fd5b8301601f81018513614be7578283fd5b8051614bf561494882615e85565b8181528381019083850185840285018601891015614c11578687fd5b8694505b83851015614c33578051835260019490940193918501918501614c15565b50979650505050505050565b600080600080600060a08688031215614c56578283fd5b853567ffffffffffffffff80821115614c6d578485fd5b614c7989838a01614992565b96506020880135915080821115614c8e578485fd5b614c9a89838a0161492a565b95506040880135915080821115614caf578485fd5b614cbb89838a01614992565b94506060880135915080821115614cd0578283fd5b614cdc89838a01614992565b93506080880135915080821115614cf1578283fd5b50614cfe88828901614992565b9150509295509295909350565b60008060408385031215614d1d578182fd5b823567ffffffffffffffff80821115614d34578384fd5b614d4086838701614992565b93506020850135915080821115614d55578283fd5b50614d6285828601614992565b9150509250929050565b600060208284031215614d7d578081fd5b813561164781615ee6565b600060208284031215614d99578081fd5b815161164781615ee6565b600060208284031215614db5578081fd5b813561164781615ef4565b600060208284031215614dd1578081fd5b815161164781615ef4565b600060408284031215614ded578081fd5b614df76040615e5e565b82518152602083015160208201528091505092915050565b600060208284031215614e20578081fd5b5035919050565b600060208284031215614e38578081fd5b5051919050565b600080600060608486031215614e53578081fd5b83359250602084013567ffffffffffffffff80821115614e71578283fd5b614e7d87838801614992565b93506040860135915080821115614e92578283fd5b50614e9f86828701614992565b9150509250925092565b60008060408385031215614ebb578182fd5b50508035926020909101359150565b6000815180845260208085019450808401835b83811015614f025781516001600160a01b031687529582019590820190600101614edd565b509495945050505050565b60008151808452614f25816020860160208601615ea5565b601f01601f19169290920160200192915050565b60008251614f4b818460208701615ea5565b9190910192915050565b60008351614f67818460208801615ea5565b835190830190614f7b818360208801615ea5565b01949350505050565b6001600160a01b0391909116815260200190565b6001600160a01b0385811682528416602082015260408101839052608060608201819052600090614fcb90830184614f0d565b9695505050505050565b6001600160a01b039390931683526020830191909152604082015260600190565b6001600160a01b0394909416845260208401929092526040830152606082015260800190565b6001600160a01b03969096168652602086019490945260408501929092526060840152608083015260a082015260c00190565b6001600160a01b0392831681529116602082015260400190565b6001600160a01b039384168152919092166020820152604081019190915260600190565b6001600160a01b03929092168252602082015260400190565b901515815260200190565b6000602082526116476020830184614f0d565b60208082526022908201527f456e756d657261626c655365743a20696e646578206f7574206f6620626f756e604082015261647360f01b606082015260800190565b60208082526023908201527f4c6576656c206d757374206265203e203020616e64203c3d206d6178206c657660408201526232b61760e91b606082015260800190565b60208082526023908201527f4e6f7420656e6f756768207065726d697373696f6e7320666f7220746f6b656e60408201526210189760e91b606082015260800190565b60208082526032908201527f4552433732313a207472616e7366657220746f206e6f6e20455243373231526560408201527131b2b4bb32b91034b6b83632b6b2b73a32b960711b606082015260800190565b60208082526026908201527f4f776e61626c653a206e6577206f776e657220697320746865207a65726f206160408201526564647265737360d01b606082015260800190565b6020808252601c908201527f4552433732313a20746f6b656e20616c7265616479206d696e74656400000000604082015260600190565b6020808252604e908201527f4c6576656c2055524920617272617973206d75737420626520657175616c206960408201527f6e206e6f6e2d7a65726f206c656e67746820616e64206c6576656c2073686f7560608201526d36321039ba30b93a1030ba10181760911b608082015260a00190565b6020808252601b908201527f536166654d6174683a206164646974696f6e206f766572666c6f770000000000604082015260600190565b60208082526024908201527f4552433732313a207472616e7366657220746f20746865207a65726f206164646040820152637265737360e01b606082015260800190565b60208082526019908201527f4552433732313a20617070726f766520746f2063616c6c657200000000000000604082015260600190565b6020808252818101527f546f6b656e20322068617320616c7265616479206265656e206d65726765642e604082015260600190565b60208082526023908201527f4d6178206c6576656c2063616e277420626520686967686572207468616e203160408201526218181760e91b606082015260800190565b6020808252601e908201527f536166654d6174683a207375627472616374696f6e206f766572666c6f770000604082015260600190565b60208082526026908201527f416464726573733a20696e73756666696369656e742062616c616e636520666f6040820152651c8818d85b1b60d21b606082015260800190565b6020808252602c908201527f4552433732313a206f70657261746f7220717565727920666f72206e6f6e657860408201526b34b9ba32b73a103a37b5b2b760a11b606082015260800190565b6020808252601a908201527f4d696e74696e6720686173206265656e2064697361626c65642e000000000000604082015260600190565b6020808252601a908201527f536166654d6174683a206469766973696f6e206279207a65726f000000000000604082015260600190565b60208082526017908201527f4e6f7420656e6f756768207065726d697373696f6e732e000000000000000000604082015260600190565b6020808252601590820152742a37b5b2b7102aa9249034b99034b73b30b634b21760591b604082015260600190565b60208082526030908201527f4e465420756e6c6f636b696e6720686173206265656e2064697361626c65642060408201526f34b71030b71032b6b2b933b2b731bc9760811b606082015260800190565b6020808252818101527f546f6b656e20312068617320616c7265616479206265656e206d65726765642e604082015260600190565b60208082526038908201527f4552433732313a20617070726f76652063616c6c6572206973206e6f74206f7760408201527f6e6572206e6f7220617070726f76656420666f7220616c6c0000000000000000606082015260800190565b6020808252602a908201527f4552433732313a2062616c616e636520717565727920666f7220746865207a65604082015269726f206164647265737360b01b606082015260800190565b6020808252600c908201526b2637b3b4b19032b93937b91760a11b604082015260600190565b602080825260059082015264444d55524960d81b604082015260600190565b6020808252603b908201527f4c6576656c206d757374206265206c6f776572207468616e206d6178206c657660408201527f656c20616e6420686967686572207468616e2063757272656e742e0000000000606082015260800190565b60208082526022908201527f456e756d657261626c654d61703a20696e646578206f7574206f6620626f756e604082015261647360f01b606082015260800190565b60208082526023908201527f4c6576656c206d757374206265206c6f776572207468616e206d6178206c657660408201526232b61760e91b606082015260800190565b6020808252818101527f4552433732313a206d696e7420746f20746865207a65726f2061646472657373604082015260600190565b6020808252604d908201527f4d6178206c6576656c20617272617973206d75737420626520657175616c206960408201527f6e206e6f6e2d7a65726f206c656e67746820616e642074696d652073686f756c60608201526c321039ba30b93a1030ba10181760991b608082015260a00190565b60208082526021908201527f536166654d6174683a206d756c7469706c69636174696f6e206f766572666c6f6040820152607760f81b606082015260800190565b6020808252602c908201527f4552433732313a20617070726f76656420717565727920666f72206e6f6e657860408201526b34b9ba32b73a103a37b5b2b760a11b606082015260800190565b6020808252602c908201527f4552433732314d657461646174613a2055524920736574206f66206e6f6e657860408201526b34b9ba32b73a103a37b5b2b760a11b606082015260800190565b6020808252818101527f4f776e61626c653a2063616c6c6572206973206e6f7420746865206f776e6572604082015260600190565b60208082526003908201526247434160e81b604082015260600190565b60208082526029908201527f4552433732313a207472616e73666572206f6620746f6b656e2074686174206960408201526839903737ba1037bbb760b91b606082015260800190565b6020808252602f908201527f4552433732314d657461646174613a2055524920717565727920666f72206e6f60408201526e3732bc34b9ba32b73a103a37b5b2b760891b606082015260800190565b60208082526023908201527f4e6f7420656e6f756768207065726d697373696f6e7320666f7220746f6b656e60408201526210191760e91b606082015260800190565b6020808252600b908201526a26b0bc1036b4b73a32b21760a91b604082015260600190565b60208082526021908201527f4552433732313a20617070726f76616c20746f2063757272656e74206f776e656040820152603960f91b606082015260800190565b60208082526018908201527f63616c6c6572206973206e6f7420617574686f72697a65640000000000000000604082015260600190565b6020808252601c908201527f546f6b656e20494473206d75737420626520646966666572656e742e00000000604082015260600190565b60208082526039908201527f546f6f206d75636820746f20756e6c6f636b206e61747572616c6c792c20706c60408201527f656173652063616c6c20756e6c6f636b28292066697273742e00000000000000606082015260800190565b602080825260029082015261424160f01b604082015260600190565b60208082526031908201527f4552433732313a207472616e736665722063616c6c6572206973206e6f74206f6040820152701ddb995c881b9bdc88185c1c1c9bdd9959607a1b606082015260800190565b6020808252601d908201527f416464726573733a2063616c6c20746f206e6f6e2d636f6e7472616374000000604082015260600190565b6020808252602a908201527f5361666545524332303a204552433230206f7065726174696f6e20646964206e6040820152691bdd081cdd58d8d9595960b21b606082015260800190565b60208082526026908201527f436f6e747261637447756172643a206f6e6520626c6f636b2c206f6e652066756040820152653731ba34b7b760d11b606082015260800190565b6020808252601690820152752a37b79032b0b9363c903a37903632bb32b6103ab81760511b604082015260600190565b602080825260029082015261049560f41b604082015260600190565b60208082526036908201527f5361666545524332303a20617070726f76652066726f6d206e6f6e2d7a65726f60408201527520746f206e6f6e2d7a65726f20616c6c6f77616e636560501b606082015260800190565b60208082526025908201527f426f746820746f6b656e73206d7573742068617665207468652073616d65206f6040820152643bb732b91760d91b606082015260800190565b90815260200190565b600083825260406020830152613ce76040830184614eca565b600086825285602083015260a06040830152615e2460a0830186614eca565b6001600160a01b0394909416606083015250608001529392505050565b938452602084019290925260408301521515606082015260800190565b60405181810167ffffffffffffffff81118282101715615e7d57600080fd5b604052919050565b600067ffffffffffffffff821115615e9b578081fd5b5060209081020190565b60005b83811015615ec0578181015183820152602001615ea8565b838111156121625750506000910152565b6001600160a01b03811681146148f557600080fd5b80151581146148f557600080fd5b6001600160e01b0319811681146148f557600080fdfe4552433732313a207472616e7366657220746f206e6f6e20455243373231526563656976657220696d706c656d656e7465724552433732313a206f776e657220717565727920666f72206e6f6e6578697374656e7420746f6b656ea26469706673582212204fd614d69e504727aa4033dcbf7c5b5e97c33c91a584fbd4e8f6969e69eef8f064736f6c634300060c0033",
  "linkReferences": {},
  "deployedLinkReferences": {}
}