{
  "_format": "hh-sol-artifact-1",
  "contractName": "TheoryUnlockerGen1",
  "sourceName": "contracts/nfts/TheoryUnlockerGen1.sol",
  "abi": [
    {
      "inputs": [
        {
          "internalType": "contract IERC20",
          "name": "_buy",
          "type": "address"
        },
        {
          "internalType": "uint256[2]",
          "name": "_prices",
          "type": "uint256[2]"
        },
        {
          "internalType": "contract IERC20Lockable[2]",
          "name": "_theoryAndGame",
          "type": "address[2]"
        },
        {
          "internalType": "address",
          "name": "_communityFund",
          "type": "address"
        },
        {
          "internalType": "contract ITheoryUnlocker",
          "name": "_gen0",
          "type": "address"
        },
        {
          "internalType": "contract IUniswapV2Router",
          "name": "_router",
          "type": "address"
        },
        {
          "internalType": "uint256[]",
          "name": "_maxLevelTime",
          "type": "uint256[]"
        },
        {
          "internalType": "uint256[]",
          "name": "_maxLevelLevel",
          "type": "uint256[]"
        },
        {
          "internalType": "uint256[]",
          "name": "_levelURIsLevel",
          "type": "uint256[]"
        },
        {
          "internalType": "string[]",
          "name": "_levelURIsURI",
          "type": "string[]"
        },
        {
          "internalType": "uint256[]",
          "name": "_levelURIsMax",
          "type": "uint256[]"
        }
      ],
      "stateMutability": "nonpayable",
      "type": "constructor"
    },
    {
      "anonymous": false,
      "inputs": [
        {
          "indexed": true,
          "internalType": "address",
          "name": "owner",
          "type": "address"
        },
        {
          "indexed": true,
          "internalType": "address",
          "name": "approved",
          "type": "address"
        },
        {
          "indexed": true,
          "internalType": "uint256",
          "name": "tokenId",
          "type": "uint256"
        }
      ],
      "name": "Approval",
      "type": "event"
    },
    {
      "anonymous": false,
      "inputs": [
        {
          "indexed": true,
          "internalType": "address",
          "name": "owner",
          "type": "address"
        },
        {
          "indexed": true,
          "internalType": "address",
          "name": "operator",
          "type": "address"
        },
        {
          "indexed": false,
          "internalType": "bool",
          "name": "approved",
          "type": "bool"
        }
      ],
      "name": "ApprovalForAll",
      "type": "event"
    },
    {
      "anonymous": false,
      "inputs": [
        {
          "indexed": false,
          "internalType": "address",
          "name": "who",
          "type": "address"
        },
        {
          "indexed": false,
          "internalType": "uint256",
          "name": "tokenId",
          "type": "uint256"
        },
        {
          "indexed": false,
          "internalType": "uint256",
          "name": "leveledTo",
          "type": "uint256"
        }
      ],
      "name": "Level",
      "type": "event"
    },
    {
      "anonymous": false,
      "inputs": [
        {
          "indexed": false,
          "internalType": "address",
          "name": "who",
          "type": "address"
        },
        {
          "indexed": false,
          "internalType": "uint256",
          "name": "tokenId1",
          "type": "uint256"
        },
        {
          "indexed": false,
          "internalType": "uint256",
          "name": "tokenId2",
          "type": "uint256"
        },
        {
          "indexed": false,
          "internalType": "uint256",
          "name": "level1",
          "type": "uint256"
        },
        {
          "indexed": false,
          "internalType": "uint256",
          "name": "level2",
          "type": "uint256"
        },
        {
          "indexed": false,
          "internalType": "uint256",
          "name": "levelMerged",
          "type": "uint256"
        }
      ],
      "name": "Merge",
      "type": "event"
    },
    {
      "anonymous": false,
      "inputs": [
        {
          "indexed": false,
          "internalType": "address",
          "name": "who",
          "type": "address"
        },
        {
          "indexed": false,
          "internalType": "uint256",
          "name": "tokenId",
          "type": "uint256"
        },
        {
          "indexed": false,
          "internalType": "uint256",
          "name": "level",
          "type": "uint256"
        }
      ],
      "name": "Mint",
      "type": "event"
    },
    {
      "anonymous": false,
      "inputs": [
        {
          "indexed": true,
          "internalType": "address",
          "name": "previousOwner",
          "type": "address"
        },
        {
          "indexed": true,
          "internalType": "address",
          "name": "newOwner",
          "type": "address"
        }
      ],
      "name": "OwnershipTransferred",
      "type": "event"
    },
    {
      "anonymous": false,
      "inputs": [
        {
          "indexed": true,
          "internalType": "address",
          "name": "from",
          "type": "address"
        },
        {
          "indexed": true,
          "internalType": "address",
          "name": "to",
          "type": "address"
        },
        {
          "indexed": true,
          "internalType": "uint256",
          "name": "tokenId",
          "type": "uint256"
        }
      ],
      "name": "Transfer",
      "type": "event"
    },
    {
      "anonymous": false,
      "inputs": [
        {
          "indexed": false,
          "internalType": "address",
          "name": "who",
          "type": "address"
        },
        {
          "indexed": false,
          "internalType": "uint256",
          "name": "tokenId",
          "type": "uint256"
        },
        {
          "indexed": false,
          "internalType": "uint256",
          "name": "level",
          "type": "uint256"
        },
        {
          "indexed": false,
          "internalType": "uint256",
          "name": "amountToUnlock",
          "type": "uint256"
        }
      ],
      "name": "Unlock",
      "type": "event"
    },
    {
      "inputs": [
        {
          "internalType": "address",
          "name": "_toAdd",
          "type": "address"
        }
      ],
      "name": "addAuthorized",
      "outputs": [],
      "stateMutability": "nonpayable",
      "type": "function"
    },
    {
      "inputs": [
        {
          "internalType": "address",
          "name": "to",
          "type": "address"
        },
        {
          "internalType": "uint256",
          "name": "tokenId",
          "type": "uint256"
        }
      ],
      "name": "approve",
      "outputs": [],
      "stateMutability": "nonpayable",
      "type": "function"
    },
    {
      "inputs": [
        {
          "internalType": "address",
          "name": "",
          "type": "address"
        }
      ],
      "name": "authorized",
      "outputs": [
        {
          "internalType": "bool",
          "name": "",
          "type": "bool"
        }
      ],
      "stateMutability": "view",
      "type": "function"
    },
    {
      "inputs": [
        {
          "internalType": "address",
          "name": "owner",
          "type": "address"
        }
      ],
      "name": "balanceOf",
      "outputs": [
        {
          "internalType": "uint256",
          "name": "",
          "type": "uint256"
        }
      ],
      "stateMutability": "view",
      "type": "function"
    },
    {
      "inputs": [],
      "name": "baseURI",
      "outputs": [
        {
          "internalType": "string",
          "name": "",
          "type": "string"
        }
      ],
      "stateMutability": "view",
      "type": "function"
    },
    {
      "inputs": [],
      "name": "burnPercentage",
      "outputs": [
        {
          "internalType": "uint256",
          "name": "",
          "type": "uint256"
        }
      ],
      "stateMutability": "view",
      "type": "function"
    },
    {
      "inputs": [],
      "name": "buyToken",
      "outputs": [
        {
          "internalType": "contract IERC20",
          "name": "",
          "type": "address"
        }
      ],
      "stateMutability": "view",
      "type": "function"
    },
    {
      "inputs": [],
      "name": "buyTokenPerLevel",
      "outputs": [
        {
          "internalType": "uint256",
          "name": "",
          "type": "uint256"
        }
      ],
      "stateMutability": "view",
      "type": "function"
    },
    {
      "inputs": [
        {
          "internalType": "address",
          "name": "player",
          "type": "address"
        },
        {
          "internalType": "uint256",
          "name": "tokenId",
          "type": "uint256"
        }
      ],
      "name": "canUnlockAmount",
      "outputs": [
        {
          "internalType": "uint256",
          "name": "",
          "type": "uint256"
        }
      ],
      "stateMutability": "view",
      "type": "function"
    },
    {
      "inputs": [],
      "name": "communityFund",
      "outputs": [
        {
          "internalType": "address",
          "name": "",
          "type": "address"
        }
      ],
      "stateMutability": "view",
      "type": "function"
    },
    {
      "inputs": [
        {
          "internalType": "uint256",
          "name": "level",
          "type": "uint256"
        }
      ],
      "name": "costOf",
      "outputs": [
        {
          "internalType": "uint256",
          "name": "",
          "type": "uint256"
        }
      ],
      "stateMutability": "view",
      "type": "function"
    },
    {
      "inputs": [],
      "name": "disableMint",
      "outputs": [
        {
          "internalType": "bool",
          "name": "",
          "type": "bool"
        }
      ],
      "stateMutability": "view",
      "type": "function"
    },
    {
      "inputs": [],
      "name": "emergencyDisableUnlock",
      "outputs": [
        {
          "internalType": "bool",
          "name": "",
          "type": "bool"
        }
      ],
      "stateMutability": "view",
      "type": "function"
    },
    {
      "inputs": [
        {
          "internalType": "uint256",
          "name": "level",
          "type": "uint256"
        }
      ],
      "name": "extraGameCost",
      "outputs": [
        {
          "internalType": "uint256",
          "name": "",
          "type": "uint256"
        }
      ],
      "stateMutability": "view",
      "type": "function"
    },
    {
      "inputs": [
        {
          "internalType": "uint256",
          "name": "",
          "type": "uint256"
        }
      ],
      "name": "extraGameCostAmount",
      "outputs": [
        {
          "internalType": "uint256",
          "name": "",
          "type": "uint256"
        }
      ],
      "stateMutability": "view",
      "type": "function"
    },
    {
      "inputs": [
        {
          "internalType": "uint256",
          "name": "",
          "type": "uint256"
        }
      ],
      "name": "extraGameCostLevel",
      "outputs": [
        {
          "internalType": "uint256",
          "name": "",
          "type": "uint256"
        }
      ],
      "stateMutability": "view",
      "type": "function"
    },
    {
      "inputs": [],
      "name": "game",
      "outputs": [
        {
          "internalType": "contract IERC20Lockable",
          "name": "",
          "type": "address"
        }
      ],
      "stateMutability": "view",
      "type": "function"
    },
    {
      "inputs": [],
      "name": "gameCostPerLevel",
      "outputs": [
        {
          "internalType": "uint256",
          "name": "",
          "type": "uint256"
        }
      ],
      "stateMutability": "view",
      "type": "function"
    },
    {
      "inputs": [
        {
          "internalType": "uint256",
          "name": "tokenId",
          "type": "uint256"
        }
      ],
      "name": "getApproved",
      "outputs": [
        {
          "internalType": "address",
          "name": "",
          "type": "address"
        }
      ],
      "stateMutability": "view",
      "type": "function"
    },
    {
      "inputs": [],
      "name": "initialPrice",
      "outputs": [
        {
          "internalType": "uint256",
          "name": "",
          "type": "uint256"
        }
      ],
      "stateMutability": "view",
      "type": "function"
    },
    {
      "inputs": [
        {
          "internalType": "address",
          "name": "owner",
          "type": "address"
        },
        {
          "internalType": "address",
          "name": "operator",
          "type": "address"
        }
      ],
      "name": "isApprovedForAll",
      "outputs": [
        {
          "internalType": "bool",
          "name": "",
          "type": "bool"
        }
      ],
      "stateMutability": "view",
      "type": "function"
    },
    {
      "inputs": [
        {
          "internalType": "uint256",
          "name": "level",
          "type": "uint256"
        }
      ],
      "name": "levelURI",
      "outputs": [
        {
          "internalType": "string",
          "name": "",
          "type": "string"
        }
      ],
      "stateMutability": "view",
      "type": "function"
    },
    {
      "inputs": [
        {
          "internalType": "uint256",
          "name": "",
          "type": "uint256"
        }
      ],
      "name": "levelURIsLevel",
      "outputs": [
        {
          "internalType": "uint256",
          "name": "",
          "type": "uint256"
        }
      ],
      "stateMutability": "view",
      "type": "function"
    },
    {
      "inputs": [
        {
          "internalType": "uint256",
          "name": "",
          "type": "uint256"
        }
      ],
      "name": "levelURIsMax",
      "outputs": [
        {
          "internalType": "uint256",
          "name": "",
          "type": "uint256"
        }
      ],
      "stateMutability": "view",
      "type": "function"
    },
    {
      "inputs": [
        {
          "internalType": "uint256",
          "name": "",
          "type": "uint256"
        }
      ],
      "name": "levelURIsMinted",
      "outputs": [
        {
          "internalType": "uint256",
          "name": "",
          "type": "uint256"
        }
      ],
      "stateMutability": "view",
      "type": "function"
    },
    {
      "inputs": [
        {
          "internalType": "uint256",
          "name": "",
          "type": "uint256"
        }
      ],
      "name": "levelURIsSupply",
      "outputs": [
        {
          "internalType": "uint256",
          "name": "",
          "type": "uint256"
        }
      ],
      "stateMutability": "view",
      "type": "function"
    },
    {
      "inputs": [
        {
          "internalType": "uint256",
          "name": "",
          "type": "uint256"
        }
      ],
      "name": "levelURIsURI",
      "outputs": [
        {
          "internalType": "string",
          "name": "",
          "type": "string"
        }
      ],
      "stateMutability": "view",
      "type": "function"
    },
    {
      "inputs": [
        {
          "internalType": "uint256",
          "name": "tokenId",
          "type": "uint256"
        }
      ],
      "name": "levelUp",
      "outputs": [],
      "stateMutability": "nonpayable",
      "type": "function"
    },
    {
      "inputs": [
        {
          "internalType": "uint256",
          "name": "tokenId",
          "type": "uint256"
        },
        {
          "internalType": "uint256",
          "name": "theLevel",
          "type": "uint256"
        }
      ],
      "name": "levelUpTo",
      "outputs": [],
      "stateMutability": "nonpayable",
      "type": "function"
    },
    {
      "inputs": [
        {
          "internalType": "uint256",
          "name": "tokenId",
          "type": "uint256"
        }
      ],
      "name": "levelUpToMax",
      "outputs": [],
      "stateMutability": "nonpayable",
      "type": "function"
    },
    {
      "inputs": [],
      "name": "maxLevel",
      "outputs": [
        {
          "internalType": "uint256",
          "name": "",
          "type": "uint256"
        }
      ],
      "stateMutability": "view",
      "type": "function"
    },
    {
      "inputs": [
        {
          "internalType": "uint256",
          "name": "",
          "type": "uint256"
        }
      ],
      "name": "maxLevelLevel",
      "outputs": [
        {
          "internalType": "uint256",
          "name": "",
          "type": "uint256"
        }
      ],
      "stateMutability": "view",
      "type": "function"
    },
    {
      "inputs": [
        {
          "internalType": "uint256",
          "name": "",
          "type": "uint256"
        }
      ],
      "name": "maxLevelTime",
      "outputs": [
        {
          "internalType": "uint256",
          "name": "",
          "type": "uint256"
        }
      ],
      "stateMutability": "view",
      "type": "function"
    },
    {
      "inputs": [
        {
          "internalType": "uint256",
          "name": "level",
          "type": "uint256"
        }
      ],
      "name": "maxMinted",
      "outputs": [
        {
          "internalType": "uint256",
          "name": "",
          "type": "uint256"
        }
      ],
      "stateMutability": "view",
      "type": "function"
    },
    {
      "inputs": [
        {
          "internalType": "uint256",
          "name": "tokenId1",
          "type": "uint256"
        },
        {
          "internalType": "uint256",
          "name": "tokenId2",
          "type": "uint256"
        }
      ],
      "name": "merge",
      "outputs": [
        {
          "internalType": "uint256",
          "name": "",
          "type": "uint256"
        }
      ],
      "stateMutability": "nonpayable",
      "type": "function"
    },
    {
      "inputs": [
        {
          "internalType": "uint256",
          "name": "level",
          "type": "uint256"
        },
        {
          "internalType": "uint256",
          "name": "slippage",
          "type": "uint256"
        }
      ],
      "name": "mint",
      "outputs": [
        {
          "internalType": "uint256",
          "name": "",
          "type": "uint256"
        }
      ],
      "stateMutability": "nonpayable",
      "type": "function"
    },
    {
      "inputs": [
        {
          "internalType": "uint256",
          "name": "level",
          "type": "uint256"
        }
      ],
      "name": "minted",
      "outputs": [
        {
          "internalType": "uint256",
          "name": "",
          "type": "uint256"
        }
      ],
      "stateMutability": "view",
      "type": "function"
    },
    {
      "inputs": [],
      "name": "name",
      "outputs": [
        {
          "internalType": "string",
          "name": "",
          "type": "string"
        }
      ],
      "stateMutability": "view",
      "type": "function"
    },
    {
      "inputs": [
        {
          "internalType": "uint256",
          "name": "tokenId",
          "type": "uint256"
        }
      ],
      "name": "nextLevelTime",
      "outputs": [
        {
          "internalType": "uint256",
          "name": "",
          "type": "uint256"
        }
      ],
      "stateMutability": "view",
      "type": "function"
    },
    {
      "inputs": [
        {
          "internalType": "uint256",
          "name": "tokenId",
          "type": "uint256"
        }
      ],
      "name": "nftUnlock",
      "outputs": [],
      "stateMutability": "nonpayable",
      "type": "function"
    },
    {
      "inputs": [],
      "name": "owner",
      "outputs": [
        {
          "internalType": "address",
          "name": "",
          "type": "address"
        }
      ],
      "stateMutability": "view",
      "type": "function"
    },
    {
      "inputs": [
        {
          "internalType": "uint256",
          "name": "tokenId",
          "type": "uint256"
        }
      ],
      "name": "ownerOf",
      "outputs": [
        {
          "internalType": "address",
          "name": "",
          "type": "address"
        }
      ],
      "stateMutability": "view",
      "type": "function"
    },
    {
      "inputs": [
        {
          "internalType": "address",
          "name": "_toRemove",
          "type": "address"
        }
      ],
      "name": "removeAuthorized",
      "outputs": [],
      "stateMutability": "nonpayable",
      "type": "function"
    },
    {
      "inputs": [],
      "name": "renounceOwnership",
      "outputs": [],
      "stateMutability": "nonpayable",
      "type": "function"
    },
    {
      "inputs": [
        {
          "internalType": "address",
          "name": "from",
          "type": "address"
        },
        {
          "internalType": "address",
          "name": "to",
          "type": "address"
        },
        {
          "internalType": "uint256",
          "name": "tokenId",
          "type": "uint256"
        }
      ],
      "name": "safeTransferFrom",
      "outputs": [],
      "stateMutability": "nonpayable",
      "type": "function"
    },
    {
      "inputs": [
        {
          "internalType": "address",
          "name": "from",
          "type": "address"
        },
        {
          "internalType": "address",
          "name": "to",
          "type": "address"
        },
        {
          "internalType": "uint256",
          "name": "tokenId",
          "type": "uint256"
        },
        {
          "internalType": "bytes",
          "name": "_data",
          "type": "bytes"
        }
      ],
      "name": "safeTransferFrom",
      "outputs": [],
      "stateMutability": "nonpayable",
      "type": "function"
    },
    {
      "inputs": [
        {
          "internalType": "address",
          "name": "operator",
          "type": "address"
        },
        {
          "internalType": "bool",
          "name": "approved",
          "type": "bool"
        }
      ],
      "name": "setApprovalForAll",
      "outputs": [],
      "stateMutability": "nonpayable",
      "type": "function"
    },
    {
      "inputs": [
        {
          "internalType": "uint256",
          "name": "_burn",
          "type": "uint256"
        }
      ],
      "name": "setBurnPercentage",
      "outputs": [],
      "stateMutability": "nonpayable",
      "type": "function"
    },
    {
      "inputs": [
        {
          "internalType": "contract IERC20",
          "name": "_buy",
          "type": "address"
        }
      ],
      "name": "setBuyToken",
      "outputs": [],
      "stateMutability": "nonpayable",
      "type": "function"
    },
    {
      "inputs": [
        {
          "internalType": "address",
          "name": "_fund",
          "type": "address"
        }
      ],
      "name": "setCommunityFund",
      "outputs": [],
      "stateMutability": "nonpayable",
      "type": "function"
    },
    {
      "inputs": [
        {
          "internalType": "uint256",
          "name": "tokenId",
          "type": "uint256"
        },
        {
          "internalType": "uint256",
          "name": "time",
          "type": "uint256"
        }
      ],
      "name": "setCreationTime",
      "outputs": [],
      "stateMutability": "nonpayable",
      "type": "function"
    },
    {
      "inputs": [
        {
          "internalType": "bool",
          "name": "_disable",
          "type": "bool"
        }
      ],
      "name": "setDisableMint",
      "outputs": [],
      "stateMutability": "nonpayable",
      "type": "function"
    },
    {
      "inputs": [
        {
          "internalType": "bool",
          "name": "_disable",
          "type": "bool"
        }
      ],
      "name": "setEmergencyDisableUnlock",
      "outputs": [],
      "stateMutability": "nonpayable",
      "type": "function"
    },
    {
      "inputs": [
        {
          "internalType": "uint256",
          "name": "_gameCostPerLevel",
          "type": "uint256"
        },
        {
          "internalType": "uint256[]",
          "name": "_extraGameCostLevel",
          "type": "uint256[]"
        },
        {
          "internalType": "uint256[]",
          "name": "_extraGameCostAmount",
          "type": "uint256[]"
        }
      ],
      "name": "setGameCostForLevel",
      "outputs": [],
      "stateMutability": "nonpayable",
      "type": "function"
    },
    {
      "inputs": [
        {
          "internalType": "uint256",
          "name": "tokenId",
          "type": "uint256"
        },
        {
          "internalType": "uint256",
          "name": "time",
          "type": "uint256"
        }
      ],
      "name": "setLastLevelTime",
      "outputs": [],
      "stateMutability": "nonpayable",
      "type": "function"
    },
    {
      "inputs": [
        {
          "internalType": "address",
          "name": "user",
          "type": "address"
        },
        {
          "internalType": "uint256",
          "name": "amount",
          "type": "uint256"
        }
      ],
      "name": "setLastLockAmount",
      "outputs": [],
      "stateMutability": "nonpayable",
      "type": "function"
    },
    {
      "inputs": [
        {
          "internalType": "address",
          "name": "user",
          "type": "address"
        },
        {
          "internalType": "uint256",
          "name": "time",
          "type": "uint256"
        }
      ],
      "name": "setLastUnlockTime",
      "outputs": [],
      "stateMutability": "nonpayable",
      "type": "function"
    },
    {
      "inputs": [
        {
          "internalType": "uint256[]",
          "name": "_levelURIsLevel",
          "type": "uint256[]"
        },
        {
          "internalType": "string[]",
          "name": "_levelURIsURI",
          "type": "string[]"
        },
        {
          "internalType": "uint256[]",
          "name": "_levelURIsMax",
          "type": "uint256[]"
        },
        {
          "internalType": "uint256[]",
          "name": "_levelURIsSupply",
          "type": "uint256[]"
        },
        {
          "internalType": "uint256[]",
          "name": "_levelURIsMinted",
          "type": "uint256[]"
        }
      ],
      "name": "setLevelURIs",
      "outputs": [],
      "stateMutability": "nonpayable",
      "type": "function"
    },
    {
      "inputs": [
        {
          "internalType": "uint256[]",
          "name": "_maxLevelTime",
          "type": "uint256[]"
        },
        {
          "internalType": "uint256[]",
          "name": "_maxLevelLevel",
          "type": "uint256[]"
        }
      ],
      "name": "setMaxLevel",
      "outputs": [],
      "stateMutability": "nonpayable",
      "type": "function"
    },
    {
      "inputs": [
        {
          "internalType": "uint256",
          "name": "_initial",
          "type": "uint256"
        },
        {
          "internalType": "uint256",
          "name": "_perLevel",
          "type": "uint256"
        }
      ],
      "name": "setPrices",
      "outputs": [],
      "stateMutability": "nonpayable",
      "type": "function"
    },
    {
      "inputs": [
        {
          "internalType": "contract IUniswapV2Router",
          "name": "_router",
          "type": "address"
        }
      ],
      "name": "setRouter",
      "outputs": [],
      "stateMutability": "nonpayable",
      "type": "function"
    },
    {
      "inputs": [
        {
          "internalType": "uint256",
          "name": "_time",
          "type": "uint256"
        }
      ],
      "name": "setTimeToLevel",
      "outputs": [],
      "stateMutability": "nonpayable",
      "type": "function"
    },
    {
      "inputs": [
        {
          "internalType": "uint256",
          "name": "tokenId",
          "type": "uint256"
        },
        {
          "internalType": "uint256",
          "name": "level",
          "type": "uint256"
        }
      ],
      "name": "setTokenLevel",
      "outputs": [],
      "stateMutability": "nonpayable",
      "type": "function"
    },
    {
      "inputs": [
        {
          "internalType": "uint256",
          "name": "level",
          "type": "uint256"
        }
      ],
      "name": "supply",
      "outputs": [
        {
          "internalType": "uint256",
          "name": "",
          "type": "uint256"
        }
      ],
      "stateMutability": "view",
      "type": "function"
    },
    {
      "inputs": [
        {
          "internalType": "bytes4",
          "name": "interfaceId",
          "type": "bytes4"
        }
      ],
      "name": "supportsInterface",
      "outputs": [
        {
          "internalType": "bool",
          "name": "",
          "type": "bool"
        }
      ],
      "stateMutability": "view",
      "type": "function"
    },
    {
      "inputs": [],
      "name": "symbol",
      "outputs": [
        {
          "internalType": "string",
          "name": "",
          "type": "string"
        }
      ],
      "stateMutability": "view",
      "type": "function"
    },
    {
      "inputs": [],
      "name": "theory",
      "outputs": [
        {
          "internalType": "contract IERC20Lockable",
          "name": "",
          "type": "address"
        }
      ],
      "stateMutability": "view",
      "type": "function"
    },
    {
      "inputs": [
        {
          "internalType": "uint256",
          "name": "tokenId",
          "type": "uint256"
        }
      ],
      "name": "timeLeftToLevel",
      "outputs": [
        {
          "internalType": "uint256",
          "name": "",
          "type": "uint256"
        }
      ],
      "stateMutability": "view",
      "type": "function"
    },
    {
      "inputs": [],
      "name": "timeToLevel",
      "outputs": [
        {
          "internalType": "uint256",
          "name": "",
          "type": "uint256"
        }
      ],
      "stateMutability": "view",
      "type": "function"
    },
    {
      "inputs": [
        {
          "internalType": "uint256",
          "name": "index",
          "type": "uint256"
        }
      ],
      "name": "tokenByIndex",
      "outputs": [
        {
          "internalType": "uint256",
          "name": "",
          "type": "uint256"
        }
      ],
      "stateMutability": "view",
      "type": "function"
    },
    {
      "inputs": [
        {
          "internalType": "uint256",
          "name": "",
          "type": "uint256"
        }
      ],
      "name": "tokenInfo",
      "outputs": [
        {
          "internalType": "uint256",
          "name": "level",
          "type": "uint256"
        },
        {
          "internalType": "uint256",
          "name": "creationTime",
          "type": "uint256"
        },
        {
          "internalType": "uint256",
          "name": "lastLevelTime",
          "type": "uint256"
        },
        {
          "internalType": "bool",
          "name": "merged",
          "type": "bool"
        }
      ],
      "stateMutability": "view",
      "type": "function"
    },
    {
      "inputs": [
        {
          "internalType": "address",
          "name": "owner",
          "type": "address"
        },
        {
          "internalType": "uint256",
          "name": "index",
          "type": "uint256"
        }
      ],
      "name": "tokenOfOwnerByIndex",
      "outputs": [
        {
          "internalType": "uint256",
          "name": "",
          "type": "uint256"
        }
      ],
      "stateMutability": "view",
      "type": "function"
    },
    {
      "inputs": [
        {
          "internalType": "uint256",
          "name": "tokenId",
          "type": "uint256"
        }
      ],
      "name": "tokenURI",
      "outputs": [
        {
          "internalType": "string",
          "name": "",
          "type": "string"
        }
      ],
      "stateMutability": "view",
      "type": "function"
    },
    {
      "inputs": [],
      "name": "totalSupply",
      "outputs": [
        {
          "internalType": "uint256",
          "name": "",
          "type": "uint256"
        }
      ],
      "stateMutability": "view",
      "type": "function"
    },
    {
      "inputs": [
        {
          "internalType": "address",
          "name": "from",
          "type": "address"
        },
        {
          "internalType": "address",
          "name": "to",
          "type": "address"
        },
        {
          "internalType": "uint256",
          "name": "tokenId",
          "type": "uint256"
        }
      ],
      "name": "transferFrom",
      "outputs": [],
      "stateMutability": "nonpayable",
      "type": "function"
    },
    {
      "inputs": [
        {
          "internalType": "address",
          "name": "newOwner",
          "type": "address"
        }
      ],
      "name": "transferOwnership",
      "outputs": [],
      "stateMutability": "nonpayable",
      "type": "function"
    }
  ],
  "bytecode": "0x60806040523480156200001157600080fd5b5060405162006cbf38038062006cbf833981016040819052620000349162000949565b604080518082018252601581527f5448454f525920556e6c6f636b65722047656e20310000000000000000000000602080830191909152825180840190935260048352635455473160e01b9083015290620000966301ffc9a760e01b62000520565b8151620000ab90600690602085019062000576565b508051620000c190600790602084019062000576565b50620000d46380ac58cd60e01b62000520565b620000e6635b5e139f60e01b62000520565b620000f863780e9d6360e01b62000520565b50600090506200010762000572565b600a80546001600160a01b0319166001600160a01b038316908117909155604051919250906000907f8be0079c531659141344cd1fd0a4f28419497f9722a3daafe3b4186f6b6457e0908290a350601680546001600160a01b0319166001600160a01b038d1617905560208a01518a511015620001a15760405162461bcd60e51b8152600401620001989062000c1f565b60405180910390fd5b895160175560208a0151601855825115801590620001d4575082600081518110620001c857fe5b60200260200101516000145b8015620001e2575082518251145b8015620001f0575082518151145b6200020f5760405162461bcd60e51b8152600401620001989062000af5565b60008551118015620002365750846000815181106200022a57fe5b60200260200101516000145b801562000244575084518451145b620002635760405162461bcd60e51b8152600401620001989062000bac565b83516000905b80821015620002b65760648683815181106200028157fe5b60200260200101511115620002aa5760405162461bcd60e51b8152600401620001989062000b69565b60018201915062000269565b8451620002cb90600f906020880190620005fb565b508351620002e190601090602087019062000638565b508251620002f7906011906020860190620005fb565b5050600f54600091505b80821015620003795760128054600181810190925560007fbb8a6a4669ba250d26cd7a459eca9d215f8307e33aebe50379bc5a3617ec34449091018190556013805480840182559082527f66de8ffda797e3de9c05e8fc57b3bf0ec28a930d40b0d285d93c06501cf6a0900155919091019062000301565b86516200038e9060149060208a0190620005fb565b508551620003a4906015906020890190620005fb565b50601a80546001600160a01b0319166001600160a01b038c161790556203f480601b558a60006020020151601c80546001600160a01b0319166001600160a01b039092169190911790558a600160209081029190910151601d80546001600160a01b03199081166001600160a01b039384161761ffff60a01b1916909155601e805482168d84161781556103e86019908155601f8054909316938d169390931790915560018355604080516101408101825260008152600594810194909452600a908401819052600f60608501526014608085015260a084019290925260c0830152602360e08301526028610100830152602d610120830152620004ab9160219162000698565b5060408051610140810182526000815260056020820152600a918101829052600f606082015260146080820152601960a0820152601e60c0820152602360e08201526028610100820152602d6101208201526200050c916022919062000698565b505050505050505050505050505062000d22565b6001600160e01b031980821614156200054d5760405162461bcd60e51b8152600401620001989062000abe565b6001600160e01b0319166000908152602081905260409020805460ff19166001179055565b3390565b828054600181600116156101000203166002900490600052602060002090601f016020900481019282601f10620005b957805160ff1916838001178555620005e9565b82800160010185558215620005e9579182015b82811115620005e9578251825591602001919060010190620005cc565b50620005f7929150620006db565b5090565b828054828255906000526020600020908101928215620005e95791602002820182811115620005e9578251825591602001919060010190620005cc565b8280548282559060005260206000209081019282156200068a579160200282015b828111156200068a57825180516200067991849160209091019062000576565b509160200191906001019062000659565b50620005f7929150620006f2565b828054828255906000526020600020908101928215620005e9579160200282015b82811115620005e9578251829060ff16905591602001919060010190620006b9565b5b80821115620005f75760008155600101620006dc565b80821115620005f757600062000709828262000713565b50600101620006f2565b50805460018160011615610100020316600290046000825580601f106200073b57506200075b565b601f0160209004906000526020600020908101906200075b9190620006db565b50565b80516200076b8162000d0c565b92915050565b600082601f83011262000782578081fd5b6200078e604062000c6e565b9050808284604085011115620007a357600080fd5b60005b6002811015620007d3578151620007bd8162000d0c565b83526020928301929190910190600101620007a6565b50505092915050565b600082601f830112620007ed578081fd5b815162000804620007fe8262000c95565b62000c6e565b818152915060208083019084810160005b8481101562000883578151870188603f8201126200083257600080fd5b8381015162000845620007fe8262000cb5565b81815260408b818486010111156200085c57600080fd5b6200086d8388840183870162000cd9565b5086525050928201929082019060010162000815565b505050505092915050565b600082601f8301126200089f578081fd5b620008ab604062000c6e565b9050808284604085011115620008c057600080fd5b60005b6002811015620007d3578151835260209283019290910190600101620008c3565b600082601f830112620008f5578081fd5b815162000906620007fe8262000c95565b8181529150602080830190848101818402860182018710156200092857600080fd5b60005b8481101562000883578151845292820192908201906001016200092b565b60008060008060008060008060008060006101a08c8e0312156200096b578687fd5b620009778d8d6200075e565b9a50620009888d60208e016200088e565b9950620009998d60608e0162000771565b9850620009aa8d60a08e016200075e565b9750620009bb8d60c08e016200075e565b9650620009cc8d60e08e016200075e565b6101008d01519096506001600160401b03811115620009e9578586fd5b620009f78e828f01620008e4565b6101208e015190965090506001600160401b0381111562000a16578485fd5b62000a248e828f01620008e4565b6101408e015190955090506001600160401b0381111562000a43578384fd5b62000a518e828f01620008e4565b6101608e015190945090506001600160401b0381111562000a70578283fd5b62000a7e8e828f01620007dc565b6101808e015190935090506001600160401b0381111562000a9d578182fd5b62000aab8e828f01620008e4565b9150509295989b509295989b9093969950565b6020808252601c908201527f4552433136353a20696e76616c696420696e7465726661636520696400000000604082015260600190565b6020808252604e908201527f4c6576656c2055524920617272617973206d75737420626520657175616c206960408201527f6e206e6f6e2d7a65726f206c656e67746820616e64206c6576656c2073686f7560608201526d36321039ba30b93a1030ba10181760911b608082015260a00190565b60208082526023908201527f4d6178206c6576656c2063616e277420626520686967686572207468616e203160408201526218181760e91b606082015260800190565b6020808252604d908201527f4d6178206c6576656c20617272617973206d75737420626520657175616c206960408201527f6e206e6f6e2d7a65726f206c656e67746820616e642074696d652073686f756c60608201526c321039ba30b93a1030ba10181760991b608082015260a00190565b6020808252602f908201527f496e697469616c207072696365206d757374206265206c6f776572207468616e60408201526e10313abc903832b9103632bb32b61760891b606082015260800190565b6040518181016001600160401b038111828210171562000c8d57600080fd5b604052919050565b60006001600160401b0382111562000cab578081fd5b5060209081020190565b60006001600160401b0382111562000ccb578081fd5b50601f01601f191660200190565b60005b8381101562000cf657818101518382015260200162000cdc565b8381111562000d06576000848401525b50505050565b6001600160a01b03811681146200075b57600080fd5b615f8d8062000d326000396000f3fe608060405234801561001057600080fd5b50600436106104535760003560e01c80636c0360eb11610241578063c50d0a531161013b578063d2a87f0f116100c3578063e985e9c511610087578063e985e9c514610931578063ec3ddf3014610944578063f01f20df14610957578063f2fde38b1461095f578063fd3265921461097257610453565b8063d2a87f0f146108d2578063db357c30146108e5578063dd289dcb146108f8578063df8702621461090b578063e74ab80f1461091e57610453565b8063cc33c8751161010a578063cc33c87514610863578063cc67d1ae14610886578063cf1c316a14610899578063d1c2babb146108ac578063d20bffa7146108bf57610453565b8063c50d0a5314610822578063c87b56dd14610835578063ca60567a14610848578063cc06c3591461085b57610453565b80639eb3a643116101c9578063b88d4fde1161018d578063b88d4fde146107ce578063b9181611146107e1578063c0d78655146107f4578063c3f0d32714610807578063c3fe3e281461081a57610453565b80639eb3a64314610785578063a22cb4651461078d578063a4821719146107a0578063aa08279c146107a8578063b0d388ba146107bb57610453565b8063715018a611610210578063715018a6146107475780637dc0bf3f1461074f5780638a1165b3146107625780638da5cb5b1461077557806395d89b411461077d57610453565b80636c0360eb146107065780637001e2a61461070e57806370a0823114610721578063711671221461073457610453565b8063286b297c116103525780633c32a450116102da5780634f6ccce71161029e5780634f6ccce7146106a757806358df3825146106ba57806359c5f463146106cd5780635b2f4ed4146106e05780636352211e146106f357610453565b80633c32a4501461065e5780633f684d381461066657806342842e0e1461067957806347aebf9a1461068c578063485d7d941461069457610453565b8063354030231161032157806335403023146105ff57806337339a161461061257806337f3e8a41461062557806338d17099146106385780633bcafb631461064b57610453565b8063286b297c146105be5780632eb552f3146105d15780632f745c59146105e457806334452f38146105f757610453565b80630b744f3d116103e05780631c04628d116103a45780631c04628d146105805780631d0806ae146105885780631e58a9181461059057806323b872dd146105a3578063257c739b146105b657610453565b80630b744f3d1461052c5780630ce90ec21461053f57806315dbb0151461055257806318160ddd146105655780631b2ef1ca1461056d57610453565b8063081437961161042757806308143796146104c0578063081812fc146104e057806308a5510c146104f3578063095ea7b3146105065780630a8424331461051957610453565b8062f380f41461045857806301ffc9a71461047657806305fefda71461049657806306fdde03146104ab575b600080fd5b610460610985565b60405161046d9190614e65565b60405180910390f35b610489610484366004614c85565b610994565b60405161046d9190614f6d565b6104a96104a4366004614d8a565b6109b7565b005b6104b3610a34565b60405161046d9190614f78565b6104d36104ce366004614cf0565b610aca565b60405161046d9190615dd5565b6104606104ee366004614cf0565b610ae8565b6104a9610501366004614c4d565b610b2b565b6104a9610514366004614a65565b610b92565b6104d3610527366004614a65565b610c2a565b6104d361053a366004614cf0565b610e4c565b6104a961054d366004614cf0565b610e59565b6104d3610560366004614cf0565b610eea565b6104d3610f53565b6104d361057b366004614d8a565b610f64565b61048961143e565b6104d361144e565b6104a961059e366004614cf0565b611454565b6104a96105b136600461498e565b61150d565b6104d3611545565b6104a96105cc366004614c4d565b61154b565b6104d36105df366004614cf0565b6115b2565b6104d36105f2366004614a65565b6115bf565b6104896115e8565b6104d361060d366004614cf0565b6115f8565b6104a961062036600461493a565b611645565b6104d3610633366004614cf0565b6116b0565b6104b3610646366004614cf0565b6116bd565b6104d3610659366004614cf0565b6117b3565b6104606117c0565b6104d3610674366004614cf0565b6117cf565b6104a961068736600461498e565b61180e565b6104d3611829565b6104a96106a236600461493a565b61182f565b6104d36106b5366004614cf0565b6118a5565b6104a96106c8366004614a65565b6118bb565b6104d36106db366004614cf0565b61196c565b6104b36106ee366004614cf0565b611979565b610460610701366004614cf0565b611a1f565b6104b3611a47565b6104a961071c366004614a65565b611aa8565b6104d361072f36600461493a565b611b23565b6104a9610742366004614d8a565b611b6c565b6104a9611bca565b6104d361075d366004614cf0565b611c53565b6104a961077036600461493a565b611ca0565b610460611d0b565b6104b3611d1a565b6104d3611d7b565b6104a961079b366004614a38565b611d81565b610460611e4f565b6104a96107b6366004614bec565b611e5e565b6104a96107c9366004614d8a565b611f70565b6104a96107dc3660046149ce565b6120c3565b6104896107ef36600461493a565b612102565b6104a961080236600461493a565b612117565b6104a9610815366004614cf0565b612182565b6104606121f2565b6104a9610830366004614d20565b612201565b6104b3610843366004614cf0565b612331565b6104a9610856366004614d8a565b612477565b6104d3612505565b610876610871366004614cf0565b61256d565b60405161046d9493929190615e33565b6104a9610894366004614d8a565b612597565b6104a96108a736600461493a565b6125f5565b6104d36108ba366004614d8a565b612658565b6104a96108cd366004614b20565b6129c9565b6104d36108e0366004614cf0565b612aea565b6104a96108f3366004614cf0565b612b37565b6104a9610906366004614cf0565b61338b565b6104d3610919366004614cf0565b6133d9565b6104d361092c366004614cf0565b6133e6565b61048961093f366004614956565b6133f3565b6104d3610952366004614cf0565b613421565b6104d3613442565b6104a961096d36600461493a565b613448565b6104d3610980366004614cf0565b613509565b601a546001600160a01b031681565b6001600160e01b0319811660009081526020819052604090205460ff165b919050565b336000908152600b602052604090205460ff16806109e45750336109d9611d0b565b6001600160a01b0316145b610a095760405162461bcd60e51b8152600401610a0090615a23565b60405180910390fd5b80821015610a295760405162461bcd60e51b8152600401610a0090615c4a565b601791909155601855565b60068054604080516020601f6002600019610100600188161502019095169490940493840181900481028201810190925282815260609390929091830182828015610ac05780601f10610a9557610100808354040283529160200191610ac0565b820191906000526020600020905b815481529060010190602001808311610aa357829003601f168201915b5050505050905090565b60158181548110610ad757fe5b600091825260209091200154905081565b6000610af38261351c565b610b0f5760405162461bcd60e51b8152600401610a00906157ca565b506000908152600460205260409020546001600160a01b031690565b336000908152600b602052604090205460ff1680610b58575033610b4d611d0b565b6001600160a01b0316145b610b745760405162461bcd60e51b8152600401610a0090615a23565b601d8054911515600160a01b0260ff60a01b19909216919091179055565b6000610b9d82611a1f565b9050806001600160a01b0316836001600160a01b03161415610bd15760405162461bcd60e51b8152600401610a00906159e2565b806001600160a01b0316610be3613529565b6001600160a01b03161480610bff5750610bff8161093f613529565b610c1b5760405162461bcd60e51b8152600401610a0090615532565b610c25838361352d565b505050565b6000610c34614667565b601e54604051630cacd00160e11b81526001600160a01b0390911690631959a00290610c64908790600401614e65565b604080518083038186803b158015610c7b57600080fd5b505afa158015610c8f573d6000803e3d6000fd5b505050506040513d601f19601f82011682018060405250810190610cb39190614cbd565b601c54604051635a46d3b560e01b81529192506000916001600160a01b0390911690635a46d3b590610ce9908890600401614e65565b60206040518083038186803b158015610d0157600080fd5b505afa158015610d15573d6000803e3d6000fd5b505050506040513d601f19601f82011682018060405250810190610d399190614d08565b905080610d4b57600092505050610e46565b601c5460405163010158bb60e51b81526000916001600160a01b03169063202b176090610d7c908990600401614e65565b60206040518083038186803b158015610d9457600080fd5b505afa158015610da8573d6000803e3d6000fd5b505050506040513d601f19601f82011682018060405250810190610dcc9190614d08565b9050808211610de15760009350505050610e46565b610deb828261359b565b915082602001518211610e045760009350505050610e46565b6020830151610e1490839061359b565b6000868152600e602052604081205491935090610e3f90606490610e399086906135c3565b906135fd565b9450505050505b92915050565b60128181548110610ad757fe5b610e6161362f565b15610e7e5760405162461bcd60e51b8152600401610a0090615ce3565b610e86613650565b15610ea35760405162461bcd60e51b8152600401610a0090615ce3565b610eac81613671565b50436000908152600c602090815260408083203284529091528082208054600160ff1991821681179092553384529190922080549091169091179055565b600f54600090819080825b8115610f4957600182039050600f8181548110610f0e57fe5b90600052602060002001548610610f3e5760118181548110610f2c57fe5b90600052602060002001549350610f49565b600182039150610ef5565b5091949350505050565b6000610f5f6002613857565b905090565b6000610f6e61362f565b15610f8b5760405162461bcd60e51b8152600401610a0090615ce3565b610f93613650565b15610fb05760405162461bcd60e51b8152600401610a0090615ce3565b601d54600160a01b900460ff16158015610fd05750610fce33613862565b155b610fec5760405162461bcd60e51b8152600401610a0090615447565b6000831180156110035750610fff612505565b8311155b8015611015575061101333613862565b155b6110315760405162461bcd60e51b8152600401610a0090615016565b61103a33613862565b61132957600061106361105a61105186600161359b565b601854906135c3565b601754906138c1565b90506000611082612710610e39601954856135c390919063ffffffff16565b90506000611090838361359b565b601a546016549192506110b2916001600160a01b0390811691339116846138e6565b6040805160028082526060808301845260009390929190602083019080368337505060165482519293506001600160a01b0316918391506000906110f257fe5b6001600160a01b039283166020918202929092010152601d5482519116908290600190811061111d57fe5b6001600160a01b03928316602091820292909201015260165461114391163330876138e6565b601f5460405163d06ca61f60e01b81526060916001600160a01b03169063d06ca61f906111769088908690600401615dde565b60006040518083038186803b15801561118e57600080fd5b505afa1580156111a2573d6000803e3d6000fd5b505050506040513d6000823e601f3d908101601f191682016040526111ca9190810190614a90565b90506000816001835103815181106111de57fe5b6020026020010151905061120b611204612710610e398c856135c390919063ffffffff16565b829061359b565b601f546040516338ed173960e01b8152919550606093506001600160a01b031691506338ed1739906112499088908790879030904290600401615df7565b600060405180830381600087803b15801561126357600080fd5b505af1158015611277573d6000803e3d6000fd5b505050506040513d6000823e601f3d908101601f1916820160405261129f9190810190614a90565b90506000816001835103815181106112b357fe5b6020908102919091010151601d54604051630852cd8d60e31b81529192506001600160a01b0316906342966c68906112ef908490600401615dd5565b600060405180830381600087803b15801561130957600080fd5b505af115801561131d573d6000803e3d6000fd5b50505050505050505050505b33611334600d61393e565b6000611340600d613947565b6000818152600e6020526040902042600180830182905560028301919091559192509061136e90879061394b565b6113798660016139ac565b6113838383613a43565b8581556060611391876116bd565b905060008151116113b45760405162461bcd60e51b8152600401610a00906154b3565b6113be8382613b07565b7f4c209b5fc8ad50758f13e2e1088ba56a560dff690a1c6fef26394f4c03821c4f3384896040516113f193929190614eb6565b60405180910390a15050436000908152600c602090815260408083203284529091528082208054600160ff1991821681179092553384529190922080549091169091179055949350505050565b601d54600160a81b900460ff1681565b60175481565b61145c61362f565b156114795760405162461bcd60e51b8152600401610a0090615ce3565b611481613650565b1561149e5760405162461bcd60e51b8152600401610a0090615ce3565b601b546000828152600e60205260409020600201546114bc916138c1565b4210156114db5760405162461bcd60e51b8152600401610a0090615d29565b601b546000828152600e60205260409020600201546114f9916138c1565b4210610eac5761150881613671565b6114db565b61151e611518613529565b82613b4b565b61153a5760405162461bcd60e51b8152600401610a0090615b58565b610c25838383613bd0565b60185481565b336000908152600b602052604090205460ff168061157857503361156d611d0b565b6001600160a01b0316145b6115945760405162461bcd60e51b8152600401610a0090615a23565b601d8054911515600160a81b0260ff60a81b19909216919091179055565b600f8181548110610ad757fe5b6001600160a01b03821660009081526001602052604081206115e19083613cde565b9392505050565b601d54600160a01b900460ff1681565b600f54600090819080825b8115610f4957600182039050600f818154811061161c57fe5b9060005260206000200154861061163a5760128181548110610f2c57fe5b600182039150611603565b336000908152600b602052604090205460ff1680611672575033611667611d0b565b6001600160a01b0316145b61168e5760405162461bcd60e51b8152600401610a0090615a23565b601a80546001600160a01b0319166001600160a01b0392909216919091179055565b60138181548110610ad757fe5b60408051602081019091526000808252600f546060929181905b8115610f4957600182039050600f81815481106116f057fe5b906000526020600020015486106117a8576010818154811061170e57fe5b600091825260209182902001805460408051601f600260001961010060018716150201909416939093049283018590048502810185019091528181529283018282801561179c5780601f106117715761010080835404028352916020019161179c565b820191906000526020600020905b81548152906001019060200180831161177f57829003601f168201915b50505050509350610f49565b6001820391506116d7565b60148181548110610ad757fe5b601c546001600160a01b031681565b601b546000828152600e6020526040812060020154909182916117f1916138c1565b90508042106118045760009150506109b2565b6115e1814261359b565b610c25838383604051806020016040528060008152506120c3565b601b5481565b611837613529565b6001600160a01b0316611848611d0b565b6001600160a01b03161461186e5760405162461bcd60e51b8152600401610a00906158ad565b6001600160a01b03811633141561188457600080fd5b6001600160a01b03166000908152600b60205260409020805460ff19169055565b6000806118b3600284613cea565b509392505050565b336000908152600b602052604090205460ff16806118e85750336118dd611d0b565b6001600160a01b0316145b6119045760405162461bcd60e51b8152600401610a0090615a23565b601e546040516358df382560e01b81526001600160a01b03909116906358df3825906119369085908590600401614f54565b600060405180830381600087803b15801561195057600080fd5b505af1158015611964573d6000803e3d6000fd5b505050505050565b60218181548110610ad757fe5b6010818154811061198657fe5b600091825260209182902001805460408051601f6002600019610100600187161502019094169390930492830185900485028101850190915281815293509091830182828015611a175780601f106119ec57610100808354040283529160200191611a17565b820191906000526020600020905b8154815290600101906020018083116119fa57829003601f168201915b505050505081565b6000610e4682604051806060016040528060298152602001615f2f6029913960029190613d06565b60098054604080516020601f6002600019610100600188161502019095169490940493840181900481028201810190925282815260609390929091830182828015610ac05780601f10610a9557610100808354040283529160200191610ac0565b336000908152600b602052604090205460ff1680611ad5575033611aca611d0b565b6001600160a01b0316145b611af15760405162461bcd60e51b8152600401610a0090615a23565b601e54604051633800f15360e11b81526001600160a01b0390911690637001e2a6906119369085908590600401614f54565b60006001600160a01b038216611b4b5760405162461bcd60e51b8152600401610a009061558f565b6001600160a01b0382166000908152600160205260409020610e4690613857565b336000908152600b602052604090205460ff1680611b99575033611b8e611d0b565b6001600160a01b0316145b611bb55760405162461bcd60e51b8152600401610a0090615a23565b6000918252600e602052604090912060010155565b611bd2613529565b6001600160a01b0316611be3611d0b565b6001600160a01b031614611c095760405162461bcd60e51b8152600401610a00906158ad565b600a546040516000916001600160a01b0316907f8be0079c531659141344cd1fd0a4f28419497f9722a3daafe3b4186f6b6457e0908390a3600a80546001600160a01b0319169055565b600f54600090819080825b8115610f4957600182039050600f8181548110611c7757fe5b90600052602060002001548610611c955760138181548110610f2c57fe5b600182039150611c5e565b336000908152600b602052604090205460ff1680611ccd575033611cc2611d0b565b6001600160a01b0316145b611ce95760405162461bcd60e51b8152600401610a0090615a23565b601680546001600160a01b0319166001600160a01b0392909216919091179055565b600a546001600160a01b031690565b60078054604080516020601f6002600019610100600188161502019095169490940493840181900481028201810190925282815260609390929091830182828015610ac05780601f10610a9557610100808354040283529160200191610ac0565b60205481565b611d89613529565b6001600160a01b0316826001600160a01b03161415611dba5760405162461bcd60e51b8152600401610a00906152cd565b8060056000611dc7613529565b6001600160a01b03908116825260208083019390935260409182016000908120918716808252919093529120805460ff191692151592909217909155611e0b613529565b6001600160a01b03167f17307eab39ab6107e8899845ad3d59bd9653f200f220920489ca2b5937696c3183604051611e439190614f6d565b60405180910390a35050565b6016546001600160a01b031681565b336000908152600b602052604090205460ff1680611e8b575033611e80611d0b565b6001600160a01b0316145b611ea75760405162461bcd60e51b8152600401610a0090615a23565b60008251118015611ecc575081600081518110611ec057fe5b60200260200101516000145b8015611ed9575081518151145b611ef55760405162461bcd60e51b8152600401610a0090615716565b80516000905b80821015611f42576064838381518110611f1157fe5b60200260200101511115611f375760405162461bcd60e51b8152600401610a0090615304565b600182019150611efb565b8351611f55906014906020870190614681565b508251611f69906015906020860190614681565b5050505050565b611f7861362f565b15611f955760405162461bcd60e51b8152600401610a0090615ce3565b611f9d613650565b15611fba5760405162461bcd60e51b8152600401610a0090615ce3565b6000828152600e602052604090205481118015611fde5750611fda612505565b8111155b611ffa5760405162461bcd60e51b8152600401610a00906155ff565b601b546000838152600e6020526040902060020154612018916138c1565b4210156120375760405162461bcd60e51b8152600401610a0090615d29565b6000828152600e6020526040902054811180156120715750601b546000838152600e602052604090206002015461206d916138c1565b4210155b156120845761207f82613671565b612037565b5050436000908152600c602090815260408083203284529091528082208054600160ff1991821681179092553384529190922080549091169091179055565b6120d46120ce613529565b83613b4b565b6120f05760405162461bcd60e51b8152600401610a0090615b58565b6120fc84848484613d13565b50505050565b600b6020526000908152604090205460ff1681565b336000908152600b602052604090205460ff1680612144575033612139611d0b565b6001600160a01b0316145b6121605760405162461bcd60e51b8152600401610a0090615a23565b601f80546001600160a01b0319166001600160a01b0392909216919091179055565b336000908152600b602052604090205460ff16806121af5750336121a4611d0b565b6001600160a01b0316145b6121cb5760405162461bcd60e51b8152600401610a0090615a23565b6127108111156121ed5760405162461bcd60e51b8152600401610a0090615d9e565b601955565b601d546001600160a01b031681565b336000908152600b602052604090205460ff168061222e575033612223611d0b565b6001600160a01b0316145b61224a5760405162461bcd60e51b8152600401610a0090615a23565b6000825111801561226f57508160008151811061226357fe5b60200260200101516000145b801561227c575081518151145b6122985760405162461bcd60e51b8152600401610a009061516b565b600a8311156122b95760405162461bcd60e51b8152600401610a0090615862565b80516000905b808210156123065760648383815181106122d557fe5b602002602001015111156122fb5760405162461bcd60e51b8152600401610a0090614fcd565b6001820191506122bf565b6020858155845161231d9160219190870190614681565b508251611964906022906020860190614681565b606061233c8261351c565b6123585760405162461bcd60e51b8152600401610a009061592b565b60008281526008602090815260409182902080548351601f60026000196101006001861615020190931692909204918201849004840281018401909452808452606093928301828280156123ed5780601f106123c2576101008083540402835291602001916123ed565b820191906000526020600020905b8154815290600101906020018083116123d057829003601f168201915b5050505050905060606123fe611a47565b9050805160001415612412575090506109b2565b81511561244457808260405160200161242c929190614e36565b604051602081830303815290604052925050506109b2565b8061244e85613d46565b60405160200161245f929190614e36565b60405160208183030381529060405292505050919050565b336000908152600b602052604090205460ff16806124a4575033612499611d0b565b6001600160a01b0316145b6124c05760405162461bcd60e51b8152600401610a0090615a23565b6000811180156124d757506124d3612505565b8111155b6124f35760405162461bcd60e51b8152600401610a0090615016565b6000918252600e602052604090912055565b601454600090819080825b8115612564576001820390506014818154811061252957fe5b90600052602060002001544210612559576015818154811061254757fe5b90600052602060002001549350612564565b600182039150612510565b50919250505090565b600e6020526000908152604090208054600182015460028301546003909301549192909160ff1684565b336000908152600b602052604090205460ff16806125c45750336125b9611d0b565b6001600160a01b0316145b6125e05760405162461bcd60e51b8152600401610a0090615a23565b6000918252600e602052604090912060020155565b6125fd613529565b6001600160a01b031661260e611d0b565b6001600160a01b0316146126345760405162461bcd60e51b8152600401610a00906158ad565b6001600160a01b03166000908152600b60205260409020805460ff19166001179055565b600061266261362f565b1561267f5760405162461bcd60e51b8152600401610a0090615ce3565b612687613650565b156126a45760405162461bcd60e51b8152600401610a0090615ce3565b818314156126c45760405162461bcd60e51b8152600401610a0090615a5a565b336126ce84611a1f565b6001600160a01b031614806126f25750336000908152600b602052604090205460ff165b8061270c575033612701611d0b565b6001600160a01b0316145b6127285760405162461bcd60e51b8152600401610a0090615059565b3361273283611a1f565b6001600160a01b031614806127565750336000908152600b602052604090205460ff165b80612770575033612765611d0b565b6001600160a01b0316145b61278c5760405162461bcd60e51b8152600401610a009061597a565b61279582611a1f565b6001600160a01b03166127a784611a1f565b6001600160a01b0316146127cd5760405162461bcd60e51b8152600401610a0090615d59565b6000838152600e602052604090206003015460ff16156127ff5760405162461bcd60e51b8152600401610a0090615be0565b6000828152600e602052604090206003015460ff16156128315760405162461bcd60e51b8152600401610a0090615aee565b6000838152600e60205260408082205484835290822054909161285483836138c1565b905060008111801561286d5750612869612505565b8111155b6128895760405162461bcd60e51b8152600401610a0090615016565b600061289487611a1f565b905060606128a188612331565b90506128ac88613e21565b6128bf6128b888612331565b6001613eee565b6128c887613e21565b6128d2600d61393e565b60006128de600d613947565b6000818152600e60205260409020426001820181905560028201559091506129068483613a43565b84815560038101805460ff1916600117905582516129365760405162461bcd60e51b8152600401610a00906154b3565b6129408284613b07565b7fba686ec693ca70698e2f440efae5040d92acb009a6399b0d9b9bfc47ef936145338b8b8a8a8a60405161297996959493929190614efd565b60405180910390a150436000908152600c602090815260408083203284529091528082208054600160ff199182168117909255338452919092208054909116909117905598975050505050505050565b336000908152600b602052604090205460ff16806129f65750336129eb611d0b565b6001600160a01b0316145b612a125760405162461bcd60e51b8152600401610a0090615a23565b60008551118015612a37575084600081518110612a2b57fe5b60200260200101516000145b8015612a44575084518451145b8015612a51575084518351145b8015612a5e575084518251145b8015612a6b575084518151145b612a875760405162461bcd60e51b8152600401610a00906151de565b8451612a9a90600f906020880190614681565b508351612aae9060109060208701906146cc565b508251612ac2906011906020860190614681565b508151612ad6906012906020850190614681565b508051611964906013906020840190614681565b602154600090819080825b8115610f495760018203905060218181548110612b0e57fe5b90600052602060002001548610612b2c5760228181548110610f2c57fe5b600182039150612af5565b612b3f61362f565b15612b5c5760405162461bcd60e51b8152600401610a0090615ce3565b612b64613650565b15612b815760405162461bcd60e51b8152600401610a0090615ce3565b601d54600160a81b900460ff1615612bab5760405162461bcd60e51b8152600401610a00906154e2565b33612bb582611a1f565b6001600160a01b03161480612bd95750336000908152600b602052604090205460ff165b80612bf3575033612be8611d0b565b6001600160a01b0316145b612c0f5760405162461bcd60e51b8152600401610a009061547c565b6000612c1a82611a1f565b9050612c24614667565b601e54604051630cacd00160e11b81526001600160a01b0390911690631959a00290612c54908590600401614e65565b604080518083038186803b158015612c6b57600080fd5b505afa158015612c7f573d6000803e3d6000fd5b505050506040513d601f19601f82011682018060405250810190612ca39190614cbd565b80519091504211612cc65760405162461bcd60e51b8152600401610a00906155d9565b601c54604051635a46d3b560e01b81526000916001600160a01b031690635a46d3b590612cf7908690600401614e65565b60206040518083038186803b158015612d0f57600080fd5b505afa158015612d23573d6000803e3d6000fd5b505050506040513d601f19601f82011682018060405250810190612d479190614d08565b905080612e6a57601e54604051633800f15360e11b81526001600160a01b0390911690637001e2a690612d809086904290600401614f54565b600060405180830381600087803b158015612d9a57600080fd5b505af1158015612dae573d6000803e3d6000fd5b5050601e546040516358df382560e01b81526001600160a01b0390911692506358df38259150612de49086908590600401614f54565b600060405180830381600087803b158015612dfe57600080fd5b505af1158015612e12573d6000803e3d6000fd5b5050506000858152600e60205260408082205490517fa0a01f5aa68fdaf8aa6fb537fe6078fa09dcde567f2634e239f990716cb335b09350612e5a9233928992909190614ed7565b60405180910390a1505050610eac565b601c5460405163010158bb60e51b81526000916001600160a01b03169063202b176090612e9b908790600401614e65565b60206040518083038186803b158015612eb357600080fd5b505afa158015612ec7573d6000803e3d6000fd5b505050506040513d601f19601f82011682018060405250810190612eeb9190614d08565b9050808211612f0c5760405162461bcd60e51b8152600401610a0090615a91565b612f16828261359b565b91508260200151821161311f57601c5460405163579587b360e11b81526001600160a01b039091169063af2b0f6690612f56908790600090600401614f54565b600060405180830381600087803b158015612f7057600080fd5b505af1158015612f84573d6000803e3d6000fd5b5050601e54604051633800f15360e11b81526001600160a01b039091169250637001e2a69150612fba9087904290600401614f54565b600060405180830381600087803b158015612fd457600080fd5b505af1158015612fe8573d6000803e3d6000fd5b5050601e54601c54604051635a46d3b560e01b81526001600160a01b0392831694506358df38259350889290911690635a46d3b59061302b908490600401614e65565b60206040518083038186803b15801561304357600080fd5b505afa158015613057573d6000803e3d6000fd5b505050506040513d601f19601f8201168201806040525081019061307b9190614d08565b6040518363ffffffff1660e01b8152600401613098929190614f54565b600060405180830381600087803b1580156130b257600080fd5b505af11580156130c6573d6000803e3d6000fd5b5050506000868152600e60205260408082205490517fa0a01f5aa68fdaf8aa6fb537fe6078fa09dcde567f2634e239f990716cb335b0935061310e9233928a92909190614ed7565b60405180910390a150505050610eac565b602083015161312f90839061359b565b6000868152600e60205260408120549193509061315490606490610e399086906135c3565b601c5460405163579587b360e11b81529192506001600160a01b03169063af2b0f66906131879088908590600401614f54565b600060405180830381600087803b1580156131a157600080fd5b505af11580156131b5573d6000803e3d6000fd5b5050601e54604051633800f15360e11b81526001600160a01b039091169250637001e2a691506131eb9088904290600401614f54565b600060405180830381600087803b15801561320557600080fd5b505af1158015613219573d6000803e3d6000fd5b5050601e54601c54604051635a46d3b560e01b81526001600160a01b0392831694506358df38259350899290911690635a46d3b59061325c908490600401614e65565b60206040518083038186803b15801561327457600080fd5b505afa158015613288573d6000803e3d6000fd5b505050506040513d601f19601f820116820180604052508101906132ac9190614d08565b6040518363ffffffff1660e01b81526004016132c9929190614f54565b600060405180830381600087803b1580156132e357600080fd5b505af11580156132f7573d6000803e3d6000fd5b5050506000878152600e6020526040908190205490517fa0a01f5aa68fdaf8aa6fb537fe6078fa09dcde567f2634e239f990716cb335b092506133409133918a91908690614ed7565b60405180910390a15050436000908152600c602090815260408083203284529091528082208054600160ff199182168117909255338452919092208054909116909117905550505050565b336000908152600b602052604090205460ff16806133b85750336133ad611d0b565b6001600160a01b0316145b6133d45760405162461bcd60e51b8152600401610a0090615a23565b601b55565b60118181548110610ad757fe5b60228181548110610ad757fe5b6001600160a01b03918216600090815260056020908152604080832093909416825291909152205460ff1690565b601b546000828152600e60205260408120600201549091610e4691906138c1565b60195481565b613450613529565b6001600160a01b0316613461611d0b565b6001600160a01b0316146134875760405162461bcd60e51b8152600401610a00906158ad565b6001600160a01b0381166134ad5760405162461bcd60e51b8152600401610a00906150ee565b600a546040516001600160a01b038084169216907f8be0079c531659141344cd1fd0a4f28419497f9722a3daafe3b4186f6b6457e090600090a3600a80546001600160a01b0319166001600160a01b0392909216919091179055565b6000610e4661105a61105184600161359b565b6000610e46600283613fe0565b3390565b600081815260046020526040902080546001600160a01b0319166001600160a01b038416908117909155819061356282611a1f565b6001600160a01b03167f8c5be1e5ebec7d5bd14f71427d1e84f3dd0314c0f7b2291e5b200ac8c7c3b92560405160405180910390a45050565b6000828211156135bd5760405162461bcd60e51b8152600401610a0090615347565b50900390565b6000826135d257506000610e46565b828202828482816135df57fe5b04146115e15760405162461bcd60e51b8152600401610a0090615789565b600080821161361e5760405162461bcd60e51b8152600401610a0090615410565b81838161362757fe5b049392505050565b436000908152600c6020908152604080832032845290915290205460ff1690565b436000908152600c6020908152604080832033845290915290205460ff1690565b3361367b82611a1f565b6001600160a01b0316148061369f5750336000908152600b602052604090205460ff165b806136b95750336136ae611d0b565b6001600160a01b0316145b6136d55760405162461bcd60e51b8152600401610a009061547c565b6000818152600e602052604090206136eb612505565b81541061370a5760405162461bcd60e51b8152600401610a009061569e565b6000613725601b5483600201546138c190919063ffffffff16565b9050804210156137475760405162461bcd60e51b8152600401610a0090615d29565b60028201819055815460205460009161376091906135c3565b905060006137718460000154612aea565b9050600061377f83836138c1565b601d5490915061379a906001600160a01b03163330846138e6565b601d54604051630852cd8d60e31b81526001600160a01b03909116906342966c68906137ca908490600401615dd5565b600060405180830381600087803b1580156137e457600080fd5b505af11580156137f8573d6000803e3d6000fd5b505086546000925061380c915060016138c1565b8087556040519091507ffad5be9f4ac6c1de813a372154d2eaced7085081b790ef2176b34cc456b09709906138469033908a908590614eb6565b60405180910390a150505050505050565b6000610e4682613947565b601a546000906001600160a01b038381169116148061389957506001600160a01b0382166000908152600b602052604090205460ff165b80610e465750816001600160a01b03166138b1611d0b565b6001600160a01b03161492915050565b6000828201838110156115e15760405162461bcd60e51b8152600401610a0090615252565b6120fc846323b872dd60e01b85858560405160240161390793929190614f30565b60408051601f198184030181529190526020810180516001600160e01b03166001600160e01b031990931692909217909152613fec565b80546001019055565b5490565b600f548060005b8115611f6957600182039050600f818154811061396b57fe5b906000526020600020015485106139a157836012828154811061398a57fe5b600091825260209091200180549091019055611f69565b600182039150613952565b600f548060005b8115611f6957600182039050600f81815481106139cc57fe5b90600052602060002001548510613a3857601181815481106139ea57fe5b906000526020600020015460138281548110613a0257fe5b906000526020600020015410613a2a5760405162461bcd60e51b8152600401610a00906159bd565b836013828154811061398a57fe5b6001820391506139b3565b6001600160a01b038216613a695760405162461bcd60e51b8152600401610a00906156e1565b613a728161351c565b15613a8f5760405162461bcd60e51b8152600401610a0090615134565b613a9b60008383610c25565b6001600160a01b0382166000908152600160205260409020613abd908261407b565b50613aca60028284614087565b5060405181906001600160a01b038416906000907fddf252ad1be2c89b69c2b068fc378daa952ba7f163c4a11628f55a4df523b3ef908290a45050565b613b108261351c565b613b2c5760405162461bcd60e51b8152600401610a0090615816565b60008281526008602090815260409091208251610c2592840190614725565b6000613b568261351c565b613b725760405162461bcd60e51b8152600401610a00906153c4565b6000613b7d83611a1f565b9050806001600160a01b0316846001600160a01b03161480613bb85750836001600160a01b0316613bad84610ae8565b6001600160a01b0316145b80613bc85750613bc881856133f3565b949350505050565b826001600160a01b0316613be382611a1f565b6001600160a01b031614613c095760405162461bcd60e51b8152600401610a00906158e2565b6001600160a01b038216613c2f5760405162461bcd60e51b8152600401610a0090615289565b613c3a838383610c25565b613c4560008261352d565b6001600160a01b0383166000908152600160205260409020613c67908261409d565b506001600160a01b0382166000908152600160205260409020613c8a908261407b565b50613c9760028284614087565b5080826001600160a01b0316846001600160a01b03167fddf252ad1be2c89b69c2b068fc378daa952ba7f163c4a11628f55a4df523b3ef60405160405180910390a4505050565b60006115e183836140a9565b6000808080613cf986866140ee565b9097909650945050505050565b6000613bc884848461414a565b613d1e848484613bd0565b613d2a848484846141a9565b6120fc5760405162461bcd60e51b8152600401610a009061509c565b606081613d6b57506040805180820190915260018152600360fc1b60208201526109b2565b8160005b8115613d8357600101600a82049150613d6f565b60608167ffffffffffffffff81118015613d9c57600080fd5b506040519080825280601f01601f191660200182016040528015613dc7576020820181803683370190505b50859350905060001982015b8315613e1857600a840660300160f81b82828060019003935081518110613df657fe5b60200101906001600160f81b031916908160001a905350600a84049350613dd3565b50949350505050565b6000613e2c82611a1f565b9050613e3a81600084610c25565b613e4560008361352d565b6000828152600860205260409020546002600019610100600184161502019091160415613e83576000828152600860205260408120613e8391614792565b6001600160a01b0381166000908152600160205260409020613ea5908361409d565b50613eb1600283614288565b5060405182906000906001600160a01b038416907fddf252ad1be2c89b69c2b068fc378daa952ba7f163c4a11628f55a4df523b3ef908390a45050565b6010548060005b8115611f6957600182039050613faa8560108381548110613f1257fe5b600091825260209182902001805460408051601f6002600019610100600187161502019094169390930492830185900485028101850190915281815292830182828015613fa05780601f10613f7557610100808354040283529160200191613fa0565b820191906000526020600020905b815481529060010190602001808311613f8357829003601f168201915b5050505050614294565b15613fd5578360128281548110613fbd57fe5b60009182526020909120018054919091039055611f69565b600182039150613ef5565b60006115e183836142a0565b6060614041826040518060400160405280602081526020017f5361666545524332303a206c6f772d6c6576656c2063616c6c206661696c6564815250856001600160a01b03166142b89092919063ffffffff16565b805190915015610c25578080602001905181019061405f9190614c69565b610c255760405162461bcd60e51b8152600401610a0090615c99565b60006115e183836142c7565b6000613bc884846001600160a01b038516614311565b60006115e183836143a8565b815460009082106140cc5760405162461bcd60e51b8152600401610a0090614f8b565b8260000182815481106140db57fe5b9060005260206000200154905092915050565b8154600090819083106141135760405162461bcd60e51b8152600401610a009061565c565b600084600001848154811061412457fe5b906000526020600020906002020190508060000154816001015492509250509250929050565b6000828152600184016020526040812054828161417a5760405162461bcd60e51b8152600401610a009190614f78565b5084600001600182038154811061418d57fe5b9060005260206000209060020201600101549150509392505050565b60006141bd846001600160a01b031661446e565b6141c957506001613bc8565b6060614251630a85bd0160e11b6141de613529565b8887876040516024016141f49493929190614e79565b604051602081830303815290604052906001600160e01b0319166020820180516001600160e01b038381831617835250505050604051806060016040528060328152602001615efd603291396001600160a01b03881691906142b8565b90506000818060200190518101906142699190614ca1565b6001600160e01b031916630a85bd0160e11b1492505050949350505050565b60006115e18383614474565b60006115e18383614548565b60009081526001919091016020526040902054151590565b6060613bc8848460008561456d565b60006142d383836142a0565b61430957508154600181810184556000848152602080822090930184905584548482528286019093526040902091909155610e46565b506000610e46565b6000828152600184016020526040812054806143765750506040805180820182528381526020808201848152865460018181018955600089815284812095516002909302909501918255915190820155865486845281880190925292909120556115e1565b8285600001600183038154811061438957fe5b90600052602060002090600202016001018190555060009150506115e1565b6000818152600183016020526040812054801561446457835460001980830191908101906000908790839081106143db57fe5b90600052602060002001549050808760000184815481106143f857fe5b60009182526020808320909101929092558281526001898101909252604090209084019055865487908061442857fe5b60019003818190600052602060002001600090559055866001016000878152602001908152602001600020600090556001945050505050610e46565b6000915050610e46565b3b151590565b6000818152600183016020526040812054801561446457835460001980830191908101906000908790839081106144a757fe5b90600052602060002090600202019050808760000184815481106144c757fe5b60009182526020808320845460029093020191825560019384015491840191909155835482528983019052604090209084019055865487908061450657fe5b6000828152602080822060026000199094019384020182815560019081018390559290935588815289820190925260408220919091559450610e469350505050565b6000815183511480156115e15750508051602091820120825192909101919091201490565b60608247101561458f5760405162461bcd60e51b8152600401610a009061537e565b6145988561446e565b6145b45760405162461bcd60e51b8152600401610a0090615ba9565b60006060866001600160a01b031685876040516145d19190614e1a565b60006040518083038185875af1925050503d806000811461460e576040519150601f19603f3d011682016040523d82523d6000602084013e614613565b606091505b509150915061462382828661462e565b979650505050505050565b6060831561463d5750816115e1565b82511561464d5782518084602001fd5b8160405162461bcd60e51b8152600401610a009190614f78565b604051806040016040528060008152602001600081525090565b8280548282559060005260206000209081019282156146bc579160200282015b828111156146bc5782518255916020019190600101906146a1565b506146c89291506147d9565b5090565b828054828255906000526020600020908101928215614719579160200282015b828111156147195782518051614709918491602090910190614725565b50916020019190600101906146ec565b506146c89291506147ee565b828054600181600116156101000203166002900490600052602060002090601f016020900481019282601f1061476657805160ff19168380011785556146bc565b828001600101855582156146bc57918201828111156146bc5782518255916020019190600101906146a1565b50805460018160011615610100020316600290046000825580601f106147b857506147d6565b601f0160209004906000526020600020908101906147d691906147d9565b50565b5b808211156146c857600081556001016147da565b808211156146c85760006148028282614792565b506001016147ee565b600082601f83011261481b578081fd5b813561482e61482982615e77565b615e50565b818152915060208083019084810160005b8481101561486857614856888484358a01016148d1565b8452928201929082019060010161483f565b505050505092915050565b600082601f830112614883578081fd5b813561489161482982615e77565b8181529150602080830190848101818402860182018710156148b257600080fd5b60005b84811015614868578135845292820192908201906001016148b5565b600082601f8301126148e1578081fd5b813567ffffffffffffffff8111156148f7578182fd5b61490a601f8201601f1916602001615e50565b915080825283602082850101111561492157600080fd5b8060208401602084013760009082016020015292915050565b60006020828403121561494b578081fd5b81356115e181615ec3565b60008060408385031215614968578081fd5b823561497381615ec3565b9150602083013561498381615ec3565b809150509250929050565b6000806000606084860312156149a2578081fd5b83356149ad81615ec3565b925060208401356149bd81615ec3565b929592945050506040919091013590565b600080600080608085870312156149e3578081fd5b84356149ee81615ec3565b935060208501356149fe81615ec3565b925060408501359150606085013567ffffffffffffffff811115614a20578182fd5b614a2c878288016148d1565b91505092959194509250565b60008060408385031215614a4a578182fd5b8235614a5581615ec3565b9150602083013561498381615ed8565b60008060408385031215614a77578182fd5b8235614a8281615ec3565b946020939093013593505050565b60006020808385031215614aa2578182fd5b825167ffffffffffffffff811115614ab8578283fd5b8301601f81018513614ac8578283fd5b8051614ad661482982615e77565b8181528381019083850185840285018601891015614af2578687fd5b8694505b83851015614b14578051835260019490940193918501918501614af6565b50979650505050505050565b600080600080600060a08688031215614b37578283fd5b853567ffffffffffffffff80821115614b4e578485fd5b614b5a89838a01614873565b96506020880135915080821115614b6f578485fd5b614b7b89838a0161480b565b95506040880135915080821115614b90578485fd5b614b9c89838a01614873565b94506060880135915080821115614bb1578283fd5b614bbd89838a01614873565b93506080880135915080821115614bd2578283fd5b50614bdf88828901614873565b9150509295509295909350565b60008060408385031215614bfe578182fd5b823567ffffffffffffffff80821115614c15578384fd5b614c2186838701614873565b93506020850135915080821115614c36578283fd5b50614c4385828601614873565b9150509250929050565b600060208284031215614c5e578081fd5b81356115e181615ed8565b600060208284031215614c7a578081fd5b81516115e181615ed8565b600060208284031215614c96578081fd5b81356115e181615ee6565b600060208284031215614cb2578081fd5b81516115e181615ee6565b600060408284031215614cce578081fd5b614cd86040615e50565b82518152602083015160208201528091505092915050565b600060208284031215614d01578081fd5b5035919050565b600060208284031215614d19578081fd5b5051919050565b600080600060608486031215614d34578081fd5b83359250602084013567ffffffffffffffff80821115614d52578283fd5b614d5e87838801614873565b93506040860135915080821115614d73578283fd5b50614d8086828701614873565b9150509250925092565b60008060408385031215614d9c578182fd5b50508035926020909101359150565b6000815180845260208085019450808401835b83811015614de35781516001600160a01b031687529582019590820190600101614dbe565b509495945050505050565b60008151808452614e06816020860160208601615e97565b601f01601f19169290920160200192915050565b60008251614e2c818460208701615e97565b9190910192915050565b60008351614e48818460208801615e97565b835190830190614e5c818360208801615e97565b01949350505050565b6001600160a01b0391909116815260200190565b6001600160a01b0385811682528416602082015260408101839052608060608201819052600090614eac90830184614dee565b9695505050505050565b6001600160a01b039390931683526020830191909152604082015260600190565b6001600160a01b0394909416845260208401929092526040830152606082015260800190565b6001600160a01b03969096168652602086019490945260408501929092526060840152608083015260a082015260c00190565b6001600160a01b039384168152919092166020820152604081019190915260600190565b6001600160a01b03929092168252602082015260400190565b901515815260200190565b6000602082526115e16020830184614dee565b60208082526022908201527f456e756d657261626c655365743a20696e646578206f7574206f6620626f756e604082015261647360f01b606082015260800190565b60208082526029908201527f45787472612067616d6520636f73742063616e277420626520686967686572206040820152683a3430b7101898181760b91b606082015260800190565b60208082526023908201527f4c6576656c206d757374206265203e203020616e64203c3d206d6178206c657660408201526232b61760e91b606082015260800190565b60208082526023908201527f4e6f7420656e6f756768207065726d697373696f6e7320666f7220746f6b656e60408201526210189760e91b606082015260800190565b60208082526032908201527f4552433732313a207472616e7366657220746f206e6f6e20455243373231526560408201527131b2b4bb32b91034b6b83632b6b2b73a32b960711b606082015260800190565b60208082526026908201527f4f776e61626c653a206e6577206f776e657220697320746865207a65726f206160408201526564647265737360d01b606082015260800190565b6020808252601c908201527f4552433732313a20746f6b656e20616c7265616479206d696e74656400000000604082015260600190565b6020808252604d908201527f47616d6520636f737420617272617973206d75737420626520657175616c206960408201527f6e206e6f6e2d7a65726f206c656e67746820616e642074696d652073686f756c60608201526c321039ba30b93a1030ba10181760991b608082015260a00190565b6020808252604e908201527f4c6576656c2055524920617272617973206d75737420626520657175616c206960408201527f6e206e6f6e2d7a65726f206c656e67746820616e64206c6576656c2073686f7560608201526d36321039ba30b93a1030ba10181760911b608082015260a00190565b6020808252601b908201527f536166654d6174683a206164646974696f6e206f766572666c6f770000000000604082015260600190565b60208082526024908201527f4552433732313a207472616e7366657220746f20746865207a65726f206164646040820152637265737360e01b606082015260800190565b60208082526019908201527f4552433732313a20617070726f766520746f2063616c6c657200000000000000604082015260600190565b60208082526023908201527f4d6178206c6576656c2063616e277420626520686967686572207468616e203160408201526218181760e91b606082015260800190565b6020808252601e908201527f536166654d6174683a207375627472616374696f6e206f766572666c6f770000604082015260600190565b60208082526026908201527f416464726573733a20696e73756666696369656e742062616c616e636520666f6040820152651c8818d85b1b60d21b606082015260800190565b6020808252602c908201527f4552433732313a206f70657261746f7220717565727920666f72206e6f6e657860408201526b34b9ba32b73a103a37b5b2b760a11b606082015260800190565b6020808252601a908201527f536166654d6174683a206469766973696f6e206279207a65726f000000000000604082015260600190565b6020808252818101527f596f752063616e206e6f206c6f6e676572206d696e742074686973204e46542e604082015260600190565b60208082526017908201527f4e6f7420656e6f756768207065726d697373696f6e732e000000000000000000604082015260600190565b6020808252601590820152742a37b5b2b7102aa9249034b99034b73b30b634b21760591b604082015260600190565b60208082526030908201527f4e465420756e6c6f636b696e6720686173206265656e2064697361626c65642060408201526f34b71030b71032b6b2b933b2b731bc9760811b606082015260800190565b60208082526038908201527f4552433732313a20617070726f76652063616c6c6572206973206e6f74206f7760408201527f6e6572206e6f7220617070726f76656420666f7220616c6c0000000000000000606082015260800190565b6020808252602a908201527f4552433732313a2062616c616e636520717565727920666f7220746865207a65604082015269726f206164647265737360b01b606082015260800190565b6020808252600c908201526b2637b3b4b19032b93937b91760a11b604082015260600190565b6020808252603b908201527f4c6576656c206d757374206265206c6f776572207468616e206d6178206c657660408201527f656c20616e6420686967686572207468616e2063757272656e742e0000000000606082015260800190565b60208082526022908201527f456e756d657261626c654d61703a20696e646578206f7574206f6620626f756e604082015261647360f01b606082015260800190565b60208082526023908201527f4c6576656c206d757374206265206c6f776572207468616e206d6178206c657660408201526232b61760e91b606082015260800190565b6020808252818101527f4552433732313a206d696e7420746f20746865207a65726f2061646472657373604082015260600190565b6020808252604d908201527f4d6178206c6576656c20617272617973206d75737420626520657175616c206960408201527f6e206e6f6e2d7a65726f206c656e67746820616e642074696d652073686f756c60608201526c321039ba30b93a1030ba10181760991b608082015260a00190565b60208082526021908201527f536166654d6174683a206d756c7469706c69636174696f6e206f766572666c6f6040820152607760f81b606082015260800190565b6020808252602c908201527f4552433732313a20617070726f76656420717565727920666f72206e6f6e657860408201526b34b9ba32b73a103a37b5b2b760a11b606082015260800190565b6020808252602c908201527f4552433732314d657461646174613a2055524920736574206f66206e6f6e657860408201526b34b9ba32b73a103a37b5b2b760a11b606082015260800190565b6020808252602b908201527f47616d6520636f737420706572206c6576656c2063616e27742062652068696760408201526a0686572207468616e2031360ac1b606082015260800190565b6020808252818101527f4f776e61626c653a2063616c6c6572206973206e6f7420746865206f776e6572604082015260600190565b60208082526029908201527f4552433732313a207472616e73666572206f6620746f6b656e2074686174206960408201526839903737ba1037bbb760b91b606082015260800190565b6020808252602f908201527f4552433732314d657461646174613a2055524920717565727920666f72206e6f60408201526e3732bc34b9ba32b73a103a37b5b2b760891b606082015260800190565b60208082526023908201527f4e6f7420656e6f756768207065726d697373696f6e7320666f7220746f6b656e60408201526210191760e91b606082015260800190565b6020808252600b908201526a26b0bc1036b4b73a32b21760a91b604082015260600190565b60208082526021908201527f4552433732313a20617070726f76616c20746f2063757272656e74206f776e656040820152603960f91b606082015260800190565b60208082526018908201527f63616c6c6572206973206e6f7420617574686f72697a65640000000000000000604082015260600190565b6020808252601c908201527f546f6b656e20494473206d75737420626520646966666572656e742e00000000604082015260600190565b60208082526039908201527f546f6f206d75636820746f20756e6c6f636b206e61747572616c6c792c20706c60408201527f656173652063616c6c20756e6c6f636b28292066697273742e00000000000000606082015260800190565b60208082526044908201527f546f6b656e20322068617320616c7265616479206265656e206d65726765642e60408201527f2047656e2031204e4654732063616e206f6e6c79206265206d6572676564206f6060820152633731b29760e11b608082015260a00190565b60208082526031908201527f4552433732313a207472616e736665722063616c6c6572206973206e6f74206f6040820152701ddb995c881b9bdc88185c1c1c9bdd9959607a1b606082015260800190565b6020808252601d908201527f416464726573733a2063616c6c20746f206e6f6e2d636f6e7472616374000000604082015260600190565b60208082526044908201527f546f6b656e20312068617320616c7265616479206265656e206d65726765642e60408201527f2047656e2031204e4654732063616e206f6e6c79206265206d6572676564206f6060820152633731b29760e11b608082015260a00190565b6020808252602f908201527f496e697469616c207072696365206d757374206265206c6f776572207468616e60408201526e10313abc903832b9103632bb32b61760891b606082015260800190565b6020808252602a908201527f5361666545524332303a204552433230206f7065726174696f6e20646964206e6040820152691bdd081cdd58d8d9595960b21b606082015260800190565b60208082526026908201527f436f6e747261637447756172643a206f6e6520626c6f636b2c206f6e652066756040820152653731ba34b7b760d11b606082015260800190565b6020808252601690820152752a37b79032b0b9363c903a37903632bb32b6103ab81760511b604082015260600190565b60208082526025908201527f426f746820746f6b656e73206d7573742068617665207468652073616d65206f6040820152643bb732b91760d91b606082015260800190565b6020808252601c908201527f4275726e20616d6f756e74206d757374206265203c3d20313030252e00000000604082015260600190565b90815260200190565b600083825260406020830152613bc86040830184614dab565b600086825285602083015260a06040830152615e1660a0830186614dab565b6001600160a01b0394909416606083015250608001529392505050565b938452602084019290925260408301521515606082015260800190565b60405181810167ffffffffffffffff81118282101715615e6f57600080fd5b604052919050565b600067ffffffffffffffff821115615e8d578081fd5b5060209081020190565b60005b83811015615eb2578181015183820152602001615e9a565b838111156120fc5750506000910152565b6001600160a01b03811681146147d657600080fd5b80151581146147d657600080fd5b6001600160e01b0319811681146147d657600080fdfe4552433732313a207472616e7366657220746f206e6f6e20455243373231526563656976657220696d706c656d656e7465724552433732313a206f776e657220717565727920666f72206e6f6e6578697374656e7420746f6b656ea264697066735822122072d0e577bbc324826d2e03df644cfdd8065d419a9c173f95fd963e58d9db94f464736f6c634300060c0033",
  "linkReferences": {},
  "deployedLinkReferences": {}
}