{
  "_format": "hh-sol-artifact-1",
  "contractName": "TheoryUnlockerGen1",
  "sourceName": "contracts/nfts/TheoryUnlockerGen1.sol",
  "abi": [
    {
      "inputs": [
        {
          "internalType": "contract IERC20",
          "name": "_buy",
          "type": "address"
        },
        {
          "internalType": "uint256[2]",
          "name": "_prices",
          "type": "uint256[2]"
        },
        {
          "internalType": "contract IERC20Lockable[2]",
          "name": "_theoryAndGame",
          "type": "address[2]"
        },
        {
          "internalType": "address",
          "name": "_communityFund",
          "type": "address"
        },
        {
          "internalType": "contract ITheoryUnlocker",
          "name": "_gen0",
          "type": "address"
        },
        {
          "internalType": "contract IUniswapV2Router",
          "name": "_router",
          "type": "address"
        },
        {
          "internalType": "uint256[]",
          "name": "_maxLevelTime",
          "type": "uint256[]"
        },
        {
          "internalType": "uint256[]",
          "name": "_maxLevelLevel",
          "type": "uint256[]"
        },
        {
          "internalType": "uint256[]",
          "name": "_levelURIsLevel",
          "type": "uint256[]"
        },
        {
          "internalType": "string[]",
          "name": "_levelURIsURI",
          "type": "string[]"
        },
        {
          "internalType": "uint256[]",
          "name": "_levelURIsMax",
          "type": "uint256[]"
        }
      ],
      "stateMutability": "nonpayable",
      "type": "constructor"
    },
    {
      "anonymous": false,
      "inputs": [
        {
          "indexed": true,
          "internalType": "address",
          "name": "owner",
          "type": "address"
        },
        {
          "indexed": true,
          "internalType": "address",
          "name": "approved",
          "type": "address"
        },
        {
          "indexed": true,
          "internalType": "uint256",
          "name": "tokenId",
          "type": "uint256"
        }
      ],
      "name": "Approval",
      "type": "event"
    },
    {
      "anonymous": false,
      "inputs": [
        {
          "indexed": true,
          "internalType": "address",
          "name": "owner",
          "type": "address"
        },
        {
          "indexed": true,
          "internalType": "address",
          "name": "operator",
          "type": "address"
        },
        {
          "indexed": false,
          "internalType": "bool",
          "name": "approved",
          "type": "bool"
        }
      ],
      "name": "ApprovalForAll",
      "type": "event"
    },
    {
      "anonymous": false,
      "inputs": [
        {
          "indexed": false,
          "internalType": "address",
          "name": "who",
          "type": "address"
        },
        {
          "indexed": false,
          "internalType": "uint256",
          "name": "tokenId",
          "type": "uint256"
        },
        {
          "indexed": false,
          "internalType": "uint256",
          "name": "leveledTo",
          "type": "uint256"
        }
      ],
      "name": "Level",
      "type": "event"
    },
    {
      "anonymous": false,
      "inputs": [
        {
          "indexed": false,
          "internalType": "address",
          "name": "who",
          "type": "address"
        },
        {
          "indexed": false,
          "internalType": "uint256",
          "name": "tokenId1",
          "type": "uint256"
        },
        {
          "indexed": false,
          "internalType": "uint256",
          "name": "tokenId2",
          "type": "uint256"
        },
        {
          "indexed": false,
          "internalType": "uint256",
          "name": "level1",
          "type": "uint256"
        },
        {
          "indexed": false,
          "internalType": "uint256",
          "name": "level2",
          "type": "uint256"
        },
        {
          "indexed": false,
          "internalType": "uint256",
          "name": "levelMerged",
          "type": "uint256"
        }
      ],
      "name": "Merge",
      "type": "event"
    },
    {
      "anonymous": false,
      "inputs": [
        {
          "indexed": false,
          "internalType": "address",
          "name": "who",
          "type": "address"
        },
        {
          "indexed": false,
          "internalType": "uint256",
          "name": "tokenId",
          "type": "uint256"
        },
        {
          "indexed": false,
          "internalType": "uint256",
          "name": "level",
          "type": "uint256"
        }
      ],
      "name": "Mint",
      "type": "event"
    },
    {
      "anonymous": false,
      "inputs": [
        {
          "indexed": true,
          "internalType": "address",
          "name": "previousOwner",
          "type": "address"
        },
        {
          "indexed": true,
          "internalType": "address",
          "name": "newOwner",
          "type": "address"
        }
      ],
      "name": "OwnershipTransferred",
      "type": "event"
    },
    {
      "anonymous": false,
      "inputs": [
        {
          "indexed": true,
          "internalType": "address",
          "name": "from",
          "type": "address"
        },
        {
          "indexed": true,
          "internalType": "address",
          "name": "to",
          "type": "address"
        },
        {
          "indexed": true,
          "internalType": "uint256",
          "name": "tokenId",
          "type": "uint256"
        }
      ],
      "name": "Transfer",
      "type": "event"
    },
    {
      "anonymous": false,
      "inputs": [
        {
          "indexed": false,
          "internalType": "address",
          "name": "who",
          "type": "address"
        },
        {
          "indexed": false,
          "internalType": "uint256",
          "name": "tokenId",
          "type": "uint256"
        },
        {
          "indexed": false,
          "internalType": "uint256",
          "name": "level",
          "type": "uint256"
        },
        {
          "indexed": false,
          "internalType": "uint256",
          "name": "amountToUnlock",
          "type": "uint256"
        }
      ],
      "name": "Unlock",
      "type": "event"
    },
    {
      "inputs": [],
      "name": "TheoryUnlockerGen0",
      "outputs": [
        {
          "internalType": "contract ITheoryUnlocker",
          "name": "",
          "type": "address"
        }
      ],
      "stateMutability": "view",
      "type": "function"
    },
    {
      "inputs": [
        {
          "internalType": "address",
          "name": "_toAdd",
          "type": "address"
        }
      ],
      "name": "addAuthorized",
      "outputs": [],
      "stateMutability": "nonpayable",
      "type": "function"
    },
    {
      "inputs": [
        {
          "internalType": "address",
          "name": "to",
          "type": "address"
        },
        {
          "internalType": "uint256",
          "name": "tokenId",
          "type": "uint256"
        }
      ],
      "name": "approve",
      "outputs": [],
      "stateMutability": "nonpayable",
      "type": "function"
    },
    {
      "inputs": [
        {
          "internalType": "address",
          "name": "",
          "type": "address"
        }
      ],
      "name": "authorized",
      "outputs": [
        {
          "internalType": "bool",
          "name": "",
          "type": "bool"
        }
      ],
      "stateMutability": "view",
      "type": "function"
    },
    {
      "inputs": [
        {
          "internalType": "address",
          "name": "owner",
          "type": "address"
        }
      ],
      "name": "balanceOf",
      "outputs": [
        {
          "internalType": "uint256",
          "name": "",
          "type": "uint256"
        }
      ],
      "stateMutability": "view",
      "type": "function"
    },
    {
      "inputs": [],
      "name": "baseURI",
      "outputs": [
        {
          "internalType": "string",
          "name": "",
          "type": "string"
        }
      ],
      "stateMutability": "view",
      "type": "function"
    },
    {
      "inputs": [],
      "name": "burnPercentage",
      "outputs": [
        {
          "internalType": "uint256",
          "name": "",
          "type": "uint256"
        }
      ],
      "stateMutability": "view",
      "type": "function"
    },
    {
      "inputs": [],
      "name": "buyToken",
      "outputs": [
        {
          "internalType": "contract IERC20",
          "name": "",
          "type": "address"
        }
      ],
      "stateMutability": "view",
      "type": "function"
    },
    {
      "inputs": [],
      "name": "buyTokenPerLevel",
      "outputs": [
        {
          "internalType": "uint256",
          "name": "",
          "type": "uint256"
        }
      ],
      "stateMutability": "view",
      "type": "function"
    },
    {
      "inputs": [
        {
          "internalType": "address",
          "name": "player",
          "type": "address"
        },
        {
          "internalType": "uint256",
          "name": "tokenId",
          "type": "uint256"
        }
      ],
      "name": "canUnlockAmount",
      "outputs": [
        {
          "internalType": "uint256",
          "name": "",
          "type": "uint256"
        }
      ],
      "stateMutability": "view",
      "type": "function"
    },
    {
      "inputs": [],
      "name": "communityFund",
      "outputs": [
        {
          "internalType": "address",
          "name": "",
          "type": "address"
        }
      ],
      "stateMutability": "view",
      "type": "function"
    },
    {
      "inputs": [
        {
          "internalType": "uint256",
          "name": "level",
          "type": "uint256"
        }
      ],
      "name": "costOf",
      "outputs": [
        {
          "internalType": "uint256",
          "name": "",
          "type": "uint256"
        }
      ],
      "stateMutability": "view",
      "type": "function"
    },
    {
      "inputs": [],
      "name": "disableMint",
      "outputs": [
        {
          "internalType": "bool",
          "name": "",
          "type": "bool"
        }
      ],
      "stateMutability": "view",
      "type": "function"
    },
    {
      "inputs": [],
      "name": "emergencyDisableUnlock",
      "outputs": [
        {
          "internalType": "bool",
          "name": "",
          "type": "bool"
        }
      ],
      "stateMutability": "view",
      "type": "function"
    },
    {
      "inputs": [
        {
          "internalType": "uint256",
          "name": "level",
          "type": "uint256"
        }
      ],
      "name": "extraGameCost",
      "outputs": [
        {
          "internalType": "uint256",
          "name": "",
          "type": "uint256"
        }
      ],
      "stateMutability": "view",
      "type": "function"
    },
    {
      "inputs": [
        {
          "internalType": "uint256",
          "name": "",
          "type": "uint256"
        }
      ],
      "name": "extraGameCostAmount",
      "outputs": [
        {
          "internalType": "uint256",
          "name": "",
          "type": "uint256"
        }
      ],
      "stateMutability": "view",
      "type": "function"
    },
    {
      "inputs": [
        {
          "internalType": "uint256",
          "name": "",
          "type": "uint256"
        }
      ],
      "name": "extraGameCostLevel",
      "outputs": [
        {
          "internalType": "uint256",
          "name": "",
          "type": "uint256"
        }
      ],
      "stateMutability": "view",
      "type": "function"
    },
    {
      "inputs": [],
      "name": "game",
      "outputs": [
        {
          "internalType": "contract IERC20Lockable",
          "name": "",
          "type": "address"
        }
      ],
      "stateMutability": "view",
      "type": "function"
    },
    {
      "inputs": [],
      "name": "gameCostPerLevel",
      "outputs": [
        {
          "internalType": "uint256",
          "name": "",
          "type": "uint256"
        }
      ],
      "stateMutability": "view",
      "type": "function"
    },
    {
      "inputs": [
        {
          "internalType": "uint256",
          "name": "tokenId",
          "type": "uint256"
        }
      ],
      "name": "getApproved",
      "outputs": [
        {
          "internalType": "address",
          "name": "",
          "type": "address"
        }
      ],
      "stateMutability": "view",
      "type": "function"
    },
    {
      "inputs": [],
      "name": "initialPrice",
      "outputs": [
        {
          "internalType": "uint256",
          "name": "",
          "type": "uint256"
        }
      ],
      "stateMutability": "view",
      "type": "function"
    },
    {
      "inputs": [
        {
          "internalType": "address",
          "name": "owner",
          "type": "address"
        },
        {
          "internalType": "address",
          "name": "operator",
          "type": "address"
        }
      ],
      "name": "isApprovedForAll",
      "outputs": [
        {
          "internalType": "bool",
          "name": "",
          "type": "bool"
        }
      ],
      "stateMutability": "view",
      "type": "function"
    },
    {
      "inputs": [
        {
          "internalType": "uint256",
          "name": "level",
          "type": "uint256"
        }
      ],
      "name": "levelURI",
      "outputs": [
        {
          "internalType": "string",
          "name": "",
          "type": "string"
        }
      ],
      "stateMutability": "view",
      "type": "function"
    },
    {
      "inputs": [
        {
          "internalType": "uint256",
          "name": "",
          "type": "uint256"
        }
      ],
      "name": "levelURIsLevel",
      "outputs": [
        {
          "internalType": "uint256",
          "name": "",
          "type": "uint256"
        }
      ],
      "stateMutability": "view",
      "type": "function"
    },
    {
      "inputs": [
        {
          "internalType": "uint256",
          "name": "",
          "type": "uint256"
        }
      ],
      "name": "levelURIsMax",
      "outputs": [
        {
          "internalType": "uint256",
          "name": "",
          "type": "uint256"
        }
      ],
      "stateMutability": "view",
      "type": "function"
    },
    {
      "inputs": [
        {
          "internalType": "uint256",
          "name": "",
          "type": "uint256"
        }
      ],
      "name": "levelURIsMinted",
      "outputs": [
        {
          "internalType": "uint256",
          "name": "",
          "type": "uint256"
        }
      ],
      "stateMutability": "view",
      "type": "function"
    },
    {
      "inputs": [
        {
          "internalType": "uint256",
          "name": "",
          "type": "uint256"
        }
      ],
      "name": "levelURIsSupply",
      "outputs": [
        {
          "internalType": "uint256",
          "name": "",
          "type": "uint256"
        }
      ],
      "stateMutability": "view",
      "type": "function"
    },
    {
      "inputs": [
        {
          "internalType": "uint256",
          "name": "",
          "type": "uint256"
        }
      ],
      "name": "levelURIsURI",
      "outputs": [
        {
          "internalType": "string",
          "name": "",
          "type": "string"
        }
      ],
      "stateMutability": "view",
      "type": "function"
    },
    {
      "inputs": [
        {
          "internalType": "uint256",
          "name": "tokenId",
          "type": "uint256"
        }
      ],
      "name": "levelUp",
      "outputs": [],
      "stateMutability": "nonpayable",
      "type": "function"
    },
    {
      "inputs": [
        {
          "internalType": "uint256",
          "name": "tokenId",
          "type": "uint256"
        },
        {
          "internalType": "uint256",
          "name": "theLevel",
          "type": "uint256"
        }
      ],
      "name": "levelUpTo",
      "outputs": [],
      "stateMutability": "nonpayable",
      "type": "function"
    },
    {
      "inputs": [
        {
          "internalType": "uint256",
          "name": "tokenId",
          "type": "uint256"
        }
      ],
      "name": "levelUpToMax",
      "outputs": [],
      "stateMutability": "nonpayable",
      "type": "function"
    },
    {
      "inputs": [],
      "name": "maxLevel",
      "outputs": [
        {
          "internalType": "uint256",
          "name": "",
          "type": "uint256"
        }
      ],
      "stateMutability": "view",
      "type": "function"
    },
    {
      "inputs": [
        {
          "internalType": "uint256",
          "name": "",
          "type": "uint256"
        }
      ],
      "name": "maxLevelLevel",
      "outputs": [
        {
          "internalType": "uint256",
          "name": "",
          "type": "uint256"
        }
      ],
      "stateMutability": "view",
      "type": "function"
    },
    {
      "inputs": [
        {
          "internalType": "uint256",
          "name": "",
          "type": "uint256"
        }
      ],
      "name": "maxLevelTime",
      "outputs": [
        {
          "internalType": "uint256",
          "name": "",
          "type": "uint256"
        }
      ],
      "stateMutability": "view",
      "type": "function"
    },
    {
      "inputs": [
        {
          "internalType": "uint256",
          "name": "level",
          "type": "uint256"
        }
      ],
      "name": "maxMinted",
      "outputs": [
        {
          "internalType": "uint256",
          "name": "",
          "type": "uint256"
        }
      ],
      "stateMutability": "view",
      "type": "function"
    },
    {
      "inputs": [
        {
          "internalType": "uint256",
          "name": "tokenId1",
          "type": "uint256"
        },
        {
          "internalType": "uint256",
          "name": "tokenId2",
          "type": "uint256"
        }
      ],
      "name": "merge",
      "outputs": [
        {
          "internalType": "uint256",
          "name": "",
          "type": "uint256"
        }
      ],
      "stateMutability": "nonpayable",
      "type": "function"
    },
    {
      "inputs": [
        {
          "internalType": "uint256",
          "name": "level",
          "type": "uint256"
        },
        {
          "internalType": "uint256",
          "name": "slippage",
          "type": "uint256"
        }
      ],
      "name": "mint",
      "outputs": [
        {
          "internalType": "uint256",
          "name": "",
          "type": "uint256"
        }
      ],
      "stateMutability": "nonpayable",
      "type": "function"
    },
    {
      "inputs": [
        {
          "internalType": "uint256",
          "name": "level",
          "type": "uint256"
        }
      ],
      "name": "minted",
      "outputs": [
        {
          "internalType": "uint256",
          "name": "",
          "type": "uint256"
        }
      ],
      "stateMutability": "view",
      "type": "function"
    },
    {
      "inputs": [],
      "name": "name",
      "outputs": [
        {
          "internalType": "string",
          "name": "",
          "type": "string"
        }
      ],
      "stateMutability": "view",
      "type": "function"
    },
    {
      "inputs": [
        {
          "internalType": "uint256",
          "name": "tokenId",
          "type": "uint256"
        }
      ],
      "name": "nextLevelTime",
      "outputs": [
        {
          "internalType": "uint256",
          "name": "",
          "type": "uint256"
        }
      ],
      "stateMutability": "view",
      "type": "function"
    },
    {
      "inputs": [
        {
          "internalType": "uint256",
          "name": "tokenId",
          "type": "uint256"
        }
      ],
      "name": "nftUnlock",
      "outputs": [],
      "stateMutability": "nonpayable",
      "type": "function"
    },
    {
      "inputs": [],
      "name": "owner",
      "outputs": [
        {
          "internalType": "address",
          "name": "",
          "type": "address"
        }
      ],
      "stateMutability": "view",
      "type": "function"
    },
    {
      "inputs": [
        {
          "internalType": "uint256",
          "name": "tokenId",
          "type": "uint256"
        }
      ],
      "name": "ownerOf",
      "outputs": [
        {
          "internalType": "address",
          "name": "",
          "type": "address"
        }
      ],
      "stateMutability": "view",
      "type": "function"
    },
    {
      "inputs": [
        {
          "internalType": "address",
          "name": "_toRemove",
          "type": "address"
        }
      ],
      "name": "removeAuthorized",
      "outputs": [],
      "stateMutability": "nonpayable",
      "type": "function"
    },
    {
      "inputs": [],
      "name": "renounceOwnership",
      "outputs": [],
      "stateMutability": "nonpayable",
      "type": "function"
    },
    {
      "inputs": [],
      "name": "router",
      "outputs": [
        {
          "internalType": "contract IUniswapV2Router",
          "name": "",
          "type": "address"
        }
      ],
      "stateMutability": "view",
      "type": "function"
    },
    {
      "inputs": [
        {
          "internalType": "address",
          "name": "from",
          "type": "address"
        },
        {
          "internalType": "address",
          "name": "to",
          "type": "address"
        },
        {
          "internalType": "uint256",
          "name": "tokenId",
          "type": "uint256"
        }
      ],
      "name": "safeTransferFrom",
      "outputs": [],
      "stateMutability": "nonpayable",
      "type": "function"
    },
    {
      "inputs": [
        {
          "internalType": "address",
          "name": "from",
          "type": "address"
        },
        {
          "internalType": "address",
          "name": "to",
          "type": "address"
        },
        {
          "internalType": "uint256",
          "name": "tokenId",
          "type": "uint256"
        },
        {
          "internalType": "bytes",
          "name": "_data",
          "type": "bytes"
        }
      ],
      "name": "safeTransferFrom",
      "outputs": [],
      "stateMutability": "nonpayable",
      "type": "function"
    },
    {
      "inputs": [
        {
          "internalType": "address",
          "name": "operator",
          "type": "address"
        },
        {
          "internalType": "bool",
          "name": "approved",
          "type": "bool"
        }
      ],
      "name": "setApprovalForAll",
      "outputs": [],
      "stateMutability": "nonpayable",
      "type": "function"
    },
    {
      "inputs": [
        {
          "internalType": "uint256",
          "name": "_burn",
          "type": "uint256"
        }
      ],
      "name": "setBurnPercentage",
      "outputs": [],
      "stateMutability": "nonpayable",
      "type": "function"
    },
    {
      "inputs": [
        {
          "internalType": "contract IERC20",
          "name": "_buy",
          "type": "address"
        }
      ],
      "name": "setBuyToken",
      "outputs": [],
      "stateMutability": "nonpayable",
      "type": "function"
    },
    {
      "inputs": [
        {
          "internalType": "address",
          "name": "_fund",
          "type": "address"
        }
      ],
      "name": "setCommunityFund",
      "outputs": [],
      "stateMutability": "nonpayable",
      "type": "function"
    },
    {
      "inputs": [
        {
          "internalType": "uint256",
          "name": "tokenId",
          "type": "uint256"
        },
        {
          "internalType": "uint256",
          "name": "time",
          "type": "uint256"
        }
      ],
      "name": "setCreationTime",
      "outputs": [],
      "stateMutability": "nonpayable",
      "type": "function"
    },
    {
      "inputs": [
        {
          "internalType": "bool",
          "name": "_disable",
          "type": "bool"
        }
      ],
      "name": "setDisableMint",
      "outputs": [],
      "stateMutability": "nonpayable",
      "type": "function"
    },
    {
      "inputs": [
        {
          "internalType": "bool",
          "name": "_disable",
          "type": "bool"
        }
      ],
      "name": "setEmergencyDisableUnlock",
      "outputs": [],
      "stateMutability": "nonpayable",
      "type": "function"
    },
    {
      "inputs": [
        {
          "internalType": "uint256",
          "name": "_gameCostPerLevel",
          "type": "uint256"
        },
        {
          "internalType": "uint256[]",
          "name": "_extraGameCostLevel",
          "type": "uint256[]"
        },
        {
          "internalType": "uint256[]",
          "name": "_extraGameCostAmount",
          "type": "uint256[]"
        }
      ],
      "name": "setGameCostForLevel",
      "outputs": [],
      "stateMutability": "nonpayable",
      "type": "function"
    },
    {
      "inputs": [
        {
          "internalType": "uint256",
          "name": "tokenId",
          "type": "uint256"
        },
        {
          "internalType": "uint256",
          "name": "time",
          "type": "uint256"
        }
      ],
      "name": "setLastLevelTime",
      "outputs": [],
      "stateMutability": "nonpayable",
      "type": "function"
    },
    {
      "inputs": [
        {
          "internalType": "address",
          "name": "user",
          "type": "address"
        },
        {
          "internalType": "uint256",
          "name": "amount",
          "type": "uint256"
        }
      ],
      "name": "setLastLockAmount",
      "outputs": [],
      "stateMutability": "nonpayable",
      "type": "function"
    },
    {
      "inputs": [
        {
          "internalType": "address",
          "name": "user",
          "type": "address"
        },
        {
          "internalType": "uint256",
          "name": "time",
          "type": "uint256"
        }
      ],
      "name": "setLastUnlockTime",
      "outputs": [],
      "stateMutability": "nonpayable",
      "type": "function"
    },
    {
      "inputs": [
        {
          "internalType": "uint256[]",
          "name": "_levelURIsLevel",
          "type": "uint256[]"
        },
        {
          "internalType": "string[]",
          "name": "_levelURIsURI",
          "type": "string[]"
        },
        {
          "internalType": "uint256[]",
          "name": "_levelURIsMax",
          "type": "uint256[]"
        },
        {
          "internalType": "uint256[]",
          "name": "_levelURIsSupply",
          "type": "uint256[]"
        },
        {
          "internalType": "uint256[]",
          "name": "_levelURIsMinted",
          "type": "uint256[]"
        }
      ],
      "name": "setLevelURIs",
      "outputs": [],
      "stateMutability": "nonpayable",
      "type": "function"
    },
    {
      "inputs": [
        {
          "internalType": "uint256[]",
          "name": "_maxLevelTime",
          "type": "uint256[]"
        },
        {
          "internalType": "uint256[]",
          "name": "_maxLevelLevel",
          "type": "uint256[]"
        }
      ],
      "name": "setMaxLevel",
      "outputs": [],
      "stateMutability": "nonpayable",
      "type": "function"
    },
    {
      "inputs": [
        {
          "internalType": "uint256",
          "name": "_initial",
          "type": "uint256"
        },
        {
          "internalType": "uint256",
          "name": "_perLevel",
          "type": "uint256"
        }
      ],
      "name": "setPrices",
      "outputs": [],
      "stateMutability": "nonpayable",
      "type": "function"
    },
    {
      "inputs": [
        {
          "internalType": "contract IUniswapV2Router",
          "name": "_router",
          "type": "address"
        }
      ],
      "name": "setRouter",
      "outputs": [],
      "stateMutability": "nonpayable",
      "type": "function"
    },
    {
      "inputs": [
        {
          "internalType": "uint256",
          "name": "_time",
          "type": "uint256"
        }
      ],
      "name": "setTimeToLevel",
      "outputs": [],
      "stateMutability": "nonpayable",
      "type": "function"
    },
    {
      "inputs": [
        {
          "internalType": "uint256",
          "name": "tokenId",
          "type": "uint256"
        },
        {
          "internalType": "uint256",
          "name": "level",
          "type": "uint256"
        }
      ],
      "name": "setTokenLevel",
      "outputs": [],
      "stateMutability": "nonpayable",
      "type": "function"
    },
    {
      "inputs": [
        {
          "internalType": "uint256",
          "name": "level",
          "type": "uint256"
        }
      ],
      "name": "supply",
      "outputs": [
        {
          "internalType": "uint256",
          "name": "",
          "type": "uint256"
        }
      ],
      "stateMutability": "view",
      "type": "function"
    },
    {
      "inputs": [
        {
          "internalType": "bytes4",
          "name": "interfaceId",
          "type": "bytes4"
        }
      ],
      "name": "supportsInterface",
      "outputs": [
        {
          "internalType": "bool",
          "name": "",
          "type": "bool"
        }
      ],
      "stateMutability": "view",
      "type": "function"
    },
    {
      "inputs": [],
      "name": "symbol",
      "outputs": [
        {
          "internalType": "string",
          "name": "",
          "type": "string"
        }
      ],
      "stateMutability": "view",
      "type": "function"
    },
    {
      "inputs": [],
      "name": "theory",
      "outputs": [
        {
          "internalType": "contract IERC20Lockable",
          "name": "",
          "type": "address"
        }
      ],
      "stateMutability": "view",
      "type": "function"
    },
    {
      "inputs": [
        {
          "internalType": "uint256",
          "name": "tokenId",
          "type": "uint256"
        }
      ],
      "name": "timeLeftToLevel",
      "outputs": [
        {
          "internalType": "uint256",
          "name": "",
          "type": "uint256"
        }
      ],
      "stateMutability": "view",
      "type": "function"
    },
    {
      "inputs": [],
      "name": "timeToLevel",
      "outputs": [
        {
          "internalType": "uint256",
          "name": "",
          "type": "uint256"
        }
      ],
      "stateMutability": "view",
      "type": "function"
    },
    {
      "inputs": [
        {
          "internalType": "uint256",
          "name": "index",
          "type": "uint256"
        }
      ],
      "name": "tokenByIndex",
      "outputs": [
        {
          "internalType": "uint256",
          "name": "",
          "type": "uint256"
        }
      ],
      "stateMutability": "view",
      "type": "function"
    },
    {
      "inputs": [
        {
          "internalType": "uint256",
          "name": "",
          "type": "uint256"
        }
      ],
      "name": "tokenInfo",
      "outputs": [
        {
          "internalType": "uint256",
          "name": "level",
          "type": "uint256"
        },
        {
          "internalType": "uint256",
          "name": "creationTime",
          "type": "uint256"
        },
        {
          "internalType": "uint256",
          "name": "lastLevelTime",
          "type": "uint256"
        },
        {
          "internalType": "bool",
          "name": "merged",
          "type": "bool"
        }
      ],
      "stateMutability": "view",
      "type": "function"
    },
    {
      "inputs": [
        {
          "internalType": "address",
          "name": "owner",
          "type": "address"
        },
        {
          "internalType": "uint256",
          "name": "index",
          "type": "uint256"
        }
      ],
      "name": "tokenOfOwnerByIndex",
      "outputs": [
        {
          "internalType": "uint256",
          "name": "",
          "type": "uint256"
        }
      ],
      "stateMutability": "view",
      "type": "function"
    },
    {
      "inputs": [
        {
          "internalType": "uint256",
          "name": "tokenId",
          "type": "uint256"
        }
      ],
      "name": "tokenURI",
      "outputs": [
        {
          "internalType": "string",
          "name": "",
          "type": "string"
        }
      ],
      "stateMutability": "view",
      "type": "function"
    },
    {
      "inputs": [],
      "name": "totalSupply",
      "outputs": [
        {
          "internalType": "uint256",
          "name": "",
          "type": "uint256"
        }
      ],
      "stateMutability": "view",
      "type": "function"
    },
    {
      "inputs": [
        {
          "internalType": "address",
          "name": "from",
          "type": "address"
        },
        {
          "internalType": "address",
          "name": "to",
          "type": "address"
        },
        {
          "internalType": "uint256",
          "name": "tokenId",
          "type": "uint256"
        }
      ],
      "name": "transferFrom",
      "outputs": [],
      "stateMutability": "nonpayable",
      "type": "function"
    },
    {
      "inputs": [
        {
          "internalType": "address",
          "name": "newOwner",
          "type": "address"
        }
      ],
      "name": "transferOwnership",
      "outputs": [],
      "stateMutability": "nonpayable",
      "type": "function"
    }
  ],
  "bytecode": "0x60806040523480156200001157600080fd5b5060405162006d3e38038062006d3e8339810160408190526200003491620009e9565b604080518082018252601581527f5448454f525920556e6c6f636b65722047656e20310000000000000000000000602080830191909152825180840190935260048352635455473160e01b9083015290620000966301ffc9a760e01b62000577565b8151620000ab906006906020850190620005cd565b508051620000c1906007906020840190620005cd565b50620000d46380ac58cd60e01b62000577565b620000e6635b5e139f60e01b62000577565b620000f863780e9d6360e01b62000577565b506000905062000107620005c9565b600a80546001600160a01b0319166001600160a01b038316908117909155604051919250906000907f8be0079c531659141344cd1fd0a4f28419497f9722a3daafe3b4186f6b6457e0908290a350601680546001600160a01b0319166001600160a01b038d1617905560208a01518a511015620001a15760405162461bcd60e51b8152600401620001989062000cbf565b60405180910390fd5b895160175560208a0151601855825115801590620001d4575082600081518110620001c857fe5b60200260200101516000145b8015620001e2575082518251145b8015620001f0575082518151145b6200020f5760405162461bcd60e51b8152600401620001989062000b95565b60008551118015620002365750846000815181106200022a57fe5b60200260200101516000145b801562000244575084518451145b620002635760405162461bcd60e51b8152600401620001989062000c4c565b83516000905b80821015620002b65760648683815181106200028157fe5b60200260200101511115620002aa5760405162461bcd60e51b8152600401620001989062000c09565b60018201915062000269565b8451620002cb90600f90602088019062000652565b508351620002e19060109060208701906200068f565b508251620002f790601190602086019062000652565b5050600f54600091505b80821015620003795760128054600181810190925560007fbb8a6a4669ba250d26cd7a459eca9d215f8307e33aebe50379bc5a3617ec34449091018190556013805480840182559082527f66de8ffda797e3de9c05e8fc57b3bf0ec28a930d40b0d285d93c06501cf6a0900155919091019062000301565b86516200038e9060149060208a019062000652565b508551620003a490601590602089019062000652565b50601a80546001600160a01b0319166001600160a01b038c161790556203f480601b558a60006020020151601c80546001600160a01b0319166001600160a01b039092169190911790558a600160209081029190910151601d80546001600160a01b03199081166001600160a01b039384161761ffff60a01b1916909155601e805482168d84161781556103e86019908155601f8054909316938d1693909317909155670de0b6b3a76400008355604080516101408101825260008152600594810194909452600a908401819052600f60608501526014608085015260a084019290925260c0830152602360e08301526028610100830152602d610120830152620004b291602191620006ef565b506040805161014081018252674563918244f400008152678ac7230489e8000060208201526801158e460913d000009181019190915268022b1c8c1227a0000060608201526804563918244f40000060808201526808ac7230489e80000060a0820152681158e460913d00000060c08201526822b1c8c1227a00000060e0820152684563918244f4000000610100820152688ac7230489e80000006101208201526200056390602290600a62000732565b505050505050505050505050505062000d8f565b6001600160e01b03198082161415620005a45760405162461bcd60e51b8152600401620001989062000b5e565b6001600160e01b0319166000908152602081905260409020805460ff19166001179055565b3390565b828054600181600116156101000203166002900490600052602060002090601f016020900481019282601f106200061057805160ff191683800117855562000640565b8280016001018555821562000640579182015b828111156200064057825182559160200191906001019062000623565b506200064e9291506200077b565b5090565b8280548282559060005260206000209081019282156200064057916020028201828111156200064057825182559160200191906001019062000623565b828054828255906000526020600020908101928215620006e1579160200282015b82811115620006e15782518051620006d0918491602090910190620005cd565b5091602001919060010190620006b0565b506200064e92915062000792565b82805482825590600052602060002090810192821562000640579160200282015b8281111562000640578251829060ff1690559160200191906001019062000710565b82805482825590600052602060002090810192821562000640579160200282015b828111156200064057825182906001600160481b031690559160200191906001019062000753565b5b808211156200064e57600081556001016200077c565b808211156200064e576000620007a98282620007b3565b5060010162000792565b50805460018160011615610100020316600290046000825580601f10620007db5750620007fb565b601f016020900490600052602060002090810190620007fb91906200077b565b50565b80516200080b8162000d79565b92915050565b600082601f83011262000822578081fd5b6200082e604062000cdb565b90508082846040850111156200084357600080fd5b60005b6002811015620008735781516200085d8162000d79565b8352602092830192919091019060010162000846565b50505092915050565b600082601f8301126200088d578081fd5b8151620008a46200089e8262000d02565b62000cdb565b818152915060208083019084810160005b8481101562000923578151870188603f820112620008d257600080fd5b83810151620008e56200089e8262000d22565b81815260408b81848601011115620008fc57600080fd5b6200090d8388840183870162000d46565b50865250509282019290820190600101620008b5565b505050505092915050565b600082601f8301126200093f578081fd5b6200094b604062000cdb565b90508082846040850111156200096057600080fd5b60005b60028110156200087357815183526020928301929091019060010162000963565b600082601f83011262000995578081fd5b8151620009a66200089e8262000d02565b818152915060208083019084810181840286018201871015620009c857600080fd5b60005b848110156200092357815184529282019290820190600101620009cb565b60008060008060008060008060008060006101a08c8e03121562000a0b578687fd5b62000a178d8d620007fe565b9a5062000a288d60208e016200092e565b995062000a398d60608e0162000811565b985062000a4a8d60a08e01620007fe565b975062000a5b8d60c08e01620007fe565b965062000a6c8d60e08e01620007fe565b6101008d01519096506001600160401b0381111562000a89578586fd5b62000a978e828f0162000984565b6101208e015190965090506001600160401b0381111562000ab6578485fd5b62000ac48e828f0162000984565b6101408e015190955090506001600160401b0381111562000ae3578384fd5b62000af18e828f0162000984565b6101608e015190945090506001600160401b0381111562000b10578283fd5b62000b1e8e828f016200087c565b6101808e015190935090506001600160401b0381111562000b3d578182fd5b62000b4b8e828f0162000984565b9150509295989b509295989b9093969950565b6020808252601c908201527f4552433136353a20696e76616c696420696e7465726661636520696400000000604082015260600190565b6020808252604e908201527f4c6576656c2055524920617272617973206d75737420626520657175616c206960408201527f6e206e6f6e2d7a65726f206c656e67746820616e64206c6576656c2073686f7560608201526d36321039ba30b93a1030ba10181760911b608082015260a00190565b60208082526023908201527f4d6178206c6576656c2063616e277420626520686967686572207468616e203160408201526218181760e91b606082015260800190565b6020808252604d908201527f4d6178206c6576656c20617272617973206d75737420626520657175616c206960408201527f6e206e6f6e2d7a65726f206c656e67746820616e642074696d652073686f756c60608201526c321039ba30b93a1030ba10181760991b608082015260a00190565b602080825260029082015261049560f41b604082015260600190565b6040518181016001600160401b038111828210171562000cfa57600080fd5b604052919050565b60006001600160401b0382111562000d18578081fd5b5060209081020190565b60006001600160401b0382111562000d38578081fd5b50601f01601f191660200190565b60005b8381101562000d6357818101518382015260200162000d49565b8381111562000d73576000848401525b50505050565b6001600160a01b0381168114620007fb57600080fd5b615f9f8062000d9f6000396000f3fe608060405234801561001057600080fd5b50600436106104695760003560e01c80637001e2a61161024c578063c87b56dd11610146578063dd289dcb116100c3578063ec3ddf3011610087578063ec3ddf3014610962578063f01f20df14610975578063f2fde38b1461097d578063f887ea4014610990578063fd3265921461099857610469565b8063dd289dcb1461090e578063df87026214610921578063e03652d314610934578063e74ab80f1461093c578063e985e9c51461094f57610469565b8063cf1c316a1161010a578063cf1c316a146108af578063d1c2babb146108c2578063d20bffa7146108d5578063d2a87f0f146108e8578063db357c30146108fb57610469565b8063c87b56dd1461084b578063ca60567a1461085e578063cc06c35914610871578063cc33c87514610879578063cc67d1ae1461089c57610469565b8063a22cb465116101d4578063b918161111610198578063b9181611146107f7578063c0d786551461080a578063c3f0d3271461081d578063c3fe3e2814610830578063c50d0a531461083857610469565b8063a22cb465146107a3578063a4821719146107b6578063aa08279c146107be578063b0d388ba146107d1578063b88d4fde146107e457610469565b80637dc0bf3f1161021b5780637dc0bf3f146107655780638a1165b3146107785780638da5cb5b1461078b57806395d89b41146107935780639eb3a6431461079b57610469565b80637001e2a61461072457806370a0823114610737578063711671221461074a578063715018a61461075d57610469565b8063286b297c116103685780633f684d38116102e557806358df3825116102a957806358df3825146106d057806359c5f463146106e35780635b2f4ed4146106f65780636352211e146107095780636c0360eb1461071c57610469565b80633f684d381461067c57806342842e0e1461068f57806347aebf9a146106a2578063485d7d94146106aa5780634f6ccce7146106bd57610469565b806337339a161161032c57806337339a161461062857806337f3e8a41461063b57806338d170991461064e5780633bcafb63146106615780633c32a4501461067457610469565b8063286b297c146105d45780632eb552f3146105e75780632f745c59146105fa57806334452f381461060d578063354030231461061557610469565b80630b744f3d116103f65780631c04628d116103ba5780631c04628d146105965780631d0806ae1461059e5780631e58a918146105a657806323b872dd146105b9578063257c739b146105cc57610469565b80630b744f3d146105425780630ce90ec21461055557806315dbb0151461056857806318160ddd1461057b5780631b2ef1ca1461058357610469565b8063081437961161043d57806308143796146104d6578063081812fc146104f657806308a5510c14610509578063095ea7b31461051c5780630a8424331461052f57610469565b8062f380f41461046e57806301ffc9a71461048c57806305fefda7146104ac57806306fdde03146104c1575b600080fd5b6104766109ab565b6040516104839190614f91565b60405180910390f35b61049f61049a366004614db1565b6109ba565b60405161048391906150b3565b6104bf6104ba366004614eb6565b6109dd565b005b6104c9610a5a565b60405161048391906150be565b6104e96104e4366004614e1c565b610af0565b6040516104839190615de7565b610476610504366004614e1c565b610b0e565b6104bf610517366004614d79565b610b51565b6104bf61052a366004614b91565b610bb8565b6104e961053d366004614b91565b610c50565b6104e9610550366004614e1c565b610e72565b6104bf610563366004614e1c565b610e7f565b6104e9610576366004614e1c565b610f10565b6104e9610f79565b6104e9610591366004614eb6565b610f8a565b61049f6114ab565b6104e96114bb565b6104bf6105b4366004614e1c565b6114c1565b6104bf6105c7366004614aba565b61157a565b6104e96115b2565b6104bf6105e2366004614d79565b6115b8565b6104e96105f5366004614e1c565b61161f565b6104e9610608366004614b91565b61162c565b61049f611655565b6104e9610623366004614e1c565b611665565b6104bf610636366004614a66565b6116b2565b6104e9610649366004614e1c565b61171d565b6104c961065c366004614e1c565b61172a565b6104e961066f366004614e1c565b611820565b61047661182d565b6104e961068a366004614e1c565b61183c565b6104bf61069d366004614aba565b61187b565b6104e9611896565b6104bf6106b8366004614a66565b61189c565b6104e96106cb366004614e1c565b611912565b6104bf6106de366004614b91565b611928565b6104e96106f1366004614e1c565b6119d9565b6104c9610704366004614e1c565b6119e6565b610476610717366004614e1c565b611a8c565b6104c9611ab4565b6104bf610732366004614b91565b611b15565b6104e9610745366004614a66565b611b90565b6104bf610758366004614eb6565b611bd9565b6104bf611c37565b6104e9610773366004614e1c565b611cc0565b6104bf610786366004614a66565b611d0d565b610476611d78565b6104c9611d87565b6104e9611de8565b6104bf6107b1366004614b64565b611dee565b610476611ebc565b6104bf6107cc366004614d18565b611ecb565b6104bf6107df366004614eb6565b611fdd565b6104bf6107f2366004614afa565b612130565b61049f610805366004614a66565b61216f565b6104bf610818366004614a66565b612184565b6104bf61082b366004614e1c565b6121ef565b61047661225f565b6104bf610846366004614e4c565b61226e565b6104c9610859366004614e1c565b612330565b6104bf61086c366004614eb6565b612476565b6104e9612504565b61088c610887366004614e1c565b61256c565b6040516104839493929190615e45565b6104bf6108aa366004614eb6565b612596565b6104bf6108bd366004614a66565b6125f4565b6104e96108d0366004614eb6565b612657565b6104bf6108e3366004614c4c565b6129d7565b6104e96108f6366004614e1c565b612b21565b6104bf610909366004614e1c565b612b6e565b6104bf61091c366004614e1c565b6133c2565b6104e961092f366004614e1c565b613410565b61047661341d565b6104e961094a366004614e1c565b61342c565b61049f61095d366004614a82565b613439565b6104e9610970366004614e1c565b613467565b6104e9613488565b6104bf61098b366004614a66565b61348e565b61047661354f565b6104e96109a6366004614e1c565b61355e565b601a546001600160a01b031681565b6001600160e01b0319811660009081526020819052604090205460ff165b919050565b336000908152600b602052604090205460ff1680610a0a5750336109ff611d78565b6001600160a01b0316145b610a2f5760405162461bcd60e51b8152600401610a2690615b01565b60405180910390fd5b80821015610a4f5760405162461bcd60e51b8152600401610a2690615d30565b601791909155601855565b60068054604080516020601f6002600019610100600188161502019095169490940493840181900481028201810190925282815260609390929091830182828015610ae65780601f10610abb57610100808354040283529160200191610ae6565b820191906000526020600020905b815481529060010190602001808311610ac957829003601f168201915b5050505050905090565b60158181548110610afd57fe5b600091825260209091200154905081565b6000610b1982613571565b610b355760405162461bcd60e51b8152600401610a26906158d6565b506000908152600460205260409020546001600160a01b031690565b336000908152600b602052604090205460ff1680610b7e575033610b73611d78565b6001600160a01b0316145b610b9a5760405162461bcd60e51b8152600401610a2690615b01565b601d8054911515600160a01b0260ff60a01b19909216919091179055565b6000610bc382611a8c565b9050806001600160a01b0316836001600160a01b03161415610bf75760405162461bcd60e51b8152600401610a2690615ac0565b806001600160a01b0316610c0961357e565b6001600160a01b03161480610c255750610c258161095d61357e565b610c415760405162461bcd60e51b8152600401610a269061561f565b610c4b8383613582565b505050565b6000610c5a614793565b601e54604051630cacd00160e11b81526001600160a01b0390911690631959a00290610c8a908790600401614f91565b604080518083038186803b158015610ca157600080fd5b505afa158015610cb5573d6000803e3d6000fd5b505050506040513d601f19601f82011682018060405250810190610cd99190614de9565b601c54604051635a46d3b560e01b81529192506000916001600160a01b0390911690635a46d3b590610d0f908890600401614f91565b60206040518083038186803b158015610d2757600080fd5b505afa158015610d3b573d6000803e3d6000fd5b505050506040513d601f19601f82011682018060405250810190610d5f9190614e34565b905080610d7157600092505050610e6c565b601c5460405163010158bb60e51b81526000916001600160a01b03169063202b176090610da2908990600401614f91565b60206040518083038186803b158015610dba57600080fd5b505afa158015610dce573d6000803e3d6000fd5b505050506040513d601f19601f82011682018060405250810190610df29190614e34565b9050808211610e075760009350505050610e6c565b610e1182826135f0565b915082602001518211610e2a5760009350505050610e6c565b6020830151610e3a9083906135f0565b6000868152600e602052604081205491935090610e6590606490610e5f908690613618565b90613652565b9450505050505b92915050565b60128181548110610afd57fe5b610e87613684565b15610ea45760405162461bcd60e51b8152600401610a2690615cba565b610eac6136a5565b15610ec95760405162461bcd60e51b8152600401610a2690615cba565b610ed2816136c6565b50436000908152600c602090815260408083203284529091528082208054600160ff1991821681179092553384529190922080549091169091179055565b600f54600090819080825b8115610f6f57600182039050600f8181548110610f3457fe5b90600052602060002001548610610f645760118181548110610f5257fe5b90600052602060002001549350610f6f565b600182039150610f1b565b5091949350505050565b6000610f8560026138c0565b905090565b6000610f94613684565b15610fb15760405162461bcd60e51b8152600401610a2690615cba565b610fb96136a5565b15610fd65760405162461bcd60e51b8152600401610a2690615cba565b601d54600160a01b900460ff161580610ff35750610ff3336138cb565b61100f5760405162461bcd60e51b8152600401610a26906151eb565b6000831180156110265750611022612504565b8311155b8061104057506000831180156110405750611040336138cb565b61105c5760405162461bcd60e51b8152600401610a2690615113565b611065336138cb565b61139657600061108e61108561107c8660016135f0565b60185490613618565b6017549061392a565b905060006110ad612710610e5f6019548561361890919063ffffffff16565b905060006110bb83836135f0565b601a546016549192506110dd916001600160a01b03908116913391168461394f565b8115611392576040805160028082526060808301845260009390929190602083019080368337505060165482519293506001600160a01b03169183915060009061112357fe5b6001600160a01b039283166020918202929092010152601d5482519116908290600190811061114e57fe5b6001600160a01b039283166020918202929092010152601654611174911633308761394f565b601f5460405163d06ca61f60e01b81526060916001600160a01b03169063d06ca61f906111a79088908690600401615df0565b60006040518083038186803b1580156111bf57600080fd5b505afa1580156111d3573d6000803e3d6000fd5b505050506040513d6000823e601f3d908101601f191682016040526111fb9190810190614bbc565b905060008160018351038151811061120f57fe5b6020026020010151905061123c611235612710610e5f8c8561361890919063ffffffff16565b82906135f0565b601f5460165491955061125f93506001600160a01b0391821692501660006139a7565b601f5460165461127c916001600160a01b039182169116866139a7565b601f546040516338ed173960e01b81526060916001600160a01b0316906338ed1739906112b59088908790879030904290600401615e09565b600060405180830381600087803b1580156112cf57600080fd5b505af11580156112e3573d6000803e3d6000fd5b505050506040513d6000823e601f3d908101601f1916820160405261130b9190810190614bbc565b905060008160018351038151811061131f57fe5b6020908102919091010151601d54604051630852cd8d60e31b81529192506001600160a01b0316906342966c689061135b908490600401615de7565b600060405180830381600087803b15801561137557600080fd5b505af1158015611389573d6000803e3d6000fd5b50505050505050505b5050505b336113a1600d613a6a565b60006113ad600d613a73565b6000818152600e602052604090204260018083018290556002830191909155919250906113db908790613a77565b6113e6866001613ad8565b6113f08383613b6f565b85815560606113fe8761172a565b905060008151116114215760405162461bcd60e51b8152600401610a269061556b565b61142b8382613c33565b7f4c209b5fc8ad50758f13e2e1088ba56a560dff690a1c6fef26394f4c03821c4f33848960405161145e93929190614fe2565b60405180910390a15050436000908152600c602090815260408083203284529091528082208054600160ff1991821681179092553384529190922080549091169091179055949350505050565b601d54600160a81b900460ff1681565b60175481565b6114c9613684565b156114e65760405162461bcd60e51b8152600401610a2690615cba565b6114ee6136a5565b1561150b5760405162461bcd60e51b8152600401610a2690615cba565b601b546000828152600e60205260409020600201546115299161392a565b4210156115485760405162461bcd60e51b8152600401610a2690615d00565b601b546000828152600e60205260409020600201546115669161392a565b4210610ed257611575816136c6565b611548565b61158b61158561357e565b82613c77565b6115a75760405162461bcd60e51b8152600401610a2690615be8565b610c4b838383613cfc565b60185481565b336000908152600b602052604090205460ff16806115e55750336115da611d78565b6001600160a01b0316145b6116015760405162461bcd60e51b8152600401610a2690615b01565b601d8054911515600160a81b0260ff60a81b19909216919091179055565b600f8181548110610afd57fe5b6001600160a01b038216600090815260016020526040812061164e9083613e0a565b9392505050565b601d54600160a01b900460ff1681565b600f54600090819080825b8115610f6f57600182039050600f818154811061168957fe5b906000526020600020015486106116a75760128181548110610f5257fe5b600182039150611670565b336000908152600b602052604090205460ff16806116df5750336116d4611d78565b6001600160a01b0316145b6116fb5760405162461bcd60e51b8152600401610a2690615b01565b601a80546001600160a01b0319166001600160a01b0392909216919091179055565b60138181548110610afd57fe5b60408051602081019091526000808252600f546060929181905b8115610f6f57600182039050600f818154811061175d57fe5b90600052602060002001548610611815576010818154811061177b57fe5b600091825260209182902001805460408051601f60026000196101006001871615020190941693909304928301859004850281018501909152818152928301828280156118095780601f106117de57610100808354040283529160200191611809565b820191906000526020600020905b8154815290600101906020018083116117ec57829003601f168201915b50505050509350610f6f565b600182039150611744565b60148181548110610afd57fe5b601c546001600160a01b031681565b601b546000828152600e60205260408120600201549091829161185e9161392a565b90508042106118715760009150506109d8565b61164e81426135f0565b610c4b83838360405180602001604052806000815250612130565b601b5481565b6118a461357e565b6001600160a01b03166118b5611d78565b6001600160a01b0316146118db5760405162461bcd60e51b8152600401610a269061596e565b6001600160a01b0381163314156118f157600080fd5b6001600160a01b03166000908152600b60205260409020805460ff19169055565b600080611920600284613e16565b509392505050565b336000908152600b602052604090205460ff168061195557503361194a611d78565b6001600160a01b0316145b6119715760405162461bcd60e51b8152600401610a2690615b01565b601e546040516358df382560e01b81526001600160a01b03909116906358df3825906119a3908590859060040161509a565b600060405180830381600087803b1580156119bd57600080fd5b505af11580156119d1573d6000803e3d6000fd5b505050505050565b60218181548110610afd57fe5b601081815481106119f357fe5b600091825260209182902001805460408051601f6002600019610100600187161502019094169390930492830185900485028101850190915281815293509091830182828015611a845780601f10611a5957610100808354040283529160200191611a84565b820191906000526020600020905b815481529060010190602001808311611a6757829003601f168201915b505050505081565b6000610e6c82604051806060016040528060298152602001615f416029913960029190613e32565b60098054604080516020601f6002600019610100600188161502019095169490940493840181900481028201810190925282815260609390929091830182828015610ae65780601f10610abb57610100808354040283529160200191610ae6565b336000908152600b602052604090205460ff1680611b42575033611b37611d78565b6001600160a01b0316145b611b5e5760405162461bcd60e51b8152600401610a2690615b01565b601e54604051633800f15360e11b81526001600160a01b0390911690637001e2a6906119a3908590859060040161509a565b60006001600160a01b038216611bb85760405162461bcd60e51b8152600401610a269061567c565b6001600160a01b0382166000908152600160205260409020610e6c906138c0565b336000908152600b602052604090205460ff1680611c06575033611bfb611d78565b6001600160a01b0316145b611c225760405162461bcd60e51b8152600401610a2690615b01565b6000918252600e602052604090912060010155565b611c3f61357e565b6001600160a01b0316611c50611d78565b6001600160a01b031614611c765760405162461bcd60e51b8152600401610a269061596e565b600a546040516000916001600160a01b0316907f8be0079c531659141344cd1fd0a4f28419497f9722a3daafe3b4186f6b6457e0908390a3600a80546001600160a01b0319169055565b600f54600090819080825b8115610f6f57600182039050600f8181548110611ce457fe5b90600052602060002001548610611d025760138181548110610f5257fe5b600182039150611ccb565b336000908152600b602052604090205460ff1680611d3a575033611d2f611d78565b6001600160a01b0316145b611d565760405162461bcd60e51b8152600401610a2690615b01565b601680546001600160a01b0319166001600160a01b0392909216919091179055565b600a546001600160a01b031690565b60078054604080516020601f6002600019610100600188161502019095169490940493840181900481028201810190925282815260609390929091830182828015610ae65780601f10610abb57610100808354040283529160200191610ae6565b60205481565b611df661357e565b6001600160a01b0316826001600160a01b03161415611e275760405162461bcd60e51b8152600401610a2690615385565b8060056000611e3461357e565b6001600160a01b03908116825260208083019390935260409182016000908120918716808252919093529120805460ff191692151592909217909155611e7861357e565b6001600160a01b03167f17307eab39ab6107e8899845ad3d59bd9653f200f220920489ca2b5937696c3183604051611eb091906150b3565b60405180910390a35050565b6016546001600160a01b031681565b336000908152600b602052604090205460ff1680611ef8575033611eed611d78565b6001600160a01b0316145b611f145760405162461bcd60e51b8152600401610a2690615b01565b60008251118015611f39575081600081518110611f2d57fe5b60200260200101516000145b8015611f46575081518151145b611f625760405162461bcd60e51b8152600401610a2690615822565b80516000905b80821015611faf576064838381518110611f7e57fe5b60200260200101511115611fa45760405162461bcd60e51b8152600401610a26906153f1565b600182019150611f68565b8351611fc29060149060208701906147ad565b508251611fd69060159060208601906147ad565b5050505050565b611fe5613684565b156120025760405162461bcd60e51b8152600401610a2690615cba565b61200a6136a5565b156120275760405162461bcd60e51b8152600401610a2690615cba565b6000828152600e60205260409020548111801561204b5750612047612504565b8111155b6120675760405162461bcd60e51b8152600401610a269061570b565b601b546000838152600e60205260409020600201546120859161392a565b4210156120a45760405162461bcd60e51b8152600401610a2690615d00565b6000828152600e6020526040902054811180156120de5750601b546000838152600e60205260409020600201546120da9161392a565b4210155b156120f1576120ec826136c6565b6120a4565b5050436000908152600c602090815260408083203284529091528082208054600160ff1991821681179092553384529190922080549091169091179055565b61214161213b61357e565b83613c77565b61215d5760405162461bcd60e51b8152600401610a2690615be8565b61216984848484613e3f565b50505050565b600b6020526000908152604090205460ff1681565b336000908152600b602052604090205460ff16806121b15750336121a6611d78565b6001600160a01b0316145b6121cd5760405162461bcd60e51b8152600401610a2690615b01565b601f80546001600160a01b0319166001600160a01b0392909216919091179055565b336000908152600b602052604090205460ff168061221c575033612211611d78565b6001600160a01b0316145b6122385760405162461bcd60e51b8152600401610a2690615b01565b61271081111561225a5760405162461bcd60e51b8152600401610a2690615bcc565b601955565b601d546001600160a01b031681565b336000908152600b602052604090205460ff168061229b575033612290611d78565b6001600160a01b0316145b6122b75760405162461bcd60e51b8152600401610a2690615b01565b600082511180156122dc5750816000815181106122d057fe5b60200260200101516000145b80156122e9575081518151145b6123055760405162461bcd60e51b8152600401610a26906159a3565b6020838155825161231c91602191908501906147ad565b5080516121699060229060208401906147ad565b606061233b82613571565b6123575760405162461bcd60e51b8152600401610a2690615a09565b60008281526008602090815260409182902080548351601f60026000196101006001861615020190931692909204918201849004840281018401909452808452606093928301828280156123ec5780601f106123c1576101008083540402835291602001916123ec565b820191906000526020600020905b8154815290600101906020018083116123cf57829003601f168201915b5050505050905060606123fd611ab4565b9050805160001415612411575090506109d8565b81511561244357808260405160200161242b929190614f62565b604051602081830303815290604052925050506109d8565b8061244d85613e72565b60405160200161245e929190614f62565b60405160208183030381529060405292505050919050565b336000908152600b602052604090205460ff16806124a3575033612498611d78565b6001600160a01b0316145b6124bf5760405162461bcd60e51b8152600401610a2690615b01565b6000811180156124d657506124d2612504565b8111155b6124f25760405162461bcd60e51b8152600401610a2690615113565b6000918252600e602052604090912055565b601454600090819080825b8115612563576001820390506014818154811061252857fe5b90600052602060002001544210612558576015818154811061254657fe5b90600052602060002001549350612563565b60018203915061250f565b50919250505090565b600e6020526000908152604090208054600182015460028301546003909301549192909160ff1684565b336000908152600b602052604090205460ff16806125c35750336125b8611d78565b6001600160a01b0316145b6125df5760405162461bcd60e51b8152600401610a2690615b01565b6000918252600e602052604090912060020155565b6125fc61357e565b6001600160a01b031661260d611d78565b6001600160a01b0316146126335760405162461bcd60e51b8152600401610a269061596e565b6001600160a01b03166000908152600b60205260409020805460ff19166001179055565b6000612661613684565b1561267e5760405162461bcd60e51b8152600401610a2690615cba565b6126866136a5565b156126a35760405162461bcd60e51b8152600401610a2690615cba565b818314156126c35760405162461bcd60e51b8152600401610a2690615b38565b336126cd84611a8c565b6001600160a01b031614806126f15750336000908152600b602052604090205460ff165b8061270b575033612700611d78565b6001600160a01b0316145b6127275760405162461bcd60e51b8152600401610a2690615156565b3361273183611a8c565b6001600160a01b031614806127555750336000908152600b602052604090205460ff165b8061276f575033612764611d78565b6001600160a01b0316145b61278b5760405162461bcd60e51b8152600401610a2690615a58565b61279482611a8c565b6001600160a01b03166127a684611a8c565b6001600160a01b0316146127cc5760405162461bcd60e51b8152600401610a2690615da2565b6000838152600e602052604090206003015460ff16156127fe5760405162461bcd60e51b8152600401610a26906155ea565b6000828152600e602052604090206003015460ff16156128305760405162461bcd60e51b8152600401610a26906153bc565b6000838152600e602052604080822054848352908220549091612853838361392a565b905060008111801561286c5750612868612504565b8111155b8061287b575061287b336138cb565b6128975760405162461bcd60e51b8152600401610a2690615113565b60006128a287611a8c565b905060606128af88612330565b90506128ba88613f4d565b6128cd6128c688612330565b600161401a565b6128d687613f4d565b6128e0600d613a6a565b60006128ec600d613a73565b6000818152600e60205260409020426001820181905560028201559091506129148483613b6f565b84815560038101805460ff1916600117905582516129445760405162461bcd60e51b8152600401610a269061556b565b61294e8284613c33565b7fba686ec693ca70698e2f440efae5040d92acb009a6399b0d9b9bfc47ef936145338b8b8a8a8a60405161298796959493929190615029565b60405180910390a150436000908152600c602090815260408083203284529091528082208054600160ff199182168117909255338452919092208054909116909117905598975050505050505050565b336000908152600b602052604090205460ff1680612a045750336129f9611d78565b6001600160a01b0316145b612a205760405162461bcd60e51b8152600401610a2690615b01565b601d54600160a01b900460ff16612a495760405162461bcd60e51b8152600401610a26906156ec565b60008551118015612a6e575084600081518110612a6257fe5b60200260200101516000145b8015612a7b575084518451145b8015612a88575084518351145b8015612a95575084518251145b8015612aa2575084518151145b612abe5760405162461bcd60e51b8152600401610a2690615296565b8451612ad190600f9060208801906147ad565b508351612ae59060109060208701906147f8565b508251612af99060119060208601906147ad565b508151612b0d9060129060208501906147ad565b5080516119d19060139060208401906147ad565b602154600090819080825b8115610f6f5760018203905060218181548110612b4557fe5b90600052602060002001548610612b635760228181548110610f5257fe5b600182039150612b2c565b612b76613684565b15612b935760405162461bcd60e51b8152600401610a2690615cba565b612b9b6136a5565b15612bb85760405162461bcd60e51b8152600401610a2690615cba565b601d54600160a81b900460ff1615612be25760405162461bcd60e51b8152600401610a269061559a565b33612bec82611a8c565b6001600160a01b03161480612c105750336000908152600b602052604090205460ff165b80612c2a575033612c1f611d78565b6001600160a01b0316145b612c465760405162461bcd60e51b8152600401610a2690615534565b6000612c5182611a8c565b9050612c5b614793565b601e54604051630cacd00160e11b81526001600160a01b0390911690631959a00290612c8b908590600401614f91565b604080518083038186803b158015612ca257600080fd5b505afa158015612cb6573d6000803e3d6000fd5b505050506040513d601f19601f82011682018060405250810190612cda9190614de9565b80519091504211612cfd5760405162461bcd60e51b8152600401610a26906156c6565b601c54604051635a46d3b560e01b81526000916001600160a01b031690635a46d3b590612d2e908690600401614f91565b60206040518083038186803b158015612d4657600080fd5b505afa158015612d5a573d6000803e3d6000fd5b505050506040513d601f19601f82011682018060405250810190612d7e9190614e34565b905080612ea157601e54604051633800f15360e11b81526001600160a01b0390911690637001e2a690612db7908690429060040161509a565b600060405180830381600087803b158015612dd157600080fd5b505af1158015612de5573d6000803e3d6000fd5b5050601e546040516358df382560e01b81526001600160a01b0390911692506358df38259150612e1b908690859060040161509a565b600060405180830381600087803b158015612e3557600080fd5b505af1158015612e49573d6000803e3d6000fd5b5050506000858152600e60205260408082205490517fa0a01f5aa68fdaf8aa6fb537fe6078fa09dcde567f2634e239f990716cb335b09350612e919233928992909190615003565b60405180910390a1505050610ed2565b601c5460405163010158bb60e51b81526000916001600160a01b03169063202b176090612ed2908790600401614f91565b60206040518083038186803b158015612eea57600080fd5b505afa158015612efe573d6000803e3d6000fd5b505050506040513d601f19601f82011682018060405250810190612f229190614e34565b9050808211612f435760405162461bcd60e51b8152600401610a2690615b6f565b612f4d82826135f0565b91508260200151821161315657601c5460405163579587b360e11b81526001600160a01b039091169063af2b0f6690612f8d90879060009060040161509a565b600060405180830381600087803b158015612fa757600080fd5b505af1158015612fbb573d6000803e3d6000fd5b5050601e54604051633800f15360e11b81526001600160a01b039091169250637001e2a69150612ff1908790429060040161509a565b600060405180830381600087803b15801561300b57600080fd5b505af115801561301f573d6000803e3d6000fd5b5050601e54601c54604051635a46d3b560e01b81526001600160a01b0392831694506358df38259350889290911690635a46d3b590613062908490600401614f91565b60206040518083038186803b15801561307a57600080fd5b505afa15801561308e573d6000803e3d6000fd5b505050506040513d601f19601f820116820180604052508101906130b29190614e34565b6040518363ffffffff1660e01b81526004016130cf92919061509a565b600060405180830381600087803b1580156130e957600080fd5b505af11580156130fd573d6000803e3d6000fd5b5050506000868152600e60205260408082205490517fa0a01f5aa68fdaf8aa6fb537fe6078fa09dcde567f2634e239f990716cb335b093506131459233928a92909190615003565b60405180910390a150505050610ed2565b60208301516131669083906135f0565b6000868152600e60205260408120549193509061318b90606490610e5f908690613618565b601c5460405163579587b360e11b81529192506001600160a01b03169063af2b0f66906131be908890859060040161509a565b600060405180830381600087803b1580156131d857600080fd5b505af11580156131ec573d6000803e3d6000fd5b5050601e54604051633800f15360e11b81526001600160a01b039091169250637001e2a69150613222908890429060040161509a565b600060405180830381600087803b15801561323c57600080fd5b505af1158015613250573d6000803e3d6000fd5b5050601e54601c54604051635a46d3b560e01b81526001600160a01b0392831694506358df38259350899290911690635a46d3b590613293908490600401614f91565b60206040518083038186803b1580156132ab57600080fd5b505afa1580156132bf573d6000803e3d6000fd5b505050506040513d601f19601f820116820180604052508101906132e39190614e34565b6040518363ffffffff1660e01b815260040161330092919061509a565b600060405180830381600087803b15801561331a57600080fd5b505af115801561332e573d6000803e3d6000fd5b5050506000878152600e6020526040908190205490517fa0a01f5aa68fdaf8aa6fb537fe6078fa09dcde567f2634e239f990716cb335b092506133779133918a91908690615003565b60405180910390a15050436000908152600c602090815260408083203284529091528082208054600160ff199182168117909255338452919092208054909116909117905550505050565b336000908152600b602052604090205460ff16806133ef5750336133e4611d78565b6001600160a01b0316145b61340b5760405162461bcd60e51b8152600401610a2690615b01565b601b55565b60118181548110610afd57fe5b601e546001600160a01b031681565b60228181548110610afd57fe5b6001600160a01b03918216600090815260056020908152604080832093909416825291909152205460ff1690565b601b546000828152600e60205260408120600201549091610e6c919061392a565b60195481565b61349661357e565b6001600160a01b03166134a7611d78565b6001600160a01b0316146134cd5760405162461bcd60e51b8152600401610a269061596e565b6001600160a01b0381166134f35760405162461bcd60e51b8152600401610a2690615219565b600a546040516001600160a01b038084169216907f8be0079c531659141344cd1fd0a4f28419497f9722a3daafe3b4186f6b6457e090600090a3600a80546001600160a01b0319166001600160a01b0392909216919091179055565b601f546001600160a01b031681565b6000610e6c61108561107c8460016135f0565b6000610e6c60028361410c565b3390565b600081815260046020526040902080546001600160a01b0319166001600160a01b03841690811790915581906135b782611a8c565b6001600160a01b03167f8c5be1e5ebec7d5bd14f71427d1e84f3dd0314c0f7b2291e5b200ac8c7c3b92560405160405180910390a45050565b6000828211156136125760405162461bcd60e51b8152600401610a2690615434565b50900390565b60008261362757506000610e6c565b8282028284828161363457fe5b041461164e5760405162461bcd60e51b8152600401610a2690615895565b60008082116136735760405162461bcd60e51b8152600401610a26906154fd565b81838161367c57fe5b049392505050565b436000908152600c6020908152604080832032845290915290205460ff1690565b436000908152600c6020908152604080832033845290915290205460ff1690565b336136d082611a8c565b6001600160a01b031614806136f45750336000908152600b602052604090205460ff165b8061370e575033613703611d78565b6001600160a01b0316145b61372a5760405162461bcd60e51b8152600401610a2690615534565b6000818152600e60205260409020613740612504565b81541061375f5760405162461bcd60e51b8152600401610a26906157aa565b600061377a601b54836002015461392a90919063ffffffff16565b90508042101561379c5760405162461bcd60e51b8152600401610a2690615d00565b600282018190556137ac336138cb565b6138685781546020546000916137c29190613618565b905060006137d38460000154612b21565b905060006137e1838361392a565b9050801561386457601d54613801906001600160a01b031633308461394f565b601d54604051630852cd8d60e31b81526001600160a01b03909116906342966c6890613831908490600401615de7565b600060405180830381600087803b15801561384b57600080fd5b505af115801561385f573d6000803e3d6000fd5b505050505b5050505b815460009061387890600161392a565b8084556040519091507ffad5be9f4ac6c1de813a372154d2eaced7085081b790ef2176b34cc456b09709906138b290339087908590614fe2565b60405180910390a150505050565b6000610e6c82613a73565b601a546000906001600160a01b038381169116148061390257506001600160a01b0382166000908152600b602052604090205460ff165b80610e6c5750816001600160a01b031661391a611d78565b6001600160a01b03161492915050565b60008282018381101561164e5760405162461bcd60e51b8152600401610a269061530a565b612169846323b872dd60e01b85858560405160240161397093929190615076565b60408051601f198184030181529190526020810180516001600160e01b03166001600160e01b031990931692909217909152614118565b801580613a2f5750604051636eb1769f60e11b81526001600160a01b0384169063dd62ed3e906139dd903090869060040161505c565b60206040518083038186803b1580156139f557600080fd5b505afa158015613a09573d6000803e3d6000fd5b505050506040513d601f19601f82011682018060405250810190613a2d9190614e34565b155b613a4b5760405162461bcd60e51b8152600401610a2690615d4c565b610c4b8363095ea7b360e01b848460405160240161397092919061509a565b80546001019055565b5490565b600f548060005b8115611fd657600182039050600f8181548110613a9757fe5b90600052602060002001548510613acd578360128281548110613ab657fe5b600091825260209091200180549091019055611fd6565b600182039150613a7e565b600f548060005b8115611fd657600182039050600f8181548110613af857fe5b90600052602060002001548510613b645760118181548110613b1657fe5b906000526020600020015460138281548110613b2e57fe5b906000526020600020015410613b565760405162461bcd60e51b8152600401610a2690615a9b565b8360138281548110613ab657fe5b600182039150613adf565b6001600160a01b038216613b955760405162461bcd60e51b8152600401610a26906157ed565b613b9e81613571565b15613bbb5760405162461bcd60e51b8152600401610a269061525f565b613bc760008383610c4b565b6001600160a01b0382166000908152600160205260409020613be990826141a7565b50613bf6600282846141b3565b5060405181906001600160a01b038416906000907fddf252ad1be2c89b69c2b068fc378daa952ba7f163c4a11628f55a4df523b3ef908290a45050565b613c3c82613571565b613c585760405162461bcd60e51b8152600401610a2690615922565b60008281526008602090815260409091208251610c4b92840190614851565b6000613c8282613571565b613c9e5760405162461bcd60e51b8152600401610a26906154b1565b6000613ca983611a8c565b9050806001600160a01b0316846001600160a01b03161480613ce45750836001600160a01b0316613cd984610b0e565b6001600160a01b0316145b80613cf45750613cf48185613439565b949350505050565b826001600160a01b0316613d0f82611a8c565b6001600160a01b031614613d355760405162461bcd60e51b8152600401610a26906159c0565b6001600160a01b038216613d5b5760405162461bcd60e51b8152600401610a2690615341565b613d66838383610c4b565b613d71600082613582565b6001600160a01b0383166000908152600160205260409020613d9390826141c9565b506001600160a01b0382166000908152600160205260409020613db690826141a7565b50613dc3600282846141b3565b5080826001600160a01b0316846001600160a01b03167fddf252ad1be2c89b69c2b068fc378daa952ba7f163c4a11628f55a4df523b3ef60405160405180910390a4505050565b600061164e83836141d5565b6000808080613e25868661421a565b9097909650945050505050565b6000613cf4848484614276565b613e4a848484613cfc565b613e56848484846142d5565b6121695760405162461bcd60e51b8152600401610a2690615199565b606081613e9757506040805180820190915260018152600360fc1b60208201526109d8565b8160005b8115613eaf57600101600a82049150613e9b565b60608167ffffffffffffffff81118015613ec857600080fd5b506040519080825280601f01601f191660200182016040528015613ef3576020820181803683370190505b50859350905060001982015b8315613f4457600a840660300160f81b82828060019003935081518110613f2257fe5b60200101906001600160f81b031916908160001a905350600a84049350613eff565b50949350505050565b6000613f5882611a8c565b9050613f6681600084610c4b565b613f71600083613582565b6000828152600860205260409020546002600019610100600184161502019091160415613faf576000828152600860205260408120613faf916148be565b6001600160a01b0381166000908152600160205260409020613fd190836141c9565b50613fdd6002836143b4565b5060405182906000906001600160a01b038416907fddf252ad1be2c89b69c2b068fc378daa952ba7f163c4a11628f55a4df523b3ef908390a45050565b6010548060005b8115611fd6576001820390506140d6856010838154811061403e57fe5b600091825260209182902001805460408051601f60026000196101006001871615020190941693909304928301859004850281018501909152818152928301828280156140cc5780601f106140a1576101008083540402835291602001916140cc565b820191906000526020600020905b8154815290600101906020018083116140af57829003601f168201915b50505050506143c0565b156141015783601282815481106140e957fe5b60009182526020909120018054919091039055611fd6565b600182039150614021565b600061164e83836143cc565b606061416d826040518060400160405280602081526020017f5361666545524332303a206c6f772d6c6576656c2063616c6c206661696c6564815250856001600160a01b03166143e49092919063ffffffff16565b805190915015610c4b578080602001905181019061418b9190614d95565b610c4b5760405162461bcd60e51b8152600401610a2690615c70565b600061164e83836143f3565b6000613cf484846001600160a01b03851661443d565b600061164e83836144d4565b815460009082106141f85760405162461bcd60e51b8152600401610a26906150d1565b82600001828154811061420757fe5b9060005260206000200154905092915050565b81546000908190831061423f5760405162461bcd60e51b8152600401610a2690615768565b600084600001848154811061425057fe5b906000526020600020906002020190508060000154816001015492509250509250929050565b600082815260018401602052604081205482816142a65760405162461bcd60e51b8152600401610a2691906150be565b508460000160018203815481106142b957fe5b9060005260206000209060020201600101549150509392505050565b60006142e9846001600160a01b031661459a565b6142f557506001613cf4565b606061437d630a85bd0160e11b61430a61357e565b8887876040516024016143209493929190614fa5565b604051602081830303815290604052906001600160e01b0319166020820180516001600160e01b038381831617835250505050604051806060016040528060328152602001615f0f603291396001600160a01b03881691906143e4565b90506000818060200190518101906143959190614dcd565b6001600160e01b031916630a85bd0160e11b1492505050949350505050565b600061164e83836145a0565b600061164e8383614674565b60009081526001919091016020526040902054151590565b6060613cf48484600085614699565b60006143ff83836143cc565b61443557508154600181810184556000848152602080822090930184905584548482528286019093526040902091909155610e6c565b506000610e6c565b6000828152600184016020526040812054806144a257505060408051808201825283815260208082018481528654600181810189556000898152848120955160029093029095019182559151908201558654868452818801909252929091205561164e565b828560000160018303815481106144b557fe5b906000526020600020906002020160010181905550600091505061164e565b60008181526001830160205260408120548015614590578354600019808301919081019060009087908390811061450757fe5b906000526020600020015490508087600001848154811061452457fe5b60009182526020808320909101929092558281526001898101909252604090209084019055865487908061455457fe5b60019003818190600052602060002001600090559055866001016000878152602001908152602001600020600090556001945050505050610e6c565b6000915050610e6c565b3b151590565b6000818152600183016020526040812054801561459057835460001980830191908101906000908790839081106145d357fe5b90600052602060002090600202019050808760000184815481106145f357fe5b60009182526020808320845460029093020191825560019384015491840191909155835482528983019052604090209084019055865487908061463257fe5b6000828152602080822060026000199094019384020182815560019081018390559290935588815289820190925260408220919091559450610e6c9350505050565b60008151835114801561164e5750508051602091820120825192909101919091201490565b6060824710156146bb5760405162461bcd60e51b8152600401610a269061546b565b6146c48561459a565b6146e05760405162461bcd60e51b8152600401610a2690615c39565b60006060866001600160a01b031685876040516146fd9190614f46565b60006040518083038185875af1925050503d806000811461473a576040519150601f19603f3d011682016040523d82523d6000602084013e61473f565b606091505b509150915061474f82828661475a565b979650505050505050565b6060831561476957508161164e565b8251156147795782518084602001fd5b8160405162461bcd60e51b8152600401610a2691906150be565b604051806040016040528060008152602001600081525090565b8280548282559060005260206000209081019282156147e8579160200282015b828111156147e85782518255916020019190600101906147cd565b506147f4929150614905565b5090565b828054828255906000526020600020908101928215614845579160200282015b828111156148455782518051614835918491602090910190614851565b5091602001919060010190614818565b506147f492915061491a565b828054600181600116156101000203166002900490600052602060002090601f016020900481019282601f1061489257805160ff19168380011785556147e8565b828001600101855582156147e857918201828111156147e85782518255916020019190600101906147cd565b50805460018160011615610100020316600290046000825580601f106148e45750614902565b601f0160209004906000526020600020908101906149029190614905565b50565b5b808211156147f45760008155600101614906565b808211156147f457600061492e82826148be565b5060010161491a565b600082601f830112614947578081fd5b813561495a61495582615e89565b615e62565b818152915060208083019084810160005b8481101561499457614982888484358a01016149fd565b8452928201929082019060010161496b565b505050505092915050565b600082601f8301126149af578081fd5b81356149bd61495582615e89565b8181529150602080830190848101818402860182018710156149de57600080fd5b60005b84811015614994578135845292820192908201906001016149e1565b600082601f830112614a0d578081fd5b813567ffffffffffffffff811115614a23578182fd5b614a36601f8201601f1916602001615e62565b9150808252836020828501011115614a4d57600080fd5b8060208401602084013760009082016020015292915050565b600060208284031215614a77578081fd5b813561164e81615ed5565b60008060408385031215614a94578081fd5b8235614a9f81615ed5565b91506020830135614aaf81615ed5565b809150509250929050565b600080600060608486031215614ace578081fd5b8335614ad981615ed5565b92506020840135614ae981615ed5565b929592945050506040919091013590565b60008060008060808587031215614b0f578081fd5b8435614b1a81615ed5565b93506020850135614b2a81615ed5565b925060408501359150606085013567ffffffffffffffff811115614b4c578182fd5b614b58878288016149fd565b91505092959194509250565b60008060408385031215614b76578182fd5b8235614b8181615ed5565b91506020830135614aaf81615eea565b60008060408385031215614ba3578182fd5b8235614bae81615ed5565b946020939093013593505050565b60006020808385031215614bce578182fd5b825167ffffffffffffffff811115614be4578283fd5b8301601f81018513614bf4578283fd5b8051614c0261495582615e89565b8181528381019083850185840285018601891015614c1e578687fd5b8694505b83851015614c40578051835260019490940193918501918501614c22565b50979650505050505050565b600080600080600060a08688031215614c63578283fd5b853567ffffffffffffffff80821115614c7a578485fd5b614c8689838a0161499f565b96506020880135915080821115614c9b578485fd5b614ca789838a01614937565b95506040880135915080821115614cbc578485fd5b614cc889838a0161499f565b94506060880135915080821115614cdd578283fd5b614ce989838a0161499f565b93506080880135915080821115614cfe578283fd5b50614d0b8882890161499f565b9150509295509295909350565b60008060408385031215614d2a578182fd5b823567ffffffffffffffff80821115614d41578384fd5b614d4d8683870161499f565b93506020850135915080821115614d62578283fd5b50614d6f8582860161499f565b9150509250929050565b600060208284031215614d8a578081fd5b813561164e81615eea565b600060208284031215614da6578081fd5b815161164e81615eea565b600060208284031215614dc2578081fd5b813561164e81615ef8565b600060208284031215614dde578081fd5b815161164e81615ef8565b600060408284031215614dfa578081fd5b614e046040615e62565b82518152602083015160208201528091505092915050565b600060208284031215614e2d578081fd5b5035919050565b600060208284031215614e45578081fd5b5051919050565b600080600060608486031215614e60578081fd5b83359250602084013567ffffffffffffffff80821115614e7e578283fd5b614e8a8783880161499f565b93506040860135915080821115614e9f578283fd5b50614eac8682870161499f565b9150509250925092565b60008060408385031215614ec8578182fd5b50508035926020909101359150565b6000815180845260208085019450808401835b83811015614f0f5781516001600160a01b031687529582019590820190600101614eea565b509495945050505050565b60008151808452614f32816020860160208601615ea9565b601f01601f19169290920160200192915050565b60008251614f58818460208701615ea9565b9190910192915050565b60008351614f74818460208801615ea9565b835190830190614f88818360208801615ea9565b01949350505050565b6001600160a01b0391909116815260200190565b6001600160a01b0385811682528416602082015260408101839052608060608201819052600090614fd890830184614f1a565b9695505050505050565b6001600160a01b039390931683526020830191909152604082015260600190565b6001600160a01b0394909416845260208401929092526040830152606082015260800190565b6001600160a01b03969096168652602086019490945260408501929092526060840152608083015260a082015260c00190565b6001600160a01b0392831681529116602082015260400190565b6001600160a01b039384168152919092166020820152604081019190915260600190565b6001600160a01b03929092168252602082015260400190565b901515815260200190565b60006020825261164e6020830184614f1a565b60208082526022908201527f456e756d657261626c655365743a20696e646578206f7574206f6620626f756e604082015261647360f01b606082015260800190565b60208082526023908201527f4c6576656c206d757374206265203e203020616e64203c3d206d6178206c657660408201526232b61760e91b606082015260800190565b60208082526023908201527f4e6f7420656e6f756768207065726d697373696f6e7320666f7220746f6b656e60408201526210189760e91b606082015260800190565b60208082526032908201527f4552433732313a207472616e7366657220746f206e6f6e20455243373231526560408201527131b2b4bb32b91034b6b83632b6b2b73a32b960711b606082015260800190565b60208082526014908201527326b4b73a34b733903ab730bb30b4b630b136329760611b604082015260600190565b60208082526026908201527f4f776e61626c653a206e6577206f776e657220697320746865207a65726f206160408201526564647265737360d01b606082015260800190565b6020808252601c908201527f4552433732313a20746f6b656e20616c7265616479206d696e74656400000000604082015260600190565b6020808252604e908201527f4c6576656c2055524920617272617973206d75737420626520657175616c206960408201527f6e206e6f6e2d7a65726f206c656e67746820616e64206c6576656c2073686f7560608201526d36321039ba30b93a1030ba10181760911b608082015260a00190565b6020808252601b908201527f536166654d6174683a206164646974696f6e206f766572666c6f770000000000604082015260600190565b60208082526024908201527f4552433732313a207472616e7366657220746f20746865207a65726f206164646040820152637265737360e01b606082015260800190565b60208082526019908201527f4552433732313a20617070726f766520746f2063616c6c657200000000000000604082015260600190565b6020808252818101527f546f6b656e20322068617320616c7265616479206265656e206d65726765642e604082015260600190565b60208082526023908201527f4d6178206c6576656c2063616e277420626520686967686572207468616e203160408201526218181760e91b606082015260800190565b6020808252601e908201527f536166654d6174683a207375627472616374696f6e206f766572666c6f770000604082015260600190565b60208082526026908201527f416464726573733a20696e73756666696369656e742062616c616e636520666f6040820152651c8818d85b1b60d21b606082015260800190565b6020808252602c908201527f4552433732313a206f70657261746f7220717565727920666f72206e6f6e657860408201526b34b9ba32b73a103a37b5b2b760a11b606082015260800190565b6020808252601a908201527f536166654d6174683a206469766973696f6e206279207a65726f000000000000604082015260600190565b60208082526017908201527f4e6f7420656e6f756768207065726d697373696f6e732e000000000000000000604082015260600190565b6020808252601590820152742a37b5b2b7102aa9249034b99034b73b30b634b21760591b604082015260600190565b60208082526030908201527f4e465420756e6c6f636b696e6720686173206265656e2064697361626c65642060408201526f34b71030b71032b6b2b933b2b731bc9760811b606082015260800190565b6020808252818101527f546f6b656e20312068617320616c7265616479206265656e206d65726765642e604082015260600190565b60208082526038908201527f4552433732313a20617070726f76652063616c6c6572206973206e6f74206f7760408201527f6e6572206e6f7220617070726f76656420666f7220616c6c0000000000000000606082015260800190565b6020808252602a908201527f4552433732313a2062616c616e636520717565727920666f7220746865207a65604082015269726f206164647265737360b01b606082015260800190565b6020808252600c908201526b2637b3b4b19032b93937b91760a11b604082015260600190565b602080825260059082015264444d55524960d81b604082015260600190565b6020808252603b908201527f4c6576656c206d757374206265206c6f776572207468616e206d6178206c657660408201527f656c20616e6420686967686572207468616e2063757272656e742e0000000000606082015260800190565b60208082526022908201527f456e756d657261626c654d61703a20696e646578206f7574206f6620626f756e604082015261647360f01b606082015260800190565b60208082526023908201527f4c6576656c206d757374206265206c6f776572207468616e206d6178206c657660408201526232b61760e91b606082015260800190565b6020808252818101527f4552433732313a206d696e7420746f20746865207a65726f2061646472657373604082015260600190565b6020808252604d908201527f4d6178206c6576656c20617272617973206d75737420626520657175616c206960408201527f6e206e6f6e2d7a65726f206c656e67746820616e642074696d652073686f756c60608201526c321039ba30b93a1030ba10181760991b608082015260a00190565b60208082526021908201527f536166654d6174683a206d756c7469706c69636174696f6e206f766572666c6f6040820152607760f81b606082015260800190565b6020808252602c908201527f4552433732313a20617070726f76656420717565727920666f72206e6f6e657860408201526b34b9ba32b73a103a37b5b2b760a11b606082015260800190565b6020808252602c908201527f4552433732314d657461646174613a2055524920736574206f66206e6f6e657860408201526b34b9ba32b73a103a37b5b2b760a11b606082015260800190565b6020808252818101527f4f776e61626c653a2063616c6c6572206973206e6f7420746865206f776e6572604082015260600190565b60208082526003908201526247434160e81b604082015260600190565b60208082526029908201527f4552433732313a207472616e73666572206f6620746f6b656e2074686174206960408201526839903737ba1037bbb760b91b606082015260800190565b6020808252602f908201527f4552433732314d657461646174613a2055524920717565727920666f72206e6f60408201526e3732bc34b9ba32b73a103a37b5b2b760891b606082015260800190565b60208082526023908201527f4e6f7420656e6f756768207065726d697373696f6e7320666f7220746f6b656e60408201526210191760e91b606082015260800190565b6020808252600b908201526a26b0bc1036b4b73a32b21760a91b604082015260600190565b60208082526021908201527f4552433732313a20617070726f76616c20746f2063757272656e74206f776e656040820152603960f91b606082015260800190565b60208082526018908201527f63616c6c6572206973206e6f7420617574686f72697a65640000000000000000604082015260600190565b6020808252601c908201527f546f6b656e20494473206d75737420626520646966666572656e742e00000000604082015260600190565b60208082526039908201527f546f6f206d75636820746f20756e6c6f636b206e61747572616c6c792c20706c60408201527f656173652063616c6c20756e6c6f636b28292066697273742e00000000000000606082015260800190565b602080825260029082015261424160f01b604082015260600190565b60208082526031908201527f4552433732313a207472616e736665722063616c6c6572206973206e6f74206f6040820152701ddb995c881b9bdc88185c1c1c9bdd9959607a1b606082015260800190565b6020808252601d908201527f416464726573733a2063616c6c20746f206e6f6e2d636f6e7472616374000000604082015260600190565b6020808252602a908201527f5361666545524332303a204552433230206f7065726174696f6e20646964206e6040820152691bdd081cdd58d8d9595960b21b606082015260800190565b60208082526026908201527f436f6e747261637447756172643a206f6e6520626c6f636b2c206f6e652066756040820152653731ba34b7b760d11b606082015260800190565b6020808252601690820152752a37b79032b0b9363c903a37903632bb32b6103ab81760511b604082015260600190565b602080825260029082015261049560f41b604082015260600190565b60208082526036908201527f5361666545524332303a20617070726f76652066726f6d206e6f6e2d7a65726f60408201527520746f206e6f6e2d7a65726f20616c6c6f77616e636560501b606082015260800190565b60208082526025908201527f426f746820746f6b656e73206d7573742068617665207468652073616d65206f6040820152643bb732b91760d91b606082015260800190565b90815260200190565b600083825260406020830152613cf46040830184614ed7565b600086825285602083015260a06040830152615e2860a0830186614ed7565b6001600160a01b0394909416606083015250608001529392505050565b938452602084019290925260408301521515606082015260800190565b60405181810167ffffffffffffffff81118282101715615e8157600080fd5b604052919050565b600067ffffffffffffffff821115615e9f578081fd5b5060209081020190565b60005b83811015615ec4578181015183820152602001615eac565b838111156121695750506000910152565b6001600160a01b038116811461490257600080fd5b801515811461490257600080fd5b6001600160e01b03198116811461490257600080fdfe4552433732313a207472616e7366657220746f206e6f6e20455243373231526563656976657220696d706c656d656e7465724552433732313a206f776e657220717565727920666f72206e6f6e6578697374656e7420746f6b656ea2646970667358221220c464ef4050776a004cb5a1ccc20ec0d4f1571fc0f1e145b13726608168e3718b64736f6c634300060c0033",
  "linkReferences": {},
  "deployedLinkReferences": {}
}